1MAIL0000152179BR10        BRNC        BRNCCOCO    BRNCCOCO13AG2020040300:00:00OR  010000056396030005639603152179                             2020040320200403Z016CIF202004030000000000071288NN0                                                  0                                        
2MAIL0000152179BR10        BRNC        BRNCCOCO    BRNCCOCO13AG00000100000000001132200400000000000000100000000000000000000000002230Z01620200403X066000000
2MAIL0000152179BR10        BRNC        BRNCCOCO    BRNCCOCO13AG00000200000000001226089600000000000001200000000000000000000000005045Z01620200403X066000000
2MAIL0000152179BR10        BRNC        BRNCCOCO    BRNCCOCO13AG00000300000000001228274000000000000000100000000000000000000000005568Z01620200403X066000000
2MAIL0000152179BR10        BRNC        BRNCCOCO    BRNCCOCO13AG00000400000000001228512700000000000000100000000000000000000000005568Z01620200403X066000000
2MAIL0000152179BR10        BRNC        BRNCCOCO    BRNCCOCO13AG00000500000000001231189200000000000000100000000000000000000000005568Z01620200403X066000000
2MAIL0000152179BR10        BRNC        BRNCCOCO    BRNCCOCO13AG00000600000000001231231200000000000000100000000000000000000000005568Z01620200403X066000000
2MAIL0000152179BR10        BRNC        BRNCCOCO    BRNCCOCO13AG00000700000000001234705700000000000000100000000000000000000000005568Z01620200403X066000000
2MAIL0000152179BR10        BRNC        BRNCCOCO    BRNCCOCO13AG00000800000000001235699400000000000001000000000000000000000000004211Z01620200403X066000000
2MAIL0000152179BR10        BRNC        BRNCCOCO    BRNCCOCO13AG00000900000000001235699700000000000001000000000000000000000000004211Z01620200403X066000000
2MAIL0000152179BR10        BRNC        BRNCCOCO    BRNCCOCO13AG00001000000000001235699800000000000001000000000000000000000000004211Z01620200403X066000000
2MAIL0000152179BR10        BRNC        BRNCCOCO    BRNCCOCO13AG00001100000000001239688600000000000001400000000000000000000000005885Z01620200403X066000000
2MAIL0000152179BR10        BRNC        BRNCCOCO    BRNCCOCO13AG00001200000000001239688700000000000001400000000000000000000000005885Z01620200403X066000000
2MAIL0000152179BR10        BRNC        BRNCCOCO    BRNCCOCO13AG00001300000000001239688800000000000001400000000000000000000000005885Z01620200403X066000000
2MAIL0000152179BR10        BRNC        BRNCCOCO    BRNCCOCO13AG00001400000000001239692300000000000001400000000000000000000000005885Z01620200403X066000000
1MAIL0000152180BR10        BRNC        BRNCCOCO    BRNCCOCO13AG2020040300:00:00OR  010000028997860002899786152180                             2020040320200403Z016CIF202004030000000000043979NN0                                                  0                                        
2MAIL0000152180BR10        BRNC        BRNCCOCO    BRNCCOCO13AG00000100000000001226089600000000000001200000000000000000000000004784Z01620200403X066000000
2MAIL0000152180BR10        BRNC        BRNCCOCO    BRNCCOCO13AG00000200000000001228512700000000000000100000000000000000000000005280Z01620200403X066000000
2MAIL0000152180BR10        BRNC        BRNCCOCO    BRNCCOCO13AG00000300000000001235699400000000000001000000000000000000000000003995Z01620200403X066000000
2MAIL0000152180BR10        BRNC        BRNCCOCO    BRNCCOCO13AG00000400000000001235699700000000000001000000000000000000000000003995Z01620200403X066000000
2MAIL0000152180BR10        BRNC        BRNCCOCO    BRNCCOCO13AG00000500000000001235699800000000000001000000000000000000000000003995Z01620200403X066000000
2MAIL0000152180BR10        BRNC        BRNCCOCO    BRNCCOCO13AG00000600000000001239688600000000000001400000000000000000000000005582Z01620200403X066000000
2MAIL0000152180BR10        BRNC        BRNCCOCO    BRNCCOCO13AG00000700000000001239688800000000000001400000000000000000000000005582Z01620200403X066000000
2MAIL0000152180BR10        BRNC        BRNCCOCO    BRNCCOCO13AG00000800000000001239692300000000000001400000000000000000000000005582Z01620200403X066000000
2MAIL0000152180BR10        BRNC        BRNCCOCO    BRNCCOCO13AG00000900000000001241623700000000000000200000000000000000000000005184Z01620200403X066000000
1MAIL0000152181BR10        BRNC        BRNCCOCO    BRNCCOCO13AG2020040300:00:00OR  010000052114260005211426152181                             2020040320200403Z016CIF202004030000000000014061NN0                                                  0                                        
2MAIL0000152181BR10        BRNC        BRNCCOCO    BRNCCOCO13AG00000100000000001132036700000000000000100000000000000000000000002291Z01620200403X066000000
2MAIL0000152181BR10        BRNC        BRNCCOCO    BRNCCOCO13AG00000200000000001239688600000000000001400000000000000000000000005885Z01620200403X066000000
2MAIL0000152181BR10        BRNC        BRNCCOCO    BRNCCOCO13AG00000300000000001239692100000000000001400000000000000000000000005885Z01620200403X066000000
1MAIL0000152182BR10        BRNC        BRNCCOCO    BRNCCOCO13AG2020040300:00:00OR  010000043302550004330255152182                             2020040320200403Z016CIF202004030000000000118738NN0                                                  0                                        
2MAIL0000152182BR10        BRNC        BRNCCOCO    BRNCCOCO13AG00000100000000001132033100000000000000300000000000000000000000006872Z01620200403X066000000
2MAIL0000152182BR10        BRNC        BRNCCOCO    BRNCCOCO13AG00000200000000001132036700000000000000300000000000000000000000006872Z01620200403X066000000
2MAIL0000152182BR10        BRNC        BRNCCOCO    BRNCCOCO13AG00000300000000001132400100000000000000100000000000000000000000003165Z01620200403X066000000
2MAIL0000152182BR10        BRNC        BRNCCOCO    BRNCCOCO13AG00000400000000001215533700000000000000300000000000000000000000006872Z01620200403X066000000
2MAIL0000152182BR10        BRNC        BRNCCOCO    BRNCCOCO13AG00000500000000001223975300000000000000100000000000000000000000005568Z01620200403X066000000
2MAIL0000152182BR10        BRNC        BRNCCOCO    BRNCCOCO13AG00000600000000001226089600000000000001200000000000000000000000005045Z01620200403X066000000
2MAIL0000152182BR10        BRNC        BRNCCOCO    BRNCCOCO13AG00000700000000001228274000000000000000100000000000000000000000005568Z01620200403X066000000
2MAIL0000152182BR10        BRNC        BRNCCOCO    BRNCCOCO13AG00000800000000001228512700000000000000100000000000000000000000005568Z01620200403X066000000
2MAIL0000152182BR10        BRNC        BRNCCOCO    BRNCCOCO13AG00000900000000001231189200000000000000100000000000000000000000005568Z01620200403X066000000
2MAIL0000152182BR10        BRNC        BRNCCOCO    BRNCCOCO13AG00001000000000001231231200000000000000100000000000000000000000005568Z01620200403X066000000
2MAIL0000152182BR10        BRNC        BRNCCOCO    BRNCCOCO13AG00001100000000001231233000000000000000100000000000000000000000005568Z01620200403X066000000
2MAIL0000152182BR10        BRNC        BRNCCOCO    BRNCCOCO13AG00001200000000001235699700000000000001000000000000000000000000004211Z01620200403X066000000
2MAIL0000152182BR10        BRNC        BRNCCOCO    BRNCCOCO13AG00001300000000001235699800000000000001000000000000000000000000004211Z01620200403X066000000
2MAIL0000152182BR10        BRNC        BRNCCOCO    BRNCCOCO13AG00001400000000001236515000000000000000500000000000000000000000001002Z01620200403X066000000
2MAIL0000152182BR10        BRNC        BRNCCOCO    BRNCCOCO13AG00001500000000001239688300000000000001400000000000000000000000005885Z01620200403X066000000
2MAIL0000152182BR10        BRNC        BRNCCOCO    BRNCCOCO13AG00001600000000001239688500000000000001400000000000000000000000005885Z01620200403X066000000
2MAIL0000152182BR10        BRNC        BRNCCOCO    BRNCCOCO13AG00001700000000001239688600000000000001400000000000000000000000005885Z01620200403X066000000
2MAIL0000152182BR10        BRNC        BRNCCOCO    BRNCCOCO13AG00001800000000001239688700000000000001400000000000000000000000005885Z01620200403X066000000
2MAIL0000152182BR10        BRNC        BRNCCOCO    BRNCCOCO13AG00001900000000001239688800000000000001400000000000000000000000005885Z01620200403X066000000
2MAIL0000152182BR10        BRNC        BRNCCOCO    BRNCCOCO13AG00002000000000001239692100000000000001400000000000000000000000005885Z01620200403X066000000
2MAIL0000152182BR10        BRNC        BRNCCOCO    BRNCCOCO13AG00002100000000001239692300000000000001400000000000000000000000005885Z01620200403X066000000
2MAIL0000152182BR10        BRNC        BRNCCOCO    BRNCCOCO13AG00002200000000001242754900000000000001400000000000000000000000005885Z01620200403X066000000
