1MAIL0000150635BR10        BRNC        BRNCCOCO    BRNCCOCO13AG2020032400:00:00OR  010000061131280006113128150635                             2020032420200324Z016CIF202003240000000000007014NN0                                                  0                                        
2MAIL0000150635BR10        BRNC        BRNCCOCO    BRNCCOCO13AG00000100000000001236512900000000000003500000000000000000000000007014Z01620200324X066000000
1MAIL0000150636BR10        BRNC        BRNCCOCO    BRNCCOCO13AG2020032400:00:00OR  010000053810950005381095150636                             2020032420200324Z016CIF202003240000000000005423NN0                                                  0                                        
2MAIL0000150636BR10        BRNC        BRNCCOCO    BRNCCOCO13AG00000100000000001132033100000000000000100000000000000000000000001654Z01620200324X066000000
2MAIL0000150636BR10        BRNC        BRNCCOCO    BRNCCOCO13AG00000200000000001132036700000000000000100000000000000000000000001654Z01620200324X066000000
2MAIL0000150636BR10        BRNC        BRNCCOCO    BRNCCOCO13AG00000300000000001132200400000000000000100000000000000000000000002115Z01620200324X066000000
1MAIL0000150637BR10        BRNC        BRNCCOCO    BRNCCOCO13AG2020032400:00:00OR  010000031734200003173420150637                             2020032420200324Z079CIF202003240000000000444821NN0                                                  0                                        
2MAIL0000150637BR10        BRNC        BRNCCOCO    BRNCCOCO13AG00000100000000001132030800000000000001200000000000000000000000036571Z07920200324X066000000
2MAIL0000150637BR10        BRNC        BRNCCOCO    BRNCCOCO13AG00000200000000001132030900000000000001200000000000000000000000037729Z07920200324X066000000
2MAIL0000150637BR10        BRNC        BRNCCOCO    BRNCCOCO13AG00000300000000001132035100000000000002000000000000000000000000045861Z07920200324X066000000
2MAIL0000150637BR10        BRNC        BRNCCOCO    BRNCCOCO13AG00000400000000001239688600000000000011200000000000000000000000041892Z07920200324X066000000
2MAIL0000150637BR10        BRNC        BRNCCOCO    BRNCCOCO13AG00000500000000001239688800000000000022400000000000000000000000083783Z07920200324X066000000
2MAIL0000150637BR10        BRNC        BRNCCOCO    BRNCCOCO13AG00000600000000001239692000000000000016800000000000000000000000062837Z07920200324X066000000
2MAIL0000150637BR10        BRNC        BRNCCOCO    BRNCCOCO13AG00000700000000001239692100000000000033600000000000000000000000125675Z07920200324X066000000
2MAIL0000150637BR10        BRNC        BRNCCOCO    BRNCCOCO13AG00000800000000001239692300000000000002800000000000000000000000010473Z07920200324X066000000
1MAIL0000150638BR10        BRNC        BRNCCOCO    BRNCCOCO13AG2020032400:00:00OR  010000009186760000918676150638                             2020032420200324Z079CIF202003240000000000497185NN0                                                  0                                        
2MAIL0000150638BR10        BRNC        BRNCCOCO    BRNCCOCO13AG00000100000000001132030800000000000001200000000000000000000000036571Z07920200324X066000000
2MAIL0000150638BR10        BRNC        BRNCCOCO    BRNCCOCO13AG00000200000000001132030900000000000001200000000000000000000000037729Z07920200324X066000000
2MAIL0000150638BR10        BRNC        BRNCCOCO    BRNCCOCO13AG00000300000000001132035100000000000002000000000000000000000000045861Z07920200324X066000000
2MAIL0000150638BR10        BRNC        BRNCCOCO    BRNCCOCO13AG00000400000000001239688300000000000014000000000000000000000000052364Z07920200324X066000000
2MAIL0000150638BR10        BRNC        BRNCCOCO    BRNCCOCO13AG00000500000000001239688600000000000011200000000000000000000000041892Z07920200324X066000000
2MAIL0000150638BR10        BRNC        BRNCCOCO    BRNCCOCO13AG00000600000000001239688800000000000022400000000000000000000000083783Z07920200324X066000000
2MAIL0000150638BR10        BRNC        BRNCCOCO    BRNCCOCO13AG00000700000000001239692000000000000016800000000000000000000000062837Z07920200324X066000000
2MAIL0000150638BR10        BRNC        BRNCCOCO    BRNCCOCO13AG00000800000000001239692100000000000033600000000000000000000000125675Z07920200324X066000000
2MAIL0000150638BR10        BRNC        BRNCCOCO    BRNCCOCO13AG00000900000000001239692300000000000002800000000000000000000000010473Z07920200324X066000000
1MAIL0000150639BR10        BRNC        BRNCCOCO    BRNCCOCO13AG2020032400:00:00OR  010000009186640000918664150639                             2020032420200324Z016CIF202003240000000000590208NN0                                                  0                                        
2MAIL0000150639BR10        BRNC        BRNCCOCO    BRNCCOCO13AG00000100000000001132030800000000000001200000000000000000000000036482Z01620200324X066000000
2MAIL0000150639BR10        BRNC        BRNCCOCO    BRNCCOCO13AG00000200000000001132030900000000000001200000000000000000000000037641Z01620200324X066000000
2MAIL0000150639BR10        BRNC        BRNCCOCO    BRNCCOCO13AG00000300000000001132035100000000000002000000000000000000000000045742Z01620200324X066000000
2MAIL0000150639BR10        BRNC        BRNCCOCO    BRNCCOCO13AG00000400000000001239688600000000000011200000000000000000000000041808Z01620200324X066000000
2MAIL0000150639BR10        BRNC        BRNCCOCO    BRNCCOCO13AG00000500000000001239688800000000000011200000000000000000000000041808Z01620200324X066000000
2MAIL0000150639BR10        BRNC        BRNCCOCO    BRNCCOCO13AG00000600000000001239692000000000000067200000000000000000000000250850Z01620200324X066000000
2MAIL0000150639BR10        BRNC        BRNCCOCO    BRNCCOCO13AG00000700000000001239692100000000000033600000000000000000000000125425Z01620200324X066000000
2MAIL0000150639BR10        BRNC        BRNCCOCO    BRNCCOCO13AG00000800000000001239692300000000000002800000000000000000000000010452Z01620200324X066000000
1MAIL0000150640BR10        BRNC        BRNCCOCO    BRNCCOCO13AG2020032400:00:00OR  010000043965500004396550150640                             2020032420200324Z079CIF202003240000000000361038NN0                                                  0                                        
2MAIL0000150640BR10        BRNC        BRNCCOCO    BRNCCOCO13AG00000100000000001132030800000000000001200000000000000000000000036571Z07920200324X066000000
2MAIL0000150640BR10        BRNC        BRNCCOCO    BRNCCOCO13AG00000200000000001132030900000000000001200000000000000000000000037729Z07920200324X066000000
2MAIL0000150640BR10        BRNC        BRNCCOCO    BRNCCOCO13AG00000300000000001132035100000000000002000000000000000000000000045861Z07920200324X066000000
2MAIL0000150640BR10        BRNC        BRNCCOCO    BRNCCOCO13AG00000400000000001239688600000000000011200000000000000000000000041892Z07920200324X066000000
2MAIL0000150640BR10        BRNC        BRNCCOCO    BRNCCOCO13AG00000500000000001239692000000000000016800000000000000000000000062837Z07920200324X066000000
2MAIL0000150640BR10        BRNC        BRNCCOCO    BRNCCOCO13AG00000600000000001239692100000000000033600000000000000000000000125675Z07920200324X066000000
2MAIL0000150640BR10        BRNC        BRNCCOCO    BRNCCOCO13AG00000700000000001239692300000000000002800000000000000000000000010473Z07920200324X066000000
1MAIL0000150641BR10        BRNC        BRNCCOCO    BRNCCOCO13AG2020032400:00:00OR  010000039611650003961165150641                             2020032420200324Z079CIF202003240000000000193471NN0                                                  0                                        
2MAIL0000150641BR10        BRNC        BRNCCOCO    BRNCCOCO13AG00000100000000001132030800000000000001200000000000000000000000036571Z07920200324X066000000
2MAIL0000150641BR10        BRNC        BRNCCOCO    BRNCCOCO13AG00000200000000001132030900000000000001200000000000000000000000037729Z07920200324X066000000
2MAIL0000150641BR10        BRNC        BRNCCOCO    BRNCCOCO13AG00000300000000001132035100000000000002000000000000000000000000045861Z07920200324X066000000
2MAIL0000150641BR10        BRNC        BRNCCOCO    BRNCCOCO13AG00000400000000001239688600000000000005600000000000000000000000020945Z07920200324X066000000
2MAIL0000150641BR10        BRNC        BRNCCOCO    BRNCCOCO13AG00000500000000001239692000000000000011200000000000000000000000041892Z07920200324X066000000
2MAIL0000150641BR10        BRNC        BRNCCOCO    BRNCCOCO13AG00000600000000001239692300000000000002800000000000000000000000010473Z07920200324X066000000
1MAIL0000150642BR10        BRNC        BRNCCOCO    BRNCCOCO13AG2020032400:00:00OR  010000039611640003961164150642                             2020032420200324Z079CIF202003240000000000235363NN0                                                  0                                        
2MAIL0000150642BR10        BRNC        BRNCCOCO    BRNCCOCO13AG00000100000000001132030800000000000001200000000000000000000000036571Z07920200324X066000000
2MAIL0000150642BR10        BRNC        BRNCCOCO    BRNCCOCO13AG00000200000000001132030900000000000001200000000000000000000000037729Z07920200324X066000000
2MAIL0000150642BR10        BRNC        BRNCCOCO    BRNCCOCO13AG00000300000000001132035100000000000002000000000000000000000000045861Z07920200324X066000000
2MAIL0000150642BR10        BRNC        BRNCCOCO    BRNCCOCO13AG00000400000000001239688600000000000005600000000000000000000000020945Z07920200324X066000000
2MAIL0000150642BR10        BRNC        BRNCCOCO    BRNCCOCO13AG00000500000000001239692000000000000011200000000000000000000000041892Z07920200324X066000000
2MAIL0000150642BR10        BRNC        BRNCCOCO    BRNCCOCO13AG00000600000000001239692100000000000011200000000000000000000000041892Z07920200324X066000000
2MAIL0000150642BR10        BRNC        BRNCCOCO    BRNCCOCO13AG00000700000000001239692300000000000002800000000000000000000000010473Z07920200324X066000000
1MAIL0000150643BR10        BRNC        BRNCCOCO    BRNCCOCO13AG2020032400:00:00OR  010000056295690005629569150643                             2020032420200324Z079CIF202003240000000000235363NN0                                                  0                                        
2MAIL0000150643BR10        BRNC        BRNCCOCO    BRNCCOCO13AG00000100000000001132030800000000000001200000000000000000000000036571Z07920200324X066000000
2MAIL0000150643BR10        BRNC        BRNCCOCO    BRNCCOCO13AG00000200000000001132030900000000000001200000000000000000000000037729Z07920200324X066000000
2MAIL0000150643BR10        BRNC        BRNCCOCO    BRNCCOCO13AG00000300000000001132035100000000000002000000000000000000000000045861Z07920200324X066000000
2MAIL0000150643BR10        BRNC        BRNCCOCO    BRNCCOCO13AG00000400000000001239688600000000000005600000000000000000000000020945Z07920200324X066000000
2MAIL0000150643BR10        BRNC        BRNCCOCO    BRNCCOCO13AG00000500000000001239692000000000000011200000000000000000000000041892Z07920200324X066000000
2MAIL0000150643BR10        BRNC        BRNCCOCO    BRNCCOCO13AG00000600000000001239692100000000000011200000000000000000000000041892Z07920200324X066000000
2MAIL0000150643BR10        BRNC        BRNCCOCO    BRNCCOCO13AG00000700000000001239692300000000000002800000000000000000000000010473Z07920200324X066000000
1MAIL0000150644BR10        BRNC        BRNCCOCO    BRNCCOCO13AG2020032400:00:00OR  010000047587740004758774150644                             2020032420200324Z079CIF202003240000000000298200NN0                                                  0                                        
2MAIL0000150644BR10        BRNC        BRNCCOCO    BRNCCOCO13AG00000100000000001132030800000000000001200000000000000000000000036571Z07920200324X066000000
2MAIL0000150644BR10        BRNC        BRNCCOCO    BRNCCOCO13AG00000200000000001132030900000000000001200000000000000000000000037729Z07920200324X066000000
2MAIL0000150644BR10        BRNC        BRNCCOCO    BRNCCOCO13AG00000300000000001132035100000000000002000000000000000000000000045861Z07920200324X066000000
2MAIL0000150644BR10        BRNC        BRNCCOCO    BRNCCOCO13AG00000400000000001239688600000000000011200000000000000000000000041892Z07920200324X066000000
2MAIL0000150644BR10        BRNC        BRNCCOCO    BRNCCOCO13AG00000500000000001239692000000000000016800000000000000000000000062837Z07920200324X066000000
2MAIL0000150644BR10        BRNC        BRNCCOCO    BRNCCOCO13AG00000600000000001239692100000000000016800000000000000000000000062837Z07920200324X066000000
2MAIL0000150644BR10        BRNC        BRNCCOCO    BRNCCOCO13AG00000700000000001239692300000000000002800000000000000000000000010473Z07920200324X066000000
1MAIL0000150645BR10        BRNC        BRNCCOCO    BRNCCOCO13AG2020032400:00:00OR  010000044365670004436567150645                             2020032420200324Z079CIF202003240000000000193471NN0                                                  0                                        
2MAIL0000150645BR10        BRNC        BRNCCOCO    BRNCCOCO13AG00000100000000001132030800000000000001200000000000000000000000036571Z07920200324X066000000
2MAIL0000150645BR10        BRNC        BRNCCOCO    BRNCCOCO13AG00000200000000001132030900000000000001200000000000000000000000037729Z07920200324X066000000
2MAIL0000150645BR10        BRNC        BRNCCOCO    BRNCCOCO13AG00000300000000001132035100000000000002000000000000000000000000045861Z07920200324X066000000
2MAIL0000150645BR10        BRNC        BRNCCOCO    BRNCCOCO13AG00000400000000001239688600000000000005600000000000000000000000020945Z07920200324X066000000
2MAIL0000150645BR10        BRNC        BRNCCOCO    BRNCCOCO13AG00000500000000001239692000000000000011200000000000000000000000041892Z07920200324X066000000
2MAIL0000150645BR10        BRNC        BRNCCOCO    BRNCCOCO13AG00000600000000001239692300000000000002800000000000000000000000010473Z07920200324X066000000
1MAIL0000150646BR10        BRNC        BRNCCOCO    BRNCCOCO13AG2020032400:00:00OR  010000029005980002900598150646                             2020032420200324Z016CIF202003240000000000163152NN0                                                  0                                        
2MAIL0000150646BR10        BRNC        BRNCCOCO    BRNCCOCO13AG00000100000000001132019700000000000000100000000000000000000000002076Z01620200324X066000000
2MAIL0000150646BR10        BRNC        BRNCCOCO    BRNCCOCO13AG00000200000000001132019800000000000000100000000000000000000000002076Z01620200324X066000000
2MAIL0000150646BR10        BRNC        BRNCCOCO    BRNCCOCO13AG00000300000000001132033100000000000000100000000000000000000000002291Z01620200324X066000000
2MAIL0000150646BR10        BRNC        BRNCCOCO    BRNCCOCO13AG00000400000000001132036700000000000000100000000000000000000000002291Z01620200324X066000000
2MAIL0000150646BR10        BRNC        BRNCCOCO    BRNCCOCO13AG00000500000000001223975300000000000000100000000000000000000000005568Z01620200324X066000000
2MAIL0000150646BR10        BRNC        BRNCCOCO    BRNCCOCO13AG00000600000000001226089600000000000001200000000000000000000000005045Z01620200324X066000000
2MAIL0000150646BR10        BRNC        BRNCCOCO    BRNCCOCO13AG00000700000000001228274000000000000000100000000000000000000000005568Z01620200324X066000000
2MAIL0000150646BR10        BRNC        BRNCCOCO    BRNCCOCO13AG00000800000000001228512700000000000000100000000000000000000000005568Z01620200324X066000000
2MAIL0000150646BR10        BRNC        BRNCCOCO    BRNCCOCO13AG00000900000000001231189200000000000000100000000000000000000000005568Z01620200324X066000000
2MAIL0000150646BR10        BRNC        BRNCCOCO    BRNCCOCO13AG00001000000000001231231200000000000000100000000000000000000000005568Z01620200324X066000000
2MAIL0000150646BR10        BRNC        BRNCCOCO    BRNCCOCO13AG00001100000000001231233000000000000000100000000000000000000000005568Z01620200324X066000000
2MAIL0000150646BR10        BRNC        BRNCCOCO    BRNCCOCO13AG00001200000000001234705700000000000000100000000000000000000000005568Z01620200324X066000000
2MAIL0000150646BR10        BRNC        BRNCCOCO    BRNCCOCO13AG00001300000000001234705800000000000000100000000000000000000000005568Z01620200324X066000000
2MAIL0000150646BR10        BRNC        BRNCCOCO    BRNCCOCO13AG00001400000000001234705900000000000000100000000000000000000000005568Z01620200324X066000000
2MAIL0000150646BR10        BRNC        BRNCCOCO    BRNCCOCO13AG00001500000000001235699400000000000001000000000000000000000000004211Z01620200324X066000000
2MAIL0000150646BR10        BRNC        BRNCCOCO    BRNCCOCO13AG00001600000000001235699700000000000001000000000000000000000000004211Z01620200324X066000000
2MAIL0000150646BR10        BRNC        BRNCCOCO    BRNCCOCO13AG00001700000000001235699800000000000001000000000000000000000000004211Z01620200324X066000000
2MAIL0000150646BR10        BRNC        BRNCCOCO    BRNCCOCO13AG00001800000000001236512900000000000001000000000000000000000000002004Z01620200324X066000000
2MAIL0000150646BR10        BRNC        BRNCCOCO    BRNCCOCO13AG00001900000000001236515000000000000001000000000000000000000000002004Z01620200324X066000000
2MAIL0000150646BR10        BRNC        BRNCCOCO    BRNCCOCO13AG00002000000000001238083500000000000000100000000000000000000000005568Z01620200324X066000000
2MAIL0000150646BR10        BRNC        BRNCCOCO    BRNCCOCO13AG00002100000000001239373400000000000000100000000000000000000000006952Z01620200324X066000000
2MAIL0000150646BR10        BRNC        BRNCCOCO    BRNCCOCO13AG00002200000000001239373500000000000000100000000000000000000000006952Z01620200324X066000000
2MAIL0000150646BR10        BRNC        BRNCCOCO    BRNCCOCO13AG00002300000000001239373600000000000000100000000000000000000000006952Z01620200324X066000000
2MAIL0000150646BR10        BRNC        BRNCCOCO    BRNCCOCO13AG00002400000000001239373700000000000000100000000000000000000000006952Z01620200324X066000000
2MAIL0000150646BR10        BRNC        BRNCCOCO    BRNCCOCO13AG00002500000000001239688300000000000001400000000000000000000000005885Z01620200324X066000000
2MAIL0000150646BR10        BRNC        BRNCCOCO    BRNCCOCO13AG00002600000000001239688600000000000001400000000000000000000000005885Z01620200324X066000000
2MAIL0000150646BR10        BRNC        BRNCCOCO    BRNCCOCO13AG00002700000000001239688800000000000001400000000000000000000000005885Z01620200324X066000000
2MAIL0000150646BR10        BRNC        BRNCCOCO    BRNCCOCO13AG00002800000000001239692000000000000001400000000000000000000000005885Z01620200324X066000000
2MAIL0000150646BR10        BRNC        BRNCCOCO    BRNCCOCO13AG00002900000000001239692100000000000001400000000000000000000000005885Z01620200324X066000000
2MAIL0000150646BR10        BRNC        BRNCCOCO    BRNCCOCO13AG00003000000000001239692300000000000001400000000000000000000000005885Z01620200324X066000000
2MAIL0000150646BR10        BRNC        BRNCCOCO    BRNCCOCO13AG00003100000000001241623700000000000000100000000000000000000000002481Z01620200324X066000000
2MAIL0000150646BR10        BRNC        BRNCCOCO    BRNCCOCO13AG00003200000000001242374800000000000000100000000000000000000000005568Z01620200324X066000000
2MAIL0000150646BR10        BRNC        BRNCCOCO    BRNCCOCO13AG00003300000000001242626100000000000001400000000000000000000000005885Z01620200324X066000000
1MAIL0000150647BR10        BRNC        BRNCCOCO    BRNCCOCO13AG2020032400:00:00OR  010000039898040003989804150647                             2020032420200324Z016CIF202003240000000000194577NN0                                                  0                                        
2MAIL0000150647BR10        BRNC        BRNCCOCO    BRNCCOCO13AG00000100000000001132004000000000000000500000000000000000000000005662Z01620200324X066000000
2MAIL0000150647BR10        BRNC        BRNCCOCO    BRNCCOCO13AG00000200000000001132004200000000000000500000000000000000000000007806Z01620200324X066000000
2MAIL0000150647BR10        BRNC        BRNCCOCO    BRNCCOCO13AG00000300000000001132018300000000000000100000000000000000000000003735Z01620200324X066000000
2MAIL0000150647BR10        BRNC        BRNCCOCO    BRNCCOCO13AG00000400000000001132019700000000000000100000000000000000000000002076Z01620200324X066000000
2MAIL0000150647BR10        BRNC        BRNCCOCO    BRNCCOCO13AG00000500000000001132019800000000000000100000000000000000000000002076Z01620200324X066000000
2MAIL0000150647BR10        BRNC        BRNCCOCO    BRNCCOCO13AG00000600000000001132019900000000000000100000000000000000000000002076Z01620200324X066000000
2MAIL0000150647BR10        BRNC        BRNCCOCO    BRNCCOCO13AG00000700000000001132020900000000000000100000000000000000000000002076Z01620200324X066000000
2MAIL0000150647BR10        BRNC        BRNCCOCO    BRNCCOCO13AG00000800000000001132036700000000000000200000000000000000000000004581Z01620200324X066000000
2MAIL0000150647BR10        BRNC        BRNCCOCO    BRNCCOCO13AG00000900000000001132200400000000000000300000000000000000000000006690Z01620200324X066000000
2MAIL0000150647BR10        BRNC        BRNCCOCO    BRNCCOCO13AG00001000000000001132400100000000000000100000000000000000000000003165Z01620200324X066000000
2MAIL0000150647BR10        BRNC        BRNCCOCO    BRNCCOCO13AG00001100000000001221415400000000000000100000000000000000000000003735Z01620200324X066000000
2MAIL0000150647BR10        BRNC        BRNCCOCO    BRNCCOCO13AG00001200000000001223975300000000000000100000000000000000000000005568Z01620200324X066000000
2MAIL0000150647BR10        BRNC        BRNCCOCO    BRNCCOCO13AG00001300000000001226089600000000000001200000000000000000000000005045Z01620200324X066000000
2MAIL0000150647BR10        BRNC        BRNCCOCO    BRNCCOCO13AG00001400000000001227735000000000000000100000000000000000000000002076Z01620200324X066000000
2MAIL0000150647BR10        BRNC        BRNCCOCO    BRNCCOCO13AG00001500000000001228512700000000000000100000000000000000000000005568Z01620200324X066000000
2MAIL0000150647BR10        BRNC        BRNCCOCO    BRNCCOCO13AG00001600000000001231189200000000000000100000000000000000000000005568Z01620200324X066000000
2MAIL0000150647BR10        BRNC        BRNCCOCO    BRNCCOCO13AG00001700000000001231231200000000000000100000000000000000000000005568Z01620200324X066000000
2MAIL0000150647BR10        BRNC        BRNCCOCO    BRNCCOCO13AG00001800000000001234705700000000000000100000000000000000000000005568Z01620200324X066000000
2MAIL0000150647BR10        BRNC        BRNCCOCO    BRNCCOCO13AG00001900000000001234705900000000000000100000000000000000000000005568Z01620200324X066000000
2MAIL0000150647BR10        BRNC        BRNCCOCO    BRNCCOCO13AG00002000000000001235699400000000000001000000000000000000000000004211Z01620200324X066000000
2MAIL0000150647BR10        BRNC        BRNCCOCO    BRNCCOCO13AG00002100000000001235699700000000000001000000000000000000000000004211Z01620200324X066000000
2MAIL0000150647BR10        BRNC        BRNCCOCO    BRNCCOCO13AG00002200000000001235699800000000000002000000000000000000000000008422Z01620200324X066000000
2MAIL0000150647BR10        BRNC        BRNCCOCO    BRNCCOCO13AG00002300000000001236512800000000000000400000000000000000000000000762Z01620200324X066000000
2MAIL0000150647BR10        BRNC        BRNCCOCO    BRNCCOCO13AG00002400000000001236512900000000000001000000000000000000000000002004Z01620200324X066000000
2MAIL0000150647BR10        BRNC        BRNCCOCO    BRNCCOCO13AG00002500000000001236515000000000000001000000000000000000000000002004Z01620200324X066000000
2MAIL0000150647BR10        BRNC        BRNCCOCO    BRNCCOCO13AG00002600000000001239688300000000000001400000000000000000000000005885Z01620200324X066000000
2MAIL0000150647BR10        BRNC        BRNCCOCO    BRNCCOCO13AG00002700000000001239688600000000000001400000000000000000000000005885Z01620200324X066000000
2MAIL0000150647BR10        BRNC        BRNCCOCO    BRNCCOCO13AG00002800000000001239688800000000000002800000000000000000000000011770Z01620200324X066000000
2MAIL0000150647BR10        BRNC        BRNCCOCO    BRNCCOCO13AG00002900000000001239692000000000000001400000000000000000000000005885Z01620200324X066000000
2MAIL0000150647BR10        BRNC        BRNCCOCO    BRNCCOCO13AG00003000000000001239692100000000000001400000000000000000000000005885Z01620200324X066000000
2MAIL0000150647BR10        BRNC        BRNCCOCO    BRNCCOCO13AG00003100000000001239692300000000000001400000000000000000000000005885Z01620200324X066000000
2MAIL0000150647BR10        BRNC        BRNCCOCO    BRNCCOCO13AG00003200000000001240924900000000000000400000000000000000000000000735Z01620200324X066000000
2MAIL0000150647BR10        BRNC        BRNCCOCO    BRNCCOCO13AG00003300000000001241577400000000000003000000000000000000000000028853Z01620200324X066000000
2MAIL0000150647BR10        BRNC        BRNCCOCO    BRNCCOCO13AG00003400000000001241623700000000000000500000000000000000000000012405Z01620200324X066000000
2MAIL0000150647BR10        BRNC        BRNCCOCO    BRNCCOCO13AG00003500000000001242374800000000000000100000000000000000000000005568Z01620200324X066000000
1MAIL0000150648BR10        BRNC        BRNCCOCO    BRNCCOCO13AG2020032400:00:00OR  010000029833480002983348150648                             2020032420200324Z016CIF202003240000000000111079NN0                                                  0                                        
2MAIL0000150648BR10        BRNC        BRNCCOCO    BRNCCOCO13AG00000100000000001132019700000000000000100000000000000000000000001967Z01620200324X066000000
2MAIL0000150648BR10        BRNC        BRNCCOCO    BRNCCOCO13AG00000200000000001132019800000000000000100000000000000000000000001967Z01620200324X066000000
2MAIL0000150648BR10        BRNC        BRNCCOCO    BRNCCOCO13AG00000300000000001132019900000000000000100000000000000000000000001967Z01620200324X066000000
2MAIL0000150648BR10        BRNC        BRNCCOCO    BRNCCOCO13AG00000400000000001132020900000000000000100000000000000000000000001967Z01620200324X066000000
2MAIL0000150648BR10        BRNC        BRNCCOCO    BRNCCOCO13AG00000500000000001132036700000000000000100000000000000000000000002173Z01620200324X066000000
2MAIL0000150648BR10        BRNC        BRNCCOCO    BRNCCOCO13AG00000600000000001227735000000000000000100000000000000000000000001967Z01620200324X066000000
2MAIL0000150648BR10        BRNC        BRNCCOCO    BRNCCOCO13AG00000700000000001231189200000000000000100000000000000000000000005280Z01620200324X066000000
2MAIL0000150648BR10        BRNC        BRNCCOCO    BRNCCOCO13AG00000800000000001231233000000000000000100000000000000000000000005280Z01620200324X066000000
2MAIL0000150648BR10        BRNC        BRNCCOCO    BRNCCOCO13AG00000900000000001234705800000000000000100000000000000000000000005280Z01620200324X066000000
2MAIL0000150648BR10        BRNC        BRNCCOCO    BRNCCOCO13AG00001000000000001236512900000000000001000000000000000000000000001997Z01620200324X066000000
2MAIL0000150648BR10        BRNC        BRNCCOCO    BRNCCOCO13AG00001100000000001236515000000000000001000000000000000000000000001997Z01620200324X066000000
2MAIL0000150648BR10        BRNC        BRNCCOCO    BRNCCOCO13AG00001200000000001238083500000000000000100000000000000000000000005280Z01620200324X066000000
2MAIL0000150648BR10        BRNC        BRNCCOCO    BRNCCOCO13AG00001300000000001239373600000000000000100000000000000000000000006593Z01620200324X066000000
2MAIL0000150648BR10        BRNC        BRNCCOCO    BRNCCOCO13AG00001400000000001239688600000000000001400000000000000000000000005582Z01620200324X066000000
2MAIL0000150648BR10        BRNC        BRNCCOCO    BRNCCOCO13AG00001500000000001239692100000000000001400000000000000000000000005582Z01620200324X066000000
2MAIL0000150648BR10        BRNC        BRNCCOCO    BRNCCOCO13AG00001600000000001240924900000000000000800000000000000000000000001466Z01620200324X066000000
2MAIL0000150648BR10        BRNC        BRNCCOCO    BRNCCOCO13AG00001700000000001241577400000000000006000000000000000000000000054734Z01620200324X066000000
1MAIL0000150649BR10        BRNC        BRNCCOCO    BRNCCOCO13AG2020032400:00:00OR  010000029800100002980010150649                             2020032420200324Z016CIF202003240000000000145669NN0                                                  0                                        
2MAIL0000150649BR10        BRNC        BRNCCOCO    BRNCCOCO13AG00000100000000001132035000000000000002000000000000000000000000049211Z01620200324X066000000
2MAIL0000150649BR10        BRNC        BRNCCOCO    BRNCCOCO13AG00000200000000001226089600000000000001200000000000000000000000004580Z01620200324X066000000
2MAIL0000150649BR10        BRNC        BRNCCOCO    BRNCCOCO13AG00000300000000001235699700000000000001000000000000000000000000003825Z01620200324X066000000
2MAIL0000150649BR10        BRNC        BRNCCOCO    BRNCCOCO13AG00000400000000001235699800000000000001000000000000000000000000003825Z01620200324X066000000
2MAIL0000150649BR10        BRNC        BRNCCOCO    BRNCCOCO13AG00000500000000001236512900000000000007000000000000000000000000012727Z01620200324X066000000
2MAIL0000150649BR10        BRNC        BRNCCOCO    BRNCCOCO13AG00000600000000001236515000000000000007000000000000000000000000012727Z01620200324X066000000
2MAIL0000150649BR10        BRNC        BRNCCOCO    BRNCCOCO13AG00000700000000001239688300000000000004200000000000000000000000016030Z01620200324X066000000
2MAIL0000150649BR10        BRNC        BRNCCOCO    BRNCCOCO13AG00000800000000001239688600000000000002800000000000000000000000010686Z01620200324X066000000
2MAIL0000150649BR10        BRNC        BRNCCOCO    BRNCCOCO13AG00000900000000001239688700000000000002800000000000000000000000010686Z01620200324X066000000
2MAIL0000150649BR10        BRNC        BRNCCOCO    BRNCCOCO13AG00001000000000001239692100000000000002800000000000000000000000010686Z01620200324X066000000
2MAIL0000150649BR10        BRNC        BRNCCOCO    BRNCCOCO13AG00001100000000001239692300000000000002800000000000000000000000010686Z01620200324X066000000
1MAIL0000150650BR10        BRNC        BRNCCOCO    BRNCCOCO13AG2020032400:00:00OR  010000029057360002905736150650                             2020032420200324Z016CIF202003240000000000048779NN0                                                  0                                        
2MAIL0000150650BR10        BRNC        BRNCCOCO    BRNCCOCO13AG00000100000000001132019800000000000000100000000000000000000000002076Z01620200324X066000000
2MAIL0000150650BR10        BRNC        BRNCCOCO    BRNCCOCO13AG00000200000000001132033100000000000000100000000000000000000000002291Z01620200324X066000000
2MAIL0000150650BR10        BRNC        BRNCCOCO    BRNCCOCO13AG00000300000000001132036700000000000000100000000000000000000000002291Z01620200324X066000000
2MAIL0000150650BR10        BRNC        BRNCCOCO    BRNCCOCO13AG00000400000000001215533700000000000000100000000000000000000000002291Z01620200324X066000000
2MAIL0000150650BR10        BRNC        BRNCCOCO    BRNCCOCO13AG00000500000000001236512900000000000007000000000000000000000000014030Z01620200324X066000000
2MAIL0000150650BR10        BRNC        BRNCCOCO    BRNCCOCO13AG00000600000000001236515000000000000007000000000000000000000000014030Z01620200324X066000000
2MAIL0000150650BR10        BRNC        BRNCCOCO    BRNCCOCO13AG00000700000000001239688600000000000001400000000000000000000000005885Z01620200324X066000000
2MAIL0000150650BR10        BRNC        BRNCCOCO    BRNCCOCO13AG00000800000000001239688800000000000001400000000000000000000000005885Z01620200324X066000000
1MAIL0000150651BR10        BRNC        BRNCCOCO    BRNCCOCO13AG2020032400:00:00OR  010000029296780002929678150651                             2020032420200324Z016CIF202003240000000000020118NN0                                                  0                                        
2MAIL0000150651BR10        BRNC        BRNCCOCO    BRNCCOCO13AG00000100000000001132033100000000000000300000000000000000000000006518Z01620200324X066000000
2MAIL0000150651BR10        BRNC        BRNCCOCO    BRNCCOCO13AG00000200000000001132036700000000000000300000000000000000000000006518Z01620200324X066000000
2MAIL0000150651BR10        BRNC        BRNCCOCO    BRNCCOCO13AG00000300000000001221415400000000000000200000000000000000000000007082Z01620200324X066000000
1MAIL0000150652BR10        BRNC        BRNCCOCO    BRNCCOCO13AG2020032400:00:00OR  010000037028860003702886150652                             2020032420200324Z016CIF202003240000000000074805NN0                                                  0                                        
2MAIL0000150652BR10        BRNC        BRNCCOCO    BRNCCOCO13AG00000100000000001132036700000000000000100000000000000000000000002173Z01620200324X066000000
2MAIL0000150652BR10        BRNC        BRNCCOCO    BRNCCOCO13AG00000200000000001215533700000000000000200000000000000000000000004345Z01620200324X066000000
2MAIL0000150652BR10        BRNC        BRNCCOCO    BRNCCOCO13AG00000300000000001223975300000000000000100000000000000000000000005280Z01620200324X066000000
2MAIL0000150652BR10        BRNC        BRNCCOCO    BRNCCOCO13AG00000400000000001226089600000000000001200000000000000000000000004784Z01620200324X066000000
2MAIL0000150652BR10        BRNC        BRNCCOCO    BRNCCOCO13AG00000500000000001231189200000000000000100000000000000000000000005280Z01620200324X066000000
2MAIL0000150652BR10        BRNC        BRNCCOCO    BRNCCOCO13AG00000600000000001231231200000000000000100000000000000000000000005280Z01620200324X066000000
2MAIL0000150652BR10        BRNC        BRNCCOCO    BRNCCOCO13AG00000700000000001231233000000000000000100000000000000000000000005280Z01620200324X066000000
2MAIL0000150652BR10        BRNC        BRNCCOCO    BRNCCOCO13AG00000800000000001235699400000000000001000000000000000000000000003995Z01620200324X066000000
2MAIL0000150652BR10        BRNC        BRNCCOCO    BRNCCOCO13AG00000900000000001235699700000000000001000000000000000000000000003995Z01620200324X066000000
2MAIL0000150652BR10        BRNC        BRNCCOCO    BRNCCOCO13AG00001000000000001235699800000000000001000000000000000000000000003995Z01620200324X066000000
2MAIL0000150652BR10        BRNC        BRNCCOCO    BRNCCOCO13AG00001100000000001236512900000000000002500000000000000000000000004993Z01620200324X066000000
2MAIL0000150652BR10        BRNC        BRNCCOCO    BRNCCOCO13AG00001200000000001236515000000000000002500000000000000000000000004993Z01620200324X066000000
2MAIL0000150652BR10        BRNC        BRNCCOCO    BRNCCOCO13AG00001300000000001239688300000000000001400000000000000000000000005582Z01620200324X066000000
2MAIL0000150652BR10        BRNC        BRNCCOCO    BRNCCOCO13AG00001400000000001239688800000000000001400000000000000000000000005582Z01620200324X066000000
2MAIL0000150652BR10        BRNC        BRNCCOCO    BRNCCOCO13AG00001500000000001239692100000000000001400000000000000000000000005582Z01620200324X066000000
2MAIL0000150652BR10        BRNC        BRNCCOCO    BRNCCOCO13AG00001600000000001240924900000000000002000000000000000000000000003666Z01620200324X066000000
1MAIL0000150653BR10        BRNC        BRNCCOCO    BRNCCOCO13AG2020032400:00:00OR  010000058971820005897182150653                             2020032420200324Z079CIF202003240000000000021363NN0                                                  0                                        
2MAIL0000150653BR10        BRNC        BRNCCOCO    BRNCCOCO13AG00000100000000001132019800000000000000100000000000000000000000002081Z07920200324X066000000
2MAIL0000150653BR10        BRNC        BRNCCOCO    BRNCCOCO13AG00000200000000001132033100000000000000100000000000000000000000002297Z07920200324X066000000
2MAIL0000150653BR10        BRNC        BRNCCOCO    BRNCCOCO13AG00000300000000001132036700000000000000100000000000000000000000002297Z07920200324X066000000
2MAIL0000150653BR10        BRNC        BRNCCOCO    BRNCCOCO13AG00000400000000001215533700000000000000100000000000000000000000002297Z07920200324X066000000
2MAIL0000150653BR10        BRNC        BRNCCOCO    BRNCCOCO13AG00000500000000001236512900000000000001000000000000000000000000002004Z07920200324X066000000
2MAIL0000150653BR10        BRNC        BRNCCOCO    BRNCCOCO13AG00000600000000001236515000000000000001000000000000000000000000002004Z07920200324X066000000
2MAIL0000150653BR10        BRNC        BRNCCOCO    BRNCCOCO13AG00000700000000001239688800000000000001400000000000000000000000005896Z07920200324X066000000
2MAIL0000150653BR10        BRNC        BRNCCOCO    BRNCCOCO13AG00000800000000001241623700000000000000100000000000000000000000002487Z07920200324X066000000
1MAIL0000150654BR10        BRNC        BRNCCOCO    BRNCCOCO13AG2020032400:00:00OR  010000057461150005746115150654                             2020032420200324Z079CIF202003240000000000024417NN0                                                  0                                        
2MAIL0000150654BR10        BRNC        BRNCCOCO    BRNCCOCO13AG00000100000000001132019900000000000000100000000000000000000000001974Z07920200324X066000000
2MAIL0000150654BR10        BRNC        BRNCCOCO    BRNCCOCO13AG00000200000000001132033100000000000000100000000000000000000000002179Z07920200324X066000000
2MAIL0000150654BR10        BRNC        BRNCCOCO    BRNCCOCO13AG00000300000000001132036700000000000000100000000000000000000000002179Z07920200324X066000000
2MAIL0000150654BR10        BRNC        BRNCCOCO    BRNCCOCO13AG00000400000000001132200400000000000000100000000000000000000000002121Z07920200324X066000000
2MAIL0000150654BR10        BRNC        BRNCCOCO    BRNCCOCO13AG00000500000000001215533700000000000000100000000000000000000000002179Z07920200324X066000000
2MAIL0000150654BR10        BRNC        BRNCCOCO    BRNCCOCO13AG00000600000000001239688600000000000001400000000000000000000000005593Z07920200324X066000000
2MAIL0000150654BR10        BRNC        BRNCCOCO    BRNCCOCO13AG00000700000000001239688800000000000001400000000000000000000000005593Z07920200324X066000000
2MAIL0000150654BR10        BRNC        BRNCCOCO    BRNCCOCO13AG00000800000000001241623700000000000000100000000000000000000000002599Z07920200324X066000000
1MAIL0000150655BR10        BRNC        BRNCCOCO    BRNCCOCO13AG2020032400:00:00OR  010000044005050004400505150655                             2020032420200324Z079CIF202003240000000000013259NN0                                                  0                                        
2MAIL0000150655BR10        BRNC        BRNCCOCO    BRNCCOCO13AG00000100000000001132019900000000000000100000000000000000000000001979Z07920200324X066000000
2MAIL0000150655BR10        BRNC        BRNCCOCO    BRNCCOCO13AG00000200000000001132033100000000000000100000000000000000000000002185Z07920200324X066000000
2MAIL0000150655BR10        BRNC        BRNCCOCO    BRNCCOCO13AG00000300000000001132036700000000000000100000000000000000000000002185Z07920200324X066000000
2MAIL0000150655BR10        BRNC        BRNCCOCO    BRNCCOCO13AG00000400000000001132200400000000000000100000000000000000000000002126Z07920200324X066000000
2MAIL0000150655BR10        BRNC        BRNCCOCO    BRNCCOCO13AG00000500000000001215533700000000000000100000000000000000000000002185Z07920200324X066000000
2MAIL0000150655BR10        BRNC        BRNCCOCO    BRNCCOCO13AG00000600000000001241623700000000000000100000000000000000000000002599Z07920200324X066000000
1MAIL0000150656BR10        BRNC        BRNCCOCO    BRNCCOCO13AG2020032400:00:00OR  010000058503020005850302150656                             2020032420200324Z079CIF202003240000000000014763NN0                                                  0                                        
2MAIL0000150656BR10        BRNC        BRNCCOCO    BRNCCOCO13AG00000100000000001132033100000000000000100000000000000000000000002185Z07920200324X066000000
2MAIL0000150656BR10        BRNC        BRNCCOCO    BRNCCOCO13AG00000200000000001132036700000000000000100000000000000000000000002185Z07920200324X066000000
2MAIL0000150656BR10        BRNC        BRNCCOCO    BRNCCOCO13AG00000300000000001241623700000000000000400000000000000000000000010393Z07920200324X066000000
1MAIL0000150657BR10        BRNC        BRNCCOCO    BRNCCOCO13AG2020032400:00:00OR  010000061299730006129973150657                             2020032420200324Z079CIF202003240000000000011133NN0                                                  0                                        
2MAIL0000150657BR10        BRNC        BRNCCOCO    BRNCCOCO13AG00000100000000001132019900000000000000100000000000000000000000001979Z07920200324X066000000
2MAIL0000150657BR10        BRNC        BRNCCOCO    BRNCCOCO13AG00000200000000001132033100000000000000100000000000000000000000002185Z07920200324X066000000
2MAIL0000150657BR10        BRNC        BRNCCOCO    BRNCCOCO13AG00000300000000001132036700000000000000100000000000000000000000002185Z07920200324X066000000
2MAIL0000150657BR10        BRNC        BRNCCOCO    BRNCCOCO13AG00000400000000001215533700000000000000100000000000000000000000002185Z07920200324X066000000
2MAIL0000150657BR10        BRNC        BRNCCOCO    BRNCCOCO13AG00000500000000001241623700000000000000100000000000000000000000002599Z07920200324X066000000
1MAIL0000150658BR10        BRNC        BRNCCOCO    BRNCCOCO13AG2020032400:00:00OR  010000029806920002980692150658                             2020032420200324Z016CIF202003240000000000027004NN0                                                  0                                        
2MAIL0000150658BR10        BRNC        BRNCCOCO    BRNCCOCO13AG00000100000000001231189200000000000000100000000000000000000000005280Z01620200324X066000000
2MAIL0000150658BR10        BRNC        BRNCCOCO    BRNCCOCO13AG00000200000000001231231200000000000000100000000000000000000000005280Z01620200324X066000000
2MAIL0000150658BR10        BRNC        BRNCCOCO    BRNCCOCO13AG00000300000000001231233000000000000000100000000000000000000000005280Z01620200324X066000000
2MAIL0000150658BR10        BRNC        BRNCCOCO    BRNCCOCO13AG00000400000000001239688800000000000001400000000000000000000000005582Z01620200324X066000000
2MAIL0000150658BR10        BRNC        BRNCCOCO    BRNCCOCO13AG00000500000000001239692100000000000001400000000000000000000000005582Z01620200324X066000000
1MAIL0000150659BR10        BRNC        BRNCCOCO    BRNCCOCO13AG2020032400:00:00OR  010000047102350004710235150659                             2020032420200324Z016CIF202003240000000000012543NN0                                                  0                                        
2MAIL0000150659BR10        BRNC        BRNCCOCO    BRNCCOCO13AG00000100000000001224882700000000000000100000000000000000000000003329Z01620200324X066000000
2MAIL0000150659BR10        BRNC        BRNCCOCO    BRNCCOCO13AG00000200000000001224882800000000000000100000000000000000000000003329Z01620200324X066000000
2MAIL0000150659BR10        BRNC        BRNCCOCO    BRNCCOCO13AG00000300000000001239688800000000000001400000000000000000000000005885Z01620200324X066000000
1MAIL0000150660BR10        BRNC        BRNCCOCO    BRNCCOCO13AG2020032400:00:00OR  010000030775020003077502150660                             2020032420200324Z079CIF202003240000000000243980NN0                                                  0                                        
2MAIL0000150660BR10        BRNC        BRNCCOCO    BRNCCOCO13AG00000100000000001132004000000000000001000000000000000000000000010229Z07920200324X066000000
2MAIL0000150660BR10        BRNC        BRNCCOCO    BRNCCOCO13AG00000200000000001132004200000000000001000000000000000000000000014104Z07920200324X066000000
2MAIL0000150660BR10        BRNC        BRNCCOCO    BRNCCOCO13AG00000300000000001132018300000000000000300000000000000000000000010650Z07920200324X066000000
2MAIL0000150660BR10        BRNC        BRNCCOCO    BRNCCOCO13AG00000400000000001132019700000000000000100000000000000000000000001974Z07920200324X066000000
2MAIL0000150660BR10        BRNC        BRNCCOCO    BRNCCOCO13AG00000500000000001132034900000000000001000000000000000000000000022203Z07920200324X066000000
2MAIL0000150660BR10        BRNC        BRNCCOCO    BRNCCOCO13AG00000600000000001132035000000000000000500000000000000000000000012334Z07920200324X066000000
2MAIL0000150660BR10        BRNC        BRNCCOCO    BRNCCOCO13AG00000700000000001132200400000000000000200000000000000000000000004241Z07920200324X066000000
2MAIL0000150660BR10        BRNC        BRNCCOCO    BRNCCOCO13AG00000800000000001215533700000000000000100000000000000000000000002179Z07920200324X066000000
2MAIL0000150660BR10        BRNC        BRNCCOCO    BRNCCOCO13AG00000900000000001221415400000000000000300000000000000000000000010650Z07920200324X066000000
2MAIL0000150660BR10        BRNC        BRNCCOCO    BRNCCOCO13AG00001000000000001226089600000000000002400000000000000000000000009179Z07920200324X066000000
2MAIL0000150660BR10        BRNC        BRNCCOCO    BRNCCOCO13AG00001100000000001228512700000000000000100000000000000000000000005088Z07920200324X066000000
2MAIL0000150660BR10        BRNC        BRNCCOCO    BRNCCOCO13AG00001200000000001235699400000000000001000000000000000000000000003833Z07920200324X066000000
2MAIL0000150660BR10        BRNC        BRNCCOCO    BRNCCOCO13AG00001300000000001235699700000000000001000000000000000000000000003833Z07920200324X066000000
2MAIL0000150660BR10        BRNC        BRNCCOCO    BRNCCOCO13AG00001400000000001235699800000000000001000000000000000000000000003833Z07920200324X066000000
2MAIL0000150660BR10        BRNC        BRNCCOCO    BRNCCOCO13AG00001500000000001236512900000000000002000000000000000000000000003636Z07920200324X066000000
2MAIL0000150660BR10        BRNC        BRNCCOCO    BRNCCOCO13AG00001600000000001236515000000000000002000000000000000000000000003636Z07920200324X066000000
2MAIL0000150660BR10        BRNC        BRNCCOCO    BRNCCOCO13AG00001700000000001239663300000000000002800000000000000000000000010708Z07920200324X066000000
2MAIL0000150660BR10        BRNC        BRNCCOCO    BRNCCOCO13AG00001800000000001239688300000000000002800000000000000000000000010708Z07920200324X066000000
2MAIL0000150660BR10        BRNC        BRNCCOCO    BRNCCOCO13AG00001900000000001239688600000000000002800000000000000000000000010708Z07920200324X066000000
2MAIL0000150660BR10        BRNC        BRNCCOCO    BRNCCOCO13AG00002000000000001239688700000000000002800000000000000000000000010708Z07920200324X066000000
2MAIL0000150660BR10        BRNC        BRNCCOCO    BRNCCOCO13AG00002100000000001239688800000000000002800000000000000000000000010708Z07920200324X066000000
2MAIL0000150660BR10        BRNC        BRNCCOCO    BRNCCOCO13AG00002200000000001239692000000000000002800000000000000000000000010708Z07920200324X066000000
2MAIL0000150660BR10        BRNC        BRNCCOCO    BRNCCOCO13AG00002300000000001239692100000000000002800000000000000000000000010708Z07920200324X066000000
2MAIL0000150660BR10        BRNC        BRNCCOCO    BRNCCOCO13AG00002400000000001239692300000000000002800000000000000000000000010708Z07920200324X066000000
2MAIL0000150660BR10        BRNC        BRNCCOCO    BRNCCOCO13AG00002500000000001240924900000000000001200000000000000000000000001997Z07920200324X066000000
2MAIL0000150660BR10        BRNC        BRNCCOCO    BRNCCOCO13AG00002600000000001241623700000000000000100000000000000000000000002593Z07920200324X066000000
2MAIL0000150660BR10        BRNC        BRNCCOCO    BRNCCOCO13AG00002700000000001242626100000000000002800000000000000000000000010708Z07920200324X066000000
2MAIL0000150660BR10        BRNC        BRNCCOCO    BRNCCOCO13AG00002800000000001242754900000000000002800000000000000000000000010708Z07920200324X066000000
2MAIL0000150660BR10        BRNC        BRNCCOCO    BRNCCOCO13AG00002900000000001242765000000000000002800000000000000000000000010708Z07920200324X066000000
1MAIL0000150661BR10        BRNC        BRNCCOCO    BRNCCOCO13AG2020032400:00:00OR  010000056655580005665558150661                             2020032420200324Z016CIF202003240000000000011164NN0                                                  0                                        
2MAIL0000150661BR10        BRNC        BRNCCOCO    BRNCCOCO13AG00000100000000001239663300000000000001400000000000000000000000005582Z01620200324X066000000
2MAIL0000150661BR10        BRNC        BRNCCOCO    BRNCCOCO13AG00000200000000001239688600000000000001400000000000000000000000005582Z01620200324X066000000
1MAIL0000150662BR10        BRNC        BRNCCOCO    BRNCCOCO13AG2020032400:00:00OR  010000028539370002853937150662                             2020032420200324Z016CIF202003240000000000002230NN0                                                  0                                        
2MAIL0000150662BR10        BRNC        BRNCCOCO    BRNCCOCO13AG00000100000000001132200400000000000000100000000000000000000000002230Z01620200324X066000000
1MAIL0000150663BR10        BRNC        BRNCCOCO    BRNCCOCO13AG2020032400:00:00OR  010000028620810002862081150663                             2020032420200324Z016CIF202003240000000000096716NN0                                                  0                                        
2MAIL0000150663BR10        BRNC        BRNCCOCO    BRNCCOCO13AG00000100000000001132018300000000000000100000000000000000000000003735Z01620200324X066000000
2MAIL0000150663BR10        BRNC        BRNCCOCO    BRNCCOCO13AG00000200000000001132019700000000000000200000000000000000000000004150Z01620200324X066000000
2MAIL0000150663BR10        BRNC        BRNCCOCO    BRNCCOCO13AG00000300000000001132019800000000000000200000000000000000000000004150Z01620200324X066000000
2MAIL0000150663BR10        BRNC        BRNCCOCO    BRNCCOCO13AG00000400000000001132020900000000000000200000000000000000000000004150Z01620200324X066000000
2MAIL0000150663BR10        BRNC        BRNCCOCO    BRNCCOCO13AG00000500000000001132033100000000000000300000000000000000000000006872Z01620200324X066000000
2MAIL0000150663BR10        BRNC        BRNCCOCO    BRNCCOCO13AG00000600000000001132200400000000000000300000000000000000000000006690Z01620200324X066000000
2MAIL0000150663BR10        BRNC        BRNCCOCO    BRNCCOCO13AG00000700000000001215533700000000000000300000000000000000000000006872Z01620200324X066000000
2MAIL0000150663BR10        BRNC        BRNCCOCO    BRNCCOCO13AG00000800000000001221415400000000000000100000000000000000000000003735Z01620200324X066000000
2MAIL0000150663BR10        BRNC        BRNCCOCO    BRNCCOCO13AG00000900000000001226089600000000000001200000000000000000000000005045Z01620200324X066000000
2MAIL0000150663BR10        BRNC        BRNCCOCO    BRNCCOCO13AG00001000000000001235699800000000000001000000000000000000000000004211Z01620200324X066000000
2MAIL0000150663BR10        BRNC        BRNCCOCO    BRNCCOCO13AG00001100000000001236512800000000000002400000000000000000000000004576Z01620200324X066000000
2MAIL0000150663BR10        BRNC        BRNCCOCO    BRNCCOCO13AG00001200000000001236512900000000000003500000000000000000000000007014Z01620200324X066000000
2MAIL0000150663BR10        BRNC        BRNCCOCO    BRNCCOCO13AG00001300000000001236515000000000000003500000000000000000000000007014Z01620200324X066000000
2MAIL0000150663BR10        BRNC        BRNCCOCO    BRNCCOCO13AG00001400000000001239688600000000000001400000000000000000000000005885Z01620200324X066000000
2MAIL0000150663BR10        BRNC        BRNCCOCO    BRNCCOCO13AG00001500000000001239688800000000000001400000000000000000000000005885Z01620200324X066000000
2MAIL0000150663BR10        BRNC        BRNCCOCO    BRNCCOCO13AG00001600000000001239692100000000000001400000000000000000000000005885Z01620200324X066000000
2MAIL0000150663BR10        BRNC        BRNCCOCO    BRNCCOCO13AG00001700000000001239692300000000000001400000000000000000000000005885Z01620200324X066000000
2MAIL0000150663BR10        BRNC        BRNCCOCO    BRNCCOCO13AG00001800000000001241623700000000000000200000000000000000000000004962Z01620200324X066000000
1MAIL0000150664BR10        BRNC        BRNCCOCO    BRNCCOCO13AG2020032400:00:00OR  010000058595190005859519150664                             2020032420200324Z016CIF202003240000000000011608NN0                                                  0                                        
2MAIL0000150664BR10        BRNC        BRNCCOCO    BRNCCOCO13AG00000100000000001132030800000000000000200000000000000000000000006540Z01620200324X066000000
2MAIL0000150664BR10        BRNC        BRNCCOCO    BRNCCOCO13AG00000200000000001214448800000000000000100000000000000000000000005068Z01620200324X066000000
1MAIL0000150665BR10        BRNC        BRNCCOCO    BRNCCOCO13AG2020032400:00:00OR  010000047649430004764943150665                             2020032420200324Z016CIF202003240000000000009890NN0                                                  0                                        
2MAIL0000150665BR10        BRNC        BRNCCOCO    BRNCCOCO13AG00000100000000001132019800000000000000100000000000000000000000002076Z01620200324X066000000
2MAIL0000150665BR10        BRNC        BRNCCOCO    BRNCCOCO13AG00000200000000001132033100000000000000100000000000000000000000002291Z01620200324X066000000
2MAIL0000150665BR10        BRNC        BRNCCOCO    BRNCCOCO13AG00000300000000001132036700000000000000100000000000000000000000002291Z01620200324X066000000
2MAIL0000150665BR10        BRNC        BRNCCOCO    BRNCCOCO13AG00000400000000001132200400000000000000100000000000000000000000002230Z01620200324X066000000
2MAIL0000150665BR10        BRNC        BRNCCOCO    BRNCCOCO13AG00000500000000001236515000000000000000500000000000000000000000001002Z01620200324X066000000
1MAIL0000150666BR10        BRNC        BRNCCOCO    BRNCCOCO13AG2020032400:00:00OR  010000061441570006144157150666                             2020032420200324Z016CIF202003240000000000020783NN0                                                  0                                        
2MAIL0000150666BR10        BRNC        BRNCCOCO    BRNCCOCO13AG00000100000000001132018300000000000000100000000000000000000000002623Z01620200324X066000000
2MAIL0000150666BR10        BRNC        BRNCCOCO    BRNCCOCO13AG00000200000000001132019800000000000000100000000000000000000000001465Z01620200324X066000000
2MAIL0000150666BR10        BRNC        BRNCCOCO    BRNCCOCO13AG00000300000000001215533700000000000000100000000000000000000000001617Z01620200324X066000000
2MAIL0000150666BR10        BRNC        BRNCCOCO    BRNCCOCO13AG00000400000000001221415400000000000000100000000000000000000000002623Z01620200324X066000000
2MAIL0000150666BR10        BRNC        BRNCCOCO    BRNCCOCO13AG00000500000000001226089600000000000001200000000000000000000000003927Z01620200324X066000000
2MAIL0000150666BR10        BRNC        BRNCCOCO    BRNCCOCO13AG00000600000000001236512800000000000000800000000000000000000000001412Z01620200324X066000000
2MAIL0000150666BR10        BRNC        BRNCCOCO    BRNCCOCO13AG00000700000000001239692000000000000001400000000000000000000000004581Z01620200324X066000000
2MAIL0000150666BR10        BRNC        BRNCCOCO    BRNCCOCO13AG00000800000000001241623700000000000000100000000000000000000000002535Z01620200324X066000000
