1MAIL0000152494BR10        BRNC        BRNCCOCO    BRNCCOCO13AG2020040800:00:00OR  010000052982200005298220152494                             2020040820200408Z016CIF202004080000000000041108NN0                                                  0                                        
2MAIL0000152494BR10        BRNC        BRNCCOCO    BRNCCOCO13AG00000100000000001132036700000000000000500000000000000000000000011454Z01620200408X066000000
2MAIL0000152494BR10        BRNC        BRNCCOCO    BRNCCOCO13AG00000200000000001234705700000000000000100000000000000000000000005568Z01620200408X066000000
2MAIL0000152494BR10        BRNC        BRNCCOCO    BRNCCOCO13AG00000300000000001234705800000000000000100000000000000000000000005568Z01620200408X066000000
2MAIL0000152494BR10        BRNC        BRNCCOCO    BRNCCOCO13AG00000400000000001235699400000000000001000000000000000000000000004211Z01620200408X066000000
2MAIL0000152494BR10        BRNC        BRNCCOCO    BRNCCOCO13AG00000500000000001235699700000000000001000000000000000000000000004211Z01620200408X066000000
2MAIL0000152494BR10        BRNC        BRNCCOCO    BRNCCOCO13AG00000600000000001235699800000000000001000000000000000000000000004211Z01620200408X066000000
2MAIL0000152494BR10        BRNC        BRNCCOCO    BRNCCOCO13AG00000700000000001239688600000000000001400000000000000000000000005885Z01620200408X066000000
1MAIL0000152495BR10        BRNC        BRNCCOCO    BRNCCOCO13AG2020040800:00:00OR  010000029049100002904910152495                             2020040820200408Z016CIF202004080000000000009163NN0                                                  0                                        
2MAIL0000152495BR10        BRNC        BRNCCOCO    BRNCCOCO13AG00000100000000001132033100000000000000100000000000000000000000002291Z01620200408X066000000
2MAIL0000152495BR10        BRNC        BRNCCOCO    BRNCCOCO13AG00000200000000001132036700000000000000300000000000000000000000006872Z01620200408X066000000
1MAIL0000152496BR10        BRNC        BRNCCOCO    BRNCCOCO13AG2020040800:00:00OR  010000028988170002898817152496                             2020040820200408Z016CIF202004080000000000007607NN0                                                  0                                        
2MAIL0000152496BR10        BRNC        BRNCCOCO    BRNCCOCO13AG00000100000000001132036700000000000000200000000000000000000000004581Z01620200408X066000000
2MAIL0000152496BR10        BRNC        BRNCCOCO    BRNCCOCO13AG00000200000000001215533700000000000000100000000000000000000000002291Z01620200408X066000000
2MAIL0000152496BR10        BRNC        BRNCCOCO    BRNCCOCO13AG00000300000000001240924900000000000000400000000000000000000000000735Z01620200408X066000000
1MAIL0000152497BR10        BRNC        BRNCCOCO    BRNCCOCO13AG2020040800:00:00OR  010000054012110005401211152497                             2020040820200408Z016CIF202004080000000000057463NN0                                                  0                                        
2MAIL0000152497BR10        BRNC        BRNCCOCO    BRNCCOCO13AG00000100000000001132033100000000000000100000000000000000000000001654Z01620200408X066000000
2MAIL0000152497BR10        BRNC        BRNCCOCO    BRNCCOCO13AG00000200000000001132200400000000000000400000000000000000000000008460Z01620200408X066000000
2MAIL0000152497BR10        BRNC        BRNCCOCO    BRNCCOCO13AG00000300000000001215533700000000000000100000000000000000000000001654Z01620200408X066000000
2MAIL0000152497BR10        BRNC        BRNCCOCO    BRNCCOCO13AG00000400000000001221415400000000000000100000000000000000000000002682Z01620200408X066000000
2MAIL0000152497BR10        BRNC        BRNCCOCO    BRNCCOCO13AG00000500000000001227395500000000000000100000000000000000000000001654Z01620200408X066000000
2MAIL0000152497BR10        BRNC        BRNCCOCO    BRNCCOCO13AG00000600000000001228274000000000000000100000000000000000000000004437Z01620200408X066000000
2MAIL0000152497BR10        BRNC        BRNCCOCO    BRNCCOCO13AG00000700000000001228512700000000000000100000000000000000000000004437Z01620200408X066000000
2MAIL0000152497BR10        BRNC        BRNCCOCO    BRNCCOCO13AG00000800000000001231189200000000000000100000000000000000000000004437Z01620200408X066000000
2MAIL0000152497BR10        BRNC        BRNCCOCO    BRNCCOCO13AG00000900000000001231231200000000000000100000000000000000000000004437Z01620200408X066000000
2MAIL0000152497BR10        BRNC        BRNCCOCO    BRNCCOCO13AG00001000000000001231389600000000000000100000000000000000000000001654Z01620200408X066000000
2MAIL0000152497BR10        BRNC        BRNCCOCO    BRNCCOCO13AG00001100000000001235699800000000000001000000000000000000000000003352Z01620200408X066000000
2MAIL0000152497BR10        BRNC        BRNCCOCO    BRNCCOCO13AG00001200000000001236898000000000000000100000000000000000000000001654Z01620200408X066000000
2MAIL0000152497BR10        BRNC        BRNCCOCO    BRNCCOCO13AG00001300000000001239663300000000000001400000000000000000000000004684Z01620200408X066000000
2MAIL0000152497BR10        BRNC        BRNCCOCO    BRNCCOCO13AG00001400000000001239688500000000000001400000000000000000000000004684Z01620200408X066000000
2MAIL0000152497BR10        BRNC        BRNCCOCO    BRNCCOCO13AG00001500000000001241577400000000000001000000000000000000000000007583Z01620200408X066000000
1MAIL0000152498BR10        BRNC        BRNCCOCO    BRNCCOCO13AG2020040800:00:00OR  010000029055190002905519152498                             2020040820200408Z016CIF202004080000000000395971NN0                                                  0                                        
2MAIL0000152498BR10        BRNC        BRNCCOCO    BRNCCOCO13AG00000100000000001132004000000000000000500000000000000000000000005102Z01620200408X066000000
2MAIL0000152498BR10        BRNC        BRNCCOCO    BRNCCOCO13AG00000200000000001132004200000000000000500000000000000000000000007033Z01620200408X066000000
2MAIL0000152498BR10        BRNC        BRNCCOCO    BRNCCOCO13AG00000300000000001132018300000000000000100000000000000000000000003541Z01620200408X066000000
2MAIL0000152498BR10        BRNC        BRNCCOCO    BRNCCOCO13AG00000400000000001132019700000000000000100000000000000000000000001967Z01620200408X066000000
2MAIL0000152498BR10        BRNC        BRNCCOCO    BRNCCOCO13AG00000500000000001132019800000000000000100000000000000000000000001967Z01620200408X066000000
2MAIL0000152498BR10        BRNC        BRNCCOCO    BRNCCOCO13AG00000600000000001132019900000000000000100000000000000000000000001967Z01620200408X066000000
2MAIL0000152498BR10        BRNC        BRNCCOCO    BRNCCOCO13AG00000700000000001132020900000000000000100000000000000000000000001967Z01620200408X066000000
2MAIL0000152498BR10        BRNC        BRNCCOCO    BRNCCOCO13AG00000800000000001132030800000000000000200000000000000000000000006218Z01620200408X066000000
2MAIL0000152498BR10        BRNC        BRNCCOCO    BRNCCOCO13AG00000900000000001132030900000000000000200000000000000000000000006414Z01620200408X066000000
2MAIL0000152498BR10        BRNC        BRNCCOCO    BRNCCOCO13AG00001000000000001132033900000000000000200000000000000000000000006820Z01620200408X066000000
2MAIL0000152498BR10        BRNC        BRNCCOCO    BRNCCOCO13AG00001100000000001132034900000000000000500000000000000000000000011074Z01620200408X066000000
2MAIL0000152498BR10        BRNC        BRNCCOCO    BRNCCOCO13AG00001200000000001132035000000000000000500000000000000000000000012302Z01620200408X066000000
2MAIL0000152498BR10        BRNC        BRNCCOCO    BRNCCOCO13AG00001300000000001132035100000000000000500000000000000000000000011693Z01620200408X066000000
2MAIL0000152498BR10        BRNC        BRNCCOCO    BRNCCOCO13AG00001400000000001132185100000000000000200000000000000000000000005680Z01620200408X066000000
2MAIL0000152498BR10        BRNC        BRNCCOCO    BRNCCOCO13AG00001500000000001132200400000000000000800000000000000000000000016921Z01620200408X066000000
2MAIL0000152498BR10        BRNC        BRNCCOCO    BRNCCOCO13AG00001600000000001132400100000000000000100000000000000000000000003003Z01620200408X066000000
2MAIL0000152498BR10        BRNC        BRNCCOCO    BRNCCOCO13AG00001700000000001221415400000000000000100000000000000000000000003541Z01620200408X066000000
2MAIL0000152498BR10        BRNC        BRNCCOCO    BRNCCOCO13AG00001800000000001223975300000000000000200000000000000000000000010153Z01620200408X066000000
2MAIL0000152498BR10        BRNC        BRNCCOCO    BRNCCOCO13AG00001900000000001226089600000000000002400000000000000000000000009159Z01620200408X066000000
2MAIL0000152498BR10        BRNC        BRNCCOCO    BRNCCOCO13AG00002000000000001227735000000000000000100000000000000000000000001967Z01620200408X066000000
2MAIL0000152498BR10        BRNC        BRNCCOCO    BRNCCOCO13AG00002100000000001228274000000000000000100000000000000000000000005076Z01620200408X066000000
2MAIL0000152498BR10        BRNC        BRNCCOCO    BRNCCOCO13AG00002200000000001228512700000000000000100000000000000000000000005076Z01620200408X066000000
2MAIL0000152498BR10        BRNC        BRNCCOCO    BRNCCOCO13AG00002300000000001231189200000000000000100000000000000000000000005076Z01620200408X066000000
2MAIL0000152498BR10        BRNC        BRNCCOCO    BRNCCOCO13AG00002400000000001231231200000000000000200000000000000000000000010153Z01620200408X066000000
2MAIL0000152498BR10        BRNC        BRNCCOCO    BRNCCOCO13AG00002500000000001231233000000000000000100000000000000000000000005076Z01620200408X066000000
2MAIL0000152498BR10        BRNC        BRNCCOCO    BRNCCOCO13AG00002600000000001234705700000000000000100000000000000000000000005076Z01620200408X066000000
2MAIL0000152498BR10        BRNC        BRNCCOCO    BRNCCOCO13AG00002700000000001234705800000000000000100000000000000000000000005076Z01620200408X066000000
2MAIL0000152498BR10        BRNC        BRNCCOCO    BRNCCOCO13AG00002800000000001234705900000000000000100000000000000000000000005076Z01620200408X066000000
2MAIL0000152498BR10        BRNC        BRNCCOCO    BRNCCOCO13AG00002900000000001235699400000000000001000000000000000000000000003825Z01620200408X066000000
2MAIL0000152498BR10        BRNC        BRNCCOCO    BRNCCOCO13AG00003000000000001235699700000000000001000000000000000000000000003825Z01620200408X066000000
2MAIL0000152498BR10        BRNC        BRNCCOCO    BRNCCOCO13AG00003100000000001235699800000000000003000000000000000000000000011472Z01620200408X066000000
2MAIL0000152498BR10        BRNC        BRNCCOCO    BRNCCOCO13AG00003200000000001236512800000000000004000000000000000000000000006903Z01620200408X066000000
2MAIL0000152498BR10        BRNC        BRNCCOCO    BRNCCOCO13AG00003300000000001236512900000000000004000000000000000000000000007273Z01620200408X066000000
2MAIL0000152498BR10        BRNC        BRNCCOCO    BRNCCOCO13AG00003400000000001236515000000000000004000000000000000000000000007273Z01620200408X066000000
2MAIL0000152498BR10        BRNC        BRNCCOCO    BRNCCOCO13AG00003500000000001238083500000000000000100000000000000000000000005076Z01620200408X066000000
2MAIL0000152498BR10        BRNC        BRNCCOCO    BRNCCOCO13AG00003600000000001238083600000000000000100000000000000000000000006310Z01620200408X066000000
2MAIL0000152498BR10        BRNC        BRNCCOCO    BRNCCOCO13AG00003700000000001239373400000000000000100000000000000000000000006340Z01620200408X066000000
2MAIL0000152498BR10        BRNC        BRNCCOCO    BRNCCOCO13AG00003800000000001239373500000000000000100000000000000000000000006340Z01620200408X066000000
2MAIL0000152498BR10        BRNC        BRNCCOCO    BRNCCOCO13AG00003900000000001239663300000000000002800000000000000000000000010686Z01620200408X066000000
2MAIL0000152498BR10        BRNC        BRNCCOCO    BRNCCOCO13AG00004000000000001239688300000000000002800000000000000000000000010686Z01620200408X066000000
2MAIL0000152498BR10        BRNC        BRNCCOCO    BRNCCOCO13AG00004100000000001239688500000000000002800000000000000000000000010686Z01620200408X066000000
2MAIL0000152498BR10        BRNC        BRNCCOCO    BRNCCOCO13AG00004200000000001239688600000000000002800000000000000000000000010686Z01620200408X066000000
2MAIL0000152498BR10        BRNC        BRNCCOCO    BRNCCOCO13AG00004300000000001239688700000000000002800000000000000000000000010686Z01620200408X066000000
2MAIL0000152498BR10        BRNC        BRNCCOCO    BRNCCOCO13AG00004400000000001239688800000000000002800000000000000000000000010686Z01620200408X066000000
2MAIL0000152498BR10        BRNC        BRNCCOCO    BRNCCOCO13AG00004500000000001239692000000000000002800000000000000000000000010686Z01620200408X066000000
2MAIL0000152498BR10        BRNC        BRNCCOCO    BRNCCOCO13AG00004600000000001239692100000000000002800000000000000000000000010686Z01620200408X066000000
2MAIL0000152498BR10        BRNC        BRNCCOCO    BRNCCOCO13AG00004700000000001239692300000000000002800000000000000000000000010686Z01620200408X066000000
2MAIL0000152498BR10        BRNC        BRNCCOCO    BRNCCOCO13AG00004800000000001240924900000000000002000000000000000000000000003329Z01620200408X066000000
2MAIL0000152498BR10        BRNC        BRNCCOCO    BRNCCOCO13AG00004900000000001241623700000000000001000000000000000000000000025866Z01620200408X066000000
2MAIL0000152498BR10        BRNC        BRNCCOCO    BRNCCOCO13AG00005000000000001242374800000000000000100000000000000000000000005076Z01620200408X066000000
2MAIL0000152498BR10        BRNC        BRNCCOCO    BRNCCOCO13AG00005100000000001242626100000000000002800000000000000000000000010686Z01620200408X066000000
2MAIL0000152498BR10        BRNC        BRNCCOCO    BRNCCOCO13AG00005200000000001242754900000000000002800000000000000000000000010686Z01620200408X066000000
2MAIL0000152498BR10        BRNC        BRNCCOCO    BRNCCOCO13AG00005300000000001242765000000000000001400000000000000000000000005343Z01620200408X066000000
1MAIL0000152499BR10        BRNC        BRNCCOCO    BRNCCOCO13AG2020040800:00:00OR  010000060135290006013529152499                             2020040820200408Z016CIF202004080000000000017382NN0                                                  0                                        
2MAIL0000152499BR10        BRNC        BRNCCOCO    BRNCCOCO13AG00000100000000001132033100000000000000200000000000000000000000004345Z01620200408X066000000
2MAIL0000152499BR10        BRNC        BRNCCOCO    BRNCCOCO13AG00000200000000001132036700000000000000400000000000000000000000008692Z01620200408X066000000
2MAIL0000152499BR10        BRNC        BRNCCOCO    BRNCCOCO13AG00000300000000001215533700000000000000200000000000000000000000004345Z01620200408X066000000
1MAIL0000152500BR10        BRNC        BRNCCOCO    BRNCCOCO13AG2020040800:00:00OR  010000061509080006150908152500                             2020040820200408Z016CIF202004080000000000037201NN0                                                  0                                        
2MAIL0000152500BR10        BRNC        BRNCCOCO    BRNCCOCO13AG00000100000000001132019800000000000000100000000000000000000000002030Z01620200408X066000000
2MAIL0000152500BR10        BRNC        BRNCCOCO    BRNCCOCO13AG00000200000000001132033100000000000000200000000000000000000000004481Z01620200408X066000000
2MAIL0000152500BR10        BRNC        BRNCCOCO    BRNCCOCO13AG00000300000000001132036700000000000000400000000000000000000000008962Z01620200408X066000000
2MAIL0000152500BR10        BRNC        BRNCCOCO    BRNCCOCO13AG00000400000000001132200400000000000000200000000000000000000000004460Z01620200408X066000000
2MAIL0000152500BR10        BRNC        BRNCCOCO    BRNCCOCO13AG00000500000000001239688700000000000001400000000000000000000000005756Z01620200408X066000000
2MAIL0000152500BR10        BRNC        BRNCCOCO    BRNCCOCO13AG00000600000000001239688800000000000001400000000000000000000000005756Z01620200408X066000000
2MAIL0000152500BR10        BRNC        BRNCCOCO    BRNCCOCO13AG00000700000000001239692100000000000001400000000000000000000000005756Z01620200408X066000000
1MAIL0000152501BR10        BRNC        BRNCCOCO    BRNCCOCO13AG2020040800:00:00OR  010000060441260006044126152501                             2020040820200408Z016CIF202004080000000000022908NN0                                                  0                                        
2MAIL0000152501BR10        BRNC        BRNCCOCO    BRNCCOCO13AG00000100000000001132033100000000000000300000000000000000000000006872Z01620200408X066000000
2MAIL0000152501BR10        BRNC        BRNCCOCO    BRNCCOCO13AG00000200000000001132036700000000000000500000000000000000000000011454Z01620200408X066000000
2MAIL0000152501BR10        BRNC        BRNCCOCO    BRNCCOCO13AG00000300000000001215533700000000000000100000000000000000000000002291Z01620200408X066000000
2MAIL0000152501BR10        BRNC        BRNCCOCO    BRNCCOCO13AG00000400000000001227395500000000000000100000000000000000000000002291Z01620200408X066000000
1MAIL0000152502BR10        BRNC        BRNCCOCO    BRNCCOCO13AG2020040800:00:00OR  010000031846440003184644152502                             2020040820200408Z016CIF202004080000000000015979NN0                                                  0                                        
2MAIL0000152502BR10        BRNC        BRNCCOCO    BRNCCOCO13AG00000100000000001235699400000000000001000000000000000000000000003995Z01620200408X066000000
2MAIL0000152502BR10        BRNC        BRNCCOCO    BRNCCOCO13AG00000200000000001235699700000000000001000000000000000000000000003995Z01620200408X066000000
2MAIL0000152502BR10        BRNC        BRNCCOCO    BRNCCOCO13AG00000300000000001235699800000000000001000000000000000000000000003995Z01620200408X066000000
2MAIL0000152502BR10        BRNC        BRNCCOCO    BRNCCOCO13AG00000400000000001236512900000000000001000000000000000000000000001997Z01620200408X066000000
2MAIL0000152502BR10        BRNC        BRNCCOCO    BRNCCOCO13AG00000500000000001236515000000000000001000000000000000000000000001997Z01620200408X066000000
1MAIL0000152503BR10        BRNC        BRNCCOCO    BRNCCOCO13AG2020040800:00:00OR  010000058971560005897156152503                             2020040820200408Z079CIF202004080000000000009188NN0                                                  0                                        
2MAIL0000152503BR10        BRNC        BRNCCOCO    BRNCCOCO13AG00000100000000001132036700000000000000200000000000000000000000004594Z07920200408X066000000
2MAIL0000152503BR10        BRNC        BRNCCOCO    BRNCCOCO13AG00000200000000001215533700000000000000200000000000000000000000004594Z07920200408X066000000
1MAIL0000152504BR10        BRNC        BRNCCOCO    BRNCCOCO13AG2020040800:00:00OR  010000028620810002862081152504                             2020040820200408Z016CIF202004080000000000092690NN0                                                  0                                        
2MAIL0000152504BR10        BRNC        BRNCCOCO    BRNCCOCO13AG00000100000000001132019700000000000000100000000000000000000000002076Z01620200408X066000000
2MAIL0000152504BR10        BRNC        BRNCCOCO    BRNCCOCO13AG00000200000000001132019800000000000000100000000000000000000000002076Z01620200408X066000000
2MAIL0000152504BR10        BRNC        BRNCCOCO    BRNCCOCO13AG00000300000000001235699800000000000001000000000000000000000000004211Z01620200408X066000000
2MAIL0000152504BR10        BRNC        BRNCCOCO    BRNCCOCO13AG00000400000000001236512800000000000002400000000000000000000000004576Z01620200408X066000000
2MAIL0000152504BR10        BRNC        BRNCCOCO    BRNCCOCO13AG00000500000000001236515000000000000007000000000000000000000000014030Z01620200408X066000000
2MAIL0000152504BR10        BRNC        BRNCCOCO    BRNCCOCO13AG00000600000000001239688300000000000001400000000000000000000000005885Z01620200408X066000000
2MAIL0000152504BR10        BRNC        BRNCCOCO    BRNCCOCO13AG00000700000000001239688500000000000001400000000000000000000000005885Z01620200408X066000000
2MAIL0000152504BR10        BRNC        BRNCCOCO    BRNCCOCO13AG00000800000000001239688600000000000001400000000000000000000000005885Z01620200408X066000000
2MAIL0000152504BR10        BRNC        BRNCCOCO    BRNCCOCO13AG00000900000000001239688800000000000001400000000000000000000000005885Z01620200408X066000000
2MAIL0000152504BR10        BRNC        BRNCCOCO    BRNCCOCO13AG00001000000000001239692300000000000001400000000000000000000000005885Z01620200408X066000000
2MAIL0000152504BR10        BRNC        BRNCCOCO    BRNCCOCO13AG00001100000000001241577400000000000003000000000000000000000000028853Z01620200408X066000000
2MAIL0000152504BR10        BRNC        BRNCCOCO    BRNCCOCO13AG00001200000000001241623700000000000000300000000000000000000000007443Z01620200408X066000000
1MAIL0000152505BR10        BRNC        BRNCCOCO    BRNCCOCO13AG2020040800:00:00OR  010000034762860003476286152505                             2020040820200408Z016CIF202004080000000000079454NN0                                                  0                                        
2MAIL0000152505BR10        BRNC        BRNCCOCO    BRNCCOCO13AG00000100000000001132033100000000000001000000000000000000000000022909Z01620200408X066000000
2MAIL0000152505BR10        BRNC        BRNCCOCO    BRNCCOCO13AG00000200000000001132036700000000000001000000000000000000000000022909Z01620200408X066000000
2MAIL0000152505BR10        BRNC        BRNCCOCO    BRNCCOCO13AG00000300000000001235699700000000000001000000000000000000000000004211Z01620200408X066000000
2MAIL0000152505BR10        BRNC        BRNCCOCO    BRNCCOCO13AG00000400000000001239688300000000000001400000000000000000000000005885Z01620200408X066000000
2MAIL0000152505BR10        BRNC        BRNCCOCO    BRNCCOCO13AG00000500000000001239688600000000000001400000000000000000000000005885Z01620200408X066000000
2MAIL0000152505BR10        BRNC        BRNCCOCO    BRNCCOCO13AG00000600000000001239688800000000000001400000000000000000000000005885Z01620200408X066000000
2MAIL0000152505BR10        BRNC        BRNCCOCO    BRNCCOCO13AG00000700000000001239692100000000000001400000000000000000000000005885Z01620200408X066000000
2MAIL0000152505BR10        BRNC        BRNCCOCO    BRNCCOCO13AG00000800000000001242765000000000000001400000000000000000000000005885Z01620200408X066000000
1MAIL0000152506BR10        BRNC        BRNCCOCO    BRNCCOCO13AG2020040800:00:00OR  010000060516880006051688152506                             2020040820200408Z016CIF202004080000000000011833NN0                                                  0                                        
2MAIL0000152506BR10        BRNC        BRNCCOCO    BRNCCOCO13AG00000100000000001132033100000000000000200000000000000000000000003307Z01620200408X066000000
2MAIL0000152506BR10        BRNC        BRNCCOCO    BRNCCOCO13AG00000200000000001132036700000000000000200000000000000000000000003307Z01620200408X066000000
2MAIL0000152506BR10        BRNC        BRNCCOCO    BRNCCOCO13AG00000300000000001215533700000000000000200000000000000000000000003307Z01620200408X066000000
2MAIL0000152506BR10        BRNC        BRNCCOCO    BRNCCOCO13AG00000400000000001236515000000000000001000000000000000000000000001912Z01620200408X066000000
1MAIL0000152507BR10        BRNC        BRNCCOCO    BRNCCOCO13AG2020040800:00:00OR  010000060516770006051677152507                             2020040820200408Z016CIF202004080000000000030996NN0                                                  0                                        
2MAIL0000152507BR10        BRNC        BRNCCOCO    BRNCCOCO13AG00000100000000001227395500000000000000300000000000000000000000006872Z01620200408X066000000
2MAIL0000152507BR10        BRNC        BRNCCOCO    BRNCCOCO13AG00000200000000001235699800000000000001000000000000000000000000004211Z01620200408X066000000
2MAIL0000152507BR10        BRNC        BRNCCOCO    BRNCCOCO13AG00000300000000001236512900000000000003500000000000000000000000007014Z01620200408X066000000
2MAIL0000152507BR10        BRNC        BRNCCOCO    BRNCCOCO13AG00000400000000001236515000000000000003500000000000000000000000007014Z01620200408X066000000
2MAIL0000152507BR10        BRNC        BRNCCOCO    BRNCCOCO13AG00000500000000001239688800000000000001400000000000000000000000005885Z01620200408X066000000
1MAIL0000152508BR10        BRNC        BRNCCOCO    BRNCCOCO13AG2020040800:00:00OR  010000046937750004693775152508                             2020040820200408Z016CIF202004080000000000033435NN0                                                  0                                        
2MAIL0000152508BR10        BRNC        BRNCCOCO    BRNCCOCO13AG00000100000000001132036700000000000000100000000000000000000000002291Z01620200408X066000000
2MAIL0000152508BR10        BRNC        BRNCCOCO    BRNCCOCO13AG00000200000000001215533700000000000000100000000000000000000000002291Z01620200408X066000000
2MAIL0000152508BR10        BRNC        BRNCCOCO    BRNCCOCO13AG00000300000000001241577400000000000003000000000000000000000000028853Z01620200408X066000000
1MAIL0000152509BR10        BRNC        BRNCCOCO    BRNCCOCO13AG2020040800:00:00OR  010000053355520005335552152509                             2020040820200408Z016CIF202004080000000000010294NN0                                                  0                                        
2MAIL0000152509BR10        BRNC        BRNCCOCO    BRNCCOCO13AG00000100000000001214448800000000000000100000000000000000000000005344Z01620200408X066000000
2MAIL0000152509BR10        BRNC        BRNCCOCO    BRNCCOCO13AG00000200000000001214470800000000000000100000000000000000000000004950Z01620200408X066000000
1MAIL0000152510BR10        BRNC        BRNCCOCO    BRNCCOCO13AG2020040800:00:00OR  010000052617410005261741152510                             2020040820200408Z016CIF202004080000000000016518NN0                                                  0                                        
2MAIL0000152510BR10        BRNC        BRNCCOCO    BRNCCOCO13AG00000100000000001132019800000000000000100000000000000000000000002012Z01620200408X066003000
2MAIL0000152510BR10        BRNC        BRNCCOCO    BRNCCOCO13AG00000200000000001132033100000000000000100000000000000000000000002223Z01620200408X066003000
2MAIL0000152510BR10        BRNC        BRNCCOCO    BRNCCOCO13AG00000300000000001132036700000000000000100000000000000000000000002223Z01620200408X066003000
2MAIL0000152510BR10        BRNC        BRNCCOCO    BRNCCOCO13AG00000400000000001236512900000000000000500000000000000000000000000973Z01620200408X066003000
2MAIL0000152510BR10        BRNC        BRNCCOCO    BRNCCOCO13AG00000500000000001236515000000000000000500000000000000000000000000973Z01620200408X066003000
2MAIL0000152510BR10        BRNC        BRNCCOCO    BRNCCOCO13AG00000600000000001239688800000000000001400000000000000000000000005708Z01620200408X066003000
2MAIL0000152510BR10        BRNC        BRNCCOCO    BRNCCOCO13AG00000700000000001241623700000000000000100000000000000000000000002406Z01620200408X066003000
1MAIL0000152511BR10        BRNC        BRNCCOCO    BRNCCOCO13AG2020040800:00:00OR  010000029799410002979941152511                             2020040820200408Z016CIF202004080000000000049379NN0                                                  0                                        
2MAIL0000152511BR10        BRNC        BRNCCOCO    BRNCCOCO13AG00000100000000001132019700000000000000100000000000000000000000002076Z01620200408X066000000
2MAIL0000152511BR10        BRNC        BRNCCOCO    BRNCCOCO13AG00000200000000001132019800000000000000100000000000000000000000002076Z01620200408X066000000
2MAIL0000152511BR10        BRNC        BRNCCOCO    BRNCCOCO13AG00000300000000001132019900000000000000100000000000000000000000002076Z01620200408X066000000
2MAIL0000152511BR10        BRNC        BRNCCOCO    BRNCCOCO13AG00000400000000001132036700000000000000200000000000000000000000004581Z01620200408X066000000
2MAIL0000152511BR10        BRNC        BRNCCOCO    BRNCCOCO13AG00000500000000001228274000000000000000100000000000000000000000005568Z01620200408X066000000
2MAIL0000152511BR10        BRNC        BRNCCOCO    BRNCCOCO13AG00000600000000001231189200000000000000100000000000000000000000005568Z01620200408X066000000
2MAIL0000152511BR10        BRNC        BRNCCOCO    BRNCCOCO13AG00000700000000001231231200000000000000100000000000000000000000005568Z01620200408X066000000
2MAIL0000152511BR10        BRNC        BRNCCOCO    BRNCCOCO13AG00000800000000001235699400000000000001000000000000000000000000004211Z01620200408X066000000
2MAIL0000152511BR10        BRNC        BRNCCOCO    BRNCCOCO13AG00000900000000001239688700000000000001400000000000000000000000005885Z01620200408X066000000
2MAIL0000152511BR10        BRNC        BRNCCOCO    BRNCCOCO13AG00001000000000001239688800000000000001400000000000000000000000005885Z01620200408X066000000
2MAIL0000152511BR10        BRNC        BRNCCOCO    BRNCCOCO13AG00001100000000001239692100000000000001400000000000000000000000005885Z01620200408X066000000
1MAIL0000152512BR10        BRNC        BRNCCOCO    BRNCCOCO13AG2020040800:00:00OR  010000029107190002910719152512                             2020040820200408Z016CIF202004080000000000018264NN0                                                  0                                        
2MAIL0000152512BR10        BRNC        BRNCCOCO    BRNCCOCO13AG00000100000000001132036700000000000000200000000000000000000000004581Z01620200408X066000000
2MAIL0000152512BR10        BRNC        BRNCCOCO    BRNCCOCO13AG00000200000000001132200400000000000000100000000000000000000000002230Z01620200408X066000000
2MAIL0000152512BR10        BRNC        BRNCCOCO    BRNCCOCO13AG00000300000000001231231200000000000000100000000000000000000000005568Z01620200408X066000000
2MAIL0000152512BR10        BRNC        BRNCCOCO    BRNCCOCO13AG00000400000000001239688800000000000001400000000000000000000000005885Z01620200408X066000000
1MAIL0000152513BR10        BRNC        BRNCCOCO    BRNCCOCO13AG2020040800:00:00OR  010000060355360006035536152513                             2020040820200408Z016CIF202004080000000000022790NN0                                                  0                                        
2MAIL0000152513BR10        BRNC        BRNCCOCO    BRNCCOCO13AG00000100000000001132036700000000000000100000000000000000000000002291Z01620200408X066000000
2MAIL0000152513BR10        BRNC        BRNCCOCO    BRNCCOCO13AG00000200000000001132200400000000000000100000000000000000000000002230Z01620200408X066000000
2MAIL0000152513BR10        BRNC        BRNCCOCO    BRNCCOCO13AG00000300000000001235699400000000000001000000000000000000000000004211Z01620200408X066000000
2MAIL0000152513BR10        BRNC        BRNCCOCO    BRNCCOCO13AG00000400000000001236512800000000000001200000000000000000000000002288Z01620200408X066000000
2MAIL0000152513BR10        BRNC        BRNCCOCO    BRNCCOCO13AG00000500000000001239688800000000000001400000000000000000000000005885Z01620200408X066000000
2MAIL0000152513BR10        BRNC        BRNCCOCO    BRNCCOCO13AG00000600000000001239692100000000000001400000000000000000000000005885Z01620200408X066000000
1MAIL0000152514BR10        BRNC        BRNCCOCO    BRNCCOCO13AG2020040800:00:00OR  010000061132070006113207152514                             2020040820200408Z016CIF202004080000000000031292NN0                                                  0                                        
2MAIL0000152514BR10        BRNC        BRNCCOCO    BRNCCOCO13AG00000100000000001132019800000000000000100000000000000000000000002076Z01620200408X066000000
2MAIL0000152514BR10        BRNC        BRNCCOCO    BRNCCOCO13AG00000200000000001132033100000000000000100000000000000000000000002291Z01620200408X066000000
2MAIL0000152514BR10        BRNC        BRNCCOCO    BRNCCOCO13AG00000300000000001132036700000000000000100000000000000000000000002291Z01620200408X066000000
2MAIL0000152514BR10        BRNC        BRNCCOCO    BRNCCOCO13AG00000400000000001231189200000000000000100000000000000000000000005568Z01620200408X066000000
2MAIL0000152514BR10        BRNC        BRNCCOCO    BRNCCOCO13AG00000500000000001235699800000000000001000000000000000000000000004211Z01620200408X066000000
2MAIL0000152514BR10        BRNC        BRNCCOCO    BRNCCOCO13AG00000600000000001236512900000000000001000000000000000000000000002004Z01620200408X066000000
2MAIL0000152514BR10        BRNC        BRNCCOCO    BRNCCOCO13AG00000700000000001236515000000000000001000000000000000000000000002004Z01620200408X066000000
2MAIL0000152514BR10        BRNC        BRNCCOCO    BRNCCOCO13AG00000800000000001239688800000000000001400000000000000000000000005885Z01620200408X066000000
2MAIL0000152514BR10        BRNC        BRNCCOCO    BRNCCOCO13AG00000900000000001241623700000000000000200000000000000000000000004962Z01620200408X066000000
