1MAIL0000150514BR10        BRNC        BRNCCOCO    BRNCCOCO13AG2020032000:00:00OR  010000029388720002938872150514                             2020032020200320Z016CIF202003200000000000119782NN0                                                  0                                        
2MAIL0000150514BR10        BRNC        BRNCCOCO    BRNCCOCO13AG00000100000000001132019700000000000000100000000000000000000000001967Z01620200320X066000000
2MAIL0000150514BR10        BRNC        BRNCCOCO    BRNCCOCO13AG00000200000000001132019800000000000000100000000000000000000000001967Z01620200320X066000000
2MAIL0000150514BR10        BRNC        BRNCCOCO    BRNCCOCO13AG00000300000000001132019900000000000000100000000000000000000000001967Z01620200320X066000000
2MAIL0000150514BR10        BRNC        BRNCCOCO    BRNCCOCO13AG00000400000000001132020900000000000000100000000000000000000000001967Z01620200320X066000000
2MAIL0000150514BR10        BRNC        BRNCCOCO    BRNCCOCO13AG00000500000000001132033100000000000001000000000000000000000000021728Z01620200320X066000000
2MAIL0000150514BR10        BRNC        BRNCCOCO    BRNCCOCO13AG00000600000000001132036700000000000001000000000000000000000000021728Z01620200320X066000000
2MAIL0000150514BR10        BRNC        BRNCCOCO    BRNCCOCO13AG00000700000000001132200400000000000000200000000000000000000000004230Z01620200320X066000000
2MAIL0000150514BR10        BRNC        BRNCCOCO    BRNCCOCO13AG00000800000000001221415400000000000000100000000000000000000000003541Z01620200320X066000000
2MAIL0000150514BR10        BRNC        BRNCCOCO    BRNCCOCO13AG00000900000000001228274000000000000000100000000000000000000000005076Z01620200320X066000000
2MAIL0000150514BR10        BRNC        BRNCCOCO    BRNCCOCO13AG00001000000000001228512700000000000000100000000000000000000000005076Z01620200320X066000000
2MAIL0000150514BR10        BRNC        BRNCCOCO    BRNCCOCO13AG00001100000000001231189200000000000000100000000000000000000000005076Z01620200320X066000000
2MAIL0000150514BR10        BRNC        BRNCCOCO    BRNCCOCO13AG00001200000000001231231200000000000000100000000000000000000000005076Z01620200320X066000000
2MAIL0000150514BR10        BRNC        BRNCCOCO    BRNCCOCO13AG00001300000000001231233000000000000000100000000000000000000000005076Z01620200320X066000000
2MAIL0000150514BR10        BRNC        BRNCCOCO    BRNCCOCO13AG00001400000000001235699400000000000001000000000000000000000000003825Z01620200320X066000000
2MAIL0000150514BR10        BRNC        BRNCCOCO    BRNCCOCO13AG00001500000000001235699700000000000001000000000000000000000000003825Z01620200320X066000000
2MAIL0000150514BR10        BRNC        BRNCCOCO    BRNCCOCO13AG00001600000000001235699800000000000001000000000000000000000000003825Z01620200320X066000000
2MAIL0000150514BR10        BRNC        BRNCCOCO    BRNCCOCO13AG00001700000000001236515000000000000001500000000000000000000000002727Z01620200320X066000000
2MAIL0000150514BR10        BRNC        BRNCCOCO    BRNCCOCO13AG00001800000000001239688800000000000001400000000000000000000000005343Z01620200320X066000000
2MAIL0000150514BR10        BRNC        BRNCCOCO    BRNCCOCO13AG00001900000000001239692100000000000001400000000000000000000000005343Z01620200320X066000000
2MAIL0000150514BR10        BRNC        BRNCCOCO    BRNCCOCO13AG00002000000000001239692300000000000001400000000000000000000000005343Z01620200320X066000000
2MAIL0000150514BR10        BRNC        BRNCCOCO    BRNCCOCO13AG00002100000000001242374800000000000000100000000000000000000000005076Z01620200320X066000000
1MAIL0000150516BR10        BRNC        BRNCCOCO    BRNCCOCO13AG2020032000:00:00OR  010000057245070005724507150516                             2020032020200320Z016CIF202003200000000000018255NN0                                                  0                                        
2MAIL0000150516BR10        BRNC        BRNCCOCO    BRNCCOCO13AG00000100000000001132019800000000000000100000000000000000000000002076Z01620200320X066000000
2MAIL0000150516BR10        BRNC        BRNCCOCO    BRNCCOCO13AG00000200000000001132033100000000000000100000000000000000000000002291Z01620200320X066000000
2MAIL0000150516BR10        BRNC        BRNCCOCO    BRNCCOCO13AG00000300000000001132036700000000000000100000000000000000000000002291Z01620200320X066000000
2MAIL0000150516BR10        BRNC        BRNCCOCO    BRNCCOCO13AG00000400000000001236512900000000000000500000000000000000000000001002Z01620200320X066000000
2MAIL0000150516BR10        BRNC        BRNCCOCO    BRNCCOCO13AG00000500000000001236515000000000000000500000000000000000000000001002Z01620200320X066000000
2MAIL0000150516BR10        BRNC        BRNCCOCO    BRNCCOCO13AG00000600000000001239688800000000000001400000000000000000000000005885Z01620200320X066000000
2MAIL0000150516BR10        BRNC        BRNCCOCO    BRNCCOCO13AG00000700000000001241623700000000000000100000000000000000000000003708Z01620200320X066000000
