1MAIL0000151913BR10        BRNC        BRNCCOCO    BRNCCOCO13AG2020040100:00:00OR  010000034719320003471932151913                             2020040120200401Z016CIF202004010000000000039923NN0                                                  0                                        
2MAIL0000151913BR10        BRNC        BRNCCOCO    BRNCCOCO13AG00000100000000001132018300000000000000100000000000000000000000003735Z01620200401X066000000
2MAIL0000151913BR10        BRNC        BRNCCOCO    BRNCCOCO13AG00000200000000001132036700000000000000100000000000000000000000002291Z01620200401X066000000
2MAIL0000151913BR10        BRNC        BRNCCOCO    BRNCCOCO13AG00000300000000001132200400000000000000200000000000000000000000004460Z01620200401X066000000
2MAIL0000151913BR10        BRNC        BRNCCOCO    BRNCCOCO13AG00000400000000001221415400000000000000100000000000000000000000003735Z01620200401X066000000
2MAIL0000151913BR10        BRNC        BRNCCOCO    BRNCCOCO13AG00000500000000001236512900000000000001000000000000000000000000002004Z01620200401X066000000
2MAIL0000151913BR10        BRNC        BRNCCOCO    BRNCCOCO13AG00000600000000001236515000000000000001000000000000000000000000002004Z01620200401X066000000
2MAIL0000151913BR10        BRNC        BRNCCOCO    BRNCCOCO13AG00000700000000001239688600000000000001400000000000000000000000005885Z01620200401X066000000
2MAIL0000151913BR10        BRNC        BRNCCOCO    BRNCCOCO13AG00000800000000001239688800000000000001400000000000000000000000005885Z01620200401X066000000
2MAIL0000151913BR10        BRNC        BRNCCOCO    BRNCCOCO13AG00000900000000001241623700000000000000400000000000000000000000009924Z01620200401X066000000
1MAIL0000151914BR10        BRNC        BRNCCOCO    BRNCCOCO13AG2020040100:00:00OR  010000060224070006022407151914                             2020040120200401Z016CIF202004010000000000032594NN0                                                  0                                        
2MAIL0000151914BR10        BRNC        BRNCCOCO    BRNCCOCO13AG00000100000000001132018300000000000000100000000000000000000000003735Z01620200401X066000000
2MAIL0000151914BR10        BRNC        BRNCCOCO    BRNCCOCO13AG00000200000000001132033100000000000000100000000000000000000000002291Z01620200401X066000000
2MAIL0000151914BR10        BRNC        BRNCCOCO    BRNCCOCO13AG00000300000000001132036700000000000000100000000000000000000000002291Z01620200401X066000000
2MAIL0000151914BR10        BRNC        BRNCCOCO    BRNCCOCO13AG00000400000000001132200400000000000000100000000000000000000000002230Z01620200401X066000000
2MAIL0000151914BR10        BRNC        BRNCCOCO    BRNCCOCO13AG00000500000000001215533700000000000000100000000000000000000000002291Z01620200401X066000000
2MAIL0000151914BR10        BRNC        BRNCCOCO    BRNCCOCO13AG00000600000000001236512800000000000000400000000000000000000000000762Z01620200401X066000000
2MAIL0000151914BR10        BRNC        BRNCCOCO    BRNCCOCO13AG00000700000000001236512900000000000001000000000000000000000000002004Z01620200401X066000000
2MAIL0000151914BR10        BRNC        BRNCCOCO    BRNCCOCO13AG00000800000000001236515000000000000001000000000000000000000000002004Z01620200401X066000000
2MAIL0000151914BR10        BRNC        BRNCCOCO    BRNCCOCO13AG00000900000000001239688300000000000001400000000000000000000000005885Z01620200401X066000000
2MAIL0000151914BR10        BRNC        BRNCCOCO    BRNCCOCO13AG00001000000000001239688800000000000001400000000000000000000000005885Z01620200401X066000000
2MAIL0000151914BR10        BRNC        BRNCCOCO    BRNCCOCO13AG00001100000000001240924900000000000000400000000000000000000000000735Z01620200401X066000000
2MAIL0000151914BR10        BRNC        BRNCCOCO    BRNCCOCO13AG00001200000000001241623700000000000000100000000000000000000000002481Z01620200401X066000000
