1MAIL0000152293BR10        BRNC        BRNCCOCO    BRNCCOCO13AG2020040600:00:00OR  010000029799040002979904152293                             2020040620200406Z016CIF202004060000000000051993NN0                                                  0                                        
2MAIL0000152293BR10        BRNC        BRNCCOCO    BRNCCOCO13AG00000100000000001241577400000000000006000000000000000000000000051993Z01620200406X066000000
1MAIL0000152294BR10        BRNC        BRNCCOCO    BRNCCOCO13AG2020040600:00:00OR  010000053565470005356547152294                             2020040620200406Z016CIF202004060000000000032667NN0                                                  0                                        
2MAIL0000152294BR10        BRNC        BRNCCOCO    BRNCCOCO13AG00000100000000001132019800000000000000200000000000000000000000004150Z01620200406X066000000
2MAIL0000152294BR10        BRNC        BRNCCOCO    BRNCCOCO13AG00000200000000001132020900000000000000200000000000000000000000004150Z01620200406X066000000
2MAIL0000152294BR10        BRNC        BRNCCOCO    BRNCCOCO13AG00000300000000001132033100000000000000200000000000000000000000004581Z01620200406X066000000
2MAIL0000152294BR10        BRNC        BRNCCOCO    BRNCCOCO13AG00000400000000001236512900000000000002000000000000000000000000004008Z01620200406X066000000
2MAIL0000152294BR10        BRNC        BRNCCOCO    BRNCCOCO13AG00000500000000001236515000000000000002000000000000000000000000004008Z01620200406X066000000
2MAIL0000152294BR10        BRNC        BRNCCOCO    BRNCCOCO13AG00000600000000001239688800000000000001400000000000000000000000005885Z01620200406X066000000
2MAIL0000152294BR10        BRNC        BRNCCOCO    BRNCCOCO13AG00000700000000001239692100000000000001400000000000000000000000005885Z01620200406X066000000
1MAIL0000152295BR10        BRNC        BRNCCOCO    BRNCCOCO13AG2020040600:00:00OR  010000034762780003476278152295                             2020040620200406Z016CIF202004060000000000013116NN0                                                  0                                        
2MAIL0000152295BR10        BRNC        BRNCCOCO    BRNCCOCO13AG00000100000000001236512900000000000001000000000000000000000000001997Z01620200406X066000000
2MAIL0000152295BR10        BRNC        BRNCCOCO    BRNCCOCO13AG00000200000000001236515000000000000001000000000000000000000000001997Z01620200406X066000000
2MAIL0000152295BR10        BRNC        BRNCCOCO    BRNCCOCO13AG00000300000000001241577400000000000001000000000000000000000000009122Z01620200406X066000000
1MAIL0000152296BR10        BRNC        BRNCCOCO    BRNCCOCO13AG2020040600:00:00OR  010000056772880005677288152296                             2020040620200406Z016CIF202004060000000000017173NN0                                                  0                                        
2MAIL0000152296BR10        BRNC        BRNCCOCO    BRNCCOCO13AG00000100000000001132019800000000000000100000000000000000000000001498Z01620200406X066000000
2MAIL0000152296BR10        BRNC        BRNCCOCO    BRNCCOCO13AG00000200000000001132033100000000000000100000000000000000000000001654Z01620200406X066000000
2MAIL0000152296BR10        BRNC        BRNCCOCO    BRNCCOCO13AG00000300000000001132036700000000000000100000000000000000000000001654Z01620200406X066000000
2MAIL0000152296BR10        BRNC        BRNCCOCO    BRNCCOCO13AG00000400000000001132200400000000000000100000000000000000000000002115Z01620200406X066000000
2MAIL0000152296BR10        BRNC        BRNCCOCO    BRNCCOCO13AG00000500000000001235699400000000000002000000000000000000000000006704Z01620200406X066000000
2MAIL0000152296BR10        BRNC        BRNCCOCO    BRNCCOCO13AG00000600000000001236515000000000000000500000000000000000000000000956Z01620200406X066000000
2MAIL0000152296BR10        BRNC        BRNCCOCO    BRNCCOCO13AG00000700000000001241623700000000000000100000000000000000000000002592Z01620200406X066000000
1MAIL0000152297BR10        BRNC        BRNCCOCO    BRNCCOCO13AG2020040600:00:00OR  010000044641400004464140152297                             2020040620200406Z016CIF202004060000000000007868NN0                                                  0                                        
2MAIL0000152297BR10        BRNC        BRNCCOCO    BRNCCOCO13AG00000100000000001132019700000000000000100000000000000000000000001967Z01620200406X066000000
2MAIL0000152297BR10        BRNC        BRNCCOCO    BRNCCOCO13AG00000200000000001132019900000000000000100000000000000000000000001967Z01620200406X066000000
2MAIL0000152297BR10        BRNC        BRNCCOCO    BRNCCOCO13AG00000300000000001132020900000000000000100000000000000000000000001967Z01620200406X066000000
2MAIL0000152297BR10        BRNC        BRNCCOCO    BRNCCOCO13AG00000400000000001227735000000000000000100000000000000000000000001967Z01620200406X066000000
1MAIL0000152298BR10        BRNC        BRNCCOCO    BRNCCOCO13AG2020040600:00:00OR  010000040597030004059703152298                             2020040620200406Z016CIF202004060000000000005345NN0                                                  0                                        
2MAIL0000152298BR10        BRNC        BRNCCOCO    BRNCCOCO13AG00000100000000001132036700000000000000100000000000000000000000002173Z01620200406X066000000
2MAIL0000152298BR10        BRNC        BRNCCOCO    BRNCCOCO13AG00000200000000001215533700000000000000100000000000000000000000002173Z01620200406X066000000
2MAIL0000152298BR10        BRNC        BRNCCOCO    BRNCCOCO13AG00000300000000001236515000000000000000500000000000000000000000000999Z01620200406X066000000
1MAIL0000152299BR10        BRNC        BRNCCOCO    BRNCCOCO13AG2020040600:00:00OR  010000029807170002980717152299                             2020040620200406Z016CIF202004060000000000077323NN0                                                  0                                        
2MAIL0000152299BR10        BRNC        BRNCCOCO    BRNCCOCO13AG00000100000000001132033100000000000000300000000000000000000000006872Z01620200406X066000000
2MAIL0000152299BR10        BRNC        BRNCCOCO    BRNCCOCO13AG00000200000000001132036700000000000000300000000000000000000000006872Z01620200406X066000000
2MAIL0000152299BR10        BRNC        BRNCCOCO    BRNCCOCO13AG00000300000000001215533700000000000000300000000000000000000000006872Z01620200406X066000000
2MAIL0000152299BR10        BRNC        BRNCCOCO    BRNCCOCO13AG00000400000000001226089600000000000001200000000000000000000000005045Z01620200406X066000000
2MAIL0000152299BR10        BRNC        BRNCCOCO    BRNCCOCO13AG00000500000000001231389600000000000000100000000000000000000000002291Z01620200406X066000000
2MAIL0000152299BR10        BRNC        BRNCCOCO    BRNCCOCO13AG00000600000000001236898000000000000000100000000000000000000000002291Z01620200406X066000000
2MAIL0000152299BR10        BRNC        BRNCCOCO    BRNCCOCO13AG00000700000000001239663300000000000001400000000000000000000000005885Z01620200406X066000000
2MAIL0000152299BR10        BRNC        BRNCCOCO    BRNCCOCO13AG00000800000000001239688500000000000001400000000000000000000000005885Z01620200406X066000000
2MAIL0000152299BR10        BRNC        BRNCCOCO    BRNCCOCO13AG00000900000000001239688600000000000001400000000000000000000000005885Z01620200406X066000000
2MAIL0000152299BR10        BRNC        BRNCCOCO    BRNCCOCO13AG00001000000000001239688700000000000001400000000000000000000000005885Z01620200406X066000000
2MAIL0000152299BR10        BRNC        BRNCCOCO    BRNCCOCO13AG00001100000000001239688800000000000001400000000000000000000000005885Z01620200406X066000000
2MAIL0000152299BR10        BRNC        BRNCCOCO    BRNCCOCO13AG00001200000000001239692100000000000001400000000000000000000000005885Z01620200406X066000000
2MAIL0000152299BR10        BRNC        BRNCCOCO    BRNCCOCO13AG00001300000000001242626100000000000001400000000000000000000000005885Z01620200406X066000000
2MAIL0000152299BR10        BRNC        BRNCCOCO    BRNCCOCO13AG00001400000000001242754900000000000001400000000000000000000000005885Z01620200406X066000000
1MAIL0000152300BR10        BRNC        BRNCCOCO    BRNCCOCO13AG2020040600:00:00OR  010000039898040003989804152300                             2020040620200406Z016CIF202004060000000000068106NN0                                                  0                                        
2MAIL0000152300BR10        BRNC        BRNCCOCO    BRNCCOCO13AG00000100000000001226089600000000000001200000000000000000000000005045Z01620200406X066000000
2MAIL0000152300BR10        BRNC        BRNCCOCO    BRNCCOCO13AG00000200000000001235699400000000000001000000000000000000000000004211Z01620200406X066000000
2MAIL0000152300BR10        BRNC        BRNCCOCO    BRNCCOCO13AG00000300000000001239663300000000000001400000000000000000000000005885Z01620200406X066000000
2MAIL0000152300BR10        BRNC        BRNCCOCO    BRNCCOCO13AG00000400000000001239688300000000000001400000000000000000000000005885Z01620200406X066000000
2MAIL0000152300BR10        BRNC        BRNCCOCO    BRNCCOCO13AG00000500000000001239688500000000000001400000000000000000000000005885Z01620200406X066000000
2MAIL0000152300BR10        BRNC        BRNCCOCO    BRNCCOCO13AG00000600000000001239688600000000000001400000000000000000000000005885Z01620200406X066000000
2MAIL0000152300BR10        BRNC        BRNCCOCO    BRNCCOCO13AG00000700000000001239688700000000000001400000000000000000000000005885Z01620200406X066000000
2MAIL0000152300BR10        BRNC        BRNCCOCO    BRNCCOCO13AG00000800000000001239688800000000000002800000000000000000000000011770Z01620200406X066000000
2MAIL0000152300BR10        BRNC        BRNCCOCO    BRNCCOCO13AG00000900000000001239692000000000000001400000000000000000000000005885Z01620200406X066000000
2MAIL0000152300BR10        BRNC        BRNCCOCO    BRNCCOCO13AG00001000000000001239692100000000000001400000000000000000000000005885Z01620200406X066000000
2MAIL0000152300BR10        BRNC        BRNCCOCO    BRNCCOCO13AG00001100000000001239692300000000000001400000000000000000000000005885Z01620200406X066000000
1MAIL0000152301BR10        BRNC        BRNCCOCO    BRNCCOCO13AG2020040600:00:00OR  010000029833480002983348152301                             2020040620200406Z016CIF202004060000000000030853NN0                                                  0                                        
2MAIL0000152301BR10        BRNC        BRNCCOCO    BRNCCOCO13AG00000100000000001132036700000000000000200000000000000000000000004345Z01620200406X066000000
2MAIL0000152301BR10        BRNC        BRNCCOCO    BRNCCOCO13AG00000200000000001226089600000000000001200000000000000000000000004784Z01620200406X066000000
2MAIL0000152301BR10        BRNC        BRNCCOCO    BRNCCOCO13AG00000300000000001228274000000000000000100000000000000000000000005280Z01620200406X066000000
2MAIL0000152301BR10        BRNC        BRNCCOCO    BRNCCOCO13AG00000400000000001234705800000000000000100000000000000000000000005280Z01620200406X066000000
2MAIL0000152301BR10        BRNC        BRNCCOCO    BRNCCOCO13AG00000500000000001239688700000000000001400000000000000000000000005582Z01620200406X066000000
2MAIL0000152301BR10        BRNC        BRNCCOCO    BRNCCOCO13AG00000600000000001239688800000000000001400000000000000000000000005582Z01620200406X066000000
1MAIL0000152302BR10        BRNC        BRNCCOCO    BRNCCOCO13AG2020040600:00:00OR  010000011451220001145122152302                             2020040620200406Z016CIF202004060000000000032582NN0                                                  0                                        
2MAIL0000152302BR10        BRNC        BRNCCOCO    BRNCCOCO13AG00000100000000001132033100000000000000100000000000000000000000002291Z01620200406X066000000
2MAIL0000152302BR10        BRNC        BRNCCOCO    BRNCCOCO13AG00000200000000001132036700000000000000100000000000000000000000002291Z01620200406X066000000
2MAIL0000152302BR10        BRNC        BRNCCOCO    BRNCCOCO13AG00000300000000001132200400000000000000200000000000000000000000004460Z01620200406X066000000
2MAIL0000152302BR10        BRNC        BRNCCOCO    BRNCCOCO13AG00000400000000001239688600000000000001400000000000000000000000005885Z01620200406X066000000
2MAIL0000152302BR10        BRNC        BRNCCOCO    BRNCCOCO13AG00000500000000001239688700000000000001400000000000000000000000005885Z01620200406X066000000
2MAIL0000152302BR10        BRNC        BRNCCOCO    BRNCCOCO13AG00000600000000001239688800000000000001400000000000000000000000005885Z01620200406X066000000
2MAIL0000152302BR10        BRNC        BRNCCOCO    BRNCCOCO13AG00000700000000001239692100000000000001400000000000000000000000005885Z01620200406X066000000
