1MAIL0000150679BR10        BRNC        BRNCCOCO    BRNCCOCO13AG2020032400:00:00OR  010000052445990005244599150679                             2020032420200324Z016CIF202003240000000000022956NN0                                                  0                                        
2MAIL0000150679BR10        BRNC        BRNCCOCO    BRNCCOCO13AG00000100000000001132019800000000000000100000000000000000000000002076Z01620200324X066000000
2MAIL0000150679BR10        BRNC        BRNCCOCO    BRNCCOCO13AG00000200000000001132019900000000000000100000000000000000000000002076Z01620200324X066000000
2MAIL0000150679BR10        BRNC        BRNCCOCO    BRNCCOCO13AG00000300000000001132036700000000000000200000000000000000000000004581Z01620200324X066000000
2MAIL0000150679BR10        BRNC        BRNCCOCO    BRNCCOCO13AG00000400000000001215533700000000000000100000000000000000000000002291Z01620200324X066000000
2MAIL0000150679BR10        BRNC        BRNCCOCO    BRNCCOCO13AG00000500000000001226089600000000000001200000000000000000000000005045Z01620200324X066000000
2MAIL0000150679BR10        BRNC        BRNCCOCO    BRNCCOCO13AG00000600000000001236515000000000000000500000000000000000000000001002Z01620200324X066000000
2MAIL0000150679BR10        BRNC        BRNCCOCO    BRNCCOCO13AG00000700000000001239692100000000000001400000000000000000000000005885Z01620200324X066000000
1MAIL0000150680BR10        BRNC        BRNCCOCO    BRNCCOCO13AG2020032400:00:00OR  010000029254930002925493150680                             2020032420200324Z016CIF202003240000000000076870NN0                                                  0                                        
2MAIL0000150680BR10        BRNC        BRNCCOCO    BRNCCOCO13AG00000100000000001132033100000000000000300000000000000000000000006518Z01620200324X066000000
2MAIL0000150680BR10        BRNC        BRNCCOCO    BRNCCOCO13AG00000200000000001132036700000000000000500000000000000000000000010863Z01620200324X066000000
2MAIL0000150680BR10        BRNC        BRNCCOCO    BRNCCOCO13AG00000300000000001132200400000000000000200000000000000000000000004230Z01620200324X066000000
2MAIL0000150680BR10        BRNC        BRNCCOCO    BRNCCOCO13AG00000400000000001215533700000000000000200000000000000000000000004345Z01620200324X066000000
2MAIL0000150680BR10        BRNC        BRNCCOCO    BRNCCOCO13AG00000500000000001231389600000000000000200000000000000000000000004345Z01620200324X066000000
2MAIL0000150680BR10        BRNC        BRNCCOCO    BRNCCOCO13AG00000600000000001235699800000000000001000000000000000000000000003825Z01620200324X066000000
2MAIL0000150680BR10        BRNC        BRNCCOCO    BRNCCOCO13AG00000700000000001239688300000000000001400000000000000000000000005343Z01620200324X066000000
2MAIL0000150680BR10        BRNC        BRNCCOCO    BRNCCOCO13AG00000800000000001239688500000000000001400000000000000000000000005343Z01620200324X066000000
2MAIL0000150680BR10        BRNC        BRNCCOCO    BRNCCOCO13AG00000900000000001239688600000000000002800000000000000000000000010686Z01620200324X066000000
2MAIL0000150680BR10        BRNC        BRNCCOCO    BRNCCOCO13AG00001000000000001239688800000000000002800000000000000000000000010686Z01620200324X066000000
2MAIL0000150680BR10        BRNC        BRNCCOCO    BRNCCOCO13AG00001100000000001239692100000000000002800000000000000000000000010686Z01620200324X066000000
1MAIL0000150681BR10        BRNC        BRNCCOCO    BRNCCOCO13AG2020032400:00:00OR  010000032585920003258592150681                             2020032420200324Z016CIF202003240000000000032796NN0                                                  0                                        
2MAIL0000150681BR10        BRNC        BRNCCOCO    BRNCCOCO13AG00000100000000001226089600000000000001200000000000000000000000005045Z01620200324X066000000
2MAIL0000150681BR10        BRNC        BRNCCOCO    BRNCCOCO13AG00000200000000001235699800000000000001000000000000000000000000004211Z01620200324X066000000
2MAIL0000150681BR10        BRNC        BRNCCOCO    BRNCCOCO13AG00000300000000001239688600000000000001400000000000000000000000005885Z01620200324X066000000
2MAIL0000150681BR10        BRNC        BRNCCOCO    BRNCCOCO13AG00000400000000001239688800000000000001400000000000000000000000005885Z01620200324X066000000
2MAIL0000150681BR10        BRNC        BRNCCOCO    BRNCCOCO13AG00000500000000001239692100000000000001400000000000000000000000005885Z01620200324X066000000
2MAIL0000150681BR10        BRNC        BRNCCOCO    BRNCCOCO13AG00000600000000001239692300000000000001400000000000000000000000005885Z01620200324X066000000
1MAIL0000150682BR10        BRNC        BRNCCOCO    BRNCCOCO13AG2020032400:00:00OR  010000052845640005284564150682                             2020032420200324Z016CIF202003240000000000035943NN0                                                  0                                        
2MAIL0000150682BR10        BRNC        BRNCCOCO    BRNCCOCO13AG00000100000000001235699800000000000001000000000000000000000000004211Z01620200324X066000000
2MAIL0000150682BR10        BRNC        BRNCCOCO    BRNCCOCO13AG00000200000000001236512800000000000000800000000000000000000000001526Z01620200324X066000000
2MAIL0000150682BR10        BRNC        BRNCCOCO    BRNCCOCO13AG00000300000000001236512900000000000001000000000000000000000000002004Z01620200324X066000000
2MAIL0000150682BR10        BRNC        BRNCCOCO    BRNCCOCO13AG00000400000000001236515000000000000001000000000000000000000000002004Z01620200324X066000000
2MAIL0000150682BR10        BRNC        BRNCCOCO    BRNCCOCO13AG00000500000000001239688300000000000001400000000000000000000000005885Z01620200324X066000000
2MAIL0000150682BR10        BRNC        BRNCCOCO    BRNCCOCO13AG00000600000000001239688800000000000001400000000000000000000000005885Z01620200324X066000000
2MAIL0000150682BR10        BRNC        BRNCCOCO    BRNCCOCO13AG00000700000000001241577400000000000001500000000000000000000000014428Z01620200324X066000000
1MAIL0000150683BR10        BRNC        BRNCCOCO    BRNCCOCO13AG2020032400:00:00OR  010000052746390005274639150683                             2020032420200324Z016CIF202003240000000000029714NN0                                                  0                                        
2MAIL0000150683BR10        BRNC        BRNCCOCO    BRNCCOCO13AG00000100000000001132033100000000000000200000000000000000000000003712Z01620200324X066000000
2MAIL0000150683BR10        BRNC        BRNCCOCO    BRNCCOCO13AG00000200000000001132036700000000000000100000000000000000000000001856Z01620200324X066000000
2MAIL0000150683BR10        BRNC        BRNCCOCO    BRNCCOCO13AG00000300000000001132200400000000000000100000000000000000000000002105Z01620200324X066000000
2MAIL0000150683BR10        BRNC        BRNCCOCO    BRNCCOCO13AG00000400000000001215533700000000000000200000000000000000000000003712Z01620200324X066000000
2MAIL0000150683BR10        BRNC        BRNCCOCO    BRNCCOCO13AG00000500000000001226089600000000000001200000000000000000000000004073Z01620200324X066000000
2MAIL0000150683BR10        BRNC        BRNCCOCO    BRNCCOCO13AG00000600000000001239692000000000000001400000000000000000000000004752Z01620200324X066000000
2MAIL0000150683BR10        BRNC        BRNCCOCO    BRNCCOCO13AG00000700000000001239692100000000000001400000000000000000000000004752Z01620200324X066000000
2MAIL0000150683BR10        BRNC        BRNCCOCO    BRNCCOCO13AG00000800000000001242754900000000000001400000000000000000000000004752Z01620200324X066000000
1MAIL0000150684BR10        BRNC        BRNCCOCO    BRNCCOCO13AG2020032400:00:00OR  010000034822870003482287150684                             2020032420200324Z016CIF202003240000000000078394NN0                                                  0                                        
2MAIL0000150684BR10        BRNC        BRNCCOCO    BRNCCOCO13AG00000100000000001132033100000000000000200000000000000000000000004250Z01620200324X066000000
2MAIL0000150684BR10        BRNC        BRNCCOCO    BRNCCOCO13AG00000200000000001132036700000000000000500000000000000000000000010625Z01620200324X066000000
2MAIL0000150684BR10        BRNC        BRNCCOCO    BRNCCOCO13AG00000300000000001132200400000000000000500000000000000000000000010575Z01620200324X066000000
2MAIL0000150684BR10        BRNC        BRNCCOCO    BRNCCOCO13AG00000400000000001215533700000000000000200000000000000000000000004250Z01620200324X066000000
2MAIL0000150684BR10        BRNC        BRNCCOCO    BRNCCOCO13AG00000500000000001239688800000000000001400000000000000000000000005226Z01620200324X066000000
2MAIL0000150684BR10        BRNC        BRNCCOCO    BRNCCOCO13AG00000600000000001239692000000000000001400000000000000000000000005226Z01620200324X066000000
2MAIL0000150684BR10        BRNC        BRNCCOCO    BRNCCOCO13AG00000700000000001239692100000000000001400000000000000000000000005226Z01620200324X066000000
2MAIL0000150684BR10        BRNC        BRNCCOCO    BRNCCOCO13AG00000800000000001241577400000000000003000000000000000000000000025426Z01620200324X066000000
2MAIL0000150684BR10        BRNC        BRNCCOCO    BRNCCOCO13AG00000900000000001241623700000000000000300000000000000000000000007590Z01620200324X066000000
1MAIL0000150685BR10        BRNC        BRNCCOCO    BRNCCOCO13AG2020032400:00:00OR  010000057262930005726293150685                             2020032420200324Z016CIF202003240000000000027369NN0                                                  0                                        
2MAIL0000150685BR10        BRNC        BRNCCOCO    BRNCCOCO13AG00000100000000001132036700000000000001000000000000000000000000022909Z01620200324X066000000
2MAIL0000150685BR10        BRNC        BRNCCOCO    BRNCCOCO13AG00000200000000001132200400000000000000200000000000000000000000004460Z01620200324X066000000
1MAIL0000150686BR10        BRNC        BRNCCOCO    BRNCCOCO13AG2020032400:00:00OR  010000059862350005986235150686                             2020032420200324Z079CIF202003240000000003283205NN0                                                  0                                        
2MAIL0000150686BR10        BRNC        BRNCCOCO    BRNCCOCO13AG00000100000000001132004000000000000006000000000000000000000000057055Z07920200324X066000000
2MAIL0000150686BR10        BRNC        BRNCCOCO    BRNCCOCO13AG00000200000000001132004200000000000004000000000000000000000000053627Z07920200324X066000000
2MAIL0000150686BR10        BRNC        BRNCCOCO    BRNCCOCO13AG00000300000000001132018300000000000001600000000000000000000000047492Z07920200324X066000000
2MAIL0000150686BR10        BRNC        BRNCCOCO    BRNCCOCO13AG00000400000000001132019800000000000001800000000000000000000000030334Z07920200324X066000000
2MAIL0000150686BR10        BRNC        BRNCCOCO    BRNCCOCO13AG00000500000000001132019900000000000001800000000000000000000000030334Z07920200324X066000000
2MAIL0000150686BR10        BRNC        BRNCCOCO    BRNCCOCO13AG00000600000000001132020900000000000001800000000000000000000000030334Z07920200324X066000000
2MAIL0000150686BR10        BRNC        BRNCCOCO    BRNCCOCO13AG00000700000000001132030800000000000002400000000000000000000000076798Z07920200324X066000000
2MAIL0000150686BR10        BRNC        BRNCCOCO    BRNCCOCO13AG00000800000000001132030900000000000003600000000000000000000000118846Z07920200324X066000000
2MAIL0000150686BR10        BRNC        BRNCCOCO    BRNCCOCO13AG00000900000000001132033100000000000003200000000000000000000000059191Z07920200324X066000000
2MAIL0000150686BR10        BRNC        BRNCCOCO    BRNCCOCO13AG00001000000000001132035100000000000006000000000000000000000000144461Z07920200324X066000000
2MAIL0000150686BR10        BRNC        BRNCCOCO    BRNCCOCO13AG00001100000000001132036700000000000006400000000000000000000000118382Z07920200324X066000000
2MAIL0000150686BR10        BRNC        BRNCCOCO    BRNCCOCO13AG00001200000000001132200400000000000004800000000000000000000000087708Z07920200324X066000000
2MAIL0000150686BR10        BRNC        BRNCCOCO    BRNCCOCO13AG00001300000000001132400100000000000001200000000000000000000000030853Z07920200324X066000000
2MAIL0000150686BR10        BRNC        BRNCCOCO    BRNCCOCO13AG00001400000000001214448800000000000001000000000000000000000000050713Z07920200324X066000000
2MAIL0000150686BR10        BRNC        BRNCCOCO    BRNCCOCO13AG00001500000000001214448900000000000001500000000000000000000000072837Z07920200324X066000000
2MAIL0000150686BR10        BRNC        BRNCCOCO    BRNCCOCO13AG00001600000000001215533700000000000003200000000000000000000000059191Z07920200324X066000000
2MAIL0000150686BR10        BRNC        BRNCCOCO    BRNCCOCO13AG00001700000000001221415400000000000000800000000000000000000000023745Z07920200324X066000000
2MAIL0000150686BR10        BRNC        BRNCCOCO    BRNCCOCO13AG00001800000000001223975300000000000000800000000000000000000000037788Z07920200324X066000000
2MAIL0000150686BR10        BRNC        BRNCCOCO    BRNCCOCO13AG00001900000000001224882800000000000001200000000000000000000000032259Z07920200324X066000000
2MAIL0000150686BR10        BRNC        BRNCCOCO    BRNCCOCO13AG00002000000000001226089600000000000024000000000000000000000000085244Z07920200324X066000000
2MAIL0000150686BR10        BRNC        BRNCCOCO    BRNCCOCO13AG00002100000000001227395500000000000009600000000000000000000000177575Z07920200324X066000000
2MAIL0000150686BR10        BRNC        BRNCCOCO    BRNCCOCO13AG00002200000000001227735000000000000001800000000000000000000000030334Z07920200324X066000000
2MAIL0000150686BR10        BRNC        BRNCCOCO    BRNCCOCO13AG00002300000000001228274000000000000000800000000000000000000000037788Z07920200324X066000000
2MAIL0000150686BR10        BRNC        BRNCCOCO    BRNCCOCO13AG00002400000000001228512700000000000000800000000000000000000000037788Z07920200324X066000000
2MAIL0000150686BR10        BRNC        BRNCCOCO    BRNCCOCO13AG00002500000000001231189200000000000000800000000000000000000000037788Z07920200324X066000000
2MAIL0000150686BR10        BRNC        BRNCCOCO    BRNCCOCO13AG00002600000000001231231200000000000000800000000000000000000000037788Z07920200324X066000000
2MAIL0000150686BR10        BRNC        BRNCCOCO    BRNCCOCO13AG00002700000000001231233000000000000000800000000000000000000000037788Z07920200324X066000000
2MAIL0000150686BR10        BRNC        BRNCCOCO    BRNCCOCO13AG00002800000000001231389600000000000003200000000000000000000000059191Z07920200324X066000000
2MAIL0000150686BR10        BRNC        BRNCCOCO    BRNCCOCO13AG00002900000000001231417800000000000001200000000000000000000000032259Z07920200324X066000000
2MAIL0000150686BR10        BRNC        BRNCCOCO    BRNCCOCO13AG00003000000000001234705700000000000000800000000000000000000000037788Z07920200324X066000000
2MAIL0000150686BR10        BRNC        BRNCCOCO    BRNCCOCO13AG00003100000000001234705800000000000000800000000000000000000000037788Z07920200324X066000000
2MAIL0000150686BR10        BRNC        BRNCCOCO    BRNCCOCO13AG00003200000000001234705900000000000001600000000000000000000000075576Z07920200324X066000000
2MAIL0000150686BR10        BRNC        BRNCCOCO    BRNCCOCO13AG00003300000000001235699400000000000016000000000000000000000000056943Z07920200324X066000000
2MAIL0000150686BR10        BRNC        BRNCCOCO    BRNCCOCO13AG00003400000000001235699700000000000016000000000000000000000000056943Z07920200324X066000000
2MAIL0000150686BR10        BRNC        BRNCCOCO    BRNCCOCO13AG00003500000000001235699800000000000016000000000000000000000000056943Z07920200324X066000000
2MAIL0000150686BR10        BRNC        BRNCCOCO    BRNCCOCO13AG00003600000000001236512800000000000005200000000000000000000000008764Z07920200324X066000000
2MAIL0000150686BR10        BRNC        BRNCCOCO    BRNCCOCO13AG00003700000000001236512900000000000035000000000000000000000000058777Z07920200324X066000000
2MAIL0000150686BR10        BRNC        BRNCCOCO    BRNCCOCO13AG00003800000000001236515000000000000070000000000000000000000000117556Z07920200324X066000000
2MAIL0000150686BR10        BRNC        BRNCCOCO    BRNCCOCO13AG00003900000000001236898000000000000003200000000000000000000000059191Z07920200324X066000000
2MAIL0000150686BR10        BRNC        BRNCCOCO    BRNCCOCO13AG00004000000000001236898100000000000001200000000000000000000000032259Z07920200324X066000000
2MAIL0000150686BR10        BRNC        BRNCCOCO    BRNCCOCO13AG00004100000000001238083500000000000000800000000000000000000000037788Z07920200324X066000000
2MAIL0000150686BR10        BRNC        BRNCCOCO    BRNCCOCO13AG00004200000000001239373400000000000000800000000000000000000000047219Z07920200324X066000000
2MAIL0000150686BR10        BRNC        BRNCCOCO    BRNCCOCO13AG00004300000000001239373500000000000000800000000000000000000000047219Z07920200324X066000000
2MAIL0000150686BR10        BRNC        BRNCCOCO    BRNCCOCO13AG00004400000000001239373600000000000000800000000000000000000000047219Z07920200324X066000000
2MAIL0000150686BR10        BRNC        BRNCCOCO    BRNCCOCO13AG00004500000000001239373700000000000000800000000000000000000000047219Z07920200324X066000000
2MAIL0000150686BR10        BRNC        BRNCCOCO    BRNCCOCO13AG00004600000000001239663300000000000016800000000000000000000000059672Z07920200324X066000000
2MAIL0000150686BR10        BRNC        BRNCCOCO    BRNCCOCO13AG00004700000000001239688300000000000016800000000000000000000000059672Z07920200324X066000000
2MAIL0000150686BR10        BRNC        BRNCCOCO    BRNCCOCO13AG00004800000000001239688500000000000016800000000000000000000000059672Z07920200324X066000000
2MAIL0000150686BR10        BRNC        BRNCCOCO    BRNCCOCO13AG00004900000000001239688600000000000016800000000000000000000000059672Z07920200324X066000000
2MAIL0000150686BR10        BRNC        BRNCCOCO    BRNCCOCO13AG00005000000000001239688800000000000044800000000000000000000000159124Z07920200324X066000000
2MAIL0000150686BR10        BRNC        BRNCCOCO    BRNCCOCO13AG00005100000000001239692100000000000044800000000000000000000000159124Z07920200324X066000000
2MAIL0000150686BR10        BRNC        BRNCCOCO    BRNCCOCO13AG00005200000000001239692300000000000016800000000000000000000000059672Z07920200324X066000000
2MAIL0000150686BR10        BRNC        BRNCCOCO    BRNCCOCO13AG00005300000000001240924900000000000005200000000000000000000000008454Z07920200324X066000000
2MAIL0000150686BR10        BRNC        BRNCCOCO    BRNCCOCO13AG00005400000000001242374800000000000000800000000000000000000000037788Z07920200324X066000000
2MAIL0000150686BR10        BRNC        BRNCCOCO    BRNCCOCO13AG00005500000000001242626100000000000016800000000000000000000000059672Z07920200324X066000000
1MAIL0000150687BR10        BRNC        BRNCCOCO    BRNCCOCO13AG2020032400:00:00OR  010000059862350005986235150687                             2020032420200324Z079CIF202003240000000000404635NN0                                                  0                                        
2MAIL0000150687BR10        BRNC        BRNCCOCO    BRNCCOCO13AG00000100000000001132030800000000000001200000000000000000000000038399Z07920200324X066000000
2MAIL0000150687BR10        BRNC        BRNCCOCO    BRNCCOCO13AG00000200000000001132030900000000000001200000000000000000000000039615Z07920200324X066000000
2MAIL0000150687BR10        BRNC        BRNCCOCO    BRNCCOCO13AG00000300000000001132035100000000000002000000000000000000000000048154Z07920200324X066000000
2MAIL0000150687BR10        BRNC        BRNCCOCO    BRNCCOCO13AG00000400000000001239688600000000000011200000000000000000000000039781Z07920200324X066000000
2MAIL0000150687BR10        BRNC        BRNCCOCO    BRNCCOCO13AG00000500000000001239692000000000000033600000000000000000000000119343Z07920200324X066000000
2MAIL0000150687BR10        BRNC        BRNCCOCO    BRNCCOCO13AG00000600000000001239692100000000000033600000000000000000000000119343Z07920200324X066000000
1MAIL0000150688BR10        BRNC        BRNCCOCO    BRNCCOCO13AG2020032400:00:00OR  010000049422970004942297150688                             2020032420200324Z016CIF202003240000000000015762NN0                                                  0                                        
2MAIL0000150688BR10        BRNC        BRNCCOCO    BRNCCOCO13AG00000100000000001231231200000000000000100000000000000000000000005076Z01620200324X066000000
2MAIL0000150688BR10        BRNC        BRNCCOCO    BRNCCOCO13AG00000200000000001239688800000000000001400000000000000000000000005343Z01620200324X066000000
2MAIL0000150688BR10        BRNC        BRNCCOCO    BRNCCOCO13AG00000300000000001239692100000000000001400000000000000000000000005343Z01620200324X066000000
1MAIL0000150689BR10        BRNC        BRNCCOCO    BRNCCOCO13AG2020032400:00:00OR  010000055082820005508282150689                             2020032420200324Z016CIF202003240000000000131433NN0                                                  0                                        
2MAIL0000150689BR10        BRNC        BRNCCOCO    BRNCCOCO13AG00000100000000001132018300000000000000200000000000000000000000007468Z01620200324X066000000
2MAIL0000150689BR10        BRNC        BRNCCOCO    BRNCCOCO13AG00000200000000001132019700000000000000200000000000000000000000004150Z01620200324X066000000
2MAIL0000150689BR10        BRNC        BRNCCOCO    BRNCCOCO13AG00000300000000001132019800000000000000200000000000000000000000004150Z01620200324X066000000
2MAIL0000150689BR10        BRNC        BRNCCOCO    BRNCCOCO13AG00000400000000001132020900000000000000200000000000000000000000004150Z01620200324X066000000
2MAIL0000150689BR10        BRNC        BRNCCOCO    BRNCCOCO13AG00000500000000001132033100000000000000300000000000000000000000006872Z01620200324X066000000
2MAIL0000150689BR10        BRNC        BRNCCOCO    BRNCCOCO13AG00000600000000001132036700000000000001000000000000000000000000022909Z01620200324X066000000
2MAIL0000150689BR10        BRNC        BRNCCOCO    BRNCCOCO13AG00000700000000001132200400000000000001000000000000000000000000022300Z01620200324X066000000
2MAIL0000150689BR10        BRNC        BRNCCOCO    BRNCCOCO13AG00000800000000001215533700000000000000300000000000000000000000006872Z01620200324X066000000
2MAIL0000150689BR10        BRNC        BRNCCOCO    BRNCCOCO13AG00000900000000001221415400000000000000200000000000000000000000007468Z01620200324X066000000
2MAIL0000150689BR10        BRNC        BRNCCOCO    BRNCCOCO13AG00001000000000001231231200000000000000100000000000000000000000005568Z01620200324X066000000
2MAIL0000150689BR10        BRNC        BRNCCOCO    BRNCCOCO13AG00001100000000001239688300000000000001400000000000000000000000005885Z01620200324X066000000
2MAIL0000150689BR10        BRNC        BRNCCOCO    BRNCCOCO13AG00001200000000001239688800000000000001400000000000000000000000005885Z01620200324X066000000
2MAIL0000150689BR10        BRNC        BRNCCOCO    BRNCCOCO13AG00001300000000001239692100000000000001400000000000000000000000005885Z01620200324X066000000
2MAIL0000150689BR10        BRNC        BRNCCOCO    BRNCCOCO13AG00001400000000001241577400000000000001500000000000000000000000014428Z01620200324X066000000
2MAIL0000150689BR10        BRNC        BRNCCOCO    BRNCCOCO13AG00001500000000001241623700000000000000300000000000000000000000007443Z01620200324X066000000
1MAIL0000150690BR10        BRNC        BRNCCOCO    BRNCCOCO13AG2020032400:00:00OR  010000029897740002989774150690                             2020032420200324Z016CIF202003240000000000010686NN0                                                  0                                        
2MAIL0000150690BR10        BRNC        BRNCCOCO    BRNCCOCO13AG00000100000000001239688800000000000001400000000000000000000000005343Z01620200324X066000000
2MAIL0000150690BR10        BRNC        BRNCCOCO    BRNCCOCO13AG00000200000000001239692100000000000001400000000000000000000000005343Z01620200324X066000000
