1MAIL0000152732BR10        BRNC        BRNCCOCO    BRNCCOCO13AG2020040900:00:00OR  010000028997620002899762152732                             2020040920200409Z016CIF202004090000000000028606NN0                                                  0                                        
2MAIL0000152732BR10        BRNC        BRNCCOCO    BRNCCOCO13AG00000100000000001132033100000000000000100000000000000000000000001654Z01620200409X066000000
2MAIL0000152732BR10        BRNC        BRNCCOCO    BRNCCOCO13AG00000200000000001132200400000000000000100000000000000000000000002115Z01620200409X066000000
2MAIL0000152732BR10        BRNC        BRNCCOCO    BRNCCOCO13AG00000300000000001215533700000000000000100000000000000000000000001654Z01620200409X066000000
2MAIL0000152732BR10        BRNC        BRNCCOCO    BRNCCOCO13AG00000400000000001227395500000000000000100000000000000000000000001654Z01620200409X066000000
2MAIL0000152732BR10        BRNC        BRNCCOCO    BRNCCOCO13AG00000500000000001235699400000000000002000000000000000000000000006704Z01620200409X066000000
2MAIL0000152732BR10        BRNC        BRNCCOCO    BRNCCOCO13AG00000600000000001236512900000000000000500000000000000000000000000956Z01620200409X066000000
2MAIL0000152732BR10        BRNC        BRNCCOCO    BRNCCOCO13AG00000700000000001236515000000000000000500000000000000000000000000956Z01620200409X066000000
2MAIL0000152732BR10        BRNC        BRNCCOCO    BRNCCOCO13AG00000800000000001241577400000000000000500000000000000000000000003792Z01620200409X066000000
2MAIL0000152732BR10        BRNC        BRNCCOCO    BRNCCOCO13AG00000900000000001242374800000000000000100000000000000000000000004437Z01620200409X066000000
2MAIL0000152732BR10        BRNC        BRNCCOCO    BRNCCOCO13AG00001000000000001242626100000000000001400000000000000000000000004684Z01620200409X066000000
