1MAIL0000151990BR10        BRNC        BRNCCOCO    BRNCCOCO13AG2020040200:00:00OR  010000056883180005688318151990                             2020040220200402Z016CIF202004020000000000057921NN0                                                  0                                        
2MAIL0000151990BR10        BRNC        BRNCCOCO    BRNCCOCO13AG00000100000000001132019700000000000000100000000000000000000000002076Z01620200402X066000000
2MAIL0000151990BR10        BRNC        BRNCCOCO    BRNCCOCO13AG00000200000000001132019800000000000000100000000000000000000000002076Z01620200402X066000000
2MAIL0000151990BR10        BRNC        BRNCCOCO    BRNCCOCO13AG00000300000000001132020900000000000000100000000000000000000000002076Z01620200402X066000000
2MAIL0000151990BR10        BRNC        BRNCCOCO    BRNCCOCO13AG00000400000000001227735000000000000000100000000000000000000000002076Z01620200402X066000000
2MAIL0000151990BR10        BRNC        BRNCCOCO    BRNCCOCO13AG00000500000000001235699800000000000002000000000000000000000000008422Z01620200402X066000000
2MAIL0000151990BR10        BRNC        BRNCCOCO    BRNCCOCO13AG00000600000000001239663300000000000002800000000000000000000000011770Z01620200402X066000000
2MAIL0000151990BR10        BRNC        BRNCCOCO    BRNCCOCO13AG00000700000000001239688300000000000002800000000000000000000000011770Z01620200402X066000000
2MAIL0000151990BR10        BRNC        BRNCCOCO    BRNCCOCO13AG00000800000000001239688500000000000002800000000000000000000000011770Z01620200402X066000000
2MAIL0000151990BR10        BRNC        BRNCCOCO    BRNCCOCO13AG00000900000000001239688600000000000001400000000000000000000000005885Z01620200402X066000000
1MAIL0000151991BR10        BRNC        BRNCCOCO    BRNCCOCO13AG2020040200:00:00OR  010000060056240006005624151991                             2020040220200402Z016CIF202004020000000000018449NN0                                                  0                                        
2MAIL0000151991BR10        BRNC        BRNCCOCO    BRNCCOCO13AG00000100000000001132020900000000000000100000000000000000000000001498Z01620200402X066000000
2MAIL0000151991BR10        BRNC        BRNCCOCO    BRNCCOCO13AG00000200000000001239688600000000000001400000000000000000000000004684Z01620200402X066000000
2MAIL0000151991BR10        BRNC        BRNCCOCO    BRNCCOCO13AG00000300000000001239692100000000000001400000000000000000000000004684Z01620200402X066000000
2MAIL0000151991BR10        BRNC        BRNCCOCO    BRNCCOCO13AG00000400000000001241577400000000000001000000000000000000000000007583Z01620200402X066000000
1MAIL0000151992BR10        BRNC        BRNCCOCO    BRNCCOCO13AG2020040200:00:00OR  010000028730690002873069151992                             2020040220200402Z016CIF202004020000000000060234NN0                                                  0                                        
2MAIL0000151992BR10        BRNC        BRNCCOCO    BRNCCOCO13AG00000100000000001132020900000000000000100000000000000000000000002076Z01620200402X066000000
2MAIL0000151992BR10        BRNC        BRNCCOCO    BRNCCOCO13AG00000200000000001132033100000000000000200000000000000000000000004581Z01620200402X066000000
2MAIL0000151992BR10        BRNC        BRNCCOCO    BRNCCOCO13AG00000300000000001132036700000000000000200000000000000000000000004581Z01620200402X066000000
2MAIL0000151992BR10        BRNC        BRNCCOCO    BRNCCOCO13AG00000400000000001226089600000000000002400000000000000000000000010087Z01620200402X066000000
2MAIL0000151992BR10        BRNC        BRNCCOCO    BRNCCOCO13AG00000500000000001227395500000000000000200000000000000000000000004581Z01620200402X066000000
2MAIL0000151992BR10        BRNC        BRNCCOCO    BRNCCOCO13AG00000600000000001235699400000000000002000000000000000000000000008422Z01620200402X066000000
2MAIL0000151992BR10        BRNC        BRNCCOCO    BRNCCOCO13AG00000700000000001235699700000000000002000000000000000000000000008422Z01620200402X066000000
2MAIL0000151992BR10        BRNC        BRNCCOCO    BRNCCOCO13AG00000800000000001235699800000000000002000000000000000000000000008422Z01620200402X066000000
2MAIL0000151992BR10        BRNC        BRNCCOCO    BRNCCOCO13AG00000900000000001236512800000000000001600000000000000000000000003050Z01620200402X066000000
2MAIL0000151992BR10        BRNC        BRNCCOCO    BRNCCOCO13AG00001000000000001236512900000000000001500000000000000000000000003006Z01620200402X066000000
2MAIL0000151992BR10        BRNC        BRNCCOCO    BRNCCOCO13AG00001100000000001236515000000000000001500000000000000000000000003006Z01620200402X066000000
1MAIL0000151993BR10        BRNC        BRNCCOCO    BRNCCOCO13AG2020040200:00:00OR  010000014006260001400626151993                             2020040220200402Z016CIF202004020000000000818465NN0                                                  0                                        
2MAIL0000151993BR10        BRNC        BRNCCOCO    BRNCCOCO13AG00000100000000001132004000000000000002000000000000000000000000020406Z01620200402X066000000
2MAIL0000151993BR10        BRNC        BRNCCOCO    BRNCCOCO13AG00000200000000001132004200000000000002000000000000000000000000028130Z01620200402X066000000
2MAIL0000151993BR10        BRNC        BRNCCOCO    BRNCCOCO13AG00000300000000001214470800000000000000500000000000000000000000022312Z01620200402X066000000
2MAIL0000151993BR10        BRNC        BRNCCOCO    BRNCCOCO13AG00000400000000001223975300000000000000600000000000000000000000030459Z01620200402X066000000
2MAIL0000151993BR10        BRNC        BRNCCOCO    BRNCCOCO13AG00000500000000001224882700000000000001200000000000000000000000037896Z01620200402X066000000
2MAIL0000151993BR10        BRNC        BRNCCOCO    BRNCCOCO13AG00000600000000001224882800000000000001200000000000000000000000037896Z01620200402X066000000
2MAIL0000151993BR10        BRNC        BRNCCOCO    BRNCCOCO13AG00000700000000001228274000000000000000400000000000000000000000020305Z01620200402X066000000
2MAIL0000151993BR10        BRNC        BRNCCOCO    BRNCCOCO13AG00000800000000001228512700000000000000400000000000000000000000020305Z01620200402X066000000
2MAIL0000151993BR10        BRNC        BRNCCOCO    BRNCCOCO13AG00000900000000001231189200000000000000600000000000000000000000030459Z01620200402X066000000
2MAIL0000151993BR10        BRNC        BRNCCOCO    BRNCCOCO13AG00001000000000001231231200000000000000600000000000000000000000030459Z01620200402X066000000
2MAIL0000151993BR10        BRNC        BRNCCOCO    BRNCCOCO13AG00001100000000001231233000000000000000600000000000000000000000030459Z01620200402X066000000
2MAIL0000151993BR10        BRNC        BRNCCOCO    BRNCCOCO13AG00001200000000001231417800000000000001200000000000000000000000037896Z01620200402X066000000
2MAIL0000151993BR10        BRNC        BRNCCOCO    BRNCCOCO13AG00001300000000001234705700000000000000400000000000000000000000020305Z01620200402X066000000
2MAIL0000151993BR10        BRNC        BRNCCOCO    BRNCCOCO13AG00001400000000001234705800000000000000400000000000000000000000020305Z01620200402X066000000
2MAIL0000151993BR10        BRNC        BRNCCOCO    BRNCCOCO13AG00001500000000001234705900000000000000400000000000000000000000020305Z01620200402X066000000
2MAIL0000151993BR10        BRNC        BRNCCOCO    BRNCCOCO13AG00001600000000001235699400000000000004000000000000000000000000015297Z01620200402X066000000
2MAIL0000151993BR10        BRNC        BRNCCOCO    BRNCCOCO13AG00001700000000001236512800000000000005200000000000000000000000008973Z01620200402X066000000
2MAIL0000151993BR10        BRNC        BRNCCOCO    BRNCCOCO13AG00001800000000001236512900000000000021000000000000000000000000038178Z01620200402X066000000
2MAIL0000151993BR10        BRNC        BRNCCOCO    BRNCCOCO13AG00001900000000001236515000000000000021000000000000000000000000038178Z01620200402X066000000
2MAIL0000151993BR10        BRNC        BRNCCOCO    BRNCCOCO13AG00002000000000001236898100000000000001200000000000000000000000037896Z01620200402X066000000
2MAIL0000151993BR10        BRNC        BRNCCOCO    BRNCCOCO13AG00002100000000001238083500000000000000300000000000000000000000015229Z01620200402X066000000
2MAIL0000151993BR10        BRNC        BRNCCOCO    BRNCCOCO13AG00002200000000001239373400000000000000400000000000000000000000025357Z01620200402X066000000
2MAIL0000151993BR10        BRNC        BRNCCOCO    BRNCCOCO13AG00002300000000001239373500000000000000300000000000000000000000019017Z01620200402X066000000
2MAIL0000151993BR10        BRNC        BRNCCOCO    BRNCCOCO13AG00002400000000001239373600000000000000300000000000000000000000019017Z01620200402X066000000
2MAIL0000151993BR10        BRNC        BRNCCOCO    BRNCCOCO13AG00002500000000001239373700000000000000300000000000000000000000019017Z01620200402X066000000
2MAIL0000151993BR10        BRNC        BRNCCOCO    BRNCCOCO13AG00002600000000001239688300000000000005600000000000000000000000021373Z01620200402X066000000
2MAIL0000151993BR10        BRNC        BRNCCOCO    BRNCCOCO13AG00002700000000001239688500000000000005600000000000000000000000021373Z01620200402X066000000
2MAIL0000151993BR10        BRNC        BRNCCOCO    BRNCCOCO13AG00002800000000001239688600000000000005600000000000000000000000021373Z01620200402X066000000
2MAIL0000151993BR10        BRNC        BRNCCOCO    BRNCCOCO13AG00002900000000001239688700000000000005600000000000000000000000021373Z01620200402X066000000
2MAIL0000151993BR10        BRNC        BRNCCOCO    BRNCCOCO13AG00003000000000001239692100000000000005600000000000000000000000021373Z01620200402X066000000
2MAIL0000151993BR10        BRNC        BRNCCOCO    BRNCCOCO13AG00003100000000001241623700000000000001000000000000000000000000025866Z01620200402X066000000
2MAIL0000151993BR10        BRNC        BRNCCOCO    BRNCCOCO13AG00003200000000001242374800000000000000400000000000000000000000020305Z01620200402X066000000
2MAIL0000151993BR10        BRNC        BRNCCOCO    BRNCCOCO13AG00003300000000001242765000000000000005600000000000000000000000021373Z01620200402X066000000
1MAIL0000151994BR10        BRNC        BRNCCOCO    BRNCCOCO13AG2020040200:00:00OR  010000029829810002982981151994                             2020040220200402Z016CIF202004020000000000026715NN0                                                  0                                        
2MAIL0000151994BR10        BRNC        BRNCCOCO    BRNCCOCO13AG00000100000000001239688300000000000001400000000000000000000000005343Z01620200402X066000000
2MAIL0000151994BR10        BRNC        BRNCCOCO    BRNCCOCO13AG00000200000000001239688600000000000001400000000000000000000000005343Z01620200402X066000000
2MAIL0000151994BR10        BRNC        BRNCCOCO    BRNCCOCO13AG00000300000000001239688700000000000001400000000000000000000000005343Z01620200402X066000000
2MAIL0000151994BR10        BRNC        BRNCCOCO    BRNCCOCO13AG00000400000000001239688800000000000001400000000000000000000000005343Z01620200402X066000000
2MAIL0000151994BR10        BRNC        BRNCCOCO    BRNCCOCO13AG00000500000000001239692100000000000001400000000000000000000000005343Z01620200402X066000000
1MAIL0000151995BR10        BRNC        BRNCCOCO    BRNCCOCO13AG2020040200:00:00OR  010000049658830004965883151995                             2020040220200402Z016CIF202004020000000000006519NN0                                                  0                                        
2MAIL0000151995BR10        BRNC        BRNCCOCO    BRNCCOCO13AG00000100000000001132033100000000000000100000000000000000000000002173Z01620200402X066000000
2MAIL0000151995BR10        BRNC        BRNCCOCO    BRNCCOCO13AG00000200000000001132036700000000000000100000000000000000000000002173Z01620200402X066000000
2MAIL0000151995BR10        BRNC        BRNCCOCO    BRNCCOCO13AG00000300000000001215533700000000000000100000000000000000000000002173Z01620200402X066000000
1MAIL0000151996BR10        BRNC        BRNCCOCO    BRNCCOCO13AG2020040200:00:00OR  010000053654930005365493151996                             2020040220200402Z016CIF202004020000000000035457NN0                                                  0                                        
2MAIL0000151996BR10        BRNC        BRNCCOCO    BRNCCOCO13AG00000100000000001132036700000000000000300000000000000000000000006872Z01620200402X066000000
2MAIL0000151996BR10        BRNC        BRNCCOCO    BRNCCOCO13AG00000200000000001226089600000000000001200000000000000000000000005045Z01620200402X066000000
2MAIL0000151996BR10        BRNC        BRNCCOCO    BRNCCOCO13AG00000300000000001239663300000000000001400000000000000000000000005885Z01620200402X066000000
2MAIL0000151996BR10        BRNC        BRNCCOCO    BRNCCOCO13AG00000400000000001239688600000000000001400000000000000000000000005885Z01620200402X066000000
2MAIL0000151996BR10        BRNC        BRNCCOCO    BRNCCOCO13AG00000500000000001239688800000000000002800000000000000000000000011770Z01620200402X066000000
1MAIL0000151997BR10        BRNC        BRNCCOCO    BRNCCOCO13AG2020040200:00:00OR  010000052276390005227639151997                             2020040220200402Z016CIF202004020000000000030086NN0                                                  0                                        
2MAIL0000151997BR10        BRNC        BRNCCOCO    BRNCCOCO13AG00000100000000001132018300000000000000100000000000000000000000003541Z01620200402X066000000
2MAIL0000151997BR10        BRNC        BRNCCOCO    BRNCCOCO13AG00000200000000001132019800000000000000100000000000000000000000001967Z01620200402X066000000
2MAIL0000151997BR10        BRNC        BRNCCOCO    BRNCCOCO13AG00000300000000001132033100000000000000100000000000000000000000002173Z01620200402X066000000
2MAIL0000151997BR10        BRNC        BRNCCOCO    BRNCCOCO13AG00000400000000001132036700000000000000100000000000000000000000002173Z01620200402X066000000
2MAIL0000151997BR10        BRNC        BRNCCOCO    BRNCCOCO13AG00000500000000001132200400000000000000100000000000000000000000002115Z01620200402X066000000
2MAIL0000151997BR10        BRNC        BRNCCOCO    BRNCCOCO13AG00000600000000001221415400000000000000100000000000000000000000003541Z01620200402X066000000
2MAIL0000151997BR10        BRNC        BRNCCOCO    BRNCCOCO13AG00000700000000001236512900000000000003000000000000000000000000005992Z01620200402X066000000
2MAIL0000151997BR10        BRNC        BRNCCOCO    BRNCCOCO13AG00000800000000001236515000000000000003000000000000000000000000005992Z01620200402X066000000
2MAIL0000151997BR10        BRNC        BRNCCOCO    BRNCCOCO13AG00000900000000001241623700000000000000100000000000000000000000002592Z01620200402X066000000
1MAIL0000151998BR10        BRNC        BRNCCOCO    BRNCCOCO13AG2020040200:00:00OR  010000010385180001038518151998                             2020040220200402Z016CIF202004020000000000100714NN0                                                  0                                        
2MAIL0000151998BR10        BRNC        BRNCCOCO    BRNCCOCO13AG00000100000000001132020900000000000000200000000000000000000000003850Z01620200402X066000000
2MAIL0000151998BR10        BRNC        BRNCCOCO    BRNCCOCO13AG00000200000000001132400100000000000000100000000000000000000000002937Z01620200402X066000000
2MAIL0000151998BR10        BRNC        BRNCCOCO    BRNCCOCO13AG00000300000000001234705800000000000000800000000000000000000000039720Z01620200402X066000000
2MAIL0000151998BR10        BRNC        BRNCCOCO    BRNCCOCO13AG00000400000000001239373400000000000000200000000000000000000000012399Z01620200402X066000000
2MAIL0000151998BR10        BRNC        BRNCCOCO    BRNCCOCO13AG00000500000000001239692100000000000011200000000000000000000000041808Z01620200402X066000000
1MAIL0000151999BR10        BRNC        BRNCCOCO    BRNCCOCO13AG2020040200:00:00OR  010000009426410000942641151999                             2020040220200402Z016CIF202004020000000000343970NN0                                                  0                                        
2MAIL0000151999BR10        BRNC        BRNCCOCO    BRNCCOCO13AG00000100000000001132004000000000000002000000000000000000000000019958Z01620200402X066000000
2MAIL0000151999BR10        BRNC        BRNCCOCO    BRNCCOCO13AG00000200000000001132004200000000000002000000000000000000000000028130Z01620200402X066000000
2MAIL0000151999BR10        BRNC        BRNCCOCO    BRNCCOCO13AG00000300000000001132400100000000000000200000000000000000000000005874Z01620200402X066000000
2MAIL0000151999BR10        BRNC        BRNCCOCO    BRNCCOCO13AG00000400000000001231189200000000000000800000000000000000000000039720Z01620200402X066000000
2MAIL0000151999BR10        BRNC        BRNCCOCO    BRNCCOCO13AG00000500000000001231231200000000000000800000000000000000000000039720Z01620200402X066000000
2MAIL0000151999BR10        BRNC        BRNCCOCO    BRNCCOCO13AG00000600000000001234705800000000000000800000000000000000000000039720Z01620200402X066000000
2MAIL0000151999BR10        BRNC        BRNCCOCO    BRNCCOCO13AG00000700000000001234705900000000000000800000000000000000000000039720Z01620200402X066000000
2MAIL0000151999BR10        BRNC        BRNCCOCO    BRNCCOCO13AG00000800000000001238083500000000000000800000000000000000000000039720Z01620200402X066000000
2MAIL0000151999BR10        BRNC        BRNCCOCO    BRNCCOCO13AG00000900000000001239373500000000000000800000000000000000000000049600Z01620200402X066000000
2MAIL0000151999BR10        BRNC        BRNCCOCO    BRNCCOCO13AG00001000000000001239692100000000000011200000000000000000000000041808Z01620200402X066000000
1MAIL0000152000BR10        BRNC        BRNCCOCO    BRNCCOCO13AG2020040200:00:00OR  010000041116540004111654152000                             2020040220200402Z016CIF202004020000000001805228NN0                                                  0                                        
2MAIL0000152000BR10        BRNC        BRNCCOCO    BRNCCOCO13AG00000100000000001132004000000000000002000000000000000000000000018971Z01620200402X066000000
2MAIL0000152000BR10        BRNC        BRNCCOCO    BRNCCOCO13AG00000200000000001132018300000000000000800000000000000000000000023687Z01620200402X066000000
2MAIL0000152000BR10        BRNC        BRNCCOCO    BRNCCOCO13AG00000300000000001132020900000000000000200000000000000000000000003361Z01620200402X066000000
2MAIL0000152000BR10        BRNC        BRNCCOCO    BRNCCOCO13AG00000400000000001132033100000000000003200000000000000000000000059033Z01620200402X066000000
2MAIL0000152000BR10        BRNC        BRNCCOCO    BRNCCOCO13AG00000500000000001132036700000000000016000000000000000000000000295163Z01620200402X066000000
2MAIL0000152000BR10        BRNC        BRNCCOCO    BRNCCOCO13AG00000600000000001132400100000000000001200000000000000000000000030772Z01620200402X066000000
2MAIL0000152000BR10        BRNC        BRNCCOCO    BRNCCOCO13AG00000700000000001215533700000000000006400000000000000000000000118066Z01620200402X066000000
2MAIL0000152000BR10        BRNC        BRNCCOCO    BRNCCOCO13AG00000800000000001221415400000000000000800000000000000000000000023687Z01620200402X066000000
2MAIL0000152000BR10        BRNC        BRNCCOCO    BRNCCOCO13AG00000900000000001223975300000000000000800000000000000000000000037698Z01620200402X066000000
2MAIL0000152000BR10        BRNC        BRNCCOCO    BRNCCOCO13AG00001000000000001226089600000000000048000000000000000000000000170153Z01620200402X066000000
2MAIL0000152000BR10        BRNC        BRNCCOCO    BRNCCOCO13AG00001100000000001227395500000000000003200000000000000000000000059033Z01620200402X066000000
2MAIL0000152000BR10        BRNC        BRNCCOCO    BRNCCOCO13AG00001200000000001228274000000000000000800000000000000000000000037698Z01620200402X066000000
2MAIL0000152000BR10        BRNC        BRNCCOCO    BRNCCOCO13AG00001300000000001228512700000000000000800000000000000000000000037698Z01620200402X066000000
2MAIL0000152000BR10        BRNC        BRNCCOCO    BRNCCOCO13AG00001400000000001231189200000000000000800000000000000000000000037698Z01620200402X066000000
2MAIL0000152000BR10        BRNC        BRNCCOCO    BRNCCOCO13AG00001500000000001231231200000000000000800000000000000000000000037698Z01620200402X066000000
2MAIL0000152000BR10        BRNC        BRNCCOCO    BRNCCOCO13AG00001600000000001234705800000000000000800000000000000000000000037698Z01620200402X066000000
2MAIL0000152000BR10        BRNC        BRNCCOCO    BRNCCOCO13AG00001700000000001235699400000000000012000000000000000000000000042623Z01620200402X066000000
2MAIL0000152000BR10        BRNC        BRNCCOCO    BRNCCOCO13AG00001800000000001239663300000000000028000000000000000000000000099256Z01620200402X066000000
2MAIL0000152000BR10        BRNC        BRNCCOCO    BRNCCOCO13AG00001900000000001239688500000000000005600000000000000000000000019851Z01620200402X066000000
2MAIL0000152000BR10        BRNC        BRNCCOCO    BRNCCOCO13AG00002000000000001239688600000000000016800000000000000000000000059553Z01620200402X066000000
2MAIL0000152000BR10        BRNC        BRNCCOCO    BRNCCOCO13AG00002100000000001239688700000000000016800000000000000000000000059553Z01620200402X066000000
2MAIL0000152000BR10        BRNC        BRNCCOCO    BRNCCOCO13AG00002200000000001239688800000000000028000000000000000000000000099256Z01620200402X066000000
2MAIL0000152000BR10        BRNC        BRNCCOCO    BRNCCOCO13AG00002300000000001239692000000000000011200000000000000000000000039702Z01620200402X066000000
2MAIL0000152000BR10        BRNC        BRNCCOCO    BRNCCOCO13AG00002400000000001239692100000000000056000000000000000000000000198511Z01620200402X066000000
2MAIL0000152000BR10        BRNC        BRNCCOCO    BRNCCOCO13AG00002500000000001239692300000000000028000000000000000000000000099256Z01620200402X066000000
2MAIL0000152000BR10        BRNC        BRNCCOCO    BRNCCOCO13AG00002600000000001242626100000000000011200000000000000000000000039702Z01620200402X066000000
2MAIL0000152000BR10        BRNC        BRNCCOCO    BRNCCOCO13AG00002700000000001242765000000000000005600000000000000000000000019851Z01620200402X066000000
1MAIL0000152001BR10        BRNC        BRNCCOCO    BRNCCOCO13AG2020040200:00:00OR  010000060821150006082115152001                             2020040220200402Z016CIF202004020000000000525261NN0                                                  0                                        
2MAIL0000152001BR10        BRNC        BRNCCOCO    BRNCCOCO13AG00000100000000001132004000000000000002000000000000000000000000018971Z01620200402X066000000
2MAIL0000152001BR10        BRNC        BRNCCOCO    BRNCCOCO13AG00000200000000001132004200000000000002000000000000000000000000026739Z01620200402X066000000
2MAIL0000152001BR10        BRNC        BRNCCOCO    BRNCCOCO13AG00000300000000001132400100000000000000200000000000000000000000005129Z01620200402X066000000
2MAIL0000152001BR10        BRNC        BRNCCOCO    BRNCCOCO13AG00000400000000001231189200000000000000800000000000000000000000037698Z01620200402X066000000
2MAIL0000152001BR10        BRNC        BRNCCOCO    BRNCCOCO13AG00000500000000001239688300000000000011200000000000000000000000039702Z01620200402X066000000
2MAIL0000152001BR10        BRNC        BRNCCOCO    BRNCCOCO13AG00000600000000001239688700000000000011200000000000000000000000039702Z01620200402X066000000
2MAIL0000152001BR10        BRNC        BRNCCOCO    BRNCCOCO13AG00000700000000001239688800000000000028000000000000000000000000099256Z01620200402X066000000
2MAIL0000152001BR10        BRNC        BRNCCOCO    BRNCCOCO13AG00000800000000001239692000000000000011200000000000000000000000039702Z01620200402X066000000
2MAIL0000152001BR10        BRNC        BRNCCOCO    BRNCCOCO13AG00000900000000001239692100000000000056000000000000000000000000198511Z01620200402X066000000
2MAIL0000152001BR10        BRNC        BRNCCOCO    BRNCCOCO13AG00001000000000001239692300000000000005600000000000000000000000019851Z01620200402X066000000
1MAIL0000152002BR10        BRNC        BRNCCOCO    BRNCCOCO13AG2020040200:00:00OR  010000061131900006113190152002                             2020040220200402Z016CIF202004020000000000143137NN0                                                  0                                        
2MAIL0000152002BR10        BRNC        BRNCCOCO    BRNCCOCO13AG00000100000000001132033100000000000000200000000000000000000000004345Z01620200402X066000000
2MAIL0000152002BR10        BRNC        BRNCCOCO    BRNCCOCO13AG00000200000000001132036700000000000000200000000000000000000000004345Z01620200402X066000000
2MAIL0000152002BR10        BRNC        BRNCCOCO    BRNCCOCO13AG00000300000000001132200400000000000000200000000000000000000000004230Z01620200402X066000000
2MAIL0000152002BR10        BRNC        BRNCCOCO    BRNCCOCO13AG00000400000000001236512800000000000005200000000000000000000000009882Z01620200402X066000000
2MAIL0000152002BR10        BRNC        BRNCCOCO    BRNCCOCO13AG00000500000000001236512900000000000014000000000000000000000000027964Z01620200402X066000000
2MAIL0000152002BR10        BRNC        BRNCCOCO    BRNCCOCO13AG00000600000000001236515000000000000014000000000000000000000000027964Z01620200402X066000000
2MAIL0000152002BR10        BRNC        BRNCCOCO    BRNCCOCO13AG00000700000000001239688600000000000002800000000000000000000000011162Z01620200402X066000000
2MAIL0000152002BR10        BRNC        BRNCCOCO    BRNCCOCO13AG00000800000000001239688800000000000002800000000000000000000000011162Z01620200402X066000000
2MAIL0000152002BR10        BRNC        BRNCCOCO    BRNCCOCO13AG00000900000000001240924900000000000005200000000000000000000000009532Z01620200402X066000000
2MAIL0000152002BR10        BRNC        BRNCCOCO    BRNCCOCO13AG00001000000000001241577400000000000003000000000000000000000000027367Z01620200402X066000000
2MAIL0000152002BR10        BRNC        BRNCCOCO    BRNCCOCO13AG00001100000000001241623700000000000000200000000000000000000000005184Z01620200402X066000000
1MAIL0000152003BR10        BRNC        BRNCCOCO    BRNCCOCO13AG2020040200:00:00OR  010000060267760006026776152003                             2020040220200402Z016CIF202004020000000000022748NN0                                                  0                                        
2MAIL0000152003BR10        BRNC        BRNCCOCO    BRNCCOCO13AG00000100000000001241577400000000000003000000000000000000000000022748Z01620200402X066000000
1MAIL0000152004BR10        BRNC        BRNCCOCO    BRNCCOCO13AG2020040200:00:00OR  010000052339030005233903152004                             2020040220200402Z016CIF202004020000000000103697NN0                                                  0                                        
2MAIL0000152004BR10        BRNC        BRNCCOCO    BRNCCOCO13AG00000100000000001132019700000000000000100000000000000000000000001967Z01620200402X066000000
2MAIL0000152004BR10        BRNC        BRNCCOCO    BRNCCOCO13AG00000200000000001132019800000000000000100000000000000000000000001967Z01620200402X066000000
2MAIL0000152004BR10        BRNC        BRNCCOCO    BRNCCOCO13AG00000300000000001132020900000000000000100000000000000000000000001967Z01620200402X066000000
2MAIL0000152004BR10        BRNC        BRNCCOCO    BRNCCOCO13AG00000400000000001132033100000000000000200000000000000000000000004345Z01620200402X066000000
2MAIL0000152004BR10        BRNC        BRNCCOCO    BRNCCOCO13AG00000500000000001132036700000000000000500000000000000000000000010863Z01620200402X066000000
2MAIL0000152004BR10        BRNC        BRNCCOCO    BRNCCOCO13AG00000600000000001215533700000000000000300000000000000000000000006518Z01620200402X066000000
2MAIL0000152004BR10        BRNC        BRNCCOCO    BRNCCOCO13AG00000700000000001223975300000000000000100000000000000000000000005076Z01620200402X066000000
2MAIL0000152004BR10        BRNC        BRNCCOCO    BRNCCOCO13AG00000800000000001224882700000000000000100000000000000000000000003159Z01620200402X066000000
2MAIL0000152004BR10        BRNC        BRNCCOCO    BRNCCOCO13AG00000900000000001224882800000000000000100000000000000000000000003159Z01620200402X066000000
2MAIL0000152004BR10        BRNC        BRNCCOCO    BRNCCOCO13AG00001000000000001227735000000000000000100000000000000000000000001967Z01620200402X066000000
2MAIL0000152004BR10        BRNC        BRNCCOCO    BRNCCOCO13AG00001100000000001231233000000000000000100000000000000000000000005076Z01620200402X066000000
2MAIL0000152004BR10        BRNC        BRNCCOCO    BRNCCOCO13AG00001200000000001235699400000000000001000000000000000000000000003825Z01620200402X066000000
2MAIL0000152004BR10        BRNC        BRNCCOCO    BRNCCOCO13AG00001300000000001235699700000000000001000000000000000000000000003825Z01620200402X066000000
2MAIL0000152004BR10        BRNC        BRNCCOCO    BRNCCOCO13AG00001400000000001235699800000000000001000000000000000000000000003825Z01620200402X066000000
2MAIL0000152004BR10        BRNC        BRNCCOCO    BRNCCOCO13AG00001500000000001239373400000000000000100000000000000000000000006340Z01620200402X066000000
2MAIL0000152004BR10        BRNC        BRNCCOCO    BRNCCOCO13AG00001600000000001239663300000000000001400000000000000000000000005343Z01620200402X066000000
2MAIL0000152004BR10        BRNC        BRNCCOCO    BRNCCOCO13AG00001700000000001239688300000000000001400000000000000000000000005343Z01620200402X066000000
2MAIL0000152004BR10        BRNC        BRNCCOCO    BRNCCOCO13AG00001800000000001239688700000000000001400000000000000000000000005343Z01620200402X066000000
2MAIL0000152004BR10        BRNC        BRNCCOCO    BRNCCOCO13AG00001900000000001239688800000000000001400000000000000000000000005343Z01620200402X066000000
2MAIL0000152004BR10        BRNC        BRNCCOCO    BRNCCOCO13AG00002000000000001239692000000000000001400000000000000000000000005343Z01620200402X066000000
2MAIL0000152004BR10        BRNC        BRNCCOCO    BRNCCOCO13AG00002100000000001239692100000000000001400000000000000000000000005343Z01620200402X066000000
2MAIL0000152004BR10        BRNC        BRNCCOCO    BRNCCOCO13AG00002200000000001241623700000000000000300000000000000000000000007760Z01620200402X066000000
1MAIL0000152005BR10        BRNC        BRNCCOCO    BRNCCOCO13AG2020040200:00:00OR  010000056381310005638131152005                             2020040220200402Z016CIF202004020000000000106654NN0                                                  0                                        
2MAIL0000152005BR10        BRNC        BRNCCOCO    BRNCCOCO13AG00000100000000001132019700000000000000100000000000000000000000001972Z01620200402X066000000
2MAIL0000152005BR10        BRNC        BRNCCOCO    BRNCCOCO13AG00000200000000001132019800000000000000200000000000000000000000003945Z01620200402X066000000
2MAIL0000152005BR10        BRNC        BRNCCOCO    BRNCCOCO13AG00000300000000001132020900000000000000100000000000000000000000001972Z01620200402X066000000
2MAIL0000152005BR10        BRNC        BRNCCOCO    BRNCCOCO13AG00000400000000001132033100000000000000200000000000000000000000004355Z01620200402X066000000
2MAIL0000152005BR10        BRNC        BRNCCOCO    BRNCCOCO13AG00000500000000001132036700000000000000200000000000000000000000004355Z01620200402X066000000
2MAIL0000152005BR10        BRNC        BRNCCOCO    BRNCCOCO13AG00000600000000001215533700000000000000200000000000000000000000004355Z01620200402X066000000
2MAIL0000152005BR10        BRNC        BRNCCOCO    BRNCCOCO13AG00000700000000001223975300000000000000100000000000000000000000005087Z01620200402X066000000
2MAIL0000152005BR10        BRNC        BRNCCOCO    BRNCCOCO13AG00000800000000001224882700000000000000200000000000000000000000006329Z01620200402X066000000
2MAIL0000152005BR10        BRNC        BRNCCOCO    BRNCCOCO13AG00000900000000001224882800000000000000100000000000000000000000003165Z01620200402X066000000
2MAIL0000152005BR10        BRNC        BRNCCOCO    BRNCCOCO13AG00001000000000001228512700000000000000100000000000000000000000005087Z01620200402X066000000
2MAIL0000152005BR10        BRNC        BRNCCOCO    BRNCCOCO13AG00001100000000001234705700000000000000100000000000000000000000005087Z01620200402X066000000
2MAIL0000152005BR10        BRNC        BRNCCOCO    BRNCCOCO13AG00001200000000001234705900000000000000100000000000000000000000005087Z01620200402X066000000
2MAIL0000152005BR10        BRNC        BRNCCOCO    BRNCCOCO13AG00001300000000001235699400000000000001000000000000000000000000003833Z01620200402X066000000
2MAIL0000152005BR10        BRNC        BRNCCOCO    BRNCCOCO13AG00001400000000001235699800000000000001000000000000000000000000003833Z01620200402X066000000
2MAIL0000152005BR10        BRNC        BRNCCOCO    BRNCCOCO13AG00001500000000001239663300000000000002800000000000000000000000010709Z01620200402X066000000
2MAIL0000152005BR10        BRNC        BRNCCOCO    BRNCCOCO13AG00001600000000001239688600000000000001400000000000000000000000005355Z01620200402X066000000
2MAIL0000152005BR10        BRNC        BRNCCOCO    BRNCCOCO13AG00001700000000001239688700000000000001400000000000000000000000005355Z01620200402X066000000
2MAIL0000152005BR10        BRNC        BRNCCOCO    BRNCCOCO13AG00001800000000001239688800000000000002800000000000000000000000010709Z01620200402X066000000
2MAIL0000152005BR10        BRNC        BRNCCOCO    BRNCCOCO13AG00001900000000001239692000000000000002800000000000000000000000010709Z01620200402X066000000
2MAIL0000152005BR10        BRNC        BRNCCOCO    BRNCCOCO13AG00002000000000001239692100000000000001400000000000000000000000005355Z01620200402X066000000
1MAIL0000152006BR10        BRNC        BRNCCOCO    BRNCCOCO13AG2020040200:00:00OR  010000036668520003666852152006                             2020040220200402Z016CIF202004020000000000113579NN0                                                  0                                        
2MAIL0000152006BR10        BRNC        BRNCCOCO    BRNCCOCO13AG00000100000000001132033100000000000000500000000000000000000000010625Z01620200402X066000000
2MAIL0000152006BR10        BRNC        BRNCCOCO    BRNCCOCO13AG00000200000000001132036700000000000000500000000000000000000000010625Z01620200402X066000000
2MAIL0000152006BR10        BRNC        BRNCCOCO    BRNCCOCO13AG00000300000000001132200400000000000000300000000000000000000000006345Z01620200402X066000000
2MAIL0000152006BR10        BRNC        BRNCCOCO    BRNCCOCO13AG00000400000000001215533700000000000000500000000000000000000000010625Z01620200402X066000000
2MAIL0000152006BR10        BRNC        BRNCCOCO    BRNCCOCO13AG00000500000000001227395500000000000000500000000000000000000000010625Z01620200402X066000000
2MAIL0000152006BR10        BRNC        BRNCCOCO    BRNCCOCO13AG00000600000000001231189200000000000000100000000000000000000000004965Z01620200402X066000000
2MAIL0000152006BR10        BRNC        BRNCCOCO    BRNCCOCO13AG00000700000000001231231200000000000000100000000000000000000000004965Z01620200402X066000000
2MAIL0000152006BR10        BRNC        BRNCCOCO    BRNCCOCO13AG00000800000000001231389600000000000000500000000000000000000000010625Z01620200402X066000000
2MAIL0000152006BR10        BRNC        BRNCCOCO    BRNCCOCO13AG00000900000000001236898000000000000000500000000000000000000000010625Z01620200402X066000000
2MAIL0000152006BR10        BRNC        BRNCCOCO    BRNCCOCO13AG00001000000000001239688800000000000002800000000000000000000000010452Z01620200402X066000000
2MAIL0000152006BR10        BRNC        BRNCCOCO    BRNCCOCO13AG00001100000000001239692100000000000001400000000000000000000000005226Z01620200402X066000000
2MAIL0000152006BR10        BRNC        BRNCCOCO    BRNCCOCO13AG00001200000000001239692300000000000001400000000000000000000000005226Z01620200402X066000000
2MAIL0000152006BR10        BRNC        BRNCCOCO    BRNCCOCO13AG00001300000000001241623700000000000000500000000000000000000000012650Z01620200402X066000000
1MAIL0000152007BR10        BRNC        BRNCCOCO    BRNCCOCO13AG2020040200:00:00OR  010000052344000005234400152007                             2020040220200402Z016CIF202004020000000000127159NN0                                                  0                                        
2MAIL0000152007BR10        BRNC        BRNCCOCO    BRNCCOCO13AG00000100000000001132019700000000000000200000000000000000000000003936Z01620200402X066000000
2MAIL0000152007BR10        BRNC        BRNCCOCO    BRNCCOCO13AG00000200000000001132019800000000000000200000000000000000000000003936Z01620200402X066000000
2MAIL0000152007BR10        BRNC        BRNCCOCO    BRNCCOCO13AG00000300000000001132019900000000000000100000000000000000000000001967Z01620200402X066000000
2MAIL0000152007BR10        BRNC        BRNCCOCO    BRNCCOCO13AG00000400000000001132020900000000000000100000000000000000000000001967Z01620200402X066000000
2MAIL0000152007BR10        BRNC        BRNCCOCO    BRNCCOCO13AG00000500000000001132033100000000000000500000000000000000000000010863Z01620200402X066000000
2MAIL0000152007BR10        BRNC        BRNCCOCO    BRNCCOCO13AG00000600000000001132036700000000000001000000000000000000000000021728Z01620200402X066000000
2MAIL0000152007BR10        BRNC        BRNCCOCO    BRNCCOCO13AG00000700000000001132200400000000000000500000000000000000000000010575Z01620200402X066000000
2MAIL0000152007BR10        BRNC        BRNCCOCO    BRNCCOCO13AG00000800000000001215533700000000000000600000000000000000000000013036Z01620200402X066000000
2MAIL0000152007BR10        BRNC        BRNCCOCO    BRNCCOCO13AG00000900000000001223975300000000000000100000000000000000000000005076Z01620200402X066000000
2MAIL0000152007BR10        BRNC        BRNCCOCO    BRNCCOCO13AG00001000000000001227735000000000000000100000000000000000000000001967Z01620200402X066000000
2MAIL0000152007BR10        BRNC        BRNCCOCO    BRNCCOCO13AG00001100000000001231231200000000000000100000000000000000000000005076Z01620200402X066000000
2MAIL0000152007BR10        BRNC        BRNCCOCO    BRNCCOCO13AG00001200000000001231233000000000000000100000000000000000000000005076Z01620200402X066000000
2MAIL0000152007BR10        BRNC        BRNCCOCO    BRNCCOCO13AG00001300000000001234705700000000000000100000000000000000000000005076Z01620200402X066000000
2MAIL0000152007BR10        BRNC        BRNCCOCO    BRNCCOCO13AG00001400000000001235699700000000000001000000000000000000000000003825Z01620200402X066000000
2MAIL0000152007BR10        BRNC        BRNCCOCO    BRNCCOCO13AG00001500000000001239373700000000000000100000000000000000000000006340Z01620200402X066000000
2MAIL0000152007BR10        BRNC        BRNCCOCO    BRNCCOCO13AG00001600000000001239663300000000000001400000000000000000000000005343Z01620200402X066000000
2MAIL0000152007BR10        BRNC        BRNCCOCO    BRNCCOCO13AG00001700000000001239688300000000000001400000000000000000000000005343Z01620200402X066000000
2MAIL0000152007BR10        BRNC        BRNCCOCO    BRNCCOCO13AG00001800000000001239688700000000000001400000000000000000000000005343Z01620200402X066000000
2MAIL0000152007BR10        BRNC        BRNCCOCO    BRNCCOCO13AG00001900000000001239688800000000000001400000000000000000000000005343Z01620200402X066000000
2MAIL0000152007BR10        BRNC        BRNCCOCO    BRNCCOCO13AG00002000000000001239692000000000000001400000000000000000000000005343Z01620200402X066000000
1MAIL0000152008BR10        BRNC        BRNCCOCO    BRNCCOCO13AG2020040200:00:00OR  010000052334070005233407152008                             2020040220200402Z016CIF202004020000000000055142NN0                                                  0                                        
2MAIL0000152008BR10        BRNC        BRNCCOCO    BRNCCOCO13AG00000100000000001132200400000000000000500000000000000000000000010575Z01620200402X066000000
2MAIL0000152008BR10        BRNC        BRNCCOCO    BRNCCOCO13AG00000200000000001223975300000000000000100000000000000000000000005076Z01620200402X066000000
2MAIL0000152008BR10        BRNC        BRNCCOCO    BRNCCOCO13AG00000300000000001224882700000000000000300000000000000000000000009474Z01620200402X066000000
2MAIL0000152008BR10        BRNC        BRNCCOCO    BRNCCOCO13AG00000400000000001235699400000000000002000000000000000000000000007648Z01620200402X066000000
2MAIL0000152008BR10        BRNC        BRNCCOCO    BRNCCOCO13AG00000500000000001239373500000000000000100000000000000000000000006340Z01620200402X066000000
2MAIL0000152008BR10        BRNC        BRNCCOCO    BRNCCOCO13AG00000600000000001239663300000000000001400000000000000000000000005343Z01620200402X066000000
2MAIL0000152008BR10        BRNC        BRNCCOCO    BRNCCOCO13AG00000700000000001239688700000000000001400000000000000000000000005343Z01620200402X066000000
2MAIL0000152008BR10        BRNC        BRNCCOCO    BRNCCOCO13AG00000800000000001239688800000000000001400000000000000000000000005343Z01620200402X066000000
1MAIL0000152009BR10        BRNC        BRNCCOCO    BRNCCOCO13AG2020040200:00:00OR  010000052334020005233402152009                             2020040220200402Z016CIF202004020000000000082420NN0                                                  0                                        
2MAIL0000152009BR10        BRNC        BRNCCOCO    BRNCCOCO13AG00000100000000001132033100000000000000100000000000000000000000002173Z01620200402X066000000
2MAIL0000152009BR10        BRNC        BRNCCOCO    BRNCCOCO13AG00000200000000001132036700000000000000200000000000000000000000004345Z01620200402X066000000
2MAIL0000152009BR10        BRNC        BRNCCOCO    BRNCCOCO13AG00000300000000001132200400000000000000200000000000000000000000004230Z01620200402X066000000
2MAIL0000152009BR10        BRNC        BRNCCOCO    BRNCCOCO13AG00000400000000001215533700000000000000100000000000000000000000002173Z01620200402X066000000
2MAIL0000152009BR10        BRNC        BRNCCOCO    BRNCCOCO13AG00000500000000001224882700000000000000100000000000000000000000003159Z01620200402X066000000
2MAIL0000152009BR10        BRNC        BRNCCOCO    BRNCCOCO13AG00000600000000001235699700000000000001000000000000000000000000003825Z01620200402X066000000
2MAIL0000152009BR10        BRNC        BRNCCOCO    BRNCCOCO13AG00000700000000001236512900000000000007000000000000000000000000012727Z01620200402X066000000
2MAIL0000152009BR10        BRNC        BRNCCOCO    BRNCCOCO13AG00000800000000001236515000000000000007000000000000000000000000012727Z01620200402X066000000
2MAIL0000152009BR10        BRNC        BRNCCOCO    BRNCCOCO13AG00000900000000001239663300000000000001400000000000000000000000005343Z01620200402X066000000
2MAIL0000152009BR10        BRNC        BRNCCOCO    BRNCCOCO13AG00001000000000001239688300000000000001400000000000000000000000005343Z01620200402X066000000
2MAIL0000152009BR10        BRNC        BRNCCOCO    BRNCCOCO13AG00001100000000001239688600000000000001400000000000000000000000005343Z01620200402X066000000
2MAIL0000152009BR10        BRNC        BRNCCOCO    BRNCCOCO13AG00001200000000001239688800000000000001400000000000000000000000005343Z01620200402X066000000
2MAIL0000152009BR10        BRNC        BRNCCOCO    BRNCCOCO13AG00001300000000001239692000000000000001400000000000000000000000005343Z01620200402X066000000
2MAIL0000152009BR10        BRNC        BRNCCOCO    BRNCCOCO13AG00001400000000001241623700000000000000400000000000000000000000010346Z01620200402X066000000
1MAIL0000152010BR10        BRNC        BRNCCOCO    BRNCCOCO13AG2020040200:00:00OR  010000052344030005234403152010                             2020040220200402Z016CIF202004020000000000131814NN0                                                  0                                        
2MAIL0000152010BR10        BRNC        BRNCCOCO    BRNCCOCO13AG00000100000000001132019700000000000000200000000000000000000000003936Z01620200402X066000000
2MAIL0000152010BR10        BRNC        BRNCCOCO    BRNCCOCO13AG00000200000000001132019800000000000000200000000000000000000000003936Z01620200402X066000000
2MAIL0000152010BR10        BRNC        BRNCCOCO    BRNCCOCO13AG00000300000000001132020900000000000000200000000000000000000000003936Z01620200402X066000000
2MAIL0000152010BR10        BRNC        BRNCCOCO    BRNCCOCO13AG00000400000000001132033100000000000000400000000000000000000000008692Z01620200402X066000000
2MAIL0000152010BR10        BRNC        BRNCCOCO    BRNCCOCO13AG00000500000000001132036700000000000000400000000000000000000000008692Z01620200402X066000000
2MAIL0000152010BR10        BRNC        BRNCCOCO    BRNCCOCO13AG00000600000000001132200400000000000000400000000000000000000000008460Z01620200402X066000000
2MAIL0000152010BR10        BRNC        BRNCCOCO    BRNCCOCO13AG00000700000000001215533700000000000000400000000000000000000000008692Z01620200402X066000000
2MAIL0000152010BR10        BRNC        BRNCCOCO    BRNCCOCO13AG00000800000000001227735000000000000000200000000000000000000000003936Z01620200402X066000000
2MAIL0000152010BR10        BRNC        BRNCCOCO    BRNCCOCO13AG00000900000000001228512700000000000000100000000000000000000000005076Z01620200402X066000000
2MAIL0000152010BR10        BRNC        BRNCCOCO    BRNCCOCO13AG00001000000000001231231200000000000000100000000000000000000000005076Z01620200402X066000000
2MAIL0000152010BR10        BRNC        BRNCCOCO    BRNCCOCO13AG00001100000000001231233000000000000000100000000000000000000000005076Z01620200402X066000000
2MAIL0000152010BR10        BRNC        BRNCCOCO    BRNCCOCO13AG00001200000000001234705700000000000000100000000000000000000000005076Z01620200402X066000000
2MAIL0000152010BR10        BRNC        BRNCCOCO    BRNCCOCO13AG00001300000000001234705800000000000000100000000000000000000000005076Z01620200402X066000000
2MAIL0000152010BR10        BRNC        BRNCCOCO    BRNCCOCO13AG00001400000000001238083500000000000000100000000000000000000000005076Z01620200402X066000000
2MAIL0000152010BR10        BRNC        BRNCCOCO    BRNCCOCO13AG00001500000000001239373400000000000000100000000000000000000000006340Z01620200402X066000000
2MAIL0000152010BR10        BRNC        BRNCCOCO    BRNCCOCO13AG00001600000000001239373500000000000000100000000000000000000000006340Z01620200402X066000000
2MAIL0000152010BR10        BRNC        BRNCCOCO    BRNCCOCO13AG00001700000000001239373600000000000000100000000000000000000000006340Z01620200402X066000000
2MAIL0000152010BR10        BRNC        BRNCCOCO    BRNCCOCO13AG00001800000000001239688300000000000001400000000000000000000000005343Z01620200402X066000000
2MAIL0000152010BR10        BRNC        BRNCCOCO    BRNCCOCO13AG00001900000000001239688600000000000001400000000000000000000000005343Z01620200402X066000000
2MAIL0000152010BR10        BRNC        BRNCCOCO    BRNCCOCO13AG00002000000000001239688700000000000001400000000000000000000000005343Z01620200402X066000000
2MAIL0000152010BR10        BRNC        BRNCCOCO    BRNCCOCO13AG00002100000000001239688800000000000002800000000000000000000000010686Z01620200402X066000000
2MAIL0000152010BR10        BRNC        BRNCCOCO    BRNCCOCO13AG00002200000000001239692100000000000001400000000000000000000000005343Z01620200402X066000000
1MAIL0000152011BR10        BRNC        BRNCCOCO    BRNCCOCO13AG2020040200:00:00OR  010000051614550005161455152011                             2020040220200402Z016CIF202004020000000000097313NN0                                                  0                                        
2MAIL0000152011BR10        BRNC        BRNCCOCO    BRNCCOCO13AG00000100000000001132004000000000000001000000000000000000000000009978Z01620200402X066000000
2MAIL0000152011BR10        BRNC        BRNCCOCO    BRNCCOCO13AG00000200000000001132004200000000000001000000000000000000000000014065Z01620200402X066000000
2MAIL0000152011BR10        BRNC        BRNCCOCO    BRNCCOCO13AG00000300000000001132036700000000000000200000000000000000000000004250Z01620200402X066000000
2MAIL0000152011BR10        BRNC        BRNCCOCO    BRNCCOCO13AG00000400000000001132400100000000000000200000000000000000000000005874Z01620200402X066000000
2MAIL0000152011BR10        BRNC        BRNCCOCO    BRNCCOCO13AG00000500000000001221415400000000000000200000000000000000000000006928Z01620200402X066000000
2MAIL0000152011BR10        BRNC        BRNCCOCO    BRNCCOCO13AG00000600000000001226089600000000000001200000000000000000000000004480Z01620200402X066000000
2MAIL0000152011BR10        BRNC        BRNCCOCO    BRNCCOCO13AG00000700000000001231189200000000000000100000000000000000000000004965Z01620200402X066000000
2MAIL0000152011BR10        BRNC        BRNCCOCO    BRNCCOCO13AG00000800000000001231231200000000000000100000000000000000000000004965Z01620200402X066000000
2MAIL0000152011BR10        BRNC        BRNCCOCO    BRNCCOCO13AG00000900000000001239688300000000000001400000000000000000000000005226Z01620200402X066000000
2MAIL0000152011BR10        BRNC        BRNCCOCO    BRNCCOCO13AG00001000000000001239688500000000000001400000000000000000000000005226Z01620200402X066000000
2MAIL0000152011BR10        BRNC        BRNCCOCO    BRNCCOCO13AG00001100000000001239688600000000000001400000000000000000000000005226Z01620200402X066000000
2MAIL0000152011BR10        BRNC        BRNCCOCO    BRNCCOCO13AG00001200000000001239688700000000000001400000000000000000000000005226Z01620200402X066000000
2MAIL0000152011BR10        BRNC        BRNCCOCO    BRNCCOCO13AG00001300000000001239688800000000000001400000000000000000000000005226Z01620200402X066000000
2MAIL0000152011BR10        BRNC        BRNCCOCO    BRNCCOCO13AG00001400000000001239692000000000000001400000000000000000000000005226Z01620200402X066000000
2MAIL0000152011BR10        BRNC        BRNCCOCO    BRNCCOCO13AG00001500000000001239692100000000000001400000000000000000000000005226Z01620200402X066000000
2MAIL0000152011BR10        BRNC        BRNCCOCO    BRNCCOCO13AG00001600000000001239692300000000000001400000000000000000000000005226Z01620200402X066000000
1MAIL0000152012BR10        BRNC        BRNCCOCO    BRNCCOCO13AG2020040200:00:00OR  010000028991580002899158152012                             2020040220200402Z016CIF202004020000000000058010NN0                                                  0                                        
2MAIL0000152012BR10        BRNC        BRNCCOCO    BRNCCOCO13AG00000100000000001226089600000000000001200000000000000000000000004580Z01620200402X066000000
2MAIL0000152012BR10        BRNC        BRNCCOCO    BRNCCOCO13AG00000200000000001239663300000000000001400000000000000000000000005343Z01620200402X066000000
2MAIL0000152012BR10        BRNC        BRNCCOCO    BRNCCOCO13AG00000300000000001239688300000000000001400000000000000000000000005343Z01620200402X066000000
2MAIL0000152012BR10        BRNC        BRNCCOCO    BRNCCOCO13AG00000400000000001239688500000000000002800000000000000000000000010686Z01620200402X066000000
2MAIL0000152012BR10        BRNC        BRNCCOCO    BRNCCOCO13AG00000500000000001239688600000000000001400000000000000000000000005343Z01620200402X066000000
2MAIL0000152012BR10        BRNC        BRNCCOCO    BRNCCOCO13AG00000600000000001239688700000000000001400000000000000000000000005343Z01620200402X066000000
2MAIL0000152012BR10        BRNC        BRNCCOCO    BRNCCOCO13AG00000700000000001239688800000000000001400000000000000000000000005343Z01620200402X066000000
2MAIL0000152012BR10        BRNC        BRNCCOCO    BRNCCOCO13AG00000800000000001239692100000000000001400000000000000000000000005343Z01620200402X066000000
2MAIL0000152012BR10        BRNC        BRNCCOCO    BRNCCOCO13AG00000900000000001242626100000000000001400000000000000000000000005343Z01620200402X066000000
2MAIL0000152012BR10        BRNC        BRNCCOCO    BRNCCOCO13AG00001000000000001242754900000000000001400000000000000000000000005343Z01620200402X066000000
1MAIL0000152013BR10        BRNC        BRNCCOCO    BRNCCOCO13AG2020040200:00:00OR  010000053549520005354952152013                             2020040220200402Z016CIF202004020000000000017541NN0                                                  0                                        
2MAIL0000152013BR10        BRNC        BRNCCOCO    BRNCCOCO13AG00000100000000001132200400000000000000200000000000000000000000004230Z01620200402X066000000
2MAIL0000152013BR10        BRNC        BRNCCOCO    BRNCCOCO13AG00000200000000001228512700000000000000100000000000000000000000004437Z01620200402X066000000
2MAIL0000152013BR10        BRNC        BRNCCOCO    BRNCCOCO13AG00000300000000001231233000000000000000100000000000000000000000004437Z01620200402X066000000
2MAIL0000152013BR10        BRNC        BRNCCOCO    BRNCCOCO13AG00000400000000001242374800000000000000100000000000000000000000004437Z01620200402X066000000
1MAIL0000152014BR10        BRNC        BRNCCOCO    BRNCCOCO13AG2020040200:00:00OR  010000029847240002984724152014                             2020040220200402Z016CIF202004020000000000046621NN0                                                  0                                        
2MAIL0000152014BR10        BRNC        BRNCCOCO    BRNCCOCO13AG00000100000000001132033100000000000000200000000000000000000000004581Z01620200402X066000000
2MAIL0000152014BR10        BRNC        BRNCCOCO    BRNCCOCO13AG00000200000000001132036700000000000000700000000000000000000000016035Z01620200402X066000000
2MAIL0000152014BR10        BRNC        BRNCCOCO    BRNCCOCO13AG00000300000000001132200400000000000000500000000000000000000000011150Z01620200402X066000000
2MAIL0000152014BR10        BRNC        BRNCCOCO    BRNCCOCO13AG00000400000000001236512900000000000001000000000000000000000000002004Z01620200402X066000000
2MAIL0000152014BR10        BRNC        BRNCCOCO    BRNCCOCO13AG00000500000000001236515000000000000001000000000000000000000000002004Z01620200402X066000000
2MAIL0000152014BR10        BRNC        BRNCCOCO    BRNCCOCO13AG00000600000000001239688800000000000001400000000000000000000000005885Z01620200402X066000000
2MAIL0000152014BR10        BRNC        BRNCCOCO    BRNCCOCO13AG00000700000000001241623700000000000000200000000000000000000000004962Z01620200402X066000000
