1MAIL0000150285BR10        BRNC        BRNCCOCO    BRNCCOCO13AG2020031900:00:00OR  010000029668740002966874150285                             2020031920200319Z016CIF202003190000000000019044NN0                                                  0                                        
2MAIL0000150285BR10        BRNC        BRNCCOCO    BRNCCOCO13AG00000100000000001132020900000000000000100000000000000000000000002076Z01620200319X066000000
2MAIL0000150285BR10        BRNC        BRNCCOCO    BRNCCOCO13AG00000200000000001132033100000000000000100000000000000000000000002291Z01620200319X066000000
2MAIL0000150285BR10        BRNC        BRNCCOCO    BRNCCOCO13AG00000300000000001132036700000000000000200000000000000000000000004581Z01620200319X066000000
2MAIL0000150285BR10        BRNC        BRNCCOCO    BRNCCOCO13AG00000400000000001235699800000000000001000000000000000000000000004211Z01620200319X066000000
2MAIL0000150285BR10        BRNC        BRNCCOCO    BRNCCOCO13AG00000500000000001239688800000000000001400000000000000000000000005885Z01620200319X066000000
1MAIL0000150286BR10        BRNC        BRNCCOCO    BRNCCOCO13AG2020031900:00:00OR  010000057205630005720563150286                             2020031920200319Z016CIF202003190000000000014428NN0                                                  0                                        
2MAIL0000150286BR10        BRNC        BRNCCOCO    BRNCCOCO13AG00000100000000001241577400000000000001500000000000000000000000014428Z01620200319X066000000
1MAIL0000150287BR10        BRNC        BRNCCOCO    BRNCCOCO13AG2020031900:00:00OR  010000056206000005620600150287                             2020031920200319Z016CIF202003190000000000060595NN0                                                  0                                        
2MAIL0000150287BR10        BRNC        BRNCCOCO    BRNCCOCO13AG00000100000000001132033100000000000000100000000000000000000000002291Z01620200319X066000000
2MAIL0000150287BR10        BRNC        BRNCCOCO    BRNCCOCO13AG00000200000000001132036700000000000000100000000000000000000000002291Z01620200319X066000000
2MAIL0000150287BR10        BRNC        BRNCCOCO    BRNCCOCO13AG00000300000000001132200400000000000000200000000000000000000000004460Z01620200319X066000000
2MAIL0000150287BR10        BRNC        BRNCCOCO    BRNCCOCO13AG00000400000000001226089600000000000001200000000000000000000000005045Z01620200319X066000000
2MAIL0000150287BR10        BRNC        BRNCCOCO    BRNCCOCO13AG00000500000000001239688300000000000001400000000000000000000000005885Z01620200319X066000000
2MAIL0000150287BR10        BRNC        BRNCCOCO    BRNCCOCO13AG00000600000000001239688800000000000001400000000000000000000000005885Z01620200319X066000000
2MAIL0000150287BR10        BRNC        BRNCCOCO    BRNCCOCO13AG00000700000000001239692000000000000001400000000000000000000000005885Z01620200319X066000000
2MAIL0000150287BR10        BRNC        BRNCCOCO    BRNCCOCO13AG00000800000000001241577400000000000003000000000000000000000000028853Z01620200319X066000000
1MAIL0000150288BR10        BRNC        BRNCCOCO    BRNCCOCO13AG2020031900:00:00OR  010000061441710006144171150288                             2020031920200319Z016CIF202003190000000000018631NN0                                                  0                                        
2MAIL0000150288BR10        BRNC        BRNCCOCO    BRNCCOCO13AG00000100000000001132018300000000000000100000000000000000000000003463Z01620200319X066000000
2MAIL0000150288BR10        BRNC        BRNCCOCO    BRNCCOCO13AG00000200000000001132036700000000000000200000000000000000000000004250Z01620200319X066000000
2MAIL0000150288BR10        BRNC        BRNCCOCO    BRNCCOCO13AG00000300000000001239688600000000000001400000000000000000000000005459Z01620200319X066000000
2MAIL0000150288BR10        BRNC        BRNCCOCO    BRNCCOCO13AG00000400000000001239688800000000000001400000000000000000000000005459Z01620200319X066000000
1MAIL0000150289BR10        BRNC        BRNCCOCO    BRNCCOCO13AG2020031900:00:00OR  010000055257820005525782150289                             2020031920200319Z016CIF202003190000000000010542NN0                                                  0                                        
2MAIL0000150289BR10        BRNC        BRNCCOCO    BRNCCOCO13AG00000100000000001132019800000000000000100000000000000000000000001967Z01620200319X066000000
2MAIL0000150289BR10        BRNC        BRNCCOCO    BRNCCOCO13AG00000200000000001132036700000000000000200000000000000000000000004345Z01620200319X066000000
2MAIL0000150289BR10        BRNC        BRNCCOCO    BRNCCOCO13AG00000300000000001132200400000000000000200000000000000000000000004230Z01620200319X066000000
1MAIL0000150290BR10        BRNC        BRNCCOCO    BRNCCOCO13AG2020031900:00:00OR  010000048108990004810899150290                             2020031920200319Z016CIF202003190000000000047530NN0                                                  0                                        
2MAIL0000150290BR10        BRNC        BRNCCOCO    BRNCCOCO13AG00000100000000001132019700000000000000100000000000000000000000002076Z01620200319X066000000
2MAIL0000150290BR10        BRNC        BRNCCOCO    BRNCCOCO13AG00000200000000001132019800000000000000100000000000000000000000002076Z01620200319X066000000
2MAIL0000150290BR10        BRNC        BRNCCOCO    BRNCCOCO13AG00000300000000001132019900000000000000100000000000000000000000002076Z01620200319X066000000
2MAIL0000150290BR10        BRNC        BRNCCOCO    BRNCCOCO13AG00000400000000001132020900000000000000100000000000000000000000002076Z01620200319X066000000
2MAIL0000150290BR10        BRNC        BRNCCOCO    BRNCCOCO13AG00000500000000001132033100000000000000300000000000000000000000006872Z01620200319X066000000
2MAIL0000150290BR10        BRNC        BRNCCOCO    BRNCCOCO13AG00000600000000001132036700000000000000500000000000000000000000011454Z01620200319X066000000
2MAIL0000150290BR10        BRNC        BRNCCOCO    BRNCCOCO13AG00000700000000001236512900000000000003500000000000000000000000007014Z01620200319X066000000
2MAIL0000150290BR10        BRNC        BRNCCOCO    BRNCCOCO13AG00000800000000001236515000000000000003500000000000000000000000007014Z01620200319X066000000
2MAIL0000150290BR10        BRNC        BRNCCOCO    BRNCCOCO13AG00000900000000001236898000000000000000300000000000000000000000006872Z01620200319X066000000
1MAIL0000150291BR10        BRNC        BRNCCOCO    BRNCCOCO13AG2020031900:00:00OR  010000048108990004810899150291                             2020031920200319Z016CIF202003190000000000058850NN0                                                  0                                        
2MAIL0000150291BR10        BRNC        BRNCCOCO    BRNCCOCO13AG00000100000000001239663300000000000001400000000000000000000000005885Z01620200319X066000000
2MAIL0000150291BR10        BRNC        BRNCCOCO    BRNCCOCO13AG00000200000000001239688300000000000001400000000000000000000000005885Z01620200319X066000000
2MAIL0000150291BR10        BRNC        BRNCCOCO    BRNCCOCO13AG00000300000000001239688500000000000001400000000000000000000000005885Z01620200319X066000000
2MAIL0000150291BR10        BRNC        BRNCCOCO    BRNCCOCO13AG00000400000000001239688600000000000001400000000000000000000000005885Z01620200319X066000000
2MAIL0000150291BR10        BRNC        BRNCCOCO    BRNCCOCO13AG00000500000000001239688800000000000001400000000000000000000000005885Z01620200319X066000000
2MAIL0000150291BR10        BRNC        BRNCCOCO    BRNCCOCO13AG00000600000000001239692000000000000001400000000000000000000000005885Z01620200319X066000000
2MAIL0000150291BR10        BRNC        BRNCCOCO    BRNCCOCO13AG00000700000000001239692100000000000001400000000000000000000000005885Z01620200319X066000000
2MAIL0000150291BR10        BRNC        BRNCCOCO    BRNCCOCO13AG00000800000000001239692300000000000001400000000000000000000000005885Z01620200319X066000000
2MAIL0000150291BR10        BRNC        BRNCCOCO    BRNCCOCO13AG00000900000000001242754900000000000001400000000000000000000000005885Z01620200319X066000000
2MAIL0000150291BR10        BRNC        BRNCCOCO    BRNCCOCO13AG00001000000000001242765000000000000001400000000000000000000000005885Z01620200319X066000000
