1MAIL0000152436BR10        BRNC        BRNCCOCO    BRNCCOCO13AG2020040700:00:00OR  010000049835390004983539152436                             2020040720200407Z016CIF202004070000000000030273NN0                                                  0                                        
2MAIL0000152436BR10        BRNC        BRNCCOCO    BRNCCOCO13AG00000100000000001132200400000000000001000000000000000000000000021151Z01620200407X066000000
2MAIL0000152436BR10        BRNC        BRNCCOCO    BRNCCOCO13AG00000200000000001241577400000000000001000000000000000000000000009122Z01620200407X066000000
1MAIL0000152437BR10        BRNC        BRNCCOCO    BRNCCOCO13AG2020040700:00:00OR  010000053549390005354939152437                             2020040720200407Z016CIF202004070000000000076464NN0                                                  0                                        
2MAIL0000152437BR10        BRNC        BRNCCOCO    BRNCCOCO13AG00000100000000001132020900000000000000100000000000000000000000001498Z01620200407X066000000
2MAIL0000152437BR10        BRNC        BRNCCOCO    BRNCCOCO13AG00000200000000001236512800000000000002000000000000000000000000003611Z01620200407X066000000
2MAIL0000152437BR10        BRNC        BRNCCOCO    BRNCCOCO13AG00000300000000001236512900000000000002000000000000000000000000003826Z01620200407X066000000
2MAIL0000152437BR10        BRNC        BRNCCOCO    BRNCCOCO13AG00000400000000001236515000000000000002000000000000000000000000003826Z01620200407X066000000
2MAIL0000152437BR10        BRNC        BRNCCOCO    BRNCCOCO13AG00000500000000001239663300000000000001400000000000000000000000004684Z01620200407X066000000
2MAIL0000152437BR10        BRNC        BRNCCOCO    BRNCCOCO13AG00000600000000001239688300000000000001400000000000000000000000004684Z01620200407X066000000
2MAIL0000152437BR10        BRNC        BRNCCOCO    BRNCCOCO13AG00000700000000001239688500000000000001400000000000000000000000004684Z01620200407X066000000
2MAIL0000152437BR10        BRNC        BRNCCOCO    BRNCCOCO13AG00000800000000001239688600000000000001400000000000000000000000004684Z01620200407X066000000
2MAIL0000152437BR10        BRNC        BRNCCOCO    BRNCCOCO13AG00000900000000001239688700000000000001400000000000000000000000004684Z01620200407X066000000
2MAIL0000152437BR10        BRNC        BRNCCOCO    BRNCCOCO13AG00001000000000001239688800000000000001400000000000000000000000004684Z01620200407X066000000
2MAIL0000152437BR10        BRNC        BRNCCOCO    BRNCCOCO13AG00001100000000001240924900000000000002000000000000000000000000003483Z01620200407X066000000
2MAIL0000152437BR10        BRNC        BRNCCOCO    BRNCCOCO13AG00001200000000001241577400000000000003000000000000000000000000022748Z01620200407X066000000
2MAIL0000152437BR10        BRNC        BRNCCOCO    BRNCCOCO13AG00001300000000001242626100000000000001400000000000000000000000004684Z01620200407X066000000
2MAIL0000152437BR10        BRNC        BRNCCOCO    BRNCCOCO13AG00001400000000001242765000000000000001400000000000000000000000004684Z01620200407X066000000
1MAIL0000152438BR10        BRNC        BRNCCOCO    BRNCCOCO13AG2020040700:00:00OR  010000029799370002979937152438                             2020040720200407Z016CIF202004070000000000011691NN0                                                  0                                        
2MAIL0000152438BR10        BRNC        BRNCCOCO    BRNCCOCO13AG00000100000000001132036700000000000000300000000000000000000000006518Z01620200407X066000000
2MAIL0000152438BR10        BRNC        BRNCCOCO    BRNCCOCO13AG00000200000000001241623700000000000000200000000000000000000000005173Z01620200407X066000000
1MAIL0000152439BR10        BRNC        BRNCCOCO    BRNCCOCO13AG2020040700:00:00OR  010000029799190002979919152439                             2020040720200407Z016CIF202004070000000000048239NN0                                                  0                                        
2MAIL0000152439BR10        BRNC        BRNCCOCO    BRNCCOCO13AG00000100000000001132018300000000000000200000000000000000000000007083Z01620200407X066000000
2MAIL0000152439BR10        BRNC        BRNCCOCO    BRNCCOCO13AG00000200000000001132036700000000000000500000000000000000000000010863Z01620200407X066000000
2MAIL0000152439BR10        BRNC        BRNCCOCO    BRNCCOCO13AG00000300000000001132400100000000000000200000000000000000000000006006Z01620200407X066000000
2MAIL0000152439BR10        BRNC        BRNCCOCO    BRNCCOCO13AG00000400000000001215533700000000000000300000000000000000000000006518Z01620200407X066000000
2MAIL0000152439BR10        BRNC        BRNCCOCO    BRNCCOCO13AG00000500000000001221415400000000000000200000000000000000000000007083Z01620200407X066000000
2MAIL0000152439BR10        BRNC        BRNCCOCO    BRNCCOCO13AG00000600000000001239688800000000000001400000000000000000000000005343Z01620200407X066000000
2MAIL0000152439BR10        BRNC        BRNCCOCO    BRNCCOCO13AG00000700000000001239692300000000000001400000000000000000000000005343Z01620200407X066000000
1MAIL0000152440BR10        BRNC        BRNCCOCO    BRNCCOCO13AG2020040700:00:00OR  010000034252560003425256152440                             2020040720200407Z016CIF202004070000000000128192NN0                                                  0                                        
2MAIL0000152440BR10        BRNC        BRNCCOCO    BRNCCOCO13AG00000100000000001132018300000000000000100000000000000000000000003735Z01620200407X066000000
2MAIL0000152440BR10        BRNC        BRNCCOCO    BRNCCOCO13AG00000200000000001132019700000000000000100000000000000000000000002076Z01620200407X066000000
2MAIL0000152440BR10        BRNC        BRNCCOCO    BRNCCOCO13AG00000300000000001132019800000000000000100000000000000000000000002076Z01620200407X066000000
2MAIL0000152440BR10        BRNC        BRNCCOCO    BRNCCOCO13AG00000400000000001132019900000000000000100000000000000000000000002076Z01620200407X066000000
2MAIL0000152440BR10        BRNC        BRNCCOCO    BRNCCOCO13AG00000500000000001132033100000000000000200000000000000000000000004581Z01620200407X066000000
2MAIL0000152440BR10        BRNC        BRNCCOCO    BRNCCOCO13AG00000600000000001132036700000000000000300000000000000000000000006872Z01620200407X066000000
2MAIL0000152440BR10        BRNC        BRNCCOCO    BRNCCOCO13AG00000700000000001132400100000000000000100000000000000000000000003165Z01620200407X066000000
2MAIL0000152440BR10        BRNC        BRNCCOCO    BRNCCOCO13AG00000800000000001215533700000000000000200000000000000000000000004581Z01620200407X066000000
2MAIL0000152440BR10        BRNC        BRNCCOCO    BRNCCOCO13AG00000900000000001221415400000000000000100000000000000000000000003735Z01620200407X066000000
2MAIL0000152440BR10        BRNC        BRNCCOCO    BRNCCOCO13AG00001000000000001223975300000000000000100000000000000000000000005568Z01620200407X066000000
2MAIL0000152440BR10        BRNC        BRNCCOCO    BRNCCOCO13AG00001100000000001226089600000000000001200000000000000000000000005045Z01620200407X066000000
2MAIL0000152440BR10        BRNC        BRNCCOCO    BRNCCOCO13AG00001200000000001228512700000000000000100000000000000000000000005568Z01620200407X066000000
2MAIL0000152440BR10        BRNC        BRNCCOCO    BRNCCOCO13AG00001300000000001231189200000000000000100000000000000000000000005568Z01620200407X066000000
2MAIL0000152440BR10        BRNC        BRNCCOCO    BRNCCOCO13AG00001400000000001231231200000000000000100000000000000000000000005568Z01620200407X066000000
2MAIL0000152440BR10        BRNC        BRNCCOCO    BRNCCOCO13AG00001500000000001231233000000000000000100000000000000000000000005568Z01620200407X066000000
2MAIL0000152440BR10        BRNC        BRNCCOCO    BRNCCOCO13AG00001600000000001234705700000000000000100000000000000000000000005568Z01620200407X066000000
2MAIL0000152440BR10        BRNC        BRNCCOCO    BRNCCOCO13AG00001700000000001234705900000000000000100000000000000000000000005568Z01620200407X066000000
2MAIL0000152440BR10        BRNC        BRNCCOCO    BRNCCOCO13AG00001800000000001235699400000000000001000000000000000000000000004211Z01620200407X066000000
2MAIL0000152440BR10        BRNC        BRNCCOCO    BRNCCOCO13AG00001900000000001235699800000000000001000000000000000000000000004211Z01620200407X066000000
2MAIL0000152440BR10        BRNC        BRNCCOCO    BRNCCOCO13AG00002000000000001236898000000000000000100000000000000000000000002291Z01620200407X066000000
2MAIL0000152440BR10        BRNC        BRNCCOCO    BRNCCOCO13AG00002100000000001238083500000000000000100000000000000000000000005568Z01620200407X066000000
2MAIL0000152440BR10        BRNC        BRNCCOCO    BRNCCOCO13AG00002200000000001239688500000000000001400000000000000000000000005885Z01620200407X066000000
2MAIL0000152440BR10        BRNC        BRNCCOCO    BRNCCOCO13AG00002300000000001239688600000000000001400000000000000000000000005885Z01620200407X066000000
2MAIL0000152440BR10        BRNC        BRNCCOCO    BRNCCOCO13AG00002400000000001239688800000000000001400000000000000000000000005885Z01620200407X066000000
2MAIL0000152440BR10        BRNC        BRNCCOCO    BRNCCOCO13AG00002500000000001239692100000000000001400000000000000000000000005885Z01620200407X066000000
2MAIL0000152440BR10        BRNC        BRNCCOCO    BRNCCOCO13AG00002600000000001239692300000000000001400000000000000000000000005885Z01620200407X066000000
2MAIL0000152440BR10        BRNC        BRNCCOCO    BRNCCOCO13AG00002700000000001242374800000000000000100000000000000000000000005568Z01620200407X066000000
1MAIL0000152441BR10        BRNC        BRNCCOCO    BRNCCOCO13AG2020040700:00:00OR  010000058123810005812381152441                             2020040720200407Z016CIF202004070000000000011011NN0                                                  0                                        
2MAIL0000152441BR10        BRNC        BRNCCOCO    BRNCCOCO13AG00000100000000001132019800000000000000100000000000000000000000001498Z01620200407X066000000
2MAIL0000152441BR10        BRNC        BRNCCOCO    BRNCCOCO13AG00000200000000001132020900000000000000100000000000000000000000001498Z01620200407X066000000
2MAIL0000152441BR10        BRNC        BRNCCOCO    BRNCCOCO13AG00000300000000001132033100000000000000100000000000000000000000001654Z01620200407X066000000
2MAIL0000152441BR10        BRNC        BRNCCOCO    BRNCCOCO13AG00000400000000001132036700000000000000100000000000000000000000001654Z01620200407X066000000
2MAIL0000152441BR10        BRNC        BRNCCOCO    BRNCCOCO13AG00000500000000001132200400000000000000100000000000000000000000002115Z01620200407X066000000
2MAIL0000152441BR10        BRNC        BRNCCOCO    BRNCCOCO13AG00000600000000001241623700000000000000100000000000000000000000002592Z01620200407X066000000
1MAIL0000152442BR10        BRNC        BRNCCOCO    BRNCCOCO13AG2020040700:00:00OR  010000058122820005812282152442                             2020040720200407Z016CIF202004070000000000011466NN0                                                  0                                        
2MAIL0000152442BR10        BRNC        BRNCCOCO    BRNCCOCO13AG00000100000000001234705700000000000000100000000000000000000000004437Z01620200407X066000000
2MAIL0000152442BR10        BRNC        BRNCCOCO    BRNCCOCO13AG00000200000000001234705800000000000000100000000000000000000000004437Z01620200407X066000000
2MAIL0000152442BR10        BRNC        BRNCCOCO    BRNCCOCO13AG00000300000000001241623700000000000000100000000000000000000000002592Z01620200407X066000000
1MAIL0000152443BR10        BRNC        BRNCCOCO    BRNCCOCO13AG2020040700:00:00OR  010000028538970002853897152443                             2020040720200407Z009CIF202004070000000000007174NN0                                                  0                                        
2MAIL0000152443BR10        BRNC        BRNCCOCO    BRNCCOCO13AG00000100000000001132200400000000000000100000000000000000000000002224Z00920200407X066000000
2MAIL0000152443BR10        BRNC        BRNCCOCO    BRNCCOCO13AG00000200000000001241623700000000000000200000000000000000000000004950Z00920200407X066000000
1MAIL0000152444BR10        BRNC        BRNCCOCO    BRNCCOCO13AG2020040700:00:00OR  010000055112060005511206152444                             2020040720200407Z016CIF202004070000000000039428NN0                                                  0                                        
2MAIL0000152444BR10        BRNC        BRNCCOCO    BRNCCOCO13AG00000100000000001132033100000000000000200000000000000000000000004581Z01620200407X066000000
2MAIL0000152444BR10        BRNC        BRNCCOCO    BRNCCOCO13AG00000200000000001132036700000000000000300000000000000000000000006872Z01620200407X066000000
2MAIL0000152444BR10        BRNC        BRNCCOCO    BRNCCOCO13AG00000300000000001132200400000000000000300000000000000000000000006690Z01620200407X066000000
2MAIL0000152444BR10        BRNC        BRNCCOCO    BRNCCOCO13AG00000400000000001215533700000000000000200000000000000000000000004581Z01620200407X066000000
2MAIL0000152444BR10        BRNC        BRNCCOCO    BRNCCOCO13AG00000500000000001228274000000000000000100000000000000000000000005568Z01620200407X066000000
2MAIL0000152444BR10        BRNC        BRNCCOCO    BRNCCOCO13AG00000600000000001231189200000000000000100000000000000000000000005568Z01620200407X066000000
2MAIL0000152444BR10        BRNC        BRNCCOCO    BRNCCOCO13AG00000700000000001231231200000000000000100000000000000000000000005568Z01620200407X066000000
1MAIL0000152445BR10        BRNC        BRNCCOCO    BRNCCOCO13AG2020040700:00:00OR  010000060449010006044901152445                             2020040720200407Z016CIF202004070000000000010467NN0                                                  0                                        
2MAIL0000152445BR10        BRNC        BRNCCOCO    BRNCCOCO13AG00000100000000001132033100000000000000100000000000000000000000002291Z01620200407X066000000
2MAIL0000152445BR10        BRNC        BRNCCOCO    BRNCCOCO13AG00000200000000001132036700000000000000100000000000000000000000002291Z01620200407X066000000
2MAIL0000152445BR10        BRNC        BRNCCOCO    BRNCCOCO13AG00000300000000001239688800000000000001400000000000000000000000005885Z01620200407X066000000
1MAIL0000152446BR10        BRNC        BRNCCOCO    BRNCCOCO13AG2020040700:00:00OR  010000057435000005743500152446                             2020040720200407Z016CIF202004070000000000006658NN0                                                  0                                        
2MAIL0000152446BR10        BRNC        BRNCCOCO    BRNCCOCO13AG00000100000000001132019800000000000000100000000000000000000000002076Z01620200407X066000000
2MAIL0000152446BR10        BRNC        BRNCCOCO    BRNCCOCO13AG00000200000000001132036700000000000000100000000000000000000000002291Z01620200407X066000000
2MAIL0000152446BR10        BRNC        BRNCCOCO    BRNCCOCO13AG00000300000000001215533700000000000000100000000000000000000000002291Z01620200407X066000000
1MAIL0000152447BR10        BRNC        BRNCCOCO    BRNCCOCO13AG2020040700:00:00OR  010000059993490005999349152447                             2020040720200407Z016CIF202004070000000000011848NN0                                                  0                                        
2MAIL0000152447BR10        BRNC        BRNCCOCO    BRNCCOCO13AG00000100000000001132036700000000000000100000000000000000000000002173Z01620200407X066000000
2MAIL0000152447BR10        BRNC        BRNCCOCO    BRNCCOCO13AG00000200000000001241577400000000000000500000000000000000000000004332Z01620200407X066000000
2MAIL0000152447BR10        BRNC        BRNCCOCO    BRNCCOCO13AG00000300000000001242626100000000000001400000000000000000000000005343Z01620200407X066000000
1MAIL0000152448BR10        BRNC        BRNCCOCO    BRNCCOCO13AG2020040700:00:00OR  010000061687940006168794152448                             2020040720200407Z016CIF202004070000000000009657NN0                                                  0                                        
2MAIL0000152448BR10        BRNC        BRNCCOCO    BRNCCOCO13AG00000100000000001132036700000000000000100000000000000000000000002125Z01620200407X066000000
2MAIL0000152448BR10        BRNC        BRNCCOCO    BRNCCOCO13AG00000200000000001132200400000000000000100000000000000000000000002115Z01620200407X066000000
2MAIL0000152448BR10        BRNC        BRNCCOCO    BRNCCOCO13AG00000300000000001221415400000000000000100000000000000000000000003463Z01620200407X066000000
2MAIL0000152448BR10        BRNC        BRNCCOCO    BRNCCOCO13AG00000400000000001236512900000000000000500000000000000000000000000977Z01620200407X066000000
2MAIL0000152448BR10        BRNC        BRNCCOCO    BRNCCOCO13AG00000500000000001236515000000000000000500000000000000000000000000977Z01620200407X066000000
1MAIL0000152449BR10        BRNC        BRNCCOCO    BRNCCOCO13AG2020040700:00:00OR  010000051352120005135212152449                             2020040720200407Z016CIF202004070000000000081401NN0                                                  0                                        
2MAIL0000152449BR10        BRNC        BRNCCOCO    BRNCCOCO13AG00000100000000001132033100000000000000200000000000000000000000004345Z01620200407X066000000
2MAIL0000152449BR10        BRNC        BRNCCOCO    BRNCCOCO13AG00000200000000001132036700000000000000600000000000000000000000013036Z01620200407X066000000
2MAIL0000152449BR10        BRNC        BRNCCOCO    BRNCCOCO13AG00000300000000001132200400000000000000500000000000000000000000010575Z01620200407X066000000
2MAIL0000152449BR10        BRNC        BRNCCOCO    BRNCCOCO13AG00000400000000001215533700000000000000100000000000000000000000002173Z01620200407X066000000
2MAIL0000152449BR10        BRNC        BRNCCOCO    BRNCCOCO13AG00000500000000001231231200000000000000100000000000000000000000005076Z01620200407X066000000
2MAIL0000152449BR10        BRNC        BRNCCOCO    BRNCCOCO13AG00000600000000001236512900000000000001000000000000000000000000001818Z01620200407X066000000
2MAIL0000152449BR10        BRNC        BRNCCOCO    BRNCCOCO13AG00000700000000001236515000000000000001000000000000000000000000001818Z01620200407X066000000
2MAIL0000152449BR10        BRNC        BRNCCOCO    BRNCCOCO13AG00000800000000001239688300000000000001400000000000000000000000005343Z01620200407X066000000
2MAIL0000152449BR10        BRNC        BRNCCOCO    BRNCCOCO13AG00000900000000001239688600000000000001400000000000000000000000005343Z01620200407X066000000
2MAIL0000152449BR10        BRNC        BRNCCOCO    BRNCCOCO13AG00001000000000001239688800000000000001400000000000000000000000005343Z01620200407X066000000
2MAIL0000152449BR10        BRNC        BRNCCOCO    BRNCCOCO13AG00001100000000001240924900000000000000400000000000000000000000000665Z01620200407X066000000
2MAIL0000152449BR10        BRNC        BRNCCOCO    BRNCCOCO13AG00001200000000001241623700000000000001000000000000000000000000025866Z01620200407X066000000
1MAIL0000152450BR10        BRNC        BRNCCOCO    BRNCCOCO13AG2020040700:00:00OR  010000056655580005665558152450                             2020040720200407Z016CIF202004070000000000009928NN0                                                  0                                        
2MAIL0000152450BR10        BRNC        BRNCCOCO    BRNCCOCO13AG00000100000000001132033100000000000000100000000000000000000000002173Z01620200407X066000000
2MAIL0000152450BR10        BRNC        BRNCCOCO    BRNCCOCO13AG00000200000000001132036700000000000000100000000000000000000000002173Z01620200407X066000000
2MAIL0000152450BR10        BRNC        BRNCCOCO    BRNCCOCO13AG00000300000000001239688800000000000001400000000000000000000000005582Z01620200407X066000000
1MAIL0000152451BR10        BRNC        BRNCCOCO    BRNCCOCO13AG2020040700:00:00OR  010000058815800005881580152451                             2020040720200407Z016CIF202004070000000000049428NN0                                                  0                                        
2MAIL0000152451BR10        BRNC        BRNCCOCO    BRNCCOCO13AG00000100000000001132036700000000000000500000000000000000000000011454Z01620200407X066000000
2MAIL0000152451BR10        BRNC        BRNCCOCO    BRNCCOCO13AG00000200000000001236512800000000000005200000000000000000000000009914Z01620200407X066000000
2MAIL0000152451BR10        BRNC        BRNCCOCO    BRNCCOCO13AG00000300000000001236512900000000000007000000000000000000000000014030Z01620200407X066000000
2MAIL0000152451BR10        BRNC        BRNCCOCO    BRNCCOCO13AG00000400000000001236515000000000000007000000000000000000000000014030Z01620200407X066000000
1MAIL0000152452BR10        BRNC        BRNCCOCO    BRNCCOCO13AG2020040700:00:00OR  010000030624740003062474152452                             2020040720200407Z016CIF202004070000000000102326NN0                                                  0                                        
2MAIL0000152452BR10        BRNC        BRNCCOCO    BRNCCOCO13AG00000100000000001132004000000000000000500000000000000000000000005102Z01620200407X066000000
2MAIL0000152452BR10        BRNC        BRNCCOCO    BRNCCOCO13AG00000200000000001132018300000000000000100000000000000000000000003541Z01620200407X066000000
2MAIL0000152452BR10        BRNC        BRNCCOCO    BRNCCOCO13AG00000300000000001132019800000000000000100000000000000000000000001967Z01620200407X066000000
2MAIL0000152452BR10        BRNC        BRNCCOCO    BRNCCOCO13AG00000400000000001132033100000000000000500000000000000000000000010863Z01620200407X066000000
2MAIL0000152452BR10        BRNC        BRNCCOCO    BRNCCOCO13AG00000500000000001132034900000000000000500000000000000000000000011074Z01620200407X066000000
2MAIL0000152452BR10        BRNC        BRNCCOCO    BRNCCOCO13AG00000600000000001132036700000000000000500000000000000000000000010863Z01620200407X066000000
2MAIL0000152452BR10        BRNC        BRNCCOCO    BRNCCOCO13AG00000700000000001132200400000000000000400000000000000000000000008460Z01620200407X066000000
2MAIL0000152452BR10        BRNC        BRNCCOCO    BRNCCOCO13AG00000800000000001215533700000000000000500000000000000000000000010863Z01620200407X066000000
2MAIL0000152452BR10        BRNC        BRNCCOCO    BRNCCOCO13AG00000900000000001221415400000000000000100000000000000000000000003541Z01620200407X066000000
2MAIL0000152452BR10        BRNC        BRNCCOCO    BRNCCOCO13AG00001000000000001231231200000000000000100000000000000000000000005076Z01620200407X066000000
2MAIL0000152452BR10        BRNC        BRNCCOCO    BRNCCOCO13AG00001100000000001231389600000000000000500000000000000000000000010863Z01620200407X066000000
2MAIL0000152452BR10        BRNC        BRNCCOCO    BRNCCOCO13AG00001200000000001236512800000000000000400000000000000000000000000690Z01620200407X066000000
2MAIL0000152452BR10        BRNC        BRNCCOCO    BRNCCOCO13AG00001300000000001236512900000000000000500000000000000000000000000909Z01620200407X066000000
2MAIL0000152452BR10        BRNC        BRNCCOCO    BRNCCOCO13AG00001400000000001236515000000000000000500000000000000000000000000909Z01620200407X066000000
2MAIL0000152452BR10        BRNC        BRNCCOCO    BRNCCOCO13AG00001500000000001239688800000000000001400000000000000000000000005343Z01620200407X066000000
2MAIL0000152452BR10        BRNC        BRNCCOCO    BRNCCOCO13AG00001600000000001239692100000000000001400000000000000000000000005343Z01620200407X066000000
2MAIL0000152452BR10        BRNC        BRNCCOCO    BRNCCOCO13AG00001700000000001241577400000000000000500000000000000000000000004332Z01620200407X066000000
2MAIL0000152452BR10        BRNC        BRNCCOCO    BRNCCOCO13AG00001800000000001241623700000000000000100000000000000000000000002587Z01620200407X066000000
1MAIL0000152453BR10        BRNC        BRNCCOCO    BRNCCOCO13AG2020040700:00:00OR  010000053191460005319146152453                             2020040720200407Z005CIF202004070000000000006272NN0                                                  0                                        
2MAIL0000152453BR10        BRNC        BRNCCOCO    BRNCCOCO13AG00000100000000001132019800000000000000100000000000000000000000001490Z00520200407X066000000
2MAIL0000152453BR10        BRNC        BRNCCOCO    BRNCCOCO13AG00000200000000001132019900000000000000100000000000000000000000001490Z00520200407X066000000
2MAIL0000152453BR10        BRNC        BRNCCOCO    BRNCCOCO13AG00000300000000001132036700000000000000100000000000000000000000001646Z00520200407X066000000
2MAIL0000152453BR10        BRNC        BRNCCOCO    BRNCCOCO13AG00000400000000001215533700000000000000100000000000000000000000001646Z00520200407X066000000
1MAIL0000152454BR10        BRNC        BRNCCOCO    BRNCCOCO13AG2020040700:00:00OR  010000029800330002980033152454                             2020040720200407Z016CIF202004070000000000021549NN0                                                  0                                        
2MAIL0000152454BR10        BRNC        BRNCCOCO    BRNCCOCO13AG00000100000000001132036700000000000000500000000000000000000000010863Z01620200407X066000000
2MAIL0000152454BR10        BRNC        BRNCCOCO    BRNCCOCO13AG00000200000000001239688800000000000001400000000000000000000000005343Z01620200407X066000000
2MAIL0000152454BR10        BRNC        BRNCCOCO    BRNCCOCO13AG00000300000000001239692000000000000001400000000000000000000000005343Z01620200407X066000000
