1MAIL0000152648BR10        BRNC        BRNCCOCO    BRNCCOCO13AG2020040800:00:00OR  010000060785680006078568152648                             2020040820200408Z016CIF202004080000000000254379NN0                                                  0                                        
2MAIL0000152648BR10        BRNC        BRNCCOCO    BRNCCOCO13AG00000100000000001132004000000000000002000000000000000000000000019958Z01620200408X066000000
2MAIL0000152648BR10        BRNC        BRNCCOCO    BRNCCOCO13AG00000200000000001132018300000000000000800000000000000000000000027708Z01620200408X066000000
2MAIL0000152648BR10        BRNC        BRNCCOCO    BRNCCOCO13AG00000300000000001234705800000000000000800000000000000000000000039720Z01620200408X066000000
2MAIL0000152648BR10        BRNC        BRNCCOCO    BRNCCOCO13AG00000400000000001234705900000000000000800000000000000000000000039720Z01620200408X066000000
2MAIL0000152648BR10        BRNC        BRNCCOCO    BRNCCOCO13AG00000500000000001235699400000000000004000000000000000000000000014961Z01620200408X066000000
2MAIL0000152648BR10        BRNC        BRNCCOCO    BRNCCOCO13AG00000600000000001239373400000000000000800000000000000000000000049600Z01620200408X066000000
2MAIL0000152648BR10        BRNC        BRNCCOCO    BRNCCOCO13AG00000700000000001239688500000000000005600000000000000000000000020904Z01620200408X066000000
2MAIL0000152648BR10        BRNC        BRNCCOCO    BRNCCOCO13AG00000800000000001239688700000000000005600000000000000000000000020904Z01620200408X066000000
2MAIL0000152648BR10        BRNC        BRNCCOCO    BRNCCOCO13AG00000900000000001239688800000000000005600000000000000000000000020904Z01620200408X066000000
