1MAIL0000152460BR10        BRNC        BRNCCOCO    BRNCCOCO13AG2020040700:00:00OR  010000058232940005823294152460                             2020040720200407Z016CIF202004070000000000018736NN0                                                  0                                        
2MAIL0000152460BR10        BRNC        BRNCCOCO    BRNCCOCO13AG00000100000000001239663300000000000001400000000000000000000000004684Z01620200407X066000000
2MAIL0000152460BR10        BRNC        BRNCCOCO    BRNCCOCO13AG00000200000000001239688300000000000001400000000000000000000000004684Z01620200407X066000000
2MAIL0000152460BR10        BRNC        BRNCCOCO    BRNCCOCO13AG00000300000000001239688800000000000001400000000000000000000000004684Z01620200407X066000000
2MAIL0000152460BR10        BRNC        BRNCCOCO    BRNCCOCO13AG00000400000000001239692100000000000001400000000000000000000000004684Z01620200407X066000000
1MAIL0000152461BR10        BRNC        BRNCCOCO    BRNCCOCO13AG2020040700:00:00OR  010000058232940005823294152461                             2020040720200407Z016CIF202004070000000000016283NN0                                                  0                                        
2MAIL0000152461BR10        BRNC        BRNCCOCO    BRNCCOCO13AG00000100000000001132018300000000000000100000000000000000000000002601Z01620200407X066003000
2MAIL0000152461BR10        BRNC        BRNCCOCO    BRNCCOCO13AG00000200000000001132019800000000000000100000000000000000000000001453Z01620200407X066003000
2MAIL0000152461BR10        BRNC        BRNCCOCO    BRNCCOCO13AG00000300000000001132033100000000000000100000000000000000000000001603Z01620200407X066003000
2MAIL0000152461BR10        BRNC        BRNCCOCO    BRNCCOCO13AG00000400000000001132036700000000000000100000000000000000000000001603Z01620200407X066003000
2MAIL0000152461BR10        BRNC        BRNCCOCO    BRNCCOCO13AG00000500000000001132200400000000000000100000000000000000000000002052Z01620200407X066003000
2MAIL0000152461BR10        BRNC        BRNCCOCO    BRNCCOCO13AG00000600000000001221415400000000000000100000000000000000000000002601Z01620200407X066003000
2MAIL0000152461BR10        BRNC        BRNCCOCO    BRNCCOCO13AG00000700000000001236512900000000000000500000000000000000000000000928Z01620200407X066003000
2MAIL0000152461BR10        BRNC        BRNCCOCO    BRNCCOCO13AG00000800000000001236515000000000000000500000000000000000000000000928Z01620200407X066003000
2MAIL0000152461BR10        BRNC        BRNCCOCO    BRNCCOCO13AG00000900000000001241623700000000000000100000000000000000000000002514Z01620200407X066003000
1MAIL0000152462BR10        BRNC        BRNCCOCO    BRNCCOCO13AG2020040700:00:00OR  010000029248800002924880152462                             2020040720200407Z016CIF202004070000000000005176NN0                                                  0                                        
2MAIL0000152462BR10        BRNC        BRNCCOCO    BRNCCOCO13AG00000100000000001132036700000000000000100000000000000000000000002173Z01620200407X066000000
2MAIL0000152462BR10        BRNC        BRNCCOCO    BRNCCOCO13AG00000200000000001132400100000000000000100000000000000000000000003003Z01620200407X066000000
1MAIL0000152463BR10        BRNC        BRNCCOCO    BRNCCOCO13AG2020040700:00:00OR  010000037068480003706848152463                             2020040720200407Z016CIF202004070000000000086713NN0                                                  0                                        
2MAIL0000152463BR10        BRNC        BRNCCOCO    BRNCCOCO13AG00000100000000001132019700000000000000100000000000000000000000001967Z01620200407X066000000
2MAIL0000152463BR10        BRNC        BRNCCOCO    BRNCCOCO13AG00000200000000001132019800000000000000100000000000000000000000001967Z01620200407X066000000
2MAIL0000152463BR10        BRNC        BRNCCOCO    BRNCCOCO13AG00000300000000001132019900000000000000100000000000000000000000001967Z01620200407X066000000
2MAIL0000152463BR10        BRNC        BRNCCOCO    BRNCCOCO13AG00000400000000001132033100000000000000200000000000000000000000004345Z01620200407X066000000
2MAIL0000152463BR10        BRNC        BRNCCOCO    BRNCCOCO13AG00000500000000001132036700000000000000200000000000000000000000004345Z01620200407X066000000
2MAIL0000152463BR10        BRNC        BRNCCOCO    BRNCCOCO13AG00000600000000001132400100000000000000100000000000000000000000003003Z01620200407X066000000
2MAIL0000152463BR10        BRNC        BRNCCOCO    BRNCCOCO13AG00000700000000001215533700000000000000200000000000000000000000004345Z01620200407X066000000
2MAIL0000152463BR10        BRNC        BRNCCOCO    BRNCCOCO13AG00000800000000001223975300000000000000100000000000000000000000005076Z01620200407X066000000
2MAIL0000152463BR10        BRNC        BRNCCOCO    BRNCCOCO13AG00000900000000001227735000000000000000100000000000000000000000001967Z01620200407X066000000
2MAIL0000152463BR10        BRNC        BRNCCOCO    BRNCCOCO13AG00001000000000001235699700000000000001000000000000000000000000003825Z01620200407X066000000
2MAIL0000152463BR10        BRNC        BRNCCOCO    BRNCCOCO13AG00001100000000001235699800000000000001000000000000000000000000003825Z01620200407X066000000
2MAIL0000152463BR10        BRNC        BRNCCOCO    BRNCCOCO13AG00001200000000001239373400000000000000100000000000000000000000006340Z01620200407X066000000
2MAIL0000152463BR10        BRNC        BRNCCOCO    BRNCCOCO13AG00001300000000001239373600000000000000100000000000000000000000006340Z01620200407X066000000
2MAIL0000152463BR10        BRNC        BRNCCOCO    BRNCCOCO13AG00001400000000001239663300000000000001400000000000000000000000005343Z01620200407X066000000
2MAIL0000152463BR10        BRNC        BRNCCOCO    BRNCCOCO13AG00001500000000001239688600000000000001400000000000000000000000005343Z01620200407X066000000
2MAIL0000152463BR10        BRNC        BRNCCOCO    BRNCCOCO13AG00001600000000001239688700000000000001400000000000000000000000005343Z01620200407X066000000
2MAIL0000152463BR10        BRNC        BRNCCOCO    BRNCCOCO13AG00001700000000001239688800000000000001400000000000000000000000005343Z01620200407X066000000
2MAIL0000152463BR10        BRNC        BRNCCOCO    BRNCCOCO13AG00001800000000001239692000000000000001400000000000000000000000005343Z01620200407X066000000
2MAIL0000152463BR10        BRNC        BRNCCOCO    BRNCCOCO13AG00001900000000001239692100000000000001400000000000000000000000005343Z01620200407X066000000
2MAIL0000152463BR10        BRNC        BRNCCOCO    BRNCCOCO13AG00002000000000001239692300000000000001400000000000000000000000005343Z01620200407X066000000
1MAIL0000152464BR10        BRNC        BRNCCOCO    BRNCCOCO13AG2020040700:00:00OR  010000038592130003859213152464                             2020040720200407Z016CIF202004070000000000027489NN0                                                  0                                        
2MAIL0000152464BR10        BRNC        BRNCCOCO    BRNCCOCO13AG00000100000000001132033100000000000000300000000000000000000000006872Z01620200407X066000000
2MAIL0000152464BR10        BRNC        BRNCCOCO    BRNCCOCO13AG00000200000000001132036700000000000000300000000000000000000000006872Z01620200407X066000000
2MAIL0000152464BR10        BRNC        BRNCCOCO    BRNCCOCO13AG00000300000000001215533700000000000000300000000000000000000000006872Z01620200407X066000000
2MAIL0000152464BR10        BRNC        BRNCCOCO    BRNCCOCO13AG00000400000000001227395500000000000000100000000000000000000000002291Z01620200407X066000000
2MAIL0000152464BR10        BRNC        BRNCCOCO    BRNCCOCO13AG00000500000000001231389600000000000000100000000000000000000000002291Z01620200407X066000000
2MAIL0000152464BR10        BRNC        BRNCCOCO    BRNCCOCO13AG00000600000000001236898000000000000000100000000000000000000000002291Z01620200407X066000000
1MAIL0000152469BR10        BRNC        BRNCCOCO    BRNCCOCO13AG2020040700:00:00OR  010000058944190005894419152469                             2020040720200407Z016CIF202004070000000000107029NN0                                                  0                                        
2MAIL0000152469BR10        BRNC        BRNCCOCO    BRNCCOCO13AG00000100000000001132033100000000000000600000000000000000000000013036Z01620200407X066000000
2MAIL0000152469BR10        BRNC        BRNCCOCO    BRNCCOCO13AG00000200000000001132036700000000000001000000000000000000000000021728Z01620200407X066000000
2MAIL0000152469BR10        BRNC        BRNCCOCO    BRNCCOCO13AG00000300000000001215533700000000000000600000000000000000000000013036Z01620200407X066000000
2MAIL0000152469BR10        BRNC        BRNCCOCO    BRNCCOCO13AG00000400000000001226089600000000000001200000000000000000000000004580Z01620200407X066000000
2MAIL0000152469BR10        BRNC        BRNCCOCO    BRNCCOCO13AG00000500000000001227395500000000000000200000000000000000000000004345Z01620200407X066000000
2MAIL0000152469BR10        BRNC        BRNCCOCO    BRNCCOCO13AG00000600000000001231389600000000000000200000000000000000000000004345Z01620200407X066000000
2MAIL0000152469BR10        BRNC        BRNCCOCO    BRNCCOCO13AG00000700000000001236512900000000000003500000000000000000000000006363Z01620200407X066000000
2MAIL0000152469BR10        BRNC        BRNCCOCO    BRNCCOCO13AG00000800000000001236515000000000000003500000000000000000000000006363Z01620200407X066000000
2MAIL0000152469BR10        BRNC        BRNCCOCO    BRNCCOCO13AG00000900000000001236898000000000000000300000000000000000000000006518Z01620200407X066000000
2MAIL0000152469BR10        BRNC        BRNCCOCO    BRNCCOCO13AG00001000000000001239688600000000000001400000000000000000000000005343Z01620200407X066000000
2MAIL0000152469BR10        BRNC        BRNCCOCO    BRNCCOCO13AG00001100000000001239688700000000000001400000000000000000000000005343Z01620200407X066000000
2MAIL0000152469BR10        BRNC        BRNCCOCO    BRNCCOCO13AG00001200000000001239688800000000000001400000000000000000000000005343Z01620200407X066000000
2MAIL0000152469BR10        BRNC        BRNCCOCO    BRNCCOCO13AG00001300000000001239692100000000000001400000000000000000000000005343Z01620200407X066000000
2MAIL0000152469BR10        BRNC        BRNCCOCO    BRNCCOCO13AG00001400000000001239692300000000000001400000000000000000000000005343Z01620200407X066000000
1MAIL0000152470BR10        BRNC        BRNCCOCO    BRNCCOCO13AG2020040700:00:00OR  010000029850660002985066152470                             2020040720200407Z016CIF202004070000000000006872NN0                                                  0                                        
2MAIL0000152470BR10        BRNC        BRNCCOCO    BRNCCOCO13AG00000100000000001132036700000000000000300000000000000000000000006872Z01620200407X066000000
1MAIL0000152471BR10        BRNC        BRNCCOCO    BRNCCOCO13AG2020040700:00:00OR  010000047783840004778384152471                             2020040720200407Z016CIF202004070000000000011392NN0                                                  0                                        
2MAIL0000152471BR10        BRNC        BRNCCOCO    BRNCCOCO13AG00000100000000001132033100000000000000200000000000000000000000004581Z01620200407X066000000
2MAIL0000152471BR10        BRNC        BRNCCOCO    BRNCCOCO13AG00000200000000001132036700000000000000200000000000000000000000004581Z01620200407X066000000
2MAIL0000152471BR10        BRNC        BRNCCOCO    BRNCCOCO13AG00000300000000001132200400000000000000100000000000000000000000002230Z01620200407X066000000
1MAIL0000152472BR10        BRNC        BRNCCOCO    BRNCCOCO13AG2020040700:00:00OR  010000033018280003301828152472                             2020040720200407Z016CIF202004070000000000010452NN0                                                  0                                        
2MAIL0000152472BR10        BRNC        BRNCCOCO    BRNCCOCO13AG00000100000000001239688600000000000001400000000000000000000000005226Z01620200407X066000000
2MAIL0000152472BR10        BRNC        BRNCCOCO    BRNCCOCO13AG00000200000000001239688800000000000001400000000000000000000000005226Z01620200407X066000000
