1MAIL0000152382BR10        BRNC        BRNCCOCO    BRNCCOCO13AG2020040700:00:00OR  010000029254930002925493152382                             2020040720200407Z016CIF202004070000000000107361NN0                                                  0                                        
2MAIL0000152382BR10        BRNC        BRNCCOCO    BRNCCOCO13AG00000100000000001226089600000000000001200000000000000000000000004580Z01620200407X066000000
2MAIL0000152382BR10        BRNC        BRNCCOCO    BRNCCOCO13AG00000200000000001231189200000000000000100000000000000000000000005076Z01620200407X066000000
2MAIL0000152382BR10        BRNC        BRNCCOCO    BRNCCOCO13AG00000300000000001231231200000000000000100000000000000000000000005076Z01620200407X066000000
2MAIL0000152382BR10        BRNC        BRNCCOCO    BRNCCOCO13AG00000400000000001235699400000000000001000000000000000000000000003825Z01620200407X066000000
2MAIL0000152382BR10        BRNC        BRNCCOCO    BRNCCOCO13AG00000500000000001235699800000000000001000000000000000000000000003825Z01620200407X066000000
2MAIL0000152382BR10        BRNC        BRNCCOCO    BRNCCOCO13AG00000600000000001239663300000000000002800000000000000000000000010686Z01620200407X066000000
2MAIL0000152382BR10        BRNC        BRNCCOCO    BRNCCOCO13AG00000700000000001239688300000000000002800000000000000000000000010686Z01620200407X066000000
2MAIL0000152382BR10        BRNC        BRNCCOCO    BRNCCOCO13AG00000800000000001239688500000000000002800000000000000000000000010686Z01620200407X066000000
2MAIL0000152382BR10        BRNC        BRNCCOCO    BRNCCOCO13AG00000900000000001239688600000000000002800000000000000000000000010686Z01620200407X066000000
2MAIL0000152382BR10        BRNC        BRNCCOCO    BRNCCOCO13AG00001000000000001239688700000000000001400000000000000000000000005343Z01620200407X066000000
2MAIL0000152382BR10        BRNC        BRNCCOCO    BRNCCOCO13AG00001100000000001239688800000000000002800000000000000000000000010686Z01620200407X066000000
2MAIL0000152382BR10        BRNC        BRNCCOCO    BRNCCOCO13AG00001200000000001239692300000000000001400000000000000000000000005343Z01620200407X066000000
2MAIL0000152382BR10        BRNC        BRNCCOCO    BRNCCOCO13AG00001300000000001241623700000000000000600000000000000000000000015520Z01620200407X066000000
2MAIL0000152382BR10        BRNC        BRNCCOCO    BRNCCOCO13AG00001400000000001242754900000000000001400000000000000000000000005343Z01620200407X066000000
1MAIL0000152383BR10        BRNC        BRNCCOCO    BRNCCOCO13AG2020040700:00:00OR  010000046408460004640846152383                             2020040720200407Z016CIF202004070000000000006464NN0                                                  0                                        
2MAIL0000152383BR10        BRNC        BRNCCOCO    BRNCCOCO13AG00000100000000001132200400000000000000200000000000000000000000004460Z01620200407X066000000
2MAIL0000152383BR10        BRNC        BRNCCOCO    BRNCCOCO13AG00000200000000001236512900000000000000500000000000000000000000001002Z01620200407X066000000
2MAIL0000152383BR10        BRNC        BRNCCOCO    BRNCCOCO13AG00000300000000001236515000000000000000500000000000000000000000001002Z01620200407X066000000
1MAIL0000152384BR10        BRNC        BRNCCOCO    BRNCCOCO13AG2020040700:00:00OR  010000029019260002901926152384                             2020040720200407Z016CIF202004070000000000040307NN0                                                  0                                        
2MAIL0000152384BR10        BRNC        BRNCCOCO    BRNCCOCO13AG00000100000000001132036700000000000000500000000000000000000000011454Z01620200407X066000000
2MAIL0000152384BR10        BRNC        BRNCCOCO    BRNCCOCO13AG00000200000000001241577400000000000003000000000000000000000000028853Z01620200407X066000000
1MAIL0000152385BR10        BRNC        BRNCCOCO    BRNCCOCO13AG2020040700:00:00OR  010000042419020004241902152385                             2020040720200407Z016CIF202004070000000000011150NN0                                                  0                                        
2MAIL0000152385BR10        BRNC        BRNCCOCO    BRNCCOCO13AG00000100000000001132200400000000000000500000000000000000000000011150Z01620200407X066000000
1MAIL0000152386BR10        BRNC        BRNCCOCO    BRNCCOCO13AG2020040700:00:00OR  010000052711710005271171152386                             2020040720200407Z009CIF202004070000000000006976NN0                                                  0                                        
2MAIL0000152386BR10        BRNC        BRNCCOCO    BRNCCOCO13AG00000100000000001236512800000000000000800000000000000000000000001520Z00920200407X066000000
2MAIL0000152386BR10        BRNC        BRNCCOCO    BRNCCOCO13AG00000200000000001236512900000000000001000000000000000000000000001996Z00920200407X066000000
2MAIL0000152386BR10        BRNC        BRNCCOCO    BRNCCOCO13AG00000300000000001236515000000000000001000000000000000000000000001996Z00920200407X066000000
2MAIL0000152386BR10        BRNC        BRNCCOCO    BRNCCOCO13AG00000400000000001240924900000000000000800000000000000000000000001464Z00920200407X066000000
1MAIL0000152387BR10        BRNC        BRNCCOCO    BRNCCOCO13AG2020040700:00:00OR  010000031802570003180257152387                             2020040720200407Z016CIF202004070000000000101587NN0                                                  0                                        
2MAIL0000152387BR10        BRNC        BRNCCOCO    BRNCCOCO13AG00000100000000001132033100000000000000800000000000000000000000017382Z01620200407X066000000
2MAIL0000152387BR10        BRNC        BRNCCOCO    BRNCCOCO13AG00000200000000001132036700000000000001600000000000000000000000034765Z01620200407X066000000
2MAIL0000152387BR10        BRNC        BRNCCOCO    BRNCCOCO13AG00000300000000001215533700000000000000800000000000000000000000017382Z01620200407X066000000
2MAIL0000152387BR10        BRNC        BRNCCOCO    BRNCCOCO13AG00000400000000001239688600000000000001400000000000000000000000005343Z01620200407X066000000
2MAIL0000152387BR10        BRNC        BRNCCOCO    BRNCCOCO13AG00000500000000001239688700000000000001400000000000000000000000005343Z01620200407X066000000
2MAIL0000152387BR10        BRNC        BRNCCOCO    BRNCCOCO13AG00000600000000001239688800000000000002800000000000000000000000010686Z01620200407X066000000
2MAIL0000152387BR10        BRNC        BRNCCOCO    BRNCCOCO13AG00000700000000001239692000000000000001400000000000000000000000005343Z01620200407X066000000
2MAIL0000152387BR10        BRNC        BRNCCOCO    BRNCCOCO13AG00000800000000001239692300000000000001400000000000000000000000005343Z01620200407X066000000
1MAIL0000152388BR10        BRNC        BRNCCOCO    BRNCCOCO13AG2020040700:00:00OR  010000058670400005867040152388                             2020040720200407Z016CIF202004070000000000037401NN0                                                  0                                        
2MAIL0000152388BR10        BRNC        BRNCCOCO    BRNCCOCO13AG00000100000000001239688600000000000001400000000000000000000000005343Z01620200407X066000000
2MAIL0000152388BR10        BRNC        BRNCCOCO    BRNCCOCO13AG00000200000000001239688700000000000001400000000000000000000000005343Z01620200407X066000000
2MAIL0000152388BR10        BRNC        BRNCCOCO    BRNCCOCO13AG00000300000000001239688800000000000002800000000000000000000000010686Z01620200407X066000000
2MAIL0000152388BR10        BRNC        BRNCCOCO    BRNCCOCO13AG00000400000000001239692000000000000001400000000000000000000000005343Z01620200407X066000000
2MAIL0000152388BR10        BRNC        BRNCCOCO    BRNCCOCO13AG00000500000000001239692100000000000001400000000000000000000000005343Z01620200407X066000000
2MAIL0000152388BR10        BRNC        BRNCCOCO    BRNCCOCO13AG00000600000000001239692300000000000001400000000000000000000000005343Z01620200407X066000000
1MAIL0000152389BR10        BRNC        BRNCCOCO    BRNCCOCO13AG2020040700:00:00OR  010000029806920002980692152389                             2020040720200407Z016CIF202004070000000000013620NN0                                                  0                                        
2MAIL0000152389BR10        BRNC        BRNCCOCO    BRNCCOCO13AG00000100000000001231189200000000000000100000000000000000000000005280Z01620200407X066000000
2MAIL0000152389BR10        BRNC        BRNCCOCO    BRNCCOCO13AG00000200000000001236512800000000000000400000000000000000000000000760Z01620200407X066000000
2MAIL0000152389BR10        BRNC        BRNCCOCO    BRNCCOCO13AG00000300000000001236512900000000000000500000000000000000000000000999Z01620200407X066000000
2MAIL0000152389BR10        BRNC        BRNCCOCO    BRNCCOCO13AG00000400000000001236515000000000000000500000000000000000000000000999Z01620200407X066000000
2MAIL0000152389BR10        BRNC        BRNCCOCO    BRNCCOCO13AG00000500000000001239688800000000000001400000000000000000000000005582Z01620200407X066000000
1MAIL0000152390BR10        BRNC        BRNCCOCO    BRNCCOCO13AG2020040700:00:00OR  010000013024970001302497152390                             2020040720200407Z016CIF202004070000000000262594NN0                                                  0                                        
2MAIL0000152390BR10        BRNC        BRNCCOCO    BRNCCOCO13AG00000100000000001132004000000000000002000000000000000000000000020406Z01620200407X066000000
2MAIL0000152390BR10        BRNC        BRNCCOCO    BRNCCOCO13AG00000200000000001132004200000000000002000000000000000000000000028130Z01620200407X066000000
2MAIL0000152390BR10        BRNC        BRNCCOCO    BRNCCOCO13AG00000300000000001132018300000000000000100000000000000000000000003541Z01620200407X066000000
2MAIL0000152390BR10        BRNC        BRNCCOCO    BRNCCOCO13AG00000400000000001132019700000000000000200000000000000000000000003936Z01620200407X066000000
2MAIL0000152390BR10        BRNC        BRNCCOCO    BRNCCOCO13AG00000500000000001132019800000000000000200000000000000000000000003936Z01620200407X066000000
2MAIL0000152390BR10        BRNC        BRNCCOCO    BRNCCOCO13AG00000600000000001132019900000000000000200000000000000000000000003936Z01620200407X066000000
2MAIL0000152390BR10        BRNC        BRNCCOCO    BRNCCOCO13AG00000700000000001132020900000000000000200000000000000000000000003936Z01620200407X066000000
2MAIL0000152390BR10        BRNC        BRNCCOCO    BRNCCOCO13AG00000800000000001132030900000000000000400000000000000000000000012829Z01620200407X066000000
2MAIL0000152390BR10        BRNC        BRNCCOCO    BRNCCOCO13AG00000900000000001132033100000000000000300000000000000000000000006518Z01620200407X066000000
2MAIL0000152390BR10        BRNC        BRNCCOCO    BRNCCOCO13AG00001000000000001132036700000000000000500000000000000000000000010863Z01620200407X066000000
2MAIL0000152390BR10        BRNC        BRNCCOCO    BRNCCOCO13AG00001100000000001132400100000000000000200000000000000000000000006006Z01620200407X066000000
2MAIL0000152390BR10        BRNC        BRNCCOCO    BRNCCOCO13AG00001200000000001215533700000000000000300000000000000000000000006518Z01620200407X066000000
2MAIL0000152390BR10        BRNC        BRNCCOCO    BRNCCOCO13AG00001300000000001221415400000000000000100000000000000000000000003541Z01620200407X066000000
2MAIL0000152390BR10        BRNC        BRNCCOCO    BRNCCOCO13AG00001400000000001223975300000000000000100000000000000000000000005076Z01620200407X066000000
2MAIL0000152390BR10        BRNC        BRNCCOCO    BRNCCOCO13AG00001500000000001227735000000000000000100000000000000000000000001967Z01620200407X066000000
2MAIL0000152390BR10        BRNC        BRNCCOCO    BRNCCOCO13AG00001600000000001228274000000000000000200000000000000000000000010153Z01620200407X066000000
2MAIL0000152390BR10        BRNC        BRNCCOCO    BRNCCOCO13AG00001700000000001228512700000000000000200000000000000000000000010153Z01620200407X066000000
2MAIL0000152390BR10        BRNC        BRNCCOCO    BRNCCOCO13AG00001800000000001231189200000000000000200000000000000000000000010153Z01620200407X066000000
2MAIL0000152390BR10        BRNC        BRNCCOCO    BRNCCOCO13AG00001900000000001231231200000000000000300000000000000000000000015229Z01620200407X066000000
2MAIL0000152390BR10        BRNC        BRNCCOCO    BRNCCOCO13AG00002000000000001231233000000000000000200000000000000000000000010153Z01620200407X066000000
2MAIL0000152390BR10        BRNC        BRNCCOCO    BRNCCOCO13AG00002100000000001234705700000000000000200000000000000000000000010153Z01620200407X066000000
2MAIL0000152390BR10        BRNC        BRNCCOCO    BRNCCOCO13AG00002200000000001234705800000000000000200000000000000000000000010153Z01620200407X066000000
2MAIL0000152390BR10        BRNC        BRNCCOCO    BRNCCOCO13AG00002300000000001234705900000000000000200000000000000000000000010153Z01620200407X066000000
2MAIL0000152390BR10        BRNC        BRNCCOCO    BRNCCOCO13AG00002400000000001236512900000000000007000000000000000000000000012727Z01620200407X066000000
2MAIL0000152390BR10        BRNC        BRNCCOCO    BRNCCOCO13AG00002500000000001236515000000000000007000000000000000000000000012727Z01620200407X066000000
2MAIL0000152390BR10        BRNC        BRNCCOCO    BRNCCOCO13AG00002600000000001236898000000000000000200000000000000000000000004345Z01620200407X066000000
2MAIL0000152390BR10        BRNC        BRNCCOCO    BRNCCOCO13AG00002700000000001239373400000000000000200000000000000000000000012678Z01620200407X066000000
2MAIL0000152390BR10        BRNC        BRNCCOCO    BRNCCOCO13AG00002800000000001239373500000000000000200000000000000000000000012678Z01620200407X066000000
1MAIL0000152391BR10        BRNC        BRNCCOCO    BRNCCOCO13AG2020040700:00:00OR  010000058232920005823292152391                             2020040720200407Z016CIF202004070000000000002173NN0                                                  0                                        
2MAIL0000152391BR10        BRNC        BRNCCOCO    BRNCCOCO13AG00000100000000001132036700000000000000100000000000000000000000002173Z01620200407X066000000
1MAIL0000152392BR10        BRNC        BRNCCOCO    BRNCCOCO13AG2020040700:00:00OR  010000043409370004340937152392                             2020040720200407Z016CIF202004070000000000005454NN0                                                  0                                        
2MAIL0000152392BR10        BRNC        BRNCCOCO    BRNCCOCO13AG00000100000000001236512900000000000001500000000000000000000000002727Z01620200407X066000000
2MAIL0000152392BR10        BRNC        BRNCCOCO    BRNCCOCO13AG00000200000000001236515000000000000001500000000000000000000000002727Z01620200407X066000000
1MAIL0000152393BR10        BRNC        BRNCCOCO    BRNCCOCO13AG2020040700:00:00OR  010000060441710006044171152393                             2020040720200407Z005CIF202004070000000000004559NN0                                                  0                                        
2MAIL0000152393BR10        BRNC        BRNCCOCO    BRNCCOCO13AG00000100000000001132036700000000000000200000000000000000000000004559Z00520200407X066000000
1MAIL0000152394BR10        BRNC        BRNCCOCO    BRNCCOCO13AG2020040700:00:00OR  010000052222500005222250152394                             2020040720200407Z016CIF202004070000000000057707NN0                                                  0                                        
2MAIL0000152394BR10        BRNC        BRNCCOCO    BRNCCOCO13AG00000100000000001241577400000000000006000000000000000000000000057707Z01620200407X066000000
1MAIL0000152395BR10        BRNC        BRNCCOCO    BRNCCOCO13AG2020040700:00:00OR  010000057262930005726293152395                             2020040720200407Z016CIF202004070000000000022909NN0                                                  0                                        
2MAIL0000152395BR10        BRNC        BRNCCOCO    BRNCCOCO13AG00000100000000001132036700000000000001000000000000000000000000022909Z01620200407X066000000
1MAIL0000152396BR10        BRNC        BRNCCOCO    BRNCCOCO13AG2020040700:00:00OR  010000058055230005805523152396                             2020040720200407Z016CIF202004070000000000051993NN0                                                  0                                        
2MAIL0000152396BR10        BRNC        BRNCCOCO    BRNCCOCO13AG00000100000000001241577400000000000006000000000000000000000000051993Z01620200407X066000000
1MAIL0000152397BR10        BRNC        BRNCCOCO    BRNCCOCO13AG2020040700:00:00OR  010000029308270002930827152397                             2020040720200407Z016CIF202004070000000000017028NN0                                                  0                                        
2MAIL0000152397BR10        BRNC        BRNCCOCO    BRNCCOCO13AG00000100000000001132019800000000000000100000000000000000000000002076Z01620200407X066000000
2MAIL0000152397BR10        BRNC        BRNCCOCO    BRNCCOCO13AG00000200000000001132036700000000000000100000000000000000000000002291Z01620200407X066000000
2MAIL0000152397BR10        BRNC        BRNCCOCO    BRNCCOCO13AG00000300000000001215533700000000000000100000000000000000000000002291Z01620200407X066000000
2MAIL0000152397BR10        BRNC        BRNCCOCO    BRNCCOCO13AG00000400000000001236512900000000000000500000000000000000000000001002Z01620200407X066000000
2MAIL0000152397BR10        BRNC        BRNCCOCO    BRNCCOCO13AG00000500000000001236515000000000000000500000000000000000000000001002Z01620200407X066000000
2MAIL0000152397BR10        BRNC        BRNCCOCO    BRNCCOCO13AG00000600000000001239688800000000000001400000000000000000000000005885Z01620200407X066000000
2MAIL0000152397BR10        BRNC        BRNCCOCO    BRNCCOCO13AG00000700000000001241623700000000000000100000000000000000000000002481Z01620200407X066000000
1MAIL0000152398BR10        BRNC        BRNCCOCO    BRNCCOCO13AG2020040700:00:00OR  010000058776710005877671152398                             2020040720200407Z016CIF202004070000000000005884NN0                                                  0                                        
2MAIL0000152398BR10        BRNC        BRNCCOCO    BRNCCOCO13AG00000100000000001132036700000000000000100000000000000000000000001654Z01620200407X066000000
2MAIL0000152398BR10        BRNC        BRNCCOCO    BRNCCOCO13AG00000200000000001132200400000000000000200000000000000000000000004230Z01620200407X066000000
1MAIL0000152399BR10        BRNC        BRNCCOCO    BRNCCOCO13AG2020040700:00:00OR  010000040515190004051519152399                             2020040720200407Z016CIF202004070000000000010445NN0                                                  0                                        
2MAIL0000152399BR10        BRNC        BRNCCOCO    BRNCCOCO13AG00000100000000001132036700000000000000100000000000000000000000002178Z01620200407X066000000
2MAIL0000152399BR10        BRNC        BRNCCOCO    BRNCCOCO13AG00000200000000001236512900000000000000500000000000000000000000001049Z01620200407X066000000
2MAIL0000152399BR10        BRNC        BRNCCOCO    BRNCCOCO13AG00000300000000001236515000000000000000500000000000000000000000001049Z01620200407X066000000
2MAIL0000152399BR10        BRNC        BRNCCOCO    BRNCCOCO13AG00000400000000001239692300000000000001400000000000000000000000006169Z01620200407X066000000
1MAIL0000152400BR10        BRNC        BRNCCOCO    BRNCCOCO13AG2020040700:00:00OR  010000028704100002870410152400                             2020040720200407Z016CIF202004070000000000003991NN0                                                  0                                        
2MAIL0000152400BR10        BRNC        BRNCCOCO    BRNCCOCO13AG00000100000000001132036700000000000000100000000000000000000000002173Z01620200407X066000000
2MAIL0000152400BR10        BRNC        BRNCCOCO    BRNCCOCO13AG00000200000000001236512900000000000000500000000000000000000000000909Z01620200407X066000000
2MAIL0000152400BR10        BRNC        BRNCCOCO    BRNCCOCO13AG00000300000000001236515000000000000000500000000000000000000000000909Z01620200407X066000000
1MAIL0000152401BR10        BRNC        BRNCCOCO    BRNCCOCO13AG2020040700:00:00OR  010000052269410005226941152401                             2020040720200407Z016CIF202004070000000000002291NN0                                                  0                                        
2MAIL0000152401BR10        BRNC        BRNCCOCO    BRNCCOCO13AG00000100000000001132033100000000000000100000000000000000000000002291Z01620200407X066000000
1MAIL0000152402BR10        BRNC        BRNCCOCO    BRNCCOCO13AG2020040700:00:00OR  010000059628380005962838152402                             2020040720200407Z016CIF202004070000000000013720NN0                                                  0                                        
2MAIL0000152402BR10        BRNC        BRNCCOCO    BRNCCOCO13AG00000100000000001132019800000000000000100000000000000000000000002076Z01620200407X066000000
2MAIL0000152402BR10        BRNC        BRNCCOCO    BRNCCOCO13AG00000200000000001132033100000000000000100000000000000000000000002291Z01620200407X066000000
2MAIL0000152402BR10        BRNC        BRNCCOCO    BRNCCOCO13AG00000300000000001132036700000000000000200000000000000000000000004581Z01620200407X066000000
2MAIL0000152402BR10        BRNC        BRNCCOCO    BRNCCOCO13AG00000400000000001231389600000000000000100000000000000000000000002291Z01620200407X066000000
2MAIL0000152402BR10        BRNC        BRNCCOCO    BRNCCOCO13AG00000500000000001241623700000000000000100000000000000000000000002481Z01620200407X066000000
1MAIL0000152403BR10        BRNC        BRNCCOCO    BRNCCOCO13AG2020040700:00:00OR  010000059950190005995019152403                             2020040720200407Z016CIF202004070000000000008302NN0                                                  0                                        
2MAIL0000152403BR10        BRNC        BRNCCOCO    BRNCCOCO13AG00000100000000001132019800000000000000100000000000000000000000001973Z01620200407X066000000
2MAIL0000152403BR10        BRNC        BRNCCOCO    BRNCCOCO13AG00000200000000001132020900000000000000100000000000000000000000001973Z01620200407X066000000
2MAIL0000152403BR10        BRNC        BRNCCOCO    BRNCCOCO13AG00000300000000001132033100000000000000100000000000000000000000002178Z01620200407X066000000
2MAIL0000152403BR10        BRNC        BRNCCOCO    BRNCCOCO13AG00000400000000001132036700000000000000100000000000000000000000002178Z01620200407X066000000
1MAIL0000152404BR10        BRNC        BRNCCOCO    BRNCCOCO13AG2020040700:00:00OR  010000049380870004938087152404                             2020040720200407Z016CIF202004070000000000005584NN0                                                  0                                        
2MAIL0000152404BR10        BRNC        BRNCCOCO    BRNCCOCO13AG00000100000000001132033100000000000000100000000000000000000000002291Z01620200407X066000000
2MAIL0000152404BR10        BRNC        BRNCCOCO    BRNCCOCO13AG00000200000000001132036700000000000000100000000000000000000000002291Z01620200407X066000000
2MAIL0000152404BR10        BRNC        BRNCCOCO    BRNCCOCO13AG00000300000000001236515000000000000000500000000000000000000000001002Z01620200407X066000000
