1MAIL0000153603BR10        BRNC        BRNCCOCO    BRNCCOCO13AG2020041600:00:00OR  010000053731180005373118153603                             2020041620200416Z016CIF202004160000000000089584NN0                                                  0                                        
2MAIL0000153603BR10        BRNC        BRNCCOCO    BRNCCOCO13AG00000100000000001132004000000000000000500000000000000000000000004990Z01620200416X066000000
2MAIL0000153603BR10        BRNC        BRNCCOCO    BRNCCOCO13AG00000200000000001132033100000000000000600000000000000000000000012750Z01620200416X066000000
2MAIL0000153603BR10        BRNC        BRNCCOCO    BRNCCOCO13AG00000300000000001132036700000000000000600000000000000000000000012750Z01620200416X066000000
2MAIL0000153603BR10        BRNC        BRNCCOCO    BRNCCOCO13AG00000400000000001132200400000000000000600000000000000000000000012690Z01620200416X066000000
2MAIL0000153603BR10        BRNC        BRNCCOCO    BRNCCOCO13AG00000500000000001215533700000000000000600000000000000000000000012750Z01620200416X066000000
2MAIL0000153603BR10        BRNC        BRNCCOCO    BRNCCOCO13AG00000600000000001231389600000000000000600000000000000000000000012750Z01620200416X066000000
2MAIL0000153603BR10        BRNC        BRNCCOCO    BRNCCOCO13AG00000700000000001239688600000000000001400000000000000000000000005226Z01620200416X066000000
2MAIL0000153603BR10        BRNC        BRNCCOCO    BRNCCOCO13AG00000800000000001239688700000000000001400000000000000000000000005226Z01620200416X066000000
2MAIL0000153603BR10        BRNC        BRNCCOCO    BRNCCOCO13AG00000900000000001239688800000000000001400000000000000000000000005226Z01620200416X066000000
2MAIL0000153603BR10        BRNC        BRNCCOCO    BRNCCOCO13AG00001000000000001239692100000000000001400000000000000000000000005226Z01620200416X066000000
1MAIL0000153604BR10        BRNC        BRNCCOCO    BRNCCOCO13AG2020041600:00:00OR  010000039091500003909150153604                             2020041620200416Z016CIF202004160000000000139806NN0                                                  0                                        
2MAIL0000153604BR10        BRNC        BRNCCOCO    BRNCCOCO13AG00000100000000001132033100000000000001000000000000000000000000021250Z01620200416X066000000
2MAIL0000153604BR10        BRNC        BRNCCOCO    BRNCCOCO13AG00000200000000001132036700000000000002100000000000000000000000044626Z01620200416X066000000
2MAIL0000153604BR10        BRNC        BRNCCOCO    BRNCCOCO13AG00000300000000001132200400000000000001000000000000000000000000021151Z01620200416X066000000
2MAIL0000153604BR10        BRNC        BRNCCOCO    BRNCCOCO13AG00000400000000001215533700000000000001000000000000000000000000021250Z01620200416X066000000
2MAIL0000153604BR10        BRNC        BRNCCOCO    BRNCCOCO13AG00000500000000001231389600000000000000500000000000000000000000010625Z01620200416X066000000
2MAIL0000153604BR10        BRNC        BRNCCOCO    BRNCCOCO13AG00000600000000001239688600000000000001400000000000000000000000005226Z01620200416X066000000
2MAIL0000153604BR10        BRNC        BRNCCOCO    BRNCCOCO13AG00000700000000001239688700000000000001400000000000000000000000005226Z01620200416X066000000
2MAIL0000153604BR10        BRNC        BRNCCOCO    BRNCCOCO13AG00000800000000001239688800000000000001400000000000000000000000005226Z01620200416X066000000
2MAIL0000153604BR10        BRNC        BRNCCOCO    BRNCCOCO13AG00000900000000001239692100000000000001400000000000000000000000005226Z01620200416X066000000
1MAIL0000153605BR10        BRNC        BRNCCOCO    BRNCCOCO13AG2020041600:00:00OR  010000051176860005117686153605                             2020041620200416Z016CIF202004160000000000141418NN0                                                  0                                        
2MAIL0000153605BR10        BRNC        BRNCCOCO    BRNCCOCO13AG00000100000000001132004000000000000000500000000000000000000000004990Z01620200416X066000000
2MAIL0000153605BR10        BRNC        BRNCCOCO    BRNCCOCO13AG00000200000000001132019800000000000000600000000000000000000000011549Z01620200416X066000000
2MAIL0000153605BR10        BRNC        BRNCCOCO    BRNCCOCO13AG00000300000000001132020900000000000000600000000000000000000000011549Z01620200416X066000000
2MAIL0000153605BR10        BRNC        BRNCCOCO    BRNCCOCO13AG00000400000000001132036700000000000002100000000000000000000000044626Z01620200416X066000000
2MAIL0000153605BR10        BRNC        BRNCCOCO    BRNCCOCO13AG00000500000000001132200400000000000001000000000000000000000000021151Z01620200416X066000000
2MAIL0000153605BR10        BRNC        BRNCCOCO    BRNCCOCO13AG00000600000000001215533700000000000001000000000000000000000000021250Z01620200416X066000000
2MAIL0000153605BR10        BRNC        BRNCCOCO    BRNCCOCO13AG00000700000000001231389600000000000000500000000000000000000000010625Z01620200416X066000000
2MAIL0000153605BR10        BRNC        BRNCCOCO    BRNCCOCO13AG00000800000000001239688600000000000001400000000000000000000000005226Z01620200416X066000000
2MAIL0000153605BR10        BRNC        BRNCCOCO    BRNCCOCO13AG00000900000000001239688700000000000001400000000000000000000000005226Z01620200416X066000000
2MAIL0000153605BR10        BRNC        BRNCCOCO    BRNCCOCO13AG00001000000000001239692100000000000001400000000000000000000000005226Z01620200416X066000000
1MAIL0000153606BR10        BRNC        BRNCCOCO    BRNCCOCO13AG2020041600:00:00OR  010000028991200002899120153606                             2020041620200416Z016CIF202004160000000000037224NN0                                                  0                                        
2MAIL0000153606BR10        BRNC        BRNCCOCO    BRNCCOCO13AG00000100000000001132033100000000000000200000000000000000000000004345Z01620200416X066000000
2MAIL0000153606BR10        BRNC        BRNCCOCO    BRNCCOCO13AG00000200000000001132200400000000000000200000000000000000000000004230Z01620200416X066000000
2MAIL0000153606BR10        BRNC        BRNCCOCO    BRNCCOCO13AG00000300000000001132400100000000000000100000000000000000000000003003Z01620200416X066000000
2MAIL0000153606BR10        BRNC        BRNCCOCO    BRNCCOCO13AG00000400000000001214470800000000000000500000000000000000000000023473Z01620200416X066000000
2MAIL0000153606BR10        BRNC        BRNCCOCO    BRNCCOCO13AG00000500000000001215533700000000000000100000000000000000000000002173Z01620200416X066000000
1MAIL0000153607BR10        BRNC        BRNCCOCO    BRNCCOCO13AG2020041600:00:00OR  010000028997950002899795153607                             2020041620200416Z016CIF202004160000000000081643NN0                                                  0                                        
2MAIL0000153607BR10        BRNC        BRNCCOCO    BRNCCOCO13AG00000100000000001132019800000000000000100000000000000000000000001967Z01620200416X066000000
2MAIL0000153607BR10        BRNC        BRNCCOCO    BRNCCOCO13AG00000200000000001132033100000000000000400000000000000000000000008692Z01620200416X066000000
2MAIL0000153607BR10        BRNC        BRNCCOCO    BRNCCOCO13AG00000300000000001132036700000000000000400000000000000000000000008692Z01620200416X066000000
2MAIL0000153607BR10        BRNC        BRNCCOCO    BRNCCOCO13AG00000400000000001223975300000000000000100000000000000000000000005280Z01620200416X066000000
2MAIL0000153607BR10        BRNC        BRNCCOCO    BRNCCOCO13AG00000500000000001226089600000000000001200000000000000000000000004784Z01620200416X066000000
2MAIL0000153607BR10        BRNC        BRNCCOCO    BRNCCOCO13AG00000600000000001228512700000000000000100000000000000000000000005280Z01620200416X066000000
2MAIL0000153607BR10        BRNC        BRNCCOCO    BRNCCOCO13AG00000700000000001231189200000000000000100000000000000000000000005280Z01620200416X066000000
2MAIL0000153607BR10        BRNC        BRNCCOCO    BRNCCOCO13AG00000800000000001231231200000000000000100000000000000000000000005280Z01620200416X066000000
2MAIL0000153607BR10        BRNC        BRNCCOCO    BRNCCOCO13AG00000900000000001234705700000000000000100000000000000000000000005280Z01620200416X066000000
2MAIL0000153607BR10        BRNC        BRNCCOCO    BRNCCOCO13AG00001000000000001236512900000000000001000000000000000000000000001997Z01620200416X066000000
2MAIL0000153607BR10        BRNC        BRNCCOCO    BRNCCOCO13AG00001100000000001236515000000000000001000000000000000000000000001997Z01620200416X066000000
2MAIL0000153607BR10        BRNC        BRNCCOCO    BRNCCOCO13AG00001200000000001239688600000000000001400000000000000000000000005582Z01620200416X066000000
2MAIL0000153607BR10        BRNC        BRNCCOCO    BRNCCOCO13AG00001300000000001239688700000000000001400000000000000000000000005582Z01620200416X066000000
2MAIL0000153607BR10        BRNC        BRNCCOCO    BRNCCOCO13AG00001400000000001239688800000000000001400000000000000000000000005582Z01620200416X066000000
2MAIL0000153607BR10        BRNC        BRNCCOCO    BRNCCOCO13AG00001500000000001241623700000000000000400000000000000000000000010368Z01620200416X066000000
1MAIL0000153608BR10        BRNC        BRNCCOCO    BRNCCOCO13AG2020041600:00:00OR  010000049480210004948021153608                             2020041620200416Z016CIF202004160000000000042274NN0                                                  0                                        
2MAIL0000153608BR10        BRNC        BRNCCOCO    BRNCCOCO13AG00000100000000001132019800000000000000100000000000000000000000002076Z01620200416X066000000
2MAIL0000153608BR10        BRNC        BRNCCOCO    BRNCCOCO13AG00000200000000001132033100000000000000200000000000000000000000004581Z01620200416X066000000
2MAIL0000153608BR10        BRNC        BRNCCOCO    BRNCCOCO13AG00000300000000001132036700000000000000200000000000000000000000004581Z01620200416X066000000
2MAIL0000153608BR10        BRNC        BRNCCOCO    BRNCCOCO13AG00000400000000001226089600000000000001200000000000000000000000005045Z01620200416X066000000
2MAIL0000153608BR10        BRNC        BRNCCOCO    BRNCCOCO13AG00000500000000001231189200000000000000100000000000000000000000005568Z01620200416X066000000
2MAIL0000153608BR10        BRNC        BRNCCOCO    BRNCCOCO13AG00000600000000001231231200000000000000100000000000000000000000005568Z01620200416X066000000
2MAIL0000153608BR10        BRNC        BRNCCOCO    BRNCCOCO13AG00000700000000001236512900000000000001000000000000000000000000002004Z01620200416X066000000
2MAIL0000153608BR10        BRNC        BRNCCOCO    BRNCCOCO13AG00000800000000001236515000000000000001000000000000000000000000002004Z01620200416X066000000
2MAIL0000153608BR10        BRNC        BRNCCOCO    BRNCCOCO13AG00000900000000001239688800000000000001400000000000000000000000005885Z01620200416X066000000
2MAIL0000153608BR10        BRNC        BRNCCOCO    BRNCCOCO13AG00001000000000001241623700000000000000200000000000000000000000004962Z01620200416X066000000
1MAIL0000153609BR10        BRNC        BRNCCOCO    BRNCCOCO13AG2020041600:00:00OR  010000029484450002948445153609                             2020041620200416Z016CIF202004160000000000063666NN0                                                  0                                        
2MAIL0000153609BR10        BRNC        BRNCCOCO    BRNCCOCO13AG00000100000000001132019800000000000000100000000000000000000000001967Z01620200416X066000000
2MAIL0000153609BR10        BRNC        BRNCCOCO    BRNCCOCO13AG00000200000000001132033100000000000000300000000000000000000000006518Z01620200416X066000000
2MAIL0000153609BR10        BRNC        BRNCCOCO    BRNCCOCO13AG00000300000000001132036700000000000000300000000000000000000000006518Z01620200416X066000000
2MAIL0000153609BR10        BRNC        BRNCCOCO    BRNCCOCO13AG00000400000000001132200400000000000000100000000000000000000000002115Z01620200416X066000000
2MAIL0000153609BR10        BRNC        BRNCCOCO    BRNCCOCO13AG00000500000000001226089600000000000001200000000000000000000000004784Z01620200416X066000000
2MAIL0000153609BR10        BRNC        BRNCCOCO    BRNCCOCO13AG00000600000000001228512700000000000000100000000000000000000000005280Z01620200416X066000000
2MAIL0000153609BR10        BRNC        BRNCCOCO    BRNCCOCO13AG00000700000000001231189200000000000000100000000000000000000000005280Z01620200416X066000000
2MAIL0000153609BR10        BRNC        BRNCCOCO    BRNCCOCO13AG00000800000000001231231200000000000000100000000000000000000000005280Z01620200416X066000000
2MAIL0000153609BR10        BRNC        BRNCCOCO    BRNCCOCO13AG00000900000000001236512900000000000001000000000000000000000000001997Z01620200416X066000000
2MAIL0000153609BR10        BRNC        BRNCCOCO    BRNCCOCO13AG00001000000000001236515000000000000001000000000000000000000000001997Z01620200416X066000000
2MAIL0000153609BR10        BRNC        BRNCCOCO    BRNCCOCO13AG00001100000000001239688600000000000001400000000000000000000000005582Z01620200416X066000000
2MAIL0000153609BR10        BRNC        BRNCCOCO    BRNCCOCO13AG00001200000000001239688800000000000001400000000000000000000000005582Z01620200416X066000000
2MAIL0000153609BR10        BRNC        BRNCCOCO    BRNCCOCO13AG00001300000000001239692300000000000001400000000000000000000000005582Z01620200416X066000000
2MAIL0000153609BR10        BRNC        BRNCCOCO    BRNCCOCO13AG00001400000000001241623700000000000000200000000000000000000000005184Z01620200416X066000000
1MAIL0000153610BR10        BRNC        BRNCCOCO    BRNCCOCO13AG2020041600:00:00OR  010000058509450005850945153610                             2020041620200416Z016CIF202004160000000000002115NN0                                                  0                                        
2MAIL0000153610BR10        BRNC        BRNCCOCO    BRNCCOCO13AG00000100000000001132200400000000000000100000000000000000000000002115Z01620200416X066000000
1MAIL0000153611BR10        BRNC        BRNCCOCO    BRNCCOCO13AG2020041600:00:00OR  010000060763540006076354153611                             2020041620200416Z016CIF202004160000000000014463NN0                                                  0                                        
2MAIL0000153611BR10        BRNC        BRNCCOCO    BRNCCOCO13AG00000100000000001132020900000000000000100000000000000000000000002076Z01620200416X066000000
2MAIL0000153611BR10        BRNC        BRNCCOCO    BRNCCOCO13AG00000200000000001132036700000000000000100000000000000000000000002291Z01620200416X066000000
2MAIL0000153611BR10        BRNC        BRNCCOCO    BRNCCOCO13AG00000300000000001235699800000000000001000000000000000000000000004211Z01620200416X066000000
2MAIL0000153611BR10        BRNC        BRNCCOCO    BRNCCOCO13AG00000400000000001239688800000000000001400000000000000000000000005885Z01620200416X066000000
1MAIL0000153612BR10        BRNC        BRNCCOCO    BRNCCOCO13AG2020041600:00:00OR  010000059993370005999337153612                             2020041620200416Z016CIF202004160000000000011965NN0                                                  0                                        
2MAIL0000153612BR10        BRNC        BRNCCOCO    BRNCCOCO13AG00000100000000001132018300000000000000200000000000000000000000006036Z01620200416X066000000
2MAIL0000153612BR10        BRNC        BRNCCOCO    BRNCCOCO13AG00000200000000001132036700000000000000100000000000000000000000001856Z01620200416X066000000
2MAIL0000153612BR10        BRNC        BRNCCOCO    BRNCCOCO13AG00000300000000001226089600000000000001200000000000000000000000004073Z01620200416X066000000
