1MAIL0000153297BR10        BRNC        BRNCCOCO    BRNCCOCO13AG2020041500:00:00OR  010000060090410006009041153297                             2020041520200415Z016CIF202004150000000000019695NN0                                                  0                                        
2MAIL0000153297BR10        BRNC        BRNCCOCO    BRNCCOCO13AG00000100000000001132033100000000000000100000000000000000000000002291Z01620200415X066000000
2MAIL0000153297BR10        BRNC        BRNCCOCO    BRNCCOCO13AG00000200000000001132036700000000000000200000000000000000000000004581Z01620200415X066000000
2MAIL0000153297BR10        BRNC        BRNCCOCO    BRNCCOCO13AG00000300000000001132200400000000000000100000000000000000000000002230Z01620200415X066000000
2MAIL0000153297BR10        BRNC        BRNCCOCO    BRNCCOCO13AG00000400000000001215533700000000000000200000000000000000000000004581Z01620200415X066000000
2MAIL0000153297BR10        BRNC        BRNCCOCO    BRNCCOCO13AG00000500000000001236512900000000000001500000000000000000000000003006Z01620200415X066000000
2MAIL0000153297BR10        BRNC        BRNCCOCO    BRNCCOCO13AG00000600000000001236515000000000000001500000000000000000000000003006Z01620200415X066000000
1MAIL0000153298BR10        BRNC        BRNCCOCO    BRNCCOCO13AG2020041500:00:00OR  010000058449560005844956153298                             2020041520200415Z016CIF202004150000000000006872NN0                                                  0                                        
2MAIL0000153298BR10        BRNC        BRNCCOCO    BRNCCOCO13AG00000100000000001132036700000000000000200000000000000000000000004581Z01620200415X066000000
2MAIL0000153298BR10        BRNC        BRNCCOCO    BRNCCOCO13AG00000200000000001215533700000000000000100000000000000000000000002291Z01620200415X066000000
1MAIL0000153299BR10        BRNC        BRNCCOCO    BRNCCOCO13AG2020041500:00:00OR  010000034657420003465742153299                             2020041520200415Z016CIF202004150000000000010340NN0                                                  0                                        
2MAIL0000153299BR10        BRNC        BRNCCOCO    BRNCCOCO13AG00000100000000001132033100000000000000100000000000000000000000002173Z01620200415X066000000
2MAIL0000153299BR10        BRNC        BRNCCOCO    BRNCCOCO13AG00000200000000001132036700000000000000100000000000000000000000002173Z01620200415X066000000
2MAIL0000153299BR10        BRNC        BRNCCOCO    BRNCCOCO13AG00000300000000001236512900000000000001500000000000000000000000002997Z01620200415X066000000
2MAIL0000153299BR10        BRNC        BRNCCOCO    BRNCCOCO13AG00000400000000001236515000000000000001500000000000000000000000002997Z01620200415X066000000
1MAIL0000153300BR10        BRNC        BRNCCOCO    BRNCCOCO13AG2020041500:00:00OR  010000043470760004347076153300                             2020041520200415Z016CIF202004150000000000026571NN0                                                  0                                        
2MAIL0000153300BR10        BRNC        BRNCCOCO    BRNCCOCO13AG00000100000000001132020900000000000000100000000000000000000000002076Z01620200415X066000000
2MAIL0000153300BR10        BRNC        BRNCCOCO    BRNCCOCO13AG00000200000000001132033100000000000000100000000000000000000000002291Z01620200415X066000000
2MAIL0000153300BR10        BRNC        BRNCCOCO    BRNCCOCO13AG00000300000000001132036700000000000000100000000000000000000000002291Z01620200415X066000000
2MAIL0000153300BR10        BRNC        BRNCCOCO    BRNCCOCO13AG00000400000000001236512900000000000003500000000000000000000000007014Z01620200415X066000000
2MAIL0000153300BR10        BRNC        BRNCCOCO    BRNCCOCO13AG00000500000000001236515000000000000003500000000000000000000000007014Z01620200415X066000000
2MAIL0000153300BR10        BRNC        BRNCCOCO    BRNCCOCO13AG00000600000000001239688800000000000001400000000000000000000000005885Z01620200415X066000000
1MAIL0000153301BR10        BRNC        BRNCCOCO    BRNCCOCO13AG2020041500:00:00OR  010000042387320004238732153301                             2020041520200415Z016CIF202004150000000000008662NN0                                                  0                                        
2MAIL0000153301BR10        BRNC        BRNCCOCO    BRNCCOCO13AG00000100000000001132020900000000000000100000000000000000000000002076Z01620200415X066000000
2MAIL0000153301BR10        BRNC        BRNCCOCO    BRNCCOCO13AG00000200000000001132033100000000000000100000000000000000000000002291Z01620200415X066000000
2MAIL0000153301BR10        BRNC        BRNCCOCO    BRNCCOCO13AG00000300000000001132036700000000000000100000000000000000000000002291Z01620200415X066000000
2MAIL0000153301BR10        BRNC        BRNCCOCO    BRNCCOCO13AG00000400000000001236512900000000000000500000000000000000000000001002Z01620200415X066000000
2MAIL0000153301BR10        BRNC        BRNCCOCO    BRNCCOCO13AG00000500000000001236515000000000000000500000000000000000000000001002Z01620200415X066000000
1MAIL0000153302BR10        BRNC        BRNCCOCO    BRNCCOCO13AG2020041500:00:00OR  010000046178700004617870153302                             2020041520200415Z998CIF202004150000000000008594NN0                                                  0                                        
2MAIL0000153302BR10        BRNC        BRNCCOCO    BRNCCOCO13AG00000100000000001132020900000000000000100000000000000000000000002060Z99820200415X066000000
2MAIL0000153302BR10        BRNC        BRNCCOCO    BRNCCOCO13AG00000200000000001132033100000000000000100000000000000000000000002273Z99820200415X066000000
2MAIL0000153302BR10        BRNC        BRNCCOCO    BRNCCOCO13AG00000300000000001132036700000000000000100000000000000000000000002273Z99820200415X066000000
2MAIL0000153302BR10        BRNC        BRNCCOCO    BRNCCOCO13AG00000400000000001236512900000000000000500000000000000000000000000994Z99820200415X066000000
2MAIL0000153302BR10        BRNC        BRNCCOCO    BRNCCOCO13AG00000500000000001236515000000000000000500000000000000000000000000994Z99820200415X066000000
1MAIL0000153303BR10        BRNC        BRNCCOCO    BRNCCOCO13AG2020041500:00:00OR  010000058096520005809652153303                             2020041520200415Z016CIF202004150000000000011584NN0                                                  0                                        
2MAIL0000153303BR10        BRNC        BRNCCOCO    BRNCCOCO13AG00000100000000001132033100000000000000100000000000000000000000002291Z01620200415X066000000
2MAIL0000153303BR10        BRNC        BRNCCOCO    BRNCCOCO13AG00000200000000001132036700000000000000100000000000000000000000002291Z01620200415X066000000
2MAIL0000153303BR10        BRNC        BRNCCOCO    BRNCCOCO13AG00000300000000001132200400000000000000100000000000000000000000002230Z01620200415X066000000
2MAIL0000153303BR10        BRNC        BRNCCOCO    BRNCCOCO13AG00000400000000001215533700000000000000100000000000000000000000002291Z01620200415X066000000
2MAIL0000153303BR10        BRNC        BRNCCOCO    BRNCCOCO13AG00000500000000001241623700000000000000100000000000000000000000002481Z01620200415X066000000
1MAIL0000153304BR10        BRNC        BRNCCOCO    BRNCCOCO13AG2020041500:00:00OR  010000060113250006011325153304                             2020041520200415Z079CIF202004150000000000023415NN0                                                  0                                        
2MAIL0000153304BR10        BRNC        BRNCCOCO    BRNCCOCO13AG00000100000000001241577400000000000003000000000000000000000000023415Z07920200415X066000000
1MAIL0000153305BR10        BRNC        BRNCCOCO    BRNCCOCO13AG2020041500:00:00OR  010000060113250006011325153305                             2020041520200415Z016CIF202004150000000000038484NN0                                                  0                                        
2MAIL0000153305BR10        BRNC        BRNCCOCO    BRNCCOCO13AG00000100000000001132019800000000000000100000000000000000000000001681Z01620200415X066000000
2MAIL0000153305BR10        BRNC        BRNCCOCO    BRNCCOCO13AG00000200000000001132033100000000000000100000000000000000000000001856Z01620200415X066000000
2MAIL0000153305BR10        BRNC        BRNCCOCO    BRNCCOCO13AG00000300000000001132036700000000000000100000000000000000000000001856Z01620200415X066000000
2MAIL0000153305BR10        BRNC        BRNCCOCO    BRNCCOCO13AG00000400000000001215533700000000000000100000000000000000000000001856Z01620200415X066000000
2MAIL0000153305BR10        BRNC        BRNCCOCO    BRNCCOCO13AG00000500000000001226089600000000000001200000000000000000000000004073Z01620200415X066000000
2MAIL0000153305BR10        BRNC        BRNCCOCO    BRNCCOCO13AG00000600000000001235699400000000000001000000000000000000000000003402Z01620200415X066000000
2MAIL0000153305BR10        BRNC        BRNCCOCO    BRNCCOCO13AG00000700000000001239663300000000000001400000000000000000000000004752Z01620200415X066000000
2MAIL0000153305BR10        BRNC        BRNCCOCO    BRNCCOCO13AG00000800000000001239688300000000000001400000000000000000000000004752Z01620200415X066000000
2MAIL0000153305BR10        BRNC        BRNCCOCO    BRNCCOCO13AG00000900000000001239688600000000000001400000000000000000000000004752Z01620200415X066000000
2MAIL0000153305BR10        BRNC        BRNCCOCO    BRNCCOCO13AG00001000000000001239688700000000000001400000000000000000000000004752Z01620200415X066000000
2MAIL0000153305BR10        BRNC        BRNCCOCO    BRNCCOCO13AG00001100000000001239688800000000000001400000000000000000000000004752Z01620200415X066000000
1MAIL0000153306BR10        BRNC        BRNCCOCO    BRNCCOCO13AG2020041500:00:00OR  010000038278670003827867153306                             2020041520200415Z016CIF202004150000000000082216NN0                                                  0                                        
2MAIL0000153306BR10        BRNC        BRNCCOCO    BRNCCOCO13AG00000100000000001132004000000000000000500000000000000000000000005662Z01620200415X066000000
2MAIL0000153306BR10        BRNC        BRNCCOCO    BRNCCOCO13AG00000200000000001132019800000000000000100000000000000000000000002076Z01620200415X066000000
2MAIL0000153306BR10        BRNC        BRNCCOCO    BRNCCOCO13AG00000300000000001132033100000000000000100000000000000000000000002291Z01620200415X066000000
2MAIL0000153306BR10        BRNC        BRNCCOCO    BRNCCOCO13AG00000400000000001132034900000000000000500000000000000000000000012283Z01620200415X066000000
2MAIL0000153306BR10        BRNC        BRNCCOCO    BRNCCOCO13AG00000500000000001132036700000000000000100000000000000000000000002291Z01620200415X066000000
2MAIL0000153306BR10        BRNC        BRNCCOCO    BRNCCOCO13AG00000600000000001226089600000000000001200000000000000000000000005045Z01620200415X066000000
2MAIL0000153306BR10        BRNC        BRNCCOCO    BRNCCOCO13AG00000700000000001227395500000000000000200000000000000000000000004581Z01620200415X066000000
2MAIL0000153306BR10        BRNC        BRNCCOCO    BRNCCOCO13AG00000800000000001231231200000000000000100000000000000000000000005568Z01620200415X066000000
2MAIL0000153306BR10        BRNC        BRNCCOCO    BRNCCOCO13AG00000900000000001235699400000000000001000000000000000000000000004211Z01620200415X066000000
2MAIL0000153306BR10        BRNC        BRNCCOCO    BRNCCOCO13AG00001000000000001236512800000000000001200000000000000000000000002288Z01620200415X066000000
2MAIL0000153306BR10        BRNC        BRNCCOCO    BRNCCOCO13AG00001100000000001236512900000000000001500000000000000000000000003006Z01620200415X066000000
2MAIL0000153306BR10        BRNC        BRNCCOCO    BRNCCOCO13AG00001200000000001236515000000000000001500000000000000000000000003006Z01620200415X066000000
2MAIL0000153306BR10        BRNC        BRNCCOCO    BRNCCOCO13AG00001300000000001239663300000000000001400000000000000000000000005885Z01620200415X066000000
2MAIL0000153306BR10        BRNC        BRNCCOCO    BRNCCOCO13AG00001400000000001239688800000000000001400000000000000000000000005885Z01620200415X066000000
2MAIL0000153306BR10        BRNC        BRNCCOCO    BRNCCOCO13AG00001500000000001239692100000000000001400000000000000000000000005885Z01620200415X066000000
2MAIL0000153306BR10        BRNC        BRNCCOCO    BRNCCOCO13AG00001600000000001241577400000000000000500000000000000000000000004810Z01620200415X066000000
2MAIL0000153306BR10        BRNC        BRNCCOCO    BRNCCOCO13AG00001700000000001241623700000000000000300000000000000000000000007443Z01620200415X066000000
1MAIL0000153307BR10        BRNC        BRNCCOCO    BRNCCOCO13AG2020041500:00:00OR  010000055158920005515892153307                             2020041520200415Z016CIF202004150000000000005885NN0                                                  0                                        
2MAIL0000153307BR10        BRNC        BRNCCOCO    BRNCCOCO13AG00000100000000001239688800000000000001400000000000000000000000005885Z01620200415X066000000
1MAIL0000153308BR10        BRNC        BRNCCOCO    BRNCCOCO13AG2020041500:00:00OR  010000058103380005810338153308                             2020041520200415Z016CIF202004150000000000021897NN0                                                  0                                        
2MAIL0000153308BR10        BRNC        BRNCCOCO    BRNCCOCO13AG00000100000000001132019800000000000000100000000000000000000000002076Z01620200415X066000000
2MAIL0000153308BR10        BRNC        BRNCCOCO    BRNCCOCO13AG00000200000000001132033100000000000000100000000000000000000000002291Z01620200415X066000000
2MAIL0000153308BR10        BRNC        BRNCCOCO    BRNCCOCO13AG00000300000000001215533700000000000000100000000000000000000000002291Z01620200415X066000000
2MAIL0000153308BR10        BRNC        BRNCCOCO    BRNCCOCO13AG00000400000000001227395500000000000000100000000000000000000000002291Z01620200415X066000000
2MAIL0000153308BR10        BRNC        BRNCCOCO    BRNCCOCO13AG00000500000000001231389600000000000000100000000000000000000000002291Z01620200415X066000000
2MAIL0000153308BR10        BRNC        BRNCCOCO    BRNCCOCO13AG00000600000000001236898000000000000000100000000000000000000000002291Z01620200415X066000000
2MAIL0000153308BR10        BRNC        BRNCCOCO    BRNCCOCO13AG00000700000000001239688800000000000001400000000000000000000000005885Z01620200415X066000000
2MAIL0000153308BR10        BRNC        BRNCCOCO    BRNCCOCO13AG00000800000000001241623700000000000000100000000000000000000000002481Z01620200415X066000000
1MAIL0000153309BR10        BRNC        BRNCCOCO    BRNCCOCO13AG2020041500:00:00OR  010000052344000005234400153309                             2020041520200415Z016CIF202004150000000000143085NN0                                                  0                                        
2MAIL0000153309BR10        BRNC        BRNCCOCO    BRNCCOCO13AG00000100000000001132004000000000000001000000000000000000000000010202Z01620200415X066000000
2MAIL0000153309BR10        BRNC        BRNCCOCO    BRNCCOCO13AG00000200000000001132004200000000000001000000000000000000000000014065Z01620200415X066000000
2MAIL0000153309BR10        BRNC        BRNCCOCO    BRNCCOCO13AG00000300000000001132019700000000000000200000000000000000000000003936Z01620200415X066000000
2MAIL0000153309BR10        BRNC        BRNCCOCO    BRNCCOCO13AG00000400000000001132019800000000000000100000000000000000000000001967Z01620200415X066000000
2MAIL0000153309BR10        BRNC        BRNCCOCO    BRNCCOCO13AG00000500000000001132020900000000000000100000000000000000000000001967Z01620200415X066000000
2MAIL0000153309BR10        BRNC        BRNCCOCO    BRNCCOCO13AG00000600000000001132033100000000000000500000000000000000000000010863Z01620200415X066000000
2MAIL0000153309BR10        BRNC        BRNCCOCO    BRNCCOCO13AG00000700000000001132036700000000000000800000000000000000000000017382Z01620200415X066000000
2MAIL0000153309BR10        BRNC        BRNCCOCO    BRNCCOCO13AG00000800000000001132200400000000000000500000000000000000000000010575Z01620200415X066000000
2MAIL0000153309BR10        BRNC        BRNCCOCO    BRNCCOCO13AG00000900000000001215533700000000000000600000000000000000000000013036Z01620200415X066000000
2MAIL0000153309BR10        BRNC        BRNCCOCO    BRNCCOCO13AG00001000000000001224882700000000000000100000000000000000000000003159Z01620200415X066000000
2MAIL0000153309BR10        BRNC        BRNCCOCO    BRNCCOCO13AG00001100000000001228512700000000000000100000000000000000000000005076Z01620200415X066000000
2MAIL0000153309BR10        BRNC        BRNCCOCO    BRNCCOCO13AG00001200000000001234705800000000000000100000000000000000000000005076Z01620200415X066000000
2MAIL0000153309BR10        BRNC        BRNCCOCO    BRNCCOCO13AG00001300000000001235699700000000000001000000000000000000000000003825Z01620200415X066000000
2MAIL0000153309BR10        BRNC        BRNCCOCO    BRNCCOCO13AG00001400000000001235699800000000000001000000000000000000000000003825Z01620200415X066000000
2MAIL0000153309BR10        BRNC        BRNCCOCO    BRNCCOCO13AG00001500000000001238083500000000000000100000000000000000000000005076Z01620200415X066000000
2MAIL0000153309BR10        BRNC        BRNCCOCO    BRNCCOCO13AG00001600000000001239373400000000000000100000000000000000000000006340Z01620200415X066000000
2MAIL0000153309BR10        BRNC        BRNCCOCO    BRNCCOCO13AG00001700000000001239663300000000000001400000000000000000000000005343Z01620200415X066000000
2MAIL0000153309BR10        BRNC        BRNCCOCO    BRNCCOCO13AG00001800000000001239688300000000000001400000000000000000000000005343Z01620200415X066000000
2MAIL0000153309BR10        BRNC        BRNCCOCO    BRNCCOCO13AG00001900000000001239688600000000000001400000000000000000000000005343Z01620200415X066000000
2MAIL0000153309BR10        BRNC        BRNCCOCO    BRNCCOCO13AG00002000000000001239688800000000000001400000000000000000000000005343Z01620200415X066000000
2MAIL0000153309BR10        BRNC        BRNCCOCO    BRNCCOCO13AG00002100000000001239692100000000000001400000000000000000000000005343Z01620200415X066000000
1MAIL0000153310BR10        BRNC        BRNCCOCO    BRNCCOCO13AG2020041500:00:00OR  010000052344010005234401153310                             2020041520200415Z016CIF202004150000000000087784NN0                                                  0                                        
2MAIL0000153310BR10        BRNC        BRNCCOCO    BRNCCOCO13AG00000100000000001132004200000000000001000000000000000000000000014065Z01620200415X066000000
2MAIL0000153310BR10        BRNC        BRNCCOCO    BRNCCOCO13AG00000200000000001132033100000000000000100000000000000000000000002173Z01620200415X066000000
2MAIL0000153310BR10        BRNC        BRNCCOCO    BRNCCOCO13AG00000300000000001132034900000000000000500000000000000000000000011074Z01620200415X066000000
2MAIL0000153310BR10        BRNC        BRNCCOCO    BRNCCOCO13AG00000400000000001132036700000000000000200000000000000000000000004345Z01620200415X066000000
2MAIL0000153310BR10        BRNC        BRNCCOCO    BRNCCOCO13AG00000500000000001231231200000000000000100000000000000000000000005076Z01620200415X066000000
2MAIL0000153310BR10        BRNC        BRNCCOCO    BRNCCOCO13AG00000600000000001235699400000000000001000000000000000000000000003825Z01620200415X066000000
2MAIL0000153310BR10        BRNC        BRNCCOCO    BRNCCOCO13AG00000700000000001235699800000000000001000000000000000000000000003825Z01620200415X066000000
2MAIL0000153310BR10        BRNC        BRNCCOCO    BRNCCOCO13AG00000800000000001239373400000000000000100000000000000000000000006340Z01620200415X066000000
2MAIL0000153310BR10        BRNC        BRNCCOCO    BRNCCOCO13AG00000900000000001239663300000000000001400000000000000000000000005343Z01620200415X066000000
2MAIL0000153310BR10        BRNC        BRNCCOCO    BRNCCOCO13AG00001000000000001239688300000000000001400000000000000000000000005343Z01620200415X066000000
2MAIL0000153310BR10        BRNC        BRNCCOCO    BRNCCOCO13AG00001100000000001239688700000000000001400000000000000000000000005343Z01620200415X066000000
2MAIL0000153310BR10        BRNC        BRNCCOCO    BRNCCOCO13AG00001200000000001239688800000000000001400000000000000000000000005343Z01620200415X066000000
2MAIL0000153310BR10        BRNC        BRNCCOCO    BRNCCOCO13AG00001300000000001239692100000000000001400000000000000000000000005343Z01620200415X066000000
2MAIL0000153310BR10        BRNC        BRNCCOCO    BRNCCOCO13AG00001400000000001241623700000000000000400000000000000000000000010346Z01620200415X066000000
1MAIL0000153311BR10        BRNC        BRNCCOCO    BRNCCOCO13AG2020041500:00:00OR  010000052334070005233407153311                             2020041520200415Z016CIF202004150000000000062555NN0                                                  0                                        
2MAIL0000153311BR10        BRNC        BRNCCOCO    BRNCCOCO13AG00000100000000001132019700000000000000100000000000000000000000001967Z01620200415X066000000
2MAIL0000153311BR10        BRNC        BRNCCOCO    BRNCCOCO13AG00000200000000001132019800000000000000100000000000000000000000001967Z01620200415X066000000
2MAIL0000153311BR10        BRNC        BRNCCOCO    BRNCCOCO13AG00000300000000001132019900000000000000100000000000000000000000001967Z01620200415X066000000
2MAIL0000153311BR10        BRNC        BRNCCOCO    BRNCCOCO13AG00000400000000001132020900000000000000100000000000000000000000001967Z01620200415X066000000
2MAIL0000153311BR10        BRNC        BRNCCOCO    BRNCCOCO13AG00000500000000001132033100000000000000100000000000000000000000002173Z01620200415X066000000
2MAIL0000153311BR10        BRNC        BRNCCOCO    BRNCCOCO13AG00000600000000001132036700000000000000100000000000000000000000002173Z01620200415X066000000
2MAIL0000153311BR10        BRNC        BRNCCOCO    BRNCCOCO13AG00000700000000001132200400000000000000100000000000000000000000002115Z01620200415X066000000
2MAIL0000153311BR10        BRNC        BRNCCOCO    BRNCCOCO13AG00000800000000001132400100000000000000100000000000000000000000003003Z01620200415X066000000
2MAIL0000153311BR10        BRNC        BRNCCOCO    BRNCCOCO13AG00000900000000001215533700000000000000100000000000000000000000002173Z01620200415X066000000
2MAIL0000153311BR10        BRNC        BRNCCOCO    BRNCCOCO13AG00001000000000001227735000000000000000100000000000000000000000001967Z01620200415X066000000
2MAIL0000153311BR10        BRNC        BRNCCOCO    BRNCCOCO13AG00001100000000001228512700000000000000100000000000000000000000005076Z01620200415X066000000
2MAIL0000153311BR10        BRNC        BRNCCOCO    BRNCCOCO13AG00001200000000001236512800000000000005200000000000000000000000008973Z01620200415X066000000
2MAIL0000153311BR10        BRNC        BRNCCOCO    BRNCCOCO13AG00001300000000001239373700000000000000100000000000000000000000006340Z01620200415X066000000
2MAIL0000153311BR10        BRNC        BRNCCOCO    BRNCCOCO13AG00001400000000001241623700000000000000800000000000000000000000020694Z01620200415X066000000
1MAIL0000153312BR10        BRNC        BRNCCOCO    BRNCCOCO13AG2020041500:00:00OR  010000046546480004654648153312                             2020041520200415Z016CIF202004150000000000027076NN0                                                  0                                        
2MAIL0000153312BR10        BRNC        BRNCCOCO    BRNCCOCO13AG00000100000000001132019800000000000000100000000000000000000000002076Z01620200415X066000000
2MAIL0000153312BR10        BRNC        BRNCCOCO    BRNCCOCO13AG00000200000000001132019900000000000000100000000000000000000000002076Z01620200415X066000000
2MAIL0000153312BR10        BRNC        BRNCCOCO    BRNCCOCO13AG00000300000000001132033100000000000000100000000000000000000000002291Z01620200415X066000000
2MAIL0000153312BR10        BRNC        BRNCCOCO    BRNCCOCO13AG00000400000000001132036700000000000000200000000000000000000000004581Z01620200415X066000000
2MAIL0000153312BR10        BRNC        BRNCCOCO    BRNCCOCO13AG00000500000000001132200400000000000000100000000000000000000000002230Z01620200415X066000000
2MAIL0000153312BR10        BRNC        BRNCCOCO    BRNCCOCO13AG00000600000000001132400100000000000000100000000000000000000000003165Z01620200415X066000000
2MAIL0000153312BR10        BRNC        BRNCCOCO    BRNCCOCO13AG00000700000000001215533700000000000000100000000000000000000000002291Z01620200415X066000000
2MAIL0000153312BR10        BRNC        BRNCCOCO    BRNCCOCO13AG00000800000000001239663300000000000001400000000000000000000000005885Z01620200415X066000000
2MAIL0000153312BR10        BRNC        BRNCCOCO    BRNCCOCO13AG00000900000000001241623700000000000000100000000000000000000000002481Z01620200415X066000000
1MAIL0000153313BR10        BRNC        BRNCCOCO    BRNCCOCO13AG2020041500:00:00OR  010000028556410002855641153313                             2020041520200415Z016CIF202004150000000000149898NN0                                                  0                                        
2MAIL0000153313BR10        BRNC        BRNCCOCO    BRNCCOCO13AG00000100000000001132019700000000000000100000000000000000000000002076Z01620200415X066000000
2MAIL0000153313BR10        BRNC        BRNCCOCO    BRNCCOCO13AG00000200000000001132019800000000000000100000000000000000000000002076Z01620200415X066000000
2MAIL0000153313BR10        BRNC        BRNCCOCO    BRNCCOCO13AG00000300000000001132020900000000000000100000000000000000000000002076Z01620200415X066000000
2MAIL0000153313BR10        BRNC        BRNCCOCO    BRNCCOCO13AG00000400000000001132033100000000000001000000000000000000000000022909Z01620200415X066000000
2MAIL0000153313BR10        BRNC        BRNCCOCO    BRNCCOCO13AG00000500000000001132036700000000000001500000000000000000000000034362Z01620200415X066000000
2MAIL0000153313BR10        BRNC        BRNCCOCO    BRNCCOCO13AG00000600000000001215533700000000000001500000000000000000000000034362Z01620200415X066000000
2MAIL0000153313BR10        BRNC        BRNCCOCO    BRNCCOCO13AG00000700000000001223975300000000000000100000000000000000000000005568Z01620200415X066000000
2MAIL0000153313BR10        BRNC        BRNCCOCO    BRNCCOCO13AG00000800000000001226089600000000000001200000000000000000000000005045Z01620200415X066000000
2MAIL0000153313BR10        BRNC        BRNCCOCO    BRNCCOCO13AG00000900000000001228274000000000000000100000000000000000000000005568Z01620200415X066000000
2MAIL0000153313BR10        BRNC        BRNCCOCO    BRNCCOCO13AG00001000000000001231189200000000000000100000000000000000000000005568Z01620200415X066000000
2MAIL0000153313BR10        BRNC        BRNCCOCO    BRNCCOCO13AG00001100000000001235699400000000000001000000000000000000000000004211Z01620200415X066000000
2MAIL0000153313BR10        BRNC        BRNCCOCO    BRNCCOCO13AG00001200000000001235699800000000000002000000000000000000000000008422Z01620200415X066000000
2MAIL0000153313BR10        BRNC        BRNCCOCO    BRNCCOCO13AG00001300000000001239663300000000000001400000000000000000000000005885Z01620200415X066000000
2MAIL0000153313BR10        BRNC        BRNCCOCO    BRNCCOCO13AG00001400000000001239688600000000000001400000000000000000000000005885Z01620200415X066000000
2MAIL0000153313BR10        BRNC        BRNCCOCO    BRNCCOCO13AG00001500000000001239688800000000000001400000000000000000000000005885Z01620200415X066000000
1MAIL0000153314BR10        BRNC        BRNCCOCO    BRNCCOCO13AG2020041500:00:00OR  010000056381310005638131153314                             2020041520200415Z016CIF202004150000000000154431NN0                                                  0                                        
2MAIL0000153314BR10        BRNC        BRNCCOCO    BRNCCOCO13AG00000100000000001132004000000000000001000000000000000000000000010225Z01620200415X066000000
2MAIL0000153314BR10        BRNC        BRNCCOCO    BRNCCOCO13AG00000200000000001132019800000000000000100000000000000000000000001972Z01620200415X066000000
2MAIL0000153314BR10        BRNC        BRNCCOCO    BRNCCOCO13AG00000300000000001132033100000000000000200000000000000000000000004355Z01620200415X066000000
2MAIL0000153314BR10        BRNC        BRNCCOCO    BRNCCOCO13AG00000400000000001132036700000000000000200000000000000000000000004355Z01620200415X066000000
2MAIL0000153314BR10        BRNC        BRNCCOCO    BRNCCOCO13AG00000500000000001132200400000000000000300000000000000000000000006359Z01620200415X066000000
2MAIL0000153314BR10        BRNC        BRNCCOCO    BRNCCOCO13AG00000600000000001132400100000000000000100000000000000000000000003010Z01620200415X066000000
2MAIL0000153314BR10        BRNC        BRNCCOCO    BRNCCOCO13AG00000700000000001215533700000000000000200000000000000000000000004355Z01620200415X066000000
2MAIL0000153314BR10        BRNC        BRNCCOCO    BRNCCOCO13AG00000800000000001224882700000000000000200000000000000000000000006329Z01620200415X066000000
2MAIL0000153314BR10        BRNC        BRNCCOCO    BRNCCOCO13AG00000900000000001227735000000000000000100000000000000000000000001972Z01620200415X066000000
2MAIL0000153314BR10        BRNC        BRNCCOCO    BRNCCOCO13AG00001000000000001228512700000000000000100000000000000000000000005087Z01620200415X066000000
2MAIL0000153314BR10        BRNC        BRNCCOCO    BRNCCOCO13AG00001100000000001231189200000000000000200000000000000000000000010176Z01620200415X066000000
2MAIL0000153314BR10        BRNC        BRNCCOCO    BRNCCOCO13AG00001200000000001231233000000000000000100000000000000000000000005087Z01620200415X066000000
2MAIL0000153314BR10        BRNC        BRNCCOCO    BRNCCOCO13AG00001300000000001234705700000000000000100000000000000000000000005087Z01620200415X066000000
2MAIL0000153314BR10        BRNC        BRNCCOCO    BRNCCOCO13AG00001400000000001234705800000000000000100000000000000000000000005087Z01620200415X066000000
2MAIL0000153314BR10        BRNC        BRNCCOCO    BRNCCOCO13AG00001500000000001235699400000000000002000000000000000000000000007665Z01620200415X066000000
2MAIL0000153314BR10        BRNC        BRNCCOCO    BRNCCOCO13AG00001600000000001235699700000000000001000000000000000000000000003833Z01620200415X066000000
2MAIL0000153314BR10        BRNC        BRNCCOCO    BRNCCOCO13AG00001700000000001235699800000000000001000000000000000000000000003833Z01620200415X066000000
2MAIL0000153314BR10        BRNC        BRNCCOCO    BRNCCOCO13AG00001800000000001238083500000000000000100000000000000000000000005087Z01620200415X066000000
2MAIL0000153314BR10        BRNC        BRNCCOCO    BRNCCOCO13AG00001900000000001239373500000000000000100000000000000000000000006353Z01620200415X066000000
2MAIL0000153314BR10        BRNC        BRNCCOCO    BRNCCOCO13AG00002000000000001239373600000000000000100000000000000000000000006353Z01620200415X066000000
2MAIL0000153314BR10        BRNC        BRNCCOCO    BRNCCOCO13AG00002100000000001239663300000000000002800000000000000000000000010709Z01620200415X066000000
2MAIL0000153314BR10        BRNC        BRNCCOCO    BRNCCOCO13AG00002200000000001239688600000000000001400000000000000000000000005355Z01620200415X066000000
2MAIL0000153314BR10        BRNC        BRNCCOCO    BRNCCOCO13AG00002300000000001239688800000000000002800000000000000000000000010709Z01620200415X066000000
2MAIL0000153314BR10        BRNC        BRNCCOCO    BRNCCOCO13AG00002400000000001239692100000000000002800000000000000000000000010709Z01620200415X066000000
2MAIL0000153314BR10        BRNC        BRNCCOCO    BRNCCOCO13AG00002500000000001241623700000000000000400000000000000000000000010369Z01620200415X066000000
1MAIL0000153315BR10        BRNC        BRNCCOCO    BRNCCOCO13AG2020041500:00:00OR  010000052339030005233903153315                             2020041520200415Z016CIF202004150000000000146873NN0                                                  0                                        
2MAIL0000153315BR10        BRNC        BRNCCOCO    BRNCCOCO13AG00000100000000001132019700000000000000200000000000000000000000003936Z01620200415X066000000
2MAIL0000153315BR10        BRNC        BRNCCOCO    BRNCCOCO13AG00000200000000001132019800000000000000100000000000000000000000001967Z01620200415X066000000
2MAIL0000153315BR10        BRNC        BRNCCOCO    BRNCCOCO13AG00000300000000001132019900000000000000100000000000000000000000001967Z01620200415X066000000
2MAIL0000153315BR10        BRNC        BRNCCOCO    BRNCCOCO13AG00000400000000001132020900000000000000100000000000000000000000001967Z01620200415X066000000
2MAIL0000153315BR10        BRNC        BRNCCOCO    BRNCCOCO13AG00000500000000001132033100000000000000200000000000000000000000004345Z01620200415X066000000
2MAIL0000153315BR10        BRNC        BRNCCOCO    BRNCCOCO13AG00000600000000001132036700000000000000300000000000000000000000006518Z01620200415X066000000
2MAIL0000153315BR10        BRNC        BRNCCOCO    BRNCCOCO13AG00000700000000001132200400000000000000400000000000000000000000008460Z01620200415X066000000
2MAIL0000153315BR10        BRNC        BRNCCOCO    BRNCCOCO13AG00000800000000001132400100000000000000100000000000000000000000003003Z01620200415X066000000
2MAIL0000153315BR10        BRNC        BRNCCOCO    BRNCCOCO13AG00000900000000001215533700000000000000200000000000000000000000004345Z01620200415X066000000
2MAIL0000153315BR10        BRNC        BRNCCOCO    BRNCCOCO13AG00001000000000001223975300000000000000100000000000000000000000005076Z01620200415X066000000
2MAIL0000153315BR10        BRNC        BRNCCOCO    BRNCCOCO13AG00001100000000001224882700000000000000100000000000000000000000003159Z01620200415X066000000
2MAIL0000153315BR10        BRNC        BRNCCOCO    BRNCCOCO13AG00001200000000001227735000000000000000100000000000000000000000001967Z01620200415X066000000
2MAIL0000153315BR10        BRNC        BRNCCOCO    BRNCCOCO13AG00001300000000001228512700000000000000100000000000000000000000005076Z01620200415X066000000
2MAIL0000153315BR10        BRNC        BRNCCOCO    BRNCCOCO13AG00001400000000001231189200000000000000100000000000000000000000005076Z01620200415X066000000
2MAIL0000153315BR10        BRNC        BRNCCOCO    BRNCCOCO13AG00001500000000001231231200000000000000100000000000000000000000005076Z01620200415X066000000
2MAIL0000153315BR10        BRNC        BRNCCOCO    BRNCCOCO13AG00001600000000001231233000000000000000100000000000000000000000005076Z01620200415X066000000
2MAIL0000153315BR10        BRNC        BRNCCOCO    BRNCCOCO13AG00001700000000001234705700000000000000100000000000000000000000005076Z01620200415X066000000
2MAIL0000153315BR10        BRNC        BRNCCOCO    BRNCCOCO13AG00001800000000001234705800000000000000100000000000000000000000005076Z01620200415X066000000
2MAIL0000153315BR10        BRNC        BRNCCOCO    BRNCCOCO13AG00001900000000001234705900000000000000100000000000000000000000005076Z01620200415X066000000
2MAIL0000153315BR10        BRNC        BRNCCOCO    BRNCCOCO13AG00002000000000001235699400000000000001000000000000000000000000003825Z01620200415X066000000
2MAIL0000153315BR10        BRNC        BRNCCOCO    BRNCCOCO13AG00002100000000001235699800000000000001000000000000000000000000003825Z01620200415X066000000
2MAIL0000153315BR10        BRNC        BRNCCOCO    BRNCCOCO13AG00002200000000001238083500000000000000100000000000000000000000005076Z01620200415X066000000
2MAIL0000153315BR10        BRNC        BRNCCOCO    BRNCCOCO13AG00002300000000001239373400000000000000100000000000000000000000006340Z01620200415X066000000
2MAIL0000153315BR10        BRNC        BRNCCOCO    BRNCCOCO13AG00002400000000001239373500000000000000100000000000000000000000006340Z01620200415X066000000
2MAIL0000153315BR10        BRNC        BRNCCOCO    BRNCCOCO13AG00002500000000001239373600000000000000100000000000000000000000006340Z01620200415X066000000
2MAIL0000153315BR10        BRNC        BRNCCOCO    BRNCCOCO13AG00002600000000001239373700000000000000100000000000000000000000006340Z01620200415X066000000
2MAIL0000153315BR10        BRNC        BRNCCOCO    BRNCCOCO13AG00002700000000001239663300000000000001400000000000000000000000005343Z01620200415X066000000
2MAIL0000153315BR10        BRNC        BRNCCOCO    BRNCCOCO13AG00002800000000001239688800000000000001400000000000000000000000005343Z01620200415X066000000
2MAIL0000153315BR10        BRNC        BRNCCOCO    BRNCCOCO13AG00002900000000001239692100000000000002800000000000000000000000010686Z01620200415X066000000
2MAIL0000153315BR10        BRNC        BRNCCOCO    BRNCCOCO13AG00003000000000001241623700000000000000200000000000000000000000005173Z01620200415X066000000
1MAIL0000153316BR10        BRNC        BRNCCOCO    BRNCCOCO13AG2020041500:00:00OR  010000052343390005234339153316                             2020041520200415Z016CIF202004150000000000079260NN0                                                  0                                        
2MAIL0000153316BR10        BRNC        BRNCCOCO    BRNCCOCO13AG00000100000000001132019700000000000000100000000000000000000000001967Z01620200415X066000000
2MAIL0000153316BR10        BRNC        BRNCCOCO    BRNCCOCO13AG00000200000000001132020900000000000000100000000000000000000000001967Z01620200415X066000000
2MAIL0000153316BR10        BRNC        BRNCCOCO    BRNCCOCO13AG00000300000000001132033100000000000000300000000000000000000000006518Z01620200415X066000000
2MAIL0000153316BR10        BRNC        BRNCCOCO    BRNCCOCO13AG00000400000000001132036700000000000000400000000000000000000000008692Z01620200415X066000000
2MAIL0000153316BR10        BRNC        BRNCCOCO    BRNCCOCO13AG00000500000000001132200400000000000000400000000000000000000000008460Z01620200415X066000000
2MAIL0000153316BR10        BRNC        BRNCCOCO    BRNCCOCO13AG00000600000000001215533700000000000000200000000000000000000000004345Z01620200415X066000000
2MAIL0000153316BR10        BRNC        BRNCCOCO    BRNCCOCO13AG00000700000000001238083500000000000000100000000000000000000000005076Z01620200415X066000000
2MAIL0000153316BR10        BRNC        BRNCCOCO    BRNCCOCO13AG00000800000000001239688300000000000001400000000000000000000000005343Z01620200415X066000000
2MAIL0000153316BR10        BRNC        BRNCCOCO    BRNCCOCO13AG00000900000000001239688600000000000001400000000000000000000000005343Z01620200415X066000000
2MAIL0000153316BR10        BRNC        BRNCCOCO    BRNCCOCO13AG00001000000000001239688700000000000001400000000000000000000000005343Z01620200415X066000000
2MAIL0000153316BR10        BRNC        BRNCCOCO    BRNCCOCO13AG00001100000000001239688800000000000001400000000000000000000000005343Z01620200415X066000000
2MAIL0000153316BR10        BRNC        BRNCCOCO    BRNCCOCO13AG00001200000000001239692100000000000001400000000000000000000000005343Z01620200415X066000000
2MAIL0000153316BR10        BRNC        BRNCCOCO    BRNCCOCO13AG00001300000000001241623700000000000000600000000000000000000000015520Z01620200415X066000000
1MAIL0000153317BR10        BRNC        BRNCCOCO    BRNCCOCO13AG2020041500:00:00OR  010000029874140002987414153317                             2020041520200415Z016CIF202004150000000000212927NN0                                                  0                                        
2MAIL0000153317BR10        BRNC        BRNCCOCO    BRNCCOCO13AG00000100000000001132004000000000000000500000000000000000000000005102Z01620200415X066000000
2MAIL0000153317BR10        BRNC        BRNCCOCO    BRNCCOCO13AG00000200000000001132030800000000000000200000000000000000000000006218Z01620200415X066000000
2MAIL0000153317BR10        BRNC        BRNCCOCO    BRNCCOCO13AG00000300000000001132030900000000000000200000000000000000000000006414Z01620200415X066000000
2MAIL0000153317BR10        BRNC        BRNCCOCO    BRNCCOCO13AG00000400000000001132033100000000000000200000000000000000000000004345Z01620200415X066000000
2MAIL0000153317BR10        BRNC        BRNCCOCO    BRNCCOCO13AG00000500000000001132033900000000000000200000000000000000000000006820Z01620200415X066000000
2MAIL0000153317BR10        BRNC        BRNCCOCO    BRNCCOCO13AG00000600000000001132034900000000000000500000000000000000000000011074Z01620200415X066000000
2MAIL0000153317BR10        BRNC        BRNCCOCO    BRNCCOCO13AG00000700000000001132035000000000000000500000000000000000000000012302Z01620200415X066000000
2MAIL0000153317BR10        BRNC        BRNCCOCO    BRNCCOCO13AG00000800000000001132035100000000000000500000000000000000000000011693Z01620200415X066000000
2MAIL0000153317BR10        BRNC        BRNCCOCO    BRNCCOCO13AG00000900000000001132036700000000000000200000000000000000000000004345Z01620200415X066000000
2MAIL0000153317BR10        BRNC        BRNCCOCO    BRNCCOCO13AG00001000000000001132200400000000000000100000000000000000000000002115Z01620200415X066000000
2MAIL0000153317BR10        BRNC        BRNCCOCO    BRNCCOCO13AG00001100000000001215533700000000000000100000000000000000000000002173Z01620200415X066000000
2MAIL0000153317BR10        BRNC        BRNCCOCO    BRNCCOCO13AG00001200000000001226089600000000000002400000000000000000000000009159Z01620200415X066000000
2MAIL0000153317BR10        BRNC        BRNCCOCO    BRNCCOCO13AG00001300000000001227395500000000000000100000000000000000000000002173Z01620200415X066000000
2MAIL0000153317BR10        BRNC        BRNCCOCO    BRNCCOCO13AG00001400000000001235699400000000000001000000000000000000000000003825Z01620200415X066000000
2MAIL0000153317BR10        BRNC        BRNCCOCO    BRNCCOCO13AG00001500000000001235699700000000000001000000000000000000000000003825Z01620200415X066000000
2MAIL0000153317BR10        BRNC        BRNCCOCO    BRNCCOCO13AG00001600000000001235699800000000000002000000000000000000000000007648Z01620200415X066000000
2MAIL0000153317BR10        BRNC        BRNCCOCO    BRNCCOCO13AG00001700000000001236512800000000000001200000000000000000000000002071Z01620200415X066000000
2MAIL0000153317BR10        BRNC        BRNCCOCO    BRNCCOCO13AG00001800000000001236512900000000000001000000000000000000000000001818Z01620200415X066000000
2MAIL0000153317BR10        BRNC        BRNCCOCO    BRNCCOCO13AG00001900000000001236515000000000000001500000000000000000000000002727Z01620200415X066000000
2MAIL0000153317BR10        BRNC        BRNCCOCO    BRNCCOCO13AG00002000000000001239688300000000000001400000000000000000000000005343Z01620200415X066000000
2MAIL0000153317BR10        BRNC        BRNCCOCO    BRNCCOCO13AG00002100000000001239688600000000000001400000000000000000000000005343Z01620200415X066000000
2MAIL0000153317BR10        BRNC        BRNCCOCO    BRNCCOCO13AG00002200000000001239688700000000000001400000000000000000000000005343Z01620200415X066000000
2MAIL0000153317BR10        BRNC        BRNCCOCO    BRNCCOCO13AG00002300000000001239688800000000000002800000000000000000000000010686Z01620200415X066000000
2MAIL0000153317BR10        BRNC        BRNCCOCO    BRNCCOCO13AG00002400000000001239692100000000000001400000000000000000000000005343Z01620200415X066000000
2MAIL0000153317BR10        BRNC        BRNCCOCO    BRNCCOCO13AG00002500000000001239692300000000000001400000000000000000000000005343Z01620200415X066000000
2MAIL0000153317BR10        BRNC        BRNCCOCO    BRNCCOCO13AG00002600000000001240924900000000000001200000000000000000000000001997Z01620200415X066000000
2MAIL0000153317BR10        BRNC        BRNCCOCO    BRNCCOCO13AG00002700000000001241577400000000000006000000000000000000000000051993Z01620200415X066000000
2MAIL0000153317BR10        BRNC        BRNCCOCO    BRNCCOCO13AG00002800000000001241623700000000000000400000000000000000000000010346Z01620200415X066000000
2MAIL0000153317BR10        BRNC        BRNCCOCO    BRNCCOCO13AG00002900000000001242754900000000000001400000000000000000000000005343Z01620200415X066000000
1MAIL0000153318BR10        BRNC        BRNCCOCO    BRNCCOCO13AG2020041500:00:00OR  010000061622200006162220153318                             2020041520200415Z016CIF202004150000000000010362NN0                                                  0                                        
2MAIL0000153318BR10        BRNC        BRNCCOCO    BRNCCOCO13AG00000100000000001132036700000000000000100000000000000000000000002241Z01620200415X066000000
2MAIL0000153318BR10        BRNC        BRNCCOCO    BRNCCOCO13AG00000200000000001215533700000000000000100000000000000000000000002241Z01620200415X066000000
2MAIL0000153318BR10        BRNC        BRNCCOCO    BRNCCOCO13AG00000300000000001236512900000000000001500000000000000000000000002940Z01620200415X066000000
2MAIL0000153318BR10        BRNC        BRNCCOCO    BRNCCOCO13AG00000400000000001236515000000000000001500000000000000000000000002940Z01620200415X066000000
1MAIL0000153319BR10        BRNC        BRNCCOCO    BRNCCOCO13AG2020041500:00:00OR  010000053103650005310365153319                             2020041520200415Z016CIF202004150000000000149036NN0                                                  0                                        
2MAIL0000153319BR10        BRNC        BRNCCOCO    BRNCCOCO13AG00000100000000001226089600000000000001200000000000000000000000004015Z01620200415X066000000
2MAIL0000153319BR10        BRNC        BRNCCOCO    BRNCCOCO13AG00000200000000001239663300000000000001400000000000000000000000004684Z01620200415X066000000
2MAIL0000153319BR10        BRNC        BRNCCOCO    BRNCCOCO13AG00000300000000001239688600000000000001400000000000000000000000004684Z01620200415X066000000
2MAIL0000153319BR10        BRNC        BRNCCOCO    BRNCCOCO13AG00000400000000001239688700000000000001400000000000000000000000004684Z01620200415X066000000
2MAIL0000153319BR10        BRNC        BRNCCOCO    BRNCCOCO13AG00000500000000001239688800000000000001400000000000000000000000004684Z01620200415X066000000
2MAIL0000153319BR10        BRNC        BRNCCOCO    BRNCCOCO13AG00000600000000001239692100000000000001400000000000000000000000004684Z01620200415X066000000
2MAIL0000153319BR10        BRNC        BRNCCOCO    BRNCCOCO13AG00000700000000001239692300000000000001400000000000000000000000004684Z01620200415X066000000
2MAIL0000153319BR10        BRNC        BRNCCOCO    BRNCCOCO13AG00000800000000001241577400000000000012000000000000000000000000090994Z01620200415X066000000
2MAIL0000153319BR10        BRNC        BRNCCOCO    BRNCCOCO13AG00000900000000001241623700000000000001000000000000000000000000025923Z01620200415X066000000
1MAIL0000153320BR10        BRNC        BRNCCOCO    BRNCCOCO13AG2020041500:00:00OR  010000047630050004763005153320                             2020041520200415Z016CIF202004150000000000019723NN0                                                  0                                        
2MAIL0000153320BR10        BRNC        BRNCCOCO    BRNCCOCO13AG00000100000000001132033100000000000000100000000000000000000000002291Z01620200415X066000000
2MAIL0000153320BR10        BRNC        BRNCCOCO    BRNCCOCO13AG00000200000000001132036700000000000000100000000000000000000000002291Z01620200415X066000000
2MAIL0000153320BR10        BRNC        BRNCCOCO    BRNCCOCO13AG00000300000000001226089600000000000001200000000000000000000000005045Z01620200415X066000000
2MAIL0000153320BR10        BRNC        BRNCCOCO    BRNCCOCO13AG00000400000000001235699400000000000001000000000000000000000000004211Z01620200415X066000000
2MAIL0000153320BR10        BRNC        BRNCCOCO    BRNCCOCO13AG00000500000000001239688800000000000001400000000000000000000000005885Z01620200415X066000000
1MAIL0000153333BR10        BRNC        BRNCCOCO    BRNCCOCO13AG2020041500:00:00OR  010000028607430002860743153333                             2020041520200415Z079CIF202004150000000000160372NN0                                                  0                                        
2MAIL0000153333BR10        BRNC        BRNCCOCO    BRNCCOCO13AG00000100000000001132004000000000000000500000000000000000000000005385Z07920200415X066000000
2MAIL0000153333BR10        BRNC        BRNCCOCO    BRNCCOCO13AG00000200000000001132018300000000000000100000000000000000000000003549Z07920200415X066000000
2MAIL0000153333BR10        BRNC        BRNCCOCO    BRNCCOCO13AG00000300000000001132019700000000000000100000000000000000000000001974Z07920200415X066000000
2MAIL0000153333BR10        BRNC        BRNCCOCO    BRNCCOCO13AG00000400000000001132019800000000000000100000000000000000000000001974Z07920200415X066000000
2MAIL0000153333BR10        BRNC        BRNCCOCO    BRNCCOCO13AG00000500000000001132033100000000000000300000000000000000000000006535Z07920200415X066000000
2MAIL0000153333BR10        BRNC        BRNCCOCO    BRNCCOCO13AG00000600000000001132036700000000000000500000000000000000000000010892Z07920200415X066000000
2MAIL0000153333BR10        BRNC        BRNCCOCO    BRNCCOCO13AG00000700000000001215533700000000000000300000000000000000000000006535Z07920200415X066000000
2MAIL0000153333BR10        BRNC        BRNCCOCO    BRNCCOCO13AG00000800000000001221415400000000000000100000000000000000000000003549Z07920200415X066000000
2MAIL0000153333BR10        BRNC        BRNCCOCO    BRNCCOCO13AG00000900000000001226089600000000000001200000000000000000000000004793Z07920200415X066000000
2MAIL0000153333BR10        BRNC        BRNCCOCO    BRNCCOCO13AG00001000000000001228274000000000000000100000000000000000000000005293Z07920200415X066000000
2MAIL0000153333BR10        BRNC        BRNCCOCO    BRNCCOCO13AG00001100000000001228512700000000000000100000000000000000000000005293Z07920200415X066000000
2MAIL0000153333BR10        BRNC        BRNCCOCO    BRNCCOCO13AG00001200000000001231189200000000000000100000000000000000000000005293Z07920200415X066000000
2MAIL0000153333BR10        BRNC        BRNCCOCO    BRNCCOCO13AG00001300000000001231231200000000000000100000000000000000000000005293Z07920200415X066000000
2MAIL0000153333BR10        BRNC        BRNCCOCO    BRNCCOCO13AG00001400000000001231233000000000000000100000000000000000000000005293Z07920200415X066000000
2MAIL0000153333BR10        BRNC        BRNCCOCO    BRNCCOCO13AG00001500000000001234705700000000000000100000000000000000000000005293Z07920200415X066000000
2MAIL0000153333BR10        BRNC        BRNCCOCO    BRNCCOCO13AG00001600000000001234705800000000000000100000000000000000000000005293Z07920200415X066000000
2MAIL0000153333BR10        BRNC        BRNCCOCO    BRNCCOCO13AG00001700000000001234705900000000000000100000000000000000000000005293Z07920200415X066000000
2MAIL0000153333BR10        BRNC        BRNCCOCO    BRNCCOCO13AG00001800000000001235699800000000000001000000000000000000000000004002Z07920200415X066000000
2MAIL0000153333BR10        BRNC        BRNCCOCO    BRNCCOCO13AG00001900000000001236512900000000000002000000000000000000000000003995Z07920200415X066000000
2MAIL0000153333BR10        BRNC        BRNCCOCO    BRNCCOCO13AG00002000000000001236515000000000000002000000000000000000000000003995Z07920200415X066000000
2MAIL0000153333BR10        BRNC        BRNCCOCO    BRNCCOCO13AG00002100000000001238083500000000000000100000000000000000000000005293Z07920200415X066000000
2MAIL0000153333BR10        BRNC        BRNCCOCO    BRNCCOCO13AG00002200000000001238083600000000000000100000000000000000000000006579Z07920200415X066000000
2MAIL0000153333BR10        BRNC        BRNCCOCO    BRNCCOCO13AG00002300000000001239373600000000000000100000000000000000000000006609Z07920200415X066000000
2MAIL0000153333BR10        BRNC        BRNCCOCO    BRNCCOCO13AG00002400000000001239373700000000000000100000000000000000000000006609Z07920200415X066000000
2MAIL0000153333BR10        BRNC        BRNCCOCO    BRNCCOCO13AG00002500000000001239663300000000000001400000000000000000000000005593Z07920200415X066000000
2MAIL0000153333BR10        BRNC        BRNCCOCO    BRNCCOCO13AG00002600000000001239688300000000000001400000000000000000000000005593Z07920200415X066000000
2MAIL0000153333BR10        BRNC        BRNCCOCO    BRNCCOCO13AG00002700000000001239692000000000000001400000000000000000000000005593Z07920200415X066000000
2MAIL0000153333BR10        BRNC        BRNCCOCO    BRNCCOCO13AG00002800000000001239692100000000000001400000000000000000000000005593Z07920200415X066000000
2MAIL0000153333BR10        BRNC        BRNCCOCO    BRNCCOCO13AG00002900000000001241623700000000000000300000000000000000000000007795Z07920200415X066000000
2MAIL0000153333BR10        BRNC        BRNCCOCO    BRNCCOCO13AG00003000000000001242626100000000000001400000000000000000000000005593Z07920200415X066000000
1MAIL0000153334BR10        BRNC        BRNCCOCO    BRNCCOCO13AG2020041500:00:00OR  010000047216020004721602153334                             2020041520200415Z016CIF202004150000000000013138NN0                                                  0                                        
2MAIL0000153334BR10        BRNC        BRNCCOCO    BRNCCOCO13AG00000100000000001132036700000000000000100000000000000000000000001654Z01620200415X066000000
2MAIL0000153334BR10        BRNC        BRNCCOCO    BRNCCOCO13AG00000200000000001215533700000000000000100000000000000000000000001654Z01620200415X066000000
2MAIL0000153334BR10        BRNC        BRNCCOCO    BRNCCOCO13AG00000300000000001228512700000000000000100000000000000000000000004437Z01620200415X066000000
2MAIL0000153334BR10        BRNC        BRNCCOCO    BRNCCOCO13AG00000400000000001231189200000000000000100000000000000000000000004437Z01620200415X066000000
2MAIL0000153334BR10        BRNC        BRNCCOCO    BRNCCOCO13AG00000500000000001236515000000000000000500000000000000000000000000956Z01620200415X066000000
1MAIL0000153335BR10        BRNC        BRNCCOCO    BRNCCOCO13AG2020041500:00:00OR  010000057461810005746181153335                             2020041520200415Z016CIF202004150000000000034768NN0                                                  0                                        
2MAIL0000153335BR10        BRNC        BRNCCOCO    BRNCCOCO13AG00000100000000001132019800000000000000100000000000000000000000002076Z01620200415X066000000
2MAIL0000153335BR10        BRNC        BRNCCOCO    BRNCCOCO13AG00000200000000001132020900000000000000100000000000000000000000002076Z01620200415X066000000
2MAIL0000153335BR10        BRNC        BRNCCOCO    BRNCCOCO13AG00000300000000001227395500000000000000100000000000000000000000002291Z01620200415X066000000
2MAIL0000153335BR10        BRNC        BRNCCOCO    BRNCCOCO13AG00000400000000001234705800000000000000100000000000000000000000005568Z01620200415X066000000
2MAIL0000153335BR10        BRNC        BRNCCOCO    BRNCCOCO13AG00000500000000001235699400000000000001000000000000000000000000004211Z01620200415X066000000
2MAIL0000153335BR10        BRNC        BRNCCOCO    BRNCCOCO13AG00000600000000001236512900000000000000500000000000000000000000001002Z01620200415X066000000
2MAIL0000153335BR10        BRNC        BRNCCOCO    BRNCCOCO13AG00000700000000001236515000000000000000500000000000000000000000001002Z01620200415X066000000
2MAIL0000153335BR10        BRNC        BRNCCOCO    BRNCCOCO13AG00000800000000001236898000000000000000100000000000000000000000002291Z01620200415X066000000
2MAIL0000153335BR10        BRNC        BRNCCOCO    BRNCCOCO13AG00000900000000001239688800000000000001400000000000000000000000005885Z01620200415X066000000
2MAIL0000153335BR10        BRNC        BRNCCOCO    BRNCCOCO13AG00001000000000001239692300000000000001400000000000000000000000005885Z01620200415X066000000
2MAIL0000153335BR10        BRNC        BRNCCOCO    BRNCCOCO13AG00001100000000001241623700000000000000100000000000000000000000002481Z01620200415X066000000
1MAIL0000153336BR10        BRNC        BRNCCOCO    BRNCCOCO13AG2020041500:00:00OR  010000060743740006074374153336                             2020041520200415Z016CIF202004150000000000015024NN0                                                  0                                        
2MAIL0000153336BR10        BRNC        BRNCCOCO    BRNCCOCO13AG00000100000000001132019800000000000000100000000000000000000000002076Z01620200415X066000000
2MAIL0000153336BR10        BRNC        BRNCCOCO    BRNCCOCO13AG00000200000000001132033100000000000000100000000000000000000000002291Z01620200415X066000000
2MAIL0000153336BR10        BRNC        BRNCCOCO    BRNCCOCO13AG00000300000000001132036700000000000000100000000000000000000000002291Z01620200415X066000000
2MAIL0000153336BR10        BRNC        BRNCCOCO    BRNCCOCO13AG00000400000000001239688800000000000001400000000000000000000000005885Z01620200415X066000000
2MAIL0000153336BR10        BRNC        BRNCCOCO    BRNCCOCO13AG00000500000000001241623700000000000000100000000000000000000000002481Z01620200415X066000000
1MAIL0000153337BR10        BRNC        BRNCCOCO    BRNCCOCO13AG2020041500:00:00OR  010000058123650005812365153337                             2020041520200415Z016CIF202004150000000000012082NN0                                                  0                                        
2MAIL0000153337BR10        BRNC        BRNCCOCO    BRNCCOCO13AG00000100000000001132019800000000000000100000000000000000000000001498Z01620200415X066000000
2MAIL0000153337BR10        BRNC        BRNCCOCO    BRNCCOCO13AG00000200000000001132033100000000000000100000000000000000000000001654Z01620200415X066000000
2MAIL0000153337BR10        BRNC        BRNCCOCO    BRNCCOCO13AG00000300000000001132036700000000000000100000000000000000000000001654Z01620200415X066000000
2MAIL0000153337BR10        BRNC        BRNCCOCO    BRNCCOCO13AG00000400000000001239688800000000000001400000000000000000000000004684Z01620200415X066000000
2MAIL0000153337BR10        BRNC        BRNCCOCO    BRNCCOCO13AG00000500000000001241623700000000000000100000000000000000000000002592Z01620200415X066000000
1MAIL0000153338BR10        BRNC        BRNCCOCO    BRNCCOCO13AG2020041500:00:00OR  010000029800070002980007153338                             2020041520200415Z016CIF202004150000000000026110NN0                                                  0                                        
2MAIL0000153338BR10        BRNC        BRNCCOCO    BRNCCOCO13AG00000100000000001132019800000000000000100000000000000000000000001967Z01620200415X066000000
2MAIL0000153338BR10        BRNC        BRNCCOCO    BRNCCOCO13AG00000200000000001132033100000000000000100000000000000000000000002173Z01620200415X066000000
2MAIL0000153338BR10        BRNC        BRNCCOCO    BRNCCOCO13AG00000300000000001132036700000000000000200000000000000000000000004345Z01620200415X066000000
2MAIL0000153338BR10        BRNC        BRNCCOCO    BRNCCOCO13AG00000400000000001215533700000000000000100000000000000000000000002173Z01620200415X066000000
2MAIL0000153338BR10        BRNC        BRNCCOCO    BRNCCOCO13AG00000500000000001228274000000000000000100000000000000000000000005280Z01620200415X066000000
2MAIL0000153338BR10        BRNC        BRNCCOCO    BRNCCOCO13AG00000600000000001236512900000000000000500000000000000000000000000999Z01620200415X066000000
2MAIL0000153338BR10        BRNC        BRNCCOCO    BRNCCOCO13AG00000700000000001236515000000000000000500000000000000000000000000999Z01620200415X066000000
2MAIL0000153338BR10        BRNC        BRNCCOCO    BRNCCOCO13AG00000800000000001239688800000000000001400000000000000000000000005582Z01620200415X066000000
2MAIL0000153338BR10        BRNC        BRNCCOCO    BRNCCOCO13AG00000900000000001241623700000000000000100000000000000000000000002592Z01620200415X066000000
1MAIL0000153339BR10        BRNC        BRNCCOCO    BRNCCOCO13AG2020041500:00:00OR  010000034771880003477188153339                             2020041520200415Z016CIF202004150000000000011429NN0                                                  0                                        
2MAIL0000153339BR10        BRNC        BRNCCOCO    BRNCCOCO13AG00000100000000001132019800000000000000100000000000000000000000002076Z01620200415X066000000
2MAIL0000153339BR10        BRNC        BRNCCOCO    BRNCCOCO13AG00000200000000001132033100000000000000100000000000000000000000002291Z01620200415X066000000
2MAIL0000153339BR10        BRNC        BRNCCOCO    BRNCCOCO13AG00000300000000001132036700000000000000200000000000000000000000004581Z01620200415X066000000
2MAIL0000153339BR10        BRNC        BRNCCOCO    BRNCCOCO13AG00000400000000001241623700000000000000100000000000000000000000002481Z01620200415X066000000
1MAIL0000153340BR10        BRNC        BRNCCOCO    BRNCCOCO13AG2020041500:00:00OR  010000029804870002980487153340                             2020041520200415Z016CIF202004150000000000262409NN0                                                  0                                        
2MAIL0000153340BR10        BRNC        BRNCCOCO    BRNCCOCO13AG00000100000000001132004000000000000000500000000000000000000000005102Z01620200415X066000000
2MAIL0000153340BR10        BRNC        BRNCCOCO    BRNCCOCO13AG00000200000000001132004200000000000000500000000000000000000000007033Z01620200415X066000000
2MAIL0000153340BR10        BRNC        BRNCCOCO    BRNCCOCO13AG00000300000000001132019700000000000000200000000000000000000000003936Z01620200415X066000000
2MAIL0000153340BR10        BRNC        BRNCCOCO    BRNCCOCO13AG00000400000000001132019800000000000000200000000000000000000000003936Z01620200415X066000000
2MAIL0000153340BR10        BRNC        BRNCCOCO    BRNCCOCO13AG00000500000000001132019900000000000000200000000000000000000000003936Z01620200415X066000000
2MAIL0000153340BR10        BRNC        BRNCCOCO    BRNCCOCO13AG00000600000000001132020900000000000000200000000000000000000000003936Z01620200415X066000000
2MAIL0000153340BR10        BRNC        BRNCCOCO    BRNCCOCO13AG00000700000000001132030900000000000000200000000000000000000000006414Z01620200415X066000000
2MAIL0000153340BR10        BRNC        BRNCCOCO    BRNCCOCO13AG00000800000000001132033100000000000000500000000000000000000000010863Z01620200415X066000000
2MAIL0000153340BR10        BRNC        BRNCCOCO    BRNCCOCO13AG00000900000000001132034900000000000000500000000000000000000000011074Z01620200415X066000000
2MAIL0000153340BR10        BRNC        BRNCCOCO    BRNCCOCO13AG00001000000000001132036700000000000001000000000000000000000000021728Z01620200415X066000000
2MAIL0000153340BR10        BRNC        BRNCCOCO    BRNCCOCO13AG00001100000000001132200400000000000000100000000000000000000000002115Z01620200415X066000000
2MAIL0000153340BR10        BRNC        BRNCCOCO    BRNCCOCO13AG00001200000000001132400100000000000000200000000000000000000000006006Z01620200415X066000000
2MAIL0000153340BR10        BRNC        BRNCCOCO    BRNCCOCO13AG00001300000000001214448800000000000000200000000000000000000000009635Z01620200415X066000000
2MAIL0000153340BR10        BRNC        BRNCCOCO    BRNCCOCO13AG00001400000000001214448900000000000000200000000000000000000000009226Z01620200415X066000000
2MAIL0000153340BR10        BRNC        BRNCCOCO    BRNCCOCO13AG00001500000000001214470800000000000000200000000000000000000000008925Z01620200415X066000000
2MAIL0000153340BR10        BRNC        BRNCCOCO    BRNCCOCO13AG00001600000000001215533700000000000000500000000000000000000000010863Z01620200415X066000000
2MAIL0000153340BR10        BRNC        BRNCCOCO    BRNCCOCO13AG00001700000000001221415400000000000000200000000000000000000000007083Z01620200415X066000000
2MAIL0000153340BR10        BRNC        BRNCCOCO    BRNCCOCO13AG00001800000000001223975300000000000000100000000000000000000000005076Z01620200415X066000000
2MAIL0000153340BR10        BRNC        BRNCCOCO    BRNCCOCO13AG00001900000000001226089600000000000001200000000000000000000000004580Z01620200415X066000000
2MAIL0000153340BR10        BRNC        BRNCCOCO    BRNCCOCO13AG00002000000000001227395500000000000000500000000000000000000000010863Z01620200415X066000000
2MAIL0000153340BR10        BRNC        BRNCCOCO    BRNCCOCO13AG00002100000000001227735000000000000000200000000000000000000000003936Z01620200415X066000000
2MAIL0000153340BR10        BRNC        BRNCCOCO    BRNCCOCO13AG00002200000000001231231200000000000000100000000000000000000000005076Z01620200415X066000000
2MAIL0000153340BR10        BRNC        BRNCCOCO    BRNCCOCO13AG00002300000000001231389600000000000000500000000000000000000000010863Z01620200415X066000000
2MAIL0000153340BR10        BRNC        BRNCCOCO    BRNCCOCO13AG00002400000000001235699400000000000002000000000000000000000000007648Z01620200415X066000000
2MAIL0000153340BR10        BRNC        BRNCCOCO    BRNCCOCO13AG00002500000000001236898000000000000000500000000000000000000000010863Z01620200415X066000000
2MAIL0000153340BR10        BRNC        BRNCCOCO    BRNCCOCO13AG00002600000000001239373400000000000000100000000000000000000000006340Z01620200415X066000000
2MAIL0000153340BR10        BRNC        BRNCCOCO    BRNCCOCO13AG00002700000000001239663300000000000001400000000000000000000000005343Z01620200415X066000000
2MAIL0000153340BR10        BRNC        BRNCCOCO    BRNCCOCO13AG00002800000000001239688300000000000001400000000000000000000000005343Z01620200415X066000000
2MAIL0000153340BR10        BRNC        BRNCCOCO    BRNCCOCO13AG00002900000000001239688500000000000001400000000000000000000000005343Z01620200415X066000000
2MAIL0000153340BR10        BRNC        BRNCCOCO    BRNCCOCO13AG00003000000000001239688600000000000001400000000000000000000000005343Z01620200415X066000000
2MAIL0000153340BR10        BRNC        BRNCCOCO    BRNCCOCO13AG00003100000000001239688700000000000001400000000000000000000000005343Z01620200415X066000000
2MAIL0000153340BR10        BRNC        BRNCCOCO    BRNCCOCO13AG00003200000000001239688800000000000001400000000000000000000000005343Z01620200415X066000000
2MAIL0000153340BR10        BRNC        BRNCCOCO    BRNCCOCO13AG00003300000000001239692000000000000001400000000000000000000000005343Z01620200415X066000000
2MAIL0000153340BR10        BRNC        BRNCCOCO    BRNCCOCO13AG00003400000000001239692300000000000001400000000000000000000000005343Z01620200415X066000000
2MAIL0000153340BR10        BRNC        BRNCCOCO    BRNCCOCO13AG00003500000000001241577400000000000000500000000000000000000000004332Z01620200415X066000000
2MAIL0000153340BR10        BRNC        BRNCCOCO    BRNCCOCO13AG00003600000000001241623700000000000000500000000000000000000000012934Z01620200415X066000000
2MAIL0000153340BR10        BRNC        BRNCCOCO    BRNCCOCO13AG00003700000000001242765000000000000001400000000000000000000000005343Z01620200415X066000000
1MAIL0000153341BR10        BRNC        BRNCCOCO    BRNCCOCO13AG2020041500:00:00OR  010000056524000005652400153341                             2020041520200415Z016CIF202004150000000000010691NN0                                                  0                                        
2MAIL0000153341BR10        BRNC        BRNCCOCO    BRNCCOCO13AG00000100000000001132033100000000000000100000000000000000000000002173Z01620200415X066000000
2MAIL0000153341BR10        BRNC        BRNCCOCO    BRNCCOCO13AG00000200000000001132036700000000000000100000000000000000000000002173Z01620200415X066000000
2MAIL0000153341BR10        BRNC        BRNCCOCO    BRNCCOCO13AG00000300000000001132200400000000000000300000000000000000000000006345Z01620200415X066000000
1MAIL0000153342BR10        BRNC        BRNCCOCO    BRNCCOCO13AG2020041500:00:00OR  010000046183260004618326153342                             2020041520200415Z016CIF202004150000000000028104NN0                                                  0                                        
2MAIL0000153342BR10        BRNC        BRNCCOCO    BRNCCOCO13AG00000100000000001239663300000000000001400000000000000000000000004684Z01620200415X066000000
2MAIL0000153342BR10        BRNC        BRNCCOCO    BRNCCOCO13AG00000200000000001239688300000000000001400000000000000000000000004684Z01620200415X066000000
2MAIL0000153342BR10        BRNC        BRNCCOCO    BRNCCOCO13AG00000300000000001239688600000000000001400000000000000000000000004684Z01620200415X066000000
2MAIL0000153342BR10        BRNC        BRNCCOCO    BRNCCOCO13AG00000400000000001239688800000000000001400000000000000000000000004684Z01620200415X066000000
2MAIL0000153342BR10        BRNC        BRNCCOCO    BRNCCOCO13AG00000500000000001239692100000000000001400000000000000000000000004684Z01620200415X066000000
2MAIL0000153342BR10        BRNC        BRNCCOCO    BRNCCOCO13AG00000600000000001242626100000000000001400000000000000000000000004684Z01620200415X066000000
1MAIL0000153343BR10        BRNC        BRNCCOCO    BRNCCOCO13AG2020041500:00:00OR  010000054592090005459209153343                             2020041520200415Z016CIF202004150000000000015503NN0                                                  0                                        
2MAIL0000153343BR10        BRNC        BRNCCOCO    BRNCCOCO13AG00000100000000001239688600000000000001400000000000000000000000005885Z01620200415X066000000
2MAIL0000153343BR10        BRNC        BRNCCOCO    BRNCCOCO13AG00000200000000001241577400000000000001000000000000000000000000009618Z01620200415X066000000
1MAIL0000153344BR10        BRNC        BRNCCOCO    BRNCCOCO13AG2020041500:00:00OR  010000054592090005459209153344                             2020041520200415Z016CIF202004150000000000016518NN0                                                  0                                        
2MAIL0000153344BR10        BRNC        BRNCCOCO    BRNCCOCO13AG00000100000000001132019800000000000000100000000000000000000000002012Z01620200415X066003000
2MAIL0000153344BR10        BRNC        BRNCCOCO    BRNCCOCO13AG00000200000000001132033100000000000000100000000000000000000000002223Z01620200415X066003000
2MAIL0000153344BR10        BRNC        BRNCCOCO    BRNCCOCO13AG00000300000000001132036700000000000000100000000000000000000000002223Z01620200415X066003000
2MAIL0000153344BR10        BRNC        BRNCCOCO    BRNCCOCO13AG00000400000000001236512900000000000000500000000000000000000000000973Z01620200415X066003000
2MAIL0000153344BR10        BRNC        BRNCCOCO    BRNCCOCO13AG00000500000000001236515000000000000000500000000000000000000000000973Z01620200415X066003000
2MAIL0000153344BR10        BRNC        BRNCCOCO    BRNCCOCO13AG00000600000000001239688800000000000001400000000000000000000000005708Z01620200415X066003000
2MAIL0000153344BR10        BRNC        BRNCCOCO    BRNCCOCO13AG00000700000000001241623700000000000000100000000000000000000000002406Z01620200415X066003000
