1MAIL0000152519BR10        BRNC        BRNCCOCO    BRNCCOCO13AG2020040800:00:00OR  010000048475110004847511152519                             2020040820200408Z016CIF202004080000000000013037NN0                                                  0                                        
2MAIL0000152519BR10        BRNC        BRNCCOCO    BRNCCOCO13AG00000100000000001132033100000000000000100000000000000000000000002173Z01620200408X066000000
2MAIL0000152519BR10        BRNC        BRNCCOCO    BRNCCOCO13AG00000200000000001132036700000000000000200000000000000000000000004345Z01620200408X066000000
2MAIL0000152519BR10        BRNC        BRNCCOCO    BRNCCOCO13AG00000300000000001215533700000000000000100000000000000000000000002173Z01620200408X066000000
2MAIL0000152519BR10        BRNC        BRNCCOCO    BRNCCOCO13AG00000400000000001227395500000000000000100000000000000000000000002173Z01620200408X066000000
2MAIL0000152519BR10        BRNC        BRNCCOCO    BRNCCOCO13AG00000500000000001236898000000000000000100000000000000000000000002173Z01620200408X066000000
1MAIL0000152520BR10        BRNC        BRNCCOCO    BRNCCOCO13AG2020040800:00:00OR  010000046940250004694025152520                             2020040820200408Z016CIF202004080000000000116164NN0                                                  0                                        
2MAIL0000152520BR10        BRNC        BRNCCOCO    BRNCCOCO13AG00000100000000001132018300000000000000100000000000000000000000003735Z01620200408X066000000
2MAIL0000152520BR10        BRNC        BRNCCOCO    BRNCCOCO13AG00000200000000001132019800000000000000100000000000000000000000002076Z01620200408X066000000
2MAIL0000152520BR10        BRNC        BRNCCOCO    BRNCCOCO13AG00000300000000001132019900000000000000100000000000000000000000002076Z01620200408X066000000
2MAIL0000152520BR10        BRNC        BRNCCOCO    BRNCCOCO13AG00000400000000001132033100000000000000500000000000000000000000011454Z01620200408X066000000
2MAIL0000152520BR10        BRNC        BRNCCOCO    BRNCCOCO13AG00000500000000001132036700000000000000500000000000000000000000011454Z01620200408X066000000
2MAIL0000152520BR10        BRNC        BRNCCOCO    BRNCCOCO13AG00000600000000001215533700000000000000200000000000000000000000004581Z01620200408X066000000
2MAIL0000152520BR10        BRNC        BRNCCOCO    BRNCCOCO13AG00000700000000001221415400000000000000100000000000000000000000003735Z01620200408X066000000
2MAIL0000152520BR10        BRNC        BRNCCOCO    BRNCCOCO13AG00000800000000001227395500000000000000200000000000000000000000004581Z01620200408X066000000
2MAIL0000152520BR10        BRNC        BRNCCOCO    BRNCCOCO13AG00000900000000001231389600000000000000200000000000000000000000004581Z01620200408X066000000
2MAIL0000152520BR10        BRNC        BRNCCOCO    BRNCCOCO13AG00001000000000001235699400000000000001000000000000000000000000004211Z01620200408X066000000
2MAIL0000152520BR10        BRNC        BRNCCOCO    BRNCCOCO13AG00001100000000001235699700000000000001000000000000000000000000004211Z01620200408X066000000
2MAIL0000152520BR10        BRNC        BRNCCOCO    BRNCCOCO13AG00001200000000001235699800000000000001000000000000000000000000004211Z01620200408X066000000
2MAIL0000152520BR10        BRNC        BRNCCOCO    BRNCCOCO13AG00001300000000001236512900000000000007000000000000000000000000014030Z01620200408X066000000
2MAIL0000152520BR10        BRNC        BRNCCOCO    BRNCCOCO13AG00001400000000001236515000000000000007000000000000000000000000014030Z01620200408X066000000
2MAIL0000152520BR10        BRNC        BRNCCOCO    BRNCCOCO13AG00001500000000001236898000000000000000200000000000000000000000004581Z01620200408X066000000
2MAIL0000152520BR10        BRNC        BRNCCOCO    BRNCCOCO13AG00001600000000001239663300000000000001400000000000000000000000005885Z01620200408X066000000
2MAIL0000152520BR10        BRNC        BRNCCOCO    BRNCCOCO13AG00001700000000001239688600000000000001400000000000000000000000005885Z01620200408X066000000
2MAIL0000152520BR10        BRNC        BRNCCOCO    BRNCCOCO13AG00001800000000001239688800000000000001400000000000000000000000005885Z01620200408X066000000
2MAIL0000152520BR10        BRNC        BRNCCOCO    BRNCCOCO13AG00001900000000001241623700000000000000200000000000000000000000004962Z01620200408X066000000
1MAIL0000152521BR10        BRNC        BRNCCOCO    BRNCCOCO13AG2020040800:00:00OR  010000029377250002937725152521                             2020040820200408Z016CIF202004080000000000029975NN0                                                  0                                        
2MAIL0000152521BR10        BRNC        BRNCCOCO    BRNCCOCO13AG00000100000000001132019800000000000000100000000000000000000000002076Z01620200408X066000000
2MAIL0000152521BR10        BRNC        BRNCCOCO    BRNCCOCO13AG00000200000000001132033100000000000000100000000000000000000000002291Z01620200408X066000000
2MAIL0000152521BR10        BRNC        BRNCCOCO    BRNCCOCO13AG00000300000000001132036700000000000000200000000000000000000000004581Z01620200408X066000000
2MAIL0000152521BR10        BRNC        BRNCCOCO    BRNCCOCO13AG00000400000000001236512900000000000000500000000000000000000000001002Z01620200408X066000000
2MAIL0000152521BR10        BRNC        BRNCCOCO    BRNCCOCO13AG00000500000000001236515000000000000000500000000000000000000000001002Z01620200408X066000000
2MAIL0000152521BR10        BRNC        BRNCCOCO    BRNCCOCO13AG00000600000000001236898000000000000000100000000000000000000000002291Z01620200408X066000000
2MAIL0000152521BR10        BRNC        BRNCCOCO    BRNCCOCO13AG00000700000000001239688800000000000001400000000000000000000000005885Z01620200408X066000000
2MAIL0000152521BR10        BRNC        BRNCCOCO    BRNCCOCO13AG00000800000000001239692100000000000001400000000000000000000000005885Z01620200408X066000000
2MAIL0000152521BR10        BRNC        BRNCCOCO    BRNCCOCO13AG00000900000000001241623700000000000000200000000000000000000000004962Z01620200408X066000000
1MAIL0000152522BR10        BRNC        BRNCCOCO    BRNCCOCO13AG2020040800:00:00OR  010000045572300004557230152522                             2020040820200408Z016CIF202004080000000000014676NN0                                                  0                                        
2MAIL0000152522BR10        BRNC        BRNCCOCO    BRNCCOCO13AG00000100000000001236512900000000000003500000000000000000000000007338Z01620200408X066000000
2MAIL0000152522BR10        BRNC        BRNCCOCO    BRNCCOCO13AG00000200000000001236515000000000000003500000000000000000000000007338Z01620200408X066000000
