1MAIL0000150451BR10        BRNC        BRNCCOCO    BRNCCOCO13AG2020032000:00:00OR  010000029045720002904572150451                             2020032020200320Z016CIF202003200000000000077693NN0                                                  0                                        
2MAIL0000150451BR10        BRNC        BRNCCOCO    BRNCCOCO13AG00000100000000001132018300000000000000100000000000000000000000003735Z01620200320X066000000
2MAIL0000150451BR10        BRNC        BRNCCOCO    BRNCCOCO13AG00000200000000001132019800000000000000100000000000000000000000002076Z01620200320X066000000
2MAIL0000150451BR10        BRNC        BRNCCOCO    BRNCCOCO13AG00000300000000001132033100000000000000200000000000000000000000004581Z01620200320X066000000
2MAIL0000150451BR10        BRNC        BRNCCOCO    BRNCCOCO13AG00000400000000001132034900000000000000500000000000000000000000012283Z01620200320X066000000
2MAIL0000150451BR10        BRNC        BRNCCOCO    BRNCCOCO13AG00000500000000001132036700000000000000400000000000000000000000009163Z01620200320X066000000
2MAIL0000150451BR10        BRNC        BRNCCOCO    BRNCCOCO13AG00000600000000001132200400000000000000100000000000000000000000002230Z01620200320X066000000
2MAIL0000150451BR10        BRNC        BRNCCOCO    BRNCCOCO13AG00000700000000001215533700000000000000200000000000000000000000004581Z01620200320X066000000
2MAIL0000150451BR10        BRNC        BRNCCOCO    BRNCCOCO13AG00000800000000001221415400000000000000100000000000000000000000003735Z01620200320X066000000
2MAIL0000150451BR10        BRNC        BRNCCOCO    BRNCCOCO13AG00000900000000001227395500000000000000200000000000000000000000004581Z01620200320X066000000
2MAIL0000150451BR10        BRNC        BRNCCOCO    BRNCCOCO13AG00001000000000001236512800000000000000800000000000000000000000001526Z01620200320X066000000
2MAIL0000150451BR10        BRNC        BRNCCOCO    BRNCCOCO13AG00001100000000001236512900000000000000500000000000000000000000001002Z01620200320X066000000
2MAIL0000150451BR10        BRNC        BRNCCOCO    BRNCCOCO13AG00001200000000001236515000000000000000500000000000000000000000001002Z01620200320X066000000
2MAIL0000150451BR10        BRNC        BRNCCOCO    BRNCCOCO13AG00001300000000001236898000000000000000200000000000000000000000004581Z01620200320X066000000
2MAIL0000150451BR10        BRNC        BRNCCOCO    BRNCCOCO13AG00001400000000001239688300000000000001400000000000000000000000005885Z01620200320X066000000
2MAIL0000150451BR10        BRNC        BRNCCOCO    BRNCCOCO13AG00001500000000001239688600000000000001400000000000000000000000005885Z01620200320X066000000
2MAIL0000150451BR10        BRNC        BRNCCOCO    BRNCCOCO13AG00001600000000001239688700000000000001400000000000000000000000005885Z01620200320X066000000
2MAIL0000150451BR10        BRNC        BRNCCOCO    BRNCCOCO13AG00001700000000001241623700000000000000200000000000000000000000004962Z01620200320X066000000
1MAIL0000150452BR10        BRNC        BRNCCOCO    BRNCCOCO13AG2020032000:00:00OR  010000028991200002899120150452                             2020032020200320Z016CIF202003200000000000066713NN0                                                  0                                        
2MAIL0000150452BR10        BRNC        BRNCCOCO    BRNCCOCO13AG00000100000000001132036700000000000000100000000000000000000000002173Z01620200320X066000000
2MAIL0000150452BR10        BRNC        BRNCCOCO    BRNCCOCO13AG00000200000000001214448800000000000000100000000000000000000000005068Z01620200320X066000000
2MAIL0000150452BR10        BRNC        BRNCCOCO    BRNCCOCO13AG00000300000000001214451500000000000001000000000000000000000000043920Z01620200320X066000000
2MAIL0000150452BR10        BRNC        BRNCCOCO    BRNCCOCO13AG00000400000000001241623700000000000000600000000000000000000000015552Z01620200320X066000000
1MAIL0000150453BR10        BRNC        BRNCCOCO    BRNCCOCO13AG2020032000:00:00OR  010000029032370002903237150453                             2020032020200320Z016CIF202003200000000000097119NN0                                                  0                                        
2MAIL0000150453BR10        BRNC        BRNCCOCO    BRNCCOCO13AG00000100000000001132004200000000000000500000000000000000000000007806Z01620200320X066000000
2MAIL0000150453BR10        BRNC        BRNCCOCO    BRNCCOCO13AG00000200000000001132018300000000000000100000000000000000000000003735Z01620200320X066000000
2MAIL0000150453BR10        BRNC        BRNCCOCO    BRNCCOCO13AG00000300000000001132019800000000000000100000000000000000000000002076Z01620200320X066000000
2MAIL0000150453BR10        BRNC        BRNCCOCO    BRNCCOCO13AG00000400000000001132034900000000000000500000000000000000000000012283Z01620200320X066000000
2MAIL0000150453BR10        BRNC        BRNCCOCO    BRNCCOCO13AG00000500000000001132036700000000000000300000000000000000000000006872Z01620200320X066000000
2MAIL0000150453BR10        BRNC        BRNCCOCO    BRNCCOCO13AG00000600000000001132200400000000000000200000000000000000000000004460Z01620200320X066000000
2MAIL0000150453BR10        BRNC        BRNCCOCO    BRNCCOCO13AG00000700000000001132400100000000000000100000000000000000000000003165Z01620200320X066000000
2MAIL0000150453BR10        BRNC        BRNCCOCO    BRNCCOCO13AG00000800000000001221415400000000000000100000000000000000000000003735Z01620200320X066000000
2MAIL0000150453BR10        BRNC        BRNCCOCO    BRNCCOCO13AG00000900000000001223975300000000000000100000000000000000000000005568Z01620200320X066000000
2MAIL0000150453BR10        BRNC        BRNCCOCO    BRNCCOCO13AG00001000000000001226089600000000000001200000000000000000000000005045Z01620200320X066000000
2MAIL0000150453BR10        BRNC        BRNCCOCO    BRNCCOCO13AG00001100000000001231189200000000000000100000000000000000000000005568Z01620200320X066000000
2MAIL0000150453BR10        BRNC        BRNCCOCO    BRNCCOCO13AG00001200000000001231231200000000000000100000000000000000000000005568Z01620200320X066000000
2MAIL0000150453BR10        BRNC        BRNCCOCO    BRNCCOCO13AG00001300000000001231233000000000000000100000000000000000000000005568Z01620200320X066000000
2MAIL0000150453BR10        BRNC        BRNCCOCO    BRNCCOCO13AG00001400000000001236512800000000000000800000000000000000000000001526Z01620200320X066000000
2MAIL0000150453BR10        BRNC        BRNCCOCO    BRNCCOCO13AG00001500000000001236512900000000000001000000000000000000000000002004Z01620200320X066000000
2MAIL0000150453BR10        BRNC        BRNCCOCO    BRNCCOCO13AG00001600000000001236515000000000000001000000000000000000000000002004Z01620200320X066000000
2MAIL0000150453BR10        BRNC        BRNCCOCO    BRNCCOCO13AG00001700000000001239688600000000000001400000000000000000000000005885Z01620200320X066000000
2MAIL0000150453BR10        BRNC        BRNCCOCO    BRNCCOCO13AG00001800000000001239688800000000000001400000000000000000000000005885Z01620200320X066000000
2MAIL0000150453BR10        BRNC        BRNCCOCO    BRNCCOCO13AG00001900000000001239692100000000000001400000000000000000000000005885Z01620200320X066000000
2MAIL0000150453BR10        BRNC        BRNCCOCO    BRNCCOCO13AG00002000000000001241623700000000000000100000000000000000000000002481Z01620200320X066000000
1MAIL0000150454BR10        BRNC        BRNCCOCO    BRNCCOCO13AG2020032000:00:00OR  010000061299360006129936150454                             2020032020200320Z016CIF202003200000000000010060NN0                                                  0                                        
2MAIL0000150454BR10        BRNC        BRNCCOCO    BRNCCOCO13AG00000100000000001132033100000000000000100000000000000000000000002173Z01620200320X066000000
2MAIL0000150454BR10        BRNC        BRNCCOCO    BRNCCOCO13AG00000200000000001132036700000000000000100000000000000000000000002173Z01620200320X066000000
2MAIL0000150454BR10        BRNC        BRNCCOCO    BRNCCOCO13AG00000300000000001215533700000000000000100000000000000000000000002173Z01620200320X066000000
2MAIL0000150454BR10        BRNC        BRNCCOCO    BRNCCOCO13AG00000400000000001221415400000000000000100000000000000000000000003541Z01620200320X066000000
1MAIL0000150455BR10        BRNC        BRNCCOCO    BRNCCOCO13AG2020032000:00:00OR  010000054325250005432525150455                             2020032020200320Z079CIF202003200000000000018724NN0                                                  0                                        
2MAIL0000150455BR10        BRNC        BRNCCOCO    BRNCCOCO13AG00000100000000001132033100000000000000100000000000000000000000002179Z07920200320X066000000
2MAIL0000150455BR10        BRNC        BRNCCOCO    BRNCCOCO13AG00000200000000001132036700000000000000200000000000000000000000004357Z07920200320X066000000
2MAIL0000150455BR10        BRNC        BRNCCOCO    BRNCCOCO13AG00000300000000001236512900000000000000500000000000000000000000000999Z07920200320X066000000
2MAIL0000150455BR10        BRNC        BRNCCOCO    BRNCCOCO13AG00000400000000001236515000000000000001500000000000000000000000002997Z07920200320X066000000
2MAIL0000150455BR10        BRNC        BRNCCOCO    BRNCCOCO13AG00000500000000001239688800000000000001400000000000000000000000005593Z07920200320X066000000
2MAIL0000150455BR10        BRNC        BRNCCOCO    BRNCCOCO13AG00000600000000001241623700000000000000100000000000000000000000002599Z07920200320X066000000
1MAIL0000150456BR10        BRNC        BRNCCOCO    BRNCCOCO13AG2020032000:00:00OR  010000050978130005097813150456                             2020032020200320Z016CIF202003200000000000106080NN0                                                  0                                        
2MAIL0000150456BR10        BRNC        BRNCCOCO    BRNCCOCO13AG00000100000000001132019800000000000000100000000000000000000000002076Z01620200320X066000000
2MAIL0000150456BR10        BRNC        BRNCCOCO    BRNCCOCO13AG00000200000000001132033100000000000001000000000000000000000000022909Z01620200320X066000000
2MAIL0000150456BR10        BRNC        BRNCCOCO    BRNCCOCO13AG00000300000000001132036700000000000001200000000000000000000000027490Z01620200320X066000000
2MAIL0000150456BR10        BRNC        BRNCCOCO    BRNCCOCO13AG00000400000000001215533700000000000001000000000000000000000000022909Z01620200320X066000000
2MAIL0000150456BR10        BRNC        BRNCCOCO    BRNCCOCO13AG00000500000000001239688800000000000001400000000000000000000000005885Z01620200320X066000000
2MAIL0000150456BR10        BRNC        BRNCCOCO    BRNCCOCO13AG00000600000000001241623700000000000001000000000000000000000000024811Z01620200320X066000000
1MAIL0000150457BR10        BRNC        BRNCCOCO    BRNCCOCO13AG2020032000:00:00OR  010000058271950005827195150457                             2020032020200320Z016CIF202003200000000000025320NN0                                                  0                                        
2MAIL0000150457BR10        BRNC        BRNCCOCO    BRNCCOCO13AG00000100000000001132036700000000000000100000000000000000000000002291Z01620200320X066000000
2MAIL0000150457BR10        BRNC        BRNCCOCO    BRNCCOCO13AG00000200000000001226089600000000000001200000000000000000000000005045Z01620200320X066000000
2MAIL0000150457BR10        BRNC        BRNCCOCO    BRNCCOCO13AG00000300000000001239692000000000000001400000000000000000000000005885Z01620200320X066000000
2MAIL0000150457BR10        BRNC        BRNCCOCO    BRNCCOCO13AG00000400000000001241577400000000000001000000000000000000000000009618Z01620200320X066000000
2MAIL0000150457BR10        BRNC        BRNCCOCO    BRNCCOCO13AG00000500000000001241623700000000000000100000000000000000000000002481Z01620200320X066000000
1MAIL0000150458BR10        BRNC        BRNCCOCO    BRNCCOCO13AG2020032000:00:00OR  010000029799440002979944150458                             2020032020200320Z016CIF202003200000000000146615NN0                                                  0                                        
2MAIL0000150458BR10        BRNC        BRNCCOCO    BRNCCOCO13AG00000100000000001132033100000000000001000000000000000000000000022909Z01620200320X066000000
2MAIL0000150458BR10        BRNC        BRNCCOCO    BRNCCOCO13AG00000200000000001132036700000000000003200000000000000000000000073308Z01620200320X066000000
2MAIL0000150458BR10        BRNC        BRNCCOCO    BRNCCOCO13AG00000300000000001215533700000000000001000000000000000000000000022909Z01620200320X066000000
2MAIL0000150458BR10        BRNC        BRNCCOCO    BRNCCOCO13AG00000400000000001227395500000000000000700000000000000000000000016035Z01620200320X066000000
2MAIL0000150458BR10        BRNC        BRNCCOCO    BRNCCOCO13AG00000500000000001231389600000000000000500000000000000000000000011454Z01620200320X066000000
1MAIL0000150459BR10        BRNC        BRNCCOCO    BRNCCOCO13AG2020032000:00:00OR  010000030571410003057141150459                             2020032020200320Z016CIF202003200000000000015246NN0                                                  0                                        
2MAIL0000150459BR10        BRNC        BRNCCOCO    BRNCCOCO13AG00000100000000001132019800000000000000100000000000000000000000001498Z01620200320X066000000
2MAIL0000150459BR10        BRNC        BRNCCOCO    BRNCCOCO13AG00000200000000001132033100000000000000100000000000000000000000001654Z01620200320X066000000
2MAIL0000150459BR10        BRNC        BRNCCOCO    BRNCCOCO13AG00000300000000001132036700000000000000100000000000000000000000001654Z01620200320X066000000
2MAIL0000150459BR10        BRNC        BRNCCOCO    BRNCCOCO13AG00000400000000001215533700000000000000100000000000000000000000001654Z01620200320X066000000
2MAIL0000150459BR10        BRNC        BRNCCOCO    BRNCCOCO13AG00000500000000001227395500000000000000100000000000000000000000001654Z01620200320X066000000
2MAIL0000150459BR10        BRNC        BRNCCOCO    BRNCCOCO13AG00000600000000001231389600000000000000100000000000000000000000001654Z01620200320X066000000
2MAIL0000150459BR10        BRNC        BRNCCOCO    BRNCCOCO13AG00000700000000001236512900000000000001000000000000000000000000001912Z01620200320X066000000
2MAIL0000150459BR10        BRNC        BRNCCOCO    BRNCCOCO13AG00000800000000001236515000000000000001000000000000000000000000001912Z01620200320X066000000
2MAIL0000150459BR10        BRNC        BRNCCOCO    BRNCCOCO13AG00000900000000001236898000000000000000100000000000000000000000001654Z01620200320X066000000
1MAIL0000150460BR10        BRNC        BRNCCOCO    BRNCCOCO13AG2020032000:00:00OR  010000048421020004842102150460                             2020032020200320Z016CIF202003200000000000050649NN0                                                  0                                        
2MAIL0000150460BR10        BRNC        BRNCCOCO    BRNCCOCO13AG00000100000000001223975300000000000000100000000000000000000000005076Z01620200320X066000000
2MAIL0000150460BR10        BRNC        BRNCCOCO    BRNCCOCO13AG00000200000000001231189200000000000000100000000000000000000000005076Z01620200320X066000000
2MAIL0000150460BR10        BRNC        BRNCCOCO    BRNCCOCO13AG00000300000000001231231200000000000000100000000000000000000000005076Z01620200320X066000000
2MAIL0000150460BR10        BRNC        BRNCCOCO    BRNCCOCO13AG00000400000000001231233000000000000000100000000000000000000000005076Z01620200320X066000000
2MAIL0000150460BR10        BRNC        BRNCCOCO    BRNCCOCO13AG00000500000000001236512800000000000005200000000000000000000000008973Z01620200320X066000000
2MAIL0000150460BR10        BRNC        BRNCCOCO    BRNCCOCO13AG00000600000000001239688300000000000002800000000000000000000000010686Z01620200320X066000000
2MAIL0000150460BR10        BRNC        BRNCCOCO    BRNCCOCO13AG00000700000000001242765000000000000002800000000000000000000000010686Z01620200320X066000000
1MAIL0000150461BR10        BRNC        BRNCCOCO    BRNCCOCO13AG2020032000:00:00OR  010000029878890002987889150461                             2020032020200320Z016CIF202003200000000000023224NN0                                                  0                                        
2MAIL0000150461BR10        BRNC        BRNCCOCO    BRNCCOCO13AG00000100000000001132033100000000000000100000000000000000000000002291Z01620200320X066000000
2MAIL0000150461BR10        BRNC        BRNCCOCO    BRNCCOCO13AG00000200000000001132036700000000000000400000000000000000000000009163Z01620200320X066000000
2MAIL0000150461BR10        BRNC        BRNCCOCO    BRNCCOCO13AG00000300000000001239688500000000000001400000000000000000000000005885Z01620200320X066000000
2MAIL0000150461BR10        BRNC        BRNCCOCO    BRNCCOCO13AG00000400000000001239688800000000000001400000000000000000000000005885Z01620200320X066000000
1MAIL0000150462BR10        BRNC        BRNCCOCO    BRNCCOCO13AG2020032000:00:00OR  010000043999370004399937150462                             2020032020200320Z016CIF202003200000000000040288NN0                                                  0                                        
2MAIL0000150462BR10        BRNC        BRNCCOCO    BRNCCOCO13AG00000100000000001132033100000000000000100000000000000000000000002291Z01620200320X066000000
2MAIL0000150462BR10        BRNC        BRNCCOCO    BRNCCOCO13AG00000200000000001132036700000000000000200000000000000000000000004581Z01620200320X066000000
2MAIL0000150462BR10        BRNC        BRNCCOCO    BRNCCOCO13AG00000300000000001227395500000000000000100000000000000000000000002291Z01620200320X066000000
2MAIL0000150462BR10        BRNC        BRNCCOCO    BRNCCOCO13AG00000400000000001231231200000000000000100000000000000000000000005568Z01620200320X066000000
2MAIL0000150462BR10        BRNC        BRNCCOCO    BRNCCOCO13AG00000500000000001234705900000000000000100000000000000000000000005568Z01620200320X066000000
2MAIL0000150462BR10        BRNC        BRNCCOCO    BRNCCOCO13AG00000600000000001235699800000000000001000000000000000000000000004211Z01620200320X066000000
2MAIL0000150462BR10        BRNC        BRNCCOCO    BRNCCOCO13AG00000700000000001236512900000000000001000000000000000000000000002004Z01620200320X066000000
2MAIL0000150462BR10        BRNC        BRNCCOCO    BRNCCOCO13AG00000800000000001236515000000000000001000000000000000000000000002004Z01620200320X066000000
2MAIL0000150462BR10        BRNC        BRNCCOCO    BRNCCOCO13AG00000900000000001239688800000000000001400000000000000000000000005885Z01620200320X066000000
2MAIL0000150462BR10        BRNC        BRNCCOCO    BRNCCOCO13AG00001000000000001239692100000000000001400000000000000000000000005885Z01620200320X066000000
1MAIL0000150463BR10        BRNC        BRNCCOCO    BRNCCOCO13AG2020032000:00:00OR  010000009250180000925018150463                             2020032020200320Z016CIF202003200000000000008706NN0                                                  0                                        
2MAIL0000150463BR10        BRNC        BRNCCOCO    BRNCCOCO13AG00000100000000001231231200000000000000100000000000000000000000004965Z01620200320X066000000
2MAIL0000150463BR10        BRNC        BRNCCOCO    BRNCCOCO13AG00000200000000001235699800000000000001000000000000000000000000003741Z01620200320X066000000
1MAIL0000150464BR10        BRNC        BRNCCOCO    BRNCCOCO13AG2020032000:00:00OR  010000040211290004021129150464                             2020032020200320Z016CIF202003200000000000018919NN0                                                  0                                        
2MAIL0000150464BR10        BRNC        BRNCCOCO    BRNCCOCO13AG00000100000000001132036700000000000000100000000000000000000000002173Z01620200320X066000000
2MAIL0000150464BR10        BRNC        BRNCCOCO    BRNCCOCO13AG00000200000000001239663300000000000001400000000000000000000000005582Z01620200320X066000000
2MAIL0000150464BR10        BRNC        BRNCCOCO    BRNCCOCO13AG00000300000000001239688600000000000001400000000000000000000000005582Z01620200320X066000000
2MAIL0000150464BR10        BRNC        BRNCCOCO    BRNCCOCO13AG00000400000000001239688800000000000001400000000000000000000000005582Z01620200320X066000000
1MAIL0000150465BR10        BRNC        BRNCCOCO    BRNCCOCO13AG2020032000:00:00OR  010000059109250005910925150465                             2020032020200320Z016CIF202003200000000000034565NN0                                                  0                                        
2MAIL0000150465BR10        BRNC        BRNCCOCO    BRNCCOCO13AG00000100000000001235699800000000000001000000000000000000000000004211Z01620200320X066000000
2MAIL0000150465BR10        BRNC        BRNCCOCO    BRNCCOCO13AG00000200000000001236515000000000000001000000000000000000000000002004Z01620200320X066000000
2MAIL0000150465BR10        BRNC        BRNCCOCO    BRNCCOCO13AG00000300000000001239688300000000000001400000000000000000000000005885Z01620200320X066000000
2MAIL0000150465BR10        BRNC        BRNCCOCO    BRNCCOCO13AG00000400000000001239688600000000000001400000000000000000000000005885Z01620200320X066000000
2MAIL0000150465BR10        BRNC        BRNCCOCO    BRNCCOCO13AG00000500000000001239688800000000000001400000000000000000000000005885Z01620200320X066000000
2MAIL0000150465BR10        BRNC        BRNCCOCO    BRNCCOCO13AG00000600000000001241577400000000000000500000000000000000000000004810Z01620200320X066000000
2MAIL0000150465BR10        BRNC        BRNCCOCO    BRNCCOCO13AG00000700000000001242626100000000000001400000000000000000000000005885Z01620200320X066000000
1MAIL0000150466BR10        BRNC        BRNCCOCO    BRNCCOCO13AG2020032000:00:00OR  010000038351620003835162150466                             2020032020200320Z016CIF202003200000000000022907NN0                                                  0                                        
2MAIL0000150466BR10        BRNC        BRNCCOCO    BRNCCOCO13AG00000100000000001132033100000000000000300000000000000000000000006872Z01620200320X066000000
2MAIL0000150466BR10        BRNC        BRNCCOCO    BRNCCOCO13AG00000200000000001132036700000000000000500000000000000000000000011454Z01620200320X066000000
2MAIL0000150466BR10        BRNC        BRNCCOCO    BRNCCOCO13AG00000300000000001215533700000000000000200000000000000000000000004581Z01620200320X066000000
1MAIL0000150467BR10        BRNC        BRNCCOCO    BRNCCOCO13AG2020032000:00:00OR  010000029003420002900342150467                             2020032020200320Z016CIF202003200000000000289827NN0                                                  0                                        
2MAIL0000150467BR10        BRNC        BRNCCOCO    BRNCCOCO13AG00000100000000001132030800000000000000400000000000000000000000012433Z01620200320X066000000
2MAIL0000150467BR10        BRNC        BRNCCOCO    BRNCCOCO13AG00000200000000001132033100000000000003200000000000000000000000069528Z01620200320X066000000
2MAIL0000150467BR10        BRNC        BRNCCOCO    BRNCCOCO13AG00000300000000001132036700000000000003200000000000000000000000069528Z01620200320X066000000
2MAIL0000150467BR10        BRNC        BRNCCOCO    BRNCCOCO13AG00000400000000001223975300000000000000100000000000000000000000005076Z01620200320X066000000
2MAIL0000150467BR10        BRNC        BRNCCOCO    BRNCCOCO13AG00000500000000001226089600000000000002400000000000000000000000009159Z01620200320X066000000
2MAIL0000150467BR10        BRNC        BRNCCOCO    BRNCCOCO13AG00000600000000001228512700000000000000100000000000000000000000005076Z01620200320X066000000
2MAIL0000150467BR10        BRNC        BRNCCOCO    BRNCCOCO13AG00000700000000001236515000000000000002000000000000000000000000003636Z01620200320X066000000
2MAIL0000150467BR10        BRNC        BRNCCOCO    BRNCCOCO13AG00000800000000001239688600000000000001400000000000000000000000005343Z01620200320X066000000
2MAIL0000150467BR10        BRNC        BRNCCOCO    BRNCCOCO13AG00000900000000001239688700000000000001400000000000000000000000005343Z01620200320X066000000
2MAIL0000150467BR10        BRNC        BRNCCOCO    BRNCCOCO13AG00001000000000001239688800000000000001400000000000000000000000005343Z01620200320X066000000
2MAIL0000150467BR10        BRNC        BRNCCOCO    BRNCCOCO13AG00001100000000001239692000000000000001400000000000000000000000005343Z01620200320X066000000
2MAIL0000150467BR10        BRNC        BRNCCOCO    BRNCCOCO13AG00001200000000001239692100000000000002800000000000000000000000010686Z01620200320X066000000
2MAIL0000150467BR10        BRNC        BRNCCOCO    BRNCCOCO13AG00001300000000001239692300000000000001400000000000000000000000005343Z01620200320X066000000
2MAIL0000150467BR10        BRNC        BRNCCOCO    BRNCCOCO13AG00001400000000001241577400000000000009000000000000000000000000077990Z01620200320X066000000
1MAIL0000150468BR10        BRNC        BRNCCOCO    BRNCCOCO13AG2020032000:00:00OR  010000034867610003486761150468                             2020032020200320Z016CIF202003200000000000152973NN0                                                  0                                        
2MAIL0000150468BR10        BRNC        BRNCCOCO    BRNCCOCO13AG00000100000000001132018300000000000000200000000000000000000000007468Z01620200320X066000000
2MAIL0000150468BR10        BRNC        BRNCCOCO    BRNCCOCO13AG00000200000000001132019800000000000000100000000000000000000000002076Z01620200320X066000000
2MAIL0000150468BR10        BRNC        BRNCCOCO    BRNCCOCO13AG00000300000000001132020900000000000000100000000000000000000000002076Z01620200320X066000000
2MAIL0000150468BR10        BRNC        BRNCCOCO    BRNCCOCO13AG00000400000000001132033100000000000000300000000000000000000000006872Z01620200320X066000000
2MAIL0000150468BR10        BRNC        BRNCCOCO    BRNCCOCO13AG00000500000000001132034900000000000000500000000000000000000000012283Z01620200320X066000000
2MAIL0000150468BR10        BRNC        BRNCCOCO    BRNCCOCO13AG00000600000000001132035100000000000000500000000000000000000000012969Z01620200320X066000000
2MAIL0000150468BR10        BRNC        BRNCCOCO    BRNCCOCO13AG00000700000000001132036700000000000000400000000000000000000000009163Z01620200320X066000000
2MAIL0000150468BR10        BRNC        BRNCCOCO    BRNCCOCO13AG00000800000000001221415400000000000000200000000000000000000000007468Z01620200320X066000000
2MAIL0000150468BR10        BRNC        BRNCCOCO    BRNCCOCO13AG00000900000000001226089600000000000001200000000000000000000000005045Z01620200320X066000000
2MAIL0000150468BR10        BRNC        BRNCCOCO    BRNCCOCO13AG00001000000000001228274000000000000000100000000000000000000000005568Z01620200320X066000000
2MAIL0000150468BR10        BRNC        BRNCCOCO    BRNCCOCO13AG00001100000000001231189200000000000000100000000000000000000000005568Z01620200320X066000000
2MAIL0000150468BR10        BRNC        BRNCCOCO    BRNCCOCO13AG00001200000000001231231200000000000000100000000000000000000000005568Z01620200320X066000000
2MAIL0000150468BR10        BRNC        BRNCCOCO    BRNCCOCO13AG00001300000000001234705800000000000000100000000000000000000000005568Z01620200320X066000000
2MAIL0000150468BR10        BRNC        BRNCCOCO    BRNCCOCO13AG00001400000000001234705900000000000000100000000000000000000000005568Z01620200320X066000000
2MAIL0000150468BR10        BRNC        BRNCCOCO    BRNCCOCO13AG00001500000000001235699400000000000001000000000000000000000000004211Z01620200320X066000000
2MAIL0000150468BR10        BRNC        BRNCCOCO    BRNCCOCO13AG00001600000000001235699700000000000001000000000000000000000000004211Z01620200320X066000000
2MAIL0000150468BR10        BRNC        BRNCCOCO    BRNCCOCO13AG00001700000000001235699800000000000001000000000000000000000000004211Z01620200320X066000000
2MAIL0000150468BR10        BRNC        BRNCCOCO    BRNCCOCO13AG00001800000000001239663300000000000001400000000000000000000000005885Z01620200320X066000000
2MAIL0000150468BR10        BRNC        BRNCCOCO    BRNCCOCO13AG00001900000000001239688300000000000001400000000000000000000000005885Z01620200320X066000000
2MAIL0000150468BR10        BRNC        BRNCCOCO    BRNCCOCO13AG00002000000000001239688600000000000002800000000000000000000000011770Z01620200320X066000000
2MAIL0000150468BR10        BRNC        BRNCCOCO    BRNCCOCO13AG00002100000000001239688800000000000002800000000000000000000000011770Z01620200320X066000000
2MAIL0000150468BR10        BRNC        BRNCCOCO    BRNCCOCO13AG00002200000000001239692100000000000002800000000000000000000000011770Z01620200320X066000000
1MAIL0000150469BR10        BRNC        BRNCCOCO    BRNCCOCO13AG2020032000:00:00OR  010000054545600005454560150469                             2020032020200320Z016CIF202003200000000000088994NN0                                                  0                                        
2MAIL0000150469BR10        BRNC        BRNCCOCO    BRNCCOCO13AG00000100000000001132018300000000000000100000000000000000000000003541Z01620200320X066000000
2MAIL0000150469BR10        BRNC        BRNCCOCO    BRNCCOCO13AG00000200000000001132033100000000000000300000000000000000000000006518Z01620200320X066000000
2MAIL0000150469BR10        BRNC        BRNCCOCO    BRNCCOCO13AG00000300000000001132036700000000000001000000000000000000000000021728Z01620200320X066000000
2MAIL0000150469BR10        BRNC        BRNCCOCO    BRNCCOCO13AG00000400000000001132200400000000000001000000000000000000000000021151Z01620200320X066000000
2MAIL0000150469BR10        BRNC        BRNCCOCO    BRNCCOCO13AG00000500000000001215533700000000000000300000000000000000000000006518Z01620200320X066000000
2MAIL0000150469BR10        BRNC        BRNCCOCO    BRNCCOCO13AG00000600000000001221415400000000000000100000000000000000000000003541Z01620200320X066000000
2MAIL0000150469BR10        BRNC        BRNCCOCO    BRNCCOCO13AG00000700000000001241577400000000000003000000000000000000000000025997Z01620200320X066000000
1MAIL0000150470BR10        BRNC        BRNCCOCO    BRNCCOCO13AG2020032000:00:00OR  010000040528380004052838150470                             2020032020200320Z016CIF202003200000000000029758NN0                                                  0                                        
2MAIL0000150470BR10        BRNC        BRNCCOCO    BRNCCOCO13AG00000100000000001132036700000000000000100000000000000000000000002291Z01620200320X066000000
2MAIL0000150470BR10        BRNC        BRNCCOCO    BRNCCOCO13AG00000200000000001132200400000000000000100000000000000000000000002230Z01620200320X066000000
2MAIL0000150470BR10        BRNC        BRNCCOCO    BRNCCOCO13AG00000300000000001226089600000000000001200000000000000000000000005045Z01620200320X066000000
2MAIL0000150470BR10        BRNC        BRNCCOCO    BRNCCOCO13AG00000400000000001235699400000000000001000000000000000000000000004211Z01620200320X066000000
2MAIL0000150470BR10        BRNC        BRNCCOCO    BRNCCOCO13AG00000500000000001235699800000000000001000000000000000000000000004211Z01620200320X066000000
2MAIL0000150470BR10        BRNC        BRNCCOCO    BRNCCOCO13AG00000600000000001239688600000000000001400000000000000000000000005885Z01620200320X066000000
2MAIL0000150470BR10        BRNC        BRNCCOCO    BRNCCOCO13AG00000700000000001239688800000000000001400000000000000000000000005885Z01620200320X066000000
1MAIL0000150471BR10        BRNC        BRNCCOCO    BRNCCOCO13AG2020032000:00:00OR  010000056389510005638951150471                             2020032020200320Z016CIF202003200000000000056522NN0                                                  0                                        
2MAIL0000150471BR10        BRNC        BRNCCOCO    BRNCCOCO13AG00000100000000001132019800000000000000100000000000000000000000001967Z01620200320X066000000
2MAIL0000150471BR10        BRNC        BRNCCOCO    BRNCCOCO13AG00000200000000001132033100000000000000300000000000000000000000006518Z01620200320X066000000
2MAIL0000150471BR10        BRNC        BRNCCOCO    BRNCCOCO13AG00000300000000001132036700000000000000400000000000000000000000008692Z01620200320X066000000
2MAIL0000150471BR10        BRNC        BRNCCOCO    BRNCCOCO13AG00000400000000001132200400000000000000100000000000000000000000002115Z01620200320X066000000
2MAIL0000150471BR10        BRNC        BRNCCOCO    BRNCCOCO13AG00000500000000001221415400000000000000100000000000000000000000003541Z01620200320X066000000
2MAIL0000150471BR10        BRNC        BRNCCOCO    BRNCCOCO13AG00000600000000001226089600000000000001200000000000000000000000004784Z01620200320X066000000
2MAIL0000150471BR10        BRNC        BRNCCOCO    BRNCCOCO13AG00000700000000001231231200000000000000100000000000000000000000005280Z01620200320X066000000
2MAIL0000150471BR10        BRNC        BRNCCOCO    BRNCCOCO13AG00000800000000001234705700000000000000100000000000000000000000005280Z01620200320X066000000
2MAIL0000150471BR10        BRNC        BRNCCOCO    BRNCCOCO13AG00000900000000001236515000000000000001000000000000000000000000001997Z01620200320X066000000
2MAIL0000150471BR10        BRNC        BRNCCOCO    BRNCCOCO13AG00001000000000001239688600000000000001400000000000000000000000005582Z01620200320X066000000
2MAIL0000150471BR10        BRNC        BRNCCOCO    BRNCCOCO13AG00001100000000001239688800000000000001400000000000000000000000005582Z01620200320X066000000
2MAIL0000150471BR10        BRNC        BRNCCOCO    BRNCCOCO13AG00001200000000001241623700000000000000200000000000000000000000005184Z01620200320X066000000
1MAIL0000150472BR10        BRNC        BRNCCOCO    BRNCCOCO13AG2020032000:00:00OR  010000028997870002899787150472                             2020032020200320Z016CIF202003200000000000068171NN0                                                  0                                        
2MAIL0000150472BR10        BRNC        BRNCCOCO    BRNCCOCO13AG00000100000000001132018300000000000000100000000000000000000000003735Z01620200320X066000000
2MAIL0000150472BR10        BRNC        BRNCCOCO    BRNCCOCO13AG00000200000000001132019800000000000000100000000000000000000000002076Z01620200320X066000000
2MAIL0000150472BR10        BRNC        BRNCCOCO    BRNCCOCO13AG00000300000000001132033100000000000000400000000000000000000000009163Z01620200320X066000000
2MAIL0000150472BR10        BRNC        BRNCCOCO    BRNCCOCO13AG00000400000000001132034900000000000000500000000000000000000000012283Z01620200320X066000000
2MAIL0000150472BR10        BRNC        BRNCCOCO    BRNCCOCO13AG00000500000000001132036700000000000000400000000000000000000000009163Z01620200320X066000000
2MAIL0000150472BR10        BRNC        BRNCCOCO    BRNCCOCO13AG00000600000000001132200400000000000000100000000000000000000000002230Z01620200320X066000000
2MAIL0000150472BR10        BRNC        BRNCCOCO    BRNCCOCO13AG00000700000000001231189200000000000000100000000000000000000000005568Z01620200320X066000000
2MAIL0000150472BR10        BRNC        BRNCCOCO    BRNCCOCO13AG00000800000000001231231200000000000000100000000000000000000000005568Z01620200320X066000000
2MAIL0000150472BR10        BRNC        BRNCCOCO    BRNCCOCO13AG00000900000000001236512800000000000000800000000000000000000000001526Z01620200320X066000000
2MAIL0000150472BR10        BRNC        BRNCCOCO    BRNCCOCO13AG00001000000000001236512900000000000001500000000000000000000000003006Z01620200320X066000000
2MAIL0000150472BR10        BRNC        BRNCCOCO    BRNCCOCO13AG00001100000000001236515000000000000001500000000000000000000000003006Z01620200320X066000000
2MAIL0000150472BR10        BRNC        BRNCCOCO    BRNCCOCO13AG00001200000000001239688800000000000001400000000000000000000000005885Z01620200320X066000000
2MAIL0000150472BR10        BRNC        BRNCCOCO    BRNCCOCO13AG00001300000000001241623700000000000000200000000000000000000000004962Z01620200320X066000000
1MAIL0000150473BR10        BRNC        BRNCCOCO    BRNCCOCO13AG2020032000:00:00OR  010000028997950002899795150473                             2020032020200320Z016CIF202003200000000000093721NN0                                                  0                                        
2MAIL0000150473BR10        BRNC        BRNCCOCO    BRNCCOCO13AG00000100000000001132018300000000000000100000000000000000000000003541Z01620200320X066000000
2MAIL0000150473BR10        BRNC        BRNCCOCO    BRNCCOCO13AG00000200000000001132019800000000000000100000000000000000000000001967Z01620200320X066000000
2MAIL0000150473BR10        BRNC        BRNCCOCO    BRNCCOCO13AG00000300000000001132033100000000000000400000000000000000000000008692Z01620200320X066000000
2MAIL0000150473BR10        BRNC        BRNCCOCO    BRNCCOCO13AG00000400000000001132036700000000000000400000000000000000000000008692Z01620200320X066000000
2MAIL0000150473BR10        BRNC        BRNCCOCO    BRNCCOCO13AG00000500000000001132200400000000000000100000000000000000000000002115Z01620200320X066000000
2MAIL0000150473BR10        BRNC        BRNCCOCO    BRNCCOCO13AG00000600000000001226089600000000000001200000000000000000000000004784Z01620200320X066000000
2MAIL0000150473BR10        BRNC        BRNCCOCO    BRNCCOCO13AG00000700000000001228274000000000000000100000000000000000000000005280Z01620200320X066000000
2MAIL0000150473BR10        BRNC        BRNCCOCO    BRNCCOCO13AG00000800000000001228512700000000000000100000000000000000000000005280Z01620200320X066000000
2MAIL0000150473BR10        BRNC        BRNCCOCO    BRNCCOCO13AG00000900000000001231189200000000000000100000000000000000000000005280Z01620200320X066000000
2MAIL0000150473BR10        BRNC        BRNCCOCO    BRNCCOCO13AG00001000000000001231231200000000000000100000000000000000000000005280Z01620200320X066000000
2MAIL0000150473BR10        BRNC        BRNCCOCO    BRNCCOCO13AG00001100000000001231233000000000000000100000000000000000000000005280Z01620200320X066000000
2MAIL0000150473BR10        BRNC        BRNCCOCO    BRNCCOCO13AG00001200000000001234705700000000000000100000000000000000000000005280Z01620200320X066000000
2MAIL0000150473BR10        BRNC        BRNCCOCO    BRNCCOCO13AG00001300000000001235699700000000000001000000000000000000000000003995Z01620200320X066000000
2MAIL0000150473BR10        BRNC        BRNCCOCO    BRNCCOCO13AG00001400000000001235699800000000000001000000000000000000000000003995Z01620200320X066000000
2MAIL0000150473BR10        BRNC        BRNCCOCO    BRNCCOCO13AG00001500000000001236512800000000000000800000000000000000000000001520Z01620200320X066000000
2MAIL0000150473BR10        BRNC        BRNCCOCO    BRNCCOCO13AG00001600000000001236512900000000000001500000000000000000000000002997Z01620200320X066000000
2MAIL0000150473BR10        BRNC        BRNCCOCO    BRNCCOCO13AG00001700000000001236515000000000000001500000000000000000000000002997Z01620200320X066000000
2MAIL0000150473BR10        BRNC        BRNCCOCO    BRNCCOCO13AG00001800000000001239688600000000000001400000000000000000000000005582Z01620200320X066000000
2MAIL0000150473BR10        BRNC        BRNCCOCO    BRNCCOCO13AG00001900000000001239688800000000000001400000000000000000000000005582Z01620200320X066000000
2MAIL0000150473BR10        BRNC        BRNCCOCO    BRNCCOCO13AG00002000000000001239692300000000000001400000000000000000000000005582Z01620200320X066000000
1MAIL0000150474BR10        BRNC        BRNCCOCO    BRNCCOCO13AG2020032000:00:00OR  010000028997880002899788150474                             2020032020200320Z016CIF202003200000000000088142NN0                                                  0                                        
2MAIL0000150474BR10        BRNC        BRNCCOCO    BRNCCOCO13AG00000100000000001132200400000000000000200000000000000000000000004230Z01620200320X066000000
2MAIL0000150474BR10        BRNC        BRNCCOCO    BRNCCOCO13AG00000200000000001226089600000000000001200000000000000000000000004580Z01620200320X066000000
2MAIL0000150474BR10        BRNC        BRNCCOCO    BRNCCOCO13AG00000300000000001228274000000000000000100000000000000000000000005076Z01620200320X066000000
2MAIL0000150474BR10        BRNC        BRNCCOCO    BRNCCOCO13AG00000400000000001228512700000000000000100000000000000000000000005076Z01620200320X066000000
2MAIL0000150474BR10        BRNC        BRNCCOCO    BRNCCOCO13AG00000500000000001231189200000000000000100000000000000000000000005076Z01620200320X066000000
2MAIL0000150474BR10        BRNC        BRNCCOCO    BRNCCOCO13AG00000600000000001231231200000000000000100000000000000000000000005076Z01620200320X066000000
2MAIL0000150474BR10        BRNC        BRNCCOCO    BRNCCOCO13AG00000700000000001231233000000000000000100000000000000000000000005076Z01620200320X066000000
2MAIL0000150474BR10        BRNC        BRNCCOCO    BRNCCOCO13AG00000800000000001234705700000000000000100000000000000000000000005076Z01620200320X066000000
2MAIL0000150474BR10        BRNC        BRNCCOCO    BRNCCOCO13AG00000900000000001235699400000000000001000000000000000000000000003825Z01620200320X066000000
2MAIL0000150474BR10        BRNC        BRNCCOCO    BRNCCOCO13AG00001000000000001235699700000000000001000000000000000000000000003825Z01620200320X066000000
2MAIL0000150474BR10        BRNC        BRNCCOCO    BRNCCOCO13AG00001100000000001235699800000000000001000000000000000000000000003825Z01620200320X066000000
2MAIL0000150474BR10        BRNC        BRNCCOCO    BRNCCOCO13AG00001200000000001239663300000000000001400000000000000000000000005343Z01620200320X066000000
2MAIL0000150474BR10        BRNC        BRNCCOCO    BRNCCOCO13AG00001300000000001239688600000000000001400000000000000000000000005343Z01620200320X066000000
2MAIL0000150474BR10        BRNC        BRNCCOCO    BRNCCOCO13AG00001400000000001239688700000000000001400000000000000000000000005343Z01620200320X066000000
2MAIL0000150474BR10        BRNC        BRNCCOCO    BRNCCOCO13AG00001500000000001239688800000000000001400000000000000000000000005343Z01620200320X066000000
2MAIL0000150474BR10        BRNC        BRNCCOCO    BRNCCOCO13AG00001600000000001239692000000000000001400000000000000000000000005343Z01620200320X066000000
2MAIL0000150474BR10        BRNC        BRNCCOCO    BRNCCOCO13AG00001700000000001239692100000000000001400000000000000000000000005343Z01620200320X066000000
2MAIL0000150474BR10        BRNC        BRNCCOCO    BRNCCOCO13AG00001800000000001239692300000000000001400000000000000000000000005343Z01620200320X066000000
1MAIL0000150475BR10        BRNC        BRNCCOCO    BRNCCOCO13AG2020032000:00:00OR  010000028997850002899785150475                             2020032020200320Z016CIF202003200000000000060562NN0                                                  0                                        
2MAIL0000150475BR10        BRNC        BRNCCOCO    BRNCCOCO13AG00000100000000001132018300000000000000100000000000000000000000003541Z01620200320X066000000
2MAIL0000150475BR10        BRNC        BRNCCOCO    BRNCCOCO13AG00000200000000001132019800000000000000100000000000000000000000001967Z01620200320X066000000
2MAIL0000150475BR10        BRNC        BRNCCOCO    BRNCCOCO13AG00000300000000001132033100000000000000200000000000000000000000004345Z01620200320X066000000
2MAIL0000150475BR10        BRNC        BRNCCOCO    BRNCCOCO13AG00000400000000001132036700000000000000200000000000000000000000004345Z01620200320X066000000
2MAIL0000150475BR10        BRNC        BRNCCOCO    BRNCCOCO13AG00000500000000001132200400000000000000100000000000000000000000002115Z01620200320X066000000
2MAIL0000150475BR10        BRNC        BRNCCOCO    BRNCCOCO13AG00000600000000001226089600000000000001200000000000000000000000004784Z01620200320X066000000
2MAIL0000150475BR10        BRNC        BRNCCOCO    BRNCCOCO13AG00000700000000001228274000000000000000100000000000000000000000005280Z01620200320X066000000
2MAIL0000150475BR10        BRNC        BRNCCOCO    BRNCCOCO13AG00000800000000001228512700000000000000100000000000000000000000005280Z01620200320X066000000
2MAIL0000150475BR10        BRNC        BRNCCOCO    BRNCCOCO13AG00000900000000001231189200000000000000100000000000000000000000005280Z01620200320X066000000
2MAIL0000150475BR10        BRNC        BRNCCOCO    BRNCCOCO13AG00001000000000001231231200000000000000100000000000000000000000005280Z01620200320X066000000
2MAIL0000150475BR10        BRNC        BRNCCOCO    BRNCCOCO13AG00001100000000001236515000000000000001000000000000000000000000001997Z01620200320X066000000
2MAIL0000150475BR10        BRNC        BRNCCOCO    BRNCCOCO13AG00001200000000001239688600000000000001400000000000000000000000005582Z01620200320X066000000
2MAIL0000150475BR10        BRNC        BRNCCOCO    BRNCCOCO13AG00001300000000001239688800000000000001400000000000000000000000005582Z01620200320X066000000
2MAIL0000150475BR10        BRNC        BRNCCOCO    BRNCCOCO13AG00001400000000001241623700000000000000200000000000000000000000005184Z01620200320X066000000
1MAIL0000150476BR10        BRNC        BRNCCOCO    BRNCCOCO13AG2020032000:00:00OR  010000054606570005460657150476                             2020032020200320Z016CIF202003200000000000066733NN0                                                  0                                        
2MAIL0000150476BR10        BRNC        BRNCCOCO    BRNCCOCO13AG00000100000000001132019800000000000000100000000000000000000000002076Z01620200320X066000000
2MAIL0000150476BR10        BRNC        BRNCCOCO    BRNCCOCO13AG00000200000000001132036700000000000000200000000000000000000000004581Z01620200320X066000000
2MAIL0000150476BR10        BRNC        BRNCCOCO    BRNCCOCO13AG00000300000000001132200400000000000000100000000000000000000000002230Z01620200320X066000000
2MAIL0000150476BR10        BRNC        BRNCCOCO    BRNCCOCO13AG00000400000000001221415400000000000000100000000000000000000000003735Z01620200320X066000000
2MAIL0000150476BR10        BRNC        BRNCCOCO    BRNCCOCO13AG00000500000000001226089600000000000001200000000000000000000000005045Z01620200320X066000000
2MAIL0000150476BR10        BRNC        BRNCCOCO    BRNCCOCO13AG00000600000000001228512700000000000000100000000000000000000000005568Z01620200320X066000000
2MAIL0000150476BR10        BRNC        BRNCCOCO    BRNCCOCO13AG00000700000000001231189200000000000000100000000000000000000000005568Z01620200320X066000000
2MAIL0000150476BR10        BRNC        BRNCCOCO    BRNCCOCO13AG00000800000000001231231200000000000000100000000000000000000000005568Z01620200320X066000000
2MAIL0000150476BR10        BRNC        BRNCCOCO    BRNCCOCO13AG00000900000000001235699800000000000001000000000000000000000000004211Z01620200320X066000000
2MAIL0000150476BR10        BRNC        BRNCCOCO    BRNCCOCO13AG00001000000000001236512800000000000000800000000000000000000000001526Z01620200320X066000000
2MAIL0000150476BR10        BRNC        BRNCCOCO    BRNCCOCO13AG00001100000000001236512900000000000001000000000000000000000000002004Z01620200320X066000000
2MAIL0000150476BR10        BRNC        BRNCCOCO    BRNCCOCO13AG00001200000000001236515000000000000001000000000000000000000000002004Z01620200320X066000000
2MAIL0000150476BR10        BRNC        BRNCCOCO    BRNCCOCO13AG00001300000000001239688600000000000001400000000000000000000000005885Z01620200320X066000000
2MAIL0000150476BR10        BRNC        BRNCCOCO    BRNCCOCO13AG00001400000000001239688800000000000001400000000000000000000000005885Z01620200320X066000000
2MAIL0000150476BR10        BRNC        BRNCCOCO    BRNCCOCO13AG00001500000000001239692300000000000001400000000000000000000000005885Z01620200320X066000000
2MAIL0000150476BR10        BRNC        BRNCCOCO    BRNCCOCO13AG00001600000000001241623700000000000000200000000000000000000000004962Z01620200320X066000000
1MAIL0000150477BR10        BRNC        BRNCCOCO    BRNCCOCO13AG2020032000:00:00OR  010000028997860002899786150477                             2020032020200320Z016CIF202003200000000000019498NN0                                                  0                                        
2MAIL0000150477BR10        BRNC        BRNCCOCO    BRNCCOCO13AG00000100000000001132018300000000000000100000000000000000000000003435Z01620200320X066003000
2MAIL0000150477BR10        BRNC        BRNCCOCO    BRNCCOCO13AG00000200000000001132019800000000000000100000000000000000000000001908Z01620200320X066003000
2MAIL0000150477BR10        BRNC        BRNCCOCO    BRNCCOCO13AG00000300000000001132033100000000000000100000000000000000000000002108Z01620200320X066003000
2MAIL0000150477BR10        BRNC        BRNCCOCO    BRNCCOCO13AG00000400000000001132036700000000000000100000000000000000000000002108Z01620200320X066003000
2MAIL0000150477BR10        BRNC        BRNCCOCO    BRNCCOCO13AG00000500000000001132200400000000000000100000000000000000000000002052Z01620200320X066003000
2MAIL0000150477BR10        BRNC        BRNCCOCO    BRNCCOCO13AG00000600000000001221415400000000000000100000000000000000000000003435Z01620200320X066003000
2MAIL0000150477BR10        BRNC        BRNCCOCO    BRNCCOCO13AG00000700000000001236512900000000000000500000000000000000000000000969Z01620200320X066003000
2MAIL0000150477BR10        BRNC        BRNCCOCO    BRNCCOCO13AG00000800000000001236515000000000000000500000000000000000000000000969Z01620200320X066003000
2MAIL0000150477BR10        BRNC        BRNCCOCO    BRNCCOCO13AG00000900000000001241623700000000000000100000000000000000000000002514Z01620200320X066003000
1MAIL0000150478BR10        BRNC        BRNCCOCO    BRNCCOCO13AG2020032000:00:00OR  010000058345310005834531150478                             2020032020200320Z016CIF202003200000000000004961NN0                                                  0                                        
2MAIL0000150478BR10        BRNC        BRNCCOCO    BRNCCOCO13AG00000100000000001132033100000000000000100000000000000000000000001654Z01620200320X066000000
2MAIL0000150478BR10        BRNC        BRNCCOCO    BRNCCOCO13AG00000200000000001132036700000000000000200000000000000000000000003307Z01620200320X066000000
1MAIL0000150479BR10        BRNC        BRNCCOCO    BRNCCOCO13AG2020032000:00:00OR  010000055004250005500425150479                             2020032020200320Z016CIF202003200000000000035357NN0                                                  0                                        
2MAIL0000150479BR10        BRNC        BRNCCOCO    BRNCCOCO13AG00000100000000001132018300000000000000100000000000000000000000002682Z01620200320X066000000
2MAIL0000150479BR10        BRNC        BRNCCOCO    BRNCCOCO13AG00000200000000001132033100000000000000100000000000000000000000001654Z01620200320X066000000
2MAIL0000150479BR10        BRNC        BRNCCOCO    BRNCCOCO13AG00000300000000001132036700000000000000100000000000000000000000001654Z01620200320X066000000
2MAIL0000150479BR10        BRNC        BRNCCOCO    BRNCCOCO13AG00000400000000001215533700000000000000100000000000000000000000001654Z01620200320X066000000
2MAIL0000150479BR10        BRNC        BRNCCOCO    BRNCCOCO13AG00000500000000001221415400000000000000100000000000000000000000002682Z01620200320X066000000
2MAIL0000150479BR10        BRNC        BRNCCOCO    BRNCCOCO13AG00000600000000001234705700000000000000100000000000000000000000004437Z01620200320X066000000
2MAIL0000150479BR10        BRNC        BRNCCOCO    BRNCCOCO13AG00000700000000001234705800000000000000100000000000000000000000004437Z01620200320X066000000
2MAIL0000150479BR10        BRNC        BRNCCOCO    BRNCCOCO13AG00000800000000001235699400000000000001000000000000000000000000003352Z01620200320X066000000
2MAIL0000150479BR10        BRNC        BRNCCOCO    BRNCCOCO13AG00000900000000001239373600000000000000100000000000000000000000005529Z01620200320X066000000
2MAIL0000150479BR10        BRNC        BRNCCOCO    BRNCCOCO13AG00001000000000001239688500000000000001400000000000000000000000004684Z01620200320X066000000
2MAIL0000150479BR10        BRNC        BRNCCOCO    BRNCCOCO13AG00001100000000001241623700000000000000100000000000000000000000002592Z01620200320X066000000
1MAIL0000150480BR10        BRNC        BRNCCOCO    BRNCCOCO13AG2020032000:00:00OR  010000061507110006150711150480                             2020032020200320Z016CIF202003200000000000008501NN0                                                  0                                        
2MAIL0000150480BR10        BRNC        BRNCCOCO    BRNCCOCO13AG00000100000000001132036700000000000000400000000000000000000000008501Z01620200320X066000000
1MAIL0000150481BR10        BRNC        BRNCCOCO    BRNCCOCO13AG2020032000:00:00OR  010000055171020005517102150481                             2020032020200320Z016CIF202003200000000000073326NN0                                                  0                                        
2MAIL0000150481BR10        BRNC        BRNCCOCO    BRNCCOCO13AG00000100000000001132018300000000000000200000000000000000000000007468Z01620200320X066000000
2MAIL0000150481BR10        BRNC        BRNCCOCO    BRNCCOCO13AG00000200000000001132033100000000000000200000000000000000000000004581Z01620200320X066000000
2MAIL0000150481BR10        BRNC        BRNCCOCO    BRNCCOCO13AG00000300000000001132036700000000000000200000000000000000000000004581Z01620200320X066000000
2MAIL0000150481BR10        BRNC        BRNCCOCO    BRNCCOCO13AG00000400000000001132200400000000000000300000000000000000000000006690Z01620200320X066000000
2MAIL0000150481BR10        BRNC        BRNCCOCO    BRNCCOCO13AG00000500000000001215533700000000000000200000000000000000000000004581Z01620200320X066000000
2MAIL0000150481BR10        BRNC        BRNCCOCO    BRNCCOCO13AG00000600000000001235699400000000000001000000000000000000000000004211Z01620200320X066000000
2MAIL0000150481BR10        BRNC        BRNCCOCO    BRNCCOCO13AG00000700000000001235699700000000000001000000000000000000000000004211Z01620200320X066000000
2MAIL0000150481BR10        BRNC        BRNCCOCO    BRNCCOCO13AG00000800000000001235699800000000000002000000000000000000000000008422Z01620200320X066000000
2MAIL0000150481BR10        BRNC        BRNCCOCO    BRNCCOCO13AG00000900000000001236515000000000000000500000000000000000000000001002Z01620200320X066000000
2MAIL0000150481BR10        BRNC        BRNCCOCO    BRNCCOCO13AG00001000000000001239688600000000000001400000000000000000000000005885Z01620200320X066000000
2MAIL0000150481BR10        BRNC        BRNCCOCO    BRNCCOCO13AG00001100000000001239688800000000000001400000000000000000000000005885Z01620200320X066000000
2MAIL0000150481BR10        BRNC        BRNCCOCO    BRNCCOCO13AG00001200000000001239692100000000000001400000000000000000000000005885Z01620200320X066000000
2MAIL0000150481BR10        BRNC        BRNCCOCO    BRNCCOCO13AG00001300000000001241623700000000000000400000000000000000000000009924Z01620200320X066000000
1MAIL0000150482BR10        BRNC        BRNCCOCO    BRNCCOCO13AG2020032000:00:00OR  010000029799220002979922150482                             2020032020200320Z009CIF202003200000000000025521NN0                                                  0                                        
2MAIL0000150482BR10        BRNC        BRNCCOCO    BRNCCOCO13AG00000100000000001223975300000000000000100000000000000000000000004953Z00920200320X066000000
2MAIL0000150482BR10        BRNC        BRNCCOCO    BRNCCOCO13AG00000200000000001228274000000000000000100000000000000000000000004953Z00920200320X066000000
2MAIL0000150482BR10        BRNC        BRNCCOCO    BRNCCOCO13AG00000300000000001239688600000000000001400000000000000000000000005205Z00920200320X066000000
2MAIL0000150482BR10        BRNC        BRNCCOCO    BRNCCOCO13AG00000400000000001239688800000000000001400000000000000000000000005205Z00920200320X066000000
2MAIL0000150482BR10        BRNC        BRNCCOCO    BRNCCOCO13AG00000500000000001239692300000000000001400000000000000000000000005205Z00920200320X066000000
1MAIL0000150483BR10        BRNC        BRNCCOCO    BRNCCOCO13AG2020032000:00:00OR  010000053209480005320948150483                             2020032020200320Z016CIF202003200000000000013746NN0                                                  0                                        
2MAIL0000150483BR10        BRNC        BRNCCOCO    BRNCCOCO13AG00000100000000001132033100000000000000100000000000000000000000002291Z01620200320X066000000
2MAIL0000150483BR10        BRNC        BRNCCOCO    BRNCCOCO13AG00000200000000001132036700000000000000100000000000000000000000002291Z01620200320X066000000
2MAIL0000150483BR10        BRNC        BRNCCOCO    BRNCCOCO13AG00000300000000001215533700000000000000100000000000000000000000002291Z01620200320X066000000
2MAIL0000150483BR10        BRNC        BRNCCOCO    BRNCCOCO13AG00000400000000001227395500000000000000100000000000000000000000002291Z01620200320X066000000
2MAIL0000150483BR10        BRNC        BRNCCOCO    BRNCCOCO13AG00000500000000001231389600000000000000100000000000000000000000002291Z01620200320X066000000
2MAIL0000150483BR10        BRNC        BRNCCOCO    BRNCCOCO13AG00000600000000001236898000000000000000100000000000000000000000002291Z01620200320X066000000
1MAIL0000150484BR10        BRNC        BRNCCOCO    BRNCCOCO13AG2020032000:00:00OR  010000053731180005373118150484                             2020032020200320Z016CIF202003200000000000063690NN0                                                  0                                        
2MAIL0000150484BR10        BRNC        BRNCCOCO    BRNCCOCO13AG00000100000000001132033100000000000000600000000000000000000000012750Z01620200320X066000000
2MAIL0000150484BR10        BRNC        BRNCCOCO    BRNCCOCO13AG00000200000000001132036700000000000000600000000000000000000000012750Z01620200320X066000000
2MAIL0000150484BR10        BRNC        BRNCCOCO    BRNCCOCO13AG00000300000000001132200400000000000000600000000000000000000000012690Z01620200320X066000000
2MAIL0000150484BR10        BRNC        BRNCCOCO    BRNCCOCO13AG00000400000000001215533700000000000000600000000000000000000000012750Z01620200320X066000000
2MAIL0000150484BR10        BRNC        BRNCCOCO    BRNCCOCO13AG00000500000000001231389600000000000000600000000000000000000000012750Z01620200320X066000000
1MAIL0000150485BR10        BRNC        BRNCCOCO    BRNCCOCO13AG2020032000:00:00OR  010000051176860005117686150485                             2020032020200320Z016CIF202003200000000000116777NN0                                                  0                                        
2MAIL0000150485BR10        BRNC        BRNCCOCO    BRNCCOCO13AG00000100000000001132033100000000000001000000000000000000000000021250Z01620200320X066000000
2MAIL0000150485BR10        BRNC        BRNCCOCO    BRNCCOCO13AG00000200000000001132036700000000000002000000000000000000000000042501Z01620200320X066000000
2MAIL0000150485BR10        BRNC        BRNCCOCO    BRNCCOCO13AG00000300000000001132200400000000000001000000000000000000000000021151Z01620200320X066000000
2MAIL0000150485BR10        BRNC        BRNCCOCO    BRNCCOCO13AG00000400000000001215533700000000000001000000000000000000000000021250Z01620200320X066000000
2MAIL0000150485BR10        BRNC        BRNCCOCO    BRNCCOCO13AG00000500000000001231389600000000000000500000000000000000000000010625Z01620200320X066000000
1MAIL0000150486BR10        BRNC        BRNCCOCO    BRNCCOCO13AG2020032000:00:00OR  010000039091500003909150150486                             2020032020200320Z016CIF202003200000000000116777NN0                                                  0                                        
2MAIL0000150486BR10        BRNC        BRNCCOCO    BRNCCOCO13AG00000100000000001132033100000000000001000000000000000000000000021250Z01620200320X066000000
2MAIL0000150486BR10        BRNC        BRNCCOCO    BRNCCOCO13AG00000200000000001132036700000000000002000000000000000000000000042501Z01620200320X066000000
2MAIL0000150486BR10        BRNC        BRNCCOCO    BRNCCOCO13AG00000300000000001132200400000000000001000000000000000000000000021151Z01620200320X066000000
2MAIL0000150486BR10        BRNC        BRNCCOCO    BRNCCOCO13AG00000400000000001215533700000000000001000000000000000000000000021250Z01620200320X066000000
2MAIL0000150486BR10        BRNC        BRNCCOCO    BRNCCOCO13AG00000500000000001231389600000000000000500000000000000000000000010625Z01620200320X066000000
1MAIL0000150487BR10        BRNC        BRNCCOCO    BRNCCOCO13AG2020032000:00:00OR  010000029349390002934939150487                             2020032020200320Z016CIF202003200000000000116777NN0                                                  0                                        
2MAIL0000150487BR10        BRNC        BRNCCOCO    BRNCCOCO13AG00000100000000001132033100000000000001000000000000000000000000021250Z01620200320X066000000
2MAIL0000150487BR10        BRNC        BRNCCOCO    BRNCCOCO13AG00000200000000001132036700000000000002000000000000000000000000042501Z01620200320X066000000
2MAIL0000150487BR10        BRNC        BRNCCOCO    BRNCCOCO13AG00000300000000001132200400000000000001000000000000000000000000021151Z01620200320X066000000
2MAIL0000150487BR10        BRNC        BRNCCOCO    BRNCCOCO13AG00000400000000001215533700000000000001000000000000000000000000021250Z01620200320X066000000
2MAIL0000150487BR10        BRNC        BRNCCOCO    BRNCCOCO13AG00000500000000001231389600000000000000500000000000000000000000010625Z01620200320X066000000
1MAIL0000150488BR10        BRNC        BRNCCOCO    BRNCCOCO13AG2020032000:00:00OR  010000060637220006063722150488                             2020032020200320Z016CIF202003200000000000102116NN0                                                  0                                        
2MAIL0000150488BR10        BRNC        BRNCCOCO    BRNCCOCO13AG00000100000000001132019800000000000000100000000000000000000000002076Z01620200320X066000000
2MAIL0000150488BR10        BRNC        BRNCCOCO    BRNCCOCO13AG00000200000000001132020900000000000000100000000000000000000000002076Z01620200320X066000000
2MAIL0000150488BR10        BRNC        BRNCCOCO    BRNCCOCO13AG00000300000000001132034900000000000000500000000000000000000000012283Z01620200320X066000000
2MAIL0000150488BR10        BRNC        BRNCCOCO    BRNCCOCO13AG00000400000000001132035000000000000000500000000000000000000000013646Z01620200320X066000000
2MAIL0000150488BR10        BRNC        BRNCCOCO    BRNCCOCO13AG00000500000000001132036700000000000000100000000000000000000000002291Z01620200320X066000000
2MAIL0000150488BR10        BRNC        BRNCCOCO    BRNCCOCO13AG00000600000000001132200400000000000000100000000000000000000000002230Z01620200320X066000000
2MAIL0000150488BR10        BRNC        BRNCCOCO    BRNCCOCO13AG00000700000000001215533700000000000000100000000000000000000000002291Z01620200320X066000000
2MAIL0000150488BR10        BRNC        BRNCCOCO    BRNCCOCO13AG00000800000000001221415400000000000000100000000000000000000000003735Z01620200320X066000000
2MAIL0000150488BR10        BRNC        BRNCCOCO    BRNCCOCO13AG00000900000000001231189200000000000000100000000000000000000000005568Z01620200320X066000000
2MAIL0000150488BR10        BRNC        BRNCCOCO    BRNCCOCO13AG00001000000000001231231200000000000000100000000000000000000000005568Z01620200320X066000000
2MAIL0000150488BR10        BRNC        BRNCCOCO    BRNCCOCO13AG00001100000000001235699800000000000001000000000000000000000000004211Z01620200320X066000000
2MAIL0000150488BR10        BRNC        BRNCCOCO    BRNCCOCO13AG00001200000000001236512800000000000000800000000000000000000000001526Z01620200320X066000000
2MAIL0000150488BR10        BRNC        BRNCCOCO    BRNCCOCO13AG00001300000000001236512900000000000001500000000000000000000000003006Z01620200320X066000000
2MAIL0000150488BR10        BRNC        BRNCCOCO    BRNCCOCO13AG00001400000000001236515000000000000001500000000000000000000000003006Z01620200320X066000000
2MAIL0000150488BR10        BRNC        BRNCCOCO    BRNCCOCO13AG00001500000000001239688300000000000001400000000000000000000000005885Z01620200320X066000000
2MAIL0000150488BR10        BRNC        BRNCCOCO    BRNCCOCO13AG00001600000000001239688800000000000001400000000000000000000000005885Z01620200320X066000000
2MAIL0000150488BR10        BRNC        BRNCCOCO    BRNCCOCO13AG00001700000000001241577400000000000001500000000000000000000000014428Z01620200320X066000000
2MAIL0000150488BR10        BRNC        BRNCCOCO    BRNCCOCO13AG00001800000000001241623700000000000000500000000000000000000000012405Z01620200320X066000000
1MAIL0000150491BR10        BRNC        BRNCCOCO    BRNCCOCO13AG2020032000:00:00OR  010000009255770000925577150491                             2020032020200320Z016CIF202003200000000001034654NN0                                                  0                                        
2MAIL0000150491BR10        BRNC        BRNCCOCO    BRNCCOCO13AG00000100000000001241623700000000000040000000000000000000000001034654Z01620200320X066000000
1MAIL0000150492BR10        BRNC        BRNCCOCO    BRNCCOCO13AG2020032000:00:00OR  010000028781900002878190150492                             2020032020200320Z016CIF202003200000000000015792NN0                                                  0                                        
2MAIL0000150492BR10        BRNC        BRNCCOCO    BRNCCOCO13AG00000100000000001132036700000000000000300000000000000000000000006872Z01620200320X066000000
2MAIL0000150492BR10        BRNC        BRNCCOCO    BRNCCOCO13AG00000200000000001132200400000000000000400000000000000000000000008920Z01620200320X066000000
