1MAIL0000150508BR10        BRNC        BRNCCOCO    BRNCCOCO13AG2020032000:00:00OR  010000054749910005474991150508                             2020032020200330Z016CIF202003300000000000019498NN0                                                  0                                        
2MAIL0000150508BR10        BRNC        BRNCCOCO    BRNCCOCO13AG00000100000000001132018300000000000000100000000000000000000000003435Z01620200330X066003000
2MAIL0000150508BR10        BRNC        BRNCCOCO    BRNCCOCO13AG00000200000000001132019800000000000000100000000000000000000000001908Z01620200330X066003000
2MAIL0000150508BR10        BRNC        BRNCCOCO    BRNCCOCO13AG00000300000000001132033100000000000000100000000000000000000000002108Z01620200330X066003000
2MAIL0000150508BR10        BRNC        BRNCCOCO    BRNCCOCO13AG00000400000000001132036700000000000000100000000000000000000000002108Z01620200330X066003000
2MAIL0000150508BR10        BRNC        BRNCCOCO    BRNCCOCO13AG00000500000000001132200400000000000000100000000000000000000000002052Z01620200330X066003000
2MAIL0000150508BR10        BRNC        BRNCCOCO    BRNCCOCO13AG00000600000000001221415400000000000000100000000000000000000000003435Z01620200330X066003000
2MAIL0000150508BR10        BRNC        BRNCCOCO    BRNCCOCO13AG00000700000000001236512900000000000000500000000000000000000000000969Z01620200330X066003000
2MAIL0000150508BR10        BRNC        BRNCCOCO    BRNCCOCO13AG00000800000000001236515000000000000000500000000000000000000000000969Z01620200330X066003000
2MAIL0000150508BR10        BRNC        BRNCCOCO    BRNCCOCO13AG00000900000000001241623700000000000000100000000000000000000000002514Z01620200330X066003000
