1MAIL0000150946BR10        BRNC        BRNCCOCO    BRNCCOCO13AG2020032500:00:00OR  010000061686850006168685150946                             2020032520200325Z016CIF202003250000000000012539NN0                                                  0                                        
2MAIL0000150946BR10        BRNC        BRNCCOCO    BRNCCOCO13AG00000100000000001132033100000000000000100000000000000000000000002241Z01620200325X066000000
2MAIL0000150946BR10        BRNC        BRNCCOCO    BRNCCOCO13AG00000200000000001132200400000000000000200000000000000000000000004460Z01620200325X066000000
2MAIL0000150946BR10        BRNC        BRNCCOCO    BRNCCOCO13AG00000300000000001215533700000000000000100000000000000000000000002241Z01620200325X066000000
2MAIL0000150946BR10        BRNC        BRNCCOCO    BRNCCOCO13AG00000400000000001240924900000000000002000000000000000000000000003597Z01620200325X066000000
