1MAIL0000151704BR10        BRNC        BRNCCOCO    BRNCCOCO13AG2020033100:00:00OR  010000034831220003483122151704                             2020033120200331Z016CIF202003310000000000032682NN0                                                  0                                        
2MAIL0000151704BR10        BRNC        BRNCCOCO    BRNCCOCO13AG00000100000000001132019700000000000000600000000000000000000000011836Z01620200331X066000000
2MAIL0000151704BR10        BRNC        BRNCCOCO    BRNCCOCO13AG00000200000000001132036700000000000000600000000000000000000000013069Z01620200331X066000000
2MAIL0000151704BR10        BRNC        BRNCCOCO    BRNCCOCO13AG00000300000000001241623700000000000000300000000000000000000000007777Z01620200331X066000000
1MAIL0000151705BR10        BRNC        BRNCCOCO    BRNCCOCO13AG2020033100:00:00OR  010000058971340005897134151705                             2020033120200331Z016CIF202003310000000000006615NN0                                                  0                                        
2MAIL0000151705BR10        BRNC        BRNCCOCO    BRNCCOCO13AG00000100000000001132033100000000000000100000000000000000000000001654Z01620200331X066000000
2MAIL0000151705BR10        BRNC        BRNCCOCO    BRNCCOCO13AG00000200000000001132036700000000000000200000000000000000000000003307Z01620200331X066000000
2MAIL0000151705BR10        BRNC        BRNCCOCO    BRNCCOCO13AG00000300000000001215533700000000000000100000000000000000000000001654Z01620200331X066000000
1MAIL0000151706BR10        BRNC        BRNCCOCO    BRNCCOCO13AG2020033100:00:00OR  010000053209490005320949151706                             2020033120200331Z016CIF202003310000000000006872NN0                                                  0                                        
2MAIL0000151706BR10        BRNC        BRNCCOCO    BRNCCOCO13AG00000100000000001132036700000000000000300000000000000000000000006872Z01620200331X066000000
1MAIL0000151707BR10        BRNC        BRNCCOCO    BRNCCOCO13AG2020033100:00:00OR  010000038920490003892049151707                             2020033120200331Z016CIF202003310000000000022937NN0                                                  0                                        
2MAIL0000151707BR10        BRNC        BRNCCOCO    BRNCCOCO13AG00000100000000001132036700000000000000200000000000000000000000004581Z01620200331X066000000
2MAIL0000151707BR10        BRNC        BRNCCOCO    BRNCCOCO13AG00000200000000001215533700000000000000100000000000000000000000002291Z01620200331X066000000
2MAIL0000151707BR10        BRNC        BRNCCOCO    BRNCCOCO13AG00000300000000001227395500000000000000100000000000000000000000002291Z01620200331X066000000
2MAIL0000151707BR10        BRNC        BRNCCOCO    BRNCCOCO13AG00000400000000001236512900000000000000500000000000000000000000001002Z01620200331X066000000
2MAIL0000151707BR10        BRNC        BRNCCOCO    BRNCCOCO13AG00000500000000001236515000000000000000500000000000000000000000001002Z01620200331X066000000
2MAIL0000151707BR10        BRNC        BRNCCOCO    BRNCCOCO13AG00000600000000001239688800000000000001400000000000000000000000005885Z01620200331X066000000
2MAIL0000151707BR10        BRNC        BRNCCOCO    BRNCCOCO13AG00000700000000001239692100000000000001400000000000000000000000005885Z01620200331X066000000
1MAIL0000151708BR10        BRNC        BRNCCOCO    BRNCCOCO13AG2020033100:00:00OR  010000060135070006013507151708                             2020033120200331Z016CIF202003310000000000009521NN0                                                  0                                        
2MAIL0000151708BR10        BRNC        BRNCCOCO    BRNCCOCO13AG00000100000000001132019700000000000000100000000000000000000000002076Z01620200331X066000000
2MAIL0000151708BR10        BRNC        BRNCCOCO    BRNCCOCO13AG00000200000000001132020900000000000000100000000000000000000000002076Z01620200331X066000000
2MAIL0000151708BR10        BRNC        BRNCCOCO    BRNCCOCO13AG00000300000000001132036700000000000000100000000000000000000000002291Z01620200331X066000000
2MAIL0000151708BR10        BRNC        BRNCCOCO    BRNCCOCO13AG00000400000000001227735000000000000000100000000000000000000000002076Z01620200331X066000000
2MAIL0000151708BR10        BRNC        BRNCCOCO    BRNCCOCO13AG00000500000000001236512900000000000000500000000000000000000000001002Z01620200331X066000000
1MAIL0000151709BR10        BRNC        BRNCCOCO    BRNCCOCO13AG2020033100:00:00OR  010000061672320006167232151709                             2020033120200331Z016CIF202003310000000000007955NN0                                                  0                                        
2MAIL0000151709BR10        BRNC        BRNCCOCO    BRNCCOCO13AG00000100000000001132036700000000000000100000000000000000000000002125Z01620200331X066000000
2MAIL0000151709BR10        BRNC        BRNCCOCO    BRNCCOCO13AG00000200000000001214448900000000000000100000000000000000000000004853Z01620200331X066000000
2MAIL0000151709BR10        BRNC        BRNCCOCO    BRNCCOCO13AG00000300000000001236515000000000000000500000000000000000000000000977Z01620200331X066000000
1MAIL0000151710BR10        BRNC        BRNCCOCO    BRNCCOCO13AG2020033100:00:00OR  010000034831180003483118151710                             2020033120200331Z016CIF202003310000000000006518NN0                                                  0                                        
2MAIL0000151710BR10        BRNC        BRNCCOCO    BRNCCOCO13AG00000100000000001132033100000000000000100000000000000000000000002173Z01620200331X066000000
2MAIL0000151710BR10        BRNC        BRNCCOCO    BRNCCOCO13AG00000200000000001132036700000000000000200000000000000000000000004345Z01620200331X066000000
1MAIL0000151711BR10        BRNC        BRNCCOCO    BRNCCOCO13AG2020033100:00:00OR  010000029807400002980740151711                             2020033120200331Z016CIF202003310000000000006518NN0                                                  0                                        
2MAIL0000151711BR10        BRNC        BRNCCOCO    BRNCCOCO13AG00000100000000001132033100000000000000100000000000000000000000002173Z01620200331X066000000
2MAIL0000151711BR10        BRNC        BRNCCOCO    BRNCCOCO13AG00000200000000001132036700000000000000200000000000000000000000004345Z01620200331X066000000
1MAIL0000151712BR10        BRNC        BRNCCOCO    BRNCCOCO13AG2020033100:00:00OR  010000028634900002863490151712                             2020033120200331Z016CIF202003310000000000010865NN0                                                  0                                        
2MAIL0000151712BR10        BRNC        BRNCCOCO    BRNCCOCO13AG00000100000000001132033100000000000000100000000000000000000000002173Z01620200331X066000000
2MAIL0000151712BR10        BRNC        BRNCCOCO    BRNCCOCO13AG00000200000000001132036700000000000000400000000000000000000000008692Z01620200331X066000000
1MAIL0000151713BR10        BRNC        BRNCCOCO    BRNCCOCO13AG2020033100:00:00OR  010000049606050004960605151713                             2020033120200331Z016CIF202003310000000000151407NN0                                                  0                                        
2MAIL0000151713BR10        BRNC        BRNCCOCO    BRNCCOCO13AG00000100000000001132004000000000000000500000000000000000000000005102Z01620200331X066000000
2MAIL0000151713BR10        BRNC        BRNCCOCO    BRNCCOCO13AG00000200000000001132018300000000000000300000000000000000000000010624Z01620200331X066000000
2MAIL0000151713BR10        BRNC        BRNCCOCO    BRNCCOCO13AG00000300000000001132019700000000000000300000000000000000000000005903Z01620200331X066000000
2MAIL0000151713BR10        BRNC        BRNCCOCO    BRNCCOCO13AG00000400000000001132019800000000000000300000000000000000000000005903Z01620200331X066000000
2MAIL0000151713BR10        BRNC        BRNCCOCO    BRNCCOCO13AG00000500000000001132033100000000000000300000000000000000000000006518Z01620200331X066000000
2MAIL0000151713BR10        BRNC        BRNCCOCO    BRNCCOCO13AG00000600000000001132036700000000000001000000000000000000000000021728Z01620200331X066000000
2MAIL0000151713BR10        BRNC        BRNCCOCO    BRNCCOCO13AG00000700000000001132200400000000000001000000000000000000000000021151Z01620200331X066000000
2MAIL0000151713BR10        BRNC        BRNCCOCO    BRNCCOCO13AG00000800000000001215533700000000000000300000000000000000000000006518Z01620200331X066000000
2MAIL0000151713BR10        BRNC        BRNCCOCO    BRNCCOCO13AG00000900000000001221415400000000000000300000000000000000000000010624Z01620200331X066000000
2MAIL0000151713BR10        BRNC        BRNCCOCO    BRNCCOCO13AG00001000000000001239688800000000000001400000000000000000000000005343Z01620200331X066000000
2MAIL0000151713BR10        BRNC        BRNCCOCO    BRNCCOCO13AG00001100000000001241577400000000000006000000000000000000000000051993Z01620200331X066000000
1MAIL0000151714BR10        BRNC        BRNCCOCO    BRNCCOCO13AG2020033100:00:00OR  010000034831290003483129151714                             2020033120200331Z016CIF202003310000000000006518NN0                                                  0                                        
2MAIL0000151714BR10        BRNC        BRNCCOCO    BRNCCOCO13AG00000100000000001132033100000000000000100000000000000000000000002173Z01620200331X066000000
2MAIL0000151714BR10        BRNC        BRNCCOCO    BRNCCOCO13AG00000200000000001132036700000000000000200000000000000000000000004345Z01620200331X066000000
1MAIL0000151715BR10        BRNC        BRNCCOCO    BRNCCOCO13AG2020033100:00:00OR  010000060969110006096911151715                             2020033120200331Z016CIF202003310000000000128516NN0                                                  0                                        
2MAIL0000151715BR10        BRNC        BRNCCOCO    BRNCCOCO13AG00000100000000001239663300000000000005600000000000000000000000021420Z01620200331X066000000
2MAIL0000151715BR10        BRNC        BRNCCOCO    BRNCCOCO13AG00000200000000001239688600000000000005600000000000000000000000021420Z01620200331X066000000
2MAIL0000151715BR10        BRNC        BRNCCOCO    BRNCCOCO13AG00000300000000001239688700000000000002800000000000000000000000010709Z01620200331X066000000
2MAIL0000151715BR10        BRNC        BRNCCOCO    BRNCCOCO13AG00000400000000001239688800000000000005600000000000000000000000021420Z01620200331X066000000
2MAIL0000151715BR10        BRNC        BRNCCOCO    BRNCCOCO13AG00000500000000001239692100000000000005600000000000000000000000021420Z01620200331X066000000
2MAIL0000151715BR10        BRNC        BRNCCOCO    BRNCCOCO13AG00000600000000001242626100000000000002800000000000000000000000010709Z01620200331X066000000
2MAIL0000151715BR10        BRNC        BRNCCOCO    BRNCCOCO13AG00000700000000001242754900000000000002800000000000000000000000010709Z01620200331X066000000
2MAIL0000151715BR10        BRNC        BRNCCOCO    BRNCCOCO13AG00000800000000001242765000000000000002800000000000000000000000010709Z01620200331X066000000
1MAIL0000151716BR10        BRNC        BRNCCOCO    BRNCCOCO13AG2020033100:00:00OR  010000054826810005482681151716                             2020033120200331Z016CIF202003310000000000102394NN0                                                  0                                        
2MAIL0000151716BR10        BRNC        BRNCCOCO    BRNCCOCO13AG00000100000000001132036700000000000001000000000000000000000000022909Z01620200331X066000000
2MAIL0000151716BR10        BRNC        BRNCCOCO    BRNCCOCO13AG00000200000000001226089600000000000009600000000000000000000000040350Z01620200331X066000000
2MAIL0000151716BR10        BRNC        BRNCCOCO    BRNCCOCO13AG00000300000000001231389600000000000000500000000000000000000000011454Z01620200331X066000000
2MAIL0000151716BR10        BRNC        BRNCCOCO    BRNCCOCO13AG00000400000000001235699400000000000002000000000000000000000000008422Z01620200331X066000000
2MAIL0000151716BR10        BRNC        BRNCCOCO    BRNCCOCO13AG00000500000000001235699800000000000001000000000000000000000000004211Z01620200331X066000000
2MAIL0000151716BR10        BRNC        BRNCCOCO    BRNCCOCO13AG00000600000000001236898000000000000000400000000000000000000000009163Z01620200331X066000000
2MAIL0000151716BR10        BRNC        BRNCCOCO    BRNCCOCO13AG00000700000000001239688500000000000001400000000000000000000000005885Z01620200331X066000000
1MAIL0000151719BR10        BRNC        BRNCCOCO    BRNCCOCO13AG2020033100:00:00OR  010000029799650002979965151719                             2020033120200331Z016CIF202003310000000000559341NN0                                                  0                                        
2MAIL0000151719BR10        BRNC        BRNCCOCO    BRNCCOCO13AG00000100000000001132019700000000000000200000000000000000000000003936Z01620200331X066000000
2MAIL0000151719BR10        BRNC        BRNCCOCO    BRNCCOCO13AG00000200000000001132019800000000000000300000000000000000000000005903Z01620200331X066000000
2MAIL0000151719BR10        BRNC        BRNCCOCO    BRNCCOCO13AG00000300000000001132019900000000000000100000000000000000000000001967Z01620200331X066000000
2MAIL0000151719BR10        BRNC        BRNCCOCO    BRNCCOCO13AG00000400000000001132020900000000000000200000000000000000000000003936Z01620200331X066000000
2MAIL0000151719BR10        BRNC        BRNCCOCO    BRNCCOCO13AG00000500000000001132033100000000000006400000000000000000000000139056Z01620200331X066000000
2MAIL0000151719BR10        BRNC        BRNCCOCO    BRNCCOCO13AG00000600000000001132036700000000000003200000000000000000000000069528Z01620200331X066000000
2MAIL0000151719BR10        BRNC        BRNCCOCO    BRNCCOCO13AG00000700000000001132200400000000000001200000000000000000000000025381Z01620200331X066000000
2MAIL0000151719BR10        BRNC        BRNCCOCO    BRNCCOCO13AG00000800000000001132400100000000000000100000000000000000000000003003Z01620200331X066000000
2MAIL0000151719BR10        BRNC        BRNCCOCO    BRNCCOCO13AG00000900000000001215533700000000000001600000000000000000000000034765Z01620200331X066000000
2MAIL0000151719BR10        BRNC        BRNCCOCO    BRNCCOCO13AG00001000000000001221415400000000000000100000000000000000000000003541Z01620200331X066000000
2MAIL0000151719BR10        BRNC        BRNCCOCO    BRNCCOCO13AG00001100000000001223975300000000000000100000000000000000000000005076Z01620200331X066000000
2MAIL0000151719BR10        BRNC        BRNCCOCO    BRNCCOCO13AG00001200000000001226089600000000000001200000000000000000000000004580Z01620200331X066000000
2MAIL0000151719BR10        BRNC        BRNCCOCO    BRNCCOCO13AG00001300000000001227395500000000000001600000000000000000000000034765Z01620200331X066000000
2MAIL0000151719BR10        BRNC        BRNCCOCO    BRNCCOCO13AG00001400000000001227735000000000000000100000000000000000000000001967Z01620200331X066000000
2MAIL0000151719BR10        BRNC        BRNCCOCO    BRNCCOCO13AG00001500000000001228274000000000000000100000000000000000000000005076Z01620200331X066000000
2MAIL0000151719BR10        BRNC        BRNCCOCO    BRNCCOCO13AG00001600000000001228512700000000000000100000000000000000000000005076Z01620200331X066000000
2MAIL0000151719BR10        BRNC        BRNCCOCO    BRNCCOCO13AG00001700000000001231189200000000000000100000000000000000000000005076Z01620200331X066000000
2MAIL0000151719BR10        BRNC        BRNCCOCO    BRNCCOCO13AG00001800000000001231231200000000000000300000000000000000000000015229Z01620200331X066000000
2MAIL0000151719BR10        BRNC        BRNCCOCO    BRNCCOCO13AG00001900000000001231233000000000000000200000000000000000000000010153Z01620200331X066000000
2MAIL0000151719BR10        BRNC        BRNCCOCO    BRNCCOCO13AG00002000000000001234705700000000000000100000000000000000000000005076Z01620200331X066000000
2MAIL0000151719BR10        BRNC        BRNCCOCO    BRNCCOCO13AG00002100000000001234705800000000000000100000000000000000000000005076Z01620200331X066000000
2MAIL0000151719BR10        BRNC        BRNCCOCO    BRNCCOCO13AG00002200000000001234705900000000000000100000000000000000000000005076Z01620200331X066000000
2MAIL0000151719BR10        BRNC        BRNCCOCO    BRNCCOCO13AG00002300000000001235699400000000000001000000000000000000000000003825Z01620200331X066000000
2MAIL0000151719BR10        BRNC        BRNCCOCO    BRNCCOCO13AG00002400000000001235699700000000000001000000000000000000000000003825Z01620200331X066000000
2MAIL0000151719BR10        BRNC        BRNCCOCO    BRNCCOCO13AG00002500000000001235699800000000000001000000000000000000000000003825Z01620200331X066000000
2MAIL0000151719BR10        BRNC        BRNCCOCO    BRNCCOCO13AG00002600000000001236512800000000000002800000000000000000000000004831Z01620200331X066000000
2MAIL0000151719BR10        BRNC        BRNCCOCO    BRNCCOCO13AG00002700000000001236512900000000000002500000000000000000000000004545Z01620200331X066000000
2MAIL0000151719BR10        BRNC        BRNCCOCO    BRNCCOCO13AG00002800000000001236515000000000000002500000000000000000000000004545Z01620200331X066000000
2MAIL0000151719BR10        BRNC        BRNCCOCO    BRNCCOCO13AG00002900000000001236898000000000000001600000000000000000000000034765Z01620200331X066000000
2MAIL0000151719BR10        BRNC        BRNCCOCO    BRNCCOCO13AG00003000000000001238083500000000000000100000000000000000000000005076Z01620200331X066000000
2MAIL0000151719BR10        BRNC        BRNCCOCO    BRNCCOCO13AG00003100000000001238083600000000000000100000000000000000000000006310Z01620200331X066000000
2MAIL0000151719BR10        BRNC        BRNCCOCO    BRNCCOCO13AG00003200000000001239373400000000000000100000000000000000000000006340Z01620200331X066000000
2MAIL0000151719BR10        BRNC        BRNCCOCO    BRNCCOCO13AG00003300000000001239373500000000000000100000000000000000000000006340Z01620200331X066000000
2MAIL0000151719BR10        BRNC        BRNCCOCO    BRNCCOCO13AG00003400000000001239373600000000000000100000000000000000000000006340Z01620200331X066000000
2MAIL0000151719BR10        BRNC        BRNCCOCO    BRNCCOCO13AG00003500000000001239373700000000000000100000000000000000000000006340Z01620200331X066000000
2MAIL0000151719BR10        BRNC        BRNCCOCO    BRNCCOCO13AG00003600000000001239663300000000000001400000000000000000000000005343Z01620200331X066000000
2MAIL0000151719BR10        BRNC        BRNCCOCO    BRNCCOCO13AG00003700000000001239688300000000000001400000000000000000000000005343Z01620200331X066000000
2MAIL0000151719BR10        BRNC        BRNCCOCO    BRNCCOCO13AG00003800000000001239688500000000000001400000000000000000000000005343Z01620200331X066000000
2MAIL0000151719BR10        BRNC        BRNCCOCO    BRNCCOCO13AG00003900000000001239688600000000000001400000000000000000000000005343Z01620200331X066000000
2MAIL0000151719BR10        BRNC        BRNCCOCO    BRNCCOCO13AG00004000000000001239688700000000000001400000000000000000000000005343Z01620200331X066000000
2MAIL0000151719BR10        BRNC        BRNCCOCO    BRNCCOCO13AG00004100000000001239688800000000000001400000000000000000000000005343Z01620200331X066000000
2MAIL0000151719BR10        BRNC        BRNCCOCO    BRNCCOCO13AG00004200000000001239692000000000000001400000000000000000000000005343Z01620200331X066000000
2MAIL0000151719BR10        BRNC        BRNCCOCO    BRNCCOCO13AG00004300000000001239692100000000000001400000000000000000000000005343Z01620200331X066000000
2MAIL0000151719BR10        BRNC        BRNCCOCO    BRNCCOCO13AG00004400000000001239692300000000000001400000000000000000000000005343Z01620200331X066000000
2MAIL0000151719BR10        BRNC        BRNCCOCO    BRNCCOCO13AG00004500000000001242374800000000000000100000000000000000000000005076Z01620200331X066000000
2MAIL0000151719BR10        BRNC        BRNCCOCO    BRNCCOCO13AG00004600000000001242626100000000000001400000000000000000000000005343Z01620200331X066000000
2MAIL0000151719BR10        BRNC        BRNCCOCO    BRNCCOCO13AG00004700000000001242754900000000000001400000000000000000000000005343Z01620200331X066000000
2MAIL0000151719BR10        BRNC        BRNCCOCO    BRNCCOCO13AG00004800000000001242765000000000000001400000000000000000000000005343Z01620200331X066000000
1MAIL0000151720BR10        BRNC        BRNCCOCO    BRNCCOCO13AG2020033100:00:00OR  010000053553300005355330151720                             2020033120200331Z016CIF202003310000000000042100NN0                                                  0                                        
2MAIL0000151720BR10        BRNC        BRNCCOCO    BRNCCOCO13AG00000100000000001132033100000000000000100000000000000000000000002173Z01620200331X066000000
2MAIL0000151720BR10        BRNC        BRNCCOCO    BRNCCOCO13AG00000200000000001132036700000000000000100000000000000000000000002173Z01620200331X066000000
2MAIL0000151720BR10        BRNC        BRNCCOCO    BRNCCOCO13AG00000300000000001236512800000000000002000000000000000000000000003801Z01620200331X066000000
2MAIL0000151720BR10        BRNC        BRNCCOCO    BRNCCOCO13AG00000400000000001236512900000000000001000000000000000000000000001997Z01620200331X066000000
2MAIL0000151720BR10        BRNC        BRNCCOCO    BRNCCOCO13AG00000500000000001236515000000000000001000000000000000000000000001997Z01620200331X066000000
2MAIL0000151720BR10        BRNC        BRNCCOCO    BRNCCOCO13AG00000600000000001241577400000000000003000000000000000000000000027367Z01620200331X066000000
2MAIL0000151720BR10        BRNC        BRNCCOCO    BRNCCOCO13AG00000700000000001241623700000000000000100000000000000000000000002592Z01620200331X066000000
