1MAIL0000153459BR10        BRNC        BRNCCOCO    BRNCCOCO13AG2020041600:00:00OR  010000043636470004363647153459                             2020041620200416Z016CIF202004160000000000015584NN0                                                  0                                        
2MAIL0000153459BR10        BRNC        BRNCCOCO    BRNCCOCO13AG00000100000000001132033100000000000000100000000000000000000000002173Z01620200416X066000000
2MAIL0000153459BR10        BRNC        BRNCCOCO    BRNCCOCO13AG00000200000000001132036700000000000000100000000000000000000000002173Z01620200416X066000000
2MAIL0000153459BR10        BRNC        BRNCCOCO    BRNCCOCO13AG00000300000000001132200400000000000000100000000000000000000000002115Z01620200416X066000000
2MAIL0000153459BR10        BRNC        BRNCCOCO    BRNCCOCO13AG00000400000000001221415400000000000000100000000000000000000000003541Z01620200416X066000000
2MAIL0000153459BR10        BRNC        BRNCCOCO    BRNCCOCO13AG00000500000000001239688800000000000001400000000000000000000000005582Z01620200416X066000000
1MAIL0000153460BR10        BRNC        BRNCCOCO    BRNCCOCO13AG2020041600:00:00OR  010000061789900006178990153460                             2020041620200416Z079CIF202004160000000000025680NN0                                                  0                                        
2MAIL0000153460BR10        BRNC        BRNCCOCO    BRNCCOCO13AG00000100000000001132036700000000000000100000000000000000000000002247Z07920200416X066000000
2MAIL0000153460BR10        BRNC        BRNCCOCO    BRNCCOCO13AG00000200000000001132200400000000000000100000000000000000000000002236Z07920200416X066000000
2MAIL0000153460BR10        BRNC        BRNCCOCO    BRNCCOCO13AG00000300000000001215533700000000000000100000000000000000000000002247Z07920200416X066000000
2MAIL0000153460BR10        BRNC        BRNCCOCO    BRNCCOCO13AG00000400000000001223975300000000000000100000000000000000000000005458Z07920200416X066000000
2MAIL0000153460BR10        BRNC        BRNCCOCO    BRNCCOCO13AG00000500000000001236512900000000000000500000000000000000000000000980Z07920200416X066000000
2MAIL0000153460BR10        BRNC        BRNCCOCO    BRNCCOCO13AG00000600000000001236515000000000000000500000000000000000000000000980Z07920200416X066000000
2MAIL0000153460BR10        BRNC        BRNCCOCO    BRNCCOCO13AG00000700000000001239688600000000000001400000000000000000000000005766Z07920200416X066000000
2MAIL0000153460BR10        BRNC        BRNCCOCO    BRNCCOCO13AG00000800000000001239688800000000000001400000000000000000000000005766Z07920200416X066000000
1MAIL0000153461BR10        BRNC        BRNCCOCO    BRNCCOCO13AG2020041600:00:00OR  010000028621220002862122153461                             2020041620200416Z079CIF202004160000000000130336NN0                                                  0                                        
2MAIL0000153461BR10        BRNC        BRNCCOCO    BRNCCOCO13AG00000100000000001132019700000000000000200000000000000000000000004162Z07920200416X066000000
2MAIL0000153461BR10        BRNC        BRNCCOCO    BRNCCOCO13AG00000200000000001132019800000000000000200000000000000000000000004162Z07920200416X066000000
2MAIL0000153461BR10        BRNC        BRNCCOCO    BRNCCOCO13AG00000300000000001132020900000000000000200000000000000000000000004162Z07920200416X066000000
2MAIL0000153461BR10        BRNC        BRNCCOCO    BRNCCOCO13AG00000400000000001132200400000000000000500000000000000000000000011179Z07920200416X066000000
2MAIL0000153461BR10        BRNC        BRNCCOCO    BRNCCOCO13AG00000500000000001226089600000000000001200000000000000000000000005054Z07920200416X066000000
2MAIL0000153461BR10        BRNC        BRNCCOCO    BRNCCOCO13AG00000600000000001228274000000000000000100000000000000000000000005581Z07920200416X066000000
2MAIL0000153461BR10        BRNC        BRNCCOCO    BRNCCOCO13AG00000700000000001228512700000000000000200000000000000000000000011162Z07920200416X066000000
2MAIL0000153461BR10        BRNC        BRNCCOCO    BRNCCOCO13AG00000800000000001231189200000000000000200000000000000000000000011162Z07920200416X066000000
2MAIL0000153461BR10        BRNC        BRNCCOCO    BRNCCOCO13AG00000900000000001231231200000000000000200000000000000000000000011162Z07920200416X066000000
2MAIL0000153461BR10        BRNC        BRNCCOCO    BRNCCOCO13AG00001000000000001234705700000000000000100000000000000000000000005581Z07920200416X066000000
2MAIL0000153461BR10        BRNC        BRNCCOCO    BRNCCOCO13AG00001100000000001235699800000000000001000000000000000000000000004220Z07920200416X066000000
2MAIL0000153461BR10        BRNC        BRNCCOCO    BRNCCOCO13AG00001200000000001239663300000000000001400000000000000000000000005896Z07920200416X066000000
2MAIL0000153461BR10        BRNC        BRNCCOCO    BRNCCOCO13AG00001300000000001239688300000000000001400000000000000000000000005896Z07920200416X066000000
2MAIL0000153461BR10        BRNC        BRNCCOCO    BRNCCOCO13AG00001400000000001239688500000000000001400000000000000000000000005896Z07920200416X066000000
2MAIL0000153461BR10        BRNC        BRNCCOCO    BRNCCOCO13AG00001500000000001239688600000000000001400000000000000000000000005896Z07920200416X066000000
2MAIL0000153461BR10        BRNC        BRNCCOCO    BRNCCOCO13AG00001600000000001239688800000000000002800000000000000000000000011792Z07920200416X066000000
2MAIL0000153461BR10        BRNC        BRNCCOCO    BRNCCOCO13AG00001700000000001239692100000000000001400000000000000000000000005896Z07920200416X066000000
2MAIL0000153461BR10        BRNC        BRNCCOCO    BRNCCOCO13AG00001800000000001242374800000000000000100000000000000000000000005581Z07920200416X066000000
2MAIL0000153461BR10        BRNC        BRNCCOCO    BRNCCOCO13AG00001900000000001242754900000000000001400000000000000000000000005896Z07920200416X066000000
1MAIL0000153462BR10        BRNC        BRNCCOCO    BRNCCOCO13AG2020041600:00:00OR  010000052846210005284621153462                             2020041620200416Z016CIF202004160000000000007583NN0                                                  0                                        
2MAIL0000153462BR10        BRNC        BRNCCOCO    BRNCCOCO13AG00000100000000001241577400000000000001000000000000000000000000007583Z01620200416X066000000
1MAIL0000153463BR10        BRNC        BRNCCOCO    BRNCCOCO13AG2020041600:00:00OR  010000029800100002980010153463                             2020041620200416Z016CIF202004160000000000155749NN0                                                  0                                        
2MAIL0000153463BR10        BRNC        BRNCCOCO    BRNCCOCO13AG00000100000000001132034900000000000001000000000000000000000000022150Z01620200416X066000000
2MAIL0000153463BR10        BRNC        BRNCCOCO    BRNCCOCO13AG00000200000000001132200400000000000000200000000000000000000000004230Z01620200416X066000000
2MAIL0000153463BR10        BRNC        BRNCCOCO    BRNCCOCO13AG00000300000000001215533700000000000000400000000000000000000000008692Z01620200416X066000000
2MAIL0000153463BR10        BRNC        BRNCCOCO    BRNCCOCO13AG00000400000000001226089600000000000002400000000000000000000000009159Z01620200416X066000000
2MAIL0000153463BR10        BRNC        BRNCCOCO    BRNCCOCO13AG00000500000000001227395500000000000000200000000000000000000000004345Z01620200416X066000000
2MAIL0000153463BR10        BRNC        BRNCCOCO    BRNCCOCO13AG00000600000000001235699400000000000002000000000000000000000000007648Z01620200416X066000000
2MAIL0000153463BR10        BRNC        BRNCCOCO    BRNCCOCO13AG00000700000000001236898000000000000000400000000000000000000000008692Z01620200416X066000000
2MAIL0000153463BR10        BRNC        BRNCCOCO    BRNCCOCO13AG00000800000000001239663300000000000002800000000000000000000000010686Z01620200416X066000000
2MAIL0000153463BR10        BRNC        BRNCCOCO    BRNCCOCO13AG00000900000000001239688300000000000002800000000000000000000000010686Z01620200416X066000000
2MAIL0000153463BR10        BRNC        BRNCCOCO    BRNCCOCO13AG00001000000000001239688600000000000002800000000000000000000000010686Z01620200416X066000000
2MAIL0000153463BR10        BRNC        BRNCCOCO    BRNCCOCO13AG00001100000000001239688700000000000002800000000000000000000000010686Z01620200416X066000000
2MAIL0000153463BR10        BRNC        BRNCCOCO    BRNCCOCO13AG00001200000000001239688800000000000004200000000000000000000000016030Z01620200416X066000000
2MAIL0000153463BR10        BRNC        BRNCCOCO    BRNCCOCO13AG00001300000000001239692000000000000001400000000000000000000000005343Z01620200416X066000000
2MAIL0000153463BR10        BRNC        BRNCCOCO    BRNCCOCO13AG00001400000000001239692100000000000004200000000000000000000000016030Z01620200416X066000000
2MAIL0000153463BR10        BRNC        BRNCCOCO    BRNCCOCO13AG00001500000000001239692300000000000002800000000000000000000000010686Z01620200416X066000000
1MAIL0000153464BR10        BRNC        BRNCCOCO    BRNCCOCO13AG2020041600:00:00OR  010000053911220005391122153464                             2020041620200416Z016CIF202004160000000000010903NN0                                                  0                                        
2MAIL0000153464BR10        BRNC        BRNCCOCO    BRNCCOCO13AG00000100000000001132019800000000000000100000000000000000000000001967Z01620200416X066000000
2MAIL0000153464BR10        BRNC        BRNCCOCO    BRNCCOCO13AG00000200000000001132033100000000000000100000000000000000000000002173Z01620200416X066000000
2MAIL0000153464BR10        BRNC        BRNCCOCO    BRNCCOCO13AG00000300000000001132036700000000000000100000000000000000000000002173Z01620200416X066000000
2MAIL0000153464BR10        BRNC        BRNCCOCO    BRNCCOCO13AG00000400000000001236512900000000000000500000000000000000000000000999Z01620200416X066000000
2MAIL0000153464BR10        BRNC        BRNCCOCO    BRNCCOCO13AG00000500000000001236515000000000000000500000000000000000000000000999Z01620200416X066000000
2MAIL0000153464BR10        BRNC        BRNCCOCO    BRNCCOCO13AG00000600000000001241623700000000000000100000000000000000000000002592Z01620200416X066000000
1MAIL0000153465BR10        BRNC        BRNCCOCO    BRNCCOCO13AG2020041600:00:00OR  010000054468030005446803153465                             2020041620200416Z016CIF202004160000000000004582NN0                                                  0                                        
2MAIL0000153465BR10        BRNC        BRNCCOCO    BRNCCOCO13AG00000100000000001132036700000000000000100000000000000000000000002291Z01620200416X066000000
2MAIL0000153465BR10        BRNC        BRNCCOCO    BRNCCOCO13AG00000200000000001227395500000000000000100000000000000000000000002291Z01620200416X066000000
1MAIL0000153466BR10        BRNC        BRNCCOCO    BRNCCOCO13AG2020041600:00:00OR  010000041669360004166936153466                             2020041620200416Z016CIF202004160000000000026817NN0                                                  0                                        
2MAIL0000153466BR10        BRNC        BRNCCOCO    BRNCCOCO13AG00000100000000001132033100000000000000200000000000000000000000004581Z01620200416X066000000
2MAIL0000153466BR10        BRNC        BRNCCOCO    BRNCCOCO13AG00000200000000001132036700000000000000200000000000000000000000004581Z01620200416X066000000
2MAIL0000153466BR10        BRNC        BRNCCOCO    BRNCCOCO13AG00000300000000001239688600000000000001400000000000000000000000005885Z01620200416X066000000
2MAIL0000153466BR10        BRNC        BRNCCOCO    BRNCCOCO13AG00000400000000001239688800000000000001400000000000000000000000005885Z01620200416X066000000
2MAIL0000153466BR10        BRNC        BRNCCOCO    BRNCCOCO13AG00000500000000001239692000000000000001400000000000000000000000005885Z01620200416X066000000
1MAIL0000153467BR10        BRNC        BRNCCOCO    BRNCCOCO13AG2020041600:00:00OR  010000059950470005995047153467                             2020041620200416Z079CIF202004160000000000005728NN0                                                  0                                        
2MAIL0000153467BR10        BRNC        BRNCCOCO    BRNCCOCO13AG00000100000000001132018300000000000000100000000000000000000000003549Z07920200416X066000000
2MAIL0000153467BR10        BRNC        BRNCCOCO    BRNCCOCO13AG00000200000000001132036700000000000000100000000000000000000000002179Z07920200416X066000000
1MAIL0000153468BR10        BRNC        BRNCCOCO    BRNCCOCO13AG2020041600:00:00OR  010000058503010005850301153468                             2020041620200416Z079CIF202004160000000000006763NN0                                                  0                                        
2MAIL0000153468BR10        BRNC        BRNCCOCO    BRNCCOCO13AG00000100000000001132019800000000000000100000000000000000000000001979Z07920200416X066000000
2MAIL0000153468BR10        BRNC        BRNCCOCO    BRNCCOCO13AG00000200000000001132036700000000000000100000000000000000000000002185Z07920200416X066000000
2MAIL0000153468BR10        BRNC        BRNCCOCO    BRNCCOCO13AG00000300000000001241623700000000000000100000000000000000000000002599Z07920200416X066000000
1MAIL0000153469BR10        BRNC        BRNCCOCO    BRNCCOCO13AG2020041600:00:00OR  010000059804240005980424153469                             2020041620200416Z016CIF202004160000000000022307NN0                                                  0                                        
2MAIL0000153469BR10        BRNC        BRNCCOCO    BRNCCOCO13AG00000100000000001132033100000000000000200000000000000000000000003307Z01620200416X066000000
2MAIL0000153469BR10        BRNC        BRNCCOCO    BRNCCOCO13AG00000200000000001132036700000000000000200000000000000000000000003307Z01620200416X066000000
2MAIL0000153469BR10        BRNC        BRNCCOCO    BRNCCOCO13AG00000300000000001215533700000000000000200000000000000000000000003307Z01620200416X066000000
2MAIL0000153469BR10        BRNC        BRNCCOCO    BRNCCOCO13AG00000400000000001227735000000000000000100000000000000000000000001498Z01620200416X066000000
2MAIL0000153469BR10        BRNC        BRNCCOCO    BRNCCOCO13AG00000500000000001236512900000000000000500000000000000000000000000956Z01620200416X066000000
2MAIL0000153469BR10        BRNC        BRNCCOCO    BRNCCOCO13AG00000600000000001236515000000000000000500000000000000000000000000956Z01620200416X066000000
2MAIL0000153469BR10        BRNC        BRNCCOCO    BRNCCOCO13AG00000700000000001241577400000000000000500000000000000000000000003792Z01620200416X066000000
2MAIL0000153469BR10        BRNC        BRNCCOCO    BRNCCOCO13AG00000800000000001241623700000000000000200000000000000000000000005184Z01620200416X066000000
1MAIL0000153470BR10        BRNC        BRNCCOCO    BRNCCOCO13AG2020041600:00:00OR  010000060785100006078510153470                             2020041620200416Z016CIF202004160000000000010507NN0                                                  0                                        
2MAIL0000153470BR10        BRNC        BRNCCOCO    BRNCCOCO13AG00000100000000001235699400000000000001000000000000000000000000004211Z01620200416X066000000
2MAIL0000153470BR10        BRNC        BRNCCOCO    BRNCCOCO13AG00000200000000001236512800000000000001200000000000000000000000002288Z01620200416X066000000
2MAIL0000153470BR10        BRNC        BRNCCOCO    BRNCCOCO13AG00000300000000001236512900000000000001000000000000000000000000002004Z01620200416X066000000
2MAIL0000153470BR10        BRNC        BRNCCOCO    BRNCCOCO13AG00000400000000001236515000000000000001000000000000000000000000002004Z01620200416X066000000
1MAIL0000153471BR10        BRNC        BRNCCOCO    BRNCCOCO13AG2020041600:00:00OR  010000038477160003847716153471                             2020041620200416Z016CIF202004160000000000057419NN0                                                  0                                        
2MAIL0000153471BR10        BRNC        BRNCCOCO    BRNCCOCO13AG00000100000000001132033100000000000000200000000000000000000000004345Z01620200416X066000000
2MAIL0000153471BR10        BRNC        BRNCCOCO    BRNCCOCO13AG00000200000000001132036700000000000000500000000000000000000000010863Z01620200416X066000000
2MAIL0000153471BR10        BRNC        BRNCCOCO    BRNCCOCO13AG00000300000000001231189200000000000000100000000000000000000000005076Z01620200416X066000000
2MAIL0000153471BR10        BRNC        BRNCCOCO    BRNCCOCO13AG00000400000000001231231200000000000000100000000000000000000000005076Z01620200416X066000000
2MAIL0000153471BR10        BRNC        BRNCCOCO    BRNCCOCO13AG00000500000000001239663300000000000002800000000000000000000000010686Z01620200416X066000000
2MAIL0000153471BR10        BRNC        BRNCCOCO    BRNCCOCO13AG00000600000000001239688600000000000001400000000000000000000000005343Z01620200416X066000000
2MAIL0000153471BR10        BRNC        BRNCCOCO    BRNCCOCO13AG00000700000000001239692100000000000004200000000000000000000000016030Z01620200416X066000000
1MAIL0000153472BR10        BRNC        BRNCCOCO    BRNCCOCO13AG2020041600:00:00OR  010000061131900006113190153472                             2020041620200416Z016CIF202004160000000000010368NN0                                                  0                                        
2MAIL0000153472BR10        BRNC        BRNCCOCO    BRNCCOCO13AG00000100000000001241623700000000000000400000000000000000000000010368Z01620200416X066000000
1MAIL0000153473BR10        BRNC        BRNCCOCO    BRNCCOCO13AG2020041600:00:00OR  010000053209480005320948153473                             2020041620200416Z016CIF202004160000000000023540NN0                                                  0                                        
2MAIL0000153473BR10        BRNC        BRNCCOCO    BRNCCOCO13AG00000100000000001239663300000000000001400000000000000000000000005885Z01620200416X066000000
2MAIL0000153473BR10        BRNC        BRNCCOCO    BRNCCOCO13AG00000200000000001239688700000000000001400000000000000000000000005885Z01620200416X066000000
2MAIL0000153473BR10        BRNC        BRNCCOCO    BRNCCOCO13AG00000300000000001239688800000000000001400000000000000000000000005885Z01620200416X066000000
2MAIL0000153473BR10        BRNC        BRNCCOCO    BRNCCOCO13AG00000400000000001239692100000000000001400000000000000000000000005885Z01620200416X066000000
1MAIL0000153474BR10        BRNC        BRNCCOCO    BRNCCOCO13AG2020041600:00:00OR  010000058532370005853237153474                             2020041620200416Z016CIF202004160000000000034363NN0                                                  0                                        
2MAIL0000153474BR10        BRNC        BRNCCOCO    BRNCCOCO13AG00000100000000001132033100000000000000500000000000000000000000011454Z01620200416X066000000
2MAIL0000153474BR10        BRNC        BRNCCOCO    BRNCCOCO13AG00000200000000001132036700000000000001000000000000000000000000022909Z01620200416X066000000
1MAIL0000153475BR10        BRNC        BRNCCOCO    BRNCCOCO13AG2020041600:00:00OR  010000060092510006009251153475                             2020041620200416Z016CIF202004160000000000006812NN0                                                  0                                        
2MAIL0000153475BR10        BRNC        BRNCCOCO    BRNCCOCO13AG00000100000000001132033100000000000000100000000000000000000000002291Z01620200416X066000000
2MAIL0000153475BR10        BRNC        BRNCCOCO    BRNCCOCO13AG00000200000000001132036700000000000000100000000000000000000000002291Z01620200416X066000000
2MAIL0000153475BR10        BRNC        BRNCCOCO    BRNCCOCO13AG00000300000000001132200400000000000000100000000000000000000000002230Z01620200416X066000000
1MAIL0000153476BR10        BRNC        BRNCCOCO    BRNCCOCO13AG2020041600:00:00OR  010000040211290004021129153476                             2020041620200416Z016CIF202004160000000000010864NN0                                                  0                                        
2MAIL0000153476BR10        BRNC        BRNCCOCO    BRNCCOCO13AG00000100000000001132033100000000000000100000000000000000000000002173Z01620200416X066000000
2MAIL0000153476BR10        BRNC        BRNCCOCO    BRNCCOCO13AG00000200000000001132036700000000000000300000000000000000000000006518Z01620200416X066000000
2MAIL0000153476BR10        BRNC        BRNCCOCO    BRNCCOCO13AG00000300000000001215533700000000000000100000000000000000000000002173Z01620200416X066000000
