1MAIL0000152826BR10        BRNC        BRNCCOCO    BRNCCOCO13AG2020040900:00:00OR  010000041764690004176469152826                             2020040920200409Z016CIF202004090000000000005344NN0                                                  0                                        
2MAIL0000152826BR10        BRNC        BRNCCOCO    BRNCCOCO13AG00000100000000001132033100000000000000100000000000000000000000002291Z01620200409X066000000
2MAIL0000152826BR10        BRNC        BRNCCOCO    BRNCCOCO13AG00000200000000001132036700000000000000100000000000000000000000002291Z01620200409X066000000
2MAIL0000152826BR10        BRNC        BRNCCOCO    BRNCCOCO13AG00000300000000001236512800000000000000400000000000000000000000000762Z01620200409X066000000
1MAIL0000152831BR10        BRNC        BRNCCOCO    BRNCCOCO13AG2020040900:00:00OR  010000029799220002979922152831                             2020040920200409Z009CIF202004090000000000066918NN0                                                  0                                        
2MAIL0000152831BR10        BRNC        BRNCCOCO    BRNCCOCO13AG00000100000000001231189200000000000000100000000000000000000000004953Z00920200409X066000000
2MAIL0000152831BR10        BRNC        BRNCCOCO    BRNCCOCO13AG00000200000000001231231200000000000000100000000000000000000000004953Z00920200409X066000000
2MAIL0000152831BR10        BRNC        BRNCCOCO    BRNCCOCO13AG00000300000000001231233000000000000000100000000000000000000000004953Z00920200409X066000000
2MAIL0000152831BR10        BRNC        BRNCCOCO    BRNCCOCO13AG00000400000000001234705700000000000000100000000000000000000000004953Z00920200409X066000000
2MAIL0000152831BR10        BRNC        BRNCCOCO    BRNCCOCO13AG00000500000000001234705800000000000000100000000000000000000000004953Z00920200409X066000000
2MAIL0000152831BR10        BRNC        BRNCCOCO    BRNCCOCO13AG00000600000000001235699400000000000001000000000000000000000000003725Z00920200409X066000000
2MAIL0000152831BR10        BRNC        BRNCCOCO    BRNCCOCO13AG00000700000000001235699700000000000001000000000000000000000000003725Z00920200409X066000000
2MAIL0000152831BR10        BRNC        BRNCCOCO    BRNCCOCO13AG00000800000000001235699800000000000001000000000000000000000000003725Z00920200409X066000000
2MAIL0000152831BR10        BRNC        BRNCCOCO    BRNCCOCO13AG00000900000000001239688300000000000001400000000000000000000000005205Z00920200409X066000000
2MAIL0000152831BR10        BRNC        BRNCCOCO    BRNCCOCO13AG00001000000000001239688500000000000001400000000000000000000000005205Z00920200409X066000000
2MAIL0000152831BR10        BRNC        BRNCCOCO    BRNCCOCO13AG00001100000000001239688600000000000001400000000000000000000000005205Z00920200409X066000000
2MAIL0000152831BR10        BRNC        BRNCCOCO    BRNCCOCO13AG00001200000000001239688700000000000001400000000000000000000000005205Z00920200409X066000000
2MAIL0000152831BR10        BRNC        BRNCCOCO    BRNCCOCO13AG00001300000000001239688800000000000001400000000000000000000000005205Z00920200409X066000000
2MAIL0000152831BR10        BRNC        BRNCCOCO    BRNCCOCO13AG00001400000000001242374800000000000000100000000000000000000000004953Z00920200409X066000000
1MAIL0000152832BR10        BRNC        BRNCCOCO    BRNCCOCO13AG2020040900:00:00OR  010000040341030004034103152832                             2020040920200409Z016CIF202004090000000000054941NN0                                                  0                                        
2MAIL0000152832BR10        BRNC        BRNCCOCO    BRNCCOCO13AG00000100000000001132036700000000000000600000000000000000000000013746Z01620200409X066000000
2MAIL0000152832BR10        BRNC        BRNCCOCO    BRNCCOCO13AG00000200000000001239663300000000000002800000000000000000000000011770Z01620200409X066000000
2MAIL0000152832BR10        BRNC        BRNCCOCO    BRNCCOCO13AG00000300000000001239688300000000000001400000000000000000000000005885Z01620200409X066000000
2MAIL0000152832BR10        BRNC        BRNCCOCO    BRNCCOCO13AG00000400000000001239688800000000000002800000000000000000000000011770Z01620200409X066000000
2MAIL0000152832BR10        BRNC        BRNCCOCO    BRNCCOCO13AG00000500000000001239692000000000000002800000000000000000000000011770Z01620200409X066000000
1MAIL0000152833BR10        BRNC        BRNCCOCO    BRNCCOCO13AG2020040900:00:00OR  010000030598740003059874152833                             2020040920200409Z016CIF202004090000000000025920NN0                                                  0                                        
2MAIL0000152833BR10        BRNC        BRNCCOCO    BRNCCOCO13AG00000100000000001241623700000000000001000000000000000000000000025920Z01620200409X066000000
1MAIL0000152834BR10        BRNC        BRNCCOCO    BRNCCOCO13AG2020040900:00:00OR  010000029822780002982278152834                             2020040920200409Z079CIF202004090000000000276022NN0                                                  0                                        
2MAIL0000152834BR10        BRNC        BRNCCOCO    BRNCCOCO13AG00000100000000001132004000000000000000500000000000000000000000005676Z07920200409X066000000
2MAIL0000152834BR10        BRNC        BRNCCOCO    BRNCCOCO13AG00000200000000001132004200000000000000500000000000000000000000007827Z07920200409X066000000
2MAIL0000152834BR10        BRNC        BRNCCOCO    BRNCCOCO13AG00000300000000001132018300000000000000100000000000000000000000003743Z07920200409X066000000
2MAIL0000152834BR10        BRNC        BRNCCOCO    BRNCCOCO13AG00000400000000001132019700000000000000100000000000000000000000002081Z07920200409X066000000
2MAIL0000152834BR10        BRNC        BRNCCOCO    BRNCCOCO13AG00000500000000001132019800000000000000100000000000000000000000002081Z07920200409X066000000
2MAIL0000152834BR10        BRNC        BRNCCOCO    BRNCCOCO13AG00000600000000001132019900000000000000100000000000000000000000002081Z07920200409X066000000
2MAIL0000152834BR10        BRNC        BRNCCOCO    BRNCCOCO13AG00000700000000001132020900000000000000100000000000000000000000002081Z07920200409X066000000
2MAIL0000152834BR10        BRNC        BRNCCOCO    BRNCCOCO13AG00000800000000001132033100000000000001000000000000000000000000022970Z07920200409X066000000
2MAIL0000152834BR10        BRNC        BRNCCOCO    BRNCCOCO13AG00000900000000001132036700000000000001000000000000000000000000022970Z07920200409X066000000
2MAIL0000152834BR10        BRNC        BRNCCOCO    BRNCCOCO13AG00001000000000001132200400000000000000400000000000000000000000008943Z07920200409X066000000
2MAIL0000152834BR10        BRNC        BRNCCOCO    BRNCCOCO13AG00001100000000001132400100000000000000100000000000000000000000003175Z07920200409X066000000
2MAIL0000152834BR10        BRNC        BRNCCOCO    BRNCCOCO13AG00001200000000001215533700000000000001000000000000000000000000022970Z07920200409X066000000
2MAIL0000152834BR10        BRNC        BRNCCOCO    BRNCCOCO13AG00001300000000001223975300000000000000100000000000000000000000005581Z07920200409X066000000
2MAIL0000152834BR10        BRNC        BRNCCOCO    BRNCCOCO13AG00001400000000001226089600000000000001200000000000000000000000005054Z07920200409X066000000
2MAIL0000152834BR10        BRNC        BRNCCOCO    BRNCCOCO13AG00001500000000001227395500000000000001000000000000000000000000022970Z07920200409X066000000
2MAIL0000152834BR10        BRNC        BRNCCOCO    BRNCCOCO13AG00001600000000001227735000000000000000100000000000000000000000002081Z07920200409X066000000
2MAIL0000152834BR10        BRNC        BRNCCOCO    BRNCCOCO13AG00001700000000001228512700000000000000100000000000000000000000005581Z07920200409X066000000
2MAIL0000152834BR10        BRNC        BRNCCOCO    BRNCCOCO13AG00001800000000001231231200000000000000100000000000000000000000005581Z07920200409X066000000
2MAIL0000152834BR10        BRNC        BRNCCOCO    BRNCCOCO13AG00001900000000001231233000000000000000100000000000000000000000005581Z07920200409X066000000
2MAIL0000152834BR10        BRNC        BRNCCOCO    BRNCCOCO13AG00002000000000001234705800000000000000100000000000000000000000005581Z07920200409X066000000
2MAIL0000152834BR10        BRNC        BRNCCOCO    BRNCCOCO13AG00002100000000001234705900000000000000100000000000000000000000005581Z07920200409X066000000
2MAIL0000152834BR10        BRNC        BRNCCOCO    BRNCCOCO13AG00002200000000001235699400000000000001000000000000000000000000004220Z07920200409X066000000
2MAIL0000152834BR10        BRNC        BRNCCOCO    BRNCCOCO13AG00002300000000001236512800000000000000800000000000000000000000001526Z07920200409X066000000
2MAIL0000152834BR10        BRNC        BRNCCOCO    BRNCCOCO13AG00002400000000001236512900000000000002000000000000000000000000004008Z07920200409X066000000
2MAIL0000152834BR10        BRNC        BRNCCOCO    BRNCCOCO13AG00002500000000001236515000000000000002000000000000000000000000004008Z07920200409X066000000
2MAIL0000152834BR10        BRNC        BRNCCOCO    BRNCCOCO13AG00002600000000001238083500000000000000100000000000000000000000005581Z07920200409X066000000
2MAIL0000152834BR10        BRNC        BRNCCOCO    BRNCCOCO13AG00002700000000001239373400000000000000100000000000000000000000006969Z07920200409X066000000
2MAIL0000152834BR10        BRNC        BRNCCOCO    BRNCCOCO13AG00002800000000001239373600000000000000100000000000000000000000006969Z07920200409X066000000
2MAIL0000152834BR10        BRNC        BRNCCOCO    BRNCCOCO13AG00002900000000001239688300000000000001400000000000000000000000005896Z07920200409X066000000
2MAIL0000152834BR10        BRNC        BRNCCOCO    BRNCCOCO13AG00003000000000001239688500000000000001400000000000000000000000005896Z07920200409X066000000
2MAIL0000152834BR10        BRNC        BRNCCOCO    BRNCCOCO13AG00003100000000001239688600000000000001400000000000000000000000005896Z07920200409X066000000
2MAIL0000152834BR10        BRNC        BRNCCOCO    BRNCCOCO13AG00003200000000001239688700000000000001400000000000000000000000005896Z07920200409X066000000
2MAIL0000152834BR10        BRNC        BRNCCOCO    BRNCCOCO13AG00003300000000001239688800000000000001400000000000000000000000005896Z07920200409X066000000
2MAIL0000152834BR10        BRNC        BRNCCOCO    BRNCCOCO13AG00003400000000001239692000000000000001400000000000000000000000005896Z07920200409X066000000
2MAIL0000152834BR10        BRNC        BRNCCOCO    BRNCCOCO13AG00003500000000001239692300000000000001400000000000000000000000005896Z07920200409X066000000
2MAIL0000152834BR10        BRNC        BRNCCOCO    BRNCCOCO13AG00003600000000001240924900000000000000800000000000000000000000001472Z07920200409X066000000
2MAIL0000152834BR10        BRNC        BRNCCOCO    BRNCCOCO13AG00003700000000001241623700000000000000500000000000000000000000012435Z07920200409X066000000
2MAIL0000152834BR10        BRNC        BRNCCOCO    BRNCCOCO13AG00003800000000001242374800000000000000100000000000000000000000005581Z07920200409X066000000
2MAIL0000152834BR10        BRNC        BRNCCOCO    BRNCCOCO13AG00003900000000001242626100000000000001400000000000000000000000005896Z07920200409X066000000
2MAIL0000152834BR10        BRNC        BRNCCOCO    BRNCCOCO13AG00004000000000001242765000000000000001400000000000000000000000005896Z07920200409X066000000
1MAIL0000152839BR10        BRNC        BRNCCOCO    BRNCCOCO13AG2020040900:00:00OR  010000028769020002876902152839                             2020040920200409Z016CIF202004090000000000013398NN0                                                  0                                        
2MAIL0000152839BR10        BRNC        BRNCCOCO    BRNCCOCO13AG00000100000000001132033100000000000000100000000000000000000000002173Z01620200409X066000000
2MAIL0000152839BR10        BRNC        BRNCCOCO    BRNCCOCO13AG00000200000000001132036700000000000000200000000000000000000000004345Z01620200409X066000000
2MAIL0000152839BR10        BRNC        BRNCCOCO    BRNCCOCO13AG00000300000000001132200400000000000000100000000000000000000000002115Z01620200409X066000000
2MAIL0000152839BR10        BRNC        BRNCCOCO    BRNCCOCO13AG00000400000000001215533700000000000000100000000000000000000000002173Z01620200409X066000000
2MAIL0000152839BR10        BRNC        BRNCCOCO    BRNCCOCO13AG00000500000000001241623700000000000000100000000000000000000000002592Z01620200409X066000000
1MAIL0000152840BR10        BRNC        BRNCCOCO    BRNCCOCO13AG2020040900:00:00OR  010000058971000005897100152840                             2020040920200409Z079CIF202004090000000000010252NN0                                                  0                                        
2MAIL0000152840BR10        BRNC        BRNCCOCO    BRNCCOCO13AG00000100000000001132200400000000000000100000000000000000000000002236Z07920200409X066000000
2MAIL0000152840BR10        BRNC        BRNCCOCO    BRNCCOCO13AG00000200000000001236512900000000000001000000000000000000000000002004Z07920200409X066000000
2MAIL0000152840BR10        BRNC        BRNCCOCO    BRNCCOCO13AG00000300000000001236515000000000000003000000000000000000000000006012Z07920200409X066000000
1MAIL0000152841BR10        BRNC        BRNCCOCO    BRNCCOCO13AG2020040900:00:00OR  010000054468050005446805152841                             2020040920200409Z016CIF202004090000000000016518NN0                                                  0                                        
2MAIL0000152841BR10        BRNC        BRNCCOCO    BRNCCOCO13AG00000100000000001132019800000000000000100000000000000000000000002012Z01620200409X066003000
2MAIL0000152841BR10        BRNC        BRNCCOCO    BRNCCOCO13AG00000200000000001132033100000000000000100000000000000000000000002223Z01620200409X066003000
2MAIL0000152841BR10        BRNC        BRNCCOCO    BRNCCOCO13AG00000300000000001132036700000000000000100000000000000000000000002223Z01620200409X066003000
2MAIL0000152841BR10        BRNC        BRNCCOCO    BRNCCOCO13AG00000400000000001236512900000000000000500000000000000000000000000973Z01620200409X066003000
2MAIL0000152841BR10        BRNC        BRNCCOCO    BRNCCOCO13AG00000500000000001236515000000000000000500000000000000000000000000973Z01620200409X066003000
2MAIL0000152841BR10        BRNC        BRNCCOCO    BRNCCOCO13AG00000600000000001239688800000000000001400000000000000000000000005708Z01620200409X066003000
2MAIL0000152841BR10        BRNC        BRNCCOCO    BRNCCOCO13AG00000700000000001241623700000000000000100000000000000000000000002406Z01620200409X066003000
1MAIL0000152842BR10        BRNC        BRNCCOCO    BRNCCOCO13AG2020040900:00:00OR  010000054826810005482681152842                             2020040920200409Z016CIF202004090000000000040350NN0                                                  0                                        
2MAIL0000152842BR10        BRNC        BRNCCOCO    BRNCCOCO13AG00000100000000001226089600000000000009600000000000000000000000040350Z01620200409X066000000
