1MAIL0000152672BR10        BRNC        BRNCCOCO    BRNCCOCO13AG2020040900:00:00OR  010000029874230002987423152672                             2020040920200409Z016CIF202004090000000000045035NN0                                                  0                                        
2MAIL0000152672BR10        BRNC        BRNCCOCO    BRNCCOCO13AG00000100000000001132030900000000000000200000000000000000000000006274Z01620200409X066000000
2MAIL0000152672BR10        BRNC        BRNCCOCO    BRNCCOCO13AG00000200000000001132034900000000000000500000000000000000000000010831Z01620200409X066000000
2MAIL0000152672BR10        BRNC        BRNCCOCO    BRNCCOCO13AG00000300000000001132036700000000000000200000000000000000000000004250Z01620200409X066000000
2MAIL0000152672BR10        BRNC        BRNCCOCO    BRNCCOCO13AG00000400000000001215533700000000000000400000000000000000000000008501Z01620200409X066000000
2MAIL0000152672BR10        BRNC        BRNCCOCO    BRNCCOCO13AG00000500000000001241623700000000000000600000000000000000000000015179Z01620200409X066000000
1MAIL0000152673BR10        BRNC        BRNCCOCO    BRNCCOCO13AG2020040900:00:00OR  010000055158940005515894152673                             2020040920200409Z016CIF202004090000000000052541NN0                                                  0                                        
2MAIL0000152673BR10        BRNC        BRNCCOCO    BRNCCOCO13AG00000100000000001132033100000000000000100000000000000000000000002291Z01620200409X066000000
2MAIL0000152673BR10        BRNC        BRNCCOCO    BRNCCOCO13AG00000200000000001132036700000000000000100000000000000000000000002291Z01620200409X066000000
2MAIL0000152673BR10        BRNC        BRNCCOCO    BRNCCOCO13AG00000300000000001215533700000000000000100000000000000000000000002291Z01620200409X066000000
2MAIL0000152673BR10        BRNC        BRNCCOCO    BRNCCOCO13AG00000400000000001226089600000000000001200000000000000000000000005045Z01620200409X066000000
2MAIL0000152673BR10        BRNC        BRNCCOCO    BRNCCOCO13AG00000500000000001239688600000000000001400000000000000000000000005885Z01620200409X066000000
2MAIL0000152673BR10        BRNC        BRNCCOCO    BRNCCOCO13AG00000600000000001239688800000000000001400000000000000000000000005885Z01620200409X066000000
2MAIL0000152673BR10        BRNC        BRNCCOCO    BRNCCOCO13AG00000700000000001241577400000000000003000000000000000000000000028853Z01620200409X066000000
1MAIL0000152674BR10        BRNC        BRNCCOCO    BRNCCOCO13AG2020040900:00:00OR  010000052372930005237293152674                             2020040920200409Z016CIF202004090000000000025444NN0                                                  0                                        
2MAIL0000152674BR10        BRNC        BRNCCOCO    BRNCCOCO13AG00000100000000001132036700000000000000400000000000000000000000006615Z01620200409X066000000
2MAIL0000152674BR10        BRNC        BRNCCOCO    BRNCCOCO13AG00000200000000001132200400000000000000400000000000000000000000008460Z01620200409X066000000
2MAIL0000152674BR10        BRNC        BRNCCOCO    BRNCCOCO13AG00000300000000001241623700000000000000400000000000000000000000010369Z01620200409X066000000
1MAIL0000152675BR10        BRNC        BRNCCOCO    BRNCCOCO13AG2020040900:00:00OR  010000044641690004464169152675                             2020040920200409Z016CIF202004090000000000006812NN0                                                  0                                        
2MAIL0000152675BR10        BRNC        BRNCCOCO    BRNCCOCO13AG00000100000000001132033100000000000000100000000000000000000000002291Z01620200409X066000000
2MAIL0000152675BR10        BRNC        BRNCCOCO    BRNCCOCO13AG00000200000000001132036700000000000000100000000000000000000000002291Z01620200409X066000000
2MAIL0000152675BR10        BRNC        BRNCCOCO    BRNCCOCO13AG00000300000000001132200400000000000000100000000000000000000000002230Z01620200409X066000000
1MAIL0000152676BR10        BRNC        BRNCCOCO    BRNCCOCO13AG2020040900:00:00OR  010000047894610004789461152676                             2020040920200409Z016CIF202004090000000000089954NN0                                                  0                                        
2MAIL0000152676BR10        BRNC        BRNCCOCO    BRNCCOCO13AG00000100000000001132004000000000000000500000000000000000000000004990Z01620200409X066000000
2MAIL0000152676BR10        BRNC        BRNCCOCO    BRNCCOCO13AG00000200000000001132034900000000000000500000000000000000000000010831Z01620200409X066000000
2MAIL0000152676BR10        BRNC        BRNCCOCO    BRNCCOCO13AG00000300000000001132036700000000000000200000000000000000000000004250Z01620200409X066000000
2MAIL0000152676BR10        BRNC        BRNCCOCO    BRNCCOCO13AG00000400000000001215533700000000000000400000000000000000000000008501Z01620200409X066000000
2MAIL0000152676BR10        BRNC        BRNCCOCO    BRNCCOCO13AG00000500000000001221415400000000000000100000000000000000000000003463Z01620200409X066000000
2MAIL0000152676BR10        BRNC        BRNCCOCO    BRNCCOCO13AG00000600000000001231189200000000000000100000000000000000000000004965Z01620200409X066000000
2MAIL0000152676BR10        BRNC        BRNCCOCO    BRNCCOCO13AG00000700000000001231231200000000000000100000000000000000000000004965Z01620200409X066000000
2MAIL0000152676BR10        BRNC        BRNCCOCO    BRNCCOCO13AG00000800000000001231233000000000000000100000000000000000000000004965Z01620200409X066000000
2MAIL0000152676BR10        BRNC        BRNCCOCO    BRNCCOCO13AG00000900000000001231389600000000000000400000000000000000000000008501Z01620200409X066000000
2MAIL0000152676BR10        BRNC        BRNCCOCO    BRNCCOCO13AG00001000000000001236512900000000000002500000000000000000000000004446Z01620200409X066000000
2MAIL0000152676BR10        BRNC        BRNCCOCO    BRNCCOCO13AG00001100000000001236515000000000000002500000000000000000000000004446Z01620200409X066000000
2MAIL0000152676BR10        BRNC        BRNCCOCO    BRNCCOCO13AG00001200000000001239688700000000000001400000000000000000000000005226Z01620200409X066000000
2MAIL0000152676BR10        BRNC        BRNCCOCO    BRNCCOCO13AG00001300000000001239692300000000000001400000000000000000000000005226Z01620200409X066000000
2MAIL0000152676BR10        BRNC        BRNCCOCO    BRNCCOCO13AG00001400000000001241623700000000000000600000000000000000000000015179Z01620200409X066000000
1MAIL0000152677BR10        BRNC        BRNCCOCO    BRNCCOCO13AG2020040900:00:00OR  010000029874230002987423152677                             2020040920200409Z016CIF202004090000000000010216NN0                                                  0                                        
2MAIL0000152677BR10        BRNC        BRNCCOCO    BRNCCOCO13AG00000100000000001132004000000000000000500000000000000000000000004990Z01620200409X066000000
2MAIL0000152677BR10        BRNC        BRNCCOCO    BRNCCOCO13AG00000200000000001239688700000000000001400000000000000000000000005226Z01620200409X066000000
1MAIL0000152678BR10        BRNC        BRNCCOCO    BRNCCOCO13AG2020040900:00:00OR  010000059928130005992813152678                             2020040920200409Z016CIF202004090000000000007538NN0                                                  0                                        
2MAIL0000152678BR10        BRNC        BRNCCOCO    BRNCCOCO13AG00000100000000001132036700000000000000100000000000000000000000002291Z01620200409X066000000
2MAIL0000152678BR10        BRNC        BRNCCOCO    BRNCCOCO13AG00000200000000001236512800000000000000400000000000000000000000000762Z01620200409X066000000
2MAIL0000152678BR10        BRNC        BRNCCOCO    BRNCCOCO13AG00000300000000001236512900000000000000500000000000000000000000001002Z01620200409X066000000
2MAIL0000152678BR10        BRNC        BRNCCOCO    BRNCCOCO13AG00000400000000001236515000000000000000500000000000000000000000001002Z01620200409X066000000
2MAIL0000152678BR10        BRNC        BRNCCOCO    BRNCCOCO13AG00000500000000001241623700000000000000100000000000000000000000002481Z01620200409X066000000
1MAIL0000152679BR10        BRNC        BRNCCOCO    BRNCCOCO13AG2020040900:00:00OR  010000056206000005620600152679                             2020040920200409Z016CIF202004090000000000027958NN0                                                  0                                        
2MAIL0000152679BR10        BRNC        BRNCCOCO    BRNCCOCO13AG00000100000000001132019800000000000000100000000000000000000000002076Z01620200409X066000000
2MAIL0000152679BR10        BRNC        BRNCCOCO    BRNCCOCO13AG00000200000000001132033100000000000000100000000000000000000000002291Z01620200409X066000000
2MAIL0000152679BR10        BRNC        BRNCCOCO    BRNCCOCO13AG00000300000000001132036700000000000000100000000000000000000000002291Z01620200409X066000000
2MAIL0000152679BR10        BRNC        BRNCCOCO    BRNCCOCO13AG00000400000000001226089600000000000001200000000000000000000000005045Z01620200409X066000000
2MAIL0000152679BR10        BRNC        BRNCCOCO    BRNCCOCO13AG00000500000000001236512900000000000000500000000000000000000000001002Z01620200409X066000000
2MAIL0000152679BR10        BRNC        BRNCCOCO    BRNCCOCO13AG00000600000000001236515000000000000000500000000000000000000000001002Z01620200409X066000000
2MAIL0000152679BR10        BRNC        BRNCCOCO    BRNCCOCO13AG00000700000000001239663300000000000001400000000000000000000000005885Z01620200409X066000000
2MAIL0000152679BR10        BRNC        BRNCCOCO    BRNCCOCO13AG00000800000000001239688800000000000001400000000000000000000000005885Z01620200409X066000000
2MAIL0000152679BR10        BRNC        BRNCCOCO    BRNCCOCO13AG00000900000000001241623700000000000000100000000000000000000000002481Z01620200409X066000000
1MAIL0000152680BR10        BRNC        BRNCCOCO    BRNCCOCO13AG2020040900:00:00OR  010000029128260002912826152680                             2020040920200409Z016CIF202004090000000000005289NN0                                                  0                                        
2MAIL0000152680BR10        BRNC        BRNCCOCO    BRNCCOCO13AG00000100000000001132036700000000000000100000000000000000000000002291Z01620200409X066000000
2MAIL0000152680BR10        BRNC        BRNCCOCO    BRNCCOCO13AG00000200000000001236512800000000000000800000000000000000000000001526Z01620200409X066000000
2MAIL0000152680BR10        BRNC        BRNCCOCO    BRNCCOCO13AG00000300000000001240924900000000000000800000000000000000000000001472Z01620200409X066000000
1MAIL0000152681BR10        BRNC        BRNCCOCO    BRNCCOCO13AG2020040900:00:00OR  010000053774320005377432152681                             2020040920200409Z016CIF202004090000000000018206NN0                                                  0                                        
2MAIL0000152681BR10        BRNC        BRNCCOCO    BRNCCOCO13AG00000100000000001132033100000000000000100000000000000000000000002291Z01620200409X066000000
2MAIL0000152681BR10        BRNC        BRNCCOCO    BRNCCOCO13AG00000200000000001132036700000000000000100000000000000000000000002291Z01620200409X066000000
2MAIL0000152681BR10        BRNC        BRNCCOCO    BRNCCOCO13AG00000300000000001132200400000000000000200000000000000000000000004460Z01620200409X066000000
2MAIL0000152681BR10        BRNC        BRNCCOCO    BRNCCOCO13AG00000400000000001215533700000000000000100000000000000000000000002291Z01620200409X066000000
2MAIL0000152681BR10        BRNC        BRNCCOCO    BRNCCOCO13AG00000500000000001227395500000000000000100000000000000000000000002291Z01620200409X066000000
2MAIL0000152681BR10        BRNC        BRNCCOCO    BRNCCOCO13AG00000600000000001231389600000000000000100000000000000000000000002291Z01620200409X066000000
2MAIL0000152681BR10        BRNC        BRNCCOCO    BRNCCOCO13AG00000700000000001236898000000000000000100000000000000000000000002291Z01620200409X066000000
1MAIL0000152682BR10        BRNC        BRNCCOCO    BRNCCOCO13AG2020040900:00:00OR  010000060410250006041025152682                             2020040920200409Z016CIF202004090000000000043910NN0                                                  0                                        
2MAIL0000152682BR10        BRNC        BRNCCOCO    BRNCCOCO13AG00000100000000001132033100000000000000200000000000000000000000004581Z01620200409X066000000
2MAIL0000152682BR10        BRNC        BRNCCOCO    BRNCCOCO13AG00000200000000001132036700000000000000200000000000000000000000004581Z01620200409X066000000
2MAIL0000152682BR10        BRNC        BRNCCOCO    BRNCCOCO13AG00000300000000001132200400000000000000200000000000000000000000004460Z01620200409X066000000
2MAIL0000152682BR10        BRNC        BRNCCOCO    BRNCCOCO13AG00000400000000001235699400000000000001000000000000000000000000004211Z01620200409X066000000
2MAIL0000152682BR10        BRNC        BRNCCOCO    BRNCCOCO13AG00000500000000001235699700000000000001000000000000000000000000004211Z01620200409X066000000
2MAIL0000152682BR10        BRNC        BRNCCOCO    BRNCCOCO13AG00000600000000001235699800000000000001000000000000000000000000004211Z01620200409X066000000
2MAIL0000152682BR10        BRNC        BRNCCOCO    BRNCCOCO13AG00000700000000001239688600000000000001400000000000000000000000005885Z01620200409X066000000
2MAIL0000152682BR10        BRNC        BRNCCOCO    BRNCCOCO13AG00000800000000001239688800000000000001400000000000000000000000005885Z01620200409X066000000
2MAIL0000152682BR10        BRNC        BRNCCOCO    BRNCCOCO13AG00000900000000001239692100000000000001400000000000000000000000005885Z01620200409X066000000
1MAIL0000152683BR10        BRNC        BRNCCOCO    BRNCCOCO13AG2020040900:00:00OR  010000061131900006113190152683                             2020040920200409Z016CIF202004090000000000027367NN0                                                  0                                        
2MAIL0000152683BR10        BRNC        BRNCCOCO    BRNCCOCO13AG00000100000000001241577400000000000003000000000000000000000000027367Z01620200409X066000000
1MAIL0000152684BR10        BRNC        BRNCCOCO    BRNCCOCO13AG2020040900:00:00OR  010000059771820005977182152684                             2020040920200409Z016CIF202004090000000000025920NN0                                                  0                                        
2MAIL0000152684BR10        BRNC        BRNCCOCO    BRNCCOCO13AG00000100000000001241623700000000000001000000000000000000000000025920Z01620200409X066000000
1MAIL0000152685BR10        BRNC        BRNCCOCO    BRNCCOCO13AG2020040900:00:00OR  010000037341960003734196152685                             2020040920200409Z016CIF202004090000000000019414NN0                                                  0                                        
2MAIL0000152685BR10        BRNC        BRNCCOCO    BRNCCOCO13AG00000100000000001236512800000000000005200000000000000000000000009882Z01620200409X066000000
2MAIL0000152685BR10        BRNC        BRNCCOCO    BRNCCOCO13AG00000200000000001240924900000000000005200000000000000000000000009532Z01620200409X066000000
1MAIL0000152686BR10        BRNC        BRNCCOCO    BRNCCOCO13AG2020040900:00:00OR  010000058055210005805521152686                             2020040920200409Z016CIF202004090000000000608872NN0                                                  0                                        
2MAIL0000152686BR10        BRNC        BRNCCOCO    BRNCCOCO13AG00000100000000001132004000000000000002000000000000000000000000020406Z01620200409X066000000
2MAIL0000152686BR10        BRNC        BRNCCOCO    BRNCCOCO13AG00000200000000001132030900000000000001200000000000000000000000038486Z01620200409X066000000
2MAIL0000152686BR10        BRNC        BRNCCOCO    BRNCCOCO13AG00000300000000001132035000000000000001000000000000000000000000024606Z01620200409X066000000
2MAIL0000152686BR10        BRNC        BRNCCOCO    BRNCCOCO13AG00000400000000001132036700000000000000400000000000000000000000008692Z01620200409X066000000
2MAIL0000152686BR10        BRNC        BRNCCOCO    BRNCCOCO13AG00000500000000001226089600000000000007200000000000000000000000027480Z01620200409X066000000
2MAIL0000152686BR10        BRNC        BRNCCOCO    BRNCCOCO13AG00000600000000001231189200000000000000800000000000000000000000040612Z01620200409X066000000
2MAIL0000152686BR10        BRNC        BRNCCOCO    BRNCCOCO13AG00000700000000001231231200000000000000800000000000000000000000040612Z01620200409X066000000
2MAIL0000152686BR10        BRNC        BRNCCOCO    BRNCCOCO13AG00000800000000001234705800000000000000200000000000000000000000010153Z01620200409X066000000
2MAIL0000152686BR10        BRNC        BRNCCOCO    BRNCCOCO13AG00000900000000001235699700000000000006000000000000000000000000022946Z01620200409X066000000
2MAIL0000152686BR10        BRNC        BRNCCOCO    BRNCCOCO13AG00001000000000001235699800000000000006000000000000000000000000022946Z01620200409X066000000
2MAIL0000152686BR10        BRNC        BRNCCOCO    BRNCCOCO13AG00001100000000001236515000000000000005000000000000000000000000009090Z01620200409X066000000
2MAIL0000152686BR10        BRNC        BRNCCOCO    BRNCCOCO13AG00001200000000001239373600000000000000200000000000000000000000012678Z01620200409X066000000
2MAIL0000152686BR10        BRNC        BRNCCOCO    BRNCCOCO13AG00001300000000001239688500000000000004200000000000000000000000016030Z01620200409X066000000
2MAIL0000152686BR10        BRNC        BRNCCOCO    BRNCCOCO13AG00001400000000001239688700000000000012600000000000000000000000048090Z01620200409X066000000
2MAIL0000152686BR10        BRNC        BRNCCOCO    BRNCCOCO13AG00001500000000001239688800000000000007000000000000000000000000026716Z01620200409X066000000
2MAIL0000152686BR10        BRNC        BRNCCOCO    BRNCCOCO13AG00001600000000001239692100000000000011200000000000000000000000042746Z01620200409X066000000
2MAIL0000152686BR10        BRNC        BRNCCOCO    BRNCCOCO13AG00001700000000001241623700000000000007600000000000000000000000196583Z01620200409X066000000
1MAIL0000152687BR10        BRNC        BRNCCOCO    BRNCCOCO13AG2020040900:00:00OR  010000029799630002979963152687                             2020040920200409Z016CIF202004090000000000174463NN0                                                  0                                        
2MAIL0000152687BR10        BRNC        BRNCCOCO    BRNCCOCO13AG00000100000000001132033100000000000001000000000000000000000000022909Z01620200409X066000000
2MAIL0000152687BR10        BRNC        BRNCCOCO    BRNCCOCO13AG00000200000000001132036700000000000001000000000000000000000000022909Z01620200409X066000000
2MAIL0000152687BR10        BRNC        BRNCCOCO    BRNCCOCO13AG00000300000000001132200400000000000000100000000000000000000000002230Z01620200409X066000000
2MAIL0000152687BR10        BRNC        BRNCCOCO    BRNCCOCO13AG00000400000000001215533700000000000001000000000000000000000000022909Z01620200409X066000000
2MAIL0000152687BR10        BRNC        BRNCCOCO    BRNCCOCO13AG00000500000000001223975300000000000000100000000000000000000000005568Z01620200409X066000000
2MAIL0000152687BR10        BRNC        BRNCCOCO    BRNCCOCO13AG00000600000000001228274000000000000000100000000000000000000000005568Z01620200409X066000000
2MAIL0000152687BR10        BRNC        BRNCCOCO    BRNCCOCO13AG00000700000000001228512700000000000000100000000000000000000000005568Z01620200409X066000000
2MAIL0000152687BR10        BRNC        BRNCCOCO    BRNCCOCO13AG00000800000000001231189200000000000000100000000000000000000000005568Z01620200409X066000000
2MAIL0000152687BR10        BRNC        BRNCCOCO    BRNCCOCO13AG00000900000000001231231200000000000000100000000000000000000000005568Z01620200409X066000000
2MAIL0000152687BR10        BRNC        BRNCCOCO    BRNCCOCO13AG00001000000000001231233000000000000000100000000000000000000000005568Z01620200409X066000000
2MAIL0000152687BR10        BRNC        BRNCCOCO    BRNCCOCO13AG00001100000000001234705700000000000000100000000000000000000000005568Z01620200409X066000000
2MAIL0000152687BR10        BRNC        BRNCCOCO    BRNCCOCO13AG00001200000000001235699400000000000001000000000000000000000000004211Z01620200409X066000000
2MAIL0000152687BR10        BRNC        BRNCCOCO    BRNCCOCO13AG00001300000000001235699700000000000001000000000000000000000000004211Z01620200409X066000000
2MAIL0000152687BR10        BRNC        BRNCCOCO    BRNCCOCO13AG00001400000000001235699800000000000002000000000000000000000000008422Z01620200409X066000000
2MAIL0000152687BR10        BRNC        BRNCCOCO    BRNCCOCO13AG00001500000000001236512800000000000001200000000000000000000000002288Z01620200409X066000000
2MAIL0000152687BR10        BRNC        BRNCCOCO    BRNCCOCO13AG00001600000000001236512900000000000007000000000000000000000000014030Z01620200409X066000000
2MAIL0000152687BR10        BRNC        BRNCCOCO    BRNCCOCO13AG00001700000000001236515000000000000007000000000000000000000000014030Z01620200409X066000000
2MAIL0000152687BR10        BRNC        BRNCCOCO    BRNCCOCO13AG00001800000000001239688700000000000001400000000000000000000000005885Z01620200409X066000000
2MAIL0000152687BR10        BRNC        BRNCCOCO    BRNCCOCO13AG00001900000000001239688800000000000001400000000000000000000000005885Z01620200409X066000000
2MAIL0000152687BR10        BRNC        BRNCCOCO    BRNCCOCO13AG00002000000000001242374800000000000000100000000000000000000000005568Z01620200409X066000000
1MAIL0000152688BR10        BRNC        BRNCCOCO    BRNCCOCO13AG2020040900:00:00OR  010000037356920003735692152688                             2020040920200409Z016CIF202004090000000000026853NN0                                                  0                                        
2MAIL0000152688BR10        BRNC        BRNCCOCO    BRNCCOCO13AG00000100000000001132036700000000000000200000000000000000000000004581Z01620200409X066000000
2MAIL0000152688BR10        BRNC        BRNCCOCO    BRNCCOCO13AG00000200000000001228274000000000000000100000000000000000000000005568Z01620200409X066000000
2MAIL0000152688BR10        BRNC        BRNCCOCO    BRNCCOCO13AG00000300000000001231189200000000000000100000000000000000000000005568Z01620200409X066000000
2MAIL0000152688BR10        BRNC        BRNCCOCO    BRNCCOCO13AG00000400000000001231231200000000000000100000000000000000000000005568Z01620200409X066000000
2MAIL0000152688BR10        BRNC        BRNCCOCO    BRNCCOCO13AG00000500000000001231233000000000000000100000000000000000000000005568Z01620200409X066000000
1MAIL0000152689BR10        BRNC        BRNCCOCO    BRNCCOCO13AG2020040900:00:00OR  010000033398820003339882152689                             2020040920200409Z016CIF202004090000000000076278NN0                                                  0                                        
2MAIL0000152689BR10        BRNC        BRNCCOCO    BRNCCOCO13AG00000100000000001241577400000000000009000000000000000000000000076278Z01620200409X066000000
1MAIL0000152690BR10        BRNC        BRNCCOCO    BRNCCOCO13AG2020040900:00:00OR  010000060784870006078487152690                             2020040920200409Z016CIF202004090000000000011805NN0                                                  0                                        
2MAIL0000152690BR10        BRNC        BRNCCOCO    BRNCCOCO13AG00000100000000001132036700000000000000100000000000000000000000001654Z01620200409X066000000
2MAIL0000152690BR10        BRNC        BRNCCOCO    BRNCCOCO13AG00000200000000001132200400000000000000100000000000000000000000002115Z01620200409X066000000
2MAIL0000152690BR10        BRNC        BRNCCOCO    BRNCCOCO13AG00000300000000001235699800000000000001000000000000000000000000003352Z01620200409X066000000
2MAIL0000152690BR10        BRNC        BRNCCOCO    BRNCCOCO13AG00000400000000001239688800000000000001400000000000000000000000004684Z01620200409X066000000
