1MAIL0000150235BR10        BRNC        BRNCCOCO    BRNCCOCO13AG2020031900:00:00OR  010000040331380004033138150235                             2020031920200319Z016CIF202003190000000000067874NN0                                                  0                                        
2MAIL0000150235BR10        BRNC        BRNCCOCO    BRNCCOCO13AG00000100000000001132033100000000000000100000000000000000000000001746Z01620200319X066000000
2MAIL0000150235BR10        BRNC        BRNCCOCO    BRNCCOCO13AG00000200000000001132036700000000000000200000000000000000000000003491Z01620200319X066000000
2MAIL0000150235BR10        BRNC        BRNCCOCO    BRNCCOCO13AG00000300000000001132200400000000000000100000000000000000000000001980Z01620200319X066000000
2MAIL0000150235BR10        BRNC        BRNCCOCO    BRNCCOCO13AG00000400000000001215533700000000000000200000000000000000000000003491Z01620200319X066000000
2MAIL0000150235BR10        BRNC        BRNCCOCO    BRNCCOCO13AG00000500000000001226089600000000000001200000000000000000000000003830Z01620200319X066000000
2MAIL0000150235BR10        BRNC        BRNCCOCO    BRNCCOCO13AG00000600000000001235699400000000000001000000000000000000000000003199Z01620200319X066000000
2MAIL0000150235BR10        BRNC        BRNCCOCO    BRNCCOCO13AG00000700000000001235699700000000000001000000000000000000000000003199Z01620200319X066000000
2MAIL0000150235BR10        BRNC        BRNCCOCO    BRNCCOCO13AG00000800000000001235699800000000000001000000000000000000000000003199Z01620200319X066000000
2MAIL0000150235BR10        BRNC        BRNCCOCO    BRNCCOCO13AG00000900000000001236512900000000000001500000000000000000000000002361Z01620200319X066000000
2MAIL0000150235BR10        BRNC        BRNCCOCO    BRNCCOCO13AG00001000000000001236515000000000000001500000000000000000000000002361Z01620200319X066000000
2MAIL0000150235BR10        BRNC        BRNCCOCO    BRNCCOCO13AG00001100000000001239688600000000000001400000000000000000000000004469Z01620200319X066000000
2MAIL0000150235BR10        BRNC        BRNCCOCO    BRNCCOCO13AG00001200000000001239688700000000000001400000000000000000000000004469Z01620200319X066000000
2MAIL0000150235BR10        BRNC        BRNCCOCO    BRNCCOCO13AG00001300000000001239688800000000000001400000000000000000000000004469Z01620200319X066000000
2MAIL0000150235BR10        BRNC        BRNCCOCO    BRNCCOCO13AG00001400000000001241577400000000000003000000000000000000000000021980Z01620200319X066000000
2MAIL0000150235BR10        BRNC        BRNCCOCO    BRNCCOCO13AG00001500000000001241623700000000000000200000000000000000000000003630Z01620200319X066000000
1MAIL0000150236BR10        BRNC        BRNCCOCO    BRNCCOCO13AG2020031900:00:00OR  010000061688030006168803150236                             2020031920200319Z016CIF202003190000000000010771NN0                                                  0                                        
2MAIL0000150236BR10        BRNC        BRNCCOCO    BRNCCOCO13AG00000100000000001132030800000000000000200000000000000000000000005776Z01620200319X066000000
2MAIL0000150236BR10        BRNC        BRNCCOCO    BRNCCOCO13AG00000200000000001214448900000000000000100000000000000000000000004995Z01620200319X066000000
1MAIL0000150237BR10        BRNC        BRNCCOCO    BRNCCOCO13AG2020031900:00:00OR  010000061688030006168803150237                             2020031920200319Z016CIF202003190000000000024775NN0                                                  0                                        
2MAIL0000150237BR10        BRNC        BRNCCOCO    BRNCCOCO13AG00000100000000001132018300000000000000100000000000000000000000002862Z01620200319X066000000
2MAIL0000150237BR10        BRNC        BRNCCOCO    BRNCCOCO13AG00000200000000001132030900000000000000200000000000000000000000005960Z01620200319X066000000
2MAIL0000150237BR10        BRNC        BRNCCOCO    BRNCCOCO13AG00000300000000001132033900000000000000200000000000000000000000006337Z01620200319X066000000
2MAIL0000150237BR10        BRNC        BRNCCOCO    BRNCCOCO13AG00000400000000001132036700000000000000100000000000000000000000001759Z01620200319X066000000
2MAIL0000150237BR10        BRNC        BRNCCOCO    BRNCCOCO13AG00000500000000001214448900000000000000100000000000000000000000004995Z01620200319X066000000
2MAIL0000150237BR10        BRNC        BRNCCOCO    BRNCCOCO13AG00000600000000001221415400000000000000100000000000000000000000002862Z01620200319X066000000
1MAIL0000150238BR10        BRNC        BRNCCOCO    BRNCCOCO13AG2020031900:00:00OR  010000028990760002899076150238                             2020031920200319Z016CIF202003190000000000008341NN0                                                  0                                        
2MAIL0000150238BR10        BRNC        BRNCCOCO    BRNCCOCO13AG00000100000000001132033100000000000000100000000000000000000000002173Z01620200319X066000000
2MAIL0000150238BR10        BRNC        BRNCCOCO    BRNCCOCO13AG00000200000000001132036700000000000000100000000000000000000000002173Z01620200319X066000000
2MAIL0000150238BR10        BRNC        BRNCCOCO    BRNCCOCO13AG00000300000000001235699800000000000001000000000000000000000000003995Z01620200319X066000000
1MAIL0000150239BR10        BRNC        BRNCCOCO    BRNCCOCO13AG2020031900:00:00OR  010000028991550002899155150239                             2020031920200319Z016CIF202003190000000000064166NN0                                                  0                                        
2MAIL0000150239BR10        BRNC        BRNCCOCO    BRNCCOCO13AG00000100000000001132033100000000000000500000000000000000000000011454Z01620200319X066000000
2MAIL0000150239BR10        BRNC        BRNCCOCO    BRNCCOCO13AG00000200000000001132036700000000000000500000000000000000000000011454Z01620200319X066000000
2MAIL0000150239BR10        BRNC        BRNCCOCO    BRNCCOCO13AG00000300000000001241577400000000000003000000000000000000000000028853Z01620200319X066000000
2MAIL0000150239BR10        BRNC        BRNCCOCO    BRNCCOCO13AG00000400000000001241623700000000000000500000000000000000000000012405Z01620200319X066000000
1MAIL0000150240BR10        BRNC        BRNCCOCO    BRNCCOCO13AG2020031900:00:00OR  010000034252560003425256150240                             2020031920200319Z016CIF202003190000000000070556NN0                                                  0                                        
2MAIL0000150240BR10        BRNC        BRNCCOCO    BRNCCOCO13AG00000100000000001132200400000000000000400000000000000000000000008920Z01620200319X066000000
2MAIL0000150240BR10        BRNC        BRNCCOCO    BRNCCOCO13AG00000200000000001226089600000000000001200000000000000000000000005045Z01620200319X066000000
2MAIL0000150240BR10        BRNC        BRNCCOCO    BRNCCOCO13AG00000300000000001235699800000000000001000000000000000000000000004211Z01620200319X066000000
2MAIL0000150240BR10        BRNC        BRNCCOCO    BRNCCOCO13AG00000400000000001236512800000000000005200000000000000000000000009914Z01620200319X066000000
2MAIL0000150240BR10        BRNC        BRNCCOCO    BRNCCOCO13AG00000500000000001239688500000000000001400000000000000000000000005885Z01620200319X066000000
2MAIL0000150240BR10        BRNC        BRNCCOCO    BRNCCOCO13AG00000600000000001239688600000000000001400000000000000000000000005885Z01620200319X066000000
2MAIL0000150240BR10        BRNC        BRNCCOCO    BRNCCOCO13AG00000700000000001239688800000000000001400000000000000000000000005885Z01620200319X066000000
2MAIL0000150240BR10        BRNC        BRNCCOCO    BRNCCOCO13AG00000800000000001241623700000000000001000000000000000000000000024811Z01620200319X066000000
1MAIL0000150241BR10        BRNC        BRNCCOCO    BRNCCOCO13AG2020031900:00:00OR  010000053088040005308804150241                             2020031920200319Z016CIF202003190000000000138932NN0                                                  0                                        
2MAIL0000150241BR10        BRNC        BRNCCOCO    BRNCCOCO13AG00000100000000001132018300000000000000100000000000000000000000003541Z01620200319X066000000
2MAIL0000150241BR10        BRNC        BRNCCOCO    BRNCCOCO13AG00000200000000001132019700000000000000100000000000000000000000001973Z01620200319X066000000
2MAIL0000150241BR10        BRNC        BRNCCOCO    BRNCCOCO13AG00000300000000001132019800000000000000100000000000000000000000001973Z01620200319X066000000
2MAIL0000150241BR10        BRNC        BRNCCOCO    BRNCCOCO13AG00000400000000001132019900000000000000100000000000000000000000001973Z01620200319X066000000
2MAIL0000150241BR10        BRNC        BRNCCOCO    BRNCCOCO13AG00000500000000001132036700000000000000400000000000000000000000008712Z01620200319X066000000
2MAIL0000150241BR10        BRNC        BRNCCOCO    BRNCCOCO13AG00000600000000001132200400000000000000600000000000000000000000012722Z01620200319X066000000
2MAIL0000150241BR10        BRNC        BRNCCOCO    BRNCCOCO13AG00000700000000001132400100000000000000100000000000000000000000003010Z01620200319X066000000
2MAIL0000150241BR10        BRNC        BRNCCOCO    BRNCCOCO13AG00000800000000001215533700000000000000400000000000000000000000008712Z01620200319X066000000
2MAIL0000150241BR10        BRNC        BRNCCOCO    BRNCCOCO13AG00000900000000001221415400000000000000200000000000000000000000007082Z01620200319X066000000
2MAIL0000150241BR10        BRNC        BRNCCOCO    BRNCCOCO13AG00001000000000001234705700000000000000100000000000000000000000005845Z01620200319X066000000
2MAIL0000150241BR10        BRNC        BRNCCOCO    BRNCCOCO13AG00001100000000001234705900000000000000100000000000000000000000005845Z01620200319X066000000
2MAIL0000150241BR10        BRNC        BRNCCOCO    BRNCCOCO13AG00001200000000001236512900000000000001500000000000000000000000003145Z01620200319X066000000
2MAIL0000150241BR10        BRNC        BRNCCOCO    BRNCCOCO13AG00001300000000001236515000000000000001500000000000000000000000003145Z01620200319X066000000
2MAIL0000150241BR10        BRNC        BRNCCOCO    BRNCCOCO13AG00001400000000001238083500000000000000200000000000000000000000011689Z01620200319X066000000
2MAIL0000150241BR10        BRNC        BRNCCOCO    BRNCCOCO13AG00001500000000001239373600000000000000200000000000000000000000014635Z01620200319X066000000
2MAIL0000150241BR10        BRNC        BRNCCOCO    BRNCCOCO13AG00001600000000001239373700000000000000100000000000000000000000007318Z01620200319X066000000
2MAIL0000150241BR10        BRNC        BRNCCOCO    BRNCCOCO13AG00001700000000001241623700000000000001000000000000000000000000025923Z01620200319X066000000
2MAIL0000150241BR10        BRNC        BRNCCOCO    BRNCCOCO13AG00001800000000001242374800000000000000200000000000000000000000011689Z01620200319X066000000
1MAIL0000150242BR10        BRNC        BRNCCOCO    BRNCCOCO13AG2020031900:00:00OR  010000059015240005901524150242                             2020031920200319Z016CIF202003190000000000107901NN0                                                  0                                        
2MAIL0000150242BR10        BRNC        BRNCCOCO    BRNCCOCO13AG00000100000000001132018300000000000000100000000000000000000000003541Z01620200319X066000000
2MAIL0000150242BR10        BRNC        BRNCCOCO    BRNCCOCO13AG00000200000000001132019800000000000000100000000000000000000000001973Z01620200319X066000000
2MAIL0000150242BR10        BRNC        BRNCCOCO    BRNCCOCO13AG00000300000000001132019900000000000000100000000000000000000000001973Z01620200319X066000000
2MAIL0000150242BR10        BRNC        BRNCCOCO    BRNCCOCO13AG00000400000000001132020900000000000000100000000000000000000000001973Z01620200319X066000000
2MAIL0000150242BR10        BRNC        BRNCCOCO    BRNCCOCO13AG00000500000000001132036700000000000000400000000000000000000000008712Z01620200319X066000000
2MAIL0000150242BR10        BRNC        BRNCCOCO    BRNCCOCO13AG00000600000000001132200400000000000000600000000000000000000000012722Z01620200319X066000000
2MAIL0000150242BR10        BRNC        BRNCCOCO    BRNCCOCO13AG00000700000000001215533700000000000000400000000000000000000000008712Z01620200319X066000000
2MAIL0000150242BR10        BRNC        BRNCCOCO    BRNCCOCO13AG00000800000000001221415400000000000000200000000000000000000000007082Z01620200319X066000000
2MAIL0000150242BR10        BRNC        BRNCCOCO    BRNCCOCO13AG00000900000000001234705700000000000000100000000000000000000000005845Z01620200319X066000000
2MAIL0000150242BR10        BRNC        BRNCCOCO    BRNCCOCO13AG00001000000000001234705900000000000000100000000000000000000000005845Z01620200319X066000000
2MAIL0000150242BR10        BRNC        BRNCCOCO    BRNCCOCO13AG00001100000000001236512900000000000001000000000000000000000000002096Z01620200319X066000000
2MAIL0000150242BR10        BRNC        BRNCCOCO    BRNCCOCO13AG00001200000000001236515000000000000001000000000000000000000000002096Z01620200319X066000000
2MAIL0000150242BR10        BRNC        BRNCCOCO    BRNCCOCO13AG00001300000000001238083500000000000000200000000000000000000000011689Z01620200319X066000000
2MAIL0000150242BR10        BRNC        BRNCCOCO    BRNCCOCO13AG00001400000000001239373600000000000000200000000000000000000000014635Z01620200319X066000000
2MAIL0000150242BR10        BRNC        BRNCCOCO    BRNCCOCO13AG00001500000000001239373700000000000000100000000000000000000000007318Z01620200319X066000000
2MAIL0000150242BR10        BRNC        BRNCCOCO    BRNCCOCO13AG00001600000000001242374800000000000000200000000000000000000000011689Z01620200319X066000000
1MAIL0000150243BR10        BRNC        BRNCCOCO    BRNCCOCO13AG2020031900:00:00OR  010000050977900005097790150243                             2020031920200319Z016CIF202003190000000000005142NN0                                                  0                                        
2MAIL0000150243BR10        BRNC        BRNCCOCO    BRNCCOCO13AG00000100000000001132020900000000000000100000000000000000000000001973Z01620200319X066000000
2MAIL0000150243BR10        BRNC        BRNCCOCO    BRNCCOCO13AG00000200000000001132200400000000000000100000000000000000000000002120Z01620200319X066000000
2MAIL0000150243BR10        BRNC        BRNCCOCO    BRNCCOCO13AG00000300000000001236515000000000000000500000000000000000000000001049Z01620200319X066000000
1MAIL0000150244BR10        BRNC        BRNCCOCO    BRNCCOCO13AG2020031900:00:00OR  010000058080360005808036150244                             2020031920200319Z016CIF202003190000000000004994NN0                                                  0                                        
2MAIL0000150244BR10        BRNC        BRNCCOCO    BRNCCOCO13AG00000100000000001236512900000000000001000000000000000000000000001997Z01620200319X066000000
2MAIL0000150244BR10        BRNC        BRNCCOCO    BRNCCOCO13AG00000200000000001236515000000000000001500000000000000000000000002997Z01620200319X066000000
1MAIL0000150245BR10        BRNC        BRNCCOCO    BRNCCOCO13AG2020031900:00:00OR  010000028997700002899770150245                             2020031920200319Z016CIF202003190000000000063555NN0                                                  0                                        
2MAIL0000150245BR10        BRNC        BRNCCOCO    BRNCCOCO13AG00000100000000001132033100000000000000200000000000000000000000004581Z01620200319X066000000
2MAIL0000150245BR10        BRNC        BRNCCOCO    BRNCCOCO13AG00000200000000001132036700000000000000200000000000000000000000004581Z01620200319X066000000
2MAIL0000150245BR10        BRNC        BRNCCOCO    BRNCCOCO13AG00000300000000001132400100000000000000100000000000000000000000003165Z01620200319X066000000
2MAIL0000150245BR10        BRNC        BRNCCOCO    BRNCCOCO13AG00000400000000001215533700000000000000200000000000000000000000004581Z01620200319X066000000
2MAIL0000150245BR10        BRNC        BRNCCOCO    BRNCCOCO13AG00000500000000001223975300000000000000100000000000000000000000005568Z01620200319X066000000
2MAIL0000150245BR10        BRNC        BRNCCOCO    BRNCCOCO13AG00000600000000001227735000000000000000100000000000000000000000002076Z01620200319X066000000
2MAIL0000150245BR10        BRNC        BRNCCOCO    BRNCCOCO13AG00000700000000001228512700000000000000100000000000000000000000005568Z01620200319X066000000
2MAIL0000150245BR10        BRNC        BRNCCOCO    BRNCCOCO13AG00000800000000001231189200000000000000100000000000000000000000005568Z01620200319X066000000
2MAIL0000150245BR10        BRNC        BRNCCOCO    BRNCCOCO13AG00000900000000001231231200000000000000100000000000000000000000005568Z01620200319X066000000
2MAIL0000150245BR10        BRNC        BRNCCOCO    BRNCCOCO13AG00001000000000001231233000000000000000100000000000000000000000005568Z01620200319X066000000
2MAIL0000150245BR10        BRNC        BRNCCOCO    BRNCCOCO13AG00001100000000001235699800000000000001000000000000000000000000004211Z01620200319X066000000
2MAIL0000150245BR10        BRNC        BRNCCOCO    BRNCCOCO13AG00001200000000001239373400000000000000100000000000000000000000006952Z01620200319X066000000
2MAIL0000150245BR10        BRNC        BRNCCOCO    BRNCCOCO13AG00001300000000001242374800000000000000100000000000000000000000005568Z01620200319X066000000
1MAIL0000150246BR10        BRNC        BRNCCOCO    BRNCCOCO13AG2020031900:00:00OR  010000029800330002980033150246                             2020031920200319Z016CIF202003190000000000074281NN0                                                  0                                        
2MAIL0000150246BR10        BRNC        BRNCCOCO    BRNCCOCO13AG00000100000000001132018300000000000000200000000000000000000000007083Z01620200319X066000000
2MAIL0000150246BR10        BRNC        BRNCCOCO    BRNCCOCO13AG00000200000000001132019700000000000000200000000000000000000000003936Z01620200319X066000000
2MAIL0000150246BR10        BRNC        BRNCCOCO    BRNCCOCO13AG00000300000000001132019800000000000000200000000000000000000000003936Z01620200319X066000000
2MAIL0000150246BR10        BRNC        BRNCCOCO    BRNCCOCO13AG00000400000000001132020900000000000000200000000000000000000000003936Z01620200319X066000000
2MAIL0000150246BR10        BRNC        BRNCCOCO    BRNCCOCO13AG00000500000000001132033100000000000000200000000000000000000000004345Z01620200319X066000000
2MAIL0000150246BR10        BRNC        BRNCCOCO    BRNCCOCO13AG00000600000000001132036700000000000000500000000000000000000000010863Z01620200319X066000000
2MAIL0000150246BR10        BRNC        BRNCCOCO    BRNCCOCO13AG00000700000000001132200400000000000000500000000000000000000000010575Z01620200319X066000000
2MAIL0000150246BR10        BRNC        BRNCCOCO    BRNCCOCO13AG00000800000000001215533700000000000000200000000000000000000000004345Z01620200319X066000000
2MAIL0000150246BR10        BRNC        BRNCCOCO    BRNCCOCO13AG00000900000000001221415400000000000000200000000000000000000000007083Z01620200319X066000000
2MAIL0000150246BR10        BRNC        BRNCCOCO    BRNCCOCO13AG00001000000000001231231200000000000000100000000000000000000000005076Z01620200319X066000000
2MAIL0000150246BR10        BRNC        BRNCCOCO    BRNCCOCO13AG00001100000000001239692000000000000001400000000000000000000000005343Z01620200319X066000000
2MAIL0000150246BR10        BRNC        BRNCCOCO    BRNCCOCO13AG00001200000000001241623700000000000000300000000000000000000000007760Z01620200319X066000000
1MAIL0000150247BR10        BRNC        BRNCCOCO    BRNCCOCO13AG2020031900:00:00OR  010000061131900006113190150247                             2020031920200319Z016CIF202003190000000000048871NN0                                                  0                                        
2MAIL0000150247BR10        BRNC        BRNCCOCO    BRNCCOCO13AG00000100000000001132019700000000000000200000000000000000000000003936Z01620200319X066000000
2MAIL0000150247BR10        BRNC        BRNCCOCO    BRNCCOCO13AG00000200000000001132019800000000000000200000000000000000000000003936Z01620200319X066000000
2MAIL0000150247BR10        BRNC        BRNCCOCO    BRNCCOCO13AG00000300000000001132033100000000000000200000000000000000000000004345Z01620200319X066000000
2MAIL0000150247BR10        BRNC        BRNCCOCO    BRNCCOCO13AG00000400000000001132036700000000000000200000000000000000000000004345Z01620200319X066000000
2MAIL0000150247BR10        BRNC        BRNCCOCO    BRNCCOCO13AG00000500000000001215533700000000000000200000000000000000000000004345Z01620200319X066000000
2MAIL0000150247BR10        BRNC        BRNCCOCO    BRNCCOCO13AG00000600000000001236512900000000000007000000000000000000000000013982Z01620200319X066000000
2MAIL0000150247BR10        BRNC        BRNCCOCO    BRNCCOCO13AG00000700000000001236515000000000000007000000000000000000000000013982Z01620200319X066000000
1MAIL0000150248BR10        BRNC        BRNCCOCO    BRNCCOCO13AG2020031900:00:00OR  010000061442190006144219150248                             2020031920200319Z016CIF202003190000000000012147NN0                                                  0                                        
2MAIL0000150248BR10        BRNC        BRNCCOCO    BRNCCOCO13AG00000100000000001132019700000000000000100000000000000000000000001924Z01620200319X066000000
2MAIL0000150248BR10        BRNC        BRNCCOCO    BRNCCOCO13AG00000200000000001132019800000000000000100000000000000000000000001924Z01620200319X066000000
2MAIL0000150248BR10        BRNC        BRNCCOCO    BRNCCOCO13AG00000300000000001132020900000000000000100000000000000000000000001924Z01620200319X066000000
2MAIL0000150248BR10        BRNC        BRNCCOCO    BRNCCOCO13AG00000400000000001132033100000000000000100000000000000000000000002125Z01620200319X066000000
2MAIL0000150248BR10        BRNC        BRNCCOCO    BRNCCOCO13AG00000500000000001132036700000000000000100000000000000000000000002125Z01620200319X066000000
2MAIL0000150248BR10        BRNC        BRNCCOCO    BRNCCOCO13AG00000600000000001215533700000000000000100000000000000000000000002125Z01620200319X066000000
1MAIL0000150249BR10        BRNC        BRNCCOCO    BRNCCOCO13AG2020031900:00:00OR  010000028994980002899498150249                             2020031920200319Z016CIF202003190000000000002071NN0                                                  0                                        
2MAIL0000150249BR10        BRNC        BRNCCOCO    BRNCCOCO13AG00000100000000001236512800000000000001200000000000000000000000002071Z01620200319X066000000
1MAIL0000150250BR10        BRNC        BRNCCOCO    BRNCCOCO13AG2020031900:00:00OR  010000029804800002980480150250                             2020031920200319Z016CIF202003190000000000634254NN0                                                  0                                        
2MAIL0000150250BR10        BRNC        BRNCCOCO    BRNCCOCO13AG00000100000000001132004000000000000002000000000000000000000000019958Z01620200319X066000000
2MAIL0000150250BR10        BRNC        BRNCCOCO    BRNCCOCO13AG00000200000000001132004200000000000002000000000000000000000000028130Z01620200319X066000000
2MAIL0000150250BR10        BRNC        BRNCCOCO    BRNCCOCO13AG00000300000000001132018300000000000000100000000000000000000000003463Z01620200319X066000000
2MAIL0000150250BR10        BRNC        BRNCCOCO    BRNCCOCO13AG00000400000000001132019800000000000000100000000000000000000000001924Z01620200319X066000000
2MAIL0000150250BR10        BRNC        BRNCCOCO    BRNCCOCO13AG00000500000000001132020900000000000000200000000000000000000000003850Z01620200319X066000000
2MAIL0000150250BR10        BRNC        BRNCCOCO    BRNCCOCO13AG00000600000000001132034900000000000003000000000000000000000000064988Z01620200319X066000000
2MAIL0000150250BR10        BRNC        BRNCCOCO    BRNCCOCO13AG00000700000000001132035000000000000001000000000000000000000000024066Z01620200319X066000000
2MAIL0000150250BR10        BRNC        BRNCCOCO    BRNCCOCO13AG00000800000000001132035100000000000001000000000000000000000000022872Z01620200319X066000000
2MAIL0000150250BR10        BRNC        BRNCCOCO    BRNCCOCO13AG00000900000000001132036700000000000006000000000000000000000000127502Z01620200319X066000000
2MAIL0000150250BR10        BRNC        BRNCCOCO    BRNCCOCO13AG00001000000000001132200400000000000000600000000000000000000000012690Z01620200319X066000000
2MAIL0000150250BR10        BRNC        BRNCCOCO    BRNCCOCO13AG00001100000000001221415400000000000000100000000000000000000000003463Z01620200319X066000000
2MAIL0000150250BR10        BRNC        BRNCCOCO    BRNCCOCO13AG00001200000000001223975300000000000000400000000000000000000000019859Z01620200319X066000000
2MAIL0000150250BR10        BRNC        BRNCCOCO    BRNCCOCO13AG00001300000000001226089600000000000009600000000000000000000000035836Z01620200319X066000000
2MAIL0000150250BR10        BRNC        BRNCCOCO    BRNCCOCO13AG00001400000000001228274000000000000000400000000000000000000000019859Z01620200319X066000000
2MAIL0000150250BR10        BRNC        BRNCCOCO    BRNCCOCO13AG00001500000000001231231200000000000000100000000000000000000000004965Z01620200319X066000000
2MAIL0000150250BR10        BRNC        BRNCCOCO    BRNCCOCO13AG00001600000000001231389600000000000001600000000000000000000000034001Z01620200319X066000000
2MAIL0000150250BR10        BRNC        BRNCCOCO    BRNCCOCO13AG00001700000000001234705800000000000000400000000000000000000000019859Z01620200319X066000000
2MAIL0000150250BR10        BRNC        BRNCCOCO    BRNCCOCO13AG00001800000000001235699800000000000006000000000000000000000000022442Z01620200319X066000000
2MAIL0000150250BR10        BRNC        BRNCCOCO    BRNCCOCO13AG00001900000000001236512800000000000005200000000000000000000000008776Z01620200319X066000000
2MAIL0000150250BR10        BRNC        BRNCCOCO    BRNCCOCO13AG00002000000000001236512900000000000007000000000000000000000000012447Z01620200319X066000000
2MAIL0000150250BR10        BRNC        BRNCCOCO    BRNCCOCO13AG00002100000000001236515000000000000015000000000000000000000000026671Z01620200319X066000000
2MAIL0000150250BR10        BRNC        BRNCCOCO    BRNCCOCO13AG00002200000000001238083500000000000000600000000000000000000000029790Z01620200319X066000000
2MAIL0000150250BR10        BRNC        BRNCCOCO    BRNCCOCO13AG00002300000000001239373400000000000000200000000000000000000000012399Z01620200319X066000000
2MAIL0000150250BR10        BRNC        BRNCCOCO    BRNCCOCO13AG00002400000000001239688300000000000002800000000000000000000000010452Z01620200319X066000000
2MAIL0000150250BR10        BRNC        BRNCCOCO    BRNCCOCO13AG00002500000000001239688500000000000001400000000000000000000000005226Z01620200319X066000000
2MAIL0000150250BR10        BRNC        BRNCCOCO    BRNCCOCO13AG00002600000000001239688800000000000004200000000000000000000000015678Z01620200319X066000000
2MAIL0000150250BR10        BRNC        BRNCCOCO    BRNCCOCO13AG00002700000000001239692000000000000005600000000000000000000000020904Z01620200319X066000000
2MAIL0000150250BR10        BRNC        BRNCCOCO    BRNCCOCO13AG00002800000000001239692100000000000001400000000000000000000000005226Z01620200319X066000000
2MAIL0000150250BR10        BRNC        BRNCCOCO    BRNCCOCO13AG00002900000000001241577400000000000000500000000000000000000000004237Z01620200319X066000000
2MAIL0000150250BR10        BRNC        BRNCCOCO    BRNCCOCO13AG00003000000000001241623700000000000000100000000000000000000000002530Z01620200319X066000000
2MAIL0000150250BR10        BRNC        BRNCCOCO    BRNCCOCO13AG00003100000000001242374800000000000000100000000000000000000000004965Z01620200319X066000000
2MAIL0000150250BR10        BRNC        BRNCCOCO    BRNCCOCO13AG00003200000000001242765000000000000001400000000000000000000000005226Z01620200319X066000000
1MAIL0000150251BR10        BRNC        BRNCCOCO    BRNCCOCO13AG2020031900:00:00OR  010000059822600005982260150251                             2020031920200319Z016CIF202003190000000000020265NN0                                                  0                                        
2MAIL0000150251BR10        BRNC        BRNCCOCO    BRNCCOCO13AG00000100000000001132019800000000000000100000000000000000000000002076Z01620200319X066000000
2MAIL0000150251BR10        BRNC        BRNCCOCO    BRNCCOCO13AG00000200000000001132020900000000000000100000000000000000000000002076Z01620200319X066000000
2MAIL0000150251BR10        BRNC        BRNCCOCO    BRNCCOCO13AG00000300000000001132033100000000000000100000000000000000000000002291Z01620200319X066000000
2MAIL0000150251BR10        BRNC        BRNCCOCO    BRNCCOCO13AG00000400000000001132036700000000000000100000000000000000000000002291Z01620200319X066000000
2MAIL0000150251BR10        BRNC        BRNCCOCO    BRNCCOCO13AG00000500000000001132400100000000000000100000000000000000000000003165Z01620200319X066000000
2MAIL0000150251BR10        BRNC        BRNCCOCO    BRNCCOCO13AG00000600000000001239688800000000000001400000000000000000000000005885Z01620200319X066000000
2MAIL0000150251BR10        BRNC        BRNCCOCO    BRNCCOCO13AG00000700000000001241623700000000000000100000000000000000000000002481Z01620200319X066000000
1MAIL0000150252BR10        BRNC        BRNCCOCO    BRNCCOCO13AG2020031900:00:00OR  010000029055190002905519150252                             2020031920200319Z016CIF202003190000000000646323NN0                                                  0                                        
2MAIL0000150252BR10        BRNC        BRNCCOCO    BRNCCOCO13AG00000100000000001132004000000000000001000000000000000000000000010202Z01620200319X066000000
2MAIL0000150252BR10        BRNC        BRNCCOCO    BRNCCOCO13AG00000200000000001132004200000000000001000000000000000000000000014065Z01620200319X066000000
2MAIL0000150252BR10        BRNC        BRNCCOCO    BRNCCOCO13AG00000300000000001132018300000000000000100000000000000000000000003541Z01620200319X066000000
2MAIL0000150252BR10        BRNC        BRNCCOCO    BRNCCOCO13AG00000400000000001132019700000000000000100000000000000000000000001967Z01620200319X066000000
2MAIL0000150252BR10        BRNC        BRNCCOCO    BRNCCOCO13AG00000500000000001132019800000000000000100000000000000000000000001967Z01620200319X066000000
2MAIL0000150252BR10        BRNC        BRNCCOCO    BRNCCOCO13AG00000600000000001132019900000000000000100000000000000000000000001967Z01620200319X066000000
2MAIL0000150252BR10        BRNC        BRNCCOCO    BRNCCOCO13AG00000700000000001132020900000000000000100000000000000000000000001967Z01620200319X066000000
2MAIL0000150252BR10        BRNC        BRNCCOCO    BRNCCOCO13AG00000800000000001132030800000000000000200000000000000000000000006218Z01620200319X066000000
2MAIL0000150252BR10        BRNC        BRNCCOCO    BRNCCOCO13AG00000900000000001132030900000000000000200000000000000000000000006414Z01620200319X066000000
2MAIL0000150252BR10        BRNC        BRNCCOCO    BRNCCOCO13AG00001000000000001132033100000000000001200000000000000000000000026073Z01620200319X066000000
2MAIL0000150252BR10        BRNC        BRNCCOCO    BRNCCOCO13AG00001100000000001132033900000000000000400000000000000000000000013640Z01620200319X066000000
2MAIL0000150252BR10        BRNC        BRNCCOCO    BRNCCOCO13AG00001200000000001132034900000000000000500000000000000000000000011074Z01620200319X066000000
2MAIL0000150252BR10        BRNC        BRNCCOCO    BRNCCOCO13AG00001300000000001132035000000000000000500000000000000000000000012302Z01620200319X066000000
2MAIL0000150252BR10        BRNC        BRNCCOCO    BRNCCOCO13AG00001400000000001132035100000000000000500000000000000000000000011693Z01620200319X066000000
2MAIL0000150252BR10        BRNC        BRNCCOCO    BRNCCOCO13AG00001500000000001132036700000000000003000000000000000000000000065183Z01620200319X066000000
2MAIL0000150252BR10        BRNC        BRNCCOCO    BRNCCOCO13AG00001600000000001132185100000000000000400000000000000000000000011362Z01620200319X066000000
2MAIL0000150252BR10        BRNC        BRNCCOCO    BRNCCOCO13AG00001700000000001132200400000000000001500000000000000000000000031726Z01620200319X066000000
2MAIL0000150252BR10        BRNC        BRNCCOCO    BRNCCOCO13AG00001800000000001132400100000000000000100000000000000000000000003003Z01620200319X066000000
2MAIL0000150252BR10        BRNC        BRNCCOCO    BRNCCOCO13AG00001900000000001215533700000000000001200000000000000000000000026073Z01620200319X066000000
2MAIL0000150252BR10        BRNC        BRNCCOCO    BRNCCOCO13AG00002000000000001221415400000000000000100000000000000000000000003541Z01620200319X066000000
2MAIL0000150252BR10        BRNC        BRNCCOCO    BRNCCOCO13AG00002100000000001223975300000000000000100000000000000000000000005076Z01620200319X066000000
2MAIL0000150252BR10        BRNC        BRNCCOCO    BRNCCOCO13AG00002200000000001224882700000000000000100000000000000000000000003159Z01620200319X066000000
2MAIL0000150252BR10        BRNC        BRNCCOCO    BRNCCOCO13AG00002300000000001226089600000000000002400000000000000000000000009159Z01620200319X066000000
2MAIL0000150252BR10        BRNC        BRNCCOCO    BRNCCOCO13AG00002400000000001227395500000000000000400000000000000000000000008692Z01620200319X066000000
2MAIL0000150252BR10        BRNC        BRNCCOCO    BRNCCOCO13AG00002500000000001227735000000000000000100000000000000000000000001967Z01620200319X066000000
2MAIL0000150252BR10        BRNC        BRNCCOCO    BRNCCOCO13AG00002600000000001228274000000000000000100000000000000000000000005076Z01620200319X066000000
2MAIL0000150252BR10        BRNC        BRNCCOCO    BRNCCOCO13AG00002700000000001228512700000000000000100000000000000000000000005076Z01620200319X066000000
2MAIL0000150252BR10        BRNC        BRNCCOCO    BRNCCOCO13AG00002800000000001231189200000000000000100000000000000000000000005076Z01620200319X066000000
2MAIL0000150252BR10        BRNC        BRNCCOCO    BRNCCOCO13AG00002900000000001231231200000000000000100000000000000000000000005076Z01620200319X066000000
2MAIL0000150252BR10        BRNC        BRNCCOCO    BRNCCOCO13AG00003000000000001231233000000000000000100000000000000000000000005076Z01620200319X066000000
2MAIL0000150252BR10        BRNC        BRNCCOCO    BRNCCOCO13AG00003100000000001231389600000000000000500000000000000000000000010863Z01620200319X066000000
2MAIL0000150252BR10        BRNC        BRNCCOCO    BRNCCOCO13AG00003200000000001231417800000000000000100000000000000000000000003159Z01620200319X066000000
2MAIL0000150252BR10        BRNC        BRNCCOCO    BRNCCOCO13AG00003300000000001234705700000000000000100000000000000000000000005076Z01620200319X066000000
2MAIL0000150252BR10        BRNC        BRNCCOCO    BRNCCOCO13AG00003400000000001234705800000000000000100000000000000000000000005076Z01620200319X066000000
2MAIL0000150252BR10        BRNC        BRNCCOCO    BRNCCOCO13AG00003500000000001234705900000000000000100000000000000000000000005076Z01620200319X066000000
2MAIL0000150252BR10        BRNC        BRNCCOCO    BRNCCOCO13AG00003600000000001235699400000000000002000000000000000000000000007648Z01620200319X066000000
2MAIL0000150252BR10        BRNC        BRNCCOCO    BRNCCOCO13AG00003700000000001235699700000000000002000000000000000000000000007648Z01620200319X066000000
2MAIL0000150252BR10        BRNC        BRNCCOCO    BRNCCOCO13AG00003800000000001235699800000000000004000000000000000000000000015297Z01620200319X066000000
2MAIL0000150252BR10        BRNC        BRNCCOCO    BRNCCOCO13AG00003900000000001236512800000000000005200000000000000000000000008973Z01620200319X066000000
2MAIL0000150252BR10        BRNC        BRNCCOCO    BRNCCOCO13AG00004000000000001236512900000000000007000000000000000000000000012727Z01620200319X066000000
2MAIL0000150252BR10        BRNC        BRNCCOCO    BRNCCOCO13AG00004100000000001236515000000000000007000000000000000000000000012727Z01620200319X066000000
2MAIL0000150252BR10        BRNC        BRNCCOCO    BRNCCOCO13AG00004200000000001236898000000000000000400000000000000000000000008692Z01620200319X066000000
2MAIL0000150252BR10        BRNC        BRNCCOCO    BRNCCOCO13AG00004300000000001238083500000000000000100000000000000000000000005076Z01620200319X066000000
2MAIL0000150252BR10        BRNC        BRNCCOCO    BRNCCOCO13AG00004400000000001238083600000000000000100000000000000000000000006310Z01620200319X066000000
2MAIL0000150252BR10        BRNC        BRNCCOCO    BRNCCOCO13AG00004500000000001239373400000000000000100000000000000000000000006340Z01620200319X066000000
2MAIL0000150252BR10        BRNC        BRNCCOCO    BRNCCOCO13AG00004600000000001239373500000000000000100000000000000000000000006340Z01620200319X066000000
2MAIL0000150252BR10        BRNC        BRNCCOCO    BRNCCOCO13AG00004700000000001239373600000000000000100000000000000000000000006340Z01620200319X066000000
2MAIL0000150252BR10        BRNC        BRNCCOCO    BRNCCOCO13AG00004800000000001239373700000000000000100000000000000000000000006340Z01620200319X066000000
2MAIL0000150252BR10        BRNC        BRNCCOCO    BRNCCOCO13AG00004900000000001239663300000000000002800000000000000000000000010686Z01620200319X066000000
2MAIL0000150252BR10        BRNC        BRNCCOCO    BRNCCOCO13AG00005000000000001239688300000000000005600000000000000000000000021373Z01620200319X066000000
2MAIL0000150252BR10        BRNC        BRNCCOCO    BRNCCOCO13AG00005100000000001239688500000000000002800000000000000000000000010686Z01620200319X066000000
2MAIL0000150252BR10        BRNC        BRNCCOCO    BRNCCOCO13AG00005200000000001239688600000000000002800000000000000000000000010686Z01620200319X066000000
2MAIL0000150252BR10        BRNC        BRNCCOCO    BRNCCOCO13AG00005300000000001239688700000000000002800000000000000000000000010686Z01620200319X066000000
2MAIL0000150252BR10        BRNC        BRNCCOCO    BRNCCOCO13AG00005400000000001239688800000000000005600000000000000000000000021373Z01620200319X066000000
2MAIL0000150252BR10        BRNC        BRNCCOCO    BRNCCOCO13AG00005500000000001239692000000000000002800000000000000000000000010686Z01620200319X066000000
2MAIL0000150252BR10        BRNC        BRNCCOCO    BRNCCOCO13AG00005600000000001239692100000000000002800000000000000000000000010686Z01620200319X066000000
2MAIL0000150252BR10        BRNC        BRNCCOCO    BRNCCOCO13AG00005700000000001239692300000000000002800000000000000000000000010686Z01620200319X066000000
2MAIL0000150252BR10        BRNC        BRNCCOCO    BRNCCOCO13AG00005800000000001240924900000000000005200000000000000000000000008656Z01620200319X066000000
2MAIL0000150252BR10        BRNC        BRNCCOCO    BRNCCOCO13AG00005900000000001241623700000000000001000000000000000000000000025866Z01620200319X066000000
2MAIL0000150252BR10        BRNC        BRNCCOCO    BRNCCOCO13AG00006000000000001242374800000000000000100000000000000000000000005076Z01620200319X066000000
2MAIL0000150252BR10        BRNC        BRNCCOCO    BRNCCOCO13AG00006100000000001242626100000000000002800000000000000000000000010686Z01620200319X066000000
2MAIL0000150252BR10        BRNC        BRNCCOCO    BRNCCOCO13AG00006200000000001242754900000000000002800000000000000000000000010686Z01620200319X066000000
2MAIL0000150252BR10        BRNC        BRNCCOCO    BRNCCOCO13AG00006300000000001242765000000000000002800000000000000000000000010686Z01620200319X066000000
1MAIL0000150253BR10        BRNC        BRNCCOCO    BRNCCOCO13AG2020031900:00:00OR  010000033398820003339882150253                             2020031920200319Z016CIF202003190000000000453942NN0                                                  0                                        
2MAIL0000150253BR10        BRNC        BRNCCOCO    BRNCCOCO13AG00000100000000001132004000000000000000500000000000000000000000004990Z01620200319X066000000
2MAIL0000150253BR10        BRNC        BRNCCOCO    BRNCCOCO13AG00000200000000001132004200000000000000500000000000000000000000007033Z01620200319X066000000
2MAIL0000150253BR10        BRNC        BRNCCOCO    BRNCCOCO13AG00000300000000001132018300000000000000400000000000000000000000013854Z01620200319X066000000
2MAIL0000150253BR10        BRNC        BRNCCOCO    BRNCCOCO13AG00000400000000001132019800000000000000600000000000000000000000011549Z01620200319X066000000
2MAIL0000150253BR10        BRNC        BRNCCOCO    BRNCCOCO13AG00000500000000001132020900000000000000400000000000000000000000007699Z01620200319X066000000
2MAIL0000150253BR10        BRNC        BRNCCOCO    BRNCCOCO13AG00000600000000001132030800000000000004800000000000000000000000145931Z01620200319X066000000
2MAIL0000150253BR10        BRNC        BRNCCOCO    BRNCCOCO13AG00000700000000001132030900000000000000800000000000000000000000025094Z01620200319X066000000
2MAIL0000150253BR10        BRNC        BRNCCOCO    BRNCCOCO13AG00000800000000001132033100000000000000600000000000000000000000012750Z01620200319X066000000
2MAIL0000150253BR10        BRNC        BRNCCOCO    BRNCCOCO13AG00000900000000001132036700000000000001600000000000000000000000034001Z01620200319X066000000
2MAIL0000150253BR10        BRNC        BRNCCOCO    BRNCCOCO13AG00001000000000001132200400000000000000800000000000000000000000016921Z01620200319X066000000
2MAIL0000150253BR10        BRNC        BRNCCOCO    BRNCCOCO13AG00001100000000001215533700000000000000600000000000000000000000012750Z01620200319X066000000
2MAIL0000150253BR10        BRNC        BRNCCOCO    BRNCCOCO13AG00001200000000001221415400000000000000400000000000000000000000013854Z01620200319X066000000
2MAIL0000150253BR10        BRNC        BRNCCOCO    BRNCCOCO13AG00001300000000001223975300000000000000200000000000000000000000009930Z01620200319X066000000
2MAIL0000150253BR10        BRNC        BRNCCOCO    BRNCCOCO13AG00001400000000001224882700000000000000600000000000000000000000018531Z01620200319X066000000
2MAIL0000150253BR10        BRNC        BRNCCOCO    BRNCCOCO13AG00001500000000001224882800000000000000400000000000000000000000012355Z01620200319X066000000
2MAIL0000150253BR10        BRNC        BRNCCOCO    BRNCCOCO13AG00001600000000001227395500000000000000600000000000000000000000012750Z01620200319X066000000
2MAIL0000150253BR10        BRNC        BRNCCOCO    BRNCCOCO13AG00001700000000001228512700000000000000200000000000000000000000009930Z01620200319X066000000
2MAIL0000150253BR10        BRNC        BRNCCOCO    BRNCCOCO13AG00001800000000001231189200000000000000200000000000000000000000009930Z01620200319X066000000
2MAIL0000150253BR10        BRNC        BRNCCOCO    BRNCCOCO13AG00001900000000001231231200000000000000300000000000000000000000014895Z01620200319X066000000
2MAIL0000150253BR10        BRNC        BRNCCOCO    BRNCCOCO13AG00002000000000001234705700000000000000200000000000000000000000009930Z01620200319X066000000
2MAIL0000150253BR10        BRNC        BRNCCOCO    BRNCCOCO13AG00002100000000001234705800000000000000200000000000000000000000009930Z01620200319X066000000
2MAIL0000150253BR10        BRNC        BRNCCOCO    BRNCCOCO13AG00002200000000001234705900000000000000200000000000000000000000009930Z01620200319X066000000
2MAIL0000150253BR10        BRNC        BRNCCOCO    BRNCCOCO13AG00002300000000001236898000000000000000400000000000000000000000008501Z01620200319X066000000
2MAIL0000150253BR10        BRNC        BRNCCOCO    BRNCCOCO13AG00002400000000001239688800000000000005600000000000000000000000020904Z01620200319X066000000
1MAIL0000150254BR10        BRNC        BRNCCOCO    BRNCCOCO13AG2020031900:00:00OR  010000058537340005853734150254                             2020031920200319Z016CIF202003190000000000030185NN0                                                  0                                        
2MAIL0000150254BR10        BRNC        BRNCCOCO    BRNCCOCO13AG00000100000000001132019700000000000000100000000000000000000000002076Z01620200319X066000000
2MAIL0000150254BR10        BRNC        BRNCCOCO    BRNCCOCO13AG00000200000000001132019800000000000000100000000000000000000000002076Z01620200319X066000000
2MAIL0000150254BR10        BRNC        BRNCCOCO    BRNCCOCO13AG00000300000000001132020900000000000000100000000000000000000000002076Z01620200319X066000000
2MAIL0000150254BR10        BRNC        BRNCCOCO    BRNCCOCO13AG00000400000000001132033100000000000000100000000000000000000000002291Z01620200319X066000000
2MAIL0000150254BR10        BRNC        BRNCCOCO    BRNCCOCO13AG00000500000000001132036700000000000000200000000000000000000000004581Z01620200319X066000000
2MAIL0000150254BR10        BRNC        BRNCCOCO    BRNCCOCO13AG00000600000000001132200400000000000000100000000000000000000000002230Z01620200319X066000000
2MAIL0000150254BR10        BRNC        BRNCCOCO    BRNCCOCO13AG00000700000000001236512900000000000001000000000000000000000000002004Z01620200319X066000000
2MAIL0000150254BR10        BRNC        BRNCCOCO    BRNCCOCO13AG00000800000000001236515000000000000001000000000000000000000000002004Z01620200319X066000000
2MAIL0000150254BR10        BRNC        BRNCCOCO    BRNCCOCO13AG00000900000000001239688800000000000001400000000000000000000000005885Z01620200319X066000000
2MAIL0000150254BR10        BRNC        BRNCCOCO    BRNCCOCO13AG00001000000000001241623700000000000000200000000000000000000000004962Z01620200319X066000000
1MAIL0000150255BR10        BRNC        BRNCCOCO    BRNCCOCO13AG2020031900:00:00OR  010000047883910004788391150255                             2020031920200319Z016CIF202003190000000000024938NN0                                                  0                                        
2MAIL0000150255BR10        BRNC        BRNCCOCO    BRNCCOCO13AG00000100000000001132036700000000000000300000000000000000000000006872Z01620200319X066000000
2MAIL0000150255BR10        BRNC        BRNCCOCO    BRNCCOCO13AG00000200000000001236512800000000000001200000000000000000000000002288Z01620200319X066000000
2MAIL0000150255BR10        BRNC        BRNCCOCO    BRNCCOCO13AG00000300000000001236512900000000000001000000000000000000000000002004Z01620200319X066000000
2MAIL0000150255BR10        BRNC        BRNCCOCO    BRNCCOCO13AG00000400000000001236515000000000000001000000000000000000000000002004Z01620200319X066000000
2MAIL0000150255BR10        BRNC        BRNCCOCO    BRNCCOCO13AG00000500000000001239688800000000000001400000000000000000000000005885Z01620200319X066000000
2MAIL0000150255BR10        BRNC        BRNCCOCO    BRNCCOCO13AG00000600000000001239692100000000000001400000000000000000000000005885Z01620200319X066000000
1MAIL0000150256BR10        BRNC        BRNCCOCO    BRNCCOCO13AG2020031900:00:00OR  010000054747530005474753150256                             2020031920200319Z016CIF202003190000000000010395NN0                                                  0                                        
2MAIL0000150256BR10        BRNC        BRNCCOCO    BRNCCOCO13AG00000100000000001132019800000000000000100000000000000000000000001967Z01620200319X066000000
2MAIL0000150256BR10        BRNC        BRNCCOCO    BRNCCOCO13AG00000200000000001132020900000000000000100000000000000000000000001967Z01620200319X066000000
2MAIL0000150256BR10        BRNC        BRNCCOCO    BRNCCOCO13AG00000300000000001132033100000000000000100000000000000000000000002173Z01620200319X066000000
2MAIL0000150256BR10        BRNC        BRNCCOCO    BRNCCOCO13AG00000400000000001132036700000000000000100000000000000000000000002173Z01620200319X066000000
2MAIL0000150256BR10        BRNC        BRNCCOCO    BRNCCOCO13AG00000500000000001132200400000000000000100000000000000000000000002115Z01620200319X066000000
1MAIL0000150257BR10        BRNC        BRNCCOCO    BRNCCOCO13AG2020031900:00:00OR  010000029319600002931960150257                             2020031920200319Z016CIF202003190000000000032593NN0                                                  0                                        
2MAIL0000150257BR10        BRNC        BRNCCOCO    BRNCCOCO13AG00000100000000001226089600000000000001200000000000000000000000005045Z01620200319X066000000
2MAIL0000150257BR10        BRNC        BRNCCOCO    BRNCCOCO13AG00000200000000001236512900000000000001000000000000000000000000002004Z01620200319X066000000
2MAIL0000150257BR10        BRNC        BRNCCOCO    BRNCCOCO13AG00000300000000001236515000000000000001000000000000000000000000002004Z01620200319X066000000
2MAIL0000150257BR10        BRNC        BRNCCOCO    BRNCCOCO13AG00000400000000001239663300000000000001400000000000000000000000005885Z01620200319X066000000
2MAIL0000150257BR10        BRNC        BRNCCOCO    BRNCCOCO13AG00000500000000001239688500000000000001400000000000000000000000005885Z01620200319X066000000
2MAIL0000150257BR10        BRNC        BRNCCOCO    BRNCCOCO13AG00000600000000001239688800000000000001400000000000000000000000005885Z01620200319X066000000
2MAIL0000150257BR10        BRNC        BRNCCOCO    BRNCCOCO13AG00000700000000001239692000000000000001400000000000000000000000005885Z01620200319X066000000
1MAIL0000150258BR10        BRNC        BRNCCOCO    BRNCCOCO13AG2020031900:00:00OR  010000029555110002955511150258                             2020031920200319Z016CIF202003190000000000617635NN0                                                  0                                        
2MAIL0000150258BR10        BRNC        BRNCCOCO    BRNCCOCO13AG00000100000000001132019700000000000000100000000000000000000000001924Z01620200319X066000000
2MAIL0000150258BR10        BRNC        BRNCCOCO    BRNCCOCO13AG00000200000000001132019800000000000000200000000000000000000000003850Z01620200319X066000000
2MAIL0000150258BR10        BRNC        BRNCCOCO    BRNCCOCO13AG00000300000000001132019900000000000000200000000000000000000000003850Z01620200319X066000000
2MAIL0000150258BR10        BRNC        BRNCCOCO    BRNCCOCO13AG00000400000000001132033100000000000000400000000000000000000000008501Z01620200319X066000000
2MAIL0000150258BR10        BRNC        BRNCCOCO    BRNCCOCO13AG00000500000000001132034900000000000001000000000000000000000000021663Z01620200319X066000000
2MAIL0000150258BR10        BRNC        BRNCCOCO    BRNCCOCO13AG00000600000000001132035100000000000001000000000000000000000000022872Z01620200319X066000000
2MAIL0000150258BR10        BRNC        BRNCCOCO    BRNCCOCO13AG00000700000000001132036700000000000000400000000000000000000000008501Z01620200319X066000000
2MAIL0000150258BR10        BRNC        BRNCCOCO    BRNCCOCO13AG00000800000000001226089600000000000002400000000000000000000000008958Z01620200319X066000000
2MAIL0000150258BR10        BRNC        BRNCCOCO    BRNCCOCO13AG00000900000000001231231200000000000000200000000000000000000000009930Z01620200319X066000000
2MAIL0000150258BR10        BRNC        BRNCCOCO    BRNCCOCO13AG00001000000000001231389600000000000000400000000000000000000000008501Z01620200319X066000000
2MAIL0000150258BR10        BRNC        BRNCCOCO    BRNCCOCO13AG00001100000000001234705700000000000000100000000000000000000000004965Z01620200319X066000000
2MAIL0000150258BR10        BRNC        BRNCCOCO    BRNCCOCO13AG00001200000000001235699400000000000003000000000000000000000000011221Z01620200319X066000000
2MAIL0000150258BR10        BRNC        BRNCCOCO    BRNCCOCO13AG00001300000000001235699800000000000002000000000000000000000000007481Z01620200319X066000000
2MAIL0000150258BR10        BRNC        BRNCCOCO    BRNCCOCO13AG00001400000000001236512800000000000005200000000000000000000000008776Z01620200319X066000000
2MAIL0000150258BR10        BRNC        BRNCCOCO    BRNCCOCO13AG00001500000000001236515000000000000003500000000000000000000000006223Z01620200319X066000000
2MAIL0000150258BR10        BRNC        BRNCCOCO    BRNCCOCO13AG00001600000000001238083500000000000000100000000000000000000000004965Z01620200319X066000000
2MAIL0000150258BR10        BRNC        BRNCCOCO    BRNCCOCO13AG00001700000000001239688300000000000002800000000000000000000000010452Z01620200319X066000000
2MAIL0000150258BR10        BRNC        BRNCCOCO    BRNCCOCO13AG00001800000000001239688600000000000005600000000000000000000000020904Z01620200319X066000000
2MAIL0000150258BR10        BRNC        BRNCCOCO    BRNCCOCO13AG00001900000000001239688800000000000005600000000000000000000000020904Z01620200319X066000000
2MAIL0000150258BR10        BRNC        BRNCCOCO    BRNCCOCO13AG00002000000000001239692100000000000005600000000000000000000000020904Z01620200319X066000000
2MAIL0000150258BR10        BRNC        BRNCCOCO    BRNCCOCO13AG00002100000000001239692300000000000005600000000000000000000000020904Z01620200319X066000000
2MAIL0000150258BR10        BRNC        BRNCCOCO    BRNCCOCO13AG00002200000000001241577400000000000045000000000000000000000000381386Z01620200319X066000000
1MAIL0000150259BR10        BRNC        BRNCCOCO    BRNCCOCO13AG2020031900:00:00OR  010000029216160002921616150259                             2020031920200319Z016CIF202003190000000000006299NN0                                                  0                                        
2MAIL0000150259BR10        BRNC        BRNCCOCO    BRNCCOCO13AG00000100000000001132036700000000000000100000000000000000000000002291Z01620200319X066000000
2MAIL0000150259BR10        BRNC        BRNCCOCO    BRNCCOCO13AG00000200000000001236512900000000000001000000000000000000000000002004Z01620200319X066000000
2MAIL0000150259BR10        BRNC        BRNCCOCO    BRNCCOCO13AG00000300000000001236515000000000000001000000000000000000000000002004Z01620200319X066000000
1MAIL0000150260BR10        BRNC        BRNCCOCO    BRNCCOCO13AG2020031900:00:00OR  010000052754090005275409150260                             2020031920200319Z016CIF202003190000000000006519NN0                                                  0                                        
2MAIL0000150260BR10        BRNC        BRNCCOCO    BRNCCOCO13AG00000100000000001132033100000000000000100000000000000000000000002173Z01620200319X066000000
2MAIL0000150260BR10        BRNC        BRNCCOCO    BRNCCOCO13AG00000200000000001132036700000000000000100000000000000000000000002173Z01620200319X066000000
2MAIL0000150260BR10        BRNC        BRNCCOCO    BRNCCOCO13AG00000300000000001215533700000000000000100000000000000000000000002173Z01620200319X066000000
1MAIL0000150261BR10        BRNC        BRNCCOCO    BRNCCOCO13AG2020031900:00:00OR  010000044331410004433141150261                             2020031920200319Z016CIF202003190000000000006519NN0                                                  0                                        
2MAIL0000150261BR10        BRNC        BRNCCOCO    BRNCCOCO13AG00000100000000001132033100000000000000100000000000000000000000002173Z01620200319X066000000
2MAIL0000150261BR10        BRNC        BRNCCOCO    BRNCCOCO13AG00000200000000001132036700000000000000100000000000000000000000002173Z01620200319X066000000
2MAIL0000150261BR10        BRNC        BRNCCOCO    BRNCCOCO13AG00000300000000001215533700000000000000100000000000000000000000002173Z01620200319X066000000
1MAIL0000150262BR10        BRNC        BRNCCOCO    BRNCCOCO13AG2020031900:00:00OR  010000039970070003997007150262                             2020031920200319Z016CIF202003190000000000011247NN0                                                  0                                        
2MAIL0000150262BR10        BRNC        BRNCCOCO    BRNCCOCO13AG00000100000000001132200400000000000000100000000000000000000000001823Z01620200319X066000000
2MAIL0000150262BR10        BRNC        BRNCCOCO    BRNCCOCO13AG00000200000000001236512800000000000000800000000000000000000000001378Z01620200319X066000000
2MAIL0000150262BR10        BRNC        BRNCCOCO    BRNCCOCO13AG00000300000000001236512900000000000000500000000000000000000000000858Z01620200319X066000000
2MAIL0000150262BR10        BRNC        BRNCCOCO    BRNCCOCO13AG00000400000000001236515000000000000000500000000000000000000000000858Z01620200319X066000000
2MAIL0000150262BR10        BRNC        BRNCCOCO    BRNCCOCO13AG00000500000000001241577400000000000000500000000000000000000000004118Z01620200319X066000000
2MAIL0000150262BR10        BRNC        BRNCCOCO    BRNCCOCO13AG00000600000000001241623700000000000000100000000000000000000000002212Z01620200319X066000000
