1MAIL0000152713BR10        BRNC        BRNCCOCO    BRNCCOCO13AG2020040900:00:00OR  010000052712500005271250152713                             2020040920200409Z016CIF202004090000000000062511NN0                                                  0                                        
2MAIL0000152713BR10        BRNC        BRNCCOCO    BRNCCOCO13AG00000100000000001132033100000000000000300000000000000000000000004961Z01620200409X066000000
2MAIL0000152713BR10        BRNC        BRNCCOCO    BRNCCOCO13AG00000200000000001132036700000000000000400000000000000000000000006615Z01620200409X066000000
2MAIL0000152713BR10        BRNC        BRNCCOCO    BRNCCOCO13AG00000300000000001215533700000000000000300000000000000000000000004961Z01620200409X066000000
2MAIL0000152713BR10        BRNC        BRNCCOCO    BRNCCOCO13AG00000400000000001235699400000000000001000000000000000000000000003352Z01620200409X066000000
2MAIL0000152713BR10        BRNC        BRNCCOCO    BRNCCOCO13AG00000500000000001236512900000000000003500000000000000000000000006696Z01620200409X066000000
2MAIL0000152713BR10        BRNC        BRNCCOCO    BRNCCOCO13AG00000600000000001236515000000000000003500000000000000000000000006696Z01620200409X066000000
2MAIL0000152713BR10        BRNC        BRNCCOCO    BRNCCOCO13AG00000700000000001236898000000000000000200000000000000000000000003307Z01620200409X066000000
2MAIL0000152713BR10        BRNC        BRNCCOCO    BRNCCOCO13AG00000800000000001241623700000000000001000000000000000000000000025923Z01620200409X066000000
1MAIL0000152714BR10        BRNC        BRNCCOCO    BRNCCOCO13AG2020040900:00:00OR  010000030595430003059543152714                             2020040920200409Z016CIF202004090000000000054077NN0                                                  0                                        
2MAIL0000152714BR10        BRNC        BRNCCOCO    BRNCCOCO13AG00000100000000001132018300000000000000100000000000000000000000003541Z01620200409X066000000
2MAIL0000152714BR10        BRNC        BRNCCOCO    BRNCCOCO13AG00000200000000001132019800000000000000100000000000000000000000001967Z01620200409X066000000
2MAIL0000152714BR10        BRNC        BRNCCOCO    BRNCCOCO13AG00000300000000001132033100000000000000100000000000000000000000002173Z01620200409X066000000
2MAIL0000152714BR10        BRNC        BRNCCOCO    BRNCCOCO13AG00000400000000001132036700000000000000100000000000000000000000002173Z01620200409X066000000
2MAIL0000152714BR10        BRNC        BRNCCOCO    BRNCCOCO13AG00000500000000001132200400000000000000200000000000000000000000004230Z01620200409X066000000
2MAIL0000152714BR10        BRNC        BRNCCOCO    BRNCCOCO13AG00000600000000001215533700000000000000100000000000000000000000002173Z01620200409X066000000
2MAIL0000152714BR10        BRNC        BRNCCOCO    BRNCCOCO13AG00000700000000001227395500000000000000100000000000000000000000002173Z01620200409X066000000
2MAIL0000152714BR10        BRNC        BRNCCOCO    BRNCCOCO13AG00000800000000001231189200000000000000100000000000000000000000005280Z01620200409X066000000
2MAIL0000152714BR10        BRNC        BRNCCOCO    BRNCCOCO13AG00000900000000001231231200000000000000100000000000000000000000005280Z01620200409X066000000
2MAIL0000152714BR10        BRNC        BRNCCOCO    BRNCCOCO13AG00001000000000001231389600000000000000100000000000000000000000002173Z01620200409X066000000
2MAIL0000152714BR10        BRNC        BRNCCOCO    BRNCCOCO13AG00001100000000001236512900000000000002000000000000000000000000003995Z01620200409X066000000
2MAIL0000152714BR10        BRNC        BRNCCOCO    BRNCCOCO13AG00001200000000001236898000000000000000100000000000000000000000002173Z01620200409X066000000
2MAIL0000152714BR10        BRNC        BRNCCOCO    BRNCCOCO13AG00001300000000001239688600000000000001400000000000000000000000005582Z01620200409X066000000
2MAIL0000152714BR10        BRNC        BRNCCOCO    BRNCCOCO13AG00001400000000001239688700000000000001400000000000000000000000005582Z01620200409X066000000
2MAIL0000152714BR10        BRNC        BRNCCOCO    BRNCCOCO13AG00001500000000001239692100000000000001400000000000000000000000005582Z01620200409X066000000
1MAIL0000152715BR10        BRNC        BRNCCOCO    BRNCCOCO13AG2020040900:00:00OR  010000038692890003869289152715                             2020040920200409Z016CIF202004090000000000111964NN0                                                  0                                        
2MAIL0000152715BR10        BRNC        BRNCCOCO    BRNCCOCO13AG00000100000000001226089600000000000001200000000000000000000000004580Z01620200409X066000000
2MAIL0000152715BR10        BRNC        BRNCCOCO    BRNCCOCO13AG00000200000000001227735000000000000000100000000000000000000000001967Z01620200409X066000000
2MAIL0000152715BR10        BRNC        BRNCCOCO    BRNCCOCO13AG00000300000000001231189200000000000000100000000000000000000000005076Z01620200409X066000000
2MAIL0000152715BR10        BRNC        BRNCCOCO    BRNCCOCO13AG00000400000000001231231200000000000000100000000000000000000000005076Z01620200409X066000000
2MAIL0000152715BR10        BRNC        BRNCCOCO    BRNCCOCO13AG00000500000000001231233000000000000000100000000000000000000000005076Z01620200409X066000000
2MAIL0000152715BR10        BRNC        BRNCCOCO    BRNCCOCO13AG00000600000000001235699400000000000001000000000000000000000000003825Z01620200409X066000000
2MAIL0000152715BR10        BRNC        BRNCCOCO    BRNCCOCO13AG00000700000000001235699700000000000001000000000000000000000000003825Z01620200409X066000000
2MAIL0000152715BR10        BRNC        BRNCCOCO    BRNCCOCO13AG00000800000000001235699800000000000001000000000000000000000000003825Z01620200409X066000000
2MAIL0000152715BR10        BRNC        BRNCCOCO    BRNCCOCO13AG00000900000000001236512900000000000007000000000000000000000000012727Z01620200409X066000000
2MAIL0000152715BR10        BRNC        BRNCCOCO    BRNCCOCO13AG00001000000000001236515000000000000007000000000000000000000000012727Z01620200409X066000000
2MAIL0000152715BR10        BRNC        BRNCCOCO    BRNCCOCO13AG00001100000000001239663300000000000001400000000000000000000000005343Z01620200409X066000000
2MAIL0000152715BR10        BRNC        BRNCCOCO    BRNCCOCO13AG00001200000000001239688300000000000001400000000000000000000000005343Z01620200409X066000000
2MAIL0000152715BR10        BRNC        BRNCCOCO    BRNCCOCO13AG00001300000000001239688500000000000001400000000000000000000000005343Z01620200409X066000000
2MAIL0000152715BR10        BRNC        BRNCCOCO    BRNCCOCO13AG00001400000000001239688600000000000001400000000000000000000000005343Z01620200409X066000000
2MAIL0000152715BR10        BRNC        BRNCCOCO    BRNCCOCO13AG00001500000000001239688700000000000001400000000000000000000000005343Z01620200409X066000000
2MAIL0000152715BR10        BRNC        BRNCCOCO    BRNCCOCO13AG00001600000000001239688800000000000001400000000000000000000000005343Z01620200409X066000000
2MAIL0000152715BR10        BRNC        BRNCCOCO    BRNCCOCO13AG00001700000000001239692000000000000001400000000000000000000000005343Z01620200409X066000000
2MAIL0000152715BR10        BRNC        BRNCCOCO    BRNCCOCO13AG00001800000000001239692100000000000001400000000000000000000000005343Z01620200409X066000000
2MAIL0000152715BR10        BRNC        BRNCCOCO    BRNCCOCO13AG00001900000000001239692300000000000001400000000000000000000000005343Z01620200409X066000000
2MAIL0000152715BR10        BRNC        BRNCCOCO    BRNCCOCO13AG00002000000000001241623700000000000000200000000000000000000000005173Z01620200409X066000000
1MAIL0000152716BR10        BRNC        BRNCCOCO    BRNCCOCO13AG2020040900:00:00OR  010000042256920004225692152716                             2020040920200409Z016CIF202004090000000000147287NN0                                                  0                                        
2MAIL0000152716BR10        BRNC        BRNCCOCO    BRNCCOCO13AG00000100000000001132018300000000000000100000000000000000000000003735Z01620200409X066000000
2MAIL0000152716BR10        BRNC        BRNCCOCO    BRNCCOCO13AG00000200000000001132019700000000000000100000000000000000000000002076Z01620200409X066000000
2MAIL0000152716BR10        BRNC        BRNCCOCO    BRNCCOCO13AG00000300000000001132019800000000000000100000000000000000000000002076Z01620200409X066000000
2MAIL0000152716BR10        BRNC        BRNCCOCO    BRNCCOCO13AG00000400000000001132019900000000000000100000000000000000000000002076Z01620200409X066000000
2MAIL0000152716BR10        BRNC        BRNCCOCO    BRNCCOCO13AG00000500000000001132020900000000000000100000000000000000000000002076Z01620200409X066000000
2MAIL0000152716BR10        BRNC        BRNCCOCO    BRNCCOCO13AG00000600000000001132033100000000000000200000000000000000000000004581Z01620200409X066000000
2MAIL0000152716BR10        BRNC        BRNCCOCO    BRNCCOCO13AG00000700000000001132036700000000000000200000000000000000000000004581Z01620200409X066000000
2MAIL0000152716BR10        BRNC        BRNCCOCO    BRNCCOCO13AG00000800000000001132400100000000000000100000000000000000000000003165Z01620200409X066000000
2MAIL0000152716BR10        BRNC        BRNCCOCO    BRNCCOCO13AG00000900000000001215533700000000000000200000000000000000000000004581Z01620200409X066000000
2MAIL0000152716BR10        BRNC        BRNCCOCO    BRNCCOCO13AG00001000000000001221415400000000000000100000000000000000000000003735Z01620200409X066000000
2MAIL0000152716BR10        BRNC        BRNCCOCO    BRNCCOCO13AG00001100000000001226089600000000000001200000000000000000000000005045Z01620200409X066000000
2MAIL0000152716BR10        BRNC        BRNCCOCO    BRNCCOCO13AG00001200000000001228512700000000000000100000000000000000000000005568Z01620200409X066000000
2MAIL0000152716BR10        BRNC        BRNCCOCO    BRNCCOCO13AG00001300000000001231231200000000000000100000000000000000000000005568Z01620200409X066000000
2MAIL0000152716BR10        BRNC        BRNCCOCO    BRNCCOCO13AG00001400000000001231233000000000000000100000000000000000000000005568Z01620200409X066000000
2MAIL0000152716BR10        BRNC        BRNCCOCO    BRNCCOCO13AG00001500000000001234705700000000000000100000000000000000000000005568Z01620200409X066000000
2MAIL0000152716BR10        BRNC        BRNCCOCO    BRNCCOCO13AG00001600000000001234705900000000000000100000000000000000000000005568Z01620200409X066000000
2MAIL0000152716BR10        BRNC        BRNCCOCO    BRNCCOCO13AG00001700000000001235699400000000000001000000000000000000000000004211Z01620200409X066000000
2MAIL0000152716BR10        BRNC        BRNCCOCO    BRNCCOCO13AG00001800000000001236898000000000000000200000000000000000000000004581Z01620200409X066000000
2MAIL0000152716BR10        BRNC        BRNCCOCO    BRNCCOCO13AG00001900000000001239373600000000000000100000000000000000000000006952Z01620200409X066000000
2MAIL0000152716BR10        BRNC        BRNCCOCO    BRNCCOCO13AG00002000000000001239688300000000000001400000000000000000000000005885Z01620200409X066000000
2MAIL0000152716BR10        BRNC        BRNCCOCO    BRNCCOCO13AG00002100000000001239688500000000000001400000000000000000000000005885Z01620200409X066000000
2MAIL0000152716BR10        BRNC        BRNCCOCO    BRNCCOCO13AG00002200000000001239688600000000000001400000000000000000000000005885Z01620200409X066000000
2MAIL0000152716BR10        BRNC        BRNCCOCO    BRNCCOCO13AG00002300000000001239688700000000000001400000000000000000000000005885Z01620200409X066000000
2MAIL0000152716BR10        BRNC        BRNCCOCO    BRNCCOCO13AG00002400000000001239688800000000000001400000000000000000000000005885Z01620200409X066000000
2MAIL0000152716BR10        BRNC        BRNCCOCO    BRNCCOCO13AG00002500000000001239692000000000000001400000000000000000000000005885Z01620200409X066000000
2MAIL0000152716BR10        BRNC        BRNCCOCO    BRNCCOCO13AG00002600000000001239692300000000000001400000000000000000000000005885Z01620200409X066000000
2MAIL0000152716BR10        BRNC        BRNCCOCO    BRNCCOCO13AG00002700000000001241623700000000000000300000000000000000000000007443Z01620200409X066000000
2MAIL0000152716BR10        BRNC        BRNCCOCO    BRNCCOCO13AG00002800000000001242374800000000000000100000000000000000000000005568Z01620200409X066000000
2MAIL0000152716BR10        BRNC        BRNCCOCO    BRNCCOCO13AG00002900000000001242626100000000000001400000000000000000000000005885Z01620200409X066000000
2MAIL0000152716BR10        BRNC        BRNCCOCO    BRNCCOCO13AG00003000000000001242765000000000000001400000000000000000000000005885Z01620200409X066000000
1MAIL0000152717BR10        BRNC        BRNCCOCO    BRNCCOCO13AG2020040900:00:00OR  010000052344030005234403152717                             2020040920200409Z016CIF202004090000000000126817NN0                                                  0                                        
2MAIL0000152717BR10        BRNC        BRNCCOCO    BRNCCOCO13AG00000100000000001132004000000000000001000000000000000000000000010202Z01620200409X066000000
2MAIL0000152717BR10        BRNC        BRNCCOCO    BRNCCOCO13AG00000200000000001132019800000000000000100000000000000000000000001967Z01620200409X066000000
2MAIL0000152717BR10        BRNC        BRNCCOCO    BRNCCOCO13AG00000300000000001132020900000000000000100000000000000000000000001967Z01620200409X066000000
2MAIL0000152717BR10        BRNC        BRNCCOCO    BRNCCOCO13AG00000400000000001132033100000000000000400000000000000000000000008692Z01620200409X066000000
2MAIL0000152717BR10        BRNC        BRNCCOCO    BRNCCOCO13AG00000500000000001132036700000000000000500000000000000000000000010863Z01620200409X066000000
2MAIL0000152717BR10        BRNC        BRNCCOCO    BRNCCOCO13AG00000600000000001215533700000000000000400000000000000000000000008692Z01620200409X066000000
2MAIL0000152717BR10        BRNC        BRNCCOCO    BRNCCOCO13AG00000700000000001227735000000000000000100000000000000000000000001967Z01620200409X066000000
2MAIL0000152717BR10        BRNC        BRNCCOCO    BRNCCOCO13AG00000800000000001231189200000000000000100000000000000000000000005076Z01620200409X066000000
2MAIL0000152717BR10        BRNC        BRNCCOCO    BRNCCOCO13AG00000900000000001231231200000000000000100000000000000000000000005076Z01620200409X066000000
2MAIL0000152717BR10        BRNC        BRNCCOCO    BRNCCOCO13AG00001000000000001231233000000000000000100000000000000000000000005076Z01620200409X066000000
2MAIL0000152717BR10        BRNC        BRNCCOCO    BRNCCOCO13AG00001100000000001234705700000000000000100000000000000000000000005076Z01620200409X066000000
2MAIL0000152717BR10        BRNC        BRNCCOCO    BRNCCOCO13AG00001200000000001234705800000000000000100000000000000000000000005076Z01620200409X066000000
2MAIL0000152717BR10        BRNC        BRNCCOCO    BRNCCOCO13AG00001300000000001235699400000000000001000000000000000000000000003825Z01620200409X066000000
2MAIL0000152717BR10        BRNC        BRNCCOCO    BRNCCOCO13AG00001400000000001235699700000000000001000000000000000000000000003825Z01620200409X066000000
2MAIL0000152717BR10        BRNC        BRNCCOCO    BRNCCOCO13AG00001500000000001235699800000000000001000000000000000000000000003825Z01620200409X066000000
2MAIL0000152717BR10        BRNC        BRNCCOCO    BRNCCOCO13AG00001600000000001236515000000000000007000000000000000000000000012727Z01620200409X066000000
2MAIL0000152717BR10        BRNC        BRNCCOCO    BRNCCOCO13AG00001700000000001239373500000000000000100000000000000000000000006340Z01620200409X066000000
2MAIL0000152717BR10        BRNC        BRNCCOCO    BRNCCOCO13AG00001800000000001239688300000000000001400000000000000000000000005343Z01620200409X066000000
2MAIL0000152717BR10        BRNC        BRNCCOCO    BRNCCOCO13AG00001900000000001239688700000000000001400000000000000000000000005343Z01620200409X066000000
2MAIL0000152717BR10        BRNC        BRNCCOCO    BRNCCOCO13AG00002000000000001239688800000000000001400000000000000000000000005343Z01620200409X066000000
2MAIL0000152717BR10        BRNC        BRNCCOCO    BRNCCOCO13AG00002100000000001239692100000000000001400000000000000000000000005343Z01620200409X066000000
2MAIL0000152717BR10        BRNC        BRNCCOCO    BRNCCOCO13AG00002200000000001241623700000000000000200000000000000000000000005173Z01620200409X066000000
1MAIL0000152718BR10        BRNC        BRNCCOCO    BRNCCOCO13AG2020040900:00:00OR  010000052334070005233407152718                             2020040920200409Z016CIF202004090000000000039315NN0                                                  0                                        
2MAIL0000152718BR10        BRNC        BRNCCOCO    BRNCCOCO13AG00000100000000001132036700000000000000500000000000000000000000010863Z01620200409X066000000
2MAIL0000152718BR10        BRNC        BRNCCOCO    BRNCCOCO13AG00000200000000001132200400000000000000600000000000000000000000012690Z01620200409X066000000
2MAIL0000152718BR10        BRNC        BRNCCOCO    BRNCCOCO13AG00000300000000001223975300000000000000100000000000000000000000005076Z01620200409X066000000
2MAIL0000152718BR10        BRNC        BRNCCOCO    BRNCCOCO13AG00000400000000001239688300000000000001400000000000000000000000005343Z01620200409X066000000
2MAIL0000152718BR10        BRNC        BRNCCOCO    BRNCCOCO13AG00000500000000001239688800000000000001400000000000000000000000005343Z01620200409X066000000
1MAIL0000152719BR10        BRNC        BRNCCOCO    BRNCCOCO13AG2020040900:00:00OR  010000029006770002900677152719                             2020040920200409Z016CIF202004090000000000028028NN0                                                  0                                        
2MAIL0000152719BR10        BRNC        BRNCCOCO    BRNCCOCO13AG00000100000000001132200400000000000000100000000000000000000000002230Z01620200409X066000000
2MAIL0000152719BR10        BRNC        BRNCCOCO    BRNCCOCO13AG00000200000000001236512900000000000003500000000000000000000000007014Z01620200409X066000000
2MAIL0000152719BR10        BRNC        BRNCCOCO    BRNCCOCO13AG00000300000000001236515000000000000003500000000000000000000000007014Z01620200409X066000000
2MAIL0000152719BR10        BRNC        BRNCCOCO    BRNCCOCO13AG00000400000000001239688800000000000001400000000000000000000000005885Z01620200409X066000000
2MAIL0000152719BR10        BRNC        BRNCCOCO    BRNCCOCO13AG00000500000000001239692300000000000001400000000000000000000000005885Z01620200409X066000000
1MAIL0000152720BR10        BRNC        BRNCCOCO    BRNCCOCO13AG2020040900:00:00OR  010000057280680005728068152720                             2020040920200409Z016CIF202004090000000000089394NN0                                                  0                                        
2MAIL0000152720BR10        BRNC        BRNCCOCO    BRNCCOCO13AG00000100000000001132018300000000000000100000000000000000000000002682Z01620200409X066000000
2MAIL0000152720BR10        BRNC        BRNCCOCO    BRNCCOCO13AG00000200000000001132019800000000000000100000000000000000000000001498Z01620200409X066000000
2MAIL0000152720BR10        BRNC        BRNCCOCO    BRNCCOCO13AG00000300000000001132019900000000000000100000000000000000000000001498Z01620200409X066000000
2MAIL0000152720BR10        BRNC        BRNCCOCO    BRNCCOCO13AG00000400000000001132033100000000000000200000000000000000000000003307Z01620200409X066000000
2MAIL0000152720BR10        BRNC        BRNCCOCO    BRNCCOCO13AG00000500000000001132036700000000000000200000000000000000000000003307Z01620200409X066000000
2MAIL0000152720BR10        BRNC        BRNCCOCO    BRNCCOCO13AG00000600000000001132200400000000000000100000000000000000000000002115Z01620200409X066000000
2MAIL0000152720BR10        BRNC        BRNCCOCO    BRNCCOCO13AG00000700000000001215533700000000000000200000000000000000000000003307Z01620200409X066000000
2MAIL0000152720BR10        BRNC        BRNCCOCO    BRNCCOCO13AG00000800000000001221415400000000000000100000000000000000000000002682Z01620200409X066000000
2MAIL0000152720BR10        BRNC        BRNCCOCO    BRNCCOCO13AG00000900000000001224882700000000000000100000000000000000000000002404Z01620200409X066000000
2MAIL0000152720BR10        BRNC        BRNCCOCO    BRNCCOCO13AG00001000000000001226089600000000000001200000000000000000000000004015Z01620200409X066000000
2MAIL0000152720BR10        BRNC        BRNCCOCO    BRNCCOCO13AG00001100000000001228274000000000000000100000000000000000000000004437Z01620200409X066000000
2MAIL0000152720BR10        BRNC        BRNCCOCO    BRNCCOCO13AG00001200000000001231189200000000000000100000000000000000000000004437Z01620200409X066000000
2MAIL0000152720BR10        BRNC        BRNCCOCO    BRNCCOCO13AG00001300000000001231231200000000000000100000000000000000000000004437Z01620200409X066000000
2MAIL0000152720BR10        BRNC        BRNCCOCO    BRNCCOCO13AG00001400000000001235699400000000000001000000000000000000000000003352Z01620200409X066000000
2MAIL0000152720BR10        BRNC        BRNCCOCO    BRNCCOCO13AG00001500000000001235699700000000000001000000000000000000000000003352Z01620200409X066000000
2MAIL0000152720BR10        BRNC        BRNCCOCO    BRNCCOCO13AG00001600000000001235699800000000000001000000000000000000000000003352Z01620200409X066000000
2MAIL0000152720BR10        BRNC        BRNCCOCO    BRNCCOCO13AG00001700000000001236512900000000000000500000000000000000000000000956Z01620200409X066000000
2MAIL0000152720BR10        BRNC        BRNCCOCO    BRNCCOCO13AG00001800000000001236515000000000000000500000000000000000000000000956Z01620200409X066000000
2MAIL0000152720BR10        BRNC        BRNCCOCO    BRNCCOCO13AG00001900000000001239663300000000000001400000000000000000000000004684Z01620200409X066000000
2MAIL0000152720BR10        BRNC        BRNCCOCO    BRNCCOCO13AG00002000000000001239688500000000000001400000000000000000000000004684Z01620200409X066000000
2MAIL0000152720BR10        BRNC        BRNCCOCO    BRNCCOCO13AG00002100000000001241577400000000000003000000000000000000000000022748Z01620200409X066000000
2MAIL0000152720BR10        BRNC        BRNCCOCO    BRNCCOCO13AG00002200000000001241623700000000000000200000000000000000000000005184Z01620200409X066000000
1MAIL0000152721BR10        BRNC        BRNCCOCO    BRNCCOCO13AG2020040900:00:00OR  010000053988600005398860152721                             2020040920200409Z016CIF202004090000000000038473NN0                                                  0                                        
2MAIL0000152721BR10        BRNC        BRNCCOCO    BRNCCOCO13AG00000100000000001132019700000000000000100000000000000000000000001967Z01620200409X066000000
2MAIL0000152721BR10        BRNC        BRNCCOCO    BRNCCOCO13AG00000200000000001132019800000000000000100000000000000000000000001967Z01620200409X066000000
2MAIL0000152721BR10        BRNC        BRNCCOCO    BRNCCOCO13AG00000300000000001132020900000000000000100000000000000000000000001967Z01620200409X066000000
2MAIL0000152721BR10        BRNC        BRNCCOCO    BRNCCOCO13AG00000400000000001132036700000000000000400000000000000000000000008692Z01620200409X066000000
2MAIL0000152721BR10        BRNC        BRNCCOCO    BRNCCOCO13AG00000500000000001215533700000000000000200000000000000000000000004345Z01620200409X066000000
2MAIL0000152721BR10        BRNC        BRNCCOCO    BRNCCOCO13AG00000600000000001227395500000000000000100000000000000000000000002173Z01620200409X066000000
2MAIL0000152721BR10        BRNC        BRNCCOCO    BRNCCOCO13AG00000700000000001227735000000000000000100000000000000000000000001967Z01620200409X066000000
2MAIL0000152721BR10        BRNC        BRNCCOCO    BRNCCOCO13AG00000800000000001231389600000000000000200000000000000000000000004345Z01620200409X066000000
2MAIL0000152721BR10        BRNC        BRNCCOCO    BRNCCOCO13AG00000900000000001236512800000000000001200000000000000000000000002071Z01620200409X066000000
2MAIL0000152721BR10        BRNC        BRNCCOCO    BRNCCOCO13AG00001000000000001236515000000000000002000000000000000000000000003636Z01620200409X066000000
2MAIL0000152721BR10        BRNC        BRNCCOCO    BRNCCOCO13AG00001100000000001239688800000000000001400000000000000000000000005343Z01620200409X066000000
1MAIL0000152722BR10        BRNC        BRNCCOCO    BRNCCOCO13AG2020040900:00:00OR  010000038738180003873818152722                             2020040920200409Z016CIF202004090000000000027625NN0                                                  0                                        
2MAIL0000152722BR10        BRNC        BRNCCOCO    BRNCCOCO13AG00000100000000001132033100000000000000300000000000000000000000006375Z01620200409X066000000
2MAIL0000152722BR10        BRNC        BRNCCOCO    BRNCCOCO13AG00000200000000001132036700000000000000500000000000000000000000010625Z01620200409X066000000
2MAIL0000152722BR10        BRNC        BRNCCOCO    BRNCCOCO13AG00000300000000001215533700000000000000500000000000000000000000010625Z01620200409X066000000
1MAIL0000152727BR10        BRNC        BRNCCOCO    BRNCCOCO13AG2020040900:00:00OR  010000053502370005350237152727                             2020040920200409Z016CIF202004090000000000023768NN0                                                  0                                        
2MAIL0000152727BR10        BRNC        BRNCCOCO    BRNCCOCO13AG00000100000000001132019800000000000000100000000000000000000000001498Z01620200409X066000000
2MAIL0000152727BR10        BRNC        BRNCCOCO    BRNCCOCO13AG00000200000000001132019900000000000000100000000000000000000000001498Z01620200409X066000000
2MAIL0000152727BR10        BRNC        BRNCCOCO    BRNCCOCO13AG00000300000000001132020900000000000000100000000000000000000000001498Z01620200409X066000000
2MAIL0000152727BR10        BRNC        BRNCCOCO    BRNCCOCO13AG00000400000000001132200400000000000000100000000000000000000000002115Z01620200409X066000000
2MAIL0000152727BR10        BRNC        BRNCCOCO    BRNCCOCO13AG00000500000000001231389600000000000000100000000000000000000000001654Z01620200409X066000000
2MAIL0000152727BR10        BRNC        BRNCCOCO    BRNCCOCO13AG00000600000000001234705700000000000000100000000000000000000000004437Z01620200409X066000000
2MAIL0000152727BR10        BRNC        BRNCCOCO    BRNCCOCO13AG00000700000000001241577400000000000000500000000000000000000000003792Z01620200409X066000000
2MAIL0000152727BR10        BRNC        BRNCCOCO    BRNCCOCO13AG00000800000000001241623700000000000000100000000000000000000000002592Z01620200409X066000000
2MAIL0000152727BR10        BRNC        BRNCCOCO    BRNCCOCO13AG00000900000000001242765000000000000001400000000000000000000000004684Z01620200409X066000000
1MAIL0000152728BR10        BRNC        BRNCCOCO    BRNCCOCO13AG2020040900:00:00OR  010000055264960005526496152728                             2020040920200409Z016CIF202004090000000000046841NN0                                                  0                                        
2MAIL0000152728BR10        BRNC        BRNCCOCO    BRNCCOCO13AG00000100000000001226089600000000000001200000000000000000000000004073Z01620200409X066000000
2MAIL0000152728BR10        BRNC        BRNCCOCO    BRNCCOCO13AG00000200000000001239688300000000000001400000000000000000000000004752Z01620200409X066000000
2MAIL0000152728BR10        BRNC        BRNCCOCO    BRNCCOCO13AG00000300000000001239688500000000000001400000000000000000000000004752Z01620200409X066000000
2MAIL0000152728BR10        BRNC        BRNCCOCO    BRNCCOCO13AG00000400000000001239688600000000000001400000000000000000000000004752Z01620200409X066000000
2MAIL0000152728BR10        BRNC        BRNCCOCO    BRNCCOCO13AG00000500000000001239688700000000000001400000000000000000000000004752Z01620200409X066000000
2MAIL0000152728BR10        BRNC        BRNCCOCO    BRNCCOCO13AG00000600000000001239688800000000000001400000000000000000000000004752Z01620200409X066000000
2MAIL0000152728BR10        BRNC        BRNCCOCO    BRNCCOCO13AG00000700000000001239692000000000000001400000000000000000000000004752Z01620200409X066000000
2MAIL0000152728BR10        BRNC        BRNCCOCO    BRNCCOCO13AG00000800000000001239692300000000000001400000000000000000000000004752Z01620200409X066000000
2MAIL0000152728BR10        BRNC        BRNCCOCO    BRNCCOCO13AG00000900000000001242626100000000000001400000000000000000000000004752Z01620200409X066000000
2MAIL0000152728BR10        BRNC        BRNCCOCO    BRNCCOCO13AG00001000000000001242765000000000000001400000000000000000000000004752Z01620200409X066000000
1MAIL0000152729BR10        BRNC        BRNCCOCO    BRNCCOCO13AG2020040900:00:00OR  010000058449640005844964152729                             2020040920200409Z016CIF202004090000000000048407NN0                                                  0                                        
2MAIL0000152729BR10        BRNC        BRNCCOCO    BRNCCOCO13AG00000100000000001132019700000000000000100000000000000000000000001681Z01620200409X066000000
2MAIL0000152729BR10        BRNC        BRNCCOCO    BRNCCOCO13AG00000200000000001132033100000000000000100000000000000000000000001856Z01620200409X066000000
2MAIL0000152729BR10        BRNC        BRNCCOCO    BRNCCOCO13AG00000300000000001132036700000000000000100000000000000000000000001856Z01620200409X066000000
2MAIL0000152729BR10        BRNC        BRNCCOCO    BRNCCOCO13AG00000400000000001132200400000000000000200000000000000000000000004211Z01620200409X066000000
2MAIL0000152729BR10        BRNC        BRNCCOCO    BRNCCOCO13AG00000500000000001215533700000000000000100000000000000000000000001856Z01620200409X066000000
2MAIL0000152729BR10        BRNC        BRNCCOCO    BRNCCOCO13AG00000600000000001226089600000000000001200000000000000000000000004073Z01620200409X066000000
2MAIL0000152729BR10        BRNC        BRNCCOCO    BRNCCOCO13AG00000700000000001239688300000000000001400000000000000000000000004752Z01620200409X066000000
2MAIL0000152729BR10        BRNC        BRNCCOCO    BRNCCOCO13AG00000800000000001239688600000000000001400000000000000000000000004752Z01620200409X066000000
2MAIL0000152729BR10        BRNC        BRNCCOCO    BRNCCOCO13AG00000900000000001241577400000000000003000000000000000000000000023370Z01620200409X066000000
1MAIL0000152730BR10        BRNC        BRNCCOCO    BRNCCOCO13AG2020040900:00:00OR  010000028987650002898765152730                             2020040920200409Z016CIF202004090000000000043871NN0                                                  0                                        
2MAIL0000152730BR10        BRNC        BRNCCOCO    BRNCCOCO13AG00000100000000001132019800000000000000100000000000000000000000002076Z01620200409X066000000
2MAIL0000152730BR10        BRNC        BRNCCOCO    BRNCCOCO13AG00000200000000001132033100000000000000100000000000000000000000002291Z01620200409X066000000
2MAIL0000152730BR10        BRNC        BRNCCOCO    BRNCCOCO13AG00000300000000001132036700000000000000100000000000000000000000002291Z01620200409X066000000
2MAIL0000152730BR10        BRNC        BRNCCOCO    BRNCCOCO13AG00000400000000001231231200000000000000100000000000000000000000005568Z01620200409X066000000
2MAIL0000152730BR10        BRNC        BRNCCOCO    BRNCCOCO13AG00000500000000001235699400000000000001000000000000000000000000004211Z01620200409X066000000
2MAIL0000152730BR10        BRNC        BRNCCOCO    BRNCCOCO13AG00000600000000001235699800000000000001000000000000000000000000004211Z01620200409X066000000
2MAIL0000152730BR10        BRNC        BRNCCOCO    BRNCCOCO13AG00000700000000001239688800000000000001400000000000000000000000005885Z01620200409X066000000
2MAIL0000152730BR10        BRNC        BRNCCOCO    BRNCCOCO13AG00000800000000001239692000000000000001400000000000000000000000005885Z01620200409X066000000
2MAIL0000152730BR10        BRNC        BRNCCOCO    BRNCCOCO13AG00000900000000001239692300000000000001400000000000000000000000005885Z01620200409X066000000
2MAIL0000152730BR10        BRNC        BRNCCOCO    BRNCCOCO13AG00001000000000001242374800000000000000100000000000000000000000005568Z01620200409X066000000
