1MAIL0000151100BR10        BRNC        BRNCCOCO    BRNCCOCO13AG2020032600:00:00OR  010000060894950006089495151100                             2020032620200326Z016CIF202003260000000000038414NN0                                                  0                                        
2MAIL0000151100BR10        BRNC        BRNCCOCO    BRNCCOCO13AG00000100000000001132036700000000000000500000000000000000000000011454Z01620200326X066000000
2MAIL0000151100BR10        BRNC        BRNCCOCO    BRNCCOCO13AG00000200000000001227395500000000000000100000000000000000000000002291Z01620200326X066000000
2MAIL0000151100BR10        BRNC        BRNCCOCO    BRNCCOCO13AG00000300000000001236512900000000000003500000000000000000000000007014Z01620200326X066000000
2MAIL0000151100BR10        BRNC        BRNCCOCO    BRNCCOCO13AG00000400000000001239663300000000000001400000000000000000000000005885Z01620200326X066000000
2MAIL0000151100BR10        BRNC        BRNCCOCO    BRNCCOCO13AG00000500000000001239688600000000000001400000000000000000000000005885Z01620200326X066000000
2MAIL0000151100BR10        BRNC        BRNCCOCO    BRNCCOCO13AG00000600000000001239688800000000000001400000000000000000000000005885Z01620200326X066000000
1MAIL0000151101BR10        BRNC        BRNCCOCO    BRNCCOCO13AG2020032600:00:00OR  010000034841210003484121151101                             2020032620200326Z016CIF202003260000000000009618NN0                                                  0                                        
2MAIL0000151101BR10        BRNC        BRNCCOCO    BRNCCOCO13AG00000100000000001241577400000000000001000000000000000000000000009618Z01620200326X066000000
1MAIL0000151102BR10        BRNC        BRNCCOCO    BRNCCOCO13AG2020032600:00:00OR  010000043822350004382235151102                             2020032620200326Z016CIF202003260000000000049957NN0                                                  0                                        
2MAIL0000151102BR10        BRNC        BRNCCOCO    BRNCCOCO13AG00000100000000001132036700000000000000400000000000000000000000007424Z01620200326X066000000
2MAIL0000151102BR10        BRNC        BRNCCOCO    BRNCCOCO13AG00000200000000001132200400000000000000200000000000000000000000004211Z01620200326X066000000
2MAIL0000151102BR10        BRNC        BRNCCOCO    BRNCCOCO13AG00000300000000001221415400000000000000100000000000000000000000003018Z01620200326X066000000
2MAIL0000151102BR10        BRNC        BRNCCOCO    BRNCCOCO13AG00000400000000001236512800000000000005200000000000000000000000008203Z01620200326X066000000
2MAIL0000151102BR10        BRNC        BRNCCOCO    BRNCCOCO13AG00000500000000001236512900000000000007000000000000000000000000011624Z01620200326X066000000
2MAIL0000151102BR10        BRNC        BRNCCOCO    BRNCCOCO13AG00000600000000001236515000000000000007000000000000000000000000011624Z01620200326X066000000
2MAIL0000151102BR10        BRNC        BRNCCOCO    BRNCCOCO13AG00000700000000001241623700000000000000200000000000000000000000003853Z01620200326X066000000
1MAIL0000151103BR10        BRNC        BRNCCOCO    BRNCCOCO13AG2020032600:00:00OR  010000060022380006002238151103                             2020032620200326Z016CIF202003260000000000011690NN0                                                  0                                        
2MAIL0000151103BR10        BRNC        BRNCCOCO    BRNCCOCO13AG00000100000000001231189200000000000000100000000000000000000000005845Z01620200326X066000000
2MAIL0000151103BR10        BRNC        BRNCCOCO    BRNCCOCO13AG00000200000000001231231200000000000000100000000000000000000000005845Z01620200326X066000000
1MAIL0000151104BR10        BRNC        BRNCCOCO    BRNCCOCO13AG2020032600:00:00OR  010000056565430005656543151104                             2020032620200326Z016CIF202003260000000000010560NN0                                                  0                                        
2MAIL0000151104BR10        BRNC        BRNCCOCO    BRNCCOCO13AG00000100000000001231189200000000000000100000000000000000000000005280Z01620200326X066000000
2MAIL0000151104BR10        BRNC        BRNCCOCO    BRNCCOCO13AG00000200000000001231231200000000000000100000000000000000000000005280Z01620200326X066000000
1MAIL0000151105BR10        BRNC        BRNCCOCO    BRNCCOCO13AG2020032600:00:00OR  010000042242780004224278151105                             2020032620200326Z016CIF202003260000000000049704NN0                                                  0                                        
2MAIL0000151105BR10        BRNC        BRNCCOCO    BRNCCOCO13AG00000100000000001231189200000000000000200000000000000000000000011689Z01620200326X066000000
2MAIL0000151105BR10        BRNC        BRNCCOCO    BRNCCOCO13AG00000200000000001231231200000000000000200000000000000000000000011689Z01620200326X066000000
2MAIL0000151105BR10        BRNC        BRNCCOCO    BRNCCOCO13AG00000300000000001234705700000000000000100000000000000000000000005845Z01620200326X066000000
2MAIL0000151105BR10        BRNC        BRNCCOCO    BRNCCOCO13AG00000400000000001234705900000000000000100000000000000000000000005845Z01620200326X066000000
2MAIL0000151105BR10        BRNC        BRNCCOCO    BRNCCOCO13AG00000500000000001239373400000000000000100000000000000000000000007318Z01620200326X066000000
2MAIL0000151105BR10        BRNC        BRNCCOCO    BRNCCOCO13AG00000600000000001239373500000000000000100000000000000000000000007318Z01620200326X066000000
