1MAIL0000152083BR10        BRNC        BRNCCOCO    BRNCCOCO13AG2020040200:00:00OR  010000054418150005441815152083                             2020040220200402Z016CIF202004020000000000022786NN0                                                  0                                        
2MAIL0000152083BR10        BRNC        BRNCCOCO    BRNCCOCO13AG00000100000000001132033100000000000000300000000000000000000000006872Z01620200402X066000000
2MAIL0000152083BR10        BRNC        BRNCCOCO    BRNCCOCO13AG00000200000000001132036700000000000000500000000000000000000000011454Z01620200402X066000000
2MAIL0000152083BR10        BRNC        BRNCCOCO    BRNCCOCO13AG00000300000000001132200400000000000000200000000000000000000000004460Z01620200402X066000000
1MAIL0000152084BR10        BRNC        BRNCCOCO    BRNCCOCO13AG2020040200:00:00OR  010000057062880005706288152084                             2020040220200402Z016CIF202004020000000000054738NN0                                                  0                                        
2MAIL0000152084BR10        BRNC        BRNCCOCO    BRNCCOCO13AG00000100000000001132019800000000000000100000000000000000000000001967Z01620200402X066000000
2MAIL0000152084BR10        BRNC        BRNCCOCO    BRNCCOCO13AG00000200000000001132036700000000000000100000000000000000000000002173Z01620200402X066000000
2MAIL0000152084BR10        BRNC        BRNCCOCO    BRNCCOCO13AG00000300000000001132200400000000000000100000000000000000000000002115Z01620200402X066000000
2MAIL0000152084BR10        BRNC        BRNCCOCO    BRNCCOCO13AG00000400000000001226089600000000000001200000000000000000000000004784Z01620200402X066000000
2MAIL0000152084BR10        BRNC        BRNCCOCO    BRNCCOCO13AG00000500000000001234705900000000000000100000000000000000000000005280Z01620200402X066000000
2MAIL0000152084BR10        BRNC        BRNCCOCO    BRNCCOCO13AG00000600000000001235699400000000000001000000000000000000000000003995Z01620200402X066000000
2MAIL0000152084BR10        BRNC        BRNCCOCO    BRNCCOCO13AG00000700000000001235699800000000000001000000000000000000000000003995Z01620200402X066000000
2MAIL0000152084BR10        BRNC        BRNCCOCO    BRNCCOCO13AG00000800000000001239663300000000000001400000000000000000000000005582Z01620200402X066000000
2MAIL0000152084BR10        BRNC        BRNCCOCO    BRNCCOCO13AG00000900000000001239688800000000000001400000000000000000000000005582Z01620200402X066000000
2MAIL0000152084BR10        BRNC        BRNCCOCO    BRNCCOCO13AG00001000000000001239692100000000000001400000000000000000000000005582Z01620200402X066000000
2MAIL0000152084BR10        BRNC        BRNCCOCO    BRNCCOCO13AG00001100000000001241577400000000000001500000000000000000000000013683Z01620200402X066000000
1MAIL0000152085BR10        BRNC        BRNCCOCO    BRNCCOCO13AG2020040200:00:00OR  010000029798840002979884152085                             2020040220200402Z016CIF202004020000000000088613NN0                                                  0                                        
2MAIL0000152085BR10        BRNC        BRNCCOCO    BRNCCOCO13AG00000100000000001132019800000000000000100000000000000000000000001967Z01620200402X066000000
2MAIL0000152085BR10        BRNC        BRNCCOCO    BRNCCOCO13AG00000200000000001132200400000000000000100000000000000000000000002115Z01620200402X066000000
2MAIL0000152085BR10        BRNC        BRNCCOCO    BRNCCOCO13AG00000300000000001226089600000000000001200000000000000000000000004580Z01620200402X066000000
2MAIL0000152085BR10        BRNC        BRNCCOCO    BRNCCOCO13AG00000400000000001228274000000000000000100000000000000000000000005076Z01620200402X066000000
2MAIL0000152085BR10        BRNC        BRNCCOCO    BRNCCOCO13AG00000500000000001228512700000000000000100000000000000000000000005076Z01620200402X066000000
2MAIL0000152085BR10        BRNC        BRNCCOCO    BRNCCOCO13AG00000600000000001231231200000000000000100000000000000000000000005076Z01620200402X066000000
2MAIL0000152085BR10        BRNC        BRNCCOCO    BRNCCOCO13AG00000700000000001231233000000000000000100000000000000000000000005076Z01620200402X066000000
2MAIL0000152085BR10        BRNC        BRNCCOCO    BRNCCOCO13AG00000800000000001234705700000000000000100000000000000000000000005076Z01620200402X066000000
2MAIL0000152085BR10        BRNC        BRNCCOCO    BRNCCOCO13AG00000900000000001234705800000000000000100000000000000000000000005076Z01620200402X066000000
2MAIL0000152085BR10        BRNC        BRNCCOCO    BRNCCOCO13AG00001000000000001235699400000000000001000000000000000000000000003825Z01620200402X066000000
2MAIL0000152085BR10        BRNC        BRNCCOCO    BRNCCOCO13AG00001100000000001236512900000000000002000000000000000000000000003636Z01620200402X066000000
2MAIL0000152085BR10        BRNC        BRNCCOCO    BRNCCOCO13AG00001200000000001236515000000000000002000000000000000000000000003636Z01620200402X066000000
2MAIL0000152085BR10        BRNC        BRNCCOCO    BRNCCOCO13AG00001300000000001239373600000000000000100000000000000000000000006340Z01620200402X066000000
2MAIL0000152085BR10        BRNC        BRNCCOCO    BRNCCOCO13AG00001400000000001239663300000000000001400000000000000000000000005343Z01620200402X066000000
2MAIL0000152085BR10        BRNC        BRNCCOCO    BRNCCOCO13AG00001500000000001239688500000000000001400000000000000000000000005343Z01620200402X066000000
2MAIL0000152085BR10        BRNC        BRNCCOCO    BRNCCOCO13AG00001600000000001239688600000000000001400000000000000000000000005343Z01620200402X066000000
2MAIL0000152085BR10        BRNC        BRNCCOCO    BRNCCOCO13AG00001700000000001239688800000000000002800000000000000000000000010686Z01620200402X066000000
2MAIL0000152085BR10        BRNC        BRNCCOCO    BRNCCOCO13AG00001800000000001239692100000000000001400000000000000000000000005343Z01620200402X066000000
1MAIL0000152086BR10        BRNC        BRNCCOCO    BRNCCOCO13AG2020040200:00:00OR  010000030598740003059874152086                             2020040220200402Z016CIF202004020000000000054561NN0                                                  0                                        
2MAIL0000152086BR10        BRNC        BRNCCOCO    BRNCCOCO13AG00000100000000001132036700000000000000200000000000000000000000004345Z01620200402X066000000
2MAIL0000152086BR10        BRNC        BRNCCOCO    BRNCCOCO13AG00000200000000001132200400000000000000100000000000000000000000002115Z01620200402X066000000
2MAIL0000152086BR10        BRNC        BRNCCOCO    BRNCCOCO13AG00000300000000001215533700000000000000200000000000000000000000004345Z01620200402X066000000
2MAIL0000152086BR10        BRNC        BRNCCOCO    BRNCCOCO13AG00000400000000001226089600000000000001200000000000000000000000004784Z01620200402X066000000
2MAIL0000152086BR10        BRNC        BRNCCOCO    BRNCCOCO13AG00000500000000001228512700000000000000100000000000000000000000005280Z01620200402X066000000
2MAIL0000152086BR10        BRNC        BRNCCOCO    BRNCCOCO13AG00000600000000001231189200000000000000100000000000000000000000005280Z01620200402X066000000
2MAIL0000152086BR10        BRNC        BRNCCOCO    BRNCCOCO13AG00000700000000001231231200000000000000100000000000000000000000005280Z01620200402X066000000
2MAIL0000152086BR10        BRNC        BRNCCOCO    BRNCCOCO13AG00000800000000001236512900000000000000500000000000000000000000000999Z01620200402X066000000
2MAIL0000152086BR10        BRNC        BRNCCOCO    BRNCCOCO13AG00000900000000001236515000000000000000500000000000000000000000000999Z01620200402X066000000
2MAIL0000152086BR10        BRNC        BRNCCOCO    BRNCCOCO13AG00001000000000001239692100000000000001400000000000000000000000005582Z01620200402X066000000
2MAIL0000152086BR10        BRNC        BRNCCOCO    BRNCCOCO13AG00001100000000001241623700000000000000600000000000000000000000015552Z01620200402X066000000
1MAIL0000152093BR10        BRNC        BRNCCOCO    BRNCCOCO13AG2020040200:00:00OR  010000029800020002980002152093                             2020040220200402Z016CIF202004020000000000032241NN0                                                  0                                        
2MAIL0000152093BR10        BRNC        BRNCCOCO    BRNCCOCO13AG00000100000000001132019800000000000000100000000000000000000000002076Z01620200402X066000000
2MAIL0000152093BR10        BRNC        BRNCCOCO    BRNCCOCO13AG00000200000000001132019900000000000000100000000000000000000000002076Z01620200402X066000000
2MAIL0000152093BR10        BRNC        BRNCCOCO    BRNCCOCO13AG00000300000000001132033100000000000000100000000000000000000000002291Z01620200402X066000000
2MAIL0000152093BR10        BRNC        BRNCCOCO    BRNCCOCO13AG00000400000000001215533700000000000000100000000000000000000000002291Z01620200402X066000000
2MAIL0000152093BR10        BRNC        BRNCCOCO    BRNCCOCO13AG00000500000000001226089600000000000001200000000000000000000000005045Z01620200402X066000000
2MAIL0000152093BR10        BRNC        BRNCCOCO    BRNCCOCO13AG00000600000000001235699800000000000001000000000000000000000000004211Z01620200402X066000000
2MAIL0000152093BR10        BRNC        BRNCCOCO    BRNCCOCO13AG00000700000000001239688600000000000001400000000000000000000000005885Z01620200402X066000000
2MAIL0000152093BR10        BRNC        BRNCCOCO    BRNCCOCO13AG00000800000000001239688800000000000001400000000000000000000000005885Z01620200402X066000000
2MAIL0000152093BR10        BRNC        BRNCCOCO    BRNCCOCO13AG00000900000000001241623700000000000000100000000000000000000000002481Z01620200402X066000000
1MAIL0000152094BR10        BRNC        BRNCCOCO    BRNCCOCO13AG2020040200:00:00OR  010000034657310003465731152094                             2020040220200402Z005CIF202004020000000000083568NN0                                                  0                                        
2MAIL0000152094BR10        BRNC        BRNCCOCO    BRNCCOCO13AG00000100000000001132033100000000000000300000000000000000000000006838Z00520200402X066000000
2MAIL0000152094BR10        BRNC        BRNCCOCO    BRNCCOCO13AG00000200000000001132036700000000000000500000000000000000000000011397Z00520200402X066000000
2MAIL0000152094BR10        BRNC        BRNCCOCO    BRNCCOCO13AG00000300000000001215533700000000000000300000000000000000000000006838Z00520200402X066000000
2MAIL0000152094BR10        BRNC        BRNCCOCO    BRNCCOCO13AG00000400000000001239663300000000000002800000000000000000000000011699Z00520200402X066000000
2MAIL0000152094BR10        BRNC        BRNCCOCO    BRNCCOCO13AG00000500000000001239688300000000000002800000000000000000000000011699Z00520200402X066000000
2MAIL0000152094BR10        BRNC        BRNCCOCO    BRNCCOCO13AG00000600000000001239688600000000000002800000000000000000000000011699Z00520200402X066000000
2MAIL0000152094BR10        BRNC        BRNCCOCO    BRNCCOCO13AG00000700000000001239688800000000000002800000000000000000000000011699Z00520200402X066000000
2MAIL0000152094BR10        BRNC        BRNCCOCO    BRNCCOCO13AG00000800000000001239692100000000000002800000000000000000000000011699Z00520200402X066000000
1MAIL0000152095BR10        BRNC        BRNCCOCO    BRNCCOCO13AG2020040200:00:00OR  010000058232760005823276152095                             2020040220200402Z016CIF202004020000000000006880NN0                                                  0                                        
2MAIL0000152095BR10        BRNC        BRNCCOCO    BRNCCOCO13AG00000100000000001132036700000000000000100000000000000000000000002173Z01620200402X066000000
2MAIL0000152095BR10        BRNC        BRNCCOCO    BRNCCOCO13AG00000200000000001132200400000000000000100000000000000000000000002115Z01620200402X066000000
2MAIL0000152095BR10        BRNC        BRNCCOCO    BRNCCOCO13AG00000300000000001241623700000000000000100000000000000000000000002592Z01620200402X066000000
1MAIL0000152096BR10        BRNC        BRNCCOCO    BRNCCOCO13AG2020040200:00:00OR  010000033398820003339882152096                             2020040220200402Z016CIF202004020000000000094068NN0                                                  0                                        
2MAIL0000152096BR10        BRNC        BRNCCOCO    BRNCCOCO13AG00000100000000001239663300000000000002800000000000000000000000010452Z01620200402X066000000
2MAIL0000152096BR10        BRNC        BRNCCOCO    BRNCCOCO13AG00000200000000001239688600000000000005600000000000000000000000020904Z01620200402X066000000
2MAIL0000152096BR10        BRNC        BRNCCOCO    BRNCCOCO13AG00000300000000001239688700000000000002800000000000000000000000010452Z01620200402X066000000
2MAIL0000152096BR10        BRNC        BRNCCOCO    BRNCCOCO13AG00000400000000001239688800000000000005600000000000000000000000020904Z01620200402X066000000
2MAIL0000152096BR10        BRNC        BRNCCOCO    BRNCCOCO13AG00000500000000001239692100000000000005600000000000000000000000020904Z01620200402X066000000
2MAIL0000152096BR10        BRNC        BRNCCOCO    BRNCCOCO13AG00000600000000001239692300000000000002800000000000000000000000010452Z01620200402X066000000
1MAIL0000152097BR10        BRNC        BRNCCOCO    BRNCCOCO13AG2020040200:00:00OR  010000041755020004175502152097                             2020040220200402Z016CIF202004020000000000070418NN0                                                  0                                        
2MAIL0000152097BR10        BRNC        BRNCCOCO    BRNCCOCO13AG00000100000000001214470800000000000001500000000000000000000000070418Z01620200402X066000000
1MAIL0000152098BR10        BRNC        BRNCCOCO    BRNCCOCO13AG2020040200:00:00OR  010000028650580002865058152098                             2020040220200402Z016CIF202004020000000000057778NN0                                                  0                                        
2MAIL0000152098BR10        BRNC        BRNCCOCO    BRNCCOCO13AG00000100000000001132034900000000000000500000000000000000000000012283Z01620200402X066000000
2MAIL0000152098BR10        BRNC        BRNCCOCO    BRNCCOCO13AG00000200000000001231231200000000000000100000000000000000000000005568Z01620200402X066000000
2MAIL0000152098BR10        BRNC        BRNCCOCO    BRNCCOCO13AG00000300000000001231233000000000000000100000000000000000000000005568Z01620200402X066000000
2MAIL0000152098BR10        BRNC        BRNCCOCO    BRNCCOCO13AG00000400000000001234705700000000000000100000000000000000000000005568Z01620200402X066000000
2MAIL0000152098BR10        BRNC        BRNCCOCO    BRNCCOCO13AG00000500000000001234705800000000000000100000000000000000000000005568Z01620200402X066000000
2MAIL0000152098BR10        BRNC        BRNCCOCO    BRNCCOCO13AG00000600000000001234705900000000000000100000000000000000000000005568Z01620200402X066000000
2MAIL0000152098BR10        BRNC        BRNCCOCO    BRNCCOCO13AG00000700000000001239688800000000000001400000000000000000000000005885Z01620200402X066000000
2MAIL0000152098BR10        BRNC        BRNCCOCO    BRNCCOCO13AG00000800000000001239692000000000000001400000000000000000000000005885Z01620200402X066000000
2MAIL0000152098BR10        BRNC        BRNCCOCO    BRNCCOCO13AG00000900000000001239692100000000000001400000000000000000000000005885Z01620200402X066000000
1MAIL0000152100BR10        BRNC        BRNCCOCO    BRNCCOCO13AG2020040200:00:00OR  010000028788700002878870152100                             2020040220200402Z016CIF202004020000000000033087NN0                                                  0                                        
2MAIL0000152100BR10        BRNC        BRNCCOCO    BRNCCOCO13AG00000100000000001132033100000000000000100000000000000000000000001654Z01620200402X066000000
2MAIL0000152100BR10        BRNC        BRNCCOCO    BRNCCOCO13AG00000200000000001132036700000000000000100000000000000000000000001654Z01620200402X066000000
2MAIL0000152100BR10        BRNC        BRNCCOCO    BRNCCOCO13AG00000300000000001132200400000000000000100000000000000000000000002115Z01620200402X066000000
2MAIL0000152100BR10        BRNC        BRNCCOCO    BRNCCOCO13AG00000400000000001215533700000000000000100000000000000000000000001654Z01620200402X066000000
2MAIL0000152100BR10        BRNC        BRNCCOCO    BRNCCOCO13AG00000500000000001231189200000000000000100000000000000000000000004437Z01620200402X066000000
2MAIL0000152100BR10        BRNC        BRNCCOCO    BRNCCOCO13AG00000600000000001231231200000000000000100000000000000000000000004437Z01620200402X066000000
2MAIL0000152100BR10        BRNC        BRNCCOCO    BRNCCOCO13AG00000700000000001231233000000000000000100000000000000000000000004437Z01620200402X066000000
2MAIL0000152100BR10        BRNC        BRNCCOCO    BRNCCOCO13AG00000800000000001234705700000000000000100000000000000000000000004437Z01620200402X066000000
2MAIL0000152100BR10        BRNC        BRNCCOCO    BRNCCOCO13AG00000900000000001234705800000000000000100000000000000000000000004437Z01620200402X066000000
2MAIL0000152100BR10        BRNC        BRNCCOCO    BRNCCOCO13AG00001000000000001236512900000000000000500000000000000000000000000956Z01620200402X066000000
2MAIL0000152100BR10        BRNC        BRNCCOCO    BRNCCOCO13AG00001100000000001236515000000000000001500000000000000000000000002869Z01620200402X066000000
