1MAIL0000152900BR10        BRNC        BRNCCOCO    BRNCCOCO13AG2020041300:00:00OR  010000059732940005973294152900                             2020041320200413Z016CIF202004130000000000053317NN0                                                  0                                        
2MAIL0000152900BR10        BRNC        BRNCCOCO    BRNCCOCO13AG00000100000000001132018300000000000000100000000000000000000000003735Z01620200413X066000000
2MAIL0000152900BR10        BRNC        BRNCCOCO    BRNCCOCO13AG00000200000000001132033100000000000000100000000000000000000000002291Z01620200413X066000000
2MAIL0000152900BR10        BRNC        BRNCCOCO    BRNCCOCO13AG00000300000000001132036700000000000000100000000000000000000000002291Z01620200413X066000000
2MAIL0000152900BR10        BRNC        BRNCCOCO    BRNCCOCO13AG00000400000000001132200400000000000000200000000000000000000000004460Z01620200413X066000000
2MAIL0000152900BR10        BRNC        BRNCCOCO    BRNCCOCO13AG00000500000000001215533700000000000000100000000000000000000000002291Z01620200413X066000000
2MAIL0000152900BR10        BRNC        BRNCCOCO    BRNCCOCO13AG00000600000000001221415400000000000000100000000000000000000000003735Z01620200413X066000000
2MAIL0000152900BR10        BRNC        BRNCCOCO    BRNCCOCO13AG00000700000000001236512900000000000001500000000000000000000000003006Z01620200413X066000000
2MAIL0000152900BR10        BRNC        BRNCCOCO    BRNCCOCO13AG00000800000000001236515000000000000001500000000000000000000000003006Z01620200413X066000000
2MAIL0000152900BR10        BRNC        BRNCCOCO    BRNCCOCO13AG00000900000000001239688500000000000001400000000000000000000000005885Z01620200413X066000000
2MAIL0000152900BR10        BRNC        BRNCCOCO    BRNCCOCO13AG00001000000000001239688700000000000001400000000000000000000000005885Z01620200413X066000000
2MAIL0000152900BR10        BRNC        BRNCCOCO    BRNCCOCO13AG00001100000000001239688800000000000001400000000000000000000000005885Z01620200413X066000000
2MAIL0000152900BR10        BRNC        BRNCCOCO    BRNCCOCO13AG00001200000000001239692300000000000001400000000000000000000000005885Z01620200413X066000000
2MAIL0000152900BR10        BRNC        BRNCCOCO    BRNCCOCO13AG00001300000000001241623700000000000000200000000000000000000000004962Z01620200413X066000000
