1MAIL0000152111BR10        BRNC        BRNCCOCO    BRNCCOCO13AG2020040200:00:00OR  010000042264510004226451152111                             2020040220200402Z016CIF202004020000000000023018NN0                                                  0                                        
2MAIL0000152111BR10        BRNC        BRNCCOCO    BRNCCOCO13AG00000100000000001132033100000000000000100000000000000000000000002291Z01620200402X066000000
2MAIL0000152111BR10        BRNC        BRNCCOCO    BRNCCOCO13AG00000200000000001132036700000000000000100000000000000000000000002291Z01620200402X066000000
2MAIL0000152111BR10        BRNC        BRNCCOCO    BRNCCOCO13AG00000300000000001236512900000000000001000000000000000000000000002004Z01620200402X066000000
2MAIL0000152111BR10        BRNC        BRNCCOCO    BRNCCOCO13AG00000400000000001236515000000000000001000000000000000000000000002004Z01620200402X066000000
2MAIL0000152111BR10        BRNC        BRNCCOCO    BRNCCOCO13AG00000500000000001241577400000000000001500000000000000000000000014428Z01620200402X066000000
1MAIL0000152112BR10        BRNC        BRNCCOCO    BRNCCOCO13AG2020040200:00:00OR  010000028684510002868451152112                             2020040220200402Z016CIF202004020000000000187144NN0                                                  0                                        
2MAIL0000152112BR10        BRNC        BRNCCOCO    BRNCCOCO13AG00000100000000001132033100000000000003200000000000000000000000069528Z01620200402X066000000
2MAIL0000152112BR10        BRNC        BRNCCOCO    BRNCCOCO13AG00000200000000001132036700000000000003200000000000000000000000069528Z01620200402X066000000
2MAIL0000152112BR10        BRNC        BRNCCOCO    BRNCCOCO13AG00000300000000001239688300000000000002800000000000000000000000010686Z01620200402X066000000
2MAIL0000152112BR10        BRNC        BRNCCOCO    BRNCCOCO13AG00000400000000001239688600000000000001400000000000000000000000005343Z01620200402X066000000
2MAIL0000152112BR10        BRNC        BRNCCOCO    BRNCCOCO13AG00000500000000001239688700000000000002800000000000000000000000010686Z01620200402X066000000
2MAIL0000152112BR10        BRNC        BRNCCOCO    BRNCCOCO13AG00000600000000001239688800000000000004200000000000000000000000016030Z01620200402X066000000
2MAIL0000152112BR10        BRNC        BRNCCOCO    BRNCCOCO13AG00000700000000001239692000000000000001400000000000000000000000005343Z01620200402X066000000
1MAIL0000152113BR10        BRNC        BRNCCOCO    BRNCCOCO13AG2020040200:00:00OR  010000038477160003847716152113                             2020040220200402Z016CIF202004020000000000124391NN0                                                  0                                        
2MAIL0000152113BR10        BRNC        BRNCCOCO    BRNCCOCO13AG00000100000000001132033100000000000000200000000000000000000000004345Z01620200402X066000000
2MAIL0000152113BR10        BRNC        BRNCCOCO    BRNCCOCO13AG00000200000000001132036700000000000001000000000000000000000000021728Z01620200402X066000000
2MAIL0000152113BR10        BRNC        BRNCCOCO    BRNCCOCO13AG00000300000000001223975300000000000000100000000000000000000000005076Z01620200402X066000000
2MAIL0000152113BR10        BRNC        BRNCCOCO    BRNCCOCO13AG00000400000000001228512700000000000000200000000000000000000000010153Z01620200402X066000000
2MAIL0000152113BR10        BRNC        BRNCCOCO    BRNCCOCO13AG00000500000000001231189200000000000000100000000000000000000000005076Z01620200402X066000000
2MAIL0000152113BR10        BRNC        BRNCCOCO    BRNCCOCO13AG00000600000000001231231200000000000000400000000000000000000000020305Z01620200402X066000000
2MAIL0000152113BR10        BRNC        BRNCCOCO    BRNCCOCO13AG00000700000000001234705700000000000000200000000000000000000000010153Z01620200402X066000000
2MAIL0000152113BR10        BRNC        BRNCCOCO    BRNCCOCO13AG00000800000000001234705900000000000000200000000000000000000000010153Z01620200402X066000000
2MAIL0000152113BR10        BRNC        BRNCCOCO    BRNCCOCO13AG00000900000000001239663300000000000002800000000000000000000000010686Z01620200402X066000000
2MAIL0000152113BR10        BRNC        BRNCCOCO    BRNCCOCO13AG00001000000000001239688600000000000001400000000000000000000000005343Z01620200402X066000000
2MAIL0000152113BR10        BRNC        BRNCCOCO    BRNCCOCO13AG00001100000000001239688800000000000004200000000000000000000000016030Z01620200402X066000000
2MAIL0000152113BR10        BRNC        BRNCCOCO    BRNCCOCO13AG00001200000000001239692100000000000001400000000000000000000000005343Z01620200402X066000000
1MAIL0000152114BR10        BRNC        BRNCCOCO    BRNCCOCO13AG2020040200:00:00OR  010000028503170002850317152114                             2020040220200402Z016CIF202004020000000000200225NN0                                                  0                                        
2MAIL0000152114BR10        BRNC        BRNCCOCO    BRNCCOCO13AG00000100000000001132004000000000000002000000000000000000000000019958Z01620200402X066000000
2MAIL0000152114BR10        BRNC        BRNCCOCO    BRNCCOCO13AG00000200000000001132004200000000000002000000000000000000000000028130Z01620200402X066000000
2MAIL0000152114BR10        BRNC        BRNCCOCO    BRNCCOCO13AG00000300000000001132030800000000000000600000000000000000000000018241Z01620200402X066000000
2MAIL0000152114BR10        BRNC        BRNCCOCO    BRNCCOCO13AG00000400000000001132036700000000000000600000000000000000000000012750Z01620200402X066000000
2MAIL0000152114BR10        BRNC        BRNCCOCO    BRNCCOCO13AG00000500000000001224882800000000000000300000000000000000000000009266Z01620200402X066000000
2MAIL0000152114BR10        BRNC        BRNCCOCO    BRNCCOCO13AG00000600000000001226089600000000000004800000000000000000000000017918Z01620200402X066000000
2MAIL0000152114BR10        BRNC        BRNCCOCO    BRNCCOCO13AG00000700000000001231417800000000000000300000000000000000000000009266Z01620200402X066000000
2MAIL0000152114BR10        BRNC        BRNCCOCO    BRNCCOCO13AG00000800000000001235699700000000000002000000000000000000000000007481Z01620200402X066000000
2MAIL0000152114BR10        BRNC        BRNCCOCO    BRNCCOCO13AG00000900000000001236512800000000000002400000000000000000000000004051Z01620200402X066000000
2MAIL0000152114BR10        BRNC        BRNCCOCO    BRNCCOCO13AG00001000000000001239688300000000000005600000000000000000000000020904Z01620200402X066000000
2MAIL0000152114BR10        BRNC        BRNCCOCO    BRNCCOCO13AG00001100000000001239688700000000000005600000000000000000000000020904Z01620200402X066000000
2MAIL0000152114BR10        BRNC        BRNCCOCO    BRNCCOCO13AG00001200000000001239688800000000000005600000000000000000000000020904Z01620200402X066000000
2MAIL0000152114BR10        BRNC        BRNCCOCO    BRNCCOCO13AG00001300000000001239692100000000000002800000000000000000000000010452Z01620200402X066000000
1MAIL0000152115BR10        BRNC        BRNCCOCO    BRNCCOCO13AG2020040200:00:00OR  010000037341960003734196152115                             2020040220200402Z016CIF202004020000000000065682NN0                                                  0                                        
2MAIL0000152115BR10        BRNC        BRNCCOCO    BRNCCOCO13AG00000100000000001132019800000000000000100000000000000000000000001967Z01620200402X066000000
2MAIL0000152115BR10        BRNC        BRNCCOCO    BRNCCOCO13AG00000200000000001132033100000000000000100000000000000000000000002173Z01620200402X066000000
2MAIL0000152115BR10        BRNC        BRNCCOCO    BRNCCOCO13AG00000300000000001132036700000000000000100000000000000000000000002173Z01620200402X066000000
2MAIL0000152115BR10        BRNC        BRNCCOCO    BRNCCOCO13AG00000400000000001236512800000000000000400000000000000000000000000760Z01620200402X066000000
2MAIL0000152115BR10        BRNC        BRNCCOCO    BRNCCOCO13AG00000500000000001236512900000000000000500000000000000000000000000999Z01620200402X066000000
2MAIL0000152115BR10        BRNC        BRNCCOCO    BRNCCOCO13AG00000600000000001236515000000000000001000000000000000000000000001997Z01620200402X066000000
2MAIL0000152115BR10        BRNC        BRNCCOCO    BRNCCOCO13AG00000700000000001239663300000000000001400000000000000000000000005582Z01620200402X066000000
2MAIL0000152115BR10        BRNC        BRNCCOCO    BRNCCOCO13AG00000800000000001239688800000000000001400000000000000000000000005582Z01620200402X066000000
2MAIL0000152115BR10        BRNC        BRNCCOCO    BRNCCOCO13AG00000900000000001239692000000000000001400000000000000000000000005582Z01620200402X066000000
2MAIL0000152115BR10        BRNC        BRNCCOCO    BRNCCOCO13AG00001000000000001239692100000000000001400000000000000000000000005582Z01620200402X066000000
2MAIL0000152115BR10        BRNC        BRNCCOCO    BRNCCOCO13AG00001100000000001240924900000000000000400000000000000000000000000734Z01620200402X066000000
2MAIL0000152115BR10        BRNC        BRNCCOCO    BRNCCOCO13AG00001200000000001241577400000000000003000000000000000000000000027367Z01620200402X066000000
2MAIL0000152115BR10        BRNC        BRNCCOCO    BRNCCOCO13AG00001300000000001241623700000000000000200000000000000000000000005184Z01620200402X066000000
1MAIL0000152116BR10        BRNC        BRNCCOCO    BRNCCOCO13AG2020040200:00:00OR  010000048866900004886690152116                             2020040220200402Z016CIF202004020000000000021513NN0                                                  0                                        
2MAIL0000152116BR10        BRNC        BRNCCOCO    BRNCCOCO13AG00000100000000001132019800000000000000100000000000000000000000002076Z01620200402X066000000
2MAIL0000152116BR10        BRNC        BRNCCOCO    BRNCCOCO13AG00000200000000001132033100000000000000100000000000000000000000002291Z01620200402X066000000
2MAIL0000152116BR10        BRNC        BRNCCOCO    BRNCCOCO13AG00000300000000001132036700000000000000100000000000000000000000002291Z01620200402X066000000
2MAIL0000152116BR10        BRNC        BRNCCOCO    BRNCCOCO13AG00000400000000001236512900000000000001000000000000000000000000002004Z01620200402X066000000
2MAIL0000152116BR10        BRNC        BRNCCOCO    BRNCCOCO13AG00000500000000001236515000000000000001000000000000000000000000002004Z01620200402X066000000
2MAIL0000152116BR10        BRNC        BRNCCOCO    BRNCCOCO13AG00000600000000001239688800000000000001400000000000000000000000005885Z01620200402X066000000
2MAIL0000152116BR10        BRNC        BRNCCOCO    BRNCCOCO13AG00000700000000001241623700000000000000200000000000000000000000004962Z01620200402X066000000
1MAIL0000152117BR10        BRNC        BRNCCOCO    BRNCCOCO13AG2020040200:00:00OR  010000059831560005983156152117                             2020040220200402Z016CIF202004020000000000023492NN0                                                  0                                        
2MAIL0000152117BR10        BRNC        BRNCCOCO    BRNCCOCO13AG00000100000000001132019800000000000000100000000000000000000000002076Z01620200402X066000000
2MAIL0000152117BR10        BRNC        BRNCCOCO    BRNCCOCO13AG00000200000000001132033100000000000000100000000000000000000000002291Z01620200402X066000000
2MAIL0000152117BR10        BRNC        BRNCCOCO    BRNCCOCO13AG00000300000000001132036700000000000000100000000000000000000000002291Z01620200402X066000000
2MAIL0000152117BR10        BRNC        BRNCCOCO    BRNCCOCO13AG00000400000000001132200400000000000000200000000000000000000000004460Z01620200402X066000000
2MAIL0000152117BR10        BRNC        BRNCCOCO    BRNCCOCO13AG00000500000000001236512900000000000001000000000000000000000000002004Z01620200402X066000000
2MAIL0000152117BR10        BRNC        BRNCCOCO    BRNCCOCO13AG00000600000000001236515000000000000001000000000000000000000000002004Z01620200402X066000000
2MAIL0000152117BR10        BRNC        BRNCCOCO    BRNCCOCO13AG00000700000000001239688800000000000001400000000000000000000000005885Z01620200402X066000000
2MAIL0000152117BR10        BRNC        BRNCCOCO    BRNCCOCO13AG00000800000000001241623700000000000000100000000000000000000000002481Z01620200402X066000000
1MAIL0000152118BR10        BRNC        BRNCCOCO    BRNCCOCO13AG2020040200:00:00OR  010000029146330002914633152118                             2020040220200402Z016CIF202004020000000000028451NN0                                                  0                                        
2MAIL0000152118BR10        BRNC        BRNCCOCO    BRNCCOCO13AG00000100000000001132036700000000000000100000000000000000000000002291Z01620200402X066000000
2MAIL0000152118BR10        BRNC        BRNCCOCO    BRNCCOCO13AG00000200000000001215533700000000000000100000000000000000000000002291Z01620200402X066000000
2MAIL0000152118BR10        BRNC        BRNCCOCO    BRNCCOCO13AG00000300000000001239688600000000000001400000000000000000000000005885Z01620200402X066000000
2MAIL0000152118BR10        BRNC        BRNCCOCO    BRNCCOCO13AG00000400000000001239688800000000000001400000000000000000000000005885Z01620200402X066000000
2MAIL0000152118BR10        BRNC        BRNCCOCO    BRNCCOCO13AG00000500000000001241577400000000000001000000000000000000000000009618Z01620200402X066000000
2MAIL0000152118BR10        BRNC        BRNCCOCO    BRNCCOCO13AG00000600000000001241623700000000000000100000000000000000000000002481Z01620200402X066000000
1MAIL0000152119BR10        BRNC        BRNCCOCO    BRNCCOCO13AG2020040200:00:00OR  010000054131240005413124152119                             2020040220200402Z016CIF202004020000000000031655NN0                                                  0                                        
2MAIL0000152119BR10        BRNC        BRNCCOCO    BRNCCOCO13AG00000100000000001132036700000000000000100000000000000000000000002173Z01620200402X066000000
2MAIL0000152119BR10        BRNC        BRNCCOCO    BRNCCOCO13AG00000200000000001132200400000000000000100000000000000000000000002115Z01620200402X066000000
2MAIL0000152119BR10        BRNC        BRNCCOCO    BRNCCOCO13AG00000300000000001241577400000000000003000000000000000000000000027367Z01620200402X066000000
1MAIL0000152120BR10        BRNC        BRNCCOCO    BRNCCOCO13AG2020040200:00:00OR  010000037557150003755715152120                             2020040220200402Z016CIF202004020000000000013743NN0                                                  0                                        
2MAIL0000152120BR10        BRNC        BRNCCOCO    BRNCCOCO13AG00000100000000001132033100000000000000200000000000000000000000004581Z01620200402X066000000
2MAIL0000152120BR10        BRNC        BRNCCOCO    BRNCCOCO13AG00000200000000001132036700000000000000200000000000000000000000004581Z01620200402X066000000
2MAIL0000152120BR10        BRNC        BRNCCOCO    BRNCCOCO13AG00000300000000001215533700000000000000200000000000000000000000004581Z01620200402X066000000
1MAIL0000152126BR10        BRNC        BRNCCOCO    BRNCCOCO13AG2020040200:00:00OR  010000061690390006169039152126                             2020040220200402Z016CIF202004020000000000010152NN0                                                  0                                        
2MAIL0000152126BR10        BRNC        BRNCCOCO    BRNCCOCO13AG00000100000000001132019800000000000000100000000000000000000000001581Z01620200402X066000000
2MAIL0000152126BR10        BRNC        BRNCCOCO    BRNCCOCO13AG00000200000000001132019900000000000000100000000000000000000000001581Z01620200402X066000000
2MAIL0000152126BR10        BRNC        BRNCCOCO    BRNCCOCO13AG00000300000000001132033100000000000000100000000000000000000000001746Z01620200402X066000000
2MAIL0000152126BR10        BRNC        BRNCCOCO    BRNCCOCO13AG00000400000000001227735000000000000000100000000000000000000000001581Z01620200402X066000000
2MAIL0000152126BR10        BRNC        BRNCCOCO    BRNCCOCO13AG00000500000000001241577400000000000000500000000000000000000000003663Z01620200402X066000000
1MAIL0000152127BR10        BRNC        BRNCCOCO    BRNCCOCO13AG2020040200:00:00OR  010000061687870006168787152127                             2020040220200402Z016CIF202004020000000000007327NN0                                                  0                                        
2MAIL0000152127BR10        BRNC        BRNCCOCO    BRNCCOCO13AG00000100000000001241577400000000000001000000000000000000000000007327Z01620200402X066000000
1MAIL0000152128BR10        BRNC        BRNCCOCO    BRNCCOCO13AG2020040200:00:00OR  010000046945340004694534152128                             2020040220200402Z016CIF202004020000000000026300NN0                                                  0                                        
2MAIL0000152128BR10        BRNC        BRNCCOCO    BRNCCOCO13AG00000100000000001132018300000000000000100000000000000000000000003735Z01620200402X066000000
2MAIL0000152128BR10        BRNC        BRNCCOCO    BRNCCOCO13AG00000200000000001226089600000000000001200000000000000000000000005045Z01620200402X066000000
2MAIL0000152128BR10        BRNC        BRNCCOCO    BRNCCOCO13AG00000300000000001231189200000000000000100000000000000000000000005568Z01620200402X066000000
2MAIL0000152128BR10        BRNC        BRNCCOCO    BRNCCOCO13AG00000400000000001235699700000000000001000000000000000000000000004211Z01620200402X066000000
2MAIL0000152128BR10        BRNC        BRNCCOCO    BRNCCOCO13AG00000500000000001235699800000000000001000000000000000000000000004211Z01620200402X066000000
2MAIL0000152128BR10        BRNC        BRNCCOCO    BRNCCOCO13AG00000600000000001236512800000000000000800000000000000000000000001526Z01620200402X066000000
2MAIL0000152128BR10        BRNC        BRNCCOCO    BRNCCOCO13AG00000700000000001236512900000000000001000000000000000000000000002004Z01620200402X066000000
1MAIL0000152129BR10        BRNC        BRNCCOCO    BRNCCOCO13AG2020040200:00:00OR  010000060895110006089511152129                             2020040220200402Z016CIF202004020000000000019946NN0                                                  0                                        
2MAIL0000152129BR10        BRNC        BRNCCOCO    BRNCCOCO13AG00000100000000001132033100000000000000100000000000000000000000002291Z01620200402X066000000
2MAIL0000152129BR10        BRNC        BRNCCOCO    BRNCCOCO13AG00000200000000001239663300000000000001400000000000000000000000005885Z01620200402X066000000
2MAIL0000152129BR10        BRNC        BRNCCOCO    BRNCCOCO13AG00000300000000001239692000000000000001400000000000000000000000005885Z01620200402X066000000
2MAIL0000152129BR10        BRNC        BRNCCOCO    BRNCCOCO13AG00000400000000001239692300000000000001400000000000000000000000005885Z01620200402X066000000
1MAIL0000152130BR10        BRNC        BRNCCOCO    BRNCCOCO13AG2020040200:00:00OR  010000028987650002898765152130                             2020040220200402Z016CIF202004020000000000040490NN0                                                  0                                        
2MAIL0000152130BR10        BRNC        BRNCCOCO    BRNCCOCO13AG00000100000000001132033100000000000000200000000000000000000000004581Z01620200402X066000000
2MAIL0000152130BR10        BRNC        BRNCCOCO    BRNCCOCO13AG00000200000000001132036700000000000000200000000000000000000000004581Z01620200402X066000000
2MAIL0000152130BR10        BRNC        BRNCCOCO    BRNCCOCO13AG00000300000000001231189200000000000000100000000000000000000000005568Z01620200402X066000000
2MAIL0000152130BR10        BRNC        BRNCCOCO    BRNCCOCO13AG00000400000000001231231200000000000000100000000000000000000000005568Z01620200402X066000000
2MAIL0000152130BR10        BRNC        BRNCCOCO    BRNCCOCO13AG00000500000000001235699700000000000001000000000000000000000000004211Z01620200402X066000000
2MAIL0000152130BR10        BRNC        BRNCCOCO    BRNCCOCO13AG00000600000000001235699800000000000001000000000000000000000000004211Z01620200402X066000000
2MAIL0000152130BR10        BRNC        BRNCCOCO    BRNCCOCO13AG00000700000000001239688500000000000001400000000000000000000000005885Z01620200402X066000000
2MAIL0000152130BR10        BRNC        BRNCCOCO    BRNCCOCO13AG00000800000000001239688600000000000001400000000000000000000000005885Z01620200402X066000000
