1MAIL0000153172BR10        BRNC        BRNCCOCO    BRNCCOCO13AG2020041400:00:00OR  010000059886610005988661153172                             2020041420200414Z016CIF202004140000000000004521NN0                                                  0                                        
2MAIL0000153172BR10        BRNC        BRNCCOCO    BRNCCOCO13AG00000100000000001132033100000000000000100000000000000000000000002291Z01620200414X066000000
2MAIL0000153172BR10        BRNC        BRNCCOCO    BRNCCOCO13AG00000200000000001132200400000000000000100000000000000000000000002230Z01620200414X066000000
1MAIL0000153173BR10        BRNC        BRNCCOCO    BRNCCOCO13AG2020041400:00:00OR  010000029806410002980641153173                             2020041420200414Z079CIF202004140000000000441456NN0                                                  0                                        
2MAIL0000153173BR10        BRNC        BRNCCOCO    BRNCCOCO13AG00000100000000001132004000000000000001000000000000000000000000010229Z07920200414X066000000
2MAIL0000153173BR10        BRNC        BRNCCOCO    BRNCCOCO13AG00000200000000001132004200000000000000500000000000000000000000007052Z07920200414X066000000
2MAIL0000153173BR10        BRNC        BRNCCOCO    BRNCCOCO13AG00000300000000001132018300000000000000100000000000000000000000003550Z07920200414X066000000
2MAIL0000153173BR10        BRNC        BRNCCOCO    BRNCCOCO13AG00000400000000001132019700000000000000200000000000000000000000003947Z07920200414X066000000
2MAIL0000153173BR10        BRNC        BRNCCOCO    BRNCCOCO13AG00000500000000001132019800000000000000200000000000000000000000003947Z07920200414X066000000
2MAIL0000153173BR10        BRNC        BRNCCOCO    BRNCCOCO13AG00000600000000001132019900000000000000200000000000000000000000003947Z07920200414X066000000
2MAIL0000153173BR10        BRNC        BRNCCOCO    BRNCCOCO13AG00000700000000001132034900000000000000500000000000000000000000011101Z07920200414X066000000
2MAIL0000153173BR10        BRNC        BRNCCOCO    BRNCCOCO13AG00000800000000001132200400000000000000500000000000000000000000010603Z07920200414X066000000
2MAIL0000153173BR10        BRNC        BRNCCOCO    BRNCCOCO13AG00000900000000001226089600000000000004800000000000000000000000018357Z07920200414X066000000
2MAIL0000153173BR10        BRNC        BRNCCOCO    BRNCCOCO13AG00001000000000001231389600000000000001000000000000000000000000021786Z07920200414X066000000
2MAIL0000153173BR10        BRNC        BRNCCOCO    BRNCCOCO13AG00001100000000001235699400000000000002000000000000000000000000007663Z07920200414X066000000
2MAIL0000153173BR10        BRNC        BRNCCOCO    BRNCCOCO13AG00001200000000001235699700000000000002000000000000000000000000007663Z07920200414X066000000
2MAIL0000153173BR10        BRNC        BRNCCOCO    BRNCCOCO13AG00001300000000001235699800000000000004000000000000000000000000015328Z07920200414X066000000
2MAIL0000153173BR10        BRNC        BRNCCOCO    BRNCCOCO13AG00001400000000001236512900000000000007000000000000000000000000012727Z07920200414X066000000
2MAIL0000153173BR10        BRNC        BRNCCOCO    BRNCCOCO13AG00001500000000001236515000000000000007000000000000000000000000012727Z07920200414X066000000
2MAIL0000153173BR10        BRNC        BRNCCOCO    BRNCCOCO13AG00001600000000001239663300000000000005600000000000000000000000021416Z07920200414X066000000
2MAIL0000153173BR10        BRNC        BRNCCOCO    BRNCCOCO13AG00001700000000001239688300000000000002800000000000000000000000010708Z07920200414X066000000
2MAIL0000153173BR10        BRNC        BRNCCOCO    BRNCCOCO13AG00001800000000001239688500000000000002800000000000000000000000010708Z07920200414X066000000
2MAIL0000153173BR10        BRNC        BRNCCOCO    BRNCCOCO13AG00001900000000001239688600000000000005600000000000000000000000021416Z07920200414X066000000
2MAIL0000153173BR10        BRNC        BRNCCOCO    BRNCCOCO13AG00002000000000001239688700000000000002800000000000000000000000010708Z07920200414X066000000
2MAIL0000153173BR10        BRNC        BRNCCOCO    BRNCCOCO13AG00002100000000001239688800000000000005600000000000000000000000021416Z07920200414X066000000
2MAIL0000153173BR10        BRNC        BRNCCOCO    BRNCCOCO13AG00002200000000001239692000000000000002800000000000000000000000010708Z07920200414X066000000
2MAIL0000153173BR10        BRNC        BRNCCOCO    BRNCCOCO13AG00002300000000001239692100000000000002800000000000000000000000010708Z07920200414X066000000
2MAIL0000153173BR10        BRNC        BRNCCOCO    BRNCCOCO13AG00002400000000001239692300000000000002800000000000000000000000010708Z07920200414X066000000
2MAIL0000153173BR10        BRNC        BRNCCOCO    BRNCCOCO13AG00002500000000001241577400000000000015000000000000000000000000130209Z07920200414X066000000
2MAIL0000153173BR10        BRNC        BRNCCOCO    BRNCCOCO13AG00002600000000001242626100000000000002800000000000000000000000010708Z07920200414X066000000
2MAIL0000153173BR10        BRNC        BRNCCOCO    BRNCCOCO13AG00002700000000001242754900000000000002800000000000000000000000010708Z07920200414X066000000
2MAIL0000153173BR10        BRNC        BRNCCOCO    BRNCCOCO13AG00002800000000001242765000000000000002800000000000000000000000010708Z07920200414X066000000
1MAIL0000153174BR10        BRNC        BRNCCOCO    BRNCCOCO13AG2020041400:00:00OR  010000029563750002956375153174                             2020041420200414Z016CIF202004140000000000681475NN0                                                  0                                        
2MAIL0000153174BR10        BRNC        BRNCCOCO    BRNCCOCO13AG00000100000000001132004200000000000002000000000000000000000000029677Z01620200414X066000000
2MAIL0000153174BR10        BRNC        BRNCCOCO    BRNCCOCO13AG00000200000000001132033100000000000001600000000000000000000000028207Z01620200414X066000000
2MAIL0000153174BR10        BRNC        BRNCCOCO    BRNCCOCO13AG00000300000000001132034900000000000002000000000000000000000000035922Z01620200414X066000000
2MAIL0000153174BR10        BRNC        BRNCCOCO    BRNCCOCO13AG00000400000000001132036700000000000003200000000000000000000000056415Z01620200414X066000000
2MAIL0000153174BR10        BRNC        BRNCCOCO    BRNCCOCO13AG00000500000000001215533700000000000001600000000000000000000000028207Z01620200414X066000000
2MAIL0000153174BR10        BRNC        BRNCCOCO    BRNCCOCO13AG00000600000000001221415400000000000001600000000000000000000000045964Z01620200414X066000000
2MAIL0000153174BR10        BRNC        BRNCCOCO    BRNCCOCO13AG00000700000000001226089600000000000004800000000000000000000000014815Z01620200414X066000000
2MAIL0000153174BR10        BRNC        BRNCCOCO    BRNCCOCO13AG00000800000000001227395500000000000001600000000000000000000000028207Z01620200414X066000000
2MAIL0000153174BR10        BRNC        BRNCCOCO    BRNCCOCO13AG00000900000000001231189200000000000000800000000000000000000000032944Z01620200414X066000000
2MAIL0000153174BR10        BRNC        BRNCCOCO    BRNCCOCO13AG00001000000000001231231200000000000000800000000000000000000000032944Z01620200414X066000000
2MAIL0000153174BR10        BRNC        BRNCCOCO    BRNCCOCO13AG00001100000000001231233000000000000000800000000000000000000000032944Z01620200414X066000000
2MAIL0000153174BR10        BRNC        BRNCCOCO    BRNCCOCO13AG00001200000000001231389600000000000001600000000000000000000000028207Z01620200414X066000000
2MAIL0000153174BR10        BRNC        BRNCCOCO    BRNCCOCO13AG00001300000000001239663300000000000005600000000000000000000000017284Z01620200414X066000000
2MAIL0000153174BR10        BRNC        BRNCCOCO    BRNCCOCO13AG00001400000000001239688700000000000005600000000000000000000000017284Z01620200414X066000000
2MAIL0000153174BR10        BRNC        BRNCCOCO    BRNCCOCO13AG00001500000000001239688800000000000005600000000000000000000000017284Z01620200414X066000000
2MAIL0000153174BR10        BRNC        BRNCCOCO    BRNCCOCO13AG00001600000000001241623700000000000010000000000000000000000000183318Z01620200414X066000000
2MAIL0000153174BR10        BRNC        BRNCCOCO    BRNCCOCO13AG00001700000000001242626100000000000005600000000000000000000000017284Z01620200414X066000000
2MAIL0000153174BR10        BRNC        BRNCCOCO    BRNCCOCO13AG00001800000000001242754900000000000005600000000000000000000000017284Z01620200414X066000000
2MAIL0000153174BR10        BRNC        BRNCCOCO    BRNCCOCO13AG00001900000000001242765000000000000005600000000000000000000000017284Z01620200414X066000000
