1MAIL0000152331BR10        BRNC        BRNCCOCO    BRNCCOCO13AG2020040700:00:00OR  010000037681400003768140152331                             2020040720200407Z016CIF202004070000000000057049NN0                                                  0                                        
2MAIL0000152331BR10        BRNC        BRNCCOCO    BRNCCOCO13AG00000100000000001132004000000000000000500000000000000000000000005102Z01620200407X066000000
2MAIL0000152331BR10        BRNC        BRNCCOCO    BRNCCOCO13AG00000200000000001132018300000000000000100000000000000000000000003541Z01620200407X066000000
2MAIL0000152331BR10        BRNC        BRNCCOCO    BRNCCOCO13AG00000300000000001132200400000000000000100000000000000000000000002115Z01620200407X066000000
2MAIL0000152331BR10        BRNC        BRNCCOCO    BRNCCOCO13AG00000400000000001221415400000000000000100000000000000000000000003541Z01620200407X066000000
2MAIL0000152331BR10        BRNC        BRNCCOCO    BRNCCOCO13AG00000500000000001236512800000000000002000000000000000000000000003451Z01620200407X066000000
2MAIL0000152331BR10        BRNC        BRNCCOCO    BRNCCOCO13AG00000600000000001236512900000000000007000000000000000000000000012727Z01620200407X066000000
2MAIL0000152331BR10        BRNC        BRNCCOCO    BRNCCOCO13AG00000700000000001236515000000000000007000000000000000000000000012727Z01620200407X066000000
2MAIL0000152331BR10        BRNC        BRNCCOCO    BRNCCOCO13AG00000800000000001239688800000000000001400000000000000000000000005343Z01620200407X066000000
2MAIL0000152331BR10        BRNC        BRNCCOCO    BRNCCOCO13AG00000900000000001240924900000000000002000000000000000000000000003329Z01620200407X066000000
2MAIL0000152331BR10        BRNC        BRNCCOCO    BRNCCOCO13AG00001000000000001241623700000000000000200000000000000000000000005173Z01620200407X066000000
1MAIL0000152332BR10        BRNC        BRNCCOCO    BRNCCOCO13AG2020040700:00:00OR  010000037681400003768140152332                             2020040720200407Z016CIF202004070000000000021726NN0                                                  0                                        
2MAIL0000152332BR10        BRNC        BRNCCOCO    BRNCCOCO13AG00000100000000001132033100000000000000500000000000000000000000010863Z01620200407X066000000
2MAIL0000152332BR10        BRNC        BRNCCOCO    BRNCCOCO13AG00000200000000001132036700000000000000500000000000000000000000010863Z01620200407X066000000
1MAIL0000152333BR10        BRNC        BRNCCOCO    BRNCCOCO13AG2020040700:00:00OR  010000061131280006113128152333                             2020040720200407Z016CIF202004070000000000004772NN0                                                  0                                        
2MAIL0000152333BR10        BRNC        BRNCCOCO    BRNCCOCO13AG00000100000000001132036700000000000000100000000000000000000000002291Z01620200407X066000000
2MAIL0000152333BR10        BRNC        BRNCCOCO    BRNCCOCO13AG00000200000000001241623700000000000000100000000000000000000000002481Z01620200407X066000000
1MAIL0000152334BR10        BRNC        BRNCCOCO    BRNCCOCO13AG2020040700:00:00OR  010000029168560002916856152334                             2020040720200407Z016CIF202004070000000000015032NN0                                                  0                                        
2MAIL0000152334BR10        BRNC        BRNCCOCO    BRNCCOCO13AG00000100000000001132033100000000000000100000000000000000000000002173Z01620200407X066000000
2MAIL0000152334BR10        BRNC        BRNCCOCO    BRNCCOCO13AG00000200000000001132036700000000000000100000000000000000000000002173Z01620200407X066000000
2MAIL0000152334BR10        BRNC        BRNCCOCO    BRNCCOCO13AG00000300000000001239688800000000000001400000000000000000000000005343Z01620200407X066000000
2MAIL0000152334BR10        BRNC        BRNCCOCO    BRNCCOCO13AG00000400000000001239692100000000000001400000000000000000000000005343Z01620200407X066000000
1MAIL0000152335BR10        BRNC        BRNCCOCO    BRNCCOCO13AG2020040700:00:00OR  010000044173200004417320152335                             2020040720200407Z079CIF202004070000000000020910NN0                                                  0                                        
2MAIL0000152335BR10        BRNC        BRNCCOCO    BRNCCOCO13AG00000100000000001132033100000000000000100000000000000000000000002297Z07920200407X066000000
2MAIL0000152335BR10        BRNC        BRNCCOCO    BRNCCOCO13AG00000200000000001132036700000000000000100000000000000000000000002297Z07920200407X066000000
2MAIL0000152335BR10        BRNC        BRNCCOCO    BRNCCOCO13AG00000300000000001132200400000000000000100000000000000000000000002236Z07920200407X066000000
2MAIL0000152335BR10        BRNC        BRNCCOCO    BRNCCOCO13AG00000400000000001236512800000000000001200000000000000000000000002288Z07920200407X066000000
2MAIL0000152335BR10        BRNC        BRNCCOCO    BRNCCOCO13AG00000500000000001239688600000000000001400000000000000000000000005896Z07920200407X066000000
2MAIL0000152335BR10        BRNC        BRNCCOCO    BRNCCOCO13AG00000600000000001239688800000000000001400000000000000000000000005896Z07920200407X066000000
1MAIL0000152336BR10        BRNC        BRNCCOCO    BRNCCOCO13AG2020040700:00:00OR  010000029805720002980572152336                             2020040720200407Z016CIF202004070000000000044904NN0                                                  0                                        
2MAIL0000152336BR10        BRNC        BRNCCOCO    BRNCCOCO13AG00000100000000001132033100000000000000100000000000000000000000002291Z01620200407X066000000
2MAIL0000152336BR10        BRNC        BRNCCOCO    BRNCCOCO13AG00000200000000001132036700000000000000100000000000000000000000002291Z01620200407X066000000
2MAIL0000152336BR10        BRNC        BRNCCOCO    BRNCCOCO13AG00000300000000001215533700000000000000100000000000000000000000002291Z01620200407X066000000
2MAIL0000152336BR10        BRNC        BRNCCOCO    BRNCCOCO13AG00000400000000001226089600000000000001200000000000000000000000005045Z01620200407X066000000
2MAIL0000152336BR10        BRNC        BRNCCOCO    BRNCCOCO13AG00000500000000001235699400000000000001000000000000000000000000004211Z01620200407X066000000
2MAIL0000152336BR10        BRNC        BRNCCOCO    BRNCCOCO13AG00000600000000001236512900000000000000500000000000000000000000001002Z01620200407X066000000
2MAIL0000152336BR10        BRNC        BRNCCOCO    BRNCCOCO13AG00000700000000001236515000000000000000500000000000000000000000001002Z01620200407X066000000
2MAIL0000152336BR10        BRNC        BRNCCOCO    BRNCCOCO13AG00000800000000001239373600000000000000100000000000000000000000006952Z01620200407X066000000
2MAIL0000152336BR10        BRNC        BRNCCOCO    BRNCCOCO13AG00000900000000001239688800000000000001400000000000000000000000005885Z01620200407X066000000
2MAIL0000152336BR10        BRNC        BRNCCOCO    BRNCCOCO13AG00001000000000001239692100000000000001400000000000000000000000005885Z01620200407X066000000
2MAIL0000152336BR10        BRNC        BRNCCOCO    BRNCCOCO13AG00001100000000001241623700000000000000100000000000000000000000002481Z01620200407X066000000
2MAIL0000152336BR10        BRNC        BRNCCOCO    BRNCCOCO13AG00001200000000001242374800000000000000100000000000000000000000005568Z01620200407X066000000
1MAIL0000152337BR10        BRNC        BRNCCOCO    BRNCCOCO13AG2020040700:00:00OR  010000054963080005496308152337                             2020040720200407Z016CIF202004070000000000013623NN0                                                  0                                        
2MAIL0000152337BR10        BRNC        BRNCCOCO    BRNCCOCO13AG00000100000000001132036700000000000000400000000000000000000000009163Z01620200407X066000000
2MAIL0000152337BR10        BRNC        BRNCCOCO    BRNCCOCO13AG00000200000000001132200400000000000000200000000000000000000000004460Z01620200407X066000000
1MAIL0000152338BR10        BRNC        BRNCCOCO    BRNCCOCO13AG2020040700:00:00OR  010000056850570005685057152338                             2020040720200407Z016CIF202004070000000000027281NN0                                                  0                                        
2MAIL0000152338BR10        BRNC        BRNCCOCO    BRNCCOCO13AG00000100000000001132036700000000000000200000000000000000000000004581Z01620200407X066000000
2MAIL0000152338BR10        BRNC        BRNCCOCO    BRNCCOCO13AG00000200000000001226089600000000000001200000000000000000000000005045Z01620200407X066000000
2MAIL0000152338BR10        BRNC        BRNCCOCO    BRNCCOCO13AG00000300000000001239663300000000000001400000000000000000000000005885Z01620200407X066000000
2MAIL0000152338BR10        BRNC        BRNCCOCO    BRNCCOCO13AG00000400000000001239688600000000000001400000000000000000000000005885Z01620200407X066000000
2MAIL0000152338BR10        BRNC        BRNCCOCO    BRNCCOCO13AG00000500000000001239688800000000000001400000000000000000000000005885Z01620200407X066000000
1MAIL0000152339BR10        BRNC        BRNCCOCO    BRNCCOCO13AG2020040700:00:00OR  010000060785100006078510152339                             2020040720200407Z016CIF202004070000000000010507NN0                                                  0                                        
2MAIL0000152339BR10        BRNC        BRNCCOCO    BRNCCOCO13AG00000100000000001235699400000000000001000000000000000000000000004211Z01620200407X066000000
2MAIL0000152339BR10        BRNC        BRNCCOCO    BRNCCOCO13AG00000200000000001236512800000000000001200000000000000000000000002288Z01620200407X066000000
2MAIL0000152339BR10        BRNC        BRNCCOCO    BRNCCOCO13AG00000300000000001236512900000000000001000000000000000000000000002004Z01620200407X066000000
2MAIL0000152339BR10        BRNC        BRNCCOCO    BRNCCOCO13AG00000400000000001236515000000000000001000000000000000000000000002004Z01620200407X066000000
1MAIL0000152340BR10        BRNC        BRNCCOCO    BRNCCOCO13AG2020040700:00:00OR  010000028991570002899157152340                             2020040720200407Z016CIF202004070000000000077956NN0                                                  0                                        
2MAIL0000152340BR10        BRNC        BRNCCOCO    BRNCCOCO13AG00000100000000001226089600000000000001200000000000000000000000005045Z01620200407X066000000
2MAIL0000152340BR10        BRNC        BRNCCOCO    BRNCCOCO13AG00000200000000001236898000000000000000100000000000000000000000002291Z01620200407X066000000
2MAIL0000152340BR10        BRNC        BRNCCOCO    BRNCCOCO13AG00000300000000001239663300000000000001400000000000000000000000005885Z01620200407X066000000
2MAIL0000152340BR10        BRNC        BRNCCOCO    BRNCCOCO13AG00000400000000001239688300000000000001400000000000000000000000005885Z01620200407X066000000
2MAIL0000152340BR10        BRNC        BRNCCOCO    BRNCCOCO13AG00000500000000001239688500000000000001400000000000000000000000005885Z01620200407X066000000
2MAIL0000152340BR10        BRNC        BRNCCOCO    BRNCCOCO13AG00000600000000001239688600000000000001400000000000000000000000005885Z01620200407X066000000
2MAIL0000152340BR10        BRNC        BRNCCOCO    BRNCCOCO13AG00000700000000001239688700000000000001400000000000000000000000005885Z01620200407X066000000
2MAIL0000152340BR10        BRNC        BRNCCOCO    BRNCCOCO13AG00000800000000001239688800000000000001400000000000000000000000005885Z01620200407X066000000
2MAIL0000152340BR10        BRNC        BRNCCOCO    BRNCCOCO13AG00000900000000001239692000000000000001400000000000000000000000005885Z01620200407X066000000
2MAIL0000152340BR10        BRNC        BRNCCOCO    BRNCCOCO13AG00001000000000001239692100000000000001400000000000000000000000005885Z01620200407X066000000
2MAIL0000152340BR10        BRNC        BRNCCOCO    BRNCCOCO13AG00001100000000001239692300000000000001400000000000000000000000005885Z01620200407X066000000
2MAIL0000152340BR10        BRNC        BRNCCOCO    BRNCCOCO13AG00001200000000001242626100000000000001400000000000000000000000005885Z01620200407X066000000
2MAIL0000152340BR10        BRNC        BRNCCOCO    BRNCCOCO13AG00001300000000001242754900000000000001400000000000000000000000005885Z01620200407X066000000
2MAIL0000152340BR10        BRNC        BRNCCOCO    BRNCCOCO13AG00001400000000001242765000000000000001400000000000000000000000005885Z01620200407X066000000
1MAIL0000152341BR10        BRNC        BRNCCOCO    BRNCCOCO13AG2020040700:00:00OR  010000038280280003828028152341                             2020040720200407Z016CIF202004070000000000006872NN0                                                  0                                        
2MAIL0000152341BR10        BRNC        BRNCCOCO    BRNCCOCO13AG00000100000000001236898000000000000000300000000000000000000000006872Z01620200407X066000000
1MAIL0000152342BR10        BRNC        BRNCCOCO    BRNCCOCO13AG2020040700:00:00OR  010000038750810003875081152342                             2020040720200407Z016CIF202004070000000000017115NN0                                                  0                                        
2MAIL0000152342BR10        BRNC        BRNCCOCO    BRNCCOCO13AG00000100000000001132033100000000000000100000000000000000000000002291Z01620200407X066000000
2MAIL0000152342BR10        BRNC        BRNCCOCO    BRNCCOCO13AG00000200000000001226089600000000000001200000000000000000000000005045Z01620200407X066000000
2MAIL0000152342BR10        BRNC        BRNCCOCO    BRNCCOCO13AG00000300000000001228512700000000000000100000000000000000000000005568Z01620200407X066000000
2MAIL0000152342BR10        BRNC        BRNCCOCO    BRNCCOCO13AG00000400000000001235699400000000000001000000000000000000000000004211Z01620200407X066000000
1MAIL0000152343BR10        BRNC        BRNCCOCO    BRNCCOCO13AG2020040700:00:00OR  010000028484200002848420152343                             2020040720200407Z016CIF202004070000000000020745NN0                                                  0                                        
2MAIL0000152343BR10        BRNC        BRNCCOCO    BRNCCOCO13AG00000100000000001132019700000000000000100000000000000000000000002076Z01620200407X066000000
2MAIL0000152343BR10        BRNC        BRNCCOCO    BRNCCOCO13AG00000200000000001132019900000000000000100000000000000000000000002076Z01620200407X066000000
2MAIL0000152343BR10        BRNC        BRNCCOCO    BRNCCOCO13AG00000300000000001132020900000000000000100000000000000000000000002076Z01620200407X066000000
2MAIL0000152343BR10        BRNC        BRNCCOCO    BRNCCOCO13AG00000400000000001215533700000000000000100000000000000000000000002291Z01620200407X066000000
2MAIL0000152343BR10        BRNC        BRNCCOCO    BRNCCOCO13AG00000500000000001227395500000000000000100000000000000000000000002291Z01620200407X066000000
2MAIL0000152343BR10        BRNC        BRNCCOCO    BRNCCOCO13AG00000600000000001227735000000000000000100000000000000000000000002076Z01620200407X066000000
2MAIL0000152343BR10        BRNC        BRNCCOCO    BRNCCOCO13AG00000700000000001231389600000000000000100000000000000000000000002291Z01620200407X066000000
2MAIL0000152343BR10        BRNC        BRNCCOCO    BRNCCOCO13AG00000800000000001234705800000000000000100000000000000000000000005568Z01620200407X066000000
1MAIL0000152344BR10        BRNC        BRNCCOCO    BRNCCOCO13AG2020040700:00:00OR  010000028484200002848420152344                             2020040720200407Z016CIF202004070000000000016518NN0                                                  0                                        
2MAIL0000152344BR10        BRNC        BRNCCOCO    BRNCCOCO13AG00000100000000001132019800000000000000100000000000000000000000002012Z01620200407X066003000
2MAIL0000152344BR10        BRNC        BRNCCOCO    BRNCCOCO13AG00000200000000001132033100000000000000100000000000000000000000002223Z01620200407X066003000
2MAIL0000152344BR10        BRNC        BRNCCOCO    BRNCCOCO13AG00000300000000001132036700000000000000100000000000000000000000002223Z01620200407X066003000
2MAIL0000152344BR10        BRNC        BRNCCOCO    BRNCCOCO13AG00000400000000001236512900000000000000500000000000000000000000000973Z01620200407X066003000
2MAIL0000152344BR10        BRNC        BRNCCOCO    BRNCCOCO13AG00000500000000001236515000000000000000500000000000000000000000000973Z01620200407X066003000
2MAIL0000152344BR10        BRNC        BRNCCOCO    BRNCCOCO13AG00000600000000001239688800000000000001400000000000000000000000005708Z01620200407X066003000
2MAIL0000152344BR10        BRNC        BRNCCOCO    BRNCCOCO13AG00000700000000001241623700000000000000100000000000000000000000002406Z01620200407X066003000
1MAIL0000152345BR10        BRNC        BRNCCOCO    BRNCCOCO13AG2020040700:00:00OR  010000032928090003292809152345                             2020040720200407Z016CIF202004070000000000089729NN0                                                  0                                        
2MAIL0000152345BR10        BRNC        BRNCCOCO    BRNCCOCO13AG00000100000000001228274000000000000000100000000000000000000000005280Z01620200407X066000000
2MAIL0000152345BR10        BRNC        BRNCCOCO    BRNCCOCO13AG00000200000000001228512700000000000000100000000000000000000000005280Z01620200407X066000000
2MAIL0000152345BR10        BRNC        BRNCCOCO    BRNCCOCO13AG00000300000000001231189200000000000000200000000000000000000000010559Z01620200407X066000000
2MAIL0000152345BR10        BRNC        BRNCCOCO    BRNCCOCO13AG00000400000000001231231200000000000000200000000000000000000000010559Z01620200407X066000000
2MAIL0000152345BR10        BRNC        BRNCCOCO    BRNCCOCO13AG00000500000000001231233000000000000000200000000000000000000000010559Z01620200407X066000000
2MAIL0000152345BR10        BRNC        BRNCCOCO    BRNCCOCO13AG00000600000000001234705700000000000000100000000000000000000000005280Z01620200407X066000000
2MAIL0000152345BR10        BRNC        BRNCCOCO    BRNCCOCO13AG00000700000000001234705900000000000000100000000000000000000000005280Z01620200407X066000000
2MAIL0000152345BR10        BRNC        BRNCCOCO    BRNCCOCO13AG00000800000000001238083500000000000000100000000000000000000000005280Z01620200407X066000000
2MAIL0000152345BR10        BRNC        BRNCCOCO    BRNCCOCO13AG00000900000000001239373400000000000000100000000000000000000000006593Z01620200407X066000000
2MAIL0000152345BR10        BRNC        BRNCCOCO    BRNCCOCO13AG00001000000000001239373500000000000000100000000000000000000000006593Z01620200407X066000000
2MAIL0000152345BR10        BRNC        BRNCCOCO    BRNCCOCO13AG00001100000000001239373600000000000000100000000000000000000000006593Z01620200407X066000000
2MAIL0000152345BR10        BRNC        BRNCCOCO    BRNCCOCO13AG00001200000000001239373700000000000000100000000000000000000000006593Z01620200407X066000000
2MAIL0000152345BR10        BRNC        BRNCCOCO    BRNCCOCO13AG00001300000000001242374800000000000000100000000000000000000000005280Z01620200407X066000000
1MAIL0000152346BR10        BRNC        BRNCCOCO    BRNCCOCO13AG2020040700:00:00OR  010000029296780002929678152346                             2020040720200407Z016CIF202004070000000000016577NN0                                                  0                                        
2MAIL0000152346BR10        BRNC        BRNCCOCO    BRNCCOCO13AG00000100000000001132036700000000000000600000000000000000000000013036Z01620200407X066000000
2MAIL0000152346BR10        BRNC        BRNCCOCO    BRNCCOCO13AG00000200000000001221415400000000000000100000000000000000000000003541Z01620200407X066000000
1MAIL0000152347BR10        BRNC        BRNCCOCO    BRNCCOCO13AG2020040700:00:00OR  010000028994980002899498152347                             2020040720200407Z016CIF202004070000000000026715NN0                                                  0                                        
2MAIL0000152347BR10        BRNC        BRNCCOCO    BRNCCOCO13AG00000100000000001239688300000000000001400000000000000000000000005343Z01620200407X066000000
2MAIL0000152347BR10        BRNC        BRNCCOCO    BRNCCOCO13AG00000200000000001239688500000000000001400000000000000000000000005343Z01620200407X066000000
2MAIL0000152347BR10        BRNC        BRNCCOCO    BRNCCOCO13AG00000300000000001239688700000000000001400000000000000000000000005343Z01620200407X066000000
2MAIL0000152347BR10        BRNC        BRNCCOCO    BRNCCOCO13AG00000400000000001239688800000000000001400000000000000000000000005343Z01620200407X066000000
2MAIL0000152347BR10        BRNC        BRNCCOCO    BRNCCOCO13AG00000500000000001239692100000000000001400000000000000000000000005343Z01620200407X066000000
1MAIL0000152348BR10        BRNC        BRNCCOCO    BRNCCOCO13AG2020040700:00:00OR  010000060183580006018358152348                             2020040720200407Z016CIF202004070000000000016548NN0                                                  0                                        
2MAIL0000152348BR10        BRNC        BRNCCOCO    BRNCCOCO13AG00000100000000001132019700000000000000100000000000000000000000001498Z01620200407X066000000
2MAIL0000152348BR10        BRNC        BRNCCOCO    BRNCCOCO13AG00000200000000001132019800000000000000100000000000000000000000001498Z01620200407X066000000
2MAIL0000152348BR10        BRNC        BRNCCOCO    BRNCCOCO13AG00000300000000001132019900000000000000100000000000000000000000001498Z01620200407X066000000
2MAIL0000152348BR10        BRNC        BRNCCOCO    BRNCCOCO13AG00000400000000001132020900000000000000100000000000000000000000001498Z01620200407X066000000
2MAIL0000152348BR10        BRNC        BRNCCOCO    BRNCCOCO13AG00000500000000001132033100000000000000100000000000000000000000001654Z01620200407X066000000
2MAIL0000152348BR10        BRNC        BRNCCOCO    BRNCCOCO13AG00000600000000001132036700000000000000100000000000000000000000001654Z01620200407X066000000
2MAIL0000152348BR10        BRNC        BRNCCOCO    BRNCCOCO13AG00000700000000001132400100000000000000100000000000000000000000002286Z01620200407X066000000
2MAIL0000152348BR10        BRNC        BRNCCOCO    BRNCCOCO13AG00000800000000001215533700000000000000100000000000000000000000001654Z01620200407X066000000
2MAIL0000152348BR10        BRNC        BRNCCOCO    BRNCCOCO13AG00000900000000001227395500000000000000100000000000000000000000001654Z01620200407X066000000
2MAIL0000152348BR10        BRNC        BRNCCOCO    BRNCCOCO13AG00001000000000001236898000000000000000100000000000000000000000001654Z01620200407X066000000
1MAIL0000152349BR10        BRNC        BRNCCOCO    BRNCCOCO13AG2020040700:00:00OR  010000052636150005263615152349                             2020040720200407Z016CIF202004070000000000027282NN0                                                  0                                        
2MAIL0000152349BR10        BRNC        BRNCCOCO    BRNCCOCO13AG00000100000000001132033100000000000000100000000000000000000000002291Z01620200407X066000000
2MAIL0000152349BR10        BRNC        BRNCCOCO    BRNCCOCO13AG00000200000000001132036700000000000000100000000000000000000000002291Z01620200407X066000000
2MAIL0000152349BR10        BRNC        BRNCCOCO    BRNCCOCO13AG00000300000000001226089600000000000001200000000000000000000000005045Z01620200407X066000000
2MAIL0000152349BR10        BRNC        BRNCCOCO    BRNCCOCO13AG00000400000000001239663300000000000001400000000000000000000000005885Z01620200407X066000000
2MAIL0000152349BR10        BRNC        BRNCCOCO    BRNCCOCO13AG00000500000000001239688600000000000001400000000000000000000000005885Z01620200407X066000000
2MAIL0000152349BR10        BRNC        BRNCCOCO    BRNCCOCO13AG00000600000000001239688800000000000001400000000000000000000000005885Z01620200407X066000000
1MAIL0000152350BR10        BRNC        BRNCCOCO    BRNCCOCO13AG2020040700:00:00OR  010000057205650005720565152350                             2020040720200407Z016CIF202004070000000000031144NN0                                                  0                                        
2MAIL0000152350BR10        BRNC        BRNCCOCO    BRNCCOCO13AG00000100000000001132036700000000000000100000000000000000000000002291Z01620200407X066000000
2MAIL0000152350BR10        BRNC        BRNCCOCO    BRNCCOCO13AG00000200000000001241577400000000000003000000000000000000000000028853Z01620200407X066000000
1MAIL0000152351BR10        BRNC        BRNCCOCO    BRNCCOCO13AG2020040700:00:00OR  010000060235300006023530152351                             2020040720200407Z016CIF202004070000000000007868NN0                                                  0                                        
2MAIL0000152351BR10        BRNC        BRNCCOCO    BRNCCOCO13AG00000100000000001132019700000000000000100000000000000000000000001967Z01620200407X066000000
2MAIL0000152351BR10        BRNC        BRNCCOCO    BRNCCOCO13AG00000200000000001132019800000000000000100000000000000000000000001967Z01620200407X066000000
2MAIL0000152351BR10        BRNC        BRNCCOCO    BRNCCOCO13AG00000300000000001132019900000000000000100000000000000000000000001967Z01620200407X066000000
2MAIL0000152351BR10        BRNC        BRNCCOCO    BRNCCOCO13AG00000400000000001132020900000000000000100000000000000000000000001967Z01620200407X066000000
1MAIL0000152352BR10        BRNC        BRNCCOCO    BRNCCOCO13AG2020040700:00:00OR  010000034721420003472142152352                             2020040720200407Z016CIF202004070000000000015024NN0                                                  0                                        
2MAIL0000152352BR10        BRNC        BRNCCOCO    BRNCCOCO13AG00000100000000001132019800000000000000100000000000000000000000002076Z01620200407X066000000
2MAIL0000152352BR10        BRNC        BRNCCOCO    BRNCCOCO13AG00000200000000001132033100000000000000100000000000000000000000002291Z01620200407X066000000
2MAIL0000152352BR10        BRNC        BRNCCOCO    BRNCCOCO13AG00000300000000001132036700000000000000100000000000000000000000002291Z01620200407X066000000
2MAIL0000152352BR10        BRNC        BRNCCOCO    BRNCCOCO13AG00000400000000001239688800000000000001400000000000000000000000005885Z01620200407X066000000
2MAIL0000152352BR10        BRNC        BRNCCOCO    BRNCCOCO13AG00000500000000001241623700000000000000100000000000000000000000002481Z01620200407X066000000
1MAIL0000152353BR10        BRNC        BRNCCOCO    BRNCCOCO13AG2020040700:00:00OR  010000060471950006047195152353                             2020040720200407Z016CIF202004070000000000019032NN0                                                  0                                        
2MAIL0000152353BR10        BRNC        BRNCCOCO    BRNCCOCO13AG00000100000000001132019800000000000000100000000000000000000000002076Z01620200407X066000000
2MAIL0000152353BR10        BRNC        BRNCCOCO    BRNCCOCO13AG00000200000000001132033100000000000000100000000000000000000000002291Z01620200407X066000000
2MAIL0000152353BR10        BRNC        BRNCCOCO    BRNCCOCO13AG00000300000000001132036700000000000000100000000000000000000000002291Z01620200407X066000000
2MAIL0000152353BR10        BRNC        BRNCCOCO    BRNCCOCO13AG00000400000000001236512900000000000001000000000000000000000000002004Z01620200407X066000000
2MAIL0000152353BR10        BRNC        BRNCCOCO    BRNCCOCO13AG00000500000000001236515000000000000001000000000000000000000000002004Z01620200407X066000000
2MAIL0000152353BR10        BRNC        BRNCCOCO    BRNCCOCO13AG00000600000000001239688800000000000001400000000000000000000000005885Z01620200407X066000000
2MAIL0000152353BR10        BRNC        BRNCCOCO    BRNCCOCO13AG00000700000000001241623700000000000000100000000000000000000000002481Z01620200407X066000000
1MAIL0000152354BR10        BRNC        BRNCCOCO    BRNCCOCO13AG2020040700:00:00OR  010000042116400004211640152354                             2020040720200407Z016CIF202004070000000000012670NN0                                                  0                                        
2MAIL0000152354BR10        BRNC        BRNCCOCO    BRNCCOCO13AG00000100000000001132019800000000000000100000000000000000000000002076Z01620200407X066000000
2MAIL0000152354BR10        BRNC        BRNCCOCO    BRNCCOCO13AG00000200000000001132033100000000000000100000000000000000000000002291Z01620200407X066000000
2MAIL0000152354BR10        BRNC        BRNCCOCO    BRNCCOCO13AG00000300000000001132036700000000000000100000000000000000000000002291Z01620200407X066000000
2MAIL0000152354BR10        BRNC        BRNCCOCO    BRNCCOCO13AG00000400000000001236512900000000000001500000000000000000000000003006Z01620200407X066000000
2MAIL0000152354BR10        BRNC        BRNCCOCO    BRNCCOCO13AG00000500000000001236515000000000000001500000000000000000000000003006Z01620200407X066000000
1MAIL0000152355BR10        BRNC        BRNCCOCO    BRNCCOCO13AG2020040700:00:00OR  010000029211700002921170152355                             2020040720200407Z016CIF202004070000000000027805NN0                                                  0                                        
2MAIL0000152355BR10        BRNC        BRNCCOCO    BRNCCOCO13AG00000100000000001132033100000000000000100000000000000000000000002291Z01620200407X066000000
2MAIL0000152355BR10        BRNC        BRNCCOCO    BRNCCOCO13AG00000200000000001132036700000000000000300000000000000000000000006872Z01620200407X066000000
2MAIL0000152355BR10        BRNC        BRNCCOCO    BRNCCOCO13AG00000300000000001215533700000000000000200000000000000000000000004581Z01620200407X066000000
2MAIL0000152355BR10        BRNC        BRNCCOCO    BRNCCOCO13AG00000400000000001227395500000000000000100000000000000000000000002291Z01620200407X066000000
2MAIL0000152355BR10        BRNC        BRNCCOCO    BRNCCOCO13AG00000500000000001239688600000000000001400000000000000000000000005885Z01620200407X066000000
2MAIL0000152355BR10        BRNC        BRNCCOCO    BRNCCOCO13AG00000600000000001239688800000000000001400000000000000000000000005885Z01620200407X066000000
1MAIL0000152356BR10        BRNC        BRNCCOCO    BRNCCOCO13AG2020040700:00:00OR  010000060888400006088840152356                             2020040720200407Z016CIF202004070000000000015024NN0                                                  0                                        
2MAIL0000152356BR10        BRNC        BRNCCOCO    BRNCCOCO13AG00000100000000001132019800000000000000100000000000000000000000002076Z01620200407X066000000
2MAIL0000152356BR10        BRNC        BRNCCOCO    BRNCCOCO13AG00000200000000001132033100000000000000100000000000000000000000002291Z01620200407X066000000
2MAIL0000152356BR10        BRNC        BRNCCOCO    BRNCCOCO13AG00000300000000001132036700000000000000100000000000000000000000002291Z01620200407X066000000
2MAIL0000152356BR10        BRNC        BRNCCOCO    BRNCCOCO13AG00000400000000001239688800000000000001400000000000000000000000005885Z01620200407X066000000
2MAIL0000152356BR10        BRNC        BRNCCOCO    BRNCCOCO13AG00000500000000001241623700000000000000100000000000000000000000002481Z01620200407X066000000
1MAIL0000152357BR10        BRNC        BRNCCOCO    BRNCCOCO13AG2020040700:00:00OR  010000059140020005914002152357                             2020040720200407Z016CIF202004070000000000009243NN0                                                  0                                        
2MAIL0000152357BR10        BRNC        BRNCCOCO    BRNCCOCO13AG00000100000000001132019800000000000000100000000000000000000000001498Z01620200407X066000000
2MAIL0000152357BR10        BRNC        BRNCCOCO    BRNCCOCO13AG00000200000000001132033100000000000000100000000000000000000000001654Z01620200407X066000000
2MAIL0000152357BR10        BRNC        BRNCCOCO    BRNCCOCO13AG00000300000000001132036700000000000000100000000000000000000000001654Z01620200407X066000000
2MAIL0000152357BR10        BRNC        BRNCCOCO    BRNCCOCO13AG00000400000000001231231200000000000000100000000000000000000000004437Z01620200407X066000000
1MAIL0000152358BR10        BRNC        BRNCCOCO    BRNCCOCO13AG2020040700:00:00OR  010000059140150005914015152358                             2020040720200407Z016CIF202004070000000000058033NN0                                                  0                                        
2MAIL0000152358BR10        BRNC        BRNCCOCO    BRNCCOCO13AG00000100000000001132019800000000000000100000000000000000000000002076Z01620200407X066000000
2MAIL0000152358BR10        BRNC        BRNCCOCO    BRNCCOCO13AG00000200000000001132033100000000000000200000000000000000000000004581Z01620200407X066000000
2MAIL0000152358BR10        BRNC        BRNCCOCO    BRNCCOCO13AG00000300000000001132036700000000000000500000000000000000000000011454Z01620200407X066000000
2MAIL0000152358BR10        BRNC        BRNCCOCO    BRNCCOCO13AG00000400000000001236512900000000000002000000000000000000000000004008Z01620200407X066000000
2MAIL0000152358BR10        BRNC        BRNCCOCO    BRNCCOCO13AG00000500000000001236515000000000000002000000000000000000000000004008Z01620200407X066000000
2MAIL0000152358BR10        BRNC        BRNCCOCO    BRNCCOCO13AG00000600000000001239688300000000000001400000000000000000000000005885Z01620200407X066000000
2MAIL0000152358BR10        BRNC        BRNCCOCO    BRNCCOCO13AG00000700000000001239688600000000000001400000000000000000000000005885Z01620200407X066000000
2MAIL0000152358BR10        BRNC        BRNCCOCO    BRNCCOCO13AG00000800000000001239688700000000000001400000000000000000000000005885Z01620200407X066000000
2MAIL0000152358BR10        BRNC        BRNCCOCO    BRNCCOCO13AG00000900000000001239688800000000000001400000000000000000000000005885Z01620200407X066000000
2MAIL0000152358BR10        BRNC        BRNCCOCO    BRNCCOCO13AG00001000000000001239692000000000000001400000000000000000000000005885Z01620200407X066000000
2MAIL0000152358BR10        BRNC        BRNCCOCO    BRNCCOCO13AG00001100000000001241623700000000000000100000000000000000000000002481Z01620200407X066000000
