1MAIL0000150400BR10        BRNC        BRNCCOCO    BRNCCOCO13AG2020031900:00:00OR  010000029803360002980336150400                             2020031920200319Z016CIF202003190000000000037536NN0                                                  0                                        
2MAIL0000150400BR10        BRNC        BRNCCOCO    BRNCCOCO13AG00000100000000001132033100000000000000200000000000000000000000004345Z01620200319X066000000
2MAIL0000150400BR10        BRNC        BRNCCOCO    BRNCCOCO13AG00000200000000001132036700000000000000300000000000000000000000006518Z01620200319X066000000
2MAIL0000150400BR10        BRNC        BRNCCOCO    BRNCCOCO13AG00000300000000001215533700000000000000200000000000000000000000004345Z01620200319X066000000
2MAIL0000150400BR10        BRNC        BRNCCOCO    BRNCCOCO13AG00000400000000001239663300000000000001400000000000000000000000005582Z01620200319X066000000
2MAIL0000150400BR10        BRNC        BRNCCOCO    BRNCCOCO13AG00000500000000001239688700000000000001400000000000000000000000005582Z01620200319X066000000
2MAIL0000150400BR10        BRNC        BRNCCOCO    BRNCCOCO13AG00000600000000001239688800000000000001400000000000000000000000005582Z01620200319X066000000
2MAIL0000150400BR10        BRNC        BRNCCOCO    BRNCCOCO13AG00000700000000001239692100000000000001400000000000000000000000005582Z01620200319X066000000
