1MAIL0000153223BR10        BRNC        BRNCCOCO    BRNCCOCO13AG2020041400:00:00OR  010000060516880006051688153223                             2020041420200414Z016CIF202004140000000000067972NN0                                                  0                                        
2MAIL0000153223BR10        BRNC        BRNCCOCO    BRNCCOCO13AG00000100000000001132018300000000000000100000000000000000000000002682Z01620200414X066000000
2MAIL0000153223BR10        BRNC        BRNCCOCO    BRNCCOCO13AG00000200000000001132019800000000000000100000000000000000000000001498Z01620200414X066000000
2MAIL0000153223BR10        BRNC        BRNCCOCO    BRNCCOCO13AG00000300000000001132200400000000000000100000000000000000000000002115Z01620200414X066000000
2MAIL0000153223BR10        BRNC        BRNCCOCO    BRNCCOCO13AG00000400000000001221415400000000000000100000000000000000000000002682Z01620200414X066000000
2MAIL0000153223BR10        BRNC        BRNCCOCO    BRNCCOCO13AG00000500000000001236515000000000000000500000000000000000000000000956Z01620200414X066000000
2MAIL0000153223BR10        BRNC        BRNCCOCO    BRNCCOCO13AG00000600000000001239688600000000000001400000000000000000000000004684Z01620200414X066000000
2MAIL0000153223BR10        BRNC        BRNCCOCO    BRNCCOCO13AG00000700000000001239688800000000000001400000000000000000000000004684Z01620200414X066000000
2MAIL0000153223BR10        BRNC        BRNCCOCO    BRNCCOCO13AG00000800000000001241577400000000000003000000000000000000000000022748Z01620200414X066000000
2MAIL0000153223BR10        BRNC        BRNCCOCO    BRNCCOCO13AG00000900000000001241623700000000000001000000000000000000000000025923Z01620200414X066000000
1MAIL0000153224BR10        BRNC        BRNCCOCO    BRNCCOCO13AG2020041400:00:00OR  010000037557040003755704153224                             2020041420200414Z016CIF202004140000000000068477NN0                                                  0                                        
2MAIL0000153224BR10        BRNC        BRNCCOCO    BRNCCOCO13AG00000100000000001132033100000000000000100000000000000000000000002291Z01620200414X066000000
2MAIL0000153224BR10        BRNC        BRNCCOCO    BRNCCOCO13AG00000200000000001132036700000000000000100000000000000000000000002291Z01620200414X066000000
2MAIL0000153224BR10        BRNC        BRNCCOCO    BRNCCOCO13AG00000300000000001226089600000000000001200000000000000000000000005045Z01620200414X066000000
2MAIL0000153224BR10        BRNC        BRNCCOCO    BRNCCOCO13AG00000400000000001239663300000000000001400000000000000000000000005885Z01620200414X066000000
2MAIL0000153224BR10        BRNC        BRNCCOCO    BRNCCOCO13AG00000500000000001239688300000000000001400000000000000000000000005885Z01620200414X066000000
2MAIL0000153224BR10        BRNC        BRNCCOCO    BRNCCOCO13AG00000600000000001239688500000000000001400000000000000000000000005885Z01620200414X066000000
2MAIL0000153224BR10        BRNC        BRNCCOCO    BRNCCOCO13AG00000700000000001239688600000000000002800000000000000000000000011770Z01620200414X066000000
2MAIL0000153224BR10        BRNC        BRNCCOCO    BRNCCOCO13AG00000800000000001239688700000000000001400000000000000000000000005885Z01620200414X066000000
2MAIL0000153224BR10        BRNC        BRNCCOCO    BRNCCOCO13AG00000900000000001239688800000000000002800000000000000000000000011770Z01620200414X066000000
2MAIL0000153224BR10        BRNC        BRNCCOCO    BRNCCOCO13AG00001000000000001239692000000000000001400000000000000000000000005885Z01620200414X066000000
2MAIL0000153224BR10        BRNC        BRNCCOCO    BRNCCOCO13AG00001100000000001239692300000000000001400000000000000000000000005885Z01620200414X066000000
1MAIL0000153225BR10        BRNC        BRNCCOCO    BRNCCOCO13AG2020041400:00:00OR  010000028994980002899498153225                             2020041420200414Z079CIF202004140000000000110837NN0                                                  0                                        
2MAIL0000153225BR10        BRNC        BRNCCOCO    BRNCCOCO13AG00000100000000001132036700000000000001600000000000000000000000034858Z07920200414X066000000
2MAIL0000153225BR10        BRNC        BRNCCOCO    BRNCCOCO13AG00000200000000001132200400000000000000500000000000000000000000010603Z07920200414X066000000
2MAIL0000153225BR10        BRNC        BRNCCOCO    BRNCCOCO13AG00000300000000001215533700000000000001600000000000000000000000034858Z07920200414X066000000
2MAIL0000153225BR10        BRNC        BRNCCOCO    BRNCCOCO13AG00000400000000001227395500000000000000500000000000000000000000010894Z07920200414X066000000
2MAIL0000153225BR10        BRNC        BRNCCOCO    BRNCCOCO13AG00000500000000001236512800000000000001200000000000000000000000002071Z07920200414X066000000
2MAIL0000153225BR10        BRNC        BRNCCOCO    BRNCCOCO13AG00000600000000001240924900000000000001200000000000000000000000001997Z07920200414X066000000
2MAIL0000153225BR10        BRNC        BRNCCOCO    BRNCCOCO13AG00000700000000001241623700000000000000600000000000000000000000015556Z07920200414X066000000
1MAIL0000153226BR10        BRNC        BRNCCOCO    BRNCCOCO13AG2020041400:00:00OR  010000050978130005097813153226                             2020041420200414Z016CIF202004140000000000070616NN0                                                  0                                        
2MAIL0000153226BR10        BRNC        BRNCCOCO    BRNCCOCO13AG00000100000000001239688300000000000002800000000000000000000000011770Z01620200414X066000000
2MAIL0000153226BR10        BRNC        BRNCCOCO    BRNCCOCO13AG00000200000000001239688500000000000001400000000000000000000000005885Z01620200414X066000000
2MAIL0000153226BR10        BRNC        BRNCCOCO    BRNCCOCO13AG00000300000000001239688600000000000005600000000000000000000000023538Z01620200414X066000000
2MAIL0000153226BR10        BRNC        BRNCCOCO    BRNCCOCO13AG00000400000000001239688700000000000001400000000000000000000000005885Z01620200414X066000000
2MAIL0000153226BR10        BRNC        BRNCCOCO    BRNCCOCO13AG00000500000000001239688800000000000005600000000000000000000000023538Z01620200414X066000000
1MAIL0000153227BR10        BRNC        BRNCCOCO    BRNCCOCO13AG2020041400:00:00OR  010000054428410005442841153227                             2020041420200414Z016CIF202004140000000000010908NN0                                                  0                                        
2MAIL0000153227BR10        BRNC        BRNCCOCO    BRNCCOCO13AG00000100000000001236512900000000000003000000000000000000000000005454Z01620200414X066000000
2MAIL0000153227BR10        BRNC        BRNCCOCO    BRNCCOCO13AG00000200000000001236515000000000000003000000000000000000000000005454Z01620200414X066000000
1MAIL0000153228BR10        BRNC        BRNCCOCO    BRNCCOCO13AG2020041400:00:00OR  010000058570130005857013153228                             2020041420200414Z016CIF202004140000000000009368NN0                                                  0                                        
2MAIL0000153228BR10        BRNC        BRNCCOCO    BRNCCOCO13AG00000100000000001239688600000000000001400000000000000000000000004684Z01620200414X066000000
2MAIL0000153228BR10        BRNC        BRNCCOCO    BRNCCOCO13AG00000200000000001239688800000000000001400000000000000000000000004684Z01620200414X066000000
1MAIL0000153230BR10        BRNC        BRNCCOCO    BRNCCOCO13AG2020041400:00:00OR  010000061776350006177635153230                             2020041420200414Z016CIF202004140000000000011824NN0                                                  0                                        
2MAIL0000153230BR10        BRNC        BRNCCOCO    BRNCCOCO13AG00000100000000001132033100000000000000100000000000000000000000002125Z01620200414X066000000
2MAIL0000153230BR10        BRNC        BRNCCOCO    BRNCCOCO13AG00000200000000001132036700000000000000100000000000000000000000002125Z01620200414X066000000
2MAIL0000153230BR10        BRNC        BRNCCOCO    BRNCCOCO13AG00000300000000001132200400000000000000100000000000000000000000002115Z01620200414X066000000
2MAIL0000153230BR10        BRNC        BRNCCOCO    BRNCCOCO13AG00000400000000001239688800000000000001400000000000000000000000005459Z01620200414X066000000
