1MAIL0000153116BR10        BRNC        BRNCCOCO    BRNCCOCO13AG2020041400:00:00OR  010000056897760005689776153116                             2020041420200414Z016CIF202004140000000000063360NN0                                                  0                                        
2MAIL0000153116BR10        BRNC        BRNCCOCO    BRNCCOCO13AG00000100000000001132033100000000000000300000000000000000000000005237Z01620200414X066000000
2MAIL0000153116BR10        BRNC        BRNCCOCO    BRNCCOCO13AG00000200000000001132036700000000000000300000000000000000000000005237Z01620200414X066000000
2MAIL0000153116BR10        BRNC        BRNCCOCO    BRNCCOCO13AG00000300000000001215533700000000000000300000000000000000000000005237Z01620200414X066000000
2MAIL0000153116BR10        BRNC        BRNCCOCO    BRNCCOCO13AG00000400000000001226089600000000000001200000000000000000000000003830Z01620200414X066000000
2MAIL0000153116BR10        BRNC        BRNCCOCO    BRNCCOCO13AG00000500000000001236512900000000000007000000000000000000000000011017Z01620200414X066000000
2MAIL0000153116BR10        BRNC        BRNCCOCO    BRNCCOCO13AG00000600000000001236515000000000000007000000000000000000000000011017Z01620200414X066000000
2MAIL0000153116BR10        BRNC        BRNCCOCO    BRNCCOCO13AG00000700000000001236898000000000000000300000000000000000000000005237Z01620200414X066000000
2MAIL0000153116BR10        BRNC        BRNCCOCO    BRNCCOCO13AG00000800000000001236898100000000000000300000000000000000000000007610Z01620200414X066000000
2MAIL0000153116BR10        BRNC        BRNCCOCO    BRNCCOCO13AG00000900000000001239688300000000000001400000000000000000000000004469Z01620200414X066000000
2MAIL0000153116BR10        BRNC        BRNCCOCO    BRNCCOCO13AG00001000000000001239688700000000000001400000000000000000000000004469Z01620200414X066000000
1MAIL0000153117BR10        BRNC        BRNCCOCO    BRNCCOCO13AG2020041400:00:00OR  010000032040390003204039153117                             2020041420200414Z016CIF202004140000000000014428NN0                                                  0                                        
2MAIL0000153117BR10        BRNC        BRNCCOCO    BRNCCOCO13AG00000100000000001241577400000000000001500000000000000000000000014428Z01620200414X066000000
1MAIL0000153118BR10        BRNC        BRNCCOCO    BRNCCOCO13AG2020041400:00:00OR  010000032016970003201697153118                             2020041420200414Z016CIF202004140000000000148374NN0                                                  0                                        
2MAIL0000153118BR10        BRNC        BRNCCOCO    BRNCCOCO13AG00000100000000001223975300000000000000100000000000000000000000005076Z01620200414X066000000
2MAIL0000153118BR10        BRNC        BRNCCOCO    BRNCCOCO13AG00000200000000001226089600000000000001200000000000000000000000004580Z01620200414X066000000
2MAIL0000153118BR10        BRNC        BRNCCOCO    BRNCCOCO13AG00000300000000001228274000000000000000100000000000000000000000005076Z01620200414X066000000
2MAIL0000153118BR10        BRNC        BRNCCOCO    BRNCCOCO13AG00000400000000001228512700000000000000100000000000000000000000005076Z01620200414X066000000
2MAIL0000153118BR10        BRNC        BRNCCOCO    BRNCCOCO13AG00000500000000001231189200000000000000100000000000000000000000005076Z01620200414X066000000
2MAIL0000153118BR10        BRNC        BRNCCOCO    BRNCCOCO13AG00000600000000001231231200000000000000100000000000000000000000005076Z01620200414X066000000
2MAIL0000153118BR10        BRNC        BRNCCOCO    BRNCCOCO13AG00000700000000001231233000000000000000100000000000000000000000005076Z01620200414X066000000
2MAIL0000153118BR10        BRNC        BRNCCOCO    BRNCCOCO13AG00000800000000001234705700000000000000100000000000000000000000005076Z01620200414X066000000
2MAIL0000153118BR10        BRNC        BRNCCOCO    BRNCCOCO13AG00000900000000001234705800000000000000100000000000000000000000005076Z01620200414X066000000
2MAIL0000153118BR10        BRNC        BRNCCOCO    BRNCCOCO13AG00001000000000001234705900000000000000100000000000000000000000005076Z01620200414X066000000
2MAIL0000153118BR10        BRNC        BRNCCOCO    BRNCCOCO13AG00001100000000001235699400000000000001000000000000000000000000003825Z01620200414X066000000
2MAIL0000153118BR10        BRNC        BRNCCOCO    BRNCCOCO13AG00001200000000001238083500000000000000100000000000000000000000005076Z01620200414X066000000
2MAIL0000153118BR10        BRNC        BRNCCOCO    BRNCCOCO13AG00001300000000001239373400000000000000100000000000000000000000006340Z01620200414X066000000
2MAIL0000153118BR10        BRNC        BRNCCOCO    BRNCCOCO13AG00001400000000001239373500000000000000100000000000000000000000006340Z01620200414X066000000
2MAIL0000153118BR10        BRNC        BRNCCOCO    BRNCCOCO13AG00001500000000001239373600000000000000100000000000000000000000006340Z01620200414X066000000
2MAIL0000153118BR10        BRNC        BRNCCOCO    BRNCCOCO13AG00001600000000001239373700000000000000100000000000000000000000006340Z01620200414X066000000
2MAIL0000153118BR10        BRNC        BRNCCOCO    BRNCCOCO13AG00001700000000001239663300000000000001400000000000000000000000005343Z01620200414X066000000
2MAIL0000153118BR10        BRNC        BRNCCOCO    BRNCCOCO13AG00001800000000001239688300000000000001400000000000000000000000005343Z01620200414X066000000
2MAIL0000153118BR10        BRNC        BRNCCOCO    BRNCCOCO13AG00001900000000001239688500000000000001400000000000000000000000005343Z01620200414X066000000
2MAIL0000153118BR10        BRNC        BRNCCOCO    BRNCCOCO13AG00002000000000001239688600000000000001400000000000000000000000005343Z01620200414X066000000
2MAIL0000153118BR10        BRNC        BRNCCOCO    BRNCCOCO13AG00002100000000001239688700000000000001400000000000000000000000005343Z01620200414X066000000
2MAIL0000153118BR10        BRNC        BRNCCOCO    BRNCCOCO13AG00002200000000001239688800000000000001400000000000000000000000005343Z01620200414X066000000
2MAIL0000153118BR10        BRNC        BRNCCOCO    BRNCCOCO13AG00002300000000001239692000000000000001400000000000000000000000005343Z01620200414X066000000
2MAIL0000153118BR10        BRNC        BRNCCOCO    BRNCCOCO13AG00002400000000001239692300000000000001400000000000000000000000005343Z01620200414X066000000
2MAIL0000153118BR10        BRNC        BRNCCOCO    BRNCCOCO13AG00002500000000001242374800000000000000100000000000000000000000005076Z01620200414X066000000
2MAIL0000153118BR10        BRNC        BRNCCOCO    BRNCCOCO13AG00002600000000001242626100000000000001400000000000000000000000005343Z01620200414X066000000
2MAIL0000153118BR10        BRNC        BRNCCOCO    BRNCCOCO13AG00002700000000001242754900000000000001400000000000000000000000005343Z01620200414X066000000
2MAIL0000153118BR10        BRNC        BRNCCOCO    BRNCCOCO13AG00002800000000001242765000000000000001400000000000000000000000005343Z01620200414X066000000
1MAIL0000153119BR10        BRNC        BRNCCOCO    BRNCCOCO13AG2020041400:00:00OR  010000053317190005331719153119                             2020041420200414Z016CIF202004140000000000020068NN0                                                  0                                        
2MAIL0000153119BR10        BRNC        BRNCCOCO    BRNCCOCO13AG00000100000000001132033100000000000000100000000000000000000000001654Z01620200414X066000000
2MAIL0000153119BR10        BRNC        BRNCCOCO    BRNCCOCO13AG00000200000000001132036700000000000000100000000000000000000000001654Z01620200414X066000000
2MAIL0000153119BR10        BRNC        BRNCCOCO    BRNCCOCO13AG00000300000000001215533700000000000000100000000000000000000000001654Z01620200414X066000000
2MAIL0000153119BR10        BRNC        BRNCCOCO    BRNCCOCO13AG00000400000000001236512900000000000001500000000000000000000000002869Z01620200414X066000000
2MAIL0000153119BR10        BRNC        BRNCCOCO    BRNCCOCO13AG00000500000000001236515000000000000001500000000000000000000000002869Z01620200414X066000000
2MAIL0000153119BR10        BRNC        BRNCCOCO    BRNCCOCO13AG00000600000000001239688800000000000001400000000000000000000000004684Z01620200414X066000000
2MAIL0000153119BR10        BRNC        BRNCCOCO    BRNCCOCO13AG00000700000000001239692300000000000001400000000000000000000000004684Z01620200414X066000000
1MAIL0000153120BR10        BRNC        BRNCCOCO    BRNCCOCO13AG2020041400:00:00OR  010000060784870006078487153120                             2020041420200414Z016CIF202004140000000000059918NN0                                                  0                                        
2MAIL0000153120BR10        BRNC        BRNCCOCO    BRNCCOCO13AG00000100000000001132036700000000000000100000000000000000000000001654Z01620200414X066000000
2MAIL0000153120BR10        BRNC        BRNCCOCO    BRNCCOCO13AG00000200000000001132200400000000000000200000000000000000000000004230Z01620200414X066000000
2MAIL0000153120BR10        BRNC        BRNCCOCO    BRNCCOCO13AG00000300000000001235699400000000000001000000000000000000000000003352Z01620200414X066000000
2MAIL0000153120BR10        BRNC        BRNCCOCO    BRNCCOCO13AG00000400000000001241577400000000000006000000000000000000000000045498Z01620200414X066000000
2MAIL0000153120BR10        BRNC        BRNCCOCO    BRNCCOCO13AG00000500000000001241623700000000000000200000000000000000000000005184Z01620200414X066000000
1MAIL0000153121BR10        BRNC        BRNCCOCO    BRNCCOCO13AG2020041400:00:00OR  010000056655610005665561153121                             2020041420200414Z016CIF202004140000000000018736NN0                                                  0                                        
2MAIL0000153121BR10        BRNC        BRNCCOCO    BRNCCOCO13AG00000100000000001239663300000000000001400000000000000000000000004684Z01620200414X066000000
2MAIL0000153121BR10        BRNC        BRNCCOCO    BRNCCOCO13AG00000200000000001239688500000000000001400000000000000000000000004684Z01620200414X066000000
2MAIL0000153121BR10        BRNC        BRNCCOCO    BRNCCOCO13AG00000300000000001239688600000000000001400000000000000000000000004684Z01620200414X066000000
2MAIL0000153121BR10        BRNC        BRNCCOCO    BRNCCOCO13AG00000400000000001239688800000000000001400000000000000000000000004684Z01620200414X066000000
1MAIL0000153122BR10        BRNC        BRNCCOCO    BRNCCOCO13AG2020041400:00:00OR  010000053185910005318591153122                             2020041420200414Z016CIF202004140000000000036918NN0                                                  0                                        
2MAIL0000153122BR10        BRNC        BRNCCOCO    BRNCCOCO13AG00000100000000001132033100000000000000100000000000000000000000002291Z01620200414X066000000
2MAIL0000153122BR10        BRNC        BRNCCOCO    BRNCCOCO13AG00000200000000001132036700000000000000100000000000000000000000002291Z01620200414X066000000
2MAIL0000153122BR10        BRNC        BRNCCOCO    BRNCCOCO13AG00000300000000001236512900000000000000500000000000000000000000001002Z01620200414X066000000
2MAIL0000153122BR10        BRNC        BRNCCOCO    BRNCCOCO13AG00000400000000001241577400000000000003000000000000000000000000028853Z01620200414X066000000
2MAIL0000153122BR10        BRNC        BRNCCOCO    BRNCCOCO13AG00000500000000001241623700000000000000100000000000000000000000002481Z01620200414X066000000
1MAIL0000153123BR10        BRNC        BRNCCOCO    BRNCCOCO13AG2020041400:00:00OR  010000058558160005855816153123                             2020041420200414Z016CIF202004140000000000022376NN0                                                  0                                        
2MAIL0000153123BR10        BRNC        BRNCCOCO    BRNCCOCO13AG00000100000000001132033100000000000000100000000000000000000000002291Z01620200414X066000000
2MAIL0000153123BR10        BRNC        BRNCCOCO    BRNCCOCO13AG00000200000000001132036700000000000000100000000000000000000000002291Z01620200414X066000000
2MAIL0000153123BR10        BRNC        BRNCCOCO    BRNCCOCO13AG00000300000000001215533700000000000000100000000000000000000000002291Z01620200414X066000000
2MAIL0000153123BR10        BRNC        BRNCCOCO    BRNCCOCO13AG00000400000000001239688800000000000001400000000000000000000000005885Z01620200414X066000000
2MAIL0000153123BR10        BRNC        BRNCCOCO    BRNCCOCO13AG00000500000000001241577400000000000001000000000000000000000000009618Z01620200414X066000000
1MAIL0000153124BR10        BRNC        BRNCCOCO    BRNCCOCO13AG2020041400:00:00OR  010000043457690004345769153124                             2020041420200414Z016CIF202004140000000000048250NN0                                                  0                                        
2MAIL0000153124BR10        BRNC        BRNCCOCO    BRNCCOCO13AG00000100000000001132033100000000000000100000000000000000000000002291Z01620200414X066000000
2MAIL0000153124BR10        BRNC        BRNCCOCO    BRNCCOCO13AG00000200000000001132036700000000000000200000000000000000000000004581Z01620200414X066000000
2MAIL0000153124BR10        BRNC        BRNCCOCO    BRNCCOCO13AG00000300000000001215533700000000000000100000000000000000000000002291Z01620200414X066000000
2MAIL0000153124BR10        BRNC        BRNCCOCO    BRNCCOCO13AG00000400000000001223975300000000000000100000000000000000000000005568Z01620200414X066000000
2MAIL0000153124BR10        BRNC        BRNCCOCO    BRNCCOCO13AG00000500000000001226089600000000000001200000000000000000000000005045Z01620200414X066000000
2MAIL0000153124BR10        BRNC        BRNCCOCO    BRNCCOCO13AG00000600000000001228512700000000000000100000000000000000000000005568Z01620200414X066000000
2MAIL0000153124BR10        BRNC        BRNCCOCO    BRNCCOCO13AG00000700000000001231231200000000000000100000000000000000000000005568Z01620200414X066000000
2MAIL0000153124BR10        BRNC        BRNCCOCO    BRNCCOCO13AG00000800000000001231233000000000000000100000000000000000000000005568Z01620200414X066000000
2MAIL0000153124BR10        BRNC        BRNCCOCO    BRNCCOCO13AG00000900000000001239688600000000000001400000000000000000000000005885Z01620200414X066000000
2MAIL0000153124BR10        BRNC        BRNCCOCO    BRNCCOCO13AG00001000000000001239688800000000000001400000000000000000000000005885Z01620200414X066000000
1MAIL0000153125BR10        BRNC        BRNCCOCO    BRNCCOCO13AG2020041400:00:00OR  010000061689690006168969153125                             2020041420200414Z016CIF202004140000000000006785NN0                                                  0                                        
2MAIL0000153125BR10        BRNC        BRNCCOCO    BRNCCOCO13AG00000100000000001132033100000000000000100000000000000000000000002125Z01620200414X066000000
2MAIL0000153125BR10        BRNC        BRNCCOCO    BRNCCOCO13AG00000200000000001132036700000000000000100000000000000000000000002125Z01620200414X066000000
2MAIL0000153125BR10        BRNC        BRNCCOCO    BRNCCOCO13AG00000300000000001241623700000000000000100000000000000000000000002535Z01620200414X066000000
1MAIL0000153126BR10        BRNC        BRNCCOCO    BRNCCOCO13AG2020041400:00:00OR  010000060637520006063752153126                             2020041420200414Z016CIF202004140000000000146746NN0                                                  0                                        
2MAIL0000153126BR10        BRNC        BRNCCOCO    BRNCCOCO13AG00000100000000001132018300000000000000200000000000000000000000004974Z01620200414X066000000
2MAIL0000153126BR10        BRNC        BRNCCOCO    BRNCCOCO13AG00000200000000001132019700000000000000200000000000000000000000002790Z01620200414X066000000
2MAIL0000153126BR10        BRNC        BRNCCOCO    BRNCCOCO13AG00000300000000001132019800000000000000300000000000000000000000004185Z01620200414X066000000
2MAIL0000153126BR10        BRNC        BRNCCOCO    BRNCCOCO13AG00000400000000001132019900000000000000200000000000000000000000002790Z01620200414X066000000
2MAIL0000153126BR10        BRNC        BRNCCOCO    BRNCCOCO13AG00000500000000001132020900000000000000200000000000000000000000002790Z01620200414X066000000
2MAIL0000153126BR10        BRNC        BRNCCOCO    BRNCCOCO13AG00000600000000001132200400000000000000400000000000000000000000006897Z01620200414X066000000
2MAIL0000153126BR10        BRNC        BRNCCOCO    BRNCCOCO13AG00000700000000001215533700000000000000200000000000000000000000003063Z01620200414X066000000
2MAIL0000153126BR10        BRNC        BRNCCOCO    BRNCCOCO13AG00000800000000001223975300000000000000100000000000000000000000003710Z01620200414X066000000
2MAIL0000153126BR10        BRNC        BRNCCOCO    BRNCCOCO13AG00000900000000001226089600000000000002400000000000000000000000006673Z01620200414X066000000
2MAIL0000153126BR10        BRNC        BRNCCOCO    BRNCCOCO13AG00001000000000001227395500000000000000200000000000000000000000003063Z01620200414X066000000
2MAIL0000153126BR10        BRNC        BRNCCOCO    BRNCCOCO13AG00001100000000001227735000000000000000200000000000000000000000002790Z01620200414X066000000
2MAIL0000153126BR10        BRNC        BRNCCOCO    BRNCCOCO13AG00001200000000001228274000000000000000100000000000000000000000003710Z01620200414X066000000
2MAIL0000153126BR10        BRNC        BRNCCOCO    BRNCCOCO13AG00001300000000001228512700000000000000100000000000000000000000003710Z01620200414X066000000
2MAIL0000153126BR10        BRNC        BRNCCOCO    BRNCCOCO13AG00001400000000001231189200000000000000100000000000000000000000003710Z01620200414X066000000
2MAIL0000153126BR10        BRNC        BRNCCOCO    BRNCCOCO13AG00001500000000001231231200000000000000100000000000000000000000003710Z01620200414X066000000
2MAIL0000153126BR10        BRNC        BRNCCOCO    BRNCCOCO13AG00001600000000001231233000000000000000100000000000000000000000003710Z01620200414X066000000
2MAIL0000153126BR10        BRNC        BRNCCOCO    BRNCCOCO13AG00001700000000001231389600000000000000200000000000000000000000003063Z01620200414X066000000
2MAIL0000153126BR10        BRNC        BRNCCOCO    BRNCCOCO13AG00001800000000001235699400000000000002000000000000000000000000005573Z01620200414X066000000
2MAIL0000153126BR10        BRNC        BRNCCOCO    BRNCCOCO13AG00001900000000001236512800000000000000800000000000000000000000001027Z01620200414X066000000
2MAIL0000153126BR10        BRNC        BRNCCOCO    BRNCCOCO13AG00002000000000001236512900000000000000500000000000000000000000000560Z01620200414X066000000
2MAIL0000153126BR10        BRNC        BRNCCOCO    BRNCCOCO13AG00002100000000001236515000000000000001000000000000000000000000001120Z01620200414X066000000
2MAIL0000153126BR10        BRNC        BRNCCOCO    BRNCCOCO13AG00002200000000001236898000000000000000200000000000000000000000003063Z01620200414X066000000
2MAIL0000153126BR10        BRNC        BRNCCOCO    BRNCCOCO13AG00002300000000001239663300000000000002800000000000000000000000007785Z01620200414X066000000
2MAIL0000153126BR10        BRNC        BRNCCOCO    BRNCCOCO13AG00002400000000001239688300000000000002800000000000000000000000007785Z01620200414X066000000
2MAIL0000153126BR10        BRNC        BRNCCOCO    BRNCCOCO13AG00002500000000001239688500000000000002800000000000000000000000007785Z01620200414X066000000
2MAIL0000153126BR10        BRNC        BRNCCOCO    BRNCCOCO13AG00002600000000001239688600000000000002800000000000000000000000007785Z01620200414X066000000
2MAIL0000153126BR10        BRNC        BRNCCOCO    BRNCCOCO13AG00002700000000001239688700000000000002800000000000000000000000007785Z01620200414X066000000
2MAIL0000153126BR10        BRNC        BRNCCOCO    BRNCCOCO13AG00002800000000001239688800000000000002800000000000000000000000007785Z01620200414X066000000
2MAIL0000153126BR10        BRNC        BRNCCOCO    BRNCCOCO13AG00002900000000001239692000000000000002800000000000000000000000007785Z01620200414X066000000
2MAIL0000153126BR10        BRNC        BRNCCOCO    BRNCCOCO13AG00003000000000001239692300000000000002800000000000000000000000007785Z01620200414X066000000
2MAIL0000153126BR10        BRNC        BRNCCOCO    BRNCCOCO13AG00003100000000001242765000000000000002800000000000000000000000007785Z01620200414X066000000
1MAIL0000153127BR10        BRNC        BRNCCOCO    BRNCCOCO13AG2020041400:00:00OR  010000061132040006113204153127                             2020041420200414Z009CIF202004140000000000137635NN0                                                  0                                        
2MAIL0000153127BR10        BRNC        BRNCCOCO    BRNCCOCO13AG00000100000000001132004000000000000001000000000000000000000000009289Z00920200414X066000000
2MAIL0000153127BR10        BRNC        BRNCCOCO    BRNCCOCO13AG00000200000000001132004200000000000000500000000000000000000000007048Z00920200414X066000000
2MAIL0000153127BR10        BRNC        BRNCCOCO    BRNCCOCO13AG00000300000000001132018300000000000000100000000000000000000000002455Z00920200414X066000000
2MAIL0000153127BR10        BRNC        BRNCCOCO    BRNCCOCO13AG00000400000000001132019700000000000000100000000000000000000000001388Z00920200414X066000000
2MAIL0000153127BR10        BRNC        BRNCCOCO    BRNCCOCO13AG00000500000000001132019800000000000000200000000000000000000000002775Z00920200414X066000000
2MAIL0000153127BR10        BRNC        BRNCCOCO    BRNCCOCO13AG00000600000000001132019900000000000000100000000000000000000000001388Z00920200414X066000000
2MAIL0000153127BR10        BRNC        BRNCCOCO    BRNCCOCO13AG00000700000000001132020900000000000000100000000000000000000000001388Z00920200414X066000000
2MAIL0000153127BR10        BRNC        BRNCCOCO    BRNCCOCO13AG00000800000000001132200400000000000000100000000000000000000000001714Z00920200414X066000000
2MAIL0000153127BR10        BRNC        BRNCCOCO    BRNCCOCO13AG00000900000000001221415400000000000000200000000000000000000000004910Z00920200414X066000000
2MAIL0000153127BR10        BRNC        BRNCCOCO    BRNCCOCO13AG00001000000000001223975300000000000000100000000000000000000000003889Z00920200414X066000000
2MAIL0000153127BR10        BRNC        BRNCCOCO    BRNCCOCO13AG00001100000000001226089600000000000002400000000000000000000000007002Z00920200414X066000000
2MAIL0000153127BR10        BRNC        BRNCCOCO    BRNCCOCO13AG00001200000000001227395500000000000000500000000000000000000000007614Z00920200414X066000000
2MAIL0000153127BR10        BRNC        BRNCCOCO    BRNCCOCO13AG00001300000000001227735000000000000000100000000000000000000000001388Z00920200414X066000000
2MAIL0000153127BR10        BRNC        BRNCCOCO    BRNCCOCO13AG00001400000000001228274000000000000000100000000000000000000000003889Z00920200414X066000000
2MAIL0000153127BR10        BRNC        BRNCCOCO    BRNCCOCO13AG00001500000000001228512700000000000000200000000000000000000000007779Z00920200414X066000000
2MAIL0000153127BR10        BRNC        BRNCCOCO    BRNCCOCO13AG00001600000000001231231200000000000000100000000000000000000000003889Z00920200414X066000000
2MAIL0000153127BR10        BRNC        BRNCCOCO    BRNCCOCO13AG00001700000000001236512800000000000005200000000000000000000000007380Z00920200414X066000000
2MAIL0000153127BR10        BRNC        BRNCCOCO    BRNCCOCO13AG00001800000000001236898000000000000000200000000000000000000000003046Z00920200414X066000000
2MAIL0000153127BR10        BRNC        BRNCCOCO    BRNCCOCO13AG00001900000000001239663300000000000002800000000000000000000000008169Z00920200414X066000000
2MAIL0000153127BR10        BRNC        BRNCCOCO    BRNCCOCO13AG00002000000000001239688300000000000001400000000000000000000000004084Z00920200414X066000000
2MAIL0000153127BR10        BRNC        BRNCCOCO    BRNCCOCO13AG00002100000000001239688700000000000001400000000000000000000000004084Z00920200414X066000000
2MAIL0000153127BR10        BRNC        BRNCCOCO    BRNCCOCO13AG00002200000000001239688800000000000002800000000000000000000000008169Z00920200414X066000000
2MAIL0000153127BR10        BRNC        BRNCCOCO    BRNCCOCO13AG00002300000000001239692000000000000001400000000000000000000000004084Z00920200414X066000000
2MAIL0000153127BR10        BRNC        BRNCCOCO    BRNCCOCO13AG00002400000000001239692300000000000001400000000000000000000000004084Z00920200414X066000000
2MAIL0000153127BR10        BRNC        BRNCCOCO    BRNCCOCO13AG00002500000000001240924900000000000005200000000000000000000000007101Z00920200414X066000000
2MAIL0000153127BR10        BRNC        BRNCCOCO    BRNCCOCO13AG00002600000000001241623700000000000001000000000000000000000000015740Z00920200414X066000000
2MAIL0000153127BR10        BRNC        BRNCCOCO    BRNCCOCO13AG00002700000000001242374800000000000000100000000000000000000000003889Z00920200414X066000000
1MAIL0000153128BR10        BRNC        BRNCCOCO    BRNCCOCO13AG2020041400:00:00OR  010000056640970005664097153128                             2020041420200414Z016CIF202004140000000000010863NN0                                                  0                                        
2MAIL0000153128BR10        BRNC        BRNCCOCO    BRNCCOCO13AG00000100000000001132036700000000000000500000000000000000000000010863Z01620200414X066000000
1MAIL0000153129BR10        BRNC        BRNCCOCO    BRNCCOCO13AG2020041400:00:00OR  010000061177440006117744153129                             2020041420200414Z079CIF202004140000000000084507NN0                                                  0                                        
2MAIL0000153129BR10        BRNC        BRNCCOCO    BRNCCOCO13AG00000100000000001132004000000000000000500000000000000000000000005676Z07920200414X066000000
2MAIL0000153129BR10        BRNC        BRNCCOCO    BRNCCOCO13AG00000200000000001132018300000000000000100000000000000000000000003743Z07920200414X066000000
2MAIL0000153129BR10        BRNC        BRNCCOCO    BRNCCOCO13AG00000300000000001132019700000000000000100000000000000000000000002081Z07920200414X066000000
2MAIL0000153129BR10        BRNC        BRNCCOCO    BRNCCOCO13AG00000400000000001132019900000000000000100000000000000000000000002081Z07920200414X066000000
2MAIL0000153129BR10        BRNC        BRNCCOCO    BRNCCOCO13AG00000500000000001132020900000000000000100000000000000000000000002081Z07920200414X066000000
2MAIL0000153129BR10        BRNC        BRNCCOCO    BRNCCOCO13AG00000600000000001132033100000000000000100000000000000000000000002297Z07920200414X066000000
2MAIL0000153129BR10        BRNC        BRNCCOCO    BRNCCOCO13AG00000700000000001132036700000000000000100000000000000000000000002297Z07920200414X066000000
2MAIL0000153129BR10        BRNC        BRNCCOCO    BRNCCOCO13AG00000800000000001132200400000000000000100000000000000000000000002236Z07920200414X066000000
2MAIL0000153129BR10        BRNC        BRNCCOCO    BRNCCOCO13AG00000900000000001215533700000000000000100000000000000000000000002297Z07920200414X066000000
2MAIL0000153129BR10        BRNC        BRNCCOCO    BRNCCOCO13AG00001000000000001236512900000000000001000000000000000000000000002004Z07920200414X066000000
2MAIL0000153129BR10        BRNC        BRNCCOCO    BRNCCOCO13AG00001100000000001236515000000000000001000000000000000000000000002004Z07920200414X066000000
2MAIL0000153129BR10        BRNC        BRNCCOCO    BRNCCOCO13AG00001200000000001239663300000000000001400000000000000000000000005896Z07920200414X066000000
2MAIL0000153129BR10        BRNC        BRNCCOCO    BRNCCOCO13AG00001300000000001239688600000000000001400000000000000000000000005896Z07920200414X066000000
2MAIL0000153129BR10        BRNC        BRNCCOCO    BRNCCOCO13AG00001400000000001239688800000000000001400000000000000000000000005896Z07920200414X066000000
2MAIL0000153129BR10        BRNC        BRNCCOCO    BRNCCOCO13AG00001500000000001239692100000000000001400000000000000000000000005896Z07920200414X066000000
2MAIL0000153129BR10        BRNC        BRNCCOCO    BRNCCOCO13AG00001600000000001240924900000000000000400000000000000000000000000735Z07920200414X066000000
2MAIL0000153129BR10        BRNC        BRNCCOCO    BRNCCOCO13AG00001700000000001241577400000000000003000000000000000000000000028904Z07920200414X066000000
2MAIL0000153129BR10        BRNC        BRNCCOCO    BRNCCOCO13AG00001800000000001241623700000000000000100000000000000000000000002487Z07920200414X066000000
1MAIL0000153130BR10        BRNC        BRNCCOCO    BRNCCOCO13AG2020041400:00:00OR  010000039075510003907551153130                             2020041420200414Z016CIF202004140000000000058117NN0                                                  0                                        
2MAIL0000153130BR10        BRNC        BRNCCOCO    BRNCCOCO13AG00000100000000001132018300000000000000300000000000000000000000010624Z01620200414X066000000
2MAIL0000153130BR10        BRNC        BRNCCOCO    BRNCCOCO13AG00000200000000001132033100000000000000400000000000000000000000008692Z01620200414X066000000
2MAIL0000153130BR10        BRNC        BRNCCOCO    BRNCCOCO13AG00000300000000001132036700000000000000800000000000000000000000017382Z01620200414X066000000
2MAIL0000153130BR10        BRNC        BRNCCOCO    BRNCCOCO13AG00000400000000001215533700000000000000400000000000000000000000008692Z01620200414X066000000
2MAIL0000153130BR10        BRNC        BRNCCOCO    BRNCCOCO13AG00000500000000001236512900000000000007000000000000000000000000012727Z01620200414X066000000
1MAIL0000153131BR10        BRNC        BRNCCOCO    BRNCCOCO13AG2020041400:00:00OR  010000038255240003825524153131                             2020041420200414Z016CIF202004140000000000131818NN0                                                  0                                        
2MAIL0000153131BR10        BRNC        BRNCCOCO    BRNCCOCO13AG00000100000000001132033100000000000001600000000000000000000000029516Z01620200414X066000000
2MAIL0000153131BR10        BRNC        BRNCCOCO    BRNCCOCO13AG00000200000000001132036700000000000003200000000000000000000000059033Z01620200414X066000000
2MAIL0000153131BR10        BRNC        BRNCCOCO    BRNCCOCO13AG00000300000000001241623700000000000002000000000000000000000000043269Z01620200414X066000000
1MAIL0000153132BR10        BRNC        BRNCCOCO    BRNCCOCO13AG2020041400:00:00OR  010000028530820002853082153132                             2020041420200414Z016CIF202004140000000000005885NN0                                                  0                                        
2MAIL0000153132BR10        BRNC        BRNCCOCO    BRNCCOCO13AG00000100000000001239688800000000000001400000000000000000000000005885Z01620200414X066000000
1MAIL0000153133BR10        BRNC        BRNCCOCO    BRNCCOCO13AG2020041400:00:00OR  010000058818880005881888153133                             2020041420200414Z016CIF202004140000000000005423NN0                                                  0                                        
2MAIL0000153133BR10        BRNC        BRNCCOCO    BRNCCOCO13AG00000100000000001132036700000000000000100000000000000000000000001654Z01620200414X066000000
2MAIL0000153133BR10        BRNC        BRNCCOCO    BRNCCOCO13AG00000200000000001132200400000000000000100000000000000000000000002115Z01620200414X066000000
2MAIL0000153133BR10        BRNC        BRNCCOCO    BRNCCOCO13AG00000300000000001215533700000000000000100000000000000000000000001654Z01620200414X066000000
1MAIL0000153134BR10        BRNC        BRNCCOCO    BRNCCOCO13AG2020041400:00:00OR  010000058776820005877682153134                             2020041420200414Z016CIF202004140000000000006812NN0                                                  0                                        
2MAIL0000153134BR10        BRNC        BRNCCOCO    BRNCCOCO13AG00000100000000001132033100000000000000100000000000000000000000002291Z01620200414X066000000
2MAIL0000153134BR10        BRNC        BRNCCOCO    BRNCCOCO13AG00000200000000001132036700000000000000100000000000000000000000002291Z01620200414X066000000
2MAIL0000153134BR10        BRNC        BRNCCOCO    BRNCCOCO13AG00000300000000001132200400000000000000100000000000000000000000002230Z01620200414X066000000
1MAIL0000153135BR10        BRNC        BRNCCOCO    BRNCCOCO13AG2020041400:00:00OR  010000051101000005110100153135                             2020041420200414Z016CIF202004140000000000026095NN0                                                  0                                        
2MAIL0000153135BR10        BRNC        BRNCCOCO    BRNCCOCO13AG00000100000000001132018300000000000000100000000000000000000000003735Z01620200414X066000000
2MAIL0000153135BR10        BRNC        BRNCCOCO    BRNCCOCO13AG00000200000000001132019800000000000000100000000000000000000000002076Z01620200414X066000000
2MAIL0000153135BR10        BRNC        BRNCCOCO    BRNCCOCO13AG00000300000000001132036700000000000000100000000000000000000000002291Z01620200414X066000000
2MAIL0000153135BR10        BRNC        BRNCCOCO    BRNCCOCO13AG00000400000000001226089600000000000001200000000000000000000000005045Z01620200414X066000000
2MAIL0000153135BR10        BRNC        BRNCCOCO    BRNCCOCO13AG00000500000000001236512800000000000000400000000000000000000000000762Z01620200414X066000000
2MAIL0000153135BR10        BRNC        BRNCCOCO    BRNCCOCO13AG00000600000000001236512900000000000001000000000000000000000000002004Z01620200414X066000000
2MAIL0000153135BR10        BRNC        BRNCCOCO    BRNCCOCO13AG00000700000000001236515000000000000001000000000000000000000000002004Z01620200414X066000000
2MAIL0000153135BR10        BRNC        BRNCCOCO    BRNCCOCO13AG00000800000000001240924900000000000000400000000000000000000000000735Z01620200414X066000000
2MAIL0000153135BR10        BRNC        BRNCCOCO    BRNCCOCO13AG00000900000000001241623700000000000000300000000000000000000000007443Z01620200414X066000000
1MAIL0000153136BR10        BRNC        BRNCCOCO    BRNCCOCO13AG2020041400:00:00OR  010000061789890006178989153136                             2020041420200414Z016CIF202004140000000000046838NN0                                                  0                                        
2MAIL0000153136BR10        BRNC        BRNCCOCO    BRNCCOCO13AG00000100000000001132018300000000000000100000000000000000000000002862Z01620200414X066000000
2MAIL0000153136BR10        BRNC        BRNCCOCO    BRNCCOCO13AG00000200000000001132019700000000000000100000000000000000000000001593Z01620200414X066000000
2MAIL0000153136BR10        BRNC        BRNCCOCO    BRNCCOCO13AG00000300000000001132019900000000000000100000000000000000000000001593Z01620200414X066000000
2MAIL0000153136BR10        BRNC        BRNCCOCO    BRNCCOCO13AG00000400000000001132033100000000000000100000000000000000000000001759Z01620200414X066000000
2MAIL0000153136BR10        BRNC        BRNCCOCO    BRNCCOCO13AG00000500000000001132036700000000000000100000000000000000000000001759Z01620200414X066000000
2MAIL0000153136BR10        BRNC        BRNCCOCO    BRNCCOCO13AG00000600000000001132200400000000000000100000000000000000000000001995Z01620200414X066000000
2MAIL0000153136BR10        BRNC        BRNCCOCO    BRNCCOCO13AG00000700000000001215533700000000000000100000000000000000000000001759Z01620200414X066000000
2MAIL0000153136BR10        BRNC        BRNCCOCO    BRNCCOCO13AG00000800000000001226089600000000000001200000000000000000000000004255Z01620200414X066000000
2MAIL0000153136BR10        BRNC        BRNCCOCO    BRNCCOCO13AG00000900000000001235699400000000000001000000000000000000000000003554Z01620200414X066000000
2MAIL0000153136BR10        BRNC        BRNCCOCO    BRNCCOCO13AG00001000000000001236512800000000000001200000000000000000000000001959Z01620200414X066000000
2MAIL0000153136BR10        BRNC        BRNCCOCO    BRNCCOCO13AG00001100000000001236512900000000000002000000000000000000000000002880Z01620200414X066000000
2MAIL0000153136BR10        BRNC        BRNCCOCO    BRNCCOCO13AG00001200000000001236515000000000000002000000000000000000000000002880Z01620200414X066000000
2MAIL0000153136BR10        BRNC        BRNCCOCO    BRNCCOCO13AG00001300000000001239688300000000000001400000000000000000000000004964Z01620200414X066000000
2MAIL0000153136BR10        BRNC        BRNCCOCO    BRNCCOCO13AG00001400000000001239692100000000000001400000000000000000000000004964Z01620200414X066000000
2MAIL0000153136BR10        BRNC        BRNCCOCO    BRNCCOCO13AG00001500000000001241577400000000000001000000000000000000000000008062Z01620200414X066000000
1MAIL0000153137BR10        BRNC        BRNCCOCO    BRNCCOCO13AG2020041400:00:00OR  010000058179960005817996153137                             2020041420200414Z016CIF202004140000000000004008NN0                                                  0                                        
2MAIL0000153137BR10        BRNC        BRNCCOCO    BRNCCOCO13AG00000100000000001236515000000000000002000000000000000000000000004008Z01620200414X066000000
1MAIL0000153138BR10        BRNC        BRNCCOCO    BRNCCOCO13AG2020041400:00:00OR  010000051577410005157741153138                             2020041420200414Z016CIF202004140000000000014988NN0                                                  0                                        
2MAIL0000153138BR10        BRNC        BRNCCOCO    BRNCCOCO13AG00000100000000001132033100000000000000100000000000000000000000002291Z01620200414X066000000
2MAIL0000153138BR10        BRNC        BRNCCOCO    BRNCCOCO13AG00000200000000001132036700000000000000100000000000000000000000002291Z01620200414X066000000
2MAIL0000153138BR10        BRNC        BRNCCOCO    BRNCCOCO13AG00000300000000001132200400000000000000100000000000000000000000002230Z01620200414X066000000
2MAIL0000153138BR10        BRNC        BRNCCOCO    BRNCCOCO13AG00000400000000001236898000000000000000100000000000000000000000002291Z01620200414X066000000
2MAIL0000153138BR10        BRNC        BRNCCOCO    BRNCCOCO13AG00000500000000001239688800000000000001400000000000000000000000005885Z01620200414X066000000
1MAIL0000153139BR10        BRNC        BRNCCOCO    BRNCCOCO13AG2020041400:00:00OR  010000060161350006016135153139                             2020041420200414Z016CIF202004140000000000075077NN0                                                  0                                        
2MAIL0000153139BR10        BRNC        BRNCCOCO    BRNCCOCO13AG00000100000000001132019700000000000000100000000000000000000000001498Z01620200414X066000000
2MAIL0000153139BR10        BRNC        BRNCCOCO    BRNCCOCO13AG00000200000000001132019800000000000000200000000000000000000000002995Z01620200414X066000000
2MAIL0000153139BR10        BRNC        BRNCCOCO    BRNCCOCO13AG00000300000000001132019900000000000000100000000000000000000000001498Z01620200414X066000000
2MAIL0000153139BR10        BRNC        BRNCCOCO    BRNCCOCO13AG00000400000000001132020900000000000000100000000000000000000000001498Z01620200414X066000000
2MAIL0000153139BR10        BRNC        BRNCCOCO    BRNCCOCO13AG00000500000000001132036700000000000000200000000000000000000000003307Z01620200414X066000000
2MAIL0000153139BR10        BRNC        BRNCCOCO    BRNCCOCO13AG00000600000000001132200400000000000000500000000000000000000000010575Z01620200414X066000000
2MAIL0000153139BR10        BRNC        BRNCCOCO    BRNCCOCO13AG00000700000000001132400100000000000000100000000000000000000000002286Z01620200414X066000000
2MAIL0000153139BR10        BRNC        BRNCCOCO    BRNCCOCO13AG00000800000000001215533700000000000000200000000000000000000000003307Z01620200414X066000000
2MAIL0000153139BR10        BRNC        BRNCCOCO    BRNCCOCO13AG00000900000000001227395500000000000000100000000000000000000000001654Z01620200414X066000000
2MAIL0000153139BR10        BRNC        BRNCCOCO    BRNCCOCO13AG00001000000000001227735000000000000000100000000000000000000000001498Z01620200414X066000000
2MAIL0000153139BR10        BRNC        BRNCCOCO    BRNCCOCO13AG00001100000000001228512700000000000000100000000000000000000000004437Z01620200414X066000000
2MAIL0000153139BR10        BRNC        BRNCCOCO    BRNCCOCO13AG00001200000000001231189200000000000000100000000000000000000000004437Z01620200414X066000000
2MAIL0000153139BR10        BRNC        BRNCCOCO    BRNCCOCO13AG00001300000000001231231200000000000000100000000000000000000000004437Z01620200414X066000000
2MAIL0000153139BR10        BRNC        BRNCCOCO    BRNCCOCO13AG00001400000000001231233000000000000000100000000000000000000000004437Z01620200414X066000000
2MAIL0000153139BR10        BRNC        BRNCCOCO    BRNCCOCO13AG00001500000000001234705700000000000000100000000000000000000000004437Z01620200414X066000000
2MAIL0000153139BR10        BRNC        BRNCCOCO    BRNCCOCO13AG00001600000000001235699400000000000001000000000000000000000000003352Z01620200414X066000000
2MAIL0000153139BR10        BRNC        BRNCCOCO    BRNCCOCO13AG00001700000000001235699700000000000001000000000000000000000000003352Z01620200414X066000000
2MAIL0000153139BR10        BRNC        BRNCCOCO    BRNCCOCO13AG00001800000000001235699800000000000002000000000000000000000000006704Z01620200414X066000000
2MAIL0000153139BR10        BRNC        BRNCCOCO    BRNCCOCO13AG00001900000000001239663300000000000001400000000000000000000000004684Z01620200414X066000000
2MAIL0000153139BR10        BRNC        BRNCCOCO    BRNCCOCO13AG00002000000000001239688300000000000001400000000000000000000000004684Z01620200414X066000000
1MAIL0000153140BR10        BRNC        BRNCCOCO    BRNCCOCO13AG2020041400:00:00OR  010000029313960002931396153140                             2020041420200414Z016CIF202004140000000000069947NN0                                                  0                                        
2MAIL0000153140BR10        BRNC        BRNCCOCO    BRNCCOCO13AG00000100000000001235699400000000000001000000000000000000000000003741Z01620200414X066000000
2MAIL0000153140BR10        BRNC        BRNCCOCO    BRNCCOCO13AG00000200000000001235699700000000000001000000000000000000000000003741Z01620200414X066000000
2MAIL0000153140BR10        BRNC        BRNCCOCO    BRNCCOCO13AG00000300000000001235699800000000000002000000000000000000000000007481Z01620200414X066000000
2MAIL0000153140BR10        BRNC        BRNCCOCO    BRNCCOCO13AG00000400000000001236512900000000000001000000000000000000000000001778Z01620200414X066000000
2MAIL0000153140BR10        BRNC        BRNCCOCO    BRNCCOCO13AG00000500000000001236515000000000000001000000000000000000000000001778Z01620200414X066000000
2MAIL0000153140BR10        BRNC        BRNCCOCO    BRNCCOCO13AG00000600000000001239688300000000000001400000000000000000000000005226Z01620200414X066000000
2MAIL0000153140BR10        BRNC        BRNCCOCO    BRNCCOCO13AG00000700000000001239688600000000000001400000000000000000000000005226Z01620200414X066000000
2MAIL0000153140BR10        BRNC        BRNCCOCO    BRNCCOCO13AG00000800000000001239688800000000000001400000000000000000000000005226Z01620200414X066000000
2MAIL0000153140BR10        BRNC        BRNCCOCO    BRNCCOCO13AG00000900000000001239692000000000000001400000000000000000000000005226Z01620200414X066000000
2MAIL0000153140BR10        BRNC        BRNCCOCO    BRNCCOCO13AG00001000000000001239692100000000000001400000000000000000000000005226Z01620200414X066000000
2MAIL0000153140BR10        BRNC        BRNCCOCO    BRNCCOCO13AG00001100000000001241623700000000000001000000000000000000000000025298Z01620200414X066000000
1MAIL0000153141BR10        BRNC        BRNCCOCO    BRNCCOCO13AG2020041400:00:00OR  010000050303010005030301153141                             2020041420200414Z016CIF202004140000000000029594NN0                                                  0                                        
2MAIL0000153141BR10        BRNC        BRNCCOCO    BRNCCOCO13AG00000100000000001132019800000000000000100000000000000000000000001498Z01620200414X066000000
2MAIL0000153141BR10        BRNC        BRNCCOCO    BRNCCOCO13AG00000200000000001132036700000000000000400000000000000000000000006615Z01620200414X066000000
2MAIL0000153141BR10        BRNC        BRNCCOCO    BRNCCOCO13AG00000300000000001132200400000000000000200000000000000000000000004230Z01620200414X066000000
2MAIL0000153141BR10        BRNC        BRNCCOCO    BRNCCOCO13AG00000400000000001132400100000000000000100000000000000000000000002286Z01620200414X066000000
2MAIL0000153141BR10        BRNC        BRNCCOCO    BRNCCOCO13AG00000500000000001223975300000000000000100000000000000000000000004437Z01620200414X066000000
2MAIL0000153141BR10        BRNC        BRNCCOCO    BRNCCOCO13AG00000600000000001231189200000000000000100000000000000000000000004437Z01620200414X066000000
2MAIL0000153141BR10        BRNC        BRNCCOCO    BRNCCOCO13AG00000700000000001231231200000000000000100000000000000000000000004437Z01620200414X066000000
2MAIL0000153141BR10        BRNC        BRNCCOCO    BRNCCOCO13AG00000800000000001231389600000000000000100000000000000000000000001654Z01620200414X066000000
1MAIL0000153142BR10        BRNC        BRNCCOCO    BRNCCOCO13AG2020041400:00:00OR  010000049919550004991955153142                             2020041420200414Z016CIF202004140000000000090814NN0                                                  0                                        
2MAIL0000153142BR10        BRNC        BRNCCOCO    BRNCCOCO13AG00000100000000001132019700000000000000200000000000000000000000003936Z01620200414X066000000
2MAIL0000153142BR10        BRNC        BRNCCOCO    BRNCCOCO13AG00000200000000001132019800000000000000200000000000000000000000003936Z01620200414X066000000
2MAIL0000153142BR10        BRNC        BRNCCOCO    BRNCCOCO13AG00000300000000001132020900000000000000200000000000000000000000003936Z01620200414X066000000
2MAIL0000153142BR10        BRNC        BRNCCOCO    BRNCCOCO13AG00000400000000001132400100000000000000100000000000000000000000003003Z01620200414X066000000
2MAIL0000153142BR10        BRNC        BRNCCOCO    BRNCCOCO13AG00000500000000001227735000000000000000200000000000000000000000003936Z01620200414X066000000
2MAIL0000153142BR10        BRNC        BRNCCOCO    BRNCCOCO13AG00000600000000001231231200000000000000100000000000000000000000005280Z01620200414X066000000
2MAIL0000153142BR10        BRNC        BRNCCOCO    BRNCCOCO13AG00000700000000001231389600000000000000400000000000000000000000008692Z01620200414X066000000
2MAIL0000153142BR10        BRNC        BRNCCOCO    BRNCCOCO13AG00000800000000001236515000000000000007000000000000000000000000013982Z01620200414X066000000
2MAIL0000153142BR10        BRNC        BRNCCOCO    BRNCCOCO13AG00000900000000001239692000000000000001400000000000000000000000005582Z01620200414X066000000
2MAIL0000153142BR10        BRNC        BRNCCOCO    BRNCCOCO13AG00001000000000001239692100000000000001400000000000000000000000005582Z01620200414X066000000
2MAIL0000153142BR10        BRNC        BRNCCOCO    BRNCCOCO13AG00001100000000001239692300000000000001400000000000000000000000005582Z01620200414X066000000
2MAIL0000153142BR10        BRNC        BRNCCOCO    BRNCCOCO13AG00001200000000001241577400000000000003000000000000000000000000027367Z01620200414X066000000
1MAIL0000153143BR10        BRNC        BRNCCOCO    BRNCCOCO13AG2020041400:00:00OR  010000058236460005823646153143                             2020041420200414Z016CIF202004140000000000031340NN0                                                  0                                        
2MAIL0000153143BR10        BRNC        BRNCCOCO    BRNCCOCO13AG00000100000000001132033100000000000000100000000000000000000000002291Z01620200414X066000000
2MAIL0000153143BR10        BRNC        BRNCCOCO    BRNCCOCO13AG00000200000000001132036700000000000000100000000000000000000000002291Z01620200414X066000000
2MAIL0000153143BR10        BRNC        BRNCCOCO    BRNCCOCO13AG00000300000000001132200400000000000000100000000000000000000000002230Z01620200414X066000000
2MAIL0000153143BR10        BRNC        BRNCCOCO    BRNCCOCO13AG00000400000000001215533700000000000000100000000000000000000000002291Z01620200414X066000000
2MAIL0000153143BR10        BRNC        BRNCCOCO    BRNCCOCO13AG00000500000000001227395500000000000000100000000000000000000000002291Z01620200414X066000000
2MAIL0000153143BR10        BRNC        BRNCCOCO    BRNCCOCO13AG00000600000000001236898000000000000000100000000000000000000000002291Z01620200414X066000000
2MAIL0000153143BR10        BRNC        BRNCCOCO    BRNCCOCO13AG00000700000000001239663300000000000001400000000000000000000000005885Z01620200414X066000000
2MAIL0000153143BR10        BRNC        BRNCCOCO    BRNCCOCO13AG00000800000000001239688800000000000001400000000000000000000000005885Z01620200414X066000000
2MAIL0000153143BR10        BRNC        BRNCCOCO    BRNCCOCO13AG00000900000000001239692100000000000001400000000000000000000000005885Z01620200414X066000000
1MAIL0000153144BR10        BRNC        BRNCCOCO    BRNCCOCO13AG2020041400:00:00OR  010000029848160002984816153144                             2020041420200414Z016CIF202004140000000000127399NN0                                                  0                                        
2MAIL0000153144BR10        BRNC        BRNCCOCO    BRNCCOCO13AG00000100000000001132004000000000000001000000000000000000000000011324Z01620200414X066000000
2MAIL0000153144BR10        BRNC        BRNCCOCO    BRNCCOCO13AG00000200000000001132019700000000000000100000000000000000000000002076Z01620200414X066000000
2MAIL0000153144BR10        BRNC        BRNCCOCO    BRNCCOCO13AG00000300000000001132019800000000000000100000000000000000000000002076Z01620200414X066000000
2MAIL0000153144BR10        BRNC        BRNCCOCO    BRNCCOCO13AG00000400000000001132019900000000000000100000000000000000000000002076Z01620200414X066000000
2MAIL0000153144BR10        BRNC        BRNCCOCO    BRNCCOCO13AG00000500000000001132020900000000000000100000000000000000000000002076Z01620200414X066000000
2MAIL0000153144BR10        BRNC        BRNCCOCO    BRNCCOCO13AG00000600000000001132034900000000000000500000000000000000000000012283Z01620200414X066000000
2MAIL0000153144BR10        BRNC        BRNCCOCO    BRNCCOCO13AG00000700000000001132035000000000000000500000000000000000000000013646Z01620200414X066000000
2MAIL0000153144BR10        BRNC        BRNCCOCO    BRNCCOCO13AG00000800000000001132035100000000000000500000000000000000000000012969Z01620200414X066000000
2MAIL0000153144BR10        BRNC        BRNCCOCO    BRNCCOCO13AG00000900000000001226089600000000000001200000000000000000000000005045Z01620200414X066000000
2MAIL0000153144BR10        BRNC        BRNCCOCO    BRNCCOCO13AG00001000000000001227735000000000000000100000000000000000000000002076Z01620200414X066000000
2MAIL0000153144BR10        BRNC        BRNCCOCO    BRNCCOCO13AG00001100000000001235699400000000000001000000000000000000000000004211Z01620200414X066000000
2MAIL0000153144BR10        BRNC        BRNCCOCO    BRNCCOCO13AG00001200000000001236512800000000000002400000000000000000000000004576Z01620200414X066000000
2MAIL0000153144BR10        BRNC        BRNCCOCO    BRNCCOCO13AG00001300000000001239688300000000000001400000000000000000000000005885Z01620200414X066000000
2MAIL0000153144BR10        BRNC        BRNCCOCO    BRNCCOCO13AG00001400000000001239688500000000000001400000000000000000000000005885Z01620200414X066000000
2MAIL0000153144BR10        BRNC        BRNCCOCO    BRNCCOCO13AG00001500000000001239688600000000000001400000000000000000000000005885Z01620200414X066000000
2MAIL0000153144BR10        BRNC        BRNCCOCO    BRNCCOCO13AG00001600000000001239688700000000000001400000000000000000000000005885Z01620200414X066000000
2MAIL0000153144BR10        BRNC        BRNCCOCO    BRNCCOCO13AG00001700000000001239688800000000000001400000000000000000000000005885Z01620200414X066000000
2MAIL0000153144BR10        BRNC        BRNCCOCO    BRNCCOCO13AG00001800000000001239692000000000000001400000000000000000000000005885Z01620200414X066000000
2MAIL0000153144BR10        BRNC        BRNCCOCO    BRNCCOCO13AG00001900000000001239692300000000000001400000000000000000000000005885Z01620200414X066000000
2MAIL0000153144BR10        BRNC        BRNCCOCO    BRNCCOCO13AG00002000000000001242626100000000000001400000000000000000000000005885Z01620200414X066000000
2MAIL0000153144BR10        BRNC        BRNCCOCO    BRNCCOCO13AG00002100000000001242754900000000000001400000000000000000000000005885Z01620200414X066000000
1MAIL0000153145BR10        BRNC        BRNCCOCO    BRNCCOCO13AG2020041400:00:00OR  010000054303670005430367153145                             2020041420200414Z016CIF202004140000000000090507NN0                                                  0                                        
2MAIL0000153145BR10        BRNC        BRNCCOCO    BRNCCOCO13AG00000100000000001132033100000000000000100000000000000000000000002173Z01620200414X066000000
2MAIL0000153145BR10        BRNC        BRNCCOCO    BRNCCOCO13AG00000200000000001132036700000000000000100000000000000000000000002173Z01620200414X066000000
2MAIL0000153145BR10        BRNC        BRNCCOCO    BRNCCOCO13AG00000300000000001215533700000000000000100000000000000000000000002173Z01620200414X066000000
2MAIL0000153145BR10        BRNC        BRNCCOCO    BRNCCOCO13AG00000400000000001226089600000000000001200000000000000000000000004784Z01620200414X066000000
2MAIL0000153145BR10        BRNC        BRNCCOCO    BRNCCOCO13AG00000500000000001231189200000000000000100000000000000000000000005280Z01620200414X066000000
2MAIL0000153145BR10        BRNC        BRNCCOCO    BRNCCOCO13AG00000600000000001231231200000000000000100000000000000000000000005280Z01620200414X066000000
2MAIL0000153145BR10        BRNC        BRNCCOCO    BRNCCOCO13AG00000700000000001235699400000000000001000000000000000000000000003995Z01620200414X066000000
2MAIL0000153145BR10        BRNC        BRNCCOCO    BRNCCOCO13AG00000800000000001236512800000000000002400000000000000000000000004560Z01620200414X066000000
2MAIL0000153145BR10        BRNC        BRNCCOCO    BRNCCOCO13AG00000900000000001236512900000000000001500000000000000000000000002997Z01620200414X066000000
2MAIL0000153145BR10        BRNC        BRNCCOCO    BRNCCOCO13AG00001000000000001236515000000000000001500000000000000000000000002997Z01620200414X066000000
2MAIL0000153145BR10        BRNC        BRNCCOCO    BRNCCOCO13AG00001100000000001239663300000000000001400000000000000000000000005582Z01620200414X066000000
2MAIL0000153145BR10        BRNC        BRNCCOCO    BRNCCOCO13AG00001200000000001239688600000000000001400000000000000000000000005582Z01620200414X066000000
2MAIL0000153145BR10        BRNC        BRNCCOCO    BRNCCOCO13AG00001300000000001239688800000000000001400000000000000000000000005582Z01620200414X066000000
2MAIL0000153145BR10        BRNC        BRNCCOCO    BRNCCOCO13AG00001400000000001239692100000000000001400000000000000000000000005582Z01620200414X066000000
2MAIL0000153145BR10        BRNC        BRNCCOCO    BRNCCOCO13AG00001500000000001240924900000000000002400000000000000000000000004400Z01620200414X066000000
2MAIL0000153145BR10        BRNC        BRNCCOCO    BRNCCOCO13AG00001600000000001241577400000000000003000000000000000000000000027367Z01620200414X066000000
1MAIL0000153146BR10        BRNC        BRNCCOCO    BRNCCOCO13AG2020041400:00:00OR  010000031811550003181155153146                             2020041420200414Z016CIF202004140000000000068938NN0                                                  0                                        
2MAIL0000153146BR10        BRNC        BRNCCOCO    BRNCCOCO13AG00000100000000001132004000000000000000500000000000000000000000005662Z01620200414X066000000
2MAIL0000153146BR10        BRNC        BRNCCOCO    BRNCCOCO13AG00000200000000001132004200000000000000500000000000000000000000007806Z01620200414X066000000
2MAIL0000153146BR10        BRNC        BRNCCOCO    BRNCCOCO13AG00000300000000001132019800000000000000100000000000000000000000002076Z01620200414X066000000
2MAIL0000153146BR10        BRNC        BRNCCOCO    BRNCCOCO13AG00000400000000001132033100000000000000100000000000000000000000002291Z01620200414X066000000
2MAIL0000153146BR10        BRNC        BRNCCOCO    BRNCCOCO13AG00000500000000001132036700000000000000300000000000000000000000006872Z01620200414X066000000
2MAIL0000153146BR10        BRNC        BRNCCOCO    BRNCCOCO13AG00000600000000001132200400000000000000200000000000000000000000004460Z01620200414X066000000
2MAIL0000153146BR10        BRNC        BRNCCOCO    BRNCCOCO13AG00000700000000001215533700000000000000100000000000000000000000002291Z01620200414X066000000
2MAIL0000153146BR10        BRNC        BRNCCOCO    BRNCCOCO13AG00000800000000001231231200000000000000100000000000000000000000005568Z01620200414X066000000
2MAIL0000153146BR10        BRNC        BRNCCOCO    BRNCCOCO13AG00000900000000001236512900000000000000500000000000000000000000001002Z01620200414X066000000
2MAIL0000153146BR10        BRNC        BRNCCOCO    BRNCCOCO13AG00001000000000001236515000000000000000500000000000000000000000001002Z01620200414X066000000
2MAIL0000153146BR10        BRNC        BRNCCOCO    BRNCCOCO13AG00001100000000001239663300000000000001400000000000000000000000005885Z01620200414X066000000
2MAIL0000153146BR10        BRNC        BRNCCOCO    BRNCCOCO13AG00001200000000001239688600000000000001400000000000000000000000005885Z01620200414X066000000
2MAIL0000153146BR10        BRNC        BRNCCOCO    BRNCCOCO13AG00001300000000001239688800000000000001400000000000000000000000005885Z01620200414X066000000
2MAIL0000153146BR10        BRNC        BRNCCOCO    BRNCCOCO13AG00001400000000001241577400000000000000500000000000000000000000004810Z01620200414X066000000
2MAIL0000153146BR10        BRNC        BRNCCOCO    BRNCCOCO13AG00001500000000001241623700000000000000300000000000000000000000007443Z01620200414X066000000
1MAIL0000153147BR10        BRNC        BRNCCOCO    BRNCCOCO13AG2020041400:00:00OR  010000038592130003859213153147                             2020041420200414Z016CIF202004140000000000039863NN0                                                  0                                        
2MAIL0000153147BR10        BRNC        BRNCCOCO    BRNCCOCO13AG00000100000000001132004000000000000000500000000000000000000000005662Z01620200414X066000000
2MAIL0000153147BR10        BRNC        BRNCCOCO    BRNCCOCO13AG00000200000000001132004200000000000000500000000000000000000000007806Z01620200414X066000000
2MAIL0000153147BR10        BRNC        BRNCCOCO    BRNCCOCO13AG00000300000000001228512700000000000000100000000000000000000000005568Z01620200414X066000000
2MAIL0000153147BR10        BRNC        BRNCCOCO    BRNCCOCO13AG00000400000000001235699400000000000001000000000000000000000000004211Z01620200414X066000000
2MAIL0000153147BR10        BRNC        BRNCCOCO    BRNCCOCO13AG00000500000000001235699800000000000001000000000000000000000000004211Z01620200414X066000000
2MAIL0000153147BR10        BRNC        BRNCCOCO    BRNCCOCO13AG00000600000000001241623700000000000000500000000000000000000000012405Z01620200414X066000000
1MAIL0000153148BR10        BRNC        BRNCCOCO    BRNCCOCO13AG2020041400:00:00OR  010000038592130003859213153148                             2020041420200414Z016CIF202004140000000000004008NN0                                                  0                                        
2MAIL0000153148BR10        BRNC        BRNCCOCO    BRNCCOCO13AG00000100000000001236512900000000000001000000000000000000000000002004Z01620200414X066000000
2MAIL0000153148BR10        BRNC        BRNCCOCO    BRNCCOCO13AG00000200000000001236515000000000000001000000000000000000000000002004Z01620200414X066000000
