1MAIL0000151958BR10        BRNC        BRNCCOCO    BRNCCOCO13AG2020040100:00:00OR  010000058948720005894872151958                             2020040120200401Z016CIF202004010000000000076046NN0                                                  0                                        
2MAIL0000151958BR10        BRNC        BRNCCOCO    BRNCCOCO13AG00000100000000001132033100000000000001000000000000000000000000021728Z01620200401X066000000
2MAIL0000151958BR10        BRNC        BRNCCOCO    BRNCCOCO13AG00000200000000001132036700000000000001000000000000000000000000021728Z01620200401X066000000
2MAIL0000151958BR10        BRNC        BRNCCOCO    BRNCCOCO13AG00000300000000001215533700000000000000600000000000000000000000013036Z01620200401X066000000
2MAIL0000151958BR10        BRNC        BRNCCOCO    BRNCCOCO13AG00000400000000001227395500000000000000300000000000000000000000006518Z01620200401X066000000
2MAIL0000151958BR10        BRNC        BRNCCOCO    BRNCCOCO13AG00000500000000001231389600000000000000300000000000000000000000006518Z01620200401X066000000
2MAIL0000151958BR10        BRNC        BRNCCOCO    BRNCCOCO13AG00000600000000001236898000000000000000300000000000000000000000006518Z01620200401X066000000
1MAIL0000151959BR10        BRNC        BRNCCOCO    BRNCCOCO13AG2020040100:00:00OR  010000029319600002931960151959                             2020040120200401Z016CIF202004010000000000048574NN0                                                  0                                        
2MAIL0000151959BR10        BRNC        BRNCCOCO    BRNCCOCO13AG00000100000000001226089600000000000001200000000000000000000000005045Z01620200401X066000000
2MAIL0000151959BR10        BRNC        BRNCCOCO    BRNCCOCO13AG00000200000000001235699400000000000001000000000000000000000000004211Z01620200401X066000000
2MAIL0000151959BR10        BRNC        BRNCCOCO    BRNCCOCO13AG00000300000000001236512900000000000001000000000000000000000000002004Z01620200401X066000000
2MAIL0000151959BR10        BRNC        BRNCCOCO    BRNCCOCO13AG00000400000000001236515000000000000001000000000000000000000000002004Z01620200401X066000000
2MAIL0000151959BR10        BRNC        BRNCCOCO    BRNCCOCO13AG00000500000000001239688600000000000001400000000000000000000000005885Z01620200401X066000000
2MAIL0000151959BR10        BRNC        BRNCCOCO    BRNCCOCO13AG00000600000000001239688800000000000001400000000000000000000000005885Z01620200401X066000000
2MAIL0000151959BR10        BRNC        BRNCCOCO    BRNCCOCO13AG00000700000000001239692100000000000001400000000000000000000000005885Z01620200401X066000000
2MAIL0000151959BR10        BRNC        BRNCCOCO    BRNCCOCO13AG00000800000000001242626100000000000001400000000000000000000000005885Z01620200401X066000000
2MAIL0000151959BR10        BRNC        BRNCCOCO    BRNCCOCO13AG00000900000000001242754900000000000001400000000000000000000000005885Z01620200401X066000000
2MAIL0000151959BR10        BRNC        BRNCCOCO    BRNCCOCO13AG00001000000000001242765000000000000001400000000000000000000000005885Z01620200401X066000000
1MAIL0000151960BR10        BRNC        BRNCCOCO    BRNCCOCO13AG2020040100:00:00OR  010000038523390003852339151960                             2020040120200401Z016CIF202004010000000000105517NN0                                                  0                                        
2MAIL0000151960BR10        BRNC        BRNCCOCO    BRNCCOCO13AG00000100000000001132033100000000000000200000000000000000000000004581Z01620200401X066000000
2MAIL0000151960BR10        BRNC        BRNCCOCO    BRNCCOCO13AG00000200000000001132036700000000000000600000000000000000000000013746Z01620200401X066000000
2MAIL0000151960BR10        BRNC        BRNCCOCO    BRNCCOCO13AG00000300000000001215533700000000000000200000000000000000000000004581Z01620200401X066000000
2MAIL0000151960BR10        BRNC        BRNCCOCO    BRNCCOCO13AG00000400000000001223975300000000000000100000000000000000000000005568Z01620200401X066000000
2MAIL0000151960BR10        BRNC        BRNCCOCO    BRNCCOCO13AG00000500000000001226089600000000000001200000000000000000000000005045Z01620200401X066000000
2MAIL0000151960BR10        BRNC        BRNCCOCO    BRNCCOCO13AG00000600000000001231189200000000000000100000000000000000000000005568Z01620200401X066000000
2MAIL0000151960BR10        BRNC        BRNCCOCO    BRNCCOCO13AG00000700000000001231231200000000000000100000000000000000000000005568Z01620200401X066000000
2MAIL0000151960BR10        BRNC        BRNCCOCO    BRNCCOCO13AG00000800000000001231233000000000000000100000000000000000000000005568Z01620200401X066000000
2MAIL0000151960BR10        BRNC        BRNCCOCO    BRNCCOCO13AG00000900000000001231389600000000000000200000000000000000000000004581Z01620200401X066000000
2MAIL0000151960BR10        BRNC        BRNCCOCO    BRNCCOCO13AG00001000000000001234705800000000000000100000000000000000000000005568Z01620200401X066000000
2MAIL0000151960BR10        BRNC        BRNCCOCO    BRNCCOCO13AG00001100000000001236512900000000000002000000000000000000000000004008Z01620200401X066000000
2MAIL0000151960BR10        BRNC        BRNCCOCO    BRNCCOCO13AG00001200000000001236515000000000000002000000000000000000000000004008Z01620200401X066000000
2MAIL0000151960BR10        BRNC        BRNCCOCO    BRNCCOCO13AG00001300000000001239373400000000000000100000000000000000000000006952Z01620200401X066000000
2MAIL0000151960BR10        BRNC        BRNCCOCO    BRNCCOCO13AG00001400000000001239373600000000000000100000000000000000000000006952Z01620200401X066000000
2MAIL0000151960BR10        BRNC        BRNCCOCO    BRNCCOCO13AG00001500000000001239688600000000000001400000000000000000000000005885Z01620200401X066000000
2MAIL0000151960BR10        BRNC        BRNCCOCO    BRNCCOCO13AG00001600000000001239688800000000000001400000000000000000000000005885Z01620200401X066000000
2MAIL0000151960BR10        BRNC        BRNCCOCO    BRNCCOCO13AG00001700000000001239692100000000000001400000000000000000000000005885Z01620200401X066000000
2MAIL0000151960BR10        BRNC        BRNCCOCO    BRNCCOCO13AG00001800000000001242374800000000000000100000000000000000000000005568Z01620200401X066000000
1MAIL0000151963BR10        BRNC        BRNCCOCO    BRNCCOCO13AG2020040200:00:00OR  010000009213680000921368151963                             2020040220200402Z016CIF202004020000000000732065NN0                                                  0                                        
2MAIL0000151963BR10        BRNC        BRNCCOCO    BRNCCOCO13AG00000100000000001132004000000000000002000000000000000000000000020406Z01620200402X066000000
2MAIL0000151963BR10        BRNC        BRNCCOCO    BRNCCOCO13AG00000200000000001132019700000000000000500000000000000000000000009840Z01620200402X066000000
2MAIL0000151963BR10        BRNC        BRNCCOCO    BRNCCOCO13AG00000300000000001132019800000000000000500000000000000000000000009840Z01620200402X066000000
2MAIL0000151963BR10        BRNC        BRNCCOCO    BRNCCOCO13AG00000400000000001132019900000000000000500000000000000000000000009840Z01620200402X066000000
2MAIL0000151963BR10        BRNC        BRNCCOCO    BRNCCOCO13AG00000500000000001132020900000000000000500000000000000000000000009840Z01620200402X066000000
2MAIL0000151963BR10        BRNC        BRNCCOCO    BRNCCOCO13AG00000600000000001132033100000000000000500000000000000000000000010863Z01620200402X066000000
2MAIL0000151963BR10        BRNC        BRNCCOCO    BRNCCOCO13AG00000700000000001132034900000000000002000000000000000000000000044299Z01620200402X066000000
2MAIL0000151963BR10        BRNC        BRNCCOCO    BRNCCOCO13AG00000800000000001132036700000000000001600000000000000000000000034765Z01620200402X066000000
2MAIL0000151963BR10        BRNC        BRNCCOCO    BRNCCOCO13AG00000900000000001132400100000000000000500000000000000000000000015016Z01620200402X066000000
2MAIL0000151963BR10        BRNC        BRNCCOCO    BRNCCOCO13AG00001000000000001215533700000000000000500000000000000000000000010863Z01620200402X066000000
2MAIL0000151963BR10        BRNC        BRNCCOCO    BRNCCOCO13AG00001100000000001223975300000000000000500000000000000000000000025383Z01620200402X066000000
2MAIL0000151963BR10        BRNC        BRNCCOCO    BRNCCOCO13AG00001200000000001226089600000000000004800000000000000000000000018321Z01620200402X066000000
2MAIL0000151963BR10        BRNC        BRNCCOCO    BRNCCOCO13AG00001300000000001227395500000000000000500000000000000000000000010863Z01620200402X066000000
2MAIL0000151963BR10        BRNC        BRNCCOCO    BRNCCOCO13AG00001400000000001227735000000000000000500000000000000000000000009840Z01620200402X066000000
2MAIL0000151963BR10        BRNC        BRNCCOCO    BRNCCOCO13AG00001500000000001228274000000000000000400000000000000000000000020305Z01620200402X066000000
2MAIL0000151963BR10        BRNC        BRNCCOCO    BRNCCOCO13AG00001600000000001228512700000000000000400000000000000000000000020305Z01620200402X066000000
2MAIL0000151963BR10        BRNC        BRNCCOCO    BRNCCOCO13AG00001700000000001231189200000000000000500000000000000000000000025383Z01620200402X066000000
2MAIL0000151963BR10        BRNC        BRNCCOCO    BRNCCOCO13AG00001800000000001231231200000000000000500000000000000000000000025383Z01620200402X066000000
2MAIL0000151963BR10        BRNC        BRNCCOCO    BRNCCOCO13AG00001900000000001231233000000000000000500000000000000000000000025383Z01620200402X066000000
2MAIL0000151963BR10        BRNC        BRNCCOCO    BRNCCOCO13AG00002000000000001231389600000000000000500000000000000000000000010863Z01620200402X066000000
2MAIL0000151963BR10        BRNC        BRNCCOCO    BRNCCOCO13AG00002100000000001234705700000000000000400000000000000000000000020305Z01620200402X066000000
2MAIL0000151963BR10        BRNC        BRNCCOCO    BRNCCOCO13AG00002200000000001235699400000000000002000000000000000000000000007648Z01620200402X066000000
2MAIL0000151963BR10        BRNC        BRNCCOCO    BRNCCOCO13AG00002300000000001236898000000000000000500000000000000000000000010863Z01620200402X066000000
2MAIL0000151963BR10        BRNC        BRNCCOCO    BRNCCOCO13AG00002400000000001239373400000000000000300000000000000000000000019017Z01620200402X066000000
2MAIL0000151963BR10        BRNC        BRNCCOCO    BRNCCOCO13AG00002500000000001239373700000000000000400000000000000000000000025357Z01620200402X066000000
2MAIL0000151963BR10        BRNC        BRNCCOCO    BRNCCOCO13AG00002600000000001239663300000000000005600000000000000000000000021373Z01620200402X066000000
2MAIL0000151963BR10        BRNC        BRNCCOCO    BRNCCOCO13AG00002700000000001239688300000000000005600000000000000000000000021373Z01620200402X066000000
2MAIL0000151963BR10        BRNC        BRNCCOCO    BRNCCOCO13AG00002800000000001239688500000000000005600000000000000000000000021373Z01620200402X066000000
2MAIL0000151963BR10        BRNC        BRNCCOCO    BRNCCOCO13AG00002900000000001239688600000000000005600000000000000000000000021373Z01620200402X066000000
2MAIL0000151963BR10        BRNC        BRNCCOCO    BRNCCOCO13AG00003000000000001239688700000000000005600000000000000000000000021373Z01620200402X066000000
2MAIL0000151963BR10        BRNC        BRNCCOCO    BRNCCOCO13AG00003100000000001239688800000000000005600000000000000000000000021373Z01620200402X066000000
2MAIL0000151963BR10        BRNC        BRNCCOCO    BRNCCOCO13AG00003200000000001239692000000000000005600000000000000000000000021373Z01620200402X066000000
2MAIL0000151963BR10        BRNC        BRNCCOCO    BRNCCOCO13AG00003300000000001239692100000000000005600000000000000000000000021373Z01620200402X066000000
2MAIL0000151963BR10        BRNC        BRNCCOCO    BRNCCOCO13AG00003400000000001239692300000000000005600000000000000000000000021373Z01620200402X066000000
2MAIL0000151963BR10        BRNC        BRNCCOCO    BRNCCOCO13AG00003500000000001241623700000000000001000000000000000000000000025866Z01620200402X066000000
2MAIL0000151963BR10        BRNC        BRNCCOCO    BRNCCOCO13AG00003600000000001242374800000000000000400000000000000000000000020305Z01620200402X066000000
2MAIL0000151963BR10        BRNC        BRNCCOCO    BRNCCOCO13AG00003700000000001242626100000000000005600000000000000000000000021373Z01620200402X066000000
2MAIL0000151963BR10        BRNC        BRNCCOCO    BRNCCOCO13AG00003800000000001242765000000000000005600000000000000000000000021373Z01620200402X066000000
1MAIL0000151964BR10        BRNC        BRNCCOCO    BRNCCOCO13AG2020040200:00:00OR  010000009213680000921368151964                             2020040220200402Z079CIF202004020000000000260418NN0                                                  0                                        
2MAIL0000151964BR10        BRNC        BRNCCOCO    BRNCCOCO13AG00000100000000001241577400000000000030000000000000000000000000260418Z07920200402X066000000
