1MAIL0000150358BR10        BRNC        BRNCCOCO    BRNCCOCO13AG2020031900:00:00OR  010000053561300005356130150358                             2020031920200319Z016CIF202003190000000000009035NN0                                                  0                                        
2MAIL0000150358BR10        BRNC        BRNCCOCO    BRNCCOCO13AG00000100000000001236512800000000000001600000000000000000000000003041Z01620200319X066000000
2MAIL0000150358BR10        BRNC        BRNCCOCO    BRNCCOCO13AG00000200000000001236512900000000000001500000000000000000000000002997Z01620200319X066000000
2MAIL0000150358BR10        BRNC        BRNCCOCO    BRNCCOCO13AG00000300000000001236515000000000000001500000000000000000000000002997Z01620200319X066000000
1MAIL0000150359BR10        BRNC        BRNCCOCO    BRNCCOCO13AG2020031900:00:00OR  010000044331020004433102150359                             2020031920200319Z016CIF202003190000000000017450NN0                                                  0                                        
2MAIL0000150359BR10        BRNC        BRNCCOCO    BRNCCOCO13AG00000100000000001132018300000000000000100000000000000000000000003541Z01620200319X066000000
2MAIL0000150359BR10        BRNC        BRNCCOCO    BRNCCOCO13AG00000200000000001221415400000000000000100000000000000000000000003541Z01620200319X066000000
2MAIL0000150359BR10        BRNC        BRNCCOCO    BRNCCOCO13AG00000300000000001241623700000000000000400000000000000000000000010368Z01620200319X066000000
1MAIL0000150360BR10        BRNC        BRNCCOCO    BRNCCOCO13AG2020031900:00:00OR  010000047181940004718194150360                             2020031920200319Z016CIF202003190000000000122452NN0                                                  0                                        
2MAIL0000150360BR10        BRNC        BRNCCOCO    BRNCCOCO13AG00000100000000001132019800000000000000200000000000000000000000003850Z01620200319X066000000
2MAIL0000150360BR10        BRNC        BRNCCOCO    BRNCCOCO13AG00000200000000001132033100000000000000400000000000000000000000008501Z01620200319X066000000
2MAIL0000150360BR10        BRNC        BRNCCOCO    BRNCCOCO13AG00000300000000001132036700000000000000600000000000000000000000012750Z01620200319X066000000
2MAIL0000150360BR10        BRNC        BRNCCOCO    BRNCCOCO13AG00000400000000001132200400000000000000400000000000000000000000008460Z01620200319X066000000
2MAIL0000150360BR10        BRNC        BRNCCOCO    BRNCCOCO13AG00000500000000001215533700000000000000100000000000000000000000002125Z01620200319X066000000
2MAIL0000150360BR10        BRNC        BRNCCOCO    BRNCCOCO13AG00000600000000001228274000000000000000100000000000000000000000004965Z01620200319X066000000
2MAIL0000150360BR10        BRNC        BRNCCOCO    BRNCCOCO13AG00000700000000001228512700000000000000100000000000000000000000004965Z01620200319X066000000
2MAIL0000150360BR10        BRNC        BRNCCOCO    BRNCCOCO13AG00000800000000001231189200000000000000100000000000000000000000004965Z01620200319X066000000
2MAIL0000150360BR10        BRNC        BRNCCOCO    BRNCCOCO13AG00000900000000001231231200000000000000200000000000000000000000009930Z01620200319X066000000
2MAIL0000150360BR10        BRNC        BRNCCOCO    BRNCCOCO13AG00001000000000001231233000000000000000100000000000000000000000004965Z01620200319X066000000
2MAIL0000150360BR10        BRNC        BRNCCOCO    BRNCCOCO13AG00001100000000001235699800000000000001000000000000000000000000003741Z01620200319X066000000
2MAIL0000150360BR10        BRNC        BRNCCOCO    BRNCCOCO13AG00001200000000001239373400000000000000100000000000000000000000006201Z01620200319X066000000
2MAIL0000150360BR10        BRNC        BRNCCOCO    BRNCCOCO13AG00001300000000001239688600000000000002800000000000000000000000010452Z01620200319X066000000
2MAIL0000150360BR10        BRNC        BRNCCOCO    BRNCCOCO13AG00001400000000001239688700000000000001400000000000000000000000005226Z01620200319X066000000
2MAIL0000150360BR10        BRNC        BRNCCOCO    BRNCCOCO13AG00001500000000001239688800000000000002800000000000000000000000010452Z01620200319X066000000
2MAIL0000150360BR10        BRNC        BRNCCOCO    BRNCCOCO13AG00001600000000001239692000000000000001400000000000000000000000005226Z01620200319X066000000
2MAIL0000150360BR10        BRNC        BRNCCOCO    BRNCCOCO13AG00001700000000001239692100000000000002800000000000000000000000010452Z01620200319X066000000
2MAIL0000150360BR10        BRNC        BRNCCOCO    BRNCCOCO13AG00001800000000001239692300000000000001400000000000000000000000005226Z01620200319X066000000
1MAIL0000150361BR10        BRNC        BRNCCOCO    BRNCCOCO13AG2020031900:00:00OR  010000057461140005746114150361                             2020031920200319Z016CIF202003190000000000007990NN0                                                  0                                        
2MAIL0000150361BR10        BRNC        BRNCCOCO    BRNCCOCO13AG00000100000000001236512900000000000002000000000000000000000000003995Z01620200319X066000000
2MAIL0000150361BR10        BRNC        BRNCCOCO    BRNCCOCO13AG00000200000000001236515000000000000002000000000000000000000000003995Z01620200319X066000000
1MAIL0000150362BR10        BRNC        BRNCCOCO    BRNCCOCO13AG2020031900:00:00OR  010000058240390005824039150362                             2020031920200319Z016CIF202003190000000000015630NN0                                                  0                                        
2MAIL0000150362BR10        BRNC        BRNCCOCO    BRNCCOCO13AG00000100000000001236512900000000000001500000000000000000000000003006Z01620200319X066000000
2MAIL0000150362BR10        BRNC        BRNCCOCO    BRNCCOCO13AG00000200000000001236515000000000000001500000000000000000000000003006Z01620200319X066000000
2MAIL0000150362BR10        BRNC        BRNCCOCO    BRNCCOCO13AG00000300000000001241577400000000000001000000000000000000000000009618Z01620200319X066000000
1MAIL0000150363BR10        BRNC        BRNCCOCO    BRNCCOCO13AG2020031900:00:00OR  010000028991390002899139150363                             2020031920200319Z016CIF202003190000000000018516NN0                                                  0                                        
2MAIL0000150363BR10        BRNC        BRNCCOCO    BRNCCOCO13AG00000100000000001132033100000000000000100000000000000000000000002291Z01620200319X066000000
2MAIL0000150363BR10        BRNC        BRNCCOCO    BRNCCOCO13AG00000200000000001132036700000000000000100000000000000000000000002291Z01620200319X066000000
2MAIL0000150363BR10        BRNC        BRNCCOCO    BRNCCOCO13AG00000300000000001239688800000000000001400000000000000000000000005885Z01620200319X066000000
2MAIL0000150363BR10        BRNC        BRNCCOCO    BRNCCOCO13AG00000400000000001241623700000000000000100000000000000000000000002481Z01620200319X066000000
2MAIL0000150363BR10        BRNC        BRNCCOCO    BRNCCOCO13AG00000500000000001242374800000000000000100000000000000000000000005568Z01620200319X066000000
1MAIL0000150364BR10        BRNC        BRNCCOCO    BRNCCOCO13AG2020031900:00:00OR  010000051661770005166177150364                             2020031920200319Z016CIF202003190000000000032424NN0                                                  0                                        
2MAIL0000150364BR10        BRNC        BRNCCOCO    BRNCCOCO13AG00000100000000001132200400000000000000200000000000000000000000004230Z01620200319X066000000
2MAIL0000150364BR10        BRNC        BRNCCOCO    BRNCCOCO13AG00000200000000001223975300000000000000100000000000000000000000005076Z01620200319X066000000
2MAIL0000150364BR10        BRNC        BRNCCOCO    BRNCCOCO13AG00000300000000001227395500000000000000100000000000000000000000002173Z01620200319X066000000
2MAIL0000150364BR10        BRNC        BRNCCOCO    BRNCCOCO13AG00000400000000001228274000000000000000100000000000000000000000005076Z01620200319X066000000
2MAIL0000150364BR10        BRNC        BRNCCOCO    BRNCCOCO13AG00000500000000001231231200000000000000100000000000000000000000005076Z01620200319X066000000
2MAIL0000150364BR10        BRNC        BRNCCOCO    BRNCCOCO13AG00000600000000001231389600000000000000100000000000000000000000002173Z01620200319X066000000
2MAIL0000150364BR10        BRNC        BRNCCOCO    BRNCCOCO13AG00000700000000001236512800000000000000400000000000000000000000000690Z01620200319X066000000
2MAIL0000150364BR10        BRNC        BRNCCOCO    BRNCCOCO13AG00000800000000001239688800000000000001400000000000000000000000005343Z01620200319X066000000
2MAIL0000150364BR10        BRNC        BRNCCOCO    BRNCCOCO13AG00000900000000001241623700000000000000100000000000000000000000002587Z01620200319X066000000
1MAIL0000150365BR10        BRNC        BRNCCOCO    BRNCCOCO13AG2020031900:00:00OR  010000029820440002982044150365                             2020031920200319Z016CIF202003190000000000056027NN0                                                  0                                        
2MAIL0000150365BR10        BRNC        BRNCCOCO    BRNCCOCO13AG00000100000000001132018300000000000000100000000000000000000000003541Z01620200319X066000000
2MAIL0000150365BR10        BRNC        BRNCCOCO    BRNCCOCO13AG00000200000000001132019800000000000000100000000000000000000000001967Z01620200319X066000000
2MAIL0000150365BR10        BRNC        BRNCCOCO    BRNCCOCO13AG00000300000000001132020900000000000000100000000000000000000000001967Z01620200319X066000000
2MAIL0000150365BR10        BRNC        BRNCCOCO    BRNCCOCO13AG00000400000000001132033100000000000000100000000000000000000000002173Z01620200319X066000000
2MAIL0000150365BR10        BRNC        BRNCCOCO    BRNCCOCO13AG00000500000000001132036700000000000000400000000000000000000000008692Z01620200319X066000000
2MAIL0000150365BR10        BRNC        BRNCCOCO    BRNCCOCO13AG00000600000000001132200400000000000000500000000000000000000000010575Z01620200319X066000000
2MAIL0000150365BR10        BRNC        BRNCCOCO    BRNCCOCO13AG00000700000000001221415400000000000000100000000000000000000000003541Z01620200319X066000000
2MAIL0000150365BR10        BRNC        BRNCCOCO    BRNCCOCO13AG00000800000000001227395500000000000000100000000000000000000000002173Z01620200319X066000000
2MAIL0000150365BR10        BRNC        BRNCCOCO    BRNCCOCO13AG00000900000000001227735000000000000000100000000000000000000000001967Z01620200319X066000000
2MAIL0000150365BR10        BRNC        BRNCCOCO    BRNCCOCO13AG00001000000000001234705700000000000000100000000000000000000000005280Z01620200319X066000000
2MAIL0000150365BR10        BRNC        BRNCCOCO    BRNCCOCO13AG00001100000000001234705800000000000000100000000000000000000000005280Z01620200319X066000000
2MAIL0000150365BR10        BRNC        BRNCCOCO    BRNCCOCO13AG00001200000000001234705900000000000000100000000000000000000000005280Z01620200319X066000000
2MAIL0000150365BR10        BRNC        BRNCCOCO    BRNCCOCO13AG00001300000000001236515000000000000000500000000000000000000000000999Z01620200319X066000000
2MAIL0000150365BR10        BRNC        BRNCCOCO    BRNCCOCO13AG00001400000000001241623700000000000000100000000000000000000000002592Z01620200319X066000000
1MAIL0000150366BR10        BRNC        BRNCCOCO    BRNCCOCO13AG2020031900:00:00OR  010000028516440002851644150366                             2020031920200319Z016CIF202003190000000000328304NN0                                                  0                                        
2MAIL0000150366BR10        BRNC        BRNCCOCO    BRNCCOCO13AG00000100000000001132019800000000000000400000000000000000000000007699Z01620200319X066000000
2MAIL0000150366BR10        BRNC        BRNCCOCO    BRNCCOCO13AG00000200000000001132019900000000000000400000000000000000000000007699Z01620200319X066000000
2MAIL0000150366BR10        BRNC        BRNCCOCO    BRNCCOCO13AG00000300000000001132020900000000000000400000000000000000000000007699Z01620200319X066000000
2MAIL0000150366BR10        BRNC        BRNCCOCO    BRNCCOCO13AG00000400000000001132034900000000000000500000000000000000000000010831Z01620200319X066000000
2MAIL0000150366BR10        BRNC        BRNCCOCO    BRNCCOCO13AG00000500000000001132035000000000000000500000000000000000000000012032Z01620200319X066000000
2MAIL0000150366BR10        BRNC        BRNCCOCO    BRNCCOCO13AG00000600000000001132035100000000000000500000000000000000000000011436Z01620200319X066000000
2MAIL0000150366BR10        BRNC        BRNCCOCO    BRNCCOCO13AG00000700000000001132036700000000000001000000000000000000000000021250Z01620200319X066000000
2MAIL0000150366BR10        BRNC        BRNCCOCO    BRNCCOCO13AG00000800000000001132200400000000000001000000000000000000000000021151Z01620200319X066000000
2MAIL0000150366BR10        BRNC        BRNCCOCO    BRNCCOCO13AG00000900000000001132400100000000000000100000000000000000000000002937Z01620200319X066000000
2MAIL0000150366BR10        BRNC        BRNCCOCO    BRNCCOCO13AG00001000000000001223975300000000000000200000000000000000000000009930Z01620200319X066000000
2MAIL0000150366BR10        BRNC        BRNCCOCO    BRNCCOCO13AG00001100000000001227735000000000000000400000000000000000000000007699Z01620200319X066000000
2MAIL0000150366BR10        BRNC        BRNCCOCO    BRNCCOCO13AG00001200000000001231189200000000000000200000000000000000000000009930Z01620200319X066000000
2MAIL0000150366BR10        BRNC        BRNCCOCO    BRNCCOCO13AG00001300000000001231231200000000000000200000000000000000000000009930Z01620200319X066000000
2MAIL0000150366BR10        BRNC        BRNCCOCO    BRNCCOCO13AG00001400000000001231233000000000000000200000000000000000000000009930Z01620200319X066000000
2MAIL0000150366BR10        BRNC        BRNCCOCO    BRNCCOCO13AG00001500000000001235699700000000000002000000000000000000000000007481Z01620200319X066000000
2MAIL0000150366BR10        BRNC        BRNCCOCO    BRNCCOCO13AG00001600000000001235699800000000000002000000000000000000000000007481Z01620200319X066000000
2MAIL0000150366BR10        BRNC        BRNCCOCO    BRNCCOCO13AG00001700000000001239688600000000000001400000000000000000000000005226Z01620200319X066000000
2MAIL0000150366BR10        BRNC        BRNCCOCO    BRNCCOCO13AG00001800000000001239688700000000000001400000000000000000000000005226Z01620200319X066000000
2MAIL0000150366BR10        BRNC        BRNCCOCO    BRNCCOCO13AG00001900000000001239688800000000000002800000000000000000000000010452Z01620200319X066000000
2MAIL0000150366BR10        BRNC        BRNCCOCO    BRNCCOCO13AG00002000000000001239692300000000000001400000000000000000000000005226Z01620200319X066000000
2MAIL0000150366BR10        BRNC        BRNCCOCO    BRNCCOCO13AG00002100000000001241577400000000000015000000000000000000000000127129Z01620200319X066000000
2MAIL0000150366BR10        BRNC        BRNCCOCO    BRNCCOCO13AG00002200000000001242374800000000000000200000000000000000000000009930Z01620200319X066000000
1MAIL0000150367BR10        BRNC        BRNCCOCO    BRNCCOCO13AG2020031900:00:00OR  010000029836640002983664150367                             2020031920200319Z016CIF202003190000000000227226NN0                                                  0                                        
2MAIL0000150367BR10        BRNC        BRNCCOCO    BRNCCOCO13AG00000100000000001132004000000000000001000000000000000000000000010202Z01620200319X066000000
2MAIL0000150367BR10        BRNC        BRNCCOCO    BRNCCOCO13AG00000200000000001132004200000000000001000000000000000000000000014065Z01620200319X066000000
2MAIL0000150367BR10        BRNC        BRNCCOCO    BRNCCOCO13AG00000300000000001132030900000000000000600000000000000000000000019243Z01620200319X066000000
2MAIL0000150367BR10        BRNC        BRNCCOCO    BRNCCOCO13AG00000400000000001132033100000000000000300000000000000000000000006518Z01620200319X066000000
2MAIL0000150367BR10        BRNC        BRNCCOCO    BRNCCOCO13AG00000500000000001132034900000000000000500000000000000000000000011074Z01620200319X066000000
2MAIL0000150367BR10        BRNC        BRNCCOCO    BRNCCOCO13AG00000600000000001132035100000000000000500000000000000000000000011693Z01620200319X066000000
2MAIL0000150367BR10        BRNC        BRNCCOCO    BRNCCOCO13AG00000700000000001132036700000000000000300000000000000000000000006518Z01620200319X066000000
2MAIL0000150367BR10        BRNC        BRNCCOCO    BRNCCOCO13AG00000800000000001132400100000000000000100000000000000000000000003003Z01620200319X066000000
2MAIL0000150367BR10        BRNC        BRNCCOCO    BRNCCOCO13AG00000900000000001215533700000000000000300000000000000000000000006518Z01620200319X066000000
2MAIL0000150367BR10        BRNC        BRNCCOCO    BRNCCOCO13AG00001000000000001223975300000000000000200000000000000000000000010153Z01620200319X066000000
2MAIL0000150367BR10        BRNC        BRNCCOCO    BRNCCOCO13AG00001100000000001227395500000000000000300000000000000000000000006518Z01620200319X066000000
2MAIL0000150367BR10        BRNC        BRNCCOCO    BRNCCOCO13AG00001200000000001228512700000000000000100000000000000000000000005076Z01620200319X066000000
2MAIL0000150367BR10        BRNC        BRNCCOCO    BRNCCOCO13AG00001300000000001231189200000000000000200000000000000000000000010153Z01620200319X066000000
2MAIL0000150367BR10        BRNC        BRNCCOCO    BRNCCOCO13AG00001400000000001231231200000000000000200000000000000000000000010153Z01620200319X066000000
2MAIL0000150367BR10        BRNC        BRNCCOCO    BRNCCOCO13AG00001500000000001231233000000000000000200000000000000000000000010153Z01620200319X066000000
2MAIL0000150367BR10        BRNC        BRNCCOCO    BRNCCOCO13AG00001600000000001234705700000000000000200000000000000000000000010153Z01620200319X066000000
2MAIL0000150367BR10        BRNC        BRNCCOCO    BRNCCOCO13AG00001700000000001234705800000000000000200000000000000000000000010153Z01620200319X066000000
2MAIL0000150367BR10        BRNC        BRNCCOCO    BRNCCOCO13AG00001800000000001234705900000000000000200000000000000000000000010153Z01620200319X066000000
2MAIL0000150367BR10        BRNC        BRNCCOCO    BRNCCOCO13AG00001900000000001235699400000000000001000000000000000000000000003825Z01620200319X066000000
2MAIL0000150367BR10        BRNC        BRNCCOCO    BRNCCOCO13AG00002000000000001235699700000000000001000000000000000000000000003825Z01620200319X066000000
2MAIL0000150367BR10        BRNC        BRNCCOCO    BRNCCOCO13AG00002100000000001235699800000000000001000000000000000000000000003825Z01620200319X066000000
2MAIL0000150367BR10        BRNC        BRNCCOCO    BRNCCOCO13AG00002200000000001236515000000000000007000000000000000000000000012727Z01620200319X066000000
2MAIL0000150367BR10        BRNC        BRNCCOCO    BRNCCOCO13AG00002300000000001239663300000000000001400000000000000000000000005343Z01620200319X066000000
2MAIL0000150367BR10        BRNC        BRNCCOCO    BRNCCOCO13AG00002400000000001239688700000000000001400000000000000000000000005343Z01620200319X066000000
2MAIL0000150367BR10        BRNC        BRNCCOCO    BRNCCOCO13AG00002500000000001239688800000000000001400000000000000000000000005343Z01620200319X066000000
2MAIL0000150367BR10        BRNC        BRNCCOCO    BRNCCOCO13AG00002600000000001239692100000000000001400000000000000000000000005343Z01620200319X066000000
2MAIL0000150367BR10        BRNC        BRNCCOCO    BRNCCOCO13AG00002700000000001242374800000000000000200000000000000000000000010153Z01620200319X066000000
1MAIL0000150368BR10        BRNC        BRNCCOCO    BRNCCOCO13AG2020031900:00:00OR  010000031994530003199453150368                             2020031920200319Z016CIF202003190000000000028801NN0                                                  0                                        
2MAIL0000150368BR10        BRNC        BRNCCOCO    BRNCCOCO13AG00000100000000001132033100000000000000100000000000000000000000001654Z01620200319X066000000
2MAIL0000150368BR10        BRNC        BRNCCOCO    BRNCCOCO13AG00000200000000001132036700000000000000100000000000000000000000001654Z01620200319X066000000
2MAIL0000150368BR10        BRNC        BRNCCOCO    BRNCCOCO13AG00000300000000001215533700000000000000100000000000000000000000001654Z01620200319X066000000
2MAIL0000150368BR10        BRNC        BRNCCOCO    BRNCCOCO13AG00000400000000001227395500000000000000100000000000000000000000001654Z01620200319X066000000
2MAIL0000150368BR10        BRNC        BRNCCOCO    BRNCCOCO13AG00000500000000001228512700000000000000100000000000000000000000004437Z01620200319X066000000
2MAIL0000150368BR10        BRNC        BRNCCOCO    BRNCCOCO13AG00000600000000001231189200000000000000100000000000000000000000004437Z01620200319X066000000
2MAIL0000150368BR10        BRNC        BRNCCOCO    BRNCCOCO13AG00000700000000001234705700000000000000100000000000000000000000004437Z01620200319X066000000
2MAIL0000150368BR10        BRNC        BRNCCOCO    BRNCCOCO13AG00000800000000001234705900000000000000100000000000000000000000004437Z01620200319X066000000
2MAIL0000150368BR10        BRNC        BRNCCOCO    BRNCCOCO13AG00000900000000001242374800000000000000100000000000000000000000004437Z01620200319X066000000
1MAIL0000150369BR10        BRNC        BRNCCOCO    BRNCCOCO13AG2020031900:00:00OR  010000058784680005878468150369                             2020031920200319Z016CIF202003190000000000006299NN0                                                  0                                        
2MAIL0000150369BR10        BRNC        BRNCCOCO    BRNCCOCO13AG00000100000000001132036700000000000000100000000000000000000000002291Z01620200319X066000000
2MAIL0000150369BR10        BRNC        BRNCCOCO    BRNCCOCO13AG00000200000000001236512900000000000001000000000000000000000000002004Z01620200319X066000000
2MAIL0000150369BR10        BRNC        BRNCCOCO    BRNCCOCO13AG00000300000000001236515000000000000001000000000000000000000000002004Z01620200319X066000000
1MAIL0000150370BR10        BRNC        BRNCCOCO    BRNCCOCO13AG2020031900:00:00OR  010000052340440005234044150370                             2020031920200319Z016CIF202003190000000000063795NN0                                                  0                                        
2MAIL0000150370BR10        BRNC        BRNCCOCO    BRNCCOCO13AG00000100000000001132019700000000000000100000000000000000000000001967Z01620200319X066000000
2MAIL0000150370BR10        BRNC        BRNCCOCO    BRNCCOCO13AG00000200000000001132020900000000000000100000000000000000000000001967Z01620200319X066000000
2MAIL0000150370BR10        BRNC        BRNCCOCO    BRNCCOCO13AG00000300000000001132200400000000000000800000000000000000000000016921Z01620200319X066000000
2MAIL0000150370BR10        BRNC        BRNCCOCO    BRNCCOCO13AG00000400000000001231189200000000000000100000000000000000000000005076Z01620200319X066000000
2MAIL0000150370BR10        BRNC        BRNCCOCO    BRNCCOCO13AG00000500000000001231231200000000000000100000000000000000000000005076Z01620200319X066000000
2MAIL0000150370BR10        BRNC        BRNCCOCO    BRNCCOCO13AG00000600000000001234705700000000000000100000000000000000000000005076Z01620200319X066000000
2MAIL0000150370BR10        BRNC        BRNCCOCO    BRNCCOCO13AG00000700000000001239373700000000000000100000000000000000000000006340Z01620200319X066000000
2MAIL0000150370BR10        BRNC        BRNCCOCO    BRNCCOCO13AG00000800000000001239663300000000000001400000000000000000000000005343Z01620200319X066000000
2MAIL0000150370BR10        BRNC        BRNCCOCO    BRNCCOCO13AG00000900000000001239688600000000000001400000000000000000000000005343Z01620200319X066000000
2MAIL0000150370BR10        BRNC        BRNCCOCO    BRNCCOCO13AG00001000000000001239688700000000000001400000000000000000000000005343Z01620200319X066000000
2MAIL0000150370BR10        BRNC        BRNCCOCO    BRNCCOCO13AG00001100000000001239692100000000000001400000000000000000000000005343Z01620200319X066000000
1MAIL0000150371BR10        BRNC        BRNCCOCO    BRNCCOCO13AG2020031900:00:00OR  010000057066770005706677150371                             2020031920200319Z016CIF202003190000000000039360NN0                                                  0                                        
2MAIL0000150371BR10        BRNC        BRNCCOCO    BRNCCOCO13AG00000100000000001132019800000000000000100000000000000000000000002076Z01620200319X066000000
2MAIL0000150371BR10        BRNC        BRNCCOCO    BRNCCOCO13AG00000200000000001132033100000000000000200000000000000000000000004581Z01620200319X066000000
2MAIL0000150371BR10        BRNC        BRNCCOCO    BRNCCOCO13AG00000300000000001132036700000000000000300000000000000000000000006872Z01620200319X066000000
2MAIL0000150371BR10        BRNC        BRNCCOCO    BRNCCOCO13AG00000400000000001231231200000000000000100000000000000000000000005568Z01620200319X066000000
2MAIL0000150371BR10        BRNC        BRNCCOCO    BRNCCOCO13AG00000500000000001236512900000000000001500000000000000000000000003006Z01620200319X066000000
2MAIL0000150371BR10        BRNC        BRNCCOCO    BRNCCOCO13AG00000600000000001236515000000000000001500000000000000000000000003006Z01620200319X066000000
2MAIL0000150371BR10        BRNC        BRNCCOCO    BRNCCOCO13AG00000700000000001239688600000000000001400000000000000000000000005885Z01620200319X066000000
2MAIL0000150371BR10        BRNC        BRNCCOCO    BRNCCOCO13AG00000800000000001239688800000000000001400000000000000000000000005885Z01620200319X066000000
2MAIL0000150371BR10        BRNC        BRNCCOCO    BRNCCOCO13AG00000900000000001241623700000000000000100000000000000000000000002481Z01620200319X066000000
1MAIL0000150372BR10        BRNC        BRNCCOCO    BRNCCOCO13AG2020031900:00:00OR  010000056883180005688318150372                             2020031920200319Z016CIF202003190000000000078780NN0                                                  0                                        
2MAIL0000150372BR10        BRNC        BRNCCOCO    BRNCCOCO13AG00000100000000001132200400000000000000200000000000000000000000004460Z01620200319X066000000
2MAIL0000150372BR10        BRNC        BRNCCOCO    BRNCCOCO13AG00000200000000001226089600000000000002400000000000000000000000010087Z01620200319X066000000
2MAIL0000150372BR10        BRNC        BRNCCOCO    BRNCCOCO13AG00000300000000001235699400000000000001000000000000000000000000004211Z01620200319X066000000
2MAIL0000150372BR10        BRNC        BRNCCOCO    BRNCCOCO13AG00000400000000001235699700000000000001000000000000000000000000004211Z01620200319X066000000
2MAIL0000150372BR10        BRNC        BRNCCOCO    BRNCCOCO13AG00000500000000001235699800000000000001000000000000000000000000004211Z01620200319X066000000
2MAIL0000150372BR10        BRNC        BRNCCOCO    BRNCCOCO13AG00000600000000001236512900000000000007000000000000000000000000014030Z01620200319X066000000
2MAIL0000150372BR10        BRNC        BRNCCOCO    BRNCCOCO13AG00000700000000001236515000000000000007000000000000000000000000014030Z01620200319X066000000
2MAIL0000150372BR10        BRNC        BRNCCOCO    BRNCCOCO13AG00000800000000001239663300000000000002800000000000000000000000011770Z01620200319X066000000
2MAIL0000150372BR10        BRNC        BRNCCOCO    BRNCCOCO13AG00000900000000001239688800000000000002800000000000000000000000011770Z01620200319X066000000
1MAIL0000150373BR10        BRNC        BRNCCOCO    BRNCCOCO13AG2020031900:00:00OR  010000060895100006089510150373                             2020031920200319Z016CIF202003190000000000011763NN0                                                  0                                        
2MAIL0000150373BR10        BRNC        BRNCCOCO    BRNCCOCO13AG00000100000000001132018300000000000000100000000000000000000000003541Z01620200319X066000000
2MAIL0000150373BR10        BRNC        BRNCCOCO    BRNCCOCO13AG00000200000000001132019800000000000000100000000000000000000000001967Z01620200319X066000000
2MAIL0000150373BR10        BRNC        BRNCCOCO    BRNCCOCO13AG00000300000000001132020900000000000000100000000000000000000000001967Z01620200319X066000000
2MAIL0000150373BR10        BRNC        BRNCCOCO    BRNCCOCO13AG00000400000000001132036700000000000000100000000000000000000000002173Z01620200319X066000000
2MAIL0000150373BR10        BRNC        BRNCCOCO    BRNCCOCO13AG00000500000000001132200400000000000000100000000000000000000000002115Z01620200319X066000000
