1MAIL0000152411BR10        BRNC        BRNCCOCO    BRNCCOCO13AG2020040700:00:00OR  010000048765890004876589152411                             2020040720200407Z016CIF202004070000000000022748NN0                                                  0                                        
2MAIL0000152411BR10        BRNC        BRNCCOCO    BRNCCOCO13AG00000100000000001241577400000000000003000000000000000000000000022748Z01620200407X066000000
1MAIL0000152412BR10        BRNC        BRNCCOCO    BRNCCOCO13AG2020040700:00:00OR  010000029831860002983186152412                             2020040720200407Z016CIF202004070000000000045192NN0                                                  0                                        
2MAIL0000152412BR10        BRNC        BRNCCOCO    BRNCCOCO13AG00000100000000001132019800000000000000100000000000000000000000002076Z01620200407X066000000
2MAIL0000152412BR10        BRNC        BRNCCOCO    BRNCCOCO13AG00000200000000001132019900000000000000200000000000000000000000004150Z01620200407X066000000
2MAIL0000152412BR10        BRNC        BRNCCOCO    BRNCCOCO13AG00000300000000001132020900000000000000100000000000000000000000002076Z01620200407X066000000
2MAIL0000152412BR10        BRNC        BRNCCOCO    BRNCCOCO13AG00000400000000001132036700000000000000300000000000000000000000006872Z01620200407X066000000
2MAIL0000152412BR10        BRNC        BRNCCOCO    BRNCCOCO13AG00000500000000001132400100000000000000100000000000000000000000003165Z01620200407X066000000
2MAIL0000152412BR10        BRNC        BRNCCOCO    BRNCCOCO13AG00000600000000001215533700000000000000200000000000000000000000004581Z01620200407X066000000
2MAIL0000152412BR10        BRNC        BRNCCOCO    BRNCCOCO13AG00000700000000001223975300000000000000100000000000000000000000005568Z01620200407X066000000
2MAIL0000152412BR10        BRNC        BRNCCOCO    BRNCCOCO13AG00000800000000001228274000000000000000100000000000000000000000005568Z01620200407X066000000
2MAIL0000152412BR10        BRNC        BRNCCOCO    BRNCCOCO13AG00000900000000001228512700000000000000100000000000000000000000005568Z01620200407X066000000
2MAIL0000152412BR10        BRNC        BRNCCOCO    BRNCCOCO13AG00001000000000001231231200000000000000100000000000000000000000005568Z01620200407X066000000
1MAIL0000152413BR10        BRNC        BRNCCOCO    BRNCCOCO13AG2020040700:00:00OR  010000039109650003910965152413                             2020040720200407Z016CIF202004070000000000053163NN0                                                  0                                        
2MAIL0000152413BR10        BRNC        BRNCCOCO    BRNCCOCO13AG00000100000000001132019800000000000000100000000000000000000000001967Z01620200407X066000000
2MAIL0000152413BR10        BRNC        BRNCCOCO    BRNCCOCO13AG00000200000000001132033100000000000000100000000000000000000000002173Z01620200407X066000000
2MAIL0000152413BR10        BRNC        BRNCCOCO    BRNCCOCO13AG00000300000000001132036700000000000000200000000000000000000000004345Z01620200407X066000000
2MAIL0000152413BR10        BRNC        BRNCCOCO    BRNCCOCO13AG00000400000000001226089600000000000001200000000000000000000000004580Z01620200407X066000000
2MAIL0000152413BR10        BRNC        BRNCCOCO    BRNCCOCO13AG00000500000000001227395500000000000000100000000000000000000000002173Z01620200407X066000000
2MAIL0000152413BR10        BRNC        BRNCCOCO    BRNCCOCO13AG00000600000000001231233000000000000000100000000000000000000000005076Z01620200407X066000000
2MAIL0000152413BR10        BRNC        BRNCCOCO    BRNCCOCO13AG00000700000000001236512900000000000000500000000000000000000000000909Z01620200407X066000000
2MAIL0000152413BR10        BRNC        BRNCCOCO    BRNCCOCO13AG00000800000000001236515000000000000000500000000000000000000000000909Z01620200407X066000000
2MAIL0000152413BR10        BRNC        BRNCCOCO    BRNCCOCO13AG00000900000000001236898000000000000000100000000000000000000000002173Z01620200407X066000000
2MAIL0000152413BR10        BRNC        BRNCCOCO    BRNCCOCO13AG00001000000000001239688800000000000001400000000000000000000000005343Z01620200407X066000000
2MAIL0000152413BR10        BRNC        BRNCCOCO    BRNCCOCO13AG00001100000000001239692300000000000001400000000000000000000000005343Z01620200407X066000000
2MAIL0000152413BR10        BRNC        BRNCCOCO    BRNCCOCO13AG00001200000000001241577400000000000001500000000000000000000000012999Z01620200407X066000000
2MAIL0000152413BR10        BRNC        BRNCCOCO    BRNCCOCO13AG00001300000000001241623700000000000000200000000000000000000000005173Z01620200407X066000000
1MAIL0000152414BR10        BRNC        BRNCCOCO    BRNCCOCO13AG2020040700:00:00OR  010000029803390002980339152414                             2020040720200407Z016CIF202004070000000000144474NN0                                                  0                                        
2MAIL0000152414BR10        BRNC        BRNCCOCO    BRNCCOCO13AG00000100000000001132019700000000000000100000000000000000000000001924Z01620200407X066000000
2MAIL0000152414BR10        BRNC        BRNCCOCO    BRNCCOCO13AG00000200000000001132019800000000000000100000000000000000000000001924Z01620200407X066000000
2MAIL0000152414BR10        BRNC        BRNCCOCO    BRNCCOCO13AG00000300000000001132019900000000000000100000000000000000000000001924Z01620200407X066000000
2MAIL0000152414BR10        BRNC        BRNCCOCO    BRNCCOCO13AG00000400000000001132020900000000000000100000000000000000000000001924Z01620200407X066000000
2MAIL0000152414BR10        BRNC        BRNCCOCO    BRNCCOCO13AG00000500000000001132030900000000000000200000000000000000000000006274Z01620200407X066000000
2MAIL0000152414BR10        BRNC        BRNCCOCO    BRNCCOCO13AG00000600000000001132033100000000000000100000000000000000000000002125Z01620200407X066000000
2MAIL0000152414BR10        BRNC        BRNCCOCO    BRNCCOCO13AG00000700000000001132034900000000000000500000000000000000000000010831Z01620200407X066000000
2MAIL0000152414BR10        BRNC        BRNCCOCO    BRNCCOCO13AG00000800000000001132036700000000000000100000000000000000000000002125Z01620200407X066000000
2MAIL0000152414BR10        BRNC        BRNCCOCO    BRNCCOCO13AG00000900000000001132200400000000000000300000000000000000000000006345Z01620200407X066000000
2MAIL0000152414BR10        BRNC        BRNCCOCO    BRNCCOCO13AG00001000000000001215533700000000000000100000000000000000000000002125Z01620200407X066000000
2MAIL0000152414BR10        BRNC        BRNCCOCO    BRNCCOCO13AG00001100000000001223975300000000000000100000000000000000000000004965Z01620200407X066000000
2MAIL0000152414BR10        BRNC        BRNCCOCO    BRNCCOCO13AG00001200000000001226089600000000000001200000000000000000000000004480Z01620200407X066000000
2MAIL0000152414BR10        BRNC        BRNCCOCO    BRNCCOCO13AG00001300000000001227395500000000000000100000000000000000000000002125Z01620200407X066000000
2MAIL0000152414BR10        BRNC        BRNCCOCO    BRNCCOCO13AG00001400000000001228274000000000000000100000000000000000000000004965Z01620200407X066000000
2MAIL0000152414BR10        BRNC        BRNCCOCO    BRNCCOCO13AG00001500000000001228512700000000000000100000000000000000000000004965Z01620200407X066000000
2MAIL0000152414BR10        BRNC        BRNCCOCO    BRNCCOCO13AG00001600000000001231189200000000000000100000000000000000000000004965Z01620200407X066000000
2MAIL0000152414BR10        BRNC        BRNCCOCO    BRNCCOCO13AG00001700000000001231231200000000000000100000000000000000000000004965Z01620200407X066000000
2MAIL0000152414BR10        BRNC        BRNCCOCO    BRNCCOCO13AG00001800000000001231233000000000000000100000000000000000000000004965Z01620200407X066000000
2MAIL0000152414BR10        BRNC        BRNCCOCO    BRNCCOCO13AG00001900000000001231389600000000000000100000000000000000000000002125Z01620200407X066000000
2MAIL0000152414BR10        BRNC        BRNCCOCO    BRNCCOCO13AG00002000000000001234705700000000000000100000000000000000000000004965Z01620200407X066000000
2MAIL0000152414BR10        BRNC        BRNCCOCO    BRNCCOCO13AG00002100000000001234705800000000000000100000000000000000000000004965Z01620200407X066000000
2MAIL0000152414BR10        BRNC        BRNCCOCO    BRNCCOCO13AG00002200000000001234705900000000000000100000000000000000000000004965Z01620200407X066000000
2MAIL0000152414BR10        BRNC        BRNCCOCO    BRNCCOCO13AG00002300000000001235699400000000000002000000000000000000000000007481Z01620200407X066000000
2MAIL0000152414BR10        BRNC        BRNCCOCO    BRNCCOCO13AG00002400000000001235699700000000000002000000000000000000000000007481Z01620200407X066000000
2MAIL0000152414BR10        BRNC        BRNCCOCO    BRNCCOCO13AG00002500000000001235699800000000000002000000000000000000000000007481Z01620200407X066000000
2MAIL0000152414BR10        BRNC        BRNCCOCO    BRNCCOCO13AG00002600000000001239688600000000000001400000000000000000000000005226Z01620200407X066000000
2MAIL0000152414BR10        BRNC        BRNCCOCO    BRNCCOCO13AG00002700000000001239688700000000000001400000000000000000000000005226Z01620200407X066000000
2MAIL0000152414BR10        BRNC        BRNCCOCO    BRNCCOCO13AG00002800000000001239688800000000000001400000000000000000000000005226Z01620200407X066000000
2MAIL0000152414BR10        BRNC        BRNCCOCO    BRNCCOCO13AG00002900000000001239692300000000000001400000000000000000000000005226Z01620200407X066000000
2MAIL0000152414BR10        BRNC        BRNCCOCO    BRNCCOCO13AG00003000000000001242374800000000000000100000000000000000000000004965Z01620200407X066000000
2MAIL0000152414BR10        BRNC        BRNCCOCO    BRNCCOCO13AG00003100000000001242765000000000000001400000000000000000000000005226Z01620200407X066000000
1MAIL0000152416BR10        BRNC        BRNCCOCO    BRNCCOCO13AG2020040700:00:00OR  010000060161350006016135152416                             2020040720200407Z016CIF202004070000000000034200NN0                                                  0                                        
2MAIL0000152416BR10        BRNC        BRNCCOCO    BRNCCOCO13AG00000100000000001132019800000000000000100000000000000000000000001498Z01620200407X066000000
2MAIL0000152416BR10        BRNC        BRNCCOCO    BRNCCOCO13AG00000200000000001132019900000000000000100000000000000000000000001498Z01620200407X066000000
2MAIL0000152416BR10        BRNC        BRNCCOCO    BRNCCOCO13AG00000300000000001235699400000000000001000000000000000000000000003352Z01620200407X066000000
2MAIL0000152416BR10        BRNC        BRNCCOCO    BRNCCOCO13AG00000400000000001235699700000000000001000000000000000000000000003352Z01620200407X066000000
2MAIL0000152416BR10        BRNC        BRNCCOCO    BRNCCOCO13AG00000500000000001235699800000000000002000000000000000000000000006704Z01620200407X066000000
2MAIL0000152416BR10        BRNC        BRNCCOCO    BRNCCOCO13AG00000600000000001239373600000000000000100000000000000000000000005529Z01620200407X066000000
2MAIL0000152416BR10        BRNC        BRNCCOCO    BRNCCOCO13AG00000700000000001239688700000000000001400000000000000000000000004684Z01620200407X066000000
2MAIL0000152416BR10        BRNC        BRNCCOCO    BRNCCOCO13AG00000800000000001241577400000000000001000000000000000000000000007583Z01620200407X066000000
