1MAIL0000152161BR10        BRNC        BRNCCOCO    BRNCCOCO13AG2020040300:00:00OR  010000029373760002937376152161                             2020040320200403Z016CIF202004030000000000219298NN0                                                  0                                        
2MAIL0000152161BR10        BRNC        BRNCCOCO    BRNCCOCO13AG00000100000000001132019700000000000000200000000000000000000000003936Z01620200403X066000000
2MAIL0000152161BR10        BRNC        BRNCCOCO    BRNCCOCO13AG00000200000000001132019800000000000000200000000000000000000000003936Z01620200403X066000000
2MAIL0000152161BR10        BRNC        BRNCCOCO    BRNCCOCO13AG00000300000000001132020900000000000000200000000000000000000000003936Z01620200403X066000000
2MAIL0000152161BR10        BRNC        BRNCCOCO    BRNCCOCO13AG00000400000000001132033100000000000000600000000000000000000000013036Z01620200403X066000000
2MAIL0000152161BR10        BRNC        BRNCCOCO    BRNCCOCO13AG00000500000000001132036700000000000001200000000000000000000000026073Z01620200403X066000000
2MAIL0000152161BR10        BRNC        BRNCCOCO    BRNCCOCO13AG00000600000000001132200400000000000001000000000000000000000000021151Z01620200403X066000000
2MAIL0000152161BR10        BRNC        BRNCCOCO    BRNCCOCO13AG00000700000000001132400100000000000000200000000000000000000000006006Z01620200403X066000000
2MAIL0000152161BR10        BRNC        BRNCCOCO    BRNCCOCO13AG00000800000000001215533700000000000000600000000000000000000000013036Z01620200403X066000000
2MAIL0000152161BR10        BRNC        BRNCCOCO    BRNCCOCO13AG00000900000000001223975300000000000000100000000000000000000000005076Z01620200403X066000000
2MAIL0000152161BR10        BRNC        BRNCCOCO    BRNCCOCO13AG00001000000000001227395500000000000000600000000000000000000000013036Z01620200403X066000000
2MAIL0000152161BR10        BRNC        BRNCCOCO    BRNCCOCO13AG00001100000000001227735000000000000000200000000000000000000000003936Z01620200403X066000000
2MAIL0000152161BR10        BRNC        BRNCCOCO    BRNCCOCO13AG00001200000000001231189200000000000000200000000000000000000000010153Z01620200403X066000000
2MAIL0000152161BR10        BRNC        BRNCCOCO    BRNCCOCO13AG00001300000000001231231200000000000000100000000000000000000000005076Z01620200403X066000000
2MAIL0000152161BR10        BRNC        BRNCCOCO    BRNCCOCO13AG00001400000000001231233000000000000000100000000000000000000000005076Z01620200403X066000000
2MAIL0000152161BR10        BRNC        BRNCCOCO    BRNCCOCO13AG00001500000000001231389600000000000000600000000000000000000000013036Z01620200403X066000000
2MAIL0000152161BR10        BRNC        BRNCCOCO    BRNCCOCO13AG00001600000000001235699400000000000001000000000000000000000000003825Z01620200403X066000000
2MAIL0000152161BR10        BRNC        BRNCCOCO    BRNCCOCO13AG00001700000000001236512800000000000000400000000000000000000000000690Z01620200403X066000000
2MAIL0000152161BR10        BRNC        BRNCCOCO    BRNCCOCO13AG00001800000000001236512900000000000000500000000000000000000000000909Z01620200403X066000000
2MAIL0000152161BR10        BRNC        BRNCCOCO    BRNCCOCO13AG00001900000000001236515000000000000000500000000000000000000000000909Z01620200403X066000000
2MAIL0000152161BR10        BRNC        BRNCCOCO    BRNCCOCO13AG00002000000000001236898000000000000000600000000000000000000000013036Z01620200403X066000000
2MAIL0000152161BR10        BRNC        BRNCCOCO    BRNCCOCO13AG00002100000000001239688300000000000001400000000000000000000000005343Z01620200403X066000000
2MAIL0000152161BR10        BRNC        BRNCCOCO    BRNCCOCO13AG00002200000000001239688500000000000001400000000000000000000000005343Z01620200403X066000000
2MAIL0000152161BR10        BRNC        BRNCCOCO    BRNCCOCO13AG00002300000000001239688600000000000001400000000000000000000000005343Z01620200403X066000000
2MAIL0000152161BR10        BRNC        BRNCCOCO    BRNCCOCO13AG00002400000000001239688700000000000001400000000000000000000000005343Z01620200403X066000000
2MAIL0000152161BR10        BRNC        BRNCCOCO    BRNCCOCO13AG00002500000000001239688800000000000001400000000000000000000000005343Z01620200403X066000000
2MAIL0000152161BR10        BRNC        BRNCCOCO    BRNCCOCO13AG00002600000000001239692000000000000001400000000000000000000000005343Z01620200403X066000000
2MAIL0000152161BR10        BRNC        BRNCCOCO    BRNCCOCO13AG00002700000000001239692100000000000001400000000000000000000000005343Z01620200403X066000000
2MAIL0000152161BR10        BRNC        BRNCCOCO    BRNCCOCO13AG00002800000000001239692300000000000001400000000000000000000000005343Z01620200403X066000000
2MAIL0000152161BR10        BRNC        BRNCCOCO    BRNCCOCO13AG00002900000000001242626100000000000001400000000000000000000000005343Z01620200403X066000000
2MAIL0000152161BR10        BRNC        BRNCCOCO    BRNCCOCO13AG00003000000000001242765000000000000001400000000000000000000000005343Z01620200403X066000000
1MAIL0000152162BR10        BRNC        BRNCCOCO    BRNCCOCO13AG2020040300:00:00OR  010000056772900005677290152162                             2020040320200403Z016CIF202004030000000000018643NN0                                                  0                                        
2MAIL0000152162BR10        BRNC        BRNCCOCO    BRNCCOCO13AG00000100000000001132033100000000000000100000000000000000000000002291Z01620200403X066000000
2MAIL0000152162BR10        BRNC        BRNCCOCO    BRNCCOCO13AG00000200000000001132036700000000000000100000000000000000000000002291Z01620200403X066000000
2MAIL0000152162BR10        BRNC        BRNCCOCO    BRNCCOCO13AG00000300000000001215533700000000000000100000000000000000000000002291Z01620200403X066000000
2MAIL0000152162BR10        BRNC        BRNCCOCO    BRNCCOCO13AG00000400000000001239663300000000000002800000000000000000000000011770Z01620200403X066000000
