1MAIL0000152018BR10        BRNC        BRNCCOCO    BRNCCOCO13AG2020040200:00:00OR  010000049043260004904326152018                             2020040220200402Z016CIF202004020000000000040701NN0                                                  0                                        
2MAIL0000152018BR10        BRNC        BRNCCOCO    BRNCCOCO13AG00000100000000001132033100000000000000200000000000000000000000004581Z01620200402X066000000
2MAIL0000152018BR10        BRNC        BRNCCOCO    BRNCCOCO13AG00000200000000001132036700000000000000400000000000000000000000009163Z01620200402X066000000
2MAIL0000152018BR10        BRNC        BRNCCOCO    BRNCCOCO13AG00000300000000001215533700000000000000100000000000000000000000002291Z01620200402X066000000
2MAIL0000152018BR10        BRNC        BRNCCOCO    BRNCCOCO13AG00000400000000001226089600000000000001200000000000000000000000004641Z01620200402X066008000
2MAIL0000152018BR10        BRNC        BRNCCOCO    BRNCCOCO13AG00000500000000001227395500000000000000100000000000000000000000002291Z01620200402X066000000
2MAIL0000152018BR10        BRNC        BRNCCOCO    BRNCCOCO13AG00000600000000001236515000000000000000500000000000000000000000001002Z01620200402X066000000
2MAIL0000152018BR10        BRNC        BRNCCOCO    BRNCCOCO13AG00000700000000001239688600000000000001400000000000000000000000005885Z01620200402X066000000
2MAIL0000152018BR10        BRNC        BRNCCOCO    BRNCCOCO13AG00000800000000001239692300000000000001400000000000000000000000005885Z01620200402X066000000
2MAIL0000152018BR10        BRNC        BRNCCOCO    BRNCCOCO13AG00000900000000001241623700000000000000200000000000000000000000004962Z01620200402X066000000
