1MAIL0000152651BR10        BRNC        BRNCCOCO    BRNCCOCO13AG2020040800:00:00OR  010000058532200005853220152651                             2020040820200408Z016CIF202004080000000000020081NN0                                                  0                                        
2MAIL0000152651BR10        BRNC        BRNCCOCO    BRNCCOCO13AG00000100000000001132018300000000000000100000000000000000000000002862Z01620200408X066000000
2MAIL0000152651BR10        BRNC        BRNCCOCO    BRNCCOCO13AG00000200000000001236512800000000000001600000000000000000000000002612Z01620200408X066000000
2MAIL0000152651BR10        BRNC        BRNCCOCO    BRNCCOCO13AG00000300000000001240924900000000000001600000000000000000000000002514Z01620200408X066000000
2MAIL0000152651BR10        BRNC        BRNCCOCO    BRNCCOCO13AG00000400000000001241577400000000000001500000000000000000000000012093Z01620200408X066000000
1MAIL0000152652BR10        BRNC        BRNCCOCO    BRNCCOCO13AG2020040800:00:00OR  010000056295830005629583152652                             2020040820200408Z016CIF202004080000000000138395NN0                                                  0                                        
2MAIL0000152652BR10        BRNC        BRNCCOCO    BRNCCOCO13AG00000100000000001132019700000000000000500000000000000000000000007984Z01620200408X066000000
2MAIL0000152652BR10        BRNC        BRNCCOCO    BRNCCOCO13AG00000200000000001132019800000000000000500000000000000000000000007984Z01620200408X066000000
2MAIL0000152652BR10        BRNC        BRNCCOCO    BRNCCOCO13AG00000300000000001132019900000000000000500000000000000000000000007984Z01620200408X066000000
2MAIL0000152652BR10        BRNC        BRNCCOCO    BRNCCOCO13AG00000400000000001132020900000000000000500000000000000000000000007984Z01620200408X066000000
2MAIL0000152652BR10        BRNC        BRNCCOCO    BRNCCOCO13AG00000500000000001223975300000000000000500000000000000000000000020590Z01620200408X066000000
2MAIL0000152652BR10        BRNC        BRNCCOCO    BRNCCOCO13AG00000600000000001227735000000000000000500000000000000000000000007984Z01620200408X066000000
2MAIL0000152652BR10        BRNC        BRNCCOCO    BRNCCOCO13AG00000700000000001228512700000000000000400000000000000000000000016472Z01620200408X066000000
2MAIL0000152652BR10        BRNC        BRNCCOCO    BRNCCOCO13AG00000800000000001231231200000000000000400000000000000000000000016472Z01620200408X066000000
2MAIL0000152652BR10        BRNC        BRNCCOCO    BRNCCOCO13AG00000900000000001231233000000000000000400000000000000000000000016472Z01620200408X066000000
2MAIL0000152652BR10        BRNC        BRNCCOCO    BRNCCOCO13AG00001000000000001236512800000000000005200000000000000000000000007425Z01620200408X066000000
2MAIL0000152652BR10        BRNC        BRNCCOCO    BRNCCOCO13AG00001100000000001236512900000000000007000000000000000000000000010522Z01620200408X066000000
2MAIL0000152652BR10        BRNC        BRNCCOCO    BRNCCOCO13AG00001200000000001236515000000000000007000000000000000000000000010522Z01620200408X066000000
