1MAIL0000150746BR10        BRNC        BRNCCOCO    BRNCCOCO13AG2020032400:00:00OR  010000060224150006022415150746                             2020032420200324Z016CIF202003240000000000024484NN0                                                  0                                        
2MAIL0000150746BR10        BRNC        BRNCCOCO    BRNCCOCO13AG00000100000000001132033100000000000000100000000000000000000000002291Z01620200324X066000000
2MAIL0000150746BR10        BRNC        BRNCCOCO    BRNCCOCO13AG00000200000000001132036700000000000000100000000000000000000000002291Z01620200324X066000000
2MAIL0000150746BR10        BRNC        BRNCCOCO    BRNCCOCO13AG00000300000000001132200400000000000000100000000000000000000000002230Z01620200324X066000000
2MAIL0000150746BR10        BRNC        BRNCCOCO    BRNCCOCO13AG00000400000000001235699800000000000001000000000000000000000000004211Z01620200324X066000000
2MAIL0000150746BR10        BRNC        BRNCCOCO    BRNCCOCO13AG00000500000000001236512800000000000000400000000000000000000000000762Z01620200324X066000000
2MAIL0000150746BR10        BRNC        BRNCCOCO    BRNCCOCO13AG00000600000000001236512900000000000000500000000000000000000000001002Z01620200324X066000000
2MAIL0000150746BR10        BRNC        BRNCCOCO    BRNCCOCO13AG00000700000000001236515000000000000000500000000000000000000000001002Z01620200324X066000000
2MAIL0000150746BR10        BRNC        BRNCCOCO    BRNCCOCO13AG00000800000000001239688800000000000001400000000000000000000000005885Z01620200324X066000000
2MAIL0000150746BR10        BRNC        BRNCCOCO    BRNCCOCO13AG00000900000000001241577400000000000000500000000000000000000000004810Z01620200324X066000000
1MAIL0000150747BR10        BRNC        BRNCCOCO    BRNCCOCO13AG2020032400:00:00OR  010000047024920004702492150747                             2020032420200324Z016CIF202003240000000000581115NN0                                                  0                                        
2MAIL0000150747BR10        BRNC        BRNCCOCO    BRNCCOCO13AG00000100000000001132019700000000000000100000000000000000000000001967Z01620200324X066000000
2MAIL0000150747BR10        BRNC        BRNCCOCO    BRNCCOCO13AG00000200000000001132019800000000000000100000000000000000000000001967Z01620200324X066000000
2MAIL0000150747BR10        BRNC        BRNCCOCO    BRNCCOCO13AG00000300000000001132019900000000000000100000000000000000000000001967Z01620200324X066000000
2MAIL0000150747BR10        BRNC        BRNCCOCO    BRNCCOCO13AG00000400000000001132020900000000000000100000000000000000000000001967Z01620200324X066000000
2MAIL0000150747BR10        BRNC        BRNCCOCO    BRNCCOCO13AG00000500000000001132030800000000000001000000000000000000000000031086Z01620200324X066000000
2MAIL0000150747BR10        BRNC        BRNCCOCO    BRNCCOCO13AG00000600000000001132030900000000000001000000000000000000000000032072Z01620200324X066000000
2MAIL0000150747BR10        BRNC        BRNCCOCO    BRNCCOCO13AG00000700000000001132033100000000000001000000000000000000000000021728Z01620200324X066000000
2MAIL0000150747BR10        BRNC        BRNCCOCO    BRNCCOCO13AG00000800000000001132033900000000000001000000000000000000000000034098Z01620200324X066000000
2MAIL0000150747BR10        BRNC        BRNCCOCO    BRNCCOCO13AG00000900000000001132034900000000000001000000000000000000000000022150Z01620200324X066000000
2MAIL0000150747BR10        BRNC        BRNCCOCO    BRNCCOCO13AG00001000000000001132035000000000000001000000000000000000000000024606Z01620200324X066000000
2MAIL0000150747BR10        BRNC        BRNCCOCO    BRNCCOCO13AG00001100000000001132035100000000000001000000000000000000000000023385Z01620200324X066000000
2MAIL0000150747BR10        BRNC        BRNCCOCO    BRNCCOCO13AG00001200000000001132036700000000000001000000000000000000000000021728Z01620200324X066000000
2MAIL0000150747BR10        BRNC        BRNCCOCO    BRNCCOCO13AG00001300000000001132185100000000000001000000000000000000000000028403Z01620200324X066000000
2MAIL0000150747BR10        BRNC        BRNCCOCO    BRNCCOCO13AG00001400000000001132200400000000000000200000000000000000000000004230Z01620200324X066000000
2MAIL0000150747BR10        BRNC        BRNCCOCO    BRNCCOCO13AG00001500000000001132400100000000000000100000000000000000000000003003Z01620200324X066000000
2MAIL0000150747BR10        BRNC        BRNCCOCO    BRNCCOCO13AG00001600000000001215533700000000000001000000000000000000000000021728Z01620200324X066000000
2MAIL0000150747BR10        BRNC        BRNCCOCO    BRNCCOCO13AG00001700000000001223975300000000000000200000000000000000000000010153Z01620200324X066000000
2MAIL0000150747BR10        BRNC        BRNCCOCO    BRNCCOCO13AG00001800000000001224882800000000000000100000000000000000000000003159Z01620200324X066000000
2MAIL0000150747BR10        BRNC        BRNCCOCO    BRNCCOCO13AG00001900000000001226089600000000000002400000000000000000000000009159Z01620200324X066000000
2MAIL0000150747BR10        BRNC        BRNCCOCO    BRNCCOCO13AG00002000000000001227395500000000000000500000000000000000000000010863Z01620200324X066000000
2MAIL0000150747BR10        BRNC        BRNCCOCO    BRNCCOCO13AG00002100000000001227735000000000000000100000000000000000000000001967Z01620200324X066000000
2MAIL0000150747BR10        BRNC        BRNCCOCO    BRNCCOCO13AG00002200000000001228274000000000000000200000000000000000000000010153Z01620200324X066000000
2MAIL0000150747BR10        BRNC        BRNCCOCO    BRNCCOCO13AG00002300000000001228512700000000000000200000000000000000000000010153Z01620200324X066000000
2MAIL0000150747BR10        BRNC        BRNCCOCO    BRNCCOCO13AG00002400000000001231189200000000000000200000000000000000000000010153Z01620200324X066000000
2MAIL0000150747BR10        BRNC        BRNCCOCO    BRNCCOCO13AG00002500000000001231231200000000000000200000000000000000000000010153Z01620200324X066000000
2MAIL0000150747BR10        BRNC        BRNCCOCO    BRNCCOCO13AG00002600000000001231233000000000000000200000000000000000000000010153Z01620200324X066000000
2MAIL0000150747BR10        BRNC        BRNCCOCO    BRNCCOCO13AG00002700000000001231389600000000000000200000000000000000000000004345Z01620200324X066000000
2MAIL0000150747BR10        BRNC        BRNCCOCO    BRNCCOCO13AG00002800000000001234705700000000000000200000000000000000000000010153Z01620200324X066000000
2MAIL0000150747BR10        BRNC        BRNCCOCO    BRNCCOCO13AG00002900000000001234705800000000000000200000000000000000000000010153Z01620200324X066000000
2MAIL0000150747BR10        BRNC        BRNCCOCO    BRNCCOCO13AG00003000000000001234705900000000000000200000000000000000000000010153Z01620200324X066000000
2MAIL0000150747BR10        BRNC        BRNCCOCO    BRNCCOCO13AG00003100000000001235699400000000000002000000000000000000000000007648Z01620200324X066000000
2MAIL0000150747BR10        BRNC        BRNCCOCO    BRNCCOCO13AG00003200000000001235699700000000000002000000000000000000000000007648Z01620200324X066000000
2MAIL0000150747BR10        BRNC        BRNCCOCO    BRNCCOCO13AG00003300000000001235699800000000000002000000000000000000000000007648Z01620200324X066000000
2MAIL0000150747BR10        BRNC        BRNCCOCO    BRNCCOCO13AG00003400000000001238083500000000000000200000000000000000000000010153Z01620200324X066000000
2MAIL0000150747BR10        BRNC        BRNCCOCO    BRNCCOCO13AG00003500000000001239373600000000000000200000000000000000000000012678Z01620200324X066000000
2MAIL0000150747BR10        BRNC        BRNCCOCO    BRNCCOCO13AG00003600000000001239663300000000000002800000000000000000000000010686Z01620200324X066000000
2MAIL0000150747BR10        BRNC        BRNCCOCO    BRNCCOCO13AG00003700000000001239688300000000000002800000000000000000000000010686Z01620200324X066000000
2MAIL0000150747BR10        BRNC        BRNCCOCO    BRNCCOCO13AG00003800000000001239688500000000000002800000000000000000000000010686Z01620200324X066000000
2MAIL0000150747BR10        BRNC        BRNCCOCO    BRNCCOCO13AG00003900000000001239688600000000000002800000000000000000000000010686Z01620200324X066000000
2MAIL0000150747BR10        BRNC        BRNCCOCO    BRNCCOCO13AG00004000000000001239688700000000000002800000000000000000000000010686Z01620200324X066000000
2MAIL0000150747BR10        BRNC        BRNCCOCO    BRNCCOCO13AG00004100000000001239688800000000000002800000000000000000000000010686Z01620200324X066000000
2MAIL0000150747BR10        BRNC        BRNCCOCO    BRNCCOCO13AG00004200000000001239692000000000000002800000000000000000000000010686Z01620200324X066000000
2MAIL0000150747BR10        BRNC        BRNCCOCO    BRNCCOCO13AG00004300000000001239692100000000000002800000000000000000000000010686Z01620200324X066000000
2MAIL0000150747BR10        BRNC        BRNCCOCO    BRNCCOCO13AG00004400000000001239692300000000000002800000000000000000000000010686Z01620200324X066000000
2MAIL0000150747BR10        BRNC        BRNCCOCO    BRNCCOCO13AG00004500000000001242374800000000000000200000000000000000000000010153Z01620200324X066000000
2MAIL0000150747BR10        BRNC        BRNCCOCO    BRNCCOCO13AG00004600000000001242626100000000000002800000000000000000000000010686Z01620200324X066000000
2MAIL0000150747BR10        BRNC        BRNCCOCO    BRNCCOCO13AG00004700000000001242754900000000000002800000000000000000000000010686Z01620200324X066000000
2MAIL0000150747BR10        BRNC        BRNCCOCO    BRNCCOCO13AG00004800000000001242765000000000000002800000000000000000000000010686Z01620200324X066000000
1MAIL0000150748BR10        BRNC        BRNCCOCO    BRNCCOCO13AG2020032400:00:00OR  010000028569410002856941150748                             2020032420200324Z016CIF202003240000000000343026NN0                                                  0                                        
2MAIL0000150748BR10        BRNC        BRNCCOCO    BRNCCOCO13AG00000100000000001132004000000000000000500000000000000000000000005102Z01620200324X066000000
2MAIL0000150748BR10        BRNC        BRNCCOCO    BRNCCOCO13AG00000200000000001132004200000000000000500000000000000000000000007033Z01620200324X066000000
2MAIL0000150748BR10        BRNC        BRNCCOCO    BRNCCOCO13AG00000300000000001132018300000000000000100000000000000000000000003541Z01620200324X066000000
2MAIL0000150748BR10        BRNC        BRNCCOCO    BRNCCOCO13AG00000400000000001132019700000000000000200000000000000000000000003936Z01620200324X066000000
2MAIL0000150748BR10        BRNC        BRNCCOCO    BRNCCOCO13AG00000500000000001132019800000000000000200000000000000000000000003936Z01620200324X066000000
2MAIL0000150748BR10        BRNC        BRNCCOCO    BRNCCOCO13AG00000600000000001132033100000000000000200000000000000000000000004345Z01620200324X066000000
2MAIL0000150748BR10        BRNC        BRNCCOCO    BRNCCOCO13AG00000700000000001132034900000000000000500000000000000000000000011074Z01620200324X066000000
2MAIL0000150748BR10        BRNC        BRNCCOCO    BRNCCOCO13AG00000800000000001132036700000000000001000000000000000000000000021728Z01620200324X066000000
2MAIL0000150748BR10        BRNC        BRNCCOCO    BRNCCOCO13AG00000900000000001132200400000000000000200000000000000000000000004230Z01620200324X066000000
2MAIL0000150748BR10        BRNC        BRNCCOCO    BRNCCOCO13AG00001000000000001132400100000000000000200000000000000000000000006006Z01620200324X066000000
2MAIL0000150748BR10        BRNC        BRNCCOCO    BRNCCOCO13AG00001100000000001215533700000000000000500000000000000000000000010863Z01620200324X066000000
2MAIL0000150748BR10        BRNC        BRNCCOCO    BRNCCOCO13AG00001200000000001221415400000000000000100000000000000000000000003541Z01620200324X066000000
2MAIL0000150748BR10        BRNC        BRNCCOCO    BRNCCOCO13AG00001300000000001223975300000000000000200000000000000000000000010153Z01620200324X066000000
2MAIL0000150748BR10        BRNC        BRNCCOCO    BRNCCOCO13AG00001400000000001224882700000000000000100000000000000000000000003159Z01620200324X066000000
2MAIL0000150748BR10        BRNC        BRNCCOCO    BRNCCOCO13AG00001500000000001224882800000000000000100000000000000000000000003159Z01620200324X066000000
2MAIL0000150748BR10        BRNC        BRNCCOCO    BRNCCOCO13AG00001600000000001226089600000000000002400000000000000000000000009159Z01620200324X066000000
2MAIL0000150748BR10        BRNC        BRNCCOCO    BRNCCOCO13AG00001700000000001227395500000000000000500000000000000000000000010863Z01620200324X066000000
2MAIL0000150748BR10        BRNC        BRNCCOCO    BRNCCOCO13AG00001800000000001227735000000000000000200000000000000000000000003936Z01620200324X066000000
2MAIL0000150748BR10        BRNC        BRNCCOCO    BRNCCOCO13AG00001900000000001228274000000000000000200000000000000000000000010153Z01620200324X066000000
2MAIL0000150748BR10        BRNC        BRNCCOCO    BRNCCOCO13AG00002000000000001228512700000000000000200000000000000000000000010153Z01620200324X066000000
2MAIL0000150748BR10        BRNC        BRNCCOCO    BRNCCOCO13AG00002100000000001231189200000000000000200000000000000000000000010153Z01620200324X066000000
2MAIL0000150748BR10        BRNC        BRNCCOCO    BRNCCOCO13AG00002200000000001231231200000000000000200000000000000000000000010153Z01620200324X066000000
2MAIL0000150748BR10        BRNC        BRNCCOCO    BRNCCOCO13AG00002300000000001231233000000000000000200000000000000000000000010153Z01620200324X066000000
2MAIL0000150748BR10        BRNC        BRNCCOCO    BRNCCOCO13AG00002400000000001231389600000000000000500000000000000000000000010863Z01620200324X066000000
2MAIL0000150748BR10        BRNC        BRNCCOCO    BRNCCOCO13AG00002500000000001231417800000000000000100000000000000000000000003159Z01620200324X066000000
2MAIL0000150748BR10        BRNC        BRNCCOCO    BRNCCOCO13AG00002600000000001234705700000000000000200000000000000000000000010153Z01620200324X066000000
2MAIL0000150748BR10        BRNC        BRNCCOCO    BRNCCOCO13AG00002700000000001234705800000000000000200000000000000000000000010153Z01620200324X066000000
2MAIL0000150748BR10        BRNC        BRNCCOCO    BRNCCOCO13AG00002800000000001234705900000000000000200000000000000000000000010153Z01620200324X066000000
2MAIL0000150748BR10        BRNC        BRNCCOCO    BRNCCOCO13AG00002900000000001235699400000000000002000000000000000000000000007648Z01620200324X066000000
2MAIL0000150748BR10        BRNC        BRNCCOCO    BRNCCOCO13AG00003000000000001235699700000000000002000000000000000000000000007648Z01620200324X066000000
2MAIL0000150748BR10        BRNC        BRNCCOCO    BRNCCOCO13AG00003100000000001235699800000000000002000000000000000000000000007648Z01620200324X066000000
2MAIL0000150748BR10        BRNC        BRNCCOCO    BRNCCOCO13AG00003200000000001236512800000000000001200000000000000000000000002071Z01620200324X066000000
2MAIL0000150748BR10        BRNC        BRNCCOCO    BRNCCOCO13AG00003300000000001236512900000000000000500000000000000000000000000909Z01620200324X066000000
2MAIL0000150748BR10        BRNC        BRNCCOCO    BRNCCOCO13AG00003400000000001236515000000000000000500000000000000000000000000909Z01620200324X066000000
2MAIL0000150748BR10        BRNC        BRNCCOCO    BRNCCOCO13AG00003500000000001236898000000000000000500000000000000000000000010863Z01620200324X066000000
2MAIL0000150748BR10        BRNC        BRNCCOCO    BRNCCOCO13AG00003600000000001236898100000000000000500000000000000000000000015790Z01620200324X066000000
2MAIL0000150748BR10        BRNC        BRNCCOCO    BRNCCOCO13AG00003700000000001238083500000000000000200000000000000000000000010153Z01620200324X066000000
2MAIL0000150748BR10        BRNC        BRNCCOCO    BRNCCOCO13AG00003800000000001239688600000000000001400000000000000000000000005343Z01620200324X066000000
2MAIL0000150748BR10        BRNC        BRNCCOCO    BRNCCOCO13AG00003900000000001239688800000000000001400000000000000000000000005343Z01620200324X066000000
2MAIL0000150748BR10        BRNC        BRNCCOCO    BRNCCOCO13AG00004000000000001239692100000000000001400000000000000000000000005343Z01620200324X066000000
2MAIL0000150748BR10        BRNC        BRNCCOCO    BRNCCOCO13AG00004100000000001240924900000000000001200000000000000000000000001997Z01620200324X066000000
2MAIL0000150748BR10        BRNC        BRNCCOCO    BRNCCOCO13AG00004200000000001241577400000000000000500000000000000000000000004332Z01620200324X066000000
2MAIL0000150748BR10        BRNC        BRNCCOCO    BRNCCOCO13AG00004300000000001241623700000000000001000000000000000000000000025866Z01620200324X066000000
2MAIL0000150748BR10        BRNC        BRNCCOCO    BRNCCOCO13AG00004400000000001242374800000000000000200000000000000000000000010153Z01620200324X066000000
