1MAIL0000151927BR10        BRNC        BRNCCOCO    BRNCCOCO13AG2020040100:00:00OR  010000061442610006144261151927                             2020040120200401Z016CIF202004010000000000010138NN0                                                  0                                        
2MAIL0000151927BR10        BRNC        BRNCCOCO    BRNCCOCO13AG00000100000000001214448800000000000000100000000000000000000000005068Z01620200401X066000000
2MAIL0000151927BR10        BRNC        BRNCCOCO    BRNCCOCO13AG00000200000000001241623700000000000000200000000000000000000000005070Z01620200401X066000000
1MAIL0000151928BR10        BRNC        BRNCCOCO    BRNCCOCO13AG2020040100:00:00OR  010000029847900002984790151928                             2020040120200401Z016CIF202004010000000000041435NN0                                                  0                                        
2MAIL0000151928BR10        BRNC        BRNCCOCO    BRNCCOCO13AG00000100000000001223975300000000000000100000000000000000000000005568Z01620200401X066000000
2MAIL0000151928BR10        BRNC        BRNCCOCO    BRNCCOCO13AG00000200000000001231189200000000000000100000000000000000000000005568Z01620200401X066000000
2MAIL0000151928BR10        BRNC        BRNCCOCO    BRNCCOCO13AG00000300000000001231231200000000000000100000000000000000000000005568Z01620200401X066000000
2MAIL0000151928BR10        BRNC        BRNCCOCO    BRNCCOCO13AG00000400000000001236512800000000000002000000000000000000000000003813Z01620200401X066000000
2MAIL0000151928BR10        BRNC        BRNCCOCO    BRNCCOCO13AG00000500000000001236512900000000000003500000000000000000000000007014Z01620200401X066000000
2MAIL0000151928BR10        BRNC        BRNCCOCO    BRNCCOCO13AG00000600000000001239373500000000000000100000000000000000000000006952Z01620200401X066000000
2MAIL0000151928BR10        BRNC        BRNCCOCO    BRNCCOCO13AG00000700000000001239373700000000000000100000000000000000000000006952Z01620200401X066000000
1MAIL0000151929BR10        BRNC        BRNCCOCO    BRNCCOCO13AG2020040100:00:00OR  010000046183260004618326151929                             2020040120200401Z016CIF202004010000000000035496NN0                                                  0                                        
2MAIL0000151929BR10        BRNC        BRNCCOCO    BRNCCOCO13AG00000100000000001223975300000000000000100000000000000000000000004437Z01620200401X066000000
2MAIL0000151929BR10        BRNC        BRNCCOCO    BRNCCOCO13AG00000200000000001228274000000000000000100000000000000000000000004437Z01620200401X066000000
2MAIL0000151929BR10        BRNC        BRNCCOCO    BRNCCOCO13AG00000300000000001231231200000000000000100000000000000000000000004437Z01620200401X066000000
2MAIL0000151929BR10        BRNC        BRNCCOCO    BRNCCOCO13AG00000400000000001231233000000000000000100000000000000000000000004437Z01620200401X066000000
2MAIL0000151929BR10        BRNC        BRNCCOCO    BRNCCOCO13AG00000500000000001234705700000000000000100000000000000000000000004437Z01620200401X066000000
2MAIL0000151929BR10        BRNC        BRNCCOCO    BRNCCOCO13AG00000600000000001234705800000000000000100000000000000000000000004437Z01620200401X066000000
2MAIL0000151929BR10        BRNC        BRNCCOCO    BRNCCOCO13AG00000700000000001234705900000000000000100000000000000000000000004437Z01620200401X066000000
2MAIL0000151929BR10        BRNC        BRNCCOCO    BRNCCOCO13AG00000800000000001242374800000000000000100000000000000000000000004437Z01620200401X066000000
1MAIL0000151930BR10        BRNC        BRNCCOCO    BRNCCOCO13AG2020040100:00:00OR  010000031846440003184644151930                             2020040120200401Z016CIF202004010000000000038072NN0                                                  0                                        
2MAIL0000151930BR10        BRNC        BRNCCOCO    BRNCCOCO13AG00000100000000001132036700000000000000100000000000000000000000002173Z01620200401X066000000
2MAIL0000151930BR10        BRNC        BRNCCOCO    BRNCCOCO13AG00000200000000001235699800000000000001000000000000000000000000003995Z01620200401X066000000
2MAIL0000151930BR10        BRNC        BRNCCOCO    BRNCCOCO13AG00000300000000001236512900000000000001000000000000000000000000001997Z01620200401X066000000
2MAIL0000151930BR10        BRNC        BRNCCOCO    BRNCCOCO13AG00000400000000001236515000000000000001000000000000000000000000001997Z01620200401X066000000
2MAIL0000151930BR10        BRNC        BRNCCOCO    BRNCCOCO13AG00000500000000001239663300000000000001400000000000000000000000005582Z01620200401X066000000
2MAIL0000151930BR10        BRNC        BRNCCOCO    BRNCCOCO13AG00000600000000001239688300000000000001400000000000000000000000005582Z01620200401X066000000
2MAIL0000151930BR10        BRNC        BRNCCOCO    BRNCCOCO13AG00000700000000001239688700000000000001400000000000000000000000005582Z01620200401X066000000
2MAIL0000151930BR10        BRNC        BRNCCOCO    BRNCCOCO13AG00000800000000001239688800000000000001400000000000000000000000005582Z01620200401X066000000
2MAIL0000151930BR10        BRNC        BRNCCOCO    BRNCCOCO13AG00000900000000001239692100000000000001400000000000000000000000005582Z01620200401X066000000
1MAIL0000151931BR10        BRNC        BRNCCOCO    BRNCCOCO13AG2020040100:00:00OR  010000058179680005817968151931                             2020040120200401Z016CIF202004010000000000012633NN0                                                  0                                        
2MAIL0000151931BR10        BRNC        BRNCCOCO    BRNCCOCO13AG00000100000000001235699400000000000001000000000000000000000000004211Z01620200401X066000000
2MAIL0000151931BR10        BRNC        BRNCCOCO    BRNCCOCO13AG00000200000000001235699700000000000001000000000000000000000000004211Z01620200401X066000000
2MAIL0000151931BR10        BRNC        BRNCCOCO    BRNCCOCO13AG00000300000000001235699800000000000001000000000000000000000000004211Z01620200401X066000000
1MAIL0000151932BR10        BRNC        BRNCCOCO    BRNCCOCO13AG2020040100:00:00OR  010000056295510005629551151932                             2020040120200401Z016CIF202004010000000000033157NN0                                                  0                                        
2MAIL0000151932BR10        BRNC        BRNCCOCO    BRNCCOCO13AG00000100000000001132020900000000000000100000000000000000000000002076Z01620200401X066000000
2MAIL0000151932BR10        BRNC        BRNCCOCO    BRNCCOCO13AG00000200000000001132033100000000000000200000000000000000000000004581Z01620200401X066000000
2MAIL0000151932BR10        BRNC        BRNCCOCO    BRNCCOCO13AG00000300000000001132036700000000000000300000000000000000000000006872Z01620200401X066000000
2MAIL0000151932BR10        BRNC        BRNCCOCO    BRNCCOCO13AG00000400000000001215533700000000000000200000000000000000000000004581Z01620200401X066000000
2MAIL0000151932BR10        BRNC        BRNCCOCO    BRNCCOCO13AG00000500000000001227395500000000000000200000000000000000000000004581Z01620200401X066000000
2MAIL0000151932BR10        BRNC        BRNCCOCO    BRNCCOCO13AG00000600000000001236898000000000000000200000000000000000000000004581Z01620200401X066000000
2MAIL0000151932BR10        BRNC        BRNCCOCO    BRNCCOCO13AG00000700000000001239692100000000000001400000000000000000000000005885Z01620200401X066000000
1MAIL0000151933BR10        BRNC        BRNCCOCO    BRNCCOCO13AG2020040100:00:00OR  010000034763030003476303151933                             2020040120200401Z016CIF202004010000000000019482NN0                                                  0                                        
2MAIL0000151933BR10        BRNC        BRNCCOCO    BRNCCOCO13AG00000100000000001132018300000000000000100000000000000000000000003735Z01620200401X066000000
2MAIL0000151933BR10        BRNC        BRNCCOCO    BRNCCOCO13AG00000200000000001132033100000000000000200000000000000000000000004581Z01620200401X066000000
2MAIL0000151933BR10        BRNC        BRNCCOCO    BRNCCOCO13AG00000300000000001132036700000000000000200000000000000000000000004581Z01620200401X066000000
2MAIL0000151933BR10        BRNC        BRNCCOCO    BRNCCOCO13AG00000400000000001215533700000000000000200000000000000000000000004581Z01620200401X066000000
2MAIL0000151933BR10        BRNC        BRNCCOCO    BRNCCOCO13AG00000500000000001236512900000000000000500000000000000000000000001002Z01620200401X066000000
2MAIL0000151933BR10        BRNC        BRNCCOCO    BRNCCOCO13AG00000600000000001236515000000000000000500000000000000000000000001002Z01620200401X066000000
1MAIL0000151934BR10        BRNC        BRNCCOCO    BRNCCOCO13AG2020040100:00:00OR  010000060931600006093160151934                             2020040120200401Z016CIF202004010000000000016518NN0                                                  0                                        
2MAIL0000151934BR10        BRNC        BRNCCOCO    BRNCCOCO13AG00000100000000001132019800000000000000100000000000000000000000002012Z01620200401X066003000
2MAIL0000151934BR10        BRNC        BRNCCOCO    BRNCCOCO13AG00000200000000001132033100000000000000100000000000000000000000002223Z01620200401X066003000
2MAIL0000151934BR10        BRNC        BRNCCOCO    BRNCCOCO13AG00000300000000001132036700000000000000100000000000000000000000002223Z01620200401X066003000
2MAIL0000151934BR10        BRNC        BRNCCOCO    BRNCCOCO13AG00000400000000001236512900000000000000500000000000000000000000000973Z01620200401X066003000
2MAIL0000151934BR10        BRNC        BRNCCOCO    BRNCCOCO13AG00000500000000001236515000000000000000500000000000000000000000000973Z01620200401X066003000
2MAIL0000151934BR10        BRNC        BRNCCOCO    BRNCCOCO13AG00000600000000001239688800000000000001400000000000000000000000005708Z01620200401X066003000
2MAIL0000151934BR10        BRNC        BRNCCOCO    BRNCCOCO13AG00000700000000001241623700000000000000100000000000000000000000002406Z01620200401X066003000
1MAIL0000151935BR10        BRNC        BRNCCOCO    BRNCCOCO13AG2020040100:00:00OR  010000053549390005354939151935                             2020040120200401Z016CIF202004010000000000032569NN0                                                  0                                        
2MAIL0000151935BR10        BRNC        BRNCCOCO    BRNCCOCO13AG00000100000000001132018300000000000000200000000000000000000000005203Z01620200401X066003000
2MAIL0000151935BR10        BRNC        BRNCCOCO    BRNCCOCO13AG00000200000000001132019800000000000000200000000000000000000000002905Z01620200401X066003000
2MAIL0000151935BR10        BRNC        BRNCCOCO    BRNCCOCO13AG00000300000000001132033100000000000000200000000000000000000000003208Z01620200401X066003000
2MAIL0000151935BR10        BRNC        BRNCCOCO    BRNCCOCO13AG00000400000000001132036700000000000000200000000000000000000000003208Z01620200401X066003000
2MAIL0000151935BR10        BRNC        BRNCCOCO    BRNCCOCO13AG00000500000000001132200400000000000000200000000000000000000000004103Z01620200401X066003000
2MAIL0000151935BR10        BRNC        BRNCCOCO    BRNCCOCO13AG00000600000000001221415400000000000000200000000000000000000000005203Z01620200401X066003000
2MAIL0000151935BR10        BRNC        BRNCCOCO    BRNCCOCO13AG00000700000000001236512900000000000001000000000000000000000000001855Z01620200401X066003000
2MAIL0000151935BR10        BRNC        BRNCCOCO    BRNCCOCO13AG00000800000000001236515000000000000001000000000000000000000000001855Z01620200401X066003000
2MAIL0000151935BR10        BRNC        BRNCCOCO    BRNCCOCO13AG00000900000000001241623700000000000000200000000000000000000000005029Z01620200401X066003000
1MAIL0000151936BR10        BRNC        BRNCCOCO    BRNCCOCO13AG2020040100:00:00OR  010000053549390005354939151936                             2020040120200401Z016CIF202004010000000000016735NN0                                                  0                                        
2MAIL0000151936BR10        BRNC        BRNCCOCO    BRNCCOCO13AG00000100000000001226089600000000000001200000000000000000000000004015Z01620200401X066000000
2MAIL0000151936BR10        BRNC        BRNCCOCO    BRNCCOCO13AG00000200000000001235699400000000000001000000000000000000000000003352Z01620200401X066000000
2MAIL0000151936BR10        BRNC        BRNCCOCO    BRNCCOCO13AG00000300000000001239663300000000000001400000000000000000000000004684Z01620200401X066000000
2MAIL0000151936BR10        BRNC        BRNCCOCO    BRNCCOCO13AG00000400000000001239692100000000000001400000000000000000000000004684Z01620200401X066000000
