1MAIL0000152809BR10        BRNC        BRNCCOCO    BRNCCOCO13AG2020040900:00:00OR  010000029123200002912320152809                             2020040920200409Z016CIF202004090000000000194237NN0                                                  0                                        
2MAIL0000152809BR10        BRNC        BRNCCOCO    BRNCCOCO13AG00000100000000001132030900000000000001200000000000000000000000042687Z01620200409X066000000
2MAIL0000152809BR10        BRNC        BRNCCOCO    BRNCCOCO13AG00000200000000001132034900000000000002000000000000000000000000049136Z01620200409X066000000
2MAIL0000152809BR10        BRNC        BRNCCOCO    BRNCCOCO13AG00000300000000001132035100000000000002000000000000000000000000051876Z01620200409X066000000
2MAIL0000152809BR10        BRNC        BRNCCOCO    BRNCCOCO13AG00000400000000001235699700000000000006000000000000000000000000025269Z01620200409X066000000
2MAIL0000152809BR10        BRNC        BRNCCOCO    BRNCCOCO13AG00000500000000001235699800000000000006000000000000000000000000025269Z01620200409X066000000
1MAIL0000152810BR10        BRNC        BRNCCOCO    BRNCCOCO13AG2020040900:00:00OR  010000055903090005590309152810                             2020040920200409Z016CIF202004090000000000010903NN0                                                  0                                        
2MAIL0000152810BR10        BRNC        BRNCCOCO    BRNCCOCO13AG00000100000000001132019800000000000000100000000000000000000000001967Z01620200409X066000000
2MAIL0000152810BR10        BRNC        BRNCCOCO    BRNCCOCO13AG00000200000000001132033100000000000000100000000000000000000000002173Z01620200409X066000000
2MAIL0000152810BR10        BRNC        BRNCCOCO    BRNCCOCO13AG00000300000000001132036700000000000000100000000000000000000000002173Z01620200409X066000000
2MAIL0000152810BR10        BRNC        BRNCCOCO    BRNCCOCO13AG00000400000000001236512900000000000000500000000000000000000000000999Z01620200409X066000000
2MAIL0000152810BR10        BRNC        BRNCCOCO    BRNCCOCO13AG00000500000000001236515000000000000000500000000000000000000000000999Z01620200409X066000000
2MAIL0000152810BR10        BRNC        BRNCCOCO    BRNCCOCO13AG00000600000000001241623700000000000000100000000000000000000000002592Z01620200409X066000000
1MAIL0000152812BR10        BRNC        BRNCCOCO    BRNCCOCO13AG2020040900:00:00OR  010000029799240002979924152812                             2020040920200409Z016CIF202004090000000000009163NN0                                                  0                                        
2MAIL0000152812BR10        BRNC        BRNCCOCO    BRNCCOCO13AG00000100000000001132033100000000000000100000000000000000000000002291Z01620200409X066000000
2MAIL0000152812BR10        BRNC        BRNCCOCO    BRNCCOCO13AG00000200000000001132036700000000000000300000000000000000000000006872Z01620200409X066000000
