1MAIL0000150700BR10        BRNC        BRNCCOCO    BRNCCOCO13AG2020032400:00:00OR  010000049184930004918493150700                             2020032420200324Z016CIF202003240000000000046770NN0                                                  0                                        
2MAIL0000150700BR10        BRNC        BRNCCOCO    BRNCCOCO13AG00000100000000001132033100000000000000200000000000000000000000003712Z01620200324X066000000
2MAIL0000150700BR10        BRNC        BRNCCOCO    BRNCCOCO13AG00000200000000001132036700000000000000200000000000000000000000003712Z01620200324X066000000
2MAIL0000150700BR10        BRNC        BRNCCOCO    BRNCCOCO13AG00000300000000001236512800000000000005200000000000000000000000008203Z01620200324X066000000
2MAIL0000150700BR10        BRNC        BRNCCOCO    BRNCCOCO13AG00000400000000001236512900000000000007000000000000000000000000011624Z01620200324X066000000
2MAIL0000150700BR10        BRNC        BRNCCOCO    BRNCCOCO13AG00000500000000001236515000000000000007000000000000000000000000011624Z01620200324X066000000
2MAIL0000150700BR10        BRNC        BRNCCOCO    BRNCCOCO13AG00000600000000001240924900000000000005200000000000000000000000007895Z01620200324X066000000
1MAIL0000150701BR10        BRNC        BRNCCOCO    BRNCCOCO13AG2020032400:00:00OR  010000060090620006009062150701                             2020032420200324Z016CIF202003240000000000027129NN0                                                  0                                        
2MAIL0000150701BR10        BRNC        BRNCCOCO    BRNCCOCO13AG00000100000000001132019800000000000000100000000000000000000000002076Z01620200324X066000000
2MAIL0000150701BR10        BRNC        BRNCCOCO    BRNCCOCO13AG00000200000000001132020900000000000000100000000000000000000000002076Z01620200324X066000000
2MAIL0000150701BR10        BRNC        BRNCCOCO    BRNCCOCO13AG00000300000000001132033100000000000000100000000000000000000000002291Z01620200324X066000000
2MAIL0000150701BR10        BRNC        BRNCCOCO    BRNCCOCO13AG00000400000000001132036700000000000000100000000000000000000000002291Z01620200324X066000000
2MAIL0000150701BR10        BRNC        BRNCCOCO    BRNCCOCO13AG00000500000000001215533700000000000000100000000000000000000000002291Z01620200324X066000000
2MAIL0000150701BR10        BRNC        BRNCCOCO    BRNCCOCO13AG00000600000000001227735000000000000000100000000000000000000000002076Z01620200324X066000000
2MAIL0000150701BR10        BRNC        BRNCCOCO    BRNCCOCO13AG00000700000000001236512900000000000003500000000000000000000000007014Z01620200324X066000000
2MAIL0000150701BR10        BRNC        BRNCCOCO    BRNCCOCO13AG00000800000000001236515000000000000003500000000000000000000000007014Z01620200324X066000000
1MAIL0000150702BR10        BRNC        BRNCCOCO    BRNCCOCO13AG2020032400:00:00OR  010000037720690003772069150702                             2020032420200324Z016CIF202003240000000000065800NN0                                                  0                                        
2MAIL0000150702BR10        BRNC        BRNCCOCO    BRNCCOCO13AG00000100000000001224882700000000000000200000000000000000000000006659Z01620200324X066000000
2MAIL0000150702BR10        BRNC        BRNCCOCO    BRNCCOCO13AG00000200000000001235699400000000000001000000000000000000000000004211Z01620200324X066000000
2MAIL0000150702BR10        BRNC        BRNCCOCO    BRNCCOCO13AG00000300000000001235699700000000000001000000000000000000000000004211Z01620200324X066000000
2MAIL0000150702BR10        BRNC        BRNCCOCO    BRNCCOCO13AG00000400000000001235699800000000000001000000000000000000000000004211Z01620200324X066000000
2MAIL0000150702BR10        BRNC        BRNCCOCO    BRNCCOCO13AG00000500000000001239688600000000000001400000000000000000000000005885Z01620200324X066000000
2MAIL0000150702BR10        BRNC        BRNCCOCO    BRNCCOCO13AG00000600000000001239688800000000000001400000000000000000000000005885Z01620200324X066000000
2MAIL0000150702BR10        BRNC        BRNCCOCO    BRNCCOCO13AG00000700000000001239692100000000000001400000000000000000000000005885Z01620200324X066000000
2MAIL0000150702BR10        BRNC        BRNCCOCO    BRNCCOCO13AG00000800000000001241577400000000000003000000000000000000000000028853Z01620200324X066000000
1MAIL0000150703BR10        BRNC        BRNCCOCO    BRNCCOCO13AG2020032400:00:00OR  010000051101000005110100150703                             2020032420200324Z016CIF202003240000000000035665NN0                                                  0                                        
2MAIL0000150703BR10        BRNC        BRNCCOCO    BRNCCOCO13AG00000100000000001132033100000000000000100000000000000000000000002291Z01620200324X066000000
2MAIL0000150703BR10        BRNC        BRNCCOCO    BRNCCOCO13AG00000200000000001132200400000000000000100000000000000000000000002230Z01620200324X066000000
2MAIL0000150703BR10        BRNC        BRNCCOCO    BRNCCOCO13AG00000300000000001215533700000000000000100000000000000000000000002291Z01620200324X066000000
2MAIL0000150703BR10        BRNC        BRNCCOCO    BRNCCOCO13AG00000400000000001241577400000000000003000000000000000000000000028853Z01620200324X066000000
1MAIL0000150704BR10        BRNC        BRNCCOCO    BRNCCOCO13AG2020032400:00:00OR  010000051577410005157741150704                             2020032420200324Z016CIF202003240000000000021893NN0                                                  0                                        
2MAIL0000150704BR10        BRNC        BRNCCOCO    BRNCCOCO13AG00000100000000001132019800000000000000100000000000000000000000002076Z01620200324X066000000
2MAIL0000150704BR10        BRNC        BRNCCOCO    BRNCCOCO13AG00000200000000001132036700000000000000400000000000000000000000009163Z01620200324X066000000
2MAIL0000150704BR10        BRNC        BRNCCOCO    BRNCCOCO13AG00000300000000001236512800000000000001200000000000000000000000002288Z01620200324X066000000
2MAIL0000150704BR10        BRNC        BRNCCOCO    BRNCCOCO13AG00000400000000001239688800000000000001400000000000000000000000005885Z01620200324X066000000
2MAIL0000150704BR10        BRNC        BRNCCOCO    BRNCCOCO13AG00000500000000001241623700000000000000100000000000000000000000002481Z01620200324X066000000
1MAIL0000150705BR10        BRNC        BRNCCOCO    BRNCCOCO13AG2020032400:00:00OR  010000057063560005706356150705                             2020032420200324Z009CIF202003240000000000009892NN0                                                  0                                        
2MAIL0000150705BR10        BRNC        BRNCCOCO    BRNCCOCO13AG00000100000000001132033100000000000000100000000000000000000000002167Z00920200324X066000000
2MAIL0000150705BR10        BRNC        BRNCCOCO    BRNCCOCO13AG00000200000000001132036700000000000000100000000000000000000000002167Z00920200324X066000000
2MAIL0000150705BR10        BRNC        BRNCCOCO    BRNCCOCO13AG00000300000000001239688800000000000001400000000000000000000000005558Z00920200324X066000000
1MAIL0000150706BR10        BRNC        BRNCCOCO    BRNCCOCO13AG2020032400:00:00OR  010000043457690004345769150706                             2020032420200324Z016CIF202003240000000000067607NN0                                                  0                                        
2MAIL0000150706BR10        BRNC        BRNCCOCO    BRNCCOCO13AG00000100000000001132018300000000000000200000000000000000000000007468Z01620200324X066000000
2MAIL0000150706BR10        BRNC        BRNCCOCO    BRNCCOCO13AG00000200000000001132033100000000000000100000000000000000000000002291Z01620200324X066000000
2MAIL0000150706BR10        BRNC        BRNCCOCO    BRNCCOCO13AG00000300000000001132036700000000000000200000000000000000000000004581Z01620200324X066000000
2MAIL0000150706BR10        BRNC        BRNCCOCO    BRNCCOCO13AG00000400000000001132200400000000000000200000000000000000000000004460Z01620200324X066000000
2MAIL0000150706BR10        BRNC        BRNCCOCO    BRNCCOCO13AG00000500000000001215533700000000000000100000000000000000000000002291Z01620200324X066000000
2MAIL0000150706BR10        BRNC        BRNCCOCO    BRNCCOCO13AG00000600000000001221415400000000000000100000000000000000000000003735Z01620200324X066000000
2MAIL0000150706BR10        BRNC        BRNCCOCO    BRNCCOCO13AG00000700000000001228512700000000000000100000000000000000000000005568Z01620200324X066000000
2MAIL0000150706BR10        BRNC        BRNCCOCO    BRNCCOCO13AG00000800000000001231189200000000000000100000000000000000000000005568Z01620200324X066000000
2MAIL0000150706BR10        BRNC        BRNCCOCO    BRNCCOCO13AG00000900000000001231231200000000000000100000000000000000000000005568Z01620200324X066000000
2MAIL0000150706BR10        BRNC        BRNCCOCO    BRNCCOCO13AG00001000000000001235699700000000000001000000000000000000000000004211Z01620200324X066000000
2MAIL0000150706BR10        BRNC        BRNCCOCO    BRNCCOCO13AG00001100000000001235699800000000000001000000000000000000000000004211Z01620200324X066000000
2MAIL0000150706BR10        BRNC        BRNCCOCO    BRNCCOCO13AG00001200000000001239688600000000000001400000000000000000000000005885Z01620200324X066000000
2MAIL0000150706BR10        BRNC        BRNCCOCO    BRNCCOCO13AG00001300000000001239688800000000000001400000000000000000000000005885Z01620200324X066000000
2MAIL0000150706BR10        BRNC        BRNCCOCO    BRNCCOCO13AG00001400000000001239692100000000000001400000000000000000000000005885Z01620200324X066000000
1MAIL0000150707BR10        BRNC        BRNCCOCO    BRNCCOCO13AG2020032400:00:00OR  010000052846070005284607150707                             2020032420200324Z016CIF202003240000000000031290NN0                                                  0                                        
2MAIL0000150707BR10        BRNC        BRNCCOCO    BRNCCOCO13AG00000100000000001132033100000000000000100000000000000000000000002291Z01620200324X066000000
2MAIL0000150707BR10        BRNC        BRNCCOCO    BRNCCOCO13AG00000200000000001132036700000000000000100000000000000000000000002291Z01620200324X066000000
2MAIL0000150707BR10        BRNC        BRNCCOCO    BRNCCOCO13AG00000300000000001226089600000000000001200000000000000000000000005045Z01620200324X066000000
2MAIL0000150707BR10        BRNC        BRNCCOCO    BRNCCOCO13AG00000400000000001236512900000000000001000000000000000000000000002004Z01620200324X066000000
2MAIL0000150707BR10        BRNC        BRNCCOCO    BRNCCOCO13AG00000500000000001236515000000000000001000000000000000000000000002004Z01620200324X066000000
2MAIL0000150707BR10        BRNC        BRNCCOCO    BRNCCOCO13AG00000600000000001239688600000000000001400000000000000000000000005885Z01620200324X066000000
2MAIL0000150707BR10        BRNC        BRNCCOCO    BRNCCOCO13AG00000700000000001239688800000000000001400000000000000000000000005885Z01620200324X066000000
2MAIL0000150707BR10        BRNC        BRNCCOCO    BRNCCOCO13AG00000800000000001239692100000000000001400000000000000000000000005885Z01620200324X066000000
1MAIL0000150708BR10        BRNC        BRNCCOCO    BRNCCOCO13AG2020032400:00:00OR  010000052666970005266697150708                             2020032420200324Z016CIF202003240000000000018643NN0                                                  0                                        
2MAIL0000150708BR10        BRNC        BRNCCOCO    BRNCCOCO13AG00000100000000001132033100000000000000100000000000000000000000002291Z01620200324X066000000
2MAIL0000150708BR10        BRNC        BRNCCOCO    BRNCCOCO13AG00000200000000001132036700000000000000100000000000000000000000002291Z01620200324X066000000
2MAIL0000150708BR10        BRNC        BRNCCOCO    BRNCCOCO13AG00000300000000001215533700000000000000100000000000000000000000002291Z01620200324X066000000
2MAIL0000150708BR10        BRNC        BRNCCOCO    BRNCCOCO13AG00000400000000001239688600000000000001400000000000000000000000005885Z01620200324X066000000
2MAIL0000150708BR10        BRNC        BRNCCOCO    BRNCCOCO13AG00000500000000001239688800000000000001400000000000000000000000005885Z01620200324X066000000
1MAIL0000150713BR10        BRNC        BRNCCOCO    BRNCCOCO13AG2020032400:00:00OR  010000039091940003909194150713                             2020032420200324Z016CIF202003240000000000076911NN0                                                  0                                        
2MAIL0000150713BR10        BRNC        BRNCCOCO    BRNCCOCO13AG00000100000000001132018300000000000000200000000000000000000000007468Z01620200324X066000000
2MAIL0000150713BR10        BRNC        BRNCCOCO    BRNCCOCO13AG00000200000000001132200400000000000000300000000000000000000000006690Z01620200324X066000000
2MAIL0000150713BR10        BRNC        BRNCCOCO    BRNCCOCO13AG00000300000000001221415400000000000000200000000000000000000000007468Z01620200324X066000000
2MAIL0000150713BR10        BRNC        BRNCCOCO    BRNCCOCO13AG00000400000000001235699400000000000001000000000000000000000000004211Z01620200324X066000000
2MAIL0000150713BR10        BRNC        BRNCCOCO    BRNCCOCO13AG00000500000000001235699800000000000002000000000000000000000000008422Z01620200324X066000000
2MAIL0000150713BR10        BRNC        BRNCCOCO    BRNCCOCO13AG00000600000000001236512800000000000002000000000000000000000000003813Z01620200324X066000000
2MAIL0000150713BR10        BRNC        BRNCCOCO    BRNCCOCO13AG00000700000000001236512900000000000003500000000000000000000000007014Z01620200324X066000000
2MAIL0000150713BR10        BRNC        BRNCCOCO    BRNCCOCO13AG00000800000000001236515000000000000003500000000000000000000000007014Z01620200324X066000000
2MAIL0000150713BR10        BRNC        BRNCCOCO    BRNCCOCO13AG00000900000000001241623700000000000001000000000000000000000000024811Z01620200324X066000000
1MAIL0000150714BR10        BRNC        BRNCCOCO    BRNCCOCO13AG2020032400:00:00OR  010000049454020004945402150714                             2020032420200324Z016CIF202003240000000000040702NN0                                                  0                                        
2MAIL0000150714BR10        BRNC        BRNCCOCO    BRNCCOCO13AG00000100000000001132018300000000000000200000000000000000000000007468Z01620200324X066000000
2MAIL0000150714BR10        BRNC        BRNCCOCO    BRNCCOCO13AG00000200000000001132200400000000000000400000000000000000000000008920Z01620200324X066000000
2MAIL0000150714BR10        BRNC        BRNCCOCO    BRNCCOCO13AG00000300000000001221415400000000000000200000000000000000000000007468Z01620200324X066000000
2MAIL0000150714BR10        BRNC        BRNCCOCO    BRNCCOCO13AG00000400000000001235699800000000000004000000000000000000000000016846Z01620200324X066000000
1MAIL0000150715BR10        BRNC        BRNCCOCO    BRNCCOCO13AG2020032400:00:00OR  010000029046260002904626150715                             2020032420200324Z016CIF202003240000000000172794NN0                                                  0                                        
2MAIL0000150715BR10        BRNC        BRNCCOCO    BRNCCOCO13AG00000100000000001132004000000000000000500000000000000000000000005102Z01620200324X066000000
2MAIL0000150715BR10        BRNC        BRNCCOCO    BRNCCOCO13AG00000200000000001132004200000000000000500000000000000000000000007033Z01620200324X066000000
2MAIL0000150715BR10        BRNC        BRNCCOCO    BRNCCOCO13AG00000300000000001132019700000000000000100000000000000000000000001967Z01620200324X066000000
2MAIL0000150715BR10        BRNC        BRNCCOCO    BRNCCOCO13AG00000400000000001132030800000000000000200000000000000000000000006218Z01620200324X066000000
2MAIL0000150715BR10        BRNC        BRNCCOCO    BRNCCOCO13AG00000500000000001132033100000000000000600000000000000000000000013036Z01620200324X066000000
2MAIL0000150715BR10        BRNC        BRNCCOCO    BRNCCOCO13AG00000600000000001132034900000000000000500000000000000000000000011074Z01620200324X066000000
2MAIL0000150715BR10        BRNC        BRNCCOCO    BRNCCOCO13AG00000700000000001132036700000000000000600000000000000000000000013036Z01620200324X066000000
2MAIL0000150715BR10        BRNC        BRNCCOCO    BRNCCOCO13AG00000800000000001215533700000000000000600000000000000000000000013036Z01620200324X066000000
2MAIL0000150715BR10        BRNC        BRNCCOCO    BRNCCOCO13AG00000900000000001223975300000000000000100000000000000000000000005076Z01620200324X066000000
2MAIL0000150715BR10        BRNC        BRNCCOCO    BRNCCOCO13AG00001000000000001226089600000000000001200000000000000000000000004580Z01620200324X066000000
2MAIL0000150715BR10        BRNC        BRNCCOCO    BRNCCOCO13AG00001100000000001227395500000000000000600000000000000000000000013036Z01620200324X066000000
2MAIL0000150715BR10        BRNC        BRNCCOCO    BRNCCOCO13AG00001200000000001227735000000000000000100000000000000000000000001967Z01620200324X066000000
2MAIL0000150715BR10        BRNC        BRNCCOCO    BRNCCOCO13AG00001300000000001228512700000000000000100000000000000000000000005076Z01620200324X066000000
2MAIL0000150715BR10        BRNC        BRNCCOCO    BRNCCOCO13AG00001400000000001231233000000000000000100000000000000000000000005076Z01620200324X066000000
2MAIL0000150715BR10        BRNC        BRNCCOCO    BRNCCOCO13AG00001500000000001231389600000000000000600000000000000000000000013036Z01620200324X066000000
2MAIL0000150715BR10        BRNC        BRNCCOCO    BRNCCOCO13AG00001600000000001234705700000000000000100000000000000000000000005076Z01620200324X066000000
2MAIL0000150715BR10        BRNC        BRNCCOCO    BRNCCOCO13AG00001700000000001234705800000000000000100000000000000000000000005076Z01620200324X066000000
2MAIL0000150715BR10        BRNC        BRNCCOCO    BRNCCOCO13AG00001800000000001234705900000000000000100000000000000000000000005076Z01620200324X066000000
2MAIL0000150715BR10        BRNC        BRNCCOCO    BRNCCOCO13AG00001900000000001236898000000000000000600000000000000000000000013036Z01620200324X066000000
2MAIL0000150715BR10        BRNC        BRNCCOCO    BRNCCOCO13AG00002000000000001238083500000000000000100000000000000000000000005076Z01620200324X066000000
2MAIL0000150715BR10        BRNC        BRNCCOCO    BRNCCOCO13AG00002100000000001239688700000000000001400000000000000000000000005343Z01620200324X066000000
2MAIL0000150715BR10        BRNC        BRNCCOCO    BRNCCOCO13AG00002200000000001239688800000000000001400000000000000000000000005343Z01620200324X066000000
2MAIL0000150715BR10        BRNC        BRNCCOCO    BRNCCOCO13AG00002300000000001239692300000000000001400000000000000000000000005343Z01620200324X066000000
2MAIL0000150715BR10        BRNC        BRNCCOCO    BRNCCOCO13AG00002400000000001242374800000000000000100000000000000000000000005076Z01620200324X066000000
1MAIL0000150716BR10        BRNC        BRNCCOCO    BRNCCOCO13AG2020032400:00:00OR  010000028543040002854304150716                             2020032420200324Z016CIF202003240000000000794203NN0                                                  0                                        
2MAIL0000150716BR10        BRNC        BRNCCOCO    BRNCCOCO13AG00000100000000001132004000000000000000500000000000000000000000005662Z01620200324X066000000
2MAIL0000150716BR10        BRNC        BRNCCOCO    BRNCCOCO13AG00000200000000001132004200000000000000500000000000000000000000007806Z01620200324X066000000
2MAIL0000150716BR10        BRNC        BRNCCOCO    BRNCCOCO13AG00000300000000001132018300000000000000400000000000000000000000014935Z01620200324X066000000
2MAIL0000150716BR10        BRNC        BRNCCOCO    BRNCCOCO13AG00000400000000001132019700000000000000200000000000000000000000004150Z01620200324X066000000
2MAIL0000150716BR10        BRNC        BRNCCOCO    BRNCCOCO13AG00000500000000001132019800000000000000200000000000000000000000004150Z01620200324X066000000
2MAIL0000150716BR10        BRNC        BRNCCOCO    BRNCCOCO13AG00000600000000001132019900000000000000200000000000000000000000004150Z01620200324X066000000
2MAIL0000150716BR10        BRNC        BRNCCOCO    BRNCCOCO13AG00000700000000001132020900000000000000200000000000000000000000004150Z01620200324X066000000
2MAIL0000150716BR10        BRNC        BRNCCOCO    BRNCCOCO13AG00000800000000001132033100000000000000500000000000000000000000011454Z01620200324X066000000
2MAIL0000150716BR10        BRNC        BRNCCOCO    BRNCCOCO13AG00000900000000001132034900000000000000500000000000000000000000012283Z01620200324X066000000
2MAIL0000150716BR10        BRNC        BRNCCOCO    BRNCCOCO13AG00001000000000001132035100000000000000500000000000000000000000012969Z01620200324X066000000
2MAIL0000150716BR10        BRNC        BRNCCOCO    BRNCCOCO13AG00001100000000001132036700000000000000500000000000000000000000011454Z01620200324X066000000
2MAIL0000150716BR10        BRNC        BRNCCOCO    BRNCCOCO13AG00001200000000001132200400000000000000200000000000000000000000004460Z01620200324X066000000
2MAIL0000150716BR10        BRNC        BRNCCOCO    BRNCCOCO13AG00001300000000001132400100000000000000200000000000000000000000006332Z01620200324X066000000
2MAIL0000150716BR10        BRNC        BRNCCOCO    BRNCCOCO13AG00001400000000001215533700000000000000500000000000000000000000011454Z01620200324X066000000
2MAIL0000150716BR10        BRNC        BRNCCOCO    BRNCCOCO13AG00001500000000001221415400000000000000400000000000000000000000014935Z01620200324X066000000
2MAIL0000150716BR10        BRNC        BRNCCOCO    BRNCCOCO13AG00001600000000001223975300000000000000800000000000000000000000044535Z01620200324X066000000
2MAIL0000150716BR10        BRNC        BRNCCOCO    BRNCCOCO13AG00001700000000001224882700000000000000100000000000000000000000003329Z01620200324X066000000
2MAIL0000150716BR10        BRNC        BRNCCOCO    BRNCCOCO13AG00001800000000001226089600000000000002400000000000000000000000010087Z01620200324X066000000
2MAIL0000150716BR10        BRNC        BRNCCOCO    BRNCCOCO13AG00001900000000001227395500000000000000200000000000000000000000004581Z01620200324X066000000
2MAIL0000150716BR10        BRNC        BRNCCOCO    BRNCCOCO13AG00002000000000001227735000000000000000200000000000000000000000004150Z01620200324X066000000
2MAIL0000150716BR10        BRNC        BRNCCOCO    BRNCCOCO13AG00002100000000001228274000000000000000800000000000000000000000044535Z01620200324X066000000
2MAIL0000150716BR10        BRNC        BRNCCOCO    BRNCCOCO13AG00002200000000001228512700000000000000800000000000000000000000044535Z01620200324X066000000
2MAIL0000150716BR10        BRNC        BRNCCOCO    BRNCCOCO13AG00002300000000001231189200000000000000800000000000000000000000044535Z01620200324X066000000
2MAIL0000150716BR10        BRNC        BRNCCOCO    BRNCCOCO13AG00002400000000001231231200000000000000800000000000000000000000044535Z01620200324X066000000
2MAIL0000150716BR10        BRNC        BRNCCOCO    BRNCCOCO13AG00002500000000001231233000000000000000800000000000000000000000044535Z01620200324X066000000
2MAIL0000150716BR10        BRNC        BRNCCOCO    BRNCCOCO13AG00002600000000001231389600000000000000500000000000000000000000011454Z01620200324X066000000
2MAIL0000150716BR10        BRNC        BRNCCOCO    BRNCCOCO13AG00002700000000001234705700000000000000200000000000000000000000011134Z01620200324X066000000
2MAIL0000150716BR10        BRNC        BRNCCOCO    BRNCCOCO13AG00002800000000001234705800000000000000800000000000000000000000044535Z01620200324X066000000
2MAIL0000150716BR10        BRNC        BRNCCOCO    BRNCCOCO13AG00002900000000001234705900000000000000400000000000000000000000022268Z01620200324X066000000
2MAIL0000150716BR10        BRNC        BRNCCOCO    BRNCCOCO13AG00003000000000001235699400000000000001000000000000000000000000004211Z01620200324X066000000
2MAIL0000150716BR10        BRNC        BRNCCOCO    BRNCCOCO13AG00003100000000001235699700000000000001000000000000000000000000004211Z01620200324X066000000
2MAIL0000150716BR10        BRNC        BRNCCOCO    BRNCCOCO13AG00003200000000001235699800000000000001000000000000000000000000004211Z01620200324X066000000
2MAIL0000150716BR10        BRNC        BRNCCOCO    BRNCCOCO13AG00003300000000001236512800000000000001200000000000000000000000002288Z01620200324X066000000
2MAIL0000150716BR10        BRNC        BRNCCOCO    BRNCCOCO13AG00003400000000001236512900000000000003500000000000000000000000007014Z01620200324X066000000
2MAIL0000150716BR10        BRNC        BRNCCOCO    BRNCCOCO13AG00003500000000001236515000000000000003500000000000000000000000007014Z01620200324X066000000
2MAIL0000150716BR10        BRNC        BRNCCOCO    BRNCCOCO13AG00003600000000001236898000000000000000200000000000000000000000004581Z01620200324X066000000
2MAIL0000150716BR10        BRNC        BRNCCOCO    BRNCCOCO13AG00003700000000001238083500000000000000400000000000000000000000022268Z01620200324X066000000
2MAIL0000150716BR10        BRNC        BRNCCOCO    BRNCCOCO13AG00003800000000001239373400000000000000200000000000000000000000013903Z01620200324X066000000
2MAIL0000150716BR10        BRNC        BRNCCOCO    BRNCCOCO13AG00003900000000001239373500000000000000200000000000000000000000013903Z01620200324X066000000
2MAIL0000150716BR10        BRNC        BRNCCOCO    BRNCCOCO13AG00004000000000001239373600000000000000200000000000000000000000013903Z01620200324X066000000
2MAIL0000150716BR10        BRNC        BRNCCOCO    BRNCCOCO13AG00004100000000001239373700000000000000200000000000000000000000013903Z01620200324X066000000
2MAIL0000150716BR10        BRNC        BRNCCOCO    BRNCCOCO13AG00004200000000001239663300000000000002800000000000000000000000011770Z01620200324X066000000
2MAIL0000150716BR10        BRNC        BRNCCOCO    BRNCCOCO13AG00004300000000001239688300000000000002800000000000000000000000011770Z01620200324X066000000
2MAIL0000150716BR10        BRNC        BRNCCOCO    BRNCCOCO13AG00004400000000001239688500000000000002800000000000000000000000011770Z01620200324X066000000
2MAIL0000150716BR10        BRNC        BRNCCOCO    BRNCCOCO13AG00004500000000001239688600000000000002800000000000000000000000011770Z01620200324X066000000
2MAIL0000150716BR10        BRNC        BRNCCOCO    BRNCCOCO13AG00004600000000001239688800000000000002800000000000000000000000011770Z01620200324X066000000
2MAIL0000150716BR10        BRNC        BRNCCOCO    BRNCCOCO13AG00004700000000001239692000000000000002800000000000000000000000011770Z01620200324X066000000
2MAIL0000150716BR10        BRNC        BRNCCOCO    BRNCCOCO13AG00004800000000001239692100000000000002800000000000000000000000011770Z01620200324X066000000
2MAIL0000150716BR10        BRNC        BRNCCOCO    BRNCCOCO13AG00004900000000001239692300000000000002800000000000000000000000011770Z01620200324X066000000
2MAIL0000150716BR10        BRNC        BRNCCOCO    BRNCCOCO13AG00005000000000001240924900000000000001200000000000000000000000002206Z01620200324X066000000
2MAIL0000150716BR10        BRNC        BRNCCOCO    BRNCCOCO13AG00005100000000001241577400000000000000500000000000000000000000004810Z01620200324X066000000
2MAIL0000150716BR10        BRNC        BRNCCOCO    BRNCCOCO13AG00005200000000001241623700000000000002000000000000000000000000049621Z01620200324X066000000
2MAIL0000150716BR10        BRNC        BRNCCOCO    BRNCCOCO13AG00005300000000001242374800000000000000200000000000000000000000011134Z01620200324X066000000
2MAIL0000150716BR10        BRNC        BRNCCOCO    BRNCCOCO13AG00005400000000001242626100000000000002800000000000000000000000011770Z01620200324X066000000
