1MAIL0000153262BR10        BRNC        BRNCCOCO    BRNCCOCO13AG2020041500:00:00OR  010000039618890003961889153262                             2020041520200415Z016CIF202004150000000000195725NN0                                                  0                                        
2MAIL0000153262BR10        BRNC        BRNCCOCO    BRNCCOCO13AG00000100000000001132018300000000000000100000000000000000000000003541Z01620200415X066000000
2MAIL0000153262BR10        BRNC        BRNCCOCO    BRNCCOCO13AG00000200000000001132019700000000000000100000000000000000000000001967Z01620200415X066000000
2MAIL0000153262BR10        BRNC        BRNCCOCO    BRNCCOCO13AG00000300000000001132030900000000000000200000000000000000000000006414Z01620200415X066000000
2MAIL0000153262BR10        BRNC        BRNCCOCO    BRNCCOCO13AG00000400000000001132033100000000000000300000000000000000000000006518Z01620200415X066000000
2MAIL0000153262BR10        BRNC        BRNCCOCO    BRNCCOCO13AG00000500000000001132034900000000000000500000000000000000000000011074Z01620200415X066000000
2MAIL0000153262BR10        BRNC        BRNCCOCO    BRNCCOCO13AG00000600000000001132036700000000000000300000000000000000000000006518Z01620200415X066000000
2MAIL0000153262BR10        BRNC        BRNCCOCO    BRNCCOCO13AG00000700000000001132200400000000000000200000000000000000000000004230Z01620200415X066000000
2MAIL0000153262BR10        BRNC        BRNCCOCO    BRNCCOCO13AG00000800000000001215533700000000000000300000000000000000000000006518Z01620200415X066000000
2MAIL0000153262BR10        BRNC        BRNCCOCO    BRNCCOCO13AG00000900000000001221415400000000000000100000000000000000000000003541Z01620200415X066000000
2MAIL0000153262BR10        BRNC        BRNCCOCO    BRNCCOCO13AG00001000000000001223975300000000000000100000000000000000000000005076Z01620200415X066000000
2MAIL0000153262BR10        BRNC        BRNCCOCO    BRNCCOCO13AG00001100000000001226089600000000000004800000000000000000000000018321Z01620200415X066000000
2MAIL0000153262BR10        BRNC        BRNCCOCO    BRNCCOCO13AG00001200000000001231231200000000000000100000000000000000000000005076Z01620200415X066000000
2MAIL0000153262BR10        BRNC        BRNCCOCO    BRNCCOCO13AG00001300000000001235699400000000000001000000000000000000000000003825Z01620200415X066000000
2MAIL0000153262BR10        BRNC        BRNCCOCO    BRNCCOCO13AG00001400000000001235699700000000000001000000000000000000000000003825Z01620200415X066000000
2MAIL0000153262BR10        BRNC        BRNCCOCO    BRNCCOCO13AG00001500000000001235699800000000000001000000000000000000000000003825Z01620200415X066000000
2MAIL0000153262BR10        BRNC        BRNCCOCO    BRNCCOCO13AG00001600000000001236512800000000000001200000000000000000000000002071Z01620200415X066000000
2MAIL0000153262BR10        BRNC        BRNCCOCO    BRNCCOCO13AG00001700000000001236512900000000000001000000000000000000000000001818Z01620200415X066000000
2MAIL0000153262BR10        BRNC        BRNCCOCO    BRNCCOCO13AG00001800000000001236515000000000000001000000000000000000000000001818Z01620200415X066000000
2MAIL0000153262BR10        BRNC        BRNCCOCO    BRNCCOCO13AG00001900000000001239663300000000000002800000000000000000000000010686Z01620200415X066000000
2MAIL0000153262BR10        BRNC        BRNCCOCO    BRNCCOCO13AG00002000000000001239688300000000000002800000000000000000000000010686Z01620200415X066000000
2MAIL0000153262BR10        BRNC        BRNCCOCO    BRNCCOCO13AG00002100000000001239688600000000000005600000000000000000000000021373Z01620200415X066000000
2MAIL0000153262BR10        BRNC        BRNCCOCO    BRNCCOCO13AG00002200000000001239688800000000000005600000000000000000000000021373Z01620200415X066000000
2MAIL0000153262BR10        BRNC        BRNCCOCO    BRNCCOCO13AG00002300000000001239692000000000000001400000000000000000000000005343Z01620200415X066000000
2MAIL0000153262BR10        BRNC        BRNCCOCO    BRNCCOCO13AG00002400000000001239692100000000000002800000000000000000000000010686Z01620200415X066000000
2MAIL0000153262BR10        BRNC        BRNCCOCO    BRNCCOCO13AG00002500000000001239692300000000000002800000000000000000000000010686Z01620200415X066000000
2MAIL0000153262BR10        BRNC        BRNCCOCO    BRNCCOCO13AG00002600000000001240924900000000000001200000000000000000000000001997Z01620200415X066000000
2MAIL0000153262BR10        BRNC        BRNCCOCO    BRNCCOCO13AG00002700000000001241577400000000000000500000000000000000000000004332Z01620200415X066000000
2MAIL0000153262BR10        BRNC        BRNCCOCO    BRNCCOCO13AG00002800000000001241623700000000000000100000000000000000000000002587Z01620200415X066000000
1MAIL0000153263BR10        BRNC        BRNCCOCO    BRNCCOCO13AG2020041500:00:00OR  010000051565420005156542153263                             2020041520200415Z016CIF202004150000000000019663NN0                                                  0                                        
2MAIL0000153263BR10        BRNC        BRNCCOCO    BRNCCOCO13AG00000100000000001132033100000000000000100000000000000000000000002291Z01620200415X066000000
2MAIL0000153263BR10        BRNC        BRNCCOCO    BRNCCOCO13AG00000200000000001132036700000000000000100000000000000000000000002291Z01620200415X066000000
2MAIL0000153263BR10        BRNC        BRNCCOCO    BRNCCOCO13AG00000300000000001132200400000000000000100000000000000000000000002230Z01620200415X066000000
2MAIL0000153263BR10        BRNC        BRNCCOCO    BRNCCOCO13AG00000400000000001236512900000000000000500000000000000000000000001002Z01620200415X066000000
2MAIL0000153263BR10        BRNC        BRNCCOCO    BRNCCOCO13AG00000500000000001236515000000000000000500000000000000000000000001002Z01620200415X066000000
2MAIL0000153263BR10        BRNC        BRNCCOCO    BRNCCOCO13AG00000600000000001239688800000000000001400000000000000000000000005885Z01620200415X066000000
2MAIL0000153263BR10        BRNC        BRNCCOCO    BRNCCOCO13AG00000700000000001241623700000000000000200000000000000000000000004962Z01620200415X066000000
1MAIL0000153264BR10        BRNC        BRNCCOCO    BRNCCOCO13AG2020041500:00:00OR  010000029799420002979942153264                             2020041520200415Z016CIF202004150000000000010152NN0                                                  0                                        
2MAIL0000153264BR10        BRNC        BRNCCOCO    BRNCCOCO13AG00000100000000001231189200000000000000100000000000000000000000005076Z01620200415X066000000
2MAIL0000153264BR10        BRNC        BRNCCOCO    BRNCCOCO13AG00000200000000001231231200000000000000100000000000000000000000005076Z01620200415X066000000
1MAIL0000153265BR10        BRNC        BRNCCOCO    BRNCCOCO13AG2020041500:00:00OR  010000034732700003473270153265                             2020041520200415Z016CIF202004150000000000103927NN0                                                  0                                        
2MAIL0000153265BR10        BRNC        BRNCCOCO    BRNCCOCO13AG00000100000000001132036700000000000000100000000000000000000000001654Z01620200415X066000000
2MAIL0000153265BR10        BRNC        BRNCCOCO    BRNCCOCO13AG00000200000000001132200400000000000000600000000000000000000000012691Z01620200415X066000000
2MAIL0000153265BR10        BRNC        BRNCCOCO    BRNCCOCO13AG00000300000000001226089600000000000001200000000000000000000000004015Z01620200415X066000000
2MAIL0000153265BR10        BRNC        BRNCCOCO    BRNCCOCO13AG00000400000000001231189200000000000000100000000000000000000000004437Z01620200415X066000000
2MAIL0000153265BR10        BRNC        BRNCCOCO    BRNCCOCO13AG00000500000000001236512900000000000000500000000000000000000000000956Z01620200415X066000000
2MAIL0000153265BR10        BRNC        BRNCCOCO    BRNCCOCO13AG00000600000000001236515000000000000000500000000000000000000000000956Z01620200415X066000000
2MAIL0000153265BR10        BRNC        BRNCCOCO    BRNCCOCO13AG00000700000000001239373400000000000000200000000000000000000000011058Z01620200415X066000000
2MAIL0000153265BR10        BRNC        BRNCCOCO    BRNCCOCO13AG00000800000000001239663300000000000002800000000000000000000000009366Z01620200415X066000000
2MAIL0000153265BR10        BRNC        BRNCCOCO    BRNCCOCO13AG00000900000000001239688300000000000001400000000000000000000000004684Z01620200415X066000000
2MAIL0000153265BR10        BRNC        BRNCCOCO    BRNCCOCO13AG00001000000000001239688500000000000001400000000000000000000000004684Z01620200415X066000000
2MAIL0000153265BR10        BRNC        BRNCCOCO    BRNCCOCO13AG00001100000000001239688600000000000002800000000000000000000000009366Z01620200415X066000000
2MAIL0000153265BR10        BRNC        BRNCCOCO    BRNCCOCO13AG00001200000000001239688800000000000002800000000000000000000000009366Z01620200415X066000000
2MAIL0000153265BR10        BRNC        BRNCCOCO    BRNCCOCO13AG00001300000000001239692000000000000001400000000000000000000000004684Z01620200415X066000000
2MAIL0000153265BR10        BRNC        BRNCCOCO    BRNCCOCO13AG00001400000000001239692300000000000002800000000000000000000000009366Z01620200415X066000000
2MAIL0000153265BR10        BRNC        BRNCCOCO    BRNCCOCO13AG00001500000000001241623700000000000000100000000000000000000000002592Z01620200415X066000000
2MAIL0000153265BR10        BRNC        BRNCCOCO    BRNCCOCO13AG00001600000000001242626100000000000001400000000000000000000000004684Z01620200415X066000000
2MAIL0000153265BR10        BRNC        BRNCCOCO    BRNCCOCO13AG00001700000000001242754900000000000001400000000000000000000000004684Z01620200415X066000000
2MAIL0000153265BR10        BRNC        BRNCCOCO    BRNCCOCO13AG00001800000000001242765000000000000001400000000000000000000000004684Z01620200415X066000000
1MAIL0000153266BR10        BRNC        BRNCCOCO    BRNCCOCO13AG2020041500:00:00OR  010000034841210003484121153266                             2020041520200415Z016CIF202004150000000000006952NN0                                                  0                                        
2MAIL0000153266BR10        BRNC        BRNCCOCO    BRNCCOCO13AG00000100000000001239373400000000000000100000000000000000000000006952Z01620200415X066000000
1MAIL0000153267BR10        BRNC        BRNCCOCO    BRNCCOCO13AG2020041500:00:00OR  010000054963080005496308153267                             2020041520200415Z016CIF202004150000000000004582NN0                                                  0                                        
2MAIL0000153267BR10        BRNC        BRNCCOCO    BRNCCOCO13AG00000100000000001132033100000000000000100000000000000000000000002291Z01620200415X066000000
2MAIL0000153267BR10        BRNC        BRNCCOCO    BRNCCOCO13AG00000200000000001132036700000000000000100000000000000000000000002291Z01620200415X066000000
1MAIL0000153268BR10        BRNC        BRNCCOCO    BRNCCOCO13AG2020041500:00:00OR  010000060637220006063722153268                             2020041520200415Z016CIF202004150000000000068904NN0                                                  0                                        
2MAIL0000153268BR10        BRNC        BRNCCOCO    BRNCCOCO13AG00000100000000001132019800000000000000100000000000000000000000002076Z01620200415X066000000
2MAIL0000153268BR10        BRNC        BRNCCOCO    BRNCCOCO13AG00000200000000001132033100000000000000100000000000000000000000002291Z01620200415X066000000
2MAIL0000153268BR10        BRNC        BRNCCOCO    BRNCCOCO13AG00000300000000001132036700000000000000100000000000000000000000002291Z01620200415X066000000
2MAIL0000153268BR10        BRNC        BRNCCOCO    BRNCCOCO13AG00000400000000001132400100000000000000100000000000000000000000003165Z01620200415X066000000
2MAIL0000153268BR10        BRNC        BRNCCOCO    BRNCCOCO13AG00000500000000001228512700000000000000100000000000000000000000005568Z01620200415X066000000
2MAIL0000153268BR10        BRNC        BRNCCOCO    BRNCCOCO13AG00000600000000001231189200000000000000100000000000000000000000005568Z01620200415X066000000
2MAIL0000153268BR10        BRNC        BRNCCOCO    BRNCCOCO13AG00000700000000001231233000000000000000100000000000000000000000005568Z01620200415X066000000
2MAIL0000153268BR10        BRNC        BRNCCOCO    BRNCCOCO13AG00000800000000001235699800000000000001000000000000000000000000004211Z01620200415X066000000
2MAIL0000153268BR10        BRNC        BRNCCOCO    BRNCCOCO13AG00000900000000001236512800000000000000800000000000000000000000001526Z01620200415X066000000
2MAIL0000153268BR10        BRNC        BRNCCOCO    BRNCCOCO13AG00001000000000001236512900000000000001000000000000000000000000002004Z01620200415X066000000
2MAIL0000153268BR10        BRNC        BRNCCOCO    BRNCCOCO13AG00001100000000001236515000000000000001000000000000000000000000002004Z01620200415X066000000
2MAIL0000153268BR10        BRNC        BRNCCOCO    BRNCCOCO13AG00001200000000001239688300000000000001400000000000000000000000005885Z01620200415X066000000
2MAIL0000153268BR10        BRNC        BRNCCOCO    BRNCCOCO13AG00001300000000001239688800000000000001400000000000000000000000005885Z01620200415X066000000
2MAIL0000153268BR10        BRNC        BRNCCOCO    BRNCCOCO13AG00001400000000001240924900000000000000800000000000000000000000001472Z01620200415X066000000
2MAIL0000153268BR10        BRNC        BRNCCOCO    BRNCCOCO13AG00001500000000001241577400000000000001500000000000000000000000014428Z01620200415X066000000
2MAIL0000153268BR10        BRNC        BRNCCOCO    BRNCCOCO13AG00001600000000001241623700000000000000200000000000000000000000004962Z01620200415X066000000
1MAIL0000153269BR10        BRNC        BRNCCOCO    BRNCCOCO13AG2020041500:00:00OR  010000034769570003476957153269                             2020041520200415Z016CIF202004150000000000016087NN0                                                  0                                        
2MAIL0000153269BR10        BRNC        BRNCCOCO    BRNCCOCO13AG00000100000000001132033100000000000000100000000000000000000000002173Z01620200415X066000000
2MAIL0000153269BR10        BRNC        BRNCCOCO    BRNCCOCO13AG00000200000000001132036700000000000000100000000000000000000000002173Z01620200415X066000000
2MAIL0000153269BR10        BRNC        BRNCCOCO    BRNCCOCO13AG00000300000000001132200400000000000000100000000000000000000000002115Z01620200415X066000000
2MAIL0000153269BR10        BRNC        BRNCCOCO    BRNCCOCO13AG00000400000000001215533700000000000000100000000000000000000000002173Z01620200415X066000000
2MAIL0000153269BR10        BRNC        BRNCCOCO    BRNCCOCO13AG00000500000000001231189200000000000000100000000000000000000000005280Z01620200415X066000000
2MAIL0000153269BR10        BRNC        BRNCCOCO    BRNCCOCO13AG00000600000000001231389600000000000000100000000000000000000000002173Z01620200415X066000000
1MAIL0000153270BR10        BRNC        BRNCCOCO    BRNCCOCO13AG2020041500:00:00OR  010000058595190005859519153270                             2020041520200415Z016CIF202004150000000000008633NN0                                                  0                                        
2MAIL0000153270BR10        BRNC        BRNCCOCO    BRNCCOCO13AG00000100000000001132036700000000000000200000000000000000000000004345Z01620200415X066000000
2MAIL0000153270BR10        BRNC        BRNCCOCO    BRNCCOCO13AG00000200000000001132200400000000000000100000000000000000000000002115Z01620200415X066000000
2MAIL0000153270BR10        BRNC        BRNCCOCO    BRNCCOCO13AG00000300000000001215533700000000000000100000000000000000000000002173Z01620200415X066000000
1MAIL0000153271BR10        BRNC        BRNCCOCO    BRNCCOCO13AG2020041500:00:00OR  010000040412260004041226153271                             2020041520200415Z016CIF202004150000000000175938NN0                                                  0                                        
2MAIL0000153271BR10        BRNC        BRNCCOCO    BRNCCOCO13AG00000100000000001132030900000000000002400000000000000000000000081792Z01620200415X066000000
2MAIL0000153271BR10        BRNC        BRNCCOCO    BRNCCOCO13AG00000200000000001132034900000000000004000000000000000000000000094146Z01620200415X066000000
1MAIL0000153272BR10        BRNC        BRNCCOCO    BRNCCOCO13AG2020041500:00:00OR  010000050837800005083780153272                             2020041520200415Z016CIF202004150000000000023781NN0                                                  0                                        
2MAIL0000153272BR10        BRNC        BRNCCOCO    BRNCCOCO13AG00000100000000001132019800000000000000100000000000000000000000002076Z01620200415X066000000
2MAIL0000153272BR10        BRNC        BRNCCOCO    BRNCCOCO13AG00000200000000001132020900000000000000100000000000000000000000002076Z01620200415X066000000
2MAIL0000153272BR10        BRNC        BRNCCOCO    BRNCCOCO13AG00000300000000001132036700000000000000100000000000000000000000002291Z01620200415X066000000
2MAIL0000153272BR10        BRNC        BRNCCOCO    BRNCCOCO13AG00000400000000001231231200000000000000100000000000000000000000005568Z01620200415X066000000
2MAIL0000153272BR10        BRNC        BRNCCOCO    BRNCCOCO13AG00000500000000001239663300000000000001400000000000000000000000005885Z01620200415X066000000
2MAIL0000153272BR10        BRNC        BRNCCOCO    BRNCCOCO13AG00000600000000001239692300000000000001400000000000000000000000005885Z01620200415X066000000
