1MAIL0000152960BR10        BRNC        BRNCCOCO    BRNCCOCO13AG2020041300:00:00OR  010000061211170006121117152960                             2020041320200413Z016CIF202004130000000000065153NN0                                                  0                                        
2MAIL0000152960BR10        BRNC        BRNCCOCO    BRNCCOCO13AG00000100000000001132019700000000000000100000000000000000000000001967Z01620200413X066000000
2MAIL0000152960BR10        BRNC        BRNCCOCO    BRNCCOCO13AG00000200000000001132019800000000000000100000000000000000000000001967Z01620200413X066000000
2MAIL0000152960BR10        BRNC        BRNCCOCO    BRNCCOCO13AG00000300000000001132020900000000000000100000000000000000000000001967Z01620200413X066000000
2MAIL0000152960BR10        BRNC        BRNCCOCO    BRNCCOCO13AG00000400000000001132033100000000000000300000000000000000000000006518Z01620200413X066000000
2MAIL0000152960BR10        BRNC        BRNCCOCO    BRNCCOCO13AG00000500000000001132036700000000000000300000000000000000000000006518Z01620200413X066000000
2MAIL0000152960BR10        BRNC        BRNCCOCO    BRNCCOCO13AG00000600000000001132200400000000000000300000000000000000000000006345Z01620200413X066000000
2MAIL0000152960BR10        BRNC        BRNCCOCO    BRNCCOCO13AG00000700000000001236512900000000000003000000000000000000000000005454Z01620200413X066000000
2MAIL0000152960BR10        BRNC        BRNCCOCO    BRNCCOCO13AG00000800000000001236515000000000000003000000000000000000000000005454Z01620200413X066000000
2MAIL0000152960BR10        BRNC        BRNCCOCO    BRNCCOCO13AG00000900000000001239663300000000000001400000000000000000000000005343Z01620200413X066000000
2MAIL0000152960BR10        BRNC        BRNCCOCO    BRNCCOCO13AG00001000000000001239688600000000000001400000000000000000000000005343Z01620200413X066000000
2MAIL0000152960BR10        BRNC        BRNCCOCO    BRNCCOCO13AG00001100000000001239688800000000000001400000000000000000000000005343Z01620200413X066000000
2MAIL0000152960BR10        BRNC        BRNCCOCO    BRNCCOCO13AG00001200000000001241623700000000000000500000000000000000000000012934Z01620200413X066000000
1MAIL0000152961BR10        BRNC        BRNCCOCO    BRNCCOCO13AG2020041300:00:00OR  010000061211580006121158152961                             2020041320200413Z016CIF202004130000000000065153NN0                                                  0                                        
2MAIL0000152961BR10        BRNC        BRNCCOCO    BRNCCOCO13AG00000100000000001132019700000000000000100000000000000000000000001967Z01620200413X066000000
2MAIL0000152961BR10        BRNC        BRNCCOCO    BRNCCOCO13AG00000200000000001132019800000000000000100000000000000000000000001967Z01620200413X066000000
2MAIL0000152961BR10        BRNC        BRNCCOCO    BRNCCOCO13AG00000300000000001132020900000000000000100000000000000000000000001967Z01620200413X066000000
2MAIL0000152961BR10        BRNC        BRNCCOCO    BRNCCOCO13AG00000400000000001132033100000000000000300000000000000000000000006518Z01620200413X066000000
2MAIL0000152961BR10        BRNC        BRNCCOCO    BRNCCOCO13AG00000500000000001132036700000000000000300000000000000000000000006518Z01620200413X066000000
2MAIL0000152961BR10        BRNC        BRNCCOCO    BRNCCOCO13AG00000600000000001132200400000000000000300000000000000000000000006345Z01620200413X066000000
2MAIL0000152961BR10        BRNC        BRNCCOCO    BRNCCOCO13AG00000700000000001236512900000000000003000000000000000000000000005454Z01620200413X066000000
2MAIL0000152961BR10        BRNC        BRNCCOCO    BRNCCOCO13AG00000800000000001236515000000000000003000000000000000000000000005454Z01620200413X066000000
2MAIL0000152961BR10        BRNC        BRNCCOCO    BRNCCOCO13AG00000900000000001239663300000000000001400000000000000000000000005343Z01620200413X066000000
2MAIL0000152961BR10        BRNC        BRNCCOCO    BRNCCOCO13AG00001000000000001239688600000000000001400000000000000000000000005343Z01620200413X066000000
2MAIL0000152961BR10        BRNC        BRNCCOCO    BRNCCOCO13AG00001100000000001239688800000000000001400000000000000000000000005343Z01620200413X066000000
2MAIL0000152961BR10        BRNC        BRNCCOCO    BRNCCOCO13AG00001200000000001241623700000000000000500000000000000000000000012934Z01620200413X066000000
1MAIL0000152962BR10        BRNC        BRNCCOCO    BRNCCOCO13AG2020041300:00:00OR  010000061211300006121130152962                             2020041320200413Z016CIF202004130000000000065153NN0                                                  0                                        
2MAIL0000152962BR10        BRNC        BRNCCOCO    BRNCCOCO13AG00000100000000001132019700000000000000100000000000000000000000001967Z01620200413X066000000
2MAIL0000152962BR10        BRNC        BRNCCOCO    BRNCCOCO13AG00000200000000001132019800000000000000100000000000000000000000001967Z01620200413X066000000
2MAIL0000152962BR10        BRNC        BRNCCOCO    BRNCCOCO13AG00000300000000001132020900000000000000100000000000000000000000001967Z01620200413X066000000
2MAIL0000152962BR10        BRNC        BRNCCOCO    BRNCCOCO13AG00000400000000001132033100000000000000300000000000000000000000006518Z01620200413X066000000
2MAIL0000152962BR10        BRNC        BRNCCOCO    BRNCCOCO13AG00000500000000001132036700000000000000300000000000000000000000006518Z01620200413X066000000
2MAIL0000152962BR10        BRNC        BRNCCOCO    BRNCCOCO13AG00000600000000001132200400000000000000300000000000000000000000006345Z01620200413X066000000
2MAIL0000152962BR10        BRNC        BRNCCOCO    BRNCCOCO13AG00000700000000001236512900000000000003000000000000000000000000005454Z01620200413X066000000
2MAIL0000152962BR10        BRNC        BRNCCOCO    BRNCCOCO13AG00000800000000001236515000000000000003000000000000000000000000005454Z01620200413X066000000
2MAIL0000152962BR10        BRNC        BRNCCOCO    BRNCCOCO13AG00000900000000001239688300000000000001400000000000000000000000005343Z01620200413X066000000
2MAIL0000152962BR10        BRNC        BRNCCOCO    BRNCCOCO13AG00001000000000001239688600000000000001400000000000000000000000005343Z01620200413X066000000
2MAIL0000152962BR10        BRNC        BRNCCOCO    BRNCCOCO13AG00001100000000001239688800000000000001400000000000000000000000005343Z01620200413X066000000
2MAIL0000152962BR10        BRNC        BRNCCOCO    BRNCCOCO13AG00001200000000001241623700000000000000500000000000000000000000012934Z01620200413X066000000
1MAIL0000152963BR10        BRNC        BRNCCOCO    BRNCCOCO13AG2020041300:00:00OR  010000044866190004486619152963                             2020041320200413Z016CIF202004130000000000013254NN0                                                  0                                        
2MAIL0000152963BR10        BRNC        BRNCCOCO    BRNCCOCO13AG00000100000000001132033100000000000000100000000000000000000000002173Z01620200413X066000000
2MAIL0000152963BR10        BRNC        BRNCCOCO    BRNCCOCO13AG00000200000000001132036700000000000000100000000000000000000000002173Z01620200413X066000000
2MAIL0000152963BR10        BRNC        BRNCCOCO    BRNCCOCO13AG00000300000000001215533700000000000000100000000000000000000000002173Z01620200413X066000000
2MAIL0000152963BR10        BRNC        BRNCCOCO    BRNCCOCO13AG00000400000000001227395500000000000000100000000000000000000000002173Z01620200413X066000000
2MAIL0000152963BR10        BRNC        BRNCCOCO    BRNCCOCO13AG00000500000000001241577400000000000000500000000000000000000000004562Z01620200413X066000000
1MAIL0000152964BR10        BRNC        BRNCCOCO    BRNCCOCO13AG2020041300:00:00OR  010000057066730005706673152964                             2020041320200413Z016CIF202004130000000000064659NN0                                                  0                                        
2MAIL0000152964BR10        BRNC        BRNCCOCO    BRNCCOCO13AG00000100000000001132033100000000000001000000000000000000000000021728Z01620200413X066000000
2MAIL0000152964BR10        BRNC        BRNCCOCO    BRNCCOCO13AG00000200000000001132036700000000000001500000000000000000000000032591Z01620200413X066000000
2MAIL0000152964BR10        BRNC        BRNCCOCO    BRNCCOCO13AG00000300000000001132200400000000000000300000000000000000000000006345Z01620200413X066000000
2MAIL0000152964BR10        BRNC        BRNCCOCO    BRNCCOCO13AG00000400000000001235699800000000000001000000000000000000000000003995Z01620200413X066000000
1MAIL0000152965BR10        BRNC        BRNCCOCO    BRNCCOCO13AG2020041300:00:00OR  010000054592420005459242152965                             2020041320200413Z016CIF202004130000000000018448NN0                                                  0                                        
2MAIL0000152965BR10        BRNC        BRNCCOCO    BRNCCOCO13AG00000100000000001132036700000000000000100000000000000000000000002173Z01620200413X066000000
2MAIL0000152965BR10        BRNC        BRNCCOCO    BRNCCOCO13AG00000200000000001241577400000000000001500000000000000000000000013683Z01620200413X066000000
2MAIL0000152965BR10        BRNC        BRNCCOCO    BRNCCOCO13AG00000300000000001241623700000000000000100000000000000000000000002592Z01620200413X066000000
1MAIL0000152966BR10        BRNC        BRNCCOCO    BRNCCOCO13AG2020041300:00:00OR  010000043409490004340949152966                             2020041320200413Z016CIF202004130000000000095359NN0                                                  0                                        
2MAIL0000152966BR10        BRNC        BRNCCOCO    BRNCCOCO13AG00000100000000001132018300000000000000100000000000000000000000003735Z01620200413X066000000
2MAIL0000152966BR10        BRNC        BRNCCOCO    BRNCCOCO13AG00000200000000001132033100000000000000400000000000000000000000009163Z01620200413X066000000
2MAIL0000152966BR10        BRNC        BRNCCOCO    BRNCCOCO13AG00000300000000001132036700000000000000400000000000000000000000009163Z01620200413X066000000
2MAIL0000152966BR10        BRNC        BRNCCOCO    BRNCCOCO13AG00000400000000001132200400000000000000100000000000000000000000002230Z01620200413X066000000
2MAIL0000152966BR10        BRNC        BRNCCOCO    BRNCCOCO13AG00000500000000001215533700000000000000200000000000000000000000004581Z01620200413X066000000
2MAIL0000152966BR10        BRNC        BRNCCOCO    BRNCCOCO13AG00000600000000001221415400000000000000100000000000000000000000003735Z01620200413X066000000
2MAIL0000152966BR10        BRNC        BRNCCOCO    BRNCCOCO13AG00000700000000001226089600000000000001200000000000000000000000005045Z01620200413X066000000
2MAIL0000152966BR10        BRNC        BRNCCOCO    BRNCCOCO13AG00000800000000001241577400000000000006000000000000000000000000057707Z01620200413X066000000
1MAIL0000152967BR10        BRNC        BRNCCOCO    BRNCCOCO13AG2020041300:00:00OR  010000045528200004552820152967                             2020041320200413Z016CIF202004130000000000018242NN0                                                  0                                        
2MAIL0000152967BR10        BRNC        BRNCCOCO    BRNCCOCO13AG00000100000000001228512700000000000000100000000000000000000000004437Z01620200413X066000000
2MAIL0000152967BR10        BRNC        BRNCCOCO    BRNCCOCO13AG00000200000000001234705900000000000000100000000000000000000000004437Z01620200413X066000000
2MAIL0000152967BR10        BRNC        BRNCCOCO    BRNCCOCO13AG00000300000000001239688600000000000001400000000000000000000000004684Z01620200413X066000000
2MAIL0000152967BR10        BRNC        BRNCCOCO    BRNCCOCO13AG00000400000000001239688800000000000001400000000000000000000000004684Z01620200413X066000000
1MAIL0000152968BR10        BRNC        BRNCCOCO    BRNCCOCO13AG2020041300:00:00OR  010000054819630005481963152968                             2020041320200413Z016CIF202004130000000000008545NN0                                                  0                                        
2MAIL0000152968BR10        BRNC        BRNCCOCO    BRNCCOCO13AG00000100000000001132020900000000000000100000000000000000000000001498Z01620200413X066000000
2MAIL0000152968BR10        BRNC        BRNCCOCO    BRNCCOCO13AG00000200000000001132036700000000000000100000000000000000000000001654Z01620200413X066000000
2MAIL0000152968BR10        BRNC        BRNCCOCO    BRNCCOCO13AG00000300000000001234705800000000000000100000000000000000000000004437Z01620200413X066000000
2MAIL0000152968BR10        BRNC        BRNCCOCO    BRNCCOCO13AG00000400000000001236515000000000000000500000000000000000000000000956Z01620200413X066000000
