1MAIL0000151513BR10        BRNC        BRNCCOCO    BRNCCOCO13AG2020033000:00:00OR  010000061672260006167226151513                             2020033020200330Z016CIF202003300000000000023619NN0                                                  0                                        
2MAIL0000151513BR10        BRNC        BRNCCOCO    BRNCCOCO13AG00000100000000001132033100000000000000100000000000000000000000002173Z01620200330X066000000
2MAIL0000151513BR10        BRNC        BRNCCOCO    BRNCCOCO13AG00000200000000001132036700000000000000100000000000000000000000002173Z01620200330X066000000
2MAIL0000151513BR10        BRNC        BRNCCOCO    BRNCCOCO13AG00000300000000001132200400000000000000100000000000000000000000002115Z01620200330X066000000
2MAIL0000151513BR10        BRNC        BRNCCOCO    BRNCCOCO13AG00000400000000001236512900000000000001500000000000000000000000002997Z01620200330X066000000
2MAIL0000151513BR10        BRNC        BRNCCOCO    BRNCCOCO13AG00000500000000001236515000000000000001500000000000000000000000002997Z01620200330X066000000
2MAIL0000151513BR10        BRNC        BRNCCOCO    BRNCCOCO13AG00000600000000001239688800000000000001400000000000000000000000005582Z01620200330X066000000
2MAIL0000151513BR10        BRNC        BRNCCOCO    BRNCCOCO13AG00000700000000001239692000000000000001400000000000000000000000005582Z01620200330X066000000
1MAIL0000151514BR10        BRNC        BRNCCOCO    BRNCCOCO13AG2020033000:00:00OR  010000051014070005101407151514                             2020033020200330Z016CIF202003300000000000017243NN0                                                  0                                        
2MAIL0000151514BR10        BRNC        BRNCCOCO    BRNCCOCO13AG00000100000000001132033100000000000000100000000000000000000000002291Z01620200330X066000000
2MAIL0000151514BR10        BRNC        BRNCCOCO    BRNCCOCO13AG00000200000000001132036700000000000000100000000000000000000000002291Z01620200330X066000000
2MAIL0000151514BR10        BRNC        BRNCCOCO    BRNCCOCO13AG00000300000000001215533700000000000000100000000000000000000000002291Z01620200330X066000000
2MAIL0000151514BR10        BRNC        BRNCCOCO    BRNCCOCO13AG00000400000000001236512900000000000000500000000000000000000000001002Z01620200330X066000000
2MAIL0000151514BR10        BRNC        BRNCCOCO    BRNCCOCO13AG00000500000000001236515000000000000000500000000000000000000000001002Z01620200330X066000000
2MAIL0000151514BR10        BRNC        BRNCCOCO    BRNCCOCO13AG00000600000000001239688800000000000001400000000000000000000000005885Z01620200330X066000000
2MAIL0000151514BR10        BRNC        BRNCCOCO    BRNCCOCO13AG00000700000000001241623700000000000000100000000000000000000000002481Z01620200330X066000000
1MAIL0000151515BR10        BRNC        BRNCCOCO    BRNCCOCO13AG2020033000:00:00OR  010000029799040002979904151515                             2020033020200330Z016CIF202003300000000000104041NN0                                                  0                                        
2MAIL0000151515BR10        BRNC        BRNCCOCO    BRNCCOCO13AG00000100000000001132019800000000000000400000000000000000000000007872Z01620200330X066000000
2MAIL0000151515BR10        BRNC        BRNCCOCO    BRNCCOCO13AG00000200000000001132033100000000000000600000000000000000000000013036Z01620200330X066000000
2MAIL0000151515BR10        BRNC        BRNCCOCO    BRNCCOCO13AG00000300000000001132036700000000000000800000000000000000000000017382Z01620200330X066000000
2MAIL0000151515BR10        BRNC        BRNCCOCO    BRNCCOCO13AG00000400000000001132200400000000000000600000000000000000000000012690Z01620200330X066000000
2MAIL0000151515BR10        BRNC        BRNCCOCO    BRNCCOCO13AG00000500000000001215533700000000000000600000000000000000000000013036Z01620200330X066000000
2MAIL0000151515BR10        BRNC        BRNCCOCO    BRNCCOCO13AG00000600000000001221415400000000000000200000000000000000000000007083Z01620200330X066000000
2MAIL0000151515BR10        BRNC        BRNCCOCO    BRNCCOCO13AG00000700000000001231231200000000000000200000000000000000000000010153Z01620200330X066000000
2MAIL0000151515BR10        BRNC        BRNCCOCO    BRNCCOCO13AG00000800000000001236512800000000000002800000000000000000000000004831Z01620200330X066000000
2MAIL0000151515BR10        BRNC        BRNCCOCO    BRNCCOCO13AG00000900000000001236512900000000000002000000000000000000000000003636Z01620200330X066000000
2MAIL0000151515BR10        BRNC        BRNCCOCO    BRNCCOCO13AG00001000000000001236515000000000000002000000000000000000000000003636Z01620200330X066000000
2MAIL0000151515BR10        BRNC        BRNCCOCO    BRNCCOCO13AG00001100000000001239688800000000000001400000000000000000000000005343Z01620200330X066000000
2MAIL0000151515BR10        BRNC        BRNCCOCO    BRNCCOCO13AG00001200000000001239692100000000000001400000000000000000000000005343Z01620200330X066000000
1MAIL0000151516BR10        BRNC        BRNCCOCO    BRNCCOCO13AG2020033000:00:00OR  010000028510130002851013151516                             2020033020200330Z016CIF202003300000000000084858NN0                                                  0                                        
2MAIL0000151516BR10        BRNC        BRNCCOCO    BRNCCOCO13AG00000100000000001132019800000000000000200000000000000000000000003936Z01620200330X066000000
2MAIL0000151516BR10        BRNC        BRNCCOCO    BRNCCOCO13AG00000200000000001132019900000000000000200000000000000000000000003936Z01620200330X066000000
2MAIL0000151516BR10        BRNC        BRNCCOCO    BRNCCOCO13AG00000300000000001132020900000000000000200000000000000000000000003936Z01620200330X066000000
2MAIL0000151516BR10        BRNC        BRNCCOCO    BRNCCOCO13AG00000400000000001132033100000000000000400000000000000000000000008692Z01620200330X066000000
2MAIL0000151516BR10        BRNC        BRNCCOCO    BRNCCOCO13AG00000500000000001132036700000000000000800000000000000000000000017382Z01620200330X066000000
2MAIL0000151516BR10        BRNC        BRNCCOCO    BRNCCOCO13AG00000600000000001132200400000000000000600000000000000000000000012691Z01620200330X066000000
2MAIL0000151516BR10        BRNC        BRNCCOCO    BRNCCOCO13AG00000700000000001132400100000000000000100000000000000000000000003003Z01620200330X066000000
2MAIL0000151516BR10        BRNC        BRNCCOCO    BRNCCOCO13AG00000800000000001215533700000000000000600000000000000000000000013036Z01620200330X066000000
2MAIL0000151516BR10        BRNC        BRNCCOCO    BRNCCOCO13AG00000900000000001221415400000000000000200000000000000000000000007082Z01620200330X066000000
2MAIL0000151516BR10        BRNC        BRNCCOCO    BRNCCOCO13AG00001000000000001239688600000000000001400000000000000000000000005582Z01620200330X066000000
2MAIL0000151516BR10        BRNC        BRNCCOCO    BRNCCOCO13AG00001100000000001239692100000000000001400000000000000000000000005582Z01620200330X066000000
1MAIL0000151517BR10        BRNC        BRNCCOCO    BRNCCOCO13AG2020033000:00:00OR  010000031800240003180024151517                             2020033020200330Z016CIF202003300000000000067128NN0                                                  0                                        
2MAIL0000151517BR10        BRNC        BRNCCOCO    BRNCCOCO13AG00000100000000001132019700000000000000100000000000000000000000001498Z01620200330X066000000
2MAIL0000151517BR10        BRNC        BRNCCOCO    BRNCCOCO13AG00000200000000001132019800000000000000100000000000000000000000001498Z01620200330X066000000
2MAIL0000151517BR10        BRNC        BRNCCOCO    BRNCCOCO13AG00000300000000001132019900000000000000100000000000000000000000001498Z01620200330X066000000
2MAIL0000151517BR10        BRNC        BRNCCOCO    BRNCCOCO13AG00000400000000001132033100000000000000100000000000000000000000001654Z01620200330X066000000
2MAIL0000151517BR10        BRNC        BRNCCOCO    BRNCCOCO13AG00000500000000001132036700000000000000100000000000000000000000001654Z01620200330X066000000
2MAIL0000151517BR10        BRNC        BRNCCOCO    BRNCCOCO13AG00000600000000001132200400000000000000200000000000000000000000004230Z01620200330X066000000
2MAIL0000151517BR10        BRNC        BRNCCOCO    BRNCCOCO13AG00000700000000001215533700000000000000100000000000000000000000001654Z01620200330X066000000
2MAIL0000151517BR10        BRNC        BRNCCOCO    BRNCCOCO13AG00000800000000001226089600000000000001200000000000000000000000004015Z01620200330X066000000
2MAIL0000151517BR10        BRNC        BRNCCOCO    BRNCCOCO13AG00000900000000001227735000000000000000100000000000000000000000001498Z01620200330X066000000
2MAIL0000151517BR10        BRNC        BRNCCOCO    BRNCCOCO13AG00001000000000001235699800000000000001000000000000000000000000003352Z01620200330X066000000
2MAIL0000151517BR10        BRNC        BRNCCOCO    BRNCCOCO13AG00001100000000001239688600000000000001400000000000000000000000004684Z01620200330X066000000
2MAIL0000151517BR10        BRNC        BRNCCOCO    BRNCCOCO13AG00001200000000001239688800000000000001400000000000000000000000004684Z01620200330X066000000
2MAIL0000151517BR10        BRNC        BRNCCOCO    BRNCCOCO13AG00001300000000001239692100000000000001400000000000000000000000004684Z01620200330X066000000
2MAIL0000151517BR10        BRNC        BRNCCOCO    BRNCCOCO13AG00001400000000001241577400000000000003000000000000000000000000022748Z01620200330X066000000
2MAIL0000151517BR10        BRNC        BRNCCOCO    BRNCCOCO13AG00001500000000001241623700000000000000300000000000000000000000007777Z01620200330X066000000
1MAIL0000151518BR10        BRNC        BRNCCOCO    BRNCCOCO13AG2020033000:00:00OR  010000060314120006031412151518                             2020033020200330Z016CIF202003300000000000018643NN0                                                  0                                        
2MAIL0000151518BR10        BRNC        BRNCCOCO    BRNCCOCO13AG00000100000000001132033100000000000000100000000000000000000000002291Z01620200330X066000000
2MAIL0000151518BR10        BRNC        BRNCCOCO    BRNCCOCO13AG00000200000000001215533700000000000000100000000000000000000000002291Z01620200330X066000000
2MAIL0000151518BR10        BRNC        BRNCCOCO    BRNCCOCO13AG00000300000000001236898000000000000000100000000000000000000000002291Z01620200330X066000000
2MAIL0000151518BR10        BRNC        BRNCCOCO    BRNCCOCO13AG00000400000000001239663300000000000001400000000000000000000000005885Z01620200330X066000000
2MAIL0000151518BR10        BRNC        BRNCCOCO    BRNCCOCO13AG00000500000000001239688600000000000001400000000000000000000000005885Z01620200330X066000000
1MAIL0000151519BR10        BRNC        BRNCCOCO    BRNCCOCO13AG2020033000:00:00OR  010000043409490004340949151519                             2020033020200330Z016CIF202003300000000000046316NN0                                                  0                                        
2MAIL0000151519BR10        BRNC        BRNCCOCO    BRNCCOCO13AG00000100000000001132019700000000000000100000000000000000000000002076Z01620200330X066000000
2MAIL0000151519BR10        BRNC        BRNCCOCO    BRNCCOCO13AG00000200000000001132019900000000000000100000000000000000000000002076Z01620200330X066000000
2MAIL0000151519BR10        BRNC        BRNCCOCO    BRNCCOCO13AG00000300000000001132033100000000000000200000000000000000000000004581Z01620200330X066000000
2MAIL0000151519BR10        BRNC        BRNCCOCO    BRNCCOCO13AG00000400000000001132036700000000000000200000000000000000000000004581Z01620200330X066000000
2MAIL0000151519BR10        BRNC        BRNCCOCO    BRNCCOCO13AG00000500000000001228274000000000000000100000000000000000000000005568Z01620200330X066000000
2MAIL0000151519BR10        BRNC        BRNCCOCO    BRNCCOCO13AG00000600000000001234705800000000000000100000000000000000000000005568Z01620200330X066000000
2MAIL0000151519BR10        BRNC        BRNCCOCO    BRNCCOCO13AG00000700000000001235699800000000000001000000000000000000000000004211Z01620200330X066000000
2MAIL0000151519BR10        BRNC        BRNCCOCO    BRNCCOCO13AG00000800000000001239688600000000000001400000000000000000000000005885Z01620200330X066000000
2MAIL0000151519BR10        BRNC        BRNCCOCO    BRNCCOCO13AG00000900000000001239688800000000000001400000000000000000000000005885Z01620200330X066000000
2MAIL0000151519BR10        BRNC        BRNCCOCO    BRNCCOCO13AG00001000000000001239692000000000000001400000000000000000000000005885Z01620200330X066000000
1MAIL0000151520BR10        BRNC        BRNCCOCO    BRNCCOCO13AG2020033000:00:00OR  010000057066720005706672151520                             2020033020200330Z016CIF202003300000000000028853NN0                                                  0                                        
2MAIL0000151520BR10        BRNC        BRNCCOCO    BRNCCOCO13AG00000100000000001241577400000000000003000000000000000000000000028853Z01620200330X066000000
1MAIL0000151521BR10        BRNC        BRNCCOCO    BRNCCOCO13AG2020033000:00:00OR  010000061137930006113793151521                             2020033020200330Z016CIF202003300000000000028132NN0                                                  0                                        
2MAIL0000151521BR10        BRNC        BRNCCOCO    BRNCCOCO13AG00000100000000001132033100000000000000100000000000000000000000002173Z01620200330X066000000
2MAIL0000151521BR10        BRNC        BRNCCOCO    BRNCCOCO13AG00000200000000001132036700000000000000200000000000000000000000004345Z01620200330X066000000
2MAIL0000151521BR10        BRNC        BRNCCOCO    BRNCCOCO13AG00000300000000001215533700000000000000100000000000000000000000002173Z01620200330X066000000
2MAIL0000151521BR10        BRNC        BRNCCOCO    BRNCCOCO13AG00000400000000001231189200000000000000100000000000000000000000005280Z01620200330X066000000
2MAIL0000151521BR10        BRNC        BRNCCOCO    BRNCCOCO13AG00000500000000001236515000000000000001500000000000000000000000002997Z01620200330X066000000
2MAIL0000151521BR10        BRNC        BRNCCOCO    BRNCCOCO13AG00000600000000001239663300000000000001400000000000000000000000005582Z01620200330X066000000
2MAIL0000151521BR10        BRNC        BRNCCOCO    BRNCCOCO13AG00000700000000001239688800000000000001400000000000000000000000005582Z01620200330X066000000
1MAIL0000151526BR10        BRNC        BRNCCOCO    BRNCCOCO13AG2020033000:00:00OR  010000057461840005746184151526                             2020033020200330Z016CIF202003300000000000022484NN0                                                  0                                        
2MAIL0000151526BR10        BRNC        BRNCCOCO    BRNCCOCO13AG00000100000000001132033100000000000000100000000000000000000000001654Z01620200330X066000000
2MAIL0000151526BR10        BRNC        BRNCCOCO    BRNCCOCO13AG00000200000000001132036700000000000000100000000000000000000000001654Z01620200330X066000000
2MAIL0000151526BR10        BRNC        BRNCCOCO    BRNCCOCO13AG00000300000000001132200400000000000000200000000000000000000000004230Z01620200330X066000000
2MAIL0000151526BR10        BRNC        BRNCCOCO    BRNCCOCO13AG00000400000000001215533700000000000000100000000000000000000000001654Z01620200330X066000000
2MAIL0000151526BR10        BRNC        BRNCCOCO    BRNCCOCO13AG00000500000000001227395500000000000000100000000000000000000000001654Z01620200330X066000000
2MAIL0000151526BR10        BRNC        BRNCCOCO    BRNCCOCO13AG00000600000000001231389600000000000000100000000000000000000000001654Z01620200330X066000000
2MAIL0000151526BR10        BRNC        BRNCCOCO    BRNCCOCO13AG00000700000000001236512900000000000001500000000000000000000000002869Z01620200330X066000000
2MAIL0000151526BR10        BRNC        BRNCCOCO    BRNCCOCO13AG00000800000000001236515000000000000001500000000000000000000000002869Z01620200330X066000000
2MAIL0000151526BR10        BRNC        BRNCCOCO    BRNCCOCO13AG00000900000000001236898000000000000000100000000000000000000000001654Z01620200330X066000000
2MAIL0000151526BR10        BRNC        BRNCCOCO    BRNCCOCO13AG00001000000000001241623700000000000000100000000000000000000000002592Z01620200330X066000000
1MAIL0000151527BR10        BRNC        BRNCCOCO    BRNCCOCO13AG2020033000:00:00OR  010000034869170003486917151527                             2020033020200330Z016CIF202003300000000000015157NN0                                                  0                                        
2MAIL0000151527BR10        BRNC        BRNCCOCO    BRNCCOCO13AG00000100000000001235699400000000000001000000000000000000000000003995Z01620200330X066000000
2MAIL0000151527BR10        BRNC        BRNCCOCO    BRNCCOCO13AG00000200000000001239663300000000000002800000000000000000000000011162Z01620200330X066000000
1MAIL0000151528BR10        BRNC        BRNCCOCO    BRNCCOCO13AG2020033000:00:00OR  010000055171050005517105151528                             2020033020200330Z016CIF202003300000000000006872NN0                                                  0                                        
2MAIL0000151528BR10        BRNC        BRNCCOCO    BRNCCOCO13AG00000100000000001132036700000000000000200000000000000000000000004581Z01620200330X066000000
2MAIL0000151528BR10        BRNC        BRNCCOCO    BRNCCOCO13AG00000200000000001215533700000000000000100000000000000000000000002291Z01620200330X066000000
1MAIL0000151529BR10        BRNC        BRNCCOCO    BRNCCOCO13AG2020033000:00:00OR  010000054719900005471990151529                             2020033020200330Z016CIF202003300000000000006519NN0                                                  0                                        
2MAIL0000151529BR10        BRNC        BRNCCOCO    BRNCCOCO13AG00000100000000001132033100000000000000100000000000000000000000002173Z01620200330X066000000
2MAIL0000151529BR10        BRNC        BRNCCOCO    BRNCCOCO13AG00000200000000001132036700000000000000100000000000000000000000002173Z01620200330X066000000
2MAIL0000151529BR10        BRNC        BRNCCOCO    BRNCCOCO13AG00000300000000001215533700000000000000100000000000000000000000002173Z01620200330X066000000
1MAIL0000151531BR10        BRNC        BRNCCOCO    BRNCCOCO13AG2020033000:00:00OR  010000060503720006050372151531                             2020033020200330Z016CIF202003300000000000005150NN0                                                  0                                        
2MAIL0000151531BR10        BRNC        BRNCCOCO    BRNCCOCO13AG00000100000000001240924900000000000002800000000000000000000000005150Z01620200330X066000000
