1MAIL0000150587BR10        BRNC        BRNCCOCO    BRNCCOCO13AG2020032300:00:00OR  010000029077070002907707150587                             2020032320200323Z016CIF202003230000000000061845NN0                                                  0                                        
2MAIL0000150587BR10        BRNC        BRNCCOCO    BRNCCOCO13AG00000100000000001132019800000000000000100000000000000000000000002076Z01620200323X066000000
2MAIL0000150587BR10        BRNC        BRNCCOCO    BRNCCOCO13AG00000200000000001132019900000000000000100000000000000000000000002076Z01620200323X066000000
2MAIL0000150587BR10        BRNC        BRNCCOCO    BRNCCOCO13AG00000300000000001132020900000000000000100000000000000000000000002076Z01620200323X066000000
2MAIL0000150587BR10        BRNC        BRNCCOCO    BRNCCOCO13AG00000400000000001132033100000000000000500000000000000000000000011454Z01620200323X066000000
2MAIL0000150587BR10        BRNC        BRNCCOCO    BRNCCOCO13AG00000500000000001132036700000000000000500000000000000000000000011454Z01620200323X066000000
2MAIL0000150587BR10        BRNC        BRNCCOCO    BRNCCOCO13AG00000600000000001227735000000000000000100000000000000000000000002076Z01620200323X066000000
2MAIL0000150587BR10        BRNC        BRNCCOCO    BRNCCOCO13AG00000700000000001236512900000000000002000000000000000000000000004008Z01620200323X066000000
2MAIL0000150587BR10        BRNC        BRNCCOCO    BRNCCOCO13AG00000800000000001236515000000000000002000000000000000000000000004008Z01620200323X066000000
2MAIL0000150587BR10        BRNC        BRNCCOCO    BRNCCOCO13AG00000900000000001239688600000000000001400000000000000000000000005885Z01620200323X066000000
2MAIL0000150587BR10        BRNC        BRNCCOCO    BRNCCOCO13AG00001000000000001239688800000000000001400000000000000000000000005885Z01620200323X066000000
2MAIL0000150587BR10        BRNC        BRNCCOCO    BRNCCOCO13AG00001100000000001239692100000000000001400000000000000000000000005885Z01620200323X066000000
2MAIL0000150587BR10        BRNC        BRNCCOCO    BRNCCOCO13AG00001200000000001241623700000000000000200000000000000000000000004962Z01620200323X066000000
1MAIL0000150588BR10        BRNC        BRNCCOCO    BRNCCOCO13AG2020032300:00:00OR  010000054413740005441374150588                             2020032320200323Z016CIF202003230000000000043187NN0                                                  0                                        
2MAIL0000150588BR10        BRNC        BRNCCOCO    BRNCCOCO13AG00000100000000001132033100000000000000100000000000000000000000002291Z01620200323X066000000
2MAIL0000150588BR10        BRNC        BRNCCOCO    BRNCCOCO13AG00000200000000001132036700000000000000300000000000000000000000006872Z01620200323X066000000
2MAIL0000150588BR10        BRNC        BRNCCOCO    BRNCCOCO13AG00000300000000001132200400000000000000500000000000000000000000011150Z01620200323X066000000
2MAIL0000150588BR10        BRNC        BRNCCOCO    BRNCCOCO13AG00000400000000001215533700000000000000100000000000000000000000002291Z01620200323X066000000
2MAIL0000150588BR10        BRNC        BRNCCOCO    BRNCCOCO13AG00000500000000001223975300000000000000100000000000000000000000005568Z01620200323X066000000
2MAIL0000150588BR10        BRNC        BRNCCOCO    BRNCCOCO13AG00000600000000001231189200000000000000100000000000000000000000005568Z01620200323X066000000
2MAIL0000150588BR10        BRNC        BRNCCOCO    BRNCCOCO13AG00000700000000001236512900000000000000500000000000000000000000001002Z01620200323X066000000
2MAIL0000150588BR10        BRNC        BRNCCOCO    BRNCCOCO13AG00000800000000001236515000000000000000500000000000000000000000001002Z01620200323X066000000
2MAIL0000150588BR10        BRNC        BRNCCOCO    BRNCCOCO13AG00000900000000001241623700000000000000300000000000000000000000007443Z01620200323X066000000
1MAIL0000150589BR10        BRNC        BRNCCOCO    BRNCCOCO13AG2020032300:00:00OR  010000049658630004965863150589                             2020032320200323Z016CIF202003230000000000039695NN0                                                  0                                        
2MAIL0000150589BR10        BRNC        BRNCCOCO    BRNCCOCO13AG00000100000000001132019800000000000000200000000000000000000000004150Z01620200323X066000000
2MAIL0000150589BR10        BRNC        BRNCCOCO    BRNCCOCO13AG00000200000000001132019900000000000000200000000000000000000000004150Z01620200323X066000000
2MAIL0000150589BR10        BRNC        BRNCCOCO    BRNCCOCO13AG00000300000000001132020900000000000000200000000000000000000000004150Z01620200323X066000000
2MAIL0000150589BR10        BRNC        BRNCCOCO    BRNCCOCO13AG00000400000000001132033100000000000000200000000000000000000000004581Z01620200323X066000000
2MAIL0000150589BR10        BRNC        BRNCCOCO    BRNCCOCO13AG00000500000000001132036700000000000000400000000000000000000000009163Z01620200323X066000000
2MAIL0000150589BR10        BRNC        BRNCCOCO    BRNCCOCO13AG00000600000000001132200400000000000000400000000000000000000000008920Z01620200323X066000000
2MAIL0000150589BR10        BRNC        BRNCCOCO    BRNCCOCO13AG00000700000000001215533700000000000000200000000000000000000000004581Z01620200323X066000000
1MAIL0000150590BR10        BRNC        BRNCCOCO    BRNCCOCO13AG2020032300:00:00OR  010000053545320005354532150590                             2020032320200323Z016CIF202003230000000000027675NN0                                                  0                                        
2MAIL0000150590BR10        BRNC        BRNCCOCO    BRNCCOCO13AG00000100000000001236512900000000000002500000000000000000000000005010Z01620200323X066000000
2MAIL0000150590BR10        BRNC        BRNCCOCO    BRNCCOCO13AG00000200000000001236515000000000000002500000000000000000000000005010Z01620200323X066000000
2MAIL0000150590BR10        BRNC        BRNCCOCO    BRNCCOCO13AG00000300000000001239688600000000000001400000000000000000000000005885Z01620200323X066000000
2MAIL0000150590BR10        BRNC        BRNCCOCO    BRNCCOCO13AG00000400000000001239688800000000000001400000000000000000000000005885Z01620200323X066000000
2MAIL0000150590BR10        BRNC        BRNCCOCO    BRNCCOCO13AG00000500000000001239692100000000000001400000000000000000000000005885Z01620200323X066000000
1MAIL0000150591BR10        BRNC        BRNCCOCO    BRNCCOCO13AG2020032300:00:00OR  010000038297490003829749150591                             2020032320200323Z016CIF202003230000000000032538NN0                                                  0                                        
2MAIL0000150591BR10        BRNC        BRNCCOCO    BRNCCOCO13AG00000100000000001132004000000000000000100000000000000000000000001099Z01620200323X066003000
2MAIL0000150591BR10        BRNC        BRNCCOCO    BRNCCOCO13AG00000200000000001132018300000000000000100000000000000000000000003622Z01620200323X066003000
2MAIL0000150591BR10        BRNC        BRNCCOCO    BRNCCOCO13AG00000300000000001132019800000000000000100000000000000000000000002012Z01620200323X066003000
2MAIL0000150591BR10        BRNC        BRNCCOCO    BRNCCOCO13AG00000400000000001132034900000000000000100000000000000000000000002333Z01620200323X066005000
2MAIL0000150591BR10        BRNC        BRNCCOCO    BRNCCOCO13AG00000500000000001132036700000000000000100000000000000000000000002223Z01620200323X066003000
2MAIL0000150591BR10        BRNC        BRNCCOCO    BRNCCOCO13AG00000600000000001132200400000000000000100000000000000000000000002163Z01620200323X066003000
2MAIL0000150591BR10        BRNC        BRNCCOCO    BRNCCOCO13AG00000700000000001221415400000000000000100000000000000000000000003622Z01620200323X066003000
2MAIL0000150591BR10        BRNC        BRNCCOCO    BRNCCOCO13AG00000800000000001236512800000000000000400000000000000000000000000739Z01620200323X066003000
2MAIL0000150591BR10        BRNC        BRNCCOCO    BRNCCOCO13AG00000900000000001236512900000000000000500000000000000000000000000973Z01620200323X066003000
2MAIL0000150591BR10        BRNC        BRNCCOCO    BRNCCOCO13AG00001000000000001236515000000000000000500000000000000000000000000973Z01620200323X066003000
2MAIL0000150591BR10        BRNC        BRNCCOCO    BRNCCOCO13AG00001100000000001239688800000000000001400000000000000000000000005708Z01620200323X066003000
2MAIL0000150591BR10        BRNC        BRNCCOCO    BRNCCOCO13AG00001200000000001241577400000000000000500000000000000000000000004665Z01620200323X066003000
2MAIL0000150591BR10        BRNC        BRNCCOCO    BRNCCOCO13AG00001300000000001241623700000000000000100000000000000000000000002406Z01620200323X066003000
1MAIL0000150592BR10        BRNC        BRNCCOCO    BRNCCOCO13AG2020032300:00:00OR  010000051566190005156619150592                             2020032320200323Z016CIF202003230000000000032538NN0                                                  0                                        
2MAIL0000150592BR10        BRNC        BRNCCOCO    BRNCCOCO13AG00000100000000001132004000000000000000100000000000000000000000001099Z01620200323X066003000
2MAIL0000150592BR10        BRNC        BRNCCOCO    BRNCCOCO13AG00000200000000001132018300000000000000100000000000000000000000003622Z01620200323X066003000
2MAIL0000150592BR10        BRNC        BRNCCOCO    BRNCCOCO13AG00000300000000001132019800000000000000100000000000000000000000002012Z01620200323X066003000
2MAIL0000150592BR10        BRNC        BRNCCOCO    BRNCCOCO13AG00000400000000001132034900000000000000100000000000000000000000002333Z01620200323X066005000
2MAIL0000150592BR10        BRNC        BRNCCOCO    BRNCCOCO13AG00000500000000001132036700000000000000100000000000000000000000002223Z01620200323X066003000
2MAIL0000150592BR10        BRNC        BRNCCOCO    BRNCCOCO13AG00000600000000001132200400000000000000100000000000000000000000002163Z01620200323X066003000
2MAIL0000150592BR10        BRNC        BRNCCOCO    BRNCCOCO13AG00000700000000001221415400000000000000100000000000000000000000003622Z01620200323X066003000
2MAIL0000150592BR10        BRNC        BRNCCOCO    BRNCCOCO13AG00000800000000001236512800000000000000400000000000000000000000000739Z01620200323X066003000
2MAIL0000150592BR10        BRNC        BRNCCOCO    BRNCCOCO13AG00000900000000001236512900000000000000500000000000000000000000000973Z01620200323X066003000
2MAIL0000150592BR10        BRNC        BRNCCOCO    BRNCCOCO13AG00001000000000001236515000000000000000500000000000000000000000000973Z01620200323X066003000
2MAIL0000150592BR10        BRNC        BRNCCOCO    BRNCCOCO13AG00001100000000001239688800000000000001400000000000000000000000005708Z01620200323X066003000
2MAIL0000150592BR10        BRNC        BRNCCOCO    BRNCCOCO13AG00001200000000001241577400000000000000500000000000000000000000004665Z01620200323X066003000
2MAIL0000150592BR10        BRNC        BRNCCOCO    BRNCCOCO13AG00001300000000001241623700000000000000100000000000000000000000002406Z01620200323X066003000
1MAIL0000150593BR10        BRNC        BRNCCOCO    BRNCCOCO13AG2020032300:00:00OR  010000028991580002899158150593                             2020032320200323Z016CIF202003230000000000041533NN0                                                  0                                        
2MAIL0000150593BR10        BRNC        BRNCCOCO    BRNCCOCO13AG00000100000000001132019800000000000000200000000000000000000000003936Z01620200323X066000000
2MAIL0000150593BR10        BRNC        BRNCCOCO    BRNCCOCO13AG00000200000000001132033100000000000000200000000000000000000000004345Z01620200323X066000000
2MAIL0000150593BR10        BRNC        BRNCCOCO    BRNCCOCO13AG00000300000000001132200400000000000000200000000000000000000000004230Z01620200323X066000000
2MAIL0000150593BR10        BRNC        BRNCCOCO    BRNCCOCO13AG00000400000000001235699400000000000001000000000000000000000000003825Z01620200323X066000000
2MAIL0000150593BR10        BRNC        BRNCCOCO    BRNCCOCO13AG00000500000000001235699800000000000001000000000000000000000000003825Z01620200323X066000000
2MAIL0000150593BR10        BRNC        BRNCCOCO    BRNCCOCO13AG00000600000000001239663300000000000001400000000000000000000000005343Z01620200323X066000000
2MAIL0000150593BR10        BRNC        BRNCCOCO    BRNCCOCO13AG00000700000000001239688600000000000001400000000000000000000000005343Z01620200323X066000000
2MAIL0000150593BR10        BRNC        BRNCCOCO    BRNCCOCO13AG00000800000000001239688800000000000001400000000000000000000000005343Z01620200323X066000000
2MAIL0000150593BR10        BRNC        BRNCCOCO    BRNCCOCO13AG00000900000000001239692100000000000001400000000000000000000000005343Z01620200323X066000000
1MAIL0000150594BR10        BRNC        BRNCCOCO    BRNCCOCO13AG2020032300:00:00OR  010000047630050004763005150594                             2020032320200323Z016CIF202003230000000000046604NN0                                                  0                                        
2MAIL0000150594BR10        BRNC        BRNCCOCO    BRNCCOCO13AG00000100000000001132019800000000000000100000000000000000000000002076Z01620200323X066000000
2MAIL0000150594BR10        BRNC        BRNCCOCO    BRNCCOCO13AG00000200000000001132036700000000000000100000000000000000000000002291Z01620200323X066000000
2MAIL0000150594BR10        BRNC        BRNCCOCO    BRNCCOCO13AG00000300000000001235699400000000000001000000000000000000000000004211Z01620200323X066000000
2MAIL0000150594BR10        BRNC        BRNCCOCO    BRNCCOCO13AG00000400000000001235699800000000000001000000000000000000000000004211Z01620200323X066000000
2MAIL0000150594BR10        BRNC        BRNCCOCO    BRNCCOCO13AG00000500000000001241577400000000000003000000000000000000000000028853Z01620200323X066000000
2MAIL0000150594BR10        BRNC        BRNCCOCO    BRNCCOCO13AG00000600000000001241623700000000000000200000000000000000000000004962Z01620200323X066000000
1MAIL0000150595BR10        BRNC        BRNCCOCO    BRNCCOCO13AG2020032300:00:00OR  010000056850570005685057150595                             2020032320200323Z016CIF202003230000000000030658NN0                                                  0                                        
2MAIL0000150595BR10        BRNC        BRNCCOCO    BRNCCOCO13AG00000100000000001132036700000000000000200000000000000000000000004581Z01620200323X066000000
2MAIL0000150595BR10        BRNC        BRNCCOCO    BRNCCOCO13AG00000200000000001235699700000000000001000000000000000000000000004211Z01620200323X066000000
2MAIL0000150595BR10        BRNC        BRNCCOCO    BRNCCOCO13AG00000300000000001235699800000000000001000000000000000000000000004211Z01620200323X066000000
2MAIL0000150595BR10        BRNC        BRNCCOCO    BRNCCOCO13AG00000400000000001239688800000000000001400000000000000000000000005885Z01620200323X066000000
2MAIL0000150595BR10        BRNC        BRNCCOCO    BRNCCOCO13AG00000500000000001239692000000000000001400000000000000000000000005885Z01620200323X066000000
2MAIL0000150595BR10        BRNC        BRNCCOCO    BRNCCOCO13AG00000600000000001239692100000000000001400000000000000000000000005885Z01620200323X066000000
1MAIL0000150596BR10        BRNC        BRNCCOCO    BRNCCOCO13AG2020032300:00:00OR  010000057284340005728434150596                             2020032320200323Z016CIF202003230000000000027434NN0                                                  0                                        
2MAIL0000150596BR10        BRNC        BRNCCOCO    BRNCCOCO13AG00000100000000001231233000000000000000100000000000000000000000005568Z01620200323X066000000
2MAIL0000150596BR10        BRNC        BRNCCOCO    BRNCCOCO13AG00000200000000001235699800000000000001000000000000000000000000004211Z01620200323X066000000
2MAIL0000150596BR10        BRNC        BRNCCOCO    BRNCCOCO13AG00000300000000001239688800000000000001400000000000000000000000005885Z01620200323X066000000
2MAIL0000150596BR10        BRNC        BRNCCOCO    BRNCCOCO13AG00000400000000001239692000000000000001400000000000000000000000005885Z01620200323X066000000
2MAIL0000150596BR10        BRNC        BRNCCOCO    BRNCCOCO13AG00000500000000001239692300000000000001400000000000000000000000005885Z01620200323X066000000
1MAIL0000150597BR10        BRNC        BRNCCOCO    BRNCCOCO13AG2020032300:00:00OR  010000051153360005115336150597                             2020032320200323Z016CIF202003230000000000006345NN0                                                  0                                        
2MAIL0000150597BR10        BRNC        BRNCCOCO    BRNCCOCO13AG00000100000000001132200400000000000000300000000000000000000000006345Z01620200323X066000000
1MAIL0000150598BR10        BRNC        BRNCCOCO    BRNCCOCO13AG2020032300:00:00OR  010000052334070005233407150598                             2020032320200323Z016CIF202003230000000000212311NN0                                                  0                                        
2MAIL0000150598BR10        BRNC        BRNCCOCO    BRNCCOCO13AG00000100000000001132019700000000000000200000000000000000000000003936Z01620200323X066000000
2MAIL0000150598BR10        BRNC        BRNCCOCO    BRNCCOCO13AG00000200000000001132019800000000000000200000000000000000000000003936Z01620200323X066000000
2MAIL0000150598BR10        BRNC        BRNCCOCO    BRNCCOCO13AG00000300000000001132019900000000000000200000000000000000000000003936Z01620200323X066000000
2MAIL0000150598BR10        BRNC        BRNCCOCO    BRNCCOCO13AG00000400000000001132020900000000000000200000000000000000000000003936Z01620200323X066000000
2MAIL0000150598BR10        BRNC        BRNCCOCO    BRNCCOCO13AG00000500000000001132033100000000000000500000000000000000000000010863Z01620200323X066000000
2MAIL0000150598BR10        BRNC        BRNCCOCO    BRNCCOCO13AG00000600000000001132036700000000000000500000000000000000000000010863Z01620200323X066000000
2MAIL0000150598BR10        BRNC        BRNCCOCO    BRNCCOCO13AG00000700000000001132400100000000000000100000000000000000000000003003Z01620200323X066000000
2MAIL0000150598BR10        BRNC        BRNCCOCO    BRNCCOCO13AG00000800000000001215533700000000000000500000000000000000000000010863Z01620200323X066000000
2MAIL0000150598BR10        BRNC        BRNCCOCO    BRNCCOCO13AG00000900000000001224882700000000000000200000000000000000000000006315Z01620200323X066000000
2MAIL0000150598BR10        BRNC        BRNCCOCO    BRNCCOCO13AG00001000000000001224882800000000000000200000000000000000000000006315Z01620200323X066000000
2MAIL0000150598BR10        BRNC        BRNCCOCO    BRNCCOCO13AG00001100000000001227735000000000000000100000000000000000000000001967Z01620200323X066000000
2MAIL0000150598BR10        BRNC        BRNCCOCO    BRNCCOCO13AG00001200000000001228512700000000000000100000000000000000000000005076Z01620200323X066000000
2MAIL0000150598BR10        BRNC        BRNCCOCO    BRNCCOCO13AG00001300000000001231189200000000000000100000000000000000000000005076Z01620200323X066000000
2MAIL0000150598BR10        BRNC        BRNCCOCO    BRNCCOCO13AG00001400000000001231231200000000000000100000000000000000000000005076Z01620200323X066000000
2MAIL0000150598BR10        BRNC        BRNCCOCO    BRNCCOCO13AG00001500000000001235699700000000000001000000000000000000000000003825Z01620200323X066000000
2MAIL0000150598BR10        BRNC        BRNCCOCO    BRNCCOCO13AG00001600000000001235699800000000000002000000000000000000000000007648Z01620200323X066000000
2MAIL0000150598BR10        BRNC        BRNCCOCO    BRNCCOCO13AG00001700000000001236512900000000000007000000000000000000000000012727Z01620200323X066000000
2MAIL0000150598BR10        BRNC        BRNCCOCO    BRNCCOCO13AG00001800000000001236515000000000000007000000000000000000000000012727Z01620200323X066000000
2MAIL0000150598BR10        BRNC        BRNCCOCO    BRNCCOCO13AG00001900000000001239373400000000000000100000000000000000000000006340Z01620200323X066000000
2MAIL0000150598BR10        BRNC        BRNCCOCO    BRNCCOCO13AG00002000000000001239373600000000000000100000000000000000000000006340Z01620200323X066000000
2MAIL0000150598BR10        BRNC        BRNCCOCO    BRNCCOCO13AG00002100000000001239663300000000000001400000000000000000000000005343Z01620200323X066000000
2MAIL0000150598BR10        BRNC        BRNCCOCO    BRNCCOCO13AG00002200000000001239688300000000000001400000000000000000000000005343Z01620200323X066000000
2MAIL0000150598BR10        BRNC        BRNCCOCO    BRNCCOCO13AG00002300000000001239688600000000000001400000000000000000000000005343Z01620200323X066000000
2MAIL0000150598BR10        BRNC        BRNCCOCO    BRNCCOCO13AG00002400000000001239688700000000000001400000000000000000000000005343Z01620200323X066000000
2MAIL0000150598BR10        BRNC        BRNCCOCO    BRNCCOCO13AG00002500000000001239688800000000000002800000000000000000000000010686Z01620200323X066000000
2MAIL0000150598BR10        BRNC        BRNCCOCO    BRNCCOCO13AG00002600000000001239692000000000000001400000000000000000000000005343Z01620200323X066000000
2MAIL0000150598BR10        BRNC        BRNCCOCO    BRNCCOCO13AG00002700000000001239692100000000000001400000000000000000000000005343Z01620200323X066000000
2MAIL0000150598BR10        BRNC        BRNCCOCO    BRNCCOCO13AG00002800000000001241623700000000000001500000000000000000000000038799Z01620200323X066000000
1MAIL0000150599BR10        BRNC        BRNCCOCO    BRNCCOCO13AG2020032300:00:00OR  010000045591330004559133150599                             2020032320200323Z079CIF202003230000000000235363NN0                                                  0                                        
2MAIL0000150599BR10        BRNC        BRNCCOCO    BRNCCOCO13AG00000100000000001132030800000000000001200000000000000000000000036571Z07920200323X066000000
2MAIL0000150599BR10        BRNC        BRNCCOCO    BRNCCOCO13AG00000200000000001132030900000000000001200000000000000000000000037729Z07920200323X066000000
2MAIL0000150599BR10        BRNC        BRNCCOCO    BRNCCOCO13AG00000300000000001132035100000000000002000000000000000000000000045861Z07920200323X066000000
2MAIL0000150599BR10        BRNC        BRNCCOCO    BRNCCOCO13AG00000400000000001239688600000000000005600000000000000000000000020945Z07920200323X066000000
2MAIL0000150599BR10        BRNC        BRNCCOCO    BRNCCOCO13AG00000500000000001239692000000000000011200000000000000000000000041892Z07920200323X066000000
2MAIL0000150599BR10        BRNC        BRNCCOCO    BRNCCOCO13AG00000600000000001239692100000000000011200000000000000000000000041892Z07920200323X066000000
2MAIL0000150599BR10        BRNC        BRNCCOCO    BRNCCOCO13AG00000700000000001239692300000000000002800000000000000000000000010473Z07920200323X066000000
1MAIL0000150600BR10        BRNC        BRNCCOCO    BRNCCOCO13AG2020032300:00:00OR  010000009186530000918653150600                             2020032320200323Z079CIF202003230000000000235363NN0                                                  0                                        
2MAIL0000150600BR10        BRNC        BRNCCOCO    BRNCCOCO13AG00000100000000001132030800000000000001200000000000000000000000036571Z07920200323X066000000
2MAIL0000150600BR10        BRNC        BRNCCOCO    BRNCCOCO13AG00000200000000001132030900000000000001200000000000000000000000037729Z07920200323X066000000
2MAIL0000150600BR10        BRNC        BRNCCOCO    BRNCCOCO13AG00000300000000001132035100000000000002000000000000000000000000045861Z07920200323X066000000
2MAIL0000150600BR10        BRNC        BRNCCOCO    BRNCCOCO13AG00000400000000001239688600000000000005600000000000000000000000020945Z07920200323X066000000
2MAIL0000150600BR10        BRNC        BRNCCOCO    BRNCCOCO13AG00000500000000001239692000000000000011200000000000000000000000041892Z07920200323X066000000
2MAIL0000150600BR10        BRNC        BRNCCOCO    BRNCCOCO13AG00000600000000001239692100000000000011200000000000000000000000041892Z07920200323X066000000
2MAIL0000150600BR10        BRNC        BRNCCOCO    BRNCCOCO13AG00000700000000001239692300000000000002800000000000000000000000010473Z07920200323X066000000
1MAIL0000150601BR10        BRNC        BRNCCOCO    BRNCCOCO13AG2020032300:00:00OR  010000009186420000918642150601                             2020032320200323Z079CIF202003230000000000361038NN0                                                  0                                        
2MAIL0000150601BR10        BRNC        BRNCCOCO    BRNCCOCO13AG00000100000000001132030800000000000001200000000000000000000000036571Z07920200323X066000000
2MAIL0000150601BR10        BRNC        BRNCCOCO    BRNCCOCO13AG00000200000000001132030900000000000001200000000000000000000000037729Z07920200323X066000000
2MAIL0000150601BR10        BRNC        BRNCCOCO    BRNCCOCO13AG00000300000000001132035100000000000002000000000000000000000000045861Z07920200323X066000000
2MAIL0000150601BR10        BRNC        BRNCCOCO    BRNCCOCO13AG00000400000000001239688600000000000011200000000000000000000000041892Z07920200323X066000000
2MAIL0000150601BR10        BRNC        BRNCCOCO    BRNCCOCO13AG00000500000000001239692000000000000016800000000000000000000000062837Z07920200323X066000000
2MAIL0000150601BR10        BRNC        BRNCCOCO    BRNCCOCO13AG00000600000000001239692100000000000033600000000000000000000000125675Z07920200323X066000000
2MAIL0000150601BR10        BRNC        BRNCCOCO    BRNCCOCO13AG00000700000000001239692300000000000002800000000000000000000000010473Z07920200323X066000000
1MAIL0000150602BR10        BRNC        BRNCCOCO    BRNCCOCO13AG2020032300:00:00OR  010000056205160005620516150602                             2020032320200323Z079CIF202003230000000000012571NN0                                                  0                                        
2MAIL0000150602BR10        BRNC        BRNCCOCO    BRNCCOCO13AG00000100000000001132036700000000000000100000000000000000000000002179Z07920200323X066000000
2MAIL0000150602BR10        BRNC        BRNCCOCO    BRNCCOCO13AG00000200000000001239688800000000000001400000000000000000000000005593Z07920200323X066000000
2MAIL0000150602BR10        BRNC        BRNCCOCO    BRNCCOCO13AG00000300000000001240924900000000000001200000000000000000000000002200Z07920200323X066000000
2MAIL0000150602BR10        BRNC        BRNCCOCO    BRNCCOCO13AG00000400000000001241623700000000000000100000000000000000000000002599Z07920200323X066000000
