1MAIL0000152877BR10        BRNC        BRNCCOCO    BRNCCOCO13AG2020041300:00:00OR  010000050806820005080682152877                             2020041320200413Z016CIF202004130000000002535707NN0                                                  0                                        
2MAIL0000152877BR10        BRNC        BRNCCOCO    BRNCCOCO13AG00000100000000001132036700000000000032000000000000000000000000488590Z01620200413X066000000
2MAIL0000152877BR10        BRNC        BRNCCOCO    BRNCCOCO13AG00000200000000001241577400000000000300000000000000000000000001999777Z01620200413X066000000
2MAIL0000152877BR10        BRNC        BRNCCOCO    BRNCCOCO13AG00000300000000001241623700000000000003000000000000000000000000047340Z01620200413X066000000
1MAIL0000152888BR10        BRNC        BRNCCOCO    BRNCCOCO13AG2020041300:00:00OR  010000030648660003064866152888                             2020041320200413Z016CIF202004130000000000025119NN0                                                  0                                        
2MAIL0000152888BR10        BRNC        BRNCCOCO    BRNCCOCO13AG00000100000000001236512900000000000002000000000000000000000000003636Z01620200413X066000000
2MAIL0000152888BR10        BRNC        BRNCCOCO    BRNCCOCO13AG00000200000000001236515000000000000003000000000000000000000000005454Z01620200413X066000000
2MAIL0000152888BR10        BRNC        BRNCCOCO    BRNCCOCO13AG00000300000000001239688600000000000001400000000000000000000000005343Z01620200413X066000000
2MAIL0000152888BR10        BRNC        BRNCCOCO    BRNCCOCO13AG00000400000000001239688800000000000001400000000000000000000000005343Z01620200413X066000000
2MAIL0000152888BR10        BRNC        BRNCCOCO    BRNCCOCO13AG00000500000000001239692300000000000001400000000000000000000000005343Z01620200413X066000000
1MAIL0000152889BR10        BRNC        BRNCCOCO    BRNCCOCO13AG2020041300:00:00OR  010000052576650005257665152889                             2020041320200413Z016CIF202004130000000000687080NN0                                                  0                                        
2MAIL0000152889BR10        BRNC        BRNCCOCO    BRNCCOCO13AG00000100000000001132018300000000000000400000000000000000000000011472Z01620200413X066000000
2MAIL0000152889BR10        BRNC        BRNCCOCO    BRNCCOCO13AG00000200000000001132019700000000000000300000000000000000000000004796Z01620200413X066000000
2MAIL0000152889BR10        BRNC        BRNCCOCO    BRNCCOCO13AG00000300000000001132019800000000000000600000000000000000000000009593Z01620200413X066000000
2MAIL0000152889BR10        BRNC        BRNCCOCO    BRNCCOCO13AG00000400000000001132019900000000000000300000000000000000000000004796Z01620200413X066000000
2MAIL0000152889BR10        BRNC        BRNCCOCO    BRNCCOCO13AG00000500000000001132020900000000000000300000000000000000000000004796Z01620200413X066000000
2MAIL0000152889BR10        BRNC        BRNCCOCO    BRNCCOCO13AG00000600000000001132033100000000000001600000000000000000000000028244Z01620200413X066000000
2MAIL0000152889BR10        BRNC        BRNCCOCO    BRNCCOCO13AG00000700000000001132036700000000000003200000000000000000000000056487Z01620200413X066000000
2MAIL0000152889BR10        BRNC        BRNCCOCO    BRNCCOCO13AG00000800000000001132200400000000000001200000000000000000000000024027Z01620200413X066000000
2MAIL0000152889BR10        BRNC        BRNCCOCO    BRNCCOCO13AG00000900000000001215533700000000000001600000000000000000000000028244Z01620200413X066000000
2MAIL0000152889BR10        BRNC        BRNCCOCO    BRNCCOCO13AG00001000000000001221415400000000000000800000000000000000000000022944Z01620200413X066000000
2MAIL0000152889BR10        BRNC        BRNCCOCO    BRNCCOCO13AG00001100000000001223975300000000000000400000000000000000000000018942Z01620200413X066000000
2MAIL0000152889BR10        BRNC        BRNCCOCO    BRNCCOCO13AG00001200000000001226089600000000000004800000000000000000000000017082Z01620200413X066000000
2MAIL0000152889BR10        BRNC        BRNCCOCO    BRNCCOCO13AG00001300000000001227735000000000000000300000000000000000000000004796Z01620200413X066000000
2MAIL0000152889BR10        BRNC        BRNCCOCO    BRNCCOCO13AG00001400000000001228274000000000000000400000000000000000000000018942Z01620200413X066000000
2MAIL0000152889BR10        BRNC        BRNCCOCO    BRNCCOCO13AG00001500000000001228512700000000000000300000000000000000000000014207Z01620200413X066000000
2MAIL0000152889BR10        BRNC        BRNCCOCO    BRNCCOCO13AG00001600000000001231189200000000000000400000000000000000000000018942Z01620200413X066000000
2MAIL0000152889BR10        BRNC        BRNCCOCO    BRNCCOCO13AG00001700000000001231231200000000000000600000000000000000000000028413Z01620200413X066000000
2MAIL0000152889BR10        BRNC        BRNCCOCO    BRNCCOCO13AG00001800000000001231233000000000000000400000000000000000000000018942Z01620200413X066000000
2MAIL0000152889BR10        BRNC        BRNCCOCO    BRNCCOCO13AG00001900000000001234705700000000000000400000000000000000000000018942Z01620200413X066000000
2MAIL0000152889BR10        BRNC        BRNCCOCO    BRNCCOCO13AG00002000000000001234705800000000000000400000000000000000000000018942Z01620200413X066000000
2MAIL0000152889BR10        BRNC        BRNCCOCO    BRNCCOCO13AG00002100000000001234705900000000000000400000000000000000000000018942Z01620200413X066000000
2MAIL0000152889BR10        BRNC        BRNCCOCO    BRNCCOCO13AG00002200000000001235699400000000000002000000000000000000000000007134Z01620200413X066000000
2MAIL0000152889BR10        BRNC        BRNCCOCO    BRNCCOCO13AG00002300000000001235699700000000000002000000000000000000000000007134Z01620200413X066000000
2MAIL0000152889BR10        BRNC        BRNCCOCO    BRNCCOCO13AG00002400000000001235699800000000000004000000000000000000000000014267Z01620200413X066000000
2MAIL0000152889BR10        BRNC        BRNCCOCO    BRNCCOCO13AG00002500000000001236512800000000000001200000000000000000000000001959Z01620200413X066000000
2MAIL0000152889BR10        BRNC        BRNCCOCO    BRNCCOCO13AG00002600000000001236512900000000000001500000000000000000000000002608Z01620200413X066000000
2MAIL0000152889BR10        BRNC        BRNCCOCO    BRNCCOCO13AG00002700000000001236515000000000000001500000000000000000000000002608Z01620200413X066000000
2MAIL0000152889BR10        BRNC        BRNCCOCO    BRNCCOCO13AG00002800000000001238083500000000000000400000000000000000000000018942Z01620200413X066000000
2MAIL0000152889BR10        BRNC        BRNCCOCO    BRNCCOCO13AG00002900000000001239373400000000000000400000000000000000000000023717Z01620200413X066000000
2MAIL0000152889BR10        BRNC        BRNCCOCO    BRNCCOCO13AG00003000000000001239373500000000000000400000000000000000000000023717Z01620200413X066000000
2MAIL0000152889BR10        BRNC        BRNCCOCO    BRNCCOCO13AG00003100000000001239373600000000000000400000000000000000000000023717Z01620200413X066000000
2MAIL0000152889BR10        BRNC        BRNCCOCO    BRNCCOCO13AG00003200000000001239373700000000000000400000000000000000000000023717Z01620200413X066000000
2MAIL0000152889BR10        BRNC        BRNCCOCO    BRNCCOCO13AG00003300000000001239663300000000000005600000000000000000000000019929Z01620200413X066000000
2MAIL0000152889BR10        BRNC        BRNCCOCO    BRNCCOCO13AG00003400000000001239688600000000000002800000000000000000000000009965Z01620200413X066000000
2MAIL0000152889BR10        BRNC        BRNCCOCO    BRNCCOCO13AG00003500000000001239688800000000000005600000000000000000000000019929Z01620200413X066000000
2MAIL0000152889BR10        BRNC        BRNCCOCO    BRNCCOCO13AG00003600000000001239692100000000000005600000000000000000000000019929Z01620200413X066000000
2MAIL0000152889BR10        BRNC        BRNCCOCO    BRNCCOCO13AG00003700000000001239692300000000000005600000000000000000000000019929Z01620200413X066000000
2MAIL0000152889BR10        BRNC        BRNCCOCO    BRNCCOCO13AG00003800000000001241623700000000000002000000000000000000000000036446Z01620200413X066000000
2MAIL0000152889BR10        BRNC        BRNCCOCO    BRNCCOCO13AG00003900000000001242374800000000000000400000000000000000000000018942Z01620200413X066000000
1MAIL0000152890BR10        BRNC        BRNCCOCO    BRNCCOCO13AG2020041300:00:00OR  010000048813660004881366152890                             2020041320200413Z005CIF202004130000000009442004NN0                                                  0                                        
2MAIL0000152890BR10        BRNC        BRNCCOCO    BRNCCOCO13AG00000100000000001241577400000000001500000000000000000000000009442004Z00520200413X066000000
1MAIL0000152891BR10        BRNC        BRNCCOCO    BRNCCOCO13AG2020041300:00:00OR  010000029846160002984616152891                             2020041320200413Z016CIF202004130000000000031466NN0                                                  0                                        
2MAIL0000152891BR10        BRNC        BRNCCOCO    BRNCCOCO13AG00000100000000001132033100000000000000100000000000000000000000002291Z01620200413X066000000
2MAIL0000152891BR10        BRNC        BRNCCOCO    BRNCCOCO13AG00000200000000001132036700000000000000100000000000000000000000002291Z01620200413X066000000
2MAIL0000152891BR10        BRNC        BRNCCOCO    BRNCCOCO13AG00000300000000001215533700000000000000100000000000000000000000002291Z01620200413X066000000
2MAIL0000152891BR10        BRNC        BRNCCOCO    BRNCCOCO13AG00000400000000001226089600000000000001200000000000000000000000005045Z01620200413X066000000
2MAIL0000152891BR10        BRNC        BRNCCOCO    BRNCCOCO13AG00000500000000001236512900000000000000500000000000000000000000001002Z01620200413X066000000
2MAIL0000152891BR10        BRNC        BRNCCOCO    BRNCCOCO13AG00000600000000001236515000000000000001000000000000000000000000002004Z01620200413X066000000
2MAIL0000152891BR10        BRNC        BRNCCOCO    BRNCCOCO13AG00000700000000001236898000000000000000100000000000000000000000002291Z01620200413X066000000
2MAIL0000152891BR10        BRNC        BRNCCOCO    BRNCCOCO13AG00000800000000001239688600000000000001400000000000000000000000005885Z01620200413X066000000
2MAIL0000152891BR10        BRNC        BRNCCOCO    BRNCCOCO13AG00000900000000001239688800000000000001400000000000000000000000005885Z01620200413X066000000
2MAIL0000152891BR10        BRNC        BRNCCOCO    BRNCCOCO13AG00001000000000001241623700000000000000100000000000000000000000002481Z01620200413X066000000
1MAIL0000152892BR10        BRNC        BRNCCOCO    BRNCCOCO13AG2020041300:00:00OR  010000055187050005518705152892                             2020041320200413Z016CIF202004130000000000015906NN0                                                  0                                        
2MAIL0000152892BR10        BRNC        BRNCCOCO    BRNCCOCO13AG00000100000000001132019800000000000000100000000000000000000000001498Z01620200413X066000000
2MAIL0000152892BR10        BRNC        BRNCCOCO    BRNCCOCO13AG00000200000000001132033100000000000000100000000000000000000000001654Z01620200413X066000000
2MAIL0000152892BR10        BRNC        BRNCCOCO    BRNCCOCO13AG00000300000000001132036700000000000000100000000000000000000000001654Z01620200413X066000000
2MAIL0000152892BR10        BRNC        BRNCCOCO    BRNCCOCO13AG00000400000000001236512900000000000001000000000000000000000000001912Z01620200413X066000000
2MAIL0000152892BR10        BRNC        BRNCCOCO    BRNCCOCO13AG00000500000000001236515000000000000001000000000000000000000000001912Z01620200413X066000000
2MAIL0000152892BR10        BRNC        BRNCCOCO    BRNCCOCO13AG00000600000000001239688800000000000001400000000000000000000000004684Z01620200413X066000000
2MAIL0000152892BR10        BRNC        BRNCCOCO    BRNCCOCO13AG00000700000000001241623700000000000000100000000000000000000000002592Z01620200413X066000000
1MAIL0000152893BR10        BRNC        BRNCCOCO    BRNCCOCO13AG2020041300:00:00OR  010000034841210003484121152893                             2020041320200413Z016CIF202004130000000000006952NN0                                                  0                                        
2MAIL0000152893BR10        BRNC        BRNCCOCO    BRNCCOCO13AG00000100000000001239373400000000000000100000000000000000000000006952Z01620200413X066000000
1MAIL0000152894BR10        BRNC        BRNCCOCO    BRNCCOCO13AG2020041300:00:00OR  010000034841210003484121152894                             2020041320200413Z016CIF202004130000000000009618NN0                                                  0                                        
2MAIL0000152894BR10        BRNC        BRNCCOCO    BRNCCOCO13AG00000100000000001241577400000000000001000000000000000000000000009618Z01620200413X066000000
1MAIL0000152895BR10        BRNC        BRNCCOCO    BRNCCOCO13AG2020041300:00:00OR  010000030775020003077502152895                             2020041320200413Z016CIF202004130000000000252005NN0                                                  0                                        
2MAIL0000152895BR10        BRNC        BRNCCOCO    BRNCCOCO13AG00000100000000001132018300000000000000100000000000000000000000003541Z01620200413X066000000
2MAIL0000152895BR10        BRNC        BRNCCOCO    BRNCCOCO13AG00000200000000001132019800000000000000100000000000000000000000001967Z01620200413X066000000
2MAIL0000152895BR10        BRNC        BRNCCOCO    BRNCCOCO13AG00000300000000001132033100000000000000200000000000000000000000004345Z01620200413X066000000
2MAIL0000152895BR10        BRNC        BRNCCOCO    BRNCCOCO13AG00000400000000001132034900000000000001000000000000000000000000022150Z01620200413X066000000
2MAIL0000152895BR10        BRNC        BRNCCOCO    BRNCCOCO13AG00000500000000001132035100000000000000500000000000000000000000011693Z01620200413X066000000
2MAIL0000152895BR10        BRNC        BRNCCOCO    BRNCCOCO13AG00000600000000001132036700000000000000500000000000000000000000010863Z01620200413X066000000
2MAIL0000152895BR10        BRNC        BRNCCOCO    BRNCCOCO13AG00000700000000001132200400000000000000200000000000000000000000004230Z01620200413X066000000
2MAIL0000152895BR10        BRNC        BRNCCOCO    BRNCCOCO13AG00000800000000001215533700000000000000200000000000000000000000004345Z01620200413X066000000
2MAIL0000152895BR10        BRNC        BRNCCOCO    BRNCCOCO13AG00000900000000001221415400000000000000100000000000000000000000003541Z01620200413X066000000
2MAIL0000152895BR10        BRNC        BRNCCOCO    BRNCCOCO13AG00001000000000001223975300000000000000200000000000000000000000010153Z01620200413X066000000
2MAIL0000152895BR10        BRNC        BRNCCOCO    BRNCCOCO13AG00001100000000001226089600000000000002400000000000000000000000009159Z01620200413X066000000
2MAIL0000152895BR10        BRNC        BRNCCOCO    BRNCCOCO13AG00001200000000001228274000000000000000200000000000000000000000010153Z01620200413X066000000
2MAIL0000152895BR10        BRNC        BRNCCOCO    BRNCCOCO13AG00001300000000001228512700000000000000200000000000000000000000010153Z01620200413X066000000
2MAIL0000152895BR10        BRNC        BRNCCOCO    BRNCCOCO13AG00001400000000001231189200000000000000200000000000000000000000010153Z01620200413X066000000
2MAIL0000152895BR10        BRNC        BRNCCOCO    BRNCCOCO13AG00001500000000001231231200000000000000200000000000000000000000010153Z01620200413X066000000
2MAIL0000152895BR10        BRNC        BRNCCOCO    BRNCCOCO13AG00001600000000001231233000000000000000200000000000000000000000010153Z01620200413X066000000
2MAIL0000152895BR10        BRNC        BRNCCOCO    BRNCCOCO13AG00001700000000001234705900000000000000200000000000000000000000010153Z01620200413X066000000
2MAIL0000152895BR10        BRNC        BRNCCOCO    BRNCCOCO13AG00001800000000001235699400000000000001000000000000000000000000003825Z01620200413X066000000
2MAIL0000152895BR10        BRNC        BRNCCOCO    BRNCCOCO13AG00001900000000001235699700000000000001000000000000000000000000003825Z01620200413X066000000
2MAIL0000152895BR10        BRNC        BRNCCOCO    BRNCCOCO13AG00002000000000001235699800000000000001000000000000000000000000003825Z01620200413X066000000
2MAIL0000152895BR10        BRNC        BRNCCOCO    BRNCCOCO13AG00002100000000001236515000000000000000500000000000000000000000000909Z01620200413X066000000
2MAIL0000152895BR10        BRNC        BRNCCOCO    BRNCCOCO13AG00002200000000001238083500000000000000200000000000000000000000010153Z01620200413X066000000
2MAIL0000152895BR10        BRNC        BRNCCOCO    BRNCCOCO13AG00002300000000001239688300000000000002800000000000000000000000010686Z01620200413X066000000
2MAIL0000152895BR10        BRNC        BRNCCOCO    BRNCCOCO13AG00002400000000001239688600000000000002800000000000000000000000010686Z01620200413X066000000
2MAIL0000152895BR10        BRNC        BRNCCOCO    BRNCCOCO13AG00002500000000001239688700000000000002800000000000000000000000010686Z01620200413X066000000
2MAIL0000152895BR10        BRNC        BRNCCOCO    BRNCCOCO13AG00002600000000001239688800000000000005600000000000000000000000021373Z01620200413X066000000
2MAIL0000152895BR10        BRNC        BRNCCOCO    BRNCCOCO13AG00002700000000001239692000000000000002800000000000000000000000010686Z01620200413X066000000
2MAIL0000152895BR10        BRNC        BRNCCOCO    BRNCCOCO13AG00002800000000001239692300000000000002800000000000000000000000010686Z01620200413X066000000
2MAIL0000152895BR10        BRNC        BRNCCOCO    BRNCCOCO13AG00002900000000001241623700000000000000300000000000000000000000007760Z01620200413X066000000
1MAIL0000152896BR10        BRNC        BRNCCOCO    BRNCCOCO13AG2020041300:00:00OR  010000060503720006050372152896                             2020041320200413Z016CIF202004130000000000103896NN0                                                  0                                        
2MAIL0000152896BR10        BRNC        BRNCCOCO    BRNCCOCO13AG00000100000000001132020900000000000000100000000000000000000000002076Z01620200413X066000000
2MAIL0000152896BR10        BRNC        BRNCCOCO    BRNCCOCO13AG00000200000000001132033100000000000000200000000000000000000000004581Z01620200413X066000000
2MAIL0000152896BR10        BRNC        BRNCCOCO    BRNCCOCO13AG00000300000000001132036700000000000000200000000000000000000000004581Z01620200413X066000000
2MAIL0000152896BR10        BRNC        BRNCCOCO    BRNCCOCO13AG00000400000000001215533700000000000000100000000000000000000000002291Z01620200413X066000000
2MAIL0000152896BR10        BRNC        BRNCCOCO    BRNCCOCO13AG00000500000000001226089600000000000001200000000000000000000000005045Z01620200413X066000000
2MAIL0000152896BR10        BRNC        BRNCCOCO    BRNCCOCO13AG00000600000000001227395500000000000000100000000000000000000000002291Z01620200413X066000000
2MAIL0000152896BR10        BRNC        BRNCCOCO    BRNCCOCO13AG00000700000000001231389600000000000000100000000000000000000000002291Z01620200413X066000000
2MAIL0000152896BR10        BRNC        BRNCCOCO    BRNCCOCO13AG00000800000000001235699400000000000001000000000000000000000000004211Z01620200413X066000000
2MAIL0000152896BR10        BRNC        BRNCCOCO    BRNCCOCO13AG00000900000000001235699700000000000001000000000000000000000000004211Z01620200413X066000000
2MAIL0000152896BR10        BRNC        BRNCCOCO    BRNCCOCO13AG00001000000000001235699800000000000001000000000000000000000000004211Z01620200413X066000000
2MAIL0000152896BR10        BRNC        BRNCCOCO    BRNCCOCO13AG00001100000000001236512900000000000000500000000000000000000000001002Z01620200413X066000000
2MAIL0000152896BR10        BRNC        BRNCCOCO    BRNCCOCO13AG00001200000000001236515000000000000000500000000000000000000000001002Z01620200413X066000000
2MAIL0000152896BR10        BRNC        BRNCCOCO    BRNCCOCO13AG00001300000000001236898000000000000000100000000000000000000000002291Z01620200413X066000000
2MAIL0000152896BR10        BRNC        BRNCCOCO    BRNCCOCO13AG00001400000000001239663300000000000001400000000000000000000000005885Z01620200413X066000000
2MAIL0000152896BR10        BRNC        BRNCCOCO    BRNCCOCO13AG00001500000000001239688300000000000001400000000000000000000000005885Z01620200413X066000000
2MAIL0000152896BR10        BRNC        BRNCCOCO    BRNCCOCO13AG00001600000000001239688500000000000001400000000000000000000000005885Z01620200413X066000000
2MAIL0000152896BR10        BRNC        BRNCCOCO    BRNCCOCO13AG00001700000000001239688600000000000001400000000000000000000000005885Z01620200413X066000000
2MAIL0000152896BR10        BRNC        BRNCCOCO    BRNCCOCO13AG00001800000000001239688700000000000001400000000000000000000000005885Z01620200413X066000000
2MAIL0000152896BR10        BRNC        BRNCCOCO    BRNCCOCO13AG00001900000000001239688800000000000001400000000000000000000000005885Z01620200413X066000000
2MAIL0000152896BR10        BRNC        BRNCCOCO    BRNCCOCO13AG00002000000000001239692000000000000001400000000000000000000000005885Z01620200413X066000000
2MAIL0000152896BR10        BRNC        BRNCCOCO    BRNCCOCO13AG00002100000000001239692100000000000001400000000000000000000000005885Z01620200413X066000000
2MAIL0000152896BR10        BRNC        BRNCCOCO    BRNCCOCO13AG00002200000000001239692300000000000001400000000000000000000000005885Z01620200413X066000000
2MAIL0000152896BR10        BRNC        BRNCCOCO    BRNCCOCO13AG00002300000000001241623700000000000000200000000000000000000000004962Z01620200413X066000000
2MAIL0000152896BR10        BRNC        BRNCCOCO    BRNCCOCO13AG00002400000000001242626100000000000001400000000000000000000000005885Z01620200413X066000000
1MAIL0000152897BR10        BRNC        BRNCCOCO    BRNCCOCO13AG2020041300:00:00OR  010000038268350003826835152897                             2020041320200413Z016CIF202004130000000000014735NN0                                                  0                                        
2MAIL0000152897BR10        BRNC        BRNCCOCO    BRNCCOCO13AG00000100000000001132036700000000000000100000000000000000000000002173Z01620200413X066000000
2MAIL0000152897BR10        BRNC        BRNCCOCO    BRNCCOCO13AG00000200000000001236512800000000000000800000000000000000000000001520Z01620200413X066000000
2MAIL0000152897BR10        BRNC        BRNCCOCO    BRNCCOCO13AG00000300000000001236512900000000000001000000000000000000000000001997Z01620200413X066000000
2MAIL0000152897BR10        BRNC        BRNCCOCO    BRNCCOCO13AG00000400000000001236515000000000000001000000000000000000000000001997Z01620200413X066000000
2MAIL0000152897BR10        BRNC        BRNCCOCO    BRNCCOCO13AG00000500000000001239688800000000000001400000000000000000000000005582Z01620200413X066000000
2MAIL0000152897BR10        BRNC        BRNCCOCO    BRNCCOCO13AG00000600000000001240924900000000000000800000000000000000000000001466Z01620200413X066000000
