1MAIL0000152855BR10        BRNC        BRNCCOCO    BRNCCOCO13AG2020040900:00:00OR  010000037681400003768140152855                             2020040920200409Z016CIF202004090000000000015296NN0                                                  0                                        
2MAIL0000152855BR10        BRNC        BRNCCOCO    BRNCCOCO13AG00000100000000001235699400000000000002000000000000000000000000007648Z01620200409X066000000
2MAIL0000152855BR10        BRNC        BRNCCOCO    BRNCCOCO13AG00000200000000001235699800000000000002000000000000000000000000007648Z01620200409X066000000
1MAIL0000152856BR10        BRNC        BRNCCOCO    BRNCCOCO13AG2020040900:00:00OR  010000039620950003962095152856                             2020040920200409Z016CIF202004090000000000054090NN0                                                  0                                        
2MAIL0000152856BR10        BRNC        BRNCCOCO    BRNCCOCO13AG00000100000000001226089600000000000001200000000000000000000000005045Z01620200409X066000000
2MAIL0000152856BR10        BRNC        BRNCCOCO    BRNCCOCO13AG00000200000000001235699700000000000001000000000000000000000000004211Z01620200409X066000000
2MAIL0000152856BR10        BRNC        BRNCCOCO    BRNCCOCO13AG00000300000000001235699800000000000001000000000000000000000000004211Z01620200409X066000000
2MAIL0000152856BR10        BRNC        BRNCCOCO    BRNCCOCO13AG00000400000000001239688600000000000001400000000000000000000000005885Z01620200409X066000000
2MAIL0000152856BR10        BRNC        BRNCCOCO    BRNCCOCO13AG00000500000000001239688800000000000001400000000000000000000000005885Z01620200409X066000000
2MAIL0000152856BR10        BRNC        BRNCCOCO    BRNCCOCO13AG00000600000000001241577400000000000003000000000000000000000000028853Z01620200409X066000000
1MAIL0000152857BR10        BRNC        BRNCCOCO    BRNCCOCO13AG2020040900:00:00OR  010000054606570005460657152857                             2020040920200409Z016CIF202004090000000000288537NN0                                                  0                                        
2MAIL0000152857BR10        BRNC        BRNCCOCO    BRNCCOCO13AG00000100000000001241577400000000000030000000000000000000000000288537Z01620200409X066000000
1MAIL0000152858BR10        BRNC        BRNCCOCO    BRNCCOCO13AG2020040900:00:00OR  010000061506700006150670152858                             2020040920200409Z016CIF202004090000000000020302NN0                                                  0                                        
2MAIL0000152858BR10        BRNC        BRNCCOCO    BRNCCOCO13AG00000100000000001132019800000000000000100000000000000000000000002030Z01620200409X066000000
2MAIL0000152858BR10        BRNC        BRNCCOCO    BRNCCOCO13AG00000200000000001132036700000000000000100000000000000000000000002241Z01620200409X066000000
2MAIL0000152858BR10        BRNC        BRNCCOCO    BRNCCOCO13AG00000300000000001236512800000000000001200000000000000000000000002238Z01620200409X066000000
2MAIL0000152858BR10        BRNC        BRNCCOCO    BRNCCOCO13AG00000400000000001236512900000000000000500000000000000000000000000980Z01620200409X066000000
2MAIL0000152858BR10        BRNC        BRNCCOCO    BRNCCOCO13AG00000500000000001236515000000000000000500000000000000000000000000980Z01620200409X066000000
2MAIL0000152858BR10        BRNC        BRNCCOCO    BRNCCOCO13AG00000600000000001241577400000000000001000000000000000000000000009407Z01620200409X066000000
2MAIL0000152858BR10        BRNC        BRNCCOCO    BRNCCOCO13AG00000700000000001241623700000000000000100000000000000000000000002426Z01620200409X066000000
1MAIL0000152859BR10        BRNC        BRNCCOCO    BRNCCOCO13AG2020040900:00:00OR  010000036430270003643027152859                             2020040920200409Z016CIF202004090000000000016200NN0                                                  0                                        
2MAIL0000152859BR10        BRNC        BRNCCOCO    BRNCCOCO13AG00000100000000001132019800000000000000100000000000000000000000002076Z01620200409X066000000
2MAIL0000152859BR10        BRNC        BRNCCOCO    BRNCCOCO13AG00000200000000001132036700000000000000200000000000000000000000004581Z01620200409X066000000
2MAIL0000152859BR10        BRNC        BRNCCOCO    BRNCCOCO13AG00000300000000001215533700000000000000200000000000000000000000004581Z01620200409X066000000
2MAIL0000152859BR10        BRNC        BRNCCOCO    BRNCCOCO13AG00000400000000001241623700000000000000200000000000000000000000004962Z01620200409X066000000
1MAIL0000152860BR10        BRNC        BRNCCOCO    BRNCCOCO13AG2020040900:00:00OR  010000028997050002899705152860                             2020040920200409Z016CIF202004090000000000036001NN0                                                  0                                        
2MAIL0000152860BR10        BRNC        BRNCCOCO    BRNCCOCO13AG00000100000000001235699700000000000001000000000000000000000000004211Z01620200409X066000000
2MAIL0000152860BR10        BRNC        BRNCCOCO    BRNCCOCO13AG00000200000000001235699800000000000001000000000000000000000000004211Z01620200409X066000000
2MAIL0000152860BR10        BRNC        BRNCCOCO    BRNCCOCO13AG00000300000000001239688600000000000001400000000000000000000000005885Z01620200409X066000000
2MAIL0000152860BR10        BRNC        BRNCCOCO    BRNCCOCO13AG00000400000000001239688800000000000001400000000000000000000000005885Z01620200409X066000000
2MAIL0000152860BR10        BRNC        BRNCCOCO    BRNCCOCO13AG00000500000000001239692100000000000001400000000000000000000000005885Z01620200409X066000000
2MAIL0000152860BR10        BRNC        BRNCCOCO    BRNCCOCO13AG00000600000000001241623700000000000000400000000000000000000000009924Z01620200409X066000000
