1MAIL0000150295BR10        BRNC        BRNCCOCO    BRNCCOCO13AG2020031900:00:00OR  010000038489380003848938150295                             2020031920200319Z016CIF202003190000000000021244NN0                                                  0                                        
2MAIL0000150295BR10        BRNC        BRNCCOCO    BRNCCOCO13AG00000100000000001132018300000000000000100000000000000000000000003541Z01620200319X066000000
2MAIL0000150295BR10        BRNC        BRNCCOCO    BRNCCOCO13AG00000200000000001132019800000000000000100000000000000000000000001967Z01620200319X066000000
2MAIL0000150295BR10        BRNC        BRNCCOCO    BRNCCOCO13AG00000300000000001132036700000000000000100000000000000000000000002173Z01620200319X066000000
2MAIL0000150295BR10        BRNC        BRNCCOCO    BRNCCOCO13AG00000400000000001132400100000000000000100000000000000000000000003003Z01620200319X066000000
2MAIL0000150295BR10        BRNC        BRNCCOCO    BRNCCOCO13AG00000500000000001231189200000000000000100000000000000000000000005280Z01620200319X066000000
2MAIL0000150295BR10        BRNC        BRNCCOCO    BRNCCOCO13AG00000600000000001231231200000000000000100000000000000000000000005280Z01620200319X066000000
1MAIL0000150296BR10        BRNC        BRNCCOCO    BRNCCOCO13AG2020031900:00:00OR  010000029158600002915860150296                             2020031920200319Z016CIF202003190000000000073164NN0                                                  0                                        
2MAIL0000150296BR10        BRNC        BRNCCOCO    BRNCCOCO13AG00000100000000001239663300000000000005600000000000000000000000020904Z01620200319X066000000
2MAIL0000150296BR10        BRNC        BRNCCOCO    BRNCCOCO13AG00000200000000001239688300000000000001400000000000000000000000005226Z01620200319X066000000
2MAIL0000150296BR10        BRNC        BRNCCOCO    BRNCCOCO13AG00000300000000001239688500000000000002800000000000000000000000010452Z01620200319X066000000
2MAIL0000150296BR10        BRNC        BRNCCOCO    BRNCCOCO13AG00000400000000001239688800000000000005600000000000000000000000020904Z01620200319X066000000
2MAIL0000150296BR10        BRNC        BRNCCOCO    BRNCCOCO13AG00000500000000001239692000000000000001400000000000000000000000005226Z01620200319X066000000
2MAIL0000150296BR10        BRNC        BRNCCOCO    BRNCCOCO13AG00000600000000001239692100000000000002800000000000000000000000010452Z01620200319X066000000
1MAIL0000150297BR10        BRNC        BRNCCOCO    BRNCCOCO13AG2020031900:00:00OR  010000043409490004340949150297                             2020031920200319Z016CIF202003190000000000082898NN0                                                  0                                        
2MAIL0000150297BR10        BRNC        BRNCCOCO    BRNCCOCO13AG00000100000000001132200400000000000000100000000000000000000000002230Z01620200319X066000000
2MAIL0000150297BR10        BRNC        BRNCCOCO    BRNCCOCO13AG00000200000000001236512800000000000001600000000000000000000000003050Z01620200319X066000000
2MAIL0000150297BR10        BRNC        BRNCCOCO    BRNCCOCO13AG00000300000000001236512900000000000001500000000000000000000000003006Z01620200319X066000000
2MAIL0000150297BR10        BRNC        BRNCCOCO    BRNCCOCO13AG00000400000000001236515000000000000001500000000000000000000000003006Z01620200319X066000000
2MAIL0000150297BR10        BRNC        BRNCCOCO    BRNCCOCO13AG00000500000000001239663300000000000002800000000000000000000000011770Z01620200319X066000000
2MAIL0000150297BR10        BRNC        BRNCCOCO    BRNCCOCO13AG00000600000000001239688800000000000002800000000000000000000000011770Z01620200319X066000000
2MAIL0000150297BR10        BRNC        BRNCCOCO    BRNCCOCO13AG00000700000000001239692100000000000002800000000000000000000000011770Z01620200319X066000000
2MAIL0000150297BR10        BRNC        BRNCCOCO    BRNCCOCO13AG00000800000000001241577400000000000003000000000000000000000000028853Z01620200319X066000000
2MAIL0000150297BR10        BRNC        BRNCCOCO    BRNCCOCO13AG00000900000000001241623700000000000000300000000000000000000000007443Z01620200319X066000000
1MAIL0000150313BR10        BRNC        BRNCCOCO    BRNCCOCO13AG2020031900:00:00OR  010000054124660005412466150313                             2020031920200319Z016CIF202003190000000000035430NN0                                                  0                                        
2MAIL0000150313BR10        BRNC        BRNCCOCO    BRNCCOCO13AG00000100000000001236512800000000000002400000000000000000000000003786Z01620200319X066000000
2MAIL0000150313BR10        BRNC        BRNCCOCO    BRNCCOCO13AG00000200000000001236512900000000000007000000000000000000000000011624Z01620200319X066000000
2MAIL0000150313BR10        BRNC        BRNCCOCO    BRNCCOCO13AG00000300000000001236515000000000000007000000000000000000000000011624Z01620200319X066000000
2MAIL0000150313BR10        BRNC        BRNCCOCO    BRNCCOCO13AG00000400000000001239688800000000000001400000000000000000000000004752Z01620200319X066000000
2MAIL0000150313BR10        BRNC        BRNCCOCO    BRNCCOCO13AG00000500000000001240924900000000000002400000000000000000000000003644Z01620200319X066000000
1MAIL0000150314BR10        BRNC        BRNCCOCO    BRNCCOCO13AG2020031900:00:00OR  010000018555510001855551150314                             2020031920200319Z016CIF202003190000000000141165NN0                                                  0                                        
2MAIL0000150314BR10        BRNC        BRNCCOCO    BRNCCOCO13AG00000100000000001223975300000000000000200000000000000000000000010153Z01620200319X066000000
2MAIL0000150314BR10        BRNC        BRNCCOCO    BRNCCOCO13AG00000200000000001231189200000000000000200000000000000000000000010153Z01620200319X066000000
2MAIL0000150314BR10        BRNC        BRNCCOCO    BRNCCOCO13AG00000300000000001234705700000000000000200000000000000000000000010153Z01620200319X066000000
2MAIL0000150314BR10        BRNC        BRNCCOCO    BRNCCOCO13AG00000400000000001235699400000000000001000000000000000000000000003825Z01620200319X066000000
2MAIL0000150314BR10        BRNC        BRNCCOCO    BRNCCOCO13AG00000500000000001235699700000000000001000000000000000000000000003825Z01620200319X066000000
2MAIL0000150314BR10        BRNC        BRNCCOCO    BRNCCOCO13AG00000600000000001235699800000000000001000000000000000000000000003825Z01620200319X066000000
2MAIL0000150314BR10        BRNC        BRNCCOCO    BRNCCOCO13AG00000700000000001239688600000000000001400000000000000000000000005343Z01620200319X066000000
2MAIL0000150314BR10        BRNC        BRNCCOCO    BRNCCOCO13AG00000800000000001239688800000000000001400000000000000000000000005343Z01620200319X066000000
2MAIL0000150314BR10        BRNC        BRNCCOCO    BRNCCOCO13AG00000900000000001239692100000000000001400000000000000000000000005343Z01620200319X066000000
2MAIL0000150314BR10        BRNC        BRNCCOCO    BRNCCOCO13AG00001000000000001239692300000000000001400000000000000000000000005343Z01620200319X066000000
2MAIL0000150314BR10        BRNC        BRNCCOCO    BRNCCOCO13AG00001100000000001241577400000000000006000000000000000000000000051993Z01620200319X066000000
2MAIL0000150314BR10        BRNC        BRNCCOCO    BRNCCOCO13AG00001200000000001241623700000000000001000000000000000000000000025866Z01620200319X066000000
1MAIL0000150315BR10        BRNC        BRNCCOCO    BRNCCOCO13AG2020031900:00:00OR  010000058783800005878380150315                             2020031920200319Z016CIF202003190000000000009618NN0                                                  0                                        
2MAIL0000150315BR10        BRNC        BRNCCOCO    BRNCCOCO13AG00000100000000001241577400000000000001000000000000000000000000009618Z01620200319X066000000
1MAIL0000150316BR10        BRNC        BRNCCOCO    BRNCCOCO13AG2020031900:00:00OR  010000053549520005354952150316                             2020031920200319Z016CIF202003190000000000044094NN0                                                  0                                        
2MAIL0000150316BR10        BRNC        BRNCCOCO    BRNCCOCO13AG00000100000000001132033100000000000000100000000000000000000000001654Z01620200319X066000000
2MAIL0000150316BR10        BRNC        BRNCCOCO    BRNCCOCO13AG00000200000000001132036700000000000000100000000000000000000000001654Z01620200319X066000000
2MAIL0000150316BR10        BRNC        BRNCCOCO    BRNCCOCO13AG00000300000000001132200400000000000000200000000000000000000000004230Z01620200319X066000000
2MAIL0000150316BR10        BRNC        BRNCCOCO    BRNCCOCO13AG00000400000000001132400100000000000000200000000000000000000000004571Z01620200319X066000000
2MAIL0000150316BR10        BRNC        BRNCCOCO    BRNCCOCO13AG00000500000000001221415400000000000000200000000000000000000000005363Z01620200319X066000000
2MAIL0000150316BR10        BRNC        BRNCCOCO    BRNCCOCO13AG00000600000000001231231200000000000000100000000000000000000000004437Z01620200319X066000000
2MAIL0000150316BR10        BRNC        BRNCCOCO    BRNCCOCO13AG00000700000000001231233000000000000000100000000000000000000000004437Z01620200319X066000000
2MAIL0000150316BR10        BRNC        BRNCCOCO    BRNCCOCO13AG00000800000000001234705700000000000000100000000000000000000000004437Z01620200319X066000000
2MAIL0000150316BR10        BRNC        BRNCCOCO    BRNCCOCO13AG00000900000000001234705800000000000000100000000000000000000000004437Z01620200319X066000000
2MAIL0000150316BR10        BRNC        BRNCCOCO    BRNCCOCO13AG00001000000000001234705900000000000000100000000000000000000000004437Z01620200319X066000000
2MAIL0000150316BR10        BRNC        BRNCCOCO    BRNCCOCO13AG00001100000000001242374800000000000000100000000000000000000000004437Z01620200319X066000000
1MAIL0000150317BR10        BRNC        BRNCCOCO    BRNCCOCO13AG2020031900:00:00OR  010000029563750002956375150317                             2020031920200319Z016CIF202003190000000000103704NN0                                                  0                                        
2MAIL0000150317BR10        BRNC        BRNCCOCO    BRNCCOCO13AG00000100000000001239688500000000000005600000000000000000000000017284Z01620200319X066000000
2MAIL0000150317BR10        BRNC        BRNCCOCO    BRNCCOCO13AG00000200000000001239688700000000000005600000000000000000000000017284Z01620200319X066000000
2MAIL0000150317BR10        BRNC        BRNCCOCO    BRNCCOCO13AG00000300000000001239688800000000000005600000000000000000000000017284Z01620200319X066000000
2MAIL0000150317BR10        BRNC        BRNCCOCO    BRNCCOCO13AG00000400000000001239692000000000000005600000000000000000000000017284Z01620200319X066000000
2MAIL0000150317BR10        BRNC        BRNCCOCO    BRNCCOCO13AG00000500000000001239692100000000000005600000000000000000000000017284Z01620200319X066000000
2MAIL0000150317BR10        BRNC        BRNCCOCO    BRNCCOCO13AG00000600000000001239692300000000000005600000000000000000000000017284Z01620200319X066000000
1MAIL0000150318BR10        BRNC        BRNCCOCO    BRNCCOCO13AG2020031900:00:00OR  010000056868300005686830150318                             2020031920200319Z016CIF202003190000000000026112NN0                                                  0                                        
2MAIL0000150318BR10        BRNC        BRNCCOCO    BRNCCOCO13AG00000100000000001132019800000000000000100000000000000000000000001967Z01620200319X066000000
2MAIL0000150318BR10        BRNC        BRNCCOCO    BRNCCOCO13AG00000200000000001132033100000000000000200000000000000000000000004345Z01620200319X066000000
2MAIL0000150318BR10        BRNC        BRNCCOCO    BRNCCOCO13AG00000300000000001132036700000000000000300000000000000000000000006518Z01620200319X066000000
2MAIL0000150318BR10        BRNC        BRNCCOCO    BRNCCOCO13AG00000400000000001132200400000000000000300000000000000000000000006345Z01620200319X066000000
2MAIL0000150318BR10        BRNC        BRNCCOCO    BRNCCOCO13AG00000500000000001215533700000000000000200000000000000000000000004345Z01620200319X066000000
2MAIL0000150318BR10        BRNC        BRNCCOCO    BRNCCOCO13AG00000600000000001241623700000000000000100000000000000000000000002592Z01620200319X066000000
1MAIL0000150319BR10        BRNC        BRNCCOCO    BRNCCOCO13AG2020031900:00:00OR  010000029849610002984961150319                             2020031920200319Z016CIF202003190000000000043531NN0                                                  0                                        
2MAIL0000150319BR10        BRNC        BRNCCOCO    BRNCCOCO13AG00000100000000001132019700000000000000100000000000000000000000001967Z01620200319X066000000
2MAIL0000150319BR10        BRNC        BRNCCOCO    BRNCCOCO13AG00000200000000001132019800000000000000100000000000000000000000001967Z01620200319X066000000
2MAIL0000150319BR10        BRNC        BRNCCOCO    BRNCCOCO13AG00000300000000001132019900000000000000100000000000000000000000001967Z01620200319X066000000
2MAIL0000150319BR10        BRNC        BRNCCOCO    BRNCCOCO13AG00000400000000001132020900000000000000100000000000000000000000001967Z01620200319X066000000
2MAIL0000150319BR10        BRNC        BRNCCOCO    BRNCCOCO13AG00000500000000001132036700000000000000300000000000000000000000006518Z01620200319X066000000
2MAIL0000150319BR10        BRNC        BRNCCOCO    BRNCCOCO13AG00000600000000001132200400000000000000400000000000000000000000008460Z01620200319X066000000
2MAIL0000150319BR10        BRNC        BRNCCOCO    BRNCCOCO13AG00000700000000001132400100000000000000100000000000000000000000003003Z01620200319X066000000
2MAIL0000150319BR10        BRNC        BRNCCOCO    BRNCCOCO13AG00000800000000001215533700000000000000300000000000000000000000006518Z01620200319X066000000
2MAIL0000150319BR10        BRNC        BRNCCOCO    BRNCCOCO13AG00000900000000001239688800000000000001400000000000000000000000005582Z01620200319X066000000
2MAIL0000150319BR10        BRNC        BRNCCOCO    BRNCCOCO13AG00001000000000001239692100000000000001400000000000000000000000005582Z01620200319X066000000
1MAIL0000150320BR10        BRNC        BRNCCOCO    BRNCCOCO13AG2020031900:00:00OR  010000029044010002904401150320                             2020031920200319Z016CIF202003190000000000032591NN0                                                  0                                        
2MAIL0000150320BR10        BRNC        BRNCCOCO    BRNCCOCO13AG00000100000000001132033100000000000000500000000000000000000000010863Z01620200319X066000000
2MAIL0000150320BR10        BRNC        BRNCCOCO    BRNCCOCO13AG00000200000000001132036700000000000001000000000000000000000000021728Z01620200319X066000000
1MAIL0000150321BR10        BRNC        BRNCCOCO    BRNCCOCO13AG2020031900:00:00OR  010000047764090004776409150321                             2020031920200319Z016CIF202003190000000000026012NN0                                                  0                                        
2MAIL0000150321BR10        BRNC        BRNCCOCO    BRNCCOCO13AG00000100000000001132019700000000000000200000000000000000000000004150Z01620200319X066000000
2MAIL0000150321BR10        BRNC        BRNCCOCO    BRNCCOCO13AG00000200000000001132019800000000000000200000000000000000000000004150Z01620200319X066000000
2MAIL0000150321BR10        BRNC        BRNCCOCO    BRNCCOCO13AG00000300000000001132020900000000000000200000000000000000000000004150Z01620200319X066000000
2MAIL0000150321BR10        BRNC        BRNCCOCO    BRNCCOCO13AG00000400000000001132036700000000000000200000000000000000000000004581Z01620200319X066000000
2MAIL0000150321BR10        BRNC        BRNCCOCO    BRNCCOCO13AG00000500000000001132200400000000000000300000000000000000000000006690Z01620200319X066000000
2MAIL0000150321BR10        BRNC        BRNCCOCO    BRNCCOCO13AG00000600000000001215533700000000000000100000000000000000000000002291Z01620200319X066000000
1MAIL0000150322BR10        BRNC        BRNCCOCO    BRNCCOCO13AG2020031900:00:00OR  010000029158600002915860150322                             2020031920200319Z016CIF202003190000000000283615NN0                                                  0                                        
2MAIL0000150322BR10        BRNC        BRNCCOCO    BRNCCOCO13AG00000100000000001132004000000000000000500000000000000000000000004990Z01620200319X066000000
2MAIL0000150322BR10        BRNC        BRNCCOCO    BRNCCOCO13AG00000200000000001132018300000000000000100000000000000000000000003463Z01620200319X066000000
2MAIL0000150322BR10        BRNC        BRNCCOCO    BRNCCOCO13AG00000300000000001132019700000000000000100000000000000000000000001924Z01620200319X066000000
2MAIL0000150322BR10        BRNC        BRNCCOCO    BRNCCOCO13AG00000400000000001132019800000000000000100000000000000000000000001924Z01620200319X066000000
2MAIL0000150322BR10        BRNC        BRNCCOCO    BRNCCOCO13AG00000500000000001132019900000000000000100000000000000000000000001924Z01620200319X066000000
2MAIL0000150322BR10        BRNC        BRNCCOCO    BRNCCOCO13AG00000600000000001132020900000000000000100000000000000000000000001924Z01620200319X066000000
2MAIL0000150322BR10        BRNC        BRNCCOCO    BRNCCOCO13AG00000700000000001132030800000000000000800000000000000000000000024322Z01620200319X066000000
2MAIL0000150322BR10        BRNC        BRNCCOCO    BRNCCOCO13AG00000800000000001132033100000000000000300000000000000000000000006375Z01620200319X066000000
2MAIL0000150322BR10        BRNC        BRNCCOCO    BRNCCOCO13AG00000900000000001132034900000000000000500000000000000000000000010831Z01620200319X066000000
2MAIL0000150322BR10        BRNC        BRNCCOCO    BRNCCOCO13AG00001000000000001132036700000000000000500000000000000000000000010625Z01620200319X066000000
2MAIL0000150322BR10        BRNC        BRNCCOCO    BRNCCOCO13AG00001100000000001132200400000000000000100000000000000000000000002115Z01620200319X066000000
2MAIL0000150322BR10        BRNC        BRNCCOCO    BRNCCOCO13AG00001200000000001221415400000000000000100000000000000000000000003463Z01620200319X066000000
2MAIL0000150322BR10        BRNC        BRNCCOCO    BRNCCOCO13AG00001300000000001226089600000000000002400000000000000000000000008958Z01620200319X066000000
2MAIL0000150322BR10        BRNC        BRNCCOCO    BRNCCOCO13AG00001400000000001227735000000000000000100000000000000000000000001924Z01620200319X066000000
2MAIL0000150322BR10        BRNC        BRNCCOCO    BRNCCOCO13AG00001500000000001228274000000000000000100000000000000000000000004965Z01620200319X066000000
2MAIL0000150322BR10        BRNC        BRNCCOCO    BRNCCOCO13AG00001600000000001228512700000000000000100000000000000000000000004965Z01620200319X066000000
2MAIL0000150322BR10        BRNC        BRNCCOCO    BRNCCOCO13AG00001700000000001231189200000000000000100000000000000000000000004965Z01620200319X066000000
2MAIL0000150322BR10        BRNC        BRNCCOCO    BRNCCOCO13AG00001800000000001231231200000000000000200000000000000000000000009930Z01620200319X066000000
2MAIL0000150322BR10        BRNC        BRNCCOCO    BRNCCOCO13AG00001900000000001231233000000000000000100000000000000000000000004965Z01620200319X066000000
2MAIL0000150322BR10        BRNC        BRNCCOCO    BRNCCOCO13AG00002000000000001234705800000000000000100000000000000000000000004965Z01620200319X066000000
2MAIL0000150322BR10        BRNC        BRNCCOCO    BRNCCOCO13AG00002100000000001235699800000000000001000000000000000000000000003741Z01620200319X066000000
2MAIL0000150322BR10        BRNC        BRNCCOCO    BRNCCOCO13AG00002200000000001236512900000000000002000000000000000000000000003557Z01620200319X066000000
2MAIL0000150322BR10        BRNC        BRNCCOCO    BRNCCOCO13AG00002300000000001236515000000000000002000000000000000000000000003557Z01620200319X066000000
2MAIL0000150322BR10        BRNC        BRNCCOCO    BRNCCOCO13AG00002400000000001239373400000000000000100000000000000000000000006201Z01620200319X066000000
2MAIL0000150322BR10        BRNC        BRNCCOCO    BRNCCOCO13AG00002500000000001239373600000000000000100000000000000000000000006201Z01620200319X066000000
2MAIL0000150322BR10        BRNC        BRNCCOCO    BRNCCOCO13AG00002600000000001239663300000000000004200000000000000000000000015678Z01620200319X066000000
2MAIL0000150322BR10        BRNC        BRNCCOCO    BRNCCOCO13AG00002700000000001239688300000000000001400000000000000000000000005226Z01620200319X066000000
2MAIL0000150322BR10        BRNC        BRNCCOCO    BRNCCOCO13AG00002800000000001239688500000000000002800000000000000000000000010452Z01620200319X066000000
2MAIL0000150322BR10        BRNC        BRNCCOCO    BRNCCOCO13AG00002900000000001239688600000000000005600000000000000000000000020904Z01620200319X066000000
2MAIL0000150322BR10        BRNC        BRNCCOCO    BRNCCOCO13AG00003000000000001239688700000000000002800000000000000000000000010452Z01620200319X066000000
2MAIL0000150322BR10        BRNC        BRNCCOCO    BRNCCOCO13AG00003100000000001239688800000000000005600000000000000000000000020904Z01620200319X066000000
2MAIL0000150322BR10        BRNC        BRNCCOCO    BRNCCOCO13AG00003200000000001239692000000000000002800000000000000000000000010452Z01620200319X066000000
2MAIL0000150322BR10        BRNC        BRNCCOCO    BRNCCOCO13AG00003300000000001239692100000000000002800000000000000000000000010452Z01620200319X066000000
2MAIL0000150322BR10        BRNC        BRNCCOCO    BRNCCOCO13AG00003400000000001239692300000000000001400000000000000000000000005226Z01620200319X066000000
2MAIL0000150322BR10        BRNC        BRNCCOCO    BRNCCOCO13AG00003500000000001242374800000000000000100000000000000000000000004965Z01620200319X066000000
2MAIL0000150322BR10        BRNC        BRNCCOCO    BRNCCOCO13AG00003600000000001242626100000000000002800000000000000000000000010452Z01620200319X066000000
2MAIL0000150322BR10        BRNC        BRNCCOCO    BRNCCOCO13AG00003700000000001242754900000000000004200000000000000000000000015678Z01620200319X066000000
1MAIL0000150323BR10        BRNC        BRNCCOCO    BRNCCOCO13AG2020031900:00:00OR  010000057066730005706673150323                             2020031920200319Z016CIF202003190000000000071224NN0                                                  0                                        
2MAIL0000150323BR10        BRNC        BRNCCOCO    BRNCCOCO13AG00000100000000001132033100000000000001000000000000000000000000021728Z01620200319X066000000
2MAIL0000150323BR10        BRNC        BRNCCOCO    BRNCCOCO13AG00000200000000001132036700000000000001500000000000000000000000032591Z01620200319X066000000
2MAIL0000150323BR10        BRNC        BRNCCOCO    BRNCCOCO13AG00000300000000001132200400000000000000300000000000000000000000006345Z01620200319X066000000
2MAIL0000150323BR10        BRNC        BRNCCOCO    BRNCCOCO13AG00000400000000001228274000000000000000100000000000000000000000005280Z01620200319X066000000
2MAIL0000150323BR10        BRNC        BRNCCOCO    BRNCCOCO13AG00000500000000001231189200000000000000100000000000000000000000005280Z01620200319X066000000
1MAIL0000150324BR10        BRNC        BRNCCOCO    BRNCCOCO13AG2020031900:00:00OR  010000029799660002979966150324                             2020031920200319Z016CIF202003190000000000136424NN0                                                  0                                        
2MAIL0000150324BR10        BRNC        BRNCCOCO    BRNCCOCO13AG00000100000000001132019700000000000000100000000000000000000000001967Z01620200319X066000000
2MAIL0000150324BR10        BRNC        BRNCCOCO    BRNCCOCO13AG00000200000000001132019800000000000000200000000000000000000000003936Z01620200319X066000000
2MAIL0000150324BR10        BRNC        BRNCCOCO    BRNCCOCO13AG00000300000000001132019900000000000000100000000000000000000000001967Z01620200319X066000000
2MAIL0000150324BR10        BRNC        BRNCCOCO    BRNCCOCO13AG00000400000000001132020900000000000000100000000000000000000000001967Z01620200319X066000000
2MAIL0000150324BR10        BRNC        BRNCCOCO    BRNCCOCO13AG00000500000000001132033100000000000000300000000000000000000000006518Z01620200319X066000000
2MAIL0000150324BR10        BRNC        BRNCCOCO    BRNCCOCO13AG00000600000000001132036700000000000001000000000000000000000000021728Z01620200319X066000000
2MAIL0000150324BR10        BRNC        BRNCCOCO    BRNCCOCO13AG00000700000000001132200400000000000000300000000000000000000000006345Z01620200319X066000000
2MAIL0000150324BR10        BRNC        BRNCCOCO    BRNCCOCO13AG00000800000000001132400100000000000000200000000000000000000000006006Z01620200319X066000000
2MAIL0000150324BR10        BRNC        BRNCCOCO    BRNCCOCO13AG00000900000000001227395500000000000000100000000000000000000000002173Z01620200319X066000000
2MAIL0000150324BR10        BRNC        BRNCCOCO    BRNCCOCO13AG00001000000000001227735000000000000000100000000000000000000000001967Z01620200319X066000000
2MAIL0000150324BR10        BRNC        BRNCCOCO    BRNCCOCO13AG00001100000000001231231200000000000000100000000000000000000000005280Z01620200319X066000000
2MAIL0000150324BR10        BRNC        BRNCCOCO    BRNCCOCO13AG00001200000000001231389600000000000000100000000000000000000000002173Z01620200319X066000000
2MAIL0000150324BR10        BRNC        BRNCCOCO    BRNCCOCO13AG00001300000000001236512800000000000001200000000000000000000000002280Z01620200319X066000000
2MAIL0000150324BR10        BRNC        BRNCCOCO    BRNCCOCO13AG00001400000000001236512900000000000001500000000000000000000000002997Z01620200319X066000000
2MAIL0000150324BR10        BRNC        BRNCCOCO    BRNCCOCO13AG00001500000000001236515000000000000001500000000000000000000000002997Z01620200319X066000000
2MAIL0000150324BR10        BRNC        BRNCCOCO    BRNCCOCO13AG00001600000000001236898000000000000000100000000000000000000000002173Z01620200319X066000000
2MAIL0000150324BR10        BRNC        BRNCCOCO    BRNCCOCO13AG00001700000000001239373400000000000000100000000000000000000000006593Z01620200319X066000000
2MAIL0000150324BR10        BRNC        BRNCCOCO    BRNCCOCO13AG00001800000000001239373500000000000000100000000000000000000000006593Z01620200319X066000000
2MAIL0000150324BR10        BRNC        BRNCCOCO    BRNCCOCO13AG00001900000000001239373600000000000000100000000000000000000000006593Z01620200319X066000000
2MAIL0000150324BR10        BRNC        BRNCCOCO    BRNCCOCO13AG00002000000000001239373700000000000000100000000000000000000000006593Z01620200319X066000000
2MAIL0000150324BR10        BRNC        BRNCCOCO    BRNCCOCO13AG00002100000000001239688600000000000001400000000000000000000000005582Z01620200319X066000000
2MAIL0000150324BR10        BRNC        BRNCCOCO    BRNCCOCO13AG00002200000000001239692000000000000001400000000000000000000000005582Z01620200319X066000000
2MAIL0000150324BR10        BRNC        BRNCCOCO    BRNCCOCO13AG00002300000000001239692300000000000001400000000000000000000000005582Z01620200319X066000000
2MAIL0000150324BR10        BRNC        BRNCCOCO    BRNCCOCO13AG00002400000000001241623700000000000000600000000000000000000000015552Z01620200319X066000000
2MAIL0000150324BR10        BRNC        BRNCCOCO    BRNCCOCO13AG00002500000000001242374800000000000000100000000000000000000000005280Z01620200319X066000000
1MAIL0000150325BR10        BRNC        BRNCCOCO    BRNCCOCO13AG2020031900:00:00OR  010000059617980005961798150325                             2020031920200319Z016CIF202003190000000000028830NN0                                                  0                                        
2MAIL0000150325BR10        BRNC        BRNCCOCO    BRNCCOCO13AG00000100000000001132019700000000000000100000000000000000000000001581Z01620200319X066000000
2MAIL0000150325BR10        BRNC        BRNCCOCO    BRNCCOCO13AG00000200000000001215533700000000000000100000000000000000000000001746Z01620200319X066000000
2MAIL0000150325BR10        BRNC        BRNCCOCO    BRNCCOCO13AG00000300000000001236512800000000000001200000000000000000000000001795Z01620200319X066000000
2MAIL0000150325BR10        BRNC        BRNCCOCO    BRNCCOCO13AG00000400000000001240924900000000000001200000000000000000000000001728Z01620200319X066000000
2MAIL0000150325BR10        BRNC        BRNCCOCO    BRNCCOCO13AG00000500000000001241577400000000000003000000000000000000000000021980Z01620200319X066000000
1MAIL0000150326BR10        BRNC        BRNCCOCO    BRNCCOCO13AG2020031900:00:00OR  010000052196860005219686150326                             2020031920200319Z016CIF202003190000000000028853NN0                                                  0                                        
2MAIL0000150326BR10        BRNC        BRNCCOCO    BRNCCOCO13AG00000100000000001241577400000000000003000000000000000000000000028853Z01620200319X066000000
1MAIL0000150327BR10        BRNC        BRNCCOCO    BRNCCOCO13AG2020031900:00:00OR  010000029006770002900677150327                             2020031920200319Z016CIF202003190000000000080341NN0                                                  0                                        
2MAIL0000150327BR10        BRNC        BRNCCOCO    BRNCCOCO13AG00000100000000001132033100000000000000200000000000000000000000004581Z01620200319X066000000
2MAIL0000150327BR10        BRNC        BRNCCOCO    BRNCCOCO13AG00000200000000001132036700000000000000300000000000000000000000006872Z01620200319X066000000
2MAIL0000150327BR10        BRNC        BRNCCOCO    BRNCCOCO13AG00000300000000001132200400000000000000100000000000000000000000002230Z01620200319X066000000
2MAIL0000150327BR10        BRNC        BRNCCOCO    BRNCCOCO13AG00000400000000001215533700000000000000200000000000000000000000004581Z01620200319X066000000
2MAIL0000150327BR10        BRNC        BRNCCOCO    BRNCCOCO13AG00000500000000001227395500000000000000100000000000000000000000002291Z01620200319X066000000
2MAIL0000150327BR10        BRNC        BRNCCOCO    BRNCCOCO13AG00000600000000001228512700000000000000100000000000000000000000005568Z01620200319X066000000
2MAIL0000150327BR10        BRNC        BRNCCOCO    BRNCCOCO13AG00000700000000001231189200000000000000100000000000000000000000005568Z01620200319X066000000
2MAIL0000150327BR10        BRNC        BRNCCOCO    BRNCCOCO13AG00000800000000001231231200000000000000100000000000000000000000005568Z01620200319X066000000
2MAIL0000150327BR10        BRNC        BRNCCOCO    BRNCCOCO13AG00000900000000001231389600000000000000100000000000000000000000002291Z01620200319X066000000
2MAIL0000150327BR10        BRNC        BRNCCOCO    BRNCCOCO13AG00001000000000001235699700000000000001000000000000000000000000004211Z01620200319X066000000
2MAIL0000150327BR10        BRNC        BRNCCOCO    BRNCCOCO13AG00001100000000001236512800000000000001200000000000000000000000002288Z01620200319X066000000
2MAIL0000150327BR10        BRNC        BRNCCOCO    BRNCCOCO13AG00001200000000001236512900000000000003500000000000000000000000007014Z01620200319X066000000
2MAIL0000150327BR10        BRNC        BRNCCOCO    BRNCCOCO13AG00001300000000001236515000000000000003500000000000000000000000007014Z01620200319X066000000
2MAIL0000150327BR10        BRNC        BRNCCOCO    BRNCCOCO13AG00001400000000001236898000000000000000100000000000000000000000002291Z01620200319X066000000
2MAIL0000150327BR10        BRNC        BRNCCOCO    BRNCCOCO13AG00001500000000001241623700000000000000500000000000000000000000012405Z01620200319X066000000
2MAIL0000150327BR10        BRNC        BRNCCOCO    BRNCCOCO13AG00001600000000001242374800000000000000100000000000000000000000005568Z01620200319X066000000
