1MAIL0000153654BR10        BRNC        BRNCCOCO    BRNCCOCO13AG2020041600:00:00OR  010000029489190002948919153654                             2020041620200416Z016CIF202004160000000000040167NN0                                                  0                                        
2MAIL0000153654BR10        BRNC        BRNCCOCO    BRNCCOCO13AG00000100000000001132019700000000000000100000000000000000000000002076Z01620200416X066000000
2MAIL0000153654BR10        BRNC        BRNCCOCO    BRNCCOCO13AG00000200000000001132019800000000000000100000000000000000000000002076Z01620200416X066000000
2MAIL0000153654BR10        BRNC        BRNCCOCO    BRNCCOCO13AG00000300000000001132033100000000000000200000000000000000000000004581Z01620200416X066000000
2MAIL0000153654BR10        BRNC        BRNCCOCO    BRNCCOCO13AG00000400000000001132036700000000000000200000000000000000000000004581Z01620200416X066000000
2MAIL0000153654BR10        BRNC        BRNCCOCO    BRNCCOCO13AG00000500000000001215533700000000000000200000000000000000000000004581Z01620200416X066000000
2MAIL0000153654BR10        BRNC        BRNCCOCO    BRNCCOCO13AG00000600000000001228512700000000000000100000000000000000000000005568Z01620200416X066000000
2MAIL0000153654BR10        BRNC        BRNCCOCO    BRNCCOCO13AG00000700000000001231189200000000000000100000000000000000000000005568Z01620200416X066000000
2MAIL0000153654BR10        BRNC        BRNCCOCO    BRNCCOCO13AG00000800000000001231231200000000000000100000000000000000000000005568Z01620200416X066000000
2MAIL0000153654BR10        BRNC        BRNCCOCO    BRNCCOCO13AG00000900000000001231233000000000000000100000000000000000000000005568Z01620200416X066000000
1MAIL0000153655BR10        BRNC        BRNCCOCO    BRNCCOCO13AG2020041600:00:00OR  010000034657310003465731153655                             2020041620200416Z005CIF202004160000000000088734NN0                                                  0                                        
2MAIL0000153655BR10        BRNC        BRNCCOCO    BRNCCOCO13AG00000100000000001132033100000000000000300000000000000000000000006838Z00520200416X066000000
2MAIL0000153655BR10        BRNC        BRNCCOCO    BRNCCOCO13AG00000200000000001132036700000000000000300000000000000000000000006838Z00520200416X066000000
2MAIL0000153655BR10        BRNC        BRNCCOCO    BRNCCOCO13AG00000300000000001215533700000000000000300000000000000000000000006838Z00520200416X066000000
2MAIL0000153655BR10        BRNC        BRNCCOCO    BRNCCOCO13AG00000400000000001226089600000000000002400000000000000000000000010027Z00520200416X066000000
2MAIL0000153655BR10        BRNC        BRNCCOCO    BRNCCOCO13AG00000500000000001236898000000000000000500000000000000000000000011397Z00520200416X066000000
2MAIL0000153655BR10        BRNC        BRNCCOCO    BRNCCOCO13AG00000600000000001239663300000000000002800000000000000000000000011699Z00520200416X066000000
2MAIL0000153655BR10        BRNC        BRNCCOCO    BRNCCOCO13AG00000700000000001239688500000000000002800000000000000000000000011699Z00520200416X066000000
2MAIL0000153655BR10        BRNC        BRNCCOCO    BRNCCOCO13AG00000800000000001239688800000000000002800000000000000000000000011699Z00520200416X066000000
2MAIL0000153655BR10        BRNC        BRNCCOCO    BRNCCOCO13AG00000900000000001239692100000000000002800000000000000000000000011699Z00520200416X066000000
1MAIL0000153656BR10        BRNC        BRNCCOCO    BRNCCOCO13AG2020041600:00:00OR  010000039413510003941351153656                             2020041620200416Z016CIF202004160000000001491837NN0                                                  0                                        
2MAIL0000153656BR10        BRNC        BRNCCOCO    BRNCCOCO13AG00000100000000001132019700000000000000400000000000000000000000005563Z01620200416X066000000
2MAIL0000153656BR10        BRNC        BRNCCOCO    BRNCCOCO13AG00000200000000001132019800000000000000400000000000000000000000005563Z01620200416X066000000
2MAIL0000153656BR10        BRNC        BRNCCOCO    BRNCCOCO13AG00000300000000001132019900000000000000400000000000000000000000005563Z01620200416X066000000
2MAIL0000153656BR10        BRNC        BRNCCOCO    BRNCCOCO13AG00000400000000001132020900000000000000400000000000000000000000005563Z01620200416X066000000
2MAIL0000153656BR10        BRNC        BRNCCOCO    BRNCCOCO13AG00000500000000001132036700000000000003200000000000000000000000048859Z01620200416X066000000
2MAIL0000153656BR10        BRNC        BRNCCOCO    BRNCCOCO13AG00000600000000001132400100000000000000400000000000000000000000008488Z01620200416X066000000
2MAIL0000153656BR10        BRNC        BRNCCOCO    BRNCCOCO13AG00000700000000001223975300000000000000400000000000000000000000015597Z01620200416X066000000
2MAIL0000153656BR10        BRNC        BRNCCOCO    BRNCCOCO13AG00000800000000001226089600000000000004800000000000000000000000014035Z01620200416X066000000
2MAIL0000153656BR10        BRNC        BRNCCOCO    BRNCCOCO13AG00000900000000001227735000000000000000400000000000000000000000005563Z01620200416X066000000
2MAIL0000153656BR10        BRNC        BRNCCOCO    BRNCCOCO13AG00001000000000001228274000000000000000400000000000000000000000015597Z01620200416X066000000
2MAIL0000153656BR10        BRNC        BRNCCOCO    BRNCCOCO13AG00001100000000001228512700000000000000400000000000000000000000015597Z01620200416X066000000
2MAIL0000153656BR10        BRNC        BRNCCOCO    BRNCCOCO13AG00001200000000001231189200000000000000400000000000000000000000015597Z01620200416X066000000
2MAIL0000153656BR10        BRNC        BRNCCOCO    BRNCCOCO13AG00001300000000001231231200000000000000400000000000000000000000015597Z01620200416X066000000
2MAIL0000153656BR10        BRNC        BRNCCOCO    BRNCCOCO13AG00001400000000001231233000000000000000400000000000000000000000015597Z01620200416X066000000
2MAIL0000153656BR10        BRNC        BRNCCOCO    BRNCCOCO13AG00001500000000001234705700000000000000400000000000000000000000015597Z01620200416X066000000
2MAIL0000153656BR10        BRNC        BRNCCOCO    BRNCCOCO13AG00001600000000001234705800000000000000400000000000000000000000015597Z01620200416X066000000
2MAIL0000153656BR10        BRNC        BRNCCOCO    BRNCCOCO13AG00001700000000001236512900000000000035000000000000000000000000052415Z01620200416X066000000
2MAIL0000153656BR10        BRNC        BRNCCOCO    BRNCCOCO13AG00001800000000001236515000000000000035000000000000000000000000052415Z01620200416X066000000
2MAIL0000153656BR10        BRNC        BRNCCOCO    BRNCCOCO13AG00001900000000001239663300000000000005600000000000000000000000016374Z01620200416X066000000
2MAIL0000153656BR10        BRNC        BRNCCOCO    BRNCCOCO13AG00002000000000001239688300000000000005600000000000000000000000016374Z01620200416X066000000
2MAIL0000153656BR10        BRNC        BRNCCOCO    BRNCCOCO13AG00002100000000001239688500000000000005600000000000000000000000016374Z01620200416X066000000
2MAIL0000153656BR10        BRNC        BRNCCOCO    BRNCCOCO13AG00002200000000001239688600000000000005600000000000000000000000016374Z01620200416X066000000
2MAIL0000153656BR10        BRNC        BRNCCOCO    BRNCCOCO13AG00002300000000001239688700000000000005600000000000000000000000016374Z01620200416X066000000
2MAIL0000153656BR10        BRNC        BRNCCOCO    BRNCCOCO13AG00002400000000001239692300000000000005600000000000000000000000016374Z01620200416X066000000
2MAIL0000153656BR10        BRNC        BRNCCOCO    BRNCCOCO13AG00002500000000001241577400000000000150000000000000000000000000999888Z01620200416X066000000
2MAIL0000153656BR10        BRNC        BRNCCOCO    BRNCCOCO13AG00002600000000001241623700000000000001000000000000000000000000015780Z01620200416X066000000
2MAIL0000153656BR10        BRNC        BRNCCOCO    BRNCCOCO13AG00002700000000001242626100000000000005600000000000000000000000016374Z01620200416X066000000
2MAIL0000153656BR10        BRNC        BRNCCOCO    BRNCCOCO13AG00002800000000001242754900000000000005600000000000000000000000016374Z01620200416X066000000
2MAIL0000153656BR10        BRNC        BRNCCOCO    BRNCCOCO13AG00002900000000001242765000000000000005600000000000000000000000016374Z01620200416X066000000
