1MAIL0000152168BR10        BRNC        BRNCCOCO    BRNCCOCO13AG2020040300:00:00OR  010000029161690002916169152168                             2020040320200403Z016CIF202004030000000000004695NN0                                                  0                                        
2MAIL0000152168BR10        BRNC        BRNCCOCO    BRNCCOCO13AG00000100000000001214470800000000000000100000000000000000000000004695Z01620200403X066000000
1MAIL0000152169BR10        BRNC        BRNCCOCO    BRNCCOCO13AG2020040300:00:00OR  010000061365900006136590152169                             2020040320200403Z016CIF202004030000000000006723NN0                                                  0                                        
2MAIL0000152169BR10        BRNC        BRNCCOCO    BRNCCOCO13AG00000100000000001132033100000000000000100000000000000000000000002241Z01620200403X066000000
2MAIL0000152169BR10        BRNC        BRNCCOCO    BRNCCOCO13AG00000200000000001132036700000000000000100000000000000000000000002241Z01620200403X066000000
2MAIL0000152169BR10        BRNC        BRNCCOCO    BRNCCOCO13AG00000300000000001215533700000000000000100000000000000000000000002241Z01620200403X066000000
1MAIL0000152170BR10        BRNC        BRNCCOCO    BRNCCOCO13AG2020040300:00:00OR  010000009255770000925577152170                             2020040320200403Z016CIF202004030000000000140279NN0                                                  0                                        
2MAIL0000152170BR10        BRNC        BRNCCOCO    BRNCCOCO13AG00000100000000001132034900000000000002000000000000000000000000044299Z01620200403X066000000
2MAIL0000152170BR10        BRNC        BRNCCOCO    BRNCCOCO13AG00000200000000001132035000000000000002000000000000000000000000049211Z01620200403X066000000
2MAIL0000152170BR10        BRNC        BRNCCOCO    BRNCCOCO13AG00000300000000001132035100000000000002000000000000000000000000046769Z01620200403X066000000
1MAIL0000152171BR10        BRNC        BRNCCOCO    BRNCCOCO13AG2020040300:00:00OR  010000032669130003266913152171                             2020040320200403Z016CIF202004030000000000017571NN0                                                  0                                        
2MAIL0000152171BR10        BRNC        BRNCCOCO    BRNCCOCO13AG00000100000000001226089600000000000001200000000000000000000000004580Z01620200403X066000000
2MAIL0000152171BR10        BRNC        BRNCCOCO    BRNCCOCO13AG00000200000000001235699400000000000002000000000000000000000000007648Z01620200403X066000000
2MAIL0000152171BR10        BRNC        BRNCCOCO    BRNCCOCO13AG00000300000000001239692100000000000001400000000000000000000000005343Z01620200403X066000000
1MAIL0000152172BR10        BRNC        BRNCCOCO    BRNCCOCO13AG2020040300:00:00OR  010000028582080002858208152172                             2020040320200403Z016CIF202004030000000000162096NN0                                                  0                                        
2MAIL0000152172BR10        BRNC        BRNCCOCO    BRNCCOCO13AG00000100000000001132019700000000000000100000000000000000000000002076Z01620200403X066000000
2MAIL0000152172BR10        BRNC        BRNCCOCO    BRNCCOCO13AG00000200000000001132019800000000000000100000000000000000000000002076Z01620200403X066000000
2MAIL0000152172BR10        BRNC        BRNCCOCO    BRNCCOCO13AG00000300000000001132019900000000000000100000000000000000000000002076Z01620200403X066000000
2MAIL0000152172BR10        BRNC        BRNCCOCO    BRNCCOCO13AG00000400000000001132020900000000000000100000000000000000000000002076Z01620200403X066000000
2MAIL0000152172BR10        BRNC        BRNCCOCO    BRNCCOCO13AG00000500000000001132033100000000000000400000000000000000000000009163Z01620200403X066000000
2MAIL0000152172BR10        BRNC        BRNCCOCO    BRNCCOCO13AG00000600000000001132034900000000000000500000000000000000000000012283Z01620200403X066000000
2MAIL0000152172BR10        BRNC        BRNCCOCO    BRNCCOCO13AG00000700000000001132036700000000000000400000000000000000000000009163Z01620200403X066000000
2MAIL0000152172BR10        BRNC        BRNCCOCO    BRNCCOCO13AG00000800000000001132200400000000000000300000000000000000000000006690Z01620200403X066000000
2MAIL0000152172BR10        BRNC        BRNCCOCO    BRNCCOCO13AG00000900000000001215533700000000000000400000000000000000000000009163Z01620200403X066000000
2MAIL0000152172BR10        BRNC        BRNCCOCO    BRNCCOCO13AG00001000000000001223975300000000000000100000000000000000000000005568Z01620200403X066000000
2MAIL0000152172BR10        BRNC        BRNCCOCO    BRNCCOCO13AG00001100000000001226089600000000000001200000000000000000000000005045Z01620200403X066000000
2MAIL0000152172BR10        BRNC        BRNCCOCO    BRNCCOCO13AG00001200000000001227395500000000000000200000000000000000000000004581Z01620200403X066000000
2MAIL0000152172BR10        BRNC        BRNCCOCO    BRNCCOCO13AG00001300000000001228274000000000000000100000000000000000000000005568Z01620200403X066000000
2MAIL0000152172BR10        BRNC        BRNCCOCO    BRNCCOCO13AG00001400000000001235699400000000000001000000000000000000000000004211Z01620200403X066000000
2MAIL0000152172BR10        BRNC        BRNCCOCO    BRNCCOCO13AG00001500000000001236898000000000000000200000000000000000000000004581Z01620200403X066000000
2MAIL0000152172BR10        BRNC        BRNCCOCO    BRNCCOCO13AG00001600000000001239663300000000000001400000000000000000000000005885Z01620200403X066000000
2MAIL0000152172BR10        BRNC        BRNCCOCO    BRNCCOCO13AG00001700000000001239688300000000000001400000000000000000000000005885Z01620200403X066000000
2MAIL0000152172BR10        BRNC        BRNCCOCO    BRNCCOCO13AG00001800000000001239688500000000000001400000000000000000000000005885Z01620200403X066000000
2MAIL0000152172BR10        BRNC        BRNCCOCO    BRNCCOCO13AG00001900000000001239688600000000000001400000000000000000000000005885Z01620200403X066000000
2MAIL0000152172BR10        BRNC        BRNCCOCO    BRNCCOCO13AG00002000000000001239688700000000000001400000000000000000000000005885Z01620200403X066000000
2MAIL0000152172BR10        BRNC        BRNCCOCO    BRNCCOCO13AG00002100000000001239688800000000000001400000000000000000000000005885Z01620200403X066000000
2MAIL0000152172BR10        BRNC        BRNCCOCO    BRNCCOCO13AG00002200000000001239692000000000000001400000000000000000000000005885Z01620200403X066000000
2MAIL0000152172BR10        BRNC        BRNCCOCO    BRNCCOCO13AG00002300000000001239692100000000000001400000000000000000000000005885Z01620200403X066000000
2MAIL0000152172BR10        BRNC        BRNCCOCO    BRNCCOCO13AG00002400000000001239692300000000000001400000000000000000000000005885Z01620200403X066000000
2MAIL0000152172BR10        BRNC        BRNCCOCO    BRNCCOCO13AG00002500000000001241623700000000000001000000000000000000000000024811Z01620200403X066000000
