1MAIL0000153480BR10        BRNC        BRNCCOCO    BRNCCOCO13AG2020041600:00:00OR  010000053549520005354952153480                             2020041620200416Z016CIF202004160000000000030885NN0                                                  0                                        
2MAIL0000153480BR10        BRNC        BRNCCOCO    BRNCCOCO13AG00000100000000001132036700000000000000100000000000000000000000001654Z01620200416X066000000
2MAIL0000153480BR10        BRNC        BRNCCOCO    BRNCCOCO13AG00000200000000001132200400000000000000200000000000000000000000004230Z01620200416X066000000
2MAIL0000153480BR10        BRNC        BRNCCOCO    BRNCCOCO13AG00000300000000001132400100000000000000200000000000000000000000004571Z01620200416X066000000
2MAIL0000153480BR10        BRNC        BRNCCOCO    BRNCCOCO13AG00000400000000001221415400000000000000100000000000000000000000002682Z01620200416X066000000
2MAIL0000153480BR10        BRNC        BRNCCOCO    BRNCCOCO13AG00000500000000001228512700000000000000100000000000000000000000004437Z01620200416X066000000
2MAIL0000153480BR10        BRNC        BRNCCOCO    BRNCCOCO13AG00000600000000001231233000000000000000100000000000000000000000004437Z01620200416X066000000
2MAIL0000153480BR10        BRNC        BRNCCOCO    BRNCCOCO13AG00000700000000001234705800000000000000100000000000000000000000004437Z01620200416X066000000
2MAIL0000153480BR10        BRNC        BRNCCOCO    BRNCCOCO13AG00000800000000001234705900000000000000100000000000000000000000004437Z01620200416X066000000
1MAIL0000153481BR10        BRNC        BRNCCOCO    BRNCCOCO13AG2020041600:00:00OR  010000059822600005982260153481                             2020041620200416Z016CIF202004160000000000006811NN0                                                  0                                        
2MAIL0000153481BR10        BRNC        BRNCCOCO    BRNCCOCO13AG00000100000000001132036700000000000000200000000000000000000000004581Z01620200416X066000000
2MAIL0000153481BR10        BRNC        BRNCCOCO    BRNCCOCO13AG00000200000000001132200400000000000000100000000000000000000000002230Z01620200416X066000000
1MAIL0000153482BR10        BRNC        BRNCCOCO    BRNCCOCO13AG2020041600:00:00OR  010000038050060003805006153482                             2020041620200416Z016CIF202004160000000000026019NN0                                                  0                                        
2MAIL0000153482BR10        BRNC        BRNCCOCO    BRNCCOCO13AG00000100000000001132018300000000000000100000000000000000000000003541Z01620200416X066000000
2MAIL0000153482BR10        BRNC        BRNCCOCO    BRNCCOCO13AG00000200000000001132019800000000000000100000000000000000000000001967Z01620200416X066000000
2MAIL0000153482BR10        BRNC        BRNCCOCO    BRNCCOCO13AG00000300000000001132020900000000000000100000000000000000000000001967Z01620200416X066000000
2MAIL0000153482BR10        BRNC        BRNCCOCO    BRNCCOCO13AG00000400000000001132033100000000000000100000000000000000000000002173Z01620200416X066000000
2MAIL0000153482BR10        BRNC        BRNCCOCO    BRNCCOCO13AG00000500000000001132036700000000000000300000000000000000000000006518Z01620200416X066000000
2MAIL0000153482BR10        BRNC        BRNCCOCO    BRNCCOCO13AG00000600000000001215533700000000000000200000000000000000000000004345Z01620200416X066000000
2MAIL0000153482BR10        BRNC        BRNCCOCO    BRNCCOCO13AG00000700000000001221415400000000000000100000000000000000000000003541Z01620200416X066000000
2MAIL0000153482BR10        BRNC        BRNCCOCO    BRNCCOCO13AG00000800000000001227735000000000000000100000000000000000000000001967Z01620200416X066000000
