1MAIL0000150494BR10        BRNC        BRNCCOCO    BRNCCOCO13AG2020032000:00:00OR  010000060728720006072872150494                             2020032020200320Z016CIF202003200000000000043996NN0                                                  0                                        
2MAIL0000150494BR10        BRNC        BRNCCOCO    BRNCCOCO13AG00000100000000001132019700000000000000200000000000000000000000003186Z01620200320X066000000
2MAIL0000150494BR10        BRNC        BRNCCOCO    BRNCCOCO13AG00000200000000001132019800000000000000200000000000000000000000003186Z01620200320X066000000
2MAIL0000150494BR10        BRNC        BRNCCOCO    BRNCCOCO13AG00000300000000001132020900000000000000200000000000000000000000003186Z01620200320X066000000
2MAIL0000150494BR10        BRNC        BRNCCOCO    BRNCCOCO13AG00000400000000001132033100000000000000200000000000000000000000003518Z01620200320X066000000
2MAIL0000150494BR10        BRNC        BRNCCOCO    BRNCCOCO13AG00000500000000001132036700000000000000200000000000000000000000003518Z01620200320X066000000
2MAIL0000150494BR10        BRNC        BRNCCOCO    BRNCCOCO13AG00000600000000001215533700000000000000200000000000000000000000003518Z01620200320X066000000
2MAIL0000150494BR10        BRNC        BRNCCOCO    BRNCCOCO13AG00000700000000001223975300000000000000100000000000000000000000004718Z01620200320X066000000
2MAIL0000150494BR10        BRNC        BRNCCOCO    BRNCCOCO13AG00000800000000001227735000000000000000200000000000000000000000003186Z01620200320X066000000
2MAIL0000150494BR10        BRNC        BRNCCOCO    BRNCCOCO13AG00000900000000001231189200000000000000100000000000000000000000004718Z01620200320X066000000
2MAIL0000150494BR10        BRNC        BRNCCOCO    BRNCCOCO13AG00001000000000001231231200000000000000100000000000000000000000004718Z01620200320X066000000
2MAIL0000150494BR10        BRNC        BRNCCOCO    BRNCCOCO13AG00001100000000001231233000000000000000100000000000000000000000004718Z01620200320X066000000
2MAIL0000150494BR10        BRNC        BRNCCOCO    BRNCCOCO13AG00001200000000001241623700000000000000100000000000000000000000001826Z01620200320X066000000
