1MAIL0000152022BR10        BRNC        BRNCCOCO    BRNCCOCO13AG2020040200:00:00OR  010000047620680004762068152022                             2020040220200402Z016CIF202004020000000000080600NN0                                                  0                                        
2MAIL0000152022BR10        BRNC        BRNCCOCO    BRNCCOCO13AG00000100000000001239373400000000000000300000000000000000000000018600Z01620200402X066000000
2MAIL0000152022BR10        BRNC        BRNCCOCO    BRNCCOCO13AG00000200000000001239373500000000000000400000000000000000000000024800Z01620200402X066000000
2MAIL0000152022BR10        BRNC        BRNCCOCO    BRNCCOCO13AG00000300000000001239373600000000000000300000000000000000000000018600Z01620200402X066000000
2MAIL0000152022BR10        BRNC        BRNCCOCO    BRNCCOCO13AG00000400000000001239373700000000000000300000000000000000000000018600Z01620200402X066000000
1MAIL0000152023BR10        BRNC        BRNCCOCO    BRNCCOCO13AG2020040200:00:00OR  010000043497620004349762152023                             2020040220200402Z016CIF202004020000000000148800NN0                                                  0                                        
2MAIL0000152023BR10        BRNC        BRNCCOCO    BRNCCOCO13AG00000100000000001239373400000000000001000000000000000000000000062000Z01620200402X066000000
2MAIL0000152023BR10        BRNC        BRNCCOCO    BRNCCOCO13AG00000200000000001239373500000000000000500000000000000000000000031000Z01620200402X066000000
2MAIL0000152023BR10        BRNC        BRNCCOCO    BRNCCOCO13AG00000300000000001239373600000000000000400000000000000000000000024800Z01620200402X066000000
2MAIL0000152023BR10        BRNC        BRNCCOCO    BRNCCOCO13AG00000400000000001239373700000000000000500000000000000000000000031000Z01620200402X066000000
1MAIL0000152024BR10        BRNC        BRNCCOCO    BRNCCOCO13AG2020040200:00:00OR  010000032372810003237281152024                             2020040220200402Z016CIF202004020000000000021015NN0                                                  0                                        
2MAIL0000152024BR10        BRNC        BRNCCOCO    BRNCCOCO13AG00000100000000001132033100000000000000200000000000000000000000004345Z01620200402X066000000
2MAIL0000152024BR10        BRNC        BRNCCOCO    BRNCCOCO13AG00000200000000001132036700000000000000300000000000000000000000006518Z01620200402X066000000
2MAIL0000152024BR10        BRNC        BRNCCOCO    BRNCCOCO13AG00000300000000001231189200000000000000100000000000000000000000005076Z01620200402X066000000
2MAIL0000152024BR10        BRNC        BRNCCOCO    BRNCCOCO13AG00000400000000001231231200000000000000100000000000000000000000005076Z01620200402X066000000
1MAIL0000152037BR10        BRNC        BRNCCOCO    BRNCCOCO13AG2020040200:00:00OR  010000036876300003687630152037                             2020040220200402Z016CIF202004020000000000026715NN0                                                  0                                        
2MAIL0000152037BR10        BRNC        BRNCCOCO    BRNCCOCO13AG00000100000000001239663300000000000001400000000000000000000000005343Z01620200402X066000000
2MAIL0000152037BR10        BRNC        BRNCCOCO    BRNCCOCO13AG00000200000000001239688600000000000001400000000000000000000000005343Z01620200402X066000000
2MAIL0000152037BR10        BRNC        BRNCCOCO    BRNCCOCO13AG00000300000000001239688800000000000001400000000000000000000000005343Z01620200402X066000000
2MAIL0000152037BR10        BRNC        BRNCCOCO    BRNCCOCO13AG00000400000000001239692100000000000001400000000000000000000000005343Z01620200402X066000000
2MAIL0000152037BR10        BRNC        BRNCCOCO    BRNCCOCO13AG00000500000000001239692300000000000001400000000000000000000000005343Z01620200402X066000000
1MAIL0000152038BR10        BRNC        BRNCCOCO    BRNCCOCO13AG2020040200:00:00OR  010000047764090004776409152038                             2020040220200402Z016CIF202004020000000000045547NN0                                                  0                                        
2MAIL0000152038BR10        BRNC        BRNCCOCO    BRNCCOCO13AG00000100000000001132018300000000000000100000000000000000000000003735Z01620200402X066000000
2MAIL0000152038BR10        BRNC        BRNCCOCO    BRNCCOCO13AG00000200000000001132036700000000000000200000000000000000000000004581Z01620200402X066000000
2MAIL0000152038BR10        BRNC        BRNCCOCO    BRNCCOCO13AG00000300000000001132200400000000000000300000000000000000000000006690Z01620200402X066000000
2MAIL0000152038BR10        BRNC        BRNCCOCO    BRNCCOCO13AG00000400000000001215533700000000000000200000000000000000000000004581Z01620200402X066000000
2MAIL0000152038BR10        BRNC        BRNCCOCO    BRNCCOCO13AG00000500000000001226089600000000000001200000000000000000000000005045Z01620200402X066000000
2MAIL0000152038BR10        BRNC        BRNCCOCO    BRNCCOCO13AG00000600000000001231231200000000000000100000000000000000000000005568Z01620200402X066000000
2MAIL0000152038BR10        BRNC        BRNCCOCO    BRNCCOCO13AG00000700000000001234705800000000000000100000000000000000000000005568Z01620200402X066000000
2MAIL0000152038BR10        BRNC        BRNCCOCO    BRNCCOCO13AG00000800000000001235699400000000000001000000000000000000000000004211Z01620200402X066000000
2MAIL0000152038BR10        BRNC        BRNCCOCO    BRNCCOCO13AG00000900000000001242374800000000000000100000000000000000000000005568Z01620200402X066000000
1MAIL0000152039BR10        BRNC        BRNCCOCO    BRNCCOCO13AG2020040200:00:00OR  010000058179810005817981152039                             2020040220200402Z016CIF202004020000000000015819NN0                                                  0                                        
2MAIL0000152039BR10        BRNC        BRNCCOCO    BRNCCOCO13AG00000100000000001132019900000000000000100000000000000000000000002076Z01620200402X066000000
2MAIL0000152039BR10        BRNC        BRNCCOCO    BRNCCOCO13AG00000200000000001132033100000000000000200000000000000000000000004581Z01620200402X066000000
2MAIL0000152039BR10        BRNC        BRNCCOCO    BRNCCOCO13AG00000300000000001132036700000000000000200000000000000000000000004581Z01620200402X066000000
2MAIL0000152039BR10        BRNC        BRNCCOCO    BRNCCOCO13AG00000400000000001215533700000000000000200000000000000000000000004581Z01620200402X066000000
1MAIL0000152040BR10        BRNC        BRNCCOCO    BRNCCOCO13AG2020040200:00:00OR  010000029333300002933330152040                             2020040220200402Z016CIF202004020000000000225051NN0                                                  0                                        
2MAIL0000152040BR10        BRNC        BRNCCOCO    BRNCCOCO13AG00000100000000001132018300000000000000100000000000000000000000003463Z01620200402X066000000
2MAIL0000152040BR10        BRNC        BRNCCOCO    BRNCCOCO13AG00000200000000001132019900000000000000200000000000000000000000003850Z01620200402X066000000
2MAIL0000152040BR10        BRNC        BRNCCOCO    BRNCCOCO13AG00000300000000001132033100000000000000800000000000000000000000017001Z01620200402X066000000
2MAIL0000152040BR10        BRNC        BRNCCOCO    BRNCCOCO13AG00000400000000001132036700000000000000800000000000000000000000017001Z01620200402X066000000
2MAIL0000152040BR10        BRNC        BRNCCOCO    BRNCCOCO13AG00000500000000001221415400000000000000100000000000000000000000003463Z01620200402X066000000
2MAIL0000152040BR10        BRNC        BRNCCOCO    BRNCCOCO13AG00000600000000001223975300000000000000200000000000000000000000009930Z01620200402X066000000
2MAIL0000152040BR10        BRNC        BRNCCOCO    BRNCCOCO13AG00000700000000001228512700000000000000100000000000000000000000004965Z01620200402X066000000
2MAIL0000152040BR10        BRNC        BRNCCOCO    BRNCCOCO13AG00000800000000001231189200000000000000200000000000000000000000009930Z01620200402X066000000
2MAIL0000152040BR10        BRNC        BRNCCOCO    BRNCCOCO13AG00000900000000001239373600000000000000200000000000000000000000012399Z01620200402X066000000
2MAIL0000152040BR10        BRNC        BRNCCOCO    BRNCCOCO13AG00001000000000001239373700000000000000200000000000000000000000012399Z01620200402X066000000
2MAIL0000152040BR10        BRNC        BRNCCOCO    BRNCCOCO13AG00001100000000001239688600000000000005600000000000000000000000020904Z01620200402X066000000
2MAIL0000152040BR10        BRNC        BRNCCOCO    BRNCCOCO13AG00001200000000001239688700000000000008400000000000000000000000031356Z01620200402X066000000
2MAIL0000152040BR10        BRNC        BRNCCOCO    BRNCCOCO13AG00001300000000001239692100000000000008400000000000000000000000031356Z01620200402X066000000
2MAIL0000152040BR10        BRNC        BRNCCOCO    BRNCCOCO13AG00001400000000001239692300000000000008400000000000000000000000031356Z01620200402X066000000
2MAIL0000152040BR10        BRNC        BRNCCOCO    BRNCCOCO13AG00001500000000001242626100000000000004200000000000000000000000015678Z01620200402X066000000
1MAIL0000152041BR10        BRNC        BRNCCOCO    BRNCCOCO13AG2020040200:00:00OR  010000029799930002979993152041                             2020040220200402Z079CIF202004020000000000072383NN0                                                  0                                        
2MAIL0000152041BR10        BRNC        BRNCCOCO    BRNCCOCO13AG00000100000000001132033100000000000000200000000000000000000000004357Z07920200402X066000000
2MAIL0000152041BR10        BRNC        BRNCCOCO    BRNCCOCO13AG00000200000000001132036700000000000000500000000000000000000000010894Z07920200402X066000000
2MAIL0000152041BR10        BRNC        BRNCCOCO    BRNCCOCO13AG00000300000000001215533700000000000000200000000000000000000000004357Z07920200402X066000000
2MAIL0000152041BR10        BRNC        BRNCCOCO    BRNCCOCO13AG00000400000000001226089600000000000001200000000000000000000000004589Z07920200402X066000000
2MAIL0000152041BR10        BRNC        BRNCCOCO    BRNCCOCO13AG00000500000000001239688300000000000001400000000000000000000000005354Z07920200402X066000000
2MAIL0000152041BR10        BRNC        BRNCCOCO    BRNCCOCO13AG00000600000000001239688500000000000001400000000000000000000000005354Z07920200402X066000000
2MAIL0000152041BR10        BRNC        BRNCCOCO    BRNCCOCO13AG00000700000000001239688600000000000002800000000000000000000000010708Z07920200402X066000000
2MAIL0000152041BR10        BRNC        BRNCCOCO    BRNCCOCO13AG00000800000000001239688800000000000002800000000000000000000000010708Z07920200402X066000000
2MAIL0000152041BR10        BRNC        BRNCCOCO    BRNCCOCO13AG00000900000000001239692100000000000002800000000000000000000000010708Z07920200402X066000000
2MAIL0000152041BR10        BRNC        BRNCCOCO    BRNCCOCO13AG00001000000000001239692300000000000001400000000000000000000000005354Z07920200402X066000000
1MAIL0000152042BR10        BRNC        BRNCCOCO    BRNCCOCO13AG2020040200:00:00OR  010000056319220005631922152042                             2020040220200402Z016CIF202004020000000000034257NN0                                                  0                                        
2MAIL0000152042BR10        BRNC        BRNCCOCO    BRNCCOCO13AG00000100000000001132018300000000000000100000000000000000000000003735Z01620200402X066000000
2MAIL0000152042BR10        BRNC        BRNCCOCO    BRNCCOCO13AG00000200000000001132033100000000000000100000000000000000000000002291Z01620200402X066000000
2MAIL0000152042BR10        BRNC        BRNCCOCO    BRNCCOCO13AG00000300000000001132036700000000000000200000000000000000000000004581Z01620200402X066000000
2MAIL0000152042BR10        BRNC        BRNCCOCO    BRNCCOCO13AG00000400000000001221415400000000000000100000000000000000000000003735Z01620200402X066000000
2MAIL0000152042BR10        BRNC        BRNCCOCO    BRNCCOCO13AG00000500000000001236515000000000000007000000000000000000000000014030Z01620200402X066000000
2MAIL0000152042BR10        BRNC        BRNCCOCO    BRNCCOCO13AG00000600000000001239688800000000000001400000000000000000000000005885Z01620200402X066000000
1MAIL0000152043BR10        BRNC        BRNCCOCO    BRNCCOCO13AG2020040200:00:00OR  010000052340440005234044152043                             2020040220200402Z016CIF202004020000000000244919NN0                                                  0                                        
2MAIL0000152043BR10        BRNC        BRNCCOCO    BRNCCOCO13AG00000100000000001132004000000000000001000000000000000000000000010202Z01620200402X066000000
2MAIL0000152043BR10        BRNC        BRNCCOCO    BRNCCOCO13AG00000200000000001132004200000000000001000000000000000000000000014065Z01620200402X066000000
2MAIL0000152043BR10        BRNC        BRNCCOCO    BRNCCOCO13AG00000300000000001132034900000000000001000000000000000000000000022150Z01620200402X066000000
2MAIL0000152043BR10        BRNC        BRNCCOCO    BRNCCOCO13AG00000400000000001132035100000000000001000000000000000000000000023385Z01620200402X066000000
2MAIL0000152043BR10        BRNC        BRNCCOCO    BRNCCOCO13AG00000500000000001132036700000000000000100000000000000000000000002173Z01620200402X066000000
2MAIL0000152043BR10        BRNC        BRNCCOCO    BRNCCOCO13AG00000600000000001215533700000000000000100000000000000000000000002173Z01620200402X066000000
2MAIL0000152043BR10        BRNC        BRNCCOCO    BRNCCOCO13AG00000700000000001224882700000000000000100000000000000000000000003159Z01620200402X066000000
2MAIL0000152043BR10        BRNC        BRNCCOCO    BRNCCOCO13AG00000800000000001227735000000000000000100000000000000000000000001967Z01620200402X066000000
2MAIL0000152043BR10        BRNC        BRNCCOCO    BRNCCOCO13AG00000900000000001228512700000000000000100000000000000000000000005076Z01620200402X066000000
2MAIL0000152043BR10        BRNC        BRNCCOCO    BRNCCOCO13AG00001000000000001231189200000000000000100000000000000000000000005076Z01620200402X066000000
2MAIL0000152043BR10        BRNC        BRNCCOCO    BRNCCOCO13AG00001100000000001231231200000000000000100000000000000000000000005076Z01620200402X066000000
2MAIL0000152043BR10        BRNC        BRNCCOCO    BRNCCOCO13AG00001200000000001235699400000000000002000000000000000000000000007648Z01620200402X066000000
2MAIL0000152043BR10        BRNC        BRNCCOCO    BRNCCOCO13AG00001300000000001235699700000000000001000000000000000000000000003825Z01620200402X066000000
2MAIL0000152043BR10        BRNC        BRNCCOCO    BRNCCOCO13AG00001400000000001235699800000000000002000000000000000000000000007648Z01620200402X066000000
2MAIL0000152043BR10        BRNC        BRNCCOCO    BRNCCOCO13AG00001500000000001236512900000000000007000000000000000000000000012727Z01620200402X066000000
2MAIL0000152043BR10        BRNC        BRNCCOCO    BRNCCOCO13AG00001600000000001236515000000000000007000000000000000000000000012727Z01620200402X066000000
2MAIL0000152043BR10        BRNC        BRNCCOCO    BRNCCOCO13AG00001700000000001239663300000000000002800000000000000000000000010686Z01620200402X066000000
2MAIL0000152043BR10        BRNC        BRNCCOCO    BRNCCOCO13AG00001800000000001239688300000000000002800000000000000000000000010686Z01620200402X066000000
2MAIL0000152043BR10        BRNC        BRNCCOCO    BRNCCOCO13AG00001900000000001239688600000000000002800000000000000000000000010686Z01620200402X066000000
2MAIL0000152043BR10        BRNC        BRNCCOCO    BRNCCOCO13AG00002000000000001239688700000000000002800000000000000000000000010686Z01620200402X066000000
2MAIL0000152043BR10        BRNC        BRNCCOCO    BRNCCOCO13AG00002100000000001239688800000000000004200000000000000000000000016030Z01620200402X066000000
2MAIL0000152043BR10        BRNC        BRNCCOCO    BRNCCOCO13AG00002200000000001239692000000000000002800000000000000000000000010686Z01620200402X066000000
2MAIL0000152043BR10        BRNC        BRNCCOCO    BRNCCOCO13AG00002300000000001239692100000000000001400000000000000000000000005343Z01620200402X066000000
2MAIL0000152043BR10        BRNC        BRNCCOCO    BRNCCOCO13AG00002400000000001241623700000000000001200000000000000000000000031039Z01620200402X066000000
1MAIL0000152044BR10        BRNC        BRNCCOCO    BRNCCOCO13AG2020040200:00:00OR  010000052343390005234339152044                             2020040220200402Z016CIF202004020000000000037415NN0                                                  0                                        
2MAIL0000152044BR10        BRNC        BRNCCOCO    BRNCCOCO13AG00000100000000001132019800000000000000100000000000000000000000001967Z01620200402X066000000
2MAIL0000152044BR10        BRNC        BRNCCOCO    BRNCCOCO13AG00000200000000001132033100000000000000300000000000000000000000006518Z01620200402X066000000
2MAIL0000152044BR10        BRNC        BRNCCOCO    BRNCCOCO13AG00000300000000001132036700000000000000300000000000000000000000006518Z01620200402X066000000
2MAIL0000152044BR10        BRNC        BRNCCOCO    BRNCCOCO13AG00000400000000001215533700000000000000200000000000000000000000004345Z01620200402X066000000
2MAIL0000152044BR10        BRNC        BRNCCOCO    BRNCCOCO13AG00000500000000001231233000000000000000100000000000000000000000005076Z01620200402X066000000
2MAIL0000152044BR10        BRNC        BRNCCOCO    BRNCCOCO13AG00000600000000001235699800000000000002000000000000000000000000007648Z01620200402X066000000
2MAIL0000152044BR10        BRNC        BRNCCOCO    BRNCCOCO13AG00000700000000001239663300000000000001400000000000000000000000005343Z01620200402X066000000
1MAIL0000152045BR10        BRNC        BRNCCOCO    BRNCCOCO13AG2020040200:00:00OR  010000032012560003201256152045                             2020040220200402Z016CIF202004020000000000111536NN0                                                  0                                        
2MAIL0000152045BR10        BRNC        BRNCCOCO    BRNCCOCO13AG00000100000000001132033100000000000000500000000000000000000000010625Z01620200402X066000000
2MAIL0000152045BR10        BRNC        BRNCCOCO    BRNCCOCO13AG00000200000000001132036700000000000000500000000000000000000000010625Z01620200402X066000000
2MAIL0000152045BR10        BRNC        BRNCCOCO    BRNCCOCO13AG00000300000000001132200400000000000000500000000000000000000000010575Z01620200402X066000000
2MAIL0000152045BR10        BRNC        BRNCCOCO    BRNCCOCO13AG00000400000000001215533700000000000000500000000000000000000000010625Z01620200402X066000000
2MAIL0000152045BR10        BRNC        BRNCCOCO    BRNCCOCO13AG00000500000000001221415400000000000000200000000000000000000000006928Z01620200402X066000000
2MAIL0000152045BR10        BRNC        BRNCCOCO    BRNCCOCO13AG00000600000000001226089600000000000001200000000000000000000000004480Z01620200402X066000000
2MAIL0000152045BR10        BRNC        BRNCCOCO    BRNCCOCO13AG00000700000000001227395500000000000000600000000000000000000000012750Z01620200402X066000000
2MAIL0000152045BR10        BRNC        BRNCCOCO    BRNCCOCO13AG00000800000000001235699400000000000001000000000000000000000000003741Z01620200402X066000000
2MAIL0000152045BR10        BRNC        BRNCCOCO    BRNCCOCO13AG00000900000000001236512900000000000001000000000000000000000000001778Z01620200402X066000000
2MAIL0000152045BR10        BRNC        BRNCCOCO    BRNCCOCO13AG00001000000000001236515000000000000002000000000000000000000000003557Z01620200402X066000000
2MAIL0000152045BR10        BRNC        BRNCCOCO    BRNCCOCO13AG00001100000000001236898000000000000000600000000000000000000000012750Z01620200402X066000000
2MAIL0000152045BR10        BRNC        BRNCCOCO    BRNCCOCO13AG00001200000000001239688500000000000001400000000000000000000000005226Z01620200402X066000000
2MAIL0000152045BR10        BRNC        BRNCCOCO    BRNCCOCO13AG00001300000000001239688600000000000001400000000000000000000000005226Z01620200402X066000000
2MAIL0000152045BR10        BRNC        BRNCCOCO    BRNCCOCO13AG00001400000000001241623700000000000000500000000000000000000000012650Z01620200402X066000000
1MAIL0000152046BR10        BRNC        BRNCCOCO    BRNCCOCO13AG2020040200:00:00OR  010000039687050003968705152046                             2020040220200402Z016CIF202004020000000000039931NN0                                                  0                                        
2MAIL0000152046BR10        BRNC        BRNCCOCO    BRNCCOCO13AG00000100000000001132033100000000000000200000000000000000000000004345Z01620200402X066000000
2MAIL0000152046BR10        BRNC        BRNCCOCO    BRNCCOCO13AG00000200000000001132036700000000000000200000000000000000000000004345Z01620200402X066000000
2MAIL0000152046BR10        BRNC        BRNCCOCO    BRNCCOCO13AG00000300000000001215533700000000000000100000000000000000000000002173Z01620200402X066000000
2MAIL0000152046BR10        BRNC        BRNCCOCO    BRNCCOCO13AG00000400000000001221415400000000000000100000000000000000000000003541Z01620200402X066000000
2MAIL0000152046BR10        BRNC        BRNCCOCO    BRNCCOCO13AG00000500000000001235699400000000000001000000000000000000000000003995Z01620200402X066000000
2MAIL0000152046BR10        BRNC        BRNCCOCO    BRNCCOCO13AG00000600000000001239688600000000000001400000000000000000000000005582Z01620200402X066000000
2MAIL0000152046BR10        BRNC        BRNCCOCO    BRNCCOCO13AG00000700000000001239688800000000000001400000000000000000000000005582Z01620200402X066000000
2MAIL0000152046BR10        BRNC        BRNCCOCO    BRNCCOCO13AG00000800000000001241623700000000000000400000000000000000000000010368Z01620200402X066000000
1MAIL0000152047BR10        BRNC        BRNCCOCO    BRNCCOCO13AG2020040200:00:00OR  010000028003710002800371152047                             2020040220200402Z016CIF202004020000000000341275NN0                                                  0                                        
2MAIL0000152047BR10        BRNC        BRNCCOCO    BRNCCOCO13AG00000100000000001132019700000000000000100000000000000000000000001967Z01620200402X066000000
2MAIL0000152047BR10        BRNC        BRNCCOCO    BRNCCOCO13AG00000200000000001132019800000000000000100000000000000000000000001967Z01620200402X066000000
2MAIL0000152047BR10        BRNC        BRNCCOCO    BRNCCOCO13AG00000300000000001132019900000000000000100000000000000000000000001967Z01620200402X066000000
2MAIL0000152047BR10        BRNC        BRNCCOCO    BRNCCOCO13AG00000400000000001132020900000000000000100000000000000000000000001967Z01620200402X066000000
2MAIL0000152047BR10        BRNC        BRNCCOCO    BRNCCOCO13AG00000500000000001132033100000000000003200000000000000000000000069528Z01620200402X066000000
2MAIL0000152047BR10        BRNC        BRNCCOCO    BRNCCOCO13AG00000600000000001132036700000000000003200000000000000000000000069528Z01620200402X066000000
2MAIL0000152047BR10        BRNC        BRNCCOCO    BRNCCOCO13AG00000700000000001132200400000000000002400000000000000000000000050762Z01620200402X066000000
2MAIL0000152047BR10        BRNC        BRNCCOCO    BRNCCOCO13AG00000800000000001132400100000000000000100000000000000000000000003003Z01620200402X066000000
2MAIL0000152047BR10        BRNC        BRNCCOCO    BRNCCOCO13AG00000900000000001223975300000000000000200000000000000000000000010153Z01620200402X066000000
2MAIL0000152047BR10        BRNC        BRNCCOCO    BRNCCOCO13AG00001000000000001226089600000000000001200000000000000000000000004580Z01620200402X066000000
2MAIL0000152047BR10        BRNC        BRNCCOCO    BRNCCOCO13AG00001100000000001227735000000000000000100000000000000000000000001967Z01620200402X066000000
2MAIL0000152047BR10        BRNC        BRNCCOCO    BRNCCOCO13AG00001200000000001228512700000000000000100000000000000000000000005076Z01620200402X066000000
2MAIL0000152047BR10        BRNC        BRNCCOCO    BRNCCOCO13AG00001300000000001231189200000000000000100000000000000000000000005076Z01620200402X066000000
2MAIL0000152047BR10        BRNC        BRNCCOCO    BRNCCOCO13AG00001400000000001231231200000000000000100000000000000000000000005076Z01620200402X066000000
2MAIL0000152047BR10        BRNC        BRNCCOCO    BRNCCOCO13AG00001500000000001231233000000000000000100000000000000000000000005076Z01620200402X066000000
2MAIL0000152047BR10        BRNC        BRNCCOCO    BRNCCOCO13AG00001600000000001234705700000000000000100000000000000000000000005076Z01620200402X066000000
2MAIL0000152047BR10        BRNC        BRNCCOCO    BRNCCOCO13AG00001700000000001234705800000000000000100000000000000000000000005076Z01620200402X066000000
2MAIL0000152047BR10        BRNC        BRNCCOCO    BRNCCOCO13AG00001800000000001234705900000000000000100000000000000000000000005076Z01620200402X066000000
2MAIL0000152047BR10        BRNC        BRNCCOCO    BRNCCOCO13AG00001900000000001235699400000000000001000000000000000000000000003825Z01620200402X066000000
2MAIL0000152047BR10        BRNC        BRNCCOCO    BRNCCOCO13AG00002000000000001235699700000000000001000000000000000000000000003825Z01620200402X066000000
2MAIL0000152047BR10        BRNC        BRNCCOCO    BRNCCOCO13AG00002100000000001236512800000000000003600000000000000000000000006213Z01620200402X066000000
2MAIL0000152047BR10        BRNC        BRNCCOCO    BRNCCOCO13AG00002200000000001236512900000000000003000000000000000000000000005454Z01620200402X066000000
2MAIL0000152047BR10        BRNC        BRNCCOCO    BRNCCOCO13AG00002300000000001236515000000000000003000000000000000000000000005454Z01620200402X066000000
2MAIL0000152047BR10        BRNC        BRNCCOCO    BRNCCOCO13AG00002400000000001238083500000000000000200000000000000000000000010153Z01620200402X066000000
2MAIL0000152047BR10        BRNC        BRNCCOCO    BRNCCOCO13AG00002500000000001239688300000000000001400000000000000000000000005343Z01620200402X066000000
2MAIL0000152047BR10        BRNC        BRNCCOCO    BRNCCOCO13AG00002600000000001239688500000000000001400000000000000000000000005343Z01620200402X066000000
2MAIL0000152047BR10        BRNC        BRNCCOCO    BRNCCOCO13AG00002700000000001239688600000000000001400000000000000000000000005343Z01620200402X066000000
2MAIL0000152047BR10        BRNC        BRNCCOCO    BRNCCOCO13AG00002800000000001239688700000000000001400000000000000000000000005343Z01620200402X066000000
2MAIL0000152047BR10        BRNC        BRNCCOCO    BRNCCOCO13AG00002900000000001239688800000000000002800000000000000000000000010686Z01620200402X066000000
2MAIL0000152047BR10        BRNC        BRNCCOCO    BRNCCOCO13AG00003000000000001239692000000000000001400000000000000000000000005343Z01620200402X066000000
2MAIL0000152047BR10        BRNC        BRNCCOCO    BRNCCOCO13AG00003100000000001239692100000000000001400000000000000000000000005343Z01620200402X066000000
2MAIL0000152047BR10        BRNC        BRNCCOCO    BRNCCOCO13AG00003200000000001239692300000000000001400000000000000000000000005343Z01620200402X066000000
2MAIL0000152047BR10        BRNC        BRNCCOCO    BRNCCOCO13AG00003300000000001242765000000000000001400000000000000000000000005343Z01620200402X066000000
1MAIL0000152048BR10        BRNC        BRNCCOCO    BRNCCOCO13AG2020040200:00:00OR  010000037260450003726045152048                             2020040220200402Z016CIF202004020000000000008038NN0                                                  0                                        
2MAIL0000152048BR10        BRNC        BRNCCOCO    BRNCCOCO13AG00000100000000001132033100000000000000300000000000000000000000006518Z01620200402X066000000
2MAIL0000152048BR10        BRNC        BRNCCOCO    BRNCCOCO13AG00000200000000001236512800000000000000800000000000000000000000001520Z01620200402X066000000
1MAIL0000152051BR10        BRNC        BRNCCOCO    BRNCCOCO13AG2020040200:00:00OR  010000029836640002983664152051                             2020040220200402Z016CIF202004020000000000071552NN0                                                  0                                        
2MAIL0000152051BR10        BRNC        BRNCCOCO    BRNCCOCO13AG00000100000000001132036700000000000000500000000000000000000000010863Z01620200402X066000000
2MAIL0000152051BR10        BRNC        BRNCCOCO    BRNCCOCO13AG00000200000000001132200400000000000000300000000000000000000000006345Z01620200402X066000000
2MAIL0000152051BR10        BRNC        BRNCCOCO    BRNCCOCO13AG00000300000000001224882700000000000000200000000000000000000000006315Z01620200402X066000000
2MAIL0000152051BR10        BRNC        BRNCCOCO    BRNCCOCO13AG00000400000000001224882800000000000000200000000000000000000000006315Z01620200402X066000000
2MAIL0000152051BR10        BRNC        BRNCCOCO    BRNCCOCO13AG00000500000000001226089600000000000001200000000000000000000000004580Z01620200402X066000000
2MAIL0000152051BR10        BRNC        BRNCCOCO    BRNCCOCO13AG00000600000000001231231200000000000000100000000000000000000000005076Z01620200402X066000000
2MAIL0000152051BR10        BRNC        BRNCCOCO    BRNCCOCO13AG00000700000000001239663300000000000001400000000000000000000000005343Z01620200402X066000000
2MAIL0000152051BR10        BRNC        BRNCCOCO    BRNCCOCO13AG00000800000000001239688300000000000001400000000000000000000000005343Z01620200402X066000000
2MAIL0000152051BR10        BRNC        BRNCCOCO    BRNCCOCO13AG00000900000000001239688500000000000001400000000000000000000000005343Z01620200402X066000000
2MAIL0000152051BR10        BRNC        BRNCCOCO    BRNCCOCO13AG00001000000000001239688600000000000001400000000000000000000000005343Z01620200402X066000000
2MAIL0000152051BR10        BRNC        BRNCCOCO    BRNCCOCO13AG00001100000000001239688700000000000001400000000000000000000000005343Z01620200402X066000000
2MAIL0000152051BR10        BRNC        BRNCCOCO    BRNCCOCO13AG00001200000000001239688800000000000001400000000000000000000000005343Z01620200402X066000000
1MAIL0000152052BR10        BRNC        BRNCCOCO    BRNCCOCO13AG2020040200:00:00OR  010000044481330004448133152052                             2020040220200402Z016CIF202004020000000000064928NN0                                                  0                                        
2MAIL0000152052BR10        BRNC        BRNCCOCO    BRNCCOCO13AG00000100000000001132036700000000000000100000000000000000000000002291Z01620200402X066000000
2MAIL0000152052BR10        BRNC        BRNCCOCO    BRNCCOCO13AG00000200000000001215533700000000000000100000000000000000000000002291Z01620200402X066000000
2MAIL0000152052BR10        BRNC        BRNCCOCO    BRNCCOCO13AG00000300000000001226089600000000000001200000000000000000000000005045Z01620200402X066000000
2MAIL0000152052BR10        BRNC        BRNCCOCO    BRNCCOCO13AG00000400000000001231389600000000000000100000000000000000000000002291Z01620200402X066000000
2MAIL0000152052BR10        BRNC        BRNCCOCO    BRNCCOCO13AG00000500000000001235699400000000000001000000000000000000000000004211Z01620200402X066000000
2MAIL0000152052BR10        BRNC        BRNCCOCO    BRNCCOCO13AG00000600000000001236898000000000000000100000000000000000000000002291Z01620200402X066000000
2MAIL0000152052BR10        BRNC        BRNCCOCO    BRNCCOCO13AG00000700000000001239663300000000000001400000000000000000000000005885Z01620200402X066000000
2MAIL0000152052BR10        BRNC        BRNCCOCO    BRNCCOCO13AG00000800000000001239688800000000000001400000000000000000000000005885Z01620200402X066000000
2MAIL0000152052BR10        BRNC        BRNCCOCO    BRNCCOCO13AG00000900000000001239692000000000000001400000000000000000000000005885Z01620200402X066000000
2MAIL0000152052BR10        BRNC        BRNCCOCO    BRNCCOCO13AG00001000000000001241577400000000000003000000000000000000000000028853Z01620200402X066000000
1MAIL0000152056BR10        BRNC        BRNCCOCO    BRNCCOCO13AG2020040200:00:00OR  010000038738180003873818152056                             2020040220200402Z016CIF202004020000000000082888NN0                                                  0                                        
2MAIL0000152056BR10        BRNC        BRNCCOCO    BRNCCOCO13AG00000100000000001132019800000000000000100000000000000000000000001924Z01620200402X066000000
2MAIL0000152056BR10        BRNC        BRNCCOCO    BRNCCOCO13AG00000200000000001132033100000000000000300000000000000000000000006375Z01620200402X066000000
2MAIL0000152056BR10        BRNC        BRNCCOCO    BRNCCOCO13AG00000300000000001132036700000000000000500000000000000000000000010625Z01620200402X066000000
2MAIL0000152056BR10        BRNC        BRNCCOCO    BRNCCOCO13AG00000400000000001215533700000000000000500000000000000000000000010625Z01620200402X066000000
2MAIL0000152056BR10        BRNC        BRNCCOCO    BRNCCOCO13AG00000500000000001231231200000000000000100000000000000000000000004965Z01620200402X066000000
2MAIL0000152056BR10        BRNC        BRNCCOCO    BRNCCOCO13AG00000600000000001236512800000000000000800000000000000000000000001350Z01620200402X066000000
2MAIL0000152056BR10        BRNC        BRNCCOCO    BRNCCOCO13AG00000700000000001236512900000000000001000000000000000000000000001778Z01620200402X066000000
2MAIL0000152056BR10        BRNC        BRNCCOCO    BRNCCOCO13AG00000800000000001236515000000000000001000000000000000000000000001778Z01620200402X066000000
2MAIL0000152056BR10        BRNC        BRNCCOCO    BRNCCOCO13AG00000900000000001239688800000000000001400000000000000000000000005226Z01620200402X066000000
2MAIL0000152056BR10        BRNC        BRNCCOCO    BRNCCOCO13AG00001000000000001239692100000000000001400000000000000000000000005226Z01620200402X066000000
2MAIL0000152056BR10        BRNC        BRNCCOCO    BRNCCOCO13AG00001100000000001241577400000000000003000000000000000000000000025426Z01620200402X066000000
2MAIL0000152056BR10        BRNC        BRNCCOCO    BRNCCOCO13AG00001200000000001241623700000000000000300000000000000000000000007590Z01620200402X066000000
1MAIL0000152057BR10        BRNC        BRNCCOCO    BRNCCOCO13AG2020040200:00:00OR  010000058272220005827222152057                             2020040220200402Z016CIF202004020000000000017384NN0                                                  0                                        
2MAIL0000152057BR10        BRNC        BRNCCOCO    BRNCCOCO13AG00000100000000001132033100000000000000400000000000000000000000008692Z01620200402X066000000
2MAIL0000152057BR10        BRNC        BRNCCOCO    BRNCCOCO13AG00000200000000001132036700000000000000400000000000000000000000008692Z01620200402X066000000
1MAIL0000152058BR10        BRNC        BRNCCOCO    BRNCCOCO13AG2020040200:00:00OR  010000041724310004172431152058                             2020040220200402Z016CIF202004020000000000060130NN0                                                  0                                        
2MAIL0000152058BR10        BRNC        BRNCCOCO    BRNCCOCO13AG00000100000000001132033100000000000000100000000000000000000000002291Z01620200402X066000000
2MAIL0000152058BR10        BRNC        BRNCCOCO    BRNCCOCO13AG00000200000000001132036700000000000000100000000000000000000000002291Z01620200402X066000000
2MAIL0000152058BR10        BRNC        BRNCCOCO    BRNCCOCO13AG00000300000000001132200400000000000000100000000000000000000000002230Z01620200402X066000000
2MAIL0000152058BR10        BRNC        BRNCCOCO    BRNCCOCO13AG00000400000000001215533700000000000000200000000000000000000000004581Z01620200402X066000000
2MAIL0000152058BR10        BRNC        BRNCCOCO    BRNCCOCO13AG00000500000000001231189200000000000000100000000000000000000000005568Z01620200402X066000000
2MAIL0000152058BR10        BRNC        BRNCCOCO    BRNCCOCO13AG00000600000000001231231200000000000000100000000000000000000000005568Z01620200402X066000000
2MAIL0000152058BR10        BRNC        BRNCCOCO    BRNCCOCO13AG00000700000000001236898000000000000000100000000000000000000000002291Z01620200402X066000000
2MAIL0000152058BR10        BRNC        BRNCCOCO    BRNCCOCO13AG00000800000000001239688600000000000002800000000000000000000000011770Z01620200402X066000000
2MAIL0000152058BR10        BRNC        BRNCCOCO    BRNCCOCO13AG00000900000000001239688800000000000002800000000000000000000000011770Z01620200402X066000000
2MAIL0000152058BR10        BRNC        BRNCCOCO    BRNCCOCO13AG00001000000000001239692100000000000002800000000000000000000000011770Z01620200402X066000000
