1MAIL0000151742BR10        BRNC        BRNCCOCO    BRNCCOCO13AG2020033100:00:00OR  010000056036830005603683151742                             2020033120200331Z016CIF202003310000000000004345NN0                                                  0                                        
2MAIL0000151742BR10        BRNC        BRNCCOCO    BRNCCOCO13AG00000100000000001132036700000000000000200000000000000000000000004345Z01620200331X066000000
1MAIL0000151743BR10        BRNC        BRNCCOCO    BRNCCOCO13AG2020033100:00:00OR  010000057268440005726844151743                             2020033120200331Z016CIF202003310000000000004581NN0                                                  0                                        
2MAIL0000151743BR10        BRNC        BRNCCOCO    BRNCCOCO13AG00000100000000001132036700000000000000200000000000000000000000004581Z01620200331X066000000
1MAIL0000151744BR10        BRNC        BRNCCOCO    BRNCCOCO13AG2020033100:00:00OR  010000043982390004398239151744                             2020033120200331Z016CIF202003310000000000004581NN0                                                  0                                        
2MAIL0000151744BR10        BRNC        BRNCCOCO    BRNCCOCO13AG00000100000000001132036700000000000000200000000000000000000000004581Z01620200331X066000000
1MAIL0000151745BR10        BRNC        BRNCCOCO    BRNCCOCO13AG2020033100:00:00OR  010000060235590006023559151745                             2020033120200331Z016CIF202003310000000000020403NN0                                                  0                                        
2MAIL0000151745BR10        BRNC        BRNCCOCO    BRNCCOCO13AG00000100000000001132019800000000000000100000000000000000000000002076Z01620200331X066000000
2MAIL0000151745BR10        BRNC        BRNCCOCO    BRNCCOCO13AG00000200000000001132033100000000000000100000000000000000000000002291Z01620200331X066000000
2MAIL0000151745BR10        BRNC        BRNCCOCO    BRNCCOCO13AG00000300000000001132036700000000000000300000000000000000000000006872Z01620200331X066000000
2MAIL0000151745BR10        BRNC        BRNCCOCO    BRNCCOCO13AG00000400000000001215533700000000000000100000000000000000000000002291Z01620200331X066000000
2MAIL0000151745BR10        BRNC        BRNCCOCO    BRNCCOCO13AG00000500000000001227395500000000000000100000000000000000000000002291Z01620200331X066000000
2MAIL0000151745BR10        BRNC        BRNCCOCO    BRNCCOCO13AG00000600000000001231389600000000000000100000000000000000000000002291Z01620200331X066000000
2MAIL0000151745BR10        BRNC        BRNCCOCO    BRNCCOCO13AG00000700000000001236898000000000000000100000000000000000000000002291Z01620200331X066000000
1MAIL0000151746BR10        BRNC        BRNCCOCO    BRNCCOCO13AG2020033100:00:00OR  010000053811320005381132151746                             2020033120200331Z016CIF202003310000000000065523NN0                                                  0                                        
2MAIL0000151746BR10        BRNC        BRNCCOCO    BRNCCOCO13AG00000100000000001132033100000000000000200000000000000000000000003690Z01620200331X066000000
2MAIL0000151746BR10        BRNC        BRNCCOCO    BRNCCOCO13AG00000200000000001132036700000000000000500000000000000000000000009224Z01620200331X066000000
2MAIL0000151746BR10        BRNC        BRNCCOCO    BRNCCOCO13AG00000300000000001215533700000000000000100000000000000000000000001844Z01620200331X066000000
2MAIL0000151746BR10        BRNC        BRNCCOCO    BRNCCOCO13AG00000400000000001226089600000000000001200000000000000000000000004254Z01620200331X066000000
2MAIL0000151746BR10        BRNC        BRNCCOCO    BRNCCOCO13AG00000500000000001227395500000000000000100000000000000000000000001844Z01620200331X066000000
2MAIL0000151746BR10        BRNC        BRNCCOCO    BRNCCOCO13AG00000600000000001239663300000000000001400000000000000000000000004963Z01620200331X066000000
2MAIL0000151746BR10        BRNC        BRNCCOCO    BRNCCOCO13AG00000700000000001239688300000000000001400000000000000000000000004963Z01620200331X066000000
2MAIL0000151746BR10        BRNC        BRNCCOCO    BRNCCOCO13AG00000800000000001239688500000000000001400000000000000000000000004963Z01620200331X066000000
2MAIL0000151746BR10        BRNC        BRNCCOCO    BRNCCOCO13AG00000900000000001239688600000000000001400000000000000000000000004963Z01620200331X066000000
2MAIL0000151746BR10        BRNC        BRNCCOCO    BRNCCOCO13AG00001000000000001239688700000000000001400000000000000000000000004963Z01620200331X066000000
2MAIL0000151746BR10        BRNC        BRNCCOCO    BRNCCOCO13AG00001100000000001239688800000000000001400000000000000000000000004963Z01620200331X066000000
2MAIL0000151746BR10        BRNC        BRNCCOCO    BRNCCOCO13AG00001200000000001239692000000000000001400000000000000000000000004963Z01620200331X066000000
2MAIL0000151746BR10        BRNC        BRNCCOCO    BRNCCOCO13AG00001300000000001239692100000000000001400000000000000000000000004963Z01620200331X066000000
2MAIL0000151746BR10        BRNC        BRNCCOCO    BRNCCOCO13AG00001400000000001239692300000000000001400000000000000000000000004963Z01620200331X066000000
1MAIL0000151747BR10        BRNC        BRNCCOCO    BRNCCOCO13AG2020033100:00:00OR  010000049919550004991955151747                             2020033120200331Z016CIF202003310000000000031133NN0                                                  0                                        
2MAIL0000151747BR10        BRNC        BRNCCOCO    BRNCCOCO13AG00000100000000001132033100000000000000100000000000000000000000002173Z01620200331X066000000
2MAIL0000151747BR10        BRNC        BRNCCOCO    BRNCCOCO13AG00000200000000001132036700000000000000300000000000000000000000006518Z01620200331X066000000
2MAIL0000151747BR10        BRNC        BRNCCOCO    BRNCCOCO13AG00000300000000001132200400000000000000400000000000000000000000008460Z01620200331X066000000
2MAIL0000151747BR10        BRNC        BRNCCOCO    BRNCCOCO13AG00000400000000001236512900000000000007000000000000000000000000013982Z01620200331X066000000
1MAIL0000151748BR10        BRNC        BRNCCOCO    BRNCCOCO13AG2020033100:00:00OR  010000037557040003755704151748                             2020033120200331Z016CIF202003310000000000006873NN0                                                  0                                        
2MAIL0000151748BR10        BRNC        BRNCCOCO    BRNCCOCO13AG00000100000000001132033100000000000000100000000000000000000000002291Z01620200331X066000000
2MAIL0000151748BR10        BRNC        BRNCCOCO    BRNCCOCO13AG00000200000000001132036700000000000000100000000000000000000000002291Z01620200331X066000000
2MAIL0000151748BR10        BRNC        BRNCCOCO    BRNCCOCO13AG00000300000000001215533700000000000000100000000000000000000000002291Z01620200331X066000000
1MAIL0000151749BR10        BRNC        BRNCCOCO    BRNCCOCO13AG2020033100:00:00OR  010000040412140004041214151749                             2020033120200331Z016CIF202003310000000000019509NN0                                                  0                                        
2MAIL0000151749BR10        BRNC        BRNCCOCO    BRNCCOCO13AG00000100000000001132019700000000000000100000000000000000000000002076Z01620200331X066000000
2MAIL0000151749BR10        BRNC        BRNCCOCO    BRNCCOCO13AG00000200000000001132033100000000000000100000000000000000000000002291Z01620200331X066000000
2MAIL0000151749BR10        BRNC        BRNCCOCO    BRNCCOCO13AG00000300000000001132036700000000000000100000000000000000000000002291Z01620200331X066000000
2MAIL0000151749BR10        BRNC        BRNCCOCO    BRNCCOCO13AG00000400000000001236512900000000000000500000000000000000000000001002Z01620200331X066000000
2MAIL0000151749BR10        BRNC        BRNCCOCO    BRNCCOCO13AG00000500000000001236515000000000000000500000000000000000000000001002Z01620200331X066000000
2MAIL0000151749BR10        BRNC        BRNCCOCO    BRNCCOCO13AG00000600000000001239688800000000000001400000000000000000000000005885Z01620200331X066000000
2MAIL0000151749BR10        BRNC        BRNCCOCO    BRNCCOCO13AG00000700000000001241623700000000000000200000000000000000000000004962Z01620200331X066000000
1MAIL0000151750BR10        BRNC        BRNCCOCO    BRNCCOCO13AG2020033100:00:00OR  010000061672240006167224151750                             2020033120200331Z016CIF202003310000000000006344NN0                                                  0                                        
2MAIL0000151750BR10        BRNC        BRNCCOCO    BRNCCOCO13AG00000100000000001132033100000000000000100000000000000000000000002173Z01620200331X066000000
2MAIL0000151750BR10        BRNC        BRNCCOCO    BRNCCOCO13AG00000200000000001132036700000000000000100000000000000000000000002173Z01620200331X066000000
2MAIL0000151750BR10        BRNC        BRNCCOCO    BRNCCOCO13AG00000300000000001236512900000000000000500000000000000000000000000999Z01620200331X066000000
2MAIL0000151750BR10        BRNC        BRNCCOCO    BRNCCOCO13AG00000400000000001236515000000000000000500000000000000000000000000999Z01620200331X066000000
1MAIL0000151751BR10        BRNC        BRNCCOCO    BRNCCOCO13AG2020033100:00:00OR  010000051357780005135778151751                             2020033120200331Z016CIF202003310000000000008793NN0                                                  0                                        
2MAIL0000151751BR10        BRNC        BRNCCOCO    BRNCCOCO13AG00000100000000001132033100000000000000100000000000000000000000002291Z01620200331X066000000
2MAIL0000151751BR10        BRNC        BRNCCOCO    BRNCCOCO13AG00000200000000001132036700000000000000100000000000000000000000002291Z01620200331X066000000
2MAIL0000151751BR10        BRNC        BRNCCOCO    BRNCCOCO13AG00000300000000001235699400000000000001000000000000000000000000004211Z01620200331X066000000
1MAIL0000151752BR10        BRNC        BRNCCOCO    BRNCCOCO13AG2020033100:00:00OR  010000029489190002948919151752                             2020033120200331Z016CIF202003310000000000009162NN0                                                  0                                        
2MAIL0000151752BR10        BRNC        BRNCCOCO    BRNCCOCO13AG00000100000000001132033100000000000000200000000000000000000000004581Z01620200331X066000000
2MAIL0000151752BR10        BRNC        BRNCCOCO    BRNCCOCO13AG00000200000000001132036700000000000000200000000000000000000000004581Z01620200331X066000000
1MAIL0000151753BR10        BRNC        BRNCCOCO    BRNCCOCO13AG2020033100:00:00OR  010000009421950000942195151753                             2020033120200331Z016CIF202003310000000000033730NN0                                                  0                                        
2MAIL0000151753BR10        BRNC        BRNCCOCO    BRNCCOCO13AG00000100000000001132033100000000000000100000000000000000000000002173Z01620200331X066000000
2MAIL0000151753BR10        BRNC        BRNCCOCO    BRNCCOCO13AG00000200000000001228274000000000000000100000000000000000000000005076Z01620200331X066000000
2MAIL0000151753BR10        BRNC        BRNCCOCO    BRNCCOCO13AG00000300000000001231189200000000000000100000000000000000000000005076Z01620200331X066000000
2MAIL0000151753BR10        BRNC        BRNCCOCO    BRNCCOCO13AG00000400000000001231231200000000000000100000000000000000000000005076Z01620200331X066000000
2MAIL0000151753BR10        BRNC        BRNCCOCO    BRNCCOCO13AG00000500000000001235699400000000000001000000000000000000000000003825Z01620200331X066000000
2MAIL0000151753BR10        BRNC        BRNCCOCO    BRNCCOCO13AG00000600000000001236515000000000000001000000000000000000000000001818Z01620200331X066000000
2MAIL0000151753BR10        BRNC        BRNCCOCO    BRNCCOCO13AG00000700000000001239688800000000000001400000000000000000000000005343Z01620200331X066000000
2MAIL0000151753BR10        BRNC        BRNCCOCO    BRNCCOCO13AG00000800000000001239692100000000000001400000000000000000000000005343Z01620200331X066000000
1MAIL0000151754BR10        BRNC        BRNCCOCO    BRNCCOCO13AG2020033100:00:00OR  010000029809320002980932151754                             2020033120200331Z016CIF202003310000000000006502NN0                                                  0                                        
2MAIL0000151754BR10        BRNC        BRNCCOCO    BRNCCOCO13AG00000100000000001132036700000000000000100000000000000000000000002291Z01620200331X066000000
2MAIL0000151754BR10        BRNC        BRNCCOCO    BRNCCOCO13AG00000200000000001235699400000000000001000000000000000000000000004211Z01620200331X066000000
1MAIL0000151755BR10        BRNC        BRNCCOCO    BRNCCOCO13AG2020033100:00:00OR  010000058971390005897139151755                             2020033120200331Z016CIF202003310000000000006502NN0                                                  0                                        
2MAIL0000151755BR10        BRNC        BRNCCOCO    BRNCCOCO13AG00000100000000001132036700000000000000100000000000000000000000002291Z01620200331X066000000
2MAIL0000151755BR10        BRNC        BRNCCOCO    BRNCCOCO13AG00000200000000001235699400000000000001000000000000000000000000004211Z01620200331X066000000
1MAIL0000151756BR10        BRNC        BRNCCOCO    BRNCCOCO13AG2020033100:00:00OR  010000052233600005223360151756                             2020033120200331Z016CIF202003310000000000008453NN0                                                  0                                        
2MAIL0000151756BR10        BRNC        BRNCCOCO    BRNCCOCO13AG00000100000000001132036700000000000000100000000000000000000000001654Z01620200331X066000000
2MAIL0000151756BR10        BRNC        BRNCCOCO    BRNCCOCO13AG00000200000000001132200400000000000000100000000000000000000000002115Z01620200331X066000000
2MAIL0000151756BR10        BRNC        BRNCCOCO    BRNCCOCO13AG00000300000000001239688800000000000001400000000000000000000000004684Z01620200331X066000000
1MAIL0000151757BR10        BRNC        BRNCCOCO    BRNCCOCO13AG2020033100:00:00OR  010000053766200005376620151757                             2020033120200331Z016CIF202003310000000000006872NN0                                                  0                                        
2MAIL0000151757BR10        BRNC        BRNCCOCO    BRNCCOCO13AG00000100000000001132033100000000000000100000000000000000000000002291Z01620200331X066000000
2MAIL0000151757BR10        BRNC        BRNCCOCO    BRNCCOCO13AG00000200000000001132036700000000000000200000000000000000000000004581Z01620200331X066000000
1MAIL0000151758BR10        BRNC        BRNCCOCO    BRNCCOCO13AG2020033100:00:00OR  010000029379150002937915151758                             2020033120200331Z016CIF202003310000000000034001NN0                                                  0                                        
2MAIL0000151758BR10        BRNC        BRNCCOCO    BRNCCOCO13AG00000100000000001132033100000000000000600000000000000000000000012750Z01620200331X066000000
2MAIL0000151758BR10        BRNC        BRNCCOCO    BRNCCOCO13AG00000200000000001132036700000000000000600000000000000000000000012750Z01620200331X066000000
2MAIL0000151758BR10        BRNC        BRNCCOCO    BRNCCOCO13AG00000300000000001215533700000000000000400000000000000000000000008501Z01620200331X066000000
1MAIL0000151759BR10        BRNC        BRNCCOCO    BRNCCOCO13AG2020033100:00:00OR  010000029848160002984816151759                             2020033120200331Z016CIF202003310000000000057339NN0                                                  0                                        
2MAIL0000151759BR10        BRNC        BRNCCOCO    BRNCCOCO13AG00000100000000001132033100000000000000100000000000000000000000002291Z01620200331X066000000
2MAIL0000151759BR10        BRNC        BRNCCOCO    BRNCCOCO13AG00000200000000001132036700000000000000500000000000000000000000011454Z01620200331X066000000
2MAIL0000151759BR10        BRNC        BRNCCOCO    BRNCCOCO13AG00000300000000001215533700000000000000100000000000000000000000002291Z01620200331X066000000
2MAIL0000151759BR10        BRNC        BRNCCOCO    BRNCCOCO13AG00000400000000001227395500000000000000200000000000000000000000004581Z01620200331X066000000
2MAIL0000151759BR10        BRNC        BRNCCOCO    BRNCCOCO13AG00000500000000001228274000000000000000100000000000000000000000005568Z01620200331X066000000
2MAIL0000151759BR10        BRNC        BRNCCOCO    BRNCCOCO13AG00000600000000001231189200000000000000100000000000000000000000005568Z01620200331X066000000
2MAIL0000151759BR10        BRNC        BRNCCOCO    BRNCCOCO13AG00000700000000001231231200000000000000100000000000000000000000005568Z01620200331X066000000
2MAIL0000151759BR10        BRNC        BRNCCOCO    BRNCCOCO13AG00000800000000001231389600000000000000100000000000000000000000002291Z01620200331X066000000
2MAIL0000151759BR10        BRNC        BRNCCOCO    BRNCCOCO13AG00000900000000001235699800000000000002000000000000000000000000008422Z01620200331X066000000
2MAIL0000151759BR10        BRNC        BRNCCOCO    BRNCCOCO13AG00001000000000001236515000000000000003500000000000000000000000007014Z01620200331X066000000
2MAIL0000151759BR10        BRNC        BRNCCOCO    BRNCCOCO13AG00001100000000001236898000000000000000100000000000000000000000002291Z01620200331X066000000
1MAIL0000151760BR10        BRNC        BRNCCOCO    BRNCCOCO13AG2020033100:00:00OR  010000030646100003064610151760                             2020033120200331Z016CIF202003310000000000009627NN0                                                  0                                        
2MAIL0000151760BR10        BRNC        BRNCCOCO    BRNCCOCO13AG00000100000000001132033100000000000000100000000000000000000000002291Z01620200331X066000000
2MAIL0000151760BR10        BRNC        BRNCCOCO    BRNCCOCO13AG00000200000000001132036700000000000000100000000000000000000000002291Z01620200331X066000000
2MAIL0000151760BR10        BRNC        BRNCCOCO    BRNCCOCO13AG00000300000000001226089600000000000001200000000000000000000000005045Z01620200331X066000000
1MAIL0000151761BR10        BRNC        BRNCCOCO    BRNCCOCO13AG2020033100:00:00OR  010000060472050006047205151761                             2020033120200331Z079CIF202003310000000000031103NN0                                                  0                                        
2MAIL0000151761BR10        BRNC        BRNCCOCO    BRNCCOCO13AG00000100000000001132033100000000000000100000000000000000000000002297Z07920200331X066000000
2MAIL0000151761BR10        BRNC        BRNCCOCO    BRNCCOCO13AG00000200000000001132036700000000000000200000000000000000000000004594Z07920200331X066000000
2MAIL0000151761BR10        BRNC        BRNCCOCO    BRNCCOCO13AG00000300000000001235699400000000000001000000000000000000000000004220Z07920200331X066000000
2MAIL0000151761BR10        BRNC        BRNCCOCO    BRNCCOCO13AG00000400000000001235699800000000000001000000000000000000000000004220Z07920200331X066000000
2MAIL0000151761BR10        BRNC        BRNCCOCO    BRNCCOCO13AG00000500000000001236512800000000000001200000000000000000000000002288Z07920200331X066000000
2MAIL0000151761BR10        BRNC        BRNCCOCO    BRNCCOCO13AG00000600000000001236512900000000000001000000000000000000000000002004Z07920200331X066000000
2MAIL0000151761BR10        BRNC        BRNCCOCO    BRNCCOCO13AG00000700000000001236515000000000000001000000000000000000000000002004Z07920200331X066000000
2MAIL0000151761BR10        BRNC        BRNCCOCO    BRNCCOCO13AG00000800000000001236898000000000000000100000000000000000000000002297Z07920200331X066000000
2MAIL0000151761BR10        BRNC        BRNCCOCO    BRNCCOCO13AG00000900000000001240924900000000000001200000000000000000000000002206Z07920200331X066000000
2MAIL0000151761BR10        BRNC        BRNCCOCO    BRNCCOCO13AG00001000000000001241623700000000000000200000000000000000000000004973Z07920200331X066000000
1MAIL0000151762BR10        BRNC        BRNCCOCO    BRNCCOCO13AG2020033100:00:00OR  010000057141490005714149151762                             2020033120200331Z016CIF202003310000000000006519NN0                                                  0                                        
2MAIL0000151762BR10        BRNC        BRNCCOCO    BRNCCOCO13AG00000100000000001132033100000000000000100000000000000000000000002173Z01620200331X066000000
2MAIL0000151762BR10        BRNC        BRNCCOCO    BRNCCOCO13AG00000200000000001132036700000000000000100000000000000000000000002173Z01620200331X066000000
2MAIL0000151762BR10        BRNC        BRNCCOCO    BRNCCOCO13AG00000300000000001215533700000000000000100000000000000000000000002173Z01620200331X066000000
1MAIL0000151771BR10        BRNC        BRNCCOCO    BRNCCOCO13AG2020033100:00:00OR  010000034809880003480988151771                             2020033120200331Z016CIF202003310000000000004582NN0                                                  0                                        
2MAIL0000151771BR10        BRNC        BRNCCOCO    BRNCCOCO13AG00000100000000001132033100000000000000100000000000000000000000002291Z01620200331X066000000
2MAIL0000151771BR10        BRNC        BRNCCOCO    BRNCCOCO13AG00000200000000001132036700000000000000100000000000000000000000002291Z01620200331X066000000
1MAIL0000151772BR10        BRNC        BRNCCOCO    BRNCCOCO13AG2020033100:00:00OR  010000054131380005413138151772                             2020033120200331Z016CIF202003310000000000011770NN0                                                  0                                        
2MAIL0000151772BR10        BRNC        BRNCCOCO    BRNCCOCO13AG00000100000000001239688600000000000001400000000000000000000000005885Z01620200331X066000000
2MAIL0000151772BR10        BRNC        BRNCCOCO    BRNCCOCO13AG00000200000000001239688800000000000001400000000000000000000000005885Z01620200331X066000000
1MAIL0000151773BR10        BRNC        BRNCCOCO    BRNCCOCO13AG2020033100:00:00OR  010000034710220003471022151773                             2020033120200331Z016CIF202003310000000000013600NN0                                                  0                                        
2MAIL0000151773BR10        BRNC        BRNCCOCO    BRNCCOCO13AG00000100000000001132033100000000000000100000000000000000000000002291Z01620200331X066000000
2MAIL0000151773BR10        BRNC        BRNCCOCO    BRNCCOCO13AG00000200000000001236512900000000000002000000000000000000000000004008Z01620200331X066000000
2MAIL0000151773BR10        BRNC        BRNCCOCO    BRNCCOCO13AG00000300000000001236515000000000000002500000000000000000000000005010Z01620200331X066000000
2MAIL0000151773BR10        BRNC        BRNCCOCO    BRNCCOCO13AG00000400000000001236898000000000000000100000000000000000000000002291Z01620200331X066000000
1MAIL0000151774BR10        BRNC        BRNCCOCO    BRNCCOCO13AG2020033100:00:00OR  010000034732750003473275151774                             2020033120200331Z016CIF202003310000000000054437NN0                                                  0                                        
2MAIL0000151774BR10        BRNC        BRNCCOCO    BRNCCOCO13AG00000100000000001132033100000000000000300000000000000000000000006518Z01620200331X066000000
2MAIL0000151774BR10        BRNC        BRNCCOCO    BRNCCOCO13AG00000200000000001132036700000000000000500000000000000000000000010863Z01620200331X066000000
2MAIL0000151774BR10        BRNC        BRNCCOCO    BRNCCOCO13AG00000300000000001132200400000000000000500000000000000000000000010575Z01620200331X066000000
2MAIL0000151774BR10        BRNC        BRNCCOCO    BRNCCOCO13AG00000400000000001215533700000000000000200000000000000000000000004345Z01620200331X066000000
2MAIL0000151774BR10        BRNC        BRNCCOCO    BRNCCOCO13AG00000500000000001231233000000000000000100000000000000000000000005280Z01620200331X066000000
2MAIL0000151774BR10        BRNC        BRNCCOCO    BRNCCOCO13AG00000600000000001236512900000000000001500000000000000000000000002997Z01620200331X066000000
2MAIL0000151774BR10        BRNC        BRNCCOCO    BRNCCOCO13AG00000700000000001236515000000000000001500000000000000000000000002997Z01620200331X066000000
2MAIL0000151774BR10        BRNC        BRNCCOCO    BRNCCOCO13AG00000800000000001239688600000000000001400000000000000000000000005582Z01620200331X066000000
2MAIL0000151774BR10        BRNC        BRNCCOCO    BRNCCOCO13AG00000900000000001242374800000000000000100000000000000000000000005280Z01620200331X066000000
1MAIL0000151775BR10        BRNC        BRNCCOCO    BRNCCOCO13AG2020033100:00:00OR  010000011501250001150125151775                             2020033120200331Z016CIF202003310000000000006461NN0                                                  0                                        
2MAIL0000151775BR10        BRNC        BRNCCOCO    BRNCCOCO13AG00000100000000001132033100000000000000100000000000000000000000002173Z01620200331X066000000
2MAIL0000151775BR10        BRNC        BRNCCOCO    BRNCCOCO13AG00000200000000001132036700000000000000100000000000000000000000002173Z01620200331X066000000
2MAIL0000151775BR10        BRNC        BRNCCOCO    BRNCCOCO13AG00000300000000001132200400000000000000100000000000000000000000002115Z01620200331X066000000
1MAIL0000151776BR10        BRNC        BRNCCOCO    BRNCCOCO13AG2020033100:00:00OR  010000059020500005902050151776                             2020033120200331Z016CIF202003310000000000007335NN0                                                  0                                        
2MAIL0000151776BR10        BRNC        BRNCCOCO    BRNCCOCO13AG00000100000000001132033100000000000000100000000000000000000000001654Z01620200331X066000000
2MAIL0000151776BR10        BRNC        BRNCCOCO    BRNCCOCO13AG00000200000000001132036700000000000000100000000000000000000000001654Z01620200331X066000000
2MAIL0000151776BR10        BRNC        BRNCCOCO    BRNCCOCO13AG00000300000000001132200400000000000000100000000000000000000000002115Z01620200331X066000000
2MAIL0000151776BR10        BRNC        BRNCCOCO    BRNCCOCO13AG00000400000000001236512900000000000000500000000000000000000000000956Z01620200331X066000000
2MAIL0000151776BR10        BRNC        BRNCCOCO    BRNCCOCO13AG00000500000000001236515000000000000000500000000000000000000000000956Z01620200331X066000000
1MAIL0000151777BR10        BRNC        BRNCCOCO    BRNCCOCO13AG2020033100:00:00OR  010000028834780002883478151777                             2020033120200331Z016CIF202003310000000000017550NN0                                                  0                                        
2MAIL0000151777BR10        BRNC        BRNCCOCO    BRNCCOCO13AG00000100000000001132019800000000000000100000000000000000000000002076Z01620200331X066000000
2MAIL0000151777BR10        BRNC        BRNCCOCO    BRNCCOCO13AG00000200000000001132020900000000000000100000000000000000000000002076Z01620200331X066000000
2MAIL0000151777BR10        BRNC        BRNCCOCO    BRNCCOCO13AG00000300000000001132033100000000000000100000000000000000000000002291Z01620200331X066000000
2MAIL0000151777BR10        BRNC        BRNCCOCO    BRNCCOCO13AG00000400000000001132200400000000000000200000000000000000000000004460Z01620200331X066000000
2MAIL0000151777BR10        BRNC        BRNCCOCO    BRNCCOCO13AG00000500000000001236512800000000000000400000000000000000000000000762Z01620200331X066000000
2MAIL0000151777BR10        BRNC        BRNCCOCO    BRNCCOCO13AG00000600000000001239688600000000000001400000000000000000000000005885Z01620200331X066000000
1MAIL0000151778BR10        BRNC        BRNCCOCO    BRNCCOCO13AG2020033100:00:00OR  010000029799420002979942151778                             2020033120200331Z016CIF202003310000000000010263NN0                                                  0                                        
2MAIL0000151778BR10        BRNC        BRNCCOCO    BRNCCOCO13AG00000100000000001132200400000000000000200000000000000000000000004230Z01620200331X066000000
2MAIL0000151778BR10        BRNC        BRNCCOCO    BRNCCOCO13AG00000200000000001236512800000000000000400000000000000000000000000690Z01620200331X066000000
2MAIL0000151778BR10        BRNC        BRNCCOCO    BRNCCOCO13AG00000300000000001239692100000000000001400000000000000000000000005343Z01620200331X066000000
