1MAIL0000151168BR10        BRNC        BRNCCOCO    BRNCCOCO13AG2020032600:00:00OR  010000041755760004175576151168                             2020032620200326Z016CIF202003260000000000041195NN0                                                  0                                        
2MAIL0000151168BR10        BRNC        BRNCCOCO    BRNCCOCO13AG00000100000000001239688600000000000002800000000000000000000000011770Z01620200326X066000000
2MAIL0000151168BR10        BRNC        BRNCCOCO    BRNCCOCO13AG00000200000000001239692000000000000002800000000000000000000000011770Z01620200326X066000000
2MAIL0000151168BR10        BRNC        BRNCCOCO    BRNCCOCO13AG00000300000000001239692300000000000002800000000000000000000000011770Z01620200326X066000000
2MAIL0000151168BR10        BRNC        BRNCCOCO    BRNCCOCO13AG00000400000000001242626100000000000001400000000000000000000000005885Z01620200326X066000000
1MAIL0000151169BR10        BRNC        BRNCCOCO    BRNCCOCO13AG2020032600:00:00OR  010000046433020004643302151169                             2020032620200326Z016CIF202003260000000000052926NN0                                                  0                                        
2MAIL0000151169BR10        BRNC        BRNCCOCO    BRNCCOCO13AG00000100000000001132019700000000000000100000000000000000000000001967Z01620200326X066000000
2MAIL0000151169BR10        BRNC        BRNCCOCO    BRNCCOCO13AG00000200000000001132019800000000000000100000000000000000000000001967Z01620200326X066000000
2MAIL0000151169BR10        BRNC        BRNCCOCO    BRNCCOCO13AG00000300000000001132019900000000000000100000000000000000000000001967Z01620200326X066000000
2MAIL0000151169BR10        BRNC        BRNCCOCO    BRNCCOCO13AG00000400000000001132020900000000000000100000000000000000000000001967Z01620200326X066000000
2MAIL0000151169BR10        BRNC        BRNCCOCO    BRNCCOCO13AG00000500000000001132033100000000000000100000000000000000000000002173Z01620200326X066000000
2MAIL0000151169BR10        BRNC        BRNCCOCO    BRNCCOCO13AG00000600000000001132036700000000000000100000000000000000000000002173Z01620200326X066000000
2MAIL0000151169BR10        BRNC        BRNCCOCO    BRNCCOCO13AG00000700000000001223975300000000000000100000000000000000000000005280Z01620200326X066000000
2MAIL0000151169BR10        BRNC        BRNCCOCO    BRNCCOCO13AG00000800000000001226089600000000000001200000000000000000000000004784Z01620200326X066000000
2MAIL0000151169BR10        BRNC        BRNCCOCO    BRNCCOCO13AG00000900000000001227735000000000000000100000000000000000000000001967Z01620200326X066000000
2MAIL0000151169BR10        BRNC        BRNCCOCO    BRNCCOCO13AG00001000000000001235699800000000000001000000000000000000000000003995Z01620200326X066000000
2MAIL0000151169BR10        BRNC        BRNCCOCO    BRNCCOCO13AG00001100000000001236512800000000000000400000000000000000000000000760Z01620200326X066000000
2MAIL0000151169BR10        BRNC        BRNCCOCO    BRNCCOCO13AG00001200000000001236512900000000000001500000000000000000000000002997Z01620200326X066000000
2MAIL0000151169BR10        BRNC        BRNCCOCO    BRNCCOCO13AG00001300000000001236515000000000000000500000000000000000000000000999Z01620200326X066000000
2MAIL0000151169BR10        BRNC        BRNCCOCO    BRNCCOCO13AG00001400000000001236898000000000000000100000000000000000000000002173Z01620200326X066000000
2MAIL0000151169BR10        BRNC        BRNCCOCO    BRNCCOCO13AG00001500000000001239373700000000000000100000000000000000000000006593Z01620200326X066000000
2MAIL0000151169BR10        BRNC        BRNCCOCO    BRNCCOCO13AG00001600000000001239688800000000000001400000000000000000000000005582Z01620200326X066000000
2MAIL0000151169BR10        BRNC        BRNCCOCO    BRNCCOCO13AG00001700000000001239692100000000000001400000000000000000000000005582Z01620200326X066000000
1MAIL0000151170BR10        BRNC        BRNCCOCO    BRNCCOCO13AG2020032600:00:00OR  010000042256920004225692151170                             2020032620200326Z016CIF202003260000000000123330NN0                                                  0                                        
2MAIL0000151170BR10        BRNC        BRNCCOCO    BRNCCOCO13AG00000100000000001132019800000000000000100000000000000000000000002076Z01620200326X066000000
2MAIL0000151170BR10        BRNC        BRNCCOCO    BRNCCOCO13AG00000200000000001132020900000000000000100000000000000000000000002076Z01620200326X066000000
2MAIL0000151170BR10        BRNC        BRNCCOCO    BRNCCOCO13AG00000300000000001132033100000000000000200000000000000000000000004581Z01620200326X066000000
2MAIL0000151170BR10        BRNC        BRNCCOCO    BRNCCOCO13AG00000400000000001132036700000000000000100000000000000000000000002291Z01620200326X066000000
2MAIL0000151170BR10        BRNC        BRNCCOCO    BRNCCOCO13AG00000500000000001132200400000000000000100000000000000000000000002230Z01620200326X066000000
2MAIL0000151170BR10        BRNC        BRNCCOCO    BRNCCOCO13AG00000600000000001215533700000000000000200000000000000000000000004581Z01620200326X066000000
2MAIL0000151170BR10        BRNC        BRNCCOCO    BRNCCOCO13AG00000700000000001226089600000000000001200000000000000000000000005045Z01620200326X066000000
2MAIL0000151170BR10        BRNC        BRNCCOCO    BRNCCOCO13AG00000800000000001231231200000000000000100000000000000000000000005568Z01620200326X066000000
2MAIL0000151170BR10        BRNC        BRNCCOCO    BRNCCOCO13AG00000900000000001235699400000000000001000000000000000000000000004211Z01620200326X066000000
2MAIL0000151170BR10        BRNC        BRNCCOCO    BRNCCOCO13AG00001000000000001235699700000000000001000000000000000000000000004211Z01620200326X066000000
2MAIL0000151170BR10        BRNC        BRNCCOCO    BRNCCOCO13AG00001100000000001235699800000000000001000000000000000000000000004211Z01620200326X066000000
2MAIL0000151170BR10        BRNC        BRNCCOCO    BRNCCOCO13AG00001200000000001236512800000000000002000000000000000000000000003813Z01620200326X066000000
2MAIL0000151170BR10        BRNC        BRNCCOCO    BRNCCOCO13AG00001300000000001236512900000000000001000000000000000000000000002004Z01620200326X066000000
2MAIL0000151170BR10        BRNC        BRNCCOCO    BRNCCOCO13AG00001400000000001236515000000000000000500000000000000000000000001002Z01620200326X066000000
2MAIL0000151170BR10        BRNC        BRNCCOCO    BRNCCOCO13AG00001500000000001239663300000000000001400000000000000000000000005885Z01620200326X066000000
2MAIL0000151170BR10        BRNC        BRNCCOCO    BRNCCOCO13AG00001600000000001239688300000000000001400000000000000000000000005885Z01620200326X066000000
2MAIL0000151170BR10        BRNC        BRNCCOCO    BRNCCOCO13AG00001700000000001239688500000000000001400000000000000000000000005885Z01620200326X066000000
2MAIL0000151170BR10        BRNC        BRNCCOCO    BRNCCOCO13AG00001800000000001239688600000000000001400000000000000000000000005885Z01620200326X066000000
2MAIL0000151170BR10        BRNC        BRNCCOCO    BRNCCOCO13AG00001900000000001239688700000000000001400000000000000000000000005885Z01620200326X066000000
2MAIL0000151170BR10        BRNC        BRNCCOCO    BRNCCOCO13AG00002000000000001239688800000000000001400000000000000000000000005885Z01620200326X066000000
2MAIL0000151170BR10        BRNC        BRNCCOCO    BRNCCOCO13AG00002100000000001239692000000000000001400000000000000000000000005885Z01620200326X066000000
2MAIL0000151170BR10        BRNC        BRNCCOCO    BRNCCOCO13AG00002200000000001239692100000000000001400000000000000000000000005885Z01620200326X066000000
2MAIL0000151170BR10        BRNC        BRNCCOCO    BRNCCOCO13AG00002300000000001239692300000000000001400000000000000000000000005885Z01620200326X066000000
2MAIL0000151170BR10        BRNC        BRNCCOCO    BRNCCOCO13AG00002400000000001241577400000000000000500000000000000000000000004810Z01620200326X066000000
2MAIL0000151170BR10        BRNC        BRNCCOCO    BRNCCOCO13AG00002500000000001242626100000000000001400000000000000000000000005885Z01620200326X066000000
2MAIL0000151170BR10        BRNC        BRNCCOCO    BRNCCOCO13AG00002600000000001242754900000000000001400000000000000000000000005885Z01620200326X066000000
2MAIL0000151170BR10        BRNC        BRNCCOCO    BRNCCOCO13AG00002700000000001242765000000000000001400000000000000000000000005885Z01620200326X066000000
1MAIL0000151171BR10        BRNC        BRNCCOCO    BRNCCOCO13AG2020032600:00:00OR  010000057193800005719380151171                             2020032620200326Z016CIF202003260000000000023493NN0                                                  0                                        
2MAIL0000151171BR10        BRNC        BRNCCOCO    BRNCCOCO13AG00000100000000001132018300000000000000100000000000000000000000002845Z01620200326X066000000
2MAIL0000151171BR10        BRNC        BRNCCOCO    BRNCCOCO13AG00000200000000001132019800000000000000100000000000000000000000001581Z01620200326X066000000
2MAIL0000151171BR10        BRNC        BRNCCOCO    BRNCCOCO13AG00000300000000001132020900000000000000100000000000000000000000001581Z01620200326X066000000
2MAIL0000151171BR10        BRNC        BRNCCOCO    BRNCCOCO13AG00000400000000001132033100000000000000100000000000000000000000001746Z01620200326X066000000
2MAIL0000151171BR10        BRNC        BRNCCOCO    BRNCCOCO13AG00000500000000001132036700000000000000200000000000000000000000003491Z01620200326X066000000
2MAIL0000151171BR10        BRNC        BRNCCOCO    BRNCCOCO13AG00000600000000001132200400000000000000100000000000000000000000001980Z01620200326X066000000
2MAIL0000151171BR10        BRNC        BRNCCOCO    BRNCCOCO13AG00000700000000001215533700000000000000200000000000000000000000003491Z01620200326X066000000
2MAIL0000151171BR10        BRNC        BRNCCOCO    BRNCCOCO13AG00000800000000001236512900000000000001000000000000000000000000001574Z01620200326X066000000
2MAIL0000151171BR10        BRNC        BRNCCOCO    BRNCCOCO13AG00000900000000001236515000000000000001000000000000000000000000001574Z01620200326X066000000
2MAIL0000151171BR10        BRNC        BRNCCOCO    BRNCCOCO13AG00001000000000001241623700000000000000200000000000000000000000003630Z01620200326X066000000
