1MAIL0000152061BR10        BRNC        BRNCCOCO    BRNCCOCO13AG2020040200:00:00OR  010000060183710006018371152061                             2020040220200402Z016CIF202004020000000000028560NN0                                                  0                                        
2MAIL0000152061BR10        BRNC        BRNCCOCO    BRNCCOCO13AG00000100000000001132036700000000000000300000000000000000000000006872Z01620200402X066000000
2MAIL0000152061BR10        BRNC        BRNCCOCO    BRNCCOCO13AG00000200000000001215533700000000000000200000000000000000000000004581Z01620200402X066000000
2MAIL0000152061BR10        BRNC        BRNCCOCO    BRNCCOCO13AG00000300000000001221415400000000000000200000000000000000000000007468Z01620200402X066000000
2MAIL0000152061BR10        BRNC        BRNCCOCO    BRNCCOCO13AG00000400000000001227395500000000000000100000000000000000000000002291Z01620200402X066000000
2MAIL0000152061BR10        BRNC        BRNCCOCO    BRNCCOCO13AG00000500000000001231389600000000000000100000000000000000000000002291Z01620200402X066000000
2MAIL0000152061BR10        BRNC        BRNCCOCO    BRNCCOCO13AG00000600000000001236512800000000000000400000000000000000000000000762Z01620200402X066000000
2MAIL0000152061BR10        BRNC        BRNCCOCO    BRNCCOCO13AG00000700000000001236515000000000000001000000000000000000000000002004Z01620200402X066000000
2MAIL0000152061BR10        BRNC        BRNCCOCO    BRNCCOCO13AG00000800000000001236898000000000000000100000000000000000000000002291Z01620200402X066000000
1MAIL0000152062BR10        BRNC        BRNCCOCO    BRNCCOCO13AG2020040200:00:00OR  010000050978270005097827152062                             2020040220200402Z016CIF202004020000000000007644NN0                                                  0                                        
2MAIL0000152062BR10        BRNC        BRNCCOCO    BRNCCOCO13AG00000100000000001132019700000000000000100000000000000000000000002076Z01620200402X066000000
2MAIL0000152062BR10        BRNC        BRNCCOCO    BRNCCOCO13AG00000200000000001228274000000000000000100000000000000000000000005568Z01620200402X066000000
