1MAIL0000151022BR10        BRNC        BRNCCOCO    BRNCCOCO13AG2020032600:00:00OR  010000038299660003829966151022                             2020032620200326Z016CIF202003260000000000134668NN0                                                  0                                        
2MAIL0000151022BR10        BRNC        BRNCCOCO    BRNCCOCO13AG00000100000000001132033100000000000002000000000000000000000000036895Z01620200326X066000000
2MAIL0000151022BR10        BRNC        BRNCCOCO    BRNCCOCO13AG00000200000000001132036700000000000003000000000000000000000000055343Z01620200326X066000000
2MAIL0000151022BR10        BRNC        BRNCCOCO    BRNCCOCO13AG00000300000000001227395500000000000001500000000000000000000000027672Z01620200326X066000000
2MAIL0000151022BR10        BRNC        BRNCCOCO    BRNCCOCO13AG00000400000000001231389600000000000000800000000000000000000000014758Z01620200326X066000000
1MAIL0000151023BR10        BRNC        BRNCCOCO    BRNCCOCO13AG2020032600:00:00OR  010000027496390002749639151023                             2020032620200326Z016CIF202003260000000000156805NN0                                                  0                                        
2MAIL0000151023BR10        BRNC        BRNCCOCO    BRNCCOCO13AG00000100000000001132033100000000000003000000000000000000000000055343Z01620200326X066000000
2MAIL0000151023BR10        BRNC        BRNCCOCO    BRNCCOCO13AG00000200000000001132036700000000000005000000000000000000000000092238Z01620200326X066000000
2MAIL0000151023BR10        BRNC        BRNCCOCO    BRNCCOCO13AG00000300000000001227395500000000000000500000000000000000000000009224Z01620200326X066000000
1MAIL0000151024BR10        BRNC        BRNCCOCO    BRNCCOCO13AG2020032600:00:00OR  010000039761230003976123151024                             2020032620200326Z016CIF202003260000000000066836NN0                                                  0                                        
2MAIL0000151024BR10        BRNC        BRNCCOCO    BRNCCOCO13AG00000100000000001132033100000000000000200000000000000000000000004581Z01620200326X066000000
2MAIL0000151024BR10        BRNC        BRNCCOCO    BRNCCOCO13AG00000200000000001132036700000000000000200000000000000000000000004581Z01620200326X066000000
2MAIL0000151024BR10        BRNC        BRNCCOCO    BRNCCOCO13AG00000300000000001215533700000000000000200000000000000000000000004581Z01620200326X066000000
2MAIL0000151024BR10        BRNC        BRNCCOCO    BRNCCOCO13AG00000400000000001228512700000000000000100000000000000000000000005568Z01620200326X066000000
2MAIL0000151024BR10        BRNC        BRNCCOCO    BRNCCOCO13AG00000500000000001231231200000000000000100000000000000000000000005568Z01620200326X066000000
2MAIL0000151024BR10        BRNC        BRNCCOCO    BRNCCOCO13AG00000600000000001236512900000000000001500000000000000000000000003006Z01620200326X066000000
2MAIL0000151024BR10        BRNC        BRNCCOCO    BRNCCOCO13AG00000700000000001236515000000000000001500000000000000000000000003006Z01620200326X066000000
2MAIL0000151024BR10        BRNC        BRNCCOCO    BRNCCOCO13AG00000800000000001239663300000000000001400000000000000000000000005885Z01620200326X066000000
2MAIL0000151024BR10        BRNC        BRNCCOCO    BRNCCOCO13AG00000900000000001239688600000000000001400000000000000000000000005885Z01620200326X066000000
2MAIL0000151024BR10        BRNC        BRNCCOCO    BRNCCOCO13AG00001000000000001239688800000000000001400000000000000000000000005885Z01620200326X066000000
2MAIL0000151024BR10        BRNC        BRNCCOCO    BRNCCOCO13AG00001100000000001239692100000000000001400000000000000000000000005885Z01620200326X066000000
2MAIL0000151024BR10        BRNC        BRNCCOCO    BRNCCOCO13AG00001200000000001241623700000000000000500000000000000000000000012405Z01620200326X066000000
