1MAIL0000151363BR10        BRNC        BRNCCOCO    BRNCCOCO13AG2020033000:00:00OR  010000050907150005090715151363                             2020033020200330Z016CIF202003300000000000008176NN0                                                  0                                        
2MAIL0000151363BR10        BRNC        BRNCCOCO    BRNCCOCO13AG00000100000000001132036700000000000000100000000000000000000000002291Z01620200330X066000000
2MAIL0000151363BR10        BRNC        BRNCCOCO    BRNCCOCO13AG00000200000000001239688800000000000001400000000000000000000000005885Z01620200330X066000000
1MAIL0000151364BR10        BRNC        BRNCCOCO    BRNCCOCO13AG2020033000:00:00OR  010000061690250006169025151364                             2020033020200330Z016CIF202003300000000000008600NN0                                                  0                                        
2MAIL0000151364BR10        BRNC        BRNCCOCO    BRNCCOCO13AG00000100000000001132036700000000000000100000000000000000000000002241Z01620200330X066000000
2MAIL0000151364BR10        BRNC        BRNCCOCO    BRNCCOCO13AG00000200000000001215533700000000000000100000000000000000000000002241Z01620200330X066000000
2MAIL0000151364BR10        BRNC        BRNCCOCO    BRNCCOCO13AG00000300000000001236515000000000000001000000000000000000000000001960Z01620200330X066000000
2MAIL0000151364BR10        BRNC        BRNCCOCO    BRNCCOCO13AG00000400000000001240924900000000000001200000000000000000000000002158Z01620200330X066000000
1MAIL0000151365BR10        BRNC        BRNCCOCO    BRNCCOCO13AG2020033000:00:00OR  010000059822690005982269151365                             2020033020200330Z016CIF202003300000000000007063NN0                                                  0                                        
2MAIL0000151365BR10        BRNC        BRNCCOCO    BRNCCOCO13AG00000100000000001132033100000000000000100000000000000000000000002291Z01620200330X066000000
2MAIL0000151365BR10        BRNC        BRNCCOCO    BRNCCOCO13AG00000200000000001132036700000000000000100000000000000000000000002291Z01620200330X066000000
2MAIL0000151365BR10        BRNC        BRNCCOCO    BRNCCOCO13AG00000300000000001241623700000000000000100000000000000000000000002481Z01620200330X066000000
1MAIL0000151366BR10        BRNC        BRNCCOCO    BRNCCOCO13AG2020033000:00:00OR  010000029064140002906414151366                             2020033020200330Z016CIF202003300000000000007392NN0                                                  0                                        
2MAIL0000151366BR10        BRNC        BRNCCOCO    BRNCCOCO13AG00000100000000001132036700000000000000100000000000000000000000001654Z01620200330X066000000
2MAIL0000151366BR10        BRNC        BRNCCOCO    BRNCCOCO13AG00000200000000001236512900000000000001500000000000000000000000002869Z01620200330X066000000
2MAIL0000151366BR10        BRNC        BRNCCOCO    BRNCCOCO13AG00000300000000001236515000000000000001500000000000000000000000002869Z01620200330X066000000
1MAIL0000151367BR10        BRNC        BRNCCOCO    BRNCCOCO13AG2020033000:00:00OR  010000039761580003976158151367                             2020033020200330Z079CIF202003300000000000185885NN0                                                  0                                        
2MAIL0000151367BR10        BRNC        BRNCCOCO    BRNCCOCO13AG00000100000000001132018300000000000000100000000000000000000000003549Z07920200330X066000000
2MAIL0000151367BR10        BRNC        BRNCCOCO    BRNCCOCO13AG00000200000000001132019800000000000000100000000000000000000000001974Z07920200330X066000000
2MAIL0000151367BR10        BRNC        BRNCCOCO    BRNCCOCO13AG00000300000000001132033100000000000000500000000000000000000000010892Z07920200330X066000000
2MAIL0000151367BR10        BRNC        BRNCCOCO    BRNCCOCO13AG00000400000000001132036700000000000001000000000000000000000000021786Z07920200330X066000000
2MAIL0000151367BR10        BRNC        BRNCCOCO    BRNCCOCO13AG00000500000000001132200400000000000000100000000000000000000000002121Z07920200330X066000000
2MAIL0000151367BR10        BRNC        BRNCCOCO    BRNCCOCO13AG00000600000000001215533700000000000000500000000000000000000000010892Z07920200330X066000000
2MAIL0000151367BR10        BRNC        BRNCCOCO    BRNCCOCO13AG00000700000000001221415400000000000000100000000000000000000000003549Z07920200330X066000000
2MAIL0000151367BR10        BRNC        BRNCCOCO    BRNCCOCO13AG00000800000000001231389600000000000000100000000000000000000000002179Z07920200330X066000000
2MAIL0000151367BR10        BRNC        BRNCCOCO    BRNCCOCO13AG00000900000000001236512800000000000002000000000000000000000000003801Z07920200330X066000000
2MAIL0000151367BR10        BRNC        BRNCCOCO    BRNCCOCO13AG00001000000000001236512900000000000007000000000000000000000000013982Z07920200330X066000000
2MAIL0000151367BR10        BRNC        BRNCCOCO    BRNCCOCO13AG00001100000000001236515000000000000014000000000000000000000000027964Z07920200330X066000000
2MAIL0000151367BR10        BRNC        BRNCCOCO    BRNCCOCO13AG00001200000000001236898000000000000000100000000000000000000000002179Z07920200330X066000000
2MAIL0000151367BR10        BRNC        BRNCCOCO    BRNCCOCO13AG00001300000000001239663300000000000001400000000000000000000000005593Z07920200330X066000000
2MAIL0000151367BR10        BRNC        BRNCCOCO    BRNCCOCO13AG00001400000000001239688300000000000001400000000000000000000000005593Z07920200330X066000000
2MAIL0000151367BR10        BRNC        BRNCCOCO    BRNCCOCO13AG00001500000000001239688500000000000001400000000000000000000000005593Z07920200330X066000000
2MAIL0000151367BR10        BRNC        BRNCCOCO    BRNCCOCO13AG00001600000000001239688600000000000001400000000000000000000000005593Z07920200330X066000000
2MAIL0000151367BR10        BRNC        BRNCCOCO    BRNCCOCO13AG00001700000000001239688800000000000002800000000000000000000000011184Z07920200330X066000000
2MAIL0000151367BR10        BRNC        BRNCCOCO    BRNCCOCO13AG00001800000000001239692100000000000001400000000000000000000000005593Z07920200330X066000000
2MAIL0000151367BR10        BRNC        BRNCCOCO    BRNCCOCO13AG00001900000000001239692300000000000001400000000000000000000000005593Z07920200330X066000000
2MAIL0000151367BR10        BRNC        BRNCCOCO    BRNCCOCO13AG00002000000000001240924900000000000002000000000000000000000000003666Z07920200330X066000000
2MAIL0000151367BR10        BRNC        BRNCCOCO    BRNCCOCO13AG00002100000000001241577400000000000003000000000000000000000000027413Z07920200330X066000000
2MAIL0000151367BR10        BRNC        BRNCCOCO    BRNCCOCO13AG00002200000000001241623700000000000000200000000000000000000000005196Z07920200330X066000000
