1MAIL0000151679BR10        BRNC        BRNCCOCO    BRNCCOCO13AG2020033100:00:00OR  010000033018280003301828151679                             2020033120200331Z016CIF202003310000000000006375NN0                                                  0                                        
2MAIL0000151679BR10        BRNC        BRNCCOCO    BRNCCOCO13AG00000100000000001132033100000000000000100000000000000000000000002125Z01620200331X066000000
2MAIL0000151679BR10        BRNC        BRNCCOCO    BRNCCOCO13AG00000200000000001132036700000000000000200000000000000000000000004250Z01620200331X066000000
1MAIL0000151680BR10        BRNC        BRNCCOCO    BRNCCOCO13AG2020033100:00:00OR  010000049749310004974931151680                             2020033120200331Z016CIF202003310000000000010845NN0                                                  0                                        
2MAIL0000151680BR10        BRNC        BRNCCOCO    BRNCCOCO13AG00000100000000001132033100000000000000100000000000000000000000001654Z01620200331X066000000
2MAIL0000151680BR10        BRNC        BRNCCOCO    BRNCCOCO13AG00000200000000001132036700000000000000200000000000000000000000003307Z01620200331X066000000
2MAIL0000151680BR10        BRNC        BRNCCOCO    BRNCCOCO13AG00000300000000001132200400000000000000200000000000000000000000004230Z01620200331X066000000
2MAIL0000151680BR10        BRNC        BRNCCOCO    BRNCCOCO13AG00000400000000001215533700000000000000100000000000000000000000001654Z01620200331X066000000
1MAIL0000151681BR10        BRNC        BRNCCOCO    BRNCCOCO13AG2020033100:00:00OR  010000058052490005805249151681                             2020033120200331Z016CIF202003310000000000044204NN0                                                  0                                        
2MAIL0000151681BR10        BRNC        BRNCCOCO    BRNCCOCO13AG00000100000000001132033100000000000000100000000000000000000000002291Z01620200331X066000000
2MAIL0000151681BR10        BRNC        BRNCCOCO    BRNCCOCO13AG00000200000000001132036700000000000000100000000000000000000000002291Z01620200331X066000000
2MAIL0000151681BR10        BRNC        BRNCCOCO    BRNCCOCO13AG00000300000000001132200400000000000000200000000000000000000000004460Z01620200331X066000000
2MAIL0000151681BR10        BRNC        BRNCCOCO    BRNCCOCO13AG00000400000000001215533700000000000000100000000000000000000000002291Z01620200331X066000000
2MAIL0000151681BR10        BRNC        BRNCCOCO    BRNCCOCO13AG00000500000000001227395500000000000000100000000000000000000000002291Z01620200331X066000000
2MAIL0000151681BR10        BRNC        BRNCCOCO    BRNCCOCO13AG00000600000000001231389600000000000000100000000000000000000000002291Z01620200331X066000000
2MAIL0000151681BR10        BRNC        BRNCCOCO    BRNCCOCO13AG00000700000000001235699800000000000001000000000000000000000000004211Z01620200331X066000000
2MAIL0000151681BR10        BRNC        BRNCCOCO    BRNCCOCO13AG00000800000000001236512800000000000001200000000000000000000000002288Z01620200331X066000000
2MAIL0000151681BR10        BRNC        BRNCCOCO    BRNCCOCO13AG00000900000000001236512900000000000002500000000000000000000000005010Z01620200331X066000000
2MAIL0000151681BR10        BRNC        BRNCCOCO    BRNCCOCO13AG00001000000000001236515000000000000002500000000000000000000000005010Z01620200331X066000000
2MAIL0000151681BR10        BRNC        BRNCCOCO    BRNCCOCO13AG00001100000000001239688500000000000001400000000000000000000000005885Z01620200331X066000000
2MAIL0000151681BR10        BRNC        BRNCCOCO    BRNCCOCO13AG00001200000000001239692100000000000001400000000000000000000000005885Z01620200331X066000000
1MAIL0000151682BR10        BRNC        BRNCCOCO    BRNCCOCO13AG2020033100:00:00OR  010000048421020004842102151682                             2020033120200331Z016CIF202003310000000000212480NN0                                                  0                                        
2MAIL0000151682BR10        BRNC        BRNCCOCO    BRNCCOCO13AG00000100000000001132033100000000000000600000000000000000000000013036Z01620200331X066000000
2MAIL0000151682BR10        BRNC        BRNCCOCO    BRNCCOCO13AG00000200000000001132036700000000000001000000000000000000000000021728Z01620200331X066000000
2MAIL0000151682BR10        BRNC        BRNCCOCO    BRNCCOCO13AG00000300000000001215533700000000000000400000000000000000000000008692Z01620200331X066000000
2MAIL0000151682BR10        BRNC        BRNCCOCO    BRNCCOCO13AG00000400000000001221415400000000000000200000000000000000000000007083Z01620200331X066000000
2MAIL0000151682BR10        BRNC        BRNCCOCO    BRNCCOCO13AG00000500000000001226089600000000000004800000000000000000000000018321Z01620200331X066000000
2MAIL0000151682BR10        BRNC        BRNCCOCO    BRNCCOCO13AG00000600000000001227395500000000000000600000000000000000000000013036Z01620200331X066000000
2MAIL0000151682BR10        BRNC        BRNCCOCO    BRNCCOCO13AG00000700000000001231389600000000000000600000000000000000000000013036Z01620200331X066000000
2MAIL0000151682BR10        BRNC        BRNCCOCO    BRNCCOCO13AG00000800000000001239688300000000000002800000000000000000000000010686Z01620200331X066000000
2MAIL0000151682BR10        BRNC        BRNCCOCO    BRNCCOCO13AG00000900000000001239688500000000000002800000000000000000000000010686Z01620200331X066000000
2MAIL0000151682BR10        BRNC        BRNCCOCO    BRNCCOCO13AG00001000000000001239688600000000000002800000000000000000000000010686Z01620200331X066000000
2MAIL0000151682BR10        BRNC        BRNCCOCO    BRNCCOCO13AG00001100000000001239688700000000000002800000000000000000000000010686Z01620200331X066000000
2MAIL0000151682BR10        BRNC        BRNCCOCO    BRNCCOCO13AG00001200000000001239688800000000000005600000000000000000000000021373Z01620200331X066000000
2MAIL0000151682BR10        BRNC        BRNCCOCO    BRNCCOCO13AG00001300000000001239692000000000000002800000000000000000000000010686Z01620200331X066000000
2MAIL0000151682BR10        BRNC        BRNCCOCO    BRNCCOCO13AG00001400000000001239692100000000000005600000000000000000000000021373Z01620200331X066000000
2MAIL0000151682BR10        BRNC        BRNCCOCO    BRNCCOCO13AG00001500000000001239692300000000000002800000000000000000000000010686Z01620200331X066000000
2MAIL0000151682BR10        BRNC        BRNCCOCO    BRNCCOCO13AG00001600000000001242765000000000000002800000000000000000000000010686Z01620200331X066000000
1MAIL0000151683BR10        BRNC        BRNCCOCO    BRNCCOCO13AG2020033100:00:00OR  010000060312650006031265151683                             2020033120200331Z016CIF202003310000000000004582NN0                                                  0                                        
2MAIL0000151683BR10        BRNC        BRNCCOCO    BRNCCOCO13AG00000100000000001132036700000000000000100000000000000000000000002291Z01620200331X066000000
2MAIL0000151683BR10        BRNC        BRNCCOCO    BRNCCOCO13AG00000200000000001215533700000000000000100000000000000000000000002291Z01620200331X066000000
1MAIL0000151684BR10        BRNC        BRNCCOCO    BRNCCOCO13AG2020033100:00:00OR  010000058179960005817996151684                             2020033120200331Z016CIF202003310000000000019390NN0                                                  0                                        
2MAIL0000151684BR10        BRNC        BRNCCOCO    BRNCCOCO13AG00000100000000001241577400000000000001500000000000000000000000014428Z01620200331X066000000
2MAIL0000151684BR10        BRNC        BRNCCOCO    BRNCCOCO13AG00000200000000001241623700000000000000200000000000000000000000004962Z01620200331X066000000
