1MAIL0000150930BR10        BRNC        BRNCCOCO    BRNCCOCO13AG2020032500:00:00OR  010000052027560005202756150930                             2020032520200325Z079CIF202003250000000000136888NN0                                                  0                                        
2MAIL0000150930BR10        BRNC        BRNCCOCO    BRNCCOCO13AG00000100000000001132033100000000000000200000000000000000000000004594Z07920200325X066000000
2MAIL0000150930BR10        BRNC        BRNCCOCO    BRNCCOCO13AG00000200000000001132036700000000000000200000000000000000000000004594Z07920200325X066000000
2MAIL0000150930BR10        BRNC        BRNCCOCO    BRNCCOCO13AG00000300000000001215533700000000000000200000000000000000000000004594Z07920200325X066000000
2MAIL0000150930BR10        BRNC        BRNCCOCO    BRNCCOCO13AG00000400000000001227395500000000000000200000000000000000000000004594Z07920200325X066000000
2MAIL0000150930BR10        BRNC        BRNCCOCO    BRNCCOCO13AG00000500000000001231389600000000000000200000000000000000000000004594Z07920200325X066000000
2MAIL0000150930BR10        BRNC        BRNCCOCO    BRNCCOCO13AG00000600000000001234705800000000000000100000000000000000000000005581Z07920200325X066000000
2MAIL0000150930BR10        BRNC        BRNCCOCO    BRNCCOCO13AG00000700000000001234705900000000000000100000000000000000000000005581Z07920200325X066000000
2MAIL0000150930BR10        BRNC        BRNCCOCO    BRNCCOCO13AG00000800000000001235699800000000000001000000000000000000000000004220Z07920200325X066000000
2MAIL0000150930BR10        BRNC        BRNCCOCO    BRNCCOCO13AG00000900000000001236512900000000000001500000000000000000000000003006Z07920200325X066000000
2MAIL0000150930BR10        BRNC        BRNCCOCO    BRNCCOCO13AG00001000000000001236515000000000000001500000000000000000000000003006Z07920200325X066000000
2MAIL0000150930BR10        BRNC        BRNCCOCO    BRNCCOCO13AG00001100000000001236898000000000000000200000000000000000000000004594Z07920200325X066000000
2MAIL0000150930BR10        BRNC        BRNCCOCO    BRNCCOCO13AG00001200000000001239663300000000000001400000000000000000000000005896Z07920200325X066000000
2MAIL0000150930BR10        BRNC        BRNCCOCO    BRNCCOCO13AG00001300000000001239688600000000000001400000000000000000000000005896Z07920200325X066000000
2MAIL0000150930BR10        BRNC        BRNCCOCO    BRNCCOCO13AG00001400000000001239688800000000000001400000000000000000000000005896Z07920200325X066000000
2MAIL0000150930BR10        BRNC        BRNCCOCO    BRNCCOCO13AG00001500000000001241577400000000000006000000000000000000000000057807Z07920200325X066000000
2MAIL0000150930BR10        BRNC        BRNCCOCO    BRNCCOCO13AG00001600000000001241623700000000000000500000000000000000000000012435Z07920200325X066000000
1MAIL0000150931BR10        BRNC        BRNCCOCO    BRNCCOCO13AG2020032500:00:00OR  010000057460990005746099150931                             2020032520200325Z016CIF202003250000000000021275NN0                                                  0                                        
2MAIL0000150931BR10        BRNC        BRNCCOCO    BRNCCOCO13AG00000100000000001132033100000000000000100000000000000000000000002173Z01620200325X066000000
2MAIL0000150931BR10        BRNC        BRNCCOCO    BRNCCOCO13AG00000200000000001132036700000000000000100000000000000000000000002173Z01620200325X066000000
2MAIL0000150931BR10        BRNC        BRNCCOCO    BRNCCOCO13AG00000300000000001215533700000000000000100000000000000000000000002173Z01620200325X066000000
2MAIL0000150931BR10        BRNC        BRNCCOCO    BRNCCOCO13AG00000400000000001236512800000000000000800000000000000000000000001520Z01620200325X066000000
2MAIL0000150931BR10        BRNC        BRNCCOCO    BRNCCOCO13AG00000500000000001236512900000000000001000000000000000000000000001997Z01620200325X066000000
2MAIL0000150931BR10        BRNC        BRNCCOCO    BRNCCOCO13AG00000600000000001236515000000000000001000000000000000000000000001997Z01620200325X066000000
2MAIL0000150931BR10        BRNC        BRNCCOCO    BRNCCOCO13AG00000700000000001240924900000000000000800000000000000000000000001466Z01620200325X066000000
2MAIL0000150931BR10        BRNC        BRNCCOCO    BRNCCOCO13AG00000800000000001241623700000000000000300000000000000000000000007776Z01620200325X066000000
1MAIL0000150932BR10        BRNC        BRNCCOCO    BRNCCOCO13AG2020032500:00:00OR  010000058240470005824047150932                             2020032520200325Z079CIF202003250000000000013920NN0                                                  0                                        
2MAIL0000150932BR10        BRNC        BRNCCOCO    BRNCCOCO13AG00000100000000001132036700000000000000100000000000000000000000002179Z07920200325X066000000
2MAIL0000150932BR10        BRNC        BRNCCOCO    BRNCCOCO13AG00000200000000001221415400000000000000100000000000000000000000003549Z07920200325X066000000
2MAIL0000150932BR10        BRNC        BRNCCOCO    BRNCCOCO13AG00000300000000001239688800000000000001400000000000000000000000005593Z07920200325X066000000
2MAIL0000150932BR10        BRNC        BRNCCOCO    BRNCCOCO13AG00000400000000001241623700000000000000100000000000000000000000002599Z07920200325X066000000
1MAIL0000150933BR10        BRNC        BRNCCOCO    BRNCCOCO13AG2020032500:00:00OR  010000029554210002955421150933                             2020032520200325Z016CIF202003250000000000106863NN0                                                  0                                        
2MAIL0000150933BR10        BRNC        BRNCCOCO    BRNCCOCO13AG00000100000000001239663300000000000002800000000000000000000000010686Z01620200325X066000000
2MAIL0000150933BR10        BRNC        BRNCCOCO    BRNCCOCO13AG00000200000000001239688300000000000002800000000000000000000000010686Z01620200325X066000000
2MAIL0000150933BR10        BRNC        BRNCCOCO    BRNCCOCO13AG00000300000000001239688600000000000005600000000000000000000000021373Z01620200325X066000000
2MAIL0000150933BR10        BRNC        BRNCCOCO    BRNCCOCO13AG00000400000000001239688800000000000005600000000000000000000000021373Z01620200325X066000000
2MAIL0000150933BR10        BRNC        BRNCCOCO    BRNCCOCO13AG00000500000000001239692000000000000002800000000000000000000000010686Z01620200325X066000000
2MAIL0000150933BR10        BRNC        BRNCCOCO    BRNCCOCO13AG00000600000000001239692100000000000005600000000000000000000000021373Z01620200325X066000000
2MAIL0000150933BR10        BRNC        BRNCCOCO    BRNCCOCO13AG00000700000000001239692300000000000002800000000000000000000000010686Z01620200325X066000000
1MAIL0000150934BR10        BRNC        BRNCCOCO    BRNCCOCO13AG2020032500:00:00OR  010000060313580006031358150934                             2020032520200325Z016CIF202003250000000000062664NN0                                                  0                                        
2MAIL0000150934BR10        BRNC        BRNCCOCO    BRNCCOCO13AG00000100000000001132033100000000000000200000000000000000000000004581Z01620200325X066000000
2MAIL0000150934BR10        BRNC        BRNCCOCO    BRNCCOCO13AG00000200000000001132036700000000000000200000000000000000000000004581Z01620200325X066000000
2MAIL0000150934BR10        BRNC        BRNCCOCO    BRNCCOCO13AG00000300000000001215533700000000000000200000000000000000000000004581Z01620200325X066000000
2MAIL0000150934BR10        BRNC        BRNCCOCO    BRNCCOCO13AG00000400000000001236512800000000000002000000000000000000000000003813Z01620200325X066000000
2MAIL0000150934BR10        BRNC        BRNCCOCO    BRNCCOCO13AG00000500000000001236512900000000000000500000000000000000000000001002Z01620200325X066000000
2MAIL0000150934BR10        BRNC        BRNCCOCO    BRNCCOCO13AG00000600000000001236515000000000000000500000000000000000000000001002Z01620200325X066000000
2MAIL0000150934BR10        BRNC        BRNCCOCO    BRNCCOCO13AG00000700000000001239688600000000000001400000000000000000000000005885Z01620200325X066000000
2MAIL0000150934BR10        BRNC        BRNCCOCO    BRNCCOCO13AG00000800000000001239688800000000000001400000000000000000000000005885Z01620200325X066000000
2MAIL0000150934BR10        BRNC        BRNCCOCO    BRNCCOCO13AG00000900000000001241577400000000000003000000000000000000000000028853Z01620200325X066000000
2MAIL0000150934BR10        BRNC        BRNCCOCO    BRNCCOCO13AG00001000000000001241623700000000000000100000000000000000000000002481Z01620200325X066000000
1MAIL0000150935BR10        BRNC        BRNCCOCO    BRNCCOCO13AG2020032500:00:00OR  010000037564810003756481150935                             2020032520200325Z016CIF202003250000000000140611NN0                                                  0                                        
2MAIL0000150935BR10        BRNC        BRNCCOCO    BRNCCOCO13AG00000100000000001132004000000000000000500000000000000000000000004990Z01620200325X066000000
2MAIL0000150935BR10        BRNC        BRNCCOCO    BRNCCOCO13AG00000200000000001132004200000000000000500000000000000000000000007033Z01620200325X066000000
2MAIL0000150935BR10        BRNC        BRNCCOCO    BRNCCOCO13AG00000300000000001132018300000000000000200000000000000000000000006928Z01620200325X066000000
2MAIL0000150935BR10        BRNC        BRNCCOCO    BRNCCOCO13AG00000400000000001132033100000000000000500000000000000000000000010625Z01620200325X066000000
2MAIL0000150935BR10        BRNC        BRNCCOCO    BRNCCOCO13AG00000500000000001132036700000000000000800000000000000000000000017001Z01620200325X066000000
2MAIL0000150935BR10        BRNC        BRNCCOCO    BRNCCOCO13AG00000600000000001132200400000000000001000000000000000000000000021151Z01620200325X066000000
2MAIL0000150935BR10        BRNC        BRNCCOCO    BRNCCOCO13AG00000700000000001215533700000000000000300000000000000000000000006375Z01620200325X066000000
2MAIL0000150935BR10        BRNC        BRNCCOCO    BRNCCOCO13AG00000800000000001221415400000000000000200000000000000000000000006928Z01620200325X066000000
2MAIL0000150935BR10        BRNC        BRNCCOCO    BRNCCOCO13AG00000900000000001223975300000000000000300000000000000000000000014895Z01620200325X066000000
2MAIL0000150935BR10        BRNC        BRNCCOCO    BRNCCOCO13AG00001000000000001228512700000000000000300000000000000000000000014895Z01620200325X066000000
2MAIL0000150935BR10        BRNC        BRNCCOCO    BRNCCOCO13AG00001100000000001231189200000000000000300000000000000000000000014895Z01620200325X066000000
2MAIL0000150935BR10        BRNC        BRNCCOCO    BRNCCOCO13AG00001200000000001231231200000000000000300000000000000000000000014895Z01620200325X066000000
1MAIL0000150936BR10        BRNC        BRNCCOCO    BRNCCOCO13AG2020032500:00:00OR  010000061672450006167245150936                             2020032520200325Z016CIF202003250000000000061895NN0                                                  0                                        
2MAIL0000150936BR10        BRNC        BRNCCOCO    BRNCCOCO13AG00000100000000001132033100000000000000400000000000000000000000007545Z01620200325X066000000
2MAIL0000150936BR10        BRNC        BRNCCOCO    BRNCCOCO13AG00000200000000001132036700000000000000600000000000000000000000011317Z01620200325X066000000
2MAIL0000150936BR10        BRNC        BRNCCOCO    BRNCCOCO13AG00000300000000001215533700000000000000200000000000000000000000003773Z01620200325X066000000
2MAIL0000150936BR10        BRNC        BRNCCOCO    BRNCCOCO13AG00000400000000001236512900000000000007000000000000000000000000012019Z01620200325X066000000
2MAIL0000150936BR10        BRNC        BRNCCOCO    BRNCCOCO13AG00000500000000001236515000000000000007000000000000000000000000012019Z01620200325X066000000
2MAIL0000150936BR10        BRNC        BRNCCOCO    BRNCCOCO13AG00000600000000001239688600000000000001400000000000000000000000005074Z01620200325X066000000
2MAIL0000150936BR10        BRNC        BRNCCOCO    BRNCCOCO13AG00000700000000001239688800000000000001400000000000000000000000005074Z01620200325X066000000
2MAIL0000150936BR10        BRNC        BRNCCOCO    BRNCCOCO13AG00000800000000001242626100000000000001400000000000000000000000005074Z01620200325X066000000
1MAIL0000150937BR10        BRNC        BRNCCOCO    BRNCCOCO13AG2020032500:00:00OR  010000039091940003909194150937                             2020032520200325Z016CIF202003250000000000016218NN0                                                  0                                        
2MAIL0000150937BR10        BRNC        BRNCCOCO    BRNCCOCO13AG00000100000000001236512800000000000002000000000000000000000000003813Z01620200325X066000000
2MAIL0000150937BR10        BRNC        BRNCCOCO    BRNCCOCO13AG00000200000000001241623700000000000000500000000000000000000000012405Z01620200325X066000000
1MAIL0000150938BR10        BRNC        BRNCCOCO    BRNCCOCO13AG2020032500:00:00OR  010000058228320005822832150938                             2020032520200325Z016CIF202003250000000000008220NN0                                                  0                                        
2MAIL0000150938BR10        BRNC        BRNCCOCO    BRNCCOCO13AG00000100000000001132200400000000000000100000000000000000000000002115Z01620200325X066000000
2MAIL0000150938BR10        BRNC        BRNCCOCO    BRNCCOCO13AG00000200000000001226089600000000000001200000000000000000000000004015Z01620200325X066000000
2MAIL0000150938BR10        BRNC        BRNCCOCO    BRNCCOCO13AG00000300000000001240924900000000000001200000000000000000000000002090Z01620200325X066000000
1MAIL0000150939BR10        BRNC        BRNCCOCO    BRNCCOCO13AG2020032500:00:00OR  010000060895110006089511150939                             2020032520200325Z016CIF202003250000000000039279NN0                                                  0                                        
2MAIL0000150939BR10        BRNC        BRNCCOCO    BRNCCOCO13AG00000100000000001236512900000000000003000000000000000000000000006012Z01620200325X066000000
2MAIL0000150939BR10        BRNC        BRNCCOCO    BRNCCOCO13AG00000200000000001240924900000000000002400000000000000000000000004414Z01620200325X066000000
2MAIL0000150939BR10        BRNC        BRNCCOCO    BRNCCOCO13AG00000300000000001241577400000000000003000000000000000000000000028853Z01620200325X066000000
1MAIL0000150940BR10        BRNC        BRNCCOCO    BRNCCOCO13AG2020032500:00:00OR  010000028987650002898765150940                             2020032520200325Z016CIF202003250000000000062077NN0                                                  0                                        
2MAIL0000150940BR10        BRNC        BRNCCOCO    BRNCCOCO13AG00000100000000001132033100000000000000200000000000000000000000004581Z01620200325X066000000
2MAIL0000150940BR10        BRNC        BRNCCOCO    BRNCCOCO13AG00000200000000001132036700000000000000200000000000000000000000004581Z01620200325X066000000
2MAIL0000150940BR10        BRNC        BRNCCOCO    BRNCCOCO13AG00000300000000001215533700000000000000200000000000000000000000004581Z01620200325X066000000
2MAIL0000150940BR10        BRNC        BRNCCOCO    BRNCCOCO13AG00000400000000001231231200000000000000100000000000000000000000005568Z01620200325X066000000
2MAIL0000150940BR10        BRNC        BRNCCOCO    BRNCCOCO13AG00000500000000001231389600000000000000100000000000000000000000002291Z01620200325X066000000
2MAIL0000150940BR10        BRNC        BRNCCOCO    BRNCCOCO13AG00000600000000001234705900000000000000100000000000000000000000005568Z01620200325X066000000
2MAIL0000150940BR10        BRNC        BRNCCOCO    BRNCCOCO13AG00000700000000001235699800000000000001000000000000000000000000004211Z01620200325X066000000
2MAIL0000150940BR10        BRNC        BRNCCOCO    BRNCCOCO13AG00000800000000001239688300000000000001400000000000000000000000005885Z01620200325X066000000
2MAIL0000150940BR10        BRNC        BRNCCOCO    BRNCCOCO13AG00000900000000001241623700000000000001000000000000000000000000024811Z01620200325X066000000
1MAIL0000150941BR10        BRNC        BRNCCOCO    BRNCCOCO13AG2020032500:00:00OR  010000038299660003829966150941                             2020032520200325Z016CIF202003250000000000019761NN0                                                  0                                        
2MAIL0000150941BR10        BRNC        BRNCCOCO    BRNCCOCO13AG00000100000000001132030900000000000000600000000000000000000000019761Z01620200325X066000000
1MAIL0000150942BR10        BRNC        BRNCCOCO    BRNCCOCO13AG2020032500:00:00OR  010000027496390002749639150942                             2020032520200325Z016CIF202003250000000000308446NN0                                                  0                                        
2MAIL0000150942BR10        BRNC        BRNCCOCO    BRNCCOCO13AG00000100000000001132018300000000000000300000000000000000000000008883Z01620200325X066000000
2MAIL0000150942BR10        BRNC        BRNCCOCO    BRNCCOCO13AG00000200000000001132030900000000000001200000000000000000000000039523Z01620200325X066000000
2MAIL0000150942BR10        BRNC        BRNCCOCO    BRNCCOCO13AG00000300000000001132033900000000000001200000000000000000000000042021Z01620200325X066000000
2MAIL0000150942BR10        BRNC        BRNCCOCO    BRNCCOCO13AG00000400000000001132035000000000000001000000000000000000000000025268Z01620200325X066000000
2MAIL0000150942BR10        BRNC        BRNCCOCO    BRNCCOCO13AG00000500000000001132035100000000000001000000000000000000000000024015Z01620200325X066000000
2MAIL0000150942BR10        BRNC        BRNCCOCO    BRNCCOCO13AG00000600000000001239663300000000000012600000000000000000000000044665Z01620200325X066000000
2MAIL0000150942BR10        BRNC        BRNCCOCO    BRNCCOCO13AG00000700000000001239688300000000000008400000000000000000000000029777Z01620200325X066000000
2MAIL0000150942BR10        BRNC        BRNCCOCO    BRNCCOCO13AG00000800000000001239688500000000000008400000000000000000000000029777Z01620200325X066000000
2MAIL0000150942BR10        BRNC        BRNCCOCO    BRNCCOCO13AG00000900000000001239688600000000000008400000000000000000000000029777Z01620200325X066000000
2MAIL0000150942BR10        BRNC        BRNCCOCO    BRNCCOCO13AG00001000000000001239688700000000000004200000000000000000000000014889Z01620200325X066000000
2MAIL0000150942BR10        BRNC        BRNCCOCO    BRNCCOCO13AG00001100000000001239688800000000000005600000000000000000000000019851Z01620200325X066000000
1MAIL0000150944BR10        BRNC        BRNCCOCO    BRNCCOCO13AG2020032500:00:00OR  010000034710500003471050150944                             2020032520200325Z016CIF202003250000000000034427NN0                                                  0                                        
2MAIL0000150944BR10        BRNC        BRNCCOCO    BRNCCOCO13AG00000100000000001236512800000000000005200000000000000000000000008973Z01620200325X066000000
2MAIL0000150944BR10        BRNC        BRNCCOCO    BRNCCOCO13AG00000200000000001236512900000000000007000000000000000000000000012727Z01620200325X066000000
2MAIL0000150944BR10        BRNC        BRNCCOCO    BRNCCOCO13AG00000300000000001236515000000000000007000000000000000000000000012727Z01620200325X066000000
