1MAIL0000153517BR10        BRNC        BRNCCOCO    BRNCCOCO13AG2020041600:00:00OR  010000053103660005310366153517                             2020041620200416Z016CIF202004160000000000015490NN0                                                  0                                        
2MAIL0000153517BR10        BRNC        BRNCCOCO    BRNCCOCO13AG00000100000000001132033100000000000000100000000000000000000000001654Z01620200416X066000000
2MAIL0000153517BR10        BRNC        BRNCCOCO    BRNCCOCO13AG00000200000000001132036700000000000000100000000000000000000000001654Z01620200416X066000000
2MAIL0000153517BR10        BRNC        BRNCCOCO    BRNCCOCO13AG00000300000000001215533700000000000000100000000000000000000000001654Z01620200416X066000000
2MAIL0000153517BR10        BRNC        BRNCCOCO    BRNCCOCO13AG00000400000000001227395500000000000000100000000000000000000000001654Z01620200416X066000000
2MAIL0000153517BR10        BRNC        BRNCCOCO    BRNCCOCO13AG00000500000000001228274000000000000000100000000000000000000000004437Z01620200416X066000000
2MAIL0000153517BR10        BRNC        BRNCCOCO    BRNCCOCO13AG00000600000000001231189200000000000000100000000000000000000000004437Z01620200416X066000000
1MAIL0000153518BR10        BRNC        BRNCCOCO    BRNCCOCO13AG2020041600:00:00OR  010000047024930004702493153518                             2020041620200416Z138CIF202004160000000000021510NN0                                                  0                                        
2MAIL0000153518BR10        BRNC        BRNCCOCO    BRNCCOCO13AG00000100000000001132033100000000000000100000000000000000000000002157Z13820200416X066000000
2MAIL0000153518BR10        BRNC        BRNCCOCO    BRNCCOCO13AG00000200000000001132036700000000000000500000000000000000000000010783Z13820200416X066000000
2MAIL0000153518BR10        BRNC        BRNCCOCO    BRNCCOCO13AG00000300000000001132200400000000000000100000000000000000000000002099Z13820200416X066000000
2MAIL0000153518BR10        BRNC        BRNCCOCO    BRNCCOCO13AG00000400000000001215533700000000000000100000000000000000000000002157Z13820200416X066000000
2MAIL0000153518BR10        BRNC        BRNCCOCO    BRNCCOCO13AG00000500000000001227395500000000000000100000000000000000000000002157Z13820200416X066000000
2MAIL0000153518BR10        BRNC        BRNCCOCO    BRNCCOCO13AG00000600000000001231389600000000000000100000000000000000000000002157Z13820200416X066000000
1MAIL0000153519BR10        BRNC        BRNCCOCO    BRNCCOCO13AG2020041600:00:00OR  010000034787310003478731153519                             2020041620200416Z079CIF202004160000000000037948NN0                                                  0                                        
2MAIL0000153519BR10        BRNC        BRNCCOCO    BRNCCOCO13AG00000100000000001132036700000000000001000000000000000000000000022970Z07920200416X066000000
2MAIL0000153519BR10        BRNC        BRNCCOCO    BRNCCOCO13AG00000200000000001132200400000000000000200000000000000000000000004472Z07920200416X066000000
2MAIL0000153519BR10        BRNC        BRNCCOCO    BRNCCOCO13AG00000300000000001236512800000000000001200000000000000000000000002288Z07920200416X066000000
2MAIL0000153519BR10        BRNC        BRNCCOCO    BRNCCOCO13AG00000400000000001236512900000000000001500000000000000000000000003006Z07920200416X066000000
2MAIL0000153519BR10        BRNC        BRNCCOCO    BRNCCOCO13AG00000500000000001236515000000000000001500000000000000000000000003006Z07920200416X066000000
2MAIL0000153519BR10        BRNC        BRNCCOCO    BRNCCOCO13AG00000600000000001240924900000000000001200000000000000000000000002206Z07920200416X066000000
1MAIL0000153520BR10        BRNC        BRNCCOCO    BRNCCOCO13AG2020041600:00:00OR  010000033018200003301820153520                             2020041620200416Z016CIF202004160000000000006371NN0                                                  0                                        
2MAIL0000153520BR10        BRNC        BRNCCOCO    BRNCCOCO13AG00000100000000001132019800000000000000100000000000000000000000002076Z01620200416X066000000
2MAIL0000153520BR10        BRNC        BRNCCOCO    BRNCCOCO13AG00000200000000001215533700000000000000100000000000000000000000002291Z01620200416X066000000
2MAIL0000153520BR10        BRNC        BRNCCOCO    BRNCCOCO13AG00000300000000001236515000000000000001000000000000000000000000002004Z01620200416X066000000
1MAIL0000153521BR10        BRNC        BRNCCOCO    BRNCCOCO13AG2020041600:00:00OR  010000054911370005491137153521                             2020041620200416Z016CIF202004160000000000043465NN0                                                  0                                        
2MAIL0000153521BR10        BRNC        BRNCCOCO    BRNCCOCO13AG00000100000000001132036700000000000000200000000000000000000000004345Z01620200416X066000000
2MAIL0000153521BR10        BRNC        BRNCCOCO    BRNCCOCO13AG00000200000000001235699800000000000002000000000000000000000000007988Z01620200416X066000000
2MAIL0000153521BR10        BRNC        BRNCCOCO    BRNCCOCO13AG00000300000000001236512900000000000002500000000000000000000000004993Z01620200416X066000000
2MAIL0000153521BR10        BRNC        BRNCCOCO    BRNCCOCO13AG00000400000000001236515000000000000002500000000000000000000000004993Z01620200416X066000000
2MAIL0000153521BR10        BRNC        BRNCCOCO    BRNCCOCO13AG00000500000000001239663300000000000001400000000000000000000000005582Z01620200416X066000000
2MAIL0000153521BR10        BRNC        BRNCCOCO    BRNCCOCO13AG00000600000000001239688600000000000001400000000000000000000000005582Z01620200416X066000000
2MAIL0000153521BR10        BRNC        BRNCCOCO    BRNCCOCO13AG00000700000000001239688800000000000001400000000000000000000000005582Z01620200416X066000000
2MAIL0000153521BR10        BRNC        BRNCCOCO    BRNCCOCO13AG00000800000000001240924900000000000002400000000000000000000000004400Z01620200416X066000000
1MAIL0000153522BR10        BRNC        BRNCCOCO    BRNCCOCO13AG2020041600:00:00OR  010000060267760006026776153522                             2020041620200416Z016CIF202004160000000000035709NN0                                                  0                                        
2MAIL0000153522BR10        BRNC        BRNCCOCO    BRNCCOCO13AG00000100000000001241577400000000000003000000000000000000000000022748Z01620200416X066000000
2MAIL0000153522BR10        BRNC        BRNCCOCO    BRNCCOCO13AG00000200000000001241623700000000000000500000000000000000000000012961Z01620200416X066000000
1MAIL0000153523BR10        BRNC        BRNCCOCO    BRNCCOCO13AG2020041600:00:00OR  010000028987650002898765153523                             2020041620200416Z016CIF202004160000000000046344NN0                                                  0                                        
2MAIL0000153523BR10        BRNC        BRNCCOCO    BRNCCOCO13AG00000100000000001132030800000000000000400000000000000000000000013791Z01620200416X066000000
2MAIL0000153523BR10        BRNC        BRNCCOCO    BRNCCOCO13AG00000200000000001132030900000000000000400000000000000000000000014229Z01620200416X066000000
2MAIL0000153523BR10        BRNC        BRNCCOCO    BRNCCOCO13AG00000300000000001132033100000000000000200000000000000000000000004581Z01620200416X066000000
2MAIL0000153523BR10        BRNC        BRNCCOCO    BRNCCOCO13AG00000400000000001132036700000000000000200000000000000000000000004581Z01620200416X066000000
2MAIL0000153523BR10        BRNC        BRNCCOCO    BRNCCOCO13AG00000500000000001215533700000000000000200000000000000000000000004581Z01620200416X066000000
2MAIL0000153523BR10        BRNC        BRNCCOCO    BRNCCOCO13AG00000600000000001227395500000000000000200000000000000000000000004581Z01620200416X066000000
1MAIL0000153524BR10        BRNC        BRNCCOCO    BRNCCOCO13AG2020041600:00:00OR  010000028698360002869836153524                             2020041620200416Z016CIF202004160000000000028104NN0                                                  0                                        
2MAIL0000153524BR10        BRNC        BRNCCOCO    BRNCCOCO13AG00000100000000001132033100000000000000100000000000000000000000002291Z01620200416X066000000
2MAIL0000153524BR10        BRNC        BRNCCOCO    BRNCCOCO13AG00000200000000001132036700000000000000200000000000000000000000004581Z01620200416X066000000
2MAIL0000153524BR10        BRNC        BRNCCOCO    BRNCCOCO13AG00000300000000001231231200000000000000100000000000000000000000005568Z01620200416X066000000
2MAIL0000153524BR10        BRNC        BRNCCOCO    BRNCCOCO13AG00000400000000001231233000000000000000100000000000000000000000005568Z01620200416X066000000
2MAIL0000153524BR10        BRNC        BRNCCOCO    BRNCCOCO13AG00000500000000001235699400000000000001000000000000000000000000004211Z01620200416X066000000
2MAIL0000153524BR10        BRNC        BRNCCOCO    BRNCCOCO13AG00000600000000001239688800000000000001400000000000000000000000005885Z01620200416X066000000
1MAIL0000153525BR10        BRNC        BRNCCOCO    BRNCCOCO13AG2020041600:00:00OR  010000049596840004959684153525                             2020041620200416Z016CIF202004160000000000005393NN0                                                  0                                        
2MAIL0000153525BR10        BRNC        BRNCCOCO    BRNCCOCO13AG00000100000000001132019900000000000000100000000000000000000000001681Z01620200416X066000000
2MAIL0000153525BR10        BRNC        BRNCCOCO    BRNCCOCO13AG00000200000000001215533700000000000000100000000000000000000000001856Z01620200416X066000000
2MAIL0000153525BR10        BRNC        BRNCCOCO    BRNCCOCO13AG00000300000000001236898000000000000000100000000000000000000000001856Z01620200416X066000000
1MAIL0000153526BR10        BRNC        BRNCCOCO    BRNCCOCO13AG2020041600:00:00OR  010000051091230005109123153526                             2020041620200416Z016CIF202004160000000000051080NN0                                                  0                                        
2MAIL0000153526BR10        BRNC        BRNCCOCO    BRNCCOCO13AG00000100000000001132019800000000000000200000000000000000000000002782Z01620200416X066000000
2MAIL0000153526BR10        BRNC        BRNCCOCO    BRNCCOCO13AG00000200000000001132020900000000000000100000000000000000000000001391Z01620200416X066000000
2MAIL0000153526BR10        BRNC        BRNCCOCO    BRNCCOCO13AG00000300000000001132033100000000000000300000000000000000000000004581Z01620200416X066000000
2MAIL0000153526BR10        BRNC        BRNCCOCO    BRNCCOCO13AG00000400000000001132036700000000000001600000000000000000000000024429Z01620200416X066000000
2MAIL0000153526BR10        BRNC        BRNCCOCO    BRNCCOCO13AG00000500000000001236512800000000000005200000000000000000000000007414Z01620200416X066000000
2MAIL0000153526BR10        BRNC        BRNCCOCO    BRNCCOCO13AG00000600000000001236515000000000000007000000000000000000000000010483Z01620200416X066000000
1MAIL0000153527BR10        BRNC        BRNCCOCO    BRNCCOCO13AG2020041600:00:00OR  010000054204170005420417153527                             2020041620200416Z016CIF202004160000000000007424NN0                                                  0                                        
2MAIL0000153527BR10        BRNC        BRNCCOCO    BRNCCOCO13AG00000100000000001227395500000000000000200000000000000000000000003712Z01620200416X066000000
2MAIL0000153527BR10        BRNC        BRNCCOCO    BRNCCOCO13AG00000200000000001231389600000000000000200000000000000000000000003712Z01620200416X066000000
1MAIL0000153528BR10        BRNC        BRNCCOCO    BRNCCOCO13AG2020041600:00:00OR  010000054316450005431645153528                             2020041620200416Z016CIF202004160000000000010961NN0                                                  0                                        
2MAIL0000153528BR10        BRNC        BRNCCOCO    BRNCCOCO13AG00000100000000001132019800000000000000100000000000000000000000001681Z01620200416X066000000
2MAIL0000153528BR10        BRNC        BRNCCOCO    BRNCCOCO13AG00000200000000001132036700000000000000200000000000000000000000003712Z01620200416X066000000
2MAIL0000153528BR10        BRNC        BRNCCOCO    BRNCCOCO13AG00000300000000001215533700000000000000300000000000000000000000005568Z01620200416X066000000
1MAIL0000153529BR10        BRNC        BRNCCOCO    BRNCCOCO13AG2020041600:00:00OR  010000060728430006072843153529                             2020041620200416Z016CIF202004160000000000021168NN0                                                  0                                        
2MAIL0000153529BR10        BRNC        BRNCCOCO    BRNCCOCO13AG00000100000000001132018300000000000000100000000000000000000000002845Z01620200416X066000000
2MAIL0000153529BR10        BRNC        BRNCCOCO    BRNCCOCO13AG00000200000000001132019700000000000000100000000000000000000000001581Z01620200416X066000000
2MAIL0000153529BR10        BRNC        BRNCCOCO    BRNCCOCO13AG00000300000000001132036700000000000000200000000000000000000000003491Z01620200416X066000000
2MAIL0000153529BR10        BRNC        BRNCCOCO    BRNCCOCO13AG00000400000000001132200400000000000000100000000000000000000000001980Z01620200416X066000000
2MAIL0000153529BR10        BRNC        BRNCCOCO    BRNCCOCO13AG00000500000000001226089600000000000001200000000000000000000000003830Z01620200416X066000000
2MAIL0000153529BR10        BRNC        BRNCCOCO    BRNCCOCO13AG00000600000000001234705900000000000000100000000000000000000000004241Z01620200416X066000000
2MAIL0000153529BR10        BRNC        BRNCCOCO    BRNCCOCO13AG00000700000000001236512800000000000000400000000000000000000000000598Z01620200416X066000000
2MAIL0000153529BR10        BRNC        BRNCCOCO    BRNCCOCO13AG00000800000000001236515000000000000000500000000000000000000000000787Z01620200416X066000000
2MAIL0000153529BR10        BRNC        BRNCCOCO    BRNCCOCO13AG00000900000000001241623700000000000000100000000000000000000000001815Z01620200416X066000000
1MAIL0000153530BR10        BRNC        BRNCCOCO    BRNCCOCO13AG2020041600:00:00OR  010000061132040006113204153530                             2020041620200416Z005CIF202004160000000000139071NN0                                                  0                                        
2MAIL0000153530BR10        BRNC        BRNCCOCO    BRNCCOCO13AG00000100000000001226089600000000000001200000000000000000000000003493Z00520200416X066000000
2MAIL0000153530BR10        BRNC        BRNCCOCO    BRNCCOCO13AG00000200000000001239663300000000000001400000000000000000000000004075Z00520200416X066000000
2MAIL0000153530BR10        BRNC        BRNCCOCO    BRNCCOCO13AG00000300000000001239688300000000000001400000000000000000000000004075Z00520200416X066000000
2MAIL0000153530BR10        BRNC        BRNCCOCO    BRNCCOCO13AG00000400000000001239688600000000000001400000000000000000000000004075Z00520200416X066000000
2MAIL0000153530BR10        BRNC        BRNCCOCO    BRNCCOCO13AG00000500000000001239688700000000000001400000000000000000000000004075Z00520200416X066000000
2MAIL0000153530BR10        BRNC        BRNCCOCO    BRNCCOCO13AG00000600000000001239688800000000000001400000000000000000000000004075Z00520200416X066000000
2MAIL0000153530BR10        BRNC        BRNCCOCO    BRNCCOCO13AG00000700000000001241577400000000000015000000000000000000000000099502Z00520200416X066000000
2MAIL0000153530BR10        BRNC        BRNCCOCO    BRNCCOCO13AG00000800000000001241623700000000000001000000000000000000000000015701Z00520200416X066000000
1MAIL0000153531BR10        BRNC        BRNCCOCO    BRNCCOCO13AG2020041600:00:00OR  010000009255770000925577153531                             2020041620200416Z016CIF202004160000000000805434NN0                                                  0                                        
2MAIL0000153531BR10        BRNC        BRNCCOCO    BRNCCOCO13AG00000100000000001132018300000000000000800000000000000000000000028330Z01620200416X066000000
2MAIL0000153531BR10        BRNC        BRNCCOCO    BRNCCOCO13AG00000200000000001132033100000000000003200000000000000000000000069528Z01620200416X066000000
2MAIL0000153531BR10        BRNC        BRNCCOCO    BRNCCOCO13AG00000300000000001132200400000000000002400000000000000000000000050762Z01620200416X066000000
2MAIL0000153531BR10        BRNC        BRNCCOCO    BRNCCOCO13AG00000400000000001215533700000000000003200000000000000000000000069528Z01620200416X066000000
2MAIL0000153531BR10        BRNC        BRNCCOCO    BRNCCOCO13AG00000500000000001223975300000000000000800000000000000000000000040612Z01620200416X066000000
2MAIL0000153531BR10        BRNC        BRNCCOCO    BRNCCOCO13AG00000600000000001226089600000000000004800000000000000000000000018321Z01620200416X066000000
2MAIL0000153531BR10        BRNC        BRNCCOCO    BRNCCOCO13AG00000700000000001227395500000000000003200000000000000000000000069528Z01620200416X066000000
2MAIL0000153531BR10        BRNC        BRNCCOCO    BRNCCOCO13AG00000800000000001228512700000000000000800000000000000000000000040612Z01620200416X066000000
2MAIL0000153531BR10        BRNC        BRNCCOCO    BRNCCOCO13AG00000900000000001231189200000000000000800000000000000000000000040612Z01620200416X066000000
2MAIL0000153531BR10        BRNC        BRNCCOCO    BRNCCOCO13AG00001000000000001231389600000000000003200000000000000000000000069528Z01620200416X066000000
2MAIL0000153531BR10        BRNC        BRNCCOCO    BRNCCOCO13AG00001100000000001234705700000000000000200000000000000000000000010153Z01620200416X066000000
2MAIL0000153531BR10        BRNC        BRNCCOCO    BRNCCOCO13AG00001200000000001235699800000000000008000000000000000000000000030594Z01620200416X066000000
2MAIL0000153531BR10        BRNC        BRNCCOCO    BRNCCOCO13AG00001300000000001236898000000000000003200000000000000000000000069528Z01620200416X066000000
2MAIL0000153531BR10        BRNC        BRNCCOCO    BRNCCOCO13AG00001400000000001239373400000000000000200000000000000000000000012678Z01620200416X066000000
2MAIL0000153531BR10        BRNC        BRNCCOCO    BRNCCOCO13AG00001500000000001239373500000000000000200000000000000000000000012678Z01620200416X066000000
2MAIL0000153531BR10        BRNC        BRNCCOCO    BRNCCOCO13AG00001600000000001239373700000000000000200000000000000000000000012678Z01620200416X066000000
2MAIL0000153531BR10        BRNC        BRNCCOCO    BRNCCOCO13AG00001700000000001239663300000000000005600000000000000000000000021373Z01620200416X066000000
2MAIL0000153531BR10        BRNC        BRNCCOCO    BRNCCOCO13AG00001800000000001239688300000000000005600000000000000000000000021373Z01620200416X066000000
2MAIL0000153531BR10        BRNC        BRNCCOCO    BRNCCOCO13AG00001900000000001239688500000000000005600000000000000000000000021373Z01620200416X066000000
2MAIL0000153531BR10        BRNC        BRNCCOCO    BRNCCOCO13AG00002000000000001239688700000000000005600000000000000000000000021373Z01620200416X066000000
2MAIL0000153531BR10        BRNC        BRNCCOCO    BRNCCOCO13AG00002100000000001239692100000000000005600000000000000000000000021373Z01620200416X066000000
2MAIL0000153531BR10        BRNC        BRNCCOCO    BRNCCOCO13AG00002200000000001242374800000000000000200000000000000000000000010153Z01620200416X066000000
2MAIL0000153531BR10        BRNC        BRNCCOCO    BRNCCOCO13AG00002300000000001242626100000000000005600000000000000000000000021373Z01620200416X066000000
2MAIL0000153531BR10        BRNC        BRNCCOCO    BRNCCOCO13AG00002400000000001242765000000000000005600000000000000000000000021373Z01620200416X066000000
1MAIL0000153532BR10        BRNC        BRNCCOCO    BRNCCOCO13AG2020041600:00:00OR  010000029894790002989479153532                             2020041620200416Z016CIF202004160000000000052870NN0                                                  0                                        
2MAIL0000153532BR10        BRNC        BRNCCOCO    BRNCCOCO13AG00000100000000001132019800000000000000100000000000000000000000002076Z01620200416X066000000
2MAIL0000153532BR10        BRNC        BRNCCOCO    BRNCCOCO13AG00000200000000001132019900000000000000100000000000000000000000002076Z01620200416X066000000
2MAIL0000153532BR10        BRNC        BRNCCOCO    BRNCCOCO13AG00000300000000001132020900000000000000100000000000000000000000002076Z01620200416X066000000
2MAIL0000153532BR10        BRNC        BRNCCOCO    BRNCCOCO13AG00000400000000001226089600000000000001200000000000000000000000005045Z01620200416X066000000
2MAIL0000153532BR10        BRNC        BRNCCOCO    BRNCCOCO13AG00000500000000001227735000000000000000100000000000000000000000002076Z01620200416X066000000
2MAIL0000153532BR10        BRNC        BRNCCOCO    BRNCCOCO13AG00000600000000001235699400000000000001000000000000000000000000004211Z01620200416X066000000
2MAIL0000153532BR10        BRNC        BRNCCOCO    BRNCCOCO13AG00000700000000001239663300000000000001400000000000000000000000005885Z01620200416X066000000
2MAIL0000153532BR10        BRNC        BRNCCOCO    BRNCCOCO13AG00000800000000001239688300000000000001400000000000000000000000005885Z01620200416X066000000
2MAIL0000153532BR10        BRNC        BRNCCOCO    BRNCCOCO13AG00000900000000001239688500000000000001400000000000000000000000005885Z01620200416X066000000
2MAIL0000153532BR10        BRNC        BRNCCOCO    BRNCCOCO13AG00001000000000001239688600000000000001400000000000000000000000005885Z01620200416X066000000
2MAIL0000153532BR10        BRNC        BRNCCOCO    BRNCCOCO13AG00001100000000001239688700000000000001400000000000000000000000005885Z01620200416X066000000
2MAIL0000153532BR10        BRNC        BRNCCOCO    BRNCCOCO13AG00001200000000001239692000000000000001400000000000000000000000005885Z01620200416X066000000
1MAIL0000153533BR10        BRNC        BRNCCOCO    BRNCCOCO13AG2020041600:00:00OR  010000047258830004725883153533                             2020041620200416Z016CIF202004160000000000049808NN0                                                  0                                        
2MAIL0000153533BR10        BRNC        BRNCCOCO    BRNCCOCO13AG00000100000000001132020900000000000000100000000000000000000000001498Z01620200416X066000000
2MAIL0000153533BR10        BRNC        BRNCCOCO    BRNCCOCO13AG00000200000000001132036700000000000000100000000000000000000000001654Z01620200416X066000000
2MAIL0000153533BR10        BRNC        BRNCCOCO    BRNCCOCO13AG00000300000000001132400100000000000000100000000000000000000000002286Z01620200416X066000000
2MAIL0000153533BR10        BRNC        BRNCCOCO    BRNCCOCO13AG00000400000000001223975300000000000000100000000000000000000000004437Z01620200416X066000000
2MAIL0000153533BR10        BRNC        BRNCCOCO    BRNCCOCO13AG00000500000000001228512700000000000000100000000000000000000000004437Z01620200416X066000000
2MAIL0000153533BR10        BRNC        BRNCCOCO    BRNCCOCO13AG00000600000000001231189200000000000000100000000000000000000000004437Z01620200416X066000000
2MAIL0000153533BR10        BRNC        BRNCCOCO    BRNCCOCO13AG00000700000000001231231200000000000000100000000000000000000000004437Z01620200416X066000000
2MAIL0000153533BR10        BRNC        BRNCCOCO    BRNCCOCO13AG00000800000000001231233000000000000000100000000000000000000000004437Z01620200416X066000000
2MAIL0000153533BR10        BRNC        BRNCCOCO    BRNCCOCO13AG00000900000000001234705700000000000000100000000000000000000000004437Z01620200416X066000000
2MAIL0000153533BR10        BRNC        BRNCCOCO    BRNCCOCO13AG00001000000000001234705800000000000000100000000000000000000000004437Z01620200416X066000000
2MAIL0000153533BR10        BRNC        BRNCCOCO    BRNCCOCO13AG00001100000000001234705900000000000000100000000000000000000000004437Z01620200416X066000000
2MAIL0000153533BR10        BRNC        BRNCCOCO    BRNCCOCO13AG00001200000000001238083500000000000000100000000000000000000000004437Z01620200416X066000000
2MAIL0000153533BR10        BRNC        BRNCCOCO    BRNCCOCO13AG00001300000000001242374800000000000000100000000000000000000000004437Z01620200416X066000000
1MAIL0000153534BR10        BRNC        BRNCCOCO    BRNCCOCO13AG2020041600:00:00OR  010000052830070005283007153534                             2020041620200416Z016CIF202004160000000000036142NN0                                                  0                                        
2MAIL0000153534BR10        BRNC        BRNCCOCO    BRNCCOCO13AG00000100000000001132018300000000000000100000000000000000000000003735Z01620200416X066000000
2MAIL0000153534BR10        BRNC        BRNCCOCO    BRNCCOCO13AG00000200000000001132019900000000000000100000000000000000000000002076Z01620200416X066000000
2MAIL0000153534BR10        BRNC        BRNCCOCO    BRNCCOCO13AG00000300000000001132033100000000000000100000000000000000000000002291Z01620200416X066000000
2MAIL0000153534BR10        BRNC        BRNCCOCO    BRNCCOCO13AG00000400000000001132036700000000000000100000000000000000000000002291Z01620200416X066000000
2MAIL0000153534BR10        BRNC        BRNCCOCO    BRNCCOCO13AG00000500000000001132200400000000000000100000000000000000000000002230Z01620200416X066000000
2MAIL0000153534BR10        BRNC        BRNCCOCO    BRNCCOCO13AG00000600000000001215533700000000000000100000000000000000000000002291Z01620200416X066000000
2MAIL0000153534BR10        BRNC        BRNCCOCO    BRNCCOCO13AG00000700000000001235699400000000000001000000000000000000000000004211Z01620200416X066000000
2MAIL0000153534BR10        BRNC        BRNCCOCO    BRNCCOCO13AG00000800000000001236512800000000000000400000000000000000000000000762Z01620200416X066000000
2MAIL0000153534BR10        BRNC        BRNCCOCO    BRNCCOCO13AG00000900000000001236512900000000000000500000000000000000000000001002Z01620200416X066000000
2MAIL0000153534BR10        BRNC        BRNCCOCO    BRNCCOCO13AG00001000000000001236515000000000000000500000000000000000000000001002Z01620200416X066000000
2MAIL0000153534BR10        BRNC        BRNCCOCO    BRNCCOCO13AG00001100000000001239688600000000000001400000000000000000000000005885Z01620200416X066000000
2MAIL0000153534BR10        BRNC        BRNCCOCO    BRNCCOCO13AG00001200000000001239688800000000000001400000000000000000000000005885Z01620200416X066000000
2MAIL0000153534BR10        BRNC        BRNCCOCO    BRNCCOCO13AG00001300000000001241623700000000000000100000000000000000000000002481Z01620200416X066000000
1MAIL0000153535BR10        BRNC        BRNCCOCO    BRNCCOCO13AG2020041600:00:00OR  010000053296650005329665153535                             2020041620200416Z016CIF202004160000000000011770NN0                                                  0                                        
2MAIL0000153535BR10        BRNC        BRNCCOCO    BRNCCOCO13AG00000100000000001239663300000000000001400000000000000000000000005885Z01620200416X066000000
2MAIL0000153535BR10        BRNC        BRNCCOCO    BRNCCOCO13AG00000200000000001239688800000000000001400000000000000000000000005885Z01620200416X066000000
1MAIL0000153536BR10        BRNC        BRNCCOCO    BRNCCOCO13AG2020041600:00:00OR  010000052980120005298012153536                             2020041620200416Z016CIF202004160000000000025997NN0                                                  0                                        
2MAIL0000153536BR10        BRNC        BRNCCOCO    BRNCCOCO13AG00000100000000001241577400000000000003000000000000000000000000025997Z01620200416X066000000
1MAIL0000153537BR10        BRNC        BRNCCOCO    BRNCCOCO13AG2020041600:00:00OR  010000037557150003755715153537                             2020041620200416Z016CIF202004160000000000013170NN0                                                  0                                        
2MAIL0000153537BR10        BRNC        BRNCCOCO    BRNCCOCO13AG00000100000000001132033100000000000000200000000000000000000000004581Z01620200416X066000000
2MAIL0000153537BR10        BRNC        BRNCCOCO    BRNCCOCO13AG00000200000000001132036700000000000000200000000000000000000000004581Z01620200416X066000000
2MAIL0000153537BR10        BRNC        BRNCCOCO    BRNCCOCO13AG00000300000000001236512900000000000001000000000000000000000000002004Z01620200416X066000000
2MAIL0000153537BR10        BRNC        BRNCCOCO    BRNCCOCO13AG00000400000000001236515000000000000001000000000000000000000000002004Z01620200416X066000000
1MAIL0000153538BR10        BRNC        BRNCCOCO    BRNCCOCO13AG2020041600:00:00OR  010000009250180000925018153538                             2020041620200416Z016CIF202004160000000000026690NN0                                                  0                                        
2MAIL0000153538BR10        BRNC        BRNCCOCO    BRNCCOCO13AG00000100000000001223975300000000000000100000000000000000000000004965Z01620200416X066000000
2MAIL0000153538BR10        BRNC        BRNCCOCO    BRNCCOCO13AG00000200000000001224882700000000000000100000000000000000000000003089Z01620200416X066000000
2MAIL0000153538BR10        BRNC        BRNCCOCO    BRNCCOCO13AG00000300000000001231189200000000000000100000000000000000000000004965Z01620200416X066000000
2MAIL0000153538BR10        BRNC        BRNCCOCO    BRNCCOCO13AG00000400000000001231231200000000000000100000000000000000000000004965Z01620200416X066000000
2MAIL0000153538BR10        BRNC        BRNCCOCO    BRNCCOCO13AG00000500000000001231233000000000000000100000000000000000000000004965Z01620200416X066000000
2MAIL0000153538BR10        BRNC        BRNCCOCO    BRNCCOCO13AG00000600000000001235699800000000000001000000000000000000000000003741Z01620200416X066000000
1MAIL0000153539BR10        BRNC        BRNCCOCO    BRNCCOCO13AG2020041600:00:00OR  010000029838290002983829153539                             2020041620200416Z016CIF202004160000000000019946NN0                                                  0                                        
2MAIL0000153539BR10        BRNC        BRNCCOCO    BRNCCOCO13AG00000100000000001132036700000000000000100000000000000000000000002291Z01620200416X066000000
2MAIL0000153539BR10        BRNC        BRNCCOCO    BRNCCOCO13AG00000200000000001239663300000000000001400000000000000000000000005885Z01620200416X066000000
2MAIL0000153539BR10        BRNC        BRNCCOCO    BRNCCOCO13AG00000300000000001239688800000000000001400000000000000000000000005885Z01620200416X066000000
2MAIL0000153539BR10        BRNC        BRNCCOCO    BRNCCOCO13AG00000400000000001239692300000000000001400000000000000000000000005885Z01620200416X066000000
1MAIL0000153540BR10        BRNC        BRNCCOCO    BRNCCOCO13AG2020041600:00:00OR  010000057054570005705457153540                             2020041620200416Z016CIF202004160000000000022709NN0                                                  0                                        
2MAIL0000153540BR10        BRNC        BRNCCOCO    BRNCCOCO13AG00000100000000001132018300000000000000100000000000000000000000003541Z01620200416X066000000
2MAIL0000153540BR10        BRNC        BRNCCOCO    BRNCCOCO13AG00000200000000001132019700000000000000100000000000000000000000001967Z01620200416X066000000
2MAIL0000153540BR10        BRNC        BRNCCOCO    BRNCCOCO13AG00000300000000001132019800000000000000100000000000000000000000001967Z01620200416X066000000
2MAIL0000153540BR10        BRNC        BRNCCOCO    BRNCCOCO13AG00000400000000001132036700000000000000200000000000000000000000004345Z01620200416X066000000
2MAIL0000153540BR10        BRNC        BRNCCOCO    BRNCCOCO13AG00000500000000001132400100000000000000100000000000000000000000003003Z01620200416X066000000
2MAIL0000153540BR10        BRNC        BRNCCOCO    BRNCCOCO13AG00000600000000001215533700000000000000200000000000000000000000004345Z01620200416X066000000
2MAIL0000153540BR10        BRNC        BRNCCOCO    BRNCCOCO13AG00000700000000001221415400000000000000100000000000000000000000003541Z01620200416X066000000
1MAIL0000153541BR10        BRNC        BRNCCOCO    BRNCCOCO13AG2020041600:00:00OR  010000029798870002979887153541                             2020041620200416Z016CIF202004160000000000080222NN0                                                  0                                        
2MAIL0000153541BR10        BRNC        BRNCCOCO    BRNCCOCO13AG00000100000000001132036700000000000003000000000000000000000000057266Z01620200416X066000000
2MAIL0000153541BR10        BRNC        BRNCCOCO    BRNCCOCO13AG00000200000000001235699800000000000001000000000000000000000000003484Z01620200416X066000000
2MAIL0000153541BR10        BRNC        BRNCCOCO    BRNCCOCO13AG00000300000000001239663300000000000001400000000000000000000000004868Z01620200416X066000000
2MAIL0000153541BR10        BRNC        BRNCCOCO    BRNCCOCO13AG00000400000000001239688600000000000001400000000000000000000000004868Z01620200416X066000000
2MAIL0000153541BR10        BRNC        BRNCCOCO    BRNCCOCO13AG00000500000000001239692000000000000001400000000000000000000000004868Z01620200416X066000000
2MAIL0000153541BR10        BRNC        BRNCCOCO    BRNCCOCO13AG00000600000000001239692100000000000001400000000000000000000000004868Z01620200416X066000000
1MAIL0000153542BR10        BRNC        BRNCCOCO    BRNCCOCO13AG2020041600:00:00OR  010000028516440002851644153542                             2020041620200416Z016CIF202004160000000000127129NN0                                                  0                                        
2MAIL0000153542BR10        BRNC        BRNCCOCO    BRNCCOCO13AG00000100000000001241577400000000000015000000000000000000000000127129Z01620200416X066000000
1MAIL0000153543BR10        BRNC        BRNCCOCO    BRNCCOCO13AG2020041600:00:00OR  010000055253130005525313153543                             2020041620200416Z016CIF202004160000000000023660NN0                                                  0                                        
2MAIL0000153543BR10        BRNC        BRNCCOCO    BRNCCOCO13AG00000100000000001241577400000000000003000000000000000000000000023660Z01620200416X066000000
1MAIL0000153544BR10        BRNC        BRNCCOCO    BRNCCOCO13AG2020041600:00:00OR  010000060225330006022533153544                             2020041620200416Z016CIF202004160000000000124365NN0                                                  0                                        
2MAIL0000153544BR10        BRNC        BRNCCOCO    BRNCCOCO13AG00000100000000001132036700000000000000300000000000000000000000006872Z01620200416X066000000
2MAIL0000153544BR10        BRNC        BRNCCOCO    BRNCCOCO13AG00000200000000001226089600000000000001200000000000000000000000005045Z01620200416X066000000
2MAIL0000153544BR10        BRNC        BRNCCOCO    BRNCCOCO13AG00000300000000001239663300000000000002800000000000000000000000011770Z01620200416X066000000
2MAIL0000153544BR10        BRNC        BRNCCOCO    BRNCCOCO13AG00000400000000001239688300000000000002800000000000000000000000011770Z01620200416X066000000
2MAIL0000153544BR10        BRNC        BRNCCOCO    BRNCCOCO13AG00000500000000001239688500000000000002800000000000000000000000011770Z01620200416X066000000
2MAIL0000153544BR10        BRNC        BRNCCOCO    BRNCCOCO13AG00000600000000001239688600000000000002800000000000000000000000011770Z01620200416X066000000
2MAIL0000153544BR10        BRNC        BRNCCOCO    BRNCCOCO13AG00000700000000001239688700000000000002800000000000000000000000011770Z01620200416X066000000
2MAIL0000153544BR10        BRNC        BRNCCOCO    BRNCCOCO13AG00000800000000001239688800000000000004200000000000000000000000017653Z01620200416X066000000
2MAIL0000153544BR10        BRNC        BRNCCOCO    BRNCCOCO13AG00000900000000001239692000000000000001400000000000000000000000005885Z01620200416X066000000
2MAIL0000153544BR10        BRNC        BRNCCOCO    BRNCCOCO13AG00001000000000001239692100000000000001400000000000000000000000005885Z01620200416X066000000
2MAIL0000153544BR10        BRNC        BRNCCOCO    BRNCCOCO13AG00001100000000001239692300000000000001400000000000000000000000005885Z01620200416X066000000
2MAIL0000153544BR10        BRNC        BRNCCOCO    BRNCCOCO13AG00001200000000001241623700000000000000500000000000000000000000012405Z01620200416X066000000
2MAIL0000153544BR10        BRNC        BRNCCOCO    BRNCCOCO13AG00001300000000001242754900000000000001400000000000000000000000005885Z01620200416X066000000
