1MAIL0000152971BR10        BRNC        BRNCCOCO    BRNCCOCO13AG2020041300:00:00OR  010000043409370004340937152971                             2020041320200413Z016CIF202004130000000000103298NN0                                                  0                                        
2MAIL0000152971BR10        BRNC        BRNCCOCO    BRNCCOCO13AG00000100000000001132019700000000000000100000000000000000000000001967Z01620200413X066000000
2MAIL0000152971BR10        BRNC        BRNCCOCO    BRNCCOCO13AG00000200000000001132019800000000000000100000000000000000000000001967Z01620200413X066000000
2MAIL0000152971BR10        BRNC        BRNCCOCO    BRNCCOCO13AG00000300000000001132036700000000000000500000000000000000000000010863Z01620200413X066000000
2MAIL0000152971BR10        BRNC        BRNCCOCO    BRNCCOCO13AG00000400000000001226089600000000000001200000000000000000000000004580Z01620200413X066000000
2MAIL0000152971BR10        BRNC        BRNCCOCO    BRNCCOCO13AG00000500000000001239663300000000000001400000000000000000000000005343Z01620200413X066000000
2MAIL0000152971BR10        BRNC        BRNCCOCO    BRNCCOCO13AG00000600000000001239688600000000000001400000000000000000000000005343Z01620200413X066000000
2MAIL0000152971BR10        BRNC        BRNCCOCO    BRNCCOCO13AG00000700000000001239688800000000000001400000000000000000000000005343Z01620200413X066000000
2MAIL0000152971BR10        BRNC        BRNCCOCO    BRNCCOCO13AG00000800000000001239692000000000000001400000000000000000000000005343Z01620200413X066000000
2MAIL0000152971BR10        BRNC        BRNCCOCO    BRNCCOCO13AG00000900000000001239692100000000000001400000000000000000000000005343Z01620200413X066000000
2MAIL0000152971BR10        BRNC        BRNCCOCO    BRNCCOCO13AG00001000000000001239692300000000000001400000000000000000000000005343Z01620200413X066000000
2MAIL0000152971BR10        BRNC        BRNCCOCO    BRNCCOCO13AG00001100000000001241577400000000000003000000000000000000000000025997Z01620200413X066000000
2MAIL0000152971BR10        BRNC        BRNCCOCO    BRNCCOCO13AG00001200000000001241623700000000000001000000000000000000000000025866Z01620200413X066000000
1MAIL0000152972BR10        BRNC        BRNCCOCO    BRNCCOCO13AG2020041300:00:00OR  010000039062650003906265152972                             2020041320200413Z016CIF202004130000000000038169NN0                                                  0                                        
2MAIL0000152972BR10        BRNC        BRNCCOCO    BRNCCOCO13AG00000100000000001132036700000000000000100000000000000000000000002291Z01620200413X066000000
2MAIL0000152972BR10        BRNC        BRNCCOCO    BRNCCOCO13AG00000200000000001132200400000000000000100000000000000000000000002230Z01620200413X066000000
2MAIL0000152972BR10        BRNC        BRNCCOCO    BRNCCOCO13AG00000300000000001226089600000000000001200000000000000000000000005045Z01620200413X066000000
2MAIL0000152972BR10        BRNC        BRNCCOCO    BRNCCOCO13AG00000400000000001236512800000000000000400000000000000000000000000762Z01620200413X066000000
2MAIL0000152972BR10        BRNC        BRNCCOCO    BRNCCOCO13AG00000500000000001236512900000000000001000000000000000000000000002004Z01620200413X066000000
2MAIL0000152972BR10        BRNC        BRNCCOCO    BRNCCOCO13AG00000600000000001236515000000000000001000000000000000000000000002004Z01620200413X066000000
2MAIL0000152972BR10        BRNC        BRNCCOCO    BRNCCOCO13AG00000700000000001236898000000000000000100000000000000000000000002291Z01620200413X066000000
2MAIL0000152972BR10        BRNC        BRNCCOCO    BRNCCOCO13AG00000800000000001239688600000000000001400000000000000000000000005885Z01620200413X066000000
2MAIL0000152972BR10        BRNC        BRNCCOCO    BRNCCOCO13AG00000900000000001239688800000000000001400000000000000000000000005885Z01620200413X066000000
2MAIL0000152972BR10        BRNC        BRNCCOCO    BRNCCOCO13AG00001000000000001241577400000000000000500000000000000000000000004810Z01620200413X066000000
2MAIL0000152972BR10        BRNC        BRNCCOCO    BRNCCOCO13AG00001100000000001241623700000000000000200000000000000000000000004962Z01620200413X066000000
