1MAIL0000152823BR10        BRNC        BRNCCOCO    BRNCCOCO13AG2020040900:00:00OR  010000029894170002989417152823                             2020040920200409Z016CIF202004090000000000086382NN0                                                  0                                        
2MAIL0000152823BR10        BRNC        BRNCCOCO    BRNCCOCO13AG00000100000000001132033100000000000001000000000000000000000000022909Z01620200409X066000000
2MAIL0000152823BR10        BRNC        BRNCCOCO    BRNCCOCO13AG00000200000000001132036700000000000001000000000000000000000000022909Z01620200409X066000000
2MAIL0000152823BR10        BRNC        BRNCCOCO    BRNCCOCO13AG00000300000000001215533700000000000001000000000000000000000000022909Z01620200409X066000000
2MAIL0000152823BR10        BRNC        BRNCCOCO    BRNCCOCO13AG00000400000000001239688300000000000001400000000000000000000000005885Z01620200409X066000000
2MAIL0000152823BR10        BRNC        BRNCCOCO    BRNCCOCO13AG00000500000000001239688800000000000001400000000000000000000000005885Z01620200409X066000000
2MAIL0000152823BR10        BRNC        BRNCCOCO    BRNCCOCO13AG00000600000000001239692000000000000001400000000000000000000000005885Z01620200409X066000000
1MAIL0000152824BR10        BRNC        BRNCCOCO    BRNCCOCO13AG2020040900:00:00OR  010000060129490006012949152824                             2020040920200409Z016CIF202004090000000000040687NN0                                                  0                                        
2MAIL0000152824BR10        BRNC        BRNCCOCO    BRNCCOCO13AG00000100000000001132036700000000000000300000000000000000000000006872Z01620200409X066000000
2MAIL0000152824BR10        BRNC        BRNCCOCO    BRNCCOCO13AG00000200000000001241577400000000000003000000000000000000000000028853Z01620200409X066000000
2MAIL0000152824BR10        BRNC        BRNCCOCO    BRNCCOCO13AG00000300000000001241623700000000000000200000000000000000000000004962Z01620200409X066000000
