1MAIL0000150807BR10        BRNC        BRNCCOCO    BRNCCOCO13AG2020032500:00:00OR  010000055253130005525313150807                             2020032520200325Z016CIF202003250000000000028547NN0                                                  0                                        
2MAIL0000150807BR10        BRNC        BRNCCOCO    BRNCCOCO13AG00000100000000001236515000000000000003000000000000000000000000004887Z01620200325X066000000
2MAIL0000150807BR10        BRNC        BRNCCOCO    BRNCCOCO13AG00000200000000001241577400000000000003000000000000000000000000023660Z01620200325X066000000
1MAIL0000150808BR10        BRNC        BRNCCOCO    BRNCCOCO13AG2020032500:00:00OR  010000057403340005740334150808                             2020032520200325Z016CIF202003250000000000011903NN0                                                  0                                        
2MAIL0000150808BR10        BRNC        BRNCCOCO    BRNCCOCO13AG00000100000000001132200400000000000000200000000000000000000000004460Z01620200325X066000000
2MAIL0000150808BR10        BRNC        BRNCCOCO    BRNCCOCO13AG00000200000000001241623700000000000000300000000000000000000000007443Z01620200325X066000000
1MAIL0000150809BR10        BRNC        BRNCCOCO    BRNCCOCO13AG2020032500:00:00OR  010000028566550002856655150809                             2020032520200325Z016CIF202003250000000000062606NN0                                                  0                                        
2MAIL0000150809BR10        BRNC        BRNCCOCO    BRNCCOCO13AG00000100000000001132033100000000000000200000000000000000000000004581Z01620200325X066000000
2MAIL0000150809BR10        BRNC        BRNCCOCO    BRNCCOCO13AG00000200000000001132200400000000000001000000000000000000000000022300Z01620200325X066000000
2MAIL0000150809BR10        BRNC        BRNCCOCO    BRNCCOCO13AG00000300000000001215533700000000000000300000000000000000000000006872Z01620200325X066000000
2MAIL0000150809BR10        BRNC        BRNCCOCO    BRNCCOCO13AG00000400000000001241577400000000000003000000000000000000000000028853Z01620200325X066000000
1MAIL0000150810BR10        BRNC        BRNCCOCO    BRNCCOCO13AG2020032500:00:00OR  010000051058720005105872150810                             2020032520200325Z016CIF202003250000000000019913NN0                                                  0                                        
2MAIL0000150810BR10        BRNC        BRNCCOCO    BRNCCOCO13AG00000100000000001132004000000000000000500000000000000000000000005662Z01620200325X066000000
2MAIL0000150810BR10        BRNC        BRNCCOCO    BRNCCOCO13AG00000200000000001239692100000000000001400000000000000000000000005885Z01620200325X066000000
2MAIL0000150810BR10        BRNC        BRNCCOCO    BRNCCOCO13AG00000300000000001239692300000000000001400000000000000000000000005885Z01620200325X066000000
2MAIL0000150810BR10        BRNC        BRNCCOCO    BRNCCOCO13AG00000400000000001241623700000000000000100000000000000000000000002481Z01620200325X066000000
1MAIL0000150811BR10        BRNC        BRNCCOCO    BRNCCOCO13AG2020032500:00:00OR  010000050432990005043299150811                             2020032520200325Z079CIF202003250000000000031177NN0                                                  0                                        
2MAIL0000150811BR10        BRNC        BRNCCOCO    BRNCCOCO13AG00000100000000001132033100000000000000200000000000000000000000004594Z07920200325X066000000
2MAIL0000150811BR10        BRNC        BRNCCOCO    BRNCCOCO13AG00000200000000001132036700000000000000200000000000000000000000004594Z07920200325X066000000
2MAIL0000150811BR10        BRNC        BRNCCOCO    BRNCCOCO13AG00000300000000001215533700000000000000100000000000000000000000002297Z07920200325X066000000
2MAIL0000150811BR10        BRNC        BRNCCOCO    BRNCCOCO13AG00000400000000001236512900000000000000500000000000000000000000001002Z07920200325X066000000
2MAIL0000150811BR10        BRNC        BRNCCOCO    BRNCCOCO13AG00000500000000001236515000000000000000500000000000000000000000001002Z07920200325X066000000
2MAIL0000150811BR10        BRNC        BRNCCOCO    BRNCCOCO13AG00000600000000001239663300000000000001400000000000000000000000005896Z07920200325X066000000
2MAIL0000150811BR10        BRNC        BRNCCOCO    BRNCCOCO13AG00000700000000001239688600000000000001400000000000000000000000005896Z07920200325X066000000
2MAIL0000150811BR10        BRNC        BRNCCOCO    BRNCCOCO13AG00000800000000001239688800000000000001400000000000000000000000005896Z07920200325X066000000
1MAIL0000150812BR10        BRNC        BRNCCOCO    BRNCCOCO13AG2020032500:00:00OR  010000054468030005446803150812                             2020032520200325Z016CIF202003250000000000002230NN0                                                  0                                        
2MAIL0000150812BR10        BRNC        BRNCCOCO    BRNCCOCO13AG00000100000000001132200400000000000000100000000000000000000000002230Z01620200325X066000000
1MAIL0000150813BR10        BRNC        BRNCCOCO    BRNCCOCO13AG2020032500:00:00OR  010000058228360005822836150813                             2020032520200325Z016CIF202003250000000000010380NN0                                                  0                                        
2MAIL0000150813BR10        BRNC        BRNCCOCO    BRNCCOCO13AG00000100000000001132019700000000000000100000000000000000000000002076Z01620200325X066000000
2MAIL0000150813BR10        BRNC        BRNCCOCO    BRNCCOCO13AG00000200000000001132019800000000000000100000000000000000000000002076Z01620200325X066000000
2MAIL0000150813BR10        BRNC        BRNCCOCO    BRNCCOCO13AG00000300000000001132019900000000000000100000000000000000000000002076Z01620200325X066000000
2MAIL0000150813BR10        BRNC        BRNCCOCO    BRNCCOCO13AG00000400000000001132020900000000000000100000000000000000000000002076Z01620200325X066000000
2MAIL0000150813BR10        BRNC        BRNCCOCO    BRNCCOCO13AG00000500000000001227735000000000000000100000000000000000000000002076Z01620200325X066000000
1MAIL0000150814BR10        BRNC        BRNCCOCO    BRNCCOCO13AG2020032500:00:00OR  010000055789380005578938150814                             2020032520200325Z016CIF202003250000000000035151NN0                                                  0                                        
2MAIL0000150814BR10        BRNC        BRNCCOCO    BRNCCOCO13AG00000100000000001132200400000000000000200000000000000000000000004460Z01620200325X066000000
2MAIL0000150814BR10        BRNC        BRNCCOCO    BRNCCOCO13AG00000200000000001221415400000000000000200000000000000000000000007468Z01620200325X066000000
2MAIL0000150814BR10        BRNC        BRNCCOCO    BRNCCOCO13AG00000300000000001234705800000000000000100000000000000000000000005568Z01620200325X066000000
2MAIL0000150814BR10        BRNC        BRNCCOCO    BRNCCOCO13AG00000400000000001239663300000000000001400000000000000000000000005885Z01620200325X066000000
2MAIL0000150814BR10        BRNC        BRNCCOCO    BRNCCOCO13AG00000500000000001239688800000000000001400000000000000000000000005885Z01620200325X066000000
2MAIL0000150814BR10        BRNC        BRNCCOCO    BRNCCOCO13AG00000600000000001239692100000000000001400000000000000000000000005885Z01620200325X066000000
1MAIL0000150815BR10        BRNC        BRNCCOCO    BRNCCOCO13AG2020032500:00:00OR  010000054778290005477829150815                             2020032520200325Z016CIF202003250000000000016518NN0                                                  0                                        
2MAIL0000150815BR10        BRNC        BRNCCOCO    BRNCCOCO13AG00000100000000001132019800000000000000100000000000000000000000002012Z01620200325X066003000
2MAIL0000150815BR10        BRNC        BRNCCOCO    BRNCCOCO13AG00000200000000001132033100000000000000100000000000000000000000002223Z01620200325X066003000
2MAIL0000150815BR10        BRNC        BRNCCOCO    BRNCCOCO13AG00000300000000001132036700000000000000100000000000000000000000002223Z01620200325X066003000
2MAIL0000150815BR10        BRNC        BRNCCOCO    BRNCCOCO13AG00000400000000001236512900000000000000500000000000000000000000000973Z01620200325X066003000
2MAIL0000150815BR10        BRNC        BRNCCOCO    BRNCCOCO13AG00000500000000001236515000000000000000500000000000000000000000000973Z01620200325X066003000
2MAIL0000150815BR10        BRNC        BRNCCOCO    BRNCCOCO13AG00000600000000001239688800000000000001400000000000000000000000005708Z01620200325X066003000
2MAIL0000150815BR10        BRNC        BRNCCOCO    BRNCCOCO13AG00000700000000001241623700000000000000100000000000000000000000002406Z01620200325X066003000
1MAIL0000150816BR10        BRNC        BRNCCOCO    BRNCCOCO13AG2020032500:00:00OR  010000052036590005203659150816                             2020032520200325Z016CIF202003250000000000032538NN0                                                  0                                        
2MAIL0000150816BR10        BRNC        BRNCCOCO    BRNCCOCO13AG00000100000000001132004000000000000000100000000000000000000000001099Z01620200325X066003000
2MAIL0000150816BR10        BRNC        BRNCCOCO    BRNCCOCO13AG00000200000000001132018300000000000000100000000000000000000000003622Z01620200325X066003000
2MAIL0000150816BR10        BRNC        BRNCCOCO    BRNCCOCO13AG00000300000000001132019800000000000000100000000000000000000000002012Z01620200325X066003000
2MAIL0000150816BR10        BRNC        BRNCCOCO    BRNCCOCO13AG00000400000000001132034900000000000000100000000000000000000000002333Z01620200325X066005000
2MAIL0000150816BR10        BRNC        BRNCCOCO    BRNCCOCO13AG00000500000000001132036700000000000000100000000000000000000000002223Z01620200325X066003000
2MAIL0000150816BR10        BRNC        BRNCCOCO    BRNCCOCO13AG00000600000000001132200400000000000000100000000000000000000000002163Z01620200325X066003000
2MAIL0000150816BR10        BRNC        BRNCCOCO    BRNCCOCO13AG00000700000000001221415400000000000000100000000000000000000000003622Z01620200325X066003000
2MAIL0000150816BR10        BRNC        BRNCCOCO    BRNCCOCO13AG00000800000000001236512800000000000000400000000000000000000000000739Z01620200325X066003000
2MAIL0000150816BR10        BRNC        BRNCCOCO    BRNCCOCO13AG00000900000000001236512900000000000000500000000000000000000000000973Z01620200325X066003000
2MAIL0000150816BR10        BRNC        BRNCCOCO    BRNCCOCO13AG00001000000000001236515000000000000000500000000000000000000000000973Z01620200325X066003000
2MAIL0000150816BR10        BRNC        BRNCCOCO    BRNCCOCO13AG00001100000000001239688800000000000001400000000000000000000000005708Z01620200325X066003000
2MAIL0000150816BR10        BRNC        BRNCCOCO    BRNCCOCO13AG00001200000000001241577400000000000000500000000000000000000000004665Z01620200325X066003000
2MAIL0000150816BR10        BRNC        BRNCCOCO    BRNCCOCO13AG00001300000000001241623700000000000000100000000000000000000000002406Z01620200325X066003000
1MAIL0000150817BR10        BRNC        BRNCCOCO    BRNCCOCO13AG2020032500:00:00OR  010000052001950005200195150817                             2020032520200325Z016CIF202003250000000000032538NN0                                                  0                                        
2MAIL0000150817BR10        BRNC        BRNCCOCO    BRNCCOCO13AG00000100000000001132004000000000000000100000000000000000000000001099Z01620200325X066003000
2MAIL0000150817BR10        BRNC        BRNCCOCO    BRNCCOCO13AG00000200000000001132018300000000000000100000000000000000000000003622Z01620200325X066003000
2MAIL0000150817BR10        BRNC        BRNCCOCO    BRNCCOCO13AG00000300000000001132019800000000000000100000000000000000000000002012Z01620200325X066003000
2MAIL0000150817BR10        BRNC        BRNCCOCO    BRNCCOCO13AG00000400000000001132034900000000000000100000000000000000000000002333Z01620200325X066005000
2MAIL0000150817BR10        BRNC        BRNCCOCO    BRNCCOCO13AG00000500000000001132036700000000000000100000000000000000000000002223Z01620200325X066003000
2MAIL0000150817BR10        BRNC        BRNCCOCO    BRNCCOCO13AG00000600000000001132200400000000000000100000000000000000000000002163Z01620200325X066003000
2MAIL0000150817BR10        BRNC        BRNCCOCO    BRNCCOCO13AG00000700000000001221415400000000000000100000000000000000000000003622Z01620200325X066003000
2MAIL0000150817BR10        BRNC        BRNCCOCO    BRNCCOCO13AG00000800000000001236512800000000000000400000000000000000000000000739Z01620200325X066003000
2MAIL0000150817BR10        BRNC        BRNCCOCO    BRNCCOCO13AG00000900000000001236512900000000000000500000000000000000000000000973Z01620200325X066003000
2MAIL0000150817BR10        BRNC        BRNCCOCO    BRNCCOCO13AG00001000000000001236515000000000000000500000000000000000000000000973Z01620200325X066003000
2MAIL0000150817BR10        BRNC        BRNCCOCO    BRNCCOCO13AG00001100000000001239688800000000000001400000000000000000000000005708Z01620200325X066003000
2MAIL0000150817BR10        BRNC        BRNCCOCO    BRNCCOCO13AG00001200000000001241577400000000000000500000000000000000000000004665Z01620200325X066003000
2MAIL0000150817BR10        BRNC        BRNCCOCO    BRNCCOCO13AG00001300000000001241623700000000000000100000000000000000000000002406Z01620200325X066003000
1MAIL0000150818BR10        BRNC        BRNCCOCO    BRNCCOCO13AG2020032500:00:00OR  010000028538970002853897150818                             2020032520200325Z016CIF202003250000000000017155NN0                                                  0                                        
2MAIL0000150818BR10        BRNC        BRNCCOCO    BRNCCOCO13AG00000100000000001132019800000000000000100000000000000000000000002076Z01620200325X066000000
2MAIL0000150818BR10        BRNC        BRNCCOCO    BRNCCOCO13AG00000200000000001132033100000000000000100000000000000000000000002291Z01620200325X066000000
2MAIL0000150818BR10        BRNC        BRNCCOCO    BRNCCOCO13AG00000300000000001132036700000000000000100000000000000000000000002291Z01620200325X066000000
2MAIL0000150818BR10        BRNC        BRNCCOCO    BRNCCOCO13AG00000400000000001236512900000000000002000000000000000000000000004008Z01620200325X066000000
2MAIL0000150818BR10        BRNC        BRNCCOCO    BRNCCOCO13AG00000500000000001236515000000000000002000000000000000000000000004008Z01620200325X066000000
2MAIL0000150818BR10        BRNC        BRNCCOCO    BRNCCOCO13AG00000600000000001241623700000000000000100000000000000000000000002481Z01620200325X066000000
1MAIL0000150819BR10        BRNC        BRNCCOCO    BRNCCOCO13AG2020032500:00:00OR  010000037572950003757295150819                             2020032520200325Z016CIF202003250000000000116056NN0                                                  0                                        
2MAIL0000150819BR10        BRNC        BRNCCOCO    BRNCCOCO13AG00000100000000001132019800000000000000100000000000000000000000002076Z01620200325X066000000
2MAIL0000150819BR10        BRNC        BRNCCOCO    BRNCCOCO13AG00000200000000001132033100000000000000100000000000000000000000002291Z01620200325X066000000
2MAIL0000150819BR10        BRNC        BRNCCOCO    BRNCCOCO13AG00000300000000001132036700000000000001000000000000000000000000022909Z01620200325X066000000
2MAIL0000150819BR10        BRNC        BRNCCOCO    BRNCCOCO13AG00000400000000001132400100000000000000100000000000000000000000003165Z01620200325X066000000
2MAIL0000150819BR10        BRNC        BRNCCOCO    BRNCCOCO13AG00000500000000001215533700000000000000100000000000000000000000002291Z01620200325X066000000
2MAIL0000150819BR10        BRNC        BRNCCOCO    BRNCCOCO13AG00000600000000001227735000000000000000100000000000000000000000002076Z01620200325X066000000
2MAIL0000150819BR10        BRNC        BRNCCOCO    BRNCCOCO13AG00000700000000001231189200000000000000100000000000000000000000005568Z01620200325X066000000
2MAIL0000150819BR10        BRNC        BRNCCOCO    BRNCCOCO13AG00000800000000001231233000000000000000100000000000000000000000005568Z01620200325X066000000
2MAIL0000150819BR10        BRNC        BRNCCOCO    BRNCCOCO13AG00000900000000001241577400000000000006000000000000000000000000057707Z01620200325X066000000
2MAIL0000150819BR10        BRNC        BRNCCOCO    BRNCCOCO13AG00001000000000001241623700000000000000500000000000000000000000012405Z01620200325X066000000
1MAIL0000150820BR10        BRNC        BRNCCOCO    BRNCCOCO13AG2020032500:00:00OR  010000034742410003474241150820                             2020032520200325Z016CIF202003250000000000019946NN0                                                  0                                        
2MAIL0000150820BR10        BRNC        BRNCCOCO    BRNCCOCO13AG00000100000000001132036700000000000000100000000000000000000000002291Z01620200325X066000000
2MAIL0000150820BR10        BRNC        BRNCCOCO    BRNCCOCO13AG00000200000000001239688600000000000001400000000000000000000000005885Z01620200325X066000000
2MAIL0000150820BR10        BRNC        BRNCCOCO    BRNCCOCO13AG00000300000000001239688800000000000001400000000000000000000000005885Z01620200325X066000000
2MAIL0000150820BR10        BRNC        BRNCCOCO    BRNCCOCO13AG00000400000000001239692100000000000001400000000000000000000000005885Z01620200325X066000000
1MAIL0000150821BR10        BRNC        BRNCCOCO    BRNCCOCO13AG2020032500:00:00OR  010000041227290004122729150821                             2020032520200325Z016CIF202003250000000000126678NN0                                                  0                                        
2MAIL0000150821BR10        BRNC        BRNCCOCO    BRNCCOCO13AG00000100000000001132004000000000000001000000000000000000000000009978Z01620200325X066000000
2MAIL0000150821BR10        BRNC        BRNCCOCO    BRNCCOCO13AG00000200000000001132018300000000000000200000000000000000000000006928Z01620200325X066000000
2MAIL0000150821BR10        BRNC        BRNCCOCO    BRNCCOCO13AG00000300000000001221415400000000000000200000000000000000000000006928Z01620200325X066000000
2MAIL0000150821BR10        BRNC        BRNCCOCO    BRNCCOCO13AG00000400000000001236512800000000000005200000000000000000000000008776Z01620200325X066000000
2MAIL0000150821BR10        BRNC        BRNCCOCO    BRNCCOCO13AG00000500000000001239688600000000000005600000000000000000000000020904Z01620200325X066000000
2MAIL0000150821BR10        BRNC        BRNCCOCO    BRNCCOCO13AG00000600000000001239688800000000000005600000000000000000000000020904Z01620200325X066000000
2MAIL0000150821BR10        BRNC        BRNCCOCO    BRNCCOCO13AG00000700000000001239692100000000000002800000000000000000000000010452Z01620200325X066000000
2MAIL0000150821BR10        BRNC        BRNCCOCO    BRNCCOCO13AG00000800000000001239692300000000000005600000000000000000000000020904Z01620200325X066000000
2MAIL0000150821BR10        BRNC        BRNCCOCO    BRNCCOCO13AG00000900000000001242626100000000000002800000000000000000000000010452Z01620200325X066000000
2MAIL0000150821BR10        BRNC        BRNCCOCO    BRNCCOCO13AG00001000000000001242765000000000000002800000000000000000000000010452Z01620200325X066000000
1MAIL0000150822BR10        BRNC        BRNCCOCO    BRNCCOCO13AG2020032500:00:00OR  010000056872110005687211150822                             2020032520200325Z016CIF202003250000000000451484NN0                                                  0                                        
2MAIL0000150822BR10        BRNC        BRNCCOCO    BRNCCOCO13AG00000100000000001132018300000000000000500000000000000000000000014223Z01620200325X066000000
2MAIL0000150822BR10        BRNC        BRNCCOCO    BRNCCOCO13AG00000200000000001132033100000000000000300000000000000000000000005237Z01620200325X066000000
2MAIL0000150822BR10        BRNC        BRNCCOCO    BRNCCOCO13AG00000300000000001132036700000000000001600000000000000000000000027930Z01620200325X066000000
2MAIL0000150822BR10        BRNC        BRNCCOCO    BRNCCOCO13AG00000400000000001132200400000000000000200000000000000000000000003960Z01620200325X066000000
2MAIL0000150822BR10        BRNC        BRNCCOCO    BRNCCOCO13AG00000500000000001215533700000000000000200000000000000000000000003491Z01620200325X066000000
2MAIL0000150822BR10        BRNC        BRNCCOCO    BRNCCOCO13AG00000600000000001221415400000000000000300000000000000000000000008534Z01620200325X066000000
2MAIL0000150822BR10        BRNC        BRNCCOCO    BRNCCOCO13AG00000700000000001223975300000000000000200000000000000000000000008482Z01620200325X066000000
2MAIL0000150822BR10        BRNC        BRNCCOCO    BRNCCOCO13AG00000800000000001226089600000000000007200000000000000000000000022983Z01620200325X066000000
2MAIL0000150822BR10        BRNC        BRNCCOCO    BRNCCOCO13AG00000900000000001227395500000000000000400000000000000000000000006983Z01620200325X066000000
2MAIL0000150822BR10        BRNC        BRNCCOCO    BRNCCOCO13AG00001000000000001228274000000000000000200000000000000000000000008482Z01620200325X066000000
2MAIL0000150822BR10        BRNC        BRNCCOCO    BRNCCOCO13AG00001100000000001228512700000000000000200000000000000000000000008482Z01620200325X066000000
2MAIL0000150822BR10        BRNC        BRNCCOCO    BRNCCOCO13AG00001200000000001231231200000000000001600000000000000000000000067856Z01620200325X066000000
2MAIL0000150822BR10        BRNC        BRNCCOCO    BRNCCOCO13AG00001300000000001231233000000000000000300000000000000000000000012723Z01620200325X066000000
2MAIL0000150822BR10        BRNC        BRNCCOCO    BRNCCOCO13AG00001400000000001231389600000000000000300000000000000000000000005237Z01620200325X066000000
2MAIL0000150822BR10        BRNC        BRNCCOCO    BRNCCOCO13AG00001500000000001234705700000000000000200000000000000000000000008482Z01620200325X066000000
2MAIL0000150822BR10        BRNC        BRNCCOCO    BRNCCOCO13AG00001600000000001234705800000000000000200000000000000000000000008482Z01620200325X066000000
2MAIL0000150822BR10        BRNC        BRNCCOCO    BRNCCOCO13AG00001700000000001234705900000000000000300000000000000000000000012723Z01620200325X066000000
2MAIL0000150822BR10        BRNC        BRNCCOCO    BRNCCOCO13AG00001800000000001235699400000000000004000000000000000000000000012797Z01620200325X066000000
2MAIL0000150822BR10        BRNC        BRNCCOCO    BRNCCOCO13AG00001900000000001235699700000000000004000000000000000000000000012797Z01620200325X066000000
2MAIL0000150822BR10        BRNC        BRNCCOCO    BRNCCOCO13AG00002000000000001235699800000000000004000000000000000000000000012797Z01620200325X066000000
2MAIL0000150822BR10        BRNC        BRNCCOCO    BRNCCOCO13AG00002100000000001236512800000000000005200000000000000000000000007780Z01620200325X066000000
2MAIL0000150822BR10        BRNC        BRNCCOCO    BRNCCOCO13AG00002200000000001236515000000000000007000000000000000000000000011017Z01620200325X066000000
2MAIL0000150822BR10        BRNC        BRNCCOCO    BRNCCOCO13AG00002300000000001236898000000000000000500000000000000000000000008728Z01620200325X066000000
2MAIL0000150822BR10        BRNC        BRNCCOCO    BRNCCOCO13AG00002400000000001238083500000000000000200000000000000000000000008482Z01620200325X066000000
2MAIL0000150822BR10        BRNC        BRNCCOCO    BRNCCOCO13AG00002500000000001238083600000000000000200000000000000000000000010543Z01620200325X066000000
2MAIL0000150822BR10        BRNC        BRNCCOCO    BRNCCOCO13AG00002600000000001239663300000000000004200000000000000000000000013407Z01620200325X066000000
2MAIL0000150822BR10        BRNC        BRNCCOCO    BRNCCOCO13AG00002700000000001239688300000000000004200000000000000000000000013407Z01620200325X066000000
2MAIL0000150822BR10        BRNC        BRNCCOCO    BRNCCOCO13AG00002800000000001239688500000000000008400000000000000000000000026813Z01620200325X066000000
2MAIL0000150822BR10        BRNC        BRNCCOCO    BRNCCOCO13AG00002900000000001239688600000000000002800000000000000000000000008938Z01620200325X066000000
2MAIL0000150822BR10        BRNC        BRNCCOCO    BRNCCOCO13AG00003000000000001239688800000000000002800000000000000000000000008938Z01620200325X066000000
2MAIL0000150822BR10        BRNC        BRNCCOCO    BRNCCOCO13AG00003100000000001239692000000000000005600000000000000000000000017875Z01620200325X066000000
2MAIL0000150822BR10        BRNC        BRNCCOCO    BRNCCOCO13AG00003200000000001239692100000000000001400000000000000000000000004469Z01620200325X066000000
2MAIL0000150822BR10        BRNC        BRNCCOCO    BRNCCOCO13AG00003300000000001240924900000000000005200000000000000000000000007488Z01620200325X066000000
2MAIL0000150822BR10        BRNC        BRNCCOCO    BRNCCOCO13AG00003400000000001241577400000000000003000000000000000000000000021980Z01620200325X066000000
2MAIL0000150822BR10        BRNC        BRNCCOCO    BRNCCOCO13AG00003500000000001242626100000000000002800000000000000000000000008938Z01620200325X066000000
1MAIL0000150823BR10        BRNC        BRNCCOCO    BRNCCOCO13AG2020032500:00:00OR  010000059721600005972160150823                             2020032520200325Z079CIF202003250000000000016777NN0                                                  0                                        
2MAIL0000150823BR10        BRNC        BRNCCOCO    BRNCCOCO13AG00000100000000001239688600000000000004200000000000000000000000016777Z07920200325X066000000
1MAIL0000150824BR10        BRNC        BRNCCOCO    BRNCCOCO13AG2020032500:00:00OR  010000061442360006144236150824                             2020032520200325Z079CIF202003250000000000030891NN0                                                  0                                        
2MAIL0000150824BR10        BRNC        BRNCCOCO    BRNCCOCO13AG00000100000000001132018300000000000000100000000000000000000000003471Z07920200325X066000000
2MAIL0000150824BR10        BRNC        BRNCCOCO    BRNCCOCO13AG00000200000000001132033100000000000000100000000000000000000000002131Z07920200325X066000000
2MAIL0000150824BR10        BRNC        BRNCCOCO    BRNCCOCO13AG00000300000000001132036700000000000000100000000000000000000000002131Z07920200325X066000000
2MAIL0000150824BR10        BRNC        BRNCCOCO    BRNCCOCO13AG00000400000000001132200400000000000000100000000000000000000000002121Z07920200325X066000000
2MAIL0000150824BR10        BRNC        BRNCCOCO    BRNCCOCO13AG00000500000000001215533700000000000000100000000000000000000000002131Z07920200325X066000000
2MAIL0000150824BR10        BRNC        BRNCCOCO    BRNCCOCO13AG00000600000000001221415400000000000000100000000000000000000000003471Z07920200325X066000000
2MAIL0000150824BR10        BRNC        BRNCCOCO    BRNCCOCO13AG00000700000000001236515000000000000001000000000000000000000000001953Z07920200325X066000000
2MAIL0000150824BR10        BRNC        BRNCCOCO    BRNCCOCO13AG00000800000000001239688600000000000001400000000000000000000000005470Z07920200325X066000000
2MAIL0000150824BR10        BRNC        BRNCCOCO    BRNCCOCO13AG00000900000000001239688800000000000001400000000000000000000000005470Z07920200325X066000000
2MAIL0000150824BR10        BRNC        BRNCCOCO    BRNCCOCO13AG00001000000000001241623700000000000000100000000000000000000000002542Z07920200325X066000000
1MAIL0000150825BR10        BRNC        BRNCCOCO    BRNCCOCO13AG2020032500:00:00OR  010000031803380003180338150825                             2020032520200325Z016CIF202003250000000000397809NN0                                                  0                                        
2MAIL0000150825BR10        BRNC        BRNCCOCO    BRNCCOCO13AG00000100000000001132019700000000000000100000000000000000000000001967Z01620200325X066000000
2MAIL0000150825BR10        BRNC        BRNCCOCO    BRNCCOCO13AG00000200000000001132019800000000000000100000000000000000000000001967Z01620200325X066000000
2MAIL0000150825BR10        BRNC        BRNCCOCO    BRNCCOCO13AG00000300000000001132019900000000000000100000000000000000000000001967Z01620200325X066000000
2MAIL0000150825BR10        BRNC        BRNCCOCO    BRNCCOCO13AG00000400000000001132020900000000000000100000000000000000000000001967Z01620200325X066000000
2MAIL0000150825BR10        BRNC        BRNCCOCO    BRNCCOCO13AG00000500000000001132033100000000000001600000000000000000000000034765Z01620200325X066000000
2MAIL0000150825BR10        BRNC        BRNCCOCO    BRNCCOCO13AG00000600000000001132036700000000000003200000000000000000000000069528Z01620200325X066000000
2MAIL0000150825BR10        BRNC        BRNCCOCO    BRNCCOCO13AG00000700000000001132200400000000000001000000000000000000000000021151Z01620200325X066000000
2MAIL0000150825BR10        BRNC        BRNCCOCO    BRNCCOCO13AG00000800000000001132400100000000000000100000000000000000000000003003Z01620200325X066000000
2MAIL0000150825BR10        BRNC        BRNCCOCO    BRNCCOCO13AG00000900000000001215533700000000000001600000000000000000000000034765Z01620200325X066000000
2MAIL0000150825BR10        BRNC        BRNCCOCO    BRNCCOCO13AG00001000000000001223975300000000000000100000000000000000000000005076Z01620200325X066000000
2MAIL0000150825BR10        BRNC        BRNCCOCO    BRNCCOCO13AG00001100000000001227395500000000000001600000000000000000000000034765Z01620200325X066000000
2MAIL0000150825BR10        BRNC        BRNCCOCO    BRNCCOCO13AG00001200000000001227735000000000000000100000000000000000000000001967Z01620200325X066000000
2MAIL0000150825BR10        BRNC        BRNCCOCO    BRNCCOCO13AG00001300000000001228274000000000000000100000000000000000000000005076Z01620200325X066000000
2MAIL0000150825BR10        BRNC        BRNCCOCO    BRNCCOCO13AG00001400000000001231189200000000000000100000000000000000000000005076Z01620200325X066000000
2MAIL0000150825BR10        BRNC        BRNCCOCO    BRNCCOCO13AG00001500000000001231231200000000000000100000000000000000000000005076Z01620200325X066000000
2MAIL0000150825BR10        BRNC        BRNCCOCO    BRNCCOCO13AG00001600000000001231233000000000000000100000000000000000000000005076Z01620200325X066000000
2MAIL0000150825BR10        BRNC        BRNCCOCO    BRNCCOCO13AG00001700000000001236898000000000000001600000000000000000000000034765Z01620200325X066000000
2MAIL0000150825BR10        BRNC        BRNCCOCO    BRNCCOCO13AG00001800000000001241577400000000000012000000000000000000000000103986Z01620200325X066000000
2MAIL0000150825BR10        BRNC        BRNCCOCO    BRNCCOCO13AG00001900000000001241623700000000000001000000000000000000000000025866Z01620200325X066000000
1MAIL0000150826BR10        BRNC        BRNCCOCO    BRNCCOCO13AG2020032500:00:00OR  010000058052550005805255150826                             2020032520200325Z016CIF202003250000000000055572NN0                                                  0                                        
2MAIL0000150826BR10        BRNC        BRNCCOCO    BRNCCOCO13AG00000100000000001132018300000000000000100000000000000000000000003735Z01620200325X066000000
2MAIL0000150826BR10        BRNC        BRNCCOCO    BRNCCOCO13AG00000200000000001231231200000000000000100000000000000000000000005568Z01620200325X066000000
2MAIL0000150826BR10        BRNC        BRNCCOCO    BRNCCOCO13AG00000300000000001235699400000000000001000000000000000000000000004211Z01620200325X066000000
2MAIL0000150826BR10        BRNC        BRNCCOCO    BRNCCOCO13AG00000400000000001235699700000000000001000000000000000000000000004211Z01620200325X066000000
2MAIL0000150826BR10        BRNC        BRNCCOCO    BRNCCOCO13AG00000500000000001235699800000000000002000000000000000000000000008422Z01620200325X066000000
2MAIL0000150826BR10        BRNC        BRNCCOCO    BRNCCOCO13AG00000600000000001239688600000000000001400000000000000000000000005885Z01620200325X066000000
2MAIL0000150826BR10        BRNC        BRNCCOCO    BRNCCOCO13AG00000700000000001239688800000000000001400000000000000000000000005885Z01620200325X066000000
2MAIL0000150826BR10        BRNC        BRNCCOCO    BRNCCOCO13AG00000800000000001239692000000000000001400000000000000000000000005885Z01620200325X066000000
2MAIL0000150826BR10        BRNC        BRNCCOCO    BRNCCOCO13AG00000900000000001239692100000000000001400000000000000000000000005885Z01620200325X066000000
2MAIL0000150826BR10        BRNC        BRNCCOCO    BRNCCOCO13AG00001000000000001239692300000000000001400000000000000000000000005885Z01620200325X066000000
1MAIL0000150827BR10        BRNC        BRNCCOCO    BRNCCOCO13AG2020032500:00:00OR  010000028480330002848033150827                             2020032520200325Z016CIF202003250000000000020357NN0                                                  0                                        
2MAIL0000150827BR10        BRNC        BRNCCOCO    BRNCCOCO13AG00000100000000001132036700000000000000100000000000000000000000002291Z01620200325X066000000
2MAIL0000150827BR10        BRNC        BRNCCOCO    BRNCCOCO13AG00000200000000001236512800000000000001200000000000000000000000002288Z01620200325X066000000
2MAIL0000150827BR10        BRNC        BRNCCOCO    BRNCCOCO13AG00000300000000001236512900000000000001000000000000000000000000002004Z01620200325X066000000
2MAIL0000150827BR10        BRNC        BRNCCOCO    BRNCCOCO13AG00000400000000001236515000000000000001000000000000000000000000002004Z01620200325X066000000
2MAIL0000150827BR10        BRNC        BRNCCOCO    BRNCCOCO13AG00000500000000001239688800000000000001400000000000000000000000005885Z01620200325X066000000
2MAIL0000150827BR10        BRNC        BRNCCOCO    BRNCCOCO13AG00000600000000001239692100000000000001400000000000000000000000005885Z01620200325X066000000
1MAIL0000150828BR10        BRNC        BRNCCOCO    BRNCCOCO13AG2020032500:00:00OR  010000052339030005233903150828                             2020032520200325Z016CIF202003250000000000253245NN0                                                  0                                        
2MAIL0000150828BR10        BRNC        BRNCCOCO    BRNCCOCO13AG00000100000000001132019700000000000000200000000000000000000000003936Z01620200325X066000000
2MAIL0000150828BR10        BRNC        BRNCCOCO    BRNCCOCO13AG00000200000000001132019800000000000000200000000000000000000000003936Z01620200325X066000000
2MAIL0000150828BR10        BRNC        BRNCCOCO    BRNCCOCO13AG00000300000000001132019900000000000000100000000000000000000000001967Z01620200325X066000000
2MAIL0000150828BR10        BRNC        BRNCCOCO    BRNCCOCO13AG00000400000000001132020900000000000000200000000000000000000000003936Z01620200325X066000000
2MAIL0000150828BR10        BRNC        BRNCCOCO    BRNCCOCO13AG00000500000000001132033100000000000000300000000000000000000000006518Z01620200325X066000000
2MAIL0000150828BR10        BRNC        BRNCCOCO    BRNCCOCO13AG00000600000000001132034900000000000001000000000000000000000000022150Z01620200325X066000000
2MAIL0000150828BR10        BRNC        BRNCCOCO    BRNCCOCO13AG00000700000000001132035100000000000001000000000000000000000000023385Z01620200325X066000000
2MAIL0000150828BR10        BRNC        BRNCCOCO    BRNCCOCO13AG00000800000000001132036700000000000000800000000000000000000000017382Z01620200325X066000000
2MAIL0000150828BR10        BRNC        BRNCCOCO    BRNCCOCO13AG00000900000000001132200400000000000000800000000000000000000000016921Z01620200325X066000000
2MAIL0000150828BR10        BRNC        BRNCCOCO    BRNCCOCO13AG00001000000000001132400100000000000000200000000000000000000000006006Z01620200325X066000000
2MAIL0000150828BR10        BRNC        BRNCCOCO    BRNCCOCO13AG00001100000000001215533700000000000000400000000000000000000000008692Z01620200325X066000000
2MAIL0000150828BR10        BRNC        BRNCCOCO    BRNCCOCO13AG00001200000000001223975300000000000000100000000000000000000000005076Z01620200325X066000000
2MAIL0000150828BR10        BRNC        BRNCCOCO    BRNCCOCO13AG00001300000000001224882700000000000000100000000000000000000000003159Z01620200325X066000000
2MAIL0000150828BR10        BRNC        BRNCCOCO    BRNCCOCO13AG00001400000000001224882800000000000000100000000000000000000000003159Z01620200325X066000000
2MAIL0000150828BR10        BRNC        BRNCCOCO    BRNCCOCO13AG00001500000000001227735000000000000000100000000000000000000000001967Z01620200325X066000000
2MAIL0000150828BR10        BRNC        BRNCCOCO    BRNCCOCO13AG00001600000000001231189200000000000000100000000000000000000000005076Z01620200325X066000000
2MAIL0000150828BR10        BRNC        BRNCCOCO    BRNCCOCO13AG00001700000000001231231200000000000000100000000000000000000000005076Z01620200325X066000000
2MAIL0000150828BR10        BRNC        BRNCCOCO    BRNCCOCO13AG00001800000000001231233000000000000000200000000000000000000000010153Z01620200325X066000000
2MAIL0000150828BR10        BRNC        BRNCCOCO    BRNCCOCO13AG00001900000000001234705700000000000000100000000000000000000000005076Z01620200325X066000000
2MAIL0000150828BR10        BRNC        BRNCCOCO    BRNCCOCO13AG00002000000000001234705800000000000000100000000000000000000000005076Z01620200325X066000000
2MAIL0000150828BR10        BRNC        BRNCCOCO    BRNCCOCO13AG00002100000000001234705900000000000000100000000000000000000000005076Z01620200325X066000000
2MAIL0000150828BR10        BRNC        BRNCCOCO    BRNCCOCO13AG00002200000000001235699400000000000001000000000000000000000000003825Z01620200325X066000000
2MAIL0000150828BR10        BRNC        BRNCCOCO    BRNCCOCO13AG00002300000000001235699700000000000001000000000000000000000000003825Z01620200325X066000000
2MAIL0000150828BR10        BRNC        BRNCCOCO    BRNCCOCO13AG00002400000000001235699800000000000002000000000000000000000000007648Z01620200325X066000000
2MAIL0000150828BR10        BRNC        BRNCCOCO    BRNCCOCO13AG00002500000000001236515000000000000007000000000000000000000000012727Z01620200325X066000000
2MAIL0000150828BR10        BRNC        BRNCCOCO    BRNCCOCO13AG00002600000000001238083500000000000000100000000000000000000000005076Z01620200325X066000000
2MAIL0000150828BR10        BRNC        BRNCCOCO    BRNCCOCO13AG00002700000000001239373400000000000000100000000000000000000000006340Z01620200325X066000000
2MAIL0000150828BR10        BRNC        BRNCCOCO    BRNCCOCO13AG00002800000000001239373500000000000000100000000000000000000000006340Z01620200325X066000000
2MAIL0000150828BR10        BRNC        BRNCCOCO    BRNCCOCO13AG00002900000000001239373600000000000000100000000000000000000000006340Z01620200325X066000000
2MAIL0000150828BR10        BRNC        BRNCCOCO    BRNCCOCO13AG00003000000000001239663300000000000001400000000000000000000000005343Z01620200325X066000000
2MAIL0000150828BR10        BRNC        BRNCCOCO    BRNCCOCO13AG00003100000000001239688300000000000001400000000000000000000000005343Z01620200325X066000000
2MAIL0000150828BR10        BRNC        BRNCCOCO    BRNCCOCO13AG00003200000000001239688600000000000001400000000000000000000000005343Z01620200325X066000000
2MAIL0000150828BR10        BRNC        BRNCCOCO    BRNCCOCO13AG00003300000000001239688700000000000001400000000000000000000000005343Z01620200325X066000000
2MAIL0000150828BR10        BRNC        BRNCCOCO    BRNCCOCO13AG00003400000000001239688800000000000001400000000000000000000000005343Z01620200325X066000000
2MAIL0000150828BR10        BRNC        BRNCCOCO    BRNCCOCO13AG00003500000000001239692000000000000001400000000000000000000000005343Z01620200325X066000000
2MAIL0000150828BR10        BRNC        BRNCCOCO    BRNCCOCO13AG00003600000000001239692100000000000001400000000000000000000000005343Z01620200325X066000000
1MAIL0000150829BR10        BRNC        BRNCCOCO    BRNCCOCO13AG2020032500:00:00OR  010000052344000005234400150829                             2020032520200325Z016CIF202003250000000000507872NN0                                                  0                                        
2MAIL0000150829BR10        BRNC        BRNCCOCO    BRNCCOCO13AG00000100000000001132019700000000000000300000000000000000000000005903Z01620200325X066000000
2MAIL0000150829BR10        BRNC        BRNCCOCO    BRNCCOCO13AG00000200000000001132019800000000000000300000000000000000000000005903Z01620200325X066000000
2MAIL0000150829BR10        BRNC        BRNCCOCO    BRNCCOCO13AG00000300000000001132019900000000000000200000000000000000000000003936Z01620200325X066000000
2MAIL0000150829BR10        BRNC        BRNCCOCO    BRNCCOCO13AG00000400000000001132020900000000000000300000000000000000000000005903Z01620200325X066000000
2MAIL0000150829BR10        BRNC        BRNCCOCO    BRNCCOCO13AG00000500000000001132033100000000000000800000000000000000000000017382Z01620200325X066000000
2MAIL0000150829BR10        BRNC        BRNCCOCO    BRNCCOCO13AG00000600000000001132034900000000000001000000000000000000000000022150Z01620200325X066000000
2MAIL0000150829BR10        BRNC        BRNCCOCO    BRNCCOCO13AG00000700000000001132035000000000000001000000000000000000000000024606Z01620200325X066000000
2MAIL0000150829BR10        BRNC        BRNCCOCO    BRNCCOCO13AG00000800000000001132035100000000000001000000000000000000000000023385Z01620200325X066000000
2MAIL0000150829BR10        BRNC        BRNCCOCO    BRNCCOCO13AG00000900000000001132036700000000000001500000000000000000000000032591Z01620200325X066000000
2MAIL0000150829BR10        BRNC        BRNCCOCO    BRNCCOCO13AG00001000000000001132200400000000000001000000000000000000000000021151Z01620200325X066000000
2MAIL0000150829BR10        BRNC        BRNCCOCO    BRNCCOCO13AG00001100000000001132400100000000000000200000000000000000000000006006Z01620200325X066000000
2MAIL0000150829BR10        BRNC        BRNCCOCO    BRNCCOCO13AG00001200000000001215533700000000000001000000000000000000000000021728Z01620200325X066000000
2MAIL0000150829BR10        BRNC        BRNCCOCO    BRNCCOCO13AG00001300000000001223975300000000000000200000000000000000000000010153Z01620200325X066000000
2MAIL0000150829BR10        BRNC        BRNCCOCO    BRNCCOCO13AG00001400000000001224882700000000000000200000000000000000000000006315Z01620200325X066000000
2MAIL0000150829BR10        BRNC        BRNCCOCO    BRNCCOCO13AG00001500000000001224882800000000000000200000000000000000000000006315Z01620200325X066000000
2MAIL0000150829BR10        BRNC        BRNCCOCO    BRNCCOCO13AG00001600000000001227735000000000000000200000000000000000000000003936Z01620200325X066000000
2MAIL0000150829BR10        BRNC        BRNCCOCO    BRNCCOCO13AG00001700000000001231189200000000000000200000000000000000000000010153Z01620200325X066000000
2MAIL0000150829BR10        BRNC        BRNCCOCO    BRNCCOCO13AG00001800000000001231231200000000000000200000000000000000000000010153Z01620200325X066000000
2MAIL0000150829BR10        BRNC        BRNCCOCO    BRNCCOCO13AG00001900000000001231233000000000000000200000000000000000000000010153Z01620200325X066000000
2MAIL0000150829BR10        BRNC        BRNCCOCO    BRNCCOCO13AG00002000000000001234705700000000000000200000000000000000000000010153Z01620200325X066000000
2MAIL0000150829BR10        BRNC        BRNCCOCO    BRNCCOCO13AG00002100000000001234705800000000000000200000000000000000000000010153Z01620200325X066000000
2MAIL0000150829BR10        BRNC        BRNCCOCO    BRNCCOCO13AG00002200000000001234705900000000000000200000000000000000000000010153Z01620200325X066000000
2MAIL0000150829BR10        BRNC        BRNCCOCO    BRNCCOCO13AG00002300000000001235699400000000000002000000000000000000000000007648Z01620200325X066000000
2MAIL0000150829BR10        BRNC        BRNCCOCO    BRNCCOCO13AG00002400000000001235699700000000000002000000000000000000000000007648Z01620200325X066000000
2MAIL0000150829BR10        BRNC        BRNCCOCO    BRNCCOCO13AG00002500000000001235699800000000000002000000000000000000000000007648Z01620200325X066000000
2MAIL0000150829BR10        BRNC        BRNCCOCO    BRNCCOCO13AG00002600000000001236512800000000000005200000000000000000000000008973Z01620200325X066000000
2MAIL0000150829BR10        BRNC        BRNCCOCO    BRNCCOCO13AG00002700000000001236512900000000000007000000000000000000000000012727Z01620200325X066000000
2MAIL0000150829BR10        BRNC        BRNCCOCO    BRNCCOCO13AG00002800000000001236515000000000000007000000000000000000000000012727Z01620200325X066000000
2MAIL0000150829BR10        BRNC        BRNCCOCO    BRNCCOCO13AG00002900000000001238083500000000000000200000000000000000000000010153Z01620200325X066000000
2MAIL0000150829BR10        BRNC        BRNCCOCO    BRNCCOCO13AG00003000000000001239373400000000000000200000000000000000000000012678Z01620200325X066000000
2MAIL0000150829BR10        BRNC        BRNCCOCO    BRNCCOCO13AG00003100000000001239373500000000000000200000000000000000000000012678Z01620200325X066000000
2MAIL0000150829BR10        BRNC        BRNCCOCO    BRNCCOCO13AG00003200000000001239373600000000000000200000000000000000000000012678Z01620200325X066000000
2MAIL0000150829BR10        BRNC        BRNCCOCO    BRNCCOCO13AG00003300000000001239373700000000000000200000000000000000000000012678Z01620200325X066000000
2MAIL0000150829BR10        BRNC        BRNCCOCO    BRNCCOCO13AG00003400000000001239663300000000000002800000000000000000000000010686Z01620200325X066000000
2MAIL0000150829BR10        BRNC        BRNCCOCO    BRNCCOCO13AG00003500000000001239688300000000000002800000000000000000000000010686Z01620200325X066000000
2MAIL0000150829BR10        BRNC        BRNCCOCO    BRNCCOCO13AG00003600000000001239688600000000000002800000000000000000000000010686Z01620200325X066000000
2MAIL0000150829BR10        BRNC        BRNCCOCO    BRNCCOCO13AG00003700000000001239688700000000000002800000000000000000000000010686Z01620200325X066000000
2MAIL0000150829BR10        BRNC        BRNCCOCO    BRNCCOCO13AG00003800000000001239688800000000000005600000000000000000000000021373Z01620200325X066000000
2MAIL0000150829BR10        BRNC        BRNCCOCO    BRNCCOCO13AG00003900000000001239692000000000000002800000000000000000000000010686Z01620200325X066000000
2MAIL0000150829BR10        BRNC        BRNCCOCO    BRNCCOCO13AG00004000000000001239692100000000000002800000000000000000000000010686Z01620200325X066000000
2MAIL0000150829BR10        BRNC        BRNCCOCO    BRNCCOCO13AG00004100000000001241623700000000000001000000000000000000000000025866Z01620200325X066000000
1MAIL0000150830BR10        BRNC        BRNCCOCO    BRNCCOCO13AG2020032500:00:00OR  010000052344010005234401150830                             2020032520200325Z016CIF202003250000000000071780NN0                                                  0                                        
2MAIL0000150830BR10        BRNC        BRNCCOCO    BRNCCOCO13AG00000100000000001132033100000000000000100000000000000000000000002173Z01620200325X066000000
2MAIL0000150830BR10        BRNC        BRNCCOCO    BRNCCOCO13AG00000200000000001132034900000000000000500000000000000000000000011074Z01620200325X066000000
2MAIL0000150830BR10        BRNC        BRNCCOCO    BRNCCOCO13AG00000300000000001132036700000000000000300000000000000000000000006518Z01620200325X066000000
2MAIL0000150830BR10        BRNC        BRNCCOCO    BRNCCOCO13AG00000400000000001132200400000000000000200000000000000000000000004230Z01620200325X066000000
2MAIL0000150830BR10        BRNC        BRNCCOCO    BRNCCOCO13AG00000500000000001215533700000000000000400000000000000000000000008692Z01620200325X066000000
2MAIL0000150830BR10        BRNC        BRNCCOCO    BRNCCOCO13AG00000600000000001224882700000000000000100000000000000000000000003159Z01620200325X066000000
2MAIL0000150830BR10        BRNC        BRNCCOCO    BRNCCOCO13AG00000700000000001224882800000000000000100000000000000000000000003159Z01620200325X066000000
2MAIL0000150830BR10        BRNC        BRNCCOCO    BRNCCOCO13AG00000800000000001227735000000000000000100000000000000000000000001967Z01620200325X066000000
2MAIL0000150830BR10        BRNC        BRNCCOCO    BRNCCOCO13AG00000900000000001234705700000000000000100000000000000000000000005076Z01620200325X066000000
2MAIL0000150830BR10        BRNC        BRNCCOCO    BRNCCOCO13AG00001000000000001234705800000000000000100000000000000000000000005076Z01620200325X066000000
2MAIL0000150830BR10        BRNC        BRNCCOCO    BRNCCOCO13AG00001100000000001236512800000000000005200000000000000000000000008973Z01620200325X066000000
2MAIL0000150830BR10        BRNC        BRNCCOCO    BRNCCOCO13AG00001200000000001239373500000000000000100000000000000000000000006340Z01620200325X066000000
2MAIL0000150830BR10        BRNC        BRNCCOCO    BRNCCOCO13AG00001300000000001239688700000000000001400000000000000000000000005343Z01620200325X066000000
1MAIL0000150831BR10        BRNC        BRNCCOCO    BRNCCOCO13AG2020032500:00:00OR  010000052340440005234044150831                             2020032520200325Z016CIF202003250000000000154492NN0                                                  0                                        
2MAIL0000150831BR10        BRNC        BRNCCOCO    BRNCCOCO13AG00000100000000001132019800000000000000100000000000000000000000001967Z01620200325X066000000
2MAIL0000150831BR10        BRNC        BRNCCOCO    BRNCCOCO13AG00000200000000001132020900000000000000100000000000000000000000001967Z01620200325X066000000
2MAIL0000150831BR10        BRNC        BRNCCOCO    BRNCCOCO13AG00000300000000001132036700000000000000200000000000000000000000004345Z01620200325X066000000
2MAIL0000150831BR10        BRNC        BRNCCOCO    BRNCCOCO13AG00000400000000001132200400000000000000500000000000000000000000010575Z01620200325X066000000
2MAIL0000150831BR10        BRNC        BRNCCOCO    BRNCCOCO13AG00000500000000001132400100000000000000100000000000000000000000003003Z01620200325X066000000
2MAIL0000150831BR10        BRNC        BRNCCOCO    BRNCCOCO13AG00000600000000001223975300000000000000100000000000000000000000005076Z01620200325X066000000
2MAIL0000150831BR10        BRNC        BRNCCOCO    BRNCCOCO13AG00000700000000001224882700000000000000100000000000000000000000003159Z01620200325X066000000
2MAIL0000150831BR10        BRNC        BRNCCOCO    BRNCCOCO13AG00000800000000001224882800000000000000100000000000000000000000003159Z01620200325X066000000
2MAIL0000150831BR10        BRNC        BRNCCOCO    BRNCCOCO13AG00000900000000001231189200000000000000100000000000000000000000005076Z01620200325X066000000
2MAIL0000150831BR10        BRNC        BRNCCOCO    BRNCCOCO13AG00001000000000001231231200000000000000100000000000000000000000005076Z01620200325X066000000
2MAIL0000150831BR10        BRNC        BRNCCOCO    BRNCCOCO13AG00001100000000001234705700000000000000100000000000000000000000005076Z01620200325X066000000
2MAIL0000150831BR10        BRNC        BRNCCOCO    BRNCCOCO13AG00001200000000001235699700000000000001000000000000000000000000003825Z01620200325X066000000
2MAIL0000150831BR10        BRNC        BRNCCOCO    BRNCCOCO13AG00001300000000001235699800000000000001000000000000000000000000003825Z01620200325X066000000
2MAIL0000150831BR10        BRNC        BRNCCOCO    BRNCCOCO13AG00001400000000001236515000000000000007000000000000000000000000012727Z01620200325X066000000
2MAIL0000150831BR10        BRNC        BRNCCOCO    BRNCCOCO13AG00001500000000001239373500000000000000100000000000000000000000006340Z01620200325X066000000
2MAIL0000150831BR10        BRNC        BRNCCOCO    BRNCCOCO13AG00001600000000001239663300000000000002800000000000000000000000010686Z01620200325X066000000
2MAIL0000150831BR10        BRNC        BRNCCOCO    BRNCCOCO13AG00001700000000001239688300000000000002800000000000000000000000010686Z01620200325X066000000
2MAIL0000150831BR10        BRNC        BRNCCOCO    BRNCCOCO13AG00001800000000001239688700000000000001400000000000000000000000005343Z01620200325X066000000
2MAIL0000150831BR10        BRNC        BRNCCOCO    BRNCCOCO13AG00001900000000001239688800000000000002800000000000000000000000010686Z01620200325X066000000
2MAIL0000150831BR10        BRNC        BRNCCOCO    BRNCCOCO13AG00002000000000001239692000000000000002800000000000000000000000010686Z01620200325X066000000
2MAIL0000150831BR10        BRNC        BRNCCOCO    BRNCCOCO13AG00002100000000001239692100000000000001400000000000000000000000005343Z01620200325X066000000
2MAIL0000150831BR10        BRNC        BRNCCOCO    BRNCCOCO13AG00002200000000001241623700000000000001000000000000000000000000025866Z01620200325X066000000
1MAIL0000150832BR10        BRNC        BRNCCOCO    BRNCCOCO13AG2020032500:00:00OR  010000056654700005665470150832                             2020032520200325Z079CIF202003250000000000084007NN0                                                  0                                        
2MAIL0000150832BR10        BRNC        BRNCCOCO    BRNCCOCO13AG00000100000000001132004000000000000000500000000000000000000000005115Z07920200325X066000000
2MAIL0000150832BR10        BRNC        BRNCCOCO    BRNCCOCO13AG00000200000000001132018300000000000000100000000000000000000000003550Z07920200325X066000000
2MAIL0000150832BR10        BRNC        BRNCCOCO    BRNCCOCO13AG00000300000000001132019700000000000000100000000000000000000000001974Z07920200325X066000000
2MAIL0000150832BR10        BRNC        BRNCCOCO    BRNCCOCO13AG00000400000000001132036700000000000000100000000000000000000000002179Z07920200325X066000000
2MAIL0000150832BR10        BRNC        BRNCCOCO    BRNCCOCO13AG00000500000000001132200400000000000000300000000000000000000000006362Z07920200325X066000000
2MAIL0000150832BR10        BRNC        BRNCCOCO    BRNCCOCO13AG00000600000000001221415400000000000000100000000000000000000000003550Z07920200325X066000000
2MAIL0000150832BR10        BRNC        BRNCCOCO    BRNCCOCO13AG00000700000000001223975300000000000000200000000000000000000000010177Z07920200325X066000000
2MAIL0000150832BR10        BRNC        BRNCCOCO    BRNCCOCO13AG00000800000000001228274000000000000000100000000000000000000000005088Z07920200325X066000000
2MAIL0000150832BR10        BRNC        BRNCCOCO    BRNCCOCO13AG00000900000000001228512700000000000000200000000000000000000000010177Z07920200325X066000000
2MAIL0000150832BR10        BRNC        BRNCCOCO    BRNCCOCO13AG00001000000000001231189200000000000000200000000000000000000000010177Z07920200325X066000000
2MAIL0000150832BR10        BRNC        BRNCCOCO    BRNCCOCO13AG00001100000000001231231200000000000000200000000000000000000000010177Z07920200325X066000000
2MAIL0000150832BR10        BRNC        BRNCCOCO    BRNCCOCO13AG00001200000000001234705700000000000000100000000000000000000000005088Z07920200325X066000000
2MAIL0000150832BR10        BRNC        BRNCCOCO    BRNCCOCO13AG00001300000000001235699700000000000001000000000000000000000000003833Z07920200325X066000000
2MAIL0000150832BR10        BRNC        BRNCCOCO    BRNCCOCO13AG00001400000000001235699800000000000001000000000000000000000000003833Z07920200325X066000000
2MAIL0000150832BR10        BRNC        BRNCCOCO    BRNCCOCO13AG00001500000000001236512900000000000001000000000000000000000000001818Z07920200325X066000000
2MAIL0000150832BR10        BRNC        BRNCCOCO    BRNCCOCO13AG00001600000000001236515000000000000000500000000000000000000000000909Z07920200325X066000000
1MAIL0000150833BR10        BRNC        BRNCCOCO    BRNCCOCO13AG2020032500:00:00OR  010000056872100005687210150833                             2020032520200325Z079CIF202003250000000000006957NN0                                                  0                                        
2MAIL0000150833BR10        BRNC        BRNCCOCO    BRNCCOCO13AG00000100000000001132036700000000000000100000000000000000000000002179Z07920200325X066000000
2MAIL0000150833BR10        BRNC        BRNCCOCO    BRNCCOCO13AG00000200000000001215533700000000000000100000000000000000000000002179Z07920200325X066000000
2MAIL0000150833BR10        BRNC        BRNCCOCO    BRNCCOCO13AG00000300000000001241623700000000000000100000000000000000000000002599Z07920200325X066000000
1MAIL0000150834BR10        BRNC        BRNCCOCO    BRNCCOCO13AG2020032500:00:00OR  010000056849410005684941150834                             2020032520200325Z079CIF202003250000000000019544NN0                                                  0                                        
2MAIL0000150834BR10        BRNC        BRNCCOCO    BRNCCOCO13AG00000100000000001132018300000000000000100000000000000000000000003443Z07920200325X066003000
2MAIL0000150834BR10        BRNC        BRNCCOCO    BRNCCOCO13AG00000200000000001132019800000000000000100000000000000000000000001915Z07920200325X066003000
2MAIL0000150834BR10        BRNC        BRNCCOCO    BRNCCOCO13AG00000300000000001132033100000000000000100000000000000000000000002114Z07920200325X066003000
2MAIL0000150834BR10        BRNC        BRNCCOCO    BRNCCOCO13AG00000400000000001132036700000000000000100000000000000000000000002114Z07920200325X066003000
2MAIL0000150834BR10        BRNC        BRNCCOCO    BRNCCOCO13AG00000500000000001132200400000000000000100000000000000000000000002057Z07920200325X066003000
2MAIL0000150834BR10        BRNC        BRNCCOCO    BRNCCOCO13AG00000600000000001221415400000000000000100000000000000000000000003443Z07920200325X066003000
2MAIL0000150834BR10        BRNC        BRNCCOCO    BRNCCOCO13AG00000700000000001236512900000000000000500000000000000000000000000969Z07920200325X066003000
2MAIL0000150834BR10        BRNC        BRNCCOCO    BRNCCOCO13AG00000800000000001236515000000000000000500000000000000000000000000969Z07920200325X066003000
2MAIL0000150834BR10        BRNC        BRNCCOCO    BRNCCOCO13AG00000900000000001241623700000000000000100000000000000000000000002520Z07920200325X066003000
1MAIL0000150835BR10        BRNC        BRNCCOCO    BRNCCOCO13AG2020032500:00:00OR  010000056844450005684445150835                             2020032520200325Z016CIF202003250000000000016518NN0                                                  0                                        
2MAIL0000150835BR10        BRNC        BRNCCOCO    BRNCCOCO13AG00000100000000001132019800000000000000100000000000000000000000002012Z01620200325X066003000
2MAIL0000150835BR10        BRNC        BRNCCOCO    BRNCCOCO13AG00000200000000001132033100000000000000100000000000000000000000002223Z01620200325X066003000
2MAIL0000150835BR10        BRNC        BRNCCOCO    BRNCCOCO13AG00000300000000001132036700000000000000100000000000000000000000002223Z01620200325X066003000
2MAIL0000150835BR10        BRNC        BRNCCOCO    BRNCCOCO13AG00000400000000001236512900000000000000500000000000000000000000000973Z01620200325X066003000
2MAIL0000150835BR10        BRNC        BRNCCOCO    BRNCCOCO13AG00000500000000001236515000000000000000500000000000000000000000000973Z01620200325X066003000
2MAIL0000150835BR10        BRNC        BRNCCOCO    BRNCCOCO13AG00000600000000001239688800000000000001400000000000000000000000005708Z01620200325X066003000
2MAIL0000150835BR10        BRNC        BRNCCOCO    BRNCCOCO13AG00000700000000001241623700000000000000100000000000000000000000002406Z01620200325X066003000
1MAIL0000150836BR10        BRNC        BRNCCOCO    BRNCCOCO13AG2020032500:00:00OR  010000057280730005728073150836                             2020032520200325Z016CIF202003250000000000006586NN0                                                  0                                        
2MAIL0000150836BR10        BRNC        BRNCCOCO    BRNCCOCO13AG00000100000000001132036700000000000000100000000000000000000000002291Z01620200325X066000000
2MAIL0000150836BR10        BRNC        BRNCCOCO    BRNCCOCO13AG00000200000000001215533700000000000000100000000000000000000000002291Z01620200325X066000000
2MAIL0000150836BR10        BRNC        BRNCCOCO    BRNCCOCO13AG00000300000000001236512900000000000000500000000000000000000000001002Z01620200325X066000000
2MAIL0000150836BR10        BRNC        BRNCCOCO    BRNCCOCO13AG00000400000000001236515000000000000000500000000000000000000000001002Z01620200325X066000000
1MAIL0000150837BR10        BRNC        BRNCCOCO    BRNCCOCO13AG2020032500:00:00OR  010000057280420005728042150837                             2020032520200325Z079CIF202003250000000000005437NN0                                                  0                                        
2MAIL0000150837BR10        BRNC        BRNCCOCO    BRNCCOCO13AG00000100000000001132036700000000000000100000000000000000000000001658Z07920200325X066000000
2MAIL0000150837BR10        BRNC        BRNCCOCO    BRNCCOCO13AG00000200000000001132200400000000000000100000000000000000000000002121Z07920200325X066000000
2MAIL0000150837BR10        BRNC        BRNCCOCO    BRNCCOCO13AG00000300000000001215533700000000000000100000000000000000000000001658Z07920200325X066000000
1MAIL0000150838BR10        BRNC        BRNCCOCO    BRNCCOCO13AG2020032500:00:00OR  010000060223160006022316150838                             2020032520200325Z016CIF202003250000000000029401NN0                                                  0                                        
2MAIL0000150838BR10        BRNC        BRNCCOCO    BRNCCOCO13AG00000100000000001132036700000000000000200000000000000000000000004581Z01620200325X066000000
2MAIL0000150838BR10        BRNC        BRNCCOCO    BRNCCOCO13AG00000200000000001132200400000000000000200000000000000000000000004460Z01620200325X066000000
2MAIL0000150838BR10        BRNC        BRNCCOCO    BRNCCOCO13AG00000300000000001215533700000000000000100000000000000000000000002291Z01620200325X066000000
2MAIL0000150838BR10        BRNC        BRNCCOCO    BRNCCOCO13AG00000400000000001236512900000000000001000000000000000000000000002004Z01620200325X066000000
2MAIL0000150838BR10        BRNC        BRNCCOCO    BRNCCOCO13AG00000500000000001236515000000000000001000000000000000000000000002004Z01620200325X066000000
2MAIL0000150838BR10        BRNC        BRNCCOCO    BRNCCOCO13AG00000600000000001236898000000000000000100000000000000000000000002291Z01620200325X066000000
2MAIL0000150838BR10        BRNC        BRNCCOCO    BRNCCOCO13AG00000700000000001239688300000000000001400000000000000000000000005885Z01620200325X066000000
2MAIL0000150838BR10        BRNC        BRNCCOCO    BRNCCOCO13AG00000800000000001239688800000000000001400000000000000000000000005885Z01620200325X066000000
1MAIL0000150839BR10        BRNC        BRNCCOCO    BRNCCOCO13AG2020032500:00:00OR  010000032136950003213695150839                             2020032520200325Z016CIF202003250000000000019498NN0                                                  0                                        
2MAIL0000150839BR10        BRNC        BRNCCOCO    BRNCCOCO13AG00000100000000001132018300000000000000100000000000000000000000003435Z01620200325X066003000
2MAIL0000150839BR10        BRNC        BRNCCOCO    BRNCCOCO13AG00000200000000001132019800000000000000100000000000000000000000001908Z01620200325X066003000
2MAIL0000150839BR10        BRNC        BRNCCOCO    BRNCCOCO13AG00000300000000001132033100000000000000100000000000000000000000002108Z01620200325X066003000
2MAIL0000150839BR10        BRNC        BRNCCOCO    BRNCCOCO13AG00000400000000001132036700000000000000100000000000000000000000002108Z01620200325X066003000
2MAIL0000150839BR10        BRNC        BRNCCOCO    BRNCCOCO13AG00000500000000001132200400000000000000100000000000000000000000002052Z01620200325X066003000
2MAIL0000150839BR10        BRNC        BRNCCOCO    BRNCCOCO13AG00000600000000001221415400000000000000100000000000000000000000003435Z01620200325X066003000
2MAIL0000150839BR10        BRNC        BRNCCOCO    BRNCCOCO13AG00000700000000001236512900000000000000500000000000000000000000000969Z01620200325X066003000
2MAIL0000150839BR10        BRNC        BRNCCOCO    BRNCCOCO13AG00000800000000001236515000000000000000500000000000000000000000000969Z01620200325X066003000
2MAIL0000150839BR10        BRNC        BRNCCOCO    BRNCCOCO13AG00000900000000001241623700000000000000100000000000000000000000002514Z01620200325X066003000
1MAIL0000150840BR10        BRNC        BRNCCOCO    BRNCCOCO13AG2020032500:00:00OR  010000032136950003213695150840                             2020032520200325Z016CIF202003250000000000019498NN0                                                  0                                        
2MAIL0000150840BR10        BRNC        BRNCCOCO    BRNCCOCO13AG00000100000000001132018300000000000000100000000000000000000000003435Z01620200325X066003000
2MAIL0000150840BR10        BRNC        BRNCCOCO    BRNCCOCO13AG00000200000000001132019800000000000000100000000000000000000000001908Z01620200325X066003000
2MAIL0000150840BR10        BRNC        BRNCCOCO    BRNCCOCO13AG00000300000000001132033100000000000000100000000000000000000000002108Z01620200325X066003000
2MAIL0000150840BR10        BRNC        BRNCCOCO    BRNCCOCO13AG00000400000000001132036700000000000000100000000000000000000000002108Z01620200325X066003000
2MAIL0000150840BR10        BRNC        BRNCCOCO    BRNCCOCO13AG00000500000000001132200400000000000000100000000000000000000000002052Z01620200325X066003000
2MAIL0000150840BR10        BRNC        BRNCCOCO    BRNCCOCO13AG00000600000000001221415400000000000000100000000000000000000000003435Z01620200325X066003000
2MAIL0000150840BR10        BRNC        BRNCCOCO    BRNCCOCO13AG00000700000000001236512900000000000000500000000000000000000000000969Z01620200325X066003000
2MAIL0000150840BR10        BRNC        BRNCCOCO    BRNCCOCO13AG00000800000000001236515000000000000000500000000000000000000000000969Z01620200325X066003000
2MAIL0000150840BR10        BRNC        BRNCCOCO    BRNCCOCO13AG00000900000000001241623700000000000000100000000000000000000000002514Z01620200325X066003000
1MAIL0000150841BR10        BRNC        BRNCCOCO    BRNCCOCO13AG2020032500:00:00OR  010000055159040005515904150841                             2020032520200325Z016CIF202003250000000000017634NN0                                                  0                                        
2MAIL0000150841BR10        BRNC        BRNCCOCO    BRNCCOCO13AG00000100000000001236512900000000000002000000000000000000000000004008Z01620200325X066000000
2MAIL0000150841BR10        BRNC        BRNCCOCO    BRNCCOCO13AG00000200000000001236515000000000000002000000000000000000000000004008Z01620200325X066000000
2MAIL0000150841BR10        BRNC        BRNCCOCO    BRNCCOCO13AG00000300000000001241577400000000000001000000000000000000000000009618Z01620200325X066000000
1MAIL0000150842BR10        BRNC        BRNCCOCO    BRNCCOCO13AG2020032500:00:00OR  010000006395640000639564150842                             2020032520200325Z016CIF202003250000000000018384NN0                                                  0                                        
2MAIL0000150842BR10        BRNC        BRNCCOCO    BRNCCOCO13AG00000100000000001132033100000000000000100000000000000000000000001654Z01620200325X066000000
2MAIL0000150842BR10        BRNC        BRNCCOCO    BRNCCOCO13AG00000200000000001132036700000000000000100000000000000000000000001654Z01620200325X066000000
2MAIL0000150842BR10        BRNC        BRNCCOCO    BRNCCOCO13AG00000300000000001132200400000000000000400000000000000000000000008460Z01620200325X066000000
2MAIL0000150842BR10        BRNC        BRNCCOCO    BRNCCOCO13AG00000400000000001215533700000000000000100000000000000000000000001654Z01620200325X066000000
2MAIL0000150842BR10        BRNC        BRNCCOCO    BRNCCOCO13AG00000500000000001227395500000000000000100000000000000000000000001654Z01620200325X066000000
2MAIL0000150842BR10        BRNC        BRNCCOCO    BRNCCOCO13AG00000600000000001231389600000000000000100000000000000000000000001654Z01620200325X066000000
2MAIL0000150842BR10        BRNC        BRNCCOCO    BRNCCOCO13AG00000700000000001236898000000000000000100000000000000000000000001654Z01620200325X066000000
