1MAIL0000150382BR10        BRNC        BRNCCOCO    BRNCCOCO13AG2020031900:00:00OR  010000029822780002982278150382                             2020031920200319Z016CIF202003190000000000087053NN0                                                  0                                        
2MAIL0000150382BR10        BRNC        BRNCCOCO    BRNCCOCO13AG00000100000000001132004000000000000000500000000000000000000000005662Z01620200319X066000000
2MAIL0000150382BR10        BRNC        BRNCCOCO    BRNCCOCO13AG00000200000000001132018300000000000000100000000000000000000000003735Z01620200319X066000000
2MAIL0000150382BR10        BRNC        BRNCCOCO    BRNCCOCO13AG00000300000000001132036700000000000000100000000000000000000000002291Z01620200319X066000000
2MAIL0000150382BR10        BRNC        BRNCCOCO    BRNCCOCO13AG00000400000000001132200400000000000000100000000000000000000000002230Z01620200319X066000000
2MAIL0000150382BR10        BRNC        BRNCCOCO    BRNCCOCO13AG00000500000000001221415400000000000000100000000000000000000000003735Z01620200319X066000000
2MAIL0000150382BR10        BRNC        BRNCCOCO    BRNCCOCO13AG00000600000000001226089600000000000001200000000000000000000000005045Z01620200319X066000000
2MAIL0000150382BR10        BRNC        BRNCCOCO    BRNCCOCO13AG00000700000000001236512800000000000000400000000000000000000000000762Z01620200319X066000000
2MAIL0000150382BR10        BRNC        BRNCCOCO    BRNCCOCO13AG00000800000000001236512900000000000001000000000000000000000000002004Z01620200319X066000000
2MAIL0000150382BR10        BRNC        BRNCCOCO    BRNCCOCO13AG00000900000000001236515000000000000001000000000000000000000000002004Z01620200319X066000000
2MAIL0000150382BR10        BRNC        BRNCCOCO    BRNCCOCO13AG00001000000000001239663300000000000001400000000000000000000000005885Z01620200319X066000000
2MAIL0000150382BR10        BRNC        BRNCCOCO    BRNCCOCO13AG00001100000000001239688300000000000001400000000000000000000000005885Z01620200319X066000000
2MAIL0000150382BR10        BRNC        BRNCCOCO    BRNCCOCO13AG00001200000000001239688500000000000001400000000000000000000000005885Z01620200319X066000000
2MAIL0000150382BR10        BRNC        BRNCCOCO    BRNCCOCO13AG00001300000000001239688600000000000001400000000000000000000000005885Z01620200319X066000000
2MAIL0000150382BR10        BRNC        BRNCCOCO    BRNCCOCO13AG00001400000000001239688800000000000001400000000000000000000000005885Z01620200319X066000000
2MAIL0000150382BR10        BRNC        BRNCCOCO    BRNCCOCO13AG00001500000000001239692000000000000001400000000000000000000000005885Z01620200319X066000000
2MAIL0000150382BR10        BRNC        BRNCCOCO    BRNCCOCO13AG00001600000000001239692100000000000001400000000000000000000000005885Z01620200319X066000000
2MAIL0000150382BR10        BRNC        BRNCCOCO    BRNCCOCO13AG00001700000000001239692300000000000001400000000000000000000000005885Z01620200319X066000000
2MAIL0000150382BR10        BRNC        BRNCCOCO    BRNCCOCO13AG00001800000000001240924900000000000000400000000000000000000000000735Z01620200319X066000000
2MAIL0000150382BR10        BRNC        BRNCCOCO    BRNCCOCO13AG00001900000000001242626100000000000001400000000000000000000000005885Z01620200319X066000000
2MAIL0000150382BR10        BRNC        BRNCCOCO    BRNCCOCO13AG00002000000000001242754900000000000001400000000000000000000000005885Z01620200319X066000000
1MAIL0000150383BR10        BRNC        BRNCCOCO    BRNCCOCO13AG2020031900:00:00OR  010000043126790004312679150383                             2020031920200319Z016CIF202003190000000000211622NN0                                                  0                                        
2MAIL0000150383BR10        BRNC        BRNCCOCO    BRNCCOCO13AG00000100000000001132004000000000000000500000000000000000000000004990Z01620200319X066000000
2MAIL0000150383BR10        BRNC        BRNCCOCO    BRNCCOCO13AG00000200000000001132004200000000000000500000000000000000000000007033Z01620200319X066000000
2MAIL0000150383BR10        BRNC        BRNCCOCO    BRNCCOCO13AG00000300000000001132018300000000000000100000000000000000000000003463Z01620200319X066000000
2MAIL0000150383BR10        BRNC        BRNCCOCO    BRNCCOCO13AG00000400000000001132019800000000000000100000000000000000000000001924Z01620200319X066000000
2MAIL0000150383BR10        BRNC        BRNCCOCO    BRNCCOCO13AG00000500000000001132020900000000000000100000000000000000000000001924Z01620200319X066000000
2MAIL0000150383BR10        BRNC        BRNCCOCO    BRNCCOCO13AG00000600000000001132033100000000000001000000000000000000000000021250Z01620200319X066000000
2MAIL0000150383BR10        BRNC        BRNCCOCO    BRNCCOCO13AG00000700000000001132034900000000000000500000000000000000000000010831Z01620200319X066000000
2MAIL0000150383BR10        BRNC        BRNCCOCO    BRNCCOCO13AG00000800000000001132036700000000000002000000000000000000000000042501Z01620200319X066000000
2MAIL0000150383BR10        BRNC        BRNCCOCO    BRNCCOCO13AG00000900000000001132200400000000000000200000000000000000000000004230Z01620200319X066000000
2MAIL0000150383BR10        BRNC        BRNCCOCO    BRNCCOCO13AG00001000000000001214448900000000000000200000000000000000000000009226Z01620200319X066000000
2MAIL0000150383BR10        BRNC        BRNCCOCO    BRNCCOCO13AG00001100000000001215533700000000000001000000000000000000000000021250Z01620200319X066000000
2MAIL0000150383BR10        BRNC        BRNCCOCO    BRNCCOCO13AG00001200000000001221415400000000000000100000000000000000000000003463Z01620200319X066000000
2MAIL0000150383BR10        BRNC        BRNCCOCO    BRNCCOCO13AG00001300000000001231189200000000000000100000000000000000000000004965Z01620200319X066000000
2MAIL0000150383BR10        BRNC        BRNCCOCO    BRNCCOCO13AG00001400000000001231231200000000000000100000000000000000000000004965Z01620200319X066000000
2MAIL0000150383BR10        BRNC        BRNCCOCO    BRNCCOCO13AG00001500000000001231233000000000000000100000000000000000000000004965Z01620200319X066000000
2MAIL0000150383BR10        BRNC        BRNCCOCO    BRNCCOCO13AG00001600000000001234705700000000000000100000000000000000000000004965Z01620200319X066000000
2MAIL0000150383BR10        BRNC        BRNCCOCO    BRNCCOCO13AG00001700000000001234705800000000000000100000000000000000000000004965Z01620200319X066000000
2MAIL0000150383BR10        BRNC        BRNCCOCO    BRNCCOCO13AG00001800000000001235699400000000000001000000000000000000000000003741Z01620200319X066000000
2MAIL0000150383BR10        BRNC        BRNCCOCO    BRNCCOCO13AG00001900000000001235699700000000000001000000000000000000000000003741Z01620200319X066000000
2MAIL0000150383BR10        BRNC        BRNCCOCO    BRNCCOCO13AG00002000000000001236512800000000000000400000000000000000000000000675Z01620200319X066000000
2MAIL0000150383BR10        BRNC        BRNCCOCO    BRNCCOCO13AG00002100000000001236512900000000000000500000000000000000000000000889Z01620200319X066000000
2MAIL0000150383BR10        BRNC        BRNCCOCO    BRNCCOCO13AG00002200000000001236515000000000000000500000000000000000000000000889Z01620200319X066000000
2MAIL0000150383BR10        BRNC        BRNCCOCO    BRNCCOCO13AG00002300000000001238083500000000000000100000000000000000000000004965Z01620200319X066000000
2MAIL0000150383BR10        BRNC        BRNCCOCO    BRNCCOCO13AG00002400000000001239373400000000000000100000000000000000000000006201Z01620200319X066000000
2MAIL0000150383BR10        BRNC        BRNCCOCO    BRNCCOCO13AG00002500000000001239373700000000000000100000000000000000000000006201Z01620200319X066000000
2MAIL0000150383BR10        BRNC        BRNCCOCO    BRNCCOCO13AG00002600000000001239688800000000000001400000000000000000000000005226Z01620200319X066000000
2MAIL0000150383BR10        BRNC        BRNCCOCO    BRNCCOCO13AG00002700000000001239692000000000000001400000000000000000000000005226Z01620200319X066000000
2MAIL0000150383BR10        BRNC        BRNCCOCO    BRNCCOCO13AG00002800000000001239692100000000000001400000000000000000000000005226Z01620200319X066000000
2MAIL0000150383BR10        BRNC        BRNCCOCO    BRNCCOCO13AG00002900000000001241577400000000000000500000000000000000000000004237Z01620200319X066000000
2MAIL0000150383BR10        BRNC        BRNCCOCO    BRNCCOCO13AG00003000000000001241623700000000000000100000000000000000000000002530Z01620200319X066000000
2MAIL0000150383BR10        BRNC        BRNCCOCO    BRNCCOCO13AG00003100000000001242374800000000000000100000000000000000000000004965Z01620200319X066000000
1MAIL0000150384BR10        BRNC        BRNCCOCO    BRNCCOCO13AG2020031900:00:00OR  010000057062880005706288150384                             2020031920200319Z016CIF202003190000000000010141NN0                                                  0                                        
2MAIL0000150384BR10        BRNC        BRNCCOCO    BRNCCOCO13AG00000100000000001132019800000000000000100000000000000000000000001967Z01620200319X066000000
2MAIL0000150384BR10        BRNC        BRNCCOCO    BRNCCOCO13AG00000200000000001239688800000000000001400000000000000000000000005582Z01620200319X066000000
2MAIL0000150384BR10        BRNC        BRNCCOCO    BRNCCOCO13AG00000300000000001241623700000000000000100000000000000000000000002592Z01620200319X066000000
1MAIL0000150385BR10        BRNC        BRNCCOCO    BRNCCOCO13AG2020031900:00:00OR  010000057063190005706319150385                             2020031920200319Z016CIF202003190000000000005901NN0                                                  0                                        
2MAIL0000150385BR10        BRNC        BRNCCOCO    BRNCCOCO13AG00000100000000001132019700000000000000100000000000000000000000001967Z01620200319X066000000
2MAIL0000150385BR10        BRNC        BRNCCOCO    BRNCCOCO13AG00000200000000001132019800000000000000100000000000000000000000001967Z01620200319X066000000
2MAIL0000150385BR10        BRNC        BRNCCOCO    BRNCCOCO13AG00000300000000001132019900000000000000100000000000000000000000001967Z01620200319X066000000
1MAIL0000150386BR10        BRNC        BRNCCOCO    BRNCCOCO13AG2020031900:00:00OR  010000055159050005515905150386                             2020031920200319Z016CIF202003190000000000009618NN0                                                  0                                        
2MAIL0000150386BR10        BRNC        BRNCCOCO    BRNCCOCO13AG00000100000000001241577400000000000001000000000000000000000000009618Z01620200319X066000000
1MAIL0000150387BR10        BRNC        BRNCCOCO    BRNCCOCO13AG2020031900:00:00OR  010000050978290005097829150387                             2020031920200319Z016CIF202003190000000000021728NN0                                                  0                                        
2MAIL0000150387BR10        BRNC        BRNCCOCO    BRNCCOCO13AG00000100000000001132033100000000000000100000000000000000000000002173Z01620200319X066000000
2MAIL0000150387BR10        BRNC        BRNCCOCO    BRNCCOCO13AG00000200000000001132036700000000000000500000000000000000000000010863Z01620200319X066000000
2MAIL0000150387BR10        BRNC        BRNCCOCO    BRNCCOCO13AG00000300000000001215533700000000000000100000000000000000000000002173Z01620200319X066000000
2MAIL0000150387BR10        BRNC        BRNCCOCO    BRNCCOCO13AG00000400000000001227395500000000000000100000000000000000000000002173Z01620200319X066000000
2MAIL0000150387BR10        BRNC        BRNCCOCO    BRNCCOCO13AG00000500000000001231389600000000000000100000000000000000000000002173Z01620200319X066000000
2MAIL0000150387BR10        BRNC        BRNCCOCO    BRNCCOCO13AG00000600000000001236898000000000000000100000000000000000000000002173Z01620200319X066000000
1MAIL0000150388BR10        BRNC        BRNCCOCO    BRNCCOCO13AG2020031900:00:00OR  010000029006590002900659150388                             2020031920200319Z016CIF202003190000000000088664NN0                                                  0                                        
2MAIL0000150388BR10        BRNC        BRNCCOCO    BRNCCOCO13AG00000100000000001132033100000000000000400000000000000000000000008692Z01620200319X066000000
2MAIL0000150388BR10        BRNC        BRNCCOCO    BRNCCOCO13AG00000200000000001132036700000000000000400000000000000000000000008692Z01620200319X066000000
2MAIL0000150388BR10        BRNC        BRNCCOCO    BRNCCOCO13AG00000300000000001132200400000000000000400000000000000000000000008460Z01620200319X066000000
2MAIL0000150388BR10        BRNC        BRNCCOCO    BRNCCOCO13AG00000400000000001215533700000000000000400000000000000000000000008692Z01620200319X066000000
2MAIL0000150388BR10        BRNC        BRNCCOCO    BRNCCOCO13AG00000500000000001221415400000000000000200000000000000000000000007082Z01620200319X066000000
2MAIL0000150388BR10        BRNC        BRNCCOCO    BRNCCOCO13AG00000600000000001231389600000000000000400000000000000000000000008692Z01620200319X066000000
2MAIL0000150388BR10        BRNC        BRNCCOCO    BRNCCOCO13AG00000700000000001235699700000000000001000000000000000000000000003995Z01620200319X066000000
2MAIL0000150388BR10        BRNC        BRNCCOCO    BRNCCOCO13AG00000800000000001236512900000000000003500000000000000000000000006992Z01620200319X066000000
2MAIL0000150388BR10        BRNC        BRNCCOCO    BRNCCOCO13AG00000900000000001241577400000000000003000000000000000000000000027367Z01620200319X066000000
1MAIL0000150389BR10        BRNC        BRNCCOCO    BRNCCOCO13AG2020031900:00:00OR  010000034841210003484121150389                             2020031920200319Z016CIF202003190000000000006952NN0                                                  0                                        
2MAIL0000150389BR10        BRNC        BRNCCOCO    BRNCCOCO13AG00000100000000001239373400000000000000100000000000000000000000006952Z01620200319X066000000
