1MAIL0000153367BR10        BRNC        BRNCCOCO    BRNCCOCO13AG2020041500:00:00OR  010000060902090006090209153367                             2020041520200415Z016CIF202004150000000000004582NN0                                                  0                                        
2MAIL0000153367BR10        BRNC        BRNCCOCO    BRNCCOCO13AG00000100000000001132036700000000000000100000000000000000000000002291Z01620200415X066000000
2MAIL0000153367BR10        BRNC        BRNCCOCO    BRNCCOCO13AG00000200000000001215533700000000000000100000000000000000000000002291Z01620200415X066000000
1MAIL0000153368BR10        BRNC        BRNCCOCO    BRNCCOCO13AG2020041500:00:00OR  010000040541800004054180153368                             2020041520200415Z016CIF202004150000000000042301NN0                                                  0                                        
2MAIL0000153368BR10        BRNC        BRNCCOCO    BRNCCOCO13AG00000100000000001132036700000000000000400000000000000000000000008692Z01620200415X066000000
2MAIL0000153368BR10        BRNC        BRNCCOCO    BRNCCOCO13AG00000200000000001214448800000000000000200000000000000000000000010136Z01620200415X066000000
2MAIL0000153368BR10        BRNC        BRNCCOCO    BRNCCOCO13AG00000300000000001214470800000000000000500000000000000000000000023473Z01620200415X066000000
1MAIL0000153369BR10        BRNC        BRNCCOCO    BRNCCOCO13AG2020041500:00:00OR  010000029799030002979903153369                             2020041520200415Z016CIF202004150000000000125719NN0                                                  0                                        
2MAIL0000153369BR10        BRNC        BRNCCOCO    BRNCCOCO13AG00000100000000001132033100000000000000600000000000000000000000013036Z01620200415X066000000
2MAIL0000153369BR10        BRNC        BRNCCOCO    BRNCCOCO13AG00000200000000001132034900000000000000500000000000000000000000011650Z01620200415X066000000
2MAIL0000153369BR10        BRNC        BRNCCOCO    BRNCCOCO13AG00000300000000001132035000000000000000500000000000000000000000012943Z01620200415X066000000
2MAIL0000153369BR10        BRNC        BRNCCOCO    BRNCCOCO13AG00000400000000001132035100000000000000500000000000000000000000012300Z01620200415X066000000
2MAIL0000153369BR10        BRNC        BRNCCOCO    BRNCCOCO13AG00000500000000001132036700000000000000600000000000000000000000013036Z01620200415X066000000
2MAIL0000153369BR10        BRNC        BRNCCOCO    BRNCCOCO13AG00000600000000001215533700000000000000600000000000000000000000013036Z01620200415X066000000
2MAIL0000153369BR10        BRNC        BRNCCOCO    BRNCCOCO13AG00000700000000001226089600000000000001200000000000000000000000004784Z01620200415X066000000
2MAIL0000153369BR10        BRNC        BRNCCOCO    BRNCCOCO13AG00000800000000001235699400000000000001000000000000000000000000003995Z01620200415X066000000
2MAIL0000153369BR10        BRNC        BRNCCOCO    BRNCCOCO13AG00000900000000001235699700000000000001000000000000000000000000003995Z01620200415X066000000
2MAIL0000153369BR10        BRNC        BRNCCOCO    BRNCCOCO13AG00001000000000001235699800000000000001000000000000000000000000003995Z01620200415X066000000
2MAIL0000153369BR10        BRNC        BRNCCOCO    BRNCCOCO13AG00001100000000001239692100000000000001400000000000000000000000005582Z01620200415X066000000
2MAIL0000153369BR10        BRNC        BRNCCOCO    BRNCCOCO13AG00001200000000001241577400000000000003000000000000000000000000027367Z01620200415X066000000
1MAIL0000153370BR10        BRNC        BRNCCOCO    BRNCCOCO13AG2020041500:00:00OR  010000061131810006113181153370                             2020041520200415Z016CIF202004150000000000010528NN0                                                  0                                        
2MAIL0000153370BR10        BRNC        BRNCCOCO    BRNCCOCO13AG00000100000000001132036700000000000000100000000000000000000000001654Z01620200415X066000000
2MAIL0000153370BR10        BRNC        BRNCCOCO    BRNCCOCO13AG00000200000000001231189200000000000000100000000000000000000000004437Z01620200415X066000000
2MAIL0000153370BR10        BRNC        BRNCCOCO    BRNCCOCO13AG00000300000000001234705900000000000000100000000000000000000000004437Z01620200415X066000000
1MAIL0000153371BR10        BRNC        BRNCCOCO    BRNCCOCO13AG2020041500:00:00OR  010000029457940002945794153371                             2020041520200415Z016CIF202004150000000000014403NN0                                                  0                                        
2MAIL0000153371BR10        BRNC        BRNCCOCO    BRNCCOCO13AG00000100000000001231233000000000000000100000000000000000000000004437Z01620200415X066000000
2MAIL0000153371BR10        BRNC        BRNCCOCO    BRNCCOCO13AG00000200000000001238083500000000000000100000000000000000000000004437Z01620200415X066000000
2MAIL0000153371BR10        BRNC        BRNCCOCO    BRNCCOCO13AG00000300000000001239373700000000000000100000000000000000000000005529Z01620200415X066000000
1MAIL0000153372BR10        BRNC        BRNCCOCO    BRNCCOCO13AG2020041500:00:00OR  010000047720780004772078153372                             2020041520200415Z016CIF202004150000000000008428NN0                                                  0                                        
2MAIL0000153372BR10        BRNC        BRNCCOCO    BRNCCOCO13AG00000100000000001132019800000000000000100000000000000000000000001967Z01620200415X066000000
2MAIL0000153372BR10        BRNC        BRNCCOCO    BRNCCOCO13AG00000200000000001132033100000000000000100000000000000000000000002173Z01620200415X066000000
2MAIL0000153372BR10        BRNC        BRNCCOCO    BRNCCOCO13AG00000300000000001132036700000000000000100000000000000000000000002173Z01620200415X066000000
2MAIL0000153372BR10        BRNC        BRNCCOCO    BRNCCOCO13AG00000400000000001132200400000000000000100000000000000000000000002115Z01620200415X066000000
1MAIL0000153373BR10        BRNC        BRNCCOCO    BRNCCOCO13AG2020041500:00:00OR  010000031843630003184363153373                             2020041520200415Z016CIF202004150000000000008377NN0                                                  0                                        
2MAIL0000153373BR10        BRNC        BRNCCOCO    BRNCCOCO13AG00000100000000001132400100000000000000100000000000000000000000002286Z01620200415X066000000
2MAIL0000153373BR10        BRNC        BRNCCOCO    BRNCCOCO13AG00000200000000001227395500000000000000100000000000000000000000001654Z01620200415X066000000
2MAIL0000153373BR10        BRNC        BRNCCOCO    BRNCCOCO13AG00000300000000001231189200000000000000100000000000000000000000004437Z01620200415X066000000
1MAIL0000153374BR10        BRNC        BRNCCOCO    BRNCCOCO13AG2020041500:00:00OR  010000049378430004937843153374                             2020041520200415Z138CIF202004150000000000022104NN0                                                  0                                        
2MAIL0000153374BR10        BRNC        BRNCCOCO    BRNCCOCO13AG00000100000000001132033100000000000000100000000000000000000000002273Z13820200415X066000000
2MAIL0000153374BR10        BRNC        BRNCCOCO    BRNCCOCO13AG00000200000000001132036700000000000000200000000000000000000000004547Z13820200415X066000000
2MAIL0000153374BR10        BRNC        BRNCCOCO    BRNCCOCO13AG00000300000000001132200400000000000000100000000000000000000000002213Z13820200415X066000000
2MAIL0000153374BR10        BRNC        BRNCCOCO    BRNCCOCO13AG00000400000000001239688800000000000001400000000000000000000000005837Z13820200415X066000000
2MAIL0000153374BR10        BRNC        BRNCCOCO    BRNCCOCO13AG00000500000000001241577400000000000000500000000000000000000000004771Z13820200415X066000000
2MAIL0000153374BR10        BRNC        BRNCCOCO    BRNCCOCO13AG00000600000000001241623700000000000000100000000000000000000000002463Z13820200415X066000000
1MAIL0000153375BR10        BRNC        BRNCCOCO    BRNCCOCO13AG2020041500:00:00OR  010000037562770003756277153375                             2020041520200415Z016CIF202004150000000000066058NN0                                                  0                                        
2MAIL0000153375BR10        BRNC        BRNCCOCO    BRNCCOCO13AG00000100000000001132018300000000000000100000000000000000000000003735Z01620200415X066000000
2MAIL0000153375BR10        BRNC        BRNCCOCO    BRNCCOCO13AG00000200000000001132019800000000000000100000000000000000000000002076Z01620200415X066000000
2MAIL0000153375BR10        BRNC        BRNCCOCO    BRNCCOCO13AG00000300000000001132033100000000000000100000000000000000000000002291Z01620200415X066000000
2MAIL0000153375BR10        BRNC        BRNCCOCO    BRNCCOCO13AG00000400000000001132036700000000000000100000000000000000000000002291Z01620200415X066000000
2MAIL0000153375BR10        BRNC        BRNCCOCO    BRNCCOCO13AG00000500000000001215533700000000000000100000000000000000000000002291Z01620200415X066000000
2MAIL0000153375BR10        BRNC        BRNCCOCO    BRNCCOCO13AG00000600000000001227395500000000000000100000000000000000000000002291Z01620200415X066000000
2MAIL0000153375BR10        BRNC        BRNCCOCO    BRNCCOCO13AG00000700000000001235699400000000000002000000000000000000000000008422Z01620200415X066000000
2MAIL0000153375BR10        BRNC        BRNCCOCO    BRNCCOCO13AG00000800000000001235699800000000000003000000000000000000000000012634Z01620200415X066000000
2MAIL0000153375BR10        BRNC        BRNCCOCO    BRNCCOCO13AG00000900000000001236512900000000000001000000000000000000000000002004Z01620200415X066000000
2MAIL0000153375BR10        BRNC        BRNCCOCO    BRNCCOCO13AG00001000000000001236515000000000000001000000000000000000000000002004Z01620200415X066000000
2MAIL0000153375BR10        BRNC        BRNCCOCO    BRNCCOCO13AG00001100000000001239688800000000000004200000000000000000000000017653Z01620200415X066000000
2MAIL0000153375BR10        BRNC        BRNCCOCO    BRNCCOCO13AG00001200000000001239692100000000000001400000000000000000000000005885Z01620200415X066000000
2MAIL0000153375BR10        BRNC        BRNCCOCO    BRNCCOCO13AG00001300000000001241623700000000000000100000000000000000000000002481Z01620200415X066000000
1MAIL0000153376BR10        BRNC        BRNCCOCO    BRNCCOCO13AG2020041500:00:00OR  010000043982390004398239153376                             2020041520200415Z016CIF202004150000000000023352NN0                                                  0                                        
2MAIL0000153376BR10        BRNC        BRNCCOCO    BRNCCOCO13AG00000100000000001132019700000000000000100000000000000000000000002076Z01620200415X066000000
2MAIL0000153376BR10        BRNC        BRNCCOCO    BRNCCOCO13AG00000200000000001132019800000000000000100000000000000000000000002076Z01620200415X066000000
2MAIL0000153376BR10        BRNC        BRNCCOCO    BRNCCOCO13AG00000300000000001132033100000000000000200000000000000000000000004581Z01620200415X066000000
2MAIL0000153376BR10        BRNC        BRNCCOCO    BRNCCOCO13AG00000400000000001132036700000000000000200000000000000000000000004581Z01620200415X066000000
2MAIL0000153376BR10        BRNC        BRNCCOCO    BRNCCOCO13AG00000500000000001132400100000000000000100000000000000000000000003165Z01620200415X066000000
2MAIL0000153376BR10        BRNC        BRNCCOCO    BRNCCOCO13AG00000600000000001215533700000000000000100000000000000000000000002291Z01620200415X066000000
2MAIL0000153376BR10        BRNC        BRNCCOCO    BRNCCOCO13AG00000700000000001231389600000000000000100000000000000000000000002291Z01620200415X066000000
2MAIL0000153376BR10        BRNC        BRNCCOCO    BRNCCOCO13AG00000800000000001236898000000000000000100000000000000000000000002291Z01620200415X066000000
1MAIL0000153377BR10        BRNC        BRNCCOCO    BRNCCOCO13AG2020041500:00:00OR  010000061446800006144680153377                             2020041520200415Z016CIF202004150000000003351618NN0                                                  0                                        
2MAIL0000153377BR10        BRNC        BRNCCOCO    BRNCCOCO13AG00000100000000001132033100000000000016000000000000000000000000245037Z01620200415X066000000
2MAIL0000153377BR10        BRNC        BRNCCOCO    BRNCCOCO13AG00000200000000001132036700000000000032000000000000000000000000490074Z01620200415X066000000
2MAIL0000153377BR10        BRNC        BRNCCOCO    BRNCCOCO13AG00000300000000001215533700000000000016000000000000000000000000245037Z01620200415X066000000
2MAIL0000153377BR10        BRNC        BRNCCOCO    BRNCCOCO13AG00000400000000001241577400000000000300000000000000000000000001897649Z01620200415X066000000
2MAIL0000153377BR10        BRNC        BRNCCOCO    BRNCCOCO13AG00000500000000001241623700000000000030000000000000000000000000473821Z01620200415X066000000
