1MAIL0000150762BR10        BRNC        BRNCCOCO    BRNCCOCO13AG2020032400:00:00OR  010000029530640002953064150762                             2020032420200324Z016CIF202003240000000000043191NN0                                                  0                                        
2MAIL0000150762BR10        BRNC        BRNCCOCO    BRNCCOCO13AG00000100000000001132033100000000000000200000000000000000000000004581Z01620200324X066000000
2MAIL0000150762BR10        BRNC        BRNCCOCO    BRNCCOCO13AG00000200000000001132036700000000000000200000000000000000000000004581Z01620200324X066000000
2MAIL0000150762BR10        BRNC        BRNCCOCO    BRNCCOCO13AG00000300000000001215533700000000000000200000000000000000000000004581Z01620200324X066000000
2MAIL0000150762BR10        BRNC        BRNCCOCO    BRNCCOCO13AG00000400000000001226089600000000000001200000000000000000000000005045Z01620200324X066000000
2MAIL0000150762BR10        BRNC        BRNCCOCO    BRNCCOCO13AG00000500000000001235699400000000000001000000000000000000000000004211Z01620200324X066000000
2MAIL0000150762BR10        BRNC        BRNCCOCO    BRNCCOCO13AG00000600000000001235699700000000000001000000000000000000000000004211Z01620200324X066000000
2MAIL0000150762BR10        BRNC        BRNCCOCO    BRNCCOCO13AG00000700000000001235699800000000000001000000000000000000000000004211Z01620200324X066000000
2MAIL0000150762BR10        BRNC        BRNCCOCO    BRNCCOCO13AG00000800000000001239688600000000000001400000000000000000000000005885Z01620200324X066000000
2MAIL0000150762BR10        BRNC        BRNCCOCO    BRNCCOCO13AG00000900000000001239688800000000000001400000000000000000000000005885Z01620200324X066000000
1MAIL0000150765BR10        BRNC        BRNCCOCO    BRNCCOCO13AG2020032400:00:00OR  010000052323510005232351150765                             2020032420200324Z016CIF202003240000000001482728NN0                                                  0                                        
2MAIL0000150765BR10        BRNC        BRNCCOCO    BRNCCOCO13AG00000100000000001241577400000000000180000000000000000000000001482728Z01620200324X066000000
1MAIL0000150766BR10        BRNC        BRNCCOCO    BRNCCOCO13AG2020032400:00:00OR  010000051614550005161455150766                             2020032420200324Z016CIF202003240000000000264033NN0                                                  0                                        
2MAIL0000150766BR10        BRNC        BRNCCOCO    BRNCCOCO13AG00000100000000001132004000000000000001000000000000000000000000009978Z01620200324X066000000
2MAIL0000150766BR10        BRNC        BRNCCOCO    BRNCCOCO13AG00000200000000001132004200000000000001000000000000000000000000014065Z01620200324X066000000
2MAIL0000150766BR10        BRNC        BRNCCOCO    BRNCCOCO13AG00000300000000001132019700000000000000200000000000000000000000003850Z01620200324X066000000
2MAIL0000150766BR10        BRNC        BRNCCOCO    BRNCCOCO13AG00000400000000001132019800000000000000200000000000000000000000003850Z01620200324X066000000
2MAIL0000150766BR10        BRNC        BRNCCOCO    BRNCCOCO13AG00000500000000001132019900000000000000200000000000000000000000003850Z01620200324X066000000
2MAIL0000150766BR10        BRNC        BRNCCOCO    BRNCCOCO13AG00000600000000001132020900000000000000200000000000000000000000003850Z01620200324X066000000
2MAIL0000150766BR10        BRNC        BRNCCOCO    BRNCCOCO13AG00000700000000001132033100000000000000300000000000000000000000006375Z01620200324X066000000
2MAIL0000150766BR10        BRNC        BRNCCOCO    BRNCCOCO13AG00000800000000001132034900000000000000500000000000000000000000010831Z01620200324X066000000
2MAIL0000150766BR10        BRNC        BRNCCOCO    BRNCCOCO13AG00000900000000001132036700000000000000500000000000000000000000010625Z01620200324X066000000
2MAIL0000150766BR10        BRNC        BRNCCOCO    BRNCCOCO13AG00001000000000001132200400000000000000500000000000000000000000010575Z01620200324X066000000
2MAIL0000150766BR10        BRNC        BRNCCOCO    BRNCCOCO13AG00001100000000001132400100000000000000200000000000000000000000005874Z01620200324X066000000
2MAIL0000150766BR10        BRNC        BRNCCOCO    BRNCCOCO13AG00001200000000001215533700000000000000300000000000000000000000006375Z01620200324X066000000
2MAIL0000150766BR10        BRNC        BRNCCOCO    BRNCCOCO13AG00001300000000001227395500000000000000300000000000000000000000006375Z01620200324X066000000
2MAIL0000150766BR10        BRNC        BRNCCOCO    BRNCCOCO13AG00001400000000001227735000000000000000200000000000000000000000003850Z01620200324X066000000
2MAIL0000150766BR10        BRNC        BRNCCOCO    BRNCCOCO13AG00001500000000001228274000000000000000100000000000000000000000004965Z01620200324X066000000
2MAIL0000150766BR10        BRNC        BRNCCOCO    BRNCCOCO13AG00001600000000001228512700000000000000100000000000000000000000004965Z01620200324X066000000
2MAIL0000150766BR10        BRNC        BRNCCOCO    BRNCCOCO13AG00001700000000001231189200000000000000100000000000000000000000004965Z01620200324X066000000
2MAIL0000150766BR10        BRNC        BRNCCOCO    BRNCCOCO13AG00001800000000001231231200000000000000100000000000000000000000004965Z01620200324X066000000
2MAIL0000150766BR10        BRNC        BRNCCOCO    BRNCCOCO13AG00001900000000001231233000000000000000100000000000000000000000004965Z01620200324X066000000
2MAIL0000150766BR10        BRNC        BRNCCOCO    BRNCCOCO13AG00002000000000001231389600000000000000200000000000000000000000004250Z01620200324X066000000
2MAIL0000150766BR10        BRNC        BRNCCOCO    BRNCCOCO13AG00002100000000001234705700000000000000100000000000000000000000004965Z01620200324X066000000
2MAIL0000150766BR10        BRNC        BRNCCOCO    BRNCCOCO13AG00002200000000001234705800000000000000100000000000000000000000004965Z01620200324X066000000
2MAIL0000150766BR10        BRNC        BRNCCOCO    BRNCCOCO13AG00002300000000001234705900000000000000100000000000000000000000004965Z01620200324X066000000
2MAIL0000150766BR10        BRNC        BRNCCOCO    BRNCCOCO13AG00002400000000001235699400000000000001000000000000000000000000003741Z01620200324X066000000
2MAIL0000150766BR10        BRNC        BRNCCOCO    BRNCCOCO13AG00002500000000001235699700000000000001000000000000000000000000003741Z01620200324X066000000
2MAIL0000150766BR10        BRNC        BRNCCOCO    BRNCCOCO13AG00002600000000001235699800000000000001000000000000000000000000003741Z01620200324X066000000
2MAIL0000150766BR10        BRNC        BRNCCOCO    BRNCCOCO13AG00002700000000001236512800000000000001600000000000000000000000002701Z01620200324X066000000
2MAIL0000150766BR10        BRNC        BRNCCOCO    BRNCCOCO13AG00002800000000001236512900000000000003000000000000000000000000005334Z01620200324X066000000
2MAIL0000150766BR10        BRNC        BRNCCOCO    BRNCCOCO13AG00002900000000001236515000000000000004000000000000000000000000007113Z01620200324X066000000
2MAIL0000150766BR10        BRNC        BRNCCOCO    BRNCCOCO13AG00003000000000001236898000000000000000300000000000000000000000006375Z01620200324X066000000
2MAIL0000150766BR10        BRNC        BRNCCOCO    BRNCCOCO13AG00003100000000001238083500000000000000100000000000000000000000004965Z01620200324X066000000
2MAIL0000150766BR10        BRNC        BRNCCOCO    BRNCCOCO13AG00003200000000001239373400000000000000100000000000000000000000006201Z01620200324X066000000
2MAIL0000150766BR10        BRNC        BRNCCOCO    BRNCCOCO13AG00003300000000001239373500000000000000100000000000000000000000006201Z01620200324X066000000
2MAIL0000150766BR10        BRNC        BRNCCOCO    BRNCCOCO13AG00003400000000001239373600000000000000100000000000000000000000006201Z01620200324X066000000
2MAIL0000150766BR10        BRNC        BRNCCOCO    BRNCCOCO13AG00003500000000001239373700000000000000100000000000000000000000006201Z01620200324X066000000
2MAIL0000150766BR10        BRNC        BRNCCOCO    BRNCCOCO13AG00003600000000001239663300000000000001400000000000000000000000005226Z01620200324X066000000
2MAIL0000150766BR10        BRNC        BRNCCOCO    BRNCCOCO13AG00003700000000001239688300000000000001400000000000000000000000005226Z01620200324X066000000
2MAIL0000150766BR10        BRNC        BRNCCOCO    BRNCCOCO13AG00003800000000001239688500000000000001400000000000000000000000005226Z01620200324X066000000
2MAIL0000150766BR10        BRNC        BRNCCOCO    BRNCCOCO13AG00003900000000001239688600000000000001400000000000000000000000005226Z01620200324X066000000
2MAIL0000150766BR10        BRNC        BRNCCOCO    BRNCCOCO13AG00004000000000001239688800000000000002800000000000000000000000010452Z01620200324X066000000
2MAIL0000150766BR10        BRNC        BRNCCOCO    BRNCCOCO13AG00004100000000001239692000000000000001400000000000000000000000005226Z01620200324X066000000
2MAIL0000150766BR10        BRNC        BRNCCOCO    BRNCCOCO13AG00004200000000001239692100000000000001400000000000000000000000005226Z01620200324X066000000
2MAIL0000150766BR10        BRNC        BRNCCOCO    BRNCCOCO13AG00004300000000001239692300000000000001400000000000000000000000005226Z01620200324X066000000
2MAIL0000150766BR10        BRNC        BRNCCOCO    BRNCCOCO13AG00004400000000001242374800000000000000100000000000000000000000004965Z01620200324X066000000
2MAIL0000150766BR10        BRNC        BRNCCOCO    BRNCCOCO13AG00004500000000001242626100000000000001400000000000000000000000005226Z01620200324X066000000
