1MAIL0000153350BR10        BRNC        BRNCCOCO    BRNCCOCO13AG2020041500:00:00OR  010000028730690002873069153350                             2020041520200415Z016CIF202004150000000000014028NN0                                                  0                                        
2MAIL0000153350BR10        BRNC        BRNCCOCO    BRNCCOCO13AG00000100000000001236512900000000000003500000000000000000000000007014Z01620200415X066000000
2MAIL0000153350BR10        BRNC        BRNCCOCO    BRNCCOCO13AG00000200000000001236515000000000000003500000000000000000000000007014Z01620200415X066000000
1MAIL0000153351BR10        BRNC        BRNCCOCO    BRNCCOCO13AG2020041500:00:00OR  010000053368350005336835153351                             2020041520200415Z016CIF202004150000000000035156NN0                                                  0                                        
2MAIL0000153351BR10        BRNC        BRNCCOCO    BRNCCOCO13AG00000100000000001132033100000000000000100000000000000000000000002291Z01620200415X066000000
2MAIL0000153351BR10        BRNC        BRNCCOCO    BRNCCOCO13AG00000200000000001132036700000000000000100000000000000000000000002291Z01620200415X066000000
2MAIL0000153351BR10        BRNC        BRNCCOCO    BRNCCOCO13AG00000300000000001215533700000000000000100000000000000000000000002291Z01620200415X066000000
2MAIL0000153351BR10        BRNC        BRNCCOCO    BRNCCOCO13AG00000400000000001235699400000000000001000000000000000000000000004211Z01620200415X066000000
2MAIL0000153351BR10        BRNC        BRNCCOCO    BRNCCOCO13AG00000500000000001235699800000000000001000000000000000000000000004211Z01620200415X066000000
2MAIL0000153351BR10        BRNC        BRNCCOCO    BRNCCOCO13AG00000600000000001239663300000000000001400000000000000000000000005885Z01620200415X066000000
2MAIL0000153351BR10        BRNC        BRNCCOCO    BRNCCOCO13AG00000700000000001239688800000000000001400000000000000000000000005885Z01620200415X066000000
2MAIL0000153351BR10        BRNC        BRNCCOCO    BRNCCOCO13AG00000800000000001239692100000000000001400000000000000000000000005885Z01620200415X066000000
2MAIL0000153351BR10        BRNC        BRNCCOCO    BRNCCOCO13AG00000900000000001240924900000000000001200000000000000000000000002206Z01620200415X066000000
1MAIL0000153352BR10        BRNC        BRNCCOCO    BRNCCOCO13AG2020041500:00:00OR  010000054303640005430364153352                             2020041520200415Z016CIF202004150000000000108053NN0                                                  0                                        
2MAIL0000153352BR10        BRNC        BRNCCOCO    BRNCCOCO13AG00000100000000001132033100000000000000300000000000000000000000006872Z01620200415X066000000
2MAIL0000153352BR10        BRNC        BRNCCOCO    BRNCCOCO13AG00000200000000001132036700000000000000300000000000000000000000006872Z01620200415X066000000
2MAIL0000153352BR10        BRNC        BRNCCOCO    BRNCCOCO13AG00000300000000001132200400000000000000200000000000000000000000004460Z01620200415X066000000
2MAIL0000153352BR10        BRNC        BRNCCOCO    BRNCCOCO13AG00000400000000001215533700000000000000300000000000000000000000006872Z01620200415X066000000
2MAIL0000153352BR10        BRNC        BRNCCOCO    BRNCCOCO13AG00000500000000001236512900000000000003500000000000000000000000007014Z01620200415X066000000
2MAIL0000153352BR10        BRNC        BRNCCOCO    BRNCCOCO13AG00000600000000001236515000000000000003500000000000000000000000007014Z01620200415X066000000
2MAIL0000153352BR10        BRNC        BRNCCOCO    BRNCCOCO13AG00000700000000001239663300000000000001400000000000000000000000005885Z01620200415X066000000
2MAIL0000153352BR10        BRNC        BRNCCOCO    BRNCCOCO13AG00000800000000001239688600000000000002800000000000000000000000011770Z01620200415X066000000
2MAIL0000153352BR10        BRNC        BRNCCOCO    BRNCCOCO13AG00000900000000001239688800000000000004200000000000000000000000017653Z01620200415X066000000
2MAIL0000153352BR10        BRNC        BRNCCOCO    BRNCCOCO13AG00001000000000001239692100000000000002800000000000000000000000011770Z01620200415X066000000
2MAIL0000153352BR10        BRNC        BRNCCOCO    BRNCCOCO13AG00001100000000001241577400000000000001500000000000000000000000014428Z01620200415X066000000
2MAIL0000153352BR10        BRNC        BRNCCOCO    BRNCCOCO13AG00001200000000001241623700000000000000300000000000000000000000007443Z01620200415X066000000
1MAIL0000153353BR10        BRNC        BRNCCOCO    BRNCCOCO13AG2020041500:00:00OR  010000053368370005336837153353                             2020041520200415Z016CIF202004150000000000011770NN0                                                  0                                        
2MAIL0000153353BR10        BRNC        BRNCCOCO    BRNCCOCO13AG00000100000000001239663300000000000001400000000000000000000000005885Z01620200415X066000000
2MAIL0000153353BR10        BRNC        BRNCCOCO    BRNCCOCO13AG00000200000000001239688800000000000001400000000000000000000000005885Z01620200415X066000000
1MAIL0000153354BR10        BRNC        BRNCCOCO    BRNCCOCO13AG2020041500:00:00OR  010000059617980005961798153354                             2020041520200415Z016CIF202004150000000000021867NN0                                                  0                                        
2MAIL0000153354BR10        BRNC        BRNCCOCO    BRNCCOCO13AG00000100000000001226089600000000000001200000000000000000000000003830Z01620200415X066000000
2MAIL0000153354BR10        BRNC        BRNCCOCO    BRNCCOCO13AG00000200000000001236512800000000000002400000000000000000000000003591Z01620200415X066000000
2MAIL0000153354BR10        BRNC        BRNCCOCO    BRNCCOCO13AG00000300000000001240924900000000000002400000000000000000000000003456Z01620200415X066000000
2MAIL0000153354BR10        BRNC        BRNCCOCO    BRNCCOCO13AG00000400000000001241577400000000000001500000000000000000000000010990Z01620200415X066000000
