1MAIL0000152249BR10        BRNC        BRNCCOCO    BRNCCOCO13AG2020040600:00:00OR  010000029168490002916849152249                             2020040620200406Z016CIF202004060000000000013735NN0                                                  0                                        
2MAIL0000152249BR10        BRNC        BRNCCOCO    BRNCCOCO13AG00000100000000001132019900000000000000100000000000000000000000001498Z01620200406X066000000
2MAIL0000152249BR10        BRNC        BRNCCOCO    BRNCCOCO13AG00000200000000001236512900000000000001500000000000000000000000002869Z01620200406X066000000
2MAIL0000152249BR10        BRNC        BRNCCOCO    BRNCCOCO13AG00000300000000001239663300000000000001400000000000000000000000004684Z01620200406X066000000
2MAIL0000152249BR10        BRNC        BRNCCOCO    BRNCCOCO13AG00000400000000001239688800000000000001400000000000000000000000004684Z01620200406X066000000
1MAIL0000152250BR10        BRNC        BRNCCOCO    BRNCCOCO13AG2020040600:00:00OR  010000030645500003064550152250                             2020040620200406Z016CIF202004060000000000019498NN0                                                  0                                        
2MAIL0000152250BR10        BRNC        BRNCCOCO    BRNCCOCO13AG00000100000000001132018300000000000000100000000000000000000000003435Z01620200406X066003000
2MAIL0000152250BR10        BRNC        BRNCCOCO    BRNCCOCO13AG00000200000000001132019800000000000000100000000000000000000000001908Z01620200406X066003000
2MAIL0000152250BR10        BRNC        BRNCCOCO    BRNCCOCO13AG00000300000000001132033100000000000000100000000000000000000000002108Z01620200406X066003000
2MAIL0000152250BR10        BRNC        BRNCCOCO    BRNCCOCO13AG00000400000000001132036700000000000000100000000000000000000000002108Z01620200406X066003000
2MAIL0000152250BR10        BRNC        BRNCCOCO    BRNCCOCO13AG00000500000000001132200400000000000000100000000000000000000000002052Z01620200406X066003000
2MAIL0000152250BR10        BRNC        BRNCCOCO    BRNCCOCO13AG00000600000000001221415400000000000000100000000000000000000000003435Z01620200406X066003000
2MAIL0000152250BR10        BRNC        BRNCCOCO    BRNCCOCO13AG00000700000000001236512900000000000000500000000000000000000000000969Z01620200406X066003000
2MAIL0000152250BR10        BRNC        BRNCCOCO    BRNCCOCO13AG00000800000000001236515000000000000000500000000000000000000000000969Z01620200406X066003000
2MAIL0000152250BR10        BRNC        BRNCCOCO    BRNCCOCO13AG00000900000000001241623700000000000000100000000000000000000000002514Z01620200406X066003000
