1MAIL0000152947BR10        BRNC        BRNCCOCO    BRNCCOCO13AG2020041300:00:00OR  010000053811320005381132152947                             2020041320200413Z016CIF202004130000000000179087NN0                                                  0                                        
2MAIL0000152947BR10        BRNC        BRNCCOCO    BRNCCOCO13AG00000100000000001132033100000000000000500000000000000000000000009224Z01620200413X066000000
2MAIL0000152947BR10        BRNC        BRNCCOCO    BRNCCOCO13AG00000200000000001132036700000000000000500000000000000000000000009224Z01620200413X066000000
2MAIL0000152947BR10        BRNC        BRNCCOCO    BRNCCOCO13AG00000300000000001132200400000000000000500000000000000000000000009113Z01620200413X066000000
2MAIL0000152947BR10        BRNC        BRNCCOCO    BRNCCOCO13AG00000400000000001215533700000000000000500000000000000000000000009224Z01620200413X066000000
2MAIL0000152947BR10        BRNC        BRNCCOCO    BRNCCOCO13AG00000500000000001223975300000000000000100000000000000000000000004712Z01620200413X066000000
2MAIL0000152947BR10        BRNC        BRNCCOCO    BRNCCOCO13AG00000600000000001226089600000000000001200000000000000000000000004254Z01620200413X066000000
2MAIL0000152947BR10        BRNC        BRNCCOCO    BRNCCOCO13AG00000700000000001227395500000000000000500000000000000000000000009224Z01620200413X066000000
2MAIL0000152947BR10        BRNC        BRNCCOCO    BRNCCOCO13AG00000800000000001228512700000000000000100000000000000000000000004712Z01620200413X066000000
2MAIL0000152947BR10        BRNC        BRNCCOCO    BRNCCOCO13AG00000900000000001231189200000000000000100000000000000000000000004712Z01620200413X066000000
2MAIL0000152947BR10        BRNC        BRNCCOCO    BRNCCOCO13AG00001000000000001231231200000000000000100000000000000000000000004712Z01620200413X066000000
2MAIL0000152947BR10        BRNC        BRNCCOCO    BRNCCOCO13AG00001100000000001231233000000000000000100000000000000000000000004712Z01620200413X066000000
2MAIL0000152947BR10        BRNC        BRNCCOCO    BRNCCOCO13AG00001200000000001231389600000000000000500000000000000000000000009224Z01620200413X066000000
2MAIL0000152947BR10        BRNC        BRNCCOCO    BRNCCOCO13AG00001300000000001234705700000000000000100000000000000000000000004712Z01620200413X066000000
2MAIL0000152947BR10        BRNC        BRNCCOCO    BRNCCOCO13AG00001400000000001234705800000000000000100000000000000000000000004712Z01620200413X066000000
2MAIL0000152947BR10        BRNC        BRNCCOCO    BRNCCOCO13AG00001500000000001234705900000000000000100000000000000000000000004712Z01620200413X066000000
2MAIL0000152947BR10        BRNC        BRNCCOCO    BRNCCOCO13AG00001600000000001236898000000000000000500000000000000000000000009224Z01620200413X066000000
2MAIL0000152947BR10        BRNC        BRNCCOCO    BRNCCOCO13AG00001700000000001238083500000000000000100000000000000000000000004712Z01620200413X066000000
2MAIL0000152947BR10        BRNC        BRNCCOCO    BRNCCOCO13AG00001800000000001239373400000000000000100000000000000000000000005888Z01620200413X066000000
2MAIL0000152947BR10        BRNC        BRNCCOCO    BRNCCOCO13AG00001900000000001239373500000000000000100000000000000000000000005888Z01620200413X066000000
2MAIL0000152947BR10        BRNC        BRNCCOCO    BRNCCOCO13AG00002000000000001239373600000000000000100000000000000000000000005888Z01620200413X066000000
2MAIL0000152947BR10        BRNC        BRNCCOCO    BRNCCOCO13AG00002100000000001239373700000000000000100000000000000000000000005888Z01620200413X066000000
2MAIL0000152947BR10        BRNC        BRNCCOCO    BRNCCOCO13AG00002200000000001239688300000000000001400000000000000000000000004963Z01620200413X066000000
2MAIL0000152947BR10        BRNC        BRNCCOCO    BRNCCOCO13AG00002300000000001239688500000000000001400000000000000000000000004963Z01620200413X066000000
2MAIL0000152947BR10        BRNC        BRNCCOCO    BRNCCOCO13AG00002400000000001239688600000000000001400000000000000000000000004963Z01620200413X066000000
2MAIL0000152947BR10        BRNC        BRNCCOCO    BRNCCOCO13AG00002500000000001239688700000000000001400000000000000000000000004963Z01620200413X066000000
2MAIL0000152947BR10        BRNC        BRNCCOCO    BRNCCOCO13AG00002600000000001239688800000000000001400000000000000000000000004963Z01620200413X066000000
2MAIL0000152947BR10        BRNC        BRNCCOCO    BRNCCOCO13AG00002700000000001239692000000000000001400000000000000000000000004963Z01620200413X066000000
2MAIL0000152947BR10        BRNC        BRNCCOCO    BRNCCOCO13AG00002800000000001239692300000000000001400000000000000000000000004963Z01620200413X066000000
2MAIL0000152947BR10        BRNC        BRNCCOCO    BRNCCOCO13AG00002900000000001242374800000000000000100000000000000000000000004712Z01620200413X066000000
2MAIL0000152947BR10        BRNC        BRNCCOCO    BRNCCOCO13AG00003000000000001242626100000000000001400000000000000000000000004963Z01620200413X066000000
1MAIL0000152948BR10        BRNC        BRNCCOCO    BRNCCOCO13AG2020041300:00:00OR  010000029848110002984811152948                             2020041320200413Z016CIF202004130000000000107853NN0                                                  0                                        
2MAIL0000152948BR10        BRNC        BRNCCOCO    BRNCCOCO13AG00000100000000001132004000000000000002000000000000000000000000020406Z01620200413X066000000
2MAIL0000152948BR10        BRNC        BRNCCOCO    BRNCCOCO13AG00000200000000001132004200000000000002000000000000000000000000028130Z01620200413X066000000
2MAIL0000152948BR10        BRNC        BRNCCOCO    BRNCCOCO13AG00000300000000001132036700000000000000600000000000000000000000013036Z01620200413X066000000
2MAIL0000152948BR10        BRNC        BRNCCOCO    BRNCCOCO13AG00000400000000001132200400000000000000600000000000000000000000012690Z01620200413X066000000
2MAIL0000152948BR10        BRNC        BRNCCOCO    BRNCCOCO13AG00000500000000001236512800000000000002400000000000000000000000004142Z01620200413X066000000
2MAIL0000152948BR10        BRNC        BRNCCOCO    BRNCCOCO13AG00000600000000001236512900000000000007000000000000000000000000012727Z01620200413X066000000
2MAIL0000152948BR10        BRNC        BRNCCOCO    BRNCCOCO13AG00000700000000001236515000000000000007000000000000000000000000012727Z01620200413X066000000
2MAIL0000152948BR10        BRNC        BRNCCOCO    BRNCCOCO13AG00000800000000001240924900000000000002400000000000000000000000003995Z01620200413X066000000
1MAIL0000152949BR10        BRNC        BRNCCOCO    BRNCCOCO13AG2020041300:00:00OR  010000053444750005344475152949                             2020041320200413Z016CIF202004130000000000033434NN0                                                  0                                        
2MAIL0000152949BR10        BRNC        BRNCCOCO    BRNCCOCO13AG00000100000000001132036700000000000000200000000000000000000000004581Z01620200413X066000000
2MAIL0000152949BR10        BRNC        BRNCCOCO    BRNCCOCO13AG00000200000000001241577400000000000003000000000000000000000000028853Z01620200413X066000000
1MAIL0000152950BR10        BRNC        BRNCCOCO    BRNCCOCO13AG2020041300:00:00OR  010000043237930004323793152950                             2020041320200413Z016CIF202004130000000000019009NN0                                                  0                                        
2MAIL0000152950BR10        BRNC        BRNCCOCO    BRNCCOCO13AG00000100000000001132033100000000000000200000000000000000000000004581Z01620200413X066000000
2MAIL0000152950BR10        BRNC        BRNCCOCO    BRNCCOCO13AG00000200000000001241577400000000000001500000000000000000000000014428Z01620200413X066000000
