1MAIL0000151245BR10        BRNC        BRNCCOCO    BRNCCOCO13AG2020032700:00:00OR  010000061671770006167177151245                             2020032720200327Z016CIF202003270000000000239434NN0                                                  0                                        
2MAIL0000151245BR10        BRNC        BRNCCOCO    BRNCCOCO13AG00000100000000001132004000000000000000500000000000000000000000005102Z01620200327X066000000
2MAIL0000151245BR10        BRNC        BRNCCOCO    BRNCCOCO13AG00000200000000001132004200000000000000500000000000000000000000007033Z01620200327X066000000
2MAIL0000151245BR10        BRNC        BRNCCOCO    BRNCCOCO13AG00000300000000001132019800000000000000800000000000000000000000015743Z01620200327X066000000
2MAIL0000151245BR10        BRNC        BRNCCOCO    BRNCCOCO13AG00000400000000001132020900000000000000800000000000000000000000015743Z01620200327X066000000
2MAIL0000151245BR10        BRNC        BRNCCOCO    BRNCCOCO13AG00000500000000001132033100000000000001000000000000000000000000021728Z01620200327X066000000
2MAIL0000151245BR10        BRNC        BRNCCOCO    BRNCCOCO13AG00000600000000001132036700000000000003000000000000000000000000065183Z01620200327X066000000
2MAIL0000151245BR10        BRNC        BRNCCOCO    BRNCCOCO13AG00000700000000001132200400000000000003000000000000000000000000063452Z01620200327X066000000
2MAIL0000151245BR10        BRNC        BRNCCOCO    BRNCCOCO13AG00000800000000001215533700000000000000800000000000000000000000017382Z01620200327X066000000
2MAIL0000151245BR10        BRNC        BRNCCOCO    BRNCCOCO13AG00000900000000001231389600000000000000800000000000000000000000017382Z01620200327X066000000
2MAIL0000151245BR10        BRNC        BRNCCOCO    BRNCCOCO13AG00001000000000001239688600000000000001400000000000000000000000005343Z01620200327X066000000
2MAIL0000151245BR10        BRNC        BRNCCOCO    BRNCCOCO13AG00001100000000001239688800000000000001400000000000000000000000005343Z01620200327X066000000
1MAIL0000151248BR10        BRNC        BRNCCOCO    BRNCCOCO13AG2020032700:00:00OR  010000049378430004937843151248                             2020032720200327Z138CIF202003270000000000004547NN0                                                  0                                        
2MAIL0000151248BR10        BRNC        BRNCCOCO    BRNCCOCO13AG00000100000000001132036700000000000000200000000000000000000000004547Z13820200327X066000000
1MAIL0000151249BR10        BRNC        BRNCCOCO    BRNCCOCO13AG2020032700:00:00OR  010000058240480005824048151249                             2020032720200327Z079CIF202003270000000000035186NN0                                                  0                                        
2MAIL0000151249BR10        BRNC        BRNCCOCO    BRNCCOCO13AG00000100000000001132019700000000000000100000000000000000000000001974Z07920200327X066000000
2MAIL0000151249BR10        BRNC        BRNCCOCO    BRNCCOCO13AG00000200000000001132019800000000000000100000000000000000000000001974Z07920200327X066000000
2MAIL0000151249BR10        BRNC        BRNCCOCO    BRNCCOCO13AG00000300000000001132019900000000000000100000000000000000000000001974Z07920200327X066000000
2MAIL0000151249BR10        BRNC        BRNCCOCO    BRNCCOCO13AG00000400000000001132020900000000000000100000000000000000000000001974Z07920200327X066000000
2MAIL0000151249BR10        BRNC        BRNCCOCO    BRNCCOCO13AG00000500000000001132033100000000000000200000000000000000000000004357Z07920200327X066000000
2MAIL0000151249BR10        BRNC        BRNCCOCO    BRNCCOCO13AG00000600000000001132036700000000000000200000000000000000000000004357Z07920200327X066000000
2MAIL0000151249BR10        BRNC        BRNCCOCO    BRNCCOCO13AG00000700000000001132200400000000000000200000000000000000000000004241Z07920200327X066000000
2MAIL0000151249BR10        BRNC        BRNCCOCO    BRNCCOCO13AG00000800000000001215533700000000000000200000000000000000000000004357Z07920200327X066000000
2MAIL0000151249BR10        BRNC        BRNCCOCO    BRNCCOCO13AG00000900000000001227735000000000000000100000000000000000000000001974Z07920200327X066000000
2MAIL0000151249BR10        BRNC        BRNCCOCO    BRNCCOCO13AG00001000000000001235699400000000000001000000000000000000000000004002Z07920200327X066000000
2MAIL0000151249BR10        BRNC        BRNCCOCO    BRNCCOCO13AG00001100000000001235699800000000000001000000000000000000000000004002Z07920200327X066000000
1MAIL0000151251BR10        BRNC        BRNCCOCO    BRNCCOCO13AG2020032700:00:00OR  010000029804450002980445151251                             2020032720200327Z016CIF202003270000000000065107NN0                                                  0                                        
2MAIL0000151251BR10        BRNC        BRNCCOCO    BRNCCOCO13AG00000100000000001132033100000000000000100000000000000000000000002173Z01620200327X066000000
2MAIL0000151251BR10        BRNC        BRNCCOCO    BRNCCOCO13AG00000200000000001132036700000000000000600000000000000000000000013036Z01620200327X066000000
2MAIL0000151251BR10        BRNC        BRNCCOCO    BRNCCOCO13AG00000300000000001132200400000000000000200000000000000000000000004230Z01620200327X066000000
2MAIL0000151251BR10        BRNC        BRNCCOCO    BRNCCOCO13AG00000400000000001215533700000000000000100000000000000000000000002173Z01620200327X066000000
2MAIL0000151251BR10        BRNC        BRNCCOCO    BRNCCOCO13AG00000500000000001227395500000000000000300000000000000000000000006518Z01620200327X066000000
2MAIL0000151251BR10        BRNC        BRNCCOCO    BRNCCOCO13AG00000600000000001228512700000000000000200000000000000000000000010153Z01620200327X066000000
2MAIL0000151251BR10        BRNC        BRNCCOCO    BRNCCOCO13AG00000700000000001231189200000000000000200000000000000000000000010153Z01620200327X066000000
2MAIL0000151251BR10        BRNC        BRNCCOCO    BRNCCOCO13AG00000800000000001231231200000000000000200000000000000000000000010153Z01620200327X066000000
2MAIL0000151251BR10        BRNC        BRNCCOCO    BRNCCOCO13AG00000900000000001236898000000000000000300000000000000000000000006518Z01620200327X066000000
