1MAIL0000150970BR10        BRNC        BRNCCOCO    BRNCCOCO13AG2020032600:00:00OR  010000048723570004872357150970                             2020032620200326Z016CIF202003260000000000441830NN0                                                  0                                        
2MAIL0000150970BR10        BRNC        BRNCCOCO    BRNCCOCO13AG00000100000000001132036700000000000000100000000000000000000000001763Z01620200326X066000000
2MAIL0000150970BR10        BRNC        BRNCCOCO    BRNCCOCO13AG00000200000000001241577400000000000060000000000000000000000000421735Z01620200326X066000000
2MAIL0000150970BR10        BRNC        BRNCCOCO    BRNCCOCO13AG00000300000000001241623700000000000001000000000000000000000000018332Z01620200326X066000000
1MAIL0000150971BR10        BRNC        BRNCCOCO    BRNCCOCO13AG2020032600:00:00OR  010000040341030004034103150971                             2020032620200326Z016CIF202003260000000000083066NN0                                                  0                                        
2MAIL0000150971BR10        BRNC        BRNCCOCO    BRNCCOCO13AG00000100000000001132036700000000000000500000000000000000000000011454Z01620200326X066000000
2MAIL0000150971BR10        BRNC        BRNCCOCO    BRNCCOCO13AG00000200000000001231231200000000000000100000000000000000000000005568Z01620200326X066000000
2MAIL0000150971BR10        BRNC        BRNCCOCO    BRNCCOCO13AG00000300000000001231233000000000000000100000000000000000000000005568Z01620200326X066000000
2MAIL0000150971BR10        BRNC        BRNCCOCO    BRNCCOCO13AG00000400000000001234705700000000000000100000000000000000000000005568Z01620200326X066000000
2MAIL0000150971BR10        BRNC        BRNCCOCO    BRNCCOCO13AG00000500000000001234705800000000000000100000000000000000000000005568Z01620200326X066000000
2MAIL0000150971BR10        BRNC        BRNCCOCO    BRNCCOCO13AG00000600000000001236512900000000000007000000000000000000000000014030Z01620200326X066000000
2MAIL0000150971BR10        BRNC        BRNCCOCO    BRNCCOCO13AG00000700000000001239688800000000000002800000000000000000000000011770Z01620200326X066000000
2MAIL0000150971BR10        BRNC        BRNCCOCO    BRNCCOCO13AG00000800000000001239692000000000000002800000000000000000000000011770Z01620200326X066000000
2MAIL0000150971BR10        BRNC        BRNCCOCO    BRNCCOCO13AG00000900000000001239692100000000000002800000000000000000000000011770Z01620200326X066000000
1MAIL0000150972BR10        BRNC        BRNCCOCO    BRNCCOCO13AG2020032600:00:00OR  010000049114830004911483150972                             2020032620200326Z016CIF202003260000000000008222NN0                                                  0                                        
2MAIL0000150972BR10        BRNC        BRNCCOCO    BRNCCOCO13AG00000100000000001132019800000000000000100000000000000000000000001967Z01620200326X066000000
2MAIL0000150972BR10        BRNC        BRNCCOCO    BRNCCOCO13AG00000200000000001132020900000000000000100000000000000000000000001967Z01620200326X066000000
2MAIL0000150972BR10        BRNC        BRNCCOCO    BRNCCOCO13AG00000300000000001132033100000000000000100000000000000000000000002173Z01620200326X066000000
2MAIL0000150972BR10        BRNC        BRNCCOCO    BRNCCOCO13AG00000400000000001132200400000000000000100000000000000000000000002115Z01620200326X066000000
1MAIL0000150973BR10        BRNC        BRNCCOCO    BRNCCOCO13AG2020032600:00:00OR  010000052360470005236047150973                             2020032620200326Z016CIF202003260000000000049092NN0                                                  0                                        
2MAIL0000150973BR10        BRNC        BRNCCOCO    BRNCCOCO13AG00000100000000001132018300000000000000100000000000000000000000003541Z01620200326X066000000
2MAIL0000150973BR10        BRNC        BRNCCOCO    BRNCCOCO13AG00000200000000001132019700000000000000100000000000000000000000001967Z01620200326X066000000
2MAIL0000150973BR10        BRNC        BRNCCOCO    BRNCCOCO13AG00000300000000001132019800000000000000100000000000000000000000001967Z01620200326X066000000
2MAIL0000150973BR10        BRNC        BRNCCOCO    BRNCCOCO13AG00000400000000001132019900000000000000100000000000000000000000001967Z01620200326X066000000
2MAIL0000150973BR10        BRNC        BRNCCOCO    BRNCCOCO13AG00000500000000001132020900000000000000100000000000000000000000001967Z01620200326X066000000
2MAIL0000150973BR10        BRNC        BRNCCOCO    BRNCCOCO13AG00000600000000001132033100000000000000100000000000000000000000002173Z01620200326X066000000
2MAIL0000150973BR10        BRNC        BRNCCOCO    BRNCCOCO13AG00000700000000001132036700000000000000100000000000000000000000002173Z01620200326X066000000
2MAIL0000150973BR10        BRNC        BRNCCOCO    BRNCCOCO13AG00000800000000001132200400000000000000200000000000000000000000004230Z01620200326X066000000
2MAIL0000150973BR10        BRNC        BRNCCOCO    BRNCCOCO13AG00000900000000001215533700000000000000100000000000000000000000002173Z01620200326X066000000
2MAIL0000150973BR10        BRNC        BRNCCOCO    BRNCCOCO13AG00001000000000001221415400000000000000100000000000000000000000003541Z01620200326X066000000
2MAIL0000150973BR10        BRNC        BRNCCOCO    BRNCCOCO13AG00001100000000001227735000000000000000100000000000000000000000001967Z01620200326X066000000
2MAIL0000150973BR10        BRNC        BRNCCOCO    BRNCCOCO13AG00001200000000001231189200000000000000100000000000000000000000005280Z01620200326X066000000
2MAIL0000150973BR10        BRNC        BRNCCOCO    BRNCCOCO13AG00001300000000001231231200000000000000100000000000000000000000005280Z01620200326X066000000
2MAIL0000150973BR10        BRNC        BRNCCOCO    BRNCCOCO13AG00001400000000001236512800000000000001200000000000000000000000002280Z01620200326X066000000
2MAIL0000150973BR10        BRNC        BRNCCOCO    BRNCCOCO13AG00001500000000001236512900000000000001500000000000000000000000002997Z01620200326X066000000
2MAIL0000150973BR10        BRNC        BRNCCOCO    BRNCCOCO13AG00001600000000001236515000000000000001500000000000000000000000002997Z01620200326X066000000
2MAIL0000150973BR10        BRNC        BRNCCOCO    BRNCCOCO13AG00001700000000001241623700000000000000100000000000000000000000002592Z01620200326X066000000
1MAIL0000150974BR10        BRNC        BRNCCOCO    BRNCCOCO13AG2020032600:00:00OR  010000052360470005236047150974                             2020032620200326Z079CIF202003260000000000056545NN0                                                  0                                        
2MAIL0000150974BR10        BRNC        BRNCCOCO    BRNCCOCO13AG00000100000000001132018300000000000000100000000000000000000000003549Z07920200326X066000000
2MAIL0000150974BR10        BRNC        BRNCCOCO    BRNCCOCO13AG00000200000000001132019700000000000000100000000000000000000000001974Z07920200326X066000000
2MAIL0000150974BR10        BRNC        BRNCCOCO    BRNCCOCO13AG00000300000000001132019800000000000000100000000000000000000000001974Z07920200326X066000000
2MAIL0000150974BR10        BRNC        BRNCCOCO    BRNCCOCO13AG00000400000000001132019900000000000000100000000000000000000000001974Z07920200326X066000000
2MAIL0000150974BR10        BRNC        BRNCCOCO    BRNCCOCO13AG00000500000000001132020900000000000000100000000000000000000000001974Z07920200326X066000000
2MAIL0000150974BR10        BRNC        BRNCCOCO    BRNCCOCO13AG00000600000000001132033100000000000000200000000000000000000000004357Z07920200326X066000000
2MAIL0000150974BR10        BRNC        BRNCCOCO    BRNCCOCO13AG00000700000000001132036700000000000000200000000000000000000000004357Z07920200326X066000000
2MAIL0000150974BR10        BRNC        BRNCCOCO    BRNCCOCO13AG00000800000000001132200400000000000000100000000000000000000000002121Z07920200326X066000000
2MAIL0000150974BR10        BRNC        BRNCCOCO    BRNCCOCO13AG00000900000000001132400100000000000000100000000000000000000000003010Z07920200326X066000000
2MAIL0000150974BR10        BRNC        BRNCCOCO    BRNCCOCO13AG00001000000000001215533700000000000000200000000000000000000000004357Z07920200326X066000000
2MAIL0000150974BR10        BRNC        BRNCCOCO    BRNCCOCO13AG00001100000000001221415400000000000000100000000000000000000000003549Z07920200326X066000000
2MAIL0000150974BR10        BRNC        BRNCCOCO    BRNCCOCO13AG00001200000000001227735000000000000000100000000000000000000000001974Z07920200326X066000000
2MAIL0000150974BR10        BRNC        BRNCCOCO    BRNCCOCO13AG00001300000000001231189200000000000000100000000000000000000000005293Z07920200326X066000000
2MAIL0000150974BR10        BRNC        BRNCCOCO    BRNCCOCO13AG00001400000000001231231200000000000000100000000000000000000000005293Z07920200326X066000000
2MAIL0000150974BR10        BRNC        BRNCCOCO    BRNCCOCO13AG00001500000000001239688800000000000001400000000000000000000000005593Z07920200326X066000000
2MAIL0000150974BR10        BRNC        BRNCCOCO    BRNCCOCO13AG00001600000000001241623700000000000000200000000000000000000000005196Z07920200326X066000000
1MAIL0000150975BR10        BRNC        BRNCCOCO    BRNCCOCO13AG2020032600:00:00OR  010000029847900002984790150975                             2020032620200326Z016CIF202003260000000000077769NN0                                                  0                                        
2MAIL0000150975BR10        BRNC        BRNCCOCO    BRNCCOCO13AG00000100000000001132036700000000000000400000000000000000000000009163Z01620200326X066000000
2MAIL0000150975BR10        BRNC        BRNCCOCO    BRNCCOCO13AG00000200000000001132200400000000000000400000000000000000000000008920Z01620200326X066000000
2MAIL0000150975BR10        BRNC        BRNCCOCO    BRNCCOCO13AG00000300000000001215533700000000000000200000000000000000000000004581Z01620200326X066000000
2MAIL0000150975BR10        BRNC        BRNCCOCO    BRNCCOCO13AG00000400000000001226089600000000000001200000000000000000000000005045Z01620200326X066000000
2MAIL0000150975BR10        BRNC        BRNCCOCO    BRNCCOCO13AG00000500000000001227395500000000000000100000000000000000000000002291Z01620200326X066000000
2MAIL0000150975BR10        BRNC        BRNCCOCO    BRNCCOCO13AG00000600000000001231389600000000000000100000000000000000000000002291Z01620200326X066000000
2MAIL0000150975BR10        BRNC        BRNCCOCO    BRNCCOCO13AG00000700000000001235699400000000000001000000000000000000000000004211Z01620200326X066000000
2MAIL0000150975BR10        BRNC        BRNCCOCO    BRNCCOCO13AG00000800000000001235699700000000000001000000000000000000000000004211Z01620200326X066000000
2MAIL0000150975BR10        BRNC        BRNCCOCO    BRNCCOCO13AG00000900000000001235699800000000000001000000000000000000000000004211Z01620200326X066000000
2MAIL0000150975BR10        BRNC        BRNCCOCO    BRNCCOCO13AG00001000000000001236515000000000000003500000000000000000000000007014Z01620200326X066000000
2MAIL0000150975BR10        BRNC        BRNCCOCO    BRNCCOCO13AG00001100000000001236898000000000000000100000000000000000000000002291Z01620200326X066000000
2MAIL0000150975BR10        BRNC        BRNCCOCO    BRNCCOCO13AG00001200000000001239663300000000000001400000000000000000000000005885Z01620200326X066000000
2MAIL0000150975BR10        BRNC        BRNCCOCO    BRNCCOCO13AG00001300000000001239688600000000000001400000000000000000000000005885Z01620200326X066000000
2MAIL0000150975BR10        BRNC        BRNCCOCO    BRNCCOCO13AG00001400000000001239692100000000000001400000000000000000000000005885Z01620200326X066000000
2MAIL0000150975BR10        BRNC        BRNCCOCO    BRNCCOCO13AG00001500000000001239692300000000000001400000000000000000000000005885Z01620200326X066000000
1MAIL0000150976BR10        BRNC        BRNCCOCO    BRNCCOCO13AG2020032600:00:00OR  010000028734400002873440150976                             2020032620200326Z016CIF202003260000000000024231NN0                                                  0                                        
2MAIL0000150976BR10        BRNC        BRNCCOCO    BRNCCOCO13AG00000100000000001132036700000000000000200000000000000000000000004581Z01620200326X066000000
2MAIL0000150976BR10        BRNC        BRNCCOCO    BRNCCOCO13AG00000200000000001215533700000000000000200000000000000000000000004581Z01620200326X066000000
2MAIL0000150976BR10        BRNC        BRNCCOCO    BRNCCOCO13AG00000300000000001227395500000000000000200000000000000000000000004581Z01620200326X066000000
2MAIL0000150976BR10        BRNC        BRNCCOCO    BRNCCOCO13AG00000400000000001236512800000000000002800000000000000000000000005338Z01620200326X066000000
2MAIL0000150976BR10        BRNC        BRNCCOCO    BRNCCOCO13AG00000500000000001240924900000000000002800000000000000000000000005150Z01620200326X066000000
1MAIL0000150977BR10        BRNC        BRNCCOCO    BRNCCOCO13AG2020032600:00:00OR  010000056718150005671815150977                             2020032620200326Z016CIF202003260000000000050719NN0                                                  0                                        
2MAIL0000150977BR10        BRNC        BRNCCOCO    BRNCCOCO13AG00000100000000001235699800000000000001000000000000000000000000004211Z01620200326X066000000
2MAIL0000150977BR10        BRNC        BRNCCOCO    BRNCCOCO13AG00000200000000001239663300000000000001400000000000000000000000005885Z01620200326X066000000
2MAIL0000150977BR10        BRNC        BRNCCOCO    BRNCCOCO13AG00000300000000001239688600000000000001400000000000000000000000005885Z01620200326X066000000
2MAIL0000150977BR10        BRNC        BRNCCOCO    BRNCCOCO13AG00000400000000001239688800000000000001400000000000000000000000005885Z01620200326X066000000
2MAIL0000150977BR10        BRNC        BRNCCOCO    BRNCCOCO13AG00000500000000001241577400000000000003000000000000000000000000028853Z01620200326X066000000
1MAIL0000150978BR10        BRNC        BRNCCOCO    BRNCCOCO13AG2020032600:00:00OR  010000054535080005453508150978                             2020032620200326Z016CIF202003260000000000025341NN0                                                  0                                        
2MAIL0000150978BR10        BRNC        BRNCCOCO    BRNCCOCO13AG00000100000000001214448800000000000000500000000000000000000000025341Z01620200326X066000000
1MAIL0000150979BR10        BRNC        BRNCCOCO    BRNCCOCO13AG2020032600:00:00OR  010000029798960002979896150979                             2020032620200326Z016CIF202003260000000000027707NN0                                                  0                                        
2MAIL0000150979BR10        BRNC        BRNCCOCO    BRNCCOCO13AG00000100000000001132019700000000000000100000000000000000000000001967Z01620200326X066000000
2MAIL0000150979BR10        BRNC        BRNCCOCO    BRNCCOCO13AG00000200000000001132019800000000000000100000000000000000000000001967Z01620200326X066000000
2MAIL0000150979BR10        BRNC        BRNCCOCO    BRNCCOCO13AG00000300000000001132020900000000000000100000000000000000000000001967Z01620200326X066000000
2MAIL0000150979BR10        BRNC        BRNCCOCO    BRNCCOCO13AG00000400000000001132033100000000000000100000000000000000000000002173Z01620200326X066000000
2MAIL0000150979BR10        BRNC        BRNCCOCO    BRNCCOCO13AG00000500000000001132036700000000000000100000000000000000000000002173Z01620200326X066000000
2MAIL0000150979BR10        BRNC        BRNCCOCO    BRNCCOCO13AG00000600000000001132200400000000000000200000000000000000000000004230Z01620200326X066000000
2MAIL0000150979BR10        BRNC        BRNCCOCO    BRNCCOCO13AG00000700000000001132400100000000000000100000000000000000000000003003Z01620200326X066000000
2MAIL0000150979BR10        BRNC        BRNCCOCO    BRNCCOCO13AG00000800000000001215533700000000000000100000000000000000000000002173Z01620200326X066000000
2MAIL0000150979BR10        BRNC        BRNCCOCO    BRNCCOCO13AG00000900000000001236512800000000000000400000000000000000000000000760Z01620200326X066000000
2MAIL0000150979BR10        BRNC        BRNCCOCO    BRNCCOCO13AG00001000000000001236512900000000000000500000000000000000000000000999Z01620200326X066000000
2MAIL0000150979BR10        BRNC        BRNCCOCO    BRNCCOCO13AG00001100000000001236515000000000000000500000000000000000000000000999Z01620200326X066000000
2MAIL0000150979BR10        BRNC        BRNCCOCO    BRNCCOCO13AG00001200000000001240924900000000000000400000000000000000000000000734Z01620200326X066000000
2MAIL0000150979BR10        BRNC        BRNCCOCO    BRNCCOCO13AG00001300000000001241577400000000000000500000000000000000000000004562Z01620200326X066000000
1MAIL0000150980BR10        BRNC        BRNCCOCO    BRNCCOCO13AG2020032600:00:00OR  010000033440810003344081150980                             2020032620200326Z016CIF202003260000000000074680NN0                                                  0                                        
2MAIL0000150980BR10        BRNC        BRNCCOCO    BRNCCOCO13AG00000100000000001132033100000000000000200000000000000000000000004581Z01620200326X066000000
2MAIL0000150980BR10        BRNC        BRNCCOCO    BRNCCOCO13AG00000200000000001132036700000000000000200000000000000000000000004581Z01620200326X066000000
2MAIL0000150980BR10        BRNC        BRNCCOCO    BRNCCOCO13AG00000300000000001236512800000000000002400000000000000000000000004576Z01620200326X066000000
2MAIL0000150980BR10        BRNC        BRNCCOCO    BRNCCOCO13AG00000400000000001236512900000000000002500000000000000000000000005010Z01620200326X066000000
2MAIL0000150980BR10        BRNC        BRNCCOCO    BRNCCOCO13AG00000500000000001236515000000000000002500000000000000000000000005010Z01620200326X066000000
2MAIL0000150980BR10        BRNC        BRNCCOCO    BRNCCOCO13AG00000600000000001239663300000000000001400000000000000000000000005885Z01620200326X066000000
2MAIL0000150980BR10        BRNC        BRNCCOCO    BRNCCOCO13AG00000700000000001239688600000000000001400000000000000000000000005885Z01620200326X066000000
2MAIL0000150980BR10        BRNC        BRNCCOCO    BRNCCOCO13AG00000800000000001239688800000000000001400000000000000000000000005885Z01620200326X066000000
2MAIL0000150980BR10        BRNC        BRNCCOCO    BRNCCOCO13AG00000900000000001240924900000000000002400000000000000000000000004414Z01620200326X066000000
2MAIL0000150980BR10        BRNC        BRNCCOCO    BRNCCOCO13AG00001000000000001241577400000000000003000000000000000000000000028853Z01620200326X066000000
1MAIL0000150981BR10        BRNC        BRNCCOCO    BRNCCOCO13AG2020032600:00:00OR  010000043633650004363365150981                             2020032620200326Z016CIF202003260000000000081377NN0                                                  0                                        
2MAIL0000150981BR10        BRNC        BRNCCOCO    BRNCCOCO13AG00000100000000001132033100000000000000100000000000000000000000002291Z01620200326X066000000
2MAIL0000150981BR10        BRNC        BRNCCOCO    BRNCCOCO13AG00000200000000001132036700000000000000100000000000000000000000002291Z01620200326X066000000
2MAIL0000150981BR10        BRNC        BRNCCOCO    BRNCCOCO13AG00000300000000001215533700000000000000100000000000000000000000002291Z01620200326X066000000
2MAIL0000150981BR10        BRNC        BRNCCOCO    BRNCCOCO13AG00000400000000001227395500000000000000100000000000000000000000002291Z01620200326X066000000
2MAIL0000150981BR10        BRNC        BRNCCOCO    BRNCCOCO13AG00000500000000001231389600000000000000100000000000000000000000002291Z01620200326X066000000
2MAIL0000150981BR10        BRNC        BRNCCOCO    BRNCCOCO13AG00000600000000001236898000000000000000100000000000000000000000002291Z01620200326X066000000
2MAIL0000150981BR10        BRNC        BRNCCOCO    BRNCCOCO13AG00000700000000001241577400000000000006000000000000000000000000057707Z01620200326X066000000
2MAIL0000150981BR10        BRNC        BRNCCOCO    BRNCCOCO13AG00000800000000001241623700000000000000400000000000000000000000009924Z01620200326X066000000
1MAIL0000150982BR10        BRNC        BRNCCOCO    BRNCCOCO13AG2020032600:00:00OR  010000060090180006009018150982                             2020032620200326Z016CIF202003260000000000012758NN0                                                  0                                        
2MAIL0000150982BR10        BRNC        BRNCCOCO    BRNCCOCO13AG00000100000000001132033100000000000000100000000000000000000000002291Z01620200326X066000000
2MAIL0000150982BR10        BRNC        BRNCCOCO    BRNCCOCO13AG00000200000000001132036700000000000000100000000000000000000000002291Z01620200326X066000000
2MAIL0000150982BR10        BRNC        BRNCCOCO    BRNCCOCO13AG00000300000000001215533700000000000000100000000000000000000000002291Z01620200326X066000000
2MAIL0000150982BR10        BRNC        BRNCCOCO    BRNCCOCO13AG00000400000000001239688800000000000001400000000000000000000000005885Z01620200326X066000000
1MAIL0000150983BR10        BRNC        BRNCCOCO    BRNCCOCO13AG2020032600:00:00OR  010000060447360006044736150983                             2020032620200326Z016CIF202003260000000000020503NN0                                                  0                                        
2MAIL0000150983BR10        BRNC        BRNCCOCO    BRNCCOCO13AG00000100000000001132019800000000000000100000000000000000000000002076Z01620200326X066000000
2MAIL0000150983BR10        BRNC        BRNCCOCO    BRNCCOCO13AG00000200000000001132020900000000000000100000000000000000000000002076Z01620200326X066000000
2MAIL0000150983BR10        BRNC        BRNCCOCO    BRNCCOCO13AG00000300000000001132036700000000000000200000000000000000000000004581Z01620200326X066000000
2MAIL0000150983BR10        BRNC        BRNCCOCO    BRNCCOCO13AG00000400000000001239688800000000000001400000000000000000000000005885Z01620200326X066000000
2MAIL0000150983BR10        BRNC        BRNCCOCO    BRNCCOCO13AG00000500000000001239692100000000000001400000000000000000000000005885Z01620200326X066000000
1MAIL0000150984BR10        BRNC        BRNCCOCO    BRNCCOCO13AG2020032600:00:00OR  010000046733450004673345150984                             2020032620200326Z016CIF202003260000000000324835NN0                                                  0                                        
2MAIL0000150984BR10        BRNC        BRNCCOCO    BRNCCOCO13AG00000100000000001132019700000000000000300000000000000000000000005903Z01620200326X066000000
2MAIL0000150984BR10        BRNC        BRNCCOCO    BRNCCOCO13AG00000200000000001132019800000000000000300000000000000000000000005903Z01620200326X066000000
2MAIL0000150984BR10        BRNC        BRNCCOCO    BRNCCOCO13AG00000300000000001132019900000000000000300000000000000000000000005903Z01620200326X066000000
2MAIL0000150984BR10        BRNC        BRNCCOCO    BRNCCOCO13AG00000400000000001132020900000000000000300000000000000000000000005903Z01620200326X066000000
2MAIL0000150984BR10        BRNC        BRNCCOCO    BRNCCOCO13AG00000500000000001132033100000000000001600000000000000000000000034765Z01620200326X066000000
2MAIL0000150984BR10        BRNC        BRNCCOCO    BRNCCOCO13AG00000600000000001132036700000000000003200000000000000000000000069528Z01620200326X066000000
2MAIL0000150984BR10        BRNC        BRNCCOCO    BRNCCOCO13AG00000700000000001132200400000000000001000000000000000000000000021151Z01620200326X066000000
2MAIL0000150984BR10        BRNC        BRNCCOCO    BRNCCOCO13AG00000800000000001132400100000000000000300000000000000000000000009009Z01620200326X066000000
2MAIL0000150984BR10        BRNC        BRNCCOCO    BRNCCOCO13AG00000900000000001215533700000000000001600000000000000000000000034765Z01620200326X066000000
2MAIL0000150984BR10        BRNC        BRNCCOCO    BRNCCOCO13AG00001000000000001223975300000000000000200000000000000000000000010153Z01620200326X066000000
2MAIL0000150984BR10        BRNC        BRNCCOCO    BRNCCOCO13AG00001100000000001227395500000000000001000000000000000000000000021728Z01620200326X066000000
2MAIL0000150984BR10        BRNC        BRNCCOCO    BRNCCOCO13AG00001200000000001227735000000000000000300000000000000000000000005903Z01620200326X066000000
2MAIL0000150984BR10        BRNC        BRNCCOCO    BRNCCOCO13AG00001300000000001228512700000000000000200000000000000000000000010153Z01620200326X066000000
2MAIL0000150984BR10        BRNC        BRNCCOCO    BRNCCOCO13AG00001400000000001231189200000000000000200000000000000000000000010153Z01620200326X066000000
2MAIL0000150984BR10        BRNC        BRNCCOCO    BRNCCOCO13AG00001500000000001231231200000000000000200000000000000000000000010153Z01620200326X066000000
2MAIL0000150984BR10        BRNC        BRNCCOCO    BRNCCOCO13AG00001600000000001231389600000000000001000000000000000000000000021728Z01620200326X066000000
2MAIL0000150984BR10        BRNC        BRNCCOCO    BRNCCOCO13AG00001700000000001234705900000000000000200000000000000000000000010153Z01620200326X066000000
2MAIL0000150984BR10        BRNC        BRNCCOCO    BRNCCOCO13AG00001800000000001236898000000000000001000000000000000000000000021728Z01620200326X066000000
2MAIL0000150984BR10        BRNC        BRNCCOCO    BRNCCOCO13AG00001900000000001238083500000000000000200000000000000000000000010153Z01620200326X066000000
1MAIL0000150985BR10        BRNC        BRNCCOCO    BRNCCOCO13AG2020032600:00:00OR  010000051108290005110829150985                             2020032620200326Z016CIF202003260000000000050123NN0                                                  0                                        
2MAIL0000150985BR10        BRNC        BRNCCOCO    BRNCCOCO13AG00000100000000001132019800000000000000100000000000000000000000002076Z01620200326X066000000
2MAIL0000150985BR10        BRNC        BRNCCOCO    BRNCCOCO13AG00000200000000001132033100000000000000500000000000000000000000011454Z01620200326X066000000
2MAIL0000150985BR10        BRNC        BRNCCOCO    BRNCCOCO13AG00000300000000001132036700000000000001000000000000000000000000022909Z01620200326X066000000
2MAIL0000150985BR10        BRNC        BRNCCOCO    BRNCCOCO13AG00000400000000001132200400000000000000100000000000000000000000002230Z01620200326X066000000
2MAIL0000150985BR10        BRNC        BRNCCOCO    BRNCCOCO13AG00000500000000001215533700000000000000500000000000000000000000011454Z01620200326X066000000
1MAIL0000150986BR10        BRNC        BRNCCOCO    BRNCCOCO13AG2020032600:00:00OR  010000060441260006044126150986                             2020032620200326Z016CIF202003260000000000006873NN0                                                  0                                        
2MAIL0000150986BR10        BRNC        BRNCCOCO    BRNCCOCO13AG00000100000000001132033100000000000000100000000000000000000000002291Z01620200326X066000000
2MAIL0000150986BR10        BRNC        BRNCCOCO    BRNCCOCO13AG00000200000000001132036700000000000000100000000000000000000000002291Z01620200326X066000000
2MAIL0000150986BR10        BRNC        BRNCCOCO    BRNCCOCO13AG00000300000000001227395500000000000000100000000000000000000000002291Z01620200326X066000000
1MAIL0000150987BR10        BRNC        BRNCCOCO    BRNCCOCO13AG2020032600:00:00OR  010000049558730004955873150987                             2020032620200326Z016CIF202003260000000000090413NN0                                                  0                                        
2MAIL0000150987BR10        BRNC        BRNCCOCO    BRNCCOCO13AG00000100000000001132004000000000000001000000000000000000000000009978Z01620200326X066000000
2MAIL0000150987BR10        BRNC        BRNCCOCO    BRNCCOCO13AG00000200000000001132034900000000000000500000000000000000000000010831Z01620200326X066000000
2MAIL0000150987BR10        BRNC        BRNCCOCO    BRNCCOCO13AG00000300000000001132036700000000000000100000000000000000000000002125Z01620200326X066000000
2MAIL0000150987BR10        BRNC        BRNCCOCO    BRNCCOCO13AG00000400000000001132200400000000000000400000000000000000000000008460Z01620200326X066000000
2MAIL0000150987BR10        BRNC        BRNCCOCO    BRNCCOCO13AG00000500000000001235699800000000000001000000000000000000000000003741Z01620200326X066000000
2MAIL0000150987BR10        BRNC        BRNCCOCO    BRNCCOCO13AG00000600000000001236512800000000000002400000000000000000000000004051Z01620200326X066000000
2MAIL0000150987BR10        BRNC        BRNCCOCO    BRNCCOCO13AG00000700000000001236512900000000000003000000000000000000000000005334Z01620200326X066000000
2MAIL0000150987BR10        BRNC        BRNCCOCO    BRNCCOCO13AG00000800000000001236515000000000000004000000000000000000000000007113Z01620200326X066000000
2MAIL0000150987BR10        BRNC        BRNCCOCO    BRNCCOCO13AG00000900000000001239663300000000000001400000000000000000000000005226Z01620200326X066000000
2MAIL0000150987BR10        BRNC        BRNCCOCO    BRNCCOCO13AG00001000000000001239688600000000000001400000000000000000000000005226Z01620200326X066000000
2MAIL0000150987BR10        BRNC        BRNCCOCO    BRNCCOCO13AG00001100000000001239688800000000000001400000000000000000000000005226Z01620200326X066000000
2MAIL0000150987BR10        BRNC        BRNCCOCO    BRNCCOCO13AG00001200000000001239692100000000000001400000000000000000000000005226Z01620200326X066000000
2MAIL0000150987BR10        BRNC        BRNCCOCO    BRNCCOCO13AG00001300000000001241623700000000000000500000000000000000000000012650Z01620200326X066000000
2MAIL0000150987BR10        BRNC        BRNCCOCO    BRNCCOCO13AG00001400000000001242626100000000000001400000000000000000000000005226Z01620200326X066000000
1MAIL0000150988BR10        BRNC        BRNCCOCO    BRNCCOCO13AG2020032600:00:00OR  010000052344030005234403150988                             2020032620200326Z016CIF202003260000000000025779NN0                                                  0                                        
2MAIL0000150988BR10        BRNC        BRNCCOCO    BRNCCOCO13AG00000100000000001132033100000000000000100000000000000000000000002173Z01620200326X066000000
2MAIL0000150988BR10        BRNC        BRNCCOCO    BRNCCOCO13AG00000200000000001132036700000000000000200000000000000000000000004345Z01620200326X066000000
2MAIL0000150988BR10        BRNC        BRNCCOCO    BRNCCOCO13AG00000300000000001132200400000000000000200000000000000000000000004230Z01620200326X066000000
2MAIL0000150988BR10        BRNC        BRNCCOCO    BRNCCOCO13AG00000400000000001215533700000000000000200000000000000000000000004345Z01620200326X066000000
2MAIL0000150988BR10        BRNC        BRNCCOCO    BRNCCOCO13AG00000500000000001239688600000000000001400000000000000000000000005343Z01620200326X066000000
2MAIL0000150988BR10        BRNC        BRNCCOCO    BRNCCOCO13AG00000600000000001239688800000000000001400000000000000000000000005343Z01620200326X066000000
1MAIL0000150989BR10        BRNC        BRNCCOCO    BRNCCOCO13AG2020032600:00:00OR  010000056381310005638131150989                             2020032620200326Z016CIF202003260000000000133541NN0                                                  0                                        
2MAIL0000150989BR10        BRNC        BRNCCOCO    BRNCCOCO13AG00000100000000001132019900000000000000100000000000000000000000001972Z01620200326X066000000
2MAIL0000150989BR10        BRNC        BRNCCOCO    BRNCCOCO13AG00000200000000001132020900000000000000100000000000000000000000001972Z01620200326X066000000
2MAIL0000150989BR10        BRNC        BRNCCOCO    BRNCCOCO13AG00000300000000001132033100000000000000100000000000000000000000002178Z01620200326X066000000
2MAIL0000150989BR10        BRNC        BRNCCOCO    BRNCCOCO13AG00000400000000001132036700000000000000300000000000000000000000006532Z01620200326X066000000
2MAIL0000150989BR10        BRNC        BRNCCOCO    BRNCCOCO13AG00000500000000001132200400000000000000500000000000000000000000010598Z01620200326X066000000
2MAIL0000150989BR10        BRNC        BRNCCOCO    BRNCCOCO13AG00000600000000001215533700000000000000200000000000000000000000004355Z01620200326X066000000
2MAIL0000150989BR10        BRNC        BRNCCOCO    BRNCCOCO13AG00000700000000001223975300000000000000100000000000000000000000005087Z01620200326X066000000
2MAIL0000150989BR10        BRNC        BRNCCOCO    BRNCCOCO13AG00000800000000001224882700000000000000200000000000000000000000006329Z01620200326X066000000
2MAIL0000150989BR10        BRNC        BRNCCOCO    BRNCCOCO13AG00000900000000001228512700000000000000200000000000000000000000010176Z01620200326X066000000
2MAIL0000150989BR10        BRNC        BRNCCOCO    BRNCCOCO13AG00001000000000001231189200000000000000100000000000000000000000005087Z01620200326X066000000
2MAIL0000150989BR10        BRNC        BRNCCOCO    BRNCCOCO13AG00001100000000001231233000000000000000100000000000000000000000005087Z01620200326X066000000
2MAIL0000150989BR10        BRNC        BRNCCOCO    BRNCCOCO13AG00001200000000001234705900000000000000100000000000000000000000005087Z01620200326X066000000
2MAIL0000150989BR10        BRNC        BRNCCOCO    BRNCCOCO13AG00001300000000001235699700000000000001000000000000000000000000003833Z01620200326X066000000
2MAIL0000150989BR10        BRNC        BRNCCOCO    BRNCCOCO13AG00001400000000001235699800000000000002000000000000000000000000007665Z01620200326X066000000
2MAIL0000150989BR10        BRNC        BRNCCOCO    BRNCCOCO13AG00001500000000001236512900000000000007000000000000000000000000012727Z01620200326X066000000
2MAIL0000150989BR10        BRNC        BRNCCOCO    BRNCCOCO13AG00001600000000001236515000000000000007000000000000000000000000012727Z01620200326X066000000
2MAIL0000150989BR10        BRNC        BRNCCOCO    BRNCCOCO13AG00001700000000001239688300000000000001400000000000000000000000005355Z01620200326X066000000
2MAIL0000150989BR10        BRNC        BRNCCOCO    BRNCCOCO13AG00001800000000001239688600000000000001400000000000000000000000005355Z01620200326X066000000
2MAIL0000150989BR10        BRNC        BRNCCOCO    BRNCCOCO13AG00001900000000001239688700000000000001400000000000000000000000005355Z01620200326X066000000
2MAIL0000150989BR10        BRNC        BRNCCOCO    BRNCCOCO13AG00002000000000001239688800000000000002800000000000000000000000010709Z01620200326X066000000
2MAIL0000150989BR10        BRNC        BRNCCOCO    BRNCCOCO13AG00002100000000001239692100000000000001400000000000000000000000005355Z01620200326X066000000
1MAIL0000150990BR10        BRNC        BRNCCOCO    BRNCCOCO13AG2020032600:00:00OR  010000028991510002899151150990                             2020032620200326Z016CIF202003260000000000004521NN0                                                  0                                        
2MAIL0000150990BR10        BRNC        BRNCCOCO    BRNCCOCO13AG00000100000000001132036700000000000000100000000000000000000000002291Z01620200326X066000000
2MAIL0000150990BR10        BRNC        BRNCCOCO    BRNCCOCO13AG00000200000000001132200400000000000000100000000000000000000000002230Z01620200326X066000000
1MAIL0000150991BR10        BRNC        BRNCCOCO    BRNCCOCO13AG2020032600:00:00OR  010000033441270003344127150991                             2020032620200326Z016CIF202003260000000000117977NN0                                                  0                                        
2MAIL0000150991BR10        BRNC        BRNCCOCO    BRNCCOCO13AG00000100000000001132019800000000000000100000000000000000000000002076Z01620200326X066000000
2MAIL0000150991BR10        BRNC        BRNCCOCO    BRNCCOCO13AG00000200000000001132030800000000000000400000000000000000000000013791Z01620200326X066000000
2MAIL0000150991BR10        BRNC        BRNCCOCO    BRNCCOCO13AG00000300000000001132033100000000000000100000000000000000000000002291Z01620200326X066000000
2MAIL0000150991BR10        BRNC        BRNCCOCO    BRNCCOCO13AG00000400000000001132034900000000000000500000000000000000000000012283Z01620200326X066000000
2MAIL0000150991BR10        BRNC        BRNCCOCO    BRNCCOCO13AG00000500000000001132036700000000000000100000000000000000000000002291Z01620200326X066000000
2MAIL0000150991BR10        BRNC        BRNCCOCO    BRNCCOCO13AG00000600000000001132200400000000000000100000000000000000000000002230Z01620200326X066000000
2MAIL0000150991BR10        BRNC        BRNCCOCO    BRNCCOCO13AG00000700000000001223975300000000000000100000000000000000000000005568Z01620200326X066000000
2MAIL0000150991BR10        BRNC        BRNCCOCO    BRNCCOCO13AG00000800000000001226089600000000000001200000000000000000000000005045Z01620200326X066000000
2MAIL0000150991BR10        BRNC        BRNCCOCO    BRNCCOCO13AG00000900000000001228274000000000000000100000000000000000000000005568Z01620200326X066000000
2MAIL0000150991BR10        BRNC        BRNCCOCO    BRNCCOCO13AG00001000000000001228512700000000000000100000000000000000000000005568Z01620200326X066000000
2MAIL0000150991BR10        BRNC        BRNCCOCO    BRNCCOCO13AG00001100000000001231189200000000000000100000000000000000000000005568Z01620200326X066000000
2MAIL0000150991BR10        BRNC        BRNCCOCO    BRNCCOCO13AG00001200000000001231231200000000000000100000000000000000000000005568Z01620200326X066000000
2MAIL0000150991BR10        BRNC        BRNCCOCO    BRNCCOCO13AG00001300000000001231233000000000000000100000000000000000000000005568Z01620200326X066000000
2MAIL0000150991BR10        BRNC        BRNCCOCO    BRNCCOCO13AG00001400000000001235699800000000000001000000000000000000000000004211Z01620200326X066000000
2MAIL0000150991BR10        BRNC        BRNCCOCO    BRNCCOCO13AG00001500000000001236515000000000000000500000000000000000000000001002Z01620200326X066000000
2MAIL0000150991BR10        BRNC        BRNCCOCO    BRNCCOCO13AG00001600000000001239663300000000000001400000000000000000000000005885Z01620200326X066000000
2MAIL0000150991BR10        BRNC        BRNCCOCO    BRNCCOCO13AG00001700000000001239688600000000000001400000000000000000000000005885Z01620200326X066000000
2MAIL0000150991BR10        BRNC        BRNCCOCO    BRNCCOCO13AG00001800000000001239688800000000000001400000000000000000000000005885Z01620200326X066000000
2MAIL0000150991BR10        BRNC        BRNCCOCO    BRNCCOCO13AG00001900000000001239692100000000000001400000000000000000000000005885Z01620200326X066000000
2MAIL0000150991BR10        BRNC        BRNCCOCO    BRNCCOCO13AG00002000000000001239692300000000000001400000000000000000000000005885Z01620200326X066000000
2MAIL0000150991BR10        BRNC        BRNCCOCO    BRNCCOCO13AG00002100000000001241623700000000000000400000000000000000000000009924Z01620200326X066000000
1MAIL0000150992BR10        BRNC        BRNCCOCO    BRNCCOCO13AG2020032600:00:00OR  010000030632650003063265150992                             2020032620200326Z016CIF202003260000000000015346NN0                                                  0                                        
2MAIL0000150992BR10        BRNC        BRNCCOCO    BRNCCOCO13AG00000100000000001132018300000000000000100000000000000000000000003541Z01620200326X066000000
2MAIL0000150992BR10        BRNC        BRNCCOCO    BRNCCOCO13AG00000200000000001132033100000000000000200000000000000000000000004345Z01620200326X066000000
2MAIL0000150992BR10        BRNC        BRNCCOCO    BRNCCOCO13AG00000300000000001132036700000000000000100000000000000000000000002173Z01620200326X066000000
2MAIL0000150992BR10        BRNC        BRNCCOCO    BRNCCOCO13AG00000400000000001132200400000000000000100000000000000000000000002115Z01620200326X066000000
2MAIL0000150992BR10        BRNC        BRNCCOCO    BRNCCOCO13AG00000500000000001236515000000000000000500000000000000000000000000999Z01620200326X066000000
2MAIL0000150992BR10        BRNC        BRNCCOCO    BRNCCOCO13AG00000600000000001236898000000000000000100000000000000000000000002173Z01620200326X066000000
