1MAIL0000153384BR10        BRNC        BRNCCOCO    BRNCCOCO13AG2020041500:00:00OR  010000045586880004558688153384                             2020041520200415Z016CIF202004150000000000252342NN0                                                  0                                        
2MAIL0000153384BR10        BRNC        BRNCCOCO    BRNCCOCO13AG00000100000000001132004000000000000000500000000000000000000000004849Z01620200415X066000000
2MAIL0000153384BR10        BRNC        BRNCCOCO    BRNCCOCO13AG00000200000000001132018300000000000000200000000000000000000000006056Z01620200415X066000000
2MAIL0000153384BR10        BRNC        BRNCCOCO    BRNCCOCO13AG00000300000000001132019800000000000000100000000000000000000000001719Z01620200415X066000000
2MAIL0000153384BR10        BRNC        BRNCCOCO    BRNCCOCO13AG00000400000000001132020900000000000000100000000000000000000000001719Z01620200415X066000000
2MAIL0000153384BR10        BRNC        BRNCCOCO    BRNCCOCO13AG00000500000000001132030900000000000000200000000000000000000000006735Z01620200415X066000000
2MAIL0000153384BR10        BRNC        BRNCCOCO    BRNCCOCO13AG00000600000000001132033100000000000001000000000000000000000000018862Z01620200415X066000000
2MAIL0000153384BR10        BRNC        BRNCCOCO    BRNCCOCO13AG00000700000000001132036700000000000001000000000000000000000000018862Z01620200415X066000000
2MAIL0000153384BR10        BRNC        BRNCCOCO    BRNCCOCO13AG00000800000000001132200400000000000000200000000000000000000000003645Z01620200415X066000000
2MAIL0000153384BR10        BRNC        BRNCCOCO    BRNCCOCO13AG00000900000000001215533700000000000001000000000000000000000000018862Z01620200415X066000000
2MAIL0000153384BR10        BRNC        BRNCCOCO    BRNCCOCO13AG00001000000000001221415400000000000000200000000000000000000000006056Z01620200415X066000000
2MAIL0000153384BR10        BRNC        BRNCCOCO    BRNCCOCO13AG00001100000000001223975300000000000000100000000000000000000000004818Z01620200415X066000000
2MAIL0000153384BR10        BRNC        BRNCCOCO    BRNCCOCO13AG00001200000000001226089600000000000002400000000000000000000000008700Z01620200415X066000000
2MAIL0000153384BR10        BRNC        BRNCCOCO    BRNCCOCO13AG00001300000000001228274000000000000000100000000000000000000000004818Z01620200415X066000000
2MAIL0000153384BR10        BRNC        BRNCCOCO    BRNCCOCO13AG00001400000000001228512700000000000000100000000000000000000000004818Z01620200415X066000000
2MAIL0000153384BR10        BRNC        BRNCCOCO    BRNCCOCO13AG00001500000000001231189200000000000000100000000000000000000000004818Z01620200415X066000000
2MAIL0000153384BR10        BRNC        BRNCCOCO    BRNCCOCO13AG00001600000000001231231200000000000000100000000000000000000000004818Z01620200415X066000000
2MAIL0000153384BR10        BRNC        BRNCCOCO    BRNCCOCO13AG00001700000000001231233000000000000000100000000000000000000000004818Z01620200415X066000000
2MAIL0000153384BR10        BRNC        BRNCCOCO    BRNCCOCO13AG00001800000000001234705700000000000000100000000000000000000000004818Z01620200415X066000000
2MAIL0000153384BR10        BRNC        BRNCCOCO    BRNCCOCO13AG00001900000000001234705800000000000000100000000000000000000000004818Z01620200415X066000000
2MAIL0000153384BR10        BRNC        BRNCCOCO    BRNCCOCO13AG00002000000000001234705900000000000000100000000000000000000000004818Z01620200415X066000000
2MAIL0000153384BR10        BRNC        BRNCCOCO    BRNCCOCO13AG00002100000000001235699400000000000001000000000000000000000000003632Z01620200415X066000000
2MAIL0000153384BR10        BRNC        BRNCCOCO    BRNCCOCO13AG00002200000000001235699700000000000001000000000000000000000000003632Z01620200415X066000000
2MAIL0000153384BR10        BRNC        BRNCCOCO    BRNCCOCO13AG00002300000000001235699800000000000001000000000000000000000000003632Z01620200415X066000000
2MAIL0000153384BR10        BRNC        BRNCCOCO    BRNCCOCO13AG00002400000000001236512800000000000001200000000000000000000000002068Z01620200415X066000000
2MAIL0000153384BR10        BRNC        BRNCCOCO    BRNCCOCO13AG00002500000000001236512900000000000003500000000000000000000000006010Z01620200415X066000000
2MAIL0000153384BR10        BRNC        BRNCCOCO    BRNCCOCO13AG00002600000000001236515000000000000003500000000000000000000000006010Z01620200415X066000000
2MAIL0000153384BR10        BRNC        BRNCCOCO    BRNCCOCO13AG00002700000000001238083500000000000000100000000000000000000000004818Z01620200415X066000000
2MAIL0000153384BR10        BRNC        BRNCCOCO    BRNCCOCO13AG00002800000000001238083600000000000000100000000000000000000000005988Z01620200415X066000000
2MAIL0000153384BR10        BRNC        BRNCCOCO    BRNCCOCO13AG00002900000000001239373500000000000000100000000000000000000000006020Z01620200415X066000000
2MAIL0000153384BR10        BRNC        BRNCCOCO    BRNCCOCO13AG00003000000000001239373600000000000000100000000000000000000000006020Z01620200415X066000000
2MAIL0000153384BR10        BRNC        BRNCCOCO    BRNCCOCO13AG00003100000000001239373700000000000000100000000000000000000000006020Z01620200415X066000000
2MAIL0000153384BR10        BRNC        BRNCCOCO    BRNCCOCO13AG00003200000000001239663300000000000001400000000000000000000000005074Z01620200415X066000000
2MAIL0000153384BR10        BRNC        BRNCCOCO    BRNCCOCO13AG00003300000000001239688300000000000001400000000000000000000000005074Z01620200415X066000000
2MAIL0000153384BR10        BRNC        BRNCCOCO    BRNCCOCO13AG00003400000000001239688500000000000001400000000000000000000000005074Z01620200415X066000000
2MAIL0000153384BR10        BRNC        BRNCCOCO    BRNCCOCO13AG00003500000000001239688600000000000001400000000000000000000000005074Z01620200415X066000000
2MAIL0000153384BR10        BRNC        BRNCCOCO    BRNCCOCO13AG00003600000000001239688700000000000001400000000000000000000000005074Z01620200415X066000000
2MAIL0000153384BR10        BRNC        BRNCCOCO    BRNCCOCO13AG00003700000000001239688800000000000001400000000000000000000000005074Z01620200415X066000000
2MAIL0000153384BR10        BRNC        BRNCCOCO    BRNCCOCO13AG00003800000000001239692000000000000001400000000000000000000000005074Z01620200415X066000000
2MAIL0000153384BR10        BRNC        BRNCCOCO    BRNCCOCO13AG00003900000000001239692100000000000001400000000000000000000000005074Z01620200415X066000000
2MAIL0000153384BR10        BRNC        BRNCCOCO    BRNCCOCO13AG00004000000000001239692300000000000001400000000000000000000000005074Z01620200415X066000000
2MAIL0000153384BR10        BRNC        BRNCCOCO    BRNCCOCO13AG00004100000000001240924900000000000001200000000000000000000000001995Z01620200415X066000000
2MAIL0000153384BR10        BRNC        BRNCCOCO    BRNCCOCO13AG00004200000000001241577400000000000000500000000000000000000000004118Z01620200415X066000000
2MAIL0000153384BR10        BRNC        BRNCCOCO    BRNCCOCO13AG00004300000000001241623700000000000000100000000000000000000000002212Z01620200415X066000000
2MAIL0000153384BR10        BRNC        BRNCCOCO    BRNCCOCO13AG00004400000000001242754900000000000001400000000000000000000000005074Z01620200415X066000000
1MAIL0000153385BR10        BRNC        BRNCCOCO    BRNCCOCO13AG2020041500:00:00OR  010000058179680005817968153385                             2020041520200415Z016CIF202004150000000000012633NN0                                                  0                                        
2MAIL0000153385BR10        BRNC        BRNCCOCO    BRNCCOCO13AG00000100000000001235699400000000000001000000000000000000000000004211Z01620200415X066000000
2MAIL0000153385BR10        BRNC        BRNCCOCO    BRNCCOCO13AG00000200000000001235699700000000000001000000000000000000000000004211Z01620200415X066000000
2MAIL0000153385BR10        BRNC        BRNCCOCO    BRNCCOCO13AG00000300000000001235699800000000000001000000000000000000000000004211Z01620200415X066000000
1MAIL0000153386BR10        BRNC        BRNCCOCO    BRNCCOCO13AG2020041500:00:00OR  010000029253380002925338153386                             2020041520200415Z016CIF202004150000000000029932NN0                                                  0                                        
2MAIL0000153386BR10        BRNC        BRNCCOCO    BRNCCOCO13AG00000100000000001132033100000000000000300000000000000000000000006518Z01620200415X066000000
2MAIL0000153386BR10        BRNC        BRNCCOCO    BRNCCOCO13AG00000200000000001132036700000000000000500000000000000000000000010863Z01620200415X066000000
2MAIL0000153386BR10        BRNC        BRNCCOCO    BRNCCOCO13AG00000300000000001215533700000000000000300000000000000000000000006518Z01620200415X066000000
2MAIL0000153386BR10        BRNC        BRNCCOCO    BRNCCOCO13AG00000400000000001236512800000000000000400000000000000000000000000690Z01620200415X066000000
2MAIL0000153386BR10        BRNC        BRNCCOCO    BRNCCOCO13AG00000500000000001239688800000000000001400000000000000000000000005343Z01620200415X066000000
1MAIL0000153387BR10        BRNC        BRNCCOCO    BRNCCOCO13AG2020041500:00:00OR  010000030571410003057141153387                             2020041520200415Z016CIF202004150000000000013591NN0                                                  0                                        
2MAIL0000153387BR10        BRNC        BRNCCOCO    BRNCCOCO13AG00000100000000001132019800000000000000100000000000000000000000001498Z01620200415X066000000
2MAIL0000153387BR10        BRNC        BRNCCOCO    BRNCCOCO13AG00000200000000001132033100000000000000100000000000000000000000001654Z01620200415X066000000
2MAIL0000153387BR10        BRNC        BRNCCOCO    BRNCCOCO13AG00000300000000001132036700000000000000200000000000000000000000003307Z01620200415X066000000
2MAIL0000153387BR10        BRNC        BRNCCOCO    BRNCCOCO13AG00000400000000001215533700000000000000100000000000000000000000001654Z01620200415X066000000
2MAIL0000153387BR10        BRNC        BRNCCOCO    BRNCCOCO13AG00000500000000001231389600000000000000100000000000000000000000001654Z01620200415X066000000
2MAIL0000153387BR10        BRNC        BRNCCOCO    BRNCCOCO13AG00000600000000001236512900000000000001000000000000000000000000001912Z01620200415X066000000
2MAIL0000153387BR10        BRNC        BRNCCOCO    BRNCCOCO13AG00000700000000001236515000000000000001000000000000000000000000001912Z01620200415X066000000
1MAIL0000153388BR10        BRNC        BRNCCOCO    BRNCCOCO13AG2020041500:00:00OR  010000060855900006085590153388                             2020041520200415Z016CIF202004150000000000016034NN0                                                  0                                        
2MAIL0000153388BR10        BRNC        BRNCCOCO    BRNCCOCO13AG00000100000000001132033100000000000000200000000000000000000000004581Z01620200415X066000000
2MAIL0000153388BR10        BRNC        BRNCCOCO    BRNCCOCO13AG00000200000000001132036700000000000000200000000000000000000000004581Z01620200415X066000000
2MAIL0000153388BR10        BRNC        BRNCCOCO    BRNCCOCO13AG00000300000000001215533700000000000000200000000000000000000000004581Z01620200415X066000000
2MAIL0000153388BR10        BRNC        BRNCCOCO    BRNCCOCO13AG00000400000000001231389600000000000000100000000000000000000000002291Z01620200415X066000000
