1MAIL0000151057BR10        BRNC        BRNCCOCO    BRNCCOCO13AG2020032600:00:00OR  010000036943100003694310151057                             2020032620200326Z016CIF202003260000000000029133NN0                                                  0                                        
2MAIL0000151057BR10        BRNC        BRNCCOCO    BRNCCOCO13AG00000100000000001235699400000000000001000000000000000000000000003825Z01620200326X066000000
2MAIL0000151057BR10        BRNC        BRNCCOCO    BRNCCOCO13AG00000200000000001235699800000000000001000000000000000000000000003825Z01620200326X066000000
2MAIL0000151057BR10        BRNC        BRNCCOCO    BRNCCOCO13AG00000300000000001236512900000000000001000000000000000000000000001818Z01620200326X066000000
2MAIL0000151057BR10        BRNC        BRNCCOCO    BRNCCOCO13AG00000400000000001236515000000000000002000000000000000000000000003636Z01620200326X066000000
2MAIL0000151057BR10        BRNC        BRNCCOCO    BRNCCOCO13AG00000500000000001239688600000000000001400000000000000000000000005343Z01620200326X066000000
2MAIL0000151057BR10        BRNC        BRNCCOCO    BRNCCOCO13AG00000600000000001239692100000000000001400000000000000000000000005343Z01620200326X066000000
2MAIL0000151057BR10        BRNC        BRNCCOCO    BRNCCOCO13AG00000700000000001239692300000000000001400000000000000000000000005343Z01620200326X066000000
1MAIL0000151058BR10        BRNC        BRNCCOCO    BRNCCOCO13AG2020032600:00:00OR  010000029894580002989458151058                             2020032620200326Z016CIF202003260000000000108587NN0                                                  0                                        
2MAIL0000151058BR10        BRNC        BRNCCOCO    BRNCCOCO13AG00000100000000001132036700000000000001000000000000000000000000022909Z01620200326X066000000
2MAIL0000151058BR10        BRNC        BRNCCOCO    BRNCCOCO13AG00000200000000001226089600000000000001200000000000000000000000005045Z01620200326X066000000
2MAIL0000151058BR10        BRNC        BRNCCOCO    BRNCCOCO13AG00000300000000001231189200000000000000100000000000000000000000005568Z01620200326X066000000
2MAIL0000151058BR10        BRNC        BRNCCOCO    BRNCCOCO13AG00000400000000001231231200000000000000100000000000000000000000005568Z01620200326X066000000
2MAIL0000151058BR10        BRNC        BRNCCOCO    BRNCCOCO13AG00000500000000001231233000000000000000100000000000000000000000005568Z01620200326X066000000
2MAIL0000151058BR10        BRNC        BRNCCOCO    BRNCCOCO13AG00000600000000001235699400000000000001000000000000000000000000004211Z01620200326X066000000
2MAIL0000151058BR10        BRNC        BRNCCOCO    BRNCCOCO13AG00000700000000001235699800000000000001000000000000000000000000004211Z01620200326X066000000
2MAIL0000151058BR10        BRNC        BRNCCOCO    BRNCCOCO13AG00000800000000001236512800000000000001200000000000000000000000002288Z01620200326X066000000
2MAIL0000151058BR10        BRNC        BRNCCOCO    BRNCCOCO13AG00000900000000001236512900000000000003000000000000000000000000006012Z01620200326X066000000
2MAIL0000151058BR10        BRNC        BRNCCOCO    BRNCCOCO13AG00001000000000001236515000000000000003000000000000000000000000006012Z01620200326X066000000
2MAIL0000151058BR10        BRNC        BRNCCOCO    BRNCCOCO13AG00001100000000001239663300000000000001400000000000000000000000005885Z01620200326X066000000
2MAIL0000151058BR10        BRNC        BRNCCOCO    BRNCCOCO13AG00001200000000001239688300000000000001400000000000000000000000005885Z01620200326X066000000
2MAIL0000151058BR10        BRNC        BRNCCOCO    BRNCCOCO13AG00001300000000001239688500000000000001400000000000000000000000005885Z01620200326X066000000
2MAIL0000151058BR10        BRNC        BRNCCOCO    BRNCCOCO13AG00001400000000001239688600000000000001400000000000000000000000005885Z01620200326X066000000
2MAIL0000151058BR10        BRNC        BRNCCOCO    BRNCCOCO13AG00001500000000001239688800000000000001400000000000000000000000005885Z01620200326X066000000
2MAIL0000151058BR10        BRNC        BRNCCOCO    BRNCCOCO13AG00001600000000001239692100000000000001400000000000000000000000005885Z01620200326X066000000
2MAIL0000151058BR10        BRNC        BRNCCOCO    BRNCCOCO13AG00001700000000001239692300000000000001400000000000000000000000005885Z01620200326X066000000
1MAIL0000151059BR10        BRNC        BRNCCOCO    BRNCCOCO13AG2020032600:00:00OR  010000034769610003476961151059                             2020032620200326Z016CIF202003260000000000009163NN0                                                  0                                        
2MAIL0000151059BR10        BRNC        BRNCCOCO    BRNCCOCO13AG00000100000000001132033100000000000000100000000000000000000000002291Z01620200326X066000000
2MAIL0000151059BR10        BRNC        BRNCCOCO    BRNCCOCO13AG00000200000000001132036700000000000000200000000000000000000000004581Z01620200326X066000000
2MAIL0000151059BR10        BRNC        BRNCCOCO    BRNCCOCO13AG00000300000000001215533700000000000000100000000000000000000000002291Z01620200326X066000000
1MAIL0000151060BR10        BRNC        BRNCCOCO    BRNCCOCO13AG2020032600:00:00OR  010000041069840004106984151060                             2020032620200326Z016CIF202003260000000000008575NN0                                                  0                                        
2MAIL0000151060BR10        BRNC        BRNCCOCO    BRNCCOCO13AG00000100000000001132036700000000000000200000000000000000000000004345Z01620200326X066000000
2MAIL0000151060BR10        BRNC        BRNCCOCO    BRNCCOCO13AG00000200000000001132200400000000000000200000000000000000000000004230Z01620200326X066000000
1MAIL0000151061BR10        BRNC        BRNCCOCO    BRNCCOCO13AG2020032600:00:00OR  010000010385730001038573151061                             2020032620200326Z016CIF202003260000000000016029NN0                                                  0                                        
2MAIL0000151061BR10        BRNC        BRNCCOCO    BRNCCOCO13AG00000100000000001239688800000000000001400000000000000000000000005343Z01620200326X066000000
2MAIL0000151061BR10        BRNC        BRNCCOCO    BRNCCOCO13AG00000200000000001239692100000000000002800000000000000000000000010686Z01620200326X066000000
1MAIL0000151062BR10        BRNC        BRNCCOCO    BRNCCOCO13AG2020032600:00:00OR  010000040087810004008781151062                             2020032620200326Z016CIF202003260000000000025300NN0                                                  0                                        
2MAIL0000151062BR10        BRNC        BRNCCOCO    BRNCCOCO13AG00000100000000001132036700000000000000100000000000000000000000002173Z01620200326X066000000
2MAIL0000151062BR10        BRNC        BRNCCOCO    BRNCCOCO13AG00000200000000001215533700000000000000100000000000000000000000002173Z01620200326X066000000
2MAIL0000151062BR10        BRNC        BRNCCOCO    BRNCCOCO13AG00000300000000001221415400000000000000100000000000000000000000003541Z01620200326X066000000
2MAIL0000151062BR10        BRNC        BRNCCOCO    BRNCCOCO13AG00000400000000001236512800000000000001200000000000000000000000002280Z01620200326X066000000
2MAIL0000151062BR10        BRNC        BRNCCOCO    BRNCCOCO13AG00000500000000001236898000000000000000100000000000000000000000002173Z01620200326X066000000
2MAIL0000151062BR10        BRNC        BRNCCOCO    BRNCCOCO13AG00000600000000001241623700000000000000500000000000000000000000012960Z01620200326X066000000
1MAIL0000151063BR10        BRNC        BRNCCOCO    BRNCCOCO13AG2020032600:00:00OR  010000055903090005590309151063                             2020032620200326Z016CIF202003260000000000006461NN0                                                  0                                        
2MAIL0000151063BR10        BRNC        BRNCCOCO    BRNCCOCO13AG00000100000000001132033100000000000000100000000000000000000000002173Z01620200326X066000000
2MAIL0000151063BR10        BRNC        BRNCCOCO    BRNCCOCO13AG00000200000000001132036700000000000000100000000000000000000000002173Z01620200326X066000000
2MAIL0000151063BR10        BRNC        BRNCCOCO    BRNCCOCO13AG00000300000000001132200400000000000000100000000000000000000000002115Z01620200326X066000000
1MAIL0000151064BR10        BRNC        BRNCCOCO    BRNCCOCO13AG2020032600:00:00OR  010000040155190004015519151064                             2020032620200326Z016CIF202003260000000000130601NN0                                                  0                                        
2MAIL0000151064BR10        BRNC        BRNCCOCO    BRNCCOCO13AG00000100000000001132018300000000000000100000000000000000000000003735Z01620200326X066000000
2MAIL0000151064BR10        BRNC        BRNCCOCO    BRNCCOCO13AG00000200000000001132019800000000000000100000000000000000000000002076Z01620200326X066000000
2MAIL0000151064BR10        BRNC        BRNCCOCO    BRNCCOCO13AG00000300000000001132019900000000000000100000000000000000000000002076Z01620200326X066000000
2MAIL0000151064BR10        BRNC        BRNCCOCO    BRNCCOCO13AG00000400000000001132020900000000000000100000000000000000000000002076Z01620200326X066000000
2MAIL0000151064BR10        BRNC        BRNCCOCO    BRNCCOCO13AG00000500000000001132033100000000000000200000000000000000000000004581Z01620200326X066000000
2MAIL0000151064BR10        BRNC        BRNCCOCO    BRNCCOCO13AG00000600000000001132036700000000000000300000000000000000000000006872Z01620200326X066000000
2MAIL0000151064BR10        BRNC        BRNCCOCO    BRNCCOCO13AG00000700000000001132200400000000000000100000000000000000000000002230Z01620200326X066000000
2MAIL0000151064BR10        BRNC        BRNCCOCO    BRNCCOCO13AG00000800000000001221415400000000000000100000000000000000000000003735Z01620200326X066000000
2MAIL0000151064BR10        BRNC        BRNCCOCO    BRNCCOCO13AG00000900000000001226089600000000000001200000000000000000000000005045Z01620200326X066000000
2MAIL0000151064BR10        BRNC        BRNCCOCO    BRNCCOCO13AG00001000000000001227395500000000000000200000000000000000000000004581Z01620200326X066000000
2MAIL0000151064BR10        BRNC        BRNCCOCO    BRNCCOCO13AG00001100000000001231189200000000000000100000000000000000000000005568Z01620200326X066000000
2MAIL0000151064BR10        BRNC        BRNCCOCO    BRNCCOCO13AG00001200000000001231231200000000000000100000000000000000000000005568Z01620200326X066000000
2MAIL0000151064BR10        BRNC        BRNCCOCO    BRNCCOCO13AG00001300000000001231233000000000000000100000000000000000000000005568Z01620200326X066000000
2MAIL0000151064BR10        BRNC        BRNCCOCO    BRNCCOCO13AG00001400000000001231389600000000000000100000000000000000000000002291Z01620200326X066000000
2MAIL0000151064BR10        BRNC        BRNCCOCO    BRNCCOCO13AG00001500000000001235699400000000000001000000000000000000000000004211Z01620200326X066000000
2MAIL0000151064BR10        BRNC        BRNCCOCO    BRNCCOCO13AG00001600000000001235699700000000000001000000000000000000000000004211Z01620200326X066000000
2MAIL0000151064BR10        BRNC        BRNCCOCO    BRNCCOCO13AG00001700000000001235699800000000000001000000000000000000000000004211Z01620200326X066000000
2MAIL0000151064BR10        BRNC        BRNCCOCO    BRNCCOCO13AG00001800000000001236512800000000000000800000000000000000000000001526Z01620200326X066000000
2MAIL0000151064BR10        BRNC        BRNCCOCO    BRNCCOCO13AG00001900000000001236512900000000000001000000000000000000000000002004Z01620200326X066000000
2MAIL0000151064BR10        BRNC        BRNCCOCO    BRNCCOCO13AG00002000000000001236515000000000000001000000000000000000000000002004Z01620200326X066000000
2MAIL0000151064BR10        BRNC        BRNCCOCO    BRNCCOCO13AG00002100000000001239688600000000000001400000000000000000000000005885Z01620200326X066000000
2MAIL0000151064BR10        BRNC        BRNCCOCO    BRNCCOCO13AG00002200000000001239688800000000000001400000000000000000000000005885Z01620200326X066000000
2MAIL0000151064BR10        BRNC        BRNCCOCO    BRNCCOCO13AG00002300000000001239692100000000000001400000000000000000000000005885Z01620200326X066000000
2MAIL0000151064BR10        BRNC        BRNCCOCO    BRNCCOCO13AG00002400000000001241577400000000000003000000000000000000000000028853Z01620200326X066000000
2MAIL0000151064BR10        BRNC        BRNCCOCO    BRNCCOCO13AG00002500000000001241623700000000000000400000000000000000000000009924Z01620200326X066000000
1MAIL0000151065BR10        BRNC        BRNCCOCO    BRNCCOCO13AG2020032600:00:00OR  010000028999640002899964151065                             2020032620200326Z016CIF202003260000000000291607NN0                                                  0                                        
2MAIL0000151065BR10        BRNC        BRNCCOCO    BRNCCOCO13AG00000100000000001132004000000000000000500000000000000000000000004648Z01620200326X066000000
2MAIL0000151065BR10        BRNC        BRNCCOCO    BRNCCOCO13AG00000200000000001132034900000000000001000000000000000000000000023536Z01620200326X066000000
2MAIL0000151065BR10        BRNC        BRNCCOCO    BRNCCOCO13AG00000300000000001132035000000000000000500000000000000000000000013073Z01620200326X066000000
2MAIL0000151065BR10        BRNC        BRNCCOCO    BRNCCOCO13AG00000400000000001132035100000000000000500000000000000000000000012425Z01620200326X066000000
2MAIL0000151065BR10        BRNC        BRNCCOCO    BRNCCOCO13AG00000500000000001132200400000000000000200000000000000000000000003689Z01620200326X066000000
2MAIL0000151065BR10        BRNC        BRNCCOCO    BRNCCOCO13AG00000600000000001226089600000000000002400000000000000000000000008346Z01620200326X066000000
2MAIL0000151065BR10        BRNC        BRNCCOCO    BRNCCOCO13AG00000700000000001228274000000000000000100000000000000000000000004624Z01620200326X066000000
2MAIL0000151065BR10        BRNC        BRNCCOCO    BRNCCOCO13AG00000800000000001231189200000000000000200000000000000000000000009250Z01620200326X066000000
2MAIL0000151065BR10        BRNC        BRNCCOCO    BRNCCOCO13AG00000900000000001231231200000000000000200000000000000000000000009250Z01620200326X066000000
2MAIL0000151065BR10        BRNC        BRNCCOCO    BRNCCOCO13AG00001000000000001231233000000000000000200000000000000000000000009250Z01620200326X066000000
2MAIL0000151065BR10        BRNC        BRNCCOCO    BRNCCOCO13AG00001100000000001234705700000000000000100000000000000000000000004624Z01620200326X066000000
2MAIL0000151065BR10        BRNC        BRNCCOCO    BRNCCOCO13AG00001200000000001234705800000000000000100000000000000000000000004624Z01620200326X066000000
2MAIL0000151065BR10        BRNC        BRNCCOCO    BRNCCOCO13AG00001300000000001234705900000000000000100000000000000000000000004624Z01620200326X066000000
2MAIL0000151065BR10        BRNC        BRNCCOCO    BRNCCOCO13AG00001400000000001235699400000000000002000000000000000000000000006969Z01620200326X066000000
2MAIL0000151065BR10        BRNC        BRNCCOCO    BRNCCOCO13AG00001500000000001235699700000000000002000000000000000000000000006969Z01620200326X066000000
2MAIL0000151065BR10        BRNC        BRNCCOCO    BRNCCOCO13AG00001600000000001235699800000000000003000000000000000000000000010453Z01620200326X066000000
2MAIL0000151065BR10        BRNC        BRNCCOCO    BRNCCOCO13AG00001700000000001238083600000000000000200000000000000000000000011496Z01620200326X066000000
2MAIL0000151065BR10        BRNC        BRNCCOCO    BRNCCOCO13AG00001800000000001239663300000000000001400000000000000000000000004868Z01620200326X066000000
2MAIL0000151065BR10        BRNC        BRNCCOCO    BRNCCOCO13AG00001900000000001239688600000000000002800000000000000000000000009736Z01620200326X066000000
2MAIL0000151065BR10        BRNC        BRNCCOCO    BRNCCOCO13AG00002000000000001239688700000000000002800000000000000000000000009736Z01620200326X066000000
2MAIL0000151065BR10        BRNC        BRNCCOCO    BRNCCOCO13AG00002100000000001239688800000000000004200000000000000000000000014605Z01620200326X066000000
2MAIL0000151065BR10        BRNC        BRNCCOCO    BRNCCOCO13AG00002200000000001239692000000000000002800000000000000000000000009736Z01620200326X066000000
2MAIL0000151065BR10        BRNC        BRNCCOCO    BRNCCOCO13AG00002300000000001239692100000000000002800000000000000000000000009736Z01620200326X066000000
2MAIL0000151065BR10        BRNC        BRNCCOCO    BRNCCOCO13AG00002400000000001239692300000000000002800000000000000000000000009736Z01620200326X066000000
2MAIL0000151065BR10        BRNC        BRNCCOCO    BRNCCOCO13AG00002500000000001241577400000000000009000000000000000000000000070980Z01620200326X066000000
2MAIL0000151065BR10        BRNC        BRNCCOCO    BRNCCOCO13AG00002600000000001242374800000000000000100000000000000000000000004624Z01620200326X066000000
1MAIL0000151066BR10        BRNC        BRNCCOCO    BRNCCOCO13AG2020032600:00:00OR  010000044639460004463946151066                             2020032620200326Z016CIF202003260000000000005899NN0                                                  0                                        
2MAIL0000151066BR10        BRNC        BRNCCOCO    BRNCCOCO13AG00000100000000001132019800000000000000100000000000000000000000001498Z01620200326X066000000
2MAIL0000151066BR10        BRNC        BRNCCOCO    BRNCCOCO13AG00000200000000001132200400000000000000100000000000000000000000002115Z01620200326X066000000
2MAIL0000151066BR10        BRNC        BRNCCOCO    BRNCCOCO13AG00000300000000001132400100000000000000100000000000000000000000002286Z01620200326X066000000
1MAIL0000151067BR10        BRNC        BRNCCOCO    BRNCCOCO13AG2020032600:00:00OR  010000037681400003768140151067                             2020032620200326Z016CIF202003260000000000060513NN0                                                  0                                        
2MAIL0000151067BR10        BRNC        BRNCCOCO    BRNCCOCO13AG00000100000000001132018300000000000000100000000000000000000000003541Z01620200326X066000000
2MAIL0000151067BR10        BRNC        BRNCCOCO    BRNCCOCO13AG00000200000000001132019700000000000000200000000000000000000000003936Z01620200326X066000000
2MAIL0000151067BR10        BRNC        BRNCCOCO    BRNCCOCO13AG00000300000000001132019800000000000000200000000000000000000000003936Z01620200326X066000000
2MAIL0000151067BR10        BRNC        BRNCCOCO    BRNCCOCO13AG00000400000000001132019900000000000000100000000000000000000000001967Z01620200326X066000000
2MAIL0000151067BR10        BRNC        BRNCCOCO    BRNCCOCO13AG00000500000000001132020900000000000000200000000000000000000000003936Z01620200326X066000000
2MAIL0000151067BR10        BRNC        BRNCCOCO    BRNCCOCO13AG00000600000000001132200400000000000000200000000000000000000000004230Z01620200326X066000000
2MAIL0000151067BR10        BRNC        BRNCCOCO    BRNCCOCO13AG00000700000000001132400100000000000000100000000000000000000000003003Z01620200326X066000000
2MAIL0000151067BR10        BRNC        BRNCCOCO    BRNCCOCO13AG00000800000000001221415400000000000000100000000000000000000000003541Z01620200326X066000000
2MAIL0000151067BR10        BRNC        BRNCCOCO    BRNCCOCO13AG00000900000000001223975300000000000000100000000000000000000000005076Z01620200326X066000000
2MAIL0000151067BR10        BRNC        BRNCCOCO    BRNCCOCO13AG00001000000000001227735000000000000000100000000000000000000000001967Z01620200326X066000000
2MAIL0000151067BR10        BRNC        BRNCCOCO    BRNCCOCO13AG00001100000000001228512700000000000000100000000000000000000000005076Z01620200326X066000000
2MAIL0000151067BR10        BRNC        BRNCCOCO    BRNCCOCO13AG00001200000000001231189200000000000000100000000000000000000000005076Z01620200326X066000000
2MAIL0000151067BR10        BRNC        BRNCCOCO    BRNCCOCO13AG00001300000000001231231200000000000000100000000000000000000000005076Z01620200326X066000000
2MAIL0000151067BR10        BRNC        BRNCCOCO    BRNCCOCO13AG00001400000000001231233000000000000000100000000000000000000000005076Z01620200326X066000000
2MAIL0000151067BR10        BRNC        BRNCCOCO    BRNCCOCO13AG00001500000000001238083500000000000000100000000000000000000000005076Z01620200326X066000000
1MAIL0000151068BR10        BRNC        BRNCCOCO    BRNCCOCO13AG2020032600:00:00OR  010000058053310005805331151068                             2020032620200326Z016CIF202003260000000000060622NN0                                                  0                                        
2MAIL0000151068BR10        BRNC        BRNCCOCO    BRNCCOCO13AG00000100000000001132019800000000000000100000000000000000000000002076Z01620200326X066000000
2MAIL0000151068BR10        BRNC        BRNCCOCO    BRNCCOCO13AG00000200000000001132033100000000000000100000000000000000000000002291Z01620200326X066000000
2MAIL0000151068BR10        BRNC        BRNCCOCO    BRNCCOCO13AG00000300000000001132036700000000000000100000000000000000000000002291Z01620200326X066000000
2MAIL0000151068BR10        BRNC        BRNCCOCO    BRNCCOCO13AG00000400000000001231189200000000000000100000000000000000000000005568Z01620200326X066000000
2MAIL0000151068BR10        BRNC        BRNCCOCO    BRNCCOCO13AG00000500000000001235699800000000000001000000000000000000000000004211Z01620200326X066000000
2MAIL0000151068BR10        BRNC        BRNCCOCO    BRNCCOCO13AG00000600000000001236512900000000000000500000000000000000000000001002Z01620200326X066000000
2MAIL0000151068BR10        BRNC        BRNCCOCO    BRNCCOCO13AG00000700000000001236515000000000000000500000000000000000000000001002Z01620200326X066000000
2MAIL0000151068BR10        BRNC        BRNCCOCO    BRNCCOCO13AG00000800000000001239688800000000000001400000000000000000000000005885Z01620200326X066000000
2MAIL0000151068BR10        BRNC        BRNCCOCO    BRNCCOCO13AG00000900000000001241577400000000000003000000000000000000000000028853Z01620200326X066000000
2MAIL0000151068BR10        BRNC        BRNCCOCO    BRNCCOCO13AG00001000000000001241623700000000000000300000000000000000000000007443Z01620200326X066000000
1MAIL0000151069BR10        BRNC        BRNCCOCO    BRNCCOCO13AG2020032600:00:00OR  010000028997880002899788151069                             2020032620200326Z016CIF202003260000000000067079NN0                                                  0                                        
2MAIL0000151069BR10        BRNC        BRNCCOCO    BRNCCOCO13AG00000100000000001132004000000000000000500000000000000000000000005102Z01620200326X066000000
2MAIL0000151069BR10        BRNC        BRNCCOCO    BRNCCOCO13AG00000200000000001132030800000000000000400000000000000000000000012433Z01620200326X066000000
2MAIL0000151069BR10        BRNC        BRNCCOCO    BRNCCOCO13AG00000300000000001132030900000000000000200000000000000000000000006414Z01620200326X066000000
2MAIL0000151069BR10        BRNC        BRNCCOCO    BRNCCOCO13AG00000400000000001132033900000000000000200000000000000000000000006820Z01620200326X066000000
2MAIL0000151069BR10        BRNC        BRNCCOCO    BRNCCOCO13AG00000500000000001132034900000000000000500000000000000000000000011074Z01620200326X066000000
2MAIL0000151069BR10        BRNC        BRNCCOCO    BRNCCOCO13AG00000600000000001132035000000000000000500000000000000000000000012302Z01620200326X066000000
2MAIL0000151069BR10        BRNC        BRNCCOCO    BRNCCOCO13AG00000700000000001241623700000000000000500000000000000000000000012934Z01620200326X066000000
1MAIL0000151070BR10        BRNC        BRNCCOCO    BRNCCOCO13AG2020032600:00:00OR  010000053933220005393322151070                             2020032620200326Z016CIF202003260000000000077191NN0                                                  0                                        
2MAIL0000151070BR10        BRNC        BRNCCOCO    BRNCCOCO13AG00000100000000001132004000000000000000500000000000000000000000005662Z01620200326X066000000
2MAIL0000151070BR10        BRNC        BRNCCOCO    BRNCCOCO13AG00000200000000001132018300000000000000100000000000000000000000003735Z01620200326X066000000
2MAIL0000151070BR10        BRNC        BRNCCOCO    BRNCCOCO13AG00000300000000001132019800000000000000100000000000000000000000002076Z01620200326X066000000
2MAIL0000151070BR10        BRNC        BRNCCOCO    BRNCCOCO13AG00000400000000001132033100000000000000400000000000000000000000009163Z01620200326X066000000
2MAIL0000151070BR10        BRNC        BRNCCOCO    BRNCCOCO13AG00000500000000001132034900000000000000500000000000000000000000012283Z01620200326X066000000
2MAIL0000151070BR10        BRNC        BRNCCOCO    BRNCCOCO13AG00000600000000001132036700000000000000400000000000000000000000009163Z01620200326X066000000
2MAIL0000151070BR10        BRNC        BRNCCOCO    BRNCCOCO13AG00000700000000001132200400000000000000100000000000000000000000002230Z01620200326X066000000
2MAIL0000151070BR10        BRNC        BRNCCOCO    BRNCCOCO13AG00000800000000001226089600000000000001200000000000000000000000005045Z01620200326X066000000
2MAIL0000151070BR10        BRNC        BRNCCOCO    BRNCCOCO13AG00000900000000001228512700000000000000100000000000000000000000005568Z01620200326X066000000
2MAIL0000151070BR10        BRNC        BRNCCOCO    BRNCCOCO13AG00001000000000001236512800000000000000800000000000000000000000001526Z01620200326X066000000
2MAIL0000151070BR10        BRNC        BRNCCOCO    BRNCCOCO13AG00001100000000001236512900000000000001000000000000000000000000002004Z01620200326X066000000
2MAIL0000151070BR10        BRNC        BRNCCOCO    BRNCCOCO13AG00001200000000001236515000000000000001000000000000000000000000002004Z01620200326X066000000
2MAIL0000151070BR10        BRNC        BRNCCOCO    BRNCCOCO13AG00001300000000001239688600000000000001400000000000000000000000005885Z01620200326X066000000
2MAIL0000151070BR10        BRNC        BRNCCOCO    BRNCCOCO13AG00001400000000001239688800000000000001400000000000000000000000005885Z01620200326X066000000
2MAIL0000151070BR10        BRNC        BRNCCOCO    BRNCCOCO13AG00001500000000001241623700000000000000200000000000000000000000004962Z01620200326X066000000
1MAIL0000151071BR10        BRNC        BRNCCOCO    BRNCCOCO13AG2020032600:00:00OR  010000057233980005723398151071                             2020032620200326Z016CIF202003260000000000061673NN0                                                  0                                        
2MAIL0000151071BR10        BRNC        BRNCCOCO    BRNCCOCO13AG00000100000000001132019800000000000000100000000000000000000000002076Z01620200326X066000000
2MAIL0000151071BR10        BRNC        BRNCCOCO    BRNCCOCO13AG00000200000000001132033100000000000000200000000000000000000000004581Z01620200326X066000000
2MAIL0000151071BR10        BRNC        BRNCCOCO    BRNCCOCO13AG00000300000000001132036700000000000000200000000000000000000000004581Z01620200326X066000000
2MAIL0000151071BR10        BRNC        BRNCCOCO    BRNCCOCO13AG00000400000000001221415400000000000000100000000000000000000000003735Z01620200326X066000000
2MAIL0000151071BR10        BRNC        BRNCCOCO    BRNCCOCO13AG00000500000000001226089600000000000001200000000000000000000000005045Z01620200326X066000000
2MAIL0000151071BR10        BRNC        BRNCCOCO    BRNCCOCO13AG00000600000000001228512700000000000000100000000000000000000000005568Z01620200326X066000000
2MAIL0000151071BR10        BRNC        BRNCCOCO    BRNCCOCO13AG00000700000000001231189200000000000000100000000000000000000000005568Z01620200326X066000000
2MAIL0000151071BR10        BRNC        BRNCCOCO    BRNCCOCO13AG00000800000000001234705700000000000000100000000000000000000000005568Z01620200326X066000000
2MAIL0000151071BR10        BRNC        BRNCCOCO    BRNCCOCO13AG00000900000000001235699800000000000001000000000000000000000000004211Z01620200326X066000000
2MAIL0000151071BR10        BRNC        BRNCCOCO    BRNCCOCO13AG00001000000000001236512900000000000001000000000000000000000000002004Z01620200326X066000000
2MAIL0000151071BR10        BRNC        BRNCCOCO    BRNCCOCO13AG00001100000000001236515000000000000001000000000000000000000000002004Z01620200326X066000000
2MAIL0000151071BR10        BRNC        BRNCCOCO    BRNCCOCO13AG00001200000000001239663300000000000001400000000000000000000000005885Z01620200326X066000000
2MAIL0000151071BR10        BRNC        BRNCCOCO    BRNCCOCO13AG00001300000000001239688800000000000001400000000000000000000000005885Z01620200326X066000000
2MAIL0000151071BR10        BRNC        BRNCCOCO    BRNCCOCO13AG00001400000000001241623700000000000000200000000000000000000000004962Z01620200326X066000000
1MAIL0000151072BR10        BRNC        BRNCCOCO    BRNCCOCO13AG2020032600:00:00OR  010000047620680004762068151072                             2020032620200326Z016CIF202003260000000000274373NN0                                                  0                                        
2MAIL0000151072BR10        BRNC        BRNCCOCO    BRNCCOCO13AG00000100000000001132034900000000000000500000000000000000000000010831Z01620200326X066000000
2MAIL0000151072BR10        BRNC        BRNCCOCO    BRNCCOCO13AG00000200000000001132035000000000000000500000000000000000000000012032Z01620200326X066000000
2MAIL0000151072BR10        BRNC        BRNCCOCO    BRNCCOCO13AG00000300000000001132035100000000000000500000000000000000000000011436Z01620200326X066000000
2MAIL0000151072BR10        BRNC        BRNCCOCO    BRNCCOCO13AG00000400000000001132036700000000000004800000000000000000000000102002Z01620200326X066000000
2MAIL0000151072BR10        BRNC        BRNCCOCO    BRNCCOCO13AG00000500000000001224882700000000000000600000000000000000000000018531Z01620200326X066000000
2MAIL0000151072BR10        BRNC        BRNCCOCO    BRNCCOCO13AG00000600000000001224882800000000000000600000000000000000000000018531Z01620200326X066000000
2MAIL0000151072BR10        BRNC        BRNCCOCO    BRNCCOCO13AG00000700000000001236512800000000000015600000000000000000000000026330Z01620200326X066000000
2MAIL0000151072BR10        BRNC        BRNCCOCO    BRNCCOCO13AG00000800000000001236512900000000000021000000000000000000000000037340Z01620200326X066000000
2MAIL0000151072BR10        BRNC        BRNCCOCO    BRNCCOCO13AG00000900000000001236515000000000000021000000000000000000000000037340Z01620200326X066000000
1MAIL0000151073BR10        BRNC        BRNCCOCO    BRNCCOCO13AG2020032600:00:00OR  010000043497620004349762151073                             2020032620200326Z016CIF202003260000000000886609NN0                                                  0                                        
2MAIL0000151073BR10        BRNC        BRNCCOCO    BRNCCOCO13AG00000100000000001132034900000000000004000000000000000000000000086652Z01620200326X066000000
2MAIL0000151073BR10        BRNC        BRNCCOCO    BRNCCOCO13AG00000200000000001132035000000000000002000000000000000000000000048130Z01620200326X066000000
2MAIL0000151073BR10        BRNC        BRNCCOCO    BRNCCOCO13AG00000300000000001132036700000000000004800000000000000000000000102002Z01620200326X066000000
2MAIL0000151073BR10        BRNC        BRNCCOCO    BRNCCOCO13AG00000400000000001224882700000000000001500000000000000000000000046329Z01620200326X066000000
2MAIL0000151073BR10        BRNC        BRNCCOCO    BRNCCOCO13AG00000500000000001228274000000000000001000000000000000000000000049650Z01620200326X066000000
2MAIL0000151073BR10        BRNC        BRNCCOCO    BRNCCOCO13AG00000600000000001231189200000000000002000000000000000000000000099300Z01620200326X066000000
2MAIL0000151073BR10        BRNC        BRNCCOCO    BRNCCOCO13AG00000700000000001231231200000000000001000000000000000000000000049650Z01620200326X066000000
2MAIL0000151073BR10        BRNC        BRNCCOCO    BRNCCOCO13AG00000800000000001234705700000000000001000000000000000000000000049650Z01620200326X066000000
2MAIL0000151073BR10        BRNC        BRNCCOCO    BRNCCOCO13AG00000900000000001234705800000000000000800000000000000000000000039720Z01620200326X066000000
2MAIL0000151073BR10        BRNC        BRNCCOCO    BRNCCOCO13AG00001000000000001234705900000000000001000000000000000000000000049650Z01620200326X066000000
2MAIL0000151073BR10        BRNC        BRNCCOCO    BRNCCOCO13AG00001100000000001236512800000000000031200000000000000000000000052661Z01620200326X066000000
2MAIL0000151073BR10        BRNC        BRNCCOCO    BRNCCOCO13AG00001200000000001236512900000000000028000000000000000000000000049787Z01620200326X066000000
2MAIL0000151073BR10        BRNC        BRNCCOCO    BRNCCOCO13AG00001300000000001236515000000000000035000000000000000000000000062234Z01620200326X066000000
2MAIL0000151073BR10        BRNC        BRNCCOCO    BRNCCOCO13AG00001400000000001241623700000000000004000000000000000000000000101194Z01620200326X066000000
1MAIL0000151074BR10        BRNC        BRNCCOCO    BRNCCOCO13AG2020032600:00:00OR  010000061044390006104439151074                             2020032620200326Z016CIF202003260000000000365974NN0                                                  0                                        
2MAIL0000151074BR10        BRNC        BRNCCOCO    BRNCCOCO13AG00000100000000001132034900000000000001000000000000000000000000021663Z01620200326X066000000
2MAIL0000151074BR10        BRNC        BRNCCOCO    BRNCCOCO13AG00000200000000001132035000000000000001000000000000000000000000024066Z01620200326X066000000
2MAIL0000151074BR10        BRNC        BRNCCOCO    BRNCCOCO13AG00000300000000001132035100000000000001000000000000000000000000022872Z01620200326X066000000
2MAIL0000151074BR10        BRNC        BRNCCOCO    BRNCCOCO13AG00000400000000001132036700000000000002500000000000000000000000053126Z01620200326X066000000
2MAIL0000151074BR10        BRNC        BRNCCOCO    BRNCCOCO13AG00000500000000001236512800000000000026000000000000000000000000043883Z01620200326X066000000
2MAIL0000151074BR10        BRNC        BRNCCOCO    BRNCCOCO13AG00000600000000001236512900000000000035000000000000000000000000062234Z01620200326X066000000
2MAIL0000151074BR10        BRNC        BRNCCOCO    BRNCCOCO13AG00000700000000001236515000000000000035000000000000000000000000062234Z01620200326X066000000
2MAIL0000151074BR10        BRNC        BRNCCOCO    BRNCCOCO13AG00000800000000001241623700000000000003000000000000000000000000075896Z01620200326X066000000
1MAIL0000151075BR10        BRNC        BRNCCOCO    BRNCCOCO13AG2020032600:00:00OR  010000054778340005477834151075                             2020032620200326Z016CIF202003260000000000020616NN0                                                  0                                        
2MAIL0000151075BR10        BRNC        BRNCCOCO    BRNCCOCO13AG00000100000000001132033100000000000000200000000000000000000000004581Z01620200326X066000000
2MAIL0000151075BR10        BRNC        BRNCCOCO    BRNCCOCO13AG00000200000000001132036700000000000000400000000000000000000000009163Z01620200326X066000000
2MAIL0000151075BR10        BRNC        BRNCCOCO    BRNCCOCO13AG00000300000000001215533700000000000000300000000000000000000000006872Z01620200326X066000000
1MAIL0000151076BR10        BRNC        BRNCCOCO    BRNCCOCO13AG2020032600:00:00OR  010000043476100004347610151076                             2020032620200326Z016CIF202003260000000000004582NN0                                                  0                                        
2MAIL0000151076BR10        BRNC        BRNCCOCO    BRNCCOCO13AG00000100000000001132033100000000000000100000000000000000000000002291Z01620200326X066000000
2MAIL0000151076BR10        BRNC        BRNCCOCO    BRNCCOCO13AG00000200000000001132036700000000000000100000000000000000000000002291Z01620200326X066000000
1MAIL0000151077BR10        BRNC        BRNCCOCO    BRNCCOCO13AG2020032600:00:00OR  010000044022800004402280151077                             2020032620200326Z016CIF202003260000000000030081NN0                                                  0                                        
2MAIL0000151077BR10        BRNC        BRNCCOCO    BRNCCOCO13AG00000100000000001132036700000000000000100000000000000000000000002173Z01620200326X066000000
2MAIL0000151077BR10        BRNC        BRNCCOCO    BRNCCOCO13AG00000200000000001215533700000000000000100000000000000000000000002173Z01620200326X066000000
2MAIL0000151077BR10        BRNC        BRNCCOCO    BRNCCOCO13AG00000300000000001235699700000000000001000000000000000000000000003995Z01620200326X066000000
2MAIL0000151077BR10        BRNC        BRNCCOCO    BRNCCOCO13AG00000400000000001235699800000000000001000000000000000000000000003995Z01620200326X066000000
2MAIL0000151077BR10        BRNC        BRNCCOCO    BRNCCOCO13AG00000500000000001236512900000000000000500000000000000000000000000999Z01620200326X066000000
2MAIL0000151077BR10        BRNC        BRNCCOCO    BRNCCOCO13AG00000600000000001239688800000000000001400000000000000000000000005582Z01620200326X066000000
2MAIL0000151077BR10        BRNC        BRNCCOCO    BRNCCOCO13AG00000700000000001239692000000000000001400000000000000000000000005582Z01620200326X066000000
2MAIL0000151077BR10        BRNC        BRNCCOCO    BRNCCOCO13AG00000800000000001239692100000000000001400000000000000000000000005582Z01620200326X066000000
1MAIL0000151078BR10        BRNC        BRNCCOCO    BRNCCOCO13AG2020032600:00:00OR  010000029819390002981939151078                             2020032620200326Z016CIF202003260000000000026833NN0                                                  0                                        
2MAIL0000151078BR10        BRNC        BRNCCOCO    BRNCCOCO13AG00000100000000001132036700000000000000100000000000000000000000002291Z01620200326X066000000
2MAIL0000151078BR10        BRNC        BRNCCOCO    BRNCCOCO13AG00000200000000001236512900000000000000500000000000000000000000001002Z01620200326X066000000
2MAIL0000151078BR10        BRNC        BRNCCOCO    BRNCCOCO13AG00000300000000001239663300000000000001400000000000000000000000005885Z01620200326X066000000
2MAIL0000151078BR10        BRNC        BRNCCOCO    BRNCCOCO13AG00000400000000001239688600000000000001400000000000000000000000005885Z01620200326X066000000
2MAIL0000151078BR10        BRNC        BRNCCOCO    BRNCCOCO13AG00000500000000001239688800000000000001400000000000000000000000005885Z01620200326X066000000
2MAIL0000151078BR10        BRNC        BRNCCOCO    BRNCCOCO13AG00000600000000001239692100000000000001400000000000000000000000005885Z01620200326X066000000
1MAIL0000151079BR10        BRNC        BRNCCOCO    BRNCCOCO13AG2020032600:00:00OR  010000038326570003832657151079                             2020032620200326Z016CIF202003260000000000004582NN0                                                  0                                        
2MAIL0000151079BR10        BRNC        BRNCCOCO    BRNCCOCO13AG00000100000000001132033100000000000000100000000000000000000000002291Z01620200326X066000000
2MAIL0000151079BR10        BRNC        BRNCCOCO    BRNCCOCO13AG00000200000000001132036700000000000000100000000000000000000000002291Z01620200326X066000000
1MAIL0000151080BR10        BRNC        BRNCCOCO    BRNCCOCO13AG2020032600:00:00OR  010000028540850002854085151080                             2020032620200326Z016CIF202003260000000000004582NN0                                                  0                                        
2MAIL0000151080BR10        BRNC        BRNCCOCO    BRNCCOCO13AG00000100000000001132033100000000000000100000000000000000000000002291Z01620200326X066000000
2MAIL0000151080BR10        BRNC        BRNCCOCO    BRNCCOCO13AG00000200000000001132036700000000000000100000000000000000000000002291Z01620200326X066000000
1MAIL0000151081BR10        BRNC        BRNCCOCO    BRNCCOCO13AG2020032600:00:00OR  010000054317410005431741151081                             2020032620200326Z016CIF202003260000000000006722NN0                                                  0                                        
2MAIL0000151081BR10        BRNC        BRNCCOCO    BRNCCOCO13AG00000100000000001132033100000000000000100000000000000000000000002241Z01620200326X066000000
2MAIL0000151081BR10        BRNC        BRNCCOCO    BRNCCOCO13AG00000200000000001132036700000000000000200000000000000000000000004481Z01620200326X066000000
1MAIL0000151082BR10        BRNC        BRNCCOCO    BRNCCOCO13AG2020032600:00:00OR  010000055764910005576491151082                             2020032620200326Z016CIF202003260000000000004346NN0                                                  0                                        
2MAIL0000151082BR10        BRNC        BRNCCOCO    BRNCCOCO13AG00000100000000001132033100000000000000100000000000000000000000002173Z01620200326X066000000
2MAIL0000151082BR10        BRNC        BRNCCOCO    BRNCCOCO13AG00000200000000001132036700000000000000100000000000000000000000002173Z01620200326X066000000
1MAIL0000151083BR10        BRNC        BRNCCOCO    BRNCCOCO13AG2020032600:00:00OR  010000028987120002898712151083                             2020032620200326Z016CIF202003260000000000004346NN0                                                  0                                        
2MAIL0000151083BR10        BRNC        BRNCCOCO    BRNCCOCO13AG00000100000000001132033100000000000000100000000000000000000000002173Z01620200326X066000000
2MAIL0000151083BR10        BRNC        BRNCCOCO    BRNCCOCO13AG00000200000000001132036700000000000000100000000000000000000000002173Z01620200326X066000000
1MAIL0000151084BR10        BRNC        BRNCCOCO    BRNCCOCO13AG2020032600:00:00OR  010000056868280005686828151084                             2020032620200326Z016CIF202003260000000000003308NN0                                                  0                                        
2MAIL0000151084BR10        BRNC        BRNCCOCO    BRNCCOCO13AG00000100000000001132033100000000000000100000000000000000000000001654Z01620200326X066000000
2MAIL0000151084BR10        BRNC        BRNCCOCO    BRNCCOCO13AG00000200000000001132036700000000000000100000000000000000000000001654Z01620200326X066000000
1MAIL0000151085BR10        BRNC        BRNCCOCO    BRNCCOCO13AG2020032600:00:00OR  010000029313960002931396151085                             2020032620200326Z016CIF202003260000000000004250NN0                                                  0                                        
2MAIL0000151085BR10        BRNC        BRNCCOCO    BRNCCOCO13AG00000100000000001132033100000000000000100000000000000000000000002125Z01620200326X066000000
2MAIL0000151085BR10        BRNC        BRNCCOCO    BRNCCOCO13AG00000200000000001132036700000000000000100000000000000000000000002125Z01620200326X066000000
1MAIL0000151086BR10        BRNC        BRNCCOCO    BRNCCOCO13AG2020032600:00:00OR  010000028704100002870410151086                             2020032620200326Z016CIF202003260000000000014853NN0                                                  0                                        
2MAIL0000151086BR10        BRNC        BRNCCOCO    BRNCCOCO13AG00000100000000001132033100000000000000200000000000000000000000004345Z01620200326X066000000
2MAIL0000151086BR10        BRNC        BRNCCOCO    BRNCCOCO13AG00000200000000001215533700000000000000200000000000000000000000004345Z01620200326X066000000
2MAIL0000151086BR10        BRNC        BRNCCOCO    BRNCCOCO13AG00000300000000001231389600000000000000200000000000000000000000004345Z01620200326X066000000
2MAIL0000151086BR10        BRNC        BRNCCOCO    BRNCCOCO13AG00000400000000001236512900000000000000500000000000000000000000000909Z01620200326X066000000
2MAIL0000151086BR10        BRNC        BRNCCOCO    BRNCCOCO13AG00000500000000001236515000000000000000500000000000000000000000000909Z01620200326X066000000
