1MAIL0000151018BR10        BRNC        BRNCCOCO    BRNCCOCO13AG2020032600:00:00OR  010000057215860005721586151018                             2020032620200326Z016CIF202003260000000000011071NN0                                                  0                                        
2MAIL0000151018BR10        BRNC        BRNCCOCO    BRNCCOCO13AG00000100000000001132033100000000000000100000000000000000000000002291Z01620200326X066000000
2MAIL0000151018BR10        BRNC        BRNCCOCO    BRNCCOCO13AG00000200000000001132036700000000000000100000000000000000000000002291Z01620200326X066000000
2MAIL0000151018BR10        BRNC        BRNCCOCO    BRNCCOCO13AG00000300000000001236512900000000000001000000000000000000000000002004Z01620200326X066000000
2MAIL0000151018BR10        BRNC        BRNCCOCO    BRNCCOCO13AG00000400000000001236515000000000000001000000000000000000000000002004Z01620200326X066000000
2MAIL0000151018BR10        BRNC        BRNCCOCO    BRNCCOCO13AG00000500000000001241623700000000000000100000000000000000000000002481Z01620200326X066000000
