1MAIL0000153561BR10        BRNC        BRNCCOCO    BRNCCOCO13AG2020041600:00:00OR  010000029836640002983664153561                             2020041620200416Z016CIF202004160000000000146953NN0                                                  0                                        
2MAIL0000153561BR10        BRNC        BRNCCOCO    BRNCCOCO13AG00000100000000001132033100000000000000200000000000000000000000004345Z01620200416X066000000
2MAIL0000153561BR10        BRNC        BRNCCOCO    BRNCCOCO13AG00000200000000001132034900000000000000500000000000000000000000011074Z01620200416X066000000
2MAIL0000153561BR10        BRNC        BRNCCOCO    BRNCCOCO13AG00000300000000001132036700000000000000600000000000000000000000013036Z01620200416X066000000
2MAIL0000153561BR10        BRNC        BRNCCOCO    BRNCCOCO13AG00000400000000001132200400000000000000300000000000000000000000006345Z01620200416X066000000
2MAIL0000153561BR10        BRNC        BRNCCOCO    BRNCCOCO13AG00000500000000001215533700000000000000200000000000000000000000004345Z01620200416X066000000
2MAIL0000153561BR10        BRNC        BRNCCOCO    BRNCCOCO13AG00000600000000001223975300000000000000100000000000000000000000005076Z01620200416X066000000
2MAIL0000153561BR10        BRNC        BRNCCOCO    BRNCCOCO13AG00000700000000001227395500000000000000200000000000000000000000004345Z01620200416X066000000
2MAIL0000153561BR10        BRNC        BRNCCOCO    BRNCCOCO13AG00000800000000001228512700000000000000200000000000000000000000010153Z01620200416X066000000
2MAIL0000153561BR10        BRNC        BRNCCOCO    BRNCCOCO13AG00000900000000001231189200000000000000200000000000000000000000010153Z01620200416X066000000
2MAIL0000153561BR10        BRNC        BRNCCOCO    BRNCCOCO13AG00001000000000001231231200000000000000200000000000000000000000010153Z01620200416X066000000
2MAIL0000153561BR10        BRNC        BRNCCOCO    BRNCCOCO13AG00001100000000001231233000000000000000200000000000000000000000010153Z01620200416X066000000
2MAIL0000153561BR10        BRNC        BRNCCOCO    BRNCCOCO13AG00001200000000001236898000000000000000200000000000000000000000004345Z01620200416X066000000
2MAIL0000153561BR10        BRNC        BRNCCOCO    BRNCCOCO13AG00001300000000001239663300000000000001400000000000000000000000005343Z01620200416X066000000
2MAIL0000153561BR10        BRNC        BRNCCOCO    BRNCCOCO13AG00001400000000001239688300000000000001400000000000000000000000005343Z01620200416X066000000
2MAIL0000153561BR10        BRNC        BRNCCOCO    BRNCCOCO13AG00001500000000001239688500000000000001400000000000000000000000005343Z01620200416X066000000
2MAIL0000153561BR10        BRNC        BRNCCOCO    BRNCCOCO13AG00001600000000001239688600000000000001400000000000000000000000005343Z01620200416X066000000
2MAIL0000153561BR10        BRNC        BRNCCOCO    BRNCCOCO13AG00001700000000001239688700000000000001400000000000000000000000005343Z01620200416X066000000
2MAIL0000153561BR10        BRNC        BRNCCOCO    BRNCCOCO13AG00001800000000001239688800000000000001400000000000000000000000005343Z01620200416X066000000
2MAIL0000153561BR10        BRNC        BRNCCOCO    BRNCCOCO13AG00001900000000001239692000000000000001400000000000000000000000005343Z01620200416X066000000
2MAIL0000153561BR10        BRNC        BRNCCOCO    BRNCCOCO13AG00002000000000001242626100000000000001400000000000000000000000005343Z01620200416X066000000
2MAIL0000153561BR10        BRNC        BRNCCOCO    BRNCCOCO13AG00002100000000001242754900000000000001400000000000000000000000005343Z01620200416X066000000
2MAIL0000153561BR10        BRNC        BRNCCOCO    BRNCCOCO13AG00002200000000001242765000000000000001400000000000000000000000005343Z01620200416X066000000
1MAIL0000153562BR10        BRNC        BRNCCOCO    BRNCCOCO13AG2020041600:00:00OR  010000042687240004268724153562                             2020041620200416Z016CIF202004160000000000010017NN0                                                  0                                        
2MAIL0000153562BR10        BRNC        BRNCCOCO    BRNCCOCO13AG00000100000000001132033100000000000000100000000000000000000000001654Z01620200416X066000000
2MAIL0000153562BR10        BRNC        BRNCCOCO    BRNCCOCO13AG00000200000000001132036700000000000000100000000000000000000000001654Z01620200416X066000000
2MAIL0000153562BR10        BRNC        BRNCCOCO    BRNCCOCO13AG00000300000000001132200400000000000000100000000000000000000000002115Z01620200416X066000000
2MAIL0000153562BR10        BRNC        BRNCCOCO    BRNCCOCO13AG00000400000000001221415400000000000000100000000000000000000000002682Z01620200416X066000000
2MAIL0000153562BR10        BRNC        BRNCCOCO    BRNCCOCO13AG00000500000000001236512900000000000000500000000000000000000000000956Z01620200416X066000000
2MAIL0000153562BR10        BRNC        BRNCCOCO    BRNCCOCO13AG00000600000000001236515000000000000000500000000000000000000000000956Z01620200416X066000000
1MAIL0000153563BR10        BRNC        BRNCCOCO    BRNCCOCO13AG2020041600:00:00OR  010000061299400006129940153563                             2020041620200416Z016CIF202004160000000000013899NN0                                                  0                                        
2MAIL0000153563BR10        BRNC        BRNCCOCO    BRNCCOCO13AG00000100000000001132036700000000000000100000000000000000000000001654Z01620200416X066000000
2MAIL0000153563BR10        BRNC        BRNCCOCO    BRNCCOCO13AG00000200000000001132200400000000000000100000000000000000000000002115Z01620200416X066000000
2MAIL0000153563BR10        BRNC        BRNCCOCO    BRNCCOCO13AG00000300000000001215533700000000000000100000000000000000000000001654Z01620200416X066000000
2MAIL0000153563BR10        BRNC        BRNCCOCO    BRNCCOCO13AG00000400000000001239688800000000000001400000000000000000000000004684Z01620200416X066000000
2MAIL0000153563BR10        BRNC        BRNCCOCO    BRNCCOCO13AG00000500000000001241577400000000000000500000000000000000000000003792Z01620200416X066000000
1MAIL0000153564BR10        BRNC        BRNCCOCO    BRNCCOCO13AG2020041600:00:00OR  010000052340440005234044153564                             2020041620200416Z016CIF202004160000000000124691NN0                                                  0                                        
2MAIL0000153564BR10        BRNC        BRNCCOCO    BRNCCOCO13AG00000100000000001132004000000000000001000000000000000000000000010202Z01620200416X066000000
2MAIL0000153564BR10        BRNC        BRNCCOCO    BRNCCOCO13AG00000200000000001132019900000000000000100000000000000000000000001967Z01620200416X066000000
2MAIL0000153564BR10        BRNC        BRNCCOCO    BRNCCOCO13AG00000300000000001132020900000000000000100000000000000000000000001967Z01620200416X066000000
2MAIL0000153564BR10        BRNC        BRNCCOCO    BRNCCOCO13AG00000400000000001132200400000000000000500000000000000000000000010575Z01620200416X066000000
2MAIL0000153564BR10        BRNC        BRNCCOCO    BRNCCOCO13AG00000500000000001223975300000000000000100000000000000000000000005076Z01620200416X066000000
2MAIL0000153564BR10        BRNC        BRNCCOCO    BRNCCOCO13AG00000600000000001224882800000000000000100000000000000000000000003159Z01620200416X066000000
2MAIL0000153564BR10        BRNC        BRNCCOCO    BRNCCOCO13AG00000700000000001231189200000000000000100000000000000000000000005076Z01620200416X066000000
2MAIL0000153564BR10        BRNC        BRNCCOCO    BRNCCOCO13AG00000800000000001231231200000000000000100000000000000000000000005076Z01620200416X066000000
2MAIL0000153564BR10        BRNC        BRNCCOCO    BRNCCOCO13AG00000900000000001234705700000000000000100000000000000000000000005076Z01620200416X066000000
2MAIL0000153564BR10        BRNC        BRNCCOCO    BRNCCOCO13AG00001000000000001235699700000000000001000000000000000000000000003825Z01620200416X066000000
2MAIL0000153564BR10        BRNC        BRNCCOCO    BRNCCOCO13AG00001100000000001236512900000000000007000000000000000000000000012727Z01620200416X066000000
2MAIL0000153564BR10        BRNC        BRNCCOCO    BRNCCOCO13AG00001200000000001236515000000000000007000000000000000000000000012727Z01620200416X066000000
2MAIL0000153564BR10        BRNC        BRNCCOCO    BRNCCOCO13AG00001300000000001239663300000000000001400000000000000000000000005343Z01620200416X066000000
2MAIL0000153564BR10        BRNC        BRNCCOCO    BRNCCOCO13AG00001400000000001239688600000000000001400000000000000000000000005343Z01620200416X066000000
2MAIL0000153564BR10        BRNC        BRNCCOCO    BRNCCOCO13AG00001500000000001239688800000000000001400000000000000000000000005343Z01620200416X066000000
2MAIL0000153564BR10        BRNC        BRNCCOCO    BRNCCOCO13AG00001600000000001239692100000000000001400000000000000000000000005343Z01620200416X066000000
2MAIL0000153564BR10        BRNC        BRNCCOCO    BRNCCOCO13AG00001700000000001241623700000000000001000000000000000000000000025866Z01620200416X066000000
1MAIL0000153565BR10        BRNC        BRNCCOCO    BRNCCOCO13AG2020041600:00:00OR  010000052344030005234403153565                             2020041620200416Z016CIF202004160000000000044288NN0                                                  0                                        
2MAIL0000153565BR10        BRNC        BRNCCOCO    BRNCCOCO13AG00000100000000001132033100000000000000200000000000000000000000004345Z01620200416X066000000
2MAIL0000153565BR10        BRNC        BRNCCOCO    BRNCCOCO13AG00000200000000001132036700000000000000400000000000000000000000008692Z01620200416X066000000
2MAIL0000153565BR10        BRNC        BRNCCOCO    BRNCCOCO13AG00000300000000001132200400000000000000400000000000000000000000008460Z01620200416X066000000
2MAIL0000153565BR10        BRNC        BRNCCOCO    BRNCCOCO13AG00000400000000001215533700000000000000200000000000000000000000004345Z01620200416X066000000
2MAIL0000153565BR10        BRNC        BRNCCOCO    BRNCCOCO13AG00000500000000001239688600000000000001400000000000000000000000005343Z01620200416X066000000
2MAIL0000153565BR10        BRNC        BRNCCOCO    BRNCCOCO13AG00000600000000001239688800000000000001400000000000000000000000005343Z01620200416X066000000
2MAIL0000153565BR10        BRNC        BRNCCOCO    BRNCCOCO13AG00000700000000001241623700000000000000300000000000000000000000007760Z01620200416X066000000
1MAIL0000153566BR10        BRNC        BRNCCOCO    BRNCCOCO13AG2020041600:00:00OR  010000058532220005853222153566                             2020041620200416Z016CIF202004160000000000008062NN0                                                  0                                        
2MAIL0000153566BR10        BRNC        BRNCCOCO    BRNCCOCO13AG00000100000000001241577400000000000001000000000000000000000000008062Z01620200416X066000000
1MAIL0000153567BR10        BRNC        BRNCCOCO    BRNCCOCO13AG2020041600:00:00OR  010000060728720006072872153567                             2020041620200416Z016CIF202004160000000000040624NN0                                                  0                                        
2MAIL0000153567BR10        BRNC        BRNCCOCO    BRNCCOCO13AG00000100000000001132033100000000000000100000000000000000000000001759Z01620200416X066000000
2MAIL0000153567BR10        BRNC        BRNCCOCO    BRNCCOCO13AG00000200000000001132036700000000000000200000000000000000000000003518Z01620200416X066000000
2MAIL0000153567BR10        BRNC        BRNCCOCO    BRNCCOCO13AG00000300000000001132200400000000000000200000000000000000000000003990Z01620200416X066000000
2MAIL0000153567BR10        BRNC        BRNCCOCO    BRNCCOCO13AG00000400000000001215533700000000000000200000000000000000000000003518Z01620200416X066000000
2MAIL0000153567BR10        BRNC        BRNCCOCO    BRNCCOCO13AG00000500000000001241577400000000000003000000000000000000000000024186Z01620200416X066000000
2MAIL0000153567BR10        BRNC        BRNCCOCO    BRNCCOCO13AG00000600000000001241623700000000000000200000000000000000000000003653Z01620200416X066000000
1MAIL0000153568BR10        BRNC        BRNCCOCO    BRNCCOCO13AG2020041600:00:00OR  010000049123580004912358153568                             2020041620200416Z016CIF202004160000000000087564NN0                                                  0                                        
2MAIL0000153568BR10        BRNC        BRNCCOCO    BRNCCOCO13AG00000100000000001132019800000000000000100000000000000000000000001967Z01620200416X066000000
2MAIL0000153568BR10        BRNC        BRNCCOCO    BRNCCOCO13AG00000200000000001132020900000000000000100000000000000000000000001967Z01620200416X066000000
2MAIL0000153568BR10        BRNC        BRNCCOCO    BRNCCOCO13AG00000300000000001132033100000000000000300000000000000000000000006518Z01620200416X066000000
2MAIL0000153568BR10        BRNC        BRNCCOCO    BRNCCOCO13AG00000400000000001132036700000000000000400000000000000000000000008692Z01620200416X066000000
2MAIL0000153568BR10        BRNC        BRNCCOCO    BRNCCOCO13AG00000500000000001132200400000000000000200000000000000000000000004230Z01620200416X066000000
2MAIL0000153568BR10        BRNC        BRNCCOCO    BRNCCOCO13AG00000600000000001215533700000000000000200000000000000000000000004345Z01620200416X066000000
2MAIL0000153568BR10        BRNC        BRNCCOCO    BRNCCOCO13AG00000700000000001221415400000000000000100000000000000000000000003541Z01620200416X066000000
2MAIL0000153568BR10        BRNC        BRNCCOCO    BRNCCOCO13AG00000800000000001223975300000000000000100000000000000000000000005280Z01620200416X066000000
2MAIL0000153568BR10        BRNC        BRNCCOCO    BRNCCOCO13AG00000900000000001226089600000000000001200000000000000000000000004784Z01620200416X066000000
2MAIL0000153568BR10        BRNC        BRNCCOCO    BRNCCOCO13AG00001000000000001231231200000000000000100000000000000000000000005280Z01620200416X066000000
2MAIL0000153568BR10        BRNC        BRNCCOCO    BRNCCOCO13AG00001100000000001231389600000000000000100000000000000000000000002173Z01620200416X066000000
2MAIL0000153568BR10        BRNC        BRNCCOCO    BRNCCOCO13AG00001200000000001235699800000000000001000000000000000000000000003995Z01620200416X066000000
2MAIL0000153568BR10        BRNC        BRNCCOCO    BRNCCOCO13AG00001300000000001236512800000000000001200000000000000000000000002280Z01620200416X066000000
2MAIL0000153568BR10        BRNC        BRNCCOCO    BRNCCOCO13AG00001400000000001236512900000000000002000000000000000000000000003995Z01620200416X066000000
2MAIL0000153568BR10        BRNC        BRNCCOCO    BRNCCOCO13AG00001500000000001236515000000000000002000000000000000000000000003995Z01620200416X066000000
2MAIL0000153568BR10        BRNC        BRNCCOCO    BRNCCOCO13AG00001600000000001239688700000000000001400000000000000000000000005582Z01620200416X066000000
2MAIL0000153568BR10        BRNC        BRNCCOCO    BRNCCOCO13AG00001700000000001239688800000000000001400000000000000000000000005582Z01620200416X066000000
2MAIL0000153568BR10        BRNC        BRNCCOCO    BRNCCOCO13AG00001800000000001239692100000000000001400000000000000000000000005582Z01620200416X066000000
2MAIL0000153568BR10        BRNC        BRNCCOCO    BRNCCOCO13AG00001900000000001241623700000000000000300000000000000000000000007776Z01620200416X066000000
1MAIL0000153569BR10        BRNC        BRNCCOCO    BRNCCOCO13AG2020041600:00:00OR  010000029055190002905519153569                             2020041620200416Z016CIF202004160000000000496367NN0                                                  0                                        
2MAIL0000153569BR10        BRNC        BRNCCOCO    BRNCCOCO13AG00000100000000001132018300000000000000100000000000000000000000003541Z01620200416X066000000
2MAIL0000153569BR10        BRNC        BRNCCOCO    BRNCCOCO13AG00000200000000001132019700000000000000100000000000000000000000001967Z01620200416X066000000
2MAIL0000153569BR10        BRNC        BRNCCOCO    BRNCCOCO13AG00000300000000001132019800000000000000100000000000000000000000001967Z01620200416X066000000
2MAIL0000153569BR10        BRNC        BRNCCOCO    BRNCCOCO13AG00000400000000001132019900000000000000100000000000000000000000001967Z01620200416X066000000
2MAIL0000153569BR10        BRNC        BRNCCOCO    BRNCCOCO13AG00000500000000001132020900000000000000100000000000000000000000001967Z01620200416X066000000
2MAIL0000153569BR10        BRNC        BRNCCOCO    BRNCCOCO13AG00000600000000001132030800000000000000200000000000000000000000006218Z01620200416X066000000
2MAIL0000153569BR10        BRNC        BRNCCOCO    BRNCCOCO13AG00000700000000001132030900000000000000200000000000000000000000006414Z01620200416X066000000
2MAIL0000153569BR10        BRNC        BRNCCOCO    BRNCCOCO13AG00000800000000001132033100000000000001000000000000000000000000021728Z01620200416X066000000
2MAIL0000153569BR10        BRNC        BRNCCOCO    BRNCCOCO13AG00000900000000001132034900000000000000500000000000000000000000011074Z01620200416X066000000
2MAIL0000153569BR10        BRNC        BRNCCOCO    BRNCCOCO13AG00001000000000001132035000000000000000500000000000000000000000012302Z01620200416X066000000
2MAIL0000153569BR10        BRNC        BRNCCOCO    BRNCCOCO13AG00001100000000001132035100000000000000500000000000000000000000011693Z01620200416X066000000
2MAIL0000153569BR10        BRNC        BRNCCOCO    BRNCCOCO13AG00001200000000001132036700000000000002000000000000000000000000043455Z01620200416X066000000
2MAIL0000153569BR10        BRNC        BRNCCOCO    BRNCCOCO13AG00001300000000001132185100000000000000200000000000000000000000005680Z01620200416X066000000
2MAIL0000153569BR10        BRNC        BRNCCOCO    BRNCCOCO13AG00001400000000001132200400000000000001000000000000000000000000021151Z01620200416X066000000
2MAIL0000153569BR10        BRNC        BRNCCOCO    BRNCCOCO13AG00001500000000001215533700000000000001200000000000000000000000026073Z01620200416X066000000
2MAIL0000153569BR10        BRNC        BRNCCOCO    BRNCCOCO13AG00001600000000001221415400000000000000100000000000000000000000003541Z01620200416X066000000
2MAIL0000153569BR10        BRNC        BRNCCOCO    BRNCCOCO13AG00001700000000001223975300000000000000100000000000000000000000005076Z01620200416X066000000
2MAIL0000153569BR10        BRNC        BRNCCOCO    BRNCCOCO13AG00001800000000001226089600000000000002400000000000000000000000009159Z01620200416X066000000
2MAIL0000153569BR10        BRNC        BRNCCOCO    BRNCCOCO13AG00001900000000001227395500000000000000800000000000000000000000017382Z01620200416X066000000
2MAIL0000153569BR10        BRNC        BRNCCOCO    BRNCCOCO13AG00002000000000001227735000000000000000100000000000000000000000001967Z01620200416X066000000
2MAIL0000153569BR10        BRNC        BRNCCOCO    BRNCCOCO13AG00002100000000001228274000000000000000100000000000000000000000005076Z01620200416X066000000
2MAIL0000153569BR10        BRNC        BRNCCOCO    BRNCCOCO13AG00002200000000001228512700000000000000100000000000000000000000005076Z01620200416X066000000
2MAIL0000153569BR10        BRNC        BRNCCOCO    BRNCCOCO13AG00002300000000001231189200000000000000100000000000000000000000005076Z01620200416X066000000
2MAIL0000153569BR10        BRNC        BRNCCOCO    BRNCCOCO13AG00002400000000001231231200000000000000100000000000000000000000005076Z01620200416X066000000
2MAIL0000153569BR10        BRNC        BRNCCOCO    BRNCCOCO13AG00002500000000001231233000000000000000100000000000000000000000005076Z01620200416X066000000
2MAIL0000153569BR10        BRNC        BRNCCOCO    BRNCCOCO13AG00002600000000001231389600000000000000800000000000000000000000017382Z01620200416X066000000
2MAIL0000153569BR10        BRNC        BRNCCOCO    BRNCCOCO13AG00002700000000001234705700000000000000100000000000000000000000005076Z01620200416X066000000
2MAIL0000153569BR10        BRNC        BRNCCOCO    BRNCCOCO13AG00002800000000001234705800000000000000100000000000000000000000005076Z01620200416X066000000
2MAIL0000153569BR10        BRNC        BRNCCOCO    BRNCCOCO13AG00002900000000001234705900000000000000100000000000000000000000005076Z01620200416X066000000
2MAIL0000153569BR10        BRNC        BRNCCOCO    BRNCCOCO13AG00003000000000001235699400000000000002000000000000000000000000007648Z01620200416X066000000
2MAIL0000153569BR10        BRNC        BRNCCOCO    BRNCCOCO13AG00003100000000001235699700000000000002000000000000000000000000007648Z01620200416X066000000
2MAIL0000153569BR10        BRNC        BRNCCOCO    BRNCCOCO13AG00003200000000001235699800000000000004000000000000000000000000015297Z01620200416X066000000
2MAIL0000153569BR10        BRNC        BRNCCOCO    BRNCCOCO13AG00003300000000001236512800000000000001200000000000000000000000002071Z01620200416X066000000
2MAIL0000153569BR10        BRNC        BRNCCOCO    BRNCCOCO13AG00003400000000001236512900000000000002000000000000000000000000003636Z01620200416X066000000
2MAIL0000153569BR10        BRNC        BRNCCOCO    BRNCCOCO13AG00003500000000001236515000000000000002000000000000000000000000003636Z01620200416X066000000
2MAIL0000153569BR10        BRNC        BRNCCOCO    BRNCCOCO13AG00003600000000001236898000000000000000800000000000000000000000017382Z01620200416X066000000
2MAIL0000153569BR10        BRNC        BRNCCOCO    BRNCCOCO13AG00003700000000001238083600000000000000100000000000000000000000006310Z01620200416X066000000
2MAIL0000153569BR10        BRNC        BRNCCOCO    BRNCCOCO13AG00003800000000001239663300000000000002800000000000000000000000010686Z01620200416X066000000
2MAIL0000153569BR10        BRNC        BRNCCOCO    BRNCCOCO13AG00003900000000001239688300000000000002800000000000000000000000010686Z01620200416X066000000
2MAIL0000153569BR10        BRNC        BRNCCOCO    BRNCCOCO13AG00004000000000001239688500000000000002800000000000000000000000010686Z01620200416X066000000
2MAIL0000153569BR10        BRNC        BRNCCOCO    BRNCCOCO13AG00004100000000001239688600000000000002800000000000000000000000010686Z01620200416X066000000
2MAIL0000153569BR10        BRNC        BRNCCOCO    BRNCCOCO13AG00004200000000001239688700000000000002800000000000000000000000010686Z01620200416X066000000
2MAIL0000153569BR10        BRNC        BRNCCOCO    BRNCCOCO13AG00004300000000001239688800000000000002800000000000000000000000010686Z01620200416X066000000
2MAIL0000153569BR10        BRNC        BRNCCOCO    BRNCCOCO13AG00004400000000001239692000000000000002800000000000000000000000010686Z01620200416X066000000
2MAIL0000153569BR10        BRNC        BRNCCOCO    BRNCCOCO13AG00004500000000001239692100000000000002800000000000000000000000010686Z01620200416X066000000
2MAIL0000153569BR10        BRNC        BRNCCOCO    BRNCCOCO13AG00004600000000001239692300000000000002800000000000000000000000010686Z01620200416X066000000
2MAIL0000153569BR10        BRNC        BRNCCOCO    BRNCCOCO13AG00004700000000001240924900000000000001200000000000000000000000001997Z01620200416X066000000
2MAIL0000153569BR10        BRNC        BRNCCOCO    BRNCCOCO13AG00004800000000001241577400000000000000500000000000000000000000004332Z01620200416X066000000
2MAIL0000153569BR10        BRNC        BRNCCOCO    BRNCCOCO13AG00004900000000001241623700000000000001000000000000000000000000025866Z01620200416X066000000
2MAIL0000153569BR10        BRNC        BRNCCOCO    BRNCCOCO13AG00005000000000001242626100000000000002800000000000000000000000010686Z01620200416X066000000
2MAIL0000153569BR10        BRNC        BRNCCOCO    BRNCCOCO13AG00005100000000001242754900000000000002800000000000000000000000010686Z01620200416X066000000
2MAIL0000153569BR10        BRNC        BRNCCOCO    BRNCCOCO13AG00005200000000001242765000000000000002800000000000000000000000010686Z01620200416X066000000
1MAIL0000153570BR10        BRNC        BRNCCOCO    BRNCCOCO13AG2020041600:00:00OR  010000047651720004765172153570                             2020041620200416Z016CIF202004160000000000228503NN0                                                  0                                        
2MAIL0000153570BR10        BRNC        BRNCCOCO    BRNCCOCO13AG00000100000000001132004000000000000000500000000000000000000000005102Z01620200416X066000000
2MAIL0000153570BR10        BRNC        BRNCCOCO    BRNCCOCO13AG00000200000000001132018300000000000000100000000000000000000000003541Z01620200416X066000000
2MAIL0000153570BR10        BRNC        BRNCCOCO    BRNCCOCO13AG00000300000000001132030900000000000000200000000000000000000000006414Z01620200416X066000000
2MAIL0000153570BR10        BRNC        BRNCCOCO    BRNCCOCO13AG00000400000000001132033100000000000000800000000000000000000000017382Z01620200416X066000000
2MAIL0000153570BR10        BRNC        BRNCCOCO    BRNCCOCO13AG00000500000000001132034900000000000000500000000000000000000000011074Z01620200416X066000000
2MAIL0000153570BR10        BRNC        BRNCCOCO    BRNCCOCO13AG00000600000000001132035100000000000000500000000000000000000000011693Z01620200416X066000000
2MAIL0000153570BR10        BRNC        BRNCCOCO    BRNCCOCO13AG00000700000000001132036700000000000001000000000000000000000000021728Z01620200416X066000000
2MAIL0000153570BR10        BRNC        BRNCCOCO    BRNCCOCO13AG00000800000000001132185100000000000000200000000000000000000000005680Z01620200416X066000000
2MAIL0000153570BR10        BRNC        BRNCCOCO    BRNCCOCO13AG00000900000000001132200400000000000000200000000000000000000000004230Z01620200416X066000000
2MAIL0000153570BR10        BRNC        BRNCCOCO    BRNCCOCO13AG00001000000000001221415400000000000000100000000000000000000000003541Z01620200416X066000000
2MAIL0000153570BR10        BRNC        BRNCCOCO    BRNCCOCO13AG00001100000000001223975300000000000000200000000000000000000000010153Z01620200416X066000000
2MAIL0000153570BR10        BRNC        BRNCCOCO    BRNCCOCO13AG00001200000000001226089600000000000001200000000000000000000000004580Z01620200416X066000000
2MAIL0000153570BR10        BRNC        BRNCCOCO    BRNCCOCO13AG00001300000000001231189200000000000000200000000000000000000000010153Z01620200416X066000000
2MAIL0000153570BR10        BRNC        BRNCCOCO    BRNCCOCO13AG00001400000000001231231200000000000000200000000000000000000000010153Z01620200416X066000000
2MAIL0000153570BR10        BRNC        BRNCCOCO    BRNCCOCO13AG00001500000000001231233000000000000000100000000000000000000000005076Z01620200416X066000000
2MAIL0000153570BR10        BRNC        BRNCCOCO    BRNCCOCO13AG00001600000000001235699400000000000002000000000000000000000000007648Z01620200416X066000000
2MAIL0000153570BR10        BRNC        BRNCCOCO    BRNCCOCO13AG00001700000000001235699700000000000001000000000000000000000000003825Z01620200416X066000000
2MAIL0000153570BR10        BRNC        BRNCCOCO    BRNCCOCO13AG00001800000000001235699800000000000003000000000000000000000000011472Z01620200416X066000000
2MAIL0000153570BR10        BRNC        BRNCCOCO    BRNCCOCO13AG00001900000000001236512800000000000001200000000000000000000000002071Z01620200416X066000000
2MAIL0000153570BR10        BRNC        BRNCCOCO    BRNCCOCO13AG00002000000000001236512900000000000003000000000000000000000000005454Z01620200416X066000000
2MAIL0000153570BR10        BRNC        BRNCCOCO    BRNCCOCO13AG00002100000000001236515000000000000003000000000000000000000000005454Z01620200416X066000000
2MAIL0000153570BR10        BRNC        BRNCCOCO    BRNCCOCO13AG00002200000000001238083500000000000000100000000000000000000000005076Z01620200416X066000000
2MAIL0000153570BR10        BRNC        BRNCCOCO    BRNCCOCO13AG00002300000000001239688500000000000001400000000000000000000000005343Z01620200416X066000000
2MAIL0000153570BR10        BRNC        BRNCCOCO    BRNCCOCO13AG00002400000000001239688600000000000001400000000000000000000000005343Z01620200416X066000000
2MAIL0000153570BR10        BRNC        BRNCCOCO    BRNCCOCO13AG00002500000000001239688700000000000001400000000000000000000000005343Z01620200416X066000000
2MAIL0000153570BR10        BRNC        BRNCCOCO    BRNCCOCO13AG00002600000000001239688800000000000001400000000000000000000000005343Z01620200416X066000000
2MAIL0000153570BR10        BRNC        BRNCCOCO    BRNCCOCO13AG00002700000000001239692000000000000001400000000000000000000000005343Z01620200416X066000000
2MAIL0000153570BR10        BRNC        BRNCCOCO    BRNCCOCO13AG00002800000000001239692100000000000002800000000000000000000000010686Z01620200416X066000000
2MAIL0000153570BR10        BRNC        BRNCCOCO    BRNCCOCO13AG00002900000000001239692300000000000001400000000000000000000000005343Z01620200416X066000000
2MAIL0000153570BR10        BRNC        BRNCCOCO    BRNCCOCO13AG00003000000000001240924900000000000001200000000000000000000000001997Z01620200416X066000000
2MAIL0000153570BR10        BRNC        BRNCCOCO    BRNCCOCO13AG00003100000000001241577400000000000000500000000000000000000000004332Z01620200416X066000000
2MAIL0000153570BR10        BRNC        BRNCCOCO    BRNCCOCO13AG00003200000000001241623700000000000000100000000000000000000000002587Z01620200416X066000000
2MAIL0000153570BR10        BRNC        BRNCCOCO    BRNCCOCO13AG00003300000000001242765000000000000001400000000000000000000000005343Z01620200416X066000000
1MAIL0000153571BR10        BRNC        BRNCCOCO    BRNCCOCO13AG2020041600:00:00OR  010000029738760002973876153571                             2020041620200416Z016CIF202004160000000000208490NN0                                                  0                                        
2MAIL0000153571BR10        BRNC        BRNCCOCO    BRNCCOCO13AG00000100000000001132004000000000000000500000000000000000000000005102Z01620200416X066000000
2MAIL0000153571BR10        BRNC        BRNCCOCO    BRNCCOCO13AG00000200000000001132004200000000000000500000000000000000000000007033Z01620200416X066000000
2MAIL0000153571BR10        BRNC        BRNCCOCO    BRNCCOCO13AG00000300000000001132018300000000000000100000000000000000000000003541Z01620200416X066000000
2MAIL0000153571BR10        BRNC        BRNCCOCO    BRNCCOCO13AG00000400000000001132019700000000000000100000000000000000000000001967Z01620200416X066000000
2MAIL0000153571BR10        BRNC        BRNCCOCO    BRNCCOCO13AG00000500000000001132019800000000000000100000000000000000000000001967Z01620200416X066000000
2MAIL0000153571BR10        BRNC        BRNCCOCO    BRNCCOCO13AG00000600000000001132030800000000000000200000000000000000000000006218Z01620200416X066000000
2MAIL0000153571BR10        BRNC        BRNCCOCO    BRNCCOCO13AG00000700000000001132033100000000000000500000000000000000000000010863Z01620200416X066000000
2MAIL0000153571BR10        BRNC        BRNCCOCO    BRNCCOCO13AG00000800000000001132033900000000000000200000000000000000000000006820Z01620200416X066000000
2MAIL0000153571BR10        BRNC        BRNCCOCO    BRNCCOCO13AG00000900000000001132034900000000000000500000000000000000000000011074Z01620200416X066000000
2MAIL0000153571BR10        BRNC        BRNCCOCO    BRNCCOCO13AG00001000000000001132035000000000000000500000000000000000000000012302Z01620200416X066000000
2MAIL0000153571BR10        BRNC        BRNCCOCO    BRNCCOCO13AG00001100000000001132036700000000000000800000000000000000000000017382Z01620200416X066000000
2MAIL0000153571BR10        BRNC        BRNCCOCO    BRNCCOCO13AG00001200000000001132185100000000000000200000000000000000000000005680Z01620200416X066000000
2MAIL0000153571BR10        BRNC        BRNCCOCO    BRNCCOCO13AG00001300000000001132200400000000000000200000000000000000000000004230Z01620200416X066000000
2MAIL0000153571BR10        BRNC        BRNCCOCO    BRNCCOCO13AG00001400000000001215533700000000000000500000000000000000000000010863Z01620200416X066000000
2MAIL0000153571BR10        BRNC        BRNCCOCO    BRNCCOCO13AG00001500000000001221415400000000000000100000000000000000000000003541Z01620200416X066000000
2MAIL0000153571BR10        BRNC        BRNCCOCO    BRNCCOCO13AG00001600000000001224882700000000000000100000000000000000000000003159Z01620200416X066000000
2MAIL0000153571BR10        BRNC        BRNCCOCO    BRNCCOCO13AG00001700000000001226089600000000000001200000000000000000000000004580Z01620200416X066000000
2MAIL0000153571BR10        BRNC        BRNCCOCO    BRNCCOCO13AG00001800000000001231189200000000000000100000000000000000000000005076Z01620200416X066000000
2MAIL0000153571BR10        BRNC        BRNCCOCO    BRNCCOCO13AG00001900000000001231231200000000000000100000000000000000000000005076Z01620200416X066000000
2MAIL0000153571BR10        BRNC        BRNCCOCO    BRNCCOCO13AG00002000000000001231389600000000000000100000000000000000000000002173Z01620200416X066000000
2MAIL0000153571BR10        BRNC        BRNCCOCO    BRNCCOCO13AG00002100000000001234705700000000000000100000000000000000000000005076Z01620200416X066000000
2MAIL0000153571BR10        BRNC        BRNCCOCO    BRNCCOCO13AG00002200000000001234705800000000000000100000000000000000000000005076Z01620200416X066000000
2MAIL0000153571BR10        BRNC        BRNCCOCO    BRNCCOCO13AG00002300000000001234705900000000000000100000000000000000000000005076Z01620200416X066000000
2MAIL0000153571BR10        BRNC        BRNCCOCO    BRNCCOCO13AG00002400000000001235699400000000000001000000000000000000000000003825Z01620200416X066000000
2MAIL0000153571BR10        BRNC        BRNCCOCO    BRNCCOCO13AG00002500000000001235699700000000000001000000000000000000000000003825Z01620200416X066000000
2MAIL0000153571BR10        BRNC        BRNCCOCO    BRNCCOCO13AG00002600000000001235699800000000000002000000000000000000000000007648Z01620200416X066000000
2MAIL0000153571BR10        BRNC        BRNCCOCO    BRNCCOCO13AG00002700000000001236512800000000000001200000000000000000000000002071Z01620200416X066000000
2MAIL0000153571BR10        BRNC        BRNCCOCO    BRNCCOCO13AG00002800000000001236512900000000000001000000000000000000000000001818Z01620200416X066000000
2MAIL0000153571BR10        BRNC        BRNCCOCO    BRNCCOCO13AG00002900000000001236515000000000000001000000000000000000000000001818Z01620200416X066000000
2MAIL0000153571BR10        BRNC        BRNCCOCO    BRNCCOCO13AG00003000000000001236898000000000000000100000000000000000000000002173Z01620200416X066000000
2MAIL0000153571BR10        BRNC        BRNCCOCO    BRNCCOCO13AG00003100000000001238083500000000000000100000000000000000000000005076Z01620200416X066000000
2MAIL0000153571BR10        BRNC        BRNCCOCO    BRNCCOCO13AG00003200000000001239373600000000000000100000000000000000000000006340Z01620200416X066000000
2MAIL0000153571BR10        BRNC        BRNCCOCO    BRNCCOCO13AG00003300000000001239688600000000000001400000000000000000000000005343Z01620200416X066000000
2MAIL0000153571BR10        BRNC        BRNCCOCO    BRNCCOCO13AG00003400000000001239688700000000000001400000000000000000000000005343Z01620200416X066000000
2MAIL0000153571BR10        BRNC        BRNCCOCO    BRNCCOCO13AG00003500000000001239688800000000000001400000000000000000000000005343Z01620200416X066000000
2MAIL0000153571BR10        BRNC        BRNCCOCO    BRNCCOCO13AG00003600000000001240924900000000000001200000000000000000000000001997Z01620200416X066000000
2MAIL0000153571BR10        BRNC        BRNCCOCO    BRNCCOCO13AG00003700000000001241577400000000000000500000000000000000000000004332Z01620200416X066000000
2MAIL0000153571BR10        BRNC        BRNCCOCO    BRNCCOCO13AG00003800000000001241623700000000000000100000000000000000000000002587Z01620200416X066000000
2MAIL0000153571BR10        BRNC        BRNCCOCO    BRNCCOCO13AG00003900000000001242374800000000000000100000000000000000000000005076Z01620200416X066000000
1MAIL0000153572BR10        BRNC        BRNCCOCO    BRNCCOCO13AG2020041600:00:00OR  010000052576620005257662153572                             2020041620200416Z016CIF202004160000000000003293NN0                                                  0                                        
2MAIL0000153572BR10        BRNC        BRNCCOCO    BRNCCOCO13AG00000100000000001132036700000000000000100000000000000000000000002291Z01620200416X066000000
2MAIL0000153572BR10        BRNC        BRNCCOCO    BRNCCOCO13AG00000200000000001236515000000000000000500000000000000000000000001002Z01620200416X066000000
1MAIL0000153573BR10        BRNC        BRNCCOCO    BRNCCOCO13AG2020041600:00:00OR  010000052196860005219686153573                             2020041620200416Z016CIF202004160000000000005584NN0                                                  0                                        
2MAIL0000153573BR10        BRNC        BRNCCOCO    BRNCCOCO13AG00000100000000001132033100000000000000100000000000000000000000002291Z01620200416X066000000
2MAIL0000153573BR10        BRNC        BRNCCOCO    BRNCCOCO13AG00000200000000001215533700000000000000100000000000000000000000002291Z01620200416X066000000
2MAIL0000153573BR10        BRNC        BRNCCOCO    BRNCCOCO13AG00000300000000001236515000000000000000500000000000000000000000001002Z01620200416X066000000
1MAIL0000153574BR10        BRNC        BRNCCOCO    BRNCCOCO13AG2020041600:00:00OR  010000009539790000953979153574                             2020041620200416Z016CIF202004160000000000175446NN0                                                  0                                        
2MAIL0000153574BR10        BRNC        BRNCCOCO    BRNCCOCO13AG00000100000000001132030900000000000001200000000000000000000000038486Z01620200416X066000000
2MAIL0000153574BR10        BRNC        BRNCCOCO    BRNCCOCO13AG00000200000000001132034900000000000002000000000000000000000000044299Z01620200416X066000000
2MAIL0000153574BR10        BRNC        BRNCCOCO    BRNCCOCO13AG00000300000000001132035100000000000002000000000000000000000000046769Z01620200416X066000000
2MAIL0000153574BR10        BRNC        BRNCCOCO    BRNCCOCO13AG00000400000000001235699700000000000006000000000000000000000000022946Z01620200416X066000000
2MAIL0000153574BR10        BRNC        BRNCCOCO    BRNCCOCO13AG00000500000000001235699800000000000006000000000000000000000000022946Z01620200416X066000000
1MAIL0000153575BR10        BRNC        BRNCCOCO    BRNCCOCO13AG2020041600:00:00OR  010000058532380005853238153575                             2020041620200416Z016CIF202004160000000000065261NN0                                                  0                                        
2MAIL0000153575BR10        BRNC        BRNCCOCO    BRNCCOCO13AG00000100000000001132019700000000000000100000000000000000000000001681Z01620200416X066000000
2MAIL0000153575BR10        BRNC        BRNCCOCO    BRNCCOCO13AG00000200000000001132019800000000000000100000000000000000000000001681Z01620200416X066000000
2MAIL0000153575BR10        BRNC        BRNCCOCO    BRNCCOCO13AG00000300000000001132020900000000000000100000000000000000000000001681Z01620200416X066000000
2MAIL0000153575BR10        BRNC        BRNCCOCO    BRNCCOCO13AG00000400000000001132033100000000000000100000000000000000000000001856Z01620200416X066000000
2MAIL0000153575BR10        BRNC        BRNCCOCO    BRNCCOCO13AG00000500000000001132036700000000000000100000000000000000000000001856Z01620200416X066000000
2MAIL0000153575BR10        BRNC        BRNCCOCO    BRNCCOCO13AG00000600000000001215533700000000000000100000000000000000000000001856Z01620200416X066000000
2MAIL0000153575BR10        BRNC        BRNCCOCO    BRNCCOCO13AG00000700000000001226089600000000000001200000000000000000000000004073Z01620200416X066000000
2MAIL0000153575BR10        BRNC        BRNCCOCO    BRNCCOCO13AG00000800000000001227735000000000000000100000000000000000000000001681Z01620200416X066000000
2MAIL0000153575BR10        BRNC        BRNCCOCO    BRNCCOCO13AG00000900000000001236512900000000000003500000000000000000000000005812Z01620200416X066000000
2MAIL0000153575BR10        BRNC        BRNCCOCO    BRNCCOCO13AG00001000000000001236515000000000000003500000000000000000000000005812Z01620200416X066000000
2MAIL0000153575BR10        BRNC        BRNCCOCO    BRNCCOCO13AG00001100000000001239688300000000000001400000000000000000000000004752Z01620200416X066000000
2MAIL0000153575BR10        BRNC        BRNCCOCO    BRNCCOCO13AG00001200000000001239688500000000000001400000000000000000000000004752Z01620200416X066000000
2MAIL0000153575BR10        BRNC        BRNCCOCO    BRNCCOCO13AG00001300000000001239688600000000000001400000000000000000000000004752Z01620200416X066000000
2MAIL0000153575BR10        BRNC        BRNCCOCO    BRNCCOCO13AG00001400000000001239688700000000000001400000000000000000000000004752Z01620200416X066000000
2MAIL0000153575BR10        BRNC        BRNCCOCO    BRNCCOCO13AG00001500000000001239688800000000000001400000000000000000000000004752Z01620200416X066000000
2MAIL0000153575BR10        BRNC        BRNCCOCO    BRNCCOCO13AG00001600000000001239692300000000000001400000000000000000000000004752Z01620200416X066000000
2MAIL0000153575BR10        BRNC        BRNCCOCO    BRNCCOCO13AG00001700000000001240924900000000000002800000000000000000000000004251Z01620200416X066000000
2MAIL0000153575BR10        BRNC        BRNCCOCO    BRNCCOCO13AG00001800000000001242374800000000000000100000000000000000000000004509Z01620200416X066000000
1MAIL0000153576BR10        BRNC        BRNCCOCO    BRNCCOCO13AG2020041600:00:00OR  010000058971090005897109153576                             2020041620200416Z016CIF202004160000000000056769NN0                                                  0                                        
2MAIL0000153576BR10        BRNC        BRNCCOCO    BRNCCOCO13AG00000100000000001132019700000000000000100000000000000000000000001593Z01620200416X066000000
2MAIL0000153576BR10        BRNC        BRNCCOCO    BRNCCOCO13AG00000200000000001132019800000000000000100000000000000000000000001593Z01620200416X066000000
2MAIL0000153576BR10        BRNC        BRNCCOCO    BRNCCOCO13AG00000300000000001132033100000000000000100000000000000000000000001759Z01620200416X066000000
2MAIL0000153576BR10        BRNC        BRNCCOCO    BRNCCOCO13AG00000400000000001132036700000000000000200000000000000000000000003518Z01620200416X066000000
2MAIL0000153576BR10        BRNC        BRNCCOCO    BRNCCOCO13AG00000500000000001215533700000000000000200000000000000000000000003518Z01620200416X066000000
2MAIL0000153576BR10        BRNC        BRNCCOCO    BRNCCOCO13AG00000600000000001226089600000000000001200000000000000000000000004255Z01620200416X066000000
2MAIL0000153576BR10        BRNC        BRNCCOCO    BRNCCOCO13AG00000700000000001236512900000000000007000000000000000000000000010081Z01620200416X066000000
2MAIL0000153576BR10        BRNC        BRNCCOCO    BRNCCOCO13AG00000800000000001236515000000000000007000000000000000000000000010081Z01620200416X066000000
2MAIL0000153576BR10        BRNC        BRNCCOCO    BRNCCOCO13AG00000900000000001239663300000000000001400000000000000000000000004964Z01620200416X066000000
2MAIL0000153576BR10        BRNC        BRNCCOCO    BRNCCOCO13AG00001000000000001239688600000000000001400000000000000000000000004964Z01620200416X066000000
2MAIL0000153576BR10        BRNC        BRNCCOCO    BRNCCOCO13AG00001100000000001239688800000000000001400000000000000000000000004964Z01620200416X066000000
2MAIL0000153576BR10        BRNC        BRNCCOCO    BRNCCOCO13AG00001200000000001241623700000000000000300000000000000000000000005479Z01620200416X066000000
