1MAIL0000150865BR10        BRNC        BRNCCOCO    BRNCCOCO13AG2020032500:00:00OR  010000030561230003056123150865                             2020032520200325Z016CIF202003250000000000062802NN0                                                  0                                        
2MAIL0000150865BR10        BRNC        BRNCCOCO    BRNCCOCO13AG00000100000000001132033100000000000000600000000000000000000000013746Z01620200325X066000000
2MAIL0000150865BR10        BRNC        BRNCCOCO    BRNCCOCO13AG00000200000000001132036700000000000000600000000000000000000000013746Z01620200325X066000000
2MAIL0000150865BR10        BRNC        BRNCCOCO    BRNCCOCO13AG00000300000000001239688600000000000002800000000000000000000000011770Z01620200325X066000000
2MAIL0000150865BR10        BRNC        BRNCCOCO    BRNCCOCO13AG00000400000000001239688800000000000002800000000000000000000000011770Z01620200325X066000000
2MAIL0000150865BR10        BRNC        BRNCCOCO    BRNCCOCO13AG00000500000000001239692100000000000002800000000000000000000000011770Z01620200325X066000000
1MAIL0000150866BR10        BRNC        BRNCCOCO    BRNCCOCO13AG2020032500:00:00OR  010000029377260002937726150866                             2020032520200325Z016CIF202003250000000000011020NN0                                                  0                                        
2MAIL0000150866BR10        BRNC        BRNCCOCO    BRNCCOCO13AG00000100000000001132019800000000000000100000000000000000000000001967Z01620200325X066000000
2MAIL0000150866BR10        BRNC        BRNCCOCO    BRNCCOCO13AG00000200000000001132033100000000000000100000000000000000000000002173Z01620200325X066000000
2MAIL0000150866BR10        BRNC        BRNCCOCO    BRNCCOCO13AG00000300000000001132036700000000000000100000000000000000000000002173Z01620200325X066000000
2MAIL0000150866BR10        BRNC        BRNCCOCO    BRNCCOCO13AG00000400000000001132200400000000000000100000000000000000000000002115Z01620200325X066000000
2MAIL0000150866BR10        BRNC        BRNCCOCO    BRNCCOCO13AG00000500000000001241623700000000000000100000000000000000000000002592Z01620200325X066000000
1MAIL0000150867BR10        BRNC        BRNCCOCO    BRNCCOCO13AG2020032500:00:00OR  010000057288040005728804150867                             2020032520200325Z016CIF202003250000000000016494NN0                                                  0                                        
2MAIL0000150867BR10        BRNC        BRNCCOCO    BRNCCOCO13AG00000100000000001132018300000000000000100000000000000000000000003541Z01620200325X066000000
2MAIL0000150867BR10        BRNC        BRNCCOCO    BRNCCOCO13AG00000200000000001235699700000000000001000000000000000000000000004416Z01620200325X066000000
2MAIL0000150867BR10        BRNC        BRNCCOCO    BRNCCOCO13AG00000300000000001236512800000000000001200000000000000000000000002368Z01620200325X066000000
2MAIL0000150867BR10        BRNC        BRNCCOCO    BRNCCOCO13AG00000400000000001239688800000000000001400000000000000000000000006169Z01620200325X066000000
1MAIL0000150868BR10        BRNC        BRNCCOCO    BRNCCOCO13AG2020032500:00:00OR  010000055158940005515894150868                             2020032520200325Z016CIF202003250000000000063719NN0                                                  0                                        
2MAIL0000150868BR10        BRNC        BRNCCOCO    BRNCCOCO13AG00000100000000001236512900000000000001500000000000000000000000003006Z01620200325X066000000
2MAIL0000150868BR10        BRNC        BRNCCOCO    BRNCCOCO13AG00000200000000001236515000000000000001500000000000000000000000003006Z01620200325X066000000
2MAIL0000150868BR10        BRNC        BRNCCOCO    BRNCCOCO13AG00000300000000001241577400000000000006000000000000000000000000057707Z01620200325X066000000
1MAIL0000150869BR10        BRNC        BRNCCOCO    BRNCCOCO13AG2020032500:00:00OR  010000050707230005070723150869                             2020032520200325Z016CIF202003250000000000019850NN0                                                  0                                        
2MAIL0000150869BR10        BRNC        BRNCCOCO    BRNCCOCO13AG00000100000000001132036700000000000000100000000000000000000000002173Z01620200325X066000000
2MAIL0000150869BR10        BRNC        BRNCCOCO    BRNCCOCO13AG00000200000000001236512900000000000001000000000000000000000000001997Z01620200325X066000000
2MAIL0000150869BR10        BRNC        BRNCCOCO    BRNCCOCO13AG00000300000000001236515000000000000001000000000000000000000000001997Z01620200325X066000000
2MAIL0000150869BR10        BRNC        BRNCCOCO    BRNCCOCO13AG00000400000000001241577400000000000001500000000000000000000000013683Z01620200325X066000000
1MAIL0000150870BR10        BRNC        BRNCCOCO    BRNCCOCO13AG2020032500:00:00OR  010000058454850005845485150870                             2020032520200325Z016CIF202003250000000000023040NN0                                                  0                                        
2MAIL0000150870BR10        BRNC        BRNCCOCO    BRNCCOCO13AG00000100000000001132020900000000000000100000000000000000000000002076Z01620200325X066000000
2MAIL0000150870BR10        BRNC        BRNCCOCO    BRNCCOCO13AG00000200000000001132033100000000000000100000000000000000000000002291Z01620200325X066000000
2MAIL0000150870BR10        BRNC        BRNCCOCO    BRNCCOCO13AG00000300000000001132036700000000000000100000000000000000000000002291Z01620200325X066000000
2MAIL0000150870BR10        BRNC        BRNCCOCO    BRNCCOCO13AG00000400000000001236512900000000000002000000000000000000000000004008Z01620200325X066000000
2MAIL0000150870BR10        BRNC        BRNCCOCO    BRNCCOCO13AG00000500000000001236515000000000000002000000000000000000000000004008Z01620200325X066000000
2MAIL0000150870BR10        BRNC        BRNCCOCO    BRNCCOCO13AG00000600000000001239688800000000000001400000000000000000000000005885Z01620200325X066000000
2MAIL0000150870BR10        BRNC        BRNCCOCO    BRNCCOCO13AG00000700000000001241623700000000000000100000000000000000000000002481Z01620200325X066000000
1MAIL0000150871BR10        BRNC        BRNCCOCO    BRNCCOCO13AG2020032500:00:00OR  010000061671840006167184150871                             2020032520200325Z079CIF202003250000000000047042NN0                                                  0                                        
2MAIL0000150871BR10        BRNC        BRNCCOCO    BRNCCOCO13AG00000100000000001132019800000000000000100000000000000000000000001930Z07920200325X066000000
2MAIL0000150871BR10        BRNC        BRNCCOCO    BRNCCOCO13AG00000200000000001132033100000000000000100000000000000000000000002131Z07920200325X066000000
2MAIL0000150871BR10        BRNC        BRNCCOCO    BRNCCOCO13AG00000300000000001132036700000000000000100000000000000000000000002131Z07920200325X066000000
2MAIL0000150871BR10        BRNC        BRNCCOCO    BRNCCOCO13AG00000400000000001132200400000000000000100000000000000000000000002121Z07920200325X066000000
2MAIL0000150871BR10        BRNC        BRNCCOCO    BRNCCOCO13AG00000500000000001236512900000000000001000000000000000000000000001953Z07920200325X066000000
2MAIL0000150871BR10        BRNC        BRNCCOCO    BRNCCOCO13AG00000600000000001236515000000000000001000000000000000000000000001953Z07920200325X066000000
2MAIL0000150871BR10        BRNC        BRNCCOCO    BRNCCOCO13AG00000700000000001239688800000000000001400000000000000000000000005470Z07920200325X066000000
2MAIL0000150871BR10        BRNC        BRNCCOCO    BRNCCOCO13AG00000800000000001241577400000000000003000000000000000000000000026811Z07920200325X066000000
2MAIL0000150871BR10        BRNC        BRNCCOCO    BRNCCOCO13AG00000900000000001241623700000000000000100000000000000000000000002542Z07920200325X066000000
1MAIL0000150872BR10        BRNC        BRNCCOCO    BRNCCOCO13AG2020032500:00:00OR  010000056295830005629583150872                             2020032520200325Z016CIF202003250000000000035615NN0                                                  0                                        
2MAIL0000150872BR10        BRNC        BRNCCOCO    BRNCCOCO13AG00000100000000001236512800000000000005200000000000000000000000007425Z01620200325X066000000
2MAIL0000150872BR10        BRNC        BRNCCOCO    BRNCCOCO13AG00000200000000001236512900000000000007000000000000000000000000010522Z01620200325X066000000
2MAIL0000150872BR10        BRNC        BRNCCOCO    BRNCCOCO13AG00000300000000001236515000000000000007000000000000000000000000010522Z01620200325X066000000
2MAIL0000150872BR10        BRNC        BRNCCOCO    BRNCCOCO13AG00000400000000001240924900000000000005200000000000000000000000007146Z01620200325X066000000
1MAIL0000150873BR10        BRNC        BRNCCOCO    BRNCCOCO13AG2020032500:00:00OR  010000060113250006011325150873                             2020032520200325Z016CIF202003250000000000036549NN0                                                  0                                        
2MAIL0000150873BR10        BRNC        BRNCCOCO    BRNCCOCO13AG00000100000000001132033100000000000000100000000000000000000000001856Z01620200325X066000000
2MAIL0000150873BR10        BRNC        BRNCCOCO    BRNCCOCO13AG00000200000000001132036700000000000000100000000000000000000000001856Z01620200325X066000000
2MAIL0000150873BR10        BRNC        BRNCCOCO    BRNCCOCO13AG00000300000000001215533700000000000000100000000000000000000000001856Z01620200325X066000000
2MAIL0000150873BR10        BRNC        BRNCCOCO    BRNCCOCO13AG00000400000000001226089600000000000001200000000000000000000000004073Z01620200325X066000000
2MAIL0000150873BR10        BRNC        BRNCCOCO    BRNCCOCO13AG00000500000000001236512900000000000003500000000000000000000000005812Z01620200325X066000000
2MAIL0000150873BR10        BRNC        BRNCCOCO    BRNCCOCO13AG00000600000000001236515000000000000003500000000000000000000000005812Z01620200325X066000000
2MAIL0000150873BR10        BRNC        BRNCCOCO    BRNCCOCO13AG00000700000000001239688300000000000001400000000000000000000000004752Z01620200325X066000000
2MAIL0000150873BR10        BRNC        BRNCCOCO    BRNCCOCO13AG00000800000000001239688800000000000001400000000000000000000000004752Z01620200325X066000000
2MAIL0000150873BR10        BRNC        BRNCCOCO    BRNCCOCO13AG00000900000000001241623700000000000000300000000000000000000000005780Z01620200325X066000000
1MAIL0000150874BR10        BRNC        BRNCCOCO    BRNCCOCO13AG2020032500:00:00OR  010000061132040006113204150874                             2020032520200325Z005CIF202003250000000000070997NN0                                                  0                                        
2MAIL0000150874BR10        BRNC        BRNCCOCO    BRNCCOCO13AG00000100000000001132018300000000000000100000000000000000000000002449Z00520200325X066000000
2MAIL0000150874BR10        BRNC        BRNCCOCO    BRNCCOCO13AG00000200000000001132019900000000000000100000000000000000000000001384Z00520200325X066000000
2MAIL0000150874BR10        BRNC        BRNCCOCO    BRNCCOCO13AG00000300000000001226089600000000000001200000000000000000000000003493Z00520200325X066000000
2MAIL0000150874BR10        BRNC        BRNCCOCO    BRNCCOCO13AG00000400000000001228274000000000000000100000000000000000000000003880Z00520200325X066000000
2MAIL0000150874BR10        BRNC        BRNCCOCO    BRNCCOCO13AG00000500000000001231189200000000000000100000000000000000000000003880Z00520200325X066000000
2MAIL0000150874BR10        BRNC        BRNCCOCO    BRNCCOCO13AG00000600000000001231233000000000000000100000000000000000000000003880Z00520200325X066000000
2MAIL0000150874BR10        BRNC        BRNCCOCO    BRNCCOCO13AG00000700000000001231389600000000000000300000000000000000000000004558Z00520200325X066000000
2MAIL0000150874BR10        BRNC        BRNCCOCO    BRNCCOCO13AG00000800000000001235699400000000000001000000000000000000000000002917Z00520200325X066000000
2MAIL0000150874BR10        BRNC        BRNCCOCO    BRNCCOCO13AG00000900000000001236512800000000000005200000000000000000000000007380Z00520200325X066000000
2MAIL0000150874BR10        BRNC        BRNCCOCO    BRNCCOCO13AG00001000000000001236512900000000000007000000000000000000000000010438Z00520200325X066000000
2MAIL0000150874BR10        BRNC        BRNCCOCO    BRNCCOCO13AG00001100000000001236515000000000000007000000000000000000000000010438Z00520200325X066000000
2MAIL0000150874BR10        BRNC        BRNCCOCO    BRNCCOCO13AG00001200000000001239688600000000000001400000000000000000000000004075Z00520200325X066000000
2MAIL0000150874BR10        BRNC        BRNCCOCO    BRNCCOCO13AG00001300000000001239688800000000000001400000000000000000000000004075Z00520200325X066000000
2MAIL0000150874BR10        BRNC        BRNCCOCO    BRNCCOCO13AG00001400000000001239692000000000000001400000000000000000000000004075Z00520200325X066000000
2MAIL0000150874BR10        BRNC        BRNCCOCO    BRNCCOCO13AG00001500000000001239692100000000000001400000000000000000000000004075Z00520200325X066000000
1MAIL0000150875BR10        BRNC        BRNCCOCO    BRNCCOCO13AG2020032500:00:00OR  010000029230900002923090150875                             2020032520200325Z016CIF202003250000000000027367NN0                                                  0                                        
2MAIL0000150875BR10        BRNC        BRNCCOCO    BRNCCOCO13AG00000100000000001132033100000000000000300000000000000000000000006872Z01620200325X066000000
2MAIL0000150875BR10        BRNC        BRNCCOCO    BRNCCOCO13AG00000200000000001132036700000000000000500000000000000000000000011454Z01620200325X066000000
2MAIL0000150875BR10        BRNC        BRNCCOCO    BRNCCOCO13AG00000300000000001132200400000000000000200000000000000000000000004460Z01620200325X066000000
2MAIL0000150875BR10        BRNC        BRNCCOCO    BRNCCOCO13AG00000400000000001215533700000000000000200000000000000000000000004581Z01620200325X066000000
1MAIL0000150876BR10        BRNC        BRNCCOCO    BRNCCOCO13AG2020032500:00:00OR  010000029155070002915507150876                             2020032520200325Z016CIF202003250000000000025276NN0                                                  0                                        
2MAIL0000150876BR10        BRNC        BRNCCOCO    BRNCCOCO13AG00000100000000001132033100000000000000200000000000000000000000004581Z01620200325X066000000
2MAIL0000150876BR10        BRNC        BRNCCOCO    BRNCCOCO13AG00000200000000001132036700000000000000200000000000000000000000004581Z01620200325X066000000
2MAIL0000150876BR10        BRNC        BRNCCOCO    BRNCCOCO13AG00000300000000001215533700000000000000200000000000000000000000004581Z01620200325X066000000
2MAIL0000150876BR10        BRNC        BRNCCOCO    BRNCCOCO13AG00000400000000001236898000000000000000200000000000000000000000004581Z01620200325X066000000
2MAIL0000150876BR10        BRNC        BRNCCOCO    BRNCCOCO13AG00000500000000001239373700000000000000100000000000000000000000006952Z01620200325X066000000
1MAIL0000150877BR10        BRNC        BRNCCOCO    BRNCCOCO13AG2020032500:00:00OR  010000058179680005817968150877                             2020032520200325Z016CIF202003250000000000029777NN0                                                  0                                        
2MAIL0000150877BR10        BRNC        BRNCCOCO    BRNCCOCO13AG00000100000000001132033100000000000000200000000000000000000000004581Z01620200325X066000000
2MAIL0000150877BR10        BRNC        BRNCCOCO    BRNCCOCO13AG00000200000000001132036700000000000000300000000000000000000000006872Z01620200325X066000000
2MAIL0000150877BR10        BRNC        BRNCCOCO    BRNCCOCO13AG00000300000000001215533700000000000000200000000000000000000000004581Z01620200325X066000000
2MAIL0000150877BR10        BRNC        BRNCCOCO    BRNCCOCO13AG00000400000000001227395500000000000000200000000000000000000000004581Z01620200325X066000000
2MAIL0000150877BR10        BRNC        BRNCCOCO    BRNCCOCO13AG00000500000000001231389600000000000000200000000000000000000000004581Z01620200325X066000000
2MAIL0000150877BR10        BRNC        BRNCCOCO    BRNCCOCO13AG00000600000000001236898000000000000000200000000000000000000000004581Z01620200325X066000000
1MAIL0000150878BR10        BRNC        BRNCCOCO    BRNCCOCO13AG2020032500:00:00OR  010000042177620004217762150878                             2020032520200325Z016CIF202003250000000000022909NN0                                                  0                                        
2MAIL0000150878BR10        BRNC        BRNCCOCO    BRNCCOCO13AG00000100000000001132033100000000000000100000000000000000000000002291Z01620200325X066000000
2MAIL0000150878BR10        BRNC        BRNCCOCO    BRNCCOCO13AG00000200000000001132036700000000000000500000000000000000000000011454Z01620200325X066000000
2MAIL0000150878BR10        BRNC        BRNCCOCO    BRNCCOCO13AG00000300000000001215533700000000000000100000000000000000000000002291Z01620200325X066000000
2MAIL0000150878BR10        BRNC        BRNCCOCO    BRNCCOCO13AG00000400000000001227395500000000000000100000000000000000000000002291Z01620200325X066000000
2MAIL0000150878BR10        BRNC        BRNCCOCO    BRNCCOCO13AG00000500000000001231389600000000000000100000000000000000000000002291Z01620200325X066000000
2MAIL0000150878BR10        BRNC        BRNCCOCO    BRNCCOCO13AG00000600000000001236898000000000000000100000000000000000000000002291Z01620200325X066000000
1MAIL0000150879BR10        BRNC        BRNCCOCO    BRNCCOCO13AG2020032500:00:00OR  010000009231330000923133150879                             2020032520200325Z016CIF202003250000000000727041NN0                                                  0                                        
2MAIL0000150879BR10        BRNC        BRNCCOCO    BRNCCOCO13AG00000100000000001223975300000000000001600000000000000000000000075395Z01620200325X066000000
2MAIL0000150879BR10        BRNC        BRNCCOCO    BRNCCOCO13AG00000200000000001228274000000000000001600000000000000000000000075395Z01620200325X066000000
2MAIL0000150879BR10        BRNC        BRNCCOCO    BRNCCOCO13AG00000300000000001228512700000000000000800000000000000000000000037698Z01620200325X066000000
2MAIL0000150879BR10        BRNC        BRNCCOCO    BRNCCOCO13AG00000400000000001231189200000000000001600000000000000000000000075395Z01620200325X066000000
2MAIL0000150879BR10        BRNC        BRNCCOCO    BRNCCOCO13AG00000500000000001231231200000000000000800000000000000000000000037698Z01620200325X066000000
2MAIL0000150879BR10        BRNC        BRNCCOCO    BRNCCOCO13AG00000600000000001231233000000000000000800000000000000000000000037698Z01620200325X066000000
2MAIL0000150879BR10        BRNC        BRNCCOCO    BRNCCOCO13AG00000700000000001234705700000000000001600000000000000000000000075395Z01620200325X066000000
2MAIL0000150879BR10        BRNC        BRNCCOCO    BRNCCOCO13AG00000800000000001235699400000000000020000000000000000000000000071037Z01620200325X066000000
2MAIL0000150879BR10        BRNC        BRNCCOCO    BRNCCOCO13AG00000900000000001235699700000000000020000000000000000000000000071037Z01620200325X066000000
2MAIL0000150879BR10        BRNC        BRNCCOCO    BRNCCOCO13AG00001000000000001235699800000000000020000000000000000000000000071037Z01620200325X066000000
2MAIL0000150879BR10        BRNC        BRNCCOCO    BRNCCOCO13AG00001100000000001239688800000000000028000000000000000000000000099256Z01620200325X066000000
1MAIL0000150880BR10        BRNC        BRNCCOCO    BRNCCOCO13AG2020032500:00:00OR  010000029894170002989417150880                             2020032520200325Z016CIF202003250000000000051491NN0                                                  0                                        
2MAIL0000150880BR10        BRNC        BRNCCOCO    BRNCCOCO13AG00000100000000001226089600000000000001200000000000000000000000005045Z01620200325X066000000
2MAIL0000150880BR10        BRNC        BRNCCOCO    BRNCCOCO13AG00000200000000001231189200000000000000100000000000000000000000005568Z01620200325X066000000
2MAIL0000150880BR10        BRNC        BRNCCOCO    BRNCCOCO13AG00000300000000001231231200000000000000100000000000000000000000005568Z01620200325X066000000
2MAIL0000150880BR10        BRNC        BRNCCOCO    BRNCCOCO13AG00000400000000001239688300000000000001400000000000000000000000005885Z01620200325X066000000
2MAIL0000150880BR10        BRNC        BRNCCOCO    BRNCCOCO13AG00000500000000001239688600000000000001400000000000000000000000005885Z01620200325X066000000
2MAIL0000150880BR10        BRNC        BRNCCOCO    BRNCCOCO13AG00000600000000001239688800000000000001400000000000000000000000005885Z01620200325X066000000
2MAIL0000150880BR10        BRNC        BRNCCOCO    BRNCCOCO13AG00000700000000001239692000000000000001400000000000000000000000005885Z01620200325X066000000
2MAIL0000150880BR10        BRNC        BRNCCOCO    BRNCCOCO13AG00000800000000001239692100000000000001400000000000000000000000005885Z01620200325X066000000
2MAIL0000150880BR10        BRNC        BRNCCOCO    BRNCCOCO13AG00000900000000001239692300000000000001400000000000000000000000005885Z01620200325X066000000
1MAIL0000150881BR10        BRNC        BRNCCOCO    BRNCCOCO13AG2020032500:00:00OR  010000040515280004051528150881                             2020032520200325Z016CIF202003250000000000063413NN0                                                  0                                        
2MAIL0000150881BR10        BRNC        BRNCCOCO    BRNCCOCO13AG00000100000000001132033100000000000000200000000000000000000000004581Z01620200325X066000000
2MAIL0000150881BR10        BRNC        BRNCCOCO    BRNCCOCO13AG00000200000000001132036700000000000000300000000000000000000000006872Z01620200325X066000000
2MAIL0000150881BR10        BRNC        BRNCCOCO    BRNCCOCO13AG00000300000000001215533700000000000000200000000000000000000000004581Z01620200325X066000000
2MAIL0000150881BR10        BRNC        BRNCCOCO    BRNCCOCO13AG00000400000000001227395500000000000000200000000000000000000000004581Z01620200325X066000000
2MAIL0000150881BR10        BRNC        BRNCCOCO    BRNCCOCO13AG00000500000000001231389600000000000000200000000000000000000000004581Z01620200325X066000000
2MAIL0000150881BR10        BRNC        BRNCCOCO    BRNCCOCO13AG00000600000000001235699400000000000001000000000000000000000000004211Z01620200325X066000000
2MAIL0000150881BR10        BRNC        BRNCCOCO    BRNCCOCO13AG00000700000000001236898000000000000000200000000000000000000000004581Z01620200325X066000000
2MAIL0000150881BR10        BRNC        BRNCCOCO    BRNCCOCO13AG00000800000000001239663300000000000001400000000000000000000000005885Z01620200325X066000000
2MAIL0000150881BR10        BRNC        BRNCCOCO    BRNCCOCO13AG00000900000000001239688500000000000001400000000000000000000000005885Z01620200325X066000000
2MAIL0000150881BR10        BRNC        BRNCCOCO    BRNCCOCO13AG00001000000000001239688600000000000001400000000000000000000000005885Z01620200325X066000000
2MAIL0000150881BR10        BRNC        BRNCCOCO    BRNCCOCO13AG00001100000000001239688800000000000001400000000000000000000000005885Z01620200325X066000000
2MAIL0000150881BR10        BRNC        BRNCCOCO    BRNCCOCO13AG00001200000000001239692000000000000001400000000000000000000000005885Z01620200325X066000000
1MAIL0000150882BR10        BRNC        BRNCCOCO    BRNCCOCO13AG2020032500:00:00OR  010000040094710004009471150882                             2020032520200325Z016CIF202003250000000000004581NN0                                                  0                                        
2MAIL0000150882BR10        BRNC        BRNCCOCO    BRNCCOCO13AG00000100000000001132036700000000000000200000000000000000000000004581Z01620200325X066000000
1MAIL0000150883BR10        BRNC        BRNCCOCO    BRNCCOCO13AG2020032500:00:00OR  010000051409180005140918150883                             2020032520200325Z016CIF202003250000000000094589NN0                                                  0                                        
2MAIL0000150883BR10        BRNC        BRNCCOCO    BRNCCOCO13AG00000100000000001132018300000000000000200000000000000000000000007083Z01620200325X066000000
2MAIL0000150883BR10        BRNC        BRNCCOCO    BRNCCOCO13AG00000200000000001132019800000000000000100000000000000000000000001967Z01620200325X066000000
2MAIL0000150883BR10        BRNC        BRNCCOCO    BRNCCOCO13AG00000300000000001132033100000000000000200000000000000000000000004345Z01620200325X066000000
2MAIL0000150883BR10        BRNC        BRNCCOCO    BRNCCOCO13AG00000400000000001132036700000000000000400000000000000000000000008692Z01620200325X066000000
2MAIL0000150883BR10        BRNC        BRNCCOCO    BRNCCOCO13AG00000500000000001221415400000000000000200000000000000000000000007083Z01620200325X066000000
2MAIL0000150883BR10        BRNC        BRNCCOCO    BRNCCOCO13AG00000600000000001226089600000000000002400000000000000000000000009159Z01620200325X066000000
2MAIL0000150883BR10        BRNC        BRNCCOCO    BRNCCOCO13AG00000700000000001231231200000000000000100000000000000000000000005076Z01620200325X066000000
2MAIL0000150883BR10        BRNC        BRNCCOCO    BRNCCOCO13AG00000800000000001231233000000000000000200000000000000000000000010153Z01620200325X066000000
2MAIL0000150883BR10        BRNC        BRNCCOCO    BRNCCOCO13AG00000900000000001236512800000000000005200000000000000000000000008973Z01620200325X066000000
2MAIL0000150883BR10        BRNC        BRNCCOCO    BRNCCOCO13AG00001000000000001239688300000000000001400000000000000000000000005343Z01620200325X066000000
2MAIL0000150883BR10        BRNC        BRNCCOCO    BRNCCOCO13AG00001100000000001239688600000000000001400000000000000000000000005343Z01620200325X066000000
2MAIL0000150883BR10        BRNC        BRNCCOCO    BRNCCOCO13AG00001200000000001239692000000000000002800000000000000000000000010686Z01620200325X066000000
2MAIL0000150883BR10        BRNC        BRNCCOCO    BRNCCOCO13AG00001300000000001239692100000000000002800000000000000000000000010686Z01620200325X066000000
1MAIL0000150884BR10        BRNC        BRNCCOCO    BRNCCOCO13AG2020032500:00:00OR  010000054606520005460652150884                             2020032520200325Z016CIF202003250000000000144423NN0                                                  0                                        
2MAIL0000150884BR10        BRNC        BRNCCOCO    BRNCCOCO13AG00000100000000001132018300000000000000200000000000000000000000006928Z01620200325X066000000
2MAIL0000150884BR10        BRNC        BRNCCOCO    BRNCCOCO13AG00000200000000001132033100000000000000500000000000000000000000010625Z01620200325X066000000
2MAIL0000150884BR10        BRNC        BRNCCOCO    BRNCCOCO13AG00000300000000001132036700000000000002000000000000000000000000042501Z01620200325X066000000
2MAIL0000150884BR10        BRNC        BRNCCOCO    BRNCCOCO13AG00000400000000001132200400000000000001000000000000000000000000021151Z01620200325X066000000
2MAIL0000150884BR10        BRNC        BRNCCOCO    BRNCCOCO13AG00000500000000001215533700000000000000500000000000000000000000010625Z01620200325X066000000
2MAIL0000150884BR10        BRNC        BRNCCOCO    BRNCCOCO13AG00000600000000001221415400000000000000200000000000000000000000006928Z01620200325X066000000
2MAIL0000150884BR10        BRNC        BRNCCOCO    BRNCCOCO13AG00000700000000001241577400000000000003000000000000000000000000025426Z01620200325X066000000
2MAIL0000150884BR10        BRNC        BRNCCOCO    BRNCCOCO13AG00000800000000001241623700000000000000800000000000000000000000020239Z01620200325X066000000
1MAIL0000150885BR10        BRNC        BRNCCOCO    BRNCCOCO13AG2020032500:00:00OR  010000055082820005508282150885                             2020032520200325Z016CIF202003250000000000041805NN0                                                  0                                        
2MAIL0000150885BR10        BRNC        BRNCCOCO    BRNCCOCO13AG00000100000000001132033100000000000000500000000000000000000000011454Z01620200325X066000000
2MAIL0000150885BR10        BRNC        BRNCCOCO    BRNCCOCO13AG00000200000000001132036700000000000000500000000000000000000000011454Z01620200325X066000000
2MAIL0000150885BR10        BRNC        BRNCCOCO    BRNCCOCO13AG00000300000000001215533700000000000000500000000000000000000000011454Z01620200325X066000000
2MAIL0000150885BR10        BRNC        BRNCCOCO    BRNCCOCO13AG00000400000000001241623700000000000000300000000000000000000000007443Z01620200325X066000000
1MAIL0000150886BR10        BRNC        BRNCCOCO    BRNCCOCO13AG2020032500:00:00OR  010000053268680005326868150886                             2020032520200325Z016CIF202003250000000000017935NN0                                                  0                                        
2MAIL0000150886BR10        BRNC        BRNCCOCO    BRNCCOCO13AG00000100000000001132036700000000000000100000000000000000000000002173Z01620200325X066000000
2MAIL0000150886BR10        BRNC        BRNCCOCO    BRNCCOCO13AG00000200000000001234705800000000000000100000000000000000000000005076Z01620200325X066000000
2MAIL0000150886BR10        BRNC        BRNCCOCO    BRNCCOCO13AG00000300000000001239688500000000000001400000000000000000000000005343Z01620200325X066000000
2MAIL0000150886BR10        BRNC        BRNCCOCO    BRNCCOCO13AG00000400000000001239692100000000000001400000000000000000000000005343Z01620200325X066000000
