1MAIL0000153401BR10        BRNC        BRNCCOCO    BRNCCOCO13AG2020041500:00:00OR  010000055264960005526496153401                             2020041520200415Z016CIF202004150000000000105051NN0                                                  0                                        
2MAIL0000153401BR10        BRNC        BRNCCOCO    BRNCCOCO13AG00000100000000001132004000000000000000500000000000000000000000005438Z01620200415X066000000
2MAIL0000153401BR10        BRNC        BRNCCOCO    BRNCCOCO13AG00000200000000001132004200000000000000500000000000000000000000008261Z01620200415X066000000
2MAIL0000153401BR10        BRNC        BRNCCOCO    BRNCCOCO13AG00000300000000001132019700000000000000100000000000000000000000001681Z01620200415X066000000
2MAIL0000153401BR10        BRNC        BRNCCOCO    BRNCCOCO13AG00000400000000001132019800000000000000100000000000000000000000001681Z01620200415X066000000
2MAIL0000153401BR10        BRNC        BRNCCOCO    BRNCCOCO13AG00000500000000001132019900000000000000100000000000000000000000001681Z01620200415X066000000
2MAIL0000153401BR10        BRNC        BRNCCOCO    BRNCCOCO13AG00000600000000001132020900000000000000100000000000000000000000001681Z01620200415X066000000
2MAIL0000153401BR10        BRNC        BRNCCOCO    BRNCCOCO13AG00000700000000001132033100000000000000200000000000000000000000003712Z01620200415X066000000
2MAIL0000153401BR10        BRNC        BRNCCOCO    BRNCCOCO13AG00000800000000001132034900000000000000500000000000000000000000009947Z01620200415X066000000
2MAIL0000153401BR10        BRNC        BRNCCOCO    BRNCCOCO13AG00000900000000001132036700000000000000300000000000000000000000005568Z01620200415X066000000
2MAIL0000153401BR10        BRNC        BRNCCOCO    BRNCCOCO13AG00001000000000001132200400000000000000100000000000000000000000002105Z01620200415X066000000
2MAIL0000153401BR10        BRNC        BRNCCOCO    BRNCCOCO13AG00001100000000001132400100000000000000100000000000000000000000002565Z01620200415X066000000
2MAIL0000153401BR10        BRNC        BRNCCOCO    BRNCCOCO13AG00001200000000001215533700000000000000100000000000000000000000001856Z01620200415X066000000
2MAIL0000153401BR10        BRNC        BRNCCOCO    BRNCCOCO13AG00001300000000001223975300000000000000100000000000000000000000004509Z01620200415X066000000
2MAIL0000153401BR10        BRNC        BRNCCOCO    BRNCCOCO13AG00001400000000001227735000000000000000100000000000000000000000001681Z01620200415X066000000
2MAIL0000153401BR10        BRNC        BRNCCOCO    BRNCCOCO13AG00001500000000001228274000000000000000100000000000000000000000004509Z01620200415X066000000
2MAIL0000153401BR10        BRNC        BRNCCOCO    BRNCCOCO13AG00001600000000001228512700000000000000100000000000000000000000004509Z01620200415X066000000
2MAIL0000153401BR10        BRNC        BRNCCOCO    BRNCCOCO13AG00001700000000001231189200000000000000100000000000000000000000004509Z01620200415X066000000
2MAIL0000153401BR10        BRNC        BRNCCOCO    BRNCCOCO13AG00001800000000001231231200000000000000100000000000000000000000004509Z01620200415X066000000
2MAIL0000153401BR10        BRNC        BRNCCOCO    BRNCCOCO13AG00001900000000001231233000000000000000100000000000000000000000004509Z01620200415X066000000
2MAIL0000153401BR10        BRNC        BRNCCOCO    BRNCCOCO13AG00002000000000001231389600000000000000100000000000000000000000001856Z01620200415X066000000
2MAIL0000153401BR10        BRNC        BRNCCOCO    BRNCCOCO13AG00002100000000001234705800000000000000100000000000000000000000004509Z01620200415X066000000
2MAIL0000153401BR10        BRNC        BRNCCOCO    BRNCCOCO13AG00002200000000001241623700000000000001000000000000000000000000019266Z01620200415X066000000
2MAIL0000153401BR10        BRNC        BRNCCOCO    BRNCCOCO13AG00002300000000001242374800000000000000100000000000000000000000004509Z01620200415X066000000
1MAIL0000153402BR10        BRNC        BRNCCOCO    BRNCCOCO13AG2020041500:00:00OR  010000058509420005850942153402                             2020041520200415Z016CIF202004150000000000032582NN0                                                  0                                        
2MAIL0000153402BR10        BRNC        BRNCCOCO    BRNCCOCO13AG00000100000000001132033100000000000000100000000000000000000000002291Z01620200415X066000000
2MAIL0000153402BR10        BRNC        BRNCCOCO    BRNCCOCO13AG00000200000000001132036700000000000000100000000000000000000000002291Z01620200415X066000000
2MAIL0000153402BR10        BRNC        BRNCCOCO    BRNCCOCO13AG00000300000000001132200400000000000000200000000000000000000000004460Z01620200415X066000000
2MAIL0000153402BR10        BRNC        BRNCCOCO    BRNCCOCO13AG00000400000000001239663300000000000001400000000000000000000000005885Z01620200415X066000000
2MAIL0000153402BR10        BRNC        BRNCCOCO    BRNCCOCO13AG00000500000000001239688700000000000001400000000000000000000000005885Z01620200415X066000000
2MAIL0000153402BR10        BRNC        BRNCCOCO    BRNCCOCO13AG00000600000000001239688800000000000001400000000000000000000000005885Z01620200415X066000000
2MAIL0000153402BR10        BRNC        BRNCCOCO    BRNCCOCO13AG00000700000000001239692100000000000001400000000000000000000000005885Z01620200415X066000000
1MAIL0000153403BR10        BRNC        BRNCCOCO    BRNCCOCO13AG2020041500:00:00OR  010000053349410005334941153403                             2020041520200415Z016CIF202004150000000000006872NN0                                                  0                                        
2MAIL0000153403BR10        BRNC        BRNCCOCO    BRNCCOCO13AG00000100000000001132036700000000000000300000000000000000000000006872Z01620200415X066000000
1MAIL0000153404BR10        BRNC        BRNCCOCO    BRNCCOCO13AG2020041500:00:00OR  010000055107800005510780153404                             2020041520200415Z016CIF202004150000000000008734NN0                                                  0                                        
2MAIL0000153404BR10        BRNC        BRNCCOCO    BRNCCOCO13AG00000100000000001132019700000000000000100000000000000000000000002076Z01620200415X066000000
2MAIL0000153404BR10        BRNC        BRNCCOCO    BRNCCOCO13AG00000200000000001132019800000000000000100000000000000000000000002076Z01620200415X066000000
2MAIL0000153404BR10        BRNC        BRNCCOCO    BRNCCOCO13AG00000300000000001132033100000000000000100000000000000000000000002291Z01620200415X066000000
2MAIL0000153404BR10        BRNC        BRNCCOCO    BRNCCOCO13AG00000400000000001132036700000000000000100000000000000000000000002291Z01620200415X066000000
1MAIL0000153405BR10        BRNC        BRNCCOCO    BRNCCOCO13AG2020041500:00:00OR  010000044331410004433141153405                             2020041520200415Z016CIF202004150000000000011164NN0                                                  0                                        
2MAIL0000153405BR10        BRNC        BRNCCOCO    BRNCCOCO13AG00000100000000001239688800000000000001400000000000000000000000005582Z01620200415X066000000
2MAIL0000153405BR10        BRNC        BRNCCOCO    BRNCCOCO13AG00000200000000001239692100000000000001400000000000000000000000005582Z01620200415X066000000
1MAIL0000153406BR10        BRNC        BRNCCOCO    BRNCCOCO13AG2020041500:00:00OR  010000034751920003475192153406                             2020041520200415Z016CIF202004150000000000030830NN0                                                  0                                        
2MAIL0000153406BR10        BRNC        BRNCCOCO    BRNCCOCO13AG00000100000000001231231200000000000000100000000000000000000000005280Z01620200415X066000000
2MAIL0000153406BR10        BRNC        BRNCCOCO    BRNCCOCO13AG00000200000000001231233000000000000000100000000000000000000000005280Z01620200415X066000000
2MAIL0000153406BR10        BRNC        BRNCCOCO    BRNCCOCO13AG00000300000000001235699700000000000001000000000000000000000000003995Z01620200415X066000000
2MAIL0000153406BR10        BRNC        BRNCCOCO    BRNCCOCO13AG00000400000000001241577400000000000001500000000000000000000000013683Z01620200415X066000000
2MAIL0000153406BR10        BRNC        BRNCCOCO    BRNCCOCO13AG00000500000000001241623700000000000000100000000000000000000000002592Z01620200415X066000000
1MAIL0000153407BR10        BRNC        BRNCCOCO    BRNCCOCO13AG2020041500:00:00OR  010000039970070003997007153407                             2020041520200415Z016CIF202004150000000000007664NN0                                                  0                                        
2MAIL0000153407BR10        BRNC        BRNCCOCO    BRNCCOCO13AG00000100000000001132019800000000000000100000000000000000000000001719Z01620200415X066000000
2MAIL0000153407BR10        BRNC        BRNCCOCO    BRNCCOCO13AG00000200000000001132036700000000000000100000000000000000000000001886Z01620200415X066000000
2MAIL0000153407BR10        BRNC        BRNCCOCO    BRNCCOCO13AG00000300000000001132200400000000000000100000000000000000000000001823Z01620200415X066000000
2MAIL0000153407BR10        BRNC        BRNCCOCO    BRNCCOCO13AG00000400000000001236512800000000000000800000000000000000000000001378Z01620200415X066000000
2MAIL0000153407BR10        BRNC        BRNCCOCO    BRNCCOCO13AG00000500000000001236515000000000000000500000000000000000000000000858Z01620200415X066000000
1MAIL0000153408BR10        BRNC        BRNCCOCO    BRNCCOCO13AG2020041500:00:00OR  010000029799730002979973153408                             2020041520200415Z016CIF202004150000000000167931NN0                                                  0                                        
2MAIL0000153408BR10        BRNC        BRNCCOCO    BRNCCOCO13AG00000100000000001132019800000000000000300000000000000000000000006225Z01620200415X066000000
2MAIL0000153408BR10        BRNC        BRNCCOCO    BRNCCOCO13AG00000200000000001132019900000000000000300000000000000000000000006225Z01620200415X066000000
2MAIL0000153408BR10        BRNC        BRNCCOCO    BRNCCOCO13AG00000300000000001132020900000000000000300000000000000000000000006225Z01620200415X066000000
2MAIL0000153408BR10        BRNC        BRNCCOCO    BRNCCOCO13AG00000400000000001132033100000000000000400000000000000000000000009163Z01620200415X066000000
2MAIL0000153408BR10        BRNC        BRNCCOCO    BRNCCOCO13AG00000500000000001132036700000000000000800000000000000000000000018327Z01620200415X066000000
2MAIL0000153408BR10        BRNC        BRNCCOCO    BRNCCOCO13AG00000600000000001132400100000000000000300000000000000000000000009499Z01620200415X066000000
2MAIL0000153408BR10        BRNC        BRNCCOCO    BRNCCOCO13AG00000700000000001215533700000000000000400000000000000000000000009163Z01620200415X066000000
2MAIL0000153408BR10        BRNC        BRNCCOCO    BRNCCOCO13AG00000800000000001226089600000000000002400000000000000000000000010087Z01620200415X066000000
2MAIL0000153408BR10        BRNC        BRNCCOCO    BRNCCOCO13AG00000900000000001239663300000000000001400000000000000000000000005885Z01620200415X066000000
2MAIL0000153408BR10        BRNC        BRNCCOCO    BRNCCOCO13AG00001000000000001239688600000000000001400000000000000000000000005885Z01620200415X066000000
2MAIL0000153408BR10        BRNC        BRNCCOCO    BRNCCOCO13AG00001100000000001239688700000000000001400000000000000000000000005885Z01620200415X066000000
2MAIL0000153408BR10        BRNC        BRNCCOCO    BRNCCOCO13AG00001200000000001239688800000000000001400000000000000000000000005885Z01620200415X066000000
2MAIL0000153408BR10        BRNC        BRNCCOCO    BRNCCOCO13AG00001300000000001239692000000000000001400000000000000000000000005885Z01620200415X066000000
2MAIL0000153408BR10        BRNC        BRNCCOCO    BRNCCOCO13AG00001400000000001241577400000000000006000000000000000000000000057707Z01620200415X066000000
2MAIL0000153408BR10        BRNC        BRNCCOCO    BRNCCOCO13AG00001500000000001242626100000000000001400000000000000000000000005885Z01620200415X066000000
1MAIL0000153409BR10        BRNC        BRNCCOCO    BRNCCOCO13AG2020041500:00:00OR  010000034697190003469719153409                             2020041520200415Z016CIF202004150000000000012806NN0                                                  0                                        
2MAIL0000153409BR10        BRNC        BRNCCOCO    BRNCCOCO13AG00000100000000001132036700000000000000100000000000000000000000002173Z01620200415X066000000
2MAIL0000153409BR10        BRNC        BRNCCOCO    BRNCCOCO13AG00000200000000001132200400000000000000400000000000000000000000008460Z01620200415X066000000
2MAIL0000153409BR10        BRNC        BRNCCOCO    BRNCCOCO13AG00000300000000001215533700000000000000100000000000000000000000002173Z01620200415X066000000
1MAIL0000153410BR10        BRNC        BRNCCOCO    BRNCCOCO13AG2020041500:00:00OR  010000038326710003832671153410                             2020041520200415Z016CIF202004150000000000136661NN0                                                  0                                        
2MAIL0000153410BR10        BRNC        BRNCCOCO    BRNCCOCO13AG00000100000000001132019800000000000000100000000000000000000000001967Z01620200415X066000000
2MAIL0000153410BR10        BRNC        BRNCCOCO    BRNCCOCO13AG00000200000000001132200400000000000000400000000000000000000000008460Z01620200415X066000000
2MAIL0000153410BR10        BRNC        BRNCCOCO    BRNCCOCO13AG00000300000000001223975300000000000000100000000000000000000000005076Z01620200415X066000000
2MAIL0000153410BR10        BRNC        BRNCCOCO    BRNCCOCO13AG00000400000000001226089600000000000001200000000000000000000000004580Z01620200415X066000000
2MAIL0000153410BR10        BRNC        BRNCCOCO    BRNCCOCO13AG00000500000000001228274000000000000000100000000000000000000000005076Z01620200415X066000000
2MAIL0000153410BR10        BRNC        BRNCCOCO    BRNCCOCO13AG00000600000000001228512700000000000000100000000000000000000000005076Z01620200415X066000000
2MAIL0000153410BR10        BRNC        BRNCCOCO    BRNCCOCO13AG00000700000000001231189200000000000000100000000000000000000000005076Z01620200415X066000000
2MAIL0000153410BR10        BRNC        BRNCCOCO    BRNCCOCO13AG00000800000000001231231200000000000000100000000000000000000000005076Z01620200415X066000000
2MAIL0000153410BR10        BRNC        BRNCCOCO    BRNCCOCO13AG00000900000000001231233000000000000000100000000000000000000000005076Z01620200415X066000000
2MAIL0000153410BR10        BRNC        BRNCCOCO    BRNCCOCO13AG00001000000000001235699700000000000002000000000000000000000000007648Z01620200415X066000000
2MAIL0000153410BR10        BRNC        BRNCCOCO    BRNCCOCO13AG00001100000000001235699800000000000002000000000000000000000000007648Z01620200415X066000000
2MAIL0000153410BR10        BRNC        BRNCCOCO    BRNCCOCO13AG00001200000000001236512900000000000001000000000000000000000000001818Z01620200415X066000000
2MAIL0000153410BR10        BRNC        BRNCCOCO    BRNCCOCO13AG00001300000000001239663300000000000001400000000000000000000000005343Z01620200415X066000000
2MAIL0000153410BR10        BRNC        BRNCCOCO    BRNCCOCO13AG00001400000000001239688300000000000001400000000000000000000000005343Z01620200415X066000000
2MAIL0000153410BR10        BRNC        BRNCCOCO    BRNCCOCO13AG00001500000000001239688500000000000001400000000000000000000000005343Z01620200415X066000000
2MAIL0000153410BR10        BRNC        BRNCCOCO    BRNCCOCO13AG00001600000000001239688600000000000001400000000000000000000000005343Z01620200415X066000000
2MAIL0000153410BR10        BRNC        BRNCCOCO    BRNCCOCO13AG00001700000000001239688700000000000001400000000000000000000000005343Z01620200415X066000000
2MAIL0000153410BR10        BRNC        BRNCCOCO    BRNCCOCO13AG00001800000000001239688800000000000001400000000000000000000000005343Z01620200415X066000000
2MAIL0000153410BR10        BRNC        BRNCCOCO    BRNCCOCO13AG00001900000000001239692000000000000001400000000000000000000000005343Z01620200415X066000000
2MAIL0000153410BR10        BRNC        BRNCCOCO    BRNCCOCO13AG00002000000000001239692100000000000001400000000000000000000000005343Z01620200415X066000000
2MAIL0000153410BR10        BRNC        BRNCCOCO    BRNCCOCO13AG00002100000000001241577400000000000003000000000000000000000000025997Z01620200415X066000000
2MAIL0000153410BR10        BRNC        BRNCCOCO    BRNCCOCO13AG00002200000000001242626100000000000001400000000000000000000000005343Z01620200415X066000000
1MAIL0000153411BR10        BRNC        BRNCCOCO    BRNCCOCO13AG2020041500:00:00OR  010000056655600005665560153411                             2020041520200415Z016CIF202004150000000000004962NN0                                                  0                                        
2MAIL0000153411BR10        BRNC        BRNCCOCO    BRNCCOCO13AG00000100000000001132036700000000000000100000000000000000000000001654Z01620200415X066000000
2MAIL0000153411BR10        BRNC        BRNCCOCO    BRNCCOCO13AG00000200000000001231389600000000000000100000000000000000000000001654Z01620200415X066000000
2MAIL0000153411BR10        BRNC        BRNCCOCO    BRNCCOCO13AG00000300000000001236898000000000000000100000000000000000000000001654Z01620200415X066000000
1MAIL0000153412BR10        BRNC        BRNCCOCO    BRNCCOCO13AG2020041500:00:00OR  010000060051120006005112153412                             2020041520200415Z016CIF202004150000000000006461NN0                                                  0                                        
2MAIL0000153412BR10        BRNC        BRNCCOCO    BRNCCOCO13AG00000100000000001132033100000000000000100000000000000000000000002173Z01620200415X066000000
2MAIL0000153412BR10        BRNC        BRNCCOCO    BRNCCOCO13AG00000200000000001132036700000000000000100000000000000000000000002173Z01620200415X066000000
2MAIL0000153412BR10        BRNC        BRNCCOCO    BRNCCOCO13AG00000300000000001132200400000000000000100000000000000000000000002115Z01620200415X066000000
1MAIL0000153414BR10        BRNC        BRNCCOCO    BRNCCOCO13AG2020041500:00:00OR  010000028564190002856419153414                             2020041520200415Z016CIF202004150000000000140334NN0                                                  0                                        
2MAIL0000153414BR10        BRNC        BRNCCOCO    BRNCCOCO13AG00000100000000001132018300000000000000100000000000000000000000003541Z01620200415X066000000
2MAIL0000153414BR10        BRNC        BRNCCOCO    BRNCCOCO13AG00000200000000001132019700000000000000100000000000000000000000001967Z01620200415X066000000
2MAIL0000153414BR10        BRNC        BRNCCOCO    BRNCCOCO13AG00000300000000001132019800000000000000100000000000000000000000001967Z01620200415X066000000
2MAIL0000153414BR10        BRNC        BRNCCOCO    BRNCCOCO13AG00000400000000001132019900000000000000100000000000000000000000001967Z01620200415X066000000
2MAIL0000153414BR10        BRNC        BRNCCOCO    BRNCCOCO13AG00000500000000001132020900000000000000100000000000000000000000001967Z01620200415X066000000
2MAIL0000153414BR10        BRNC        BRNCCOCO    BRNCCOCO13AG00000600000000001132033100000000000000500000000000000000000000010863Z01620200415X066000000
2MAIL0000153414BR10        BRNC        BRNCCOCO    BRNCCOCO13AG00000700000000001132036700000000000000500000000000000000000000010863Z01620200415X066000000
2MAIL0000153414BR10        BRNC        BRNCCOCO    BRNCCOCO13AG00000800000000001132200400000000000000400000000000000000000000008460Z01620200415X066000000
2MAIL0000153414BR10        BRNC        BRNCCOCO    BRNCCOCO13AG00000900000000001215533700000000000000500000000000000000000000010863Z01620200415X066000000
2MAIL0000153414BR10        BRNC        BRNCCOCO    BRNCCOCO13AG00001000000000001221415400000000000000100000000000000000000000003541Z01620200415X066000000
2MAIL0000153414BR10        BRNC        BRNCCOCO    BRNCCOCO13AG00001100000000001223975300000000000000100000000000000000000000005076Z01620200415X066000000
2MAIL0000153414BR10        BRNC        BRNCCOCO    BRNCCOCO13AG00001200000000001227395500000000000000300000000000000000000000006518Z01620200415X066000000
2MAIL0000153414BR10        BRNC        BRNCCOCO    BRNCCOCO13AG00001300000000001227735000000000000000100000000000000000000000001967Z01620200415X066000000
2MAIL0000153414BR10        BRNC        BRNCCOCO    BRNCCOCO13AG00001400000000001228512700000000000000100000000000000000000000005076Z01620200415X066000000
2MAIL0000153414BR10        BRNC        BRNCCOCO    BRNCCOCO13AG00001500000000001231189200000000000000100000000000000000000000005076Z01620200415X066000000
2MAIL0000153414BR10        BRNC        BRNCCOCO    BRNCCOCO13AG00001600000000001231231200000000000000100000000000000000000000005076Z01620200415X066000000
2MAIL0000153414BR10        BRNC        BRNCCOCO    BRNCCOCO13AG00001700000000001231233000000000000000100000000000000000000000005076Z01620200415X066000000
2MAIL0000153414BR10        BRNC        BRNCCOCO    BRNCCOCO13AG00001800000000001231389600000000000000300000000000000000000000006518Z01620200415X066000000
2MAIL0000153414BR10        BRNC        BRNCCOCO    BRNCCOCO13AG00001900000000001235699400000000000001000000000000000000000000003825Z01620200415X066000000
2MAIL0000153414BR10        BRNC        BRNCCOCO    BRNCCOCO13AG00002000000000001236512900000000000000500000000000000000000000000909Z01620200415X066000000
2MAIL0000153414BR10        BRNC        BRNCCOCO    BRNCCOCO13AG00002100000000001236515000000000000000500000000000000000000000000909Z01620200415X066000000
2MAIL0000153414BR10        BRNC        BRNCCOCO    BRNCCOCO13AG00002200000000001236898000000000000000300000000000000000000000006518Z01620200415X066000000
2MAIL0000153414BR10        BRNC        BRNCCOCO    BRNCCOCO13AG00002300000000001239663300000000000001400000000000000000000000005343Z01620200415X066000000
2MAIL0000153414BR10        BRNC        BRNCCOCO    BRNCCOCO13AG00002400000000001239688300000000000001400000000000000000000000005343Z01620200415X066000000
2MAIL0000153414BR10        BRNC        BRNCCOCO    BRNCCOCO13AG00002500000000001239688600000000000001400000000000000000000000005343Z01620200415X066000000
2MAIL0000153414BR10        BRNC        BRNCCOCO    BRNCCOCO13AG00002600000000001239688800000000000001400000000000000000000000005343Z01620200415X066000000
2MAIL0000153414BR10        BRNC        BRNCCOCO    BRNCCOCO13AG00002700000000001239692100000000000001400000000000000000000000005343Z01620200415X066000000
2MAIL0000153414BR10        BRNC        BRNCCOCO    BRNCCOCO13AG00002800000000001242374800000000000000100000000000000000000000005076Z01620200415X066000000
1MAIL0000153416BR10        BRNC        BRNCCOCO    BRNCCOCO13AG2020041500:00:00OR  010000048108990004810899153416                             2020041520200415Z016CIF202004150000000000072317NN0                                                  0                                        
2MAIL0000153416BR10        BRNC        BRNCCOCO    BRNCCOCO13AG00000100000000001226089600000000000001200000000000000000000000005045Z01620200415X066000000
2MAIL0000153416BR10        BRNC        BRNCCOCO    BRNCCOCO13AG00000200000000001235699400000000000001000000000000000000000000004211Z01620200415X066000000
2MAIL0000153416BR10        BRNC        BRNCCOCO    BRNCCOCO13AG00000300000000001235699800000000000001000000000000000000000000004211Z01620200415X066000000
2MAIL0000153416BR10        BRNC        BRNCCOCO    BRNCCOCO13AG00000400000000001239663300000000000001400000000000000000000000005885Z01620200415X066000000
2MAIL0000153416BR10        BRNC        BRNCCOCO    BRNCCOCO13AG00000500000000001239688300000000000001400000000000000000000000005885Z01620200415X066000000
2MAIL0000153416BR10        BRNC        BRNCCOCO    BRNCCOCO13AG00000600000000001239688500000000000001400000000000000000000000005885Z01620200415X066000000
2MAIL0000153416BR10        BRNC        BRNCCOCO    BRNCCOCO13AG00000700000000001239688600000000000001400000000000000000000000005885Z01620200415X066000000
2MAIL0000153416BR10        BRNC        BRNCCOCO    BRNCCOCO13AG00000800000000001239688700000000000001400000000000000000000000005885Z01620200415X066000000
2MAIL0000153416BR10        BRNC        BRNCCOCO    BRNCCOCO13AG00000900000000001239688800000000000001400000000000000000000000005885Z01620200415X066000000
2MAIL0000153416BR10        BRNC        BRNCCOCO    BRNCCOCO13AG00001000000000001239692000000000000001400000000000000000000000005885Z01620200415X066000000
2MAIL0000153416BR10        BRNC        BRNCCOCO    BRNCCOCO13AG00001100000000001239692100000000000001400000000000000000000000005885Z01620200415X066000000
2MAIL0000153416BR10        BRNC        BRNCCOCO    BRNCCOCO13AG00001200000000001239692300000000000001400000000000000000000000005885Z01620200415X066000000
2MAIL0000153416BR10        BRNC        BRNCCOCO    BRNCCOCO13AG00001300000000001242754900000000000001400000000000000000000000005885Z01620200415X066000000
