1MAIL0000150407BR10        BRNC        BRNCCOCO    BRNCCOCO13AG2020031900:00:00OR  010000060763610006076361150407                             2020031920200319Z016CIF202003190000000000009368NN0                                                  0                                        
2MAIL0000150407BR10        BRNC        BRNCCOCO    BRNCCOCO13AG00000100000000001239688600000000000001400000000000000000000000004684Z01620200319X066000000
2MAIL0000150407BR10        BRNC        BRNCCOCO    BRNCCOCO13AG00000200000000001239688800000000000001400000000000000000000000004684Z01620200319X066000000
1MAIL0000150408BR10        BRNC        BRNCCOCO    BRNCCOCO13AG2020031900:00:00OR  010000040155190004015519150408                             2020031920200319Z016CIF202003190000000000061603NN0                                                  0                                        
2MAIL0000150408BR10        BRNC        BRNCCOCO    BRNCCOCO13AG00000100000000001132018300000000000000100000000000000000000000003735Z01620200319X066000000
2MAIL0000150408BR10        BRNC        BRNCCOCO    BRNCCOCO13AG00000200000000001132019800000000000000100000000000000000000000002076Z01620200319X066000000
2MAIL0000150408BR10        BRNC        BRNCCOCO    BRNCCOCO13AG00000300000000001132020900000000000000100000000000000000000000002076Z01620200319X066000000
2MAIL0000150408BR10        BRNC        BRNCCOCO    BRNCCOCO13AG00000400000000001132033100000000000000100000000000000000000000002291Z01620200319X066000000
2MAIL0000150408BR10        BRNC        BRNCCOCO    BRNCCOCO13AG00000500000000001132036700000000000000200000000000000000000000004581Z01620200319X066000000
2MAIL0000150408BR10        BRNC        BRNCCOCO    BRNCCOCO13AG00000600000000001215533700000000000000100000000000000000000000002291Z01620200319X066000000
2MAIL0000150408BR10        BRNC        BRNCCOCO    BRNCCOCO13AG00000700000000001221415400000000000000100000000000000000000000003735Z01620200319X066000000
2MAIL0000150408BR10        BRNC        BRNCCOCO    BRNCCOCO13AG00000800000000001231231200000000000000100000000000000000000000005568Z01620200319X066000000
2MAIL0000150408BR10        BRNC        BRNCCOCO    BRNCCOCO13AG00000900000000001235699400000000000001000000000000000000000000004211Z01620200319X066000000
2MAIL0000150408BR10        BRNC        BRNCCOCO    BRNCCOCO13AG00001000000000001235699700000000000001000000000000000000000000004211Z01620200319X066000000
2MAIL0000150408BR10        BRNC        BRNCCOCO    BRNCCOCO13AG00001100000000001235699800000000000001000000000000000000000000004211Z01620200319X066000000
2MAIL0000150408BR10        BRNC        BRNCCOCO    BRNCCOCO13AG00001200000000001239688600000000000001400000000000000000000000005885Z01620200319X066000000
2MAIL0000150408BR10        BRNC        BRNCCOCO    BRNCCOCO13AG00001300000000001239688800000000000001400000000000000000000000005885Z01620200319X066000000
2MAIL0000150408BR10        BRNC        BRNCCOCO    BRNCCOCO13AG00001400000000001239692100000000000001400000000000000000000000005885Z01620200319X066000000
2MAIL0000150408BR10        BRNC        BRNCCOCO    BRNCCOCO13AG00001500000000001241623700000000000000200000000000000000000000004962Z01620200319X066000000
1MAIL0000150409BR10        BRNC        BRNCCOCO    BRNCCOCO13AG2020031900:00:00OR  010000061131540006113154150409                             2020031920200319Z016CIF202003190000000000099537NN0                                                  0                                        
2MAIL0000150409BR10        BRNC        BRNCCOCO    BRNCCOCO13AG00000100000000001132018300000000000000100000000000000000000000003735Z01620200319X066000000
2MAIL0000150409BR10        BRNC        BRNCCOCO    BRNCCOCO13AG00000200000000001132019800000000000000100000000000000000000000002076Z01620200319X066000000
2MAIL0000150409BR10        BRNC        BRNCCOCO    BRNCCOCO13AG00000300000000001132020900000000000000100000000000000000000000002076Z01620200319X066000000
2MAIL0000150409BR10        BRNC        BRNCCOCO    BRNCCOCO13AG00000400000000001132033100000000000000100000000000000000000000002291Z01620200319X066000000
2MAIL0000150409BR10        BRNC        BRNCCOCO    BRNCCOCO13AG00000500000000001132034900000000000000500000000000000000000000012283Z01620200319X066000000
2MAIL0000150409BR10        BRNC        BRNCCOCO    BRNCCOCO13AG00000600000000001132035000000000000000500000000000000000000000013646Z01620200319X066000000
2MAIL0000150409BR10        BRNC        BRNCCOCO    BRNCCOCO13AG00000700000000001132036700000000000000500000000000000000000000011454Z01620200319X066000000
2MAIL0000150409BR10        BRNC        BRNCCOCO    BRNCCOCO13AG00000800000000001132200400000000000000100000000000000000000000002230Z01620200319X066000000
2MAIL0000150409BR10        BRNC        BRNCCOCO    BRNCCOCO13AG00000900000000001215533700000000000000200000000000000000000000004581Z01620200319X066000000
2MAIL0000150409BR10        BRNC        BRNCCOCO    BRNCCOCO13AG00001000000000001221415400000000000000100000000000000000000000003735Z01620200319X066000000
2MAIL0000150409BR10        BRNC        BRNCCOCO    BRNCCOCO13AG00001100000000001226089600000000000001200000000000000000000000005045Z01620200319X066000000
2MAIL0000150409BR10        BRNC        BRNCCOCO    BRNCCOCO13AG00001200000000001231231200000000000000100000000000000000000000005568Z01620200319X066000000
2MAIL0000150409BR10        BRNC        BRNCCOCO    BRNCCOCO13AG00001300000000001231233000000000000000100000000000000000000000005568Z01620200319X066000000
2MAIL0000150409BR10        BRNC        BRNCCOCO    BRNCCOCO13AG00001400000000001231389600000000000000100000000000000000000000002291Z01620200319X066000000
2MAIL0000150409BR10        BRNC        BRNCCOCO    BRNCCOCO13AG00001500000000001235699400000000000001000000000000000000000000004211Z01620200319X066000000
2MAIL0000150409BR10        BRNC        BRNCCOCO    BRNCCOCO13AG00001600000000001235699800000000000001000000000000000000000000004211Z01620200319X066000000
2MAIL0000150409BR10        BRNC        BRNCCOCO    BRNCCOCO13AG00001700000000001236512800000000000000400000000000000000000000000762Z01620200319X066000000
2MAIL0000150409BR10        BRNC        BRNCCOCO    BRNCCOCO13AG00001800000000001236512900000000000000500000000000000000000000001002Z01620200319X066000000
2MAIL0000150409BR10        BRNC        BRNCCOCO    BRNCCOCO13AG00001900000000001236515000000000000000500000000000000000000000001002Z01620200319X066000000
2MAIL0000150409BR10        BRNC        BRNCCOCO    BRNCCOCO13AG00002000000000001239692100000000000001400000000000000000000000005885Z01620200319X066000000
2MAIL0000150409BR10        BRNC        BRNCCOCO    BRNCCOCO13AG00002100000000001242754900000000000001400000000000000000000000005885Z01620200319X066000000
1MAIL0000150410BR10        BRNC        BRNCCOCO    BRNCCOCO13AG2020031900:00:00OR  010000053317800005331780150410                             2020031920200319Z016CIF202003190000000000083616NN0                                                  0                                        
2MAIL0000150410BR10        BRNC        BRNCCOCO    BRNCCOCO13AG00000100000000001132033100000000000000100000000000000000000000002241Z01620200319X066000000
2MAIL0000150410BR10        BRNC        BRNCCOCO    BRNCCOCO13AG00000200000000001132036700000000000000300000000000000000000000006721Z01620200319X066000000
2MAIL0000150410BR10        BRNC        BRNCCOCO    BRNCCOCO13AG00000300000000001215533700000000000000100000000000000000000000002241Z01620200319X066000000
2MAIL0000150410BR10        BRNC        BRNCCOCO    BRNCCOCO13AG00000400000000001226089600000000000001200000000000000000000000004934Z01620200319X066000000
2MAIL0000150410BR10        BRNC        BRNCCOCO    BRNCCOCO13AG00000500000000001231389600000000000000100000000000000000000000002241Z01620200319X066000000
2MAIL0000150410BR10        BRNC        BRNCCOCO    BRNCCOCO13AG00000600000000001235699700000000000001000000000000000000000000004119Z01620200319X066000000
2MAIL0000150410BR10        BRNC        BRNCCOCO    BRNCCOCO13AG00000700000000001235699800000000000001000000000000000000000000004119Z01620200319X066000000
2MAIL0000150410BR10        BRNC        BRNCCOCO    BRNCCOCO13AG00000800000000001239688300000000000001400000000000000000000000005756Z01620200319X066000000
2MAIL0000150410BR10        BRNC        BRNCCOCO    BRNCCOCO13AG00000900000000001239688600000000000001400000000000000000000000005756Z01620200319X066000000
2MAIL0000150410BR10        BRNC        BRNCCOCO    BRNCCOCO13AG00001000000000001239688800000000000001400000000000000000000000005756Z01620200319X066000000
2MAIL0000150410BR10        BRNC        BRNCCOCO    BRNCCOCO13AG00001100000000001239692100000000000001400000000000000000000000005756Z01620200319X066000000
2MAIL0000150410BR10        BRNC        BRNCCOCO    BRNCCOCO13AG00001200000000001239692300000000000001400000000000000000000000005756Z01620200319X066000000
2MAIL0000150410BR10        BRNC        BRNCCOCO    BRNCCOCO13AG00001300000000001241577400000000000003000000000000000000000000028220Z01620200319X066000000
1MAIL0000150411BR10        BRNC        BRNCCOCO    BRNCCOCO13AG2020031900:00:00OR  010000034867860003486786150411                             2020031920200319Z016CIF202003190000000000126984NN0                                                  0                                        
2MAIL0000150411BR10        BRNC        BRNCCOCO    BRNCCOCO13AG00000100000000001132018300000000000000100000000000000000000000003735Z01620200319X066000000
2MAIL0000150411BR10        BRNC        BRNCCOCO    BRNCCOCO13AG00000200000000001132019700000000000000100000000000000000000000002076Z01620200319X066000000
2MAIL0000150411BR10        BRNC        BRNCCOCO    BRNCCOCO13AG00000300000000001132019800000000000000100000000000000000000000002076Z01620200319X066000000
2MAIL0000150411BR10        BRNC        BRNCCOCO    BRNCCOCO13AG00000400000000001132020900000000000000100000000000000000000000002076Z01620200319X066000000
2MAIL0000150411BR10        BRNC        BRNCCOCO    BRNCCOCO13AG00000500000000001132033100000000000000300000000000000000000000006872Z01620200319X066000000
2MAIL0000150411BR10        BRNC        BRNCCOCO    BRNCCOCO13AG00000600000000001132036700000000000000500000000000000000000000011454Z01620200319X066000000
2MAIL0000150411BR10        BRNC        BRNCCOCO    BRNCCOCO13AG00000700000000001132200400000000000000200000000000000000000000004460Z01620200319X066000000
2MAIL0000150411BR10        BRNC        BRNCCOCO    BRNCCOCO13AG00000800000000001215533700000000000000200000000000000000000000004581Z01620200319X066000000
2MAIL0000150411BR10        BRNC        BRNCCOCO    BRNCCOCO13AG00000900000000001221415400000000000000100000000000000000000000003735Z01620200319X066000000
2MAIL0000150411BR10        BRNC        BRNCCOCO    BRNCCOCO13AG00001000000000001226089600000000000001200000000000000000000000005045Z01620200319X066000000
2MAIL0000150411BR10        BRNC        BRNCCOCO    BRNCCOCO13AG00001100000000001227735000000000000000100000000000000000000000002076Z01620200319X066000000
2MAIL0000150411BR10        BRNC        BRNCCOCO    BRNCCOCO13AG00001200000000001231189200000000000000100000000000000000000000005568Z01620200319X066000000
2MAIL0000150411BR10        BRNC        BRNCCOCO    BRNCCOCO13AG00001300000000001231231200000000000000100000000000000000000000005568Z01620200319X066000000
2MAIL0000150411BR10        BRNC        BRNCCOCO    BRNCCOCO13AG00001400000000001231233000000000000000100000000000000000000000005568Z01620200319X066000000
2MAIL0000150411BR10        BRNC        BRNCCOCO    BRNCCOCO13AG00001500000000001235699400000000000001000000000000000000000000004211Z01620200319X066000000
2MAIL0000150411BR10        BRNC        BRNCCOCO    BRNCCOCO13AG00001600000000001235699800000000000001000000000000000000000000004211Z01620200319X066000000
2MAIL0000150411BR10        BRNC        BRNCCOCO    BRNCCOCO13AG00001700000000001236512800000000000000800000000000000000000000001526Z01620200319X066000000
2MAIL0000150411BR10        BRNC        BRNCCOCO    BRNCCOCO13AG00001800000000001236512900000000000001500000000000000000000000003006Z01620200319X066000000
2MAIL0000150411BR10        BRNC        BRNCCOCO    BRNCCOCO13AG00001900000000001236515000000000000001500000000000000000000000003006Z01620200319X066000000
2MAIL0000150411BR10        BRNC        BRNCCOCO    BRNCCOCO13AG00002000000000001239688300000000000001400000000000000000000000005885Z01620200319X066000000
2MAIL0000150411BR10        BRNC        BRNCCOCO    BRNCCOCO13AG00002100000000001240924900000000000000800000000000000000000000001472Z01620200319X066000000
2MAIL0000150411BR10        BRNC        BRNCCOCO    BRNCCOCO13AG00002200000000001241577400000000000003000000000000000000000000028853Z01620200319X066000000
2MAIL0000150411BR10        BRNC        BRNCCOCO    BRNCCOCO13AG00002300000000001241623700000000000000400000000000000000000000009924Z01620200319X066000000
1MAIL0000150412BR10        BRNC        BRNCCOCO    BRNCCOCO13AG2020031900:00:00OR  010000029803560002980356150412                             2020031920200319Z016CIF202003190000000000304814NN0                                                  0                                        
2MAIL0000150412BR10        BRNC        BRNCCOCO    BRNCCOCO13AG00000100000000001132030800000000000000200000000000000000000000006081Z01620200319X066000000
2MAIL0000150412BR10        BRNC        BRNCCOCO    BRNCCOCO13AG00000200000000001132030900000000000000200000000000000000000000006274Z01620200319X066000000
2MAIL0000150412BR10        BRNC        BRNCCOCO    BRNCCOCO13AG00000300000000001132033900000000000000400000000000000000000000013340Z01620200319X066000000
2MAIL0000150412BR10        BRNC        BRNCCOCO    BRNCCOCO13AG00000400000000001132034900000000000000500000000000000000000000010831Z01620200319X066000000
2MAIL0000150412BR10        BRNC        BRNCCOCO    BRNCCOCO13AG00000500000000001132035000000000000000500000000000000000000000012032Z01620200319X066000000
2MAIL0000150412BR10        BRNC        BRNCCOCO    BRNCCOCO13AG00000600000000001132035100000000000000500000000000000000000000011436Z01620200319X066000000
2MAIL0000150412BR10        BRNC        BRNCCOCO    BRNCCOCO13AG00000700000000001132185100000000000000400000000000000000000000011113Z01620200319X066000000
2MAIL0000150412BR10        BRNC        BRNCCOCO    BRNCCOCO13AG00000800000000001132200400000000000000600000000000000000000000012690Z01620200319X066000000
2MAIL0000150412BR10        BRNC        BRNCCOCO    BRNCCOCO13AG00000900000000001226089600000000000004800000000000000000000000017918Z01620200319X066000000
2MAIL0000150412BR10        BRNC        BRNCCOCO    BRNCCOCO13AG00001000000000001235699400000000000001000000000000000000000000003741Z01620200319X066000000
2MAIL0000150412BR10        BRNC        BRNCCOCO    BRNCCOCO13AG00001100000000001235699700000000000001000000000000000000000000003741Z01620200319X066000000
2MAIL0000150412BR10        BRNC        BRNCCOCO    BRNCCOCO13AG00001200000000001235699800000000000002000000000000000000000000007481Z01620200319X066000000
2MAIL0000150412BR10        BRNC        BRNCCOCO    BRNCCOCO13AG00001300000000001239663300000000000002800000000000000000000000010452Z01620200319X066000000
2MAIL0000150412BR10        BRNC        BRNCCOCO    BRNCCOCO13AG00001400000000001239688300000000000005600000000000000000000000020904Z01620200319X066000000
2MAIL0000150412BR10        BRNC        BRNCCOCO    BRNCCOCO13AG00001500000000001239688500000000000002800000000000000000000000010452Z01620200319X066000000
2MAIL0000150412BR10        BRNC        BRNCCOCO    BRNCCOCO13AG00001600000000001239688600000000000005600000000000000000000000020904Z01620200319X066000000
2MAIL0000150412BR10        BRNC        BRNCCOCO    BRNCCOCO13AG00001700000000001239688700000000000005600000000000000000000000020904Z01620200319X066000000
2MAIL0000150412BR10        BRNC        BRNCCOCO    BRNCCOCO13AG00001800000000001239688800000000000005600000000000000000000000020904Z01620200319X066000000
2MAIL0000150412BR10        BRNC        BRNCCOCO    BRNCCOCO13AG00001900000000001239692000000000000002800000000000000000000000010452Z01620200319X066000000
2MAIL0000150412BR10        BRNC        BRNCCOCO    BRNCCOCO13AG00002000000000001239692100000000000005600000000000000000000000020904Z01620200319X066000000
2MAIL0000150412BR10        BRNC        BRNCCOCO    BRNCCOCO13AG00002100000000001239692300000000000002800000000000000000000000010452Z01620200319X066000000
2MAIL0000150412BR10        BRNC        BRNCCOCO    BRNCCOCO13AG00002200000000001242626100000000000002800000000000000000000000010452Z01620200319X066000000
2MAIL0000150412BR10        BRNC        BRNCCOCO    BRNCCOCO13AG00002300000000001242754900000000000005600000000000000000000000020904Z01620200319X066000000
2MAIL0000150412BR10        BRNC        BRNCCOCO    BRNCCOCO13AG00002400000000001242765000000000000002800000000000000000000000010452Z01620200319X066000000
