1MAIL0000151668BR10        BRNC        BRNCCOCO    BRNCCOCO13AG2020033100:00:00OR  010000050806820005080682151668                             2020033120200331Z016CIF202003310000000000999888NN0                                                  0                                        
2MAIL0000151668BR10        BRNC        BRNCCOCO    BRNCCOCO13AG00000100000000001241577400000000000150000000000000000000000000999888Z01620200331X066000000
1MAIL0000151670BR10        BRNC        BRNCCOCO    BRNCCOCO13AG2020033100:00:00OR  010000056742330005674233151670                             2020033120200331Z016CIF202003310000000000047806NN0                                                  0                                        
2MAIL0000151670BR10        BRNC        BRNCCOCO    BRNCCOCO13AG00000100000000001132019700000000000000100000000000000000000000001967Z01620200331X066000000
2MAIL0000151670BR10        BRNC        BRNCCOCO    BRNCCOCO13AG00000200000000001132019800000000000000100000000000000000000000001967Z01620200331X066000000
2MAIL0000151670BR10        BRNC        BRNCCOCO    BRNCCOCO13AG00000300000000001132033100000000000000200000000000000000000000004345Z01620200331X066000000
2MAIL0000151670BR10        BRNC        BRNCCOCO    BRNCCOCO13AG00000400000000001132036700000000000000300000000000000000000000006518Z01620200331X066000000
2MAIL0000151670BR10        BRNC        BRNCCOCO    BRNCCOCO13AG00000500000000001132200400000000000000200000000000000000000000004230Z01620200331X066000000
2MAIL0000151670BR10        BRNC        BRNCCOCO    BRNCCOCO13AG00000600000000001215533700000000000000200000000000000000000000004345Z01620200331X066000000
2MAIL0000151670BR10        BRNC        BRNCCOCO    BRNCCOCO13AG00000700000000001226089600000000000001200000000000000000000000004784Z01620200331X066000000
2MAIL0000151670BR10        BRNC        BRNCCOCO    BRNCCOCO13AG00000800000000001227395500000000000000100000000000000000000000002173Z01620200331X066000000
2MAIL0000151670BR10        BRNC        BRNCCOCO    BRNCCOCO13AG00000900000000001227735000000000000000100000000000000000000000001967Z01620200331X066000000
2MAIL0000151670BR10        BRNC        BRNCCOCO    BRNCCOCO13AG00001000000000001231389600000000000000100000000000000000000000002173Z01620200331X066000000
2MAIL0000151670BR10        BRNC        BRNCCOCO    BRNCCOCO13AG00001100000000001236898000000000000000100000000000000000000000002173Z01620200331X066000000
2MAIL0000151670BR10        BRNC        BRNCCOCO    BRNCCOCO13AG00001200000000001239688600000000000001400000000000000000000000005582Z01620200331X066000000
2MAIL0000151670BR10        BRNC        BRNCCOCO    BRNCCOCO13AG00001300000000001239692100000000000001400000000000000000000000005582Z01620200331X066000000
