1MAIL0000150497BR10        BRNC        BRNCCOCO    BRNCCOCO13AG2020032000:00:00OR  010000058970990005897099150497                             2020032020200320Z016CIF202003200000000000234583NN0                                                  0                                        
2MAIL0000150497BR10        BRNC        BRNCCOCO    BRNCCOCO13AG00000100000000001132018300000000000000200000000000000000000000005736Z01620200320X066000000
2MAIL0000150497BR10        BRNC        BRNCCOCO    BRNCCOCO13AG00000200000000001132019700000000000000100000000000000000000000001599Z01620200320X066000000
2MAIL0000150497BR10        BRNC        BRNCCOCO    BRNCCOCO13AG00000300000000001132019800000000000000100000000000000000000000001599Z01620200320X066000000
2MAIL0000150497BR10        BRNC        BRNCCOCO    BRNCCOCO13AG00000400000000001132019900000000000000100000000000000000000000001599Z01620200320X066000000
2MAIL0000150497BR10        BRNC        BRNCCOCO    BRNCCOCO13AG00000500000000001132020900000000000000100000000000000000000000001599Z01620200320X066000000
2MAIL0000150497BR10        BRNC        BRNCCOCO    BRNCCOCO13AG00000600000000001132033100000000000000500000000000000000000000008826Z01620200320X066000000
2MAIL0000150497BR10        BRNC        BRNCCOCO    BRNCCOCO13AG00000700000000001132036700000000000000500000000000000000000000008826Z01620200320X066000000
2MAIL0000150497BR10        BRNC        BRNCCOCO    BRNCCOCO13AG00000800000000001132400100000000000000100000000000000000000000002439Z01620200320X066000000
2MAIL0000150497BR10        BRNC        BRNCCOCO    BRNCCOCO13AG00000900000000001215533700000000000000500000000000000000000000008826Z01620200320X066000000
2MAIL0000150497BR10        BRNC        BRNCCOCO    BRNCCOCO13AG00001000000000001223975300000000000000100000000000000000000000004736Z01620200320X066000000
2MAIL0000150497BR10        BRNC        BRNCCOCO    BRNCCOCO13AG00001100000000001226089600000000000001200000000000000000000000004271Z01620200320X066000000
2MAIL0000150497BR10        BRNC        BRNCCOCO    BRNCCOCO13AG00001200000000001227395500000000000000500000000000000000000000008826Z01620200320X066000000
2MAIL0000150497BR10        BRNC        BRNCCOCO    BRNCCOCO13AG00001300000000001227735000000000000000100000000000000000000000001599Z01620200320X066000000
2MAIL0000150497BR10        BRNC        BRNCCOCO    BRNCCOCO13AG00001400000000001228274000000000000000100000000000000000000000004736Z01620200320X066000000
2MAIL0000150497BR10        BRNC        BRNCCOCO    BRNCCOCO13AG00001500000000001228512700000000000000100000000000000000000000004736Z01620200320X066000000
2MAIL0000150497BR10        BRNC        BRNCCOCO    BRNCCOCO13AG00001600000000001231189200000000000000100000000000000000000000004736Z01620200320X066000000
2MAIL0000150497BR10        BRNC        BRNCCOCO    BRNCCOCO13AG00001700000000001231231200000000000000100000000000000000000000004736Z01620200320X066000000
2MAIL0000150497BR10        BRNC        BRNCCOCO    BRNCCOCO13AG00001800000000001231233000000000000000100000000000000000000000004736Z01620200320X066000000
2MAIL0000150497BR10        BRNC        BRNCCOCO    BRNCCOCO13AG00001900000000001231389600000000000000500000000000000000000000008826Z01620200320X066000000
2MAIL0000150497BR10        BRNC        BRNCCOCO    BRNCCOCO13AG00002000000000001234705700000000000000100000000000000000000000004736Z01620200320X066000000
2MAIL0000150497BR10        BRNC        BRNCCOCO    BRNCCOCO13AG00002100000000001234705800000000000000100000000000000000000000004736Z01620200320X066000000
2MAIL0000150497BR10        BRNC        BRNCCOCO    BRNCCOCO13AG00002200000000001234705900000000000000100000000000000000000000004736Z01620200320X066000000
2MAIL0000150497BR10        BRNC        BRNCCOCO    BRNCCOCO13AG00002300000000001235699700000000000001000000000000000000000000003567Z01620200320X066000000
2MAIL0000150497BR10        BRNC        BRNCCOCO    BRNCCOCO13AG00002400000000001235699800000000000001000000000000000000000000003567Z01620200320X066000000
2MAIL0000150497BR10        BRNC        BRNCCOCO    BRNCCOCO13AG00002500000000001236515000000000000000500000000000000000000000000869Z01620200320X066000000
2MAIL0000150497BR10        BRNC        BRNCCOCO    BRNCCOCO13AG00002600000000001236898000000000000000500000000000000000000000008826Z01620200320X066000000
2MAIL0000150497BR10        BRNC        BRNCCOCO    BRNCCOCO13AG00002700000000001238083500000000000000100000000000000000000000004736Z01620200320X066000000
2MAIL0000150497BR10        BRNC        BRNCCOCO    BRNCCOCO13AG00002800000000001239373400000000000000100000000000000000000000005929Z01620200320X066000000
2MAIL0000150497BR10        BRNC        BRNCCOCO    BRNCCOCO13AG00002900000000001239373500000000000000100000000000000000000000005929Z01620200320X066000000
2MAIL0000150497BR10        BRNC        BRNCCOCO    BRNCCOCO13AG00003000000000001239373600000000000000100000000000000000000000005929Z01620200320X066000000
2MAIL0000150497BR10        BRNC        BRNCCOCO    BRNCCOCO13AG00003100000000001239373700000000000000100000000000000000000000005929Z01620200320X066000000
2MAIL0000150497BR10        BRNC        BRNCCOCO    BRNCCOCO13AG00003200000000001239688300000000000001400000000000000000000000004982Z01620200320X066000000
2MAIL0000150497BR10        BRNC        BRNCCOCO    BRNCCOCO13AG00003300000000001239688600000000000001400000000000000000000000004982Z01620200320X066000000
2MAIL0000150497BR10        BRNC        BRNCCOCO    BRNCCOCO13AG00003400000000001239688800000000000001400000000000000000000000004982Z01620200320X066000000
2MAIL0000150497BR10        BRNC        BRNCCOCO    BRNCCOCO13AG00003500000000001239692000000000000001400000000000000000000000004982Z01620200320X066000000
2MAIL0000150497BR10        BRNC        BRNCCOCO    BRNCCOCO13AG00003600000000001239692100000000000001400000000000000000000000004982Z01620200320X066000000
2MAIL0000150497BR10        BRNC        BRNCCOCO    BRNCCOCO13AG00003700000000001239692300000000000001400000000000000000000000004982Z01620200320X066000000
2MAIL0000150497BR10        BRNC        BRNCCOCO    BRNCCOCO13AG00003800000000001241577400000000000003000000000000000000000000024274Z01620200320X066000000
2MAIL0000150497BR10        BRNC        BRNCCOCO    BRNCCOCO13AG00003900000000001241623700000000000001000000000000000000000000018223Z01620200320X066000000
2MAIL0000150497BR10        BRNC        BRNCCOCO    BRNCCOCO13AG00004000000000001242374800000000000000100000000000000000000000004736Z01620200320X066000000
2MAIL0000150497BR10        BRNC        BRNCCOCO    BRNCCOCO13AG00004100000000001242626100000000000001400000000000000000000000004982Z01620200320X066000000
1MAIL0000150498BR10        BRNC        BRNCCOCO    BRNCCOCO13AG2020032000:00:00OR  010000028997480002899748150498                             2020032020200320Z016CIF202003200000000000006518NN0                                                  0                                        
2MAIL0000150498BR10        BRNC        BRNCCOCO    BRNCCOCO13AG00000100000000001132036700000000000000300000000000000000000000006518Z01620200320X066000000
