1MAIL0000151260BR10        BRNC        BRNCCOCO    BRNCCOCO13AG2020032700:00:00OR  010000056368500005636850151260                             2020032720200327Z016CIF202003270000000000079798NN0                                                  0                                        
2MAIL0000151260BR10        BRNC        BRNCCOCO    BRNCCOCO13AG00000100000000001132018300000000000000100000000000000000000000003541Z01620200327X066000000
2MAIL0000151260BR10        BRNC        BRNCCOCO    BRNCCOCO13AG00000200000000001132019700000000000000200000000000000000000000003936Z01620200327X066000000
2MAIL0000151260BR10        BRNC        BRNCCOCO    BRNCCOCO13AG00000300000000001132019800000000000000200000000000000000000000003936Z01620200327X066000000
2MAIL0000151260BR10        BRNC        BRNCCOCO    BRNCCOCO13AG00000400000000001132020900000000000000200000000000000000000000003936Z01620200327X066000000
2MAIL0000151260BR10        BRNC        BRNCCOCO    BRNCCOCO13AG00000500000000001132033100000000000000200000000000000000000000004345Z01620200327X066000000
2MAIL0000151260BR10        BRNC        BRNCCOCO    BRNCCOCO13AG00000600000000001132036700000000000000500000000000000000000000010863Z01620200327X066000000
2MAIL0000151260BR10        BRNC        BRNCCOCO    BRNCCOCO13AG00000700000000001132400100000000000000200000000000000000000000006006Z01620200327X066000000
2MAIL0000151260BR10        BRNC        BRNCCOCO    BRNCCOCO13AG00000800000000001215533700000000000000200000000000000000000000004345Z01620200327X066000000
2MAIL0000151260BR10        BRNC        BRNCCOCO    BRNCCOCO13AG00000900000000001221415400000000000000100000000000000000000000003541Z01620200327X066000000
2MAIL0000151260BR10        BRNC        BRNCCOCO    BRNCCOCO13AG00001000000000001231189200000000000000100000000000000000000000005076Z01620200327X066000000
2MAIL0000151260BR10        BRNC        BRNCCOCO    BRNCCOCO13AG00001100000000001231231200000000000000100000000000000000000000005076Z01620200327X066000000
2MAIL0000151260BR10        BRNC        BRNCCOCO    BRNCCOCO13AG00001200000000001235699800000000000001000000000000000000000000003825Z01620200327X066000000
2MAIL0000151260BR10        BRNC        BRNCCOCO    BRNCCOCO13AG00001300000000001239688800000000000002800000000000000000000000010686Z01620200327X066000000
2MAIL0000151260BR10        BRNC        BRNCCOCO    BRNCCOCO13AG00001400000000001239692100000000000001400000000000000000000000005343Z01620200327X066000000
2MAIL0000151260BR10        BRNC        BRNCCOCO    BRNCCOCO13AG00001500000000001239692300000000000001400000000000000000000000005343Z01620200327X066000000
1MAIL0000151261BR10        BRNC        BRNCCOCO    BRNCCOCO13AG2020032700:00:00OR  010000029800110002980011151261                             2020032720200327Z016CIF202003270000000000004345NN0                                                  0                                        
2MAIL0000151261BR10        BRNC        BRNCCOCO    BRNCCOCO13AG00000100000000001132036700000000000000200000000000000000000000004345Z01620200327X066000000
1MAIL0000151262BR10        BRNC        BRNCCOCO    BRNCCOCO13AG2020032700:00:00OR  010000029800110002980011151262                             2020032720200327Z016CIF202003270000000000116833NN0                                                  0                                        
2MAIL0000151262BR10        BRNC        BRNCCOCO    BRNCCOCO13AG00000100000000001132033100000000000000500000000000000000000000010863Z01620200327X066000000
2MAIL0000151262BR10        BRNC        BRNCCOCO    BRNCCOCO13AG00000200000000001132036700000000000001000000000000000000000000021728Z01620200327X066000000
2MAIL0000151262BR10        BRNC        BRNCCOCO    BRNCCOCO13AG00000300000000001132200400000000000001000000000000000000000000021151Z01620200327X066000000
2MAIL0000151262BR10        BRNC        BRNCCOCO    BRNCCOCO13AG00000400000000001215533700000000000000300000000000000000000000006518Z01620200327X066000000
2MAIL0000151262BR10        BRNC        BRNCCOCO    BRNCCOCO13AG00000500000000001226089600000000000001200000000000000000000000004580Z01620200327X066000000
2MAIL0000151262BR10        BRNC        BRNCCOCO    BRNCCOCO13AG00000600000000001241577400000000000006000000000000000000000000051993Z01620200327X066000000
1MAIL0000151263BR10        BRNC        BRNCCOCO    BRNCCOCO13AG2020032700:00:00OR  010000060381510006038151151263                             2020032720200327Z016CIF202003270000000000014200NN0                                                  0                                        
2MAIL0000151263BR10        BRNC        BRNCCOCO    BRNCCOCO13AG00000100000000001132033100000000000000100000000000000000000000002291Z01620200327X066000000
2MAIL0000151263BR10        BRNC        BRNCCOCO    BRNCCOCO13AG00000200000000001132036700000000000000100000000000000000000000002291Z01620200327X066000000
2MAIL0000151263BR10        BRNC        BRNCCOCO    BRNCCOCO13AG00000300000000001241577400000000000001000000000000000000000000009618Z01620200327X066000000
1MAIL0000151264BR10        BRNC        BRNCCOCO    BRNCCOCO13AG2020032700:00:00OR  010000052666970005266697151264                             2020032720200327Z016CIF202003270000000000012758NN0                                                  0                                        
2MAIL0000151264BR10        BRNC        BRNCCOCO    BRNCCOCO13AG00000100000000001132033100000000000000100000000000000000000000002291Z01620200327X066000000
2MAIL0000151264BR10        BRNC        BRNCCOCO    BRNCCOCO13AG00000200000000001132036700000000000000100000000000000000000000002291Z01620200327X066000000
2MAIL0000151264BR10        BRNC        BRNCCOCO    BRNCCOCO13AG00000300000000001215533700000000000000100000000000000000000000002291Z01620200327X066000000
2MAIL0000151264BR10        BRNC        BRNCCOCO    BRNCCOCO13AG00000400000000001239688600000000000001400000000000000000000000005885Z01620200327X066000000
1MAIL0000151265BR10        BRNC        BRNCCOCO    BRNCCOCO13AG2020032700:00:00OR  010000056844510005684451151265                             2020032720200327Z016CIF202003270000000000004581NN0                                                  0                                        
2MAIL0000151265BR10        BRNC        BRNCCOCO    BRNCCOCO13AG00000100000000001132036700000000000000200000000000000000000000004581Z01620200327X066000000
1MAIL0000151266BR10        BRNC        BRNCCOCO    BRNCCOCO13AG2020032700:00:00OR  010000042960450004296045151266                             2020032720200327Z016CIF202003270000000000004581NN0                                                  0                                        
2MAIL0000151266BR10        BRNC        BRNCCOCO    BRNCCOCO13AG00000100000000001132036700000000000000200000000000000000000000004581Z01620200327X066000000
1MAIL0000151267BR10        BRNC        BRNCCOCO    BRNCCOCO13AG2020032700:00:00OR  010000028815430002881543151267                             2020032720200327Z079CIF202003270000000000049752NN0                                                  0                                        
2MAIL0000151267BR10        BRNC        BRNCCOCO    BRNCCOCO13AG00000100000000001132033100000000000000300000000000000000000000006535Z07920200327X066000000
2MAIL0000151267BR10        BRNC        BRNCCOCO    BRNCCOCO13AG00000200000000001132036700000000000000300000000000000000000000006535Z07920200327X066000000
2MAIL0000151267BR10        BRNC        BRNCCOCO    BRNCCOCO13AG00000300000000001236512900000000000001000000000000000000000000001997Z07920200327X066000000
2MAIL0000151267BR10        BRNC        BRNCCOCO    BRNCCOCO13AG00000400000000001236515000000000000001000000000000000000000000001997Z07920200327X066000000
2MAIL0000151267BR10        BRNC        BRNCCOCO    BRNCCOCO13AG00000500000000001239688600000000000001400000000000000000000000005593Z07920200327X066000000
2MAIL0000151267BR10        BRNC        BRNCCOCO    BRNCCOCO13AG00000600000000001239688800000000000001400000000000000000000000005593Z07920200327X066000000
2MAIL0000151267BR10        BRNC        BRNCCOCO    BRNCCOCO13AG00000700000000001241577400000000000001500000000000000000000000013707Z07920200327X066000000
2MAIL0000151267BR10        BRNC        BRNCCOCO    BRNCCOCO13AG00000800000000001241623700000000000000300000000000000000000000007795Z07920200327X066000000
