1MAIL0000152700BR10        BRNC        BRNCCOCO    BRNCCOCO13AG2020040900:00:00OR  010000051533110005153311152700                             2020040920200409Z016CIF202004090000000000012959NN0                                                  0                                        
2MAIL0000152700BR10        BRNC        BRNCCOCO    BRNCCOCO13AG00000100000000001132033100000000000000200000000000000000000000003307Z01620200409X066000000
2MAIL0000152700BR10        BRNC        BRNCCOCO    BRNCCOCO13AG00000200000000001132036700000000000000200000000000000000000000003307Z01620200409X066000000
2MAIL0000152700BR10        BRNC        BRNCCOCO    BRNCCOCO13AG00000300000000001132200400000000000000300000000000000000000000006345Z01620200409X066000000
1MAIL0000152701BR10        BRNC        BRNCCOCO    BRNCCOCO13AG2020040900:00:00OR  010000035962350003596235152701                             2020040920200409Z016CIF202004090000000000336189NN0                                                  0                                        
2MAIL0000152701BR10        BRNC        BRNCCOCO    BRNCCOCO13AG00000100000000001132018300000000000000200000000000000000000000007083Z01620200409X066000000
2MAIL0000152701BR10        BRNC        BRNCCOCO    BRNCCOCO13AG00000200000000001132019700000000000000400000000000000000000000007872Z01620200409X066000000
2MAIL0000152701BR10        BRNC        BRNCCOCO    BRNCCOCO13AG00000300000000001132019800000000000000400000000000000000000000007872Z01620200409X066000000
2MAIL0000152701BR10        BRNC        BRNCCOCO    BRNCCOCO13AG00000400000000001132019900000000000000400000000000000000000000007872Z01620200409X066000000
2MAIL0000152701BR10        BRNC        BRNCCOCO    BRNCCOCO13AG00000500000000001132020900000000000000400000000000000000000000007872Z01620200409X066000000
2MAIL0000152701BR10        BRNC        BRNCCOCO    BRNCCOCO13AG00000600000000001132033100000000000000500000000000000000000000010863Z01620200409X066000000
2MAIL0000152701BR10        BRNC        BRNCCOCO    BRNCCOCO13AG00000700000000001132036700000000000000500000000000000000000000010863Z01620200409X066000000
2MAIL0000152701BR10        BRNC        BRNCCOCO    BRNCCOCO13AG00000800000000001132200400000000000000500000000000000000000000010575Z01620200409X066000000
2MAIL0000152701BR10        BRNC        BRNCCOCO    BRNCCOCO13AG00000900000000001132400100000000000000400000000000000000000000012011Z01620200409X066000000
2MAIL0000152701BR10        BRNC        BRNCCOCO    BRNCCOCO13AG00001000000000001215533700000000000000500000000000000000000000010863Z01620200409X066000000
2MAIL0000152701BR10        BRNC        BRNCCOCO    BRNCCOCO13AG00001100000000001221415400000000000000200000000000000000000000007083Z01620200409X066000000
2MAIL0000152701BR10        BRNC        BRNCCOCO    BRNCCOCO13AG00001200000000001227395500000000000001000000000000000000000000021728Z01620200409X066000000
2MAIL0000152701BR10        BRNC        BRNCCOCO    BRNCCOCO13AG00001300000000001227735000000000000000400000000000000000000000007872Z01620200409X066000000
2MAIL0000152701BR10        BRNC        BRNCCOCO    BRNCCOCO13AG00001400000000001228512700000000000000300000000000000000000000015229Z01620200409X066000000
2MAIL0000152701BR10        BRNC        BRNCCOCO    BRNCCOCO13AG00001500000000001231189200000000000000300000000000000000000000015229Z01620200409X066000000
2MAIL0000152701BR10        BRNC        BRNCCOCO    BRNCCOCO13AG00001600000000001231231200000000000000300000000000000000000000015229Z01620200409X066000000
2MAIL0000152701BR10        BRNC        BRNCCOCO    BRNCCOCO13AG00001700000000001231233000000000000000300000000000000000000000015229Z01620200409X066000000
2MAIL0000152701BR10        BRNC        BRNCCOCO    BRNCCOCO13AG00001800000000001231389600000000000001000000000000000000000000021728Z01620200409X066000000
2MAIL0000152701BR10        BRNC        BRNCCOCO    BRNCCOCO13AG00001900000000001236512800000000000005200000000000000000000000008973Z01620200409X066000000
2MAIL0000152701BR10        BRNC        BRNCCOCO    BRNCCOCO13AG00002000000000001236512900000000000007000000000000000000000000012727Z01620200409X066000000
2MAIL0000152701BR10        BRNC        BRNCCOCO    BRNCCOCO13AG00002100000000001236515000000000000007000000000000000000000000012727Z01620200409X066000000
2MAIL0000152701BR10        BRNC        BRNCCOCO    BRNCCOCO13AG00002200000000001236898000000000000001000000000000000000000000021728Z01620200409X066000000
2MAIL0000152701BR10        BRNC        BRNCCOCO    BRNCCOCO13AG00002300000000001238083500000000000000300000000000000000000000015229Z01620200409X066000000
2MAIL0000152701BR10        BRNC        BRNCCOCO    BRNCCOCO13AG00002400000000001241623700000000000002000000000000000000000000051732Z01620200409X066000000
1MAIL0000152702BR10        BRNC        BRNCCOCO    BRNCCOCO13AG2020040900:00:00OR  010000056923650005692365152702                             2020040920200409Z016CIF202004090000000000123062NN0                                                  0                                        
2MAIL0000152702BR10        BRNC        BRNCCOCO    BRNCCOCO13AG00000100000000001132019700000000000000100000000000000000000000001967Z01620200409X066000000
2MAIL0000152702BR10        BRNC        BRNCCOCO    BRNCCOCO13AG00000200000000001132019800000000000000100000000000000000000000001967Z01620200409X066000000
2MAIL0000152702BR10        BRNC        BRNCCOCO    BRNCCOCO13AG00000300000000001132019900000000000000100000000000000000000000001967Z01620200409X066000000
2MAIL0000152702BR10        BRNC        BRNCCOCO    BRNCCOCO13AG00000400000000001132020900000000000000100000000000000000000000001967Z01620200409X066000000
2MAIL0000152702BR10        BRNC        BRNCCOCO    BRNCCOCO13AG00000500000000001132036700000000000001000000000000000000000000021728Z01620200409X066000000
2MAIL0000152702BR10        BRNC        BRNCCOCO    BRNCCOCO13AG00000600000000001132200400000000000000500000000000000000000000010575Z01620200409X066000000
2MAIL0000152702BR10        BRNC        BRNCCOCO    BRNCCOCO13AG00000700000000001215533700000000000000500000000000000000000000010863Z01620200409X066000000
2MAIL0000152702BR10        BRNC        BRNCCOCO    BRNCCOCO13AG00000800000000001227395500000000000000500000000000000000000000010863Z01620200409X066000000
2MAIL0000152702BR10        BRNC        BRNCCOCO    BRNCCOCO13AG00000900000000001227735000000000000000100000000000000000000000001967Z01620200409X066000000
2MAIL0000152702BR10        BRNC        BRNCCOCO    BRNCCOCO13AG00001000000000001231389600000000000000500000000000000000000000010863Z01620200409X066000000
2MAIL0000152702BR10        BRNC        BRNCCOCO    BRNCCOCO13AG00001100000000001235699400000000000001000000000000000000000000003825Z01620200409X066000000
2MAIL0000152702BR10        BRNC        BRNCCOCO    BRNCCOCO13AG00001200000000001235699700000000000001000000000000000000000000003825Z01620200409X066000000
2MAIL0000152702BR10        BRNC        BRNCCOCO    BRNCCOCO13AG00001300000000001235699800000000000001000000000000000000000000003825Z01620200409X066000000
2MAIL0000152702BR10        BRNC        BRNCCOCO    BRNCCOCO13AG00001400000000001236898000000000000000500000000000000000000000010863Z01620200409X066000000
2MAIL0000152702BR10        BRNC        BRNCCOCO    BRNCCOCO13AG00001500000000001241577400000000000003000000000000000000000000025997Z01620200409X066000000
