1MAIL0000150890BR10        BRNC        BRNCCOCO    BRNCCOCO13AG2020032500:00:00OR  010000054317420005431742150890                             2020032520200325Z016CIF202003250000000000102379NN0                                                  0                                        
2MAIL0000150890BR10        BRNC        BRNCCOCO    BRNCCOCO13AG00000100000000001132018300000000000000100000000000000000000000003735Z01620200325X066000000
2MAIL0000150890BR10        BRNC        BRNCCOCO    BRNCCOCO13AG00000200000000001132019700000000000000100000000000000000000000002076Z01620200325X066000000
2MAIL0000150890BR10        BRNC        BRNCCOCO    BRNCCOCO13AG00000300000000001132019800000000000000100000000000000000000000002076Z01620200325X066000000
2MAIL0000150890BR10        BRNC        BRNCCOCO    BRNCCOCO13AG00000400000000001132019900000000000000100000000000000000000000002076Z01620200325X066000000
2MAIL0000150890BR10        BRNC        BRNCCOCO    BRNCCOCO13AG00000500000000001132033100000000000000300000000000000000000000006872Z01620200325X066000000
2MAIL0000150890BR10        BRNC        BRNCCOCO    BRNCCOCO13AG00000600000000001132036700000000000000300000000000000000000000006872Z01620200325X066000000
2MAIL0000150890BR10        BRNC        BRNCCOCO    BRNCCOCO13AG00000700000000001132200400000000000000300000000000000000000000006690Z01620200325X066000000
2MAIL0000150890BR10        BRNC        BRNCCOCO    BRNCCOCO13AG00000800000000001221415400000000000000100000000000000000000000003735Z01620200325X066000000
2MAIL0000150890BR10        BRNC        BRNCCOCO    BRNCCOCO13AG00000900000000001226089600000000000001200000000000000000000000005045Z01620200325X066000000
2MAIL0000150890BR10        BRNC        BRNCCOCO    BRNCCOCO13AG00001000000000001228512700000000000000100000000000000000000000005568Z01620200325X066000000
2MAIL0000150890BR10        BRNC        BRNCCOCO    BRNCCOCO13AG00001100000000001231189200000000000000100000000000000000000000005568Z01620200325X066000000
2MAIL0000150890BR10        BRNC        BRNCCOCO    BRNCCOCO13AG00001200000000001231231200000000000000100000000000000000000000005568Z01620200325X066000000
2MAIL0000150890BR10        BRNC        BRNCCOCO    BRNCCOCO13AG00001300000000001235699700000000000001000000000000000000000000004211Z01620200325X066000000
2MAIL0000150890BR10        BRNC        BRNCCOCO    BRNCCOCO13AG00001400000000001235699800000000000001000000000000000000000000004211Z01620200325X066000000
2MAIL0000150890BR10        BRNC        BRNCCOCO    BRNCCOCO13AG00001500000000001236512800000000000000800000000000000000000000001526Z01620200325X066000000
2MAIL0000150890BR10        BRNC        BRNCCOCO    BRNCCOCO13AG00001600000000001236512900000000000001000000000000000000000000002004Z01620200325X066000000
2MAIL0000150890BR10        BRNC        BRNCCOCO    BRNCCOCO13AG00001700000000001236515000000000000001000000000000000000000000002004Z01620200325X066000000
2MAIL0000150890BR10        BRNC        BRNCCOCO    BRNCCOCO13AG00001800000000001239688600000000000001400000000000000000000000005885Z01620200325X066000000
2MAIL0000150890BR10        BRNC        BRNCCOCO    BRNCCOCO13AG00001900000000001239688800000000000001400000000000000000000000005885Z01620200325X066000000
2MAIL0000150890BR10        BRNC        BRNCCOCO    BRNCCOCO13AG00002000000000001241623700000000000000600000000000000000000000014887Z01620200325X066000000
2MAIL0000150890BR10        BRNC        BRNCCOCO    BRNCCOCO13AG00002100000000001242626100000000000001400000000000000000000000005885Z01620200325X066000000
1MAIL0000150891BR10        BRNC        BRNCCOCO    BRNCCOCO13AG2020032500:00:00OR  010000059886610005988661150891                             2020032520200325Z016CIF202003250000000000006811NN0                                                  0                                        
2MAIL0000150891BR10        BRNC        BRNCCOCO    BRNCCOCO13AG00000100000000001132036700000000000000200000000000000000000000004581Z01620200325X066000000
2MAIL0000150891BR10        BRNC        BRNCCOCO    BRNCCOCO13AG00000200000000001132200400000000000000100000000000000000000000002230Z01620200325X066000000
1MAIL0000150892BR10        BRNC        BRNCCOCO    BRNCCOCO13AG2020032500:00:00OR  010000038855890003885589150892                             2020032520200325Z016CIF202003250000000000161757NN0                                                  0                                        
2MAIL0000150892BR10        BRNC        BRNCCOCO    BRNCCOCO13AG00000100000000001132004000000000000001000000000000000000000000009978Z01620200325X066000000
2MAIL0000150892BR10        BRNC        BRNCCOCO    BRNCCOCO13AG00000200000000001132004200000000000001000000000000000000000000014065Z01620200325X066000000
2MAIL0000150892BR10        BRNC        BRNCCOCO    BRNCCOCO13AG00000300000000001132018300000000000000100000000000000000000000003463Z01620200325X066000000
2MAIL0000150892BR10        BRNC        BRNCCOCO    BRNCCOCO13AG00000400000000001132200400000000000000500000000000000000000000010575Z01620200325X066000000
2MAIL0000150892BR10        BRNC        BRNCCOCO    BRNCCOCO13AG00000500000000001221415400000000000000100000000000000000000000003463Z01620200325X066000000
2MAIL0000150892BR10        BRNC        BRNCCOCO    BRNCCOCO13AG00000600000000001235699700000000000001000000000000000000000000003741Z01620200325X066000000
2MAIL0000150892BR10        BRNC        BRNCCOCO    BRNCCOCO13AG00000700000000001235699800000000000001000000000000000000000000003741Z01620200325X066000000
2MAIL0000150892BR10        BRNC        BRNCCOCO    BRNCCOCO13AG00000800000000001239688300000000000001400000000000000000000000005226Z01620200325X066000000
2MAIL0000150892BR10        BRNC        BRNCCOCO    BRNCCOCO13AG00000900000000001239688600000000000001400000000000000000000000005226Z01620200325X066000000
2MAIL0000150892BR10        BRNC        BRNCCOCO    BRNCCOCO13AG00001000000000001239688700000000000001400000000000000000000000005226Z01620200325X066000000
2MAIL0000150892BR10        BRNC        BRNCCOCO    BRNCCOCO13AG00001100000000001239688800000000000001400000000000000000000000005226Z01620200325X066000000
2MAIL0000150892BR10        BRNC        BRNCCOCO    BRNCCOCO13AG00001200000000001239692000000000000001400000000000000000000000005226Z01620200325X066000000
2MAIL0000150892BR10        BRNC        BRNCCOCO    BRNCCOCO13AG00001300000000001239692100000000000001400000000000000000000000005226Z01620200325X066000000
2MAIL0000150892BR10        BRNC        BRNCCOCO    BRNCCOCO13AG00001400000000001239692300000000000001400000000000000000000000005226Z01620200325X066000000
2MAIL0000150892BR10        BRNC        BRNCCOCO    BRNCCOCO13AG00001500000000001241577400000000000006000000000000000000000000050851Z01620200325X066000000
2MAIL0000150892BR10        BRNC        BRNCCOCO    BRNCCOCO13AG00001600000000001241623700000000000001000000000000000000000000025298Z01620200325X066000000
1MAIL0000150905BR10        BRNC        BRNCCOCO    BRNCCOCO13AG2020032500:00:00OR  010000058532200005853220150905                             2020032520200325Z016CIF202003250000000000040046NN0                                                  0                                        
2MAIL0000150905BR10        BRNC        BRNCCOCO    BRNCCOCO13AG00000100000000001132018300000000000000100000000000000000000000002862Z01620200325X066000000
2MAIL0000150905BR10        BRNC        BRNCCOCO    BRNCCOCO13AG00000200000000001132019700000000000000100000000000000000000000001593Z01620200325X066000000
2MAIL0000150905BR10        BRNC        BRNCCOCO    BRNCCOCO13AG00000300000000001132033100000000000000200000000000000000000000003518Z01620200325X066000000
2MAIL0000150905BR10        BRNC        BRNCCOCO    BRNCCOCO13AG00000400000000001132036700000000000000200000000000000000000000003518Z01620200325X066000000
2MAIL0000150905BR10        BRNC        BRNCCOCO    BRNCCOCO13AG00000500000000001215533700000000000000200000000000000000000000003518Z01620200325X066000000
2MAIL0000150905BR10        BRNC        BRNCCOCO    BRNCCOCO13AG00000600000000001221415400000000000000100000000000000000000000002862Z01620200325X066000000
2MAIL0000150905BR10        BRNC        BRNCCOCO    BRNCCOCO13AG00000700000000001236512900000000000003500000000000000000000000005041Z01620200325X066000000
2MAIL0000150905BR10        BRNC        BRNCCOCO    BRNCCOCO13AG00000800000000001236515000000000000003500000000000000000000000005041Z01620200325X066000000
2MAIL0000150905BR10        BRNC        BRNCCOCO    BRNCCOCO13AG00000900000000001241577400000000000001500000000000000000000000012093Z01620200325X066000000
1MAIL0000150906BR10        BRNC        BRNCCOCO    BRNCCOCO13AG2020032500:00:00OR  010000058228130005822813150906                             2020032520200325Z016CIF202003250000000000021314NN0                                                  0                                        
2MAIL0000150906BR10        BRNC        BRNCCOCO    BRNCCOCO13AG00000100000000001132030800000000000000200000000000000000000000006540Z01620200325X066000000
2MAIL0000150906BR10        BRNC        BRNCCOCO    BRNCCOCO13AG00000200000000001214448800000000000000100000000000000000000000005068Z01620200325X066000000
2MAIL0000150906BR10        BRNC        BRNCCOCO    BRNCCOCO13AG00000300000000001214448900000000000000200000000000000000000000009706Z01620200325X066000000
1MAIL0000150907BR10        BRNC        BRNCCOCO    BRNCCOCO13AG2020032500:00:00OR  010000049672410004967241150907                             2020032520200325Z016CIF202003250000000000024368NN0                                                  0                                        
2MAIL0000150907BR10        BRNC        BRNCCOCO    BRNCCOCO13AG00000100000000001132033100000000000000100000000000000000000000002291Z01620200325X066000000
2MAIL0000150907BR10        BRNC        BRNCCOCO    BRNCCOCO13AG00000200000000001132036700000000000000200000000000000000000000004581Z01620200325X066000000
2MAIL0000150907BR10        BRNC        BRNCCOCO    BRNCCOCO13AG00000300000000001132200400000000000000100000000000000000000000002230Z01620200325X066000000
2MAIL0000150907BR10        BRNC        BRNCCOCO    BRNCCOCO13AG00000400000000001228274000000000000000100000000000000000000000005568Z01620200325X066000000
2MAIL0000150907BR10        BRNC        BRNCCOCO    BRNCCOCO13AG00000500000000001236512800000000000002000000000000000000000000003813Z01620200325X066000000
2MAIL0000150907BR10        BRNC        BRNCCOCO    BRNCCOCO13AG00000600000000001239688800000000000001400000000000000000000000005885Z01620200325X066000000
1MAIL0000150908BR10        BRNC        BRNCCOCO    BRNCCOCO13AG2020032500:00:00OR  010000055708110005570811150908                             2020032520200325Z016CIF202003250000000000024845NN0                                                  0                                        
2MAIL0000150908BR10        BRNC        BRNCCOCO    BRNCCOCO13AG00000100000000001132033100000000000000200000000000000000000000004345Z01620200325X066000000
2MAIL0000150908BR10        BRNC        BRNCCOCO    BRNCCOCO13AG00000200000000001132036700000000000000300000000000000000000000006518Z01620200325X066000000
2MAIL0000150908BR10        BRNC        BRNCCOCO    BRNCCOCO13AG00000300000000001236515000000000000007000000000000000000000000013982Z01620200325X066000000
1MAIL0000150909BR10        BRNC        BRNCCOCO    BRNCCOCO13AG2020032500:00:00OR  010000061506830006150683150909                             2020032520200325Z016CIF202003250000000000008501NN0                                                  0                                        
2MAIL0000150909BR10        BRNC        BRNCCOCO    BRNCCOCO13AG00000100000000001132036700000000000000400000000000000000000000008501Z01620200325X066000000
1MAIL0000150910BR10        BRNC        BRNCCOCO    BRNCCOCO13AG2020032500:00:00OR  010000058971540005897154150910                             2020032520200325Z016CIF202003250000000000014342NN0                                                  0                                        
2MAIL0000150910BR10        BRNC        BRNCCOCO    BRNCCOCO13AG00000100000000001132018300000000000000100000000000000000000000003735Z01620200325X066000000
2MAIL0000150910BR10        BRNC        BRNCCOCO    BRNCCOCO13AG00000200000000001132036700000000000000300000000000000000000000006872Z01620200325X066000000
2MAIL0000150910BR10        BRNC        BRNCCOCO    BRNCCOCO13AG00000300000000001221415400000000000000100000000000000000000000003735Z01620200325X066000000
1MAIL0000150911BR10        BRNC        BRNCCOCO    BRNCCOCO13AG2020032500:00:00OR  010000050106740005010674150911                             2020032520200325Z016CIF202003250000000000052566NN0                                                  0                                        
2MAIL0000150911BR10        BRNC        BRNCCOCO    BRNCCOCO13AG00000100000000001132033100000000000000300000000000000000000000006872Z01620200325X066000000
2MAIL0000150911BR10        BRNC        BRNCCOCO    BRNCCOCO13AG00000200000000001132036700000000000000600000000000000000000000013746Z01620200325X066000000
2MAIL0000150911BR10        BRNC        BRNCCOCO    BRNCCOCO13AG00000300000000001132200400000000000000200000000000000000000000004460Z01620200325X066000000
2MAIL0000150911BR10        BRNC        BRNCCOCO    BRNCCOCO13AG00000400000000001215533700000000000000300000000000000000000000006872Z01620200325X066000000
2MAIL0000150911BR10        BRNC        BRNCCOCO    BRNCCOCO13AG00000500000000001227395500000000000000300000000000000000000000006872Z01620200325X066000000
2MAIL0000150911BR10        BRNC        BRNCCOCO    BRNCCOCO13AG00000600000000001231389600000000000000300000000000000000000000006872Z01620200325X066000000
2MAIL0000150911BR10        BRNC        BRNCCOCO    BRNCCOCO13AG00000700000000001236898000000000000000300000000000000000000000006872Z01620200325X066000000
1MAIL0000150912BR10        BRNC        BRNCCOCO    BRNCCOCO13AG2020032500:00:00OR  010000029799730002979973150912                             2020032520200325Z016CIF202003250000000000188846NN0                                                  0                                        
2MAIL0000150912BR10        BRNC        BRNCCOCO    BRNCCOCO13AG00000100000000001132019700000000000000300000000000000000000000006225Z01620200325X066000000
2MAIL0000150912BR10        BRNC        BRNCCOCO    BRNCCOCO13AG00000200000000001132019800000000000000300000000000000000000000006225Z01620200325X066000000
2MAIL0000150912BR10        BRNC        BRNCCOCO    BRNCCOCO13AG00000300000000001132019900000000000000300000000000000000000000006225Z01620200325X066000000
2MAIL0000150912BR10        BRNC        BRNCCOCO    BRNCCOCO13AG00000400000000001132020900000000000000300000000000000000000000006225Z01620200325X066000000
2MAIL0000150912BR10        BRNC        BRNCCOCO    BRNCCOCO13AG00000500000000001132033100000000000000400000000000000000000000009163Z01620200325X066000000
2MAIL0000150912BR10        BRNC        BRNCCOCO    BRNCCOCO13AG00000600000000001132036700000000000000400000000000000000000000009163Z01620200325X066000000
2MAIL0000150912BR10        BRNC        BRNCCOCO    BRNCCOCO13AG00000700000000001132200400000000000000600000000000000000000000013380Z01620200325X066000000
2MAIL0000150912BR10        BRNC        BRNCCOCO    BRNCCOCO13AG00000800000000001215533700000000000000400000000000000000000000009163Z01620200325X066000000
2MAIL0000150912BR10        BRNC        BRNCCOCO    BRNCCOCO13AG00000900000000001239663300000000000001400000000000000000000000005885Z01620200325X066000000
2MAIL0000150912BR10        BRNC        BRNCCOCO    BRNCCOCO13AG00001000000000001239688300000000000001400000000000000000000000005885Z01620200325X066000000
2MAIL0000150912BR10        BRNC        BRNCCOCO    BRNCCOCO13AG00001100000000001239688500000000000001400000000000000000000000005885Z01620200325X066000000
2MAIL0000150912BR10        BRNC        BRNCCOCO    BRNCCOCO13AG00001200000000001239688600000000000001400000000000000000000000005885Z01620200325X066000000
2MAIL0000150912BR10        BRNC        BRNCCOCO    BRNCCOCO13AG00001300000000001239688800000000000001400000000000000000000000005885Z01620200325X066000000
2MAIL0000150912BR10        BRNC        BRNCCOCO    BRNCCOCO13AG00001400000000001239692000000000000001400000000000000000000000005885Z01620200325X066000000
2MAIL0000150912BR10        BRNC        BRNCCOCO    BRNCCOCO13AG00001500000000001239692100000000000001400000000000000000000000005885Z01620200325X066000000
2MAIL0000150912BR10        BRNC        BRNCCOCO    BRNCCOCO13AG00001600000000001239692300000000000001400000000000000000000000005885Z01620200325X066000000
2MAIL0000150912BR10        BRNC        BRNCCOCO    BRNCCOCO13AG00001700000000001241577400000000000006000000000000000000000000057707Z01620200325X066000000
2MAIL0000150912BR10        BRNC        BRNCCOCO    BRNCCOCO13AG00001800000000001241623700000000000000500000000000000000000000012405Z01620200325X066000000
2MAIL0000150912BR10        BRNC        BRNCCOCO    BRNCCOCO13AG00001900000000001242626100000000000001400000000000000000000000005885Z01620200325X066000000
1MAIL0000150913BR10        BRNC        BRNCCOCO    BRNCCOCO13AG2020032500:00:00OR  010000051214550005121455150913                             2020032520200325Z016CIF202003250000000000162099NN0                                                  0                                        
2MAIL0000150913BR10        BRNC        BRNCCOCO    BRNCCOCO13AG00000100000000001132033100000000000000100000000000000000000000002291Z01620200325X066000000
2MAIL0000150913BR10        BRNC        BRNCCOCO    BRNCCOCO13AG00000200000000001132036700000000000000300000000000000000000000006872Z01620200325X066000000
2MAIL0000150913BR10        BRNC        BRNCCOCO    BRNCCOCO13AG00000300000000001132400100000000000000200000000000000000000000006332Z01620200325X066000000
2MAIL0000150913BR10        BRNC        BRNCCOCO    BRNCCOCO13AG00000400000000001215533700000000000000100000000000000000000000002291Z01620200325X066000000
2MAIL0000150913BR10        BRNC        BRNCCOCO    BRNCCOCO13AG00000500000000001227395500000000000000100000000000000000000000002291Z01620200325X066000000
2MAIL0000150913BR10        BRNC        BRNCCOCO    BRNCCOCO13AG00000600000000001231389600000000000000100000000000000000000000002291Z01620200325X066000000
2MAIL0000150913BR10        BRNC        BRNCCOCO    BRNCCOCO13AG00000700000000001235699400000000000001000000000000000000000000004211Z01620200325X066000000
2MAIL0000150913BR10        BRNC        BRNCCOCO    BRNCCOCO13AG00000800000000001235699700000000000001000000000000000000000000004211Z01620200325X066000000
2MAIL0000150913BR10        BRNC        BRNCCOCO    BRNCCOCO13AG00000900000000001235699800000000000002000000000000000000000000008422Z01620200325X066000000
2MAIL0000150913BR10        BRNC        BRNCCOCO    BRNCCOCO13AG00001000000000001236898000000000000000100000000000000000000000002291Z01620200325X066000000
2MAIL0000150913BR10        BRNC        BRNCCOCO    BRNCCOCO13AG00001100000000001239663300000000000001400000000000000000000000005885Z01620200325X066000000
2MAIL0000150913BR10        BRNC        BRNCCOCO    BRNCCOCO13AG00001200000000001239688600000000000002800000000000000000000000011770Z01620200325X066000000
2MAIL0000150913BR10        BRNC        BRNCCOCO    BRNCCOCO13AG00001300000000001239688700000000000001400000000000000000000000005885Z01620200325X066000000
2MAIL0000150913BR10        BRNC        BRNCCOCO    BRNCCOCO13AG00001400000000001239688800000000000002800000000000000000000000011770Z01620200325X066000000
2MAIL0000150913BR10        BRNC        BRNCCOCO    BRNCCOCO13AG00001500000000001239692000000000000001400000000000000000000000005885Z01620200325X066000000
2MAIL0000150913BR10        BRNC        BRNCCOCO    BRNCCOCO13AG00001600000000001239692100000000000001400000000000000000000000005885Z01620200325X066000000
2MAIL0000150913BR10        BRNC        BRNCCOCO    BRNCCOCO13AG00001700000000001239692300000000000001400000000000000000000000005885Z01620200325X066000000
2MAIL0000150913BR10        BRNC        BRNCCOCO    BRNCCOCO13AG00001800000000001241577400000000000006000000000000000000000000057707Z01620200325X066000000
2MAIL0000150913BR10        BRNC        BRNCCOCO    BRNCCOCO13AG00001900000000001241623700000000000000400000000000000000000000009924Z01620200325X066000000
1MAIL0000150914BR10        BRNC        BRNCCOCO    BRNCCOCO13AG2020032500:00:00OR  010000036479400003647940150914                             2020032520200325Z016CIF202003250000000000022236NN0                                                  0                                        
2MAIL0000150914BR10        BRNC        BRNCCOCO    BRNCCOCO13AG00000100000000001132036700000000000000200000000000000000000000004581Z01620200325X066000000
2MAIL0000150914BR10        BRNC        BRNCCOCO    BRNCCOCO13AG00000200000000001239688800000000000001400000000000000000000000005885Z01620200325X066000000
2MAIL0000150914BR10        BRNC        BRNCCOCO    BRNCCOCO13AG00000300000000001239692000000000000001400000000000000000000000005885Z01620200325X066000000
2MAIL0000150914BR10        BRNC        BRNCCOCO    BRNCCOCO13AG00000400000000001239692100000000000001400000000000000000000000005885Z01620200325X066000000
1MAIL0000150915BR10        BRNC        BRNCCOCO    BRNCCOCO13AG2020032500:00:00OR  010000052982200005298220150915                             2020032520200325Z016CIF202003250000000000106463NN0                                                  0                                        
2MAIL0000150915BR10        BRNC        BRNCCOCO    BRNCCOCO13AG00000100000000001132019700000000000000100000000000000000000000002076Z01620200325X066000000
2MAIL0000150915BR10        BRNC        BRNCCOCO    BRNCCOCO13AG00000200000000001132019800000000000000100000000000000000000000002076Z01620200325X066000000
2MAIL0000150915BR10        BRNC        BRNCCOCO    BRNCCOCO13AG00000300000000001132019900000000000000100000000000000000000000002076Z01620200325X066000000
2MAIL0000150915BR10        BRNC        BRNCCOCO    BRNCCOCO13AG00000400000000001132020900000000000000100000000000000000000000002076Z01620200325X066000000
2MAIL0000150915BR10        BRNC        BRNCCOCO    BRNCCOCO13AG00000500000000001132033100000000000000500000000000000000000000011454Z01620200325X066000000
2MAIL0000150915BR10        BRNC        BRNCCOCO    BRNCCOCO13AG00000600000000001132036700000000000000500000000000000000000000011454Z01620200325X066000000
2MAIL0000150915BR10        BRNC        BRNCCOCO    BRNCCOCO13AG00000700000000001132200400000000000000500000000000000000000000011150Z01620200325X066000000
2MAIL0000150915BR10        BRNC        BRNCCOCO    BRNCCOCO13AG00000800000000001215533700000000000000500000000000000000000000011454Z01620200325X066000000
2MAIL0000150915BR10        BRNC        BRNCCOCO    BRNCCOCO13AG00000900000000001236898000000000000000200000000000000000000000004581Z01620200325X066000000
2MAIL0000150915BR10        BRNC        BRNCCOCO    BRNCCOCO13AG00001000000000001239688700000000000001400000000000000000000000005885Z01620200325X066000000
2MAIL0000150915BR10        BRNC        BRNCCOCO    BRNCCOCO13AG00001100000000001239692100000000000001400000000000000000000000005885Z01620200325X066000000
2MAIL0000150915BR10        BRNC        BRNCCOCO    BRNCCOCO13AG00001200000000001241577400000000000003000000000000000000000000028853Z01620200325X066000000
2MAIL0000150915BR10        BRNC        BRNCCOCO    BRNCCOCO13AG00001300000000001241623700000000000000300000000000000000000000007443Z01620200325X066000000
1MAIL0000150916BR10        BRNC        BRNCCOCO    BRNCCOCO13AG2020032500:00:00OR  010000009539790000953979150916                             2020032520200325Z016CIF202003250000000000802640NN0                                                  0                                        
2MAIL0000150916BR10        BRNC        BRNCCOCO    BRNCCOCO13AG00000100000000001132004000000000000002000000000000000000000000020406Z01620200325X066000000
2MAIL0000150916BR10        BRNC        BRNCCOCO    BRNCCOCO13AG00000200000000001132020900000000000000300000000000000000000000005903Z01620200325X066000000
2MAIL0000150916BR10        BRNC        BRNCCOCO    BRNCCOCO13AG00000300000000001132030800000000000001200000000000000000000000037301Z01620200325X066000000
2MAIL0000150916BR10        BRNC        BRNCCOCO    BRNCCOCO13AG00000400000000001132035100000000000002000000000000000000000000046769Z01620200325X066000000
2MAIL0000150916BR10        BRNC        BRNCCOCO    BRNCCOCO13AG00000500000000001227735000000000000000400000000000000000000000007872Z01620200325X066000000
2MAIL0000150916BR10        BRNC        BRNCCOCO    BRNCCOCO13AG00000600000000001228274000000000000000800000000000000000000000040612Z01620200325X066000000
2MAIL0000150916BR10        BRNC        BRNCCOCO    BRNCCOCO13AG00000700000000001228512700000000000000800000000000000000000000040612Z01620200325X066000000
2MAIL0000150916BR10        BRNC        BRNCCOCO    BRNCCOCO13AG00000800000000001231189200000000000000800000000000000000000000040612Z01620200325X066000000
2MAIL0000150916BR10        BRNC        BRNCCOCO    BRNCCOCO13AG00000900000000001231233000000000000000800000000000000000000000040612Z01620200325X066000000
2MAIL0000150916BR10        BRNC        BRNCCOCO    BRNCCOCO13AG00001000000000001234705900000000000000800000000000000000000000040612Z01620200325X066000000
2MAIL0000150916BR10        BRNC        BRNCCOCO    BRNCCOCO13AG00001100000000001235699700000000000006000000000000000000000000022946Z01620200325X066000000
2MAIL0000150916BR10        BRNC        BRNCCOCO    BRNCCOCO13AG00001200000000001235699800000000000006000000000000000000000000022946Z01620200325X066000000
2MAIL0000150916BR10        BRNC        BRNCCOCO    BRNCCOCO13AG00001300000000001236512900000000000021000000000000000000000000038178Z01620200325X066000000
2MAIL0000150916BR10        BRNC        BRNCCOCO    BRNCCOCO13AG00001400000000001236515000000000000021000000000000000000000000038178Z01620200325X066000000
2MAIL0000150916BR10        BRNC        BRNCCOCO    BRNCCOCO13AG00001500000000001238083500000000000000800000000000000000000000040612Z01620200325X066000000
2MAIL0000150916BR10        BRNC        BRNCCOCO    BRNCCOCO13AG00001600000000001239663300000000000016800000000000000000000000064121Z01620200325X066000000
2MAIL0000150916BR10        BRNC        BRNCCOCO    BRNCCOCO13AG00001700000000001239688700000000000016800000000000000000000000064121Z01620200325X066000000
2MAIL0000150916BR10        BRNC        BRNCCOCO    BRNCCOCO13AG00001800000000001239688800000000000016800000000000000000000000064121Z01620200325X066000000
2MAIL0000150916BR10        BRNC        BRNCCOCO    BRNCCOCO13AG00001900000000001239692100000000000022400000000000000000000000085494Z01620200325X066000000
2MAIL0000150916BR10        BRNC        BRNCCOCO    BRNCCOCO13AG00002000000000001242374800000000000000800000000000000000000000040612Z01620200325X066000000
