1MAIL0000152145BR10        BRNC        BRNCCOCO    BRNCCOCO13AG2020040300:00:00OR  010000058971540005897154152145                             2020040320200403Z016CIF202004030000000000028585NN0                                                  0                                        
2MAIL0000152145BR10        BRNC        BRNCCOCO    BRNCCOCO13AG00000100000000001226089600000000000001200000000000000000000000005045Z01620200403X066000000
2MAIL0000152145BR10        BRNC        BRNCCOCO    BRNCCOCO13AG00000200000000001239663300000000000001400000000000000000000000005885Z01620200403X066000000
2MAIL0000152145BR10        BRNC        BRNCCOCO    BRNCCOCO13AG00000300000000001239688600000000000001400000000000000000000000005885Z01620200403X066000000
2MAIL0000152145BR10        BRNC        BRNCCOCO    BRNCCOCO13AG00000400000000001239688800000000000001400000000000000000000000005885Z01620200403X066000000
2MAIL0000152145BR10        BRNC        BRNCCOCO    BRNCCOCO13AG00000500000000001239692100000000000001400000000000000000000000005885Z01620200403X066000000
1MAIL0000152146BR10        BRNC        BRNCCOCO    BRNCCOCO13AG2020040300:00:00OR  010000058971540005897154152146                             2020040320200403Z016CIF202004030000000000033026NN0                                                  0                                        
2MAIL0000152146BR10        BRNC        BRNCCOCO    BRNCCOCO13AG00000100000000001132019800000000000000200000000000000000000000004025Z01620200403X066003000
2MAIL0000152146BR10        BRNC        BRNCCOCO    BRNCCOCO13AG00000200000000001132033100000000000000200000000000000000000000004443Z01620200403X066003000
2MAIL0000152146BR10        BRNC        BRNCCOCO    BRNCCOCO13AG00000300000000001132036700000000000000200000000000000000000000004443Z01620200403X066003000
2MAIL0000152146BR10        BRNC        BRNCCOCO    BRNCCOCO13AG00000400000000001236512900000000000001000000000000000000000000001943Z01620200403X066003000
2MAIL0000152146BR10        BRNC        BRNCCOCO    BRNCCOCO13AG00000500000000001236515000000000000001000000000000000000000000001943Z01620200403X066003000
2MAIL0000152146BR10        BRNC        BRNCCOCO    BRNCCOCO13AG00000600000000001239688800000000000002800000000000000000000000011415Z01620200403X066003000
2MAIL0000152146BR10        BRNC        BRNCCOCO    BRNCCOCO13AG00000700000000001241623700000000000000200000000000000000000000004814Z01620200403X066003000
1MAIL0000152147BR10        BRNC        BRNCCOCO    BRNCCOCO13AG2020040300:00:00OR  010000052712500005271250152147                             2020040320200403Z016CIF202004030000000000058881NN0                                                  0                                        
2MAIL0000152147BR10        BRNC        BRNCCOCO    BRNCCOCO13AG00000100000000001226089600000000000001200000000000000000000000004015Z01620200403X066000000
2MAIL0000152147BR10        BRNC        BRNCCOCO    BRNCCOCO13AG00000200000000001239688600000000000001400000000000000000000000004684Z01620200403X066000000
2MAIL0000152147BR10        BRNC        BRNCCOCO    BRNCCOCO13AG00000300000000001239688800000000000001400000000000000000000000004684Z01620200403X066000000
2MAIL0000152147BR10        BRNC        BRNCCOCO    BRNCCOCO13AG00000400000000001241577400000000000006000000000000000000000000045498Z01620200403X066000000
1MAIL0000152148BR10        BRNC        BRNCCOCO    BRNCCOCO13AG2020040300:00:00OR  010000032464910003246491152148                             2020040320200403Z016CIF202004030000000000055556NN0                                                  0                                        
2MAIL0000152148BR10        BRNC        BRNCCOCO    BRNCCOCO13AG00000100000000001132019800000000000000200000000000000000000000003936Z01620200403X066000000
2MAIL0000152148BR10        BRNC        BRNCCOCO    BRNCCOCO13AG00000200000000001132020900000000000000200000000000000000000000003936Z01620200403X066000000
2MAIL0000152148BR10        BRNC        BRNCCOCO    BRNCCOCO13AG00000300000000001132033100000000000000500000000000000000000000010863Z01620200403X066000000
2MAIL0000152148BR10        BRNC        BRNCCOCO    BRNCCOCO13AG00000400000000001132036700000000000001000000000000000000000000021728Z01620200403X066000000
2MAIL0000152148BR10        BRNC        BRNCCOCO    BRNCCOCO13AG00000500000000001132200400000000000000200000000000000000000000004230Z01620200403X066000000
2MAIL0000152148BR10        BRNC        BRNCCOCO    BRNCCOCO13AG00000600000000001215533700000000000000500000000000000000000000010863Z01620200403X066000000
1MAIL0000152149BR10        BRNC        BRNCCOCO    BRNCCOCO13AG2020040300:00:00OR  010000046199880004619988152149                             2020040320200403Z016CIF202004030000000000006375NN0                                                  0                                        
2MAIL0000152149BR10        BRNC        BRNCCOCO    BRNCCOCO13AG00000100000000001132033100000000000000100000000000000000000000002125Z01620200403X066000000
2MAIL0000152149BR10        BRNC        BRNCCOCO    BRNCCOCO13AG00000200000000001132036700000000000000100000000000000000000000002125Z01620200403X066000000
2MAIL0000152149BR10        BRNC        BRNCCOCO    BRNCCOCO13AG00000300000000001215533700000000000000100000000000000000000000002125Z01620200403X066000000
1MAIL0000152150BR10        BRNC        BRNCCOCO    BRNCCOCO13AG2020040300:00:00OR  010000007161140000716114152150                             2020040320200403Z016CIF202004030000000000022363NN0                                                  0                                        
2MAIL0000152150BR10        BRNC        BRNCCOCO    BRNCCOCO13AG00000100000000001132036700000000000000200000000000000000000000004581Z01620200403X066000000
2MAIL0000152150BR10        BRNC        BRNCCOCO    BRNCCOCO13AG00000200000000001236512900000000000001500000000000000000000000003006Z01620200403X066000000
2MAIL0000152150BR10        BRNC        BRNCCOCO    BRNCCOCO13AG00000300000000001236515000000000000001500000000000000000000000003006Z01620200403X066000000
2MAIL0000152150BR10        BRNC        BRNCCOCO    BRNCCOCO13AG00000400000000001239688600000000000001400000000000000000000000005885Z01620200403X066000000
2MAIL0000152150BR10        BRNC        BRNCCOCO    BRNCCOCO13AG00000500000000001239688800000000000001400000000000000000000000005885Z01620200403X066000000
1MAIL0000152151BR10        BRNC        BRNCCOCO    BRNCCOCO13AG2020040300:00:00OR  010000029158600002915860152151                             2020040320200403Z016CIF202004030000000000283369NN0                                                  0                                        
2MAIL0000152151BR10        BRNC        BRNCCOCO    BRNCCOCO13AG00000100000000001132004200000000000000500000000000000000000000007033Z01620200403X066000000
2MAIL0000152151BR10        BRNC        BRNCCOCO    BRNCCOCO13AG00000200000000001132018300000000000000100000000000000000000000003463Z01620200403X066000000
2MAIL0000152151BR10        BRNC        BRNCCOCO    BRNCCOCO13AG00000300000000001132019700000000000000100000000000000000000000001924Z01620200403X066000000
2MAIL0000152151BR10        BRNC        BRNCCOCO    BRNCCOCO13AG00000400000000001132019800000000000000100000000000000000000000001924Z01620200403X066000000
2MAIL0000152151BR10        BRNC        BRNCCOCO    BRNCCOCO13AG00000500000000001132019900000000000000100000000000000000000000001924Z01620200403X066000000
2MAIL0000152151BR10        BRNC        BRNCCOCO    BRNCCOCO13AG00000600000000001132020900000000000000100000000000000000000000001924Z01620200403X066000000
2MAIL0000152151BR10        BRNC        BRNCCOCO    BRNCCOCO13AG00000700000000001132030800000000000000800000000000000000000000024322Z01620200403X066000000
2MAIL0000152151BR10        BRNC        BRNCCOCO    BRNCCOCO13AG00000800000000001132033100000000000000300000000000000000000000006375Z01620200403X066000000
2MAIL0000152151BR10        BRNC        BRNCCOCO    BRNCCOCO13AG00000900000000001132034900000000000000500000000000000000000000010831Z01620200403X066000000
2MAIL0000152151BR10        BRNC        BRNCCOCO    BRNCCOCO13AG00001000000000001132036700000000000000500000000000000000000000010625Z01620200403X066000000
2MAIL0000152151BR10        BRNC        BRNCCOCO    BRNCCOCO13AG00001100000000001132200400000000000000100000000000000000000000002115Z01620200403X066000000
2MAIL0000152151BR10        BRNC        BRNCCOCO    BRNCCOCO13AG00001200000000001132400100000000000000100000000000000000000000002937Z01620200403X066000000
2MAIL0000152151BR10        BRNC        BRNCCOCO    BRNCCOCO13AG00001300000000001221415400000000000000100000000000000000000000003463Z01620200403X066000000
2MAIL0000152151BR10        BRNC        BRNCCOCO    BRNCCOCO13AG00001400000000001226089600000000000002400000000000000000000000008958Z01620200403X066000000
2MAIL0000152151BR10        BRNC        BRNCCOCO    BRNCCOCO13AG00001500000000001227735000000000000000100000000000000000000000001924Z01620200403X066000000
2MAIL0000152151BR10        BRNC        BRNCCOCO    BRNCCOCO13AG00001600000000001228274000000000000000100000000000000000000000004965Z01620200403X066000000
2MAIL0000152151BR10        BRNC        BRNCCOCO    BRNCCOCO13AG00001700000000001228512700000000000000100000000000000000000000004965Z01620200403X066000000
2MAIL0000152151BR10        BRNC        BRNCCOCO    BRNCCOCO13AG00001800000000001231189200000000000000100000000000000000000000004965Z01620200403X066000000
2MAIL0000152151BR10        BRNC        BRNCCOCO    BRNCCOCO13AG00001900000000001231231200000000000000200000000000000000000000009930Z01620200403X066000000
2MAIL0000152151BR10        BRNC        BRNCCOCO    BRNCCOCO13AG00002000000000001231233000000000000000100000000000000000000000004965Z01620200403X066000000
2MAIL0000152151BR10        BRNC        BRNCCOCO    BRNCCOCO13AG00002100000000001234705800000000000000100000000000000000000000004965Z01620200403X066000000
2MAIL0000152151BR10        BRNC        BRNCCOCO    BRNCCOCO13AG00002200000000001235699700000000000001000000000000000000000000003741Z01620200403X066000000
2MAIL0000152151BR10        BRNC        BRNCCOCO    BRNCCOCO13AG00002300000000001236512900000000000002000000000000000000000000003557Z01620200403X066000000
2MAIL0000152151BR10        BRNC        BRNCCOCO    BRNCCOCO13AG00002400000000001236515000000000000002000000000000000000000000003557Z01620200403X066000000
2MAIL0000152151BR10        BRNC        BRNCCOCO    BRNCCOCO13AG00002500000000001239373400000000000000100000000000000000000000006201Z01620200403X066000000
2MAIL0000152151BR10        BRNC        BRNCCOCO    BRNCCOCO13AG00002600000000001239373600000000000000100000000000000000000000006201Z01620200403X066000000
2MAIL0000152151BR10        BRNC        BRNCCOCO    BRNCCOCO13AG00002700000000001239663300000000000004200000000000000000000000015678Z01620200403X066000000
2MAIL0000152151BR10        BRNC        BRNCCOCO    BRNCCOCO13AG00002800000000001239688300000000000001400000000000000000000000005226Z01620200403X066000000
2MAIL0000152151BR10        BRNC        BRNCCOCO    BRNCCOCO13AG00002900000000001239688500000000000002800000000000000000000000010452Z01620200403X066000000
2MAIL0000152151BR10        BRNC        BRNCCOCO    BRNCCOCO13AG00003000000000001239688600000000000005600000000000000000000000020904Z01620200403X066000000
2MAIL0000152151BR10        BRNC        BRNCCOCO    BRNCCOCO13AG00003100000000001239688700000000000001400000000000000000000000005226Z01620200403X066000000
2MAIL0000152151BR10        BRNC        BRNCCOCO    BRNCCOCO13AG00003200000000001239688800000000000005600000000000000000000000020904Z01620200403X066000000
2MAIL0000152151BR10        BRNC        BRNCCOCO    BRNCCOCO13AG00003300000000001239692000000000000002800000000000000000000000010452Z01620200403X066000000
2MAIL0000152151BR10        BRNC        BRNCCOCO    BRNCCOCO13AG00003400000000001239692300000000000002800000000000000000000000010452Z01620200403X066000000
2MAIL0000152151BR10        BRNC        BRNCCOCO    BRNCCOCO13AG00003500000000001242374800000000000000100000000000000000000000004965Z01620200403X066000000
2MAIL0000152151BR10        BRNC        BRNCCOCO    BRNCCOCO13AG00003600000000001242626100000000000002800000000000000000000000010452Z01620200403X066000000
2MAIL0000152151BR10        BRNC        BRNCCOCO    BRNCCOCO13AG00003700000000001242754900000000000005600000000000000000000000020904Z01620200403X066000000
1MAIL0000152152BR10        BRNC        BRNCCOCO    BRNCCOCO13AG2020040300:00:00OR  010000058345310005834531152152                             2020040320200403Z016CIF202004030000000000007583NN0                                                  0                                        
2MAIL0000152152BR10        BRNC        BRNCCOCO    BRNCCOCO13AG00000100000000001241577400000000000001000000000000000000000000007583Z01620200403X066000000
1MAIL0000152153BR10        BRNC        BRNCCOCO    BRNCCOCO13AG2020040300:00:00OR  010000038525900003852590152153                             2020040320200403Z016CIF202004030000000000013390NN0                                                  0                                        
2MAIL0000152153BR10        BRNC        BRNCCOCO    BRNCCOCO13AG00000100000000001236515000000000000007000000000000000000000000013390Z01620200403X066000000
1MAIL0000152154BR10        BRNC        BRNCCOCO    BRNCCOCO13AG2020040300:00:00OR  010000029046260002904626152154                             2020040320200403Z016CIF202004030000000000043083NN0                                                  0                                        
2MAIL0000152154BR10        BRNC        BRNCCOCO    BRNCCOCO13AG00000100000000001236512800000000000005200000000000000000000000008973Z01620200403X066000000
2MAIL0000152154BR10        BRNC        BRNCCOCO    BRNCCOCO13AG00000200000000001236512900000000000007000000000000000000000000012727Z01620200403X066000000
2MAIL0000152154BR10        BRNC        BRNCCOCO    BRNCCOCO13AG00000300000000001236515000000000000007000000000000000000000000012727Z01620200403X066000000
2MAIL0000152154BR10        BRNC        BRNCCOCO    BRNCCOCO13AG00000400000000001240924900000000000005200000000000000000000000008656Z01620200403X066000000
1MAIL0000152155BR10        BRNC        BRNCCOCO    BRNCCOCO13AG2020040300:00:00OR  010000060637220006063722152155                             2020040320200403Z016CIF202004030000000000094878NN0                                                  0                                        
2MAIL0000152155BR10        BRNC        BRNCCOCO    BRNCCOCO13AG00000100000000001132018300000000000000100000000000000000000000003735Z01620200403X066000000
2MAIL0000152155BR10        BRNC        BRNCCOCO    BRNCCOCO13AG00000200000000001132019700000000000000100000000000000000000000002076Z01620200403X066000000
2MAIL0000152155BR10        BRNC        BRNCCOCO    BRNCCOCO13AG00000300000000001132019800000000000000100000000000000000000000002076Z01620200403X066000000
2MAIL0000152155BR10        BRNC        BRNCCOCO    BRNCCOCO13AG00000400000000001132033100000000000000100000000000000000000000002291Z01620200403X066000000
2MAIL0000152155BR10        BRNC        BRNCCOCO    BRNCCOCO13AG00000500000000001132036700000000000000100000000000000000000000002291Z01620200403X066000000
2MAIL0000152155BR10        BRNC        BRNCCOCO    BRNCCOCO13AG00000600000000001132200400000000000000100000000000000000000000002230Z01620200403X066000000
2MAIL0000152155BR10        BRNC        BRNCCOCO    BRNCCOCO13AG00000700000000001215533700000000000000100000000000000000000000002291Z01620200403X066000000
2MAIL0000152155BR10        BRNC        BRNCCOCO    BRNCCOCO13AG00000800000000001221415400000000000000100000000000000000000000003735Z01620200403X066000000
2MAIL0000152155BR10        BRNC        BRNCCOCO    BRNCCOCO13AG00000900000000001223975300000000000000100000000000000000000000005568Z01620200403X066000000
2MAIL0000152155BR10        BRNC        BRNCCOCO    BRNCCOCO13AG00001000000000001226089600000000000001200000000000000000000000005045Z01620200403X066000000
2MAIL0000152155BR10        BRNC        BRNCCOCO    BRNCCOCO13AG00001100000000001231189200000000000000100000000000000000000000005568Z01620200403X066000000
2MAIL0000152155BR10        BRNC        BRNCCOCO    BRNCCOCO13AG00001200000000001231231200000000000000100000000000000000000000005568Z01620200403X066000000
2MAIL0000152155BR10        BRNC        BRNCCOCO    BRNCCOCO13AG00001300000000001235699700000000000001000000000000000000000000004211Z01620200403X066000000
2MAIL0000152155BR10        BRNC        BRNCCOCO    BRNCCOCO13AG00001400000000001235699800000000000001000000000000000000000000004211Z01620200403X066000000
2MAIL0000152155BR10        BRNC        BRNCCOCO    BRNCCOCO13AG00001500000000001236512800000000000000800000000000000000000000001526Z01620200403X066000000
2MAIL0000152155BR10        BRNC        BRNCCOCO    BRNCCOCO13AG00001600000000001236512900000000000001000000000000000000000000002004Z01620200403X066000000
2MAIL0000152155BR10        BRNC        BRNCCOCO    BRNCCOCO13AG00001700000000001236515000000000000001000000000000000000000000002004Z01620200403X066000000
2MAIL0000152155BR10        BRNC        BRNCCOCO    BRNCCOCO13AG00001800000000001239688800000000000001400000000000000000000000005885Z01620200403X066000000
2MAIL0000152155BR10        BRNC        BRNCCOCO    BRNCCOCO13AG00001900000000001239692300000000000001400000000000000000000000005885Z01620200403X066000000
2MAIL0000152155BR10        BRNC        BRNCCOCO    BRNCCOCO13AG00002000000000001241577400000000000002000000000000000000000000019235Z01620200403X066000000
2MAIL0000152155BR10        BRNC        BRNCCOCO    BRNCCOCO13AG00002100000000001241623700000000000000300000000000000000000000007443Z01620200403X066000000
1MAIL0000152156BR10        BRNC        BRNCCOCO    BRNCCOCO13AG2020040300:00:00OR  010000061138280006113828152156                             2020040320200403Z016CIF202004030000000000009162NN0                                                  0                                        
2MAIL0000152156BR10        BRNC        BRNCCOCO    BRNCCOCO13AG00000100000000001132033100000000000000200000000000000000000000004581Z01620200403X066000000
2MAIL0000152156BR10        BRNC        BRNCCOCO    BRNCCOCO13AG00000200000000001132036700000000000000200000000000000000000000004581Z01620200403X066000000
1MAIL0000152157BR10        BRNC        BRNCCOCO    BRNCCOCO13AG2020040300:00:00OR  010000034801400003480140152157                             2020040320200403Z016CIF202004030000000000313283NN0                                                  0                                        
2MAIL0000152157BR10        BRNC        BRNCCOCO    BRNCCOCO13AG00000100000000001132004000000000000001000000000000000000000000009978Z01620200403X066000000
2MAIL0000152157BR10        BRNC        BRNCCOCO    BRNCCOCO13AG00000200000000001132036700000000000001000000000000000000000000021250Z01620200403X066000000
2MAIL0000152157BR10        BRNC        BRNCCOCO    BRNCCOCO13AG00000300000000001132185100000000000000600000000000000000000000016667Z01620200403X066000000
2MAIL0000152157BR10        BRNC        BRNCCOCO    BRNCCOCO13AG00000400000000001132200400000000000000500000000000000000000000010575Z01620200403X066000000
2MAIL0000152157BR10        BRNC        BRNCCOCO    BRNCCOCO13AG00000500000000001223975300000000000000200000000000000000000000009930Z01620200403X066000000
2MAIL0000152157BR10        BRNC        BRNCCOCO    BRNCCOCO13AG00000600000000001226089600000000000002400000000000000000000000008958Z01620200403X066000000
2MAIL0000152157BR10        BRNC        BRNCCOCO    BRNCCOCO13AG00000700000000001227395500000000000000200000000000000000000000004250Z01620200403X066000000
2MAIL0000152157BR10        BRNC        BRNCCOCO    BRNCCOCO13AG00000800000000001228274000000000000000100000000000000000000000004965Z01620200403X066000000
2MAIL0000152157BR10        BRNC        BRNCCOCO    BRNCCOCO13AG00000900000000001228512700000000000000100000000000000000000000004965Z01620200403X066000000
2MAIL0000152157BR10        BRNC        BRNCCOCO    BRNCCOCO13AG00001000000000001231189200000000000000200000000000000000000000009930Z01620200403X066000000
2MAIL0000152157BR10        BRNC        BRNCCOCO    BRNCCOCO13AG00001100000000001231231200000000000000100000000000000000000000004965Z01620200403X066000000
2MAIL0000152157BR10        BRNC        BRNCCOCO    BRNCCOCO13AG00001200000000001231233000000000000000200000000000000000000000009930Z01620200403X066000000
2MAIL0000152157BR10        BRNC        BRNCCOCO    BRNCCOCO13AG00001300000000001231389600000000000000200000000000000000000000004250Z01620200403X066000000
2MAIL0000152157BR10        BRNC        BRNCCOCO    BRNCCOCO13AG00001400000000001235699800000000000004000000000000000000000000014961Z01620200403X066000000
2MAIL0000152157BR10        BRNC        BRNCCOCO    BRNCCOCO13AG00001500000000001236898000000000000000200000000000000000000000004250Z01620200403X066000000
2MAIL0000152157BR10        BRNC        BRNCCOCO    BRNCCOCO13AG00001600000000001239688600000000000001400000000000000000000000005226Z01620200403X066000000
2MAIL0000152157BR10        BRNC        BRNCCOCO    BRNCCOCO13AG00001700000000001239688700000000000001400000000000000000000000005226Z01620200403X066000000
2MAIL0000152157BR10        BRNC        BRNCCOCO    BRNCCOCO13AG00001800000000001239692100000000000001400000000000000000000000005226Z01620200403X066000000
2MAIL0000152157BR10        BRNC        BRNCCOCO    BRNCCOCO13AG00001900000000001239692300000000000001400000000000000000000000005226Z01620200403X066000000
2MAIL0000152157BR10        BRNC        BRNCCOCO    BRNCCOCO13AG00002000000000001241577400000000000018000000000000000000000000152555Z01620200403X066000000
1MAIL0000152158BR10        BRNC        BRNCCOCO    BRNCCOCO13AG2020040300:00:00OR  010000051565620005156562152158                             2020040320200403Z079CIF202004030000000000084683NN0                                                  0                                        
2MAIL0000152158BR10        BRNC        BRNCCOCO    BRNCCOCO13AG00000100000000001132033100000000000000200000000000000000000000004594Z07920200403X066000000
2MAIL0000152158BR10        BRNC        BRNCCOCO    BRNCCOCO13AG00000200000000001132036700000000000000200000000000000000000000004594Z07920200403X066000000
2MAIL0000152158BR10        BRNC        BRNCCOCO    BRNCCOCO13AG00000300000000001239688600000000000001400000000000000000000000005896Z07920200403X066000000
2MAIL0000152158BR10        BRNC        BRNCCOCO    BRNCCOCO13AG00000400000000001239688800000000000001400000000000000000000000005896Z07920200403X066000000
2MAIL0000152158BR10        BRNC        BRNCCOCO    BRNCCOCO13AG00000500000000001239692100000000000001400000000000000000000000005896Z07920200403X066000000
2MAIL0000152158BR10        BRNC        BRNCCOCO    BRNCCOCO13AG00000600000000001241577400000000000006000000000000000000000000057807Z07920200403X066000000
