1MAIL0000151138BR10        BRNC        BRNCCOCO    BRNCCOCO13AG2020032600:00:00OR  010000054131390005413139151138                             2020032620200326Z016CIF202003260000000000050499NN0                                                  0                                        
2MAIL0000151138BR10        BRNC        BRNCCOCO    BRNCCOCO13AG00000100000000001214448900000000000000600000000000000000000000030700Z01620200326X066000000
2MAIL0000151138BR10        BRNC        BRNCCOCO    BRNCCOCO13AG00000200000000001214470800000000000000400000000000000000000000019799Z01620200326X066000000
1MAIL0000151139BR10        BRNC        BRNCCOCO    BRNCCOCO13AG2020032600:00:00OR  010000054131390005413139151139                             2020032620200326Z016CIF202003260000000000047628NN0                                                  0                                        
2MAIL0000151139BR10        BRNC        BRNCCOCO    BRNCCOCO13AG00000100000000001132033100000000000000200000000000000000000000004581Z01620200326X066000000
2MAIL0000151139BR10        BRNC        BRNCCOCO    BRNCCOCO13AG00000200000000001132036700000000000000200000000000000000000000004581Z01620200326X066000000
2MAIL0000151139BR10        BRNC        BRNCCOCO    BRNCCOCO13AG00000300000000001132200400000000000000200000000000000000000000004460Z01620200326X066000000
2MAIL0000151139BR10        BRNC        BRNCCOCO    BRNCCOCO13AG00000400000000001215533700000000000000200000000000000000000000004581Z01620200326X066000000
2MAIL0000151139BR10        BRNC        BRNCCOCO    BRNCCOCO13AG00000500000000001239688300000000000001400000000000000000000000005885Z01620200326X066000000
2MAIL0000151139BR10        BRNC        BRNCCOCO    BRNCCOCO13AG00000600000000001239688600000000000001400000000000000000000000005885Z01620200326X066000000
2MAIL0000151139BR10        BRNC        BRNCCOCO    BRNCCOCO13AG00000700000000001239688800000000000001400000000000000000000000005885Z01620200326X066000000
2MAIL0000151139BR10        BRNC        BRNCCOCO    BRNCCOCO13AG00000800000000001239692100000000000001400000000000000000000000005885Z01620200326X066000000
2MAIL0000151139BR10        BRNC        BRNCCOCO    BRNCCOCO13AG00000900000000001239692300000000000001400000000000000000000000005885Z01620200326X066000000
1MAIL0000151140BR10        BRNC        BRNCCOCO    BRNCCOCO13AG2020032600:00:00OR  010000037572940003757294151140                             2020032620200326Z016CIF202003260000000000065998NN0                                                  0                                        
2MAIL0000151140BR10        BRNC        BRNCCOCO    BRNCCOCO13AG00000100000000001132200400000000000000600000000000000000000000013380Z01620200326X066000000
2MAIL0000151140BR10        BRNC        BRNCCOCO    BRNCCOCO13AG00000200000000001221415400000000000000200000000000000000000000007468Z01620200326X066000000
2MAIL0000151140BR10        BRNC        BRNCCOCO    BRNCCOCO13AG00000300000000001226089600000000000001200000000000000000000000005045Z01620200326X066000000
2MAIL0000151140BR10        BRNC        BRNCCOCO    BRNCCOCO13AG00000400000000001235699400000000000001000000000000000000000000004211Z01620200326X066000000
2MAIL0000151140BR10        BRNC        BRNCCOCO    BRNCCOCO13AG00000500000000001235699800000000000001000000000000000000000000004211Z01620200326X066000000
2MAIL0000151140BR10        BRNC        BRNCCOCO    BRNCCOCO13AG00000600000000001236512900000000000003500000000000000000000000007014Z01620200326X066000000
2MAIL0000151140BR10        BRNC        BRNCCOCO    BRNCCOCO13AG00000700000000001236515000000000000003500000000000000000000000007014Z01620200326X066000000
2MAIL0000151140BR10        BRNC        BRNCCOCO    BRNCCOCO13AG00000800000000001239688600000000000001400000000000000000000000005885Z01620200326X066000000
2MAIL0000151140BR10        BRNC        BRNCCOCO    BRNCCOCO13AG00000900000000001239692100000000000001400000000000000000000000005885Z01620200326X066000000
2MAIL0000151140BR10        BRNC        BRNCCOCO    BRNCCOCO13AG00001000000000001239692300000000000001400000000000000000000000005885Z01620200326X066000000
1MAIL0000151141BR10        BRNC        BRNCCOCO    BRNCCOCO13AG2020032600:00:00OR  010000052343390005234339151141                             2020032620200326Z016CIF202003260000000000148695NN0                                                  0                                        
2MAIL0000151141BR10        BRNC        BRNCCOCO    BRNCCOCO13AG00000100000000001132019700000000000000100000000000000000000000001967Z01620200326X066000000
2MAIL0000151141BR10        BRNC        BRNCCOCO    BRNCCOCO13AG00000200000000001132019800000000000000100000000000000000000000001967Z01620200326X066000000
2MAIL0000151141BR10        BRNC        BRNCCOCO    BRNCCOCO13AG00000300000000001132019900000000000000100000000000000000000000001967Z01620200326X066000000
2MAIL0000151141BR10        BRNC        BRNCCOCO    BRNCCOCO13AG00000400000000001132020900000000000000200000000000000000000000003936Z01620200326X066000000
2MAIL0000151141BR10        BRNC        BRNCCOCO    BRNCCOCO13AG00000500000000001132033100000000000000500000000000000000000000010863Z01620200326X066000000
2MAIL0000151141BR10        BRNC        BRNCCOCO    BRNCCOCO13AG00000600000000001132036700000000000000800000000000000000000000017382Z01620200326X066000000
2MAIL0000151141BR10        BRNC        BRNCCOCO    BRNCCOCO13AG00000700000000001132200400000000000001000000000000000000000000021151Z01620200326X066000000
2MAIL0000151141BR10        BRNC        BRNCCOCO    BRNCCOCO13AG00000800000000001215533700000000000000500000000000000000000000010863Z01620200326X066000000
2MAIL0000151141BR10        BRNC        BRNCCOCO    BRNCCOCO13AG00000900000000001224882700000000000000200000000000000000000000006315Z01620200326X066000000
2MAIL0000151141BR10        BRNC        BRNCCOCO    BRNCCOCO13AG00001000000000001231189200000000000000100000000000000000000000005076Z01620200326X066000000
2MAIL0000151141BR10        BRNC        BRNCCOCO    BRNCCOCO13AG00001100000000001235699400000000000002000000000000000000000000007648Z01620200326X066000000
2MAIL0000151141BR10        BRNC        BRNCCOCO    BRNCCOCO13AG00001200000000001235699700000000000001000000000000000000000000003825Z01620200326X066000000
2MAIL0000151141BR10        BRNC        BRNCCOCO    BRNCCOCO13AG00001300000000001235699800000000000002000000000000000000000000007648Z01620200326X066000000
2MAIL0000151141BR10        BRNC        BRNCCOCO    BRNCCOCO13AG00001400000000001239663300000000000002800000000000000000000000010686Z01620200326X066000000
2MAIL0000151141BR10        BRNC        BRNCCOCO    BRNCCOCO13AG00001500000000001239688300000000000001400000000000000000000000005343Z01620200326X066000000
2MAIL0000151141BR10        BRNC        BRNCCOCO    BRNCCOCO13AG00001600000000001239688600000000000001400000000000000000000000005343Z01620200326X066000000
2MAIL0000151141BR10        BRNC        BRNCCOCO    BRNCCOCO13AG00001700000000001239688700000000000001400000000000000000000000005343Z01620200326X066000000
2MAIL0000151141BR10        BRNC        BRNCCOCO    BRNCCOCO13AG00001800000000001239688800000000000002800000000000000000000000010686Z01620200326X066000000
2MAIL0000151141BR10        BRNC        BRNCCOCO    BRNCCOCO13AG00001900000000001239692000000000000001400000000000000000000000005343Z01620200326X066000000
2MAIL0000151141BR10        BRNC        BRNCCOCO    BRNCCOCO13AG00002000000000001239692100000000000001400000000000000000000000005343Z01620200326X066000000
1MAIL0000151145BR10        BRNC        BRNCCOCO    BRNCCOCO13AG2020032600:00:00OR  010000036430270003643027151145                             2020032620200326Z016CIF202003260000000000008016NN0                                                  0                                        
2MAIL0000151145BR10        BRNC        BRNCCOCO    BRNCCOCO13AG00000100000000001236512900000000000002000000000000000000000000004008Z01620200326X066000000
2MAIL0000151145BR10        BRNC        BRNCCOCO    BRNCCOCO13AG00000200000000001236515000000000000002000000000000000000000000004008Z01620200326X066000000
1MAIL0000151146BR10        BRNC        BRNCCOCO    BRNCCOCO13AG2020032600:00:00OR  010000028789650002878965151146                             2020032620200326Z016CIF202003260000000000004962NN0                                                  0                                        
2MAIL0000151146BR10        BRNC        BRNCCOCO    BRNCCOCO13AG00000100000000001241623700000000000000200000000000000000000000004962Z01620200326X066000000
1MAIL0000151147BR10        BRNC        BRNCCOCO    BRNCCOCO13AG2020032600:00:00OR  010000032012560003201256151147                             2020032620200326Z016CIF202003260000000000006375NN0                                                  0                                        
2MAIL0000151147BR10        BRNC        BRNCCOCO    BRNCCOCO13AG00000100000000001132036700000000000000300000000000000000000000006375Z01620200326X066000000
1MAIL0000151153BR10        BRNC        BRNCCOCO    BRNCCOCO13AG2020032600:00:00OR  010000052356200005235620151153                             2020032620200326Z016CIF202003260000000000289359NN0                                                  0                                        
2MAIL0000151153BR10        BRNC        BRNCCOCO    BRNCCOCO13AG00000100000000001132033100000000000000800000000000000000000000017001Z01620200326X066000000
2MAIL0000151153BR10        BRNC        BRNCCOCO    BRNCCOCO13AG00000200000000001132036700000000000001600000000000000000000000034001Z01620200326X066000000
2MAIL0000151153BR10        BRNC        BRNCCOCO    BRNCCOCO13AG00000300000000001132200400000000000001000000000000000000000000021151Z01620200326X066000000
2MAIL0000151153BR10        BRNC        BRNCCOCO    BRNCCOCO13AG00000400000000001215533700000000000000800000000000000000000000017001Z01620200326X066000000
2MAIL0000151153BR10        BRNC        BRNCCOCO    BRNCCOCO13AG00000500000000001223975300000000000000200000000000000000000000009930Z01620200326X066000000
2MAIL0000151153BR10        BRNC        BRNCCOCO    BRNCCOCO13AG00000600000000001226089600000000000002400000000000000000000000008958Z01620200326X066000000
2MAIL0000151153BR10        BRNC        BRNCCOCO    BRNCCOCO13AG00000700000000001228274000000000000000200000000000000000000000009930Z01620200326X066000000
2MAIL0000151153BR10        BRNC        BRNCCOCO    BRNCCOCO13AG00000800000000001228512700000000000000200000000000000000000000009930Z01620200326X066000000
2MAIL0000151153BR10        BRNC        BRNCCOCO    BRNCCOCO13AG00000900000000001231189200000000000000200000000000000000000000009930Z01620200326X066000000
2MAIL0000151153BR10        BRNC        BRNCCOCO    BRNCCOCO13AG00001000000000001231231200000000000000200000000000000000000000009930Z01620200326X066000000
2MAIL0000151153BR10        BRNC        BRNCCOCO    BRNCCOCO13AG00001100000000001234705900000000000000200000000000000000000000009930Z01620200326X066000000
2MAIL0000151153BR10        BRNC        BRNCCOCO    BRNCCOCO13AG00001200000000001235699400000000000002000000000000000000000000007481Z01620200326X066000000
2MAIL0000151153BR10        BRNC        BRNCCOCO    BRNCCOCO13AG00001300000000001235699700000000000002000000000000000000000000007481Z01620200326X066000000
2MAIL0000151153BR10        BRNC        BRNCCOCO    BRNCCOCO13AG00001400000000001235699800000000000002000000000000000000000000007481Z01620200326X066000000
2MAIL0000151153BR10        BRNC        BRNCCOCO    BRNCCOCO13AG00001500000000001238083500000000000000200000000000000000000000009930Z01620200326X066000000
2MAIL0000151153BR10        BRNC        BRNCCOCO    BRNCCOCO13AG00001600000000001239663300000000000002800000000000000000000000010452Z01620200326X066000000
2MAIL0000151153BR10        BRNC        BRNCCOCO    BRNCCOCO13AG00001700000000001239688300000000000002800000000000000000000000010452Z01620200326X066000000
2MAIL0000151153BR10        BRNC        BRNCCOCO    BRNCCOCO13AG00001800000000001239688500000000000001400000000000000000000000005226Z01620200326X066000000
2MAIL0000151153BR10        BRNC        BRNCCOCO    BRNCCOCO13AG00001900000000001239688600000000000002800000000000000000000000010452Z01620200326X066000000
2MAIL0000151153BR10        BRNC        BRNCCOCO    BRNCCOCO13AG00002000000000001239688700000000000002800000000000000000000000010452Z01620200326X066000000
2MAIL0000151153BR10        BRNC        BRNCCOCO    BRNCCOCO13AG00002100000000001239688800000000000002800000000000000000000000010452Z01620200326X066000000
2MAIL0000151153BR10        BRNC        BRNCCOCO    BRNCCOCO13AG00002200000000001239692000000000000002800000000000000000000000010452Z01620200326X066000000
2MAIL0000151153BR10        BRNC        BRNCCOCO    BRNCCOCO13AG00002300000000001239692100000000000002800000000000000000000000010452Z01620200326X066000000
2MAIL0000151153BR10        BRNC        BRNCCOCO    BRNCCOCO13AG00002400000000001239692300000000000002800000000000000000000000010452Z01620200326X066000000
2MAIL0000151153BR10        BRNC        BRNCCOCO    BRNCCOCO13AG00002500000000001242754900000000000002800000000000000000000000010452Z01620200326X066000000
1MAIL0000151154BR10        BRNC        BRNCCOCO    BRNCCOCO13AG2020032600:00:00OR  010000009377450000937745151154                             2020032620200326Z016CIF202003260000000000337133NN0                                                  0                                        
2MAIL0000151154BR10        BRNC        BRNCCOCO    BRNCCOCO13AG00000100000000001132033100000000000000800000000000000000000000017001Z01620200326X066000000
2MAIL0000151154BR10        BRNC        BRNCCOCO    BRNCCOCO13AG00000200000000001132036700000000000001600000000000000000000000034001Z01620200326X066000000
2MAIL0000151154BR10        BRNC        BRNCCOCO    BRNCCOCO13AG00000300000000001132200400000000000004000000000000000000000000084603Z01620200326X066000000
2MAIL0000151154BR10        BRNC        BRNCCOCO    BRNCCOCO13AG00000400000000001215533700000000000000800000000000000000000000017001Z01620200326X066000000
2MAIL0000151154BR10        BRNC        BRNCCOCO    BRNCCOCO13AG00000500000000001223975300000000000000200000000000000000000000009930Z01620200326X066000000
2MAIL0000151154BR10        BRNC        BRNCCOCO    BRNCCOCO13AG00000600000000001226089600000000000002400000000000000000000000008958Z01620200326X066000000
2MAIL0000151154BR10        BRNC        BRNCCOCO    BRNCCOCO13AG00000700000000001228274000000000000000200000000000000000000000009930Z01620200326X066000000
2MAIL0000151154BR10        BRNC        BRNCCOCO    BRNCCOCO13AG00000800000000001228512700000000000000200000000000000000000000009930Z01620200326X066000000
2MAIL0000151154BR10        BRNC        BRNCCOCO    BRNCCOCO13AG00000900000000001231189200000000000000200000000000000000000000009930Z01620200326X066000000
2MAIL0000151154BR10        BRNC        BRNCCOCO    BRNCCOCO13AG00001000000000001231231200000000000000200000000000000000000000009930Z01620200326X066000000
2MAIL0000151154BR10        BRNC        BRNCCOCO    BRNCCOCO13AG00001100000000001234705900000000000000200000000000000000000000009930Z01620200326X066000000
2MAIL0000151154BR10        BRNC        BRNCCOCO    BRNCCOCO13AG00001200000000001235699400000000000002000000000000000000000000007481Z01620200326X066000000
2MAIL0000151154BR10        BRNC        BRNCCOCO    BRNCCOCO13AG00001300000000001235699700000000000002000000000000000000000000007481Z01620200326X066000000
2MAIL0000151154BR10        BRNC        BRNCCOCO    BRNCCOCO13AG00001400000000001235699800000000000002000000000000000000000000007481Z01620200326X066000000
2MAIL0000151154BR10        BRNC        BRNCCOCO    BRNCCOCO13AG00001500000000001238083500000000000000200000000000000000000000009930Z01620200326X066000000
2MAIL0000151154BR10        BRNC        BRNCCOCO    BRNCCOCO13AG00001600000000001239663300000000000002800000000000000000000000010452Z01620200326X066000000
2MAIL0000151154BR10        BRNC        BRNCCOCO    BRNCCOCO13AG00001700000000001239688300000000000002800000000000000000000000010452Z01620200326X066000000
2MAIL0000151154BR10        BRNC        BRNCCOCO    BRNCCOCO13AG00001800000000001239688600000000000002800000000000000000000000010452Z01620200326X066000000
2MAIL0000151154BR10        BRNC        BRNCCOCO    BRNCCOCO13AG00001900000000001239688700000000000002800000000000000000000000010452Z01620200326X066000000
2MAIL0000151154BR10        BRNC        BRNCCOCO    BRNCCOCO13AG00002000000000001239688800000000000002800000000000000000000000010452Z01620200326X066000000
2MAIL0000151154BR10        BRNC        BRNCCOCO    BRNCCOCO13AG00002100000000001239692100000000000002800000000000000000000000010452Z01620200326X066000000
2MAIL0000151154BR10        BRNC        BRNCCOCO    BRNCCOCO13AG00002200000000001239692300000000000002800000000000000000000000010452Z01620200326X066000000
2MAIL0000151154BR10        BRNC        BRNCCOCO    BRNCCOCO13AG00002300000000001242754900000000000002800000000000000000000000010452Z01620200326X066000000
1MAIL0000151155BR10        BRNC        BRNCCOCO    BRNCCOCO13AG2020032600:00:00OR  010000052356210005235621151155                             2020032620200326Z016CIF202003260000000000106869NN0                                                  0                                        
2MAIL0000151155BR10        BRNC        BRNCCOCO    BRNCCOCO13AG00000100000000001132019700000000000000200000000000000000000000004150Z01620200326X066000000
2MAIL0000151155BR10        BRNC        BRNCCOCO    BRNCCOCO13AG00000200000000001132019800000000000000200000000000000000000000004150Z01620200326X066000000
2MAIL0000151155BR10        BRNC        BRNCCOCO    BRNCCOCO13AG00000300000000001132020900000000000000200000000000000000000000004150Z01620200326X066000000
2MAIL0000151155BR10        BRNC        BRNCCOCO    BRNCCOCO13AG00000400000000001132033100000000000000400000000000000000000000009163Z01620200326X066000000
2MAIL0000151155BR10        BRNC        BRNCCOCO    BRNCCOCO13AG00000500000000001132036700000000000000400000000000000000000000009163Z01620200326X066000000
2MAIL0000151155BR10        BRNC        BRNCCOCO    BRNCCOCO13AG00000600000000001132200400000000000000400000000000000000000000008920Z01620200326X066000000
2MAIL0000151155BR10        BRNC        BRNCCOCO    BRNCCOCO13AG00000700000000001215533700000000000000400000000000000000000000009163Z01620200326X066000000
2MAIL0000151155BR10        BRNC        BRNCCOCO    BRNCCOCO13AG00000800000000001226089600000000000001200000000000000000000000005045Z01620200326X066000000
2MAIL0000151155BR10        BRNC        BRNCCOCO    BRNCCOCO13AG00000900000000001239663300000000000001400000000000000000000000005885Z01620200326X066000000
2MAIL0000151155BR10        BRNC        BRNCCOCO    BRNCCOCO13AG00001000000000001239688300000000000001400000000000000000000000005885Z01620200326X066000000
2MAIL0000151155BR10        BRNC        BRNCCOCO    BRNCCOCO13AG00001100000000001239688500000000000001400000000000000000000000005885Z01620200326X066000000
2MAIL0000151155BR10        BRNC        BRNCCOCO    BRNCCOCO13AG00001200000000001239688600000000000001400000000000000000000000005885Z01620200326X066000000
2MAIL0000151155BR10        BRNC        BRNCCOCO    BRNCCOCO13AG00001300000000001239688700000000000001400000000000000000000000005885Z01620200326X066000000
2MAIL0000151155BR10        BRNC        BRNCCOCO    BRNCCOCO13AG00001400000000001239688800000000000001400000000000000000000000005885Z01620200326X066000000
2MAIL0000151155BR10        BRNC        BRNCCOCO    BRNCCOCO13AG00001500000000001239692000000000000001400000000000000000000000005885Z01620200326X066000000
2MAIL0000151155BR10        BRNC        BRNCCOCO    BRNCCOCO13AG00001600000000001239692100000000000001400000000000000000000000005885Z01620200326X066000000
2MAIL0000151155BR10        BRNC        BRNCCOCO    BRNCCOCO13AG00001700000000001239692300000000000001400000000000000000000000005885Z01620200326X066000000
1MAIL0000151156BR10        BRNC        BRNCCOCO    BRNCCOCO13AG2020032600:00:00OR  010000060225330006022533151156                             2020032620200326Z016CIF202003260000000000101824NN0                                                  0                                        
2MAIL0000151156BR10        BRNC        BRNCCOCO    BRNCCOCO13AG00000100000000001132019700000000000000200000000000000000000000004150Z01620200326X066000000
2MAIL0000151156BR10        BRNC        BRNCCOCO    BRNCCOCO13AG00000200000000001132019800000000000000200000000000000000000000004150Z01620200326X066000000
2MAIL0000151156BR10        BRNC        BRNCCOCO    BRNCCOCO13AG00000300000000001132020900000000000000200000000000000000000000004150Z01620200326X066000000
2MAIL0000151156BR10        BRNC        BRNCCOCO    BRNCCOCO13AG00000400000000001132033100000000000000400000000000000000000000009163Z01620200326X066000000
2MAIL0000151156BR10        BRNC        BRNCCOCO    BRNCCOCO13AG00000500000000001132036700000000000000400000000000000000000000009163Z01620200326X066000000
2MAIL0000151156BR10        BRNC        BRNCCOCO    BRNCCOCO13AG00000600000000001132200400000000000000400000000000000000000000008920Z01620200326X066000000
2MAIL0000151156BR10        BRNC        BRNCCOCO    BRNCCOCO13AG00000700000000001215533700000000000000400000000000000000000000009163Z01620200326X066000000
2MAIL0000151156BR10        BRNC        BRNCCOCO    BRNCCOCO13AG00000800000000001239663300000000000001400000000000000000000000005885Z01620200326X066000000
2MAIL0000151156BR10        BRNC        BRNCCOCO    BRNCCOCO13AG00000900000000001239688300000000000001400000000000000000000000005885Z01620200326X066000000
2MAIL0000151156BR10        BRNC        BRNCCOCO    BRNCCOCO13AG00001000000000001239688500000000000001400000000000000000000000005885Z01620200326X066000000
2MAIL0000151156BR10        BRNC        BRNCCOCO    BRNCCOCO13AG00001100000000001239688600000000000001400000000000000000000000005885Z01620200326X066000000
2MAIL0000151156BR10        BRNC        BRNCCOCO    BRNCCOCO13AG00001200000000001239688700000000000001400000000000000000000000005885Z01620200326X066000000
2MAIL0000151156BR10        BRNC        BRNCCOCO    BRNCCOCO13AG00001300000000001239688800000000000001400000000000000000000000005885Z01620200326X066000000
2MAIL0000151156BR10        BRNC        BRNCCOCO    BRNCCOCO13AG00001400000000001239692000000000000001400000000000000000000000005885Z01620200326X066000000
2MAIL0000151156BR10        BRNC        BRNCCOCO    BRNCCOCO13AG00001500000000001239692100000000000001400000000000000000000000005885Z01620200326X066000000
2MAIL0000151156BR10        BRNC        BRNCCOCO    BRNCCOCO13AG00001600000000001242754900000000000001400000000000000000000000005885Z01620200326X066000000
1MAIL0000151157BR10        BRNC        BRNCCOCO    BRNCCOCO13AG2020032600:00:00OR  010000060314030006031403151157                             2020032620200326Z016CIF202003260000000000046344NN0                                                  0                                        
2MAIL0000151157BR10        BRNC        BRNCCOCO    BRNCCOCO13AG00000100000000001132019700000000000000200000000000000000000000003936Z01620200326X066000000
2MAIL0000151157BR10        BRNC        BRNCCOCO    BRNCCOCO13AG00000200000000001132019800000000000000200000000000000000000000003936Z01620200326X066000000
2MAIL0000151157BR10        BRNC        BRNCCOCO    BRNCCOCO13AG00000300000000001132020900000000000000200000000000000000000000003936Z01620200326X066000000
2MAIL0000151157BR10        BRNC        BRNCCOCO    BRNCCOCO13AG00000400000000001132033100000000000000400000000000000000000000008692Z01620200326X066000000
2MAIL0000151157BR10        BRNC        BRNCCOCO    BRNCCOCO13AG00000500000000001132036700000000000000400000000000000000000000008692Z01620200326X066000000
2MAIL0000151157BR10        BRNC        BRNCCOCO    BRNCCOCO13AG00000600000000001132200400000000000000400000000000000000000000008460Z01620200326X066000000
2MAIL0000151157BR10        BRNC        BRNCCOCO    BRNCCOCO13AG00000700000000001215533700000000000000400000000000000000000000008692Z01620200326X066000000
