1MAIL0000151909BR10        BRNC        BRNCCOCO    BRNCCOCO13AG2020040100:00:00OR  010000029838560002983856151909                             2020040120200401Z016CIF202004010000000000036121NN0                                                  0                                        
2MAIL0000151909BR10        BRNC        BRNCCOCO    BRNCCOCO13AG00000100000000001132004000000000000000500000000000000000000000005662Z01620200401X066000000
2MAIL0000151909BR10        BRNC        BRNCCOCO    BRNCCOCO13AG00000200000000001132004200000000000000500000000000000000000000007806Z01620200401X066000000
2MAIL0000151909BR10        BRNC        BRNCCOCO    BRNCCOCO13AG00000300000000001235699400000000000001000000000000000000000000004211Z01620200401X066000000
2MAIL0000151909BR10        BRNC        BRNCCOCO    BRNCCOCO13AG00000400000000001235699700000000000001000000000000000000000000004211Z01620200401X066000000
2MAIL0000151909BR10        BRNC        BRNCCOCO    BRNCCOCO13AG00000500000000001235699800000000000001000000000000000000000000004211Z01620200401X066000000
2MAIL0000151909BR10        BRNC        BRNCCOCO    BRNCCOCO13AG00000600000000001236512900000000000002500000000000000000000000005010Z01620200401X066000000
2MAIL0000151909BR10        BRNC        BRNCCOCO    BRNCCOCO13AG00000700000000001236515000000000000002500000000000000000000000005010Z01620200401X066000000
1MAIL0000151910BR10        BRNC        BRNCCOCO    BRNCCOCO13AG2020040100:00:00OR  010000028472230002847223151910                             2020040120200401Z016CIF202004010000000000073436NN0                                                  0                                        
2MAIL0000151910BR10        BRNC        BRNCCOCO    BRNCCOCO13AG00000100000000001132019700000000000000100000000000000000000000002076Z01620200401X066000000
2MAIL0000151910BR10        BRNC        BRNCCOCO    BRNCCOCO13AG00000200000000001132019800000000000000100000000000000000000000002076Z01620200401X066000000
2MAIL0000151910BR10        BRNC        BRNCCOCO    BRNCCOCO13AG00000300000000001132033100000000000000100000000000000000000000002291Z01620200401X066000000
2MAIL0000151910BR10        BRNC        BRNCCOCO    BRNCCOCO13AG00000400000000001132034900000000000000500000000000000000000000012283Z01620200401X066000000
2MAIL0000151910BR10        BRNC        BRNCCOCO    BRNCCOCO13AG00000500000000001132035000000000000000500000000000000000000000013646Z01620200401X066000000
2MAIL0000151910BR10        BRNC        BRNCCOCO    BRNCCOCO13AG00000600000000001132200400000000000000300000000000000000000000006690Z01620200401X066000000
2MAIL0000151910BR10        BRNC        BRNCCOCO    BRNCCOCO13AG00000700000000001132400100000000000000100000000000000000000000003165Z01620200401X066000000
2MAIL0000151910BR10        BRNC        BRNCCOCO    BRNCCOCO13AG00000800000000001215533700000000000000100000000000000000000000002291Z01620200401X066000000
2MAIL0000151910BR10        BRNC        BRNCCOCO    BRNCCOCO13AG00000900000000001224882700000000000000100000000000000000000000003329Z01620200401X066000000
2MAIL0000151910BR10        BRNC        BRNCCOCO    BRNCCOCO13AG00001000000000001226089600000000000001200000000000000000000000005045Z01620200401X066000000
2MAIL0000151910BR10        BRNC        BRNCCOCO    BRNCCOCO13AG00001100000000001231389600000000000000100000000000000000000000002291Z01620200401X066000000
2MAIL0000151910BR10        BRNC        BRNCCOCO    BRNCCOCO13AG00001200000000001235699400000000000001000000000000000000000000004211Z01620200401X066000000
2MAIL0000151910BR10        BRNC        BRNCCOCO    BRNCCOCO13AG00001300000000001235699700000000000001000000000000000000000000004211Z01620200401X066000000
2MAIL0000151910BR10        BRNC        BRNCCOCO    BRNCCOCO13AG00001400000000001235699800000000000001000000000000000000000000004211Z01620200401X066000000
2MAIL0000151910BR10        BRNC        BRNCCOCO    BRNCCOCO13AG00001500000000001236898000000000000000100000000000000000000000002291Z01620200401X066000000
2MAIL0000151910BR10        BRNC        BRNCCOCO    BRNCCOCO13AG00001600000000001236898100000000000000100000000000000000000000003329Z01620200401X066000000
