1MAIL0000153072BR10        BRNC        BRNCCOCO    BRNCCOCO13AG2020041400:00:00OR  010000044331020004433102153072                             2020041420200414Z016CIF202004140000000000016959NN0                                                  0                                        
2MAIL0000153072BR10        BRNC        BRNCCOCO    BRNCCOCO13AG00000100000000001132033100000000000000100000000000000000000000002173Z01620200414X066000000
2MAIL0000153072BR10        BRNC        BRNCCOCO    BRNCCOCO13AG00000200000000001132036700000000000000100000000000000000000000002173Z01620200414X066000000
2MAIL0000153072BR10        BRNC        BRNCCOCO    BRNCCOCO13AG00000300000000001132200400000000000000100000000000000000000000002115Z01620200414X066000000
2MAIL0000153072BR10        BRNC        BRNCCOCO    BRNCCOCO13AG00000400000000001215533700000000000000100000000000000000000000002173Z01620200414X066000000
2MAIL0000153072BR10        BRNC        BRNCCOCO    BRNCCOCO13AG00000500000000001221415400000000000000100000000000000000000000003541Z01620200414X066000000
2MAIL0000153072BR10        BRNC        BRNCCOCO    BRNCCOCO13AG00000600000000001226089600000000000001200000000000000000000000004784Z01620200414X066000000
1MAIL0000153073BR10        BRNC        BRNCCOCO    BRNCCOCO13AG2020041400:00:00OR  010000054178580005417858153073                             2020041420200414Z079CIF202004140000000000246969NN0                                                  0                                        
2MAIL0000153073BR10        BRNC        BRNCCOCO    BRNCCOCO13AG00000100000000001132019800000000000000100000000000000000000000001686Z07920200414X066000000
2MAIL0000153073BR10        BRNC        BRNCCOCO    BRNCCOCO13AG00000200000000001132020900000000000000100000000000000000000000001686Z07920200414X066000000
2MAIL0000153073BR10        BRNC        BRNCCOCO    BRNCCOCO13AG00000300000000001132033100000000000000200000000000000000000000003721Z07920200414X066000000
2MAIL0000153073BR10        BRNC        BRNCCOCO    BRNCCOCO13AG00000400000000001132036700000000000000300000000000000000000000005581Z07920200414X066000000
2MAIL0000153073BR10        BRNC        BRNCCOCO    BRNCCOCO13AG00000500000000001132200400000000000000100000000000000000000000002110Z07920200414X066000000
2MAIL0000153073BR10        BRNC        BRNCCOCO    BRNCCOCO13AG00000600000000001215533700000000000000300000000000000000000000005581Z07920200414X066000000
2MAIL0000153073BR10        BRNC        BRNCCOCO    BRNCCOCO13AG00000700000000001226089600000000000002400000000000000000000000008164Z07920200414X066000000
2MAIL0000153073BR10        BRNC        BRNCCOCO    BRNCCOCO13AG00000800000000001227395500000000000000200000000000000000000000003721Z07920200414X066000000
2MAIL0000153073BR10        BRNC        BRNCCOCO    BRNCCOCO13AG00000900000000001228274000000000000000100000000000000000000000004521Z07920200414X066000000
2MAIL0000153073BR10        BRNC        BRNCCOCO    BRNCCOCO13AG00001000000000001231231200000000000000100000000000000000000000004521Z07920200414X066000000
2MAIL0000153073BR10        BRNC        BRNCCOCO    BRNCCOCO13AG00001100000000001231389600000000000000200000000000000000000000003721Z07920200414X066000000
2MAIL0000153073BR10        BRNC        BRNCCOCO    BRNCCOCO13AG00001200000000001236512800000000000005200000000000000000000000008203Z07920200414X066000000
2MAIL0000153073BR10        BRNC        BRNCCOCO    BRNCCOCO13AG00001300000000001236512900000000000007000000000000000000000000011624Z07920200414X066000000
2MAIL0000153073BR10        BRNC        BRNCCOCO    BRNCCOCO13AG00001400000000001236515000000000000007000000000000000000000000011624Z07920200414X066000000
2MAIL0000153073BR10        BRNC        BRNCCOCO    BRNCCOCO13AG00001500000000001236898000000000000000200000000000000000000000003721Z07920200414X066000000
2MAIL0000153073BR10        BRNC        BRNCCOCO    BRNCCOCO13AG00001600000000001239663300000000000001400000000000000000000000004762Z07920200414X066000000
2MAIL0000153073BR10        BRNC        BRNCCOCO    BRNCCOCO13AG00001700000000001239688300000000000001400000000000000000000000004762Z07920200414X066000000
2MAIL0000153073BR10        BRNC        BRNCCOCO    BRNCCOCO13AG00001800000000001239688700000000000001400000000000000000000000004762Z07920200414X066000000
2MAIL0000153073BR10        BRNC        BRNCCOCO    BRNCCOCO13AG00001900000000001239688800000000000001400000000000000000000000004762Z07920200414X066000000
2MAIL0000153073BR10        BRNC        BRNCCOCO    BRNCCOCO13AG00002000000000001239692100000000000001400000000000000000000000004762Z07920200414X066000000
2MAIL0000153073BR10        BRNC        BRNCCOCO    BRNCCOCO13AG00002100000000001240924900000000000001200000000000000000000000001822Z07920200414X066000000
2MAIL0000153073BR10        BRNC        BRNCCOCO    BRNCCOCO13AG00002200000000001241577400000000000015000000000000000000000000117076Z07920200414X066000000
2MAIL0000153073BR10        BRNC        BRNCCOCO    BRNCCOCO13AG00002300000000001241623700000000000001000000000000000000000000019314Z07920200414X066000000
2MAIL0000153073BR10        BRNC        BRNCCOCO    BRNCCOCO13AG00002400000000001242626100000000000001400000000000000000000000004762Z07920200414X066000000
1MAIL0000153074BR10        BRNC        BRNCCOCO    BRNCCOCO13AG2020041400:00:00OR  010000051810910005181091153074                             2020041420200414Z016CIF202004140000000000367552NN0                                                  0                                        
2MAIL0000153074BR10        BRNC        BRNCCOCO    BRNCCOCO13AG00000100000000001132004000000000000001500000000000000000000000013958Z01620200414X066000000
2MAIL0000153074BR10        BRNC        BRNCCOCO    BRNCCOCO13AG00000200000000001132030800000000000000400000000000000000000000010565Z01620200414X066000000
2MAIL0000153074BR10        BRNC        BRNCCOCO    BRNCCOCO13AG00000300000000001132030900000000000000400000000000000000000000010901Z01620200414X066000000
2MAIL0000153074BR10        BRNC        BRNCCOCO    BRNCCOCO13AG00000400000000001132033900000000000000400000000000000000000000011591Z01620200414X066000000
2MAIL0000153074BR10        BRNC        BRNCCOCO    BRNCCOCO13AG00000500000000001132185100000000000000400000000000000000000000009655Z01620200414X066000000
2MAIL0000153074BR10        BRNC        BRNCCOCO    BRNCCOCO13AG00000600000000001214448800000000000000400000000000000000000000019085Z01620200414X066000000
2MAIL0000153074BR10        BRNC        BRNCCOCO    BRNCCOCO13AG00000700000000001214448900000000000000400000000000000000000000018272Z01620200414X066000000
2MAIL0000153074BR10        BRNC        BRNCCOCO    BRNCCOCO13AG00000800000000001214451500000000000000400000000000000000000000016538Z01620200414X066000000
2MAIL0000153074BR10        BRNC        BRNCCOCO    BRNCCOCO13AG00000900000000001214470800000000000000400000000000000000000000017679Z01620200414X066000000
2MAIL0000153074BR10        BRNC        BRNCCOCO    BRNCCOCO13AG00001000000000001236512800000000000010400000000000000000000000014829Z01620200414X066000000
2MAIL0000153074BR10        BRNC        BRNCCOCO    BRNCCOCO13AG00001100000000001236512900000000000070000000000000000000000000104829Z01620200414X066000000
2MAIL0000153074BR10        BRNC        BRNCCOCO    BRNCCOCO13AG00001200000000001236515000000000000070000000000000000000000000104829Z01620200414X066000000
2MAIL0000153074BR10        BRNC        BRNCCOCO    BRNCCOCO13AG00001300000000001240924900000000000010800000000000000000000000014821Z01620200414X066000000
1MAIL0000153079BR10        BRNC        BRNCCOCO    BRNCCOCO13AG2020041400:00:00OR  010000029019260002901926153079                             2020041420200414Z016CIF202004140000000000018468NN0                                                  0                                        
2MAIL0000153079BR10        BRNC        BRNCCOCO    BRNCCOCO13AG00000100000000001132036700000000000000500000000000000000000000011454Z01620200414X066000000
2MAIL0000153079BR10        BRNC        BRNCCOCO    BRNCCOCO13AG00000200000000001236515000000000000003500000000000000000000000007014Z01620200414X066000000
1MAIL0000153080BR10        BRNC        BRNCCOCO    BRNCCOCO13AG2020041400:00:00OR  010000056868310005686831153080                             2020041420200414Z016CIF202004140000000000008263NN0                                                  0                                        
2MAIL0000153080BR10        BRNC        BRNCCOCO    BRNCCOCO13AG00000100000000001132019700000000000000100000000000000000000000001498Z01620200414X066000000
2MAIL0000153080BR10        BRNC        BRNCCOCO    BRNCCOCO13AG00000200000000001132019800000000000000100000000000000000000000001498Z01620200414X066000000
2MAIL0000153080BR10        BRNC        BRNCCOCO    BRNCCOCO13AG00000300000000001132019900000000000000100000000000000000000000001498Z01620200414X066000000
2MAIL0000153080BR10        BRNC        BRNCCOCO    BRNCCOCO13AG00000400000000001132200400000000000000100000000000000000000000002115Z01620200414X066000000
2MAIL0000153080BR10        BRNC        BRNCCOCO    BRNCCOCO13AG00000500000000001215533700000000000000100000000000000000000000001654Z01620200414X066000000
1MAIL0000153081BR10        BRNC        BRNCCOCO    BRNCCOCO13AG2020041400:00:00OR  010000055329220005532922153081                             2020041420200414Z016CIF202004140000000000016327NN0                                                  0                                        
2MAIL0000153081BR10        BRNC        BRNCCOCO    BRNCCOCO13AG00000100000000001132019800000000000000100000000000000000000000002076Z01620200414X066000000
2MAIL0000153081BR10        BRNC        BRNCCOCO    BRNCCOCO13AG00000200000000001239688600000000000001400000000000000000000000005885Z01620200414X066000000
2MAIL0000153081BR10        BRNC        BRNCCOCO    BRNCCOCO13AG00000300000000001239688800000000000001400000000000000000000000005885Z01620200414X066000000
2MAIL0000153081BR10        BRNC        BRNCCOCO    BRNCCOCO13AG00000400000000001241623700000000000000100000000000000000000000002481Z01620200414X066000000
1MAIL0000153082BR10        BRNC        BRNCCOCO    BRNCCOCO13AG2020041400:00:00OR  010000040700900004070090153082                             2020041420200414Z016CIF202004140000000000011306NN0                                                  0                                        
2MAIL0000153082BR10        BRNC        BRNCCOCO    BRNCCOCO13AG00000100000000001132036700000000000000100000000000000000000000002291Z01620200414X066000000
2MAIL0000153082BR10        BRNC        BRNCCOCO    BRNCCOCO13AG00000200000000001132200400000000000000100000000000000000000000002230Z01620200414X066000000
2MAIL0000153082BR10        BRNC        BRNCCOCO    BRNCCOCO13AG00000300000000001215533700000000000000100000000000000000000000002291Z01620200414X066000000
2MAIL0000153082BR10        BRNC        BRNCCOCO    BRNCCOCO13AG00000400000000001236512800000000000001200000000000000000000000002288Z01620200414X066000000
2MAIL0000153082BR10        BRNC        BRNCCOCO    BRNCCOCO13AG00000500000000001240924900000000000001200000000000000000000000002206Z01620200414X066000000
