1MAIL0000151026BR10        BRNC        BRNCCOCO    BRNCCOCO13AG2020032600:00:00OR  010000053988600005398860151026                             2020032620200326Z016CIF202003260000000000061268NN0                                                  0                                        
2MAIL0000151026BR10        BRNC        BRNCCOCO    BRNCCOCO13AG00000100000000001132033100000000000000200000000000000000000000004345Z01620200326X066000000
2MAIL0000151026BR10        BRNC        BRNCCOCO    BRNCCOCO13AG00000200000000001132036700000000000000500000000000000000000000010863Z01620200326X066000000
2MAIL0000151026BR10        BRNC        BRNCCOCO    BRNCCOCO13AG00000300000000001132200400000000000000300000000000000000000000006345Z01620200326X066000000
2MAIL0000151026BR10        BRNC        BRNCCOCO    BRNCCOCO13AG00000400000000001215533700000000000000200000000000000000000000004345Z01620200326X066000000
2MAIL0000151026BR10        BRNC        BRNCCOCO    BRNCCOCO13AG00000500000000001227395500000000000000100000000000000000000000002173Z01620200326X066000000
2MAIL0000151026BR10        BRNC        BRNCCOCO    BRNCCOCO13AG00000600000000001235699400000000000001000000000000000000000000003825Z01620200326X066000000
2MAIL0000151026BR10        BRNC        BRNCCOCO    BRNCCOCO13AG00000700000000001235699800000000000001000000000000000000000000003825Z01620200326X066000000
2MAIL0000151026BR10        BRNC        BRNCCOCO    BRNCCOCO13AG00000800000000001236898000000000000000200000000000000000000000004345Z01620200326X066000000
2MAIL0000151026BR10        BRNC        BRNCCOCO    BRNCCOCO13AG00000900000000001239688600000000000001400000000000000000000000005343Z01620200326X066000000
2MAIL0000151026BR10        BRNC        BRNCCOCO    BRNCCOCO13AG00001000000000001239692100000000000001400000000000000000000000005343Z01620200326X066000000
2MAIL0000151026BR10        BRNC        BRNCCOCO    BRNCCOCO13AG00001100000000001239692300000000000001400000000000000000000000005343Z01620200326X066000000
2MAIL0000151026BR10        BRNC        BRNCCOCO    BRNCCOCO13AG00001200000000001241623700000000000000200000000000000000000000005173Z01620200326X066000000
