1MAIL0000151093BR10        BRNC        BRNCCOCO    BRNCCOCO13AG2020032600:00:00OR  010000030595430003059543151093                             2020032620200326Z016CIF202003260000000000087705NN0                                                  0                                        
2MAIL0000151093BR10        BRNC        BRNCCOCO    BRNCCOCO13AG00000100000000001132019700000000000000100000000000000000000000001967Z01620200326X066000000
2MAIL0000151093BR10        BRNC        BRNCCOCO    BRNCCOCO13AG00000200000000001132019800000000000000100000000000000000000000001967Z01620200326X066000000
2MAIL0000151093BR10        BRNC        BRNCCOCO    BRNCCOCO13AG00000300000000001132019900000000000000100000000000000000000000001967Z01620200326X066000000
2MAIL0000151093BR10        BRNC        BRNCCOCO    BRNCCOCO13AG00000400000000001132020900000000000000100000000000000000000000001967Z01620200326X066000000
2MAIL0000151093BR10        BRNC        BRNCCOCO    BRNCCOCO13AG00000500000000001132033100000000000000100000000000000000000000002173Z01620200326X066000000
2MAIL0000151093BR10        BRNC        BRNCCOCO    BRNCCOCO13AG00000600000000001132036700000000000000300000000000000000000000006518Z01620200326X066000000
2MAIL0000151093BR10        BRNC        BRNCCOCO    BRNCCOCO13AG00000700000000001132400100000000000000100000000000000000000000003003Z01620200326X066000000
2MAIL0000151093BR10        BRNC        BRNCCOCO    BRNCCOCO13AG00000800000000001215533700000000000000100000000000000000000000002173Z01620200326X066000000
2MAIL0000151093BR10        BRNC        BRNCCOCO    BRNCCOCO13AG00000900000000001221415400000000000000100000000000000000000000003541Z01620200326X066000000
2MAIL0000151093BR10        BRNC        BRNCCOCO    BRNCCOCO13AG00001000000000001224882800000000000000100000000000000000000000003159Z01620200326X066000000
2MAIL0000151093BR10        BRNC        BRNCCOCO    BRNCCOCO13AG00001100000000001227395500000000000000100000000000000000000000002173Z01620200326X066000000
2MAIL0000151093BR10        BRNC        BRNCCOCO    BRNCCOCO13AG00001200000000001227735000000000000000100000000000000000000000001967Z01620200326X066000000
2MAIL0000151093BR10        BRNC        BRNCCOCO    BRNCCOCO13AG00001300000000001231231200000000000000100000000000000000000000005280Z01620200326X066000000
2MAIL0000151093BR10        BRNC        BRNCCOCO    BRNCCOCO13AG00001400000000001231389600000000000000100000000000000000000000002173Z01620200326X066000000
2MAIL0000151093BR10        BRNC        BRNCCOCO    BRNCCOCO13AG00001500000000001235699400000000000001000000000000000000000000003995Z01620200326X066000000
2MAIL0000151093BR10        BRNC        BRNCCOCO    BRNCCOCO13AG00001600000000001235699700000000000001000000000000000000000000003995Z01620200326X066000000
2MAIL0000151093BR10        BRNC        BRNCCOCO    BRNCCOCO13AG00001700000000001235699800000000000001000000000000000000000000003995Z01620200326X066000000
2MAIL0000151093BR10        BRNC        BRNCCOCO    BRNCCOCO13AG00001800000000001239688300000000000001400000000000000000000000005582Z01620200326X066000000
2MAIL0000151093BR10        BRNC        BRNCCOCO    BRNCCOCO13AG00001900000000001239688500000000000001400000000000000000000000005582Z01620200326X066000000
2MAIL0000151093BR10        BRNC        BRNCCOCO    BRNCCOCO13AG00002000000000001239688700000000000001400000000000000000000000005582Z01620200326X066000000
2MAIL0000151093BR10        BRNC        BRNCCOCO    BRNCCOCO13AG00002100000000001239692000000000000001400000000000000000000000005582Z01620200326X066000000
2MAIL0000151093BR10        BRNC        BRNCCOCO    BRNCCOCO13AG00002200000000001239692100000000000001400000000000000000000000005582Z01620200326X066000000
2MAIL0000151093BR10        BRNC        BRNCCOCO    BRNCCOCO13AG00002300000000001239692300000000000001400000000000000000000000005582Z01620200326X066000000
2MAIL0000151093BR10        BRNC        BRNCCOCO    BRNCCOCO13AG00002400000000001240924900000000000001200000000000000000000000002200Z01620200326X066000000
