1MAIL0000152694BR10        BRNC        BRNCCOCO    BRNCCOCO13AG2020040900:00:00OR  010000029006830002900683152694                             2020040920200409Z016CIF202004090000000000006872NN0                                                  0                                        
2MAIL0000152694BR10        BRNC        BRNCCOCO    BRNCCOCO13AG00000100000000001132036700000000000000300000000000000000000000006872Z01620200409X066000000
1MAIL0000152695BR10        BRNC        BRNCCOCO    BRNCCOCO13AG2020040900:00:00OR  010000038774590003877459152695                             2020040920200409Z016CIF202004090000000000101548NN0                                                  0                                        
2MAIL0000152695BR10        BRNC        BRNCCOCO    BRNCCOCO13AG00000100000000001132020900000000000000100000000000000000000000001924Z01620200409X066000000
2MAIL0000152695BR10        BRNC        BRNCCOCO    BRNCCOCO13AG00000200000000001132033100000000000000300000000000000000000000006375Z01620200409X066000000
2MAIL0000152695BR10        BRNC        BRNCCOCO    BRNCCOCO13AG00000300000000001132036700000000000000300000000000000000000000006375Z01620200409X066000000
2MAIL0000152695BR10        BRNC        BRNCCOCO    BRNCCOCO13AG00000400000000001221415400000000000000100000000000000000000000003463Z01620200409X066000000
2MAIL0000152695BR10        BRNC        BRNCCOCO    BRNCCOCO13AG00000500000000001227395500000000000000300000000000000000000000006375Z01620200409X066000000
2MAIL0000152695BR10        BRNC        BRNCCOCO    BRNCCOCO13AG00000600000000001231189200000000000000200000000000000000000000009930Z01620200409X066000000
2MAIL0000152695BR10        BRNC        BRNCCOCO    BRNCCOCO13AG00000700000000001239688500000000000002800000000000000000000000010452Z01620200409X066000000
2MAIL0000152695BR10        BRNC        BRNCCOCO    BRNCCOCO13AG00000800000000001239688600000000000002800000000000000000000000010452Z01620200409X066000000
2MAIL0000152695BR10        BRNC        BRNCCOCO    BRNCCOCO13AG00000900000000001239688800000000000002800000000000000000000000010452Z01620200409X066000000
2MAIL0000152695BR10        BRNC        BRNCCOCO    BRNCCOCO13AG00001000000000001239692100000000000002800000000000000000000000010452Z01620200409X066000000
2MAIL0000152695BR10        BRNC        BRNCCOCO    BRNCCOCO13AG00001100000000001241623700000000000001000000000000000000000000025298Z01620200409X066000000
1MAIL0000152696BR10        BRNC        BRNCCOCO    BRNCCOCO13AG2020040900:00:00OR  010000044093800004409380152696                             2020040920200409Z016CIF202004090000000000030082NN0                                                  0                                        
2MAIL0000152696BR10        BRNC        BRNCCOCO    BRNCCOCO13AG00000100000000001132018300000000000000100000000000000000000000003735Z01620200409X066000000
2MAIL0000152696BR10        BRNC        BRNCCOCO    BRNCCOCO13AG00000200000000001132036700000000000000100000000000000000000000002291Z01620200409X066000000
2MAIL0000152696BR10        BRNC        BRNCCOCO    BRNCCOCO13AG00000300000000001132200400000000000000800000000000000000000000017840Z01620200409X066000000
2MAIL0000152696BR10        BRNC        BRNCCOCO    BRNCCOCO13AG00000400000000001221415400000000000000100000000000000000000000003735Z01620200409X066000000
2MAIL0000152696BR10        BRNC        BRNCCOCO    BRNCCOCO13AG00000500000000001241623700000000000000100000000000000000000000002481Z01620200409X066000000
