1MAIL0000151461BR10        BRNC        BRNCCOCO    BRNCCOCO13AG2020033000:00:00OR  010000028815430002881543151461                             2020033020200330Z016CIF202003300000000000057797NN0                                                  0                                        
2MAIL0000151461BR10        BRNC        BRNCCOCO    BRNCCOCO13AG00000100000000001132019700000000000000100000000000000000000000001967Z01620200330X066000000
2MAIL0000151461BR10        BRNC        BRNCCOCO    BRNCCOCO13AG00000200000000001132019900000000000000100000000000000000000000001967Z01620200330X066000000
2MAIL0000151461BR10        BRNC        BRNCCOCO    BRNCCOCO13AG00000300000000001132033100000000000000300000000000000000000000006518Z01620200330X066000000
2MAIL0000151461BR10        BRNC        BRNCCOCO    BRNCCOCO13AG00000400000000001132036700000000000000300000000000000000000000006518Z01620200330X066000000
2MAIL0000151461BR10        BRNC        BRNCCOCO    BRNCCOCO13AG00000500000000001231189200000000000000100000000000000000000000005280Z01620200330X066000000
2MAIL0000151461BR10        BRNC        BRNCCOCO    BRNCCOCO13AG00000600000000001236512900000000000000500000000000000000000000000999Z01620200330X066000000
2MAIL0000151461BR10        BRNC        BRNCCOCO    BRNCCOCO13AG00000700000000001236515000000000000001000000000000000000000000001997Z01620200330X066000000
2MAIL0000151461BR10        BRNC        BRNCCOCO    BRNCCOCO13AG00000800000000001241577400000000000003000000000000000000000000027367Z01620200330X066000000
2MAIL0000151461BR10        BRNC        BRNCCOCO    BRNCCOCO13AG00000900000000001241623700000000000000200000000000000000000000005184Z01620200330X066000000
1MAIL0000151462BR10        BRNC        BRNCCOCO    BRNCCOCO13AG2020033000:00:00OR  010000048705850004870585151462                             2020033020200330Z016CIF202003300000000000017063NN0                                                  0                                        
2MAIL0000151462BR10        BRNC        BRNCCOCO    BRNCCOCO13AG00000100000000001132019800000000000000100000000000000000000000002076Z01620200330X066000000
2MAIL0000151462BR10        BRNC        BRNCCOCO    BRNCCOCO13AG00000200000000001132033100000000000000100000000000000000000000002291Z01620200330X066000000
2MAIL0000151462BR10        BRNC        BRNCCOCO    BRNCCOCO13AG00000300000000001132036700000000000000200000000000000000000000004581Z01620200330X066000000
2MAIL0000151462BR10        BRNC        BRNCCOCO    BRNCCOCO13AG00000400000000001132200400000000000000100000000000000000000000002230Z01620200330X066000000
2MAIL0000151462BR10        BRNC        BRNCCOCO    BRNCCOCO13AG00000500000000001239688800000000000001400000000000000000000000005885Z01620200330X066000000
1MAIL0000151463BR10        BRNC        BRNCCOCO    BRNCCOCO13AG2020033000:00:00OR  010000033373270003337327151463                             2020033020200330Z016CIF202003300000000000055437NN0                                                  0                                        
2MAIL0000151463BR10        BRNC        BRNCCOCO    BRNCCOCO13AG00000100000000001132018300000000000000100000000000000000000000003735Z01620200330X066000000
2MAIL0000151463BR10        BRNC        BRNCCOCO    BRNCCOCO13AG00000200000000001132033100000000000000500000000000000000000000011454Z01620200330X066000000
2MAIL0000151463BR10        BRNC        BRNCCOCO    BRNCCOCO13AG00000300000000001132036700000000000001000000000000000000000000022909Z01620200330X066000000
2MAIL0000151463BR10        BRNC        BRNCCOCO    BRNCCOCO13AG00000400000000001215533700000000000000500000000000000000000000011454Z01620200330X066000000
2MAIL0000151463BR10        BRNC        BRNCCOCO    BRNCCOCO13AG00000500000000001239663300000000000001400000000000000000000000005885Z01620200330X066000000
1MAIL0000151464BR10        BRNC        BRNCCOCO    BRNCCOCO13AG2020033000:00:00OR  010000061132370006113237151464                             2020033020200330Z016CIF202003300000000000019337NN0                                                  0                                        
2MAIL0000151464BR10        BRNC        BRNCCOCO    BRNCCOCO13AG00000100000000001132018300000000000000100000000000000000000000003027Z01620200330X066000000
2MAIL0000151464BR10        BRNC        BRNCCOCO    BRNCCOCO13AG00000200000000001132036700000000000000100000000000000000000000001886Z01620200330X066000000
2MAIL0000151464BR10        BRNC        BRNCCOCO    BRNCCOCO13AG00000300000000001132200400000000000000100000000000000000000000001823Z01620200330X066000000
2MAIL0000151464BR10        BRNC        BRNCCOCO    BRNCCOCO13AG00000400000000001221415400000000000000100000000000000000000000003027Z01620200330X066000000
2MAIL0000151464BR10        BRNC        BRNCCOCO    BRNCCOCO13AG00000500000000001236512900000000000001000000000000000000000000001717Z01620200330X066000000
2MAIL0000151464BR10        BRNC        BRNCCOCO    BRNCCOCO13AG00000600000000001236515000000000000002000000000000000000000000003433Z01620200330X066000000
2MAIL0000151464BR10        BRNC        BRNCCOCO    BRNCCOCO13AG00000700000000001241623700000000000000200000000000000000000000004424Z01620200330X066000000
1MAIL0000151465BR10        BRNC        BRNCCOCO    BRNCCOCO13AG2020033000:00:00OR  010000042723100004272310151465                             2020033020200330Z016CIF202003300000000000018328NN0                                                  0                                        
2MAIL0000151465BR10        BRNC        BRNCCOCO    BRNCCOCO13AG00000100000000001132033100000000000000100000000000000000000000002173Z01620200330X066000000
2MAIL0000151465BR10        BRNC        BRNCCOCO    BRNCCOCO13AG00000200000000001132036700000000000000100000000000000000000000002173Z01620200330X066000000
2MAIL0000151465BR10        BRNC        BRNCCOCO    BRNCCOCO13AG00000300000000001236515000000000000007000000000000000000000000013982Z01620200330X066000000
1MAIL0000151466BR10        BRNC        BRNCCOCO    BRNCCOCO13AG2020033000:00:00OR  010000028768220002876822151466                             2020033020200330Z016CIF202003300000000000013457NN0                                                  0                                        
2MAIL0000151466BR10        BRNC        BRNCCOCO    BRNCCOCO13AG00000100000000001132033100000000000000200000000000000000000000004581Z01620200330X066000000
2MAIL0000151466BR10        BRNC        BRNCCOCO    BRNCCOCO13AG00000200000000001132036700000000000000200000000000000000000000004581Z01620200330X066000000
2MAIL0000151466BR10        BRNC        BRNCCOCO    BRNCCOCO13AG00000300000000001215533700000000000000100000000000000000000000002291Z01620200330X066000000
2MAIL0000151466BR10        BRNC        BRNCCOCO    BRNCCOCO13AG00000400000000001236515000000000000001000000000000000000000000002004Z01620200330X066000000
1MAIL0000151467BR10        BRNC        BRNCCOCO    BRNCCOCO13AG2020033000:00:00OR  010000042960450004296045151467                             2020033020200330Z016CIF202003300000000000006872NN0                                                  0                                        
2MAIL0000151467BR10        BRNC        BRNCCOCO    BRNCCOCO13AG00000100000000001132033100000000000000100000000000000000000000002291Z01620200330X066000000
2MAIL0000151467BR10        BRNC        BRNCCOCO    BRNCCOCO13AG00000200000000001132036700000000000000200000000000000000000000004581Z01620200330X066000000
1MAIL0000151468BR10        BRNC        BRNCCOCO    BRNCCOCO13AG2020033000:00:00OR  010000055091210005509121151468                             2020033020200330Z016CIF202003300000000000044627NN0                                                  0                                        
2MAIL0000151468BR10        BRNC        BRNCCOCO    BRNCCOCO13AG00000100000000001132036700000000000000200000000000000000000000004581Z01620200330X066000000
2MAIL0000151468BR10        BRNC        BRNCCOCO    BRNCCOCO13AG00000200000000001236512800000000000003200000000000000000000000006101Z01620200330X066000000
2MAIL0000151468BR10        BRNC        BRNCCOCO    BRNCCOCO13AG00000300000000001236512900000000000007000000000000000000000000014030Z01620200330X066000000
2MAIL0000151468BR10        BRNC        BRNCCOCO    BRNCCOCO13AG00000400000000001236515000000000000007000000000000000000000000014030Z01620200330X066000000
2MAIL0000151468BR10        BRNC        BRNCCOCO    BRNCCOCO13AG00000500000000001239688800000000000001400000000000000000000000005885Z01620200330X066000000
1MAIL0000151469BR10        BRNC        BRNCCOCO    BRNCCOCO13AG2020033000:00:00OR  010000052233610005223361151469                             2020033020200330Z016CIF202003300000000000067726NN0                                                  0                                        
2MAIL0000151469BR10        BRNC        BRNCCOCO    BRNCCOCO13AG00000100000000001226089600000000000001200000000000000000000000005045Z01620200330X066000000
2MAIL0000151469BR10        BRNC        BRNCCOCO    BRNCCOCO13AG00000200000000001231189200000000000000100000000000000000000000005568Z01620200330X066000000
2MAIL0000151469BR10        BRNC        BRNCCOCO    BRNCCOCO13AG00000300000000001231231200000000000000100000000000000000000000005568Z01620200330X066000000
2MAIL0000151469BR10        BRNC        BRNCCOCO    BRNCCOCO13AG00000400000000001235699400000000000001000000000000000000000000004211Z01620200330X066000000
2MAIL0000151469BR10        BRNC        BRNCCOCO    BRNCCOCO13AG00000500000000001236512900000000000003000000000000000000000000006012Z01620200330X066000000
2MAIL0000151469BR10        BRNC        BRNCCOCO    BRNCCOCO13AG00000600000000001236515000000000000003000000000000000000000000006012Z01620200330X066000000
2MAIL0000151469BR10        BRNC        BRNCCOCO    BRNCCOCO13AG00000700000000001239663300000000000001400000000000000000000000005885Z01620200330X066000000
2MAIL0000151469BR10        BRNC        BRNCCOCO    BRNCCOCO13AG00000800000000001239688600000000000001400000000000000000000000005885Z01620200330X066000000
2MAIL0000151469BR10        BRNC        BRNCCOCO    BRNCCOCO13AG00000900000000001239688800000000000001400000000000000000000000005885Z01620200330X066000000
2MAIL0000151469BR10        BRNC        BRNCCOCO    BRNCCOCO13AG00001000000000001239692000000000000001400000000000000000000000005885Z01620200330X066000000
2MAIL0000151469BR10        BRNC        BRNCCOCO    BRNCCOCO13AG00001100000000001239692100000000000001400000000000000000000000005885Z01620200330X066000000
2MAIL0000151469BR10        BRNC        BRNCCOCO    BRNCCOCO13AG00001200000000001239692300000000000001400000000000000000000000005885Z01620200330X066000000
1MAIL0000151470BR10        BRNC        BRNCCOCO    BRNCCOCO13AG2020033000:00:00OR  010000029799340002979934151470                             2020033020200330Z016CIF202003300000000000021862NN0                                                  0                                        
2MAIL0000151470BR10        BRNC        BRNCCOCO    BRNCCOCO13AG00000100000000001132019800000000000000100000000000000000000000002076Z01620200330X066000000
2MAIL0000151470BR10        BRNC        BRNCCOCO    BRNCCOCO13AG00000200000000001236512900000000000002000000000000000000000000004008Z01620200330X066000000
2MAIL0000151470BR10        BRNC        BRNCCOCO    BRNCCOCO13AG00000300000000001236515000000000000002000000000000000000000000004008Z01620200330X066000000
2MAIL0000151470BR10        BRNC        BRNCCOCO    BRNCCOCO13AG00000400000000001239688800000000000001400000000000000000000000005885Z01620200330X066000000
2MAIL0000151470BR10        BRNC        BRNCCOCO    BRNCCOCO13AG00000500000000001239692100000000000001400000000000000000000000005885Z01620200330X066000000
1MAIL0000151471BR10        BRNC        BRNCCOCO    BRNCCOCO13AG2020033000:00:00OR  010000032385080003238508151471                             2020033020200330Z016CIF202003300000000000024527NN0                                                  0                                        
2MAIL0000151471BR10        BRNC        BRNCCOCO    BRNCCOCO13AG00000100000000001132033100000000000000100000000000000000000000002291Z01620200330X066000000
2MAIL0000151471BR10        BRNC        BRNCCOCO    BRNCCOCO13AG00000200000000001132036700000000000000200000000000000000000000004581Z01620200330X066000000
2MAIL0000151471BR10        BRNC        BRNCCOCO    BRNCCOCO13AG00000300000000001239688800000000000001400000000000000000000000005885Z01620200330X066000000
2MAIL0000151471BR10        BRNC        BRNCCOCO    BRNCCOCO13AG00000400000000001239692000000000000001400000000000000000000000005885Z01620200330X066000000
2MAIL0000151471BR10        BRNC        BRNCCOCO    BRNCCOCO13AG00000500000000001239692100000000000001400000000000000000000000005885Z01620200330X066000000
1MAIL0000151472BR10        BRNC        BRNCCOCO    BRNCCOCO13AG2020033000:00:00OR  010000047630050004763005151472                             2020033020200330Z016CIF202003300000000000042881NN0                                                  0                                        
2MAIL0000151472BR10        BRNC        BRNCCOCO    BRNCCOCO13AG00000100000000001236512900000000000003500000000000000000000000007014Z01620200330X066000000
2MAIL0000151472BR10        BRNC        BRNCCOCO    BRNCCOCO13AG00000200000000001236515000000000000003500000000000000000000000007014Z01620200330X066000000
2MAIL0000151472BR10        BRNC        BRNCCOCO    BRNCCOCO13AG00000300000000001241577400000000000003000000000000000000000000028853Z01620200330X066000000
1MAIL0000151473BR10        BRNC        BRNCCOCO    BRNCCOCO13AG2020033000:00:00OR  010000054511690005451169151473                             2020033020200330Z016CIF202003300000000000020061NN0                                                  0                                        
2MAIL0000151473BR10        BRNC        BRNCCOCO    BRNCCOCO13AG00000100000000001132033100000000000000100000000000000000000000001654Z01620200330X066000000
2MAIL0000151473BR10        BRNC        BRNCCOCO    BRNCCOCO13AG00000200000000001132036700000000000000100000000000000000000000001654Z01620200330X066000000
2MAIL0000151473BR10        BRNC        BRNCCOCO    BRNCCOCO13AG00000300000000001132200400000000000000200000000000000000000000004230Z01620200330X066000000
2MAIL0000151473BR10        BRNC        BRNCCOCO    BRNCCOCO13AG00000400000000001226089600000000000001200000000000000000000000004015Z01620200330X066000000
2MAIL0000151473BR10        BRNC        BRNCCOCO    BRNCCOCO13AG00000500000000001236512900000000000001000000000000000000000000001912Z01620200330X066000000
2MAIL0000151473BR10        BRNC        BRNCCOCO    BRNCCOCO13AG00000600000000001236515000000000000001000000000000000000000000001912Z01620200330X066000000
2MAIL0000151473BR10        BRNC        BRNCCOCO    BRNCCOCO13AG00000700000000001239688600000000000001400000000000000000000000004684Z01620200330X066000000
1MAIL0000151474BR10        BRNC        BRNCCOCO    BRNCCOCO13AG2020033000:00:00OR  010000054511690005451169151474                             2020033020200330Z016CIF202003300000000000149885NN0                                                  0                                        
2MAIL0000151474BR10        BRNC        BRNCCOCO    BRNCCOCO13AG00000100000000001226089600000000000002400000000000000000000000008029Z01620200330X066000000
2MAIL0000151474BR10        BRNC        BRNCCOCO    BRNCCOCO13AG00000200000000001236512900000000000007000000000000000000000000013390Z01620200330X066000000
2MAIL0000151474BR10        BRNC        BRNCCOCO    BRNCCOCO13AG00000300000000001236515000000000000007000000000000000000000000013390Z01620200330X066000000
2MAIL0000151474BR10        BRNC        BRNCCOCO    BRNCCOCO13AG00000400000000001239663300000000000002800000000000000000000000009366Z01620200330X066000000
2MAIL0000151474BR10        BRNC        BRNCCOCO    BRNCCOCO13AG00000500000000001239688600000000000002800000000000000000000000009366Z01620200330X066000000
2MAIL0000151474BR10        BRNC        BRNCCOCO    BRNCCOCO13AG00000600000000001239688800000000000002800000000000000000000000009366Z01620200330X066000000
2MAIL0000151474BR10        BRNC        BRNCCOCO    BRNCCOCO13AG00000700000000001239692100000000000002800000000000000000000000009366Z01620200330X066000000
2MAIL0000151474BR10        BRNC        BRNCCOCO    BRNCCOCO13AG00000800000000001241577400000000000009000000000000000000000000068246Z01620200330X066000000
2MAIL0000151474BR10        BRNC        BRNCCOCO    BRNCCOCO13AG00000900000000001242626100000000000002800000000000000000000000009366Z01620200330X066000000
1MAIL0000151475BR10        BRNC        BRNCCOCO    BRNCCOCO13AG2020033000:00:00OR  010000050539330005053933151475                             2020033020200330Z016CIF202003300000000000006872NN0                                                  0                                        
2MAIL0000151475BR10        BRNC        BRNCCOCO    BRNCCOCO13AG00000100000000001132036700000000000000200000000000000000000000004581Z01620200330X066000000
2MAIL0000151475BR10        BRNC        BRNCCOCO    BRNCCOCO13AG00000200000000001231389600000000000000100000000000000000000000002291Z01620200330X066000000
1MAIL0000151476BR10        BRNC        BRNCCOCO    BRNCCOCO13AG2020033000:00:00OR  010000038321950003832195151476                             2020033020200330Z016CIF202003300000000000014639NN0                                                  0                                        
2MAIL0000151476BR10        BRNC        BRNCCOCO    BRNCCOCO13AG00000100000000001132036700000000000000200000000000000000000000004345Z01620200330X066000000
2MAIL0000151476BR10        BRNC        BRNCCOCO    BRNCCOCO13AG00000200000000001132200400000000000000100000000000000000000000002115Z01620200330X066000000
2MAIL0000151476BR10        BRNC        BRNCCOCO    BRNCCOCO13AG00000300000000001132400100000000000000200000000000000000000000006006Z01620200330X066000000
2MAIL0000151476BR10        BRNC        BRNCCOCO    BRNCCOCO13AG00000400000000001227395500000000000000100000000000000000000000002173Z01620200330X066000000
1MAIL0000151477BR10        BRNC        BRNCCOCO    BRNCCOCO13AG2020033000:00:00OR  010000038268350003826835151477                             2020033020200330Z016CIF202003300000000000016011NN0                                                  0                                        
2MAIL0000151477BR10        BRNC        BRNCCOCO    BRNCCOCO13AG00000100000000001132036700000000000000200000000000000000000000004345Z01620200330X066000000
2MAIL0000151477BR10        BRNC        BRNCCOCO    BRNCCOCO13AG00000200000000001236512800000000000000400000000000000000000000000760Z01620200330X066000000
2MAIL0000151477BR10        BRNC        BRNCCOCO    BRNCCOCO13AG00000300000000001236512900000000000000500000000000000000000000000999Z01620200330X066000000
2MAIL0000151477BR10        BRNC        BRNCCOCO    BRNCCOCO13AG00000400000000001236515000000000000000500000000000000000000000000999Z01620200330X066000000
2MAIL0000151477BR10        BRNC        BRNCCOCO    BRNCCOCO13AG00000500000000001239688800000000000001400000000000000000000000005582Z01620200330X066000000
2MAIL0000151477BR10        BRNC        BRNCCOCO    BRNCCOCO13AG00000600000000001240924900000000000000400000000000000000000000000734Z01620200330X066000000
2MAIL0000151477BR10        BRNC        BRNCCOCO    BRNCCOCO13AG00000700000000001241623700000000000000100000000000000000000000002592Z01620200330X066000000
1MAIL0000151478BR10        BRNC        BRNCCOCO    BRNCCOCO13AG2020033000:00:00OR  010000056927120005692712151478                             2020033020200330Z138CIF202003300000000000002157NN0                                                  0                                        
2MAIL0000151478BR10        BRNC        BRNCCOCO    BRNCCOCO13AG00000100000000001132036700000000000000100000000000000000000000002157Z13820200330X066000000
1MAIL0000151479BR10        BRNC        BRNCCOCO    BRNCCOCO13AG2020033000:00:00OR  010000034732930003473293151479                             2020033020200330Z016CIF202003300000000000019187NN0                                                  0                                        
2MAIL0000151479BR10        BRNC        BRNCCOCO    BRNCCOCO13AG00000100000000001132019700000000000000100000000000000000000000001973Z01620200330X066000000
2MAIL0000151479BR10        BRNC        BRNCCOCO    BRNCCOCO13AG00000200000000001132019800000000000000100000000000000000000000001973Z01620200330X066000000
2MAIL0000151479BR10        BRNC        BRNCCOCO    BRNCCOCO13AG00000300000000001132019900000000000000100000000000000000000000001973Z01620200330X066000000
2MAIL0000151479BR10        BRNC        BRNCCOCO    BRNCCOCO13AG00000400000000001132020900000000000000100000000000000000000000001973Z01620200330X066000000
2MAIL0000151479BR10        BRNC        BRNCCOCO    BRNCCOCO13AG00000500000000001132200400000000000000100000000000000000000000002120Z01620200330X066000000
2MAIL0000151479BR10        BRNC        BRNCCOCO    BRNCCOCO13AG00000600000000001132400100000000000000100000000000000000000000003010Z01620200330X066000000
2MAIL0000151479BR10        BRNC        BRNCCOCO    BRNCCOCO13AG00000700000000001227735000000000000000100000000000000000000000001973Z01620200330X066000000
2MAIL0000151479BR10        BRNC        BRNCCOCO    BRNCCOCO13AG00000800000000001236512900000000000001000000000000000000000000002096Z01620200330X066000000
2MAIL0000151479BR10        BRNC        BRNCCOCO    BRNCCOCO13AG00000900000000001236515000000000000001000000000000000000000000002096Z01620200330X066000000
1MAIL0000151480BR10        BRNC        BRNCCOCO    BRNCCOCO13AG2020033000:00:00OR  010000046922930004692293151480                             2020033020200330Z016CIF202003300000000000025886NN0                                                  0                                        
2MAIL0000151480BR10        BRNC        BRNCCOCO    BRNCCOCO13AG00000100000000001132019900000000000000100000000000000000000000001967Z01620200330X066000000
2MAIL0000151480BR10        BRNC        BRNCCOCO    BRNCCOCO13AG00000200000000001132036700000000000000300000000000000000000000006518Z01620200330X066000000
2MAIL0000151480BR10        BRNC        BRNCCOCO    BRNCCOCO13AG00000300000000001215533700000000000000100000000000000000000000002173Z01620200330X066000000
2MAIL0000151480BR10        BRNC        BRNCCOCO    BRNCCOCO13AG00000400000000001228512700000000000000100000000000000000000000005076Z01620200330X066000000
2MAIL0000151480BR10        BRNC        BRNCCOCO    BRNCCOCO13AG00000500000000001231189200000000000000100000000000000000000000005076Z01620200330X066000000
2MAIL0000151480BR10        BRNC        BRNCCOCO    BRNCCOCO13AG00000600000000001231231200000000000000100000000000000000000000005076Z01620200330X066000000
1MAIL0000151481BR10        BRNC        BRNCCOCO    BRNCCOCO13AG2020033000:00:00OR  010000057066690005706669151481                             2020033020200330Z016CIF202003300000000000022309NN0                                                  0                                        
2MAIL0000151481BR10        BRNC        BRNCCOCO    BRNCCOCO13AG00000100000000001132033100000000000000100000000000000000000000002173Z01620200330X066000000
2MAIL0000151481BR10        BRNC        BRNCCOCO    BRNCCOCO13AG00000200000000001231189200000000000000100000000000000000000000005280Z01620200330X066000000
2MAIL0000151481BR10        BRNC        BRNCCOCO    BRNCCOCO13AG00000300000000001231231200000000000000100000000000000000000000005280Z01620200330X066000000
2MAIL0000151481BR10        BRNC        BRNCCOCO    BRNCCOCO13AG00000400000000001236512900000000000001000000000000000000000000001997Z01620200330X066000000
2MAIL0000151481BR10        BRNC        BRNCCOCO    BRNCCOCO13AG00000500000000001236515000000000000001000000000000000000000000001997Z01620200330X066000000
2MAIL0000151481BR10        BRNC        BRNCCOCO    BRNCCOCO13AG00000600000000001239688600000000000001400000000000000000000000005582Z01620200330X066000000
1MAIL0000151482BR10        BRNC        BRNCCOCO    BRNCCOCO13AG2020033000:00:00OR  010000058449580005844958151482                             2020033020200330Z016CIF202003300000000000046419NN0                                                  0                                        
2MAIL0000151482BR10        BRNC        BRNCCOCO    BRNCCOCO13AG00000100000000001132036700000000000000100000000000000000000000002291Z01620200330X066000000
2MAIL0000151482BR10        BRNC        BRNCCOCO    BRNCCOCO13AG00000200000000001236512800000000000005200000000000000000000000009914Z01620200330X066000000
2MAIL0000151482BR10        BRNC        BRNCCOCO    BRNCCOCO13AG00000300000000001236512900000000000002000000000000000000000000004008Z01620200330X066000000
2MAIL0000151482BR10        BRNC        BRNCCOCO    BRNCCOCO13AG00000400000000001236515000000000000002000000000000000000000000004008Z01620200330X066000000
2MAIL0000151482BR10        BRNC        BRNCCOCO    BRNCCOCO13AG00000500000000001239663300000000000001400000000000000000000000005885Z01620200330X066000000
2MAIL0000151482BR10        BRNC        BRNCCOCO    BRNCCOCO13AG00000600000000001239688600000000000001400000000000000000000000005885Z01620200330X066000000
2MAIL0000151482BR10        BRNC        BRNCCOCO    BRNCCOCO13AG00000700000000001241577400000000000001500000000000000000000000014428Z01620200330X066000000
1MAIL0000151483BR10        BRNC        BRNCCOCO    BRNCCOCO13AG2020033000:00:00OR  010000061454130006145413151483                             2020033020200330Z016CIF202003300000000000004482NN0                                                  0                                        
2MAIL0000151483BR10        BRNC        BRNCCOCO    BRNCCOCO13AG00000100000000001132033100000000000000100000000000000000000000002241Z01620200330X066000000
2MAIL0000151483BR10        BRNC        BRNCCOCO    BRNCCOCO13AG00000200000000001132036700000000000000100000000000000000000000002241Z01620200330X066000000
1MAIL0000151484BR10        BRNC        BRNCCOCO    BRNCCOCO13AG2020033000:00:00OR  010000036283040003628304151484                             2020033020200330Z016CIF202003300000000000005885NN0                                                  0                                        
2MAIL0000151484BR10        BRNC        BRNCCOCO    BRNCCOCO13AG00000100000000001239688800000000000001400000000000000000000000005885Z01620200330X066000000
1MAIL0000151485BR10        BRNC        BRNCCOCO    BRNCCOCO13AG2020033000:00:00OR  010000060322430006032243151485                             2020033020200330Z016CIF202003300000000000011211NN0                                                  0                                        
2MAIL0000151485BR10        BRNC        BRNCCOCO    BRNCCOCO13AG00000100000000001132036700000000000000100000000000000000000000002291Z01620200330X066000000
2MAIL0000151485BR10        BRNC        BRNCCOCO    BRNCCOCO13AG00000200000000001132200400000000000000400000000000000000000000008920Z01620200330X066000000
1MAIL0000151486BR10        BRNC        BRNCCOCO    BRNCCOCO13AG2020033000:00:00OR  010000034687470003468747151486                             2020033020200330Z016CIF202003300000000000254907NN0                                                  0                                        
2MAIL0000151486BR10        BRNC        BRNCCOCO    BRNCCOCO13AG00000100000000001132019700000000000000100000000000000000000000002076Z01620200330X066000000
2MAIL0000151486BR10        BRNC        BRNCCOCO    BRNCCOCO13AG00000200000000001132019800000000000000100000000000000000000000002076Z01620200330X066000000
2MAIL0000151486BR10        BRNC        BRNCCOCO    BRNCCOCO13AG00000300000000001132019900000000000000100000000000000000000000002076Z01620200330X066000000
2MAIL0000151486BR10        BRNC        BRNCCOCO    BRNCCOCO13AG00000400000000001132020900000000000000100000000000000000000000002076Z01620200330X066000000
2MAIL0000151486BR10        BRNC        BRNCCOCO    BRNCCOCO13AG00000500000000001132033100000000000000500000000000000000000000011454Z01620200330X066000000
2MAIL0000151486BR10        BRNC        BRNCCOCO    BRNCCOCO13AG00000600000000001132036700000000000001500000000000000000000000034362Z01620200330X066000000
2MAIL0000151486BR10        BRNC        BRNCCOCO    BRNCCOCO13AG00000700000000001132200400000000000000500000000000000000000000011150Z01620200330X066000000
2MAIL0000151486BR10        BRNC        BRNCCOCO    BRNCCOCO13AG00000800000000001132400100000000000000100000000000000000000000003165Z01620200330X066000000
2MAIL0000151486BR10        BRNC        BRNCCOCO    BRNCCOCO13AG00000900000000001215533700000000000000500000000000000000000000011454Z01620200330X066000000
2MAIL0000151486BR10        BRNC        BRNCCOCO    BRNCCOCO13AG00001000000000001227735000000000000000100000000000000000000000002076Z01620200330X066000000
2MAIL0000151486BR10        BRNC        BRNCCOCO    BRNCCOCO13AG00001100000000001228274000000000000000100000000000000000000000005568Z01620200330X066000000
2MAIL0000151486BR10        BRNC        BRNCCOCO    BRNCCOCO13AG00001200000000001228512700000000000000100000000000000000000000005568Z01620200330X066000000
2MAIL0000151486BR10        BRNC        BRNCCOCO    BRNCCOCO13AG00001300000000001231189200000000000000100000000000000000000000005568Z01620200330X066000000
2MAIL0000151486BR10        BRNC        BRNCCOCO    BRNCCOCO13AG00001400000000001231233000000000000000100000000000000000000000005568Z01620200330X066000000
2MAIL0000151486BR10        BRNC        BRNCCOCO    BRNCCOCO13AG00001500000000001234705700000000000000100000000000000000000000005568Z01620200330X066000000
2MAIL0000151486BR10        BRNC        BRNCCOCO    BRNCCOCO13AG00001600000000001235699400000000000001000000000000000000000000004211Z01620200330X066000000
2MAIL0000151486BR10        BRNC        BRNCCOCO    BRNCCOCO13AG00001700000000001236512800000000000001200000000000000000000000002288Z01620200330X066000000
2MAIL0000151486BR10        BRNC        BRNCCOCO    BRNCCOCO13AG00001800000000001236512900000000000001000000000000000000000000002004Z01620200330X066000000
2MAIL0000151486BR10        BRNC        BRNCCOCO    BRNCCOCO13AG00001900000000001236515000000000000001000000000000000000000000002004Z01620200330X066000000
2MAIL0000151486BR10        BRNC        BRNCCOCO    BRNCCOCO13AG00002000000000001239688600000000000001400000000000000000000000005885Z01620200330X066000000
2MAIL0000151486BR10        BRNC        BRNCCOCO    BRNCCOCO13AG00002100000000001239692100000000000001400000000000000000000000005885Z01620200330X066000000
2MAIL0000151486BR10        BRNC        BRNCCOCO    BRNCCOCO13AG00002200000000001239692300000000000001400000000000000000000000005885Z01620200330X066000000
2MAIL0000151486BR10        BRNC        BRNCCOCO    BRNCCOCO13AG00002300000000001241577400000000000009000000000000000000000000086561Z01620200330X066000000
2MAIL0000151486BR10        BRNC        BRNCCOCO    BRNCCOCO13AG00002400000000001241623700000000000001000000000000000000000000024811Z01620200330X066000000
2MAIL0000151486BR10        BRNC        BRNCCOCO    BRNCCOCO13AG00002500000000001242374800000000000000100000000000000000000000005568Z01620200330X066000000
1MAIL0000151487BR10        BRNC        BRNCCOCO    BRNCCOCO13AG2020033000:00:00OR  010000057284480005728448151487                             2020033020200330Z016CIF202003300000000000024813NN0                                                  0                                        
2MAIL0000151487BR10        BRNC        BRNCCOCO    BRNCCOCO13AG00000100000000001132033100000000000000200000000000000000000000004581Z01620200330X066000000
2MAIL0000151487BR10        BRNC        BRNCCOCO    BRNCCOCO13AG00000200000000001132036700000000000000200000000000000000000000004581Z01620200330X066000000
2MAIL0000151487BR10        BRNC        BRNCCOCO    BRNCCOCO13AG00000300000000001231389600000000000000200000000000000000000000004581Z01620200330X066000000
2MAIL0000151487BR10        BRNC        BRNCCOCO    BRNCCOCO13AG00000400000000001236512900000000000001000000000000000000000000002004Z01620200330X066000000
2MAIL0000151487BR10        BRNC        BRNCCOCO    BRNCCOCO13AG00000500000000001236515000000000000001000000000000000000000000002004Z01620200330X066000000
2MAIL0000151487BR10        BRNC        BRNCCOCO    BRNCCOCO13AG00000600000000001236898000000000000000200000000000000000000000004581Z01620200330X066000000
2MAIL0000151487BR10        BRNC        BRNCCOCO    BRNCCOCO13AG00000700000000001241623700000000000000100000000000000000000000002481Z01620200330X066000000
1MAIL0000151488BR10        BRNC        BRNCCOCO    BRNCCOCO13AG2020033000:00:00OR  010000028992780002899278151488                             2020033020200330Z016CIF202003300000000000006518NN0                                                  0                                        
2MAIL0000151488BR10        BRNC        BRNCCOCO    BRNCCOCO13AG00000100000000001132036700000000000000300000000000000000000000006518Z01620200330X066000000
1MAIL0000151489BR10        BRNC        BRNCCOCO    BRNCCOCO13AG2020033000:00:00OR  010000037572940003757294151489                             2020033020200330Z016CIF202003300000000000019470NN0                                                  0                                        
2MAIL0000151489BR10        BRNC        BRNCCOCO    BRNCCOCO13AG00000100000000001132036700000000000000500000000000000000000000011454Z01620200330X066000000
2MAIL0000151489BR10        BRNC        BRNCCOCO    BRNCCOCO13AG00000200000000001236512900000000000002000000000000000000000000004008Z01620200330X066000000
2MAIL0000151489BR10        BRNC        BRNCCOCO    BRNCCOCO13AG00000300000000001236515000000000000002000000000000000000000000004008Z01620200330X066000000
1MAIL0000151490BR10        BRNC        BRNCCOCO    BRNCCOCO13AG2020033000:00:00OR  010000058595190005859519151490                             2020033020200330Z016CIF202003300000000000010452NN0                                                  0                                        
2MAIL0000151490BR10        BRNC        BRNCCOCO    BRNCCOCO13AG00000100000000001132019700000000000000100000000000000000000000001967Z01620200330X066000000
2MAIL0000151490BR10        BRNC        BRNCCOCO    BRNCCOCO13AG00000200000000001132019800000000000000100000000000000000000000001967Z01620200330X066000000
2MAIL0000151490BR10        BRNC        BRNCCOCO    BRNCCOCO13AG00000300000000001132033100000000000000100000000000000000000000002173Z01620200330X066000000
2MAIL0000151490BR10        BRNC        BRNCCOCO    BRNCCOCO13AG00000400000000001132036700000000000000200000000000000000000000004345Z01620200330X066000000
1MAIL0000151491BR10        BRNC        BRNCCOCO    BRNCCOCO13AG2020033000:00:00OR  010000041116540004111654151491                             2020033020200330Z016CIF202003300000000001190260NN0                                                  0                                        
2MAIL0000151491BR10        BRNC        BRNCCOCO    BRNCCOCO13AG00000100000000001132004000000000000002000000000000000000000000018971Z01620200330X066000000
2MAIL0000151491BR10        BRNC        BRNCCOCO    BRNCCOCO13AG00000200000000001132400100000000000001200000000000000000000000030772Z01620200330X066000000
2MAIL0000151491BR10        BRNC        BRNCCOCO    BRNCCOCO13AG00000300000000001215533700000000000006400000000000000000000000118066Z01620200330X066000000
2MAIL0000151491BR10        BRNC        BRNCCOCO    BRNCCOCO13AG00000400000000001227395500000000000003200000000000000000000000059033Z01620200330X066000000
2MAIL0000151491BR10        BRNC        BRNCCOCO    BRNCCOCO13AG00000500000000001236512900000000000140000000000000000000000000235111Z01620200330X066000000
2MAIL0000151491BR10        BRNC        BRNCCOCO    BRNCCOCO13AG00000600000000001236898100000000000001200000000000000000000000032174Z01620200330X066000000
2MAIL0000151491BR10        BRNC        BRNCCOCO    BRNCCOCO13AG00000700000000001239373600000000000000800000000000000000000000047100Z01620200330X066000000
2MAIL0000151491BR10        BRNC        BRNCCOCO    BRNCCOCO13AG00000800000000001241623700000000000030000000000000000000000000649033Z01620200330X066000000
1MAIL0000151492BR10        BRNC        BRNCCOCO    BRNCCOCO13AG2020033000:00:00OR  010000056396030005639603151492                             2020033020200330Z016CIF202003300000000000034363NN0                                                  0                                        
2MAIL0000151492BR10        BRNC        BRNCCOCO    BRNCCOCO13AG00000100000000001132033100000000000000500000000000000000000000011454Z01620200330X066000000
2MAIL0000151492BR10        BRNC        BRNCCOCO    BRNCCOCO13AG00000200000000001132036700000000000001000000000000000000000000022909Z01620200330X066000000
1MAIL0000151493BR10        BRNC        BRNCCOCO    BRNCCOCO13AG2020033000:00:00OR  010000049480210004948021151493                             2020033020200330Z016CIF202003300000000000013744NN0                                                  0                                        
2MAIL0000151493BR10        BRNC        BRNCCOCO    BRNCCOCO13AG00000100000000001132033100000000000000200000000000000000000000004581Z01620200330X066000000
2MAIL0000151493BR10        BRNC        BRNCCOCO    BRNCCOCO13AG00000200000000001132036700000000000000400000000000000000000000009163Z01620200330X066000000
1MAIL0000151494BR10        BRNC        BRNCCOCO    BRNCCOCO13AG2020033000:00:00OR  010000040541800004054180151494                             2020033020200330Z016CIF202003300000000000013037NN0                                                  0                                        
2MAIL0000151494BR10        BRNC        BRNCCOCO    BRNCCOCO13AG00000100000000001132033100000000000000200000000000000000000000004345Z01620200330X066000000
2MAIL0000151494BR10        BRNC        BRNCCOCO    BRNCCOCO13AG00000200000000001132036700000000000000400000000000000000000000008692Z01620200330X066000000
1MAIL0000151495BR10        BRNC        BRNCCOCO    BRNCCOCO13AG2020033000:00:00OR  010000053103650005310365151495                             2020033020200330Z016CIF202003300000000000081950NN0                                                  0                                        
2MAIL0000151495BR10        BRNC        BRNCCOCO    BRNCCOCO13AG00000100000000001132019800000000000000100000000000000000000000001498Z01620200330X066000000
2MAIL0000151495BR10        BRNC        BRNCCOCO    BRNCCOCO13AG00000200000000001132019900000000000000100000000000000000000000001498Z01620200330X066000000
2MAIL0000151495BR10        BRNC        BRNCCOCO    BRNCCOCO13AG00000300000000001132033100000000000000200000000000000000000000003307Z01620200330X066000000
2MAIL0000151495BR10        BRNC        BRNCCOCO    BRNCCOCO13AG00000400000000001132036700000000000000500000000000000000000000008268Z01620200330X066000000
2MAIL0000151495BR10        BRNC        BRNCCOCO    BRNCCOCO13AG00000500000000001215533700000000000000200000000000000000000000003307Z01620200330X066000000
2MAIL0000151495BR10        BRNC        BRNCCOCO    BRNCCOCO13AG00000600000000001236512900000000000007000000000000000000000000013390Z01620200330X066000000
2MAIL0000151495BR10        BRNC        BRNCCOCO    BRNCCOCO13AG00000700000000001241577400000000000006000000000000000000000000045498Z01620200330X066000000
2MAIL0000151495BR10        BRNC        BRNCCOCO    BRNCCOCO13AG00000800000000001241623700000000000000200000000000000000000000005184Z01620200330X066000000
1MAIL0000151496BR10        BRNC        BRNCCOCO    BRNCCOCO13AG2020033000:00:00OR  010000046183260004618326151496                             2020033020200330Z016CIF202003300000000000016283NN0                                                  0                                        
2MAIL0000151496BR10        BRNC        BRNCCOCO    BRNCCOCO13AG00000100000000001132018300000000000000100000000000000000000000002601Z01620200330X066003000
2MAIL0000151496BR10        BRNC        BRNCCOCO    BRNCCOCO13AG00000200000000001132019800000000000000100000000000000000000000001453Z01620200330X066003000
2MAIL0000151496BR10        BRNC        BRNCCOCO    BRNCCOCO13AG00000300000000001132033100000000000000100000000000000000000000001603Z01620200330X066003000
2MAIL0000151496BR10        BRNC        BRNCCOCO    BRNCCOCO13AG00000400000000001132036700000000000000100000000000000000000000001603Z01620200330X066003000
2MAIL0000151496BR10        BRNC        BRNCCOCO    BRNCCOCO13AG00000500000000001132200400000000000000100000000000000000000000002052Z01620200330X066003000
2MAIL0000151496BR10        BRNC        BRNCCOCO    BRNCCOCO13AG00000600000000001221415400000000000000100000000000000000000000002601Z01620200330X066003000
2MAIL0000151496BR10        BRNC        BRNCCOCO    BRNCCOCO13AG00000700000000001236512900000000000000500000000000000000000000000928Z01620200330X066003000
2MAIL0000151496BR10        BRNC        BRNCCOCO    BRNCCOCO13AG00000800000000001236515000000000000000500000000000000000000000000928Z01620200330X066003000
2MAIL0000151496BR10        BRNC        BRNCCOCO    BRNCCOCO13AG00000900000000001241623700000000000000100000000000000000000000002514Z01620200330X066003000
1MAIL0000151497BR10        BRNC        BRNCCOCO    BRNCCOCO13AG2020033000:00:00OR  010000043409370004340937151497                             2020033020200330Z016CIF202003300000000000078097NN0                                                  0                                        
2MAIL0000151497BR10        BRNC        BRNCCOCO    BRNCCOCO13AG00000100000000001132004000000000000001000000000000000000000000010202Z01620200330X066000000
2MAIL0000151497BR10        BRNC        BRNCCOCO    BRNCCOCO13AG00000200000000001132004200000000000001000000000000000000000000014065Z01620200330X066000000
2MAIL0000151497BR10        BRNC        BRNCCOCO    BRNCCOCO13AG00000300000000001132019900000000000000100000000000000000000000001967Z01620200330X066000000
2MAIL0000151497BR10        BRNC        BRNCCOCO    BRNCCOCO13AG00000400000000001132020900000000000000100000000000000000000000001967Z01620200330X066000000
2MAIL0000151497BR10        BRNC        BRNCCOCO    BRNCCOCO13AG00000500000000001132033100000000000000300000000000000000000000006518Z01620200330X066000000
2MAIL0000151497BR10        BRNC        BRNCCOCO    BRNCCOCO13AG00000600000000001132036700000000000000500000000000000000000000010863Z01620200330X066000000
2MAIL0000151497BR10        BRNC        BRNCCOCO    BRNCCOCO13AG00000700000000001215533700000000000000300000000000000000000000006518Z01620200330X066000000
2MAIL0000151497BR10        BRNC        BRNCCOCO    BRNCCOCO13AG00000800000000001241577400000000000003000000000000000000000000025997Z01620200330X066000000
1MAIL0000151498BR10        BRNC        BRNCCOCO    BRNCCOCO13AG2020033000:00:00OR  010000061721840006172184151498                             2020033020200330Z016CIF202003300000000000006470NN0                                                  0                                        
2MAIL0000151498BR10        BRNC        BRNCCOCO    BRNCCOCO13AG00000100000000001132033100000000000000200000000000000000000000003235Z01620200330X066000000
2MAIL0000151498BR10        BRNC        BRNCCOCO    BRNCCOCO13AG00000200000000001132036700000000000000200000000000000000000000003235Z01620200330X066000000
1MAIL0000151499BR10        BRNC        BRNCCOCO    BRNCCOCO13AG2020033000:00:00OR  010000060284030006028403151499                             2020033020200330Z016CIF202003300000000000009162NN0                                                  0                                        
2MAIL0000151499BR10        BRNC        BRNCCOCO    BRNCCOCO13AG00000100000000001132033100000000000000200000000000000000000000004581Z01620200330X066000000
2MAIL0000151499BR10        BRNC        BRNCCOCO    BRNCCOCO13AG00000200000000001132036700000000000000200000000000000000000000004581Z01620200330X066000000
1MAIL0000151500BR10        BRNC        BRNCCOCO    BRNCCOCO13AG2020033000:00:00OR  010000059999520005999952151500                             2020033020200330Z016CIF202003300000000000008232NN0                                                  0                                        
2MAIL0000151500BR10        BRNC        BRNCCOCO    BRNCCOCO13AG00000100000000001132019700000000000000100000000000000000000000002076Z01620200330X066000000
2MAIL0000151500BR10        BRNC        BRNCCOCO    BRNCCOCO13AG00000200000000001132019800000000000000100000000000000000000000002076Z01620200330X066000000
2MAIL0000151500BR10        BRNC        BRNCCOCO    BRNCCOCO13AG00000300000000001132019900000000000000100000000000000000000000002076Z01620200330X066000000
2MAIL0000151500BR10        BRNC        BRNCCOCO    BRNCCOCO13AG00000400000000001236515000000000000001000000000000000000000000002004Z01620200330X066000000
1MAIL0000151501BR10        BRNC        BRNCCOCO    BRNCCOCO13AG2020033000:00:00OR  010000038784860003878486151501                             2020033020200330Z016CIF202003300000000000006872NN0                                                  0                                        
2MAIL0000151501BR10        BRNC        BRNCCOCO    BRNCCOCO13AG00000100000000001132036700000000000000300000000000000000000000006872Z01620200330X066000000
1MAIL0000151502BR10        BRNC        BRNCCOCO    BRNCCOCO13AG2020033000:00:00OR  010000061138080006113808151502                             2020033020200330Z016CIF202003300000000000006518NN0                                                  0                                        
2MAIL0000151502BR10        BRNC        BRNCCOCO    BRNCCOCO13AG00000100000000001132036700000000000000300000000000000000000000006518Z01620200330X066000000
1MAIL0000151503BR10        BRNC        BRNCCOCO    BRNCCOCO13AG2020033000:00:00OR  010000044004560004400456151503                             2020033020200330Z016CIF202003300000000000012485NN0                                                  0                                        
2MAIL0000151503BR10        BRNC        BRNCCOCO    BRNCCOCO13AG00000100000000001132019800000000000000100000000000000000000000001973Z01620200330X066000000
2MAIL0000151503BR10        BRNC        BRNCCOCO    BRNCCOCO13AG00000200000000001132020900000000000000100000000000000000000000001973Z01620200330X066000000
2MAIL0000151503BR10        BRNC        BRNCCOCO    BRNCCOCO13AG00000300000000001132036700000000000000100000000000000000000000002178Z01620200330X066000000
2MAIL0000151503BR10        BRNC        BRNCCOCO    BRNCCOCO13AG00000400000000001132200400000000000000300000000000000000000000006361Z01620200330X066000000
