1MAIL0000153241BR10        BRNC        BRNCCOCO    BRNCCOCO13AG2020041400:00:00OR  010000059719680005971968153241                             2020041420200414Z016CIF202004140000000000009354NN0                                                  0                                        
2MAIL0000153241BR10        BRNC        BRNCCOCO    BRNCCOCO13AG00000100000000001132033100000000000000100000000000000000000000002291Z01620200414X066000000
2MAIL0000153241BR10        BRNC        BRNCCOCO    BRNCCOCO13AG00000200000000001132036700000000000000100000000000000000000000002291Z01620200414X066000000
2MAIL0000153241BR10        BRNC        BRNCCOCO    BRNCCOCO13AG00000300000000001215533700000000000000100000000000000000000000002291Z01620200414X066000000
2MAIL0000153241BR10        BRNC        BRNCCOCO    BRNCCOCO13AG00000400000000001241623700000000000000100000000000000000000000002481Z01620200414X066000000
1MAIL0000153242BR10        BRNC        BRNCCOCO    BRNCCOCO13AG2020041400:00:00OR  010000058240460005824046153242                             2020041420200414Z079CIF202004140000000000060263NN0                                                  0                                        
2MAIL0000153242BR10        BRNC        BRNCCOCO    BRNCCOCO13AG00000100000000001132033100000000000000200000000000000000000000004357Z07920200414X066000000
2MAIL0000153242BR10        BRNC        BRNCCOCO    BRNCCOCO13AG00000200000000001132036700000000000000200000000000000000000000004357Z07920200414X066000000
2MAIL0000153242BR10        BRNC        BRNCCOCO    BRNCCOCO13AG00000300000000001215533700000000000000200000000000000000000000004357Z07920200414X066000000
2MAIL0000153242BR10        BRNC        BRNCCOCO    BRNCCOCO13AG00000400000000001234705900000000000000100000000000000000000000005088Z07920200414X066000000
2MAIL0000153242BR10        BRNC        BRNCCOCO    BRNCCOCO13AG00000500000000001239663300000000000001400000000000000000000000005354Z07920200414X066000000
2MAIL0000153242BR10        BRNC        BRNCCOCO    BRNCCOCO13AG00000600000000001239688600000000000001400000000000000000000000005354Z07920200414X066000000
2MAIL0000153242BR10        BRNC        BRNCCOCO    BRNCCOCO13AG00000700000000001239688800000000000001400000000000000000000000005354Z07920200414X066000000
2MAIL0000153242BR10        BRNC        BRNCCOCO    BRNCCOCO13AG00000800000000001241577400000000000003000000000000000000000000026042Z07920200414X066000000
1MAIL0000153243BR10        BRNC        BRNCCOCO    BRNCCOCO13AG2020041400:00:00OR  010000029844160002984416153243                             2020041420200414Z016CIF202004140000000000054263NN0                                                  0                                        
2MAIL0000153243BR10        BRNC        BRNCCOCO    BRNCCOCO13AG00000100000000001132018300000000000000100000000000000000000000003463Z01620200414X066000000
2MAIL0000153243BR10        BRNC        BRNCCOCO    BRNCCOCO13AG00000200000000001132019800000000000000100000000000000000000000001924Z01620200414X066000000
2MAIL0000153243BR10        BRNC        BRNCCOCO    BRNCCOCO13AG00000300000000001132034900000000000000500000000000000000000000010831Z01620200414X066000000
2MAIL0000153243BR10        BRNC        BRNCCOCO    BRNCCOCO13AG00000400000000001132036700000000000000100000000000000000000000002125Z01620200414X066000000
2MAIL0000153243BR10        BRNC        BRNCCOCO    BRNCCOCO13AG00000500000000001132200400000000000000200000000000000000000000004230Z01620200414X066000000
2MAIL0000153243BR10        BRNC        BRNCCOCO    BRNCCOCO13AG00000600000000001221415400000000000000100000000000000000000000003463Z01620200414X066000000
2MAIL0000153243BR10        BRNC        BRNCCOCO    BRNCCOCO13AG00000700000000001226089600000000000001200000000000000000000000004480Z01620200414X066000000
2MAIL0000153243BR10        BRNC        BRNCCOCO    BRNCCOCO13AG00000800000000001231189200000000000000100000000000000000000000004965Z01620200414X066000000
2MAIL0000153243BR10        BRNC        BRNCCOCO    BRNCCOCO13AG00000900000000001235699400000000000001000000000000000000000000003741Z01620200414X066000000
2MAIL0000153243BR10        BRNC        BRNCCOCO    BRNCCOCO13AG00001000000000001236512800000000000001600000000000000000000000002701Z01620200414X066000000
2MAIL0000153243BR10        BRNC        BRNCCOCO    BRNCCOCO13AG00001100000000001236512900000000000002000000000000000000000000003557Z01620200414X066000000
2MAIL0000153243BR10        BRNC        BRNCCOCO    BRNCCOCO13AG00001200000000001236515000000000000002000000000000000000000000003557Z01620200414X066000000
2MAIL0000153243BR10        BRNC        BRNCCOCO    BRNCCOCO13AG00001300000000001239688800000000000001400000000000000000000000005226Z01620200414X066000000
1MAIL0000153244BR10        BRNC        BRNCCOCO    BRNCCOCO13AG2020041400:00:00OR  010000056850840005685084153244                             2020041420200414Z016CIF202004140000000000033581NN0                                                  0                                        
2MAIL0000153244BR10        BRNC        BRNCCOCO    BRNCCOCO13AG00000100000000001132018300000000000000100000000000000000000000002682Z01620200414X066000000
2MAIL0000153244BR10        BRNC        BRNCCOCO    BRNCCOCO13AG00000200000000001132019800000000000000100000000000000000000000001498Z01620200414X066000000
2MAIL0000153244BR10        BRNC        BRNCCOCO    BRNCCOCO13AG00000300000000001132033100000000000000100000000000000000000000001654Z01620200414X066000000
2MAIL0000153244BR10        BRNC        BRNCCOCO    BRNCCOCO13AG00000400000000001132036700000000000000100000000000000000000000001654Z01620200414X066000000
2MAIL0000153244BR10        BRNC        BRNCCOCO    BRNCCOCO13AG00000500000000001132200400000000000000100000000000000000000000002115Z01620200414X066000000
2MAIL0000153244BR10        BRNC        BRNCCOCO    BRNCCOCO13AG00000600000000001221415400000000000000100000000000000000000000002682Z01620200414X066000000
2MAIL0000153244BR10        BRNC        BRNCCOCO    BRNCCOCO13AG00000700000000001223975300000000000000100000000000000000000000004437Z01620200414X066000000
2MAIL0000153244BR10        BRNC        BRNCCOCO    BRNCCOCO13AG00000800000000001228512700000000000000100000000000000000000000004437Z01620200414X066000000
2MAIL0000153244BR10        BRNC        BRNCCOCO    BRNCCOCO13AG00000900000000001231189200000000000000100000000000000000000000004437Z01620200414X066000000
2MAIL0000153244BR10        BRNC        BRNCCOCO    BRNCCOCO13AG00001000000000001231231200000000000000100000000000000000000000004437Z01620200414X066000000
2MAIL0000153244BR10        BRNC        BRNCCOCO    BRNCCOCO13AG00001100000000001236515000000000000000500000000000000000000000000956Z01620200414X066000000
2MAIL0000153244BR10        BRNC        BRNCCOCO    BRNCCOCO13AG00001200000000001241623700000000000000100000000000000000000000002592Z01620200414X066000000
1MAIL0000153245BR10        BRNC        BRNCCOCO    BRNCCOCO13AG2020041400:00:00OR  010000029868290002986829153245                             2020041420200414Z016CIF202004140000000000054772NN0                                                  0                                        
2MAIL0000153245BR10        BRNC        BRNCCOCO    BRNCCOCO13AG00000100000000001132019800000000000000100000000000000000000000001967Z01620200414X066000000
2MAIL0000153245BR10        BRNC        BRNCCOCO    BRNCCOCO13AG00000200000000001132020900000000000000100000000000000000000000001967Z01620200414X066000000
2MAIL0000153245BR10        BRNC        BRNCCOCO    BRNCCOCO13AG00000300000000001132033100000000000000200000000000000000000000004345Z01620200414X066000000
2MAIL0000153245BR10        BRNC        BRNCCOCO    BRNCCOCO13AG00000400000000001132036700000000000000200000000000000000000000004345Z01620200414X066000000
2MAIL0000153245BR10        BRNC        BRNCCOCO    BRNCCOCO13AG00000500000000001132400100000000000000100000000000000000000000003003Z01620200414X066000000
2MAIL0000153245BR10        BRNC        BRNCCOCO    BRNCCOCO13AG00000600000000001215533700000000000000100000000000000000000000002173Z01620200414X066000000
2MAIL0000153245BR10        BRNC        BRNCCOCO    BRNCCOCO13AG00000700000000001223975300000000000000100000000000000000000000005280Z01620200414X066000000
2MAIL0000153245BR10        BRNC        BRNCCOCO    BRNCCOCO13AG00000800000000001226089600000000000001200000000000000000000000004784Z01620200414X066000000
2MAIL0000153245BR10        BRNC        BRNCCOCO    BRNCCOCO13AG00000900000000001231231200000000000000100000000000000000000000005280Z01620200414X066000000
2MAIL0000153245BR10        BRNC        BRNCCOCO    BRNCCOCO13AG00001000000000001234705900000000000000100000000000000000000000005280Z01620200414X066000000
2MAIL0000153245BR10        BRNC        BRNCCOCO    BRNCCOCO13AG00001100000000001239688600000000000001400000000000000000000000005582Z01620200414X066000000
2MAIL0000153245BR10        BRNC        BRNCCOCO    BRNCCOCO13AG00001200000000001239688800000000000001400000000000000000000000005582Z01620200414X066000000
2MAIL0000153245BR10        BRNC        BRNCCOCO    BRNCCOCO13AG00001300000000001241623700000000000000200000000000000000000000005184Z01620200414X066000000
1MAIL0000153246BR10        BRNC        BRNCCOCO    BRNCCOCO13AG2020041400:00:00OR  010000029868260002986826153246                             2020041420200414Z016CIF202004140000000000059499NN0                                                  0                                        
2MAIL0000153246BR10        BRNC        BRNCCOCO    BRNCCOCO13AG00000100000000001132019800000000000000100000000000000000000000002076Z01620200414X066000000
2MAIL0000153246BR10        BRNC        BRNCCOCO    BRNCCOCO13AG00000200000000001132033100000000000000200000000000000000000000004581Z01620200414X066000000
2MAIL0000153246BR10        BRNC        BRNCCOCO    BRNCCOCO13AG00000300000000001132036700000000000000300000000000000000000000006872Z01620200414X066000000
2MAIL0000153246BR10        BRNC        BRNCCOCO    BRNCCOCO13AG00000400000000001132400100000000000000200000000000000000000000006332Z01620200414X066000000
2MAIL0000153246BR10        BRNC        BRNCCOCO    BRNCCOCO13AG00000500000000001231189200000000000000100000000000000000000000005568Z01620200414X066000000
2MAIL0000153246BR10        BRNC        BRNCCOCO    BRNCCOCO13AG00000600000000001234705800000000000000100000000000000000000000005568Z01620200414X066000000
2MAIL0000153246BR10        BRNC        BRNCCOCO    BRNCCOCO13AG00000700000000001239663300000000000001400000000000000000000000005885Z01620200414X066000000
2MAIL0000153246BR10        BRNC        BRNCCOCO    BRNCCOCO13AG00000800000000001239688600000000000001400000000000000000000000005885Z01620200414X066000000
2MAIL0000153246BR10        BRNC        BRNCCOCO    BRNCCOCO13AG00000900000000001239688800000000000001400000000000000000000000005885Z01620200414X066000000
2MAIL0000153246BR10        BRNC        BRNCCOCO    BRNCCOCO13AG00001000000000001241623700000000000000200000000000000000000000004962Z01620200414X066000000
2MAIL0000153246BR10        BRNC        BRNCCOCO    BRNCCOCO13AG00001100000000001242754900000000000001400000000000000000000000005885Z01620200414X066000000
1MAIL0000153247BR10        BRNC        BRNCCOCO    BRNCCOCO13AG2020041400:00:00OR  010000052276390005227639153247                             2020041420200414Z016CIF202004140000000000040186NN0                                                  0                                        
2MAIL0000153247BR10        BRNC        BRNCCOCO    BRNCCOCO13AG00000100000000001132018300000000000000100000000000000000000000003541Z01620200414X066000000
2MAIL0000153247BR10        BRNC        BRNCCOCO    BRNCCOCO13AG00000200000000001132019800000000000000100000000000000000000000001967Z01620200414X066000000
2MAIL0000153247BR10        BRNC        BRNCCOCO    BRNCCOCO13AG00000300000000001132033100000000000000100000000000000000000000002173Z01620200414X066000000
2MAIL0000153247BR10        BRNC        BRNCCOCO    BRNCCOCO13AG00000400000000001132036700000000000000100000000000000000000000002173Z01620200414X066000000
2MAIL0000153247BR10        BRNC        BRNCCOCO    BRNCCOCO13AG00000500000000001236512900000000000003500000000000000000000000006992Z01620200414X066000000
2MAIL0000153247BR10        BRNC        BRNCCOCO    BRNCCOCO13AG00000600000000001236515000000000000003500000000000000000000000006992Z01620200414X066000000
2MAIL0000153247BR10        BRNC        BRNCCOCO    BRNCCOCO13AG00000700000000001239688600000000000001400000000000000000000000005582Z01620200414X066000000
2MAIL0000153247BR10        BRNC        BRNCCOCO    BRNCCOCO13AG00000800000000001239688800000000000001400000000000000000000000005582Z01620200414X066000000
2MAIL0000153247BR10        BRNC        BRNCCOCO    BRNCCOCO13AG00000900000000001241623700000000000000200000000000000000000000005184Z01620200414X066000000
1MAIL0000153248BR10        BRNC        BRNCCOCO    BRNCCOCO13AG2020041400:00:00OR  010000061690390006169039153248                             2020041420200414Z016CIF202004140000000000033067NN0                                                  0                                        
2MAIL0000153248BR10        BRNC        BRNCCOCO    BRNCCOCO13AG00000100000000001132018300000000000000100000000000000000000000002845Z01620200414X066000000
2MAIL0000153248BR10        BRNC        BRNCCOCO    BRNCCOCO13AG00000200000000001132019700000000000000100000000000000000000000001581Z01620200414X066000000
2MAIL0000153248BR10        BRNC        BRNCCOCO    BRNCCOCO13AG00000300000000001132030800000000000000200000000000000000000000005253Z01620200414X066000000
2MAIL0000153248BR10        BRNC        BRNCCOCO    BRNCCOCO13AG00000400000000001132033100000000000000100000000000000000000000001746Z01620200414X066000000
2MAIL0000153248BR10        BRNC        BRNCCOCO    BRNCCOCO13AG00000500000000001132033900000000000000200000000000000000000000005763Z01620200414X066000000
2MAIL0000153248BR10        BRNC        BRNCCOCO    BRNCCOCO13AG00000600000000001132036700000000000000100000000000000000000000001746Z01620200414X066000000
2MAIL0000153248BR10        BRNC        BRNCCOCO    BRNCCOCO13AG00000700000000001132200400000000000000100000000000000000000000001980Z01620200414X066000000
2MAIL0000153248BR10        BRNC        BRNCCOCO    BRNCCOCO13AG00000800000000001221415400000000000000100000000000000000000000002845Z01620200414X066000000
2MAIL0000153248BR10        BRNC        BRNCCOCO    BRNCCOCO13AG00000900000000001226089600000000000001200000000000000000000000003830Z01620200414X066000000
2MAIL0000153248BR10        BRNC        BRNCCOCO    BRNCCOCO13AG00001000000000001241577400000000000000500000000000000000000000003663Z01620200414X066000000
2MAIL0000153248BR10        BRNC        BRNCCOCO    BRNCCOCO13AG00001100000000001241623700000000000000100000000000000000000000001815Z01620200414X066000000
1MAIL0000153249BR10        BRNC        BRNCCOCO    BRNCCOCO13AG2020041400:00:00OR  010000009381520000938152153249                             2020041420200414Z016CIF202004140000000000135096NN0                                                  0                                        
2MAIL0000153249BR10        BRNC        BRNCCOCO    BRNCCOCO13AG00000100000000001132004000000000000002000000000000000000000000020406Z01620200414X066000000
2MAIL0000153249BR10        BRNC        BRNCCOCO    BRNCCOCO13AG00000200000000001132004200000000000002000000000000000000000000028130Z01620200414X066000000
2MAIL0000153249BR10        BRNC        BRNCCOCO    BRNCCOCO13AG00000300000000001132034900000000000002000000000000000000000000044299Z01620200414X066000000
2MAIL0000153249BR10        BRNC        BRNCCOCO    BRNCCOCO13AG00000400000000001226089600000000000002400000000000000000000000009159Z01620200414X066000000
2MAIL0000153249BR10        BRNC        BRNCCOCO    BRNCCOCO13AG00000500000000001235699400000000000002000000000000000000000000007648Z01620200414X066000000
2MAIL0000153249BR10        BRNC        BRNCCOCO    BRNCCOCO13AG00000600000000001236512900000000000007000000000000000000000000012727Z01620200414X066000000
2MAIL0000153249BR10        BRNC        BRNCCOCO    BRNCCOCO13AG00000700000000001236515000000000000007000000000000000000000000012727Z01620200414X066000000
1MAIL0000153250BR10        BRNC        BRNCCOCO    BRNCCOCO13AG2020041400:00:00OR  010000051202890005120289153250                             2020041420200414Z016CIF202004140000000000043223NN0                                                  0                                        
2MAIL0000153250BR10        BRNC        BRNCCOCO    BRNCCOCO13AG00000100000000001132033100000000000000200000000000000000000000004345Z01620200414X066000000
2MAIL0000153250BR10        BRNC        BRNCCOCO    BRNCCOCO13AG00000200000000001132036700000000000000300000000000000000000000006518Z01620200414X066000000
2MAIL0000153250BR10        BRNC        BRNCCOCO    BRNCCOCO13AG00000300000000001236515000000000000003500000000000000000000000006363Z01620200414X066000000
2MAIL0000153250BR10        BRNC        BRNCCOCO    BRNCCOCO13AG00000400000000001241577400000000000003000000000000000000000000025997Z01620200414X066000000
