1MAIL0000152572BR10        BRNC        BRNCCOCO    BRNCCOCO13AG2020040800:00:00OR  010000040641780004064178152572                             2020040820200408Z016CIF202004080000000000018266NN0                                                  0                                        
2MAIL0000152572BR10        BRNC        BRNCCOCO    BRNCCOCO13AG00000100000000001132033100000000000000100000000000000000000000002291Z01620200408X066000000
2MAIL0000152572BR10        BRNC        BRNCCOCO    BRNCCOCO13AG00000200000000001132036700000000000000200000000000000000000000004581Z01620200408X066000000
2MAIL0000152572BR10        BRNC        BRNCCOCO    BRNCCOCO13AG00000300000000001132200400000000000000100000000000000000000000002230Z01620200408X066000000
2MAIL0000152572BR10        BRNC        BRNCCOCO    BRNCCOCO13AG00000400000000001215533700000000000000100000000000000000000000002291Z01620200408X066000000
2MAIL0000152572BR10        BRNC        BRNCCOCO    BRNCCOCO13AG00000500000000001227395500000000000000100000000000000000000000002291Z01620200408X066000000
2MAIL0000152572BR10        BRNC        BRNCCOCO    BRNCCOCO13AG00000600000000001231389600000000000000100000000000000000000000002291Z01620200408X066000000
2MAIL0000152572BR10        BRNC        BRNCCOCO    BRNCCOCO13AG00000700000000001236898000000000000000100000000000000000000000002291Z01620200408X066000000
1MAIL0000152573BR10        BRNC        BRNCCOCO    BRNCCOCO13AG2020040800:00:00OR  010000029847240002984724152573                             2020040820200408Z016CIF202004080000000000063176NN0                                                  0                                        
2MAIL0000152573BR10        BRNC        BRNCCOCO    BRNCCOCO13AG00000100000000001132019800000000000000100000000000000000000000002076Z01620200408X066000000
2MAIL0000152573BR10        BRNC        BRNCCOCO    BRNCCOCO13AG00000200000000001132033100000000000000200000000000000000000000004581Z01620200408X066000000
2MAIL0000152573BR10        BRNC        BRNCCOCO    BRNCCOCO13AG00000300000000001132036700000000000000200000000000000000000000004581Z01620200408X066000000
2MAIL0000152573BR10        BRNC        BRNCCOCO    BRNCCOCO13AG00000400000000001215533700000000000000200000000000000000000000004581Z01620200408X066000000
2MAIL0000152573BR10        BRNC        BRNCCOCO    BRNCCOCO13AG00000500000000001227395500000000000000200000000000000000000000004581Z01620200408X066000000
2MAIL0000152573BR10        BRNC        BRNCCOCO    BRNCCOCO13AG00000600000000001231389600000000000000200000000000000000000000004581Z01620200408X066000000
2MAIL0000152573BR10        BRNC        BRNCCOCO    BRNCCOCO13AG00000700000000001236512800000000000005200000000000000000000000009914Z01620200408X066000000
2MAIL0000152573BR10        BRNC        BRNCCOCO    BRNCCOCO13AG00000800000000001236515000000000000007000000000000000000000000014030Z01620200408X066000000
2MAIL0000152573BR10        BRNC        BRNCCOCO    BRNCCOCO13AG00000900000000001239688700000000000001400000000000000000000000005885Z01620200408X066000000
2MAIL0000152573BR10        BRNC        BRNCCOCO    BRNCCOCO13AG00001000000000001239688800000000000001400000000000000000000000005885Z01620200408X066000000
2MAIL0000152573BR10        BRNC        BRNCCOCO    BRNCCOCO13AG00001100000000001241623700000000000000100000000000000000000000002481Z01620200408X066000000
1MAIL0000152574BR10        BRNC        BRNCCOCO    BRNCCOCO13AG2020040800:00:00OR  010000029107590002910759152574                             2020040820200408Z016CIF202004080000000000004582NN0                                                  0                                        
2MAIL0000152574BR10        BRNC        BRNCCOCO    BRNCCOCO13AG00000100000000001132033100000000000000100000000000000000000000002291Z01620200408X066000000
2MAIL0000152574BR10        BRNC        BRNCCOCO    BRNCCOCO13AG00000200000000001132036700000000000000100000000000000000000000002291Z01620200408X066000000
1MAIL0000152575BR10        BRNC        BRNCCOCO    BRNCCOCO13AG2020040800:00:00OR  010000060472230006047223152575                             2020040820200408Z016CIF202004080000000000040893NN0                                                  0                                        
2MAIL0000152575BR10        BRNC        BRNCCOCO    BRNCCOCO13AG00000100000000001132019800000000000000100000000000000000000000002076Z01620200408X066000000
2MAIL0000152575BR10        BRNC        BRNCCOCO    BRNCCOCO13AG00000200000000001132020900000000000000100000000000000000000000002076Z01620200408X066000000
2MAIL0000152575BR10        BRNC        BRNCCOCO    BRNCCOCO13AG00000300000000001132033100000000000000200000000000000000000000004581Z01620200408X066000000
2MAIL0000152575BR10        BRNC        BRNCCOCO    BRNCCOCO13AG00000400000000001132036700000000000000200000000000000000000000004581Z01620200408X066000000
2MAIL0000152575BR10        BRNC        BRNCCOCO    BRNCCOCO13AG00000500000000001239688300000000000001400000000000000000000000005885Z01620200408X066000000
2MAIL0000152575BR10        BRNC        BRNCCOCO    BRNCCOCO13AG00000600000000001239688800000000000001400000000000000000000000005885Z01620200408X066000000
2MAIL0000152575BR10        BRNC        BRNCCOCO    BRNCCOCO13AG00000700000000001239692000000000000001400000000000000000000000005885Z01620200408X066000000
2MAIL0000152575BR10        BRNC        BRNCCOCO    BRNCCOCO13AG00000800000000001241623700000000000000400000000000000000000000009924Z01620200408X066000000
1MAIL0000152576BR10        BRNC        BRNCCOCO    BRNCCOCO13AG2020040800:00:00OR  010000009426390000942639152576                             2020040820200408Z016CIF202004080000000000262092NN0                                                  0                                        
2MAIL0000152576BR10        BRNC        BRNCCOCO    BRNCCOCO13AG00000100000000001132004000000000000002000000000000000000000000019958Z01620200408X066000000
2MAIL0000152576BR10        BRNC        BRNCCOCO    BRNCCOCO13AG00000200000000001215533700000000000003200000000000000000000000068001Z01620200408X066000000
2MAIL0000152576BR10        BRNC        BRNCCOCO    BRNCCOCO13AG00000300000000001226089600000000000009600000000000000000000000035836Z01620200408X066000000
2MAIL0000152576BR10        BRNC        BRNCCOCO    BRNCCOCO13AG00000400000000001231233000000000000000800000000000000000000000039720Z01620200408X066000000
2MAIL0000152576BR10        BRNC        BRNCCOCO    BRNCCOCO13AG00000500000000001235699400000000000004000000000000000000000000014961Z01620200408X066000000
2MAIL0000152576BR10        BRNC        BRNCCOCO    BRNCCOCO13AG00000600000000001239688500000000000011200000000000000000000000041808Z01620200408X066000000
2MAIL0000152576BR10        BRNC        BRNCCOCO    BRNCCOCO13AG00000700000000001239688700000000000011200000000000000000000000041808Z01620200408X066000000
1MAIL0000152577BR10        BRNC        BRNCCOCO    BRNCCOCO13AG2020040800:00:00OR  010000060785680006078568152577                             2020040820200408Z016CIF202004080000000000948778NN0                                                  0                                        
2MAIL0000152577BR10        BRNC        BRNCCOCO    BRNCCOCO13AG00000100000000001132004000000000000002000000000000000000000000019958Z01620200408X066000000
2MAIL0000152577BR10        BRNC        BRNCCOCO    BRNCCOCO13AG00000200000000001132018300000000000000800000000000000000000000027708Z01620200408X066000000
2MAIL0000152577BR10        BRNC        BRNCCOCO    BRNCCOCO13AG00000300000000001234705800000000000000800000000000000000000000039720Z01620200408X066000000
2MAIL0000152577BR10        BRNC        BRNCCOCO    BRNCCOCO13AG00000400000000001234705900000000000000800000000000000000000000039720Z01620200408X066000000
2MAIL0000152577BR10        BRNC        BRNCCOCO    BRNCCOCO13AG00000500000000001235699400000000000004000000000000000000000000014961Z01620200408X066000000
2MAIL0000152577BR10        BRNC        BRNCCOCO    BRNCCOCO13AG00000600000000001239373400000000000012000000000000000000000000743999Z01620200408X066000000
2MAIL0000152577BR10        BRNC        BRNCCOCO    BRNCCOCO13AG00000700000000001239688500000000000005600000000000000000000000020904Z01620200408X066000000
2MAIL0000152577BR10        BRNC        BRNCCOCO    BRNCCOCO13AG00000800000000001239688700000000000005600000000000000000000000020904Z01620200408X066000000
2MAIL0000152577BR10        BRNC        BRNCCOCO    BRNCCOCO13AG00000900000000001239688800000000000005600000000000000000000000020904Z01620200408X066000000
1MAIL0000152578BR10        BRNC        BRNCCOCO    BRNCCOCO13AG2020040800:00:00OR  010000009426380000942638152578                             2020040820200408Z016CIF202004080000000000301860NN0                                                  0                                        
2MAIL0000152578BR10        BRNC        BRNCCOCO    BRNCCOCO13AG00000100000000001132036700000000000003200000000000000000000000068001Z01620200408X066000000
2MAIL0000152578BR10        BRNC        BRNCCOCO    BRNCCOCO13AG00000200000000001226089600000000000014400000000000000000000000053754Z01620200408X066000000
2MAIL0000152578BR10        BRNC        BRNCCOCO    BRNCCOCO13AG00000300000000001234705900000000000000800000000000000000000000039720Z01620200408X066000000
2MAIL0000152578BR10        BRNC        BRNCCOCO    BRNCCOCO13AG00000400000000001235699400000000000004000000000000000000000000014961Z01620200408X066000000
2MAIL0000152578BR10        BRNC        BRNCCOCO    BRNCCOCO13AG00000500000000001239688500000000000005600000000000000000000000020904Z01620200408X066000000
2MAIL0000152578BR10        BRNC        BRNCCOCO    BRNCCOCO13AG00000600000000001239688600000000000005600000000000000000000000020904Z01620200408X066000000
2MAIL0000152578BR10        BRNC        BRNCCOCO    BRNCCOCO13AG00000700000000001239688700000000000005600000000000000000000000020904Z01620200408X066000000
2MAIL0000152578BR10        BRNC        BRNCCOCO    BRNCCOCO13AG00000800000000001239688800000000000011200000000000000000000000041808Z01620200408X066000000
2MAIL0000152578BR10        BRNC        BRNCCOCO    BRNCCOCO13AG00000900000000001239692300000000000005600000000000000000000000020904Z01620200408X066000000
1MAIL0000152581BR10        BRNC        BRNCCOCO    BRNCCOCO13AG2020040800:00:00OR  010000058271960005827196152581                             2020040820200408Z016CIF202004080000000000015987NN0                                                  0                                        
2MAIL0000152581BR10        BRNC        BRNCCOCO    BRNCCOCO13AG00000100000000001132018300000000000000100000000000000000000000003541Z01620200408X066000000
2MAIL0000152581BR10        BRNC        BRNCCOCO    BRNCCOCO13AG00000200000000001132019800000000000000100000000000000000000000001967Z01620200408X066000000
2MAIL0000152581BR10        BRNC        BRNCCOCO    BRNCCOCO13AG00000300000000001132033100000000000000100000000000000000000000002173Z01620200408X066000000
2MAIL0000152581BR10        BRNC        BRNCCOCO    BRNCCOCO13AG00000400000000001132036700000000000000100000000000000000000000002173Z01620200408X066000000
2MAIL0000152581BR10        BRNC        BRNCCOCO    BRNCCOCO13AG00000500000000001221415400000000000000100000000000000000000000003541Z01620200408X066000000
2MAIL0000152581BR10        BRNC        BRNCCOCO    BRNCCOCO13AG00000600000000001241623700000000000000100000000000000000000000002592Z01620200408X066000000
1MAIL0000152582BR10        BRNC        BRNCCOCO    BRNCCOCO13AG2020040800:00:00OR  010000043299810004329981152582                             2020040820200408Z016CIF202004080000000000004346NN0                                                  0                                        
2MAIL0000152582BR10        BRNC        BRNCCOCO    BRNCCOCO13AG00000100000000001132033100000000000000100000000000000000000000002173Z01620200408X066000000
2MAIL0000152582BR10        BRNC        BRNCCOCO    BRNCCOCO13AG00000200000000001132036700000000000000100000000000000000000000002173Z01620200408X066000000
1MAIL0000152584BR10        BRNC        BRNCCOCO    BRNCCOCO13AG2020040800:00:00OR  010000054413740005441374152584                             2020040820200408Z016CIF202004080000000000021283NN0                                                  0                                        
2MAIL0000152584BR10        BRNC        BRNCCOCO    BRNCCOCO13AG00000100000000001132036700000000000000200000000000000000000000004581Z01620200408X066000000
2MAIL0000152584BR10        BRNC        BRNCCOCO    BRNCCOCO13AG00000200000000001238083500000000000000100000000000000000000000005568Z01620200408X066000000
2MAIL0000152584BR10        BRNC        BRNCCOCO    BRNCCOCO13AG00000300000000001242374800000000000000200000000000000000000000011134Z01620200408X066000000
