1MAIL0000152016BR10        BRNC        BRNCCOCO    BRNCCOCO13AG2020040200:00:00OR  010000049585930004958593152016                             2020040220200402Z016CIF202004020000000000087739NN0                                                  0                                        
2MAIL0000152016BR10        BRNC        BRNCCOCO    BRNCCOCO13AG00000100000000001132019700000000000000100000000000000000000000002076Z01620200402X066000000
2MAIL0000152016BR10        BRNC        BRNCCOCO    BRNCCOCO13AG00000200000000001132033100000000000000100000000000000000000000002291Z01620200402X066000000
2MAIL0000152016BR10        BRNC        BRNCCOCO    BRNCCOCO13AG00000300000000001132200400000000000000400000000000000000000000008920Z01620200402X066000000
2MAIL0000152016BR10        BRNC        BRNCCOCO    BRNCCOCO13AG00000400000000001221415400000000000000100000000000000000000000003735Z01620200402X066000000
2MAIL0000152016BR10        BRNC        BRNCCOCO    BRNCCOCO13AG00000500000000001226089600000000000001200000000000000000000000005045Z01620200402X066000000
2MAIL0000152016BR10        BRNC        BRNCCOCO    BRNCCOCO13AG00000600000000001228512700000000000000100000000000000000000000005568Z01620200402X066000000
2MAIL0000152016BR10        BRNC        BRNCCOCO    BRNCCOCO13AG00000700000000001231189200000000000000100000000000000000000000005568Z01620200402X066000000
2MAIL0000152016BR10        BRNC        BRNCCOCO    BRNCCOCO13AG00000800000000001235699400000000000001000000000000000000000000004211Z01620200402X066000000
2MAIL0000152016BR10        BRNC        BRNCCOCO    BRNCCOCO13AG00000900000000001236898000000000000000100000000000000000000000002291Z01620200402X066000000
2MAIL0000152016BR10        BRNC        BRNCCOCO    BRNCCOCO13AG00001000000000001239688800000000000001400000000000000000000000005885Z01620200402X066000000
2MAIL0000152016BR10        BRNC        BRNCCOCO    BRNCCOCO13AG00001100000000001239692000000000000001400000000000000000000000005885Z01620200402X066000000
2MAIL0000152016BR10        BRNC        BRNCCOCO    BRNCCOCO13AG00001200000000001239692100000000000001400000000000000000000000005885Z01620200402X066000000
2MAIL0000152016BR10        BRNC        BRNCCOCO    BRNCCOCO13AG00001300000000001241623700000000000001000000000000000000000000024811Z01620200402X066000000
2MAIL0000152016BR10        BRNC        BRNCCOCO    BRNCCOCO13AG00001400000000001242374800000000000000100000000000000000000000005568Z01620200402X066000000
