1MAIL0000152975BR10        BRNC        BRNCCOCO    BRNCCOCO13AG2020041300:00:00OR  010000057461840005746184152975                             2020041320200413Z016CIF202004130000000000005738NN0                                                  0                                        
2MAIL0000152975BR10        BRNC        BRNCCOCO    BRNCCOCO13AG00000100000000001236512900000000000001500000000000000000000000002869Z01620200413X066000000
2MAIL0000152975BR10        BRNC        BRNCCOCO    BRNCCOCO13AG00000200000000001236515000000000000001500000000000000000000000002869Z01620200413X066000000
1MAIL0000152976BR10        BRNC        BRNCCOCO    BRNCCOCO13AG2020041300:00:00OR  010000032998400003299840152976                             2020041320200413Z079CIF202004130000000000246418NN0                                                  0                                        
2MAIL0000152976BR10        BRNC        BRNCCOCO    BRNCCOCO13AG00000100000000001132018300000000000000100000000000000000000000003550Z07920200413X066000000
2MAIL0000152976BR10        BRNC        BRNCCOCO    BRNCCOCO13AG00000200000000001132019800000000000000100000000000000000000000001974Z07920200413X066000000
2MAIL0000152976BR10        BRNC        BRNCCOCO    BRNCCOCO13AG00000300000000001132020900000000000000100000000000000000000000001974Z07920200413X066000000
2MAIL0000152976BR10        BRNC        BRNCCOCO    BRNCCOCO13AG00000400000000001132200400000000000000400000000000000000000000008482Z07920200413X066000000
2MAIL0000152976BR10        BRNC        BRNCCOCO    BRNCCOCO13AG00000500000000001215533700000000000000500000000000000000000000010894Z07920200413X066000000
2MAIL0000152976BR10        BRNC        BRNCCOCO    BRNCCOCO13AG00000600000000001228512700000000000000100000000000000000000000005088Z07920200413X066000000
2MAIL0000152976BR10        BRNC        BRNCCOCO    BRNCCOCO13AG00000700000000001231189200000000000000100000000000000000000000005088Z07920200413X066000000
2MAIL0000152976BR10        BRNC        BRNCCOCO    BRNCCOCO13AG00000800000000001235699400000000000002000000000000000000000000007663Z07920200413X066000000
2MAIL0000152976BR10        BRNC        BRNCCOCO    BRNCCOCO13AG00000900000000001235699700000000000002000000000000000000000000007663Z07920200413X066000000
2MAIL0000152976BR10        BRNC        BRNCCOCO    BRNCCOCO13AG00001000000000001235699800000000000002000000000000000000000000007663Z07920200413X066000000
2MAIL0000152976BR10        BRNC        BRNCCOCO    BRNCCOCO13AG00001100000000001236512900000000000002000000000000000000000000003636Z07920200413X066000000
2MAIL0000152976BR10        BRNC        BRNCCOCO    BRNCCOCO13AG00001200000000001236515000000000000002000000000000000000000000003636Z07920200413X066000000
2MAIL0000152976BR10        BRNC        BRNCCOCO    BRNCCOCO13AG00001300000000001239663300000000000005600000000000000000000000021416Z07920200413X066000000
2MAIL0000152976BR10        BRNC        BRNCCOCO    BRNCCOCO13AG00001400000000001239688500000000000005600000000000000000000000021416Z07920200413X066000000
2MAIL0000152976BR10        BRNC        BRNCCOCO    BRNCCOCO13AG00001500000000001239688600000000000005600000000000000000000000021416Z07920200413X066000000
2MAIL0000152976BR10        BRNC        BRNCCOCO    BRNCCOCO13AG00001600000000001239688700000000000005600000000000000000000000021416Z07920200413X066000000
2MAIL0000152976BR10        BRNC        BRNCCOCO    BRNCCOCO13AG00001700000000001239688800000000000005600000000000000000000000021416Z07920200413X066000000
2MAIL0000152976BR10        BRNC        BRNCCOCO    BRNCCOCO13AG00001800000000001239692000000000000005600000000000000000000000021416Z07920200413X066000000
2MAIL0000152976BR10        BRNC        BRNCCOCO    BRNCCOCO13AG00001900000000001239692300000000000005600000000000000000000000021416Z07920200413X066000000
2MAIL0000152976BR10        BRNC        BRNCCOCO    BRNCCOCO13AG00002000000000001241623700000000000000300000000000000000000000007779Z07920200413X066000000
2MAIL0000152976BR10        BRNC        BRNCCOCO    BRNCCOCO13AG00002100000000001242765000000000000005600000000000000000000000021416Z07920200413X066000000
1MAIL0000152980BR10        BRNC        BRNCCOCO    BRNCCOCO13AG2020041300:00:00OR  010000044639590004463959152980                             2020041320200413Z016CIF202004130000000000020592NN0                                                  0                                        
2MAIL0000152980BR10        BRNC        BRNCCOCO    BRNCCOCO13AG00000100000000001132019800000000000000100000000000000000000000002076Z01620200413X066000000
2MAIL0000152980BR10        BRNC        BRNCCOCO    BRNCCOCO13AG00000200000000001132033100000000000000100000000000000000000000002291Z01620200413X066000000
2MAIL0000152980BR10        BRNC        BRNCCOCO    BRNCCOCO13AG00000300000000001132036700000000000000100000000000000000000000002291Z01620200413X066000000
2MAIL0000152980BR10        BRNC        BRNCCOCO    BRNCCOCO13AG00000400000000001231231200000000000000100000000000000000000000005568Z01620200413X066000000
2MAIL0000152980BR10        BRNC        BRNCCOCO    BRNCCOCO13AG00000500000000001239688800000000000001400000000000000000000000005885Z01620200413X066000000
2MAIL0000152980BR10        BRNC        BRNCCOCO    BRNCCOCO13AG00000600000000001241623700000000000000100000000000000000000000002481Z01620200413X066000000
1MAIL0000152981BR10        BRNC        BRNCCOCO    BRNCCOCO13AG2020041300:00:00OR  010000052754050005275405152981                             2020041320200413Z016CIF202004130000000000009310NN0                                                  0                                        
2MAIL0000152981BR10        BRNC        BRNCCOCO    BRNCCOCO13AG00000100000000001132019800000000000000100000000000000000000000001498Z01620200413X066000000
2MAIL0000152981BR10        BRNC        BRNCCOCO    BRNCCOCO13AG00000200000000001132033100000000000000100000000000000000000000001654Z01620200413X066000000
2MAIL0000152981BR10        BRNC        BRNCCOCO    BRNCCOCO13AG00000300000000001132036700000000000000100000000000000000000000001654Z01620200413X066000000
2MAIL0000152981BR10        BRNC        BRNCCOCO    BRNCCOCO13AG00000400000000001236512900000000000000500000000000000000000000000956Z01620200413X066000000
2MAIL0000152981BR10        BRNC        BRNCCOCO    BRNCCOCO13AG00000500000000001236515000000000000000500000000000000000000000000956Z01620200413X066000000
2MAIL0000152981BR10        BRNC        BRNCCOCO    BRNCCOCO13AG00000600000000001241623700000000000000100000000000000000000000002592Z01620200413X066000000
1MAIL0000152982BR10        BRNC        BRNCCOCO    BRNCCOCO13AG2020041300:00:00OR  010000058122510005812251152982                             2020041320200413Z016CIF202004130000000000008905NN0                                                  0                                        
2MAIL0000152982BR10        BRNC        BRNCCOCO    BRNCCOCO13AG00000100000000001132019800000000000000100000000000000000000000001967Z01620200413X066000000
2MAIL0000152982BR10        BRNC        BRNCCOCO    BRNCCOCO13AG00000200000000001132033100000000000000100000000000000000000000002173Z01620200413X066000000
2MAIL0000152982BR10        BRNC        BRNCCOCO    BRNCCOCO13AG00000300000000001132036700000000000000100000000000000000000000002173Z01620200413X066000000
2MAIL0000152982BR10        BRNC        BRNCCOCO    BRNCCOCO13AG00000400000000001241623700000000000000100000000000000000000000002592Z01620200413X066000000
