1MAIL0000151686BR10        BRNC        BRNCCOCO    BRNCCOCO13AG2020033100:00:00OR  010000028618560002861856151686                             2020033120200331Z016CIF202003310000000000021793NN0                                                  0                                        
2MAIL0000151686BR10        BRNC        BRNCCOCO    BRNCCOCO13AG00000100000000001132019800000000000000100000000000000000000000001498Z01620200331X066000000
2MAIL0000151686BR10        BRNC        BRNCCOCO    BRNCCOCO13AG00000200000000001132020900000000000000100000000000000000000000001498Z01620200331X066000000
2MAIL0000151686BR10        BRNC        BRNCCOCO    BRNCCOCO13AG00000300000000001132033100000000000000100000000000000000000000001654Z01620200331X066000000
2MAIL0000151686BR10        BRNC        BRNCCOCO    BRNCCOCO13AG00000400000000001132036700000000000000200000000000000000000000003307Z01620200331X066000000
2MAIL0000151686BR10        BRNC        BRNCCOCO    BRNCCOCO13AG00000500000000001215533700000000000000100000000000000000000000001654Z01620200331X066000000
2MAIL0000151686BR10        BRNC        BRNCCOCO    BRNCCOCO13AG00000600000000001227395500000000000000100000000000000000000000001654Z01620200331X066000000
2MAIL0000151686BR10        BRNC        BRNCCOCO    BRNCCOCO13AG00000700000000001231231200000000000000100000000000000000000000004437Z01620200331X066000000
2MAIL0000151686BR10        BRNC        BRNCCOCO    BRNCCOCO13AG00000800000000001231233000000000000000100000000000000000000000004437Z01620200331X066000000
2MAIL0000151686BR10        BRNC        BRNCCOCO    BRNCCOCO13AG00000900000000001236898000000000000000100000000000000000000000001654Z01620200331X066000000
1MAIL0000151689BR10        BRNC        BRNCCOCO    BRNCCOCO13AG2020033100:00:00OR  010000029543810002954381151689                             2020033120200331Z016CIF202003310000000000235327NN0                                                  0                                        
2MAIL0000151689BR10        BRNC        BRNCCOCO    BRNCCOCO13AG00000100000000001132033900000000000001200000000000000000000000043480Z01620200331X066000000
2MAIL0000151689BR10        BRNC        BRNCCOCO    BRNCCOCO13AG00000200000000001132036700000000000003000000000000000000000000057266Z01620200331X066000000
2MAIL0000151689BR10        BRNC        BRNCCOCO    BRNCCOCO13AG00000300000000001132185100000000000001200000000000000000000000036218Z01620200331X066000000
2MAIL0000151689BR10        BRNC        BRNCCOCO    BRNCCOCO13AG00000400000000001228274000000000000000400000000000000000000000018499Z01620200331X066000000
2MAIL0000151689BR10        BRNC        BRNCCOCO    BRNCCOCO13AG00000500000000001235699400000000000001000000000000000000000000003484Z01620200331X066000000
2MAIL0000151689BR10        BRNC        BRNCCOCO    BRNCCOCO13AG00000600000000001235699700000000000002000000000000000000000000006969Z01620200331X066000000
2MAIL0000151689BR10        BRNC        BRNCCOCO    BRNCCOCO13AG00000700000000001235699800000000000001000000000000000000000000003484Z01620200331X066000000
2MAIL0000151689BR10        BRNC        BRNCCOCO    BRNCCOCO13AG00000800000000001239663300000000000001400000000000000000000000004868Z01620200331X066000000
2MAIL0000151689BR10        BRNC        BRNCCOCO    BRNCCOCO13AG00000900000000001239688300000000000001400000000000000000000000004868Z01620200331X066000000
2MAIL0000151689BR10        BRNC        BRNCCOCO    BRNCCOCO13AG00001000000000001239688500000000000001400000000000000000000000004868Z01620200331X066000000
2MAIL0000151689BR10        BRNC        BRNCCOCO    BRNCCOCO13AG00001100000000001239688600000000000001400000000000000000000000004868Z01620200331X066000000
2MAIL0000151689BR10        BRNC        BRNCCOCO    BRNCCOCO13AG00001200000000001239688800000000000002800000000000000000000000009736Z01620200331X066000000
2MAIL0000151689BR10        BRNC        BRNCCOCO    BRNCCOCO13AG00001300000000001239692100000000000001400000000000000000000000004868Z01620200331X066000000
2MAIL0000151689BR10        BRNC        BRNCCOCO    BRNCCOCO13AG00001400000000001239692300000000000001400000000000000000000000004868Z01620200331X066000000
2MAIL0000151689BR10        BRNC        BRNCCOCO    BRNCCOCO13AG00001500000000001241623700000000000001000000000000000000000000022359Z01620200331X066000000
2MAIL0000151689BR10        BRNC        BRNCCOCO    BRNCCOCO13AG00001600000000001242374800000000000000100000000000000000000000004624Z01620200331X066000000
1MAIL0000151690BR10        BRNC        BRNCCOCO    BRNCCOCO13AG2020033100:00:00OR  010000053355520005335552151690                             2020033120200331Z016CIF202003310000000000010294NN0                                                  0                                        
2MAIL0000151690BR10        BRNC        BRNCCOCO    BRNCCOCO13AG00000100000000001214448800000000000000100000000000000000000000005344Z01620200331X066000000
2MAIL0000151690BR10        BRNC        BRNCCOCO    BRNCCOCO13AG00000200000000001214470800000000000000100000000000000000000000004950Z01620200331X066000000
