1MAIL0000152820BR10        BRNC        BRNCCOCO    BRNCCOCO13AG2020040900:00:00OR  010000057245000005724500152820                             2020040920200409Z016CIF202004090000000000070682NN0                                                  0                                        
2MAIL0000152820BR10        BRNC        BRNCCOCO    BRNCCOCO13AG00000100000000001226089600000000000001200000000000000000000000004784Z01620200409X066000000
2MAIL0000152820BR10        BRNC        BRNCCOCO    BRNCCOCO13AG00000200000000001239688600000000000001400000000000000000000000005582Z01620200409X066000000
2MAIL0000152820BR10        BRNC        BRNCCOCO    BRNCCOCO13AG00000300000000001239688800000000000001400000000000000000000000005582Z01620200409X066000000
2MAIL0000152820BR10        BRNC        BRNCCOCO    BRNCCOCO13AG00000400000000001241577400000000000006000000000000000000000000054734Z01620200409X066000000
