1MAIL0000151158BR10        BRNC        BRNCCOCO    BRNCCOCO13AG2020032600:00:00OR  010000058459280005845928151158                             2020032620200326Z016CIF202003260000000000455084NN0                                                  0                                        
2MAIL0000151158BR10        BRNC        BRNCCOCO    BRNCCOCO13AG00000100000000001234816400000000000002000000000000000000000000053669Z01620200326X066000000
2MAIL0000151158BR10        BRNC        BRNCCOCO    BRNCCOCO13AG00000200000000001234831400000000000002000000000000000000000000053669Z01620200326X066000000
2MAIL0000151158BR10        BRNC        BRNCCOCO    BRNCCOCO13AG00000300000000001234832000000000000001000000000000000000000000026835Z01620200326X066000000
2MAIL0000151158BR10        BRNC        BRNCCOCO    BRNCCOCO13AG00000400000000001235350800000000000001500000000000000000000000040251Z01620200326X066000000
2MAIL0000151158BR10        BRNC        BRNCCOCO    BRNCCOCO13AG00000500000000001238478300000000000002000000000000000000000000119653Z01620200326X066000000
2MAIL0000151158BR10        BRNC        BRNCCOCO    BRNCCOCO13AG00000600000000001239922200000000000003500000000000000000000000093921Z01620200326X066000000
2MAIL0000151158BR10        BRNC        BRNCCOCO    BRNCCOCO13AG00000700000000001243313000000000000005000000000000000000000000067086Z01620200326X066000000
1MAIL0000151159BR10        BRNC        BRNCCOCO    BRNCCOCO13AG2020032600:00:00OR  010000046271540004627154151159                             2020032620200326Z016CIF202003260000000000093062NN0                                                  0                                        
2MAIL0000151159BR10        BRNC        BRNCCOCO    BRNCCOCO13AG00000100000000001234816400000000000000600000000000000000000000015747Z01620200326X066000000
2MAIL0000151159BR10        BRNC        BRNCCOCO    BRNCCOCO13AG00000200000000001234831400000000000000600000000000000000000000015747Z01620200326X066000000
2MAIL0000151159BR10        BRNC        BRNCCOCO    BRNCCOCO13AG00000300000000001234832000000000000000100000000000000000000000002625Z01620200326X066000000
2MAIL0000151159BR10        BRNC        BRNCCOCO    BRNCCOCO13AG00000400000000001238478300000000000000200000000000000000000000011702Z01620200326X066000000
2MAIL0000151159BR10        BRNC        BRNCCOCO    BRNCCOCO13AG00000500000000001239922200000000000000300000000000000000000000007874Z01620200326X066000000
2MAIL0000151159BR10        BRNC        BRNCCOCO    BRNCCOCO13AG00000600000000001243313000000000000003000000000000000000000000039367Z01620200326X066000000
