1MAIL0000151188BR10        BRNC        BRNCCOCO    BRNCCOCO13AG2020032700:00:00OR  010000041116540004111654151188                             2020032720200327Z016CIF202003270000000000062988NN0                                                  0                                        
2MAIL0000151188BR10        BRNC        BRNCCOCO    BRNCCOCO13AG00000100000000001239922200000000000002400000000000000000000000062988Z01620200327X066000000
1MAIL0000151193BR10        BRNC        BRNCCOCO    BRNCCOCO13AG2020032700:00:00OR  010000058532370005853237151193                             2020032720200327Z016CIF202003270000000000033380NN0                                                  0                                        
2MAIL0000151193BR10        BRNC        BRNCCOCO    BRNCCOCO13AG00000100000000001132033100000000000000500000000000000000000000011454Z01620200327X066000000
2MAIL0000151193BR10        BRNC        BRNCCOCO    BRNCCOCO13AG00000200000000001224882700000000000000200000000000000000000000006659Z01620200327X066000000
2MAIL0000151193BR10        BRNC        BRNCCOCO    BRNCCOCO13AG00000300000000001236512800000000000002000000000000000000000000003813Z01620200327X066000000
2MAIL0000151193BR10        BRNC        BRNCCOCO    BRNCCOCO13AG00000400000000001236898000000000000000500000000000000000000000011454Z01620200327X066000000
1MAIL0000151194BR10        BRNC        BRNCCOCO    BRNCCOCO13AG2020032700:00:00OR  010000058768580005876858151194                             2020032720200327Z016CIF202003270000000000014028NN0                                                  0                                        
2MAIL0000151194BR10        BRNC        BRNCCOCO    BRNCCOCO13AG00000100000000001236512900000000000003500000000000000000000000007014Z01620200327X066000000
2MAIL0000151194BR10        BRNC        BRNCCOCO    BRNCCOCO13AG00000200000000001236515000000000000003500000000000000000000000007014Z01620200327X066000000
1MAIL0000151195BR10        BRNC        BRNCCOCO    BRNCCOCO13AG2020032700:00:00OR  010000058971650005897165151195                             2020032720200327Z016CIF202003270000000000031137NN0                                                  0                                        
2MAIL0000151195BR10        BRNC        BRNCCOCO    BRNCCOCO13AG00000100000000001132033100000000000000100000000000000000000000002173Z01620200327X066000000
2MAIL0000151195BR10        BRNC        BRNCCOCO    BRNCCOCO13AG00000200000000001132036700000000000000100000000000000000000000002173Z01620200327X066000000
2MAIL0000151195BR10        BRNC        BRNCCOCO    BRNCCOCO13AG00000300000000001215533700000000000000100000000000000000000000002173Z01620200327X066000000
2MAIL0000151195BR10        BRNC        BRNCCOCO    BRNCCOCO13AG00000400000000001228512700000000000000100000000000000000000000005280Z01620200327X066000000
2MAIL0000151195BR10        BRNC        BRNCCOCO    BRNCCOCO13AG00000500000000001239688600000000000001400000000000000000000000005582Z01620200327X066000000
2MAIL0000151195BR10        BRNC        BRNCCOCO    BRNCCOCO13AG00000600000000001239688800000000000001400000000000000000000000005582Z01620200327X066000000
2MAIL0000151195BR10        BRNC        BRNCCOCO    BRNCCOCO13AG00000700000000001239692100000000000001400000000000000000000000005582Z01620200327X066000000
2MAIL0000151195BR10        BRNC        BRNCCOCO    BRNCCOCO13AG00000800000000001241623700000000000000100000000000000000000000002592Z01620200327X066000000
1MAIL0000151196BR10        BRNC        BRNCCOCO    BRNCCOCO13AG2020032700:00:00OR  010000059719680005971968151196                             2020032720200327Z079CIF202003270000000000021363NN0                                                  0                                        
2MAIL0000151196BR10        BRNC        BRNCCOCO    BRNCCOCO13AG00000100000000001132019800000000000000100000000000000000000000002081Z07920200327X066000000
2MAIL0000151196BR10        BRNC        BRNCCOCO    BRNCCOCO13AG00000200000000001132033100000000000000100000000000000000000000002297Z07920200327X066000000
2MAIL0000151196BR10        BRNC        BRNCCOCO    BRNCCOCO13AG00000300000000001132036700000000000000100000000000000000000000002297Z07920200327X066000000
2MAIL0000151196BR10        BRNC        BRNCCOCO    BRNCCOCO13AG00000400000000001215533700000000000000100000000000000000000000002297Z07920200327X066000000
2MAIL0000151196BR10        BRNC        BRNCCOCO    BRNCCOCO13AG00000500000000001236512900000000000001000000000000000000000000002004Z07920200327X066000000
2MAIL0000151196BR10        BRNC        BRNCCOCO    BRNCCOCO13AG00000600000000001236515000000000000001000000000000000000000000002004Z07920200327X066000000
2MAIL0000151196BR10        BRNC        BRNCCOCO    BRNCCOCO13AG00000700000000001239688800000000000001400000000000000000000000005896Z07920200327X066000000
2MAIL0000151196BR10        BRNC        BRNCCOCO    BRNCCOCO13AG00000800000000001241623700000000000000100000000000000000000000002487Z07920200327X066000000
