1MAIL0000152528BR10        BRNC        BRNCCOCO    BRNCCOCO13AG2020040800:00:00OR  010000029308170002930817152528                             2020040820200408Z016CIF202004080000000000014445NN0                                                  0                                        
2MAIL0000152528BR10        BRNC        BRNCCOCO    BRNCCOCO13AG00000100000000001132036700000000000000100000000000000000000000002291Z01620200408X066000000
2MAIL0000152528BR10        BRNC        BRNCCOCO    BRNCCOCO13AG00000200000000001132200400000000000000100000000000000000000000002230Z01620200408X066000000
2MAIL0000152528BR10        BRNC        BRNCCOCO    BRNCCOCO13AG00000300000000001241623700000000000000400000000000000000000000009924Z01620200408X066000000
1MAIL0000152529BR10        BRNC        BRNCCOCO    BRNCCOCO13AG2020040800:00:00OR  010000061622220006162222152529                             2020040820200408Z016CIF202004080000000000043392NN0                                                  0                                        
2MAIL0000152529BR10        BRNC        BRNCCOCO    BRNCCOCO13AG00000100000000001132033100000000000000100000000000000000000000002241Z01620200408X066000000
2MAIL0000152529BR10        BRNC        BRNCCOCO    BRNCCOCO13AG00000200000000001132036700000000000000100000000000000000000000002241Z01620200408X066000000
2MAIL0000152529BR10        BRNC        BRNCCOCO    BRNCCOCO13AG00000300000000001226089600000000000001200000000000000000000000004934Z01620200408X066000000
2MAIL0000152529BR10        BRNC        BRNCCOCO    BRNCCOCO13AG00000400000000001239688800000000000001400000000000000000000000005756Z01620200408X066000000
2MAIL0000152529BR10        BRNC        BRNCCOCO    BRNCCOCO13AG00000500000000001241577400000000000003000000000000000000000000028220Z01620200408X066000000
1MAIL0000152530BR10        BRNC        BRNCCOCO    BRNCCOCO13AG2020040800:00:00OR  010000052576630005257663152530                             2020040820200408Z016CIF202004080000000000048246NN0                                                  0                                        
2MAIL0000152530BR10        BRNC        BRNCCOCO    BRNCCOCO13AG00000100000000001132033100000000000000200000000000000000000000003712Z01620200408X066000000
2MAIL0000152530BR10        BRNC        BRNCCOCO    BRNCCOCO13AG00000200000000001132036700000000000000300000000000000000000000005568Z01620200408X066000000
2MAIL0000152530BR10        BRNC        BRNCCOCO    BRNCCOCO13AG00000300000000001132200400000000000000300000000000000000000000006316Z01620200408X066000000
2MAIL0000152530BR10        BRNC        BRNCCOCO    BRNCCOCO13AG00000400000000001215533700000000000000300000000000000000000000005568Z01620200408X066000000
2MAIL0000152530BR10        BRNC        BRNCCOCO    BRNCCOCO13AG00000500000000001227395500000000000000200000000000000000000000003712Z01620200408X066000000
2MAIL0000152530BR10        BRNC        BRNCCOCO    BRNCCOCO13AG00000600000000001241577400000000000003000000000000000000000000023370Z01620200408X066000000
1MAIL0000152548BR10        BRNC        BRNCCOCO    BRNCCOCO13AG2020040800:00:00OR  010000029839570002983957152548                             2020040820200408Z016CIF202004080000000000145127NN0                                                  0                                        
2MAIL0000152548BR10        BRNC        BRNCCOCO    BRNCCOCO13AG00000100000000001132035100000000000000500000000000000000000000011693Z01620200408X066000000
2MAIL0000152548BR10        BRNC        BRNCCOCO    BRNCCOCO13AG00000200000000001132036700000000000000400000000000000000000000008692Z01620200408X066000000
2MAIL0000152548BR10        BRNC        BRNCCOCO    BRNCCOCO13AG00000300000000001132185100000000000000600000000000000000000000017041Z01620200408X066000000
2MAIL0000152548BR10        BRNC        BRNCCOCO    BRNCCOCO13AG00000400000000001214448800000000000000500000000000000000000000024088Z01620200408X066000000
2MAIL0000152548BR10        BRNC        BRNCCOCO    BRNCCOCO13AG00000500000000001214451500000000000000600000000000000000000000025049Z01620200408X066000000
2MAIL0000152548BR10        BRNC        BRNCCOCO    BRNCCOCO13AG00000600000000001231389600000000000000200000000000000000000000004345Z01620200408X066000000
2MAIL0000152548BR10        BRNC        BRNCCOCO    BRNCCOCO13AG00000700000000001235699400000000000001000000000000000000000000003825Z01620200408X066000000
2MAIL0000152548BR10        BRNC        BRNCCOCO    BRNCCOCO13AG00000800000000001235699700000000000001000000000000000000000000003825Z01620200408X066000000
2MAIL0000152548BR10        BRNC        BRNCCOCO    BRNCCOCO13AG00000900000000001235699800000000000001000000000000000000000000003825Z01620200408X066000000
2MAIL0000152548BR10        BRNC        BRNCCOCO    BRNCCOCO13AG00001000000000001239663300000000000001400000000000000000000000005343Z01620200408X066000000
2MAIL0000152548BR10        BRNC        BRNCCOCO    BRNCCOCO13AG00001100000000001239688300000000000001400000000000000000000000005343Z01620200408X066000000
2MAIL0000152548BR10        BRNC        BRNCCOCO    BRNCCOCO13AG00001200000000001239688600000000000001400000000000000000000000005343Z01620200408X066000000
2MAIL0000152548BR10        BRNC        BRNCCOCO    BRNCCOCO13AG00001300000000001239688700000000000001400000000000000000000000005343Z01620200408X066000000
2MAIL0000152548BR10        BRNC        BRNCCOCO    BRNCCOCO13AG00001400000000001239688800000000000001400000000000000000000000005343Z01620200408X066000000
2MAIL0000152548BR10        BRNC        BRNCCOCO    BRNCCOCO13AG00001500000000001239692000000000000001400000000000000000000000005343Z01620200408X066000000
2MAIL0000152548BR10        BRNC        BRNCCOCO    BRNCCOCO13AG00001600000000001239692100000000000001400000000000000000000000005343Z01620200408X066000000
2MAIL0000152548BR10        BRNC        BRNCCOCO    BRNCCOCO13AG00001700000000001239692300000000000001400000000000000000000000005343Z01620200408X066000000
1MAIL0000152549BR10        BRNC        BRNCCOCO    BRNCCOCO13AG2020040800:00:00OR  010000058537340005853734152549                             2020040820200408Z016CIF202004080000000000030976NN0                                                  0                                        
2MAIL0000152549BR10        BRNC        BRNCCOCO    BRNCCOCO13AG00000100000000001132019800000000000000100000000000000000000000002076Z01620200408X066000000
2MAIL0000152549BR10        BRNC        BRNCCOCO    BRNCCOCO13AG00000200000000001132033100000000000000100000000000000000000000002291Z01620200408X066000000
2MAIL0000152549BR10        BRNC        BRNCCOCO    BRNCCOCO13AG00000300000000001132036700000000000000200000000000000000000000004581Z01620200408X066000000
2MAIL0000152549BR10        BRNC        BRNCCOCO    BRNCCOCO13AG00000400000000001132200400000000000000100000000000000000000000002230Z01620200408X066000000
2MAIL0000152549BR10        BRNC        BRNCCOCO    BRNCCOCO13AG00000500000000001215533700000000000000100000000000000000000000002291Z01620200408X066000000
2MAIL0000152549BR10        BRNC        BRNCCOCO    BRNCCOCO13AG00000600000000001236515000000000000001000000000000000000000000002004Z01620200408X066000000
2MAIL0000152549BR10        BRNC        BRNCCOCO    BRNCCOCO13AG00000700000000001239688800000000000001400000000000000000000000005885Z01620200408X066000000
2MAIL0000152549BR10        BRNC        BRNCCOCO    BRNCCOCO13AG00000800000000001241577400000000000001000000000000000000000000009618Z01620200408X066000000
1MAIL0000152550BR10        BRNC        BRNCCOCO    BRNCCOCO13AG2020040800:00:00OR  010000060637170006063717152550                             2020040820200408Z016CIF202004080000000000009162NN0                                                  0                                        
2MAIL0000152550BR10        BRNC        BRNCCOCO    BRNCCOCO13AG00000100000000001132033100000000000000200000000000000000000000004581Z01620200408X066000000
2MAIL0000152550BR10        BRNC        BRNCCOCO    BRNCCOCO13AG00000200000000001132036700000000000000200000000000000000000000004581Z01620200408X066000000
1MAIL0000152551BR10        BRNC        BRNCCOCO    BRNCCOCO13AG2020040800:00:00OR  010000047883910004788391152551                             2020040820200408Z016CIF202004080000000000030396NN0                                                  0                                        
2MAIL0000152551BR10        BRNC        BRNCCOCO    BRNCCOCO13AG00000100000000001132019800000000000000100000000000000000000000002076Z01620200408X066000000
2MAIL0000152551BR10        BRNC        BRNCCOCO    BRNCCOCO13AG00000200000000001132020900000000000000100000000000000000000000002076Z01620200408X066000000
2MAIL0000152551BR10        BRNC        BRNCCOCO    BRNCCOCO13AG00000300000000001132036700000000000000200000000000000000000000004581Z01620200408X066000000
2MAIL0000152551BR10        BRNC        BRNCCOCO    BRNCCOCO13AG00000400000000001236512900000000000001000000000000000000000000002004Z01620200408X066000000
2MAIL0000152551BR10        BRNC        BRNCCOCO    BRNCCOCO13AG00000500000000001236515000000000000001000000000000000000000000002004Z01620200408X066000000
2MAIL0000152551BR10        BRNC        BRNCCOCO    BRNCCOCO13AG00000600000000001239688600000000000001400000000000000000000000005885Z01620200408X066000000
2MAIL0000152551BR10        BRNC        BRNCCOCO    BRNCCOCO13AG00000700000000001239688800000000000001400000000000000000000000005885Z01620200408X066000000
2MAIL0000152551BR10        BRNC        BRNCCOCO    BRNCCOCO13AG00000800000000001239692100000000000001400000000000000000000000005885Z01620200408X066000000
1MAIL0000152552BR10        BRNC        BRNCCOCO    BRNCCOCO13AG2020040800:00:00OR  010000032493220003249322152552                             2020040820200408Z016CIF202004080000000000020563NN0                                                  0                                        
2MAIL0000152552BR10        BRNC        BRNCCOCO    BRNCCOCO13AG00000100000000001132036700000000000000100000000000000000000000002291Z01620200408X066000000
2MAIL0000152552BR10        BRNC        BRNCCOCO    BRNCCOCO13AG00000200000000001215533700000000000000100000000000000000000000002291Z01620200408X066000000
2MAIL0000152552BR10        BRNC        BRNCCOCO    BRNCCOCO13AG00000300000000001235699800000000000001000000000000000000000000004211Z01620200408X066000000
2MAIL0000152552BR10        BRNC        BRNCCOCO    BRNCCOCO13AG00000400000000001239688700000000000001400000000000000000000000005885Z01620200408X066000000
2MAIL0000152552BR10        BRNC        BRNCCOCO    BRNCCOCO13AG00000500000000001239692100000000000001400000000000000000000000005885Z01620200408X066000000
1MAIL0000152553BR10        BRNC        BRNCCOCO    BRNCCOCO13AG2020040800:00:00OR  010000053103650005310365152553                             2020040820200408Z016CIF202004080000000000045498NN0                                                  0                                        
2MAIL0000152553BR10        BRNC        BRNCCOCO    BRNCCOCO13AG00000100000000001241577400000000000006000000000000000000000000045498Z01620200408X066000000
1MAIL0000152554BR10        BRNC        BRNCCOCO    BRNCCOCO13AG2020040800:00:00OR  010000046183260004618326152554                             2020040820200408Z016CIF202004080000000000009776NN0                                                  0                                        
2MAIL0000152554BR10        BRNC        BRNCCOCO    BRNCCOCO13AG00000100000000001132019700000000000000100000000000000000000000001498Z01620200408X066000000
2MAIL0000152554BR10        BRNC        BRNCCOCO    BRNCCOCO13AG00000200000000001132019800000000000000100000000000000000000000001498Z01620200408X066000000
2MAIL0000152554BR10        BRNC        BRNCCOCO    BRNCCOCO13AG00000300000000001132019900000000000000100000000000000000000000001498Z01620200408X066000000
2MAIL0000152554BR10        BRNC        BRNCCOCO    BRNCCOCO13AG00000400000000001132020900000000000000100000000000000000000000001498Z01620200408X066000000
2MAIL0000152554BR10        BRNC        BRNCCOCO    BRNCCOCO13AG00000500000000001132400100000000000000100000000000000000000000002286Z01620200408X066000000
2MAIL0000152554BR10        BRNC        BRNCCOCO    BRNCCOCO13AG00000600000000001227735000000000000000100000000000000000000000001498Z01620200408X066000000
1MAIL0000152555BR10        BRNC        BRNCCOCO    BRNCCOCO13AG2020040800:00:00OR  010000058232420005823242152555                             2020040820200408Z016CIF202004080000000000009110NN0                                                  0                                        
2MAIL0000152555BR10        BRNC        BRNCCOCO    BRNCCOCO13AG00000100000000001132033100000000000000100000000000000000000000002173Z01620200408X066000000
2MAIL0000152555BR10        BRNC        BRNCCOCO    BRNCCOCO13AG00000200000000001132036700000000000000200000000000000000000000004345Z01620200408X066000000
2MAIL0000152555BR10        BRNC        BRNCCOCO    BRNCCOCO13AG00000300000000001241623700000000000000100000000000000000000000002592Z01620200408X066000000
1MAIL0000152556BR10        BRNC        BRNCCOCO    BRNCCOCO13AG2020040800:00:00OR  010000061446890006144689152556                             2020040820200408Z016CIF202004080000000000242295NN0                                                  0                                        
2MAIL0000152556BR10        BRNC        BRNCCOCO    BRNCCOCO13AG00000100000000001132004000000000000002000000000000000000000000017681Z01620200408X066000000
2MAIL0000152556BR10        BRNC        BRNCCOCO    BRNCCOCO13AG00000200000000001132004200000000000000500000000000000000000000006716Z01620200408X066000000
2MAIL0000152556BR10        BRNC        BRNCCOCO    BRNCCOCO13AG00000300000000001132019800000000000000500000000000000000000000006975Z01620200408X066000000
2MAIL0000152556BR10        BRNC        BRNCCOCO    BRNCCOCO13AG00000400000000001132019900000000000000500000000000000000000000006975Z01620200408X066000000
2MAIL0000152556BR10        BRNC        BRNCCOCO    BRNCCOCO13AG00000500000000001132020900000000000000500000000000000000000000006975Z01620200408X066000000
2MAIL0000152556BR10        BRNC        BRNCCOCO    BRNCCOCO13AG00000600000000001132036700000000000003200000000000000000000000049007Z01620200408X066000000
2MAIL0000152556BR10        BRNC        BRNCCOCO    BRNCCOCO13AG00000700000000001132400100000000000000100000000000000000000000002129Z01620200408X066000000
2MAIL0000152556BR10        BRNC        BRNCCOCO    BRNCCOCO13AG00000800000000001221415400000000000000800000000000000000000000019895Z01620200408X066000000
2MAIL0000152556BR10        BRNC        BRNCCOCO    BRNCCOCO13AG00000900000000001226089600000000000001200000000000000000000000003336Z01620200408X066000000
2MAIL0000152556BR10        BRNC        BRNCCOCO    BRNCCOCO13AG00001000000000001228512700000000000000200000000000000000000000007419Z01620200408X066000000
2MAIL0000152556BR10        BRNC        BRNCCOCO    BRNCCOCO13AG00001100000000001231231200000000000000300000000000000000000000011129Z01620200408X066000000
2MAIL0000152556BR10        BRNC        BRNCCOCO    BRNCCOCO13AG00001200000000001231233000000000000000300000000000000000000000011129Z01620200408X066000000
2MAIL0000152556BR10        BRNC        BRNCCOCO    BRNCCOCO13AG00001300000000001235699400000000000001000000000000000000000000002787Z01620200408X066000000
2MAIL0000152556BR10        BRNC        BRNCCOCO    BRNCCOCO13AG00001400000000001236512800000000000010400000000000000000000000013345Z01620200408X066000000
2MAIL0000152556BR10        BRNC        BRNCCOCO    BRNCCOCO13AG00001500000000001236512900000000000014000000000000000000000000015684Z01620200408X066000000
2MAIL0000152556BR10        BRNC        BRNCCOCO    BRNCCOCO13AG00001600000000001236515000000000000014000000000000000000000000015684Z01620200408X066000000
2MAIL0000152556BR10        BRNC        BRNCCOCO    BRNCCOCO13AG00001700000000001240924900000000000005200000000000000000000000006422Z01620200408X066000000
2MAIL0000152556BR10        BRNC        BRNCCOCO    BRNCCOCO13AG00001800000000001241623700000000000002000000000000000000000000031588Z01620200408X066000000
2MAIL0000152556BR10        BRNC        BRNCCOCO    BRNCCOCO13AG00001900000000001242374800000000000000200000000000000000000000007419Z01620200408X066000000
1MAIL0000152557BR10        BRNC        BRNCCOCO    BRNCCOCO13AG2020040800:00:00OR  010000060183680006018368152557                             2020040820200408Z016CIF202004080000000000130900NN0                                                  0                                        
2MAIL0000152557BR10        BRNC        BRNCCOCO    BRNCCOCO13AG00000100000000001132019700000000000000100000000000000000000000001681Z01620200408X066000000
2MAIL0000152557BR10        BRNC        BRNCCOCO    BRNCCOCO13AG00000200000000001132019800000000000000100000000000000000000000001681Z01620200408X066000000
2MAIL0000152557BR10        BRNC        BRNCCOCO    BRNCCOCO13AG00000300000000001132019900000000000000100000000000000000000000001681Z01620200408X066000000
2MAIL0000152557BR10        BRNC        BRNCCOCO    BRNCCOCO13AG00000400000000001132020900000000000000100000000000000000000000001681Z01620200408X066000000
2MAIL0000152557BR10        BRNC        BRNCCOCO    BRNCCOCO13AG00000500000000001132036700000000000000200000000000000000000000003712Z01620200408X066000000
2MAIL0000152557BR10        BRNC        BRNCCOCO    BRNCCOCO13AG00000600000000001132400100000000000000100000000000000000000000002565Z01620200408X066000000
2MAIL0000152557BR10        BRNC        BRNCCOCO    BRNCCOCO13AG00000700000000001223975300000000000000100000000000000000000000004509Z01620200408X066000000
2MAIL0000152557BR10        BRNC        BRNCCOCO    BRNCCOCO13AG00000800000000001226089600000000000002400000000000000000000000008146Z01620200408X066000000
2MAIL0000152557BR10        BRNC        BRNCCOCO    BRNCCOCO13AG00000900000000001227735000000000000000100000000000000000000000001681Z01620200408X066000000
2MAIL0000152557BR10        BRNC        BRNCCOCO    BRNCCOCO13AG00001000000000001228274000000000000000100000000000000000000000004509Z01620200408X066000000
2MAIL0000152557BR10        BRNC        BRNCCOCO    BRNCCOCO13AG00001100000000001228512700000000000000100000000000000000000000004509Z01620200408X066000000
2MAIL0000152557BR10        BRNC        BRNCCOCO    BRNCCOCO13AG00001200000000001231231200000000000000100000000000000000000000004509Z01620200408X066000000
2MAIL0000152557BR10        BRNC        BRNCCOCO    BRNCCOCO13AG00001300000000001231233000000000000000100000000000000000000000004509Z01620200408X066000000
2MAIL0000152557BR10        BRNC        BRNCCOCO    BRNCCOCO13AG00001400000000001239688300000000000002800000000000000000000000009503Z01620200408X066000000
2MAIL0000152557BR10        BRNC        BRNCCOCO    BRNCCOCO13AG00001500000000001239688500000000000002800000000000000000000000009503Z01620200408X066000000
2MAIL0000152557BR10        BRNC        BRNCCOCO    BRNCCOCO13AG00001600000000001239688600000000000002800000000000000000000000009503Z01620200408X066000000
2MAIL0000152557BR10        BRNC        BRNCCOCO    BRNCCOCO13AG00001700000000001239688700000000000002800000000000000000000000009503Z01620200408X066000000
2MAIL0000152557BR10        BRNC        BRNCCOCO    BRNCCOCO13AG00001800000000001239688800000000000002800000000000000000000000009503Z01620200408X066000000
2MAIL0000152557BR10        BRNC        BRNCCOCO    BRNCCOCO13AG00001900000000001239692000000000000002800000000000000000000000009503Z01620200408X066000000
2MAIL0000152557BR10        BRNC        BRNCCOCO    BRNCCOCO13AG00002000000000001239692300000000000002800000000000000000000000009503Z01620200408X066000000
2MAIL0000152557BR10        BRNC        BRNCCOCO    BRNCCOCO13AG00002100000000001242626100000000000002800000000000000000000000009503Z01620200408X066000000
2MAIL0000152557BR10        BRNC        BRNCCOCO    BRNCCOCO13AG00002200000000001242765000000000000002800000000000000000000000009503Z01620200408X066000000
1MAIL0000152558BR10        BRNC        BRNCCOCO    BRNCCOCO13AG2020040800:00:00OR  010000028987640002898764152558                             2020040820200408Z016CIF202004080000000000026013NN0                                                  0                                        
2MAIL0000152558BR10        BRNC        BRNCCOCO    BRNCCOCO13AG00000100000000001132033100000000000000100000000000000000000000002173Z01620200408X066000000
2MAIL0000152558BR10        BRNC        BRNCCOCO    BRNCCOCO13AG00000200000000001132036700000000000000500000000000000000000000010863Z01620200408X066000000
2MAIL0000152558BR10        BRNC        BRNCCOCO    BRNCCOCO13AG00000300000000001132200400000000000000100000000000000000000000002115Z01620200408X066000000
2MAIL0000152558BR10        BRNC        BRNCCOCO    BRNCCOCO13AG00000400000000001231189200000000000000100000000000000000000000005280Z01620200408X066000000
2MAIL0000152558BR10        BRNC        BRNCCOCO    BRNCCOCO13AG00000500000000001239688800000000000001400000000000000000000000005582Z01620200408X066000000
1MAIL0000152559BR10        BRNC        BRNCCOCO    BRNCCOCO13AG2020040800:00:00OR  010000009232020000923202152559                             2020040820200408Z016CIF202004080000000000033619NN0                                                  0                                        
2MAIL0000152559BR10        BRNC        BRNCCOCO    BRNCCOCO13AG00000100000000001226089600000000000004800000000000000000000000018321Z01620200408X066000000
2MAIL0000152559BR10        BRNC        BRNCCOCO    BRNCCOCO13AG00000200000000001235699400000000000002000000000000000000000000007648Z01620200408X066000000
2MAIL0000152559BR10        BRNC        BRNCCOCO    BRNCCOCO13AG00000300000000001235699700000000000001000000000000000000000000003825Z01620200408X066000000
2MAIL0000152559BR10        BRNC        BRNCCOCO    BRNCCOCO13AG00000400000000001235699800000000000001000000000000000000000000003825Z01620200408X066000000
1MAIL0000152560BR10        BRNC        BRNCCOCO    BRNCCOCO13AG2020040800:00:00OR  010000029842300002984230152560                             2020040820200408Z016CIF202004080000000000015913NN0                                                  0                                        
2MAIL0000152560BR10        BRNC        BRNCCOCO    BRNCCOCO13AG00000100000000001132033100000000000000200000000000000000000000004581Z01620200408X066000000
2MAIL0000152560BR10        BRNC        BRNCCOCO    BRNCCOCO13AG00000200000000001132036700000000000000300000000000000000000000006872Z01620200408X066000000
2MAIL0000152560BR10        BRNC        BRNCCOCO    BRNCCOCO13AG00000300000000001132200400000000000000200000000000000000000000004460Z01620200408X066000000
1MAIL0000152561BR10        BRNC        BRNCCOCO    BRNCCOCO13AG2020040800:00:00OR  010000060965280006096528152561                             2020040820200408Z016CIF202004080000000000050681NN0                                                  0                                        
2MAIL0000152561BR10        BRNC        BRNCCOCO    BRNCCOCO13AG00000100000000001132018300000000000000100000000000000000000000003735Z01620200408X066000000
2MAIL0000152561BR10        BRNC        BRNCCOCO    BRNCCOCO13AG00000200000000001132033100000000000000100000000000000000000000002291Z01620200408X066000000
2MAIL0000152561BR10        BRNC        BRNCCOCO    BRNCCOCO13AG00000300000000001132036700000000000000100000000000000000000000002291Z01620200408X066000000
2MAIL0000152561BR10        BRNC        BRNCCOCO    BRNCCOCO13AG00000400000000001132200400000000000000200000000000000000000000004460Z01620200408X066000000
2MAIL0000152561BR10        BRNC        BRNCCOCO    BRNCCOCO13AG00000500000000001215533700000000000000100000000000000000000000002291Z01620200408X066000000
2MAIL0000152561BR10        BRNC        BRNCCOCO    BRNCCOCO13AG00000600000000001221415400000000000000100000000000000000000000003735Z01620200408X066000000
2MAIL0000152561BR10        BRNC        BRNCCOCO    BRNCCOCO13AG00000700000000001226089600000000000001200000000000000000000000005045Z01620200408X066000000
2MAIL0000152561BR10        BRNC        BRNCCOCO    BRNCCOCO13AG00000800000000001227395500000000000000100000000000000000000000002291Z01620200408X066000000
2MAIL0000152561BR10        BRNC        BRNCCOCO    BRNCCOCO13AG00000900000000001236515000000000000000500000000000000000000000001002Z01620200408X066000000
2MAIL0000152561BR10        BRNC        BRNCCOCO    BRNCCOCO13AG00001000000000001239688300000000000001400000000000000000000000005885Z01620200408X066000000
2MAIL0000152561BR10        BRNC        BRNCCOCO    BRNCCOCO13AG00001100000000001239688600000000000001400000000000000000000000005885Z01620200408X066000000
2MAIL0000152561BR10        BRNC        BRNCCOCO    BRNCCOCO13AG00001200000000001239688800000000000001400000000000000000000000005885Z01620200408X066000000
2MAIL0000152561BR10        BRNC        BRNCCOCO    BRNCCOCO13AG00001300000000001239692300000000000001400000000000000000000000005885Z01620200408X066000000
1MAIL0000152562BR10        BRNC        BRNCCOCO    BRNCCOCO13AG2020040800:00:00OR  010000061671840006167184152562                             2020040820200408Z016CIF202004080000000000010080NN0                                                  0                                        
2MAIL0000152562BR10        BRNC        BRNCCOCO    BRNCCOCO13AG00000100000000001132019800000000000000100000000000000000000000001924Z01620200408X066000000
2MAIL0000152562BR10        BRNC        BRNCCOCO    BRNCCOCO13AG00000200000000001132033100000000000000100000000000000000000000002125Z01620200408X066000000
2MAIL0000152562BR10        BRNC        BRNCCOCO    BRNCCOCO13AG00000300000000001132036700000000000000100000000000000000000000002125Z01620200408X066000000
2MAIL0000152562BR10        BRNC        BRNCCOCO    BRNCCOCO13AG00000400000000001236512900000000000001000000000000000000000000001953Z01620200408X066000000
2MAIL0000152562BR10        BRNC        BRNCCOCO    BRNCCOCO13AG00000500000000001236515000000000000001000000000000000000000000001953Z01620200408X066000000
1MAIL0000152563BR10        BRNC        BRNCCOCO    BRNCCOCO13AG2020040800:00:00OR  010000054124570005412457152563                             2020040820200408Z016CIF202004080000000000011510NN0                                                  0                                        
2MAIL0000152563BR10        BRNC        BRNCCOCO    BRNCCOCO13AG00000100000000001132019800000000000000100000000000000000000000001498Z01620200408X066000000
2MAIL0000152563BR10        BRNC        BRNCCOCO    BRNCCOCO13AG00000200000000001132033100000000000000100000000000000000000000001654Z01620200408X066000000
2MAIL0000152563BR10        BRNC        BRNCCOCO    BRNCCOCO13AG00000300000000001132036700000000000000100000000000000000000000001654Z01620200408X066000000
2MAIL0000152563BR10        BRNC        BRNCCOCO    BRNCCOCO13AG00000400000000001235699400000000000001000000000000000000000000003352Z01620200408X066000000
2MAIL0000152563BR10        BRNC        BRNCCOCO    BRNCCOCO13AG00000500000000001235699800000000000001000000000000000000000000003352Z01620200408X066000000
1MAIL0000152564BR10        BRNC        BRNCCOCO    BRNCCOCO13AG2020040800:00:00OR  010000061137930006113793152564                             2020040820200408Z016CIF202004080000000000037718NN0                                                  0                                        
2MAIL0000152564BR10        BRNC        BRNCCOCO    BRNCCOCO13AG00000100000000001132019800000000000000300000000000000000000000005903Z01620200408X066000000
2MAIL0000152564BR10        BRNC        BRNCCOCO    BRNCCOCO13AG00000200000000001132033100000000000000100000000000000000000000002173Z01620200408X066000000
2MAIL0000152564BR10        BRNC        BRNCCOCO    BRNCCOCO13AG00000300000000001132036700000000000000400000000000000000000000008692Z01620200408X066000000
2MAIL0000152564BR10        BRNC        BRNCCOCO    BRNCCOCO13AG00000400000000001236512900000000000002000000000000000000000000003995Z01620200408X066000000
2MAIL0000152564BR10        BRNC        BRNCCOCO    BRNCCOCO13AG00000500000000001236515000000000000002000000000000000000000000003995Z01620200408X066000000
2MAIL0000152564BR10        BRNC        BRNCCOCO    BRNCCOCO13AG00000600000000001241623700000000000000500000000000000000000000012960Z01620200408X066000000
