1MAIL0000151286BR10        BRNC        BRNCCOCO    BRNCCOCO13AG2020032700:00:00OR  010000057063460005706346151286                             2020032720200327Z016CIF202003270000000000006938NN0                                                  0                                        
2MAIL0000151286BR10        BRNC        BRNCCOCO    BRNCCOCO13AG00000100000000001132033100000000000000100000000000000000000000002173Z01620200327X066000000
2MAIL0000151286BR10        BRNC        BRNCCOCO    BRNCCOCO13AG00000200000000001132036700000000000000100000000000000000000000002173Z01620200327X066000000
2MAIL0000151286BR10        BRNC        BRNCCOCO    BRNCCOCO13AG00000300000000001241623700000000000000100000000000000000000000002592Z01620200327X066000000
1MAIL0000151287BR10        BRNC        BRNCCOCO    BRNCCOCO13AG2020032700:00:00OR  010000057063170005706317151287                             2020032720200327Z016CIF202003270000000000026063NN0                                                  0                                        
2MAIL0000151287BR10        BRNC        BRNCCOCO    BRNCCOCO13AG00000100000000001132019800000000000000100000000000000000000000001967Z01620200327X066000000
2MAIL0000151287BR10        BRNC        BRNCCOCO    BRNCCOCO13AG00000200000000001132033100000000000000100000000000000000000000002173Z01620200327X066000000
2MAIL0000151287BR10        BRNC        BRNCCOCO    BRNCCOCO13AG00000300000000001132036700000000000000100000000000000000000000002173Z01620200327X066000000
2MAIL0000151287BR10        BRNC        BRNCCOCO    BRNCCOCO13AG00000400000000001236512900000000000001500000000000000000000000002997Z01620200327X066000000
2MAIL0000151287BR10        BRNC        BRNCCOCO    BRNCCOCO13AG00000500000000001236515000000000000001500000000000000000000000002997Z01620200327X066000000
2MAIL0000151287BR10        BRNC        BRNCCOCO    BRNCCOCO13AG00000600000000001239663300000000000001400000000000000000000000005582Z01620200327X066000000
2MAIL0000151287BR10        BRNC        BRNCCOCO    BRNCCOCO13AG00000700000000001239688800000000000001400000000000000000000000005582Z01620200327X066000000
2MAIL0000151287BR10        BRNC        BRNCCOCO    BRNCCOCO13AG00000800000000001241623700000000000000100000000000000000000000002592Z01620200327X066000000
