1MAIL0000150271BR10        BRNC        BRNCCOCO    BRNCCOCO13AG2020031900:00:00OR  010000058532200005853220150271                             2020031920200319Z859CIF202003190000000000046780NN0                                                  0                                        
2MAIL0000150271BR10        BRNC        BRNCCOCO    BRNCCOCO13AG00000100000000001238478300000000000000600000000000000000000000029268Z85920200319X066000000
2MAIL0000150271BR10        BRNC        BRNCCOCO    BRNCCOCO13AG00000200000000001239922200000000000000800000000000000000000000017512Z85920200319X066000000
1MAIL0000150273BR10        BRNC        BRNCCOCO    BRNCCOCO13AG2020031900:00:00OR  010000053502310005350231150273                             2020031920200319Z016CIF202003190000000000022742NN0                                                  0                                        
2MAIL0000150273BR10        BRNC        BRNCCOCO    BRNCCOCO13AG00000100000000001132019800000000000000100000000000000000000000001498Z01620200319X066000000
2MAIL0000150273BR10        BRNC        BRNCCOCO    BRNCCOCO13AG00000200000000001132036700000000000000800000000000000000000000013230Z01620200319X066000000
2MAIL0000150273BR10        BRNC        BRNCCOCO    BRNCCOCO13AG00000300000000001132200400000000000000200000000000000000000000004230Z01620200319X066000000
2MAIL0000150273BR10        BRNC        BRNCCOCO    BRNCCOCO13AG00000400000000001132400100000000000000100000000000000000000000002286Z01620200319X066000000
2MAIL0000150273BR10        BRNC        BRNCCOCO    BRNCCOCO13AG00000500000000001227735000000000000000100000000000000000000000001498Z01620200319X066000000
1MAIL0000150276BR10        BRNC        BRNCCOCO    BRNCCOCO13AG2020031900:00:00OR  010000009280970000928097150276                             2020031920200319Z016CIF202003190000000000542879NN0                                                  0                                        
2MAIL0000150276BR10        BRNC        BRNCCOCO    BRNCCOCO13AG00000100000000001132019800000000000000100000000000000000000000001929Z01620200319X066000000
2MAIL0000150276BR10        BRNC        BRNCCOCO    BRNCCOCO13AG00000200000000001132033100000000000000300000000000000000000000006389Z01620200319X066000000
2MAIL0000150276BR10        BRNC        BRNCCOCO    BRNCCOCO13AG00000300000000001132034900000000000001000000000000000000000000021709Z01620200319X066000000
2MAIL0000150276BR10        BRNC        BRNCCOCO    BRNCCOCO13AG00000400000000001132035100000000000001000000000000000000000000022920Z01620200319X066000000
2MAIL0000150276BR10        BRNC        BRNCCOCO    BRNCCOCO13AG00000500000000001221415400000000000000300000000000000000000000010412Z01620200319X066000000
2MAIL0000150276BR10        BRNC        BRNCCOCO    BRNCCOCO13AG00000600000000001223975300000000000000400000000000000000000000019903Z01620200319X066000000
2MAIL0000150276BR10        BRNC        BRNCCOCO    BRNCCOCO13AG00000700000000001226089600000000000003600000000000000000000000013467Z01620200319X066000000
2MAIL0000150276BR10        BRNC        BRNCCOCO    BRNCCOCO13AG00000800000000001227395500000000000000400000000000000000000000008519Z01620200319X066000000
2MAIL0000150276BR10        BRNC        BRNCCOCO    BRNCCOCO13AG00000900000000001228274000000000000000200000000000000000000000009952Z01620200319X066000000
2MAIL0000150276BR10        BRNC        BRNCCOCO    BRNCCOCO13AG00001000000000001231189200000000000000400000000000000000000000019903Z01620200319X066000000
2MAIL0000150276BR10        BRNC        BRNCCOCO    BRNCCOCO13AG00001100000000001231231200000000000000400000000000000000000000019903Z01620200319X066000000
2MAIL0000150276BR10        BRNC        BRNCCOCO    BRNCCOCO13AG00001200000000001231233000000000000000400000000000000000000000019903Z01620200319X066000000
2MAIL0000150276BR10        BRNC        BRNCCOCO    BRNCCOCO13AG00001300000000001234705700000000000000300000000000000000000000014928Z01620200319X066000000
2MAIL0000150276BR10        BRNC        BRNCCOCO    BRNCCOCO13AG00001400000000001234705800000000000000300000000000000000000000014928Z01620200319X066000000
2MAIL0000150276BR10        BRNC        BRNCCOCO    BRNCCOCO13AG00001500000000001234705900000000000000200000000000000000000000009952Z01620200319X066000000
2MAIL0000150276BR10        BRNC        BRNCCOCO    BRNCCOCO13AG00001600000000001235699400000000000006000000000000000000000000022490Z01620200319X066000000
2MAIL0000150276BR10        BRNC        BRNCCOCO    BRNCCOCO13AG00001700000000001235699700000000000006000000000000000000000000022490Z01620200319X066000000
2MAIL0000150276BR10        BRNC        BRNCCOCO    BRNCCOCO13AG00001800000000001238083600000000000000200000000000000000000000012368Z01620200319X066000000
2MAIL0000150276BR10        BRNC        BRNCCOCO    BRNCCOCO13AG00001900000000001239373500000000000000100000000000000000000000006214Z01620200319X066000000
2MAIL0000150276BR10        BRNC        BRNCCOCO    BRNCCOCO13AG00002000000000001239688300000000000005600000000000000000000000020949Z01620200319X066000000
2MAIL0000150276BR10        BRNC        BRNCCOCO    BRNCCOCO13AG00002100000000001239688500000000000005600000000000000000000000020949Z01620200319X066000000
2MAIL0000150276BR10        BRNC        BRNCCOCO    BRNCCOCO13AG00002200000000001239688600000000000005600000000000000000000000020949Z01620200319X066000000
2MAIL0000150276BR10        BRNC        BRNCCOCO    BRNCCOCO13AG00002300000000001239688800000000000005600000000000000000000000020949Z01620200319X066000000
2MAIL0000150276BR10        BRNC        BRNCCOCO    BRNCCOCO13AG00002400000000001239692000000000000005600000000000000000000000020949Z01620200319X066000000
2MAIL0000150276BR10        BRNC        BRNCCOCO    BRNCCOCO13AG00002500000000001239692100000000000005600000000000000000000000020949Z01620200319X066000000
2MAIL0000150276BR10        BRNC        BRNCCOCO    BRNCCOCO13AG00002600000000001239692300000000000005600000000000000000000000020949Z01620200319X066000000
2MAIL0000150276BR10        BRNC        BRNCCOCO    BRNCCOCO13AG00002700000000001241623700000000000003000000000000000000000000076059Z01620200319X066000000
2MAIL0000150276BR10        BRNC        BRNCCOCO    BRNCCOCO13AG00002800000000001242626100000000000005600000000000000000000000020949Z01620200319X066000000
2MAIL0000150276BR10        BRNC        BRNCCOCO    BRNCCOCO13AG00002900000000001242754900000000000005600000000000000000000000020949Z01620200319X066000000
1MAIL0000150277BR10        BRNC        BRNCCOCO    BRNCCOCO13AG2020031900:00:00OR  010000038774590003877459150277                             2020031920200319Z016CIF202003190000000000205408NN0                                                  0                                        
2MAIL0000150277BR10        BRNC        BRNCCOCO    BRNCCOCO13AG00000100000000001132033100000000000000300000000000000000000000006375Z01620200319X066000000
2MAIL0000150277BR10        BRNC        BRNCCOCO    BRNCCOCO13AG00000200000000001132036700000000000000400000000000000000000000008501Z01620200319X066000000
2MAIL0000150277BR10        BRNC        BRNCCOCO    BRNCCOCO13AG00000300000000001226089600000000000002400000000000000000000000008958Z01620200319X066000000
2MAIL0000150277BR10        BRNC        BRNCCOCO    BRNCCOCO13AG00000400000000001227395500000000000000300000000000000000000000006375Z01620200319X066000000
2MAIL0000150277BR10        BRNC        BRNCCOCO    BRNCCOCO13AG00000500000000001228512700000000000000200000000000000000000000009930Z01620200319X066000000
2MAIL0000150277BR10        BRNC        BRNCCOCO    BRNCCOCO13AG00000600000000001231189200000000000000200000000000000000000000009930Z01620200319X066000000
2MAIL0000150277BR10        BRNC        BRNCCOCO    BRNCCOCO13AG00000700000000001231389600000000000000300000000000000000000000006375Z01620200319X066000000
2MAIL0000150277BR10        BRNC        BRNCCOCO    BRNCCOCO13AG00000800000000001235699400000000000005000000000000000000000000018701Z01620200319X066000000
2MAIL0000150277BR10        BRNC        BRNCCOCO    BRNCCOCO13AG00000900000000001235699700000000000004000000000000000000000000014961Z01620200319X066000000
2MAIL0000150277BR10        BRNC        BRNCCOCO    BRNCCOCO13AG00001000000000001236512900000000000003500000000000000000000000006223Z01620200319X066000000
2MAIL0000150277BR10        BRNC        BRNCCOCO    BRNCCOCO13AG00001100000000001236515000000000000003500000000000000000000000006223Z01620200319X066000000
2MAIL0000150277BR10        BRNC        BRNCCOCO    BRNCCOCO13AG00001200000000001239688500000000000002800000000000000000000000010452Z01620200319X066000000
2MAIL0000150277BR10        BRNC        BRNCCOCO    BRNCCOCO13AG00001300000000001239688600000000000002800000000000000000000000010452Z01620200319X066000000
2MAIL0000150277BR10        BRNC        BRNCCOCO    BRNCCOCO13AG00001400000000001239688800000000000002800000000000000000000000010452Z01620200319X066000000
2MAIL0000150277BR10        BRNC        BRNCCOCO    BRNCCOCO13AG00001500000000001239692100000000000002800000000000000000000000010452Z01620200319X066000000
2MAIL0000150277BR10        BRNC        BRNCCOCO    BRNCCOCO13AG00001600000000001239692300000000000002800000000000000000000000010452Z01620200319X066000000
2MAIL0000150277BR10        BRNC        BRNCCOCO    BRNCCOCO13AG00001700000000001241623700000000000002000000000000000000000000050596Z01620200319X066000000
