1MAIL0000152636BR10        BRNC        BRNCCOCO    BRNCCOCO13AG2020040800:00:00OR  010000028484200002848420152636                             2020040820200408Z016CIF202004080000000000006443NN0                                                  0                                        
2MAIL0000152636BR10        BRNC        BRNCCOCO    BRNCCOCO13AG00000100000000001132019900000000000000100000000000000000000000002076Z01620200408X066000000
2MAIL0000152636BR10        BRNC        BRNCCOCO    BRNCCOCO13AG00000200000000001132020900000000000000100000000000000000000000002076Z01620200408X066000000
2MAIL0000152636BR10        BRNC        BRNCCOCO    BRNCCOCO13AG00000300000000001132036700000000000000100000000000000000000000002291Z01620200408X066000000
1MAIL0000152637BR10        BRNC        BRNCCOCO    BRNCCOCO13AG2020040800:00:00OR  010000058240450005824045152637                             2020040820200408Z016CIF202004080000000000014030NN0                                                  0                                        
2MAIL0000152637BR10        BRNC        BRNCCOCO    BRNCCOCO13AG00000100000000001236515000000000000007000000000000000000000000014030Z01620200408X066000000
1MAIL0000152638BR10        BRNC        BRNCCOCO    BRNCCOCO13AG2020040800:00:00OR  010000050489390005048939152638                             2020040820200408Z016CIF202004080000000000031987NN0                                                  0                                        
2MAIL0000152638BR10        BRNC        BRNCCOCO    BRNCCOCO13AG00000100000000001132033100000000000000200000000000000000000000004357Z01620200408X066000000
2MAIL0000152638BR10        BRNC        BRNCCOCO    BRNCCOCO13AG00000200000000001132036700000000000000200000000000000000000000004357Z01620200408X066000000
2MAIL0000152638BR10        BRNC        BRNCCOCO    BRNCCOCO13AG00000300000000001215533700000000000000200000000000000000000000004357Z01620200408X066000000
2MAIL0000152638BR10        BRNC        BRNCCOCO    BRNCCOCO13AG00000400000000001223975300000000000000100000000000000000000000005845Z01620200408X066000000
2MAIL0000152638BR10        BRNC        BRNCCOCO    BRNCCOCO13AG00000500000000001227395500000000000000200000000000000000000000004357Z01620200408X066000000
2MAIL0000152638BR10        BRNC        BRNCCOCO    BRNCCOCO13AG00000600000000001231389600000000000000200000000000000000000000004357Z01620200408X066000000
2MAIL0000152638BR10        BRNC        BRNCCOCO    BRNCCOCO13AG00000700000000001236898000000000000000200000000000000000000000004357Z01620200408X066000000
1MAIL0000152639BR10        BRNC        BRNCCOCO    BRNCCOCO13AG2020040800:00:00OR  010000060355350006035535152639                             2020040820200408Z016CIF202004080000000000006519NN0                                                  0                                        
2MAIL0000152639BR10        BRNC        BRNCCOCO    BRNCCOCO13AG00000100000000001132033100000000000000100000000000000000000000002173Z01620200408X066000000
2MAIL0000152639BR10        BRNC        BRNCCOCO    BRNCCOCO13AG00000200000000001132036700000000000000100000000000000000000000002173Z01620200408X066000000
2MAIL0000152639BR10        BRNC        BRNCCOCO    BRNCCOCO13AG00000300000000001215533700000000000000100000000000000000000000002173Z01620200408X066000000
1MAIL0000152640BR10        BRNC        BRNCCOCO    BRNCCOCO13AG2020040800:00:00OR  010000040826730004082673152640                             2020040820200408Z016CIF202004080000000000015424NN0                                                  0                                        
2MAIL0000152640BR10        BRNC        BRNCCOCO    BRNCCOCO13AG00000100000000001132019800000000000000100000000000000000000000002076Z01620200408X066000000
2MAIL0000152640BR10        BRNC        BRNCCOCO    BRNCCOCO13AG00000200000000001132036700000000000000100000000000000000000000002291Z01620200408X066000000
2MAIL0000152640BR10        BRNC        BRNCCOCO    BRNCCOCO13AG00000300000000001132200400000000000000300000000000000000000000006690Z01620200408X066000000
2MAIL0000152640BR10        BRNC        BRNCCOCO    BRNCCOCO13AG00000400000000001215533700000000000000100000000000000000000000002291Z01620200408X066000000
2MAIL0000152640BR10        BRNC        BRNCCOCO    BRNCCOCO13AG00000500000000001227735000000000000000100000000000000000000000002076Z01620200408X066000000
1MAIL0000152641BR10        BRNC        BRNCCOCO    BRNCCOCO13AG2020040800:00:00OR  010000034719270003471927152641                             2020040820200408Z016CIF202004080000000000006873NN0                                                  0                                        
2MAIL0000152641BR10        BRNC        BRNCCOCO    BRNCCOCO13AG00000100000000001132033100000000000000100000000000000000000000002291Z01620200408X066000000
2MAIL0000152641BR10        BRNC        BRNCCOCO    BRNCCOCO13AG00000200000000001132036700000000000000100000000000000000000000002291Z01620200408X066000000
2MAIL0000152641BR10        BRNC        BRNCCOCO    BRNCCOCO13AG00000300000000001215533700000000000000100000000000000000000000002291Z01620200408X066000000
1MAIL0000152642BR10        BRNC        BRNCCOCO    BRNCCOCO13AG2020040800:00:00OR  010000029799040002979904152642                             2020040820200408Z016CIF202004080000000000048438NN0                                                  0                                        
2MAIL0000152642BR10        BRNC        BRNCCOCO    BRNCCOCO13AG00000100000000001132033100000000000000400000000000000000000000008692Z01620200408X066000000
2MAIL0000152642BR10        BRNC        BRNCCOCO    BRNCCOCO13AG00000200000000001132036700000000000000600000000000000000000000013036Z01620200408X066000000
2MAIL0000152642BR10        BRNC        BRNCCOCO    BRNCCOCO13AG00000300000000001132400100000000000000600000000000000000000000018018Z01620200408X066000000
2MAIL0000152642BR10        BRNC        BRNCCOCO    BRNCCOCO13AG00000400000000001215533700000000000000400000000000000000000000008692Z01620200408X066000000
1MAIL0000152643BR10        BRNC        BRNCCOCO    BRNCCOCO13AG2020040800:00:00OR  010000029799730002979973152643                             2020040820200408Z016CIF202004080000000000063711NN0                                                  0                                        
2MAIL0000152643BR10        BRNC        BRNCCOCO    BRNCCOCO13AG00000100000000001132036700000000000000600000000000000000000000013746Z01620200408X066000000
2MAIL0000152643BR10        BRNC        BRNCCOCO    BRNCCOCO13AG00000200000000001132400100000000000000200000000000000000000000006332Z01620200408X066000000
2MAIL0000152643BR10        BRNC        BRNCCOCO    BRNCCOCO13AG00000300000000001215533700000000000000400000000000000000000000009163Z01620200408X066000000
2MAIL0000152643BR10        BRNC        BRNCCOCO    BRNCCOCO13AG00000400000000001226089600000000000001200000000000000000000000005045Z01620200408X066000000
2MAIL0000152643BR10        BRNC        BRNCCOCO    BRNCCOCO13AG00000500000000001239688300000000000001400000000000000000000000005885Z01620200408X066000000
2MAIL0000152643BR10        BRNC        BRNCCOCO    BRNCCOCO13AG00000600000000001239688700000000000001400000000000000000000000005885Z01620200408X066000000
2MAIL0000152643BR10        BRNC        BRNCCOCO    BRNCCOCO13AG00000700000000001239688800000000000001400000000000000000000000005885Z01620200408X066000000
2MAIL0000152643BR10        BRNC        BRNCCOCO    BRNCCOCO13AG00000800000000001239692000000000000001400000000000000000000000005885Z01620200408X066000000
2MAIL0000152643BR10        BRNC        BRNCCOCO    BRNCCOCO13AG00000900000000001242765000000000000001400000000000000000000000005885Z01620200408X066000000
1MAIL0000152644BR10        BRNC        BRNCCOCO    BRNCCOCO13AG2020040800:00:00OR  010000029003420002900342152644                             2020040820200408Z016CIF202004080000000000044407NN0                                                  0                                        
2MAIL0000152644BR10        BRNC        BRNCCOCO    BRNCCOCO13AG00000100000000001231233000000000000000100000000000000000000000005076Z01620200408X066000000
2MAIL0000152644BR10        BRNC        BRNCCOCO    BRNCCOCO13AG00000200000000001236515000000000000004000000000000000000000000007273Z01620200408X066000000
2MAIL0000152644BR10        BRNC        BRNCCOCO    BRNCCOCO13AG00000300000000001239663300000000000002800000000000000000000000010686Z01620200408X066000000
2MAIL0000152644BR10        BRNC        BRNCCOCO    BRNCCOCO13AG00000400000000001239688300000000000002800000000000000000000000010686Z01620200408X066000000
2MAIL0000152644BR10        BRNC        BRNCCOCO    BRNCCOCO13AG00000500000000001239692100000000000002800000000000000000000000010686Z01620200408X066000000
1MAIL0000152645BR10        BRNC        BRNCCOCO    BRNCCOCO13AG2020040800:00:00OR  010000038299660003829966152645                             2020040820200408Z016CIF202004080000000000265651NN0                                                  0                                        
2MAIL0000152645BR10        BRNC        BRNCCOCO    BRNCCOCO13AG00000100000000001132018300000000000000800000000000000000000000023687Z01620200408X066000000
2MAIL0000152645BR10        BRNC        BRNCCOCO    BRNCCOCO13AG00000200000000001132033900000000000001200000000000000000000000042021Z01620200408X066000000
2MAIL0000152645BR10        BRNC        BRNCCOCO    BRNCCOCO13AG00000300000000001132034900000000000002000000000000000000000000045493Z01620200408X066000000
2MAIL0000152645BR10        BRNC        BRNCCOCO    BRNCCOCO13AG00000400000000001132036700000000000003000000000000000000000000055343Z01620200408X066000000
2MAIL0000152645BR10        BRNC        BRNCCOCO    BRNCCOCO13AG00000500000000001221415400000000000000800000000000000000000000023687Z01620200408X066000000
2MAIL0000152645BR10        BRNC        BRNCCOCO    BRNCCOCO13AG00000600000000001227395500000000000000300000000000000000000000005535Z01620200408X066000000
2MAIL0000152645BR10        BRNC        BRNCCOCO    BRNCCOCO13AG00000700000000001235699800000000000005000000000000000000000000017760Z01620200408X066000000
2MAIL0000152645BR10        BRNC        BRNCCOCO    BRNCCOCO13AG00000800000000001236512800000000000005200000000000000000000000008764Z01620200408X066000000
2MAIL0000152645BR10        BRNC        BRNCCOCO    BRNCCOCO13AG00000900000000001236512900000000000007000000000000000000000000011755Z01620200408X066000000
2MAIL0000152645BR10        BRNC        BRNCCOCO    BRNCCOCO13AG00001000000000001236515000000000000007000000000000000000000000011755Z01620200408X066000000
2MAIL0000152645BR10        BRNC        BRNCCOCO    BRNCCOCO13AG00001100000000001239688800000000000005600000000000000000000000019851Z01620200408X066000000
1MAIL0000152647BR10        BRNC        BRNCCOCO    BRNCCOCO13AG2020040800:00:00OR  010000036479400003647940152647                             2020040820200408Z016CIF202004080000000000084993NN0                                                  0                                        
2MAIL0000152647BR10        BRNC        BRNCCOCO    BRNCCOCO13AG00000100000000001132019700000000000000200000000000000000000000004150Z01620200408X066000000
2MAIL0000152647BR10        BRNC        BRNCCOCO    BRNCCOCO13AG00000200000000001132019800000000000000200000000000000000000000004150Z01620200408X066000000
2MAIL0000152647BR10        BRNC        BRNCCOCO    BRNCCOCO13AG00000300000000001132019900000000000000100000000000000000000000002076Z01620200408X066000000
2MAIL0000152647BR10        BRNC        BRNCCOCO    BRNCCOCO13AG00000400000000001132020900000000000000200000000000000000000000004150Z01620200408X066000000
2MAIL0000152647BR10        BRNC        BRNCCOCO    BRNCCOCO13AG00000500000000001132033100000000000000100000000000000000000000002291Z01620200408X066000000
2MAIL0000152647BR10        BRNC        BRNCCOCO    BRNCCOCO13AG00000600000000001132036700000000000000600000000000000000000000013746Z01620200408X066000000
2MAIL0000152647BR10        BRNC        BRNCCOCO    BRNCCOCO13AG00000700000000001132200400000000000000200000000000000000000000004460Z01620200408X066000000
2MAIL0000152647BR10        BRNC        BRNCCOCO    BRNCCOCO13AG00000800000000001132400100000000000000100000000000000000000000003165Z01620200408X066000000
2MAIL0000152647BR10        BRNC        BRNCCOCO    BRNCCOCO13AG00000900000000001221415400000000000000100000000000000000000000003735Z01620200408X066000000
2MAIL0000152647BR10        BRNC        BRNCCOCO    BRNCCOCO13AG00001000000000001223975300000000000000100000000000000000000000005568Z01620200408X066000000
2MAIL0000152647BR10        BRNC        BRNCCOCO    BRNCCOCO13AG00001100000000001227735000000000000000100000000000000000000000002076Z01620200408X066000000
2MAIL0000152647BR10        BRNC        BRNCCOCO    BRNCCOCO13AG00001200000000001228274000000000000000100000000000000000000000005568Z01620200408X066000000
2MAIL0000152647BR10        BRNC        BRNCCOCO    BRNCCOCO13AG00001300000000001231189200000000000000100000000000000000000000005568Z01620200408X066000000
2MAIL0000152647BR10        BRNC        BRNCCOCO    BRNCCOCO13AG00001400000000001231231200000000000000100000000000000000000000005568Z01620200408X066000000
2MAIL0000152647BR10        BRNC        BRNCCOCO    BRNCCOCO13AG00001500000000001239373400000000000000100000000000000000000000006952Z01620200408X066000000
2MAIL0000152647BR10        BRNC        BRNCCOCO    BRNCCOCO13AG00001600000000001239688600000000000001400000000000000000000000005885Z01620200408X066000000
2MAIL0000152647BR10        BRNC        BRNCCOCO    BRNCCOCO13AG00001700000000001239688800000000000001400000000000000000000000005885Z01620200408X066000000
