1MAIL0000150332BR10        BRNC        BRNCCOCO    BRNCCOCO13AG2020031900:00:00OR  010000061137830006113783150332                             2020031920200319Z016CIF202003190000000000006724NN0                                                  0                                        
2MAIL0000150332BR10        BRNC        BRNCCOCO    BRNCCOCO13AG00000100000000001132036700000000000000100000000000000000000000002178Z01620200319X066000000
2MAIL0000150332BR10        BRNC        BRNCCOCO    BRNCCOCO13AG00000200000000001215533700000000000000100000000000000000000000002178Z01620200319X066000000
2MAIL0000150332BR10        BRNC        BRNCCOCO    BRNCCOCO13AG00000300000000001236512800000000000001200000000000000000000000002368Z01620200319X066000000
1MAIL0000150333BR10        BRNC        BRNCCOCO    BRNCCOCO13AG2020031900:00:00OR  010000029370930002937093150333                             2020031920200319Z016CIF202003190000000000029573NN0                                                  0                                        
2MAIL0000150333BR10        BRNC        BRNCCOCO    BRNCCOCO13AG00000100000000001132033100000000000000100000000000000000000000002291Z01620200319X066000000
2MAIL0000150333BR10        BRNC        BRNCCOCO    BRNCCOCO13AG00000200000000001132036700000000000000100000000000000000000000002291Z01620200319X066000000
2MAIL0000150333BR10        BRNC        BRNCCOCO    BRNCCOCO13AG00000300000000001215533700000000000000100000000000000000000000002291Z01620200319X066000000
2MAIL0000150333BR10        BRNC        BRNCCOCO    BRNCCOCO13AG00000400000000001226089600000000000001200000000000000000000000005045Z01620200319X066000000
2MAIL0000150333BR10        BRNC        BRNCCOCO    BRNCCOCO13AG00000500000000001239688800000000000002800000000000000000000000011770Z01620200319X066000000
2MAIL0000150333BR10        BRNC        BRNCCOCO    BRNCCOCO13AG00000600000000001239692000000000000001400000000000000000000000005885Z01620200319X066000000
1MAIL0000150334BR10        BRNC        BRNCCOCO    BRNCCOCO13AG2020031900:00:00OR  010000053502370005350237150334                             2020031920200319Z016CIF202003190000000000016889NN0                                                  0                                        
2MAIL0000150334BR10        BRNC        BRNCCOCO    BRNCCOCO13AG00000100000000001132200400000000000000100000000000000000000000002115Z01620200319X066000000
2MAIL0000150334BR10        BRNC        BRNCCOCO    BRNCCOCO13AG00000200000000001227395500000000000000100000000000000000000000001654Z01620200319X066000000
2MAIL0000150334BR10        BRNC        BRNCCOCO    BRNCCOCO13AG00000300000000001228274000000000000000100000000000000000000000004437Z01620200319X066000000
2MAIL0000150334BR10        BRNC        BRNCCOCO    BRNCCOCO13AG00000400000000001231389600000000000000100000000000000000000000001654Z01620200319X066000000
2MAIL0000150334BR10        BRNC        BRNCCOCO    BRNCCOCO13AG00000500000000001241623700000000000000100000000000000000000000002592Z01620200319X066000000
2MAIL0000150334BR10        BRNC        BRNCCOCO    BRNCCOCO13AG00000600000000001242374800000000000000100000000000000000000000004437Z01620200319X066000000
1MAIL0000150335BR10        BRNC        BRNCCOCO    BRNCCOCO13AG2020031900:00:00OR  010000061659170006165917150335                             2020031920200319Z016CIF202003190000000002379262NN0                                                  0                                        
2MAIL0000150335BR10        BRNC        BRNCCOCO    BRNCCOCO13AG00000100000000001132004000000000000006000000000000000000000000055831Z01620200319X066000000
2MAIL0000150335BR10        BRNC        BRNCCOCO    BRNCCOCO13AG00000200000000001132004200000000000006000000000000000000000000084824Z01620200319X066000000
2MAIL0000150335BR10        BRNC        BRNCCOCO    BRNCCOCO13AG00000300000000001132018300000000000000800000000000000000000000019691Z01620200319X066000000
2MAIL0000150335BR10        BRNC        BRNCCOCO    BRNCCOCO13AG00000400000000001132030800000000000001200000000000000000000000031696Z01620200319X066000000
2MAIL0000150335BR10        BRNC        BRNCCOCO    BRNCCOCO13AG00000500000000001132030900000000000001200000000000000000000000032704Z01620200319X066000000
2MAIL0000150335BR10        BRNC        BRNCCOCO    BRNCCOCO13AG00000600000000001132033100000000000004800000000000000000000000073288Z01620200319X066000000
2MAIL0000150335BR10        BRNC        BRNCCOCO    BRNCCOCO13AG00000700000000001132033900000000000001200000000000000000000000034772Z01620200319X066000000
2MAIL0000150335BR10        BRNC        BRNCCOCO    BRNCCOCO13AG00000800000000001132036700000000000004800000000000000000000000073288Z01620200319X066000000
2MAIL0000150335BR10        BRNC        BRNCCOCO    BRNCCOCO13AG00000900000000001132200400000000000002400000000000000000000000041258Z01620200319X066000000
2MAIL0000150335BR10        BRNC        BRNCCOCO    BRNCCOCO13AG00001000000000001132400100000000000000600000000000000000000000012732Z01620200319X066000000
2MAIL0000150335BR10        BRNC        BRNCCOCO    BRNCCOCO13AG00001100000000001215533700000000000004800000000000000000000000073288Z01620200319X066000000
2MAIL0000150335BR10        BRNC        BRNCCOCO    BRNCCOCO13AG00001200000000001221415400000000000000800000000000000000000000019691Z01620200319X066000000
2MAIL0000150335BR10        BRNC        BRNCCOCO    BRNCCOCO13AG00001300000000001223975300000000000000800000000000000000000000031194Z01620200319X066000000
2MAIL0000150335BR10        BRNC        BRNCCOCO    BRNCCOCO13AG00001400000000001226089600000000000003600000000000000000000000010526Z01620200319X066000000
2MAIL0000150335BR10        BRNC        BRNCCOCO    BRNCCOCO13AG00001500000000001227395500000000000000800000000000000000000000012215Z01620200319X066000000
2MAIL0000150335BR10        BRNC        BRNCCOCO    BRNCCOCO13AG00001600000000001228274000000000000000800000000000000000000000031194Z01620200319X066000000
2MAIL0000150335BR10        BRNC        BRNCCOCO    BRNCCOCO13AG00001700000000001228512700000000000000800000000000000000000000031194Z01620200319X066000000
2MAIL0000150335BR10        BRNC        BRNCCOCO    BRNCCOCO13AG00001800000000001231189200000000000000800000000000000000000000031194Z01620200319X066000000
2MAIL0000150335BR10        BRNC        BRNCCOCO    BRNCCOCO13AG00001900000000001231231200000000000000800000000000000000000000031194Z01620200319X066000000
2MAIL0000150335BR10        BRNC        BRNCCOCO    BRNCCOCO13AG00002000000000001231233000000000000000800000000000000000000000031194Z01620200319X066000000
2MAIL0000150335BR10        BRNC        BRNCCOCO    BRNCCOCO13AG00002100000000001231389600000000000000800000000000000000000000012215Z01620200319X066000000
2MAIL0000150335BR10        BRNC        BRNCCOCO    BRNCCOCO13AG00002200000000001234705700000000000000800000000000000000000000031194Z01620200319X066000000
2MAIL0000150335BR10        BRNC        BRNCCOCO    BRNCCOCO13AG00002300000000001234705800000000000000800000000000000000000000031194Z01620200319X066000000
2MAIL0000150335BR10        BRNC        BRNCCOCO    BRNCCOCO13AG00002400000000001234705900000000000000800000000000000000000000031194Z01620200319X066000000
2MAIL0000150335BR10        BRNC        BRNCCOCO    BRNCCOCO13AG00002500000000001235699400000000000001000000000000000000000000002931Z01620200319X066000000
2MAIL0000150335BR10        BRNC        BRNCCOCO    BRNCCOCO13AG00002600000000001235699700000000000001000000000000000000000000002931Z01620200319X066000000
2MAIL0000150335BR10        BRNC        BRNCCOCO    BRNCCOCO13AG00002700000000001235699800000000000001000000000000000000000000002931Z01620200319X066000000
2MAIL0000150335BR10        BRNC        BRNCCOCO    BRNCCOCO13AG00002800000000001236512800000000000026000000000000000000000000037072Z01620200319X066000000
2MAIL0000150335BR10        BRNC        BRNCCOCO    BRNCCOCO13AG00002900000000001236512900000000000035000000000000000000000000052415Z01620200319X066000000
2MAIL0000150335BR10        BRNC        BRNCCOCO    BRNCCOCO13AG00003000000000001236515000000000000035000000000000000000000000052415Z01620200319X066000000
2MAIL0000150335BR10        BRNC        BRNCCOCO    BRNCCOCO13AG00003100000000001236898000000000000000800000000000000000000000012215Z01620200319X066000000
2MAIL0000150335BR10        BRNC        BRNCCOCO    BRNCCOCO13AG00003200000000001238083600000000000000800000000000000000000000038773Z01620200319X066000000
2MAIL0000150335BR10        BRNC        BRNCCOCO    BRNCCOCO13AG00003300000000001239663300000000000004200000000000000000000000012281Z01620200319X066000000
2MAIL0000150335BR10        BRNC        BRNCCOCO    BRNCCOCO13AG00003400000000001239688300000000000004200000000000000000000000012281Z01620200319X066000000
2MAIL0000150335BR10        BRNC        BRNCCOCO    BRNCCOCO13AG00003500000000001239688500000000000004200000000000000000000000012281Z01620200319X066000000
2MAIL0000150335BR10        BRNC        BRNCCOCO    BRNCCOCO13AG00003600000000001239688600000000000004200000000000000000000000012281Z01620200319X066000000
2MAIL0000150335BR10        BRNC        BRNCCOCO    BRNCCOCO13AG00003700000000001239688700000000000004200000000000000000000000012281Z01620200319X066000000
2MAIL0000150335BR10        BRNC        BRNCCOCO    BRNCCOCO13AG00003800000000001239688800000000000004200000000000000000000000012281Z01620200319X066000000
2MAIL0000150335BR10        BRNC        BRNCCOCO    BRNCCOCO13AG00003900000000001239692000000000000004200000000000000000000000012281Z01620200319X066000000
2MAIL0000150335BR10        BRNC        BRNCCOCO    BRNCCOCO13AG00004000000000001239692100000000000004200000000000000000000000012281Z01620200319X066000000
2MAIL0000150335BR10        BRNC        BRNCCOCO    BRNCCOCO13AG00004100000000001239692300000000000004200000000000000000000000012281Z01620200319X066000000
2MAIL0000150335BR10        BRNC        BRNCCOCO    BRNCCOCO13AG00004200000000001240924900000000000026000000000000000000000000035680Z01620200319X066000000
2MAIL0000150335BR10        BRNC        BRNCCOCO    BRNCCOCO13AG00004300000000001241577400000000000150000000000000000000000000999888Z01620200319X066000000
2MAIL0000150335BR10        BRNC        BRNCCOCO    BRNCCOCO13AG00004400000000001241623700000000000006000000000000000000000000094680Z01620200319X066000000
2MAIL0000150335BR10        BRNC        BRNCCOCO    BRNCCOCO13AG00004500000000001242374800000000000000800000000000000000000000031194Z01620200319X066000000
2MAIL0000150335BR10        BRNC        BRNCCOCO    BRNCCOCO13AG00004600000000001242626100000000000004200000000000000000000000012281Z01620200319X066000000
2MAIL0000150335BR10        BRNC        BRNCCOCO    BRNCCOCO13AG00004700000000001242754900000000000004200000000000000000000000012281Z01620200319X066000000
2MAIL0000150335BR10        BRNC        BRNCCOCO    BRNCCOCO13AG00004800000000001242765000000000000004200000000000000000000000012281Z01620200319X066000000
