1MAIL0000152764BR10        BRNC        BRNCCOCO    BRNCCOCO13AG2020040900:00:00OR  010000058971540005897154152764                             2020040920200409Z016CIF202004090000000000120817NN0                                                  0                                        
2MAIL0000152764BR10        BRNC        BRNCCOCO    BRNCCOCO13AG00000100000000001132018300000000000000100000000000000000000000003735Z01620200409X066000000
2MAIL0000152764BR10        BRNC        BRNCCOCO    BRNCCOCO13AG00000200000000001132019800000000000000100000000000000000000000002076Z01620200409X066000000
2MAIL0000152764BR10        BRNC        BRNCCOCO    BRNCCOCO13AG00000300000000001132020900000000000000100000000000000000000000002076Z01620200409X066000000
2MAIL0000152764BR10        BRNC        BRNCCOCO    BRNCCOCO13AG00000400000000001132033100000000000000100000000000000000000000002291Z01620200409X066000000
2MAIL0000152764BR10        BRNC        BRNCCOCO    BRNCCOCO13AG00000500000000001132036700000000000000200000000000000000000000004581Z01620200409X066000000
2MAIL0000152764BR10        BRNC        BRNCCOCO    BRNCCOCO13AG00000600000000001132200400000000000000200000000000000000000000004460Z01620200409X066000000
2MAIL0000152764BR10        BRNC        BRNCCOCO    BRNCCOCO13AG00000700000000001221415400000000000000100000000000000000000000003735Z01620200409X066000000
2MAIL0000152764BR10        BRNC        BRNCCOCO    BRNCCOCO13AG00000800000000001226089600000000000002400000000000000000000000010087Z01620200409X066000000
2MAIL0000152764BR10        BRNC        BRNCCOCO    BRNCCOCO13AG00000900000000001235699400000000000001000000000000000000000000004211Z01620200409X066000000
2MAIL0000152764BR10        BRNC        BRNCCOCO    BRNCCOCO13AG00001000000000001236512800000000000003600000000000000000000000006864Z01620200409X066000000
2MAIL0000152764BR10        BRNC        BRNCCOCO    BRNCCOCO13AG00001100000000001239688300000000000001400000000000000000000000005885Z01620200409X066000000
2MAIL0000152764BR10        BRNC        BRNCCOCO    BRNCCOCO13AG00001200000000001239688500000000000001400000000000000000000000005885Z01620200409X066000000
2MAIL0000152764BR10        BRNC        BRNCCOCO    BRNCCOCO13AG00001300000000001239688600000000000001400000000000000000000000005885Z01620200409X066000000
2MAIL0000152764BR10        BRNC        BRNCCOCO    BRNCCOCO13AG00001400000000001239688800000000000001400000000000000000000000005885Z01620200409X066000000
2MAIL0000152764BR10        BRNC        BRNCCOCO    BRNCCOCO13AG00001500000000001239692000000000000001400000000000000000000000005885Z01620200409X066000000
2MAIL0000152764BR10        BRNC        BRNCCOCO    BRNCCOCO13AG00001600000000001239692100000000000001400000000000000000000000005885Z01620200409X066000000
2MAIL0000152764BR10        BRNC        BRNCCOCO    BRNCCOCO13AG00001700000000001239692300000000000001400000000000000000000000005885Z01620200409X066000000
2MAIL0000152764BR10        BRNC        BRNCCOCO    BRNCCOCO13AG00001800000000001241577400000000000000500000000000000000000000004810Z01620200409X066000000
2MAIL0000152764BR10        BRNC        BRNCCOCO    BRNCCOCO13AG00001900000000001241623700000000000001000000000000000000000000024811Z01620200409X066000000
2MAIL0000152764BR10        BRNC        BRNCCOCO    BRNCCOCO13AG00002000000000001242754900000000000001400000000000000000000000005885Z01620200409X066000000
1MAIL0000152765BR10        BRNC        BRNCCOCO    BRNCCOCO13AG2020040900:00:00OR  010000042722390004272239152765                             2020040920200409Z016CIF202004090000000000025098NN0                                                  0                                        
2MAIL0000152765BR10        BRNC        BRNCCOCO    BRNCCOCO13AG00000100000000001239688600000000000001400000000000000000000000005885Z01620200409X066000000
2MAIL0000152765BR10        BRNC        BRNCCOCO    BRNCCOCO13AG00000200000000001239688700000000000001400000000000000000000000005885Z01620200409X066000000
2MAIL0000152765BR10        BRNC        BRNCCOCO    BRNCCOCO13AG00000300000000001239688800000000000001400000000000000000000000005885Z01620200409X066000000
2MAIL0000152765BR10        BRNC        BRNCCOCO    BRNCCOCO13AG00000400000000001241623700000000000000300000000000000000000000007443Z01620200409X066000000
1MAIL0000152766BR10        BRNC        BRNCCOCO    BRNCCOCO13AG2020040900:00:00OR  010000044372110004437211152766                             2020040920200409Z079CIF202004090000000000071835NN0                                                  0                                        
2MAIL0000152766BR10        BRNC        BRNCCOCO    BRNCCOCO13AG00000100000000001132200400000000000000100000000000000000000000002236Z07920200409X066000000
2MAIL0000152766BR10        BRNC        BRNCCOCO    BRNCCOCO13AG00000200000000001239688600000000000001400000000000000000000000005896Z07920200409X066000000
2MAIL0000152766BR10        BRNC        BRNCCOCO    BRNCCOCO13AG00000300000000001239688800000000000001400000000000000000000000005896Z07920200409X066000000
2MAIL0000152766BR10        BRNC        BRNCCOCO    BRNCCOCO13AG00000400000000001241577400000000000006000000000000000000000000057807Z07920200409X066000000
1MAIL0000152767BR10        BRNC        BRNCCOCO    BRNCCOCO13AG2020040900:00:00OR  010000052027560005202756152767                             2020040920200409Z079CIF202004090000000000046833NN0                                                  0                                        
2MAIL0000152767BR10        BRNC        BRNCCOCO    BRNCCOCO13AG00000100000000001132004000000000000000500000000000000000000000005676Z07920200409X066000000
2MAIL0000152767BR10        BRNC        BRNCCOCO    BRNCCOCO13AG00000200000000001132004200000000000000500000000000000000000000007827Z07920200409X066000000
2MAIL0000152767BR10        BRNC        BRNCCOCO    BRNCCOCO13AG00000300000000001132033100000000000000100000000000000000000000002297Z07920200409X066000000
2MAIL0000152767BR10        BRNC        BRNCCOCO    BRNCCOCO13AG00000400000000001132036700000000000000100000000000000000000000002297Z07920200409X066000000
2MAIL0000152767BR10        BRNC        BRNCCOCO    BRNCCOCO13AG00000500000000001132200400000000000000200000000000000000000000004472Z07920200409X066000000
2MAIL0000152767BR10        BRNC        BRNCCOCO    BRNCCOCO13AG00000600000000001215533700000000000000100000000000000000000000002297Z07920200409X066000000
2MAIL0000152767BR10        BRNC        BRNCCOCO    BRNCCOCO13AG00000700000000001231231200000000000000100000000000000000000000005581Z07920200409X066000000
2MAIL0000152767BR10        BRNC        BRNCCOCO    BRNCCOCO13AG00000800000000001231389600000000000000100000000000000000000000002297Z07920200409X066000000
2MAIL0000152767BR10        BRNC        BRNCCOCO    BRNCCOCO13AG00000900000000001236898000000000000000100000000000000000000000002297Z07920200409X066000000
2MAIL0000152767BR10        BRNC        BRNCCOCO    BRNCCOCO13AG00001000000000001239688800000000000001400000000000000000000000005896Z07920200409X066000000
2MAIL0000152767BR10        BRNC        BRNCCOCO    BRNCCOCO13AG00001100000000001239692300000000000001400000000000000000000000005896Z07920200409X066000000
1MAIL0000152768BR10        BRNC        BRNCCOCO    BRNCCOCO13AG2020040900:00:00OR  010000040700890004070089152768                             2020040920200409Z016CIF202004090000000000068724NN0                                                  0                                        
2MAIL0000152768BR10        BRNC        BRNCCOCO    BRNCCOCO13AG00000100000000001132033100000000000001500000000000000000000000034362Z01620200409X066000000
2MAIL0000152768BR10        BRNC        BRNCCOCO    BRNCCOCO13AG00000200000000001132036700000000000001500000000000000000000000034362Z01620200409X066000000
1MAIL0000152769BR10        BRNC        BRNCCOCO    BRNCCOCO13AG2020040900:00:00OR  010000058096800005809680152769                             2020040920200409Z016CIF202004090000000000014030NN0                                                  0                                        
2MAIL0000152769BR10        BRNC        BRNCCOCO    BRNCCOCO13AG00000100000000001236515000000000000007000000000000000000000000014030Z01620200409X066000000
1MAIL0000152770BR10        BRNC        BRNCCOCO    BRNCCOCO13AG2020040900:00:00OR  010000056389520005638952152770                             2020040920200409Z016CIF202004090000000000020901NN0                                                  0                                        
2MAIL0000152770BR10        BRNC        BRNCCOCO    BRNCCOCO13AG00000100000000001132033100000000000000100000000000000000000000002291Z01620200409X066000000
2MAIL0000152770BR10        BRNC        BRNCCOCO    BRNCCOCO13AG00000200000000001132036700000000000000100000000000000000000000002291Z01620200409X066000000
2MAIL0000152770BR10        BRNC        BRNCCOCO    BRNCCOCO13AG00000300000000001215533700000000000000100000000000000000000000002291Z01620200409X066000000
2MAIL0000152770BR10        BRNC        BRNCCOCO    BRNCCOCO13AG00000400000000001236512900000000000003500000000000000000000000007014Z01620200409X066000000
2MAIL0000152770BR10        BRNC        BRNCCOCO    BRNCCOCO13AG00000500000000001236515000000000000003500000000000000000000000007014Z01620200409X066000000
1MAIL0000152771BR10        BRNC        BRNCCOCO    BRNCCOCO13AG2020040900:00:00OR  010000040326340004032634152771                             2020040920200409Z016CIF202004090000000000019510NN0                                                  0                                        
2MAIL0000152771BR10        BRNC        BRNCCOCO    BRNCCOCO13AG00000100000000001132019700000000000000100000000000000000000000001681Z01620200409X066000000
2MAIL0000152771BR10        BRNC        BRNCCOCO    BRNCCOCO13AG00000200000000001132019800000000000000100000000000000000000000001681Z01620200409X066000000
2MAIL0000152771BR10        BRNC        BRNCCOCO    BRNCCOCO13AG00000300000000001132020900000000000000100000000000000000000000001681Z01620200409X066000000
2MAIL0000152771BR10        BRNC        BRNCCOCO    BRNCCOCO13AG00000400000000001132036700000000000000100000000000000000000000001856Z01620200409X066000000
2MAIL0000152771BR10        BRNC        BRNCCOCO    BRNCCOCO13AG00000500000000001132200400000000000000100000000000000000000000002105Z01620200409X066000000
2MAIL0000152771BR10        BRNC        BRNCCOCO    BRNCCOCO13AG00000600000000001226089600000000000001200000000000000000000000004073Z01620200409X066000000
2MAIL0000152771BR10        BRNC        BRNCCOCO    BRNCCOCO13AG00000700000000001227735000000000000000100000000000000000000000001681Z01620200409X066000000
2MAIL0000152771BR10        BRNC        BRNCCOCO    BRNCCOCO13AG00000800000000001239688700000000000001400000000000000000000000004752Z01620200409X066000000
1MAIL0000152772BR10        BRNC        BRNCCOCO    BRNCCOCO13AG2020040900:00:00OR  010000048421020004842102152772                             2020040920200409Z016CIF202004090000000000085292NN0                                                  0                                        
2MAIL0000152772BR10        BRNC        BRNCCOCO    BRNCCOCO13AG00000100000000001132004000000000000002000000000000000000000000020406Z01620200409X066000000
2MAIL0000152772BR10        BRNC        BRNCCOCO    BRNCCOCO13AG00000200000000001228512700000000000000200000000000000000000000010153Z01620200409X066000000
2MAIL0000152772BR10        BRNC        BRNCCOCO    BRNCCOCO13AG00000300000000001231231200000000000000200000000000000000000000010153Z01620200409X066000000
2MAIL0000152772BR10        BRNC        BRNCCOCO    BRNCCOCO13AG00000400000000001231233000000000000000200000000000000000000000010153Z01620200409X066000000
2MAIL0000152772BR10        BRNC        BRNCCOCO    BRNCCOCO13AG00000500000000001236512800000000000005200000000000000000000000008973Z01620200409X066000000
2MAIL0000152772BR10        BRNC        BRNCCOCO    BRNCCOCO13AG00000600000000001236512900000000000007000000000000000000000000012727Z01620200409X066000000
2MAIL0000152772BR10        BRNC        BRNCCOCO    BRNCCOCO13AG00000700000000001236515000000000000007000000000000000000000000012727Z01620200409X066000000
1MAIL0000152773BR10        BRNC        BRNCCOCO    BRNCCOCO13AG2020040900:00:00OR  010000050868410005086841152773                             2020040920200409Z016CIF202004090000000000163558NN0                                                  0                                        
2MAIL0000152773BR10        BRNC        BRNCCOCO    BRNCCOCO13AG00000100000000001132019800000000000000400000000000000000000000007872Z01620200409X066000000
2MAIL0000152773BR10        BRNC        BRNCCOCO    BRNCCOCO13AG00000200000000001132019900000000000000400000000000000000000000007872Z01620200409X066000000
2MAIL0000152773BR10        BRNC        BRNCCOCO    BRNCCOCO13AG00000300000000001132033100000000000001600000000000000000000000034765Z01620200409X066000000
2MAIL0000152773BR10        BRNC        BRNCCOCO    BRNCCOCO13AG00000400000000001132034900000000000000500000000000000000000000011074Z01620200409X066000000
2MAIL0000152773BR10        BRNC        BRNCCOCO    BRNCCOCO13AG00000500000000001132035100000000000000500000000000000000000000011693Z01620200409X066000000
2MAIL0000152773BR10        BRNC        BRNCCOCO    BRNCCOCO13AG00000600000000001132036700000000000001600000000000000000000000034765Z01620200409X066000000
2MAIL0000152773BR10        BRNC        BRNCCOCO    BRNCCOCO13AG00000700000000001132200400000000000001000000000000000000000000021151Z01620200409X066000000
2MAIL0000152773BR10        BRNC        BRNCCOCO    BRNCCOCO13AG00000800000000001235699700000000000001000000000000000000000000003825Z01620200409X066000000
2MAIL0000152773BR10        BRNC        BRNCCOCO    BRNCCOCO13AG00000900000000001235699800000000000001000000000000000000000000003825Z01620200409X066000000
2MAIL0000152773BR10        BRNC        BRNCCOCO    BRNCCOCO13AG00001000000000001239688800000000000004200000000000000000000000016030Z01620200409X066000000
2MAIL0000152773BR10        BRNC        BRNCCOCO    BRNCCOCO13AG00001100000000001239692100000000000002800000000000000000000000010686Z01620200409X066000000
1MAIL0000152774BR10        BRNC        BRNCCOCO    BRNCCOCO13AG2020040900:00:00OR  010000039413510003941351152774                             2020040920200409Z016CIF202004090000000000611377NN0                                                  0                                        
2MAIL0000152774BR10        BRNC        BRNCCOCO    BRNCCOCO13AG00000100000000001132004200000000000001000000000000000000000000014137Z01620200409X066000000
2MAIL0000152774BR10        BRNC        BRNCCOCO    BRNCCOCO13AG00000200000000001132019700000000000000400000000000000000000000005563Z01620200409X066000000
2MAIL0000152774BR10        BRNC        BRNCCOCO    BRNCCOCO13AG00000300000000001132019800000000000000400000000000000000000000005563Z01620200409X066000000
2MAIL0000152774BR10        BRNC        BRNCCOCO    BRNCCOCO13AG00000400000000001132019900000000000000400000000000000000000000005563Z01620200409X066000000
2MAIL0000152774BR10        BRNC        BRNCCOCO    BRNCCOCO13AG00000500000000001132020900000000000000400000000000000000000000005563Z01620200409X066000000
2MAIL0000152774BR10        BRNC        BRNCCOCO    BRNCCOCO13AG00000600000000001132400100000000000000400000000000000000000000008488Z01620200409X066000000
2MAIL0000152774BR10        BRNC        BRNCCOCO    BRNCCOCO13AG00000700000000001223975300000000000000400000000000000000000000015597Z01620200409X066000000
2MAIL0000152774BR10        BRNC        BRNCCOCO    BRNCCOCO13AG00000800000000001226089600000000000004800000000000000000000000014035Z01620200409X066000000
2MAIL0000152774BR10        BRNC        BRNCCOCO    BRNCCOCO13AG00000900000000001227735000000000000000400000000000000000000000005563Z01620200409X066000000
2MAIL0000152774BR10        BRNC        BRNCCOCO    BRNCCOCO13AG00001000000000001228274000000000000000400000000000000000000000015597Z01620200409X066000000
2MAIL0000152774BR10        BRNC        BRNCCOCO    BRNCCOCO13AG00001100000000001228512700000000000000400000000000000000000000015597Z01620200409X066000000
2MAIL0000152774BR10        BRNC        BRNCCOCO    BRNCCOCO13AG00001200000000001231189200000000000000400000000000000000000000015597Z01620200409X066000000
2MAIL0000152774BR10        BRNC        BRNCCOCO    BRNCCOCO13AG00001300000000001231231200000000000000400000000000000000000000015597Z01620200409X066000000
2MAIL0000152774BR10        BRNC        BRNCCOCO    BRNCCOCO13AG00001400000000001231233000000000000000400000000000000000000000015597Z01620200409X066000000
2MAIL0000152774BR10        BRNC        BRNCCOCO    BRNCCOCO13AG00001500000000001234705700000000000000400000000000000000000000015597Z01620200409X066000000
2MAIL0000152774BR10        BRNC        BRNCCOCO    BRNCCOCO13AG00001600000000001234705800000000000000400000000000000000000000015597Z01620200409X066000000
2MAIL0000152774BR10        BRNC        BRNCCOCO    BRNCCOCO13AG00001700000000001234705900000000000000400000000000000000000000015597Z01620200409X066000000
2MAIL0000152774BR10        BRNC        BRNCCOCO    BRNCCOCO13AG00001800000000001236512800000000000010400000000000000000000000014829Z01620200409X066000000
2MAIL0000152774BR10        BRNC        BRNCCOCO    BRNCCOCO13AG00001900000000001236515000000000000035000000000000000000000000052415Z01620200409X066000000
2MAIL0000152774BR10        BRNC        BRNCCOCO    BRNCCOCO13AG00002000000000001238083500000000000000400000000000000000000000015597Z01620200409X066000000
2MAIL0000152774BR10        BRNC        BRNCCOCO    BRNCCOCO13AG00002100000000001238083600000000000000400000000000000000000000019387Z01620200409X066000000
2MAIL0000152774BR10        BRNC        BRNCCOCO    BRNCCOCO13AG00002200000000001239373400000000000000400000000000000000000000019486Z01620200409X066000000
2MAIL0000152774BR10        BRNC        BRNCCOCO    BRNCCOCO13AG00002300000000001239373500000000000000400000000000000000000000019486Z01620200409X066000000
2MAIL0000152774BR10        BRNC        BRNCCOCO    BRNCCOCO13AG00002400000000001239373600000000000000400000000000000000000000019486Z01620200409X066000000
2MAIL0000152774BR10        BRNC        BRNCCOCO    BRNCCOCO13AG00002500000000001239373700000000000000400000000000000000000000019486Z01620200409X066000000
2MAIL0000152774BR10        BRNC        BRNCCOCO    BRNCCOCO13AG00002600000000001239663300000000000005600000000000000000000000016374Z01620200409X066000000
2MAIL0000152774BR10        BRNC        BRNCCOCO    BRNCCOCO13AG00002700000000001239688300000000000005600000000000000000000000016374Z01620200409X066000000
2MAIL0000152774BR10        BRNC        BRNCCOCO    BRNCCOCO13AG00002800000000001239688500000000000005600000000000000000000000016374Z01620200409X066000000
2MAIL0000152774BR10        BRNC        BRNCCOCO    BRNCCOCO13AG00002900000000001239688600000000000005600000000000000000000000016374Z01620200409X066000000
2MAIL0000152774BR10        BRNC        BRNCCOCO    BRNCCOCO13AG00003000000000001239688700000000000005600000000000000000000000016374Z01620200409X066000000
2MAIL0000152774BR10        BRNC        BRNCCOCO    BRNCCOCO13AG00003100000000001239688800000000000005600000000000000000000000016374Z01620200409X066000000
2MAIL0000152774BR10        BRNC        BRNCCOCO    BRNCCOCO13AG00003200000000001239692000000000000005600000000000000000000000016374Z01620200409X066000000
2MAIL0000152774BR10        BRNC        BRNCCOCO    BRNCCOCO13AG00003300000000001239692100000000000005600000000000000000000000016374Z01620200409X066000000
2MAIL0000152774BR10        BRNC        BRNCCOCO    BRNCCOCO13AG00003400000000001239692300000000000005600000000000000000000000016374Z01620200409X066000000
2MAIL0000152774BR10        BRNC        BRNCCOCO    BRNCCOCO13AG00003500000000001240924900000000000010400000000000000000000000014272Z01620200409X066000000
2MAIL0000152774BR10        BRNC        BRNCCOCO    BRNCCOCO13AG00003600000000001242374800000000000000400000000000000000000000015597Z01620200409X066000000
2MAIL0000152774BR10        BRNC        BRNCCOCO    BRNCCOCO13AG00003700000000001242626100000000000005600000000000000000000000016374Z01620200409X066000000
2MAIL0000152774BR10        BRNC        BRNCCOCO    BRNCCOCO13AG00003800000000001242754900000000000005600000000000000000000000016374Z01620200409X066000000
2MAIL0000152774BR10        BRNC        BRNCCOCO    BRNCCOCO13AG00003900000000001242765000000000000005600000000000000000000000016374Z01620200409X066000000
1MAIL0000152775BR10        BRNC        BRNCCOCO    BRNCCOCO13AG2020040900:00:00OR  010000052340440005234044152775                             2020040920200409Z016CIF202004090000000000089364NN0                                                  0                                        
2MAIL0000152775BR10        BRNC        BRNCCOCO    BRNCCOCO13AG00000100000000001132033100000000000000100000000000000000000000002173Z01620200409X066000000
2MAIL0000152775BR10        BRNC        BRNCCOCO    BRNCCOCO13AG00000200000000001132200400000000000000500000000000000000000000010575Z01620200409X066000000
2MAIL0000152775BR10        BRNC        BRNCCOCO    BRNCCOCO13AG00000300000000001215533700000000000000100000000000000000000000002173Z01620200409X066000000
2MAIL0000152775BR10        BRNC        BRNCCOCO    BRNCCOCO13AG00000400000000001224882700000000000000100000000000000000000000003159Z01620200409X066000000
2MAIL0000152775BR10        BRNC        BRNCCOCO    BRNCCOCO13AG00000500000000001231189200000000000000100000000000000000000000005076Z01620200409X066000000
2MAIL0000152775BR10        BRNC        BRNCCOCO    BRNCCOCO13AG00000600000000001234705800000000000000100000000000000000000000005076Z01620200409X066000000
2MAIL0000152775BR10        BRNC        BRNCCOCO    BRNCCOCO13AG00000700000000001235699400000000000001000000000000000000000000003825Z01620200409X066000000
2MAIL0000152775BR10        BRNC        BRNCCOCO    BRNCCOCO13AG00000800000000001235699700000000000001000000000000000000000000003825Z01620200409X066000000
2MAIL0000152775BR10        BRNC        BRNCCOCO    BRNCCOCO13AG00000900000000001238083500000000000000100000000000000000000000005076Z01620200409X066000000
2MAIL0000152775BR10        BRNC        BRNCCOCO    BRNCCOCO13AG00001000000000001239373500000000000000100000000000000000000000006340Z01620200409X066000000
2MAIL0000152775BR10        BRNC        BRNCCOCO    BRNCCOCO13AG00001100000000001239663300000000000001400000000000000000000000005343Z01620200409X066000000
2MAIL0000152775BR10        BRNC        BRNCCOCO    BRNCCOCO13AG00001200000000001239688300000000000001400000000000000000000000005343Z01620200409X066000000
2MAIL0000152775BR10        BRNC        BRNCCOCO    BRNCCOCO13AG00001300000000001239688600000000000001400000000000000000000000005343Z01620200409X066000000
2MAIL0000152775BR10        BRNC        BRNCCOCO    BRNCCOCO13AG00001400000000001239692000000000000001400000000000000000000000005343Z01620200409X066000000
2MAIL0000152775BR10        BRNC        BRNCCOCO    BRNCCOCO13AG00001500000000001241623700000000000000800000000000000000000000020694Z01620200409X066000000
1MAIL0000152776BR10        BRNC        BRNCCOCO    BRNCCOCO13AG2020040900:00:00OR  010000052344000005234400152776                             2020040920200409Z016CIF202004090000000000082825NN0                                                  0                                        
2MAIL0000152776BR10        BRNC        BRNCCOCO    BRNCCOCO13AG00000100000000001132004000000000000001000000000000000000000000010202Z01620200409X066000000
2MAIL0000152776BR10        BRNC        BRNCCOCO    BRNCCOCO13AG00000200000000001132035000000000000002000000000000000000000000049211Z01620200409X066000000
2MAIL0000152776BR10        BRNC        BRNCCOCO    BRNCCOCO13AG00000300000000001231231200000000000000100000000000000000000000005076Z01620200409X066000000
2MAIL0000152776BR10        BRNC        BRNCCOCO    BRNCCOCO13AG00000400000000001235699400000000000001000000000000000000000000003825Z01620200409X066000000
2MAIL0000152776BR10        BRNC        BRNCCOCO    BRNCCOCO13AG00000500000000001235699800000000000001000000000000000000000000003825Z01620200409X066000000
2MAIL0000152776BR10        BRNC        BRNCCOCO    BRNCCOCO13AG00000600000000001239688800000000000001400000000000000000000000005343Z01620200409X066000000
2MAIL0000152776BR10        BRNC        BRNCCOCO    BRNCCOCO13AG00000700000000001239692100000000000001400000000000000000000000005343Z01620200409X066000000
1MAIL0000152777BR10        BRNC        BRNCCOCO    BRNCCOCO13AG2020040900:00:00OR  010000056381310005638131152777                             2020040920200409Z016CIF202004090000000000165786NN0                                                  0                                        
2MAIL0000152777BR10        BRNC        BRNCCOCO    BRNCCOCO13AG00000100000000001132004000000000000001000000000000000000000000010225Z01620200409X066000000
2MAIL0000152777BR10        BRNC        BRNCCOCO    BRNCCOCO13AG00000200000000001132004200000000000001000000000000000000000000014096Z01620200409X066000000
2MAIL0000152777BR10        BRNC        BRNCCOCO    BRNCCOCO13AG00000300000000001132019700000000000000100000000000000000000000001972Z01620200409X066000000
2MAIL0000152777BR10        BRNC        BRNCCOCO    BRNCCOCO13AG00000400000000001132019800000000000000100000000000000000000000001972Z01620200409X066000000
2MAIL0000152777BR10        BRNC        BRNCCOCO    BRNCCOCO13AG00000500000000001132020900000000000000100000000000000000000000001972Z01620200409X066000000
2MAIL0000152777BR10        BRNC        BRNCCOCO    BRNCCOCO13AG00000600000000001132036700000000000000200000000000000000000000004355Z01620200409X066000000
2MAIL0000152777BR10        BRNC        BRNCCOCO    BRNCCOCO13AG00000700000000001132200400000000000000300000000000000000000000006359Z01620200409X066000000
2MAIL0000152777BR10        BRNC        BRNCCOCO    BRNCCOCO13AG00000800000000001215533700000000000000200000000000000000000000004355Z01620200409X066000000
2MAIL0000152777BR10        BRNC        BRNCCOCO    BRNCCOCO13AG00000900000000001223975300000000000000100000000000000000000000005087Z01620200409X066000000
2MAIL0000152777BR10        BRNC        BRNCCOCO    BRNCCOCO13AG00001000000000001224882700000000000000300000000000000000000000009495Z01620200409X066000000
2MAIL0000152777BR10        BRNC        BRNCCOCO    BRNCCOCO13AG00001100000000001231189200000000000000100000000000000000000000005087Z01620200409X066000000
2MAIL0000152777BR10        BRNC        BRNCCOCO    BRNCCOCO13AG00001200000000001231231200000000000000200000000000000000000000010176Z01620200409X066000000
2MAIL0000152777BR10        BRNC        BRNCCOCO    BRNCCOCO13AG00001300000000001231233000000000000000100000000000000000000000005087Z01620200409X066000000
2MAIL0000152777BR10        BRNC        BRNCCOCO    BRNCCOCO13AG00001400000000001234705700000000000000200000000000000000000000010176Z01620200409X066000000
2MAIL0000152777BR10        BRNC        BRNCCOCO    BRNCCOCO13AG00001500000000001234705800000000000000100000000000000000000000005087Z01620200409X066000000
2MAIL0000152777BR10        BRNC        BRNCCOCO    BRNCCOCO13AG00001600000000001234705900000000000000200000000000000000000000010176Z01620200409X066000000
2MAIL0000152777BR10        BRNC        BRNCCOCO    BRNCCOCO13AG00001700000000001235699800000000000001000000000000000000000000003833Z01620200409X066000000
2MAIL0000152777BR10        BRNC        BRNCCOCO    BRNCCOCO13AG00001800000000001238083500000000000000100000000000000000000000005087Z01620200409X066000000
2MAIL0000152777BR10        BRNC        BRNCCOCO    BRNCCOCO13AG00001900000000001239373400000000000000100000000000000000000000006353Z01620200409X066000000
2MAIL0000152777BR10        BRNC        BRNCCOCO    BRNCCOCO13AG00002000000000001239373500000000000000100000000000000000000000006353Z01620200409X066000000
2MAIL0000152777BR10        BRNC        BRNCCOCO    BRNCCOCO13AG00002100000000001239373600000000000000100000000000000000000000006353Z01620200409X066000000
2MAIL0000152777BR10        BRNC        BRNCCOCO    BRNCCOCO13AG00002200000000001239663300000000000001400000000000000000000000005355Z01620200409X066000000
2MAIL0000152777BR10        BRNC        BRNCCOCO    BRNCCOCO13AG00002300000000001239688300000000000001400000000000000000000000005355Z01620200409X066000000
2MAIL0000152777BR10        BRNC        BRNCCOCO    BRNCCOCO13AG00002400000000001239688600000000000001400000000000000000000000005355Z01620200409X066000000
2MAIL0000152777BR10        BRNC        BRNCCOCO    BRNCCOCO13AG00002500000000001239688700000000000001400000000000000000000000005355Z01620200409X066000000
2MAIL0000152777BR10        BRNC        BRNCCOCO    BRNCCOCO13AG00002600000000001239688800000000000001400000000000000000000000005355Z01620200409X066000000
2MAIL0000152777BR10        BRNC        BRNCCOCO    BRNCCOCO13AG00002700000000001239692100000000000001400000000000000000000000005355Z01620200409X066000000
1MAIL0000152778BR10        BRNC        BRNCCOCO    BRNCCOCO13AG2020040900:00:00OR  010000052343390005234339152778                             2020040920200409Z016CIF202004090000000000068552NN0                                                  0                                        
2MAIL0000152778BR10        BRNC        BRNCCOCO    BRNCCOCO13AG00000100000000001132019700000000000000200000000000000000000000003936Z01620200409X066000000
2MAIL0000152778BR10        BRNC        BRNCCOCO    BRNCCOCO13AG00000200000000001132019800000000000000200000000000000000000000003936Z01620200409X066000000
2MAIL0000152778BR10        BRNC        BRNCCOCO    BRNCCOCO13AG00000300000000001132020900000000000000200000000000000000000000003936Z01620200409X066000000
2MAIL0000152778BR10        BRNC        BRNCCOCO    BRNCCOCO13AG00000400000000001132033100000000000000300000000000000000000000006518Z01620200409X066000000
2MAIL0000152778BR10        BRNC        BRNCCOCO    BRNCCOCO13AG00000500000000001132036700000000000000600000000000000000000000013036Z01620200409X066000000
2MAIL0000152778BR10        BRNC        BRNCCOCO    BRNCCOCO13AG00000600000000001132200400000000000000500000000000000000000000010575Z01620200409X066000000
2MAIL0000152778BR10        BRNC        BRNCCOCO    BRNCCOCO13AG00000700000000001215533700000000000000200000000000000000000000004345Z01620200409X066000000
2MAIL0000152778BR10        BRNC        BRNCCOCO    BRNCCOCO13AG00000800000000001227735000000000000000200000000000000000000000003936Z01620200409X066000000
2MAIL0000152778BR10        BRNC        BRNCCOCO    BRNCCOCO13AG00000900000000001235699800000000000002000000000000000000000000007648Z01620200409X066000000
2MAIL0000152778BR10        BRNC        BRNCCOCO    BRNCCOCO13AG00001000000000001239692000000000000002800000000000000000000000010686Z01620200409X066000000
1MAIL0000152779BR10        BRNC        BRNCCOCO    BRNCCOCO13AG2020040900:00:00OR  010000028984700002898470152779                             2020040920200409Z016CIF202004090000000000023994NN0                                                  0                                        
2MAIL0000152779BR10        BRNC        BRNCCOCO    BRNCCOCO13AG00000100000000001132019800000000000000100000000000000000000000002076Z01620200409X066000000
2MAIL0000152779BR10        BRNC        BRNCCOCO    BRNCCOCO13AG00000200000000001132033100000000000000100000000000000000000000002291Z01620200409X066000000
2MAIL0000152779BR10        BRNC        BRNCCOCO    BRNCCOCO13AG00000300000000001132036700000000000000100000000000000000000000002291Z01620200409X066000000
2MAIL0000152779BR10        BRNC        BRNCCOCO    BRNCCOCO13AG00000400000000001236512900000000000001000000000000000000000000002004Z01620200409X066000000
2MAIL0000152779BR10        BRNC        BRNCCOCO    BRNCCOCO13AG00000500000000001236515000000000000001000000000000000000000000002004Z01620200409X066000000
2MAIL0000152779BR10        BRNC        BRNCCOCO    BRNCCOCO13AG00000600000000001239688800000000000001400000000000000000000000005885Z01620200409X066000000
2MAIL0000152779BR10        BRNC        BRNCCOCO    BRNCCOCO13AG00000700000000001241623700000000000000300000000000000000000000007443Z01620200409X066000000
1MAIL0000152780BR10        BRNC        BRNCCOCO    BRNCCOCO13AG2020040900:00:00OR  010000057141500005714150152780                             2020040920200409Z016CIF202004090000000000025238NN0                                                  0                                        
2MAIL0000152780BR10        BRNC        BRNCCOCO    BRNCCOCO13AG00000100000000001132036700000000000000100000000000000000000000002291Z01620200409X066000000
2MAIL0000152780BR10        BRNC        BRNCCOCO    BRNCCOCO13AG00000200000000001235699400000000000001000000000000000000000000004211Z01620200409X066000000
2MAIL0000152780BR10        BRNC        BRNCCOCO    BRNCCOCO13AG00000300000000001236512900000000000000500000000000000000000000001002Z01620200409X066000000
2MAIL0000152780BR10        BRNC        BRNCCOCO    BRNCCOCO13AG00000400000000001236515000000000000000500000000000000000000000001002Z01620200409X066000000
2MAIL0000152780BR10        BRNC        BRNCCOCO    BRNCCOCO13AG00000500000000001239688600000000000001400000000000000000000000005885Z01620200409X066000000
2MAIL0000152780BR10        BRNC        BRNCCOCO    BRNCCOCO13AG00000600000000001239688800000000000001400000000000000000000000005885Z01620200409X066000000
2MAIL0000152780BR10        BRNC        BRNCCOCO    BRNCCOCO13AG00000700000000001241623700000000000000200000000000000000000000004962Z01620200409X066000000
1MAIL0000152781BR10        BRNC        BRNCCOCO    BRNCCOCO13AG2020040900:00:00OR  010000042854900004285490152781                             2020040920200409Z016CIF202004090000000000011770NN0                                                  0                                        
2MAIL0000152781BR10        BRNC        BRNCCOCO    BRNCCOCO13AG00000100000000001239688600000000000001400000000000000000000000005885Z01620200409X066000000
2MAIL0000152781BR10        BRNC        BRNCCOCO    BRNCCOCO13AG00000200000000001239688800000000000001400000000000000000000000005885Z01620200409X066000000
1MAIL0000152782BR10        BRNC        BRNCCOCO    BRNCCOCO13AG2020040900:00:00OR  010000028650580002865058152782                             2020040920200409Z016CIF202004090000000000028060NN0                                                  0                                        
2MAIL0000152782BR10        BRNC        BRNCCOCO    BRNCCOCO13AG00000100000000001236512900000000000007000000000000000000000000014030Z01620200409X066000000
2MAIL0000152782BR10        BRNC        BRNCCOCO    BRNCCOCO13AG00000200000000001236515000000000000007000000000000000000000000014030Z01620200409X066000000
1MAIL0000152783BR10        BRNC        BRNCCOCO    BRNCCOCO13AG2020040900:00:00OR  010000037720690003772069152783                             2020040920200409Z016CIF202004090000000000076619NN0                                                  0                                        
2MAIL0000152783BR10        BRNC        BRNCCOCO    BRNCCOCO13AG00000100000000001132034900000000000000500000000000000000000000012283Z01620200409X066000000
2MAIL0000152783BR10        BRNC        BRNCCOCO    BRNCCOCO13AG00000200000000001224882700000000000000200000000000000000000000006659Z01620200409X066000000
2MAIL0000152783BR10        BRNC        BRNCCOCO    BRNCCOCO13AG00000300000000001224882800000000000000200000000000000000000000006659Z01620200409X066000000
2MAIL0000152783BR10        BRNC        BRNCCOCO    BRNCCOCO13AG00000400000000001227395500000000000000200000000000000000000000004581Z01620200409X066000000
2MAIL0000152783BR10        BRNC        BRNCCOCO    BRNCCOCO13AG00000500000000001231389600000000000000200000000000000000000000004581Z01620200409X066000000
2MAIL0000152783BR10        BRNC        BRNCCOCO    BRNCCOCO13AG00000600000000001235699700000000000001000000000000000000000000004211Z01620200409X066000000
2MAIL0000152783BR10        BRNC        BRNCCOCO    BRNCCOCO13AG00000700000000001235699800000000000001000000000000000000000000004211Z01620200409X066000000
2MAIL0000152783BR10        BRNC        BRNCCOCO    BRNCCOCO13AG00000800000000001236898000000000000000200000000000000000000000004581Z01620200409X066000000
2MAIL0000152783BR10        BRNC        BRNCCOCO    BRNCCOCO13AG00000900000000001241577400000000000003000000000000000000000000028853Z01620200409X066000000
1MAIL0000152784BR10        BRNC        BRNCCOCO    BRNCCOCO13AG2020040900:00:00OR  010000029839620002983962152784                             2020040920200409Z016CIF202004090000000000016518NN0                                                  0                                        
2MAIL0000152784BR10        BRNC        BRNCCOCO    BRNCCOCO13AG00000100000000001132019800000000000000100000000000000000000000002012Z01620200409X066003000
2MAIL0000152784BR10        BRNC        BRNCCOCO    BRNCCOCO13AG00000200000000001132033100000000000000100000000000000000000000002223Z01620200409X066003000
2MAIL0000152784BR10        BRNC        BRNCCOCO    BRNCCOCO13AG00000300000000001132036700000000000000100000000000000000000000002223Z01620200409X066003000
2MAIL0000152784BR10        BRNC        BRNCCOCO    BRNCCOCO13AG00000400000000001236512900000000000000500000000000000000000000000973Z01620200409X066003000
2MAIL0000152784BR10        BRNC        BRNCCOCO    BRNCCOCO13AG00000500000000001236515000000000000000500000000000000000000000000973Z01620200409X066003000
2MAIL0000152784BR10        BRNC        BRNCCOCO    BRNCCOCO13AG00000600000000001239688800000000000001400000000000000000000000005708Z01620200409X066003000
2MAIL0000152784BR10        BRNC        BRNCCOCO    BRNCCOCO13AG00000700000000001241623700000000000000100000000000000000000000002406Z01620200409X066003000
1MAIL0000152785BR10        BRNC        BRNCCOCO    BRNCCOCO13AG2020040900:00:00OR  010000057063230005706323152785                             2020040920200409Z016CIF202004090000000000009130NN0                                                  0                                        
2MAIL0000152785BR10        BRNC        BRNCCOCO    BRNCCOCO13AG00000100000000001132036700000000000000100000000000000000000000002173Z01620200409X066000000
2MAIL0000152785BR10        BRNC        BRNCCOCO    BRNCCOCO13AG00000200000000001215533700000000000000100000000000000000000000002173Z01620200409X066000000
2MAIL0000152785BR10        BRNC        BRNCCOCO    BRNCCOCO13AG00000300000000001226089600000000000001200000000000000000000000004784Z01620200409X066000000
1MAIL0000152786BR10        BRNC        BRNCCOCO    BRNCCOCO13AG2020040900:00:00OR  010000032944140003294414152786                             2020040920200409Z016CIF202004090000000000032520NN0                                                  0                                        
2MAIL0000152786BR10        BRNC        BRNCCOCO    BRNCCOCO13AG00000100000000001132200400000000000000200000000000000000000000004460Z01620200409X066000000
2MAIL0000152786BR10        BRNC        BRNCCOCO    BRNCCOCO13AG00000200000000001236512900000000000007000000000000000000000000014030Z01620200409X066000000
2MAIL0000152786BR10        BRNC        BRNCCOCO    BRNCCOCO13AG00000300000000001236515000000000000007000000000000000000000000014030Z01620200409X066000000
1MAIL0000152787BR10        BRNC        BRNCCOCO    BRNCCOCO13AG2020040900:00:00OR  010000032944140003294414152787                             2020040920200409Z016CIF202004090000000000031425NN0                                                  0                                        
2MAIL0000152787BR10        BRNC        BRNCCOCO    BRNCCOCO13AG00000100000000001132019800000000000000100000000000000000000000002076Z01620200409X066000000
2MAIL0000152787BR10        BRNC        BRNCCOCO    BRNCCOCO13AG00000200000000001132019900000000000000100000000000000000000000002076Z01620200409X066000000
2MAIL0000152787BR10        BRNC        BRNCCOCO    BRNCCOCO13AG00000300000000001132036700000000000000500000000000000000000000011454Z01620200409X066000000
2MAIL0000152787BR10        BRNC        BRNCCOCO    BRNCCOCO13AG00000400000000001215533700000000000000200000000000000000000000004581Z01620200409X066000000
2MAIL0000152787BR10        BRNC        BRNCCOCO    BRNCCOCO13AG00000500000000001227735000000000000000100000000000000000000000002076Z01620200409X066000000
2MAIL0000152787BR10        BRNC        BRNCCOCO    BRNCCOCO13AG00000600000000001231389600000000000000200000000000000000000000004581Z01620200409X066000000
2MAIL0000152787BR10        BRNC        BRNCCOCO    BRNCCOCO13AG00000700000000001236898000000000000000200000000000000000000000004581Z01620200409X066000000
1MAIL0000152788BR10        BRNC        BRNCCOCO    BRNCCOCO13AG2020040900:00:00OR  010000029799710002979971152788                             2020040920200409Z016CIF202004090000000000151070NN0                                                  0                                        
2MAIL0000152788BR10        BRNC        BRNCCOCO    BRNCCOCO13AG00000100000000001132004000000000000001000000000000000000000000010202Z01620200409X066000000
2MAIL0000152788BR10        BRNC        BRNCCOCO    BRNCCOCO13AG00000200000000001132004200000000000001000000000000000000000000014065Z01620200409X066000000
2MAIL0000152788BR10        BRNC        BRNCCOCO    BRNCCOCO13AG00000300000000001132019700000000000000200000000000000000000000003936Z01620200409X066000000
2MAIL0000152788BR10        BRNC        BRNCCOCO    BRNCCOCO13AG00000400000000001132019800000000000000200000000000000000000000003936Z01620200409X066000000
2MAIL0000152788BR10        BRNC        BRNCCOCO    BRNCCOCO13AG00000500000000001132020900000000000000200000000000000000000000003936Z01620200409X066000000
2MAIL0000152788BR10        BRNC        BRNCCOCO    BRNCCOCO13AG00000600000000001132033100000000000000500000000000000000000000010863Z01620200409X066000000
2MAIL0000152788BR10        BRNC        BRNCCOCO    BRNCCOCO13AG00000700000000001132034900000000000000500000000000000000000000011074Z01620200409X066000000
2MAIL0000152788BR10        BRNC        BRNCCOCO    BRNCCOCO13AG00000800000000001132035000000000000000500000000000000000000000012302Z01620200409X066000000
2MAIL0000152788BR10        BRNC        BRNCCOCO    BRNCCOCO13AG00000900000000001132036700000000000000600000000000000000000000013036Z01620200409X066000000
2MAIL0000152788BR10        BRNC        BRNCCOCO    BRNCCOCO13AG00001000000000001215533700000000000000400000000000000000000000008692Z01620200409X066000000
2MAIL0000152788BR10        BRNC        BRNCCOCO    BRNCCOCO13AG00001100000000001223975300000000000000100000000000000000000000005076Z01620200409X066000000
2MAIL0000152788BR10        BRNC        BRNCCOCO    BRNCCOCO13AG00001200000000001231189200000000000000100000000000000000000000005076Z01620200409X066000000
2MAIL0000152788BR10        BRNC        BRNCCOCO    BRNCCOCO13AG00001300000000001235699400000000000001000000000000000000000000003825Z01620200409X066000000
2MAIL0000152788BR10        BRNC        BRNCCOCO    BRNCCOCO13AG00001400000000001235699700000000000001000000000000000000000000003825Z01620200409X066000000
2MAIL0000152788BR10        BRNC        BRNCCOCO    BRNCCOCO13AG00001500000000001235699800000000000001000000000000000000000000003825Z01620200409X066000000
2MAIL0000152788BR10        BRNC        BRNCCOCO    BRNCCOCO13AG00001600000000001239663300000000000001400000000000000000000000005343Z01620200409X066000000
2MAIL0000152788BR10        BRNC        BRNCCOCO    BRNCCOCO13AG00001700000000001239688300000000000001400000000000000000000000005343Z01620200409X066000000
2MAIL0000152788BR10        BRNC        BRNCCOCO    BRNCCOCO13AG00001800000000001239688500000000000001400000000000000000000000005343Z01620200409X066000000
2MAIL0000152788BR10        BRNC        BRNCCOCO    BRNCCOCO13AG00001900000000001239688700000000000001400000000000000000000000005343Z01620200409X066000000
2MAIL0000152788BR10        BRNC        BRNCCOCO    BRNCCOCO13AG00002000000000001239688800000000000001400000000000000000000000005343Z01620200409X066000000
2MAIL0000152788BR10        BRNC        BRNCCOCO    BRNCCOCO13AG00002100000000001239692100000000000001400000000000000000000000005343Z01620200409X066000000
2MAIL0000152788BR10        BRNC        BRNCCOCO    BRNCCOCO13AG00002200000000001239692300000000000001400000000000000000000000005343Z01620200409X066000000
1MAIL0000152789BR10        BRNC        BRNCCOCO    BRNCCOCO13AG2020040900:00:00OR  010000029798870002979887152789                             2020040920200409Z016CIF202004090000000000105651NN0                                                  0                                        
2MAIL0000152789BR10        BRNC        BRNCCOCO    BRNCCOCO13AG00000100000000001132019800000000000000100000000000000000000000001739Z01620200409X066000000
2MAIL0000152789BR10        BRNC        BRNCCOCO    BRNCCOCO13AG00000200000000001132030800000000000000400000000000000000000000013212Z01620200409X066000000
2MAIL0000152789BR10        BRNC        BRNCCOCO    BRNCCOCO13AG00000300000000001132185100000000000000400000000000000000000000012072Z01620200409X066000000
2MAIL0000152789BR10        BRNC        BRNCCOCO    BRNCCOCO13AG00000400000000001235699700000000000001000000000000000000000000003484Z01620200409X066000000
2MAIL0000152789BR10        BRNC        BRNCCOCO    BRNCCOCO13AG00000500000000001235699800000000000001000000000000000000000000003484Z01620200409X066000000
2MAIL0000152789BR10        BRNC        BRNCCOCO    BRNCCOCO13AG00000600000000001239663300000000000001400000000000000000000000004868Z01620200409X066000000
2MAIL0000152789BR10        BRNC        BRNCCOCO    BRNCCOCO13AG00000700000000001239688300000000000001400000000000000000000000004868Z01620200409X066000000
2MAIL0000152789BR10        BRNC        BRNCCOCO    BRNCCOCO13AG00000800000000001239688700000000000001400000000000000000000000004868Z01620200409X066000000
2MAIL0000152789BR10        BRNC        BRNCCOCO    BRNCCOCO13AG00000900000000001239688800000000000001400000000000000000000000004868Z01620200409X066000000
2MAIL0000152789BR10        BRNC        BRNCCOCO    BRNCCOCO13AG00001000000000001239692100000000000001400000000000000000000000004868Z01620200409X066000000
2MAIL0000152789BR10        BRNC        BRNCCOCO    BRNCCOCO13AG00001100000000001241577400000000000006000000000000000000000000047320Z01620200409X066000000
1MAIL0000152790BR10        BRNC        BRNCCOCO    BRNCCOCO13AG2020040900:00:00OR  010000029894790002989479152790                             2020040920200409Z016CIF202004090000000000016518NN0                                                  0                                        
2MAIL0000152790BR10        BRNC        BRNCCOCO    BRNCCOCO13AG00000100000000001132019800000000000000100000000000000000000000002012Z01620200409X066003000
2MAIL0000152790BR10        BRNC        BRNCCOCO    BRNCCOCO13AG00000200000000001132033100000000000000100000000000000000000000002223Z01620200409X066003000
2MAIL0000152790BR10        BRNC        BRNCCOCO    BRNCCOCO13AG00000300000000001132036700000000000000100000000000000000000000002223Z01620200409X066003000
2MAIL0000152790BR10        BRNC        BRNCCOCO    BRNCCOCO13AG00000400000000001236512900000000000000500000000000000000000000000973Z01620200409X066003000
2MAIL0000152790BR10        BRNC        BRNCCOCO    BRNCCOCO13AG00000500000000001236515000000000000000500000000000000000000000000973Z01620200409X066003000
2MAIL0000152790BR10        BRNC        BRNCCOCO    BRNCCOCO13AG00000600000000001239688800000000000001400000000000000000000000005708Z01620200409X066003000
2MAIL0000152790BR10        BRNC        BRNCCOCO    BRNCCOCO13AG00000700000000001241623700000000000000100000000000000000000000002406Z01620200409X066003000
1MAIL0000152791BR10        BRNC        BRNCCOCO    BRNCCOCO13AG2020040900:00:00OR  010000054778340005477834152791                             2020040920200409Z016CIF202004090000000000011083NN0                                                  0                                        
2MAIL0000152791BR10        BRNC        BRNCCOCO    BRNCCOCO13AG00000100000000001132036700000000000000300000000000000000000000006872Z01620200409X066000000
2MAIL0000152791BR10        BRNC        BRNCCOCO    BRNCCOCO13AG00000200000000001235699400000000000001000000000000000000000000004211Z01620200409X066000000
1MAIL0000152792BR10        BRNC        BRNCCOCO    BRNCCOCO13AG2020040900:00:00OR  010000028540620002854062152792                             2020040920200409Z016CIF202004090000000000016015NN0                                                  0                                        
2MAIL0000152792BR10        BRNC        BRNCCOCO    BRNCCOCO13AG00000100000000001132018300000000000000100000000000000000000000003435Z01620200409X066003000
2MAIL0000152792BR10        BRNC        BRNCCOCO    BRNCCOCO13AG00000200000000001132019800000000000000100000000000000000000000001908Z01620200409X066003000
2MAIL0000152792BR10        BRNC        BRNCCOCO    BRNCCOCO13AG00000300000000001132033100000000000000100000000000000000000000002108Z01620200409X066003000
2MAIL0000152792BR10        BRNC        BRNCCOCO    BRNCCOCO13AG00000400000000001132036700000000000000100000000000000000000000002108Z01620200409X066003000
2MAIL0000152792BR10        BRNC        BRNCCOCO    BRNCCOCO13AG00000500000000001132200400000000000000100000000000000000000000002052Z01620200409X066003000
2MAIL0000152792BR10        BRNC        BRNCCOCO    BRNCCOCO13AG00000600000000001221415400000000000000100000000000000000000000003435Z01620200409X066003000
2MAIL0000152792BR10        BRNC        BRNCCOCO    BRNCCOCO13AG00000700000000001236512900000000000000500000000000000000000000000969Z01620200409X066003000
