1MAIL0000151849BR10        BRNC        BRNCCOCO    BRNCCOCO13AG2020040100:00:00OR  010000058232610005823261151849                             2020040120200401Z016CIF202004010000000000038483NN0                                                  0                                        
2MAIL0000151849BR10        BRNC        BRNCCOCO    BRNCCOCO13AG00000100000000001132036700000000000000100000000000000000000000002173Z01620200401X066000000
2MAIL0000151849BR10        BRNC        BRNCCOCO    BRNCCOCO13AG00000200000000001236515000000000000007000000000000000000000000013982Z01620200401X066000000
2MAIL0000151849BR10        BRNC        BRNCCOCO    BRNCCOCO13AG00000300000000001239663300000000000001400000000000000000000000005582Z01620200401X066000000
2MAIL0000151849BR10        BRNC        BRNCCOCO    BRNCCOCO13AG00000400000000001239688600000000000001400000000000000000000000005582Z01620200401X066000000
2MAIL0000151849BR10        BRNC        BRNCCOCO    BRNCCOCO13AG00000500000000001239688800000000000001400000000000000000000000005582Z01620200401X066000000
2MAIL0000151849BR10        BRNC        BRNCCOCO    BRNCCOCO13AG00000600000000001239692100000000000001400000000000000000000000005582Z01620200401X066000000
1MAIL0000151850BR10        BRNC        BRNCCOCO    BRNCCOCO13AG2020040100:00:00OR  010000043831860004383186151850                             2020040120200401Z016CIF202004010000000000076804NN0                                                  0                                        
2MAIL0000151850BR10        BRNC        BRNCCOCO    BRNCCOCO13AG00000100000000001132019800000000000000100000000000000000000000001681Z01620200401X066000000
2MAIL0000151850BR10        BRNC        BRNCCOCO    BRNCCOCO13AG00000200000000001132033100000000000000100000000000000000000000001856Z01620200401X066000000
2MAIL0000151850BR10        BRNC        BRNCCOCO    BRNCCOCO13AG00000300000000001132036700000000000000100000000000000000000000001856Z01620200401X066000000
2MAIL0000151850BR10        BRNC        BRNCCOCO    BRNCCOCO13AG00000400000000001132200400000000000000100000000000000000000000002105Z01620200401X066000000
2MAIL0000151850BR10        BRNC        BRNCCOCO    BRNCCOCO13AG00000500000000001215533700000000000000100000000000000000000000001856Z01620200401X066000000
2MAIL0000151850BR10        BRNC        BRNCCOCO    BRNCCOCO13AG00000600000000001226089600000000000001200000000000000000000000004073Z01620200401X066000000
2MAIL0000151850BR10        BRNC        BRNCCOCO    BRNCCOCO13AG00000700000000001227735000000000000000100000000000000000000000001681Z01620200401X066000000
2MAIL0000151850BR10        BRNC        BRNCCOCO    BRNCCOCO13AG00000800000000001235699700000000000001000000000000000000000000003402Z01620200401X066000000
2MAIL0000151850BR10        BRNC        BRNCCOCO    BRNCCOCO13AG00000900000000001235699800000000000001000000000000000000000000003402Z01620200401X066000000
2MAIL0000151850BR10        BRNC        BRNCCOCO    BRNCCOCO13AG00001000000000001236512800000000000001200000000000000000000000001893Z01620200401X066000000
2MAIL0000151850BR10        BRNC        BRNCCOCO    BRNCCOCO13AG00001100000000001236512900000000000003500000000000000000000000005812Z01620200401X066000000
2MAIL0000151850BR10        BRNC        BRNCCOCO    BRNCCOCO13AG00001200000000001236515000000000000003500000000000000000000000005812Z01620200401X066000000
2MAIL0000151850BR10        BRNC        BRNCCOCO    BRNCCOCO13AG00001300000000001239688600000000000001400000000000000000000000004752Z01620200401X066000000
2MAIL0000151850BR10        BRNC        BRNCCOCO    BRNCCOCO13AG00001400000000001239688800000000000001400000000000000000000000004752Z01620200401X066000000
2MAIL0000151850BR10        BRNC        BRNCCOCO    BRNCCOCO13AG00001500000000001239692000000000000001400000000000000000000000004752Z01620200401X066000000
2MAIL0000151850BR10        BRNC        BRNCCOCO    BRNCCOCO13AG00001600000000001240924900000000000001200000000000000000000000001822Z01620200401X066000000
2MAIL0000151850BR10        BRNC        BRNCCOCO    BRNCCOCO13AG00001700000000001241577400000000000003000000000000000000000000023370Z01620200401X066000000
2MAIL0000151850BR10        BRNC        BRNCCOCO    BRNCCOCO13AG00001800000000001241623700000000000000100000000000000000000000001927Z01620200401X066000000
1MAIL0000151851BR10        BRNC        BRNCCOCO    BRNCCOCO13AG2020040100:00:00OR  010000058523390005852339151851                             2020040120200401Z016CIF202004010000000000013221NN0                                                  0                                        
2MAIL0000151851BR10        BRNC        BRNCCOCO    BRNCCOCO13AG00000100000000001226089600000000000001200000000000000000000000005045Z01620200401X066000000
2MAIL0000151851BR10        BRNC        BRNCCOCO    BRNCCOCO13AG00000200000000001236898000000000000000100000000000000000000000002291Z01620200401X066000000
2MAIL0000151851BR10        BRNC        BRNCCOCO    BRNCCOCO13AG00000300000000001239688800000000000001400000000000000000000000005885Z01620200401X066000000
1MAIL0000151852BR10        BRNC        BRNCCOCO    BRNCCOCO13AG2020040100:00:00OR  010000041276690004127669151852                             2020040120200401Z016CIF202004010000000000018111NN0                                                  0                                        
2MAIL0000151852BR10        BRNC        BRNCCOCO    BRNCCOCO13AG00000100000000001132019700000000000000100000000000000000000000002076Z01620200401X066000000
2MAIL0000151852BR10        BRNC        BRNCCOCO    BRNCCOCO13AG00000200000000001132036700000000000000500000000000000000000000011454Z01620200401X066000000
2MAIL0000151852BR10        BRNC        BRNCCOCO    BRNCCOCO13AG00000300000000001215533700000000000000200000000000000000000000004581Z01620200401X066000000
1MAIL0000151853BR10        BRNC        BRNCCOCO    BRNCCOCO13AG2020040100:00:00OR  010000060410170006041017151853                             2020040120200401Z016CIF202004010000000000050106NN0                                                  0                                        
2MAIL0000151853BR10        BRNC        BRNCCOCO    BRNCCOCO13AG00000100000000001132033100000000000000100000000000000000000000002291Z01620200401X066000000
2MAIL0000151853BR10        BRNC        BRNCCOCO    BRNCCOCO13AG00000200000000001132036700000000000000100000000000000000000000002291Z01620200401X066000000
2MAIL0000151853BR10        BRNC        BRNCCOCO    BRNCCOCO13AG00000300000000001132200400000000000000300000000000000000000000006690Z01620200401X066000000
2MAIL0000151853BR10        BRNC        BRNCCOCO    BRNCCOCO13AG00000400000000001215533700000000000000200000000000000000000000004581Z01620200401X066000000
2MAIL0000151853BR10        BRNC        BRNCCOCO    BRNCCOCO13AG00000500000000001231389600000000000000100000000000000000000000002291Z01620200401X066000000
2MAIL0000151853BR10        BRNC        BRNCCOCO    BRNCCOCO13AG00000600000000001235699700000000000001000000000000000000000000004211Z01620200401X066000000
2MAIL0000151853BR10        BRNC        BRNCCOCO    BRNCCOCO13AG00000700000000001235699800000000000001000000000000000000000000004211Z01620200401X066000000
2MAIL0000151853BR10        BRNC        BRNCCOCO    BRNCCOCO13AG00000800000000001239688500000000000001400000000000000000000000005885Z01620200401X066000000
2MAIL0000151853BR10        BRNC        BRNCCOCO    BRNCCOCO13AG00000900000000001239688600000000000001400000000000000000000000005885Z01620200401X066000000
2MAIL0000151853BR10        BRNC        BRNCCOCO    BRNCCOCO13AG00001000000000001239688800000000000001400000000000000000000000005885Z01620200401X066000000
2MAIL0000151853BR10        BRNC        BRNCCOCO    BRNCCOCO13AG00001100000000001239692300000000000001400000000000000000000000005885Z01620200401X066000000
1MAIL0000151854BR10        BRNC        BRNCCOCO    BRNCCOCO13AG2020040100:00:00OR  010000061672470006167247151854                             2020040120200401Z016CIF202004010000000000011395NN0                                                  0                                        
2MAIL0000151854BR10        BRNC        BRNCCOCO    BRNCCOCO13AG00000100000000001132019800000000000000100000000000000000000000001465Z01620200401X066000000
2MAIL0000151854BR10        BRNC        BRNCCOCO    BRNCCOCO13AG00000200000000001132033100000000000000100000000000000000000000001617Z01620200401X066000000
2MAIL0000151854BR10        BRNC        BRNCCOCO    BRNCCOCO13AG00000300000000001132036700000000000000100000000000000000000000001617Z01620200401X066000000
2MAIL0000151854BR10        BRNC        BRNCCOCO    BRNCCOCO13AG00000400000000001132200400000000000000100000000000000000000000002115Z01620200401X066000000
2MAIL0000151854BR10        BRNC        BRNCCOCO    BRNCCOCO13AG00000500000000001239688800000000000001400000000000000000000000004581Z01620200401X066000000
1MAIL0000151855BR10        BRNC        BRNCCOCO    BRNCCOCO13AG2020040100:00:00OR  010000060728430006072843151855                             2020040120200401Z016CIF202004010000000000179679NN0                                                  0                                        
2MAIL0000151855BR10        BRNC        BRNCCOCO    BRNCCOCO13AG00000100000000001132018300000000000000100000000000000000000000002845Z01620200401X066000000
2MAIL0000151855BR10        BRNC        BRNCCOCO    BRNCCOCO13AG00000200000000001132019800000000000000100000000000000000000000001581Z01620200401X066000000
2MAIL0000151855BR10        BRNC        BRNCCOCO    BRNCCOCO13AG00000300000000001132033100000000000000200000000000000000000000003491Z01620200401X066000000
2MAIL0000151855BR10        BRNC        BRNCCOCO    BRNCCOCO13AG00000400000000001132036700000000000000500000000000000000000000008728Z01620200401X066000000
2MAIL0000151855BR10        BRNC        BRNCCOCO    BRNCCOCO13AG00000500000000001132200400000000000000400000000000000000000000007920Z01620200401X066000000
2MAIL0000151855BR10        BRNC        BRNCCOCO    BRNCCOCO13AG00000600000000001215533700000000000000200000000000000000000000003491Z01620200401X066000000
2MAIL0000151855BR10        BRNC        BRNCCOCO    BRNCCOCO13AG00000700000000001221415400000000000000200000000000000000000000005689Z01620200401X066000000
2MAIL0000151855BR10        BRNC        BRNCCOCO    BRNCCOCO13AG00000800000000001223975300000000000000100000000000000000000000004241Z01620200401X066000000
2MAIL0000151855BR10        BRNC        BRNCCOCO    BRNCCOCO13AG00000900000000001226089600000000000002400000000000000000000000007661Z01620200401X066000000
2MAIL0000151855BR10        BRNC        BRNCCOCO    BRNCCOCO13AG00001000000000001227395500000000000000200000000000000000000000003491Z01620200401X066000000
2MAIL0000151855BR10        BRNC        BRNCCOCO    BRNCCOCO13AG00001100000000001228274000000000000000100000000000000000000000004241Z01620200401X066000000
2MAIL0000151855BR10        BRNC        BRNCCOCO    BRNCCOCO13AG00001200000000001228512700000000000000100000000000000000000000004241Z01620200401X066000000
2MAIL0000151855BR10        BRNC        BRNCCOCO    BRNCCOCO13AG00001300000000001231189200000000000000100000000000000000000000004241Z01620200401X066000000
2MAIL0000151855BR10        BRNC        BRNCCOCO    BRNCCOCO13AG00001400000000001231231200000000000000200000000000000000000000008482Z01620200401X066000000
2MAIL0000151855BR10        BRNC        BRNCCOCO    BRNCCOCO13AG00001500000000001231233000000000000000100000000000000000000000004241Z01620200401X066000000
2MAIL0000151855BR10        BRNC        BRNCCOCO    BRNCCOCO13AG00001600000000001231389600000000000000200000000000000000000000003491Z01620200401X066000000
2MAIL0000151855BR10        BRNC        BRNCCOCO    BRNCCOCO13AG00001700000000001235699400000000000002000000000000000000000000006398Z01620200401X066000000
2MAIL0000151855BR10        BRNC        BRNCCOCO    BRNCCOCO13AG00001800000000001236512800000000000005200000000000000000000000007780Z01620200401X066000000
2MAIL0000151855BR10        BRNC        BRNCCOCO    BRNCCOCO13AG00001900000000001236515000000000000003000000000000000000000000004722Z01620200401X066000000
2MAIL0000151855BR10        BRNC        BRNCCOCO    BRNCCOCO13AG00002000000000001236898000000000000000200000000000000000000000003491Z01620200401X066000000
2MAIL0000151855BR10        BRNC        BRNCCOCO    BRNCCOCO13AG00002100000000001239373400000000000000100000000000000000000000005296Z01620200401X066000000
2MAIL0000151855BR10        BRNC        BRNCCOCO    BRNCCOCO13AG00002200000000001239373600000000000000100000000000000000000000005296Z01620200401X066000000
2MAIL0000151855BR10        BRNC        BRNCCOCO    BRNCCOCO13AG00002300000000001239663300000000000002800000000000000000000000008938Z01620200401X066000000
2MAIL0000151855BR10        BRNC        BRNCCOCO    BRNCCOCO13AG00002400000000001239688600000000000002800000000000000000000000008938Z01620200401X066000000
2MAIL0000151855BR10        BRNC        BRNCCOCO    BRNCCOCO13AG00002500000000001239688800000000000005600000000000000000000000017875Z01620200401X066000000
2MAIL0000151855BR10        BRNC        BRNCCOCO    BRNCCOCO13AG00002600000000001239692100000000000002800000000000000000000000008938Z01620200401X066000000
2MAIL0000151855BR10        BRNC        BRNCCOCO    BRNCCOCO13AG00002700000000001239692300000000000002800000000000000000000000008938Z01620200401X066000000
2MAIL0000151855BR10        BRNC        BRNCCOCO    BRNCCOCO13AG00002800000000001241623700000000000000100000000000000000000000001815Z01620200401X066000000
2MAIL0000151855BR10        BRNC        BRNCCOCO    BRNCCOCO13AG00002900000000001242374800000000000000100000000000000000000000004241Z01620200401X066000000
2MAIL0000151855BR10        BRNC        BRNCCOCO    BRNCCOCO13AG00003000000000001242626100000000000002800000000000000000000000008938Z01620200401X066000000
1MAIL0000151856BR10        BRNC        BRNCCOCO    BRNCCOCO13AG2020040100:00:00OR  010000029313960002931396151856                             2020040120200401Z016CIF202004010000000000081643NN0                                                  0                                        
2MAIL0000151856BR10        BRNC        BRNCCOCO    BRNCCOCO13AG00000100000000001132019800000000000000100000000000000000000000001924Z01620200401X066000000
2MAIL0000151856BR10        BRNC        BRNCCOCO    BRNCCOCO13AG00000200000000001132033100000000000000500000000000000000000000010625Z01620200401X066000000
2MAIL0000151856BR10        BRNC        BRNCCOCO    BRNCCOCO13AG00000300000000001132036700000000000001000000000000000000000000021250Z01620200401X066000000
2MAIL0000151856BR10        BRNC        BRNCCOCO    BRNCCOCO13AG00000400000000001132200400000000000000100000000000000000000000002115Z01620200401X066000000
2MAIL0000151856BR10        BRNC        BRNCCOCO    BRNCCOCO13AG00000500000000001228512700000000000000100000000000000000000000004965Z01620200401X066000000
2MAIL0000151856BR10        BRNC        BRNCCOCO    BRNCCOCO13AG00000600000000001231189200000000000000100000000000000000000000004965Z01620200401X066000000
2MAIL0000151856BR10        BRNC        BRNCCOCO    BRNCCOCO13AG00000700000000001231231200000000000000100000000000000000000000004965Z01620200401X066000000
2MAIL0000151856BR10        BRNC        BRNCCOCO    BRNCCOCO13AG00000800000000001231233000000000000000100000000000000000000000004965Z01620200401X066000000
2MAIL0000151856BR10        BRNC        BRNCCOCO    BRNCCOCO13AG00000900000000001238083500000000000000100000000000000000000000004965Z01620200401X066000000
2MAIL0000151856BR10        BRNC        BRNCCOCO    BRNCCOCO13AG00001000000000001239688600000000000001400000000000000000000000005226Z01620200401X066000000
2MAIL0000151856BR10        BRNC        BRNCCOCO    BRNCCOCO13AG00001100000000001239688800000000000001400000000000000000000000005226Z01620200401X066000000
2MAIL0000151856BR10        BRNC        BRNCCOCO    BRNCCOCO13AG00001200000000001239692100000000000001400000000000000000000000005226Z01620200401X066000000
2MAIL0000151856BR10        BRNC        BRNCCOCO    BRNCCOCO13AG00001300000000001239692300000000000001400000000000000000000000005226Z01620200401X066000000
1MAIL0000151857BR10        BRNC        BRNCCOCO    BRNCCOCO13AG2020040100:00:00OR  010000018555510001855551151857                             2020040120200401Z016CIF202004010000000000010509NN0                                                  0                                        
2MAIL0000151857BR10        BRNC        BRNCCOCO    BRNCCOCO13AG00000100000000001132033100000000000000100000000000000000000000002173Z01620200401X066000000
2MAIL0000151857BR10        BRNC        BRNCCOCO    BRNCCOCO13AG00000200000000001132036700000000000000300000000000000000000000006518Z01620200401X066000000
2MAIL0000151857BR10        BRNC        BRNCCOCO    BRNCCOCO13AG00000300000000001236515000000000000001000000000000000000000000001818Z01620200401X066000000
1MAIL0000151858BR10        BRNC        BRNCCOCO    BRNCCOCO13AG2020040100:00:00OR  010000033804470003380447151858                             2020040120200401Z016CIF202004010000000000010509NN0                                                  0                                        
2MAIL0000151858BR10        BRNC        BRNCCOCO    BRNCCOCO13AG00000100000000001132033100000000000000100000000000000000000000002173Z01620200401X066000000
2MAIL0000151858BR10        BRNC        BRNCCOCO    BRNCCOCO13AG00000200000000001132036700000000000000300000000000000000000000006518Z01620200401X066000000
2MAIL0000151858BR10        BRNC        BRNCCOCO    BRNCCOCO13AG00000300000000001236512900000000000000500000000000000000000000000909Z01620200401X066000000
2MAIL0000151858BR10        BRNC        BRNCCOCO    BRNCCOCO13AG00000400000000001236515000000000000000500000000000000000000000000909Z01620200401X066000000
1MAIL0000151859BR10        BRNC        BRNCCOCO    BRNCCOCO13AG2020040100:00:00OR  010000054327370005432737151859                             2020040120200401Z016CIF202004010000000000008691NN0                                                  0                                        
2MAIL0000151859BR10        BRNC        BRNCCOCO    BRNCCOCO13AG00000100000000001132033100000000000000100000000000000000000000002173Z01620200401X066000000
2MAIL0000151859BR10        BRNC        BRNCCOCO    BRNCCOCO13AG00000200000000001132036700000000000000300000000000000000000000006518Z01620200401X066000000
1MAIL0000151860BR10        BRNC        BRNCCOCO    BRNCCOCO13AG2020040100:00:00OR  010000051850710005185071151860                             2020040120200401Z016CIF202004010000000000015976NN0                                                  0                                        
2MAIL0000151860BR10        BRNC        BRNCCOCO    BRNCCOCO13AG00000100000000001132033100000000000000100000000000000000000000002291Z01620200401X066000000
2MAIL0000151860BR10        BRNC        BRNCCOCO    BRNCCOCO13AG00000200000000001132036700000000000000100000000000000000000000002291Z01620200401X066000000
2MAIL0000151860BR10        BRNC        BRNCCOCO    BRNCCOCO13AG00000300000000001132200400000000000000100000000000000000000000002230Z01620200401X066000000
2MAIL0000151860BR10        BRNC        BRNCCOCO    BRNCCOCO13AG00000400000000001215533700000000000000100000000000000000000000002291Z01620200401X066000000
2MAIL0000151860BR10        BRNC        BRNCCOCO    BRNCCOCO13AG00000500000000001227395500000000000000100000000000000000000000002291Z01620200401X066000000
2MAIL0000151860BR10        BRNC        BRNCCOCO    BRNCCOCO13AG00000600000000001231389600000000000000100000000000000000000000002291Z01620200401X066000000
2MAIL0000151860BR10        BRNC        BRNCCOCO    BRNCCOCO13AG00000700000000001236898000000000000000100000000000000000000000002291Z01620200401X066000000
1MAIL0000151861BR10        BRNC        BRNCCOCO    BRNCCOCO13AG2020040100:00:00OR  010000029799850002979985151861                             2020040120200401Z016CIF202004010000000000017655NN0                                                  0                                        
2MAIL0000151861BR10        BRNC        BRNCCOCO    BRNCCOCO13AG00000100000000001239688700000000000001400000000000000000000000005885Z01620200401X066000000
2MAIL0000151861BR10        BRNC        BRNCCOCO    BRNCCOCO13AG00000200000000001239688800000000000001400000000000000000000000005885Z01620200401X066000000
2MAIL0000151861BR10        BRNC        BRNCCOCO    BRNCCOCO13AG00000300000000001239692100000000000001400000000000000000000000005885Z01620200401X066000000
1MAIL0000151862BR10        BRNC        BRNCCOCO    BRNCCOCO13AG2020040100:00:00OR  010000058236460005823646151862                             2020040120200401Z016CIF202004010000000000012520NN0                                                  0                                        
2MAIL0000151862BR10        BRNC        BRNCCOCO    BRNCCOCO13AG00000100000000001231189200000000000000100000000000000000000000005568Z01620200401X066000000
2MAIL0000151862BR10        BRNC        BRNCCOCO    BRNCCOCO13AG00000200000000001239373400000000000000100000000000000000000000006952Z01620200401X066000000
1MAIL0000151863BR10        BRNC        BRNCCOCO    BRNCCOCO13AG2020040100:00:00OR  010000029107520002910752151863                             2020040120200401Z016CIF202004010000000000005292NN0                                                  0                                        
2MAIL0000151863BR10        BRNC        BRNCCOCO    BRNCCOCO13AG00000100000000001132018300000000000000100000000000000000000000002682Z01620200401X066000000
2MAIL0000151863BR10        BRNC        BRNCCOCO    BRNCCOCO13AG00000200000000001215533700000000000000100000000000000000000000001654Z01620200401X066000000
2MAIL0000151863BR10        BRNC        BRNCCOCO    BRNCCOCO13AG00000300000000001236515000000000000000500000000000000000000000000956Z01620200401X066000000
1MAIL0000151864BR10        BRNC        BRNCCOCO    BRNCCOCO13AG2020040100:00:00OR  010000055328510005532851151864                             2020040120200401Z016CIF202004010000000000068526NN0                                                  0                                        
2MAIL0000151864BR10        BRNC        BRNCCOCO    BRNCCOCO13AG00000100000000001132019700000000000000100000000000000000000000001681Z01620200401X066000000
2MAIL0000151864BR10        BRNC        BRNCCOCO    BRNCCOCO13AG00000200000000001132033100000000000000100000000000000000000000001856Z01620200401X066000000
2MAIL0000151864BR10        BRNC        BRNCCOCO    BRNCCOCO13AG00000300000000001132036700000000000000200000000000000000000000003712Z01620200401X066000000
2MAIL0000151864BR10        BRNC        BRNCCOCO    BRNCCOCO13AG00000400000000001215533700000000000000100000000000000000000000001856Z01620200401X066000000
2MAIL0000151864BR10        BRNC        BRNCCOCO    BRNCCOCO13AG00000500000000001226089600000000000001200000000000000000000000004073Z01620200401X066000000
2MAIL0000151864BR10        BRNC        BRNCCOCO    BRNCCOCO13AG00000600000000001236512900000000000002500000000000000000000000004151Z01620200401X066000000
2MAIL0000151864BR10        BRNC        BRNCCOCO    BRNCCOCO13AG00000700000000001236515000000000000002500000000000000000000000004151Z01620200401X066000000
2MAIL0000151864BR10        BRNC        BRNCCOCO    BRNCCOCO13AG00000800000000001239663300000000000001400000000000000000000000004752Z01620200401X066000000
2MAIL0000151864BR10        BRNC        BRNCCOCO    BRNCCOCO13AG00000900000000001239688600000000000001400000000000000000000000004752Z01620200401X066000000
2MAIL0000151864BR10        BRNC        BRNCCOCO    BRNCCOCO13AG00001000000000001239688800000000000001400000000000000000000000004752Z01620200401X066000000
2MAIL0000151864BR10        BRNC        BRNCCOCO    BRNCCOCO13AG00001100000000001239692100000000000001400000000000000000000000004752Z01620200401X066000000
2MAIL0000151864BR10        BRNC        BRNCCOCO    BRNCCOCO13AG00001200000000001239692300000000000001400000000000000000000000004752Z01620200401X066000000
2MAIL0000151864BR10        BRNC        BRNCCOCO    BRNCCOCO13AG00001300000000001241577400000000000002000000000000000000000000015580Z01620200401X066000000
2MAIL0000151864BR10        BRNC        BRNCCOCO    BRNCCOCO13AG00001400000000001241623700000000000000400000000000000000000000007706Z01620200401X066000000
1MAIL0000151865BR10        BRNC        BRNCCOCO    BRNCCOCO13AG2020040100:00:00OR  010000029563750002956375151865                             2020040120200401Z016CIF202004010000000000068946NN0                                                  0                                        
2MAIL0000151865BR10        BRNC        BRNCCOCO    BRNCCOCO13AG00000100000000001132018300000000000000800000000000000000000000022982Z01620200401X066000000
2MAIL0000151865BR10        BRNC        BRNCCOCO    BRNCCOCO13AG00000200000000001221415400000000000001600000000000000000000000045964Z01620200401X066000000
1MAIL0000151866BR10        BRNC        BRNCCOCO    BRNCCOCO13AG2020040100:00:00OR  010000028991390002899139151866                             2020040120200401Z016CIF202004010000000000036481NN0                                                  0                                        
2MAIL0000151866BR10        BRNC        BRNCCOCO    BRNCCOCO13AG00000100000000001132033100000000000000100000000000000000000000002291Z01620200401X066000000
2MAIL0000151866BR10        BRNC        BRNCCOCO    BRNCCOCO13AG00000200000000001132036700000000000000100000000000000000000000002291Z01620200401X066000000
2MAIL0000151866BR10        BRNC        BRNCCOCO    BRNCCOCO13AG00000300000000001226089600000000000001200000000000000000000000005045Z01620200401X066000000
2MAIL0000151866BR10        BRNC        BRNCCOCO    BRNCCOCO13AG00000400000000001228512700000000000000100000000000000000000000005568Z01620200401X066000000
2MAIL0000151866BR10        BRNC        BRNCCOCO    BRNCCOCO13AG00000500000000001231189200000000000000100000000000000000000000005568Z01620200401X066000000
2MAIL0000151866BR10        BRNC        BRNCCOCO    BRNCCOCO13AG00000600000000001231233000000000000000100000000000000000000000005568Z01620200401X066000000
2MAIL0000151866BR10        BRNC        BRNCCOCO    BRNCCOCO13AG00000700000000001231389600000000000000100000000000000000000000002291Z01620200401X066000000
2MAIL0000151866BR10        BRNC        BRNCCOCO    BRNCCOCO13AG00000800000000001236898000000000000000100000000000000000000000002291Z01620200401X066000000
2MAIL0000151866BR10        BRNC        BRNCCOCO    BRNCCOCO13AG00000900000000001242374800000000000000100000000000000000000000005568Z01620200401X066000000
1MAIL0000151867BR10        BRNC        BRNCCOCO    BRNCCOCO13AG2020040100:00:00OR  010000029123200002912320151867                             2020040120200401Z016CIF202004010000000000033054NN0                                                  0                                        
2MAIL0000151867BR10        BRNC        BRNCCOCO    BRNCCOCO13AG00000100000000001132033100000000000000200000000000000000000000004581Z01620200401X066000000
2MAIL0000151867BR10        BRNC        BRNCCOCO    BRNCCOCO13AG00000200000000001132036700000000000000200000000000000000000000004581Z01620200401X066000000
2MAIL0000151867BR10        BRNC        BRNCCOCO    BRNCCOCO13AG00000300000000001215533700000000000000200000000000000000000000004581Z01620200401X066000000
2MAIL0000151867BR10        BRNC        BRNCCOCO    BRNCCOCO13AG00000400000000001227395500000000000000200000000000000000000000004581Z01620200401X066000000
2MAIL0000151867BR10        BRNC        BRNCCOCO    BRNCCOCO13AG00000500000000001231189200000000000000100000000000000000000000005568Z01620200401X066000000
2MAIL0000151867BR10        BRNC        BRNCCOCO    BRNCCOCO13AG00000600000000001231389600000000000000200000000000000000000000004581Z01620200401X066000000
2MAIL0000151867BR10        BRNC        BRNCCOCO    BRNCCOCO13AG00000700000000001236898000000000000000200000000000000000000000004581Z01620200401X066000000
1MAIL0000151868BR10        BRNC        BRNCCOCO    BRNCCOCO13AG2020040100:00:00OR  010000028664250002866425151868                             2020040120200401Z016CIF202004010000000000047990NN0                                                  0                                        
2MAIL0000151868BR10        BRNC        BRNCCOCO    BRNCCOCO13AG00000100000000001132036700000000000000200000000000000000000000004581Z01620200401X066000000
2MAIL0000151868BR10        BRNC        BRNCCOCO    BRNCCOCO13AG00000200000000001132200400000000000000100000000000000000000000002230Z01620200401X066000000
2MAIL0000151868BR10        BRNC        BRNCCOCO    BRNCCOCO13AG00000300000000001132400100000000000000100000000000000000000000003165Z01620200401X066000000
2MAIL0000151868BR10        BRNC        BRNCCOCO    BRNCCOCO13AG00000400000000001215533700000000000000200000000000000000000000004581Z01620200401X066000000
2MAIL0000151868BR10        BRNC        BRNCCOCO    BRNCCOCO13AG00000500000000001236512900000000000001000000000000000000000000002004Z01620200401X066000000
2MAIL0000151868BR10        BRNC        BRNCCOCO    BRNCCOCO13AG00000600000000001236515000000000000001000000000000000000000000002004Z01620200401X066000000
2MAIL0000151868BR10        BRNC        BRNCCOCO    BRNCCOCO13AG00000700000000001239688300000000000001400000000000000000000000005885Z01620200401X066000000
2MAIL0000151868BR10        BRNC        BRNCCOCO    BRNCCOCO13AG00000800000000001239688600000000000001400000000000000000000000005885Z01620200401X066000000
2MAIL0000151868BR10        BRNC        BRNCCOCO    BRNCCOCO13AG00000900000000001239688700000000000001400000000000000000000000005885Z01620200401X066000000
2MAIL0000151868BR10        BRNC        BRNCCOCO    BRNCCOCO13AG00001000000000001239688800000000000001400000000000000000000000005885Z01620200401X066000000
2MAIL0000151868BR10        BRNC        BRNCCOCO    BRNCCOCO13AG00001100000000001239692100000000000001400000000000000000000000005885Z01620200401X066000000
1MAIL0000151869BR10        BRNC        BRNCCOCO    BRNCCOCO13AG2020040100:00:00OR  010000057075470005707547151869                             2020040120200401Z016CIF202004010000000000013036NN0                                                  0                                        
2MAIL0000151869BR10        BRNC        BRNCCOCO    BRNCCOCO13AG00000100000000001132036700000000000000600000000000000000000000013036Z01620200401X066000000
1MAIL0000151870BR10        BRNC        BRNCCOCO    BRNCCOCO13AG2020040100:00:00OR  010000029799200002979920151870                             2020040120200401Z016CIF202004010000000000002291NN0                                                  0                                        
2MAIL0000151870BR10        BRNC        BRNCCOCO    BRNCCOCO13AG00000100000000001132033100000000000000100000000000000000000000002291Z01620200401X066000000
1MAIL0000151871BR10        BRNC        BRNCCOCO    BRNCCOCO13AG2020040100:00:00OR  010000034657310003465731151871                             2020040120200401Z005CIF202004010000000000096255NN0                                                  0                                        
2MAIL0000151871BR10        BRNC        BRNCCOCO    BRNCCOCO13AG00000100000000001132033100000000000000300000000000000000000000006838Z00520200401X066000000
2MAIL0000151871BR10        BRNC        BRNCCOCO    BRNCCOCO13AG00000200000000001132036700000000000000500000000000000000000000011397Z00520200401X066000000
2MAIL0000151871BR10        BRNC        BRNCCOCO    BRNCCOCO13AG00000300000000001215533700000000000000300000000000000000000000006838Z00520200401X066000000
2MAIL0000151871BR10        BRNC        BRNCCOCO    BRNCCOCO13AG00000400000000001236898000000000000000300000000000000000000000006838Z00520200401X066000000
2MAIL0000151871BR10        BRNC        BRNCCOCO    BRNCCOCO13AG00000500000000001239663300000000000001400000000000000000000000005849Z00520200401X066000000
2MAIL0000151871BR10        BRNC        BRNCCOCO    BRNCCOCO13AG00000600000000001239688500000000000002800000000000000000000000011699Z00520200401X066000000
2MAIL0000151871BR10        BRNC        BRNCCOCO    BRNCCOCO13AG00000700000000001239688600000000000002800000000000000000000000011699Z00520200401X066000000
2MAIL0000151871BR10        BRNC        BRNCCOCO    BRNCCOCO13AG00000800000000001239688800000000000002800000000000000000000000011699Z00520200401X066000000
2MAIL0000151871BR10        BRNC        BRNCCOCO    BRNCCOCO13AG00000900000000001239692100000000000002800000000000000000000000011699Z00520200401X066000000
2MAIL0000151871BR10        BRNC        BRNCCOCO    BRNCCOCO13AG00001000000000001239692300000000000002800000000000000000000000011699Z00520200401X066000000
1MAIL0000151872BR10        BRNC        BRNCCOCO    BRNCCOCO13AG2020040100:00:00OR  010000060902090006090209151872                             2020040120200401Z016CIF202004010000000000019946NN0                                                  0                                        
2MAIL0000151872BR10        BRNC        BRNCCOCO    BRNCCOCO13AG00000100000000001132036700000000000000100000000000000000000000002291Z01620200401X066000000
2MAIL0000151872BR10        BRNC        BRNCCOCO    BRNCCOCO13AG00000200000000001239688600000000000001400000000000000000000000005885Z01620200401X066000000
2MAIL0000151872BR10        BRNC        BRNCCOCO    BRNCCOCO13AG00000300000000001239688800000000000001400000000000000000000000005885Z01620200401X066000000
2MAIL0000151872BR10        BRNC        BRNCCOCO    BRNCCOCO13AG00000400000000001239692100000000000001400000000000000000000000005885Z01620200401X066000000
1MAIL0000151873BR10        BRNC        BRNCCOCO    BRNCCOCO13AG2020040100:00:00OR  010000055160860005516086151873                             2020040120200401Z016CIF202004010000000000056094NN0                                                  0                                        
2MAIL0000151873BR10        BRNC        BRNCCOCO    BRNCCOCO13AG00000100000000001236512800000000000001200000000000000000000000002288Z01620200401X066000000
2MAIL0000151873BR10        BRNC        BRNCCOCO    BRNCCOCO13AG00000200000000001236512900000000000007000000000000000000000000014030Z01620200401X066000000
2MAIL0000151873BR10        BRNC        BRNCCOCO    BRNCCOCO13AG00000300000000001236515000000000000007000000000000000000000000014030Z01620200401X066000000
2MAIL0000151873BR10        BRNC        BRNCCOCO    BRNCCOCO13AG00000400000000001239663300000000000001400000000000000000000000005885Z01620200401X066000000
2MAIL0000151873BR10        BRNC        BRNCCOCO    BRNCCOCO13AG00000500000000001239688600000000000001400000000000000000000000005885Z01620200401X066000000
2MAIL0000151873BR10        BRNC        BRNCCOCO    BRNCCOCO13AG00000600000000001239688800000000000001400000000000000000000000005885Z01620200401X066000000
2MAIL0000151873BR10        BRNC        BRNCCOCO    BRNCCOCO13AG00000700000000001239692100000000000001400000000000000000000000005885Z01620200401X066000000
2MAIL0000151873BR10        BRNC        BRNCCOCO    BRNCCOCO13AG00000800000000001240924900000000000001200000000000000000000000002206Z01620200401X066000000
1MAIL0000151874BR10        BRNC        BRNCCOCO    BRNCCOCO13AG2020040100:00:00OR  010000058228360005822836151874                             2020040120200401Z016CIF202004010000000000028853NN0                                                  0                                        
2MAIL0000151874BR10        BRNC        BRNCCOCO    BRNCCOCO13AG00000100000000001241577400000000000003000000000000000000000000028853Z01620200401X066000000
1MAIL0000151875BR10        BRNC        BRNCCOCO    BRNCCOCO13AG2020040100:00:00OR  010000061138870006113887151875                             2020040120200401Z016CIF202004010000000000036456NN0                                                  0                                        
2MAIL0000151875BR10        BRNC        BRNCCOCO    BRNCCOCO13AG00000100000000001132018300000000000000100000000000000000000000003735Z01620200401X066000000
2MAIL0000151875BR10        BRNC        BRNCCOCO    BRNCCOCO13AG00000200000000001132033100000000000000100000000000000000000000002291Z01620200401X066000000
2MAIL0000151875BR10        BRNC        BRNCCOCO    BRNCCOCO13AG00000300000000001132036700000000000000100000000000000000000000002291Z01620200401X066000000
2MAIL0000151875BR10        BRNC        BRNCCOCO    BRNCCOCO13AG00000400000000001132200400000000000000100000000000000000000000002230Z01620200401X066000000
2MAIL0000151875BR10        BRNC        BRNCCOCO    BRNCCOCO13AG00000500000000001215533700000000000000100000000000000000000000002291Z01620200401X066000000
2MAIL0000151875BR10        BRNC        BRNCCOCO    BRNCCOCO13AG00000600000000001221415400000000000000100000000000000000000000003735Z01620200401X066000000
2MAIL0000151875BR10        BRNC        BRNCCOCO    BRNCCOCO13AG00000700000000001235699400000000000001000000000000000000000000004211Z01620200401X066000000
2MAIL0000151875BR10        BRNC        BRNCCOCO    BRNCCOCO13AG00000800000000001235699700000000000001000000000000000000000000004211Z01620200401X066000000
2MAIL0000151875BR10        BRNC        BRNCCOCO    BRNCCOCO13AG00000900000000001235699800000000000001000000000000000000000000004211Z01620200401X066000000
2MAIL0000151875BR10        BRNC        BRNCCOCO    BRNCCOCO13AG00001000000000001236512800000000000001200000000000000000000000002288Z01620200401X066000000
2MAIL0000151875BR10        BRNC        BRNCCOCO    BRNCCOCO13AG00001100000000001241623700000000000000200000000000000000000000004962Z01620200401X066000000
1MAIL0000151876BR10        BRNC        BRNCCOCO    BRNCCOCO13AG2020040100:00:00OR  010000029895580002989558151876                             2020040120200401Z016CIF202004010000000000032612NN0                                                  0                                        
2MAIL0000151876BR10        BRNC        BRNCCOCO    BRNCCOCO13AG00000100000000001132033100000000000000400000000000000000000000008692Z01620200401X066000000
2MAIL0000151876BR10        BRNC        BRNCCOCO    BRNCCOCO13AG00000200000000001132036700000000000000400000000000000000000000008692Z01620200401X066000000
2MAIL0000151876BR10        BRNC        BRNCCOCO    BRNCCOCO13AG00000300000000001231189200000000000000100000000000000000000000005076Z01620200401X066000000
2MAIL0000151876BR10        BRNC        BRNCCOCO    BRNCCOCO13AG00000400000000001231231200000000000000100000000000000000000000005076Z01620200401X066000000
2MAIL0000151876BR10        BRNC        BRNCCOCO    BRNCCOCO13AG00000500000000001231233000000000000000100000000000000000000000005076Z01620200401X066000000
1MAIL0000151877BR10        BRNC        BRNCCOCO    BRNCCOCO13AG2020040100:00:00OR  010000058532230005853223151877                             2020040120200401Z016CIF202004010000000000047194NN0                                                  0                                        
2MAIL0000151877BR10        BRNC        BRNCCOCO    BRNCCOCO13AG00000100000000001132036700000000000000600000000000000000000000013746Z01620200401X066000000
2MAIL0000151877BR10        BRNC        BRNCCOCO    BRNCCOCO13AG00000200000000001132200400000000000000300000000000000000000000006690Z01620200401X066000000
2MAIL0000151877BR10        BRNC        BRNCCOCO    BRNCCOCO13AG00000300000000001235699700000000000002000000000000000000000000008422Z01620200401X066000000
2MAIL0000151877BR10        BRNC        BRNCCOCO    BRNCCOCO13AG00000400000000001235699800000000000002000000000000000000000000008422Z01620200401X066000000
2MAIL0000151877BR10        BRNC        BRNCCOCO    BRNCCOCO13AG00000500000000001236512800000000000005200000000000000000000000009914Z01620200401X066000000
1MAIL0000151878BR10        BRNC        BRNCCOCO    BRNCCOCO13AG2020040100:00:00OR  010000058691290005869129151878                             2020040120200401Z016CIF202004010000000000011453NN0                                                  0                                        
2MAIL0000151878BR10        BRNC        BRNCCOCO    BRNCCOCO13AG00000100000000001231189200000000000000100000000000000000000000005568Z01620200401X066000000
2MAIL0000151878BR10        BRNC        BRNCCOCO    BRNCCOCO13AG00000200000000001239688800000000000001400000000000000000000000005885Z01620200401X066000000
1MAIL0000151879BR10        BRNC        BRNCCOCO    BRNCCOCO13AG2020040100:00:00OR  010000047673460004767346151879                             2020040120200401Z016CIF202004010000000000050396NN0                                                  0                                        
2MAIL0000151879BR10        BRNC        BRNCCOCO    BRNCCOCO13AG00000100000000001132033100000000000000500000000000000000000000011454Z01620200401X066000000
2MAIL0000151879BR10        BRNC        BRNCCOCO    BRNCCOCO13AG00000200000000001132036700000000000000500000000000000000000000011454Z01620200401X066000000
2MAIL0000151879BR10        BRNC        BRNCCOCO    BRNCCOCO13AG00000300000000001215533700000000000000300000000000000000000000006872Z01620200401X066000000
2MAIL0000151879BR10        BRNC        BRNCCOCO    BRNCCOCO13AG00000400000000001227395500000000000000300000000000000000000000006872Z01620200401X066000000
2MAIL0000151879BR10        BRNC        BRNCCOCO    BRNCCOCO13AG00000500000000001231389600000000000000300000000000000000000000006872Z01620200401X066000000
2MAIL0000151879BR10        BRNC        BRNCCOCO    BRNCCOCO13AG00000600000000001236898000000000000000300000000000000000000000006872Z01620200401X066000000
1MAIL0000151880BR10        BRNC        BRNCCOCO    BRNCCOCO13AG2020040100:00:00OR  010000029868260002986826151880                             2020040120200401Z016CIF202004010000000000040778NN0                                                  0                                        
2MAIL0000151880BR10        BRNC        BRNCCOCO    BRNCCOCO13AG00000100000000001132019800000000000000100000000000000000000000002076Z01620200401X066000000
2MAIL0000151880BR10        BRNC        BRNCCOCO    BRNCCOCO13AG00000200000000001132033100000000000000100000000000000000000000002291Z01620200401X066000000
2MAIL0000151880BR10        BRNC        BRNCCOCO    BRNCCOCO13AG00000300000000001132036700000000000000100000000000000000000000002291Z01620200401X066000000
2MAIL0000151880BR10        BRNC        BRNCCOCO    BRNCCOCO13AG00000400000000001132400100000000000000100000000000000000000000003165Z01620200401X066000000
2MAIL0000151880BR10        BRNC        BRNCCOCO    BRNCCOCO13AG00000500000000001228512700000000000000100000000000000000000000005568Z01620200401X066000000
2MAIL0000151880BR10        BRNC        BRNCCOCO    BRNCCOCO13AG00000600000000001231189200000000000000100000000000000000000000005568Z01620200401X066000000
2MAIL0000151880BR10        BRNC        BRNCCOCO    BRNCCOCO13AG00000700000000001231231200000000000000100000000000000000000000005568Z01620200401X066000000
2MAIL0000151880BR10        BRNC        BRNCCOCO    BRNCCOCO13AG00000800000000001239688800000000000001400000000000000000000000005885Z01620200401X066000000
2MAIL0000151880BR10        BRNC        BRNCCOCO    BRNCCOCO13AG00000900000000001239692100000000000001400000000000000000000000005885Z01620200401X066000000
2MAIL0000151880BR10        BRNC        BRNCCOCO    BRNCCOCO13AG00001000000000001241623700000000000000100000000000000000000000002481Z01620200401X066000000
1MAIL0000151881BR10        BRNC        BRNCCOCO    BRNCCOCO13AG2020040100:00:00OR  010000060381510006038151151881                             2020040120200401Z016CIF202004010000000000006751NN0                                                  0                                        
2MAIL0000151881BR10        BRNC        BRNCCOCO    BRNCCOCO13AG00000100000000001132200400000000000000200000000000000000000000004460Z01620200401X066000000
2MAIL0000151881BR10        BRNC        BRNCCOCO    BRNCCOCO13AG00000200000000001215533700000000000000100000000000000000000000002291Z01620200401X066000000
1MAIL0000151882BR10        BRNC        BRNCCOCO    BRNCCOCO13AG2020040100:00:00OR  010000054381260005438126151882                             2020040120200401Z016CIF202004010000000000095940NN0                                                  0                                        
2MAIL0000151882BR10        BRNC        BRNCCOCO    BRNCCOCO13AG00000100000000001132019700000000000000100000000000000000000000002076Z01620200401X066000000
2MAIL0000151882BR10        BRNC        BRNCCOCO    BRNCCOCO13AG00000200000000001132036700000000000000100000000000000000000000002291Z01620200401X066000000
2MAIL0000151882BR10        BRNC        BRNCCOCO    BRNCCOCO13AG00000300000000001226089600000000000001200000000000000000000000005045Z01620200401X066000000
2MAIL0000151882BR10        BRNC        BRNCCOCO    BRNCCOCO13AG00000400000000001235699400000000000001000000000000000000000000004211Z01620200401X066000000
2MAIL0000151882BR10        BRNC        BRNCCOCO    BRNCCOCO13AG00000500000000001235699700000000000001000000000000000000000000004211Z01620200401X066000000
2MAIL0000151882BR10        BRNC        BRNCCOCO    BRNCCOCO13AG00000600000000001235699800000000000001000000000000000000000000004211Z01620200401X066000000
2MAIL0000151882BR10        BRNC        BRNCCOCO    BRNCCOCO13AG00000700000000001236512900000000000000500000000000000000000000001002Z01620200401X066000000
2MAIL0000151882BR10        BRNC        BRNCCOCO    BRNCCOCO13AG00000800000000001236515000000000000000500000000000000000000000001002Z01620200401X066000000
2MAIL0000151882BR10        BRNC        BRNCCOCO    BRNCCOCO13AG00000900000000001239663300000000000001400000000000000000000000005885Z01620200401X066000000
2MAIL0000151882BR10        BRNC        BRNCCOCO    BRNCCOCO13AG00001000000000001239688500000000000002800000000000000000000000011770Z01620200401X066000000
2MAIL0000151882BR10        BRNC        BRNCCOCO    BRNCCOCO13AG00001100000000001239688600000000000001400000000000000000000000005885Z01620200401X066000000
2MAIL0000151882BR10        BRNC        BRNCCOCO    BRNCCOCO13AG00001200000000001239688700000000000001400000000000000000000000005885Z01620200401X066000000
2MAIL0000151882BR10        BRNC        BRNCCOCO    BRNCCOCO13AG00001300000000001239688800000000000002800000000000000000000000011770Z01620200401X066000000
2MAIL0000151882BR10        BRNC        BRNCCOCO    BRNCCOCO13AG00001400000000001239692100000000000001400000000000000000000000005885Z01620200401X066000000
2MAIL0000151882BR10        BRNC        BRNCCOCO    BRNCCOCO13AG00001500000000001241623700000000000001000000000000000000000000024811Z01620200401X066000000
1MAIL0000151883BR10        BRNC        BRNCCOCO    BRNCCOCO13AG2020040100:00:00OR  010000038535900003853590151883                             2020040120200401Z016CIF202004010000000000075729NN0                                                  0                                        
2MAIL0000151883BR10        BRNC        BRNCCOCO    BRNCCOCO13AG00000100000000001132200400000000000000300000000000000000000000006690Z01620200401X066000000
2MAIL0000151883BR10        BRNC        BRNCCOCO    BRNCCOCO13AG00000200000000001226089600000000000001200000000000000000000000005045Z01620200401X066000000
2MAIL0000151883BR10        BRNC        BRNCCOCO    BRNCCOCO13AG00000300000000001235699400000000000001000000000000000000000000004211Z01620200401X066000000
2MAIL0000151883BR10        BRNC        BRNCCOCO    BRNCCOCO13AG00000400000000001235699800000000000001000000000000000000000000004211Z01620200401X066000000
2MAIL0000151883BR10        BRNC        BRNCCOCO    BRNCCOCO13AG00000500000000001236512800000000000000800000000000000000000000001526Z01620200401X066000000
2MAIL0000151883BR10        BRNC        BRNCCOCO    BRNCCOCO13AG00000600000000001236512900000000000000500000000000000000000000001002Z01620200401X066000000
2MAIL0000151883BR10        BRNC        BRNCCOCO    BRNCCOCO13AG00000700000000001236515000000000000000500000000000000000000000001002Z01620200401X066000000
2MAIL0000151883BR10        BRNC        BRNCCOCO    BRNCCOCO13AG00000800000000001239688500000000000001400000000000000000000000005885Z01620200401X066000000
2MAIL0000151883BR10        BRNC        BRNCCOCO    BRNCCOCO13AG00000900000000001239688600000000000001400000000000000000000000005885Z01620200401X066000000
2MAIL0000151883BR10        BRNC        BRNCCOCO    BRNCCOCO13AG00001000000000001239688700000000000001400000000000000000000000005885Z01620200401X066000000
2MAIL0000151883BR10        BRNC        BRNCCOCO    BRNCCOCO13AG00001100000000001239688800000000000001400000000000000000000000005885Z01620200401X066000000
2MAIL0000151883BR10        BRNC        BRNCCOCO    BRNCCOCO13AG00001200000000001239692000000000000001400000000000000000000000005885Z01620200401X066000000
2MAIL0000151883BR10        BRNC        BRNCCOCO    BRNCCOCO13AG00001300000000001239692100000000000001400000000000000000000000005885Z01620200401X066000000
2MAIL0000151883BR10        BRNC        BRNCCOCO    BRNCCOCO13AG00001400000000001239692300000000000001400000000000000000000000005885Z01620200401X066000000
2MAIL0000151883BR10        BRNC        BRNCCOCO    BRNCCOCO13AG00001500000000001241623700000000000000200000000000000000000000004962Z01620200401X066000000
2MAIL0000151883BR10        BRNC        BRNCCOCO    BRNCCOCO13AG00001600000000001242626100000000000001400000000000000000000000005885Z01620200401X066000000
1MAIL0000151884BR10        BRNC        BRNCCOCO    BRNCCOCO13AG2020040100:00:00OR  010000039846620003984662151884                             2020040120200401Z016CIF202004010000000000048512NN0                                                  0                                        
2MAIL0000151884BR10        BRNC        BRNCCOCO    BRNCCOCO13AG00000100000000001132033100000000000000200000000000000000000000004581Z01620200401X066000000
2MAIL0000151884BR10        BRNC        BRNCCOCO    BRNCCOCO13AG00000200000000001132036700000000000000200000000000000000000000004581Z01620200401X066000000
2MAIL0000151884BR10        BRNC        BRNCCOCO    BRNCCOCO13AG00000300000000001215533700000000000000200000000000000000000000004581Z01620200401X066000000
2MAIL0000151884BR10        BRNC        BRNCCOCO    BRNCCOCO13AG00000400000000001226089600000000000001200000000000000000000000005045Z01620200401X066000000
2MAIL0000151884BR10        BRNC        BRNCCOCO    BRNCCOCO13AG00000500000000001227395500000000000000200000000000000000000000004581Z01620200401X066000000
2MAIL0000151884BR10        BRNC        BRNCCOCO    BRNCCOCO13AG00000600000000001231389600000000000000200000000000000000000000004581Z01620200401X066000000
2MAIL0000151884BR10        BRNC        BRNCCOCO    BRNCCOCO13AG00000700000000001235699400000000000001000000000000000000000000004211Z01620200401X066000000
2MAIL0000151884BR10        BRNC        BRNCCOCO    BRNCCOCO13AG00000800000000001236898000000000000000200000000000000000000000004581Z01620200401X066000000
2MAIL0000151884BR10        BRNC        BRNCCOCO    BRNCCOCO13AG00000900000000001239688600000000000001400000000000000000000000005885Z01620200401X066000000
2MAIL0000151884BR10        BRNC        BRNCCOCO    BRNCCOCO13AG00001000000000001239688800000000000001400000000000000000000000005885Z01620200401X066000000
1MAIL0000151885BR10        BRNC        BRNCCOCO    BRNCCOCO13AG2020040100:00:00OR  010000057245190005724519151885                             2020040120200401Z016CIF202004010000000000006313NN0                                                  0                                        
2MAIL0000151885BR10        BRNC        BRNCCOCO    BRNCCOCO13AG00000100000000001132020900000000000000100000000000000000000000001967Z01620200401X066000000
2MAIL0000151885BR10        BRNC        BRNCCOCO    BRNCCOCO13AG00000200000000001132033100000000000000100000000000000000000000002173Z01620200401X066000000
2MAIL0000151885BR10        BRNC        BRNCCOCO    BRNCCOCO13AG00000300000000001132036700000000000000100000000000000000000000002173Z01620200401X066000000
1MAIL0000151886BR10        BRNC        BRNCCOCO    BRNCCOCO13AG2020040100:00:00OR  010000041597410004159741151886                             2020040120200401Z016CIF202004010000000000041342NN0                                                  0                                        
2MAIL0000151886BR10        BRNC        BRNCCOCO    BRNCCOCO13AG00000100000000001132033100000000000000100000000000000000000000002291Z01620200401X066000000
2MAIL0000151886BR10        BRNC        BRNCCOCO    BRNCCOCO13AG00000200000000001132036700000000000000200000000000000000000000004581Z01620200401X066000000
2MAIL0000151886BR10        BRNC        BRNCCOCO    BRNCCOCO13AG00000300000000001226089600000000000001200000000000000000000000005045Z01620200401X066000000
2MAIL0000151886BR10        BRNC        BRNCCOCO    BRNCCOCO13AG00000400000000001239688600000000000001400000000000000000000000005885Z01620200401X066000000
2MAIL0000151886BR10        BRNC        BRNCCOCO    BRNCCOCO13AG00000500000000001239688800000000000001400000000000000000000000005885Z01620200401X066000000
2MAIL0000151886BR10        BRNC        BRNCCOCO    BRNCCOCO13AG00000600000000001239692000000000000001400000000000000000000000005885Z01620200401X066000000
2MAIL0000151886BR10        BRNC        BRNCCOCO    BRNCCOCO13AG00000700000000001239692100000000000001400000000000000000000000005885Z01620200401X066000000
2MAIL0000151886BR10        BRNC        BRNCCOCO    BRNCCOCO13AG00000800000000001239692300000000000001400000000000000000000000005885Z01620200401X066000000
1MAIL0000151887BR10        BRNC        BRNCCOCO    BRNCCOCO13AG2020040100:00:00OR  010000052009670005200967151887                             2020040120200401Z005CIF202004010000000000006315NN0                                                  0                                        
2MAIL0000151887BR10        BRNC        BRNCCOCO    BRNCCOCO13AG00000100000000001132200400000000000000300000000000000000000000006315Z00520200401X066000000
1MAIL0000151888BR10        BRNC        BRNCCOCO    BRNCCOCO13AG2020040100:00:00OR  010000050774230005077423151888                             2020040120200401Z016CIF202004010000000000274130NN0                                                  0                                        
2MAIL0000151888BR10        BRNC        BRNCCOCO    BRNCCOCO13AG00000100000000001132033100000000000000500000000000000000000000009431Z01620200401X066000000
2MAIL0000151888BR10        BRNC        BRNCCOCO    BRNCCOCO13AG00000200000000001132036700000000000000500000000000000000000000009431Z01620200401X066000000
2MAIL0000151888BR10        BRNC        BRNCCOCO    BRNCCOCO13AG00000300000000001132200400000000000000300000000000000000000000005468Z01620200401X066000000
2MAIL0000151888BR10        BRNC        BRNCCOCO    BRNCCOCO13AG00000400000000001215533700000000000000500000000000000000000000009431Z01620200401X066000000
2MAIL0000151888BR10        BRNC        BRNCCOCO    BRNCCOCO13AG00000500000000001221415400000000000000200000000000000000000000006056Z01620200401X066000000
2MAIL0000151888BR10        BRNC        BRNCCOCO    BRNCCOCO13AG00000600000000001223975300000000000000200000000000000000000000009635Z01620200401X066000000
2MAIL0000151888BR10        BRNC        BRNCCOCO    BRNCCOCO13AG00000700000000001227395500000000000000500000000000000000000000009431Z01620200401X066000000
2MAIL0000151888BR10        BRNC        BRNCCOCO    BRNCCOCO13AG00000800000000001228274000000000000000100000000000000000000000004818Z01620200401X066000000
2MAIL0000151888BR10        BRNC        BRNCCOCO    BRNCCOCO13AG00000900000000001228512700000000000000200000000000000000000000009635Z01620200401X066000000
2MAIL0000151888BR10        BRNC        BRNCCOCO    BRNCCOCO13AG00001000000000001231189200000000000000200000000000000000000000009635Z01620200401X066000000
2MAIL0000151888BR10        BRNC        BRNCCOCO    BRNCCOCO13AG00001100000000001231231200000000000000200000000000000000000000009635Z01620200401X066000000
2MAIL0000151888BR10        BRNC        BRNCCOCO    BRNCCOCO13AG00001200000000001231233000000000000000200000000000000000000000009635Z01620200401X066000000
2MAIL0000151888BR10        BRNC        BRNCCOCO    BRNCCOCO13AG00001300000000001231389600000000000000500000000000000000000000009431Z01620200401X066000000
2MAIL0000151888BR10        BRNC        BRNCCOCO    BRNCCOCO13AG00001400000000001234705700000000000000200000000000000000000000009635Z01620200401X066000000
2MAIL0000151888BR10        BRNC        BRNCCOCO    BRNCCOCO13AG00001500000000001234705800000000000000200000000000000000000000009635Z01620200401X066000000
2MAIL0000151888BR10        BRNC        BRNCCOCO    BRNCCOCO13AG00001600000000001236898000000000000000500000000000000000000000009431Z01620200401X066000000
2MAIL0000151888BR10        BRNC        BRNCCOCO    BRNCCOCO13AG00001700000000001239663300000000000002800000000000000000000000010149Z01620200401X066000000
2MAIL0000151888BR10        BRNC        BRNCCOCO    BRNCCOCO13AG00001800000000001239688300000000000002800000000000000000000000010149Z01620200401X066000000
2MAIL0000151888BR10        BRNC        BRNCCOCO    BRNCCOCO13AG00001900000000001239688500000000000002800000000000000000000000010149Z01620200401X066000000
2MAIL0000151888BR10        BRNC        BRNCCOCO    BRNCCOCO13AG00002000000000001239688600000000000005600000000000000000000000020297Z01620200401X066000000
2MAIL0000151888BR10        BRNC        BRNCCOCO    BRNCCOCO13AG00002100000000001239688700000000000002800000000000000000000000010149Z01620200401X066000000
2MAIL0000151888BR10        BRNC        BRNCCOCO    BRNCCOCO13AG00002200000000001239688800000000000005600000000000000000000000020297Z01620200401X066000000
2MAIL0000151888BR10        BRNC        BRNCCOCO    BRNCCOCO13AG00002300000000001239692000000000000002800000000000000000000000010149Z01620200401X066000000
2MAIL0000151888BR10        BRNC        BRNCCOCO    BRNCCOCO13AG00002400000000001239692100000000000002800000000000000000000000010149Z01620200401X066000000
2MAIL0000151888BR10        BRNC        BRNCCOCO    BRNCCOCO13AG00002500000000001239692300000000000002800000000000000000000000010149Z01620200401X066000000
2MAIL0000151888BR10        BRNC        BRNCCOCO    BRNCCOCO13AG00002600000000001241623700000000000001000000000000000000000000022120Z01620200401X066000000
1MAIL0000151889BR10        BRNC        BRNCCOCO    BRNCCOCO13AG2020040100:00:00OR  010000029859700002985970151889                             2020040120200401Z079CIF202004010000000000047851NN0                                                  0                                        
2MAIL0000151889BR10        BRNC        BRNCCOCO    BRNCCOCO13AG00000100000000001132036700000000000002500000000000000000000000047851Z07920200401X066000000
1MAIL0000151890BR10        BRNC        BRNCCOCO    BRNCCOCO13AG2020040100:00:00OR  010000057289490005728949151890                             2020040120200401Z016CIF202004010000000000024201NN0                                                  0                                        
2MAIL0000151890BR10        BRNC        BRNCCOCO    BRNCCOCO13AG00000100000000001132019800000000000000100000000000000000000000001967Z01620200401X066000000
2MAIL0000151890BR10        BRNC        BRNCCOCO    BRNCCOCO13AG00000200000000001132036700000000000000100000000000000000000000002173Z01620200401X066000000
2MAIL0000151890BR10        BRNC        BRNCCOCO    BRNCCOCO13AG00000300000000001132200400000000000000100000000000000000000000002115Z01620200401X066000000
2MAIL0000151890BR10        BRNC        BRNCCOCO    BRNCCOCO13AG00000400000000001226089600000000000001200000000000000000000000004784Z01620200401X066000000
2MAIL0000151890BR10        BRNC        BRNCCOCO    BRNCCOCO13AG00000500000000001236512900000000000000500000000000000000000000000999Z01620200401X066000000
2MAIL0000151890BR10        BRNC        BRNCCOCO    BRNCCOCO13AG00000600000000001236515000000000000000500000000000000000000000000999Z01620200401X066000000
2MAIL0000151890BR10        BRNC        BRNCCOCO    BRNCCOCO13AG00000700000000001239688600000000000001400000000000000000000000005582Z01620200401X066000000
2MAIL0000151890BR10        BRNC        BRNCCOCO    BRNCCOCO13AG00000800000000001239688700000000000001400000000000000000000000005582Z01620200401X066000000
1MAIL0000151891BR10        BRNC        BRNCCOCO    BRNCCOCO13AG2020040100:00:00OR  010000053185910005318591151891                             2020040120200401Z016CIF202004010000000000028853NN0                                                  0                                        
2MAIL0000151891BR10        BRNC        BRNCCOCO    BRNCCOCO13AG00000100000000001241577400000000000003000000000000000000000000028853Z01620200401X066000000
1MAIL0000151892BR10        BRNC        BRNCCOCO    BRNCCOCO13AG2020040100:00:00OR  010000050104220005010422151892                             2020040120200401Z016CIF202004010000000000014428NN0                                                  0                                        
2MAIL0000151892BR10        BRNC        BRNCCOCO    BRNCCOCO13AG00000100000000001241577400000000000001500000000000000000000000014428Z01620200401X066000000
1MAIL0000151893BR10        BRNC        BRNCCOCO    BRNCCOCO13AG2020040100:00:00OR  010000057403660005740366151893                             2020040120200401Z016CIF202004010000000000005045NN0                                                  0                                        
2MAIL0000151893BR10        BRNC        BRNCCOCO    BRNCCOCO13AG00000100000000001226089600000000000001200000000000000000000000005045Z01620200401X066000000
1MAIL0000151894BR10        BRNC        BRNCCOCO    BRNCCOCO13AG2020040100:00:00OR  010000060113350006011335151894                             2020040120200401Z016CIF202004010000000000007002NN0                                                  0                                        
2MAIL0000151894BR10        BRNC        BRNCCOCO    BRNCCOCO13AG00000100000000001132036700000000000000100000000000000000000000002291Z01620200401X066000000
2MAIL0000151894BR10        BRNC        BRNCCOCO    BRNCCOCO13AG00000200000000001132200400000000000000100000000000000000000000002230Z01620200401X066000000
2MAIL0000151894BR10        BRNC        BRNCCOCO    BRNCCOCO13AG00000300000000001241623700000000000000100000000000000000000000002481Z01620200401X066000000
1MAIL0000151895BR10        BRNC        BRNCCOCO    BRNCCOCO13AG2020040100:00:00OR  010000030543890003054389151895                             2020040120200401Z016CIF202004010000000000009094NN0                                                  0                                        
2MAIL0000151895BR10        BRNC        BRNCCOCO    BRNCCOCO13AG00000100000000001132200400000000000000100000000000000000000000002230Z01620200401X066000000
2MAIL0000151895BR10        BRNC        BRNCCOCO    BRNCCOCO13AG00000200000000001236512800000000000003600000000000000000000000006864Z01620200401X066000000
1MAIL0000151896BR10        BRNC        BRNCCOCO    BRNCCOCO13AG2020040100:00:00OR  010000034762930003476293151896                             2020040120200401Z016CIF202004010000000000034764NN0                                                  0                                        
2MAIL0000151896BR10        BRNC        BRNCCOCO    BRNCCOCO13AG00000100000000001132019800000000000000100000000000000000000000002076Z01620200401X066000000
2MAIL0000151896BR10        BRNC        BRNCCOCO    BRNCCOCO13AG00000200000000001132020900000000000000100000000000000000000000002076Z01620200401X066000000
2MAIL0000151896BR10        BRNC        BRNCCOCO    BRNCCOCO13AG00000300000000001132033100000000000000100000000000000000000000002291Z01620200401X066000000
2MAIL0000151896BR10        BRNC        BRNCCOCO    BRNCCOCO13AG00000400000000001132036700000000000000100000000000000000000000002291Z01620200401X066000000
2MAIL0000151896BR10        BRNC        BRNCCOCO    BRNCCOCO13AG00000500000000001215533700000000000000100000000000000000000000002291Z01620200401X066000000
2MAIL0000151896BR10        BRNC        BRNCCOCO    BRNCCOCO13AG00000600000000001227735000000000000000100000000000000000000000002076Z01620200401X066000000
2MAIL0000151896BR10        BRNC        BRNCCOCO    BRNCCOCO13AG00000700000000001236512900000000000001000000000000000000000000002004Z01620200401X066000000
2MAIL0000151896BR10        BRNC        BRNCCOCO    BRNCCOCO13AG00000800000000001236515000000000000001000000000000000000000000002004Z01620200401X066000000
2MAIL0000151896BR10        BRNC        BRNCCOCO    BRNCCOCO13AG00000900000000001239688600000000000001400000000000000000000000005885Z01620200401X066000000
2MAIL0000151896BR10        BRNC        BRNCCOCO    BRNCCOCO13AG00001000000000001239688700000000000001400000000000000000000000005885Z01620200401X066000000
2MAIL0000151896BR10        BRNC        BRNCCOCO    BRNCCOCO13AG00001100000000001239688800000000000001400000000000000000000000005885Z01620200401X066000000
1MAIL0000151897BR10        BRNC        BRNCCOCO    BRNCCOCO13AG2020040100:00:00OR  010000058199250005819925151897                             2020040120200401Z016CIF202004010000000000021550NN0                                                  0                                        
2MAIL0000151897BR10        BRNC        BRNCCOCO    BRNCCOCO13AG00000100000000001132033100000000000000300000000000000000000000006518Z01620200401X066000000
2MAIL0000151897BR10        BRNC        BRNCCOCO    BRNCCOCO13AG00000200000000001227395500000000000000100000000000000000000000002173Z01620200401X066000000
2MAIL0000151897BR10        BRNC        BRNCCOCO    BRNCCOCO13AG00000300000000001231389600000000000000100000000000000000000000002173Z01620200401X066000000
2MAIL0000151897BR10        BRNC        BRNCCOCO    BRNCCOCO13AG00000400000000001239688600000000000001400000000000000000000000005343Z01620200401X066000000
2MAIL0000151897BR10        BRNC        BRNCCOCO    BRNCCOCO13AG00000500000000001239688800000000000001400000000000000000000000005343Z01620200401X066000000
1MAIL0000151898BR10        BRNC        BRNCCOCO    BRNCCOCO13AG2020040100:00:00OR  010000061672450006167245151898                             2020040120200401Z016CIF202004010000000000147508NN0                                                  0                                        
2MAIL0000151898BR10        BRNC        BRNCCOCO    BRNCCOCO13AG00000100000000001132019700000000000000100000000000000000000000001719Z01620200401X066000000
2MAIL0000151898BR10        BRNC        BRNCCOCO    BRNCCOCO13AG00000200000000001132019800000000000000100000000000000000000000001719Z01620200401X066000000
2MAIL0000151898BR10        BRNC        BRNCCOCO    BRNCCOCO13AG00000300000000001132019900000000000000100000000000000000000000001719Z01620200401X066000000
2MAIL0000151898BR10        BRNC        BRNCCOCO    BRNCCOCO13AG00000400000000001132020900000000000000100000000000000000000000001719Z01620200401X066000000
2MAIL0000151898BR10        BRNC        BRNCCOCO    BRNCCOCO13AG00000500000000001132033100000000000000500000000000000000000000009431Z01620200401X066000000
2MAIL0000151898BR10        BRNC        BRNCCOCO    BRNCCOCO13AG00000600000000001132036700000000000001200000000000000000000000022634Z01620200401X066000000
2MAIL0000151898BR10        BRNC        BRNCCOCO    BRNCCOCO13AG00000700000000001132200400000000000000400000000000000000000000007290Z01620200401X066000000
2MAIL0000151898BR10        BRNC        BRNCCOCO    BRNCCOCO13AG00000800000000001132400100000000000000100000000000000000000000002621Z01620200401X066000000
2MAIL0000151898BR10        BRNC        BRNCCOCO    BRNCCOCO13AG00000900000000001215533700000000000000400000000000000000000000007545Z01620200401X066000000
2MAIL0000151898BR10        BRNC        BRNCCOCO    BRNCCOCO13AG00001000000000001223975300000000000000100000000000000000000000004818Z01620200401X066000000
2MAIL0000151898BR10        BRNC        BRNCCOCO    BRNCCOCO13AG00001100000000001227395500000000000000400000000000000000000000007545Z01620200401X066000000
2MAIL0000151898BR10        BRNC        BRNCCOCO    BRNCCOCO13AG00001200000000001227735000000000000000100000000000000000000000001719Z01620200401X066000000
2MAIL0000151898BR10        BRNC        BRNCCOCO    BRNCCOCO13AG00001300000000001228512700000000000000100000000000000000000000004818Z01620200401X066000000
2MAIL0000151898BR10        BRNC        BRNCCOCO    BRNCCOCO13AG00001400000000001231189200000000000000100000000000000000000000004818Z01620200401X066000000
2MAIL0000151898BR10        BRNC        BRNCCOCO    BRNCCOCO13AG00001500000000001231231200000000000000100000000000000000000000004818Z01620200401X066000000
2MAIL0000151898BR10        BRNC        BRNCCOCO    BRNCCOCO13AG00001600000000001231233000000000000000100000000000000000000000004818Z01620200401X066000000
2MAIL0000151898BR10        BRNC        BRNCCOCO    BRNCCOCO13AG00001700000000001231389600000000000000300000000000000000000000005659Z01620200401X066000000
2MAIL0000151898BR10        BRNC        BRNCCOCO    BRNCCOCO13AG00001800000000001234705700000000000000100000000000000000000000004818Z01620200401X066000000
2MAIL0000151898BR10        BRNC        BRNCCOCO    BRNCCOCO13AG00001900000000001236898000000000000000400000000000000000000000007545Z01620200401X066000000
2MAIL0000151898BR10        BRNC        BRNCCOCO    BRNCCOCO13AG00002000000000001238083500000000000000100000000000000000000000004818Z01620200401X066000000
2MAIL0000151898BR10        BRNC        BRNCCOCO    BRNCCOCO13AG00002100000000001239373400000000000000400000000000000000000000024079Z01620200401X066000000
2MAIL0000151898BR10        BRNC        BRNCCOCO    BRNCCOCO13AG00002200000000001239373600000000000000100000000000000000000000006020Z01620200401X066000000
2MAIL0000151898BR10        BRNC        BRNCCOCO    BRNCCOCO13AG00002300000000001242374800000000000000100000000000000000000000004818Z01620200401X066000000
1MAIL0000151899BR10        BRNC        BRNCCOCO    BRNCCOCO13AG2020040100:00:00OR  010000029800070002980007151899                             2020040120200401Z016CIF202004010000000000010560NN0                                                  0                                        
2MAIL0000151899BR10        BRNC        BRNCCOCO    BRNCCOCO13AG00000100000000001223975300000000000000100000000000000000000000005280Z01620200401X066000000
2MAIL0000151899BR10        BRNC        BRNCCOCO    BRNCCOCO13AG00000200000000001231189200000000000000100000000000000000000000005280Z01620200401X066000000
1MAIL0000151900BR10        BRNC        BRNCCOCO    BRNCCOCO13AG2020040100:00:00OR  010000029799030002979903151900                             2020040120200401Z016CIF202004010000000000088560NN0                                                  0                                        
2MAIL0000151900BR10        BRNC        BRNCCOCO    BRNCCOCO13AG00000100000000001132033100000000000000200000000000000000000000004345Z01620200401X066000000
2MAIL0000151900BR10        BRNC        BRNCCOCO    BRNCCOCO13AG00000200000000001132034900000000000000500000000000000000000000011650Z01620200401X066000000
2MAIL0000151900BR10        BRNC        BRNCCOCO    BRNCCOCO13AG00000300000000001132035000000000000000500000000000000000000000012943Z01620200401X066000000
2MAIL0000151900BR10        BRNC        BRNCCOCO    BRNCCOCO13AG00000400000000001132036700000000000000200000000000000000000000004345Z01620200401X066000000
2MAIL0000151900BR10        BRNC        BRNCCOCO    BRNCCOCO13AG00000500000000001239663300000000000001400000000000000000000000005582Z01620200401X066000000
2MAIL0000151900BR10        BRNC        BRNCCOCO    BRNCCOCO13AG00000600000000001239688600000000000001400000000000000000000000005582Z01620200401X066000000
2MAIL0000151900BR10        BRNC        BRNCCOCO    BRNCCOCO13AG00000700000000001239688700000000000001400000000000000000000000005582Z01620200401X066000000
2MAIL0000151900BR10        BRNC        BRNCCOCO    BRNCCOCO13AG00000800000000001239688800000000000001400000000000000000000000005582Z01620200401X066000000
2MAIL0000151900BR10        BRNC        BRNCCOCO    BRNCCOCO13AG00000900000000001239692100000000000001400000000000000000000000005582Z01620200401X066000000
2MAIL0000151900BR10        BRNC        BRNCCOCO    BRNCCOCO13AG00001000000000001241577400000000000003000000000000000000000000027367Z01620200401X066000000
1MAIL0000151904BR10        BRNC        BRNCCOCO    BRNCCOCO13AG2020040100:00:00OR  010000042668620004266862151904                             2020040120200401Z016CIF202004010000000000022700NN0                                                  0                                        
2MAIL0000151904BR10        BRNC        BRNCCOCO    BRNCCOCO13AG00000100000000001226089600000000000001200000000000000000000000005045Z01620200401X066000000
2MAIL0000151904BR10        BRNC        BRNCCOCO    BRNCCOCO13AG00000200000000001239688600000000000001400000000000000000000000005885Z01620200401X066000000
2MAIL0000151904BR10        BRNC        BRNCCOCO    BRNCCOCO13AG00000300000000001239688800000000000001400000000000000000000000005885Z01620200401X066000000
2MAIL0000151904BR10        BRNC        BRNCCOCO    BRNCCOCO13AG00000400000000001239692100000000000001400000000000000000000000005885Z01620200401X066000000
1MAIL0000151905BR10        BRNC        BRNCCOCO    BRNCCOCO13AG2020040100:00:00OR  010000029859700002985970151905                             2020040120200401Z016CIF202004010000000000038203NN0                                                  0                                        
2MAIL0000151905BR10        BRNC        BRNCCOCO    BRNCCOCO13AG00000100000000001132036700000000000000500000000000000000000000009570Z01620200401X066000000
2MAIL0000151905BR10        BRNC        BRNCCOCO    BRNCCOCO13AG00000200000000001215533700000000000001500000000000000000000000028633Z01620200401X066000000
1MAIL0000151906BR10        BRNC        BRNCCOCO    BRNCCOCO13AG2020040100:00:00OR  010000052980120005298012151906                             2020040120200401Z016CIF202004010000000000100034NN0                                                  0                                        
2MAIL0000151906BR10        BRNC        BRNCCOCO    BRNCCOCO13AG00000100000000001132018300000000000000300000000000000000000000010624Z01620200401X066000000
2MAIL0000151906BR10        BRNC        BRNCCOCO    BRNCCOCO13AG00000200000000001132033100000000000000400000000000000000000000008692Z01620200401X066000000
2MAIL0000151906BR10        BRNC        BRNCCOCO    BRNCCOCO13AG00000300000000001132036700000000000000800000000000000000000000017382Z01620200401X066000000
2MAIL0000151906BR10        BRNC        BRNCCOCO    BRNCCOCO13AG00000400000000001221415400000000000000300000000000000000000000010624Z01620200401X066000000
2MAIL0000151906BR10        BRNC        BRNCCOCO    BRNCCOCO13AG00000500000000001239688500000000000001400000000000000000000000005343Z01620200401X066000000
2MAIL0000151906BR10        BRNC        BRNCCOCO    BRNCCOCO13AG00000600000000001239688800000000000002800000000000000000000000010686Z01620200401X066000000
2MAIL0000151906BR10        BRNC        BRNCCOCO    BRNCCOCO13AG00000700000000001239692100000000000002800000000000000000000000010686Z01620200401X066000000
2MAIL0000151906BR10        BRNC        BRNCCOCO    BRNCCOCO13AG00000800000000001241577400000000000003000000000000000000000000025997Z01620200401X066000000
