1MAIL0000150536BR10        BRNC        BRNCCOCO    BRNCCOCO13AG2020032300:00:00OR  010000053689950005368995150536                             2020032320200323Z016CIF202003230000000001810747NN0                                                  0                                        
2MAIL0000150536BR10        BRNC        BRNCCOCO    BRNCCOCO13AG00000100000000001132033100000000000016000000000000000000000000301791Z01620200323X066000000
2MAIL0000150536BR10        BRNC        BRNCCOCO    BRNCCOCO13AG00000200000000001132036700000000000038400000000000000000000000724299Z01620200323X066000000
2MAIL0000150536BR10        BRNC        BRNCCOCO    BRNCCOCO13AG00000300000000001215533700000000000028800000000000000000000000543224Z01620200323X066000000
2MAIL0000150536BR10        BRNC        BRNCCOCO    BRNCCOCO13AG00000400000000001227395500000000000009600000000000000000000000181075Z01620200323X066000000
2MAIL0000150536BR10        BRNC        BRNCCOCO    BRNCCOCO13AG00000500000000001231389600000000000003200000000000000000000000060358Z01620200323X066000000
