1MAIL0000152814BR10        BRNC        BRNCCOCO    BRNCCOCO13AG2020040900:00:00OR  010000049382930004938293152814                             2020040920200409Z016CIF202004090000000000014488NN0                                                  0                                        
2MAIL0000152814BR10        BRNC        BRNCCOCO    BRNCCOCO13AG00000100000000001132200400000000000000400000000000000000000000008920Z01620200409X066000000
2MAIL0000152814BR10        BRNC        BRNCCOCO    BRNCCOCO13AG00000200000000001234705800000000000000100000000000000000000000005568Z01620200409X066000000
1MAIL0000152816BR10        BRNC        BRNCCOCO    BRNCCOCO13AG2020040900:00:00OR  010000061687830006168783152816                             2020040920200409Z016CIF202004090000000000073545NN0                                                  0                                        
2MAIL0000152816BR10        BRNC        BRNCCOCO    BRNCCOCO13AG00000100000000001132018300000000000000200000000000000000000000005725Z01620200409X066000000
2MAIL0000152816BR10        BRNC        BRNCCOCO    BRNCCOCO13AG00000200000000001132019700000000000000100000000000000000000000001593Z01620200409X066000000
2MAIL0000152816BR10        BRNC        BRNCCOCO    BRNCCOCO13AG00000300000000001132019800000000000000100000000000000000000000001593Z01620200409X066000000
2MAIL0000152816BR10        BRNC        BRNCCOCO    BRNCCOCO13AG00000400000000001132019900000000000000100000000000000000000000001593Z01620200409X066000000
2MAIL0000152816BR10        BRNC        BRNCCOCO    BRNCCOCO13AG00000500000000001132020900000000000000100000000000000000000000001593Z01620200409X066000000
2MAIL0000152816BR10        BRNC        BRNCCOCO    BRNCCOCO13AG00000600000000001132033100000000000000300000000000000000000000005276Z01620200409X066000000
2MAIL0000152816BR10        BRNC        BRNCCOCO    BRNCCOCO13AG00000700000000001132036700000000000000500000000000000000000000008794Z01620200409X066000000
2MAIL0000152816BR10        BRNC        BRNCCOCO    BRNCCOCO13AG00000800000000001132200400000000000000300000000000000000000000005985Z01620200409X066000000
2MAIL0000152816BR10        BRNC        BRNCCOCO    BRNCCOCO13AG00000900000000001215533700000000000000300000000000000000000000005276Z01620200409X066000000
2MAIL0000152816BR10        BRNC        BRNCCOCO    BRNCCOCO13AG00001000000000001223975300000000000000100000000000000000000000004718Z01620200409X066000000
2MAIL0000152816BR10        BRNC        BRNCCOCO    BRNCCOCO13AG00001100000000001227735000000000000000100000000000000000000000001593Z01620200409X066000000
2MAIL0000152816BR10        BRNC        BRNCCOCO    BRNCCOCO13AG00001200000000001231231200000000000000100000000000000000000000004718Z01620200409X066000000
2MAIL0000152816BR10        BRNC        BRNCCOCO    BRNCCOCO13AG00001300000000001231233000000000000000100000000000000000000000004718Z01620200409X066000000
2MAIL0000152816BR10        BRNC        BRNCCOCO    BRNCCOCO13AG00001400000000001236512800000000000002400000000000000000000000003919Z01620200409X066000000
2MAIL0000152816BR10        BRNC        BRNCCOCO    BRNCCOCO13AG00001500000000001236512900000000000002500000000000000000000000003600Z01620200409X066000000
2MAIL0000152816BR10        BRNC        BRNCCOCO    BRNCCOCO13AG00001600000000001236515000000000000002500000000000000000000000003600Z01620200409X066000000
2MAIL0000152816BR10        BRNC        BRNCCOCO    BRNCCOCO13AG00001700000000001240924900000000000002400000000000000000000000003772Z01620200409X066000000
2MAIL0000152816BR10        BRNC        BRNCCOCO    BRNCCOCO13AG00001800000000001241623700000000000000300000000000000000000000005479Z01620200409X066000000
