1MAIL0000150998BR10        BRNC        BRNCCOCO    BRNCCOCO13AG2020032600:00:00OR  010000033345700003334570150998                             2020032620200326Z016CIF202003260000000000041766NN0                                                  0                                        
2MAIL0000150998BR10        BRNC        BRNCCOCO    BRNCCOCO13AG00000100000000001132033100000000000000200000000000000000000000004345Z01620200326X066000000
2MAIL0000150998BR10        BRNC        BRNCCOCO    BRNCCOCO13AG00000200000000001132036700000000000000300000000000000000000000006518Z01620200326X066000000
2MAIL0000150998BR10        BRNC        BRNCCOCO    BRNCCOCO13AG00000300000000001132200400000000000000200000000000000000000000004230Z01620200326X066000000
2MAIL0000150998BR10        BRNC        BRNCCOCO    BRNCCOCO13AG00000400000000001215533700000000000000200000000000000000000000004345Z01620200326X066000000
2MAIL0000150998BR10        BRNC        BRNCCOCO    BRNCCOCO13AG00000500000000001239688600000000000001400000000000000000000000005582Z01620200326X066000000
2MAIL0000150998BR10        BRNC        BRNCCOCO    BRNCCOCO13AG00000600000000001239688800000000000001400000000000000000000000005582Z01620200326X066000000
2MAIL0000150998BR10        BRNC        BRNCCOCO    BRNCCOCO13AG00000700000000001239692100000000000001400000000000000000000000005582Z01620200326X066000000
2MAIL0000150998BR10        BRNC        BRNCCOCO    BRNCCOCO13AG00000800000000001239692300000000000001400000000000000000000000005582Z01620200326X066000000
1MAIL0000150999BR10        BRNC        BRNCCOCO    BRNCCOCO13AG2020032600:00:00OR  010000029844160002984416150999                             2020032620200326Z016CIF202003260000000000038057NN0                                                  0                                        
2MAIL0000150999BR10        BRNC        BRNCCOCO    BRNCCOCO13AG00000100000000001132018300000000000000100000000000000000000000003463Z01620200326X066000000
2MAIL0000150999BR10        BRNC        BRNCCOCO    BRNCCOCO13AG00000200000000001132200400000000000000200000000000000000000000004230Z01620200326X066000000
2MAIL0000150999BR10        BRNC        BRNCCOCO    BRNCCOCO13AG00000300000000001221415400000000000000100000000000000000000000003463Z01620200326X066000000
2MAIL0000150999BR10        BRNC        BRNCCOCO    BRNCCOCO13AG00000400000000001235699400000000000001000000000000000000000000003741Z01620200326X066000000
2MAIL0000150999BR10        BRNC        BRNCCOCO    BRNCCOCO13AG00000500000000001235699700000000000001000000000000000000000000003741Z01620200326X066000000
2MAIL0000150999BR10        BRNC        BRNCCOCO    BRNCCOCO13AG00000600000000001235699800000000000001000000000000000000000000003741Z01620200326X066000000
2MAIL0000150999BR10        BRNC        BRNCCOCO    BRNCCOCO13AG00000700000000001239688600000000000001400000000000000000000000005226Z01620200326X066000000
2MAIL0000150999BR10        BRNC        BRNCCOCO    BRNCCOCO13AG00000800000000001239688800000000000001400000000000000000000000005226Z01620200326X066000000
2MAIL0000150999BR10        BRNC        BRNCCOCO    BRNCCOCO13AG00000900000000001239692100000000000001400000000000000000000000005226Z01620200326X066000000
1MAIL0000151000BR10        BRNC        BRNCCOCO    BRNCCOCO13AG2020032600:00:00OR  010000057403660005740366151000                             2020032620200326Z016CIF202003260000000000034167NN0                                                  0                                        
2MAIL0000151000BR10        BRNC        BRNCCOCO    BRNCCOCO13AG00000100000000001221415400000000000000100000000000000000000000003735Z01620200326X066000000
2MAIL0000151000BR10        BRNC        BRNCCOCO    BRNCCOCO13AG00000200000000001226089600000000000001200000000000000000000000005045Z01620200326X066000000
2MAIL0000151000BR10        BRNC        BRNCCOCO    BRNCCOCO13AG00000300000000001234705700000000000000100000000000000000000000005568Z01620200326X066000000
2MAIL0000151000BR10        BRNC        BRNCCOCO    BRNCCOCO13AG00000400000000001239688800000000000001400000000000000000000000005885Z01620200326X066000000
2MAIL0000151000BR10        BRNC        BRNCCOCO    BRNCCOCO13AG00000500000000001239692100000000000001400000000000000000000000005885Z01620200326X066000000
2MAIL0000151000BR10        BRNC        BRNCCOCO    BRNCCOCO13AG00000600000000001241623700000000000000100000000000000000000000002481Z01620200326X066000000
2MAIL0000151000BR10        BRNC        BRNCCOCO    BRNCCOCO13AG00000700000000001242374800000000000000100000000000000000000000005568Z01620200326X066000000
1MAIL0000151001BR10        BRNC        BRNCCOCO    BRNCCOCO13AG2020032600:00:00OR  010000059993370005999337151001                             2020032620200326Z016CIF202003260000000000010910NN0                                                  0                                        
2MAIL0000151001BR10        BRNC        BRNCCOCO    BRNCCOCO13AG00000100000000001221415400000000000000300000000000000000000000009054Z01620200326X066000000
2MAIL0000151001BR10        BRNC        BRNCCOCO    BRNCCOCO13AG00000200000000001227395500000000000000100000000000000000000000001856Z01620200326X066000000
1MAIL0000151002BR10        BRNC        BRNCCOCO    BRNCCOCO13AG2020032600:00:00OR  010000053562180005356218151002                             2020032620200326Z016CIF202003260000000000045705NN0                                                  0                                        
2MAIL0000151002BR10        BRNC        BRNCCOCO    BRNCCOCO13AG00000100000000001215533700000000000000100000000000000000000000001746Z01620200326X066000000
2MAIL0000151002BR10        BRNC        BRNCCOCO    BRNCCOCO13AG00000200000000001241577400000000000006000000000000000000000000043959Z01620200326X066000000
1MAIL0000151010BR10        BRNC        BRNCCOCO    BRNCCOCO13AG2020032600:00:00OR  010000009280970000928097151010                             2020032620200326Z016CIF202003260000000000023665NN0                                                  0                                        
2MAIL0000151010BR10        BRNC        BRNCCOCO    BRNCCOCO13AG00000100000000001132004000000000000000500000000000000000000000005000Z01620200326X066000000
2MAIL0000151010BR10        BRNC        BRNCCOCO    BRNCCOCO13AG00000200000000001132036700000000000000300000000000000000000000006389Z01620200326X066000000
2MAIL0000151010BR10        BRNC        BRNCCOCO    BRNCCOCO13AG00000300000000001132200400000000000000200000000000000000000000004239Z01620200326X066000000
2MAIL0000151010BR10        BRNC        BRNCCOCO    BRNCCOCO13AG00000400000000001236512800000000000001600000000000000000000000002701Z01620200326X066000000
2MAIL0000151010BR10        BRNC        BRNCCOCO    BRNCCOCO13AG00000500000000001236512900000000000001500000000000000000000000002668Z01620200326X066000000
2MAIL0000151010BR10        BRNC        BRNCCOCO    BRNCCOCO13AG00000600000000001236515000000000000001500000000000000000000000002668Z01620200326X066000000
1MAIL0000151011BR10        BRNC        BRNCCOCO    BRNCCOCO13AG2020032600:00:00OR  010000049383660004938366151011                             2020032620200326Z016CIF202003260000000000033887NN0                                                  0                                        
2MAIL0000151011BR10        BRNC        BRNCCOCO    BRNCCOCO13AG00000100000000001132018300000000000000100000000000000000000000003735Z01620200326X066000000
2MAIL0000151011BR10        BRNC        BRNCCOCO    BRNCCOCO13AG00000200000000001132019800000000000000100000000000000000000000002076Z01620200326X066000000
2MAIL0000151011BR10        BRNC        BRNCCOCO    BRNCCOCO13AG00000300000000001132036700000000000000300000000000000000000000006872Z01620200326X066000000
2MAIL0000151011BR10        BRNC        BRNCCOCO    BRNCCOCO13AG00000400000000001132200400000000000000100000000000000000000000002230Z01620200326X066000000
2MAIL0000151011BR10        BRNC        BRNCCOCO    BRNCCOCO13AG00000500000000001215533700000000000000100000000000000000000000002291Z01620200326X066000000
2MAIL0000151011BR10        BRNC        BRNCCOCO    BRNCCOCO13AG00000600000000001221415400000000000000100000000000000000000000003735Z01620200326X066000000
2MAIL0000151011BR10        BRNC        BRNCCOCO    BRNCCOCO13AG00000700000000001227395500000000000000100000000000000000000000002291Z01620200326X066000000
2MAIL0000151011BR10        BRNC        BRNCCOCO    BRNCCOCO13AG00000800000000001236898000000000000000100000000000000000000000002291Z01620200326X066000000
2MAIL0000151011BR10        BRNC        BRNCCOCO    BRNCCOCO13AG00000900000000001239688800000000000001400000000000000000000000005885Z01620200326X066000000
2MAIL0000151011BR10        BRNC        BRNCCOCO    BRNCCOCO13AG00001000000000001241623700000000000000100000000000000000000000002481Z01620200326X066000000
1MAIL0000151012BR10        BRNC        BRNCCOCO    BRNCCOCO13AG2020032600:00:00OR  010000042450000004245000151012                             2020032620200326Z016CIF202003260000000000010820NN0                                                  0                                        
2MAIL0000151012BR10        BRNC        BRNCCOCO    BRNCCOCO13AG00000100000000001132033100000000000000100000000000000000000000002291Z01620200326X066000000
2MAIL0000151012BR10        BRNC        BRNCCOCO    BRNCCOCO13AG00000200000000001132036700000000000000100000000000000000000000002291Z01620200326X066000000
2MAIL0000151012BR10        BRNC        BRNCCOCO    BRNCCOCO13AG00000300000000001132200400000000000000100000000000000000000000002230Z01620200326X066000000
2MAIL0000151012BR10        BRNC        BRNCCOCO    BRNCCOCO13AG00000400000000001236512900000000000001000000000000000000000000002004Z01620200326X066000000
2MAIL0000151012BR10        BRNC        BRNCCOCO    BRNCCOCO13AG00000500000000001236515000000000000001000000000000000000000000002004Z01620200326X066000000
1MAIL0000151013BR10        BRNC        BRNCCOCO    BRNCCOCO13AG2020032600:00:00OR  010000038774590003877459151013                             2020032620200326Z016CIF202003260000000000020746NN0                                                  0                                        
2MAIL0000151013BR10        BRNC        BRNCCOCO    BRNCCOCO13AG00000100000000001132018300000000000000100000000000000000000000003463Z01620200326X066000000
2MAIL0000151013BR10        BRNC        BRNCCOCO    BRNCCOCO13AG00000200000000001132019800000000000000100000000000000000000000001924Z01620200326X066000000
2MAIL0000151013BR10        BRNC        BRNCCOCO    BRNCCOCO13AG00000300000000001132200400000000000000200000000000000000000000004230Z01620200326X066000000
2MAIL0000151013BR10        BRNC        BRNCCOCO    BRNCCOCO13AG00000400000000001221415400000000000000100000000000000000000000003463Z01620200326X066000000
2MAIL0000151013BR10        BRNC        BRNCCOCO    BRNCCOCO13AG00000500000000001231231200000000000000100000000000000000000000004965Z01620200326X066000000
2MAIL0000151013BR10        BRNC        BRNCCOCO    BRNCCOCO13AG00000600000000001236512800000000000001600000000000000000000000002701Z01620200326X066000000
1MAIL0000151014BR10        BRNC        BRNCCOCO    BRNCCOCO13AG2020032600:00:00OR  010000041724310004172431151014                             2020032620200326Z016CIF202003260000000000009067NN0                                                  0                                        
2MAIL0000151014BR10        BRNC        BRNCCOCO    BRNCCOCO13AG00000100000000001132033100000000000000100000000000000000000000002291Z01620200326X066000000
2MAIL0000151014BR10        BRNC        BRNCCOCO    BRNCCOCO13AG00000200000000001132036700000000000000100000000000000000000000002291Z01620200326X066000000
2MAIL0000151014BR10        BRNC        BRNCCOCO    BRNCCOCO13AG00000300000000001236512900000000000000500000000000000000000000001002Z01620200326X066000000
2MAIL0000151014BR10        BRNC        BRNCCOCO    BRNCCOCO13AG00000400000000001236515000000000000000500000000000000000000000001002Z01620200326X066000000
2MAIL0000151014BR10        BRNC        BRNCCOCO    BRNCCOCO13AG00000500000000001241623700000000000000100000000000000000000000002481Z01620200326X066000000
1MAIL0000151015BR10        BRNC        BRNCCOCO    BRNCCOCO13AG2020032600:00:00OR  010000041563030004156303151015                             2020032620200326Z016CIF202003260000000000020389NN0                                                  0                                        
2MAIL0000151015BR10        BRNC        BRNCCOCO    BRNCCOCO13AG00000100000000001132019800000000000000100000000000000000000000002076Z01620200326X066000000
2MAIL0000151015BR10        BRNC        BRNCCOCO    BRNCCOCO13AG00000200000000001132036700000000000000100000000000000000000000002291Z01620200326X066000000
2MAIL0000151015BR10        BRNC        BRNCCOCO    BRNCCOCO13AG00000300000000001132200400000000000000100000000000000000000000002230Z01620200326X066000000
2MAIL0000151015BR10        BRNC        BRNCCOCO    BRNCCOCO13AG00000400000000001221415400000000000000100000000000000000000000003735Z01620200326X066000000
2MAIL0000151015BR10        BRNC        BRNCCOCO    BRNCCOCO13AG00000500000000001236512800000000000000400000000000000000000000000762Z01620200326X066000000
2MAIL0000151015BR10        BRNC        BRNCCOCO    BRNCCOCO13AG00000600000000001236512900000000000000500000000000000000000000001002Z01620200326X066000000
2MAIL0000151015BR10        BRNC        BRNCCOCO    BRNCCOCO13AG00000700000000001236515000000000000000500000000000000000000000001002Z01620200326X066000000
2MAIL0000151015BR10        BRNC        BRNCCOCO    BRNCCOCO13AG00000800000000001241577400000000000000500000000000000000000000004810Z01620200326X066000000
2MAIL0000151015BR10        BRNC        BRNCCOCO    BRNCCOCO13AG00000900000000001241623700000000000000100000000000000000000000002481Z01620200326X066000000
1MAIL0000151016BR10        BRNC        BRNCCOCO    BRNCCOCO13AG2020032600:00:00OR  010000029825680002982568151016                             2020032620200326Z016CIF202003260000000000037646NN0                                                  0                                        
2MAIL0000151016BR10        BRNC        BRNCCOCO    BRNCCOCO13AG00000100000000001132019800000000000000100000000000000000000000001967Z01620200326X066000000
2MAIL0000151016BR10        BRNC        BRNCCOCO    BRNCCOCO13AG00000200000000001132036700000000000000200000000000000000000000004345Z01620200326X066000000
2MAIL0000151016BR10        BRNC        BRNCCOCO    BRNCCOCO13AG00000300000000001132200400000000000000100000000000000000000000002115Z01620200326X066000000
2MAIL0000151016BR10        BRNC        BRNCCOCO    BRNCCOCO13AG00000400000000001221415400000000000000100000000000000000000000003541Z01620200326X066000000
2MAIL0000151016BR10        BRNC        BRNCCOCO    BRNCCOCO13AG00000500000000001236512800000000000000400000000000000000000000000690Z01620200326X066000000
2MAIL0000151016BR10        BRNC        BRNCCOCO    BRNCCOCO13AG00000600000000001236512900000000000003500000000000000000000000006363Z01620200326X066000000
2MAIL0000151016BR10        BRNC        BRNCCOCO    BRNCCOCO13AG00000700000000001236515000000000000003500000000000000000000000006363Z01620200326X066000000
2MAIL0000151016BR10        BRNC        BRNCCOCO    BRNCCOCO13AG00000800000000001239692100000000000001400000000000000000000000005343Z01620200326X066000000
2MAIL0000151016BR10        BRNC        BRNCCOCO    BRNCCOCO13AG00000900000000001241577400000000000000500000000000000000000000004332Z01620200326X066000000
2MAIL0000151016BR10        BRNC        BRNCCOCO    BRNCCOCO13AG00001000000000001241623700000000000000100000000000000000000000002587Z01620200326X066000000
