1MAIL0000152998BR10        BRNC        BRNCCOCO    BRNCCOCO13AG2020041300:00:00OR  010000058055760005805576152998                             2020041320200413Z016CIF202004130000000000006732NN0                                                  0                                        
2MAIL0000152998BR10        BRNC        BRNCCOCO    BRNCCOCO13AG00000100000000001132019800000000000000100000000000000000000000001967Z01620200413X066000000
2MAIL0000152998BR10        BRNC        BRNCCOCO    BRNCCOCO13AG00000200000000001132036700000000000000100000000000000000000000002173Z01620200413X066000000
2MAIL0000152998BR10        BRNC        BRNCCOCO    BRNCCOCO13AG00000300000000001241623700000000000000100000000000000000000000002592Z01620200413X066000000
1MAIL0000152999BR10        BRNC        BRNCCOCO    BRNCCOCO13AG2020041300:00:00OR  010000060401040006040104152999                             2020041320200413Z016CIF202004130000000000009393NN0                                                  0                                        
2MAIL0000152999BR10        BRNC        BRNCCOCO    BRNCCOCO13AG00000100000000001132019700000000000000100000000000000000000000002076Z01620200413X066000000
2MAIL0000152999BR10        BRNC        BRNCCOCO    BRNCCOCO13AG00000200000000001132019800000000000000100000000000000000000000002076Z01620200413X066000000
2MAIL0000152999BR10        BRNC        BRNCCOCO    BRNCCOCO13AG00000300000000001132400100000000000000100000000000000000000000003165Z01620200413X066000000
2MAIL0000152999BR10        BRNC        BRNCCOCO    BRNCCOCO13AG00000400000000001227735000000000000000100000000000000000000000002076Z01620200413X066000000
1MAIL0000153000BR10        BRNC        BRNCCOCO    BRNCCOCO13AG2020041300:00:00OR  010000029846090002984609153000                             2020041320200413Z016CIF202004130000000000014887NN0                                                  0                                        
2MAIL0000153000BR10        BRNC        BRNCCOCO    BRNCCOCO13AG00000100000000001241623700000000000000600000000000000000000000014887Z01620200413X066000000
1MAIL0000153001BR10        BRNC        BRNCCOCO    BRNCCOCO13AG2020041300:00:00OR  010000061442440006144244153001                             2020041320200413Z016CIF202004130000000000011853NN0                                                  0                                        
2MAIL0000153001BR10        BRNC        BRNCCOCO    BRNCCOCO13AG00000100000000001132033100000000000000100000000000000000000000002241Z01620200413X066000000
2MAIL0000153001BR10        BRNC        BRNCCOCO    BRNCCOCO13AG00000200000000001132036700000000000000200000000000000000000000004481Z01620200413X066000000
2MAIL0000153001BR10        BRNC        BRNCCOCO    BRNCCOCO13AG00000300000000001236512800000000000000400000000000000000000000000745Z01620200413X066000000
2MAIL0000153001BR10        BRNC        BRNCCOCO    BRNCCOCO13AG00000400000000001236512900000000000000500000000000000000000000000980Z01620200413X066000000
2MAIL0000153001BR10        BRNC        BRNCCOCO    BRNCCOCO13AG00000500000000001236515000000000000000500000000000000000000000000980Z01620200413X066000000
2MAIL0000153001BR10        BRNC        BRNCCOCO    BRNCCOCO13AG00000600000000001241623700000000000000100000000000000000000000002426Z01620200413X066000000
1MAIL0000153002BR10        BRNC        BRNCCOCO    BRNCCOCO13AG2020041300:00:00OR  010000060471830006047183153002                             2020041320200413Z016CIF202004130000000000006812NN0                                                  0                                        
2MAIL0000153002BR10        BRNC        BRNCCOCO    BRNCCOCO13AG00000100000000001132036700000000000000100000000000000000000000002291Z01620200413X066000000
2MAIL0000153002BR10        BRNC        BRNCCOCO    BRNCCOCO13AG00000200000000001132200400000000000000100000000000000000000000002230Z01620200413X066000000
2MAIL0000153002BR10        BRNC        BRNCCOCO    BRNCCOCO13AG00000300000000001227395500000000000000100000000000000000000000002291Z01620200413X066000000
1MAIL0000153003BR10        BRNC        BRNCCOCO    BRNCCOCO13AG2020041300:00:00OR  010000052356200005235620153003                             2020041320200413Z016CIF202004130000000000203406NN0                                                  0                                        
2MAIL0000153003BR10        BRNC        BRNCCOCO    BRNCCOCO13AG00000100000000001241577400000000000024000000000000000000000000203406Z01620200413X066000000
1MAIL0000153004BR10        BRNC        BRNCCOCO    BRNCCOCO13AG2020041300:00:00OR  010000009377450000937745153004                             2020041320200413Z016CIF202004130000000000152555NN0                                                  0                                        
2MAIL0000153004BR10        BRNC        BRNCCOCO    BRNCCOCO13AG00000100000000001241577400000000000018000000000000000000000000152555Z01620200413X066000000
1MAIL0000153005BR10        BRNC        BRNCCOCO    BRNCCOCO13AG2020041300:00:00OR  010000061687880006168788153005                             2020041320200413Z016CIF202004130000000000072434NN0                                                  0                                        
2MAIL0000153005BR10        BRNC        BRNCCOCO    BRNCCOCO13AG00000100000000001132018300000000000000100000000000000000000000002845Z01620200413X066000000
2MAIL0000153005BR10        BRNC        BRNCCOCO    BRNCCOCO13AG00000200000000001132019700000000000000100000000000000000000000001581Z01620200413X066000000
2MAIL0000153005BR10        BRNC        BRNCCOCO    BRNCCOCO13AG00000300000000001132019800000000000000100000000000000000000000001581Z01620200413X066000000
2MAIL0000153005BR10        BRNC        BRNCCOCO    BRNCCOCO13AG00000400000000001132033100000000000000100000000000000000000000001746Z01620200413X066000000
2MAIL0000153005BR10        BRNC        BRNCCOCO    BRNCCOCO13AG00000500000000001132036700000000000000100000000000000000000000001746Z01620200413X066000000
2MAIL0000153005BR10        BRNC        BRNCCOCO    BRNCCOCO13AG00000600000000001132200400000000000000100000000000000000000000001980Z01620200413X066000000
2MAIL0000153005BR10        BRNC        BRNCCOCO    BRNCCOCO13AG00000700000000001215533700000000000000100000000000000000000000001746Z01620200413X066000000
2MAIL0000153005BR10        BRNC        BRNCCOCO    BRNCCOCO13AG00000800000000001221415400000000000000100000000000000000000000002845Z01620200413X066000000
2MAIL0000153005BR10        BRNC        BRNCCOCO    BRNCCOCO13AG00000900000000001236512800000000000005200000000000000000000000007780Z01620200413X066000000
2MAIL0000153005BR10        BRNC        BRNCCOCO    BRNCCOCO13AG00001000000000001236512900000000000007000000000000000000000000011017Z01620200413X066000000
2MAIL0000153005BR10        BRNC        BRNCCOCO    BRNCCOCO13AG00001100000000001239663300000000000001400000000000000000000000004469Z01620200413X066000000
2MAIL0000153005BR10        BRNC        BRNCCOCO    BRNCCOCO13AG00001200000000001240924900000000000005200000000000000000000000007488Z01620200413X066000000
2MAIL0000153005BR10        BRNC        BRNCCOCO    BRNCCOCO13AG00001300000000001241577400000000000003000000000000000000000000021980Z01620200413X066000000
2MAIL0000153005BR10        BRNC        BRNCCOCO    BRNCCOCO13AG00001400000000001241623700000000000000200000000000000000000000003630Z01620200413X066000000
1MAIL0000153006BR10        BRNC        BRNCCOCO    BRNCCOCO13AG2020041300:00:00OR  010000060056240006005624153006                             2020041320200413Z016CIF202004130000000000060583NN0                                                  0                                        
2MAIL0000153006BR10        BRNC        BRNCCOCO    BRNCCOCO13AG00000100000000001132019700000000000000100000000000000000000000001498Z01620200413X066000000
2MAIL0000153006BR10        BRNC        BRNCCOCO    BRNCCOCO13AG00000200000000001132019800000000000000100000000000000000000000001498Z01620200413X066000000
2MAIL0000153006BR10        BRNC        BRNCCOCO    BRNCCOCO13AG00000300000000001132020900000000000000100000000000000000000000001498Z01620200413X066000000
2MAIL0000153006BR10        BRNC        BRNCCOCO    BRNCCOCO13AG00000400000000001132033100000000000000100000000000000000000000001654Z01620200413X066000000
2MAIL0000153006BR10        BRNC        BRNCCOCO    BRNCCOCO13AG00000500000000001132036700000000000000100000000000000000000000001654Z01620200413X066000000
2MAIL0000153006BR10        BRNC        BRNCCOCO    BRNCCOCO13AG00000600000000001132400100000000000000100000000000000000000000002286Z01620200413X066000000
2MAIL0000153006BR10        BRNC        BRNCCOCO    BRNCCOCO13AG00000700000000001215533700000000000000100000000000000000000000001654Z01620200413X066000000
2MAIL0000153006BR10        BRNC        BRNCCOCO    BRNCCOCO13AG00000800000000001227735000000000000000100000000000000000000000001498Z01620200413X066000000
2MAIL0000153006BR10        BRNC        BRNCCOCO    BRNCCOCO13AG00000900000000001231189200000000000000100000000000000000000000004437Z01620200413X066000000
2MAIL0000153006BR10        BRNC        BRNCCOCO    BRNCCOCO13AG00001000000000001231231200000000000000100000000000000000000000004437Z01620200413X066000000
2MAIL0000153006BR10        BRNC        BRNCCOCO    BRNCCOCO13AG00001100000000001235699700000000000001000000000000000000000000003352Z01620200413X066000000
2MAIL0000153006BR10        BRNC        BRNCCOCO    BRNCCOCO13AG00001200000000001235699800000000000001000000000000000000000000003352Z01620200413X066000000
2MAIL0000153006BR10        BRNC        BRNCCOCO    BRNCCOCO13AG00001300000000001236898000000000000000100000000000000000000000001654Z01620200413X066000000
2MAIL0000153006BR10        BRNC        BRNCCOCO    BRNCCOCO13AG00001400000000001239688600000000000001400000000000000000000000004684Z01620200413X066000000
2MAIL0000153006BR10        BRNC        BRNCCOCO    BRNCCOCO13AG00001500000000001239688800000000000001400000000000000000000000004684Z01620200413X066000000
2MAIL0000153006BR10        BRNC        BRNCCOCO    BRNCCOCO13AG00001600000000001239692000000000000001400000000000000000000000004684Z01620200413X066000000
2MAIL0000153006BR10        BRNC        BRNCCOCO    BRNCCOCO13AG00001700000000001239692100000000000001400000000000000000000000004684Z01620200413X066000000
2MAIL0000153006BR10        BRNC        BRNCCOCO    BRNCCOCO13AG00001800000000001241577400000000000001500000000000000000000000011375Z01620200413X066000000
1MAIL0000153007BR10        BRNC        BRNCCOCO    BRNCCOCO13AG2020041300:00:00OR  010000051463790005146379153007                             2020041320200413Z016CIF202004130000000000042775NN0                                                  0                                        
2MAIL0000153007BR10        BRNC        BRNCCOCO    BRNCCOCO13AG00000100000000001132019800000000000000100000000000000000000000002076Z01620200413X066000000
2MAIL0000153007BR10        BRNC        BRNCCOCO    BRNCCOCO13AG00000200000000001132033100000000000000100000000000000000000000002291Z01620200413X066000000
2MAIL0000153007BR10        BRNC        BRNCCOCO    BRNCCOCO13AG00000300000000001132036700000000000000100000000000000000000000002291Z01620200413X066000000
2MAIL0000153007BR10        BRNC        BRNCCOCO    BRNCCOCO13AG00000400000000001235699800000000000001000000000000000000000000004211Z01620200413X066000000
2MAIL0000153007BR10        BRNC        BRNCCOCO    BRNCCOCO13AG00000500000000001239688600000000000001400000000000000000000000005885Z01620200413X066000000
2MAIL0000153007BR10        BRNC        BRNCCOCO    BRNCCOCO13AG00000600000000001239688700000000000001400000000000000000000000005885Z01620200413X066000000
2MAIL0000153007BR10        BRNC        BRNCCOCO    BRNCCOCO13AG00000700000000001239688800000000000001400000000000000000000000005885Z01620200413X066000000
2MAIL0000153007BR10        BRNC        BRNCCOCO    BRNCCOCO13AG00000800000000001239692100000000000001400000000000000000000000005885Z01620200413X066000000
2MAIL0000153007BR10        BRNC        BRNCCOCO    BRNCCOCO13AG00000900000000001239692300000000000001400000000000000000000000005885Z01620200413X066000000
2MAIL0000153007BR10        BRNC        BRNCCOCO    BRNCCOCO13AG00001000000000001241623700000000000000100000000000000000000000002481Z01620200413X066000000
1MAIL0000153008BR10        BRNC        BRNCCOCO    BRNCCOCO13AG2020041300:00:00OR  010000060517560006051756153008                             2020041320200413Z079CIF202004130000000000229724NN0                                                  0                                        
2MAIL0000153008BR10        BRNC        BRNCCOCO    BRNCCOCO13AG00000100000000001132033100000000000000500000000000000000000000011486Z07920200413X066000000
2MAIL0000153008BR10        BRNC        BRNCCOCO    BRNCCOCO13AG00000200000000001132036700000000000000500000000000000000000000011486Z07920200413X066000000
2MAIL0000153008BR10        BRNC        BRNCCOCO    BRNCCOCO13AG00000300000000001215533700000000000000500000000000000000000000011486Z07920200413X066000000
2MAIL0000153008BR10        BRNC        BRNCCOCO    BRNCCOCO13AG00000400000000001223975300000000000000100000000000000000000000005581Z07920200413X066000000
2MAIL0000153008BR10        BRNC        BRNCCOCO    BRNCCOCO13AG00000500000000001226089600000000000001200000000000000000000000005054Z07920200413X066000000
2MAIL0000153008BR10        BRNC        BRNCCOCO    BRNCCOCO13AG00000600000000001227395500000000000000500000000000000000000000011486Z07920200413X066000000
2MAIL0000153008BR10        BRNC        BRNCCOCO    BRNCCOCO13AG00000700000000001228274000000000000000100000000000000000000000005581Z07920200413X066000000
2MAIL0000153008BR10        BRNC        BRNCCOCO    BRNCCOCO13AG00000800000000001228512700000000000000200000000000000000000000011162Z07920200413X066000000
2MAIL0000153008BR10        BRNC        BRNCCOCO    BRNCCOCO13AG00000900000000001231189200000000000000100000000000000000000000005581Z07920200413X066000000
2MAIL0000153008BR10        BRNC        BRNCCOCO    BRNCCOCO13AG00001000000000001231231200000000000000100000000000000000000000005581Z07920200413X066000000
2MAIL0000153008BR10        BRNC        BRNCCOCO    BRNCCOCO13AG00001100000000001231233000000000000000100000000000000000000000005581Z07920200413X066000000
2MAIL0000153008BR10        BRNC        BRNCCOCO    BRNCCOCO13AG00001200000000001231389600000000000000500000000000000000000000011486Z07920200413X066000000
2MAIL0000153008BR10        BRNC        BRNCCOCO    BRNCCOCO13AG00001300000000001234705700000000000000100000000000000000000000005581Z07920200413X066000000
2MAIL0000153008BR10        BRNC        BRNCCOCO    BRNCCOCO13AG00001400000000001234705800000000000000100000000000000000000000005581Z07920200413X066000000
2MAIL0000153008BR10        BRNC        BRNCCOCO    BRNCCOCO13AG00001500000000001234705900000000000000100000000000000000000000005581Z07920200413X066000000
2MAIL0000153008BR10        BRNC        BRNCCOCO    BRNCCOCO13AG00001600000000001235699400000000000001000000000000000000000000004220Z07920200413X066000000
2MAIL0000153008BR10        BRNC        BRNCCOCO    BRNCCOCO13AG00001700000000001235699700000000000001000000000000000000000000004220Z07920200413X066000000
2MAIL0000153008BR10        BRNC        BRNCCOCO    BRNCCOCO13AG00001800000000001235699800000000000001000000000000000000000000004220Z07920200413X066000000
2MAIL0000153008BR10        BRNC        BRNCCOCO    BRNCCOCO13AG00001900000000001236515000000000000000500000000000000000000000001002Z07920200413X066000000
2MAIL0000153008BR10        BRNC        BRNCCOCO    BRNCCOCO13AG00002000000000001236898000000000000000500000000000000000000000011486Z07920200413X066000000
2MAIL0000153008BR10        BRNC        BRNCCOCO    BRNCCOCO13AG00002100000000001238083500000000000000100000000000000000000000005581Z07920200413X066000000
2MAIL0000153008BR10        BRNC        BRNCCOCO    BRNCCOCO13AG00002200000000001239663300000000000001400000000000000000000000005896Z07920200413X066000000
2MAIL0000153008BR10        BRNC        BRNCCOCO    BRNCCOCO13AG00002300000000001239688300000000000001400000000000000000000000005896Z07920200413X066000000
2MAIL0000153008BR10        BRNC        BRNCCOCO    BRNCCOCO13AG00002400000000001239688500000000000001400000000000000000000000005896Z07920200413X066000000
2MAIL0000153008BR10        BRNC        BRNCCOCO    BRNCCOCO13AG00002500000000001239688600000000000001400000000000000000000000005896Z07920200413X066000000
2MAIL0000153008BR10        BRNC        BRNCCOCO    BRNCCOCO13AG00002600000000001239688700000000000001400000000000000000000000005896Z07920200413X066000000
2MAIL0000153008BR10        BRNC        BRNCCOCO    BRNCCOCO13AG00002700000000001239688800000000000001400000000000000000000000005896Z07920200413X066000000
2MAIL0000153008BR10        BRNC        BRNCCOCO    BRNCCOCO13AG00002800000000001239692000000000000001400000000000000000000000005896Z07920200413X066000000
2MAIL0000153008BR10        BRNC        BRNCCOCO    BRNCCOCO13AG00002900000000001239692100000000000001400000000000000000000000005896Z07920200413X066000000
2MAIL0000153008BR10        BRNC        BRNCCOCO    BRNCCOCO13AG00003000000000001239692300000000000001400000000000000000000000005896Z07920200413X066000000
2MAIL0000153008BR10        BRNC        BRNCCOCO    BRNCCOCO13AG00003100000000001241623700000000000000400000000000000000000000009949Z07920200413X066000000
2MAIL0000153008BR10        BRNC        BRNCCOCO    BRNCCOCO13AG00003200000000001242626100000000000001400000000000000000000000005896Z07920200413X066000000
2MAIL0000153008BR10        BRNC        BRNCCOCO    BRNCCOCO13AG00003300000000001242754900000000000001400000000000000000000000005896Z07920200413X066000000
2MAIL0000153008BR10        BRNC        BRNCCOCO    BRNCCOCO13AG00003400000000001242765000000000000001400000000000000000000000005896Z07920200413X066000000
1MAIL0000153009BR10        BRNC        BRNCCOCO    BRNCCOCO13AG2020041300:00:00OR  010000029807370002980737153009                             2020041320200413Z016CIF202004130000000000221604NN0                                                  0                                        
2MAIL0000153009BR10        BRNC        BRNCCOCO    BRNCCOCO13AG00000100000000001132004200000000000002000000000000000000000000028130Z01620200413X066000000
2MAIL0000153009BR10        BRNC        BRNCCOCO    BRNCCOCO13AG00000200000000001226089600000000000002400000000000000000000000008958Z01620200413X066000000
2MAIL0000153009BR10        BRNC        BRNCCOCO    BRNCCOCO13AG00000300000000001234705700000000000000100000000000000000000000004965Z01620200413X066000000
2MAIL0000153009BR10        BRNC        BRNCCOCO    BRNCCOCO13AG00000400000000001235699400000000000002000000000000000000000000007481Z01620200413X066000000
2MAIL0000153009BR10        BRNC        BRNCCOCO    BRNCCOCO13AG00000500000000001235699700000000000002000000000000000000000000007481Z01620200413X066000000
2MAIL0000153009BR10        BRNC        BRNCCOCO    BRNCCOCO13AG00000600000000001235699800000000000002000000000000000000000000007481Z01620200413X066000000
2MAIL0000153009BR10        BRNC        BRNCCOCO    BRNCCOCO13AG00000700000000001236512800000000000005200000000000000000000000008776Z01620200413X066000000
2MAIL0000153009BR10        BRNC        BRNCCOCO    BRNCCOCO13AG00000800000000001236512900000000000007000000000000000000000000012447Z01620200413X066000000
2MAIL0000153009BR10        BRNC        BRNCCOCO    BRNCCOCO13AG00000900000000001236515000000000000007000000000000000000000000012447Z01620200413X066000000
2MAIL0000153009BR10        BRNC        BRNCCOCO    BRNCCOCO13AG00001000000000001239663300000000000002800000000000000000000000010452Z01620200413X066000000
2MAIL0000153009BR10        BRNC        BRNCCOCO    BRNCCOCO13AG00001100000000001239688300000000000002800000000000000000000000010452Z01620200413X066000000
2MAIL0000153009BR10        BRNC        BRNCCOCO    BRNCCOCO13AG00001200000000001239688500000000000002800000000000000000000000010452Z01620200413X066000000
2MAIL0000153009BR10        BRNC        BRNCCOCO    BRNCCOCO13AG00001300000000001239688600000000000005600000000000000000000000020904Z01620200413X066000000
2MAIL0000153009BR10        BRNC        BRNCCOCO    BRNCCOCO13AG00001400000000001239688700000000000002800000000000000000000000010452Z01620200413X066000000
2MAIL0000153009BR10        BRNC        BRNCCOCO    BRNCCOCO13AG00001500000000001239688800000000000005600000000000000000000000020904Z01620200413X066000000
2MAIL0000153009BR10        BRNC        BRNCCOCO    BRNCCOCO13AG00001600000000001239692000000000000002800000000000000000000000010452Z01620200413X066000000
2MAIL0000153009BR10        BRNC        BRNCCOCO    BRNCCOCO13AG00001700000000001239692100000000000002800000000000000000000000010452Z01620200413X066000000
2MAIL0000153009BR10        BRNC        BRNCCOCO    BRNCCOCO13AG00001800000000001239692300000000000002800000000000000000000000010452Z01620200413X066000000
2MAIL0000153009BR10        BRNC        BRNCCOCO    BRNCCOCO13AG00001900000000001240924900000000000005200000000000000000000000008466Z01620200413X066000000
1MAIL0000153010BR10        BRNC        BRNCCOCO    BRNCCOCO13AG2020041300:00:00OR  010000028582080002858208153010                             2020041320200413Z016CIF202004130000000000032538NN0                                                  0                                        
2MAIL0000153010BR10        BRNC        BRNCCOCO    BRNCCOCO13AG00000100000000001132004000000000000000100000000000000000000000001099Z01620200413X066003000
2MAIL0000153010BR10        BRNC        BRNCCOCO    BRNCCOCO13AG00000200000000001132018300000000000000100000000000000000000000003622Z01620200413X066003000
2MAIL0000153010BR10        BRNC        BRNCCOCO    BRNCCOCO13AG00000300000000001132019800000000000000100000000000000000000000002012Z01620200413X066003000
2MAIL0000153010BR10        BRNC        BRNCCOCO    BRNCCOCO13AG00000400000000001132034900000000000000100000000000000000000000002333Z01620200413X066005000
2MAIL0000153010BR10        BRNC        BRNCCOCO    BRNCCOCO13AG00000500000000001132036700000000000000100000000000000000000000002223Z01620200413X066003000
2MAIL0000153010BR10        BRNC        BRNCCOCO    BRNCCOCO13AG00000600000000001132200400000000000000100000000000000000000000002163Z01620200413X066003000
2MAIL0000153010BR10        BRNC        BRNCCOCO    BRNCCOCO13AG00000700000000001221415400000000000000100000000000000000000000003622Z01620200413X066003000
2MAIL0000153010BR10        BRNC        BRNCCOCO    BRNCCOCO13AG00000800000000001236512800000000000000400000000000000000000000000739Z01620200413X066003000
2MAIL0000153010BR10        BRNC        BRNCCOCO    BRNCCOCO13AG00000900000000001236512900000000000000500000000000000000000000000973Z01620200413X066003000
2MAIL0000153010BR10        BRNC        BRNCCOCO    BRNCCOCO13AG00001000000000001236515000000000000000500000000000000000000000000973Z01620200413X066003000
2MAIL0000153010BR10        BRNC        BRNCCOCO    BRNCCOCO13AG00001100000000001239688800000000000001400000000000000000000000005708Z01620200413X066003000
2MAIL0000153010BR10        BRNC        BRNCCOCO    BRNCCOCO13AG00001200000000001241577400000000000000500000000000000000000000004665Z01620200413X066003000
2MAIL0000153010BR10        BRNC        BRNCCOCO    BRNCCOCO13AG00001300000000001241623700000000000000100000000000000000000000002406Z01620200413X066003000
1MAIL0000153011BR10        BRNC        BRNCCOCO    BRNCCOCO13AG2020041300:00:00OR  010000058080400005808040153011                             2020041320200413Z016CIF202004130000000000050867NN0                                                  0                                        
2MAIL0000153011BR10        BRNC        BRNCCOCO    BRNCCOCO13AG00000100000000001132033100000000000000100000000000000000000000002291Z01620200413X066000000
2MAIL0000153011BR10        BRNC        BRNCCOCO    BRNCCOCO13AG00000200000000001132036700000000000000300000000000000000000000006872Z01620200413X066000000
2MAIL0000153011BR10        BRNC        BRNCCOCO    BRNCCOCO13AG00000300000000001236515000000000000001000000000000000000000000002004Z01620200413X066000000
2MAIL0000153011BR10        BRNC        BRNCCOCO    BRNCCOCO13AG00000400000000001239688800000000000001400000000000000000000000005885Z01620200413X066000000
2MAIL0000153011BR10        BRNC        BRNCCOCO    BRNCCOCO13AG00000500000000001241577400000000000003000000000000000000000000028853Z01620200413X066000000
2MAIL0000153011BR10        BRNC        BRNCCOCO    BRNCCOCO13AG00000600000000001241623700000000000000200000000000000000000000004962Z01620200413X066000000
1MAIL0000153012BR10        BRNC        BRNCCOCO    BRNCCOCO13AG2020041300:00:00OR  010000034772930003477293153012                             2020041320200413Z016CIF202004130000000000026471NN0                                                  0                                        
2MAIL0000153012BR10        BRNC        BRNCCOCO    BRNCCOCO13AG00000100000000001132033100000000000000100000000000000000000000002291Z01620200413X066000000
2MAIL0000153012BR10        BRNC        BRNCCOCO    BRNCCOCO13AG00000200000000001132036700000000000000100000000000000000000000002291Z01620200413X066000000
2MAIL0000153012BR10        BRNC        BRNCCOCO    BRNCCOCO13AG00000300000000001132200400000000000000100000000000000000000000002230Z01620200413X066000000
2MAIL0000153012BR10        BRNC        BRNCCOCO    BRNCCOCO13AG00000400000000001236512900000000000001000000000000000000000000002004Z01620200413X066000000
2MAIL0000153012BR10        BRNC        BRNCCOCO    BRNCCOCO13AG00000500000000001239688800000000000001400000000000000000000000005885Z01620200413X066000000
2MAIL0000153012BR10        BRNC        BRNCCOCO    BRNCCOCO13AG00000600000000001239692000000000000001400000000000000000000000005885Z01620200413X066000000
2MAIL0000153012BR10        BRNC        BRNCCOCO    BRNCCOCO13AG00000700000000001239692100000000000001400000000000000000000000005885Z01620200413X066000000
