1MAIL0000153628BR10        BRNC        BRNCCOCO    BRNCCOCO13AG2020041600:00:00OR  010000009232020000923202153628                             2020041620200416Z016CIF202004160000000000048536NN0                                                  0                                        
2MAIL0000153628BR10        BRNC        BRNCCOCO    BRNCCOCO13AG00000100000000001132004000000000000002000000000000000000000000020406Z01620200416X066000000
2MAIL0000153628BR10        BRNC        BRNCCOCO    BRNCCOCO13AG00000200000000001132004200000000000002000000000000000000000000028130Z01620200416X066000000
1MAIL0000153629BR10        BRNC        BRNCCOCO    BRNCCOCO13AG2020041600:00:00OR  010000054124660005412466153629                             2020041620200416Z016CIF202004160000000000043321NN0                                                  0                                        
2MAIL0000153629BR10        BRNC        BRNCCOCO    BRNCCOCO13AG00000100000000001132019700000000000000100000000000000000000000001681Z01620200416X066000000
2MAIL0000153629BR10        BRNC        BRNCCOCO    BRNCCOCO13AG00000200000000001132019800000000000000100000000000000000000000001681Z01620200416X066000000
2MAIL0000153629BR10        BRNC        BRNCCOCO    BRNCCOCO13AG00000300000000001132036700000000000000200000000000000000000000003712Z01620200416X066000000
2MAIL0000153629BR10        BRNC        BRNCCOCO    BRNCCOCO13AG00000400000000001215533700000000000000200000000000000000000000003712Z01620200416X066000000
2MAIL0000153629BR10        BRNC        BRNCCOCO    BRNCCOCO13AG00000500000000001231189200000000000000100000000000000000000000004509Z01620200416X066000000
2MAIL0000153629BR10        BRNC        BRNCCOCO    BRNCCOCO13AG00000600000000001231231200000000000000100000000000000000000000004509Z01620200416X066000000
2MAIL0000153629BR10        BRNC        BRNCCOCO    BRNCCOCO13AG00000700000000001231233000000000000000100000000000000000000000004509Z01620200416X066000000
2MAIL0000153629BR10        BRNC        BRNCCOCO    BRNCCOCO13AG00000800000000001239688300000000000001400000000000000000000000004752Z01620200416X066000000
2MAIL0000153629BR10        BRNC        BRNCCOCO    BRNCCOCO13AG00000900000000001239688800000000000001400000000000000000000000004752Z01620200416X066000000
2MAIL0000153629BR10        BRNC        BRNCCOCO    BRNCCOCO13AG00001000000000001239692000000000000001400000000000000000000000004752Z01620200416X066000000
2MAIL0000153629BR10        BRNC        BRNCCOCO    BRNCCOCO13AG00001100000000001239692300000000000001400000000000000000000000004752Z01620200416X066000000
1MAIL0000153630BR10        BRNC        BRNCCOCO    BRNCCOCO13AG2020041600:00:00OR  010000043126900004312690153630                             2020041620200416Z016CIF202004160000000000023638NN0                                                  0                                        
2MAIL0000153630BR10        BRNC        BRNCCOCO    BRNCCOCO13AG00000100000000001132036700000000000000200000000000000000000000004345Z01620200416X066000000
2MAIL0000153630BR10        BRNC        BRNCCOCO    BRNCCOCO13AG00000200000000001236515000000000000001000000000000000000000000001997Z01620200416X066000000
2MAIL0000153630BR10        BRNC        BRNCCOCO    BRNCCOCO13AG00000300000000001239688800000000000001400000000000000000000000005582Z01620200416X066000000
2MAIL0000153630BR10        BRNC        BRNCCOCO    BRNCCOCO13AG00000400000000001241577400000000000001000000000000000000000000009122Z01620200416X066000000
2MAIL0000153630BR10        BRNC        BRNCCOCO    BRNCCOCO13AG00000500000000001241623700000000000000100000000000000000000000002592Z01620200416X066000000
1MAIL0000153631BR10        BRNC        BRNCCOCO    BRNCCOCO13AG2020041600:00:00OR  010000007161140000716114153631                             2020041620200416Z016CIF202004160000000000041412NN0                                                  0                                        
2MAIL0000153631BR10        BRNC        BRNCCOCO    BRNCCOCO13AG00000100000000001132033100000000000000100000000000000000000000002291Z01620200416X066000000
2MAIL0000153631BR10        BRNC        BRNCCOCO    BRNCCOCO13AG00000200000000001132036700000000000000200000000000000000000000004581Z01620200416X066000000
2MAIL0000153631BR10        BRNC        BRNCCOCO    BRNCCOCO13AG00000300000000001132200400000000000000200000000000000000000000004460Z01620200416X066000000
2MAIL0000153631BR10        BRNC        BRNCCOCO    BRNCCOCO13AG00000400000000001215533700000000000000100000000000000000000000002291Z01620200416X066000000
2MAIL0000153631BR10        BRNC        BRNCCOCO    BRNCCOCO13AG00000500000000001226089600000000000001200000000000000000000000005045Z01620200416X066000000
2MAIL0000153631BR10        BRNC        BRNCCOCO    BRNCCOCO13AG00000600000000001236512900000000000001500000000000000000000000003006Z01620200416X066000000
2MAIL0000153631BR10        BRNC        BRNCCOCO    BRNCCOCO13AG00000700000000001236515000000000000001500000000000000000000000003006Z01620200416X066000000
2MAIL0000153631BR10        BRNC        BRNCCOCO    BRNCCOCO13AG00000800000000001239688800000000000001400000000000000000000000005885Z01620200416X066000000
2MAIL0000153631BR10        BRNC        BRNCCOCO    BRNCCOCO13AG00000900000000001239692100000000000001400000000000000000000000005885Z01620200416X066000000
2MAIL0000153631BR10        BRNC        BRNCCOCO    BRNCCOCO13AG00001000000000001241623700000000000000200000000000000000000000004962Z01620200416X066000000
1MAIL0000153632BR10        BRNC        BRNCCOCO    BRNCCOCO13AG2020041600:00:00OR  010000047741540004774154153632                             2020041620200416Z016CIF202004160000000000060008NN0                                                  0                                        
2MAIL0000153632BR10        BRNC        BRNCCOCO    BRNCCOCO13AG00000100000000001132019800000000000000100000000000000000000000002076Z01620200416X066000000
2MAIL0000153632BR10        BRNC        BRNCCOCO    BRNCCOCO13AG00000200000000001132036700000000000000200000000000000000000000004581Z01620200416X066000000
2MAIL0000153632BR10        BRNC        BRNCCOCO    BRNCCOCO13AG00000300000000001226089600000000000001200000000000000000000000005045Z01620200416X066000000
2MAIL0000153632BR10        BRNC        BRNCCOCO    BRNCCOCO13AG00000400000000001228512700000000000000100000000000000000000000005568Z01620200416X066000000
2MAIL0000153632BR10        BRNC        BRNCCOCO    BRNCCOCO13AG00000500000000001231189200000000000000100000000000000000000000005568Z01620200416X066000000
2MAIL0000153632BR10        BRNC        BRNCCOCO    BRNCCOCO13AG00000600000000001231231200000000000000100000000000000000000000005568Z01620200416X066000000
2MAIL0000153632BR10        BRNC        BRNCCOCO    BRNCCOCO13AG00000700000000001234705700000000000000100000000000000000000000005568Z01620200416X066000000
2MAIL0000153632BR10        BRNC        BRNCCOCO    BRNCCOCO13AG00000800000000001234705800000000000000100000000000000000000000005568Z01620200416X066000000
2MAIL0000153632BR10        BRNC        BRNCCOCO    BRNCCOCO13AG00000900000000001235699400000000000001000000000000000000000000004211Z01620200416X066000000
2MAIL0000153632BR10        BRNC        BRNCCOCO    BRNCCOCO13AG00001000000000001236512900000000000000500000000000000000000000001002Z01620200416X066000000
2MAIL0000153632BR10        BRNC        BRNCCOCO    BRNCCOCO13AG00001100000000001236515000000000000000500000000000000000000000001002Z01620200416X066000000
2MAIL0000153632BR10        BRNC        BRNCCOCO    BRNCCOCO13AG00001200000000001239688600000000000001400000000000000000000000005885Z01620200416X066000000
2MAIL0000153632BR10        BRNC        BRNCCOCO    BRNCCOCO13AG00001300000000001239688800000000000001400000000000000000000000005885Z01620200416X066000000
2MAIL0000153632BR10        BRNC        BRNCCOCO    BRNCCOCO13AG00001400000000001241623700000000000000100000000000000000000000002481Z01620200416X066000000
1MAIL0000153633BR10        BRNC        BRNCCOCO    BRNCCOCO13AG2020041600:00:00OR  010000060284030006028403153633                             2020041620200416Z016CIF202004160000000000047877NN0                                                  0                                        
2MAIL0000153633BR10        BRNC        BRNCCOCO    BRNCCOCO13AG00000100000000001132019800000000000000100000000000000000000000002076Z01620200416X066000000
2MAIL0000153633BR10        BRNC        BRNCCOCO    BRNCCOCO13AG00000200000000001132019900000000000000100000000000000000000000002076Z01620200416X066000000
2MAIL0000153633BR10        BRNC        BRNCCOCO    BRNCCOCO13AG00000300000000001132033100000000000000200000000000000000000000004581Z01620200416X066000000
2MAIL0000153633BR10        BRNC        BRNCCOCO    BRNCCOCO13AG00000400000000001132036700000000000000200000000000000000000000004581Z01620200416X066000000
2MAIL0000153633BR10        BRNC        BRNCCOCO    BRNCCOCO13AG00000500000000001132200400000000000000100000000000000000000000002230Z01620200416X066000000
2MAIL0000153633BR10        BRNC        BRNCCOCO    BRNCCOCO13AG00000600000000001226089600000000000001200000000000000000000000005045Z01620200416X066000000
2MAIL0000153633BR10        BRNC        BRNCCOCO    BRNCCOCO13AG00000700000000001231189200000000000000100000000000000000000000005568Z01620200416X066000000
2MAIL0000153633BR10        BRNC        BRNCCOCO    BRNCCOCO13AG00000800000000001231231200000000000000100000000000000000000000005568Z01620200416X066000000
2MAIL0000153633BR10        BRNC        BRNCCOCO    BRNCCOCO13AG00000900000000001236512900000000000000500000000000000000000000001002Z01620200416X066000000
2MAIL0000153633BR10        BRNC        BRNCCOCO    BRNCCOCO13AG00001000000000001236515000000000000000500000000000000000000000001002Z01620200416X066000000
2MAIL0000153633BR10        BRNC        BRNCCOCO    BRNCCOCO13AG00001100000000001239688600000000000001400000000000000000000000005885Z01620200416X066000000
2MAIL0000153633BR10        BRNC        BRNCCOCO    BRNCCOCO13AG00001200000000001239688800000000000001400000000000000000000000005885Z01620200416X066000000
2MAIL0000153633BR10        BRNC        BRNCCOCO    BRNCCOCO13AG00001300000000001241623700000000000000100000000000000000000000002378Z01620200416X066000000
1MAIL0000153634BR10        BRNC        BRNCCOCO    BRNCCOCO13AG2020041600:00:00OR  010000028997880002899788153634                             2020041620200416Z016CIF202004160000000000110453NN0                                                  0                                        
2MAIL0000153634BR10        BRNC        BRNCCOCO    BRNCCOCO13AG00000100000000001132019800000000000000100000000000000000000000001967Z01620200416X066000000
2MAIL0000153634BR10        BRNC        BRNCCOCO    BRNCCOCO13AG00000200000000001132033100000000000000400000000000000000000000008692Z01620200416X066000000
2MAIL0000153634BR10        BRNC        BRNCCOCO    BRNCCOCO13AG00000300000000001132036700000000000000400000000000000000000000008692Z01620200416X066000000
2MAIL0000153634BR10        BRNC        BRNCCOCO    BRNCCOCO13AG00000400000000001132400100000000000000100000000000000000000000003003Z01620200416X066000000
2MAIL0000153634BR10        BRNC        BRNCCOCO    BRNCCOCO13AG00000500000000001223975300000000000000100000000000000000000000005076Z01620200416X066000000
2MAIL0000153634BR10        BRNC        BRNCCOCO    BRNCCOCO13AG00000600000000001226089600000000000001200000000000000000000000004580Z01620200416X066000000
2MAIL0000153634BR10        BRNC        BRNCCOCO    BRNCCOCO13AG00000700000000001228512700000000000000100000000000000000000000005076Z01620200416X066000000
2MAIL0000153634BR10        BRNC        BRNCCOCO    BRNCCOCO13AG00000800000000001231189200000000000000100000000000000000000000005076Z01620200416X066000000
2MAIL0000153634BR10        BRNC        BRNCCOCO    BRNCCOCO13AG00000900000000001231231200000000000000100000000000000000000000005076Z01620200416X066000000
2MAIL0000153634BR10        BRNC        BRNCCOCO    BRNCCOCO13AG00001000000000001231233000000000000000100000000000000000000000005076Z01620200416X066000000
2MAIL0000153634BR10        BRNC        BRNCCOCO    BRNCCOCO13AG00001100000000001234705700000000000000100000000000000000000000005076Z01620200416X066000000
2MAIL0000153634BR10        BRNC        BRNCCOCO    BRNCCOCO13AG00001200000000001235699400000000000001000000000000000000000000003825Z01620200416X066000000
2MAIL0000153634BR10        BRNC        BRNCCOCO    BRNCCOCO13AG00001300000000001236512800000000000000800000000000000000000000001380Z01620200416X066000000
2MAIL0000153634BR10        BRNC        BRNCCOCO    BRNCCOCO13AG00001400000000001236512900000000000001500000000000000000000000002727Z01620200416X066000000
2MAIL0000153634BR10        BRNC        BRNCCOCO    BRNCCOCO13AG00001500000000001236515000000000000001500000000000000000000000002727Z01620200416X066000000
2MAIL0000153634BR10        BRNC        BRNCCOCO    BRNCCOCO13AG00001600000000001239688300000000000001400000000000000000000000005343Z01620200416X066000000
2MAIL0000153634BR10        BRNC        BRNCCOCO    BRNCCOCO13AG00001700000000001239688600000000000001400000000000000000000000005343Z01620200416X066000000
2MAIL0000153634BR10        BRNC        BRNCCOCO    BRNCCOCO13AG00001800000000001239688800000000000001400000000000000000000000005343Z01620200416X066000000
2MAIL0000153634BR10        BRNC        BRNCCOCO    BRNCCOCO13AG00001900000000001239692100000000000001400000000000000000000000005343Z01620200416X066000000
2MAIL0000153634BR10        BRNC        BRNCCOCO    BRNCCOCO13AG00002000000000001239692300000000000001400000000000000000000000005343Z01620200416X066000000
2MAIL0000153634BR10        BRNC        BRNCCOCO    BRNCCOCO13AG00002100000000001241623700000000000000400000000000000000000000010346Z01620200416X066000000
2MAIL0000153634BR10        BRNC        BRNCCOCO    BRNCCOCO13AG00002200000000001242754900000000000001400000000000000000000000005343Z01620200416X066000000
1MAIL0000153635BR10        BRNC        BRNCCOCO    BRNCCOCO13AG2020041600:00:00OR  010000029822050002982205153635                             2020041620200416Z016CIF202004160000000000082171NN0                                                  0                                        
2MAIL0000153635BR10        BRNC        BRNCCOCO    BRNCCOCO13AG00000100000000001132019800000000000000100000000000000000000000001967Z01620200416X066000000
2MAIL0000153635BR10        BRNC        BRNCCOCO    BRNCCOCO13AG00000200000000001132033100000000000000400000000000000000000000008692Z01620200416X066000000
2MAIL0000153635BR10        BRNC        BRNCCOCO    BRNCCOCO13AG00000300000000001132036700000000000000400000000000000000000000008692Z01620200416X066000000
2MAIL0000153635BR10        BRNC        BRNCCOCO    BRNCCOCO13AG00000400000000001132200400000000000000100000000000000000000000002115Z01620200416X066000000
2MAIL0000153635BR10        BRNC        BRNCCOCO    BRNCCOCO13AG00000500000000001223975300000000000000100000000000000000000000005280Z01620200416X066000000
2MAIL0000153635BR10        BRNC        BRNCCOCO    BRNCCOCO13AG00000600000000001226089600000000000001200000000000000000000000004784Z01620200416X066000000
2MAIL0000153635BR10        BRNC        BRNCCOCO    BRNCCOCO13AG00000700000000001228512700000000000000100000000000000000000000005280Z01620200416X066000000
2MAIL0000153635BR10        BRNC        BRNCCOCO    BRNCCOCO13AG00000800000000001231189200000000000000100000000000000000000000005280Z01620200416X066000000
2MAIL0000153635BR10        BRNC        BRNCCOCO    BRNCCOCO13AG00000900000000001231231200000000000000100000000000000000000000005280Z01620200416X066000000
2MAIL0000153635BR10        BRNC        BRNCCOCO    BRNCCOCO13AG00001000000000001234705700000000000000100000000000000000000000005280Z01620200416X066000000
2MAIL0000153635BR10        BRNC        BRNCCOCO    BRNCCOCO13AG00001100000000001235699400000000000001000000000000000000000000003995Z01620200416X066000000
2MAIL0000153635BR10        BRNC        BRNCCOCO    BRNCCOCO13AG00001200000000001236512900000000000001000000000000000000000000001997Z01620200416X066000000
2MAIL0000153635BR10        BRNC        BRNCCOCO    BRNCCOCO13AG00001300000000001236515000000000000001000000000000000000000000001997Z01620200416X066000000
2MAIL0000153635BR10        BRNC        BRNCCOCO    BRNCCOCO13AG00001400000000001239688600000000000001400000000000000000000000005582Z01620200416X066000000
2MAIL0000153635BR10        BRNC        BRNCCOCO    BRNCCOCO13AG00001500000000001239688800000000000001400000000000000000000000005582Z01620200416X066000000
2MAIL0000153635BR10        BRNC        BRNCCOCO    BRNCCOCO13AG00001600000000001241623700000000000000400000000000000000000000010368Z01620200416X066000000
1MAIL0000153636BR10        BRNC        BRNCCOCO    BRNCCOCO13AG2020041600:00:00OR  010000029006590002900659153636                             2020041620200416Z016CIF202004160000000000056888NN0                                                  0                                        
2MAIL0000153636BR10        BRNC        BRNCCOCO    BRNCCOCO13AG00000100000000001132018300000000000000100000000000000000000000003541Z01620200416X066000000
2MAIL0000153636BR10        BRNC        BRNCCOCO    BRNCCOCO13AG00000200000000001132036700000000000000600000000000000000000000013036Z01620200416X066000000
2MAIL0000153636BR10        BRNC        BRNCCOCO    BRNCCOCO13AG00000300000000001132200400000000000000200000000000000000000000004230Z01620200416X066000000
2MAIL0000153636BR10        BRNC        BRNCCOCO    BRNCCOCO13AG00000400000000001215533700000000000000600000000000000000000000013036Z01620200416X066000000
2MAIL0000153636BR10        BRNC        BRNCCOCO    BRNCCOCO13AG00000500000000001221415400000000000000100000000000000000000000003541Z01620200416X066000000
2MAIL0000153636BR10        BRNC        BRNCCOCO    BRNCCOCO13AG00000600000000001231389600000000000000200000000000000000000000004345Z01620200416X066000000
2MAIL0000153636BR10        BRNC        BRNCCOCO    BRNCCOCO13AG00000700000000001235699400000000000001000000000000000000000000003995Z01620200416X066000000
2MAIL0000153636BR10        BRNC        BRNCCOCO    BRNCCOCO13AG00000800000000001239688800000000000001400000000000000000000000005582Z01620200416X066000000
2MAIL0000153636BR10        BRNC        BRNCCOCO    BRNCCOCO13AG00000900000000001239692300000000000001400000000000000000000000005582Z01620200416X066000000
1MAIL0000153637BR10        BRNC        BRNCCOCO    BRNCCOCO13AG2020041600:00:00OR  010000050978290005097829153637                             2020041620200416Z016CIF202004160000000000010863NN0                                                  0                                        
2MAIL0000153637BR10        BRNC        BRNCCOCO    BRNCCOCO13AG00000100000000001132036700000000000000500000000000000000000000010863Z01620200416X066000000
1MAIL0000153638BR10        BRNC        BRNCCOCO    BRNCCOCO13AG2020041600:00:00OR  010000056396030005639603153638                             2020041620200416Z016CIF202004160000000000120479NN0                                                  0                                        
2MAIL0000153638BR10        BRNC        BRNCCOCO    BRNCCOCO13AG00000100000000001132019800000000000000100000000000000000000000002076Z01620200416X066000000
2MAIL0000153638BR10        BRNC        BRNCCOCO    BRNCCOCO13AG00000200000000001132033100000000000001000000000000000000000000022909Z01620200416X066000000
2MAIL0000153638BR10        BRNC        BRNCCOCO    BRNCCOCO13AG00000300000000001132036700000000000001000000000000000000000000022909Z01620200416X066000000
2MAIL0000153638BR10        BRNC        BRNCCOCO    BRNCCOCO13AG00000400000000001215533700000000000000400000000000000000000000009163Z01620200416X066000000
2MAIL0000153638BR10        BRNC        BRNCCOCO    BRNCCOCO13AG00000500000000001223975300000000000000100000000000000000000000005568Z01620200416X066000000
2MAIL0000153638BR10        BRNC        BRNCCOCO    BRNCCOCO13AG00000600000000001227395500000000000000400000000000000000000000009163Z01620200416X066000000
2MAIL0000153638BR10        BRNC        BRNCCOCO    BRNCCOCO13AG00000700000000001228512700000000000000100000000000000000000000005568Z01620200416X066000000
2MAIL0000153638BR10        BRNC        BRNCCOCO    BRNCCOCO13AG00000800000000001231189200000000000000100000000000000000000000005568Z01620200416X066000000
2MAIL0000153638BR10        BRNC        BRNCCOCO    BRNCCOCO13AG00000900000000001231231200000000000000100000000000000000000000005568Z01620200416X066000000
2MAIL0000153638BR10        BRNC        BRNCCOCO    BRNCCOCO13AG00001000000000001231233000000000000000100000000000000000000000005568Z01620200416X066000000
2MAIL0000153638BR10        BRNC        BRNCCOCO    BRNCCOCO13AG00001100000000001234705700000000000000100000000000000000000000005568Z01620200416X066000000
2MAIL0000153638BR10        BRNC        BRNCCOCO    BRNCCOCO13AG00001200000000001236512900000000000001000000000000000000000000002004Z01620200416X066000000
2MAIL0000153638BR10        BRNC        BRNCCOCO    BRNCCOCO13AG00001300000000001236515000000000000001000000000000000000000000002004Z01620200416X066000000
2MAIL0000153638BR10        BRNC        BRNCCOCO    BRNCCOCO13AG00001400000000001238083600000000000000100000000000000000000000006919Z01620200416X066000000
2MAIL0000153638BR10        BRNC        BRNCCOCO    BRNCCOCO13AG00001500000000001241623700000000000000400000000000000000000000009924Z01620200416X066000000
1MAIL0000153639BR10        BRNC        BRNCCOCO    BRNCCOCO13AG2020041600:00:00OR  010000034667560003466756153639                             2020041620200416Z016CIF202004160000000000010533NN0                                                  0                                        
2MAIL0000153639BR10        BRNC        BRNCCOCO    BRNCCOCO13AG00000100000000001132036700000000000000100000000000000000000000002291Z01620200416X066000000
2MAIL0000153639BR10        BRNC        BRNCCOCO    BRNCCOCO13AG00000200000000001132200400000000000000100000000000000000000000002230Z01620200416X066000000
2MAIL0000153639BR10        BRNC        BRNCCOCO    BRNCCOCO13AG00000300000000001236512900000000000001000000000000000000000000002004Z01620200416X066000000
2MAIL0000153639BR10        BRNC        BRNCCOCO    BRNCCOCO13AG00000400000000001236515000000000000002000000000000000000000000004008Z01620200416X066000000
1MAIL0000153640BR10        BRNC        BRNCCOCO    BRNCCOCO13AG2020041600:00:00OR  010000049378440004937844153640                             2020041620200416Z016CIF202004160000000000024721NN0                                                  0                                        
2MAIL0000153640BR10        BRNC        BRNCCOCO    BRNCCOCO13AG00000100000000001132036700000000000000400000000000000000000000008692Z01620200416X066000000
2MAIL0000153640BR10        BRNC        BRNCCOCO    BRNCCOCO13AG00000200000000001239688800000000000002800000000000000000000000010686Z01620200416X066000000
2MAIL0000153640BR10        BRNC        BRNCCOCO    BRNCCOCO13AG00000300000000001239692100000000000001400000000000000000000000005343Z01620200416X066000000
1MAIL0000153641BR10        BRNC        BRNCCOCO    BRNCCOCO13AG2020041600:00:00OR  010000010385730001038573153641                             2020041620200416Z016CIF202004160000000000054885NN0                                                  0                                        
2MAIL0000153641BR10        BRNC        BRNCCOCO    BRNCCOCO13AG00000100000000001132036700000000000000100000000000000000000000002173Z01620200416X066000000
2MAIL0000153641BR10        BRNC        BRNCCOCO    BRNCCOCO13AG00000200000000001239688500000000000002800000000000000000000000010686Z01620200416X066000000
2MAIL0000153641BR10        BRNC        BRNCCOCO    BRNCCOCO13AG00000300000000001239688800000000000002800000000000000000000000010686Z01620200416X066000000
2MAIL0000153641BR10        BRNC        BRNCCOCO    BRNCCOCO13AG00000400000000001239692100000000000001400000000000000000000000005343Z01620200416X066000000
2MAIL0000153641BR10        BRNC        BRNCCOCO    BRNCCOCO13AG00000500000000001241577400000000000003000000000000000000000000025997Z01620200416X066000000
1MAIL0000153642BR10        BRNC        BRNCCOCO    BRNCCOCO13AG2020041600:00:00OR  010000054557140005455714153642                             2020041620200416Z016CIF202004160000000000053930NN0                                                  0                                        
2MAIL0000153642BR10        BRNC        BRNCCOCO    BRNCCOCO13AG00000100000000001132019800000000000000100000000000000000000000002076Z01620200416X066000000
2MAIL0000153642BR10        BRNC        BRNCCOCO    BRNCCOCO13AG00000200000000001132033100000000000000200000000000000000000000004581Z01620200416X066000000
2MAIL0000153642BR10        BRNC        BRNCCOCO    BRNCCOCO13AG00000300000000001132036700000000000000200000000000000000000000004581Z01620200416X066000000
2MAIL0000153642BR10        BRNC        BRNCCOCO    BRNCCOCO13AG00000400000000001226089600000000000001200000000000000000000000005045Z01620200416X066000000
2MAIL0000153642BR10        BRNC        BRNCCOCO    BRNCCOCO13AG00000500000000001228512700000000000000100000000000000000000000005568Z01620200416X066000000
2MAIL0000153642BR10        BRNC        BRNCCOCO    BRNCCOCO13AG00000600000000001231189200000000000000100000000000000000000000005568Z01620200416X066000000
2MAIL0000153642BR10        BRNC        BRNCCOCO    BRNCCOCO13AG00000700000000001234705700000000000000100000000000000000000000005568Z01620200416X066000000
2MAIL0000153642BR10        BRNC        BRNCCOCO    BRNCCOCO13AG00000800000000001235699400000000000001000000000000000000000000004211Z01620200416X066000000
2MAIL0000153642BR10        BRNC        BRNCCOCO    BRNCCOCO13AG00000900000000001239688600000000000001400000000000000000000000005885Z01620200416X066000000
2MAIL0000153642BR10        BRNC        BRNCCOCO    BRNCCOCO13AG00001000000000001239688800000000000001400000000000000000000000005885Z01620200416X066000000
2MAIL0000153642BR10        BRNC        BRNCCOCO    BRNCCOCO13AG00001100000000001241623700000000000000200000000000000000000000004962Z01620200416X066000000
1MAIL0000153647BR10        BRNC        BRNCCOCO    BRNCCOCO13AG2020041600:00:00OR  010000048443630004844363153647                             2020041620200416Z016CIF202004160000000000012757NN0                                                  0                                        
2MAIL0000153647BR10        BRNC        BRNCCOCO    BRNCCOCO13AG00000100000000001132036700000000000000300000000000000000000000006872Z01620200416X066000000
2MAIL0000153647BR10        BRNC        BRNCCOCO    BRNCCOCO13AG00000200000000001239688800000000000001400000000000000000000000005885Z01620200416X066000000
1MAIL0000153648BR10        BRNC        BRNCCOCO    BRNCCOCO13AG2020041600:00:00OR  010000038915820003891582153648                             2020041620200416Z016CIF202004160000000000054715NN0                                                  0                                        
2MAIL0000153648BR10        BRNC        BRNCCOCO    BRNCCOCO13AG00000100000000001132019700000000000000100000000000000000000000002076Z01620200416X066000000
2MAIL0000153648BR10        BRNC        BRNCCOCO    BRNCCOCO13AG00000200000000001132019800000000000000100000000000000000000000002076Z01620200416X066000000
2MAIL0000153648BR10        BRNC        BRNCCOCO    BRNCCOCO13AG00000300000000001132020900000000000000100000000000000000000000002076Z01620200416X066000000
2MAIL0000153648BR10        BRNC        BRNCCOCO    BRNCCOCO13AG00000400000000001132033100000000000000200000000000000000000000004581Z01620200416X066000000
2MAIL0000153648BR10        BRNC        BRNCCOCO    BRNCCOCO13AG00000500000000001132036700000000000000300000000000000000000000006872Z01620200416X066000000
2MAIL0000153648BR10        BRNC        BRNCCOCO    BRNCCOCO13AG00000600000000001132200400000000000000300000000000000000000000006690Z01620200416X066000000
2MAIL0000153648BR10        BRNC        BRNCCOCO    BRNCCOCO13AG00000700000000001226089600000000000001200000000000000000000000005045Z01620200416X066000000
2MAIL0000153648BR10        BRNC        BRNCCOCO    BRNCCOCO13AG00000800000000001227735000000000000000100000000000000000000000002076Z01620200416X066000000
2MAIL0000153648BR10        BRNC        BRNCCOCO    BRNCCOCO13AG00000900000000001231231200000000000000100000000000000000000000005568Z01620200416X066000000
2MAIL0000153648BR10        BRNC        BRNCCOCO    BRNCCOCO13AG00001000000000001239688600000000000001400000000000000000000000005885Z01620200416X066000000
2MAIL0000153648BR10        BRNC        BRNCCOCO    BRNCCOCO13AG00001100000000001239688700000000000001400000000000000000000000005885Z01620200416X066000000
2MAIL0000153648BR10        BRNC        BRNCCOCO    BRNCCOCO13AG00001200000000001239688800000000000001400000000000000000000000005885Z01620200416X066000000
1MAIL0000153649BR10        BRNC        BRNCCOCO    BRNCCOCO13AG2020041600:00:00OR  010000028992780002899278153649                             2020041620200416Z016CIF202004160000000000012960NN0                                                  0                                        
2MAIL0000153649BR10        BRNC        BRNCCOCO    BRNCCOCO13AG00000100000000001241623700000000000000500000000000000000000000012960Z01620200416X066000000
1MAIL0000153650BR10        BRNC        BRNCCOCO    BRNCCOCO13AG2020041600:00:00OR  010000049798520004979852153650                             2020041620200416Z016CIF202004160000000000010575NN0                                                  0                                        
2MAIL0000153650BR10        BRNC        BRNCCOCO    BRNCCOCO13AG00000100000000001132200400000000000000500000000000000000000000010575Z01620200416X066000000
