1MAIL0000152862BR10        BRNC        BRNCCOCO    BRNCCOCO13AG2020040900:00:00OR  010000056389510005638951152862                             2020040920200409Z016CIF202004090000000000057850NN0                                                  0                                        
2MAIL0000152862BR10        BRNC        BRNCCOCO    BRNCCOCO13AG00000100000000001132200400000000000000100000000000000000000000002115Z01620200409X066000000
2MAIL0000152862BR10        BRNC        BRNCCOCO    BRNCCOCO13AG00000200000000001231189200000000000000100000000000000000000000005280Z01620200409X066000000
2MAIL0000152862BR10        BRNC        BRNCCOCO    BRNCCOCO13AG00000300000000001234705700000000000000100000000000000000000000005280Z01620200409X066000000
2MAIL0000152862BR10        BRNC        BRNCCOCO    BRNCCOCO13AG00000400000000001235699400000000000001000000000000000000000000003995Z01620200409X066000000
2MAIL0000152862BR10        BRNC        BRNCCOCO    BRNCCOCO13AG00000500000000001235699700000000000001000000000000000000000000003995Z01620200409X066000000
2MAIL0000152862BR10        BRNC        BRNCCOCO    BRNCCOCO13AG00000600000000001235699800000000000001000000000000000000000000003995Z01620200409X066000000
2MAIL0000152862BR10        BRNC        BRNCCOCO    BRNCCOCO13AG00000700000000001238083500000000000000100000000000000000000000005280Z01620200409X066000000
2MAIL0000152862BR10        BRNC        BRNCCOCO    BRNCCOCO13AG00000800000000001239688300000000000001400000000000000000000000005582Z01620200409X066000000
2MAIL0000152862BR10        BRNC        BRNCCOCO    BRNCCOCO13AG00000900000000001239688600000000000001400000000000000000000000005582Z01620200409X066000000
2MAIL0000152862BR10        BRNC        BRNCCOCO    BRNCCOCO13AG00001000000000001239688700000000000001400000000000000000000000005582Z01620200409X066000000
2MAIL0000152862BR10        BRNC        BRNCCOCO    BRNCCOCO13AG00001100000000001239688800000000000001400000000000000000000000005582Z01620200409X066000000
2MAIL0000152862BR10        BRNC        BRNCCOCO    BRNCCOCO13AG00001200000000001239692300000000000001400000000000000000000000005582Z01620200409X066000000
1MAIL0000152868BR10        BRNC        BRNCCOCO    BRNCCOCO13AG2020041000:00:00OR  010000061299360006129936152868                             2020041020200410Z079CIF202004100000000000054104NN0                                                  0                                        
2MAIL0000152868BR10        BRNC        BRNCCOCO    BRNCCOCO13AG00000100000000001132033100000000000000300000000000000000000000006535Z07920200410X066000000
2MAIL0000152868BR10        BRNC        BRNCCOCO    BRNCCOCO13AG00000200000000001132036700000000000000300000000000000000000000006535Z07920200410X066000000
2MAIL0000152868BR10        BRNC        BRNCCOCO    BRNCCOCO13AG00000300000000001215533700000000000000300000000000000000000000006535Z07920200410X066000000
2MAIL0000152868BR10        BRNC        BRNCCOCO    BRNCCOCO13AG00000400000000001236512900000000000007000000000000000000000000013982Z07920200410X066000000
2MAIL0000152868BR10        BRNC        BRNCCOCO    BRNCCOCO13AG00000500000000001236515000000000000007000000000000000000000000013982Z07920200410X066000000
2MAIL0000152868BR10        BRNC        BRNCCOCO    BRNCCOCO13AG00000600000000001236898000000000000000300000000000000000000000006535Z07920200410X066000000
1MAIL0000152869BR10        BRNC        BRNCCOCO    BRNCCOCO13AG2020041000:00:00OR  010000051567420005156742152869                             2020041020200410Z016CIF202004100000000000023034NN0                                                  0                                        
2MAIL0000152869BR10        BRNC        BRNCCOCO    BRNCCOCO13AG00000100000000001132036700000000000000200000000000000000000000004581Z01620200410X066000000
2MAIL0000152869BR10        BRNC        BRNCCOCO    BRNCCOCO13AG00000200000000001226089600000000000001200000000000000000000000005045Z01620200410X066000000
2MAIL0000152869BR10        BRNC        BRNCCOCO    BRNCCOCO13AG00000300000000001236512900000000000001000000000000000000000000002004Z01620200410X066000000
2MAIL0000152869BR10        BRNC        BRNCCOCO    BRNCCOCO13AG00000400000000001236515000000000000001000000000000000000000000002004Z01620200410X066000000
2MAIL0000152869BR10        BRNC        BRNCCOCO    BRNCCOCO13AG00000500000000001238083600000000000000100000000000000000000000006919Z01620200410X066000000
2MAIL0000152869BR10        BRNC        BRNCCOCO    BRNCCOCO13AG00000600000000001241623700000000000000100000000000000000000000002481Z01620200410X066000000
1MAIL0000152870BR10        BRNC        BRNCCOCO    BRNCCOCO13AG2020041000:00:00OR  010000029497940002949794152870                             2020041020200410Z079CIF202004100000000000061027NN0                                                  0                                        
2MAIL0000152870BR10        BRNC        BRNCCOCO    BRNCCOCO13AG00000100000000001132018300000000000000100000000000000000000000003549Z07920200410X066000000
2MAIL0000152870BR10        BRNC        BRNCCOCO    BRNCCOCO13AG00000200000000001132033100000000000000200000000000000000000000004357Z07920200410X066000000
2MAIL0000152870BR10        BRNC        BRNCCOCO    BRNCCOCO13AG00000300000000001132036700000000000000200000000000000000000000004357Z07920200410X066000000
2MAIL0000152870BR10        BRNC        BRNCCOCO    BRNCCOCO13AG00000400000000001215533700000000000000200000000000000000000000004357Z07920200410X066000000
2MAIL0000152870BR10        BRNC        BRNCCOCO    BRNCCOCO13AG00000500000000001226089600000000000001200000000000000000000000004793Z07920200410X066000000
2MAIL0000152870BR10        BRNC        BRNCCOCO    BRNCCOCO13AG00000600000000001228512700000000000000100000000000000000000000005293Z07920200410X066000000
2MAIL0000152870BR10        BRNC        BRNCCOCO    BRNCCOCO13AG00000700000000001234705900000000000000100000000000000000000000005293Z07920200410X066000000
2MAIL0000152870BR10        BRNC        BRNCCOCO    BRNCCOCO13AG00000800000000001236898000000000000000200000000000000000000000004357Z07920200410X066000000
2MAIL0000152870BR10        BRNC        BRNCCOCO    BRNCCOCO13AG00000900000000001239688600000000000001400000000000000000000000005593Z07920200410X066000000
2MAIL0000152870BR10        BRNC        BRNCCOCO    BRNCCOCO13AG00001000000000001239688700000000000001400000000000000000000000005593Z07920200410X066000000
2MAIL0000152870BR10        BRNC        BRNCCOCO    BRNCCOCO13AG00001100000000001239688800000000000001400000000000000000000000005593Z07920200410X066000000
2MAIL0000152870BR10        BRNC        BRNCCOCO    BRNCCOCO13AG00001200000000001241623700000000000000100000000000000000000000002599Z07920200410X066000000
2MAIL0000152870BR10        BRNC        BRNCCOCO    BRNCCOCO13AG00001300000000001242374800000000000000100000000000000000000000005293Z07920200410X066000000
1MAIL0000152871BR10        BRNC        BRNCCOCO    BRNCCOCO13AG2020041000:00:00OR  010000040274250004027425152871                             2020041020200410Z016CIF202004100000000000045118NN0                                                  0                                        
2MAIL0000152871BR10        BRNC        BRNCCOCO    BRNCCOCO13AG00000100000000001132033100000000000000500000000000000000000000011202Z01620200410X066000000
2MAIL0000152871BR10        BRNC        BRNCCOCO    BRNCCOCO13AG00000200000000001132036700000000000000500000000000000000000000011202Z01620200410X066000000
2MAIL0000152871BR10        BRNC        BRNCCOCO    BRNCCOCO13AG00000300000000001215533700000000000000500000000000000000000000011202Z01620200410X066000000
2MAIL0000152871BR10        BRNC        BRNCCOCO    BRNCCOCO13AG00000400000000001239688700000000000001400000000000000000000000005756Z01620200410X066000000
2MAIL0000152871BR10        BRNC        BRNCCOCO    BRNCCOCO13AG00000500000000001239688800000000000001400000000000000000000000005756Z01620200410X066000000
1MAIL0000152872BR10        BRNC        BRNCCOCO    BRNCCOCO13AG2020041000:00:00OR  010000042490640004249064152872                             2020041020200410Z016CIF202004100000000000110360NN0                                                  0                                        
2MAIL0000152872BR10        BRNC        BRNCCOCO    BRNCCOCO13AG00000100000000001132018300000000000000100000000000000000000000003735Z01620200410X066000000
2MAIL0000152872BR10        BRNC        BRNCCOCO    BRNCCOCO13AG00000200000000001132019800000000000000100000000000000000000000002076Z01620200410X066000000
2MAIL0000152872BR10        BRNC        BRNCCOCO    BRNCCOCO13AG00000300000000001132019900000000000000100000000000000000000000002076Z01620200410X066000000
2MAIL0000152872BR10        BRNC        BRNCCOCO    BRNCCOCO13AG00000400000000001132036700000000000000300000000000000000000000006872Z01620200410X066000000
2MAIL0000152872BR10        BRNC        BRNCCOCO    BRNCCOCO13AG00000500000000001132200400000000000000100000000000000000000000002230Z01620200410X066000000
2MAIL0000152872BR10        BRNC        BRNCCOCO    BRNCCOCO13AG00000600000000001215533700000000000000100000000000000000000000002291Z01620200410X066000000
2MAIL0000152872BR10        BRNC        BRNCCOCO    BRNCCOCO13AG00000700000000001221415400000000000000100000000000000000000000003735Z01620200410X066000000
2MAIL0000152872BR10        BRNC        BRNCCOCO    BRNCCOCO13AG00000800000000001226089600000000000001200000000000000000000000005045Z01620200410X066000000
2MAIL0000152872BR10        BRNC        BRNCCOCO    BRNCCOCO13AG00000900000000001228274000000000000000200000000000000000000000011134Z01620200410X066000000
2MAIL0000152872BR10        BRNC        BRNCCOCO    BRNCCOCO13AG00001000000000001231189200000000000000100000000000000000000000005568Z01620200410X066000000
2MAIL0000152872BR10        BRNC        BRNCCOCO    BRNCCOCO13AG00001100000000001235699400000000000001000000000000000000000000004211Z01620200410X066000000
2MAIL0000152872BR10        BRNC        BRNCCOCO    BRNCCOCO13AG00001200000000001235699700000000000001000000000000000000000000004211Z01620200410X066000000
2MAIL0000152872BR10        BRNC        BRNCCOCO    BRNCCOCO13AG00001300000000001235699800000000000001000000000000000000000000004211Z01620200410X066000000
2MAIL0000152872BR10        BRNC        BRNCCOCO    BRNCCOCO13AG00001400000000001239663300000000000001400000000000000000000000005885Z01620200410X066000000
2MAIL0000152872BR10        BRNC        BRNCCOCO    BRNCCOCO13AG00001500000000001239688300000000000001400000000000000000000000005885Z01620200410X066000000
2MAIL0000152872BR10        BRNC        BRNCCOCO    BRNCCOCO13AG00001600000000001239688500000000000001400000000000000000000000005885Z01620200410X066000000
2MAIL0000152872BR10        BRNC        BRNCCOCO    BRNCCOCO13AG00001700000000001239688600000000000001400000000000000000000000005885Z01620200410X066000000
2MAIL0000152872BR10        BRNC        BRNCCOCO    BRNCCOCO13AG00001800000000001239688700000000000001400000000000000000000000005885Z01620200410X066000000
2MAIL0000152872BR10        BRNC        BRNCCOCO    BRNCCOCO13AG00001900000000001239688800000000000001400000000000000000000000005885Z01620200410X066000000
2MAIL0000152872BR10        BRNC        BRNCCOCO    BRNCCOCO13AG00002000000000001239692000000000000001400000000000000000000000005885Z01620200410X066000000
2MAIL0000152872BR10        BRNC        BRNCCOCO    BRNCCOCO13AG00002100000000001239692100000000000001400000000000000000000000005885Z01620200410X066000000
2MAIL0000152872BR10        BRNC        BRNCCOCO    BRNCCOCO13AG00002200000000001239692300000000000001400000000000000000000000005885Z01620200410X066000000
