1MAIL0000151244BR10        BRNC        BRNCCOCO    BRNCCOCO13AG2020032700:00:00OR  010000029032370002903237151244                             2020032720200327Z016CIF202003270000000000154960NN0                                                  0                                        
2MAIL0000151244BR10        BRNC        BRNCCOCO    BRNCCOCO13AG00000100000000001132004200000000000000500000000000000000000000007806Z01620200327X066000000
2MAIL0000151244BR10        BRNC        BRNCCOCO    BRNCCOCO13AG00000200000000001132030800000000000000600000000000000000000000020687Z01620200327X066000000
2MAIL0000151244BR10        BRNC        BRNCCOCO    BRNCCOCO13AG00000300000000001132030900000000000000400000000000000000000000014229Z01620200327X066000000
2MAIL0000151244BR10        BRNC        BRNCCOCO    BRNCCOCO13AG00000400000000001132033900000000000000600000000000000000000000022693Z01620200327X066000000
2MAIL0000151244BR10        BRNC        BRNCCOCO    BRNCCOCO13AG00000500000000001132185100000000000000600000000000000000000000018902Z01620200327X066000000
2MAIL0000151244BR10        BRNC        BRNCCOCO    BRNCCOCO13AG00000600000000001226089600000000000001200000000000000000000000005045Z01620200327X066000000
2MAIL0000151244BR10        BRNC        BRNCCOCO    BRNCCOCO13AG00000700000000001235699400000000000001000000000000000000000000004211Z01620200327X066000000
2MAIL0000151244BR10        BRNC        BRNCCOCO    BRNCCOCO13AG00000800000000001235699700000000000001000000000000000000000000004211Z01620200327X066000000
2MAIL0000151244BR10        BRNC        BRNCCOCO    BRNCCOCO13AG00000900000000001235699800000000000001000000000000000000000000004211Z01620200327X066000000
2MAIL0000151244BR10        BRNC        BRNCCOCO    BRNCCOCO13AG00001000000000001239663300000000000001400000000000000000000000005885Z01620200327X066000000
2MAIL0000151244BR10        BRNC        BRNCCOCO    BRNCCOCO13AG00001100000000001239688300000000000001400000000000000000000000005885Z01620200327X066000000
2MAIL0000151244BR10        BRNC        BRNCCOCO    BRNCCOCO13AG00001200000000001239688500000000000001400000000000000000000000005885Z01620200327X066000000
2MAIL0000151244BR10        BRNC        BRNCCOCO    BRNCCOCO13AG00001300000000001239688600000000000001400000000000000000000000005885Z01620200327X066000000
2MAIL0000151244BR10        BRNC        BRNCCOCO    BRNCCOCO13AG00001400000000001239688700000000000001400000000000000000000000005885Z01620200327X066000000
2MAIL0000151244BR10        BRNC        BRNCCOCO    BRNCCOCO13AG00001500000000001239688800000000000001400000000000000000000000005885Z01620200327X066000000
2MAIL0000151244BR10        BRNC        BRNCCOCO    BRNCCOCO13AG00001600000000001239692000000000000001400000000000000000000000005885Z01620200327X066000000
2MAIL0000151244BR10        BRNC        BRNCCOCO    BRNCCOCO13AG00001700000000001239692100000000000001400000000000000000000000005885Z01620200327X066000000
2MAIL0000151244BR10        BRNC        BRNCCOCO    BRNCCOCO13AG00001800000000001239692300000000000001400000000000000000000000005885Z01620200327X066000000
