1MAIL0000151351BR10        BRNC        BRNCCOCO    BRNCCOCO13AG2020033000:00:00OR  010000054235640005423564151351                             2020033020200330Z016CIF202003300000000000009754NN0                                                  0                                        
2MAIL0000151351BR10        BRNC        BRNCCOCO    BRNCCOCO13AG00000100000000001132200400000000000000200000000000000000000000004460Z01620200330X066000000
2MAIL0000151351BR10        BRNC        BRNCCOCO    BRNCCOCO13AG00000200000000001236512800000000000001200000000000000000000000002288Z01620200330X066000000
2MAIL0000151351BR10        BRNC        BRNCCOCO    BRNCCOCO13AG00000300000000001236515000000000000001500000000000000000000000003006Z01620200330X066000000
1MAIL0000151352BR10        BRNC        BRNCCOCO    BRNCCOCO13AG2020033000:00:00OR  010000060965280006096528151352                             2020033020200330Z016CIF202003300000000000090207NN0                                                  0                                        
2MAIL0000151352BR10        BRNC        BRNCCOCO    BRNCCOCO13AG00000100000000001132018300000000000000100000000000000000000000003735Z01620200330X066000000
2MAIL0000151352BR10        BRNC        BRNCCOCO    BRNCCOCO13AG00000200000000001132019700000000000000100000000000000000000000002076Z01620200330X066000000
2MAIL0000151352BR10        BRNC        BRNCCOCO    BRNCCOCO13AG00000300000000001132020900000000000000100000000000000000000000002076Z01620200330X066000000
2MAIL0000151352BR10        BRNC        BRNCCOCO    BRNCCOCO13AG00000400000000001132033100000000000000200000000000000000000000004581Z01620200330X066000000
2MAIL0000151352BR10        BRNC        BRNCCOCO    BRNCCOCO13AG00000500000000001132036700000000000000100000000000000000000000002291Z01620200330X066000000
2MAIL0000151352BR10        BRNC        BRNCCOCO    BRNCCOCO13AG00000600000000001132200400000000000000200000000000000000000000004460Z01620200330X066000000
2MAIL0000151352BR10        BRNC        BRNCCOCO    BRNCCOCO13AG00000700000000001215533700000000000000100000000000000000000000002291Z01620200330X066000000
2MAIL0000151352BR10        BRNC        BRNCCOCO    BRNCCOCO13AG00000800000000001221415400000000000000100000000000000000000000003735Z01620200330X066000000
2MAIL0000151352BR10        BRNC        BRNCCOCO    BRNCCOCO13AG00000900000000001226089600000000000001200000000000000000000000005045Z01620200330X066000000
2MAIL0000151352BR10        BRNC        BRNCCOCO    BRNCCOCO13AG00001000000000001227395500000000000000100000000000000000000000002291Z01620200330X066000000
2MAIL0000151352BR10        BRNC        BRNCCOCO    BRNCCOCO13AG00001100000000001231389600000000000000100000000000000000000000002291Z01620200330X066000000
2MAIL0000151352BR10        BRNC        BRNCCOCO    BRNCCOCO13AG00001200000000001236515000000000000000500000000000000000000000001002Z01620200330X066000000
2MAIL0000151352BR10        BRNC        BRNCCOCO    BRNCCOCO13AG00001300000000001236898000000000000000100000000000000000000000002291Z01620200330X066000000
2MAIL0000151352BR10        BRNC        BRNCCOCO    BRNCCOCO13AG00001400000000001239663300000000000001400000000000000000000000005885Z01620200330X066000000
2MAIL0000151352BR10        BRNC        BRNCCOCO    BRNCCOCO13AG00001500000000001239688300000000000001400000000000000000000000005885Z01620200330X066000000
2MAIL0000151352BR10        BRNC        BRNCCOCO    BRNCCOCO13AG00001600000000001239688500000000000001400000000000000000000000005885Z01620200330X066000000
2MAIL0000151352BR10        BRNC        BRNCCOCO    BRNCCOCO13AG00001700000000001239688600000000000001400000000000000000000000005885Z01620200330X066000000
2MAIL0000151352BR10        BRNC        BRNCCOCO    BRNCCOCO13AG00001800000000001239688700000000000001400000000000000000000000005885Z01620200330X066000000
2MAIL0000151352BR10        BRNC        BRNCCOCO    BRNCCOCO13AG00001900000000001239688800000000000001400000000000000000000000005885Z01620200330X066000000
2MAIL0000151352BR10        BRNC        BRNCCOCO    BRNCCOCO13AG00002000000000001239692000000000000001400000000000000000000000005885Z01620200330X066000000
2MAIL0000151352BR10        BRNC        BRNCCOCO    BRNCCOCO13AG00002100000000001241623700000000000000200000000000000000000000004962Z01620200330X066000000
2MAIL0000151352BR10        BRNC        BRNCCOCO    BRNCCOCO13AG00002200000000001242754900000000000001400000000000000000000000005885Z01620200330X066000000
1MAIL0000151353BR10        BRNC        BRNCCOCO    BRNCCOCO13AG2020033000:00:00OR  010000039643460003964346151353                             2020033020200330Z016CIF202003300000000000025958NN0                                                  0                                        
2MAIL0000151353BR10        BRNC        BRNCCOCO    BRNCCOCO13AG00000100000000001132019900000000000000100000000000000000000000001967Z01620200330X066000000
2MAIL0000151353BR10        BRNC        BRNCCOCO    BRNCCOCO13AG00000200000000001132033100000000000000200000000000000000000000004345Z01620200330X066000000
2MAIL0000151353BR10        BRNC        BRNCCOCO    BRNCCOCO13AG00000300000000001132036700000000000000200000000000000000000000004345Z01620200330X066000000
2MAIL0000151353BR10        BRNC        BRNCCOCO    BRNCCOCO13AG00000400000000001132200400000000000000200000000000000000000000004230Z01620200330X066000000
2MAIL0000151353BR10        BRNC        BRNCCOCO    BRNCCOCO13AG00000500000000001215533700000000000000100000000000000000000000002173Z01620200330X066000000
2MAIL0000151353BR10        BRNC        BRNCCOCO    BRNCCOCO13AG00000600000000001227395500000000000000100000000000000000000000002173Z01620200330X066000000
2MAIL0000151353BR10        BRNC        BRNCCOCO    BRNCCOCO13AG00000700000000001227735000000000000000100000000000000000000000001967Z01620200330X066000000
2MAIL0000151353BR10        BRNC        BRNCCOCO    BRNCCOCO13AG00000800000000001236898000000000000000100000000000000000000000002173Z01620200330X066000000
2MAIL0000151353BR10        BRNC        BRNCCOCO    BRNCCOCO13AG00000900000000001241623700000000000000100000000000000000000000002585Z01620200330X066000000
1MAIL0000151354BR10        BRNC        BRNCCOCO    BRNCCOCO13AG2020033000:00:00OR  010000031802570003180257151354                             2020033020200330Z016CIF202003300000000000032058NN0                                                  0                                        
2MAIL0000151354BR10        BRNC        BRNCCOCO    BRNCCOCO13AG00000100000000001239688300000000000001400000000000000000000000005343Z01620200330X066000000
2MAIL0000151354BR10        BRNC        BRNCCOCO    BRNCCOCO13AG00000200000000001239688600000000000001400000000000000000000000005343Z01620200330X066000000
2MAIL0000151354BR10        BRNC        BRNCCOCO    BRNCCOCO13AG00000300000000001239688800000000000001400000000000000000000000005343Z01620200330X066000000
2MAIL0000151354BR10        BRNC        BRNCCOCO    BRNCCOCO13AG00000400000000001239692000000000000001400000000000000000000000005343Z01620200330X066000000
2MAIL0000151354BR10        BRNC        BRNCCOCO    BRNCCOCO13AG00000500000000001239692100000000000001400000000000000000000000005343Z01620200330X066000000
2MAIL0000151354BR10        BRNC        BRNCCOCO    BRNCCOCO13AG00000600000000001239692300000000000001400000000000000000000000005343Z01620200330X066000000
1MAIL0000151355BR10        BRNC        BRNCCOCO    BRNCCOCO13AG2020033000:00:00OR  010000058670400005867040151355                             2020033020200330Z016CIF202003300000000000159400NN0                                                  0                                        
2MAIL0000151355BR10        BRNC        BRNCCOCO    BRNCCOCO13AG00000100000000001132019700000000000000300000000000000000000000005903Z01620200330X066000000
2MAIL0000151355BR10        BRNC        BRNCCOCO    BRNCCOCO13AG00000200000000001132019800000000000000300000000000000000000000005903Z01620200330X066000000
2MAIL0000151355BR10        BRNC        BRNCCOCO    BRNCCOCO13AG00000300000000001132019900000000000000300000000000000000000000005903Z01620200330X066000000
2MAIL0000151355BR10        BRNC        BRNCCOCO    BRNCCOCO13AG00000400000000001132020900000000000000300000000000000000000000005903Z01620200330X066000000
2MAIL0000151355BR10        BRNC        BRNCCOCO    BRNCCOCO13AG00000500000000001132033100000000000000500000000000000000000000010863Z01620200330X066000000
2MAIL0000151355BR10        BRNC        BRNCCOCO    BRNCCOCO13AG00000600000000001132036700000000000000500000000000000000000000010863Z01620200330X066000000
2MAIL0000151355BR10        BRNC        BRNCCOCO    BRNCCOCO13AG00000700000000001132200400000000000001000000000000000000000000021151Z01620200330X066000000
2MAIL0000151355BR10        BRNC        BRNCCOCO    BRNCCOCO13AG00000800000000001215533700000000000000500000000000000000000000010863Z01620200330X066000000
2MAIL0000151355BR10        BRNC        BRNCCOCO    BRNCCOCO13AG00000900000000001223975300000000000000300000000000000000000000015229Z01620200330X066000000
2MAIL0000151355BR10        BRNC        BRNCCOCO    BRNCCOCO13AG00001000000000001227735000000000000000300000000000000000000000005903Z01620200330X066000000
2MAIL0000151355BR10        BRNC        BRNCCOCO    BRNCCOCO13AG00001100000000001228512700000000000000300000000000000000000000015229Z01620200330X066000000
2MAIL0000151355BR10        BRNC        BRNCCOCO    BRNCCOCO13AG00001200000000001231189200000000000000300000000000000000000000015229Z01620200330X066000000
2MAIL0000151355BR10        BRNC        BRNCCOCO    BRNCCOCO13AG00001300000000001231231200000000000000300000000000000000000000015229Z01620200330X066000000
2MAIL0000151355BR10        BRNC        BRNCCOCO    BRNCCOCO13AG00001400000000001231233000000000000000300000000000000000000000015229Z01620200330X066000000
1MAIL0000151356BR10        BRNC        BRNCCOCO    BRNCCOCO13AG2020033000:00:00OR  010000054819630005481963151356                             2020033020200330Z016CIF202003300000000000019531NN0                                                  0                                        
2MAIL0000151356BR10        BRNC        BRNCCOCO    BRNCCOCO13AG00000100000000001132036700000000000000100000000000000000000000001654Z01620200330X066000000
2MAIL0000151356BR10        BRNC        BRNCCOCO    BRNCCOCO13AG00000200000000001132200400000000000000800000000000000000000000016921Z01620200330X066000000
2MAIL0000151356BR10        BRNC        BRNCCOCO    BRNCCOCO13AG00000300000000001236512900000000000000500000000000000000000000000956Z01620200330X066000000
1MAIL0000151357BR10        BRNC        BRNCCOCO    BRNCCOCO13AG2020033000:00:00OR  010000036644550003664455151357                             2020033020200330Z016CIF202003300000000000004581NN0                                                  0                                        
2MAIL0000151357BR10        BRNC        BRNCCOCO    BRNCCOCO13AG00000100000000001132036700000000000000200000000000000000000000004581Z01620200330X066000000
