1MAIL0000151223BR10        BRNC        BRNCCOCO    BRNCCOCO13AG2020032700:00:00OR  010000055809760005580976151223                             2020032720200327Z016CIF202003270000000000018316NN0                                                  0                                        
2MAIL0000151223BR10        BRNC        BRNCCOCO    BRNCCOCO13AG00000100000000001236512800000000000002800000000000000000000000003992Z01620200327X066000000
2MAIL0000151223BR10        BRNC        BRNCCOCO    BRNCCOCO13AG00000200000000001236512900000000000003500000000000000000000000005241Z01620200327X066000000
2MAIL0000151223BR10        BRNC        BRNCCOCO    BRNCCOCO13AG00000300000000001236515000000000000003500000000000000000000000005241Z01620200327X066000000
2MAIL0000151223BR10        BRNC        BRNCCOCO    BRNCCOCO13AG00000400000000001240924900000000000002800000000000000000000000003842Z01620200327X066000000
1MAIL0000151224BR10        BRNC        BRNCCOCO    BRNCCOCO13AG2020032700:00:00OR  010000058971090005897109151224                             2020032720200327Z016CIF202003270000000000054926NN0                                                  0                                        
2MAIL0000151224BR10        BRNC        BRNCCOCO    BRNCCOCO13AG00000100000000001132019800000000000000100000000000000000000000001593Z01620200327X066000000
2MAIL0000151224BR10        BRNC        BRNCCOCO    BRNCCOCO13AG00000200000000001132033100000000000000100000000000000000000000001759Z01620200327X066000000
2MAIL0000151224BR10        BRNC        BRNCCOCO    BRNCCOCO13AG00000300000000001132036700000000000000100000000000000000000000001759Z01620200327X066000000
2MAIL0000151224BR10        BRNC        BRNCCOCO    BRNCCOCO13AG00000400000000001132200400000000000000500000000000000000000000009975Z01620200327X066000000
2MAIL0000151224BR10        BRNC        BRNCCOCO    BRNCCOCO13AG00000500000000001215533700000000000000100000000000000000000000001759Z01620200327X066000000
2MAIL0000151224BR10        BRNC        BRNCCOCO    BRNCCOCO13AG00000600000000001226089600000000000001200000000000000000000000004255Z01620200327X066000000
2MAIL0000151224BR10        BRNC        BRNCCOCO    BRNCCOCO13AG00000700000000001236512800000000000005200000000000000000000000008491Z01620200327X066000000
2MAIL0000151224BR10        BRNC        BRNCCOCO    BRNCCOCO13AG00000800000000001239688300000000000001400000000000000000000000004964Z01620200327X066000000
2MAIL0000151224BR10        BRNC        BRNCCOCO    BRNCCOCO13AG00000900000000001239688600000000000001400000000000000000000000004964Z01620200327X066000000
2MAIL0000151224BR10        BRNC        BRNCCOCO    BRNCCOCO13AG00001000000000001239688800000000000001400000000000000000000000004964Z01620200327X066000000
2MAIL0000151224BR10        BRNC        BRNCCOCO    BRNCCOCO13AG00001100000000001239692100000000000001400000000000000000000000004964Z01620200327X066000000
2MAIL0000151224BR10        BRNC        BRNCCOCO    BRNCCOCO13AG00001200000000001241623700000000000000300000000000000000000000005479Z01620200327X066000000
