1MAIL0000150741BR10        BRNC        BRNCCOCO    BRNCCOCO13AG2020032400:00:00OR  010000055112060005511206150741                             2020032420200324Z016CIF202003240000000000014028NN0                                                  0                                        
2MAIL0000150741BR10        BRNC        BRNCCOCO    BRNCCOCO13AG00000100000000001236512900000000000003500000000000000000000000007014Z01620200324X066000000
2MAIL0000150741BR10        BRNC        BRNCCOCO    BRNCCOCO13AG00000200000000001236515000000000000003500000000000000000000000007014Z01620200324X066000000
1MAIL0000150742BR10        BRNC        BRNCCOCO    BRNCCOCO13AG2020032400:00:00OR  010000028489120002848912150742                             2020032420200324Z016CIF202003240000000000113125NN0                                                  0                                        
2MAIL0000150742BR10        BRNC        BRNCCOCO    BRNCCOCO13AG00000100000000001132019800000000000000100000000000000000000000002076Z01620200324X066000000
2MAIL0000150742BR10        BRNC        BRNCCOCO    BRNCCOCO13AG00000200000000001132019900000000000000100000000000000000000000002076Z01620200324X066000000
2MAIL0000150742BR10        BRNC        BRNCCOCO    BRNCCOCO13AG00000300000000001132020900000000000000100000000000000000000000002076Z01620200324X066000000
2MAIL0000150742BR10        BRNC        BRNCCOCO    BRNCCOCO13AG00000400000000001132033100000000000000500000000000000000000000011454Z01620200324X066000000
2MAIL0000150742BR10        BRNC        BRNCCOCO    BRNCCOCO13AG00000500000000001132036700000000000000500000000000000000000000011454Z01620200324X066000000
2MAIL0000150742BR10        BRNC        BRNCCOCO    BRNCCOCO13AG00000600000000001132200400000000000000100000000000000000000000002230Z01620200324X066000000
2MAIL0000150742BR10        BRNC        BRNCCOCO    BRNCCOCO13AG00000700000000001215533700000000000000500000000000000000000000011454Z01620200324X066000000
2MAIL0000150742BR10        BRNC        BRNCCOCO    BRNCCOCO13AG00000800000000001227395500000000000000200000000000000000000000004581Z01620200324X066000000
2MAIL0000150742BR10        BRNC        BRNCCOCO    BRNCCOCO13AG00000900000000001231389600000000000000200000000000000000000000004581Z01620200324X066000000
2MAIL0000150742BR10        BRNC        BRNCCOCO    BRNCCOCO13AG00001000000000001236512900000000000007000000000000000000000000014030Z01620200324X066000000
2MAIL0000150742BR10        BRNC        BRNCCOCO    BRNCCOCO13AG00001100000000001236515000000000000007000000000000000000000000014030Z01620200324X066000000
2MAIL0000150742BR10        BRNC        BRNCCOCO    BRNCCOCO13AG00001200000000001236898000000000000000200000000000000000000000004581Z01620200324X066000000
2MAIL0000150742BR10        BRNC        BRNCCOCO    BRNCCOCO13AG00001300000000001239663300000000000001400000000000000000000000005885Z01620200324X066000000
2MAIL0000150742BR10        BRNC        BRNCCOCO    BRNCCOCO13AG00001400000000001239688600000000000001400000000000000000000000005885Z01620200324X066000000
2MAIL0000150742BR10        BRNC        BRNCCOCO    BRNCCOCO13AG00001500000000001239688800000000000001400000000000000000000000005885Z01620200324X066000000
2MAIL0000150742BR10        BRNC        BRNCCOCO    BRNCCOCO13AG00001600000000001239692100000000000001400000000000000000000000005885Z01620200324X066000000
2MAIL0000150742BR10        BRNC        BRNCCOCO    BRNCCOCO13AG00001700000000001241623700000000000000200000000000000000000000004962Z01620200324X066000000
