1MAIL0000152203BR10        BRNC        BRNCCOCO    BRNCCOCO13AG2020040600:00:00OR  010000029315010002931501152203                             2020040620200406Z016CIF202004060000000000119688NN0                                                  0                                        
2MAIL0000152203BR10        BRNC        BRNCCOCO    BRNCCOCO13AG00000100000000001132004000000000000002000000000000000000000000020406Z01620200406X066000000
2MAIL0000152203BR10        BRNC        BRNCCOCO    BRNCCOCO13AG00000200000000001132018300000000000000100000000000000000000000003541Z01620200406X066000000
2MAIL0000152203BR10        BRNC        BRNCCOCO    BRNCCOCO13AG00000300000000001132033100000000000000200000000000000000000000004345Z01620200406X066000000
2MAIL0000152203BR10        BRNC        BRNCCOCO    BRNCCOCO13AG00000400000000001132036700000000000000500000000000000000000000010863Z01620200406X066000000
2MAIL0000152203BR10        BRNC        BRNCCOCO    BRNCCOCO13AG00000500000000001215533700000000000000200000000000000000000000004345Z01620200406X066000000
2MAIL0000152203BR10        BRNC        BRNCCOCO    BRNCCOCO13AG00000600000000001221415400000000000000100000000000000000000000003541Z01620200406X066000000
2MAIL0000152203BR10        BRNC        BRNCCOCO    BRNCCOCO13AG00000700000000001227395500000000000000200000000000000000000000004345Z01620200406X066000000
2MAIL0000152203BR10        BRNC        BRNCCOCO    BRNCCOCO13AG00000800000000001231389600000000000000200000000000000000000000004345Z01620200406X066000000
2MAIL0000152203BR10        BRNC        BRNCCOCO    BRNCCOCO13AG00000900000000001236512800000000000002400000000000000000000000004142Z01620200406X066000000
2MAIL0000152203BR10        BRNC        BRNCCOCO    BRNCCOCO13AG00001000000000001236512900000000000003500000000000000000000000006363Z01620200406X066000000
2MAIL0000152203BR10        BRNC        BRNCCOCO    BRNCCOCO13AG00001100000000001236515000000000000003500000000000000000000000006363Z01620200406X066000000
2MAIL0000152203BR10        BRNC        BRNCCOCO    BRNCCOCO13AG00001200000000001236898000000000000000200000000000000000000000004345Z01620200406X066000000
2MAIL0000152203BR10        BRNC        BRNCCOCO    BRNCCOCO13AG00001300000000001239688600000000000002800000000000000000000000010686Z01620200406X066000000
2MAIL0000152203BR10        BRNC        BRNCCOCO    BRNCCOCO13AG00001400000000001239688800000000000002800000000000000000000000010686Z01620200406X066000000
2MAIL0000152203BR10        BRNC        BRNCCOCO    BRNCCOCO13AG00001500000000001239692000000000000002800000000000000000000000010686Z01620200406X066000000
2MAIL0000152203BR10        BRNC        BRNCCOCO    BRNCCOCO13AG00001600000000001239692100000000000002800000000000000000000000010686Z01620200406X066000000
1MAIL0000152204BR10        BRNC        BRNCCOCO    BRNCCOCO13AG2020040600:00:00OR  010000032928090003292809152204                             2020040620200406Z016CIF202004060000000000089730NN0                                                  0                                        
2MAIL0000152204BR10        BRNC        BRNCCOCO    BRNCCOCO13AG00000100000000001228274000000000000000100000000000000000000000005280Z01620200406X066000000
2MAIL0000152204BR10        BRNC        BRNCCOCO    BRNCCOCO13AG00000200000000001228512700000000000000100000000000000000000000005280Z01620200406X066000000
2MAIL0000152204BR10        BRNC        BRNCCOCO    BRNCCOCO13AG00000300000000001231189200000000000000200000000000000000000000010559Z01620200406X066000000
2MAIL0000152204BR10        BRNC        BRNCCOCO    BRNCCOCO13AG00000400000000001231231200000000000000200000000000000000000000010559Z01620200406X066000000
2MAIL0000152204BR10        BRNC        BRNCCOCO    BRNCCOCO13AG00000500000000001231233000000000000000100000000000000000000000005280Z01620200406X066000000
2MAIL0000152204BR10        BRNC        BRNCCOCO    BRNCCOCO13AG00000600000000001234705700000000000000100000000000000000000000005280Z01620200406X066000000
2MAIL0000152204BR10        BRNC        BRNCCOCO    BRNCCOCO13AG00000700000000001234705800000000000000100000000000000000000000005280Z01620200406X066000000
2MAIL0000152204BR10        BRNC        BRNCCOCO    BRNCCOCO13AG00000800000000001234705900000000000000100000000000000000000000005280Z01620200406X066000000
2MAIL0000152204BR10        BRNC        BRNCCOCO    BRNCCOCO13AG00000900000000001238083500000000000000100000000000000000000000005280Z01620200406X066000000
2MAIL0000152204BR10        BRNC        BRNCCOCO    BRNCCOCO13AG00001000000000001239373400000000000000100000000000000000000000006593Z01620200406X066000000
2MAIL0000152204BR10        BRNC        BRNCCOCO    BRNCCOCO13AG00001100000000001239373500000000000000100000000000000000000000006593Z01620200406X066000000
2MAIL0000152204BR10        BRNC        BRNCCOCO    BRNCCOCO13AG00001200000000001239373600000000000000100000000000000000000000006593Z01620200406X066000000
2MAIL0000152204BR10        BRNC        BRNCCOCO    BRNCCOCO13AG00001300000000001239373700000000000000100000000000000000000000006593Z01620200406X066000000
2MAIL0000152204BR10        BRNC        BRNCCOCO    BRNCCOCO13AG00001400000000001242374800000000000000100000000000000000000000005280Z01620200406X066000000
1MAIL0000152205BR10        BRNC        BRNCCOCO    BRNCCOCO13AG2020040600:00:00OR  010000059804240005980424152205                             2020040620200406Z079CIF202004060000000000055184NN0                                                  0                                        
2MAIL0000152205BR10        BRNC        BRNCCOCO    BRNCCOCO13AG00000100000000001132018300000000000000100000000000000000000000002689Z07920200406X066000000
2MAIL0000152205BR10        BRNC        BRNCCOCO    BRNCCOCO13AG00000200000000001132033100000000000000100000000000000000000000001658Z07920200406X066000000
2MAIL0000152205BR10        BRNC        BRNCCOCO    BRNCCOCO13AG00000300000000001132036700000000000000100000000000000000000000001658Z07920200406X066000000
2MAIL0000152205BR10        BRNC        BRNCCOCO    BRNCCOCO13AG00000400000000001132200400000000000000200000000000000000000000004241Z07920200406X066000000
2MAIL0000152205BR10        BRNC        BRNCCOCO    BRNCCOCO13AG00000500000000001215533700000000000000100000000000000000000000001658Z07920200406X066000000
2MAIL0000152205BR10        BRNC        BRNCCOCO    BRNCCOCO13AG00000600000000001221415400000000000000100000000000000000000000002689Z07920200406X066000000
2MAIL0000152205BR10        BRNC        BRNCCOCO    BRNCCOCO13AG00000700000000001223975300000000000000100000000000000000000000004449Z07920200406X066000000
2MAIL0000152205BR10        BRNC        BRNCCOCO    BRNCCOCO13AG00000800000000001226089600000000000001200000000000000000000000004023Z07920200406X066000000
2MAIL0000152205BR10        BRNC        BRNCCOCO    BRNCCOCO13AG00000900000000001231189200000000000000100000000000000000000000004449Z07920200406X066000000
2MAIL0000152205BR10        BRNC        BRNCCOCO    BRNCCOCO13AG00001000000000001234705900000000000000100000000000000000000000004449Z07920200406X066000000
2MAIL0000152205BR10        BRNC        BRNCCOCO    BRNCCOCO13AG00001100000000001239688600000000000001400000000000000000000000004693Z07920200406X066000000
2MAIL0000152205BR10        BRNC        BRNCCOCO    BRNCCOCO13AG00001200000000001239688800000000000001400000000000000000000000004693Z07920200406X066000000
2MAIL0000152205BR10        BRNC        BRNCCOCO    BRNCCOCO13AG00001300000000001239692000000000000001400000000000000000000000004693Z07920200406X066000000
2MAIL0000152205BR10        BRNC        BRNCCOCO    BRNCCOCO13AG00001400000000001242374800000000000000100000000000000000000000004449Z07920200406X066000000
2MAIL0000152205BR10        BRNC        BRNCCOCO    BRNCCOCO13AG00001500000000001242626100000000000001400000000000000000000000004693Z07920200406X066000000
1MAIL0000152206BR10        BRNC        BRNCCOCO    BRNCCOCO13AG2020040600:00:00OR  010000058240480005824048152206                             2020040620200406Z016CIF202004060000000000019650NN0                                                  0                                        
2MAIL0000152206BR10        BRNC        BRNCCOCO    BRNCCOCO13AG00000100000000001132019700000000000000100000000000000000000000001967Z01620200406X066000000
2MAIL0000152206BR10        BRNC        BRNCCOCO    BRNCCOCO13AG00000200000000001132033100000000000000100000000000000000000000002173Z01620200406X066000000
2MAIL0000152206BR10        BRNC        BRNCCOCO    BRNCCOCO13AG00000300000000001132036700000000000000100000000000000000000000002173Z01620200406X066000000
2MAIL0000152206BR10        BRNC        BRNCCOCO    BRNCCOCO13AG00000400000000001215533700000000000000100000000000000000000000002173Z01620200406X066000000
2MAIL0000152206BR10        BRNC        BRNCCOCO    BRNCCOCO13AG00000500000000001239663300000000000001400000000000000000000000005582Z01620200406X066000000
2MAIL0000152206BR10        BRNC        BRNCCOCO    BRNCCOCO13AG00000600000000001239688500000000000001400000000000000000000000005582Z01620200406X066000000
1MAIL0000152207BR10        BRNC        BRNCCOCO    BRNCCOCO13AG2020040600:00:00OR  010000050507440005050744152207                             2020040620200406Z016CIF202004060000000000061958NN0                                                  0                                        
2MAIL0000152207BR10        BRNC        BRNCCOCO    BRNCCOCO13AG00000100000000001132033100000000000000300000000000000000000000006872Z01620200406X066000000
2MAIL0000152207BR10        BRNC        BRNCCOCO    BRNCCOCO13AG00000200000000001132036700000000000000300000000000000000000000006872Z01620200406X066000000
2MAIL0000152207BR10        BRNC        BRNCCOCO    BRNCCOCO13AG00000300000000001215533700000000000000300000000000000000000000006872Z01620200406X066000000
2MAIL0000152207BR10        BRNC        BRNCCOCO    BRNCCOCO13AG00000400000000001226089600000000000001200000000000000000000000005045Z01620200406X066000000
2MAIL0000152207BR10        BRNC        BRNCCOCO    BRNCCOCO13AG00000500000000001227395500000000000000300000000000000000000000006872Z01620200406X066000000
2MAIL0000152207BR10        BRNC        BRNCCOCO    BRNCCOCO13AG00000600000000001239663300000000000001400000000000000000000000005885Z01620200406X066000000
2MAIL0000152207BR10        BRNC        BRNCCOCO    BRNCCOCO13AG00000700000000001239688500000000000001400000000000000000000000005885Z01620200406X066000000
2MAIL0000152207BR10        BRNC        BRNCCOCO    BRNCCOCO13AG00000800000000001239688800000000000001400000000000000000000000005885Z01620200406X066000000
2MAIL0000152207BR10        BRNC        BRNCCOCO    BRNCCOCO13AG00000900000000001239692100000000000001400000000000000000000000005885Z01620200406X066000000
2MAIL0000152207BR10        BRNC        BRNCCOCO    BRNCCOCO13AG00001000000000001242754900000000000001400000000000000000000000005885Z01620200406X066000000
1MAIL0000152208BR10        BRNC        BRNCCOCO    BRNCCOCO13AG2020040600:00:00OR  010000041707060004170706152208                             2020040620200406Z016CIF202004060000000000057707NN0                                                  0                                        
2MAIL0000152208BR10        BRNC        BRNCCOCO    BRNCCOCO13AG00000100000000001241577400000000000006000000000000000000000000057707Z01620200406X066000000
1MAIL0000152209BR10        BRNC        BRNCCOCO    BRNCCOCO13AG2020040600:00:00OR  010000051771160005177116152209                             2020040620200406Z016CIF202004060000000000016518NN0                                                  0                                        
2MAIL0000152209BR10        BRNC        BRNCCOCO    BRNCCOCO13AG00000100000000001132019800000000000000100000000000000000000000002012Z01620200406X066003000
2MAIL0000152209BR10        BRNC        BRNCCOCO    BRNCCOCO13AG00000200000000001132033100000000000000100000000000000000000000002223Z01620200406X066003000
2MAIL0000152209BR10        BRNC        BRNCCOCO    BRNCCOCO13AG00000300000000001132036700000000000000100000000000000000000000002223Z01620200406X066003000
2MAIL0000152209BR10        BRNC        BRNCCOCO    BRNCCOCO13AG00000400000000001236512900000000000000500000000000000000000000000973Z01620200406X066003000
2MAIL0000152209BR10        BRNC        BRNCCOCO    BRNCCOCO13AG00000500000000001236515000000000000000500000000000000000000000000973Z01620200406X066003000
2MAIL0000152209BR10        BRNC        BRNCCOCO    BRNCCOCO13AG00000600000000001239688800000000000001400000000000000000000000005708Z01620200406X066003000
2MAIL0000152209BR10        BRNC        BRNCCOCO    BRNCCOCO13AG00000700000000001241623700000000000000100000000000000000000000002406Z01620200406X066003000
1MAIL0000152210BR10        BRNC        BRNCCOCO    BRNCCOCO13AG2020040600:00:00OR  010000059016080005901608152210                             2020040620200406Z079CIF202004060000000000027950NN0                                                  0                                        
2MAIL0000152210BR10        BRNC        BRNCCOCO    BRNCCOCO13AG00000100000000001132033100000000000000200000000000000000000000004594Z07920200406X066000000
2MAIL0000152210BR10        BRNC        BRNCCOCO    BRNCCOCO13AG00000200000000001132036700000000000000200000000000000000000000004594Z07920200406X066000000
2MAIL0000152210BR10        BRNC        BRNCCOCO    BRNCCOCO13AG00000300000000001132200400000000000000300000000000000000000000006707Z07920200406X066000000
2MAIL0000152210BR10        BRNC        BRNCCOCO    BRNCCOCO13AG00000400000000001215533700000000000000200000000000000000000000004594Z07920200406X066000000
2MAIL0000152210BR10        BRNC        BRNCCOCO    BRNCCOCO13AG00000500000000001241623700000000000000300000000000000000000000007461Z07920200406X066000000
1MAIL0000152211BR10        BRNC        BRNCCOCO    BRNCCOCO13AG2020040600:00:00OR  010000049380480004938048152211                             2020040620200406Z016CIF202004060000000000604020NN0                                                  0                                        
2MAIL0000152211BR10        BRNC        BRNCCOCO    BRNCCOCO13AG00000100000000001132018300000000000000400000000000000000000000012072Z01620200406X066000000
2MAIL0000152211BR10        BRNC        BRNCCOCO    BRNCCOCO13AG00000200000000001132019700000000000001800000000000000000000000030259Z01620200406X066000000
2MAIL0000152211BR10        BRNC        BRNCCOCO    BRNCCOCO13AG00000300000000001132019900000000000000900000000000000000000000015129Z01620200406X066000000
2MAIL0000152211BR10        BRNC        BRNCCOCO    BRNCCOCO13AG00000400000000001132020900000000000001800000000000000000000000030259Z01620200406X066000000
2MAIL0000152211BR10        BRNC        BRNCCOCO    BRNCCOCO13AG00000500000000001132400100000000000000200000000000000000000000005130Z01620200406X066000000
2MAIL0000152211BR10        BRNC        BRNCCOCO    BRNCCOCO13AG00000600000000001221415400000000000002400000000000000000000000072429Z01620200406X066000000
2MAIL0000152211BR10        BRNC        BRNCCOCO    BRNCCOCO13AG00000700000000001226089600000000000009600000000000000000000000028998Z01620200406X066011000
2MAIL0000152211BR10        BRNC        BRNCCOCO    BRNCCOCO13AG00000800000000001228274000000000000000800000000000000000000000036075Z01620200406X066000000
2MAIL0000152211BR10        BRNC        BRNCCOCO    BRNCCOCO13AG00000900000000001231189200000000000000800000000000000000000000036075Z01620200406X066000000
2MAIL0000152211BR10        BRNC        BRNCCOCO    BRNCCOCO13AG00001000000000001231231200000000000000800000000000000000000000036075Z01620200406X066000000
2MAIL0000152211BR10        BRNC        BRNCCOCO    BRNCCOCO13AG00001100000000001234705800000000000000400000000000000000000000018037Z01620200406X066000000
2MAIL0000152211BR10        BRNC        BRNCCOCO    BRNCCOCO13AG00001200000000001234705900000000000000400000000000000000000000018037Z01620200406X066000000
2MAIL0000152211BR10        BRNC        BRNCCOCO    BRNCCOCO13AG00001300000000001235699400000000000004000000000000000000000000013606Z01620200406X066000000
2MAIL0000152211BR10        BRNC        BRNCCOCO    BRNCCOCO13AG00001400000000001236512900000000000007000000000000000000000000011624Z01620200406X066000000
2MAIL0000152211BR10        BRNC        BRNCCOCO    BRNCCOCO13AG00001500000000001236515000000000000007000000000000000000000000011624Z01620200406X066000000
2MAIL0000152211BR10        BRNC        BRNCCOCO    BRNCCOCO13AG00001600000000001239663300000000000005600000000000000000000000019006Z01620200406X066000000
2MAIL0000152211BR10        BRNC        BRNCCOCO    BRNCCOCO13AG00001700000000001239688300000000000005600000000000000000000000019006Z01620200406X066000000
2MAIL0000152211BR10        BRNC        BRNCCOCO    BRNCCOCO13AG00001800000000001239688500000000000005600000000000000000000000019006Z01620200406X066000000
2MAIL0000152211BR10        BRNC        BRNCCOCO    BRNCCOCO13AG00001900000000001239688600000000000005600000000000000000000000019006Z01620200406X066000000
2MAIL0000152211BR10        BRNC        BRNCCOCO    BRNCCOCO13AG00002000000000001239688700000000000005600000000000000000000000019006Z01620200406X066000000
2MAIL0000152211BR10        BRNC        BRNCCOCO    BRNCCOCO13AG00002100000000001239688800000000000005600000000000000000000000019006Z01620200406X066000000
2MAIL0000152211BR10        BRNC        BRNCCOCO    BRNCCOCO13AG00002200000000001239692000000000000005600000000000000000000000019006Z01620200406X066000000
2MAIL0000152211BR10        BRNC        BRNCCOCO    BRNCCOCO13AG00002300000000001239692100000000000005600000000000000000000000019006Z01620200406X066000000
2MAIL0000152211BR10        BRNC        BRNCCOCO    BRNCCOCO13AG00002400000000001239692300000000000005600000000000000000000000019006Z01620200406X066000000
2MAIL0000152211BR10        BRNC        BRNCCOCO    BRNCCOCO13AG00002500000000001241623700000000000002000000000000000000000000038531Z01620200406X066000000
2MAIL0000152211BR10        BRNC        BRNCCOCO    BRNCCOCO13AG00002600000000001242765000000000000005600000000000000000000000019006Z01620200406X066000000
1MAIL0000152212BR10        BRNC        BRNCCOCO    BRNCCOCO13AG2020040600:00:00OR  010000029019260002901926152212                             2020040620200406Z016CIF202004060000000000057707NN0                                                  0                                        
2MAIL0000152212BR10        BRNC        BRNCCOCO    BRNCCOCO13AG00000100000000001241577400000000000006000000000000000000000000057707Z01620200406X066000000
1MAIL0000152213BR10        BRNC        BRNCCOCO    BRNCCOCO13AG2020040600:00:00OR  010000061446800006144680152213                             2020040620200406Z005CIF202004060000000014979869NN0                                                  0                                        
2MAIL0000152213BR10        BRNC        BRNCCOCO    BRNCCOCO13AG00000100000000001132036700000000000064000000000000000000000000975342Z00520200406X066000000
2MAIL0000152213BR10        BRNC        BRNCCOCO    BRNCCOCO13AG00000200000000001241577400000000002100000000000000000000000013218805Z00520200406X066000000
2MAIL0000152213BR10        BRNC        BRNCCOCO    BRNCCOCO13AG00000300000000001241623700000000000050000000000000000000000000785722Z00520200406X066000000
1MAIL0000152214BR10        BRNC        BRNCCOCO    BRNCCOCO13AG2020040600:00:00OR  010000059619710005961971152214                             2020040620200406Z009CIF202004060000000007443688NN0                                                  0                                        
2MAIL0000152214BR10        BRNC        BRNCCOCO    BRNCCOCO13AG00000100000000001132033100000000000032000000000000000000000000487300Z00920200406X066000000
2MAIL0000152214BR10        BRNC        BRNCCOCO    BRNCCOCO13AG00000200000000001132036700000000000064000000000000000000000000974600Z00920200406X066000000
2MAIL0000152214BR10        BRNC        BRNCCOCO    BRNCCOCO13AG00000300000000001241577400000000000900000000000000000000000005981788Z00920200406X066000000
