1MAIL0000152844BR10        BRNC        BRNCCOCO    BRNCCOCO13AG2020040900:00:00OR  010000046945340004694534152844                             2020040920200409Z016CIF202004090000000000039931NN0                                                  0                                        
2MAIL0000152844BR10        BRNC        BRNCCOCO    BRNCCOCO13AG00000100000000001132018300000000000000100000000000000000000000003735Z01620200409X066000000
2MAIL0000152844BR10        BRNC        BRNCCOCO    BRNCCOCO13AG00000200000000001132200400000000000000100000000000000000000000002230Z01620200409X066000000
2MAIL0000152844BR10        BRNC        BRNCCOCO    BRNCCOCO13AG00000300000000001235699400000000000001000000000000000000000000004211Z01620200409X066000000
2MAIL0000152844BR10        BRNC        BRNCCOCO    BRNCCOCO13AG00000400000000001235699800000000000001000000000000000000000000004211Z01620200409X066000000
2MAIL0000152844BR10        BRNC        BRNCCOCO    BRNCCOCO13AG00000500000000001236512900000000000001000000000000000000000000002004Z01620200409X066000000
2MAIL0000152844BR10        BRNC        BRNCCOCO    BRNCCOCO13AG00000600000000001239688500000000000001400000000000000000000000005885Z01620200409X066000000
2MAIL0000152844BR10        BRNC        BRNCCOCO    BRNCCOCO13AG00000700000000001239688600000000000001400000000000000000000000005885Z01620200409X066000000
2MAIL0000152844BR10        BRNC        BRNCCOCO    BRNCCOCO13AG00000800000000001239688800000000000001400000000000000000000000005885Z01620200409X066000000
2MAIL0000152844BR10        BRNC        BRNCCOCO    BRNCCOCO13AG00000900000000001242626100000000000001400000000000000000000000005885Z01620200409X066000000
