1MAIL0000152595BR10        BRNC        BRNCCOCO    BRNCCOCO13AG2020040800:00:00OR  010000061446800006144680152595                             2020040820200408Z998CIF202004080000000000941426NN0                                                  0                                        
2MAIL0000152595BR10        BRNC        BRNCCOCO    BRNCCOCO13AG00000100000000001241577400000000000150000000000000000000000000941426Z99820200408X066000000
1MAIL0000152600BR10        BRNC        BRNCCOCO    BRNCCOCO13AG2020040800:00:00OR  010000052576640005257664152600                             2020040820200408Z016CIF202004080000000000050232NN0                                                  0                                        
2MAIL0000152600BR10        BRNC        BRNCCOCO    BRNCCOCO13AG00000100000000001132033100000000000000100000000000000000000000001856Z01620200408X066000000
2MAIL0000152600BR10        BRNC        BRNCCOCO    BRNCCOCO13AG00000200000000001132036700000000000000200000000000000000000000003712Z01620200408X066000000
2MAIL0000152600BR10        BRNC        BRNCCOCO    BRNCCOCO13AG00000300000000001132200400000000000000100000000000000000000000002105Z01620200408X066000000
2MAIL0000152600BR10        BRNC        BRNCCOCO    BRNCCOCO13AG00000400000000001215533700000000000000200000000000000000000000003712Z01620200408X066000000
2MAIL0000152600BR10        BRNC        BRNCCOCO    BRNCCOCO13AG00000500000000001236512900000000000003500000000000000000000000005812Z01620200408X066000000
2MAIL0000152600BR10        BRNC        BRNCCOCO    BRNCCOCO13AG00000600000000001236515000000000000003500000000000000000000000005812Z01620200408X066000000
2MAIL0000152600BR10        BRNC        BRNCCOCO    BRNCCOCO13AG00000700000000001241577400000000000003000000000000000000000000023370Z01620200408X066000000
2MAIL0000152600BR10        BRNC        BRNCCOCO    BRNCCOCO13AG00000800000000001241623700000000000000200000000000000000000000003853Z01620200408X066000000
1MAIL0000152601BR10        BRNC        BRNCCOCO    BRNCCOCO13AG2020040800:00:00OR  010000038349830003834983152601                             2020040820200408Z016CIF202004080000000000024639NN0                                                  0                                        
2MAIL0000152601BR10        BRNC        BRNCCOCO    BRNCCOCO13AG00000100000000001132018300000000000000100000000000000000000000003735Z01620200408X066000000
2MAIL0000152601BR10        BRNC        BRNCCOCO    BRNCCOCO13AG00000200000000001132019800000000000000100000000000000000000000002076Z01620200408X066000000
2MAIL0000152601BR10        BRNC        BRNCCOCO    BRNCCOCO13AG00000300000000001132036700000000000000100000000000000000000000002291Z01620200408X066000000
2MAIL0000152601BR10        BRNC        BRNCCOCO    BRNCCOCO13AG00000400000000001132200400000000000000100000000000000000000000002230Z01620200408X066000000
2MAIL0000152601BR10        BRNC        BRNCCOCO    BRNCCOCO13AG00000500000000001235699700000000000001000000000000000000000000004211Z01620200408X066000000
2MAIL0000152601BR10        BRNC        BRNCCOCO    BRNCCOCO13AG00000600000000001235699800000000000001000000000000000000000000004211Z01620200408X066000000
2MAIL0000152601BR10        BRNC        BRNCCOCO    BRNCCOCO13AG00000700000000001239688800000000000001400000000000000000000000005885Z01620200408X066000000
1MAIL0000152602BR10        BRNC        BRNCCOCO    BRNCCOCO13AG2020040800:00:00OR  010000045405950004540595152602                             2020040820200408Z016CIF202004080000000000018488NN0                                                  0                                        
2MAIL0000152602BR10        BRNC        BRNCCOCO    BRNCCOCO13AG00000100000000001132200400000000000000200000000000000000000000004460Z01620200408X066000000
2MAIL0000152602BR10        BRNC        BRNCCOCO    BRNCCOCO13AG00000200000000001236512900000000000003500000000000000000000000007014Z01620200408X066000000
2MAIL0000152602BR10        BRNC        BRNCCOCO    BRNCCOCO13AG00000300000000001236515000000000000003500000000000000000000000007014Z01620200408X066000000
1MAIL0000152603BR10        BRNC        BRNCCOCO    BRNCCOCO13AG2020040800:00:00OR  010000034720770003472077152603                             2020040820200408Z016CIF202004080000000000022906NN0                                                  0                                        
2MAIL0000152603BR10        BRNC        BRNCCOCO    BRNCCOCO13AG00000100000000001132033100000000000000200000000000000000000000004581Z01620200408X066000000
2MAIL0000152603BR10        BRNC        BRNCCOCO    BRNCCOCO13AG00000200000000001132036700000000000000400000000000000000000000009163Z01620200408X066000000
2MAIL0000152603BR10        BRNC        BRNCCOCO    BRNCCOCO13AG00000300000000001215533700000000000000200000000000000000000000004581Z01620200408X066000000
2MAIL0000152603BR10        BRNC        BRNCCOCO    BRNCCOCO13AG00000400000000001227395500000000000000200000000000000000000000004581Z01620200408X066000000
