1MAIL0000150754BR10        BRNC        BRNCCOCO    BRNCCOCO13AG2020032400:00:00OR  010000037068480003706848150754                             2020032420200324Z016CIF202003240000000000113426NN0                                                  0                                        
2MAIL0000150754BR10        BRNC        BRNCCOCO    BRNCCOCO13AG00000100000000001132019700000000000000100000000000000000000000001967Z01620200324X066000000
2MAIL0000150754BR10        BRNC        BRNCCOCO    BRNCCOCO13AG00000200000000001132019800000000000000100000000000000000000000001967Z01620200324X066000000
2MAIL0000150754BR10        BRNC        BRNCCOCO    BRNCCOCO13AG00000300000000001132019900000000000000100000000000000000000000001967Z01620200324X066000000
2MAIL0000150754BR10        BRNC        BRNCCOCO    BRNCCOCO13AG00000400000000001132020900000000000000100000000000000000000000001967Z01620200324X066000000
2MAIL0000150754BR10        BRNC        BRNCCOCO    BRNCCOCO13AG00000500000000001132033100000000000000200000000000000000000000004345Z01620200324X066000000
2MAIL0000150754BR10        BRNC        BRNCCOCO    BRNCCOCO13AG00000600000000001132036700000000000000200000000000000000000000004345Z01620200324X066000000
2MAIL0000150754BR10        BRNC        BRNCCOCO    BRNCCOCO13AG00000700000000001132400100000000000000100000000000000000000000003003Z01620200324X066000000
2MAIL0000150754BR10        BRNC        BRNCCOCO    BRNCCOCO13AG00000800000000001215533700000000000000200000000000000000000000004345Z01620200324X066000000
2MAIL0000150754BR10        BRNC        BRNCCOCO    BRNCCOCO13AG00000900000000001227735000000000000000100000000000000000000000001967Z01620200324X066000000
2MAIL0000150754BR10        BRNC        BRNCCOCO    BRNCCOCO13AG00001000000000001235699400000000000001000000000000000000000000003825Z01620200324X066000000
2MAIL0000150754BR10        BRNC        BRNCCOCO    BRNCCOCO13AG00001100000000001235699700000000000001000000000000000000000000003825Z01620200324X066000000
2MAIL0000150754BR10        BRNC        BRNCCOCO    BRNCCOCO13AG00001200000000001235699800000000000001000000000000000000000000003825Z01620200324X066000000
2MAIL0000150754BR10        BRNC        BRNCCOCO    BRNCCOCO13AG00001300000000001239373400000000000000100000000000000000000000006340Z01620200324X066000000
2MAIL0000150754BR10        BRNC        BRNCCOCO    BRNCCOCO13AG00001400000000001239373600000000000000100000000000000000000000006340Z01620200324X066000000
2MAIL0000150754BR10        BRNC        BRNCCOCO    BRNCCOCO13AG00001500000000001239663300000000000001400000000000000000000000005343Z01620200324X066000000
2MAIL0000150754BR10        BRNC        BRNCCOCO    BRNCCOCO13AG00001600000000001239688300000000000001400000000000000000000000005343Z01620200324X066000000
2MAIL0000150754BR10        BRNC        BRNCCOCO    BRNCCOCO13AG00001700000000001239688600000000000001400000000000000000000000005343Z01620200324X066000000
2MAIL0000150754BR10        BRNC        BRNCCOCO    BRNCCOCO13AG00001800000000001239688800000000000001400000000000000000000000005343Z01620200324X066000000
2MAIL0000150754BR10        BRNC        BRNCCOCO    BRNCCOCO13AG00001900000000001239692000000000000001400000000000000000000000005343Z01620200324X066000000
2MAIL0000150754BR10        BRNC        BRNCCOCO    BRNCCOCO13AG00002000000000001239692100000000000001400000000000000000000000005343Z01620200324X066000000
2MAIL0000150754BR10        BRNC        BRNCCOCO    BRNCCOCO13AG00002100000000001239692300000000000001400000000000000000000000005343Z01620200324X066000000
2MAIL0000150754BR10        BRNC        BRNCCOCO    BRNCCOCO13AG00002200000000001241577400000000000003000000000000000000000000025997Z01620200324X066000000
1MAIL0000150755BR10        BRNC        BRNCCOCO    BRNCCOCO13AG2020032400:00:00OR  010000049953190004995319150755                             2020032420200324Z016CIF202003240000000000033534NN0                                                  0                                        
2MAIL0000150755BR10        BRNC        BRNCCOCO    BRNCCOCO13AG00000100000000001132033100000000000000100000000000000000000000002173Z01620200324X066000000
2MAIL0000150755BR10        BRNC        BRNCCOCO    BRNCCOCO13AG00000200000000001132036700000000000000100000000000000000000000002173Z01620200324X066000000
2MAIL0000150755BR10        BRNC        BRNCCOCO    BRNCCOCO13AG00000300000000001227395500000000000000100000000000000000000000002173Z01620200324X066000000
2MAIL0000150755BR10        BRNC        BRNCCOCO    BRNCCOCO13AG00000400000000001235699800000000000001000000000000000000000000003995Z01620200324X066000000
2MAIL0000150755BR10        BRNC        BRNCCOCO    BRNCCOCO13AG00000500000000001236512800000000000001200000000000000000000000002280Z01620200324X066000000
2MAIL0000150755BR10        BRNC        BRNCCOCO    BRNCCOCO13AG00000600000000001236512900000000000001000000000000000000000000001997Z01620200324X066000000
2MAIL0000150755BR10        BRNC        BRNCCOCO    BRNCCOCO13AG00000700000000001236515000000000000001000000000000000000000000001997Z01620200324X066000000
2MAIL0000150755BR10        BRNC        BRNCCOCO    BRNCCOCO13AG00000800000000001239663300000000000001400000000000000000000000005582Z01620200324X066000000
2MAIL0000150755BR10        BRNC        BRNCCOCO    BRNCCOCO13AG00000900000000001239688800000000000001400000000000000000000000005582Z01620200324X066000000
2MAIL0000150755BR10        BRNC        BRNCCOCO    BRNCCOCO13AG00001000000000001239692100000000000001400000000000000000000000005582Z01620200324X066000000
1MAIL0000150756BR10        BRNC        BRNCCOCO    BRNCCOCO13AG2020032400:00:00OR  010000060184120006018412150756                             2020032420200324Z009CIF202003240000000000011123NN0                                                  0                                        
2MAIL0000150756BR10        BRNC        BRNCCOCO    BRNCCOCO13AG00000100000000001132036700000000000000200000000000000000000000003299Z00920200324X066000000
2MAIL0000150756BR10        BRNC        BRNCCOCO    BRNCCOCO13AG00000200000000001132200400000000000000100000000000000000000000002110Z00920200324X066000000
2MAIL0000150756BR10        BRNC        BRNCCOCO    BRNCCOCO13AG00000300000000001236512900000000000001500000000000000000000000002857Z00920200324X066000000
2MAIL0000150756BR10        BRNC        BRNCCOCO    BRNCCOCO13AG00000400000000001236515000000000000001500000000000000000000000002857Z00920200324X066000000
1MAIL0000150757BR10        BRNC        BRNCCOCO    BRNCCOCO13AG2020032400:00:00OR  010000034772030003477203150757                             2020032420200324Z016CIF202003240000000000033569NN0                                                  0                                        
2MAIL0000150757BR10        BRNC        BRNCCOCO    BRNCCOCO13AG00000100000000001132033100000000000000100000000000000000000000002291Z01620200324X066000000
2MAIL0000150757BR10        BRNC        BRNCCOCO    BRNCCOCO13AG00000200000000001132036700000000000000200000000000000000000000004581Z01620200324X066000000
2MAIL0000150757BR10        BRNC        BRNCCOCO    BRNCCOCO13AG00000300000000001132200400000000000000200000000000000000000000004460Z01620200324X066000000
2MAIL0000150757BR10        BRNC        BRNCCOCO    BRNCCOCO13AG00000400000000001215533700000000000000100000000000000000000000002291Z01620200324X066000000
2MAIL0000150757BR10        BRNC        BRNCCOCO    BRNCCOCO13AG00000500000000001227395500000000000000100000000000000000000000002291Z01620200324X066000000
2MAIL0000150757BR10        BRNC        BRNCCOCO    BRNCCOCO13AG00000600000000001239688600000000000001400000000000000000000000005885Z01620200324X066000000
2MAIL0000150757BR10        BRNC        BRNCCOCO    BRNCCOCO13AG00000700000000001239688800000000000001400000000000000000000000005885Z01620200324X066000000
2MAIL0000150757BR10        BRNC        BRNCCOCO    BRNCCOCO13AG00000800000000001239692100000000000001400000000000000000000000005885Z01620200324X066000000
1MAIL0000150758BR10        BRNC        BRNCCOCO    BRNCCOCO13AG2020032400:00:00OR  010000057075270005707527150758                             2020032420200324Z016CIF202003240000000000006873NN0                                                  0                                        
2MAIL0000150758BR10        BRNC        BRNCCOCO    BRNCCOCO13AG00000100000000001132033100000000000000100000000000000000000000002291Z01620200324X066000000
2MAIL0000150758BR10        BRNC        BRNCCOCO    BRNCCOCO13AG00000200000000001132036700000000000000100000000000000000000000002291Z01620200324X066000000
2MAIL0000150758BR10        BRNC        BRNCCOCO    BRNCCOCO13AG00000300000000001231389600000000000000100000000000000000000000002291Z01620200324X066000000
1MAIL0000150760BR10        BRNC        BRNCCOCO    BRNCCOCO13AG2020032400:00:00OR  010000058228370005822837150760                             2020032420200324Z079CIF202003240000000000068910NN0                                                  0                                        
2MAIL0000150760BR10        BRNC        BRNCCOCO    BRNCCOCO13AG00000100000000001132033100000000000001000000000000000000000000022970Z07920200324X066000000
2MAIL0000150760BR10        BRNC        BRNCCOCO    BRNCCOCO13AG00000200000000001132036700000000000001000000000000000000000000022970Z07920200324X066000000
2MAIL0000150760BR10        BRNC        BRNCCOCO    BRNCCOCO13AG00000300000000001215533700000000000001000000000000000000000000022970Z07920200324X066000000
