1MAIL0000153583BR10        BRNC        BRNCCOCO    BRNCCOCO13AG2020041600:00:00OR  010000028987030002898703153583                             2020041620200416Z016CIF202004160000000000013744NN0                                                  0                                        
2MAIL0000153583BR10        BRNC        BRNCCOCO    BRNCCOCO13AG00000100000000001132036700000000000000300000000000000000000000006872Z01620200416X066000000
2MAIL0000153583BR10        BRNC        BRNCCOCO    BRNCCOCO13AG00000200000000001215533700000000000000300000000000000000000000006872Z01620200416X066000000
1MAIL0000153584BR10        BRNC        BRNCCOCO    BRNCCOCO13AG2020041600:00:00OR  010000058272110005827211153584                             2020041620200416Z016CIF202004160000000000025322NN0                                                  0                                        
2MAIL0000153584BR10        BRNC        BRNCCOCO    BRNCCOCO13AG00000100000000001132033100000000000000100000000000000000000000002291Z01620200416X066000000
2MAIL0000153584BR10        BRNC        BRNCCOCO    BRNCCOCO13AG00000200000000001132036700000000000000100000000000000000000000002291Z01620200416X066000000
2MAIL0000153584BR10        BRNC        BRNCCOCO    BRNCCOCO13AG00000300000000001236512900000000000001000000000000000000000000002004Z01620200416X066000000
2MAIL0000153584BR10        BRNC        BRNCCOCO    BRNCCOCO13AG00000400000000001236515000000000000001000000000000000000000000002004Z01620200416X066000000
2MAIL0000153584BR10        BRNC        BRNCCOCO    BRNCCOCO13AG00000500000000001239688800000000000001400000000000000000000000005885Z01620200416X066000000
2MAIL0000153584BR10        BRNC        BRNCCOCO    BRNCCOCO13AG00000600000000001239692000000000000001400000000000000000000000005885Z01620200416X066000000
2MAIL0000153584BR10        BRNC        BRNCCOCO    BRNCCOCO13AG00000700000000001241623700000000000000200000000000000000000000004962Z01620200416X066000000
1MAIL0000153585BR10        BRNC        BRNCCOCO    BRNCCOCO13AG2020041600:00:00OR  010000052757760005275776153585                             2020041620200416Z016CIF202004160000000000023040NN0                                                  0                                        
2MAIL0000153585BR10        BRNC        BRNCCOCO    BRNCCOCO13AG00000100000000001132019800000000000000100000000000000000000000002076Z01620200416X066000000
2MAIL0000153585BR10        BRNC        BRNCCOCO    BRNCCOCO13AG00000200000000001132033100000000000000100000000000000000000000002291Z01620200416X066000000
2MAIL0000153585BR10        BRNC        BRNCCOCO    BRNCCOCO13AG00000300000000001132036700000000000000100000000000000000000000002291Z01620200416X066000000
2MAIL0000153585BR10        BRNC        BRNCCOCO    BRNCCOCO13AG00000400000000001236512900000000000002000000000000000000000000004008Z01620200416X066000000
2MAIL0000153585BR10        BRNC        BRNCCOCO    BRNCCOCO13AG00000500000000001236515000000000000002000000000000000000000000004008Z01620200416X066000000
2MAIL0000153585BR10        BRNC        BRNCCOCO    BRNCCOCO13AG00000600000000001239688800000000000001400000000000000000000000005885Z01620200416X066000000
2MAIL0000153585BR10        BRNC        BRNCCOCO    BRNCCOCO13AG00000700000000001241623700000000000000100000000000000000000000002481Z01620200416X066000000
1MAIL0000153586BR10        BRNC        BRNCCOCO    BRNCCOCO13AG2020041600:00:00OR  010000028991390002899139153586                             2020041620200416Z016CIF202004160000000000030394NN0                                                  0                                        
2MAIL0000153586BR10        BRNC        BRNCCOCO    BRNCCOCO13AG00000100000000001132019800000000000000100000000000000000000000002076Z01620200416X066000000
2MAIL0000153586BR10        BRNC        BRNCCOCO    BRNCCOCO13AG00000200000000001132033100000000000000100000000000000000000000002291Z01620200416X066000000
2MAIL0000153586BR10        BRNC        BRNCCOCO    BRNCCOCO13AG00000300000000001132036700000000000000100000000000000000000000002291Z01620200416X066000000
2MAIL0000153586BR10        BRNC        BRNCCOCO    BRNCCOCO13AG00000400000000001132200400000000000000100000000000000000000000002230Z01620200416X066000000
2MAIL0000153586BR10        BRNC        BRNCCOCO    BRNCCOCO13AG00000500000000001231189200000000000000100000000000000000000000005568Z01620200416X066000000
2MAIL0000153586BR10        BRNC        BRNCCOCO    BRNCCOCO13AG00000600000000001236512900000000000000500000000000000000000000001002Z01620200416X066000000
2MAIL0000153586BR10        BRNC        BRNCCOCO    BRNCCOCO13AG00000700000000001236515000000000000000500000000000000000000000001002Z01620200416X066000000
2MAIL0000153586BR10        BRNC        BRNCCOCO    BRNCCOCO13AG00000800000000001238083500000000000000100000000000000000000000005568Z01620200416X066000000
2MAIL0000153586BR10        BRNC        BRNCCOCO    BRNCCOCO13AG00000900000000001239688800000000000001400000000000000000000000005885Z01620200416X066000000
2MAIL0000153586BR10        BRNC        BRNCCOCO    BRNCCOCO13AG00001000000000001241623700000000000000100000000000000000000000002481Z01620200416X066000000
1MAIL0000153587BR10        BRNC        BRNCCOCO    BRNCCOCO13AG2020041600:00:00OR  010000038299660003829966153587                             2020041620200416Z016CIF202004160000000000488579NN0                                                  0                                        
2MAIL0000153587BR10        BRNC        BRNCCOCO    BRNCCOCO13AG00000100000000001132004200000000000002000000000000000000000000026739Z01620200416X066000000
2MAIL0000153587BR10        BRNC        BRNCCOCO    BRNCCOCO13AG00000200000000001226089600000000000003600000000000000000000000012761Z01620200416X066000000
2MAIL0000153587BR10        BRNC        BRNCCOCO    BRNCCOCO13AG00000300000000001241577400000000000045000000000000000000000000362542Z01620200416X066000000
2MAIL0000153587BR10        BRNC        BRNCCOCO    BRNCCOCO13AG00000400000000001241623700000000000004000000000000000000000000086537Z01620200416X066000000
1MAIL0000153588BR10        BRNC        BRNCCOCO    BRNCCOCO13AG2020041600:00:00OR  010000027496390002749639153588                             2020041620200416Z016CIF202004160000000001058507NN0                                                  0                                        
2MAIL0000153588BR10        BRNC        BRNCCOCO    BRNCCOCO13AG00000100000000001132004200000000000002000000000000000000000000026739Z01620200416X066000000
2MAIL0000153588BR10        BRNC        BRNCCOCO    BRNCCOCO13AG00000200000000001226089600000000000003600000000000000000000000012761Z01620200416X066000000
2MAIL0000153588BR10        BRNC        BRNCCOCO    BRNCCOCO13AG00000300000000001241577400000000000105000000000000000000000000845931Z01620200416X066000000
2MAIL0000153588BR10        BRNC        BRNCCOCO    BRNCCOCO13AG00000400000000001241623700000000000008000000000000000000000000173076Z01620200416X066000000
1MAIL0000153590BR10        BRNC        BRNCCOCO    BRNCCOCO13AG2020041600:00:00OR  010000038739810003873981153590                             2020041620200416Z016CIF202004160000000000013743NN0                                                  0                                        
2MAIL0000153590BR10        BRNC        BRNCCOCO    BRNCCOCO13AG00000100000000001132033100000000000000200000000000000000000000004581Z01620200416X066000000
2MAIL0000153590BR10        BRNC        BRNCCOCO    BRNCCOCO13AG00000200000000001132036700000000000000200000000000000000000000004581Z01620200416X066000000
2MAIL0000153590BR10        BRNC        BRNCCOCO    BRNCCOCO13AG00000300000000001215533700000000000000200000000000000000000000004581Z01620200416X066000000
1MAIL0000153592BR10        BRNC        BRNCCOCO    BRNCCOCO13AG2020041600:00:00OR  010000009231330000923133153592                             2020041620200416Z005CIF202004160000000000861008NN0                                                  0                                        
2MAIL0000153592BR10        BRNC        BRNCCOCO    BRNCCOCO13AG00000100000000001241623700000000000040000000000000000000000000861008Z00520200416X066000000
