1MAIL0000150511BR10        BRNC        BRNCCOCO    BRNCCOCO13AG2020032000:00:00OR  010000050433120005043312150511                             2020032020200320Z016CIF202003200000000000006799NN0                                                  0                                        
2MAIL0000150511BR10        BRNC        BRNCCOCO    BRNCCOCO13AG00000100000000001132200400000000000000100000000000000000000000002115Z01620200320X066000000
2MAIL0000150511BR10        BRNC        BRNCCOCO    BRNCCOCO13AG00000200000000001239692100000000000001400000000000000000000000004684Z01620200320X066000000
1MAIL0000150512BR10        BRNC        BRNCCOCO    BRNCCOCO13AG2020032000:00:00OR  010000041421960004142196150512                             2020032020200320Z016CIF202003200000000000042554NN0                                                  0                                        
2MAIL0000150512BR10        BRNC        BRNCCOCO    BRNCCOCO13AG00000100000000001132018300000000000000100000000000000000000000003735Z01620200320X066000000
2MAIL0000150512BR10        BRNC        BRNCCOCO    BRNCCOCO13AG00000200000000001132033100000000000000200000000000000000000000004581Z01620200320X066000000
2MAIL0000150512BR10        BRNC        BRNCCOCO    BRNCCOCO13AG00000300000000001132036700000000000000400000000000000000000000009163Z01620200320X066000000
2MAIL0000150512BR10        BRNC        BRNCCOCO    BRNCCOCO13AG00000400000000001132200400000000000000200000000000000000000000004460Z01620200320X066000000
2MAIL0000150512BR10        BRNC        BRNCCOCO    BRNCCOCO13AG00000500000000001215533700000000000000300000000000000000000000006872Z01620200320X066000000
2MAIL0000150512BR10        BRNC        BRNCCOCO    BRNCCOCO13AG00000600000000001227395500000000000000200000000000000000000000004581Z01620200320X066000000
2MAIL0000150512BR10        BRNC        BRNCCOCO    BRNCCOCO13AG00000700000000001231389600000000000000200000000000000000000000004581Z01620200320X066000000
2MAIL0000150512BR10        BRNC        BRNCCOCO    BRNCCOCO13AG00000800000000001236898000000000000000200000000000000000000000004581Z01620200320X066000000
