1MAIL0000153428BR10        BRNC        BRNCCOCO    BRNCCOCO13AG2020041500:00:00OR  010000056868320005686832153428                             2020041520200415Z016CIF202004150000000000033827NN0                                                  0                                        
2MAIL0000153428BR10        BRNC        BRNCCOCO    BRNCCOCO13AG00000100000000001132036700000000000000200000000000000000000000004345Z01620200415X066000000
2MAIL0000153428BR10        BRNC        BRNCCOCO    BRNCCOCO13AG00000200000000001132200400000000000000100000000000000000000000002115Z01620200415X066000000
2MAIL0000153428BR10        BRNC        BRNCCOCO    BRNCCOCO13AG00000300000000001241577400000000000003000000000000000000000000027367Z01620200415X066000000
1MAIL0000153429BR10        BRNC        BRNCCOCO    BRNCCOCO13AG2020041500:00:00OR  010000031799530003179953153429                             2020041520200415Z016CIF202004150000000000015158NN0                                                  0                                        
2MAIL0000153429BR10        BRNC        BRNCCOCO    BRNCCOCO13AG00000100000000001132200400000000000000500000000000000000000000011150Z01620200415X066000000
2MAIL0000153429BR10        BRNC        BRNCCOCO    BRNCCOCO13AG00000200000000001236512900000000000001000000000000000000000000002004Z01620200415X066000000
2MAIL0000153429BR10        BRNC        BRNCCOCO    BRNCCOCO13AG00000300000000001236515000000000000001000000000000000000000000002004Z01620200415X066000000
1MAIL0000153430BR10        BRNC        BRNCCOCO    BRNCCOCO13AG2020041500:00:00OR  010000040224540004022454153430                             2020041520200415Z005CIF202004150000000000004324NN0                                                  0                                        
2MAIL0000153430BR10        BRNC        BRNCCOCO    BRNCCOCO13AG00000100000000001132036700000000000000200000000000000000000000004324Z00520200415X066000000
1MAIL0000153431BR10        BRNC        BRNCCOCO    BRNCCOCO13AG2020041500:00:00OR  010000056343480005634348153431                             2020041520200415Z016CIF202004150000000000018633NN0                                                  0                                        
2MAIL0000153431BR10        BRNC        BRNCCOCO    BRNCCOCO13AG00000100000000001132033100000000000000100000000000000000000000002291Z01620200415X066000000
2MAIL0000153431BR10        BRNC        BRNCCOCO    BRNCCOCO13AG00000200000000001132036700000000000000100000000000000000000000002291Z01620200415X066000000
2MAIL0000153431BR10        BRNC        BRNCCOCO    BRNCCOCO13AG00000300000000001132200400000000000000100000000000000000000000002230Z01620200415X066000000
2MAIL0000153431BR10        BRNC        BRNCCOCO    BRNCCOCO13AG00000400000000001215533700000000000000100000000000000000000000002291Z01620200415X066000000
2MAIL0000153431BR10        BRNC        BRNCCOCO    BRNCCOCO13AG00000500000000001226089600000000000001200000000000000000000000005045Z01620200415X066000000
2MAIL0000153431BR10        BRNC        BRNCCOCO    BRNCCOCO13AG00000600000000001236512900000000000000500000000000000000000000001002Z01620200415X066000000
2MAIL0000153431BR10        BRNC        BRNCCOCO    BRNCCOCO13AG00000700000000001236515000000000000000500000000000000000000000001002Z01620200415X066000000
2MAIL0000153431BR10        BRNC        BRNCCOCO    BRNCCOCO13AG00000800000000001241623700000000000000100000000000000000000000002481Z01620200415X066000000
1MAIL0000153432BR10        BRNC        BRNCCOCO    BRNCCOCO13AG2020041500:00:00OR  010000052930520005293052153432                             2020041520200415Z016CIF202004150000000000004346NN0                                                  0                                        
2MAIL0000153432BR10        BRNC        BRNCCOCO    BRNCCOCO13AG00000100000000001132033100000000000000100000000000000000000000002173Z01620200415X066000000
2MAIL0000153432BR10        BRNC        BRNCCOCO    BRNCCOCO13AG00000200000000001132036700000000000000100000000000000000000000002173Z01620200415X066000000
1MAIL0000153433BR10        BRNC        BRNCCOCO    BRNCCOCO13AG2020041500:00:00OR  010000061789930006178993153433                             2020041520200415Z016CIF202004150000000000004471NN0                                                  0                                        
2MAIL0000153433BR10        BRNC        BRNCCOCO    BRNCCOCO13AG00000100000000001132200400000000000000100000000000000000000000002230Z01620200415X066000000
2MAIL0000153433BR10        BRNC        BRNCCOCO    BRNCCOCO13AG00000200000000001215533700000000000000100000000000000000000000002241Z01620200415X066000000
1MAIL0000153434BR10        BRNC        BRNCCOCO    BRNCCOCO13AG2020041500:00:00OR  010000042264920004226492153434                             2020041520200415Z016CIF202004150000000000006872NN0                                                  0                                        
2MAIL0000153434BR10        BRNC        BRNCCOCO    BRNCCOCO13AG00000100000000001132036700000000000000200000000000000000000000004581Z01620200415X066000000
2MAIL0000153434BR10        BRNC        BRNCCOCO    BRNCCOCO13AG00000200000000001215533700000000000000100000000000000000000000002291Z01620200415X066000000
1MAIL0000153435BR10        BRNC        BRNCCOCO    BRNCCOCO13AG2020041500:00:00OR  010000050433120005043312153435                             2020041520200415Z016CIF202004150000000000008434NN0                                                  0                                        
2MAIL0000153435BR10        BRNC        BRNCCOCO    BRNCCOCO13AG00000100000000001132019800000000000000100000000000000000000000001498Z01620200415X066000000
2MAIL0000153435BR10        BRNC        BRNCCOCO    BRNCCOCO13AG00000200000000001132019900000000000000100000000000000000000000001498Z01620200415X066000000
2MAIL0000153435BR10        BRNC        BRNCCOCO    BRNCCOCO13AG00000300000000001132020900000000000000100000000000000000000000001498Z01620200415X066000000
2MAIL0000153435BR10        BRNC        BRNCCOCO    BRNCCOCO13AG00000400000000001132036700000000000000100000000000000000000000001654Z01620200415X066000000
2MAIL0000153435BR10        BRNC        BRNCCOCO    BRNCCOCO13AG00000500000000001132400100000000000000100000000000000000000000002286Z01620200415X066000000
1MAIL0000153436BR10        BRNC        BRNCCOCO    BRNCCOCO13AG2020041500:00:00OR  010000032669130003266913153436                             2020041520200415Z016CIF202004150000000000029301NN0                                                  0                                        
2MAIL0000153436BR10        BRNC        BRNCCOCO    BRNCCOCO13AG00000100000000001132036700000000000000400000000000000000000000008692Z01620200415X066000000
2MAIL0000153436BR10        BRNC        BRNCCOCO    BRNCCOCO13AG00000200000000001226089600000000000001200000000000000000000000004580Z01620200415X066000000
2MAIL0000153436BR10        BRNC        BRNCCOCO    BRNCCOCO13AG00000300000000001239663300000000000001400000000000000000000000005343Z01620200415X066000000
2MAIL0000153436BR10        BRNC        BRNCCOCO    BRNCCOCO13AG00000400000000001239688600000000000001400000000000000000000000005343Z01620200415X066000000
2MAIL0000153436BR10        BRNC        BRNCCOCO    BRNCCOCO13AG00000500000000001242754900000000000001400000000000000000000000005343Z01620200415X066000000
1MAIL0000153437BR10        BRNC        BRNCCOCO    BRNCCOCO13AG2020041500:00:00OR  010000032669130003266913153437                             2020041520200415Z016CIF202004150000000000040381NN0                                                  0                                        
2MAIL0000153437BR10        BRNC        BRNCCOCO    BRNCCOCO13AG00000100000000001132004000000000000000100000000000000000000000000989Z01620200415X066003000
2MAIL0000153437BR10        BRNC        BRNCCOCO    BRNCCOCO13AG00000200000000001132018300000000000000100000000000000000000000003436Z01620200415X066003000
2MAIL0000153437BR10        BRNC        BRNCCOCO    BRNCCOCO13AG00000300000000001132019800000000000000100000000000000000000000001908Z01620200415X066003000
2MAIL0000153437BR10        BRNC        BRNCCOCO    BRNCCOCO13AG00000400000000001132034900000000000000100000000000000000000000002104Z01620200415X066005000
2MAIL0000153437BR10        BRNC        BRNCCOCO    BRNCCOCO13AG00000500000000001132036700000000000000100000000000000000000000002108Z01620200415X066003000
2MAIL0000153437BR10        BRNC        BRNCCOCO    BRNCCOCO13AG00000600000000001132200400000000000000100000000000000000000000002052Z01620200415X066003000
2MAIL0000153437BR10        BRNC        BRNCCOCO    BRNCCOCO13AG00000700000000001221415400000000000000100000000000000000000000003436Z01620200415X066003000
2MAIL0000153437BR10        BRNC        BRNCCOCO    BRNCCOCO13AG00000800000000001231231200000000000000100000000000000000000000004924Z01620200415X066003000
2MAIL0000153437BR10        BRNC        BRNCCOCO    BRNCCOCO13AG00000900000000001236512800000000000000400000000000000000000000000670Z01620200415X066003000
2MAIL0000153437BR10        BRNC        BRNCCOCO    BRNCCOCO13AG00001000000000001236512900000000000000500000000000000000000000000881Z01620200415X066003000
2MAIL0000153437BR10        BRNC        BRNCCOCO    BRNCCOCO13AG00001100000000001236515000000000000000500000000000000000000000000881Z01620200415X066003000
2MAIL0000153437BR10        BRNC        BRNCCOCO    BRNCCOCO13AG00001200000000001239688800000000000001400000000000000000000000005183Z01620200415X066003000
2MAIL0000153437BR10        BRNC        BRNCCOCO    BRNCCOCO13AG00001300000000001239692100000000000001400000000000000000000000005183Z01620200415X066003000
2MAIL0000153437BR10        BRNC        BRNCCOCO    BRNCCOCO13AG00001400000000001241577400000000000000500000000000000000000000004116Z01620200415X066005000
2MAIL0000153437BR10        BRNC        BRNCCOCO    BRNCCOCO13AG00001500000000001241623700000000000000100000000000000000000000002510Z01620200415X066003000
1MAIL0000153438BR10        BRNC        BRNCCOCO    BRNCCOCO13AG2020041500:00:00OR  010000060805920006080592153438                             2020041520200415Z016CIF202004150000000000017664NN0                                                  0                                        
2MAIL0000153438BR10        BRNC        BRNCCOCO    BRNCCOCO13AG00000100000000001132019800000000000000100000000000000000000000002076Z01620200415X066000000
2MAIL0000153438BR10        BRNC        BRNCCOCO    BRNCCOCO13AG00000200000000001231231200000000000000100000000000000000000000005568Z01620200415X066000000
2MAIL0000153438BR10        BRNC        BRNCCOCO    BRNCCOCO13AG00000300000000001236512900000000000002500000000000000000000000005010Z01620200415X066000000
2MAIL0000153438BR10        BRNC        BRNCCOCO    BRNCCOCO13AG00000400000000001236515000000000000002500000000000000000000000005010Z01620200415X066000000
1MAIL0000153440BR10        BRNC        BRNCCOCO    BRNCCOCO13AG2020041500:00:00OR  010000037572940003757294153440                             2020041520200415Z016CIF202004150000000000099819NN0                                                  0                                        
2MAIL0000153440BR10        BRNC        BRNCCOCO    BRNCCOCO13AG00000100000000001132036700000000000003200000000000000000000000073308Z01620200415X066000000
2MAIL0000153440BR10        BRNC        BRNCCOCO    BRNCCOCO13AG00000200000000001132200400000000000001000000000000000000000000022300Z01620200415X066000000
2MAIL0000153440BR10        BRNC        BRNCCOCO    BRNCCOCO13AG00000300000000001235699400000000000001000000000000000000000000004211Z01620200415X066000000
