1MAIL0000151108BR10        BRNC        BRNCCOCO    BRNCCOCO13AG2020032600:00:00OR  010000029799220002979922151108                             2020032620200326Z009CIF202003260000000000035931NN0                                                  0                                        
2MAIL0000151108BR10        BRNC        BRNCCOCO    BRNCCOCO13AG00000100000000001228274000000000000000100000000000000000000000004953Z00920200326X066000000
2MAIL0000151108BR10        BRNC        BRNCCOCO    BRNCCOCO13AG00000200000000001231231200000000000000100000000000000000000000004953Z00920200326X066000000
2MAIL0000151108BR10        BRNC        BRNCCOCO    BRNCCOCO13AG00000300000000001239688300000000000001400000000000000000000000005205Z00920200326X066000000
2MAIL0000151108BR10        BRNC        BRNCCOCO    BRNCCOCO13AG00000400000000001239688600000000000001400000000000000000000000005205Z00920200326X066000000
2MAIL0000151108BR10        BRNC        BRNCCOCO    BRNCCOCO13AG00000500000000001239688800000000000001400000000000000000000000005205Z00920200326X066000000
2MAIL0000151108BR10        BRNC        BRNCCOCO    BRNCCOCO13AG00000600000000001239692100000000000001400000000000000000000000005205Z00920200326X066000000
2MAIL0000151108BR10        BRNC        BRNCCOCO    BRNCCOCO13AG00000700000000001239692300000000000001400000000000000000000000005205Z00920200326X066000000
1MAIL0000151109BR10        BRNC        BRNCCOCO    BRNCCOCO13AG2020032600:00:00OR  010000048858270004885827151109                             2020032620200326Z016CIF202003260000000000010844NN0                                                  0                                        
2MAIL0000151109BR10        BRNC        BRNCCOCO    BRNCCOCO13AG00000100000000001132033100000000000000200000000000000000000000003307Z01620200326X066000000
2MAIL0000151109BR10        BRNC        BRNCCOCO    BRNCCOCO13AG00000200000000001132036700000000000000200000000000000000000000003307Z01620200326X066000000
2MAIL0000151109BR10        BRNC        BRNCCOCO    BRNCCOCO13AG00000300000000001132200400000000000000200000000000000000000000004230Z01620200326X066000000
1MAIL0000151113BR10        BRNC        BRNCCOCO    BRNCCOCO13AG2020032600:00:00OR  010000033398820003339882151113                             2020032620200326Z016CIF202003260000000000064988NN0                                                  0                                        
2MAIL0000151113BR10        BRNC        BRNCCOCO    BRNCCOCO13AG00000100000000001132034900000000000003000000000000000000000000064988Z01620200326X066000000
1MAIL0000151114BR10        BRNC        BRNCCOCO    BRNCCOCO13AG2020032600:00:00OR  010000060235420006023542151114                             2020032620200326Z016CIF202003260000000000015304NN0                                                  0                                        
2MAIL0000151114BR10        BRNC        BRNCCOCO    BRNCCOCO13AG00000100000000001132020900000000000000100000000000000000000000001967Z01620200326X066000000
2MAIL0000151114BR10        BRNC        BRNCCOCO    BRNCCOCO13AG00000200000000001132036700000000000000100000000000000000000000002173Z01620200326X066000000
2MAIL0000151114BR10        BRNC        BRNCCOCO    BRNCCOCO13AG00000300000000001239663300000000000001400000000000000000000000005582Z01620200326X066000000
2MAIL0000151114BR10        BRNC        BRNCCOCO    BRNCCOCO13AG00000400000000001239688600000000000001400000000000000000000000005582Z01620200326X066000000
1MAIL0000151115BR10        BRNC        BRNCCOCO    BRNCCOCO13AG2020032600:00:00OR  010000028602370002860237151115                             2020032620200326Z016CIF202003260000000000033397NN0                                                  0                                        
2MAIL0000151115BR10        BRNC        BRNCCOCO    BRNCCOCO13AG00000100000000001132019800000000000000100000000000000000000000002076Z01620200326X066000000
2MAIL0000151115BR10        BRNC        BRNCCOCO    BRNCCOCO13AG00000200000000001132033100000000000000100000000000000000000000002291Z01620200326X066000000
2MAIL0000151115BR10        BRNC        BRNCCOCO    BRNCCOCO13AG00000300000000001132036700000000000000200000000000000000000000004581Z01620200326X066000000
2MAIL0000151115BR10        BRNC        BRNCCOCO    BRNCCOCO13AG00000400000000001132200400000000000000200000000000000000000000004460Z01620200326X066000000
2MAIL0000151115BR10        BRNC        BRNCCOCO    BRNCCOCO13AG00000500000000001235699800000000000001000000000000000000000000004211Z01620200326X066000000
2MAIL0000151115BR10        BRNC        BRNCCOCO    BRNCCOCO13AG00000600000000001236512900000000000001000000000000000000000000002004Z01620200326X066000000
2MAIL0000151115BR10        BRNC        BRNCCOCO    BRNCCOCO13AG00000700000000001236515000000000000001000000000000000000000000002004Z01620200326X066000000
2MAIL0000151115BR10        BRNC        BRNCCOCO    BRNCCOCO13AG00000800000000001239688800000000000001400000000000000000000000005885Z01620200326X066000000
2MAIL0000151115BR10        BRNC        BRNCCOCO    BRNCCOCO13AG00000900000000001239692100000000000001400000000000000000000000005885Z01620200326X066000000
1MAIL0000151118BR10        BRNC        BRNCCOCO    BRNCCOCO13AG2020032600:00:00OR  010000060223340006022334151118                             2020032620200326Z016CIF202003260000000000046383NN0                                                  0                                        
2MAIL0000151118BR10        BRNC        BRNCCOCO    BRNCCOCO13AG00000100000000001132033100000000000000100000000000000000000000002291Z01620200326X066000000
2MAIL0000151118BR10        BRNC        BRNCCOCO    BRNCCOCO13AG00000200000000001132036700000000000000100000000000000000000000002291Z01620200326X066000000
2MAIL0000151118BR10        BRNC        BRNCCOCO    BRNCCOCO13AG00000300000000001227395500000000000000100000000000000000000000002291Z01620200326X066000000
2MAIL0000151118BR10        BRNC        BRNCCOCO    BRNCCOCO13AG00000400000000001231389600000000000000100000000000000000000000002291Z01620200326X066000000
2MAIL0000151118BR10        BRNC        BRNCCOCO    BRNCCOCO13AG00000500000000001239688800000000000001400000000000000000000000005885Z01620200326X066000000
2MAIL0000151118BR10        BRNC        BRNCCOCO    BRNCCOCO13AG00000600000000001241577400000000000003000000000000000000000000028853Z01620200326X066000000
2MAIL0000151118BR10        BRNC        BRNCCOCO    BRNCCOCO13AG00000700000000001241623700000000000000100000000000000000000000002481Z01620200326X066000000
1MAIL0000151119BR10        BRNC        BRNCCOCO    BRNCCOCO13AG2020032600:00:00OR  010000054661230005466123151119                             2020032620200326Z016CIF202003260000000000076006NN0                                                  0                                        
2MAIL0000151119BR10        BRNC        BRNCCOCO    BRNCCOCO13AG00000100000000001132018300000000000000100000000000000000000000003735Z01620200326X066000000
2MAIL0000151119BR10        BRNC        BRNCCOCO    BRNCCOCO13AG00000200000000001132033100000000000000100000000000000000000000002291Z01620200326X066000000
2MAIL0000151119BR10        BRNC        BRNCCOCO    BRNCCOCO13AG00000300000000001132036700000000000000100000000000000000000000002291Z01620200326X066000000
2MAIL0000151119BR10        BRNC        BRNCCOCO    BRNCCOCO13AG00000400000000001132200400000000000000100000000000000000000000002230Z01620200326X066000000
2MAIL0000151119BR10        BRNC        BRNCCOCO    BRNCCOCO13AG00000500000000001221415400000000000000100000000000000000000000003735Z01620200326X066000000
2MAIL0000151119BR10        BRNC        BRNCCOCO    BRNCCOCO13AG00000600000000001224882700000000000000100000000000000000000000003329Z01620200326X066000000
2MAIL0000151119BR10        BRNC        BRNCCOCO    BRNCCOCO13AG00000700000000001226089600000000000001200000000000000000000000005045Z01620200326X066000000
2MAIL0000151119BR10        BRNC        BRNCCOCO    BRNCCOCO13AG00000800000000001234705700000000000000100000000000000000000000005568Z01620200326X066000000
2MAIL0000151119BR10        BRNC        BRNCCOCO    BRNCCOCO13AG00000900000000001234705800000000000000100000000000000000000000005568Z01620200326X066000000
2MAIL0000151119BR10        BRNC        BRNCCOCO    BRNCCOCO13AG00001000000000001234705900000000000000100000000000000000000000005568Z01620200326X066000000
2MAIL0000151119BR10        BRNC        BRNCCOCO    BRNCCOCO13AG00001100000000001235699700000000000001000000000000000000000000004211Z01620200326X066000000
2MAIL0000151119BR10        BRNC        BRNCCOCO    BRNCCOCO13AG00001200000000001236512900000000000001000000000000000000000000002004Z01620200326X066000000
2MAIL0000151119BR10        BRNC        BRNCCOCO    BRNCCOCO13AG00001300000000001236515000000000000001000000000000000000000000002004Z01620200326X066000000
2MAIL0000151119BR10        BRNC        BRNCCOCO    BRNCCOCO13AG00001400000000001236898100000000000000100000000000000000000000003329Z01620200326X066000000
2MAIL0000151119BR10        BRNC        BRNCCOCO    BRNCCOCO13AG00001500000000001239688600000000000001400000000000000000000000005885Z01620200326X066000000
2MAIL0000151119BR10        BRNC        BRNCCOCO    BRNCCOCO13AG00001600000000001239688800000000000001400000000000000000000000005885Z01620200326X066000000
2MAIL0000151119BR10        BRNC        BRNCCOCO    BRNCCOCO13AG00001700000000001239692100000000000001400000000000000000000000005885Z01620200326X066000000
2MAIL0000151119BR10        BRNC        BRNCCOCO    BRNCCOCO13AG00001800000000001241623700000000000000300000000000000000000000007443Z01620200326X066000000
