1MAIL0000151916BR10        BRNC        BRNCCOCO    BRNCCOCO13AG2020040100:00:00OR  010000048723570004872357151916                             2020040120200401Z016CIF202004010000000000329031NN0                                                  0                                        
2MAIL0000151916BR10        BRNC        BRNCCOCO    BRNCCOCO13AG00000100000000001132018300000000000000100000000000000000000000002873Z01620200401X066000000
2MAIL0000151916BR10        BRNC        BRNCCOCO    BRNCCOCO13AG00000200000000001132019700000000000000200000000000000000000000003193Z01620200401X066000000
2MAIL0000151916BR10        BRNC        BRNCCOCO    BRNCCOCO13AG00000300000000001132019800000000000000200000000000000000000000003193Z01620200401X066000000
2MAIL0000151916BR10        BRNC        BRNCCOCO    BRNCCOCO13AG00000400000000001132019900000000000000100000000000000000000000001597Z01620200401X066000000
2MAIL0000151916BR10        BRNC        BRNCCOCO    BRNCCOCO13AG00000500000000001132020900000000000000100000000000000000000000001597Z01620200401X066000000
2MAIL0000151916BR10        BRNC        BRNCCOCO    BRNCCOCO13AG00000600000000001132033100000000000000800000000000000000000000014104Z01620200401X066000000
2MAIL0000151916BR10        BRNC        BRNCCOCO    BRNCCOCO13AG00000700000000001132036700000000000001600000000000000000000000028207Z01620200401X066000000
2MAIL0000151916BR10        BRNC        BRNCCOCO    BRNCCOCO13AG00000800000000001215533700000000000000800000000000000000000000014104Z01620200401X066000000
2MAIL0000151916BR10        BRNC        BRNCCOCO    BRNCCOCO13AG00000900000000001221415400000000000000400000000000000000000000011491Z01620200401X066000000
2MAIL0000151916BR10        BRNC        BRNCCOCO    BRNCCOCO13AG00001000000000001223975300000000000000100000000000000000000000004118Z01620200401X066000000
2MAIL0000151916BR10        BRNC        BRNCCOCO    BRNCCOCO13AG00001100000000001226089600000000000002400000000000000000000000007407Z01620200401X066000000
2MAIL0000151916BR10        BRNC        BRNCCOCO    BRNCCOCO13AG00001200000000001227395500000000000000800000000000000000000000014104Z01620200401X066000000
2MAIL0000151916BR10        BRNC        BRNCCOCO    BRNCCOCO13AG00001300000000001228274000000000000000200000000000000000000000008236Z01620200401X066000000
2MAIL0000151916BR10        BRNC        BRNCCOCO    BRNCCOCO13AG00001400000000001228512700000000000000200000000000000000000000008236Z01620200401X066000000
2MAIL0000151916BR10        BRNC        BRNCCOCO    BRNCCOCO13AG00001500000000001231189200000000000000200000000000000000000000008236Z01620200401X066000000
2MAIL0000151916BR10        BRNC        BRNCCOCO    BRNCCOCO13AG00001600000000001231231200000000000000200000000000000000000000008236Z01620200401X066000000
2MAIL0000151916BR10        BRNC        BRNCCOCO    BRNCCOCO13AG00001700000000001231233000000000000000200000000000000000000000008236Z01620200401X066000000
2MAIL0000151916BR10        BRNC        BRNCCOCO    BRNCCOCO13AG00001800000000001231389600000000000000800000000000000000000000014104Z01620200401X066000000
2MAIL0000151916BR10        BRNC        BRNCCOCO    BRNCCOCO13AG00001900000000001234705700000000000000200000000000000000000000008236Z01620200401X066000000
2MAIL0000151916BR10        BRNC        BRNCCOCO    BRNCCOCO13AG00002000000000001234705800000000000000100000000000000000000000004118Z01620200401X066000000
2MAIL0000151916BR10        BRNC        BRNCCOCO    BRNCCOCO13AG00002100000000001234705900000000000000100000000000000000000000004118Z01620200401X066000000
2MAIL0000151916BR10        BRNC        BRNCCOCO    BRNCCOCO13AG00002200000000001235699400000000000002000000000000000000000000006187Z01620200401X066000000
2MAIL0000151916BR10        BRNC        BRNCCOCO    BRNCCOCO13AG00002300000000001236512800000000000010400000000000000000000000014850Z01620200401X066000000
2MAIL0000151916BR10        BRNC        BRNCCOCO    BRNCCOCO13AG00002400000000001236512900000000000014000000000000000000000000021043Z01620200401X066000000
2MAIL0000151916BR10        BRNC        BRNCCOCO    BRNCCOCO13AG00002500000000001236515000000000000014000000000000000000000000021043Z01620200401X066000000
2MAIL0000151916BR10        BRNC        BRNCCOCO    BRNCCOCO13AG00002600000000001238083500000000000000100000000000000000000000004118Z01620200401X066000000
2MAIL0000151916BR10        BRNC        BRNCCOCO    BRNCCOCO13AG00002700000000001239373400000000000000100000000000000000000000005142Z01620200401X066000000
2MAIL0000151916BR10        BRNC        BRNCCOCO    BRNCCOCO13AG00002800000000001239688300000000000001400000000000000000000000004321Z01620200401X066000000
2MAIL0000151916BR10        BRNC        BRNCCOCO    BRNCCOCO13AG00002900000000001239688500000000000002800000000000000000000000008642Z01620200401X066000000
2MAIL0000151916BR10        BRNC        BRNCCOCO    BRNCCOCO13AG00003000000000001239688600000000000002800000000000000000000000008642Z01620200401X066000000
2MAIL0000151916BR10        BRNC        BRNCCOCO    BRNCCOCO13AG00003100000000001239688700000000000001400000000000000000000000004321Z01620200401X066000000
2MAIL0000151916BR10        BRNC        BRNCCOCO    BRNCCOCO13AG00003200000000001239688800000000000002800000000000000000000000008642Z01620200401X066000000
2MAIL0000151916BR10        BRNC        BRNCCOCO    BRNCCOCO13AG00003300000000001239692000000000000002800000000000000000000000008642Z01620200401X066000000
2MAIL0000151916BR10        BRNC        BRNCCOCO    BRNCCOCO13AG00003400000000001239692100000000000001400000000000000000000000004321Z01620200401X066000000
2MAIL0000151916BR10        BRNC        BRNCCOCO    BRNCCOCO13AG00003500000000001239692300000000000001400000000000000000000000004321Z01620200401X066000000
2MAIL0000151916BR10        BRNC        BRNCCOCO    BRNCCOCO13AG00003600000000001240924900000000000010400000000000000000000000014292Z01620200401X066000000
2MAIL0000151916BR10        BRNC        BRNCCOCO    BRNCCOCO13AG00003700000000001242374800000000000000100000000000000000000000004118Z01620200401X066000000
2MAIL0000151916BR10        BRNC        BRNCCOCO    BRNCCOCO13AG00003800000000001242626100000000000001400000000000000000000000004321Z01620200401X066000000
2MAIL0000151916BR10        BRNC        BRNCCOCO    BRNCCOCO13AG00003900000000001242765000000000000001400000000000000000000000004321Z01620200401X066000000
