1MAIL0000153196BR10        BRNC        BRNCCOCO    BRNCCOCO13AG2020041400:00:00OR  010000030646100003064610153196                             2020041420200414Z016CIF202004140000000000008793NN0                                                  0                                        
2MAIL0000153196BR10        BRNC        BRNCCOCO    BRNCCOCO13AG00000100000000001132033100000000000000100000000000000000000000002291Z01620200414X066000000
2MAIL0000153196BR10        BRNC        BRNCCOCO    BRNCCOCO13AG00000200000000001132036700000000000000100000000000000000000000002291Z01620200414X066000000
2MAIL0000153196BR10        BRNC        BRNCCOCO    BRNCCOCO13AG00000300000000001235699800000000000001000000000000000000000000004211Z01620200414X066000000
1MAIL0000153197BR10        BRNC        BRNCCOCO    BRNCCOCO13AG2020041400:00:00OR  010000057402940005740294153197                             2020041420200414Z016CIF202004140000000000007063NN0                                                  0                                        
2MAIL0000153197BR10        BRNC        BRNCCOCO    BRNCCOCO13AG00000100000000001132033100000000000000100000000000000000000000002291Z01620200414X066000000
2MAIL0000153197BR10        BRNC        BRNCCOCO    BRNCCOCO13AG00000200000000001132036700000000000000100000000000000000000000002291Z01620200414X066000000
2MAIL0000153197BR10        BRNC        BRNCCOCO    BRNCCOCO13AG00000300000000001241623700000000000000100000000000000000000000002481Z01620200414X066000000
1MAIL0000153198BR10        BRNC        BRNCCOCO    BRNCCOCO13AG2020041400:00:00OR  010000060894950006089495153198                             2020041420200414Z016CIF202004140000000000066139NN0                                                  0                                        
2MAIL0000153198BR10        BRNC        BRNCCOCO    BRNCCOCO13AG00000100000000001132033100000000000000300000000000000000000000006872Z01620200414X066000000
2MAIL0000153198BR10        BRNC        BRNCCOCO    BRNCCOCO13AG00000200000000001132036700000000000000300000000000000000000000006872Z01620200414X066000000
2MAIL0000153198BR10        BRNC        BRNCCOCO    BRNCCOCO13AG00000300000000001215533700000000000000300000000000000000000000006872Z01620200414X066000000
2MAIL0000153198BR10        BRNC        BRNCCOCO    BRNCCOCO13AG00000400000000001226089600000000000001200000000000000000000000005045Z01620200414X066000000
2MAIL0000153198BR10        BRNC        BRNCCOCO    BRNCCOCO13AG00000500000000001236515000000000000003500000000000000000000000007014Z01620200414X066000000
2MAIL0000153198BR10        BRNC        BRNCCOCO    BRNCCOCO13AG00000600000000001239663300000000000001400000000000000000000000005885Z01620200414X066000000
2MAIL0000153198BR10        BRNC        BRNCCOCO    BRNCCOCO13AG00000700000000001239688600000000000001400000000000000000000000005885Z01620200414X066000000
2MAIL0000153198BR10        BRNC        BRNCCOCO    BRNCCOCO13AG00000800000000001239688800000000000001400000000000000000000000005885Z01620200414X066000000
2MAIL0000153198BR10        BRNC        BRNCCOCO    BRNCCOCO13AG00000900000000001239692000000000000001400000000000000000000000005885Z01620200414X066000000
2MAIL0000153198BR10        BRNC        BRNCCOCO    BRNCCOCO13AG00001000000000001241623700000000000000400000000000000000000000009924Z01620200414X066000000
1MAIL0000153199BR10        BRNC        BRNCCOCO    BRNCCOCO13AG2020041400:00:00OR  010000029247550002924755153199                             2020041420200414Z016CIF202004140000000000055992NN0                                                  0                                        
2MAIL0000153199BR10        BRNC        BRNCCOCO    BRNCCOCO13AG00000100000000001132019800000000000000100000000000000000000000001967Z01620200414X066000000
2MAIL0000153199BR10        BRNC        BRNCCOCO    BRNCCOCO13AG00000200000000001132033100000000000000100000000000000000000000002173Z01620200414X066000000
2MAIL0000153199BR10        BRNC        BRNCCOCO    BRNCCOCO13AG00000300000000001132036700000000000000100000000000000000000000002173Z01620200414X066000000
2MAIL0000153199BR10        BRNC        BRNCCOCO    BRNCCOCO13AG00000400000000001132200400000000000000100000000000000000000000002115Z01620200414X066000000
2MAIL0000153199BR10        BRNC        BRNCCOCO    BRNCCOCO13AG00000500000000001215533700000000000000100000000000000000000000002173Z01620200414X066000000
2MAIL0000153199BR10        BRNC        BRNCCOCO    BRNCCOCO13AG00000600000000001226089600000000000001200000000000000000000000004784Z01620200414X066000000
2MAIL0000153199BR10        BRNC        BRNCCOCO    BRNCCOCO13AG00000700000000001235699800000000000001000000000000000000000000003995Z01620200414X066000000
2MAIL0000153199BR10        BRNC        BRNCCOCO    BRNCCOCO13AG00000800000000001236512800000000000000800000000000000000000000001520Z01620200414X066000000
2MAIL0000153199BR10        BRNC        BRNCCOCO    BRNCCOCO13AG00000900000000001236512900000000000000500000000000000000000000000999Z01620200414X066000000
2MAIL0000153199BR10        BRNC        BRNCCOCO    BRNCCOCO13AG00001000000000001236515000000000000000500000000000000000000000000999Z01620200414X066000000
2MAIL0000153199BR10        BRNC        BRNCCOCO    BRNCCOCO13AG00001100000000001239663300000000000001400000000000000000000000005582Z01620200414X066000000
2MAIL0000153199BR10        BRNC        BRNCCOCO    BRNCCOCO13AG00001200000000001239688600000000000001400000000000000000000000005582Z01620200414X066000000
2MAIL0000153199BR10        BRNC        BRNCCOCO    BRNCCOCO13AG00001300000000001239688800000000000001400000000000000000000000005582Z01620200414X066000000
2MAIL0000153199BR10        BRNC        BRNCCOCO    BRNCCOCO13AG00001400000000001239692100000000000001400000000000000000000000005582Z01620200414X066000000
2MAIL0000153199BR10        BRNC        BRNCCOCO    BRNCCOCO13AG00001500000000001239692300000000000001400000000000000000000000005582Z01620200414X066000000
2MAIL0000153199BR10        BRNC        BRNCCOCO    BRNCCOCO13AG00001600000000001241623700000000000000200000000000000000000000005184Z01620200414X066000000
1MAIL0000153200BR10        BRNC        BRNCCOCO    BRNCCOCO13AG2020041400:00:00OR  010000058523390005852339153200                             2020041420200414Z016CIF202004140000000000010903NN0                                                  0                                        
2MAIL0000153200BR10        BRNC        BRNCCOCO    BRNCCOCO13AG00000100000000001235699700000000000001000000000000000000000000004211Z01620200414X066000000
2MAIL0000153200BR10        BRNC        BRNCCOCO    BRNCCOCO13AG00000200000000001235699800000000000001000000000000000000000000004211Z01620200414X066000000
2MAIL0000153200BR10        BRNC        BRNCCOCO    BRNCCOCO13AG00000300000000001241623700000000000000100000000000000000000000002481Z01620200414X066000000
1MAIL0000153201BR10        BRNC        BRNCCOCO    BRNCCOCO13AG2020041400:00:00OR  010000052155260005215526153201                             2020041420200414Z016CIF202004140000000000052915NN0                                                  0                                        
2MAIL0000153201BR10        BRNC        BRNCCOCO    BRNCCOCO13AG00000100000000001132019700000000000000100000000000000000000000002076Z01620200414X066000000
2MAIL0000153201BR10        BRNC        BRNCCOCO    BRNCCOCO13AG00000200000000001132036700000000000000100000000000000000000000002291Z01620200414X066000000
2MAIL0000153201BR10        BRNC        BRNCCOCO    BRNCCOCO13AG00000300000000001132200400000000000000100000000000000000000000002230Z01620200414X066000000
2MAIL0000153201BR10        BRNC        BRNCCOCO    BRNCCOCO13AG00000400000000001215533700000000000000100000000000000000000000002291Z01620200414X066000000
2MAIL0000153201BR10        BRNC        BRNCCOCO    BRNCCOCO13AG00000500000000001226089600000000000001200000000000000000000000005045Z01620200414X066000000
2MAIL0000153201BR10        BRNC        BRNCCOCO    BRNCCOCO13AG00000600000000001227395500000000000000100000000000000000000000002291Z01620200414X066000000
2MAIL0000153201BR10        BRNC        BRNCCOCO    BRNCCOCO13AG00000700000000001231231200000000000000100000000000000000000000005568Z01620200414X066000000
2MAIL0000153201BR10        BRNC        BRNCCOCO    BRNCCOCO13AG00000800000000001231389600000000000000100000000000000000000000002291Z01620200414X066000000
2MAIL0000153201BR10        BRNC        BRNCCOCO    BRNCCOCO13AG00000900000000001235699800000000000001000000000000000000000000004211Z01620200414X066000000
2MAIL0000153201BR10        BRNC        BRNCCOCO    BRNCCOCO13AG00001000000000001236512900000000000000500000000000000000000000001002Z01620200414X066000000
2MAIL0000153201BR10        BRNC        BRNCCOCO    BRNCCOCO13AG00001100000000001236515000000000000000500000000000000000000000001002Z01620200414X066000000
2MAIL0000153201BR10        BRNC        BRNCCOCO    BRNCCOCO13AG00001200000000001239688600000000000001400000000000000000000000005885Z01620200414X066000000
2MAIL0000153201BR10        BRNC        BRNCCOCO    BRNCCOCO13AG00001300000000001239688800000000000001400000000000000000000000005885Z01620200414X066000000
2MAIL0000153201BR10        BRNC        BRNCCOCO    BRNCCOCO13AG00001400000000001239692100000000000001400000000000000000000000005885Z01620200414X066000000
2MAIL0000153201BR10        BRNC        BRNCCOCO    BRNCCOCO13AG00001500000000001241623700000000000000200000000000000000000000004962Z01620200414X066000000
1MAIL0000153202BR10        BRNC        BRNCCOCO    BRNCCOCO13AG2020041400:00:00OR  010000048153240004815324153202                             2020041420200414Z016CIF202004140000000000038252NN0                                                  0                                        
2MAIL0000153202BR10        BRNC        BRNCCOCO    BRNCCOCO13AG00000100000000001132018300000000000000100000000000000000000000003735Z01620200414X066000000
2MAIL0000153202BR10        BRNC        BRNCCOCO    BRNCCOCO13AG00000200000000001132033100000000000000100000000000000000000000002291Z01620200414X066000000
2MAIL0000153202BR10        BRNC        BRNCCOCO    BRNCCOCO13AG00000300000000001132036700000000000000200000000000000000000000004581Z01620200414X066000000
2MAIL0000153202BR10        BRNC        BRNCCOCO    BRNCCOCO13AG00000400000000001132200400000000000000100000000000000000000000002230Z01620200414X066000000
2MAIL0000153202BR10        BRNC        BRNCCOCO    BRNCCOCO13AG00000500000000001215533700000000000000100000000000000000000000002291Z01620200414X066000000
2MAIL0000153202BR10        BRNC        BRNCCOCO    BRNCCOCO13AG00000600000000001235699800000000000001000000000000000000000000004211Z01620200414X066000000
2MAIL0000153202BR10        BRNC        BRNCCOCO    BRNCCOCO13AG00000700000000001236512900000000000000500000000000000000000000001002Z01620200414X066000000
2MAIL0000153202BR10        BRNC        BRNCCOCO    BRNCCOCO13AG00000800000000001236515000000000000000500000000000000000000000001002Z01620200414X066000000
2MAIL0000153202BR10        BRNC        BRNCCOCO    BRNCCOCO13AG00000900000000001241577400000000000001500000000000000000000000014428Z01620200414X066000000
2MAIL0000153202BR10        BRNC        BRNCCOCO    BRNCCOCO13AG00001000000000001241623700000000000000100000000000000000000000002481Z01620200414X066000000
1MAIL0000153203BR10        BRNC        BRNCCOCO    BRNCCOCO13AG2020041400:00:00OR  010000040342550004034255153203                             2020041420200414Z016CIF202004140000000000008905NN0                                                  0                                        
2MAIL0000153203BR10        BRNC        BRNCCOCO    BRNCCOCO13AG00000100000000001132019800000000000000100000000000000000000000001967Z01620200414X066000000
2MAIL0000153203BR10        BRNC        BRNCCOCO    BRNCCOCO13AG00000200000000001132033100000000000000100000000000000000000000002173Z01620200414X066000000
2MAIL0000153203BR10        BRNC        BRNCCOCO    BRNCCOCO13AG00000300000000001132036700000000000000100000000000000000000000002173Z01620200414X066000000
2MAIL0000153203BR10        BRNC        BRNCCOCO    BRNCCOCO13AG00000400000000001241623700000000000000100000000000000000000000002592Z01620200414X066000000
1MAIL0000153204BR10        BRNC        BRNCCOCO    BRNCCOCO13AG2020041400:00:00OR  010000034721060003472106153204                             2020041420200414Z016CIF202004140000000000078106NN0                                                  0                                        
2MAIL0000153204BR10        BRNC        BRNCCOCO    BRNCCOCO13AG00000100000000001132036700000000000000400000000000000000000000008712Z01620200414X066000000
2MAIL0000153204BR10        BRNC        BRNCCOCO    BRNCCOCO13AG00000200000000001132200400000000000000600000000000000000000000012722Z01620200414X066000000
2MAIL0000153204BR10        BRNC        BRNCCOCO    BRNCCOCO13AG00000300000000001223975300000000000000100000000000000000000000005845Z01620200414X066000000
2MAIL0000153204BR10        BRNC        BRNCCOCO    BRNCCOCO13AG00000400000000001228274000000000000000100000000000000000000000005845Z01620200414X066000000
2MAIL0000153204BR10        BRNC        BRNCCOCO    BRNCCOCO13AG00000500000000001228512700000000000000100000000000000000000000005845Z01620200414X066000000
2MAIL0000153204BR10        BRNC        BRNCCOCO    BRNCCOCO13AG00000600000000001231231200000000000000100000000000000000000000005845Z01620200414X066000000
2MAIL0000153204BR10        BRNC        BRNCCOCO    BRNCCOCO13AG00000700000000001235699800000000000001000000000000000000000000004416Z01620200414X066000000
2MAIL0000153204BR10        BRNC        BRNCCOCO    BRNCCOCO13AG00000800000000001239688500000000000001400000000000000000000000006169Z01620200414X066000000
2MAIL0000153204BR10        BRNC        BRNCCOCO    BRNCCOCO13AG00000900000000001239688700000000000001400000000000000000000000006169Z01620200414X066000000
2MAIL0000153204BR10        BRNC        BRNCCOCO    BRNCCOCO13AG00001000000000001239688800000000000001400000000000000000000000006169Z01620200414X066000000
2MAIL0000153204BR10        BRNC        BRNCCOCO    BRNCCOCO13AG00001100000000001241623700000000000000400000000000000000000000010369Z01620200414X066000000
1MAIL0000153205BR10        BRNC        BRNCCOCO    BRNCCOCO13AG2020041400:00:00OR  010000057245270005724527153205                             2020041420200414Z016CIF202004140000000000004806NN0                                                  0                                        
2MAIL0000153205BR10        BRNC        BRNCCOCO    BRNCCOCO13AG00000100000000001132020900000000000000100000000000000000000000001498Z01620200414X066000000
2MAIL0000153205BR10        BRNC        BRNCCOCO    BRNCCOCO13AG00000200000000001132033100000000000000100000000000000000000000001654Z01620200414X066000000
2MAIL0000153205BR10        BRNC        BRNCCOCO    BRNCCOCO13AG00000300000000001132036700000000000000100000000000000000000000001654Z01620200414X066000000
1MAIL0000153206BR10        BRNC        BRNCCOCO    BRNCCOCO13AG2020041400:00:00OR  010000039846250003984625153206                             2020041420200414Z016CIF202004140000000000008662NN0                                                  0                                        
2MAIL0000153206BR10        BRNC        BRNCCOCO    BRNCCOCO13AG00000100000000001132020900000000000000100000000000000000000000002076Z01620200414X066000000
2MAIL0000153206BR10        BRNC        BRNCCOCO    BRNCCOCO13AG00000200000000001132033100000000000000100000000000000000000000002291Z01620200414X066000000
2MAIL0000153206BR10        BRNC        BRNCCOCO    BRNCCOCO13AG00000300000000001132036700000000000000100000000000000000000000002291Z01620200414X066000000
2MAIL0000153206BR10        BRNC        BRNCCOCO    BRNCCOCO13AG00000400000000001236512900000000000000500000000000000000000000001002Z01620200414X066000000
2MAIL0000153206BR10        BRNC        BRNCCOCO    BRNCCOCO13AG00000500000000001236515000000000000000500000000000000000000000001002Z01620200414X066000000
1MAIL0000153207BR10        BRNC        BRNCCOCO    BRNCCOCO13AG2020041400:00:00OR  010000058228370005822837153207                             2020041420200414Z016CIF202004140000000000046870NN0                                                  0                                        
2MAIL0000153207BR10        BRNC        BRNCCOCO    BRNCCOCO13AG00000100000000001132036700000000000000500000000000000000000000011454Z01620200414X066000000
2MAIL0000153207BR10        BRNC        BRNCCOCO    BRNCCOCO13AG00000200000000001236512900000000000003500000000000000000000000007014Z01620200414X066000000
2MAIL0000153207BR10        BRNC        BRNCCOCO    BRNCCOCO13AG00000300000000001236515000000000000003500000000000000000000000007014Z01620200414X066000000
2MAIL0000153207BR10        BRNC        BRNCCOCO    BRNCCOCO13AG00000400000000001239663300000000000001400000000000000000000000005885Z01620200414X066000000
2MAIL0000153207BR10        BRNC        BRNCCOCO    BRNCCOCO13AG00000500000000001239688800000000000001400000000000000000000000005885Z01620200414X066000000
2MAIL0000153207BR10        BRNC        BRNCCOCO    BRNCCOCO13AG00000600000000001241577400000000000001000000000000000000000000009618Z01620200414X066000000
1MAIL0000153208BR10        BRNC        BRNCCOCO    BRNCCOCO13AG2020041400:00:00OR  010000060246510006024651153208                             2020041420200414Z016CIF202004140000000000006998NN0                                                  0                                        
2MAIL0000153208BR10        BRNC        BRNCCOCO    BRNCCOCO13AG00000100000000001132400100000000000000100000000000000000000000003003Z01620200414X066000000
2MAIL0000153208BR10        BRNC        BRNCCOCO    BRNCCOCO13AG00000200000000001235699800000000000001000000000000000000000000003995Z01620200414X066000000
1MAIL0000153209BR10        BRNC        BRNCCOCO    BRNCCOCO13AG2020041400:00:00OR  010000028790790002879079153209                             2020041420200414Z016CIF202004140000000000040920NN0                                                  0                                        
2MAIL0000153209BR10        BRNC        BRNCCOCO    BRNCCOCO13AG00000100000000001231233000000000000000200000000000000000000000008875Z01620200414X066000000
2MAIL0000153209BR10        BRNC        BRNCCOCO    BRNCCOCO13AG00000200000000001234705700000000000000100000000000000000000000004437Z01620200414X066000000
2MAIL0000153209BR10        BRNC        BRNCCOCO    BRNCCOCO13AG00000300000000001234705900000000000000100000000000000000000000004437Z01620200414X066000000
2MAIL0000153209BR10        BRNC        BRNCCOCO    BRNCCOCO13AG00000400000000001238083500000000000000100000000000000000000000004437Z01620200414X066000000
2MAIL0000153209BR10        BRNC        BRNCCOCO    BRNCCOCO13AG00000500000000001239688300000000000001400000000000000000000000004684Z01620200414X066000000
2MAIL0000153209BR10        BRNC        BRNCCOCO    BRNCCOCO13AG00000600000000001239688500000000000001400000000000000000000000004684Z01620200414X066000000
2MAIL0000153209BR10        BRNC        BRNCCOCO    BRNCCOCO13AG00000700000000001239688800000000000002800000000000000000000000009366Z01620200414X066000000
1MAIL0000153210BR10        BRNC        BRNCCOCO    BRNCCOCO13AG2020041400:00:00OR  010000058052780005805278153210                             2020041420200414Z016CIF202004140000000000005184NN0                                                  0                                        
2MAIL0000153210BR10        BRNC        BRNCCOCO    BRNCCOCO13AG00000100000000001241623700000000000000200000000000000000000000005184Z01620200414X066000000
1MAIL0000153211BR10        BRNC        BRNCCOCO    BRNCCOCO13AG2020041400:00:00OR  010000029136990002913699153211                             2020041420200414Z016CIF202004140000000000021424NN0                                                  0                                        
2MAIL0000153211BR10        BRNC        BRNCCOCO    BRNCCOCO13AG00000100000000001132019900000000000000100000000000000000000000001498Z01620200414X066000000
2MAIL0000153211BR10        BRNC        BRNCCOCO    BRNCCOCO13AG00000200000000001132033100000000000000100000000000000000000000001654Z01620200414X066000000
2MAIL0000153211BR10        BRNC        BRNCCOCO    BRNCCOCO13AG00000300000000001132036700000000000000200000000000000000000000003307Z01620200414X066000000
2MAIL0000153211BR10        BRNC        BRNCCOCO    BRNCCOCO13AG00000400000000001223975300000000000000100000000000000000000000004437Z01620200414X066000000
2MAIL0000153211BR10        BRNC        BRNCCOCO    BRNCCOCO13AG00000500000000001227395500000000000000100000000000000000000000001654Z01620200414X066000000
2MAIL0000153211BR10        BRNC        BRNCCOCO    BRNCCOCO13AG00000600000000001231189200000000000000100000000000000000000000004437Z01620200414X066000000
2MAIL0000153211BR10        BRNC        BRNCCOCO    BRNCCOCO13AG00000700000000001231231200000000000000100000000000000000000000004437Z01620200414X066000000
1MAIL0000153212BR10        BRNC        BRNCCOCO    BRNCCOCO13AG2020041400:00:00OR  010000056844450005684445153212                             2020041420200414Z016CIF202004140000000000070942NN0                                                  0                                        
2MAIL0000153212BR10        BRNC        BRNCCOCO    BRNCCOCO13AG00000100000000001132036700000000000000100000000000000000000000002291Z01620200414X066000000
2MAIL0000153212BR10        BRNC        BRNCCOCO    BRNCCOCO13AG00000200000000001132200400000000000000100000000000000000000000002230Z01620200414X066000000
2MAIL0000153212BR10        BRNC        BRNCCOCO    BRNCCOCO13AG00000300000000001236512900000000000003500000000000000000000000007014Z01620200414X066000000
2MAIL0000153212BR10        BRNC        BRNCCOCO    BRNCCOCO13AG00000400000000001236515000000000000003500000000000000000000000007014Z01620200414X066000000
2MAIL0000153212BR10        BRNC        BRNCCOCO    BRNCCOCO13AG00000500000000001239663300000000000002800000000000000000000000011770Z01620200414X066000000
2MAIL0000153212BR10        BRNC        BRNCCOCO    BRNCCOCO13AG00000600000000001239688600000000000001400000000000000000000000005885Z01620200414X066000000
2MAIL0000153212BR10        BRNC        BRNCCOCO    BRNCCOCO13AG00000700000000001239688800000000000001400000000000000000000000005885Z01620200414X066000000
2MAIL0000153212BR10        BRNC        BRNCCOCO    BRNCCOCO13AG00000800000000001241577400000000000003000000000000000000000000028853Z01620200414X066000000
1MAIL0000153213BR10        BRNC        BRNCCOCO    BRNCCOCO13AG2020041400:00:00OR  010000058227510005822751153213                             2020041420200414Z016CIF202004140000000000004806NN0                                                  0                                        
2MAIL0000153213BR10        BRNC        BRNCCOCO    BRNCCOCO13AG00000100000000001132019800000000000000100000000000000000000000001498Z01620200414X066000000
2MAIL0000153213BR10        BRNC        BRNCCOCO    BRNCCOCO13AG00000200000000001132033100000000000000100000000000000000000000001654Z01620200414X066000000
2MAIL0000153213BR10        BRNC        BRNCCOCO    BRNCCOCO13AG00000300000000001215533700000000000000100000000000000000000000001654Z01620200414X066000000
1MAIL0000153214BR10        BRNC        BRNCCOCO    BRNCCOCO13AG2020041400:00:00OR  010000060148010006014801153214                             2020041420200414Z016CIF202004140000000000060439NN0                                                  0                                        
2MAIL0000153214BR10        BRNC        BRNCCOCO    BRNCCOCO13AG00000100000000001132019700000000000000100000000000000000000000001581Z01620200414X066000000
2MAIL0000153214BR10        BRNC        BRNCCOCO    BRNCCOCO13AG00000200000000001132019800000000000000100000000000000000000000001581Z01620200414X066000000
2MAIL0000153214BR10        BRNC        BRNCCOCO    BRNCCOCO13AG00000300000000001132019900000000000000100000000000000000000000001581Z01620200414X066000000
2MAIL0000153214BR10        BRNC        BRNCCOCO    BRNCCOCO13AG00000400000000001132020900000000000000100000000000000000000000001581Z01620200414X066000000
2MAIL0000153214BR10        BRNC        BRNCCOCO    BRNCCOCO13AG00000500000000001132033100000000000000100000000000000000000000001746Z01620200414X066000000
2MAIL0000153214BR10        BRNC        BRNCCOCO    BRNCCOCO13AG00000600000000001132036700000000000000300000000000000000000000005237Z01620200414X066000000
2MAIL0000153214BR10        BRNC        BRNCCOCO    BRNCCOCO13AG00000700000000001132200400000000000000100000000000000000000000001980Z01620200414X066000000
2MAIL0000153214BR10        BRNC        BRNCCOCO    BRNCCOCO13AG00000800000000001215533700000000000000200000000000000000000000003491Z01620200414X066000000
2MAIL0000153214BR10        BRNC        BRNCCOCO    BRNCCOCO13AG00000900000000001221415400000000000000200000000000000000000000005689Z01620200414X066000000
2MAIL0000153214BR10        BRNC        BRNCCOCO    BRNCCOCO13AG00001000000000001228512700000000000000100000000000000000000000004241Z01620200414X066000000
2MAIL0000153214BR10        BRNC        BRNCCOCO    BRNCCOCO13AG00001100000000001231189200000000000000100000000000000000000000004241Z01620200414X066000000
2MAIL0000153214BR10        BRNC        BRNCCOCO    BRNCCOCO13AG00001200000000001231231200000000000000100000000000000000000000004241Z01620200414X066000000
2MAIL0000153214BR10        BRNC        BRNCCOCO    BRNCCOCO13AG00001300000000001236512800000000000000800000000000000000000000001197Z01620200414X066000000
2MAIL0000153214BR10        BRNC        BRNCCOCO    BRNCCOCO13AG00001400000000001236512900000000000000500000000000000000000000000787Z01620200414X066000000
2MAIL0000153214BR10        BRNC        BRNCCOCO    BRNCCOCO13AG00001500000000001236515000000000000001000000000000000000000000001574Z01620200414X066000000
2MAIL0000153214BR10        BRNC        BRNCCOCO    BRNCCOCO13AG00001600000000001239663300000000000001400000000000000000000000004469Z01620200414X066000000
2MAIL0000153214BR10        BRNC        BRNCCOCO    BRNCCOCO13AG00001700000000001239688300000000000001400000000000000000000000004469Z01620200414X066000000
2MAIL0000153214BR10        BRNC        BRNCCOCO    BRNCCOCO13AG00001800000000001239688600000000000001400000000000000000000000004469Z01620200414X066000000
2MAIL0000153214BR10        BRNC        BRNCCOCO    BRNCCOCO13AG00001900000000001239688800000000000001400000000000000000000000004469Z01620200414X066000000
2MAIL0000153214BR10        BRNC        BRNCCOCO    BRNCCOCO13AG00002000000000001241623700000000000000100000000000000000000000001815Z01620200414X066000000
1MAIL0000153215BR10        BRNC        BRNCCOCO    BRNCCOCO13AG2020041400:00:00OR  010000033283700003328370153215                             2020041420200414Z016CIF202004140000000000032702NN0                                                  0                                        
2MAIL0000153215BR10        BRNC        BRNCCOCO    BRNCCOCO13AG00000100000000001132033100000000000000200000000000000000000000004581Z01620200414X066000000
2MAIL0000153215BR10        BRNC        BRNCCOCO    BRNCCOCO13AG00000200000000001132036700000000000000200000000000000000000000004581Z01620200414X066000000
2MAIL0000153215BR10        BRNC        BRNCCOCO    BRNCCOCO13AG00000300000000001239663300000000000001400000000000000000000000005885Z01620200414X066000000
2MAIL0000153215BR10        BRNC        BRNCCOCO    BRNCCOCO13AG00000400000000001239688600000000000001400000000000000000000000005885Z01620200414X066000000
2MAIL0000153215BR10        BRNC        BRNCCOCO    BRNCCOCO13AG00000500000000001239688800000000000001400000000000000000000000005885Z01620200414X066000000
2MAIL0000153215BR10        BRNC        BRNCCOCO    BRNCCOCO13AG00000600000000001239692100000000000001400000000000000000000000005885Z01620200414X066000000
1MAIL0000153216BR10        BRNC        BRNCCOCO    BRNCCOCO13AG2020041400:00:00OR  010000029799650002979965153216                             2020041420200414Z016CIF202004140000000000630734NN0                                                  0                                        
2MAIL0000153216BR10        BRNC        BRNCCOCO    BRNCCOCO13AG00000100000000001132004000000000000001000000000000000000000000010202Z01620200414X066000000
2MAIL0000153216BR10        BRNC        BRNCCOCO    BRNCCOCO13AG00000200000000001132004200000000000001000000000000000000000000014065Z01620200414X066000000
2MAIL0000153216BR10        BRNC        BRNCCOCO    BRNCCOCO13AG00000300000000001132030800000000000000600000000000000000000000018651Z01620200414X066000000
2MAIL0000153216BR10        BRNC        BRNCCOCO    BRNCCOCO13AG00000400000000001132033100000000000001000000000000000000000000021728Z01620200414X066000000
2MAIL0000153216BR10        BRNC        BRNCCOCO    BRNCCOCO13AG00000500000000001132033900000000000000600000000000000000000000020460Z01620200414X066000000
2MAIL0000153216BR10        BRNC        BRNCCOCO    BRNCCOCO13AG00000600000000001132034900000000000002000000000000000000000000044299Z01620200414X066000000
2MAIL0000153216BR10        BRNC        BRNCCOCO    BRNCCOCO13AG00000700000000001132035000000000000001000000000000000000000000024606Z01620200414X066000000
2MAIL0000153216BR10        BRNC        BRNCCOCO    BRNCCOCO13AG00000800000000001132035100000000000001000000000000000000000000023385Z01620200414X066000000
2MAIL0000153216BR10        BRNC        BRNCCOCO    BRNCCOCO13AG00000900000000001132036700000000000001000000000000000000000000021728Z01620200414X066000000
2MAIL0000153216BR10        BRNC        BRNCCOCO    BRNCCOCO13AG00001000000000001132200400000000000002400000000000000000000000050762Z01620200414X066000000
2MAIL0000153216BR10        BRNC        BRNCCOCO    BRNCCOCO13AG00001100000000001215533700000000000001000000000000000000000000021728Z01620200414X066000000
2MAIL0000153216BR10        BRNC        BRNCCOCO    BRNCCOCO13AG00001200000000001223975300000000000000100000000000000000000000005076Z01620200414X066000000
2MAIL0000153216BR10        BRNC        BRNCCOCO    BRNCCOCO13AG00001300000000001226089600000000000002400000000000000000000000009159Z01620200414X066000000
2MAIL0000153216BR10        BRNC        BRNCCOCO    BRNCCOCO13AG00001400000000001227395500000000000000500000000000000000000000010863Z01620200414X066000000
2MAIL0000153216BR10        BRNC        BRNCCOCO    BRNCCOCO13AG00001500000000001228512700000000000000200000000000000000000000010153Z01620200414X066000000
2MAIL0000153216BR10        BRNC        BRNCCOCO    BRNCCOCO13AG00001600000000001231189200000000000000200000000000000000000000010153Z01620200414X066000000
2MAIL0000153216BR10        BRNC        BRNCCOCO    BRNCCOCO13AG00001700000000001231231200000000000000200000000000000000000000010153Z01620200414X066000000
2MAIL0000153216BR10        BRNC        BRNCCOCO    BRNCCOCO13AG00001800000000001231233000000000000000200000000000000000000000010153Z01620200414X066000000
2MAIL0000153216BR10        BRNC        BRNCCOCO    BRNCCOCO13AG00001900000000001231389600000000000000500000000000000000000000010863Z01620200414X066000000
2MAIL0000153216BR10        BRNC        BRNCCOCO    BRNCCOCO13AG00002000000000001234705700000000000000200000000000000000000000010153Z01620200414X066000000
2MAIL0000153216BR10        BRNC        BRNCCOCO    BRNCCOCO13AG00002100000000001234705800000000000000200000000000000000000000010153Z01620200414X066000000
2MAIL0000153216BR10        BRNC        BRNCCOCO    BRNCCOCO13AG00002200000000001234705900000000000000200000000000000000000000010153Z01620200414X066000000
2MAIL0000153216BR10        BRNC        BRNCCOCO    BRNCCOCO13AG00002300000000001235699400000000000002000000000000000000000000007648Z01620200414X066000000
2MAIL0000153216BR10        BRNC        BRNCCOCO    BRNCCOCO13AG00002400000000001235699700000000000002000000000000000000000000007648Z01620200414X066000000
2MAIL0000153216BR10        BRNC        BRNCCOCO    BRNCCOCO13AG00002500000000001235699800000000000002000000000000000000000000007648Z01620200414X066000000
2MAIL0000153216BR10        BRNC        BRNCCOCO    BRNCCOCO13AG00002600000000001236512800000000000005200000000000000000000000008973Z01620200414X066000000
2MAIL0000153216BR10        BRNC        BRNCCOCO    BRNCCOCO13AG00002700000000001236512900000000000014000000000000000000000000025453Z01620200414X066000000
2MAIL0000153216BR10        BRNC        BRNCCOCO    BRNCCOCO13AG00002800000000001236515000000000000014000000000000000000000000025453Z01620200414X066000000
2MAIL0000153216BR10        BRNC        BRNCCOCO    BRNCCOCO13AG00002900000000001236898000000000000000500000000000000000000000010863Z01620200414X066000000
2MAIL0000153216BR10        BRNC        BRNCCOCO    BRNCCOCO13AG00003000000000001238083500000000000000200000000000000000000000010153Z01620200414X066000000
2MAIL0000153216BR10        BRNC        BRNCCOCO    BRNCCOCO13AG00003100000000001239373400000000000000100000000000000000000000006340Z01620200414X066000000
2MAIL0000153216BR10        BRNC        BRNCCOCO    BRNCCOCO13AG00003200000000001239373500000000000000100000000000000000000000006340Z01620200414X066000000
2MAIL0000153216BR10        BRNC        BRNCCOCO    BRNCCOCO13AG00003300000000001239373600000000000000100000000000000000000000006340Z01620200414X066000000
2MAIL0000153216BR10        BRNC        BRNCCOCO    BRNCCOCO13AG00003400000000001239373700000000000000100000000000000000000000006340Z01620200414X066000000
2MAIL0000153216BR10        BRNC        BRNCCOCO    BRNCCOCO13AG00003500000000001239663300000000000002800000000000000000000000010686Z01620200414X066000000
2MAIL0000153216BR10        BRNC        BRNCCOCO    BRNCCOCO13AG00003600000000001239688300000000000002800000000000000000000000010686Z01620200414X066000000
2MAIL0000153216BR10        BRNC        BRNCCOCO    BRNCCOCO13AG00003700000000001239688500000000000002800000000000000000000000010686Z01620200414X066000000
2MAIL0000153216BR10        BRNC        BRNCCOCO    BRNCCOCO13AG00003800000000001239688600000000000002800000000000000000000000010686Z01620200414X066000000
2MAIL0000153216BR10        BRNC        BRNCCOCO    BRNCCOCO13AG00003900000000001239688700000000000002800000000000000000000000010686Z01620200414X066000000
2MAIL0000153216BR10        BRNC        BRNCCOCO    BRNCCOCO13AG00004000000000001239688800000000000002800000000000000000000000010686Z01620200414X066000000
2MAIL0000153216BR10        BRNC        BRNCCOCO    BRNCCOCO13AG00004100000000001239692000000000000002800000000000000000000000010686Z01620200414X066000000
2MAIL0000153216BR10        BRNC        BRNCCOCO    BRNCCOCO13AG00004200000000001239692100000000000001400000000000000000000000005343Z01620200414X066000000
2MAIL0000153216BR10        BRNC        BRNCCOCO    BRNCCOCO13AG00004300000000001239692300000000000002800000000000000000000000010686Z01620200414X066000000
2MAIL0000153216BR10        BRNC        BRNCCOCO    BRNCCOCO13AG00004400000000001242626100000000000002800000000000000000000000010686Z01620200414X066000000
2MAIL0000153216BR10        BRNC        BRNCCOCO    BRNCCOCO13AG00004500000000001242754900000000000002800000000000000000000000010686Z01620200414X066000000
2MAIL0000153216BR10        BRNC        BRNCCOCO    BRNCCOCO13AG00004600000000001242765000000000000002800000000000000000000000010686Z01620200414X066000000
