1MAIL0000151204BR10        BRNC        BRNCCOCO    BRNCCOCO13AG2020032700:00:00OR  010000031811550003181155151204                             2020032720200327Z016CIF202003270000000000023301NN0                                                  0                                        
2MAIL0000151204BR10        BRNC        BRNCCOCO    BRNCCOCO13AG00000100000000001132019800000000000000100000000000000000000000002076Z01620200327X066000000
2MAIL0000151204BR10        BRNC        BRNCCOCO    BRNCCOCO13AG00000200000000001231231200000000000000100000000000000000000000005568Z01620200327X066000000
2MAIL0000151204BR10        BRNC        BRNCCOCO    BRNCCOCO13AG00000300000000001239688800000000000001400000000000000000000000005885Z01620200327X066000000
2MAIL0000151204BR10        BRNC        BRNCCOCO    BRNCCOCO13AG00000400000000001241577400000000000000500000000000000000000000004810Z01620200327X066000000
2MAIL0000151204BR10        BRNC        BRNCCOCO    BRNCCOCO13AG00000500000000001241623700000000000000200000000000000000000000004962Z01620200327X066000000
1MAIL0000151205BR10        BRNC        BRNCCOCO    BRNCCOCO13AG2020032700:00:00OR  010000029824690002982469151205                             2020032720200327Z016CIF202003270000000000012446NN0                                                  0                                        
2MAIL0000151205BR10        BRNC        BRNCCOCO    BRNCCOCO13AG00000100000000001132019800000000000000100000000000000000000000002076Z01620200327X066000000
2MAIL0000151205BR10        BRNC        BRNCCOCO    BRNCCOCO13AG00000200000000001236512900000000000000500000000000000000000000001002Z01620200327X066000000
2MAIL0000151205BR10        BRNC        BRNCCOCO    BRNCCOCO13AG00000300000000001236515000000000000000500000000000000000000000001002Z01620200327X066000000
2MAIL0000151205BR10        BRNC        BRNCCOCO    BRNCCOCO13AG00000400000000001239688800000000000001400000000000000000000000005885Z01620200327X066000000
2MAIL0000151205BR10        BRNC        BRNCCOCO    BRNCCOCO13AG00000500000000001241623700000000000000100000000000000000000000002481Z01620200327X066000000
1MAIL0000151206BR10        BRNC        BRNCCOCO    BRNCCOCO13AG2020032700:00:00OR  010000057461810005746181151206                             2020032720200327Z016CIF202003270000000000032479NN0                                                  0                                        
2MAIL0000151206BR10        BRNC        BRNCCOCO    BRNCCOCO13AG00000100000000001132019800000000000000100000000000000000000000002076Z01620200327X066000000
2MAIL0000151206BR10        BRNC        BRNCCOCO    BRNCCOCO13AG00000200000000001132020900000000000000100000000000000000000000002076Z01620200327X066000000
2MAIL0000151206BR10        BRNC        BRNCCOCO    BRNCCOCO13AG00000300000000001132033100000000000000100000000000000000000000002291Z01620200327X066000000
2MAIL0000151206BR10        BRNC        BRNCCOCO    BRNCCOCO13AG00000400000000001132036700000000000000100000000000000000000000002291Z01620200327X066000000
2MAIL0000151206BR10        BRNC        BRNCCOCO    BRNCCOCO13AG00000500000000001215533700000000000000100000000000000000000000002291Z01620200327X066000000
2MAIL0000151206BR10        BRNC        BRNCCOCO    BRNCCOCO13AG00000600000000001227395500000000000000100000000000000000000000002291Z01620200327X066000000
2MAIL0000151206BR10        BRNC        BRNCCOCO    BRNCCOCO13AG00000700000000001231389600000000000000100000000000000000000000002291Z01620200327X066000000
2MAIL0000151206BR10        BRNC        BRNCCOCO    BRNCCOCO13AG00000800000000001235699800000000000001000000000000000000000000004211Z01620200327X066000000
2MAIL0000151206BR10        BRNC        BRNCCOCO    BRNCCOCO13AG00000900000000001236512900000000000000500000000000000000000000001002Z01620200327X066000000
2MAIL0000151206BR10        BRNC        BRNCCOCO    BRNCCOCO13AG00001000000000001236515000000000000000500000000000000000000000001002Z01620200327X066000000
2MAIL0000151206BR10        BRNC        BRNCCOCO    BRNCCOCO13AG00001100000000001236898000000000000000100000000000000000000000002291Z01620200327X066000000
2MAIL0000151206BR10        BRNC        BRNCCOCO    BRNCCOCO13AG00001200000000001239688800000000000001400000000000000000000000005885Z01620200327X066000000
2MAIL0000151206BR10        BRNC        BRNCCOCO    BRNCCOCO13AG00001300000000001241623700000000000000100000000000000000000000002481Z01620200327X066000000
1MAIL0000151207BR10        BRNC        BRNCCOCO    BRNCCOCO13AG2020032700:00:00OR  010000029799030002979903151207                             2020032720200327Z016CIF202003270000000000008310NN0                                                  0                                        
2MAIL0000151207BR10        BRNC        BRNCCOCO    BRNCCOCO13AG00000100000000001132019800000000000000100000000000000000000000001967Z01620200327X066000000
2MAIL0000151207BR10        BRNC        BRNCCOCO    BRNCCOCO13AG00000200000000001132033100000000000000200000000000000000000000004345Z01620200327X066000000
2MAIL0000151207BR10        BRNC        BRNCCOCO    BRNCCOCO13AG00000300000000001236512900000000000000500000000000000000000000000999Z01620200327X066000000
2MAIL0000151207BR10        BRNC        BRNCCOCO    BRNCCOCO13AG00000400000000001236515000000000000000500000000000000000000000000999Z01620200327X066000000
1MAIL0000151208BR10        BRNC        BRNCCOCO    BRNCCOCO13AG2020032700:00:00OR  010000040326340004032634151208                             2020032720200327Z016CIF202003270000000000011550NN0                                                  0                                        
2MAIL0000151208BR10        BRNC        BRNCCOCO    BRNCCOCO13AG00000100000000001132036700000000000000100000000000000000000000001856Z01620200327X066000000
2MAIL0000151208BR10        BRNC        BRNCCOCO    BRNCCOCO13AG00000200000000001132200400000000000000100000000000000000000000002105Z01620200327X066000000
2MAIL0000151208BR10        BRNC        BRNCCOCO    BRNCCOCO13AG00000300000000001215533700000000000000100000000000000000000000001856Z01620200327X066000000
2MAIL0000151208BR10        BRNC        BRNCCOCO    BRNCCOCO13AG00000400000000001226089600000000000001200000000000000000000000004073Z01620200327X066000000
2MAIL0000151208BR10        BRNC        BRNCCOCO    BRNCCOCO13AG00000500000000001236512900000000000000500000000000000000000000000830Z01620200327X066000000
2MAIL0000151208BR10        BRNC        BRNCCOCO    BRNCCOCO13AG00000600000000001236515000000000000000500000000000000000000000000830Z01620200327X066000000
1MAIL0000151209BR10        BRNC        BRNCCOCO    BRNCCOCO13AG2020032700:00:00OR  010000040325690004032569151209                             2020032720200327Z016CIF202003270000000000010569NN0                                                  0                                        
2MAIL0000151209BR10        BRNC        BRNCCOCO    BRNCCOCO13AG00000100000000001132036700000000000000100000000000000000000000001856Z01620200327X066000000
2MAIL0000151209BR10        BRNC        BRNCCOCO    BRNCCOCO13AG00000200000000001132200400000000000000100000000000000000000000002105Z01620200327X066000000
2MAIL0000151209BR10        BRNC        BRNCCOCO    BRNCCOCO13AG00000300000000001215533700000000000000100000000000000000000000001856Z01620200327X066000000
2MAIL0000151209BR10        BRNC        BRNCCOCO    BRNCCOCO13AG00000400000000001239688800000000000001400000000000000000000000004752Z01620200327X066000000
1MAIL0000151210BR10        BRNC        BRNCCOCO    BRNCCOCO13AG2020032700:00:00OR  010000040324270004032427151210                             2020032720200327Z016CIF202003270000000000010320NN0                                                  0                                        
2MAIL0000151210BR10        BRNC        BRNCCOCO    BRNCCOCO13AG00000100000000001132033100000000000000100000000000000000000000001856Z01620200327X066000000
2MAIL0000151210BR10        BRNC        BRNCCOCO    BRNCCOCO13AG00000200000000001132036700000000000000100000000000000000000000001856Z01620200327X066000000
2MAIL0000151210BR10        BRNC        BRNCCOCO    BRNCCOCO13AG00000300000000001215533700000000000000100000000000000000000000001856Z01620200327X066000000
2MAIL0000151210BR10        BRNC        BRNCCOCO    BRNCCOCO13AG00000400000000001239688800000000000001400000000000000000000000004752Z01620200327X066000000
1MAIL0000151212BR10        BRNC        BRNCCOCO    BRNCCOCO13AG2020032700:00:00OR  010000052824830005282483151212                             2020032720200327Z016CIF202003270000000000037810NN0                                                  0                                        
2MAIL0000151212BR10        BRNC        BRNCCOCO    BRNCCOCO13AG00000100000000001132019800000000000000100000000000000000000000002076Z01620200327X066000000
2MAIL0000151212BR10        BRNC        BRNCCOCO    BRNCCOCO13AG00000200000000001226089600000000000001200000000000000000000000005045Z01620200327X066000000
2MAIL0000151212BR10        BRNC        BRNCCOCO    BRNCCOCO13AG00000300000000001235699400000000000001000000000000000000000000004211Z01620200327X066000000
2MAIL0000151212BR10        BRNC        BRNCCOCO    BRNCCOCO13AG00000400000000001235699800000000000001000000000000000000000000004211Z01620200327X066000000
2MAIL0000151212BR10        BRNC        BRNCCOCO    BRNCCOCO13AG00000500000000001236512900000000000002000000000000000000000000004008Z01620200327X066000000
2MAIL0000151212BR10        BRNC        BRNCCOCO    BRNCCOCO13AG00000600000000001236515000000000000002000000000000000000000000004008Z01620200327X066000000
2MAIL0000151212BR10        BRNC        BRNCCOCO    BRNCCOCO13AG00000700000000001239663300000000000001400000000000000000000000005885Z01620200327X066000000
2MAIL0000151212BR10        BRNC        BRNCCOCO    BRNCCOCO13AG00000800000000001239688800000000000001400000000000000000000000005885Z01620200327X066000000
2MAIL0000151212BR10        BRNC        BRNCCOCO    BRNCCOCO13AG00000900000000001241623700000000000000100000000000000000000000002481Z01620200327X066000000
