1MAIL0000152938BR10        BRNC        BRNCCOCO    BRNCCOCO13AG2020041300:00:00OR  010000050539330005053933152938                             2020041320200413Z016CIF202004130000000000029886NN0                                                  0                                        
2MAIL0000152938BR10        BRNC        BRNCCOCO    BRNCCOCO13AG00000100000000001132019800000000000000100000000000000000000000002076Z01620200413X066000000
2MAIL0000152938BR10        BRNC        BRNCCOCO    BRNCCOCO13AG00000200000000001132036700000000000000200000000000000000000000004581Z01620200413X066000000
2MAIL0000152938BR10        BRNC        BRNCCOCO    BRNCCOCO13AG00000300000000001231231200000000000000100000000000000000000000005568Z01620200413X066000000
2MAIL0000152938BR10        BRNC        BRNCCOCO    BRNCCOCO13AG00000400000000001236512900000000000000500000000000000000000000001002Z01620200413X066000000
2MAIL0000152938BR10        BRNC        BRNCCOCO    BRNCCOCO13AG00000500000000001236515000000000000000500000000000000000000000001002Z01620200413X066000000
2MAIL0000152938BR10        BRNC        BRNCCOCO    BRNCCOCO13AG00000600000000001239688800000000000001400000000000000000000000005885Z01620200413X066000000
2MAIL0000152938BR10        BRNC        BRNCCOCO    BRNCCOCO13AG00000700000000001241577400000000000000500000000000000000000000004810Z01620200413X066000000
2MAIL0000152938BR10        BRNC        BRNCCOCO    BRNCCOCO13AG00000800000000001241623700000000000000200000000000000000000000004962Z01620200413X066000000
1MAIL0000152939BR10        BRNC        BRNCCOCO    BRNCCOCO13AG2020041300:00:00OR  010000041707060004170706152939                             2020041320200413Z016CIF202004130000000000039642NN0                                                  0                                        
2MAIL0000152939BR10        BRNC        BRNCCOCO    BRNCCOCO13AG00000100000000001132004000000000000000500000000000000000000000005662Z01620200413X066000000
2MAIL0000152939BR10        BRNC        BRNCCOCO    BRNCCOCO13AG00000200000000001132018300000000000000100000000000000000000000003735Z01620200413X066000000
2MAIL0000152939BR10        BRNC        BRNCCOCO    BRNCCOCO13AG00000300000000001132036700000000000000400000000000000000000000009163Z01620200413X066000000
2MAIL0000152939BR10        BRNC        BRNCCOCO    BRNCCOCO13AG00000400000000001221415400000000000000100000000000000000000000003735Z01620200413X066000000
2MAIL0000152939BR10        BRNC        BRNCCOCO    BRNCCOCO13AG00000500000000001235699400000000000001000000000000000000000000004211Z01620200413X066000000
2MAIL0000152939BR10        BRNC        BRNCCOCO    BRNCCOCO13AG00000600000000001236512800000000000000400000000000000000000000000762Z01620200413X066000000
2MAIL0000152939BR10        BRNC        BRNCCOCO    BRNCCOCO13AG00000700000000001236512900000000000000500000000000000000000000001002Z01620200413X066000000
2MAIL0000152939BR10        BRNC        BRNCCOCO    BRNCCOCO13AG00000800000000001236515000000000000001500000000000000000000000003006Z01620200413X066000000
2MAIL0000152939BR10        BRNC        BRNCCOCO    BRNCCOCO13AG00000900000000001239688800000000000001400000000000000000000000005885Z01620200413X066000000
2MAIL0000152939BR10        BRNC        BRNCCOCO    BRNCCOCO13AG00001000000000001241623700000000000000100000000000000000000000002481Z01620200413X066000000
1MAIL0000152940BR10        BRNC        BRNCCOCO    BRNCCOCO13AG2020041300:00:00OR  010000059999520005999952152940                             2020041320200413Z016CIF202004130000000000004295NN0                                                  0                                        
2MAIL0000152940BR10        BRNC        BRNCCOCO    BRNCCOCO13AG00000100000000001132036700000000000000100000000000000000000000002291Z01620200413X066000000
2MAIL0000152940BR10        BRNC        BRNCCOCO    BRNCCOCO13AG00000200000000001236515000000000000001000000000000000000000000002004Z01620200413X066000000
1MAIL0000152941BR10        BRNC        BRNCCOCO    BRNCCOCO13AG2020041300:00:00OR  010000028542630002854263152941                             2020041320200413Z009CIF202004130000000000010124NN0                                                  0                                        
2MAIL0000152941BR10        BRNC        BRNCCOCO    BRNCCOCO13AG00000100000000001132036700000000000000100000000000000000000000002167Z00920200413X066000000
2MAIL0000152941BR10        BRNC        BRNCCOCO    BRNCCOCO13AG00000200000000001236512900000000000001500000000000000000000000002984Z00920200413X066000000
2MAIL0000152941BR10        BRNC        BRNCCOCO    BRNCCOCO13AG00000300000000001236515000000000000002500000000000000000000000004973Z00920200413X066000000
1MAIL0000152942BR10        BRNC        BRNCCOCO    BRNCCOCO13AG2020041300:00:00OR  010000052074900005207490152942                             2020041320200413Z016CIF202004130000000000009162NN0                                                  0                                        
2MAIL0000152942BR10        BRNC        BRNCCOCO    BRNCCOCO13AG00000100000000001132033100000000000000200000000000000000000000004581Z01620200413X066000000
2MAIL0000152942BR10        BRNC        BRNCCOCO    BRNCCOCO13AG00000200000000001132036700000000000000200000000000000000000000004581Z01620200413X066000000
