1MAIL0000151124BR10        BRNC        BRNCCOCO    BRNCCOCO13AG2020032600:00:00OR  010000029822050002982205151124                             2020032620200326Z016CIF202003260000000000060694NN0                                                  0                                        
2MAIL0000151124BR10        BRNC        BRNCCOCO    BRNCCOCO13AG00000100000000001132018300000000000000100000000000000000000000003541Z01620200326X066000000
2MAIL0000151124BR10        BRNC        BRNCCOCO    BRNCCOCO13AG00000200000000001132019800000000000000100000000000000000000000001967Z01620200326X066000000
2MAIL0000151124BR10        BRNC        BRNCCOCO    BRNCCOCO13AG00000300000000001132033100000000000000400000000000000000000000008692Z01620200326X066000000
2MAIL0000151124BR10        BRNC        BRNCCOCO    BRNCCOCO13AG00000400000000001132036700000000000000400000000000000000000000008692Z01620200326X066000000
2MAIL0000151124BR10        BRNC        BRNCCOCO    BRNCCOCO13AG00000500000000001132200400000000000000100000000000000000000000002115Z01620200326X066000000
2MAIL0000151124BR10        BRNC        BRNCCOCO    BRNCCOCO13AG00000600000000001226089600000000000001200000000000000000000000004784Z01620200326X066000000
2MAIL0000151124BR10        BRNC        BRNCCOCO    BRNCCOCO13AG00000700000000001228512700000000000000100000000000000000000000005280Z01620200326X066000000
2MAIL0000151124BR10        BRNC        BRNCCOCO    BRNCCOCO13AG00000800000000001231189200000000000000100000000000000000000000005280Z01620200326X066000000
2MAIL0000151124BR10        BRNC        BRNCCOCO    BRNCCOCO13AG00000900000000001235699800000000000001000000000000000000000000003995Z01620200326X066000000
2MAIL0000151124BR10        BRNC        BRNCCOCO    BRNCCOCO13AG00001000000000001239688600000000000001400000000000000000000000005582Z01620200326X066000000
2MAIL0000151124BR10        BRNC        BRNCCOCO    BRNCCOCO13AG00001100000000001239688800000000000001400000000000000000000000005582Z01620200326X066000000
2MAIL0000151124BR10        BRNC        BRNCCOCO    BRNCCOCO13AG00001200000000001241623700000000000000200000000000000000000000005184Z01620200326X066000000
1MAIL0000151125BR10        BRNC        BRNCCOCO    BRNCCOCO13AG2020032600:00:00OR  010000038804700003880470151125                             2020032620200326Z016CIF202003260000000000043917NN0                                                  0                                        
2MAIL0000151125BR10        BRNC        BRNCCOCO    BRNCCOCO13AG00000100000000001226089600000000000001200000000000000000000000005045Z01620200326X066000000
2MAIL0000151125BR10        BRNC        BRNCCOCO    BRNCCOCO13AG00000200000000001235699800000000000001000000000000000000000000004211Z01620200326X066000000
2MAIL0000151125BR10        BRNC        BRNCCOCO    BRNCCOCO13AG00000300000000001236512800000000000002400000000000000000000000004576Z01620200326X066000000
2MAIL0000151125BR10        BRNC        BRNCCOCO    BRNCCOCO13AG00000400000000001236512900000000000002000000000000000000000000004008Z01620200326X066000000
2MAIL0000151125BR10        BRNC        BRNCCOCO    BRNCCOCO13AG00000500000000001236515000000000000002000000000000000000000000004008Z01620200326X066000000
2MAIL0000151125BR10        BRNC        BRNCCOCO    BRNCCOCO13AG00000600000000001239688600000000000001400000000000000000000000005885Z01620200326X066000000
2MAIL0000151125BR10        BRNC        BRNCCOCO    BRNCCOCO13AG00000700000000001239692100000000000001400000000000000000000000005885Z01620200326X066000000
2MAIL0000151125BR10        BRNC        BRNCCOCO    BRNCCOCO13AG00000800000000001240924900000000000002400000000000000000000000004414Z01620200326X066000000
2MAIL0000151125BR10        BRNC        BRNCCOCO    BRNCCOCO13AG00000900000000001242626100000000000001400000000000000000000000005885Z01620200326X066000000
1MAIL0000151126BR10        BRNC        BRNCCOCO    BRNCCOCO13AG2020032600:00:00OR  010000058179970005817997151126                             2020032620200326Z016CIF202003260000000000027538NN0                                                  0                                        
2MAIL0000151126BR10        BRNC        BRNCCOCO    BRNCCOCO13AG00000100000000001132036700000000000000500000000000000000000000010863Z01620200326X066000000
2MAIL0000151126BR10        BRNC        BRNCCOCO    BRNCCOCO13AG00000200000000001132200400000000000000200000000000000000000000004230Z01620200326X066000000
2MAIL0000151126BR10        BRNC        BRNCCOCO    BRNCCOCO13AG00000300000000001236512900000000000002000000000000000000000000003636Z01620200326X066000000
2MAIL0000151126BR10        BRNC        BRNCCOCO    BRNCCOCO13AG00000400000000001236515000000000000002000000000000000000000000003636Z01620200326X066000000
2MAIL0000151126BR10        BRNC        BRNCCOCO    BRNCCOCO13AG00000500000000001241623700000000000000200000000000000000000000005173Z01620200326X066000000
1MAIL0000151127BR10        BRNC        BRNCCOCO    BRNCCOCO13AG2020032600:00:00OR  010000030648660003064866151127                             2020032620200326Z016CIF202003260000000000019323NN0                                                  0                                        
2MAIL0000151127BR10        BRNC        BRNCCOCO    BRNCCOCO13AG00000100000000001132036700000000000000500000000000000000000000010863Z01620200326X066000000
2MAIL0000151127BR10        BRNC        BRNCCOCO    BRNCCOCO13AG00000200000000001132200400000000000000400000000000000000000000008460Z01620200326X066000000
