1MAIL0000152238BR10        BRNC        BRNCCOCO    BRNCCOCO13AG2020040600:00:00OR  010000060206370006020637152238                             2020040620200406Z016CIF202004060000000000008755NN0                                                  0                                        
2MAIL0000152238BR10        BRNC        BRNCCOCO    BRNCCOCO13AG00000100000000001132036700000000000000100000000000000000000000002291Z01620200406X066000000
2MAIL0000152238BR10        BRNC        BRNCCOCO    BRNCCOCO13AG00000200000000001132200400000000000000200000000000000000000000004460Z01620200406X066000000
2MAIL0000152238BR10        BRNC        BRNCCOCO    BRNCCOCO13AG00000300000000001236512900000000000000500000000000000000000000001002Z01620200406X066000000
2MAIL0000152238BR10        BRNC        BRNCCOCO    BRNCCOCO13AG00000400000000001236515000000000000000500000000000000000000000001002Z01620200406X066000000
1MAIL0000152239BR10        BRNC        BRNCCOCO    BRNCCOCO13AG2020040600:00:00OR  010000039846250003984625152239                             2020040620200406Z016CIF202004060000000000016551NN0                                                  0                                        
2MAIL0000152239BR10        BRNC        BRNCCOCO    BRNCCOCO13AG00000100000000001132020900000000000000100000000000000000000000002076Z01620200406X066000000
2MAIL0000152239BR10        BRNC        BRNCCOCO    BRNCCOCO13AG00000200000000001132033100000000000000100000000000000000000000002291Z01620200406X066000000
2MAIL0000152239BR10        BRNC        BRNCCOCO    BRNCCOCO13AG00000300000000001132036700000000000000100000000000000000000000002291Z01620200406X066000000
2MAIL0000152239BR10        BRNC        BRNCCOCO    BRNCCOCO13AG00000400000000001236512900000000000001000000000000000000000000002004Z01620200406X066000000
2MAIL0000152239BR10        BRNC        BRNCCOCO    BRNCCOCO13AG00000500000000001236515000000000000001000000000000000000000000002004Z01620200406X066000000
2MAIL0000152239BR10        BRNC        BRNCCOCO    BRNCCOCO13AG00000600000000001239688800000000000001400000000000000000000000005885Z01620200406X066000000
1MAIL0000152240BR10        BRNC        BRNCCOCO    BRNCCOCO13AG2020040600:00:00OR  010000060276990006027699152240                             2020040620200406Z016CIF202004060000000000008311NN0                                                  0                                        
2MAIL0000152240BR10        BRNC        BRNCCOCO    BRNCCOCO13AG00000100000000001132020900000000000000100000000000000000000000001967Z01620200406X066000000
2MAIL0000152240BR10        BRNC        BRNCCOCO    BRNCCOCO13AG00000200000000001132033100000000000000100000000000000000000000002173Z01620200406X066000000
2MAIL0000152240BR10        BRNC        BRNCCOCO    BRNCCOCO13AG00000300000000001132036700000000000000100000000000000000000000002173Z01620200406X066000000
2MAIL0000152240BR10        BRNC        BRNCCOCO    BRNCCOCO13AG00000400000000001236512900000000000000500000000000000000000000000999Z01620200406X066000000
2MAIL0000152240BR10        BRNC        BRNCCOCO    BRNCCOCO13AG00000500000000001236515000000000000000500000000000000000000000000999Z01620200406X066000000
1MAIL0000152241BR10        BRNC        BRNCCOCO    BRNCCOCO13AG2020040600:00:00OR  010000057245100005724510152241                             2020040620200406Z016CIF202004060000000000004582NN0                                                  0                                        
2MAIL0000152241BR10        BRNC        BRNCCOCO    BRNCCOCO13AG00000100000000001132033100000000000000100000000000000000000000002291Z01620200406X066000000
2MAIL0000152241BR10        BRNC        BRNCCOCO    BRNCCOCO13AG00000200000000001132036700000000000000100000000000000000000000002291Z01620200406X066000000
1MAIL0000152242BR10        BRNC        BRNCCOCO    BRNCCOCO13AG2020040600:00:00OR  010000029272130002927213152242                             2020040620200406Z016CIF202004060000000000031359NN0                                                  0                                        
2MAIL0000152242BR10        BRNC        BRNCCOCO    BRNCCOCO13AG00000100000000001132033100000000000000100000000000000000000000002241Z01620200406X066000000
2MAIL0000152242BR10        BRNC        BRNCCOCO    BRNCCOCO13AG00000200000000001132036700000000000000100000000000000000000000002241Z01620200406X066000000
2MAIL0000152242BR10        BRNC        BRNCCOCO    BRNCCOCO13AG00000300000000001236512800000000000002000000000000000000000000003729Z01620200406X066000000
2MAIL0000152242BR10        BRNC        BRNCCOCO    BRNCCOCO13AG00000400000000001236512900000000000001500000000000000000000000002940Z01620200406X066000000
2MAIL0000152242BR10        BRNC        BRNCCOCO    BRNCCOCO13AG00000500000000001236515000000000000001500000000000000000000000002940Z01620200406X066000000
2MAIL0000152242BR10        BRNC        BRNCCOCO    BRNCCOCO13AG00000600000000001239688600000000000001400000000000000000000000005756Z01620200406X066000000
2MAIL0000152242BR10        BRNC        BRNCCOCO    BRNCCOCO13AG00000700000000001239688800000000000001400000000000000000000000005756Z01620200406X066000000
2MAIL0000152242BR10        BRNC        BRNCCOCO    BRNCCOCO13AG00000800000000001239692100000000000001400000000000000000000000005756Z01620200406X066000000
1MAIL0000152243BR10        BRNC        BRNCCOCO    BRNCCOCO13AG2020040600:00:00OR  010000029371080002937108152243                             2020040620200406Z016CIF202004060000000000034799NN0                                                  0                                        
2MAIL0000152243BR10        BRNC        BRNCCOCO    BRNCCOCO13AG00000100000000001132034900000000000000500000000000000000000000011650Z01620200406X066000000
2MAIL0000152243BR10        BRNC        BRNCCOCO    BRNCCOCO13AG00000200000000001235699400000000000001000000000000000000000000003995Z01620200406X066000000
2MAIL0000152243BR10        BRNC        BRNCCOCO    BRNCCOCO13AG00000300000000001235699700000000000001000000000000000000000000003995Z01620200406X066000000
2MAIL0000152243BR10        BRNC        BRNCCOCO    BRNCCOCO13AG00000400000000001235699800000000000001000000000000000000000000003995Z01620200406X066000000
2MAIL0000152243BR10        BRNC        BRNCCOCO    BRNCCOCO13AG00000500000000001239688700000000000001400000000000000000000000005582Z01620200406X066000000
2MAIL0000152243BR10        BRNC        BRNCCOCO    BRNCCOCO13AG00000600000000001239688800000000000001400000000000000000000000005582Z01620200406X066000000
1MAIL0000152244BR10        BRNC        BRNCCOCO    BRNCCOCO13AG2020040600:00:00OR  010000047810010004781001152244                             2020040620200406Z005CIF202004060000000000009575NN0                                                  0                                        
2MAIL0000152244BR10        BRNC        BRNCCOCO    BRNCCOCO13AG00000100000000001132033100000000000000100000000000000000000000002161Z00520200406X066000000
2MAIL0000152244BR10        BRNC        BRNCCOCO    BRNCCOCO13AG00000200000000001132036700000000000000100000000000000000000000002161Z00520200406X066000000
2MAIL0000152244BR10        BRNC        BRNCCOCO    BRNCCOCO13AG00000300000000001231231200000000000000100000000000000000000000005253Z00520200406X066000000
1MAIL0000152245BR10        BRNC        BRNCCOCO    BRNCCOCO13AG2020040600:00:00OR  010000053934600005393460152245                             2020040620200406Z016CIF202004060000000000004961NN0                                                  0                                        
2MAIL0000152245BR10        BRNC        BRNCCOCO    BRNCCOCO13AG00000100000000001132033100000000000000100000000000000000000000001654Z01620200406X066000000
2MAIL0000152245BR10        BRNC        BRNCCOCO    BRNCCOCO13AG00000200000000001132036700000000000000200000000000000000000000003307Z01620200406X066000000
1MAIL0000152246BR10        BRNC        BRNCCOCO    BRNCCOCO13AG2020040600:00:00OR  010000045593590004559359152246                             2020040620200406Z016CIF202004060000000000025443NN0                                                  0                                        
2MAIL0000152246BR10        BRNC        BRNCCOCO    BRNCCOCO13AG00000100000000001132033100000000000000100000000000000000000000002291Z01620200406X066000000
2MAIL0000152246BR10        BRNC        BRNCCOCO    BRNCCOCO13AG00000200000000001132036700000000000000200000000000000000000000004581Z01620200406X066000000
2MAIL0000152246BR10        BRNC        BRNCCOCO    BRNCCOCO13AG00000300000000001215533700000000000000200000000000000000000000004581Z01620200406X066000000
2MAIL0000152246BR10        BRNC        BRNCCOCO    BRNCCOCO13AG00000400000000001234705900000000000000100000000000000000000000005568Z01620200406X066000000
2MAIL0000152246BR10        BRNC        BRNCCOCO    BRNCCOCO13AG00000500000000001235699400000000000001000000000000000000000000004211Z01620200406X066000000
2MAIL0000152246BR10        BRNC        BRNCCOCO    BRNCCOCO13AG00000600000000001235699800000000000001000000000000000000000000004211Z01620200406X066000000
