1MAIL0000150396BR10        BRNC        BRNCCOCO    BRNCCOCO13AG2020031900:00:00OR  010000047941870004794187150396                             2020031920200319Z016CIF202003190000000000040580NN0                                                  0                                        
2MAIL0000150396BR10        BRNC        BRNCCOCO    BRNCCOCO13AG00000100000000001132019800000000000000100000000000000000000000002076Z01620200319X066000000
2MAIL0000150396BR10        BRNC        BRNCCOCO    BRNCCOCO13AG00000200000000001132033100000000000000100000000000000000000000002291Z01620200319X066000000
2MAIL0000150396BR10        BRNC        BRNCCOCO    BRNCCOCO13AG00000300000000001132036700000000000000100000000000000000000000002291Z01620200319X066000000
2MAIL0000150396BR10        BRNC        BRNCCOCO    BRNCCOCO13AG00000400000000001231231200000000000000100000000000000000000000005568Z01620200319X066000000
2MAIL0000150396BR10        BRNC        BRNCCOCO    BRNCCOCO13AG00000500000000001236512900000000000000500000000000000000000000001002Z01620200319X066000000
2MAIL0000150396BR10        BRNC        BRNCCOCO    BRNCCOCO13AG00000600000000001236515000000000000000500000000000000000000000001002Z01620200319X066000000
2MAIL0000150396BR10        BRNC        BRNCCOCO    BRNCCOCO13AG00000700000000001239688800000000000001400000000000000000000000005885Z01620200319X066000000
2MAIL0000150396BR10        BRNC        BRNCCOCO    BRNCCOCO13AG00000800000000001239692100000000000001400000000000000000000000005885Z01620200319X066000000
2MAIL0000150396BR10        BRNC        BRNCCOCO    BRNCCOCO13AG00000900000000001241577400000000000001000000000000000000000000009618Z01620200319X066000000
2MAIL0000150396BR10        BRNC        BRNCCOCO    BRNCCOCO13AG00001000000000001241623700000000000000200000000000000000000000004962Z01620200319X066000000
1MAIL0000150397BR10        BRNC        BRNCCOCO    BRNCCOCO13AG2020031900:00:00OR  010000047941870004794187150397                             2020031920200319Z016CIF202003190000000000002291NN0                                                  0                                        
2MAIL0000150397BR10        BRNC        BRNCCOCO    BRNCCOCO13AG00000100000000001132036700000000000000100000000000000000000000002291Z01620200319X066000000
