1MAIL0000152406BR10        BRNC        BRNCCOCO    BRNCCOCO13AG2020040700:00:00OR  010000060888480006088848152406                             2020040720200407Z016CIF202004070000000000015024NN0                                                  0                                        
2MAIL0000152406BR10        BRNC        BRNCCOCO    BRNCCOCO13AG00000100000000001132019800000000000000100000000000000000000000002076Z01620200407X066000000
2MAIL0000152406BR10        BRNC        BRNCCOCO    BRNCCOCO13AG00000200000000001132033100000000000000100000000000000000000000002291Z01620200407X066000000
2MAIL0000152406BR10        BRNC        BRNCCOCO    BRNCCOCO13AG00000300000000001132036700000000000000100000000000000000000000002291Z01620200407X066000000
2MAIL0000152406BR10        BRNC        BRNCCOCO    BRNCCOCO13AG00000400000000001239688800000000000001400000000000000000000000005885Z01620200407X066000000
2MAIL0000152406BR10        BRNC        BRNCCOCO    BRNCCOCO13AG00000500000000001241623700000000000000100000000000000000000000002481Z01620200407X066000000
