1MAIL0000151944BR10        BRNC        BRNCCOCO    BRNCCOCO13AG2020040100:00:00OR  010000029825680002982568151944                             2020040120200401Z016CIF202004010000000000129983NN0                                                  0                                        
2MAIL0000151944BR10        BRNC        BRNCCOCO    BRNCCOCO13AG00000100000000001241577400000000000015000000000000000000000000129983Z01620200401X066000000
1MAIL0000151945BR10        BRNC        BRNCCOCO    BRNCCOCO13AG2020040100:00:00OR  010000041692840004169284151945                             2020040120200401Z016CIF202004010000000000104988NN0                                                  0                                        
2MAIL0000151945BR10        BRNC        BRNCCOCO    BRNCCOCO13AG00000100000000001132018300000000000000400000000000000000000000014165Z01620200401X066000000
2MAIL0000151945BR10        BRNC        BRNCCOCO    BRNCCOCO13AG00000200000000001132033100000000000001000000000000000000000000021728Z01620200401X066000000
2MAIL0000151945BR10        BRNC        BRNCCOCO    BRNCCOCO13AG00000300000000001132036700000000000001200000000000000000000000026073Z01620200401X066000000
2MAIL0000151945BR10        BRNC        BRNCCOCO    BRNCCOCO13AG00000400000000001132200400000000000000500000000000000000000000010575Z01620200401X066000000
2MAIL0000151945BR10        BRNC        BRNCCOCO    BRNCCOCO13AG00000500000000001215533700000000000001000000000000000000000000021728Z01620200401X066000000
2MAIL0000151945BR10        BRNC        BRNCCOCO    BRNCCOCO13AG00000600000000001221415400000000000000200000000000000000000000007083Z01620200401X066000000
2MAIL0000151945BR10        BRNC        BRNCCOCO    BRNCCOCO13AG00000700000000001236515000000000000002000000000000000000000000003636Z01620200401X066000000
1MAIL0000151946BR10        BRNC        BRNCCOCO    BRNCCOCO13AG2020040100:00:00OR  010000028621020002862102151946                             2020040120200401Z016CIF202004010000000000384416NN0                                                  0                                        
2MAIL0000151946BR10        BRNC        BRNCCOCO    BRNCCOCO13AG00000100000000001132004200000000000001500000000000000000000000021098Z01620200401X066000000
2MAIL0000151946BR10        BRNC        BRNCCOCO    BRNCCOCO13AG00000200000000001132019700000000000000400000000000000000000000007872Z01620200401X066000000
2MAIL0000151946BR10        BRNC        BRNCCOCO    BRNCCOCO13AG00000300000000001132019800000000000000400000000000000000000000007872Z01620200401X066000000
2MAIL0000151946BR10        BRNC        BRNCCOCO    BRNCCOCO13AG00000400000000001132019900000000000000400000000000000000000000007872Z01620200401X066000000
2MAIL0000151946BR10        BRNC        BRNCCOCO    BRNCCOCO13AG00000500000000001132020900000000000000400000000000000000000000007872Z01620200401X066000000
2MAIL0000151946BR10        BRNC        BRNCCOCO    BRNCCOCO13AG00000600000000001132033100000000000000600000000000000000000000013036Z01620200401X066000000
2MAIL0000151946BR10        BRNC        BRNCCOCO    BRNCCOCO13AG00000700000000001132033900000000000000400000000000000000000000013640Z01620200401X066000000
2MAIL0000151946BR10        BRNC        BRNCCOCO    BRNCCOCO13AG00000800000000001132034900000000000000500000000000000000000000011074Z01620200401X066000000
2MAIL0000151946BR10        BRNC        BRNCCOCO    BRNCCOCO13AG00000900000000001132035000000000000000500000000000000000000000012302Z01620200401X066000000
2MAIL0000151946BR10        BRNC        BRNCCOCO    BRNCCOCO13AG00001000000000001132035100000000000000500000000000000000000000011693Z01620200401X066000000
2MAIL0000151946BR10        BRNC        BRNCCOCO    BRNCCOCO13AG00001100000000001132036700000000000000600000000000000000000000013036Z01620200401X066000000
2MAIL0000151946BR10        BRNC        BRNCCOCO    BRNCCOCO13AG00001200000000001132200400000000000001200000000000000000000000025381Z01620200401X066000000
2MAIL0000151946BR10        BRNC        BRNCCOCO    BRNCCOCO13AG00001300000000001132400100000000000000200000000000000000000000006006Z01620200401X066000000
2MAIL0000151946BR10        BRNC        BRNCCOCO    BRNCCOCO13AG00001400000000001215533700000000000000600000000000000000000000013036Z01620200401X066000000
2MAIL0000151946BR10        BRNC        BRNCCOCO    BRNCCOCO13AG00001500000000001223975300000000000000200000000000000000000000010153Z01620200401X066000000
2MAIL0000151946BR10        BRNC        BRNCCOCO    BRNCCOCO13AG00001600000000001227395500000000000000600000000000000000000000013036Z01620200401X066000000
2MAIL0000151946BR10        BRNC        BRNCCOCO    BRNCCOCO13AG00001700000000001227735000000000000000400000000000000000000000007872Z01620200401X066000000
2MAIL0000151946BR10        BRNC        BRNCCOCO    BRNCCOCO13AG00001800000000001228274000000000000000200000000000000000000000010153Z01620200401X066000000
2MAIL0000151946BR10        BRNC        BRNCCOCO    BRNCCOCO13AG00001900000000001228512700000000000000200000000000000000000000010153Z01620200401X066000000
2MAIL0000151946BR10        BRNC        BRNCCOCO    BRNCCOCO13AG00002000000000001231189200000000000000200000000000000000000000010153Z01620200401X066000000
2MAIL0000151946BR10        BRNC        BRNCCOCO    BRNCCOCO13AG00002100000000001231231200000000000000200000000000000000000000010153Z01620200401X066000000
2MAIL0000151946BR10        BRNC        BRNCCOCO    BRNCCOCO13AG00002200000000001231233000000000000000200000000000000000000000010153Z01620200401X066000000
2MAIL0000151946BR10        BRNC        BRNCCOCO    BRNCCOCO13AG00002300000000001231389600000000000000600000000000000000000000013036Z01620200401X066000000
2MAIL0000151946BR10        BRNC        BRNCCOCO    BRNCCOCO13AG00002400000000001234705700000000000000200000000000000000000000010153Z01620200401X066000000
2MAIL0000151946BR10        BRNC        BRNCCOCO    BRNCCOCO13AG00002500000000001234705800000000000000200000000000000000000000010153Z01620200401X066000000
2MAIL0000151946BR10        BRNC        BRNCCOCO    BRNCCOCO13AG00002600000000001234705900000000000000200000000000000000000000010153Z01620200401X066000000
2MAIL0000151946BR10        BRNC        BRNCCOCO    BRNCCOCO13AG00002700000000001236898000000000000000600000000000000000000000013036Z01620200401X066000000
2MAIL0000151946BR10        BRNC        BRNCCOCO    BRNCCOCO13AG00002800000000001238083500000000000000200000000000000000000000010153Z01620200401X066000000
2MAIL0000151946BR10        BRNC        BRNCCOCO    BRNCCOCO13AG00002900000000001239663300000000000002800000000000000000000000010686Z01620200401X066000000
2MAIL0000151946BR10        BRNC        BRNCCOCO    BRNCCOCO13AG00003000000000001239688500000000000002800000000000000000000000010686Z01620200401X066000000
2MAIL0000151946BR10        BRNC        BRNCCOCO    BRNCCOCO13AG00003100000000001239688600000000000002800000000000000000000000010686Z01620200401X066000000
2MAIL0000151946BR10        BRNC        BRNCCOCO    BRNCCOCO13AG00003200000000001239688700000000000002800000000000000000000000010686Z01620200401X066000000
2MAIL0000151946BR10        BRNC        BRNCCOCO    BRNCCOCO13AG00003300000000001239688800000000000002800000000000000000000000010686Z01620200401X066000000
2MAIL0000151946BR10        BRNC        BRNCCOCO    BRNCCOCO13AG00003400000000001239692100000000000002800000000000000000000000010686Z01620200401X066000000
1MAIL0000151947BR10        BRNC        BRNCCOCO    BRNCCOCO13AG2020040100:00:00OR  010000060183680006018368151947                             2020040120200401Z016CIF202004010000000000017954NN0                                                  0                                        
2MAIL0000151947BR10        BRNC        BRNCCOCO    BRNCCOCO13AG00000100000000001132036700000000000000100000000000000000000000001856Z01620200401X066000000
2MAIL0000151947BR10        BRNC        BRNCCOCO    BRNCCOCO13AG00000200000000001236512800000000000005200000000000000000000000008203Z01620200401X066000000
2MAIL0000151947BR10        BRNC        BRNCCOCO    BRNCCOCO13AG00000300000000001240924900000000000005200000000000000000000000007895Z01620200401X066000000
1MAIL0000151948BR10        BRNC        BRNCCOCO    BRNCCOCO13AG2020040100:00:00OR  010000054826730005482673151948                             2020040120200401Z016CIF202004010000000000016045NN0                                                  0                                        
2MAIL0000151948BR10        BRNC        BRNCCOCO    BRNCCOCO13AG00000100000000001132036700000000000000100000000000000000000000001759Z01620200401X066000000
2MAIL0000151948BR10        BRNC        BRNCCOCO    BRNCCOCO13AG00000200000000001132200400000000000000100000000000000000000000001995Z01620200401X066000000
2MAIL0000151948BR10        BRNC        BRNCCOCO    BRNCCOCO13AG00000300000000001235699400000000000001000000000000000000000000003554Z01620200401X066000000
2MAIL0000151948BR10        BRNC        BRNCCOCO    BRNCCOCO13AG00000400000000001236512900000000000001000000000000000000000000001440Z01620200401X066000000
2MAIL0000151948BR10        BRNC        BRNCCOCO    BRNCCOCO13AG00000500000000001236515000000000000001000000000000000000000000001440Z01620200401X066000000
2MAIL0000151948BR10        BRNC        BRNCCOCO    BRNCCOCO13AG00000600000000001241577400000000000000500000000000000000000000004031Z01620200401X066000000
2MAIL0000151948BR10        BRNC        BRNCCOCO    BRNCCOCO13AG00000700000000001241623700000000000000100000000000000000000000001826Z01620200401X066000000
1MAIL0000151949BR10        BRNC        BRNCCOCO    BRNCCOCO13AG2020040100:00:00OR  010000028504190002850419151949                             2020040120200401Z016CIF202004010000000000419850NN0                                                  0                                        
2MAIL0000151949BR10        BRNC        BRNCCOCO    BRNCCOCO13AG00000100000000001132034900000000000002000000000000000000000000043326Z01620200401X066000000
2MAIL0000151949BR10        BRNC        BRNCCOCO    BRNCCOCO13AG00000200000000001132036700000000000003200000000000000000000000068001Z01620200401X066000000
2MAIL0000151949BR10        BRNC        BRNCCOCO    BRNCCOCO13AG00000300000000001227395500000000000003200000000000000000000000068001Z01620200401X066000000
2MAIL0000151949BR10        BRNC        BRNCCOCO    BRNCCOCO13AG00000400000000001231389600000000000003200000000000000000000000068001Z01620200401X066000000
2MAIL0000151949BR10        BRNC        BRNCCOCO    BRNCCOCO13AG00000500000000001236898000000000000003200000000000000000000000068001Z01620200401X066000000
2MAIL0000151949BR10        BRNC        BRNCCOCO    BRNCCOCO13AG00000600000000001239663300000000000005600000000000000000000000020904Z01620200401X066000000
2MAIL0000151949BR10        BRNC        BRNCCOCO    BRNCCOCO13AG00000700000000001239688600000000000011200000000000000000000000041808Z01620200401X066000000
2MAIL0000151949BR10        BRNC        BRNCCOCO    BRNCCOCO13AG00000800000000001239692100000000000011200000000000000000000000041808Z01620200401X066000000
1MAIL0000151950BR10        BRNC        BRNCCOCO    BRNCCOCO13AG2020040100:00:00OR  010000009232020000923202151950                             2020040120200401Z016CIF202004010000000000026980NN0                                                  0                                        
2MAIL0000151950BR10        BRNC        BRNCCOCO    BRNCCOCO13AG00000100000000001223975300000000000000100000000000000000000000005076Z01620200401X066000000
2MAIL0000151950BR10        BRNC        BRNCCOCO    BRNCCOCO13AG00000200000000001228274000000000000000100000000000000000000000005076Z01620200401X066000000
2MAIL0000151950BR10        BRNC        BRNCCOCO    BRNCCOCO13AG00000300000000001234705700000000000000200000000000000000000000010153Z01620200401X066000000
2MAIL0000151950BR10        BRNC        BRNCCOCO    BRNCCOCO13AG00000400000000001234705800000000000000100000000000000000000000005076Z01620200401X066000000
2MAIL0000151950BR10        BRNC        BRNCCOCO    BRNCCOCO13AG00000500000000001236512800000000000000400000000000000000000000000690Z01620200401X066000000
2MAIL0000151950BR10        BRNC        BRNCCOCO    BRNCCOCO13AG00000600000000001236515000000000000000500000000000000000000000000909Z01620200401X066000000
1MAIL0000151953BR10        BRNC        BRNCCOCO    BRNCCOCO13AG2020040100:00:00OR  010000056868320005686832151953                             2020040120200401Z016CIF202004010000000000021530NN0                                                  0                                        
2MAIL0000151953BR10        BRNC        BRNCCOCO    BRNCCOCO13AG00000100000000001226089600000000000001200000000000000000000000004784Z01620200401X066000000
2MAIL0000151953BR10        BRNC        BRNCCOCO    BRNCCOCO13AG00000200000000001239688600000000000001400000000000000000000000005582Z01620200401X066000000
2MAIL0000151953BR10        BRNC        BRNCCOCO    BRNCCOCO13AG00000300000000001239692100000000000001400000000000000000000000005582Z01620200401X066000000
2MAIL0000151953BR10        BRNC        BRNCCOCO    BRNCCOCO13AG00000400000000001239692300000000000001400000000000000000000000005582Z01620200401X066000000
1MAIL0000151954BR10        BRNC        BRNCCOCO    BRNCCOCO13AG2020040100:00:00OR  010000057118380005711838151954                             2020040120200401Z016CIF202004010000000000008519NN0                                                  0                                        
2MAIL0000151954BR10        BRNC        BRNCCOCO    BRNCCOCO13AG00000100000000001132019700000000000000100000000000000000000000002076Z01620200401X066000000
2MAIL0000151954BR10        BRNC        BRNCCOCO    BRNCCOCO13AG00000200000000001132019800000000000000100000000000000000000000002076Z01620200401X066000000
2MAIL0000151954BR10        BRNC        BRNCCOCO    BRNCCOCO13AG00000300000000001132036700000000000000100000000000000000000000002291Z01620200401X066000000
2MAIL0000151954BR10        BRNC        BRNCCOCO    BRNCCOCO13AG00000400000000001227735000000000000000100000000000000000000000002076Z01620200401X066000000
