1MAIL0000152846BR10        BRNC        BRNCCOCO    BRNCCOCO13AG2020040900:00:00OR  010000052845640005284564152846                             2020040920200409Z016CIF202004090000000000028808NN0                                                  0                                        
2MAIL0000152846BR10        BRNC        BRNCCOCO    BRNCCOCO13AG00000100000000001132036700000000000000100000000000000000000000002291Z01620200409X066000000
2MAIL0000152846BR10        BRNC        BRNCCOCO    BRNCCOCO13AG00000200000000001215533700000000000000100000000000000000000000002291Z01620200409X066000000
2MAIL0000152846BR10        BRNC        BRNCCOCO    BRNCCOCO13AG00000300000000001226089600000000000001200000000000000000000000005045Z01620200409X066000000
2MAIL0000152846BR10        BRNC        BRNCCOCO    BRNCCOCO13AG00000400000000001236512800000000000000800000000000000000000000001526Z01620200409X066000000
2MAIL0000152846BR10        BRNC        BRNCCOCO    BRNCCOCO13AG00000500000000001239688800000000000001400000000000000000000000005885Z01620200409X066000000
2MAIL0000152846BR10        BRNC        BRNCCOCO    BRNCCOCO13AG00000600000000001239692100000000000001400000000000000000000000005885Z01620200409X066000000
2MAIL0000152846BR10        BRNC        BRNCCOCO    BRNCCOCO13AG00000700000000001239692300000000000001400000000000000000000000005885Z01620200409X066000000
