1MAIL0000152818BR10        BRNC        BRNCCOCO    BRNCCOCO13AG2020040900:00:00OR  010000034710500003471050152818                             2020040920200409Z016CIF202004090000000000052291NN0                                                  0                                        
2MAIL0000152818BR10        BRNC        BRNCCOCO    BRNCCOCO13AG00000100000000001132034900000000000000500000000000000000000000011074Z01620200409X066000000
2MAIL0000152818BR10        BRNC        BRNCCOCO    BRNCCOCO13AG00000200000000001226089600000000000002400000000000000000000000009159Z01620200409X066000000
2MAIL0000152818BR10        BRNC        BRNCCOCO    BRNCCOCO13AG00000300000000001239663300000000000002800000000000000000000000010686Z01620200409X066000000
2MAIL0000152818BR10        BRNC        BRNCCOCO    BRNCCOCO13AG00000400000000001239688600000000000002800000000000000000000000010686Z01620200409X066000000
2MAIL0000152818BR10        BRNC        BRNCCOCO    BRNCCOCO13AG00000500000000001239692100000000000002800000000000000000000000010686Z01620200409X066000000
