1MAIL0000153152BR10        BRNC        BRNCCOCO    BRNCCOCO13AG2020041400:00:00OR  010000034822870003482287153152                             2020041420200414Z016CIF202004140000000000055630NN0                                                  0                                        
2MAIL0000153152BR10        BRNC        BRNCCOCO    BRNCCOCO13AG00000100000000001132019700000000000000100000000000000000000000001924Z01620200414X066000000
2MAIL0000153152BR10        BRNC        BRNCCOCO    BRNCCOCO13AG00000200000000001132019800000000000000100000000000000000000000001924Z01620200414X066000000
2MAIL0000153152BR10        BRNC        BRNCCOCO    BRNCCOCO13AG00000300000000001132020900000000000000100000000000000000000000001924Z01620200414X066000000
2MAIL0000153152BR10        BRNC        BRNCCOCO    BRNCCOCO13AG00000400000000001132033100000000000000200000000000000000000000004250Z01620200414X066000000
2MAIL0000153152BR10        BRNC        BRNCCOCO    BRNCCOCO13AG00000500000000001132036700000000000000500000000000000000000000010625Z01620200414X066000000
2MAIL0000153152BR10        BRNC        BRNCCOCO    BRNCCOCO13AG00000600000000001132200400000000000000500000000000000000000000010575Z01620200414X066000000
2MAIL0000153152BR10        BRNC        BRNCCOCO    BRNCCOCO13AG00000700000000001215533700000000000000200000000000000000000000004250Z01620200414X066000000
2MAIL0000153152BR10        BRNC        BRNCCOCO    BRNCCOCO13AG00000800000000001226089600000000000001200000000000000000000000004480Z01620200414X066000000
2MAIL0000153152BR10        BRNC        BRNCCOCO    BRNCCOCO13AG00000900000000001239688300000000000001400000000000000000000000005226Z01620200414X066000000
2MAIL0000153152BR10        BRNC        BRNCCOCO    BRNCCOCO13AG00001000000000001239688800000000000001400000000000000000000000005226Z01620200414X066000000
2MAIL0000153152BR10        BRNC        BRNCCOCO    BRNCCOCO13AG00001100000000001239692300000000000001400000000000000000000000005226Z01620200414X066000000
1MAIL0000153153BR10        BRNC        BRNCCOCO    BRNCCOCO13AG2020041400:00:00OR  010000056206310005620631153153                             2020041420200414Z016CIF202004140000000000139676NN0                                                  0                                        
2MAIL0000153153BR10        BRNC        BRNCCOCO    BRNCCOCO13AG00000100000000001132033100000000000000500000000000000000000000010863Z01620200414X066000000
2MAIL0000153153BR10        BRNC        BRNCCOCO    BRNCCOCO13AG00000200000000001132036700000000000001000000000000000000000000021728Z01620200414X066000000
2MAIL0000153153BR10        BRNC        BRNCCOCO    BRNCCOCO13AG00000300000000001215533700000000000000500000000000000000000000010863Z01620200414X066000000
2MAIL0000153153BR10        BRNC        BRNCCOCO    BRNCCOCO13AG00000400000000001226089600000000000001200000000000000000000000004580Z01620200414X066000000
2MAIL0000153153BR10        BRNC        BRNCCOCO    BRNCCOCO13AG00000500000000001239688300000000000001400000000000000000000000005343Z01620200414X066000000
2MAIL0000153153BR10        BRNC        BRNCCOCO    BRNCCOCO13AG00000600000000001239688700000000000001400000000000000000000000005343Z01620200414X066000000
2MAIL0000153153BR10        BRNC        BRNCCOCO    BRNCCOCO13AG00000700000000001239688800000000000002800000000000000000000000010686Z01620200414X066000000
2MAIL0000153153BR10        BRNC        BRNCCOCO    BRNCCOCO13AG00000800000000001239692000000000000001400000000000000000000000005343Z01620200414X066000000
2MAIL0000153153BR10        BRNC        BRNCCOCO    BRNCCOCO13AG00000900000000001241577400000000000006000000000000000000000000051993Z01620200414X066000000
2MAIL0000153153BR10        BRNC        BRNCCOCO    BRNCCOCO13AG00001000000000001241623700000000000000500000000000000000000000012934Z01620200414X066000000
1MAIL0000153154BR10        BRNC        BRNCCOCO    BRNCCOCO13AG2020041400:00:00OR  010000029799190002979919153154                             2020041420200414Z016CIF202004140000000000050820NN0                                                  0                                        
2MAIL0000153154BR10        BRNC        BRNCCOCO    BRNCCOCO13AG00000100000000001132004000000000000000500000000000000000000000005102Z01620200414X066000000
2MAIL0000153154BR10        BRNC        BRNCCOCO    BRNCCOCO13AG00000200000000001132019700000000000000100000000000000000000000001967Z01620200414X066000000
2MAIL0000153154BR10        BRNC        BRNCCOCO    BRNCCOCO13AG00000300000000001132019800000000000000100000000000000000000000001967Z01620200414X066000000
2MAIL0000153154BR10        BRNC        BRNCCOCO    BRNCCOCO13AG00000400000000001132020900000000000000100000000000000000000000001967Z01620200414X066000000
2MAIL0000153154BR10        BRNC        BRNCCOCO    BRNCCOCO13AG00000500000000001132200400000000000000500000000000000000000000010575Z01620200414X066000000
2MAIL0000153154BR10        BRNC        BRNCCOCO    BRNCCOCO13AG00000600000000001132400100000000000000200000000000000000000000006006Z01620200414X066000000
2MAIL0000153154BR10        BRNC        BRNCCOCO    BRNCCOCO13AG00000700000000001236512800000000000002400000000000000000000000004142Z01620200414X066000000
2MAIL0000153154BR10        BRNC        BRNCCOCO    BRNCCOCO13AG00000800000000001236512900000000000002500000000000000000000000004545Z01620200414X066000000
2MAIL0000153154BR10        BRNC        BRNCCOCO    BRNCCOCO13AG00000900000000001236515000000000000002500000000000000000000000004545Z01620200414X066000000
2MAIL0000153154BR10        BRNC        BRNCCOCO    BRNCCOCO13AG00001000000000001239688800000000000001400000000000000000000000005343Z01620200414X066000000
2MAIL0000153154BR10        BRNC        BRNCCOCO    BRNCCOCO13AG00001100000000001240924900000000000002800000000000000000000000004661Z01620200414X066000000
1MAIL0000153162BR10        BRNC        BRNCCOCO    BRNCCOCO13AG2020041400:00:00OR  010000036283040003628304153162                             2020041420200414Z016CIF202004140000000000014539NN0                                                  0                                        
2MAIL0000153162BR10        BRNC        BRNCCOCO    BRNCCOCO13AG00000100000000001132004000000000000000500000000000000000000000005662Z01620200414X066000000
2MAIL0000153162BR10        BRNC        BRNCCOCO    BRNCCOCO13AG00000200000000001132036700000000000000100000000000000000000000002291Z01620200414X066000000
2MAIL0000153162BR10        BRNC        BRNCCOCO    BRNCCOCO13AG00000300000000001231389600000000000000100000000000000000000000002291Z01620200414X066000000
2MAIL0000153162BR10        BRNC        BRNCCOCO    BRNCCOCO13AG00000400000000001236515000000000000001000000000000000000000000002004Z01620200414X066000000
2MAIL0000153162BR10        BRNC        BRNCCOCO    BRNCCOCO13AG00000500000000001236898000000000000000100000000000000000000000002291Z01620200414X066000000
1MAIL0000153163BR10        BRNC        BRNCCOCO    BRNCCOCO13AG2020041400:00:00OR  010000038031190003803119153163                             2020041420200414Z016CIF202004140000000000002173NN0                                                  0                                        
2MAIL0000153163BR10        BRNC        BRNCCOCO    BRNCCOCO13AG00000100000000001132036700000000000000100000000000000000000000002173Z01620200414X066000000
1MAIL0000153164BR10        BRNC        BRNCCOCO    BRNCCOCO13AG2020041400:00:00OR  010000057461040005746104153164                             2020041420200414Z016CIF202004140000000000049906NN0                                                  0                                        
2MAIL0000153164BR10        BRNC        BRNCCOCO    BRNCCOCO13AG00000100000000001132019700000000000000100000000000000000000000001967Z01620200414X066000000
2MAIL0000153164BR10        BRNC        BRNCCOCO    BRNCCOCO13AG00000200000000001132019800000000000000100000000000000000000000001967Z01620200414X066000000
2MAIL0000153164BR10        BRNC        BRNCCOCO    BRNCCOCO13AG00000300000000001132019900000000000000100000000000000000000000001967Z01620200414X066000000
2MAIL0000153164BR10        BRNC        BRNCCOCO    BRNCCOCO13AG00000400000000001132033100000000000000100000000000000000000000002173Z01620200414X066000000
2MAIL0000153164BR10        BRNC        BRNCCOCO    BRNCCOCO13AG00000500000000001132036700000000000000100000000000000000000000002173Z01620200414X066000000
2MAIL0000153164BR10        BRNC        BRNCCOCO    BRNCCOCO13AG00000600000000001132400100000000000000100000000000000000000000003003Z01620200414X066000000
2MAIL0000153164BR10        BRNC        BRNCCOCO    BRNCCOCO13AG00000700000000001215533700000000000000100000000000000000000000002173Z01620200414X066000000
2MAIL0000153164BR10        BRNC        BRNCCOCO    BRNCCOCO13AG00000800000000001227395500000000000000100000000000000000000000002173Z01620200414X066000000
2MAIL0000153164BR10        BRNC        BRNCCOCO    BRNCCOCO13AG00000900000000001231389600000000000000100000000000000000000000002173Z01620200414X066000000
2MAIL0000153164BR10        BRNC        BRNCCOCO    BRNCCOCO13AG00001000000000001236512900000000000007000000000000000000000000013982Z01620200414X066000000
2MAIL0000153164BR10        BRNC        BRNCCOCO    BRNCCOCO13AG00001100000000001236515000000000000007000000000000000000000000013982Z01620200414X066000000
2MAIL0000153164BR10        BRNC        BRNCCOCO    BRNCCOCO13AG00001200000000001236898000000000000000100000000000000000000000002173Z01620200414X066000000
1MAIL0000153165BR10        BRNC        BRNCCOCO    BRNCCOCO13AG2020041400:00:00OR  010000050622070005062207153165                             2020041420200414Z016CIF202004140000000000011392NN0                                                  0                                        
2MAIL0000153165BR10        BRNC        BRNCCOCO    BRNCCOCO13AG00000100000000001132033100000000000000200000000000000000000000004581Z01620200414X066000000
2MAIL0000153165BR10        BRNC        BRNCCOCO    BRNCCOCO13AG00000200000000001132036700000000000000200000000000000000000000004581Z01620200414X066000000
2MAIL0000153165BR10        BRNC        BRNCCOCO    BRNCCOCO13AG00000300000000001132200400000000000000100000000000000000000000002230Z01620200414X066000000
1MAIL0000153166BR10        BRNC        BRNCCOCO    BRNCCOCO13AG2020041400:00:00OR  010000052712540005271254153166                             2020041420200414Z016CIF202004140000000000036453NN0                                                  0                                        
2MAIL0000153166BR10        BRNC        BRNCCOCO    BRNCCOCO13AG00000100000000001132019800000000000000100000000000000000000000001498Z01620200414X066000000
2MAIL0000153166BR10        BRNC        BRNCCOCO    BRNCCOCO13AG00000200000000001132033100000000000000200000000000000000000000003307Z01620200414X066000000
2MAIL0000153166BR10        BRNC        BRNCCOCO    BRNCCOCO13AG00000300000000001224882700000000000000500000000000000000000000012017Z01620200414X066000000
2MAIL0000153166BR10        BRNC        BRNCCOCO    BRNCCOCO13AG00000400000000001236512800000000000005200000000000000000000000009387Z01620200414X066000000
2MAIL0000153166BR10        BRNC        BRNCCOCO    BRNCCOCO13AG00000500000000001236512900000000000002000000000000000000000000003826Z01620200414X066000000
2MAIL0000153166BR10        BRNC        BRNCCOCO    BRNCCOCO13AG00000600000000001236515000000000000002000000000000000000000000003826Z01620200414X066000000
2MAIL0000153166BR10        BRNC        BRNCCOCO    BRNCCOCO13AG00000700000000001241623700000000000000100000000000000000000000002592Z01620200414X066000000
1MAIL0000153167BR10        BRNC        BRNCCOCO    BRNCCOCO13AG2020041400:00:00OR  010000059139960005913996153167                             2020041420200414Z016CIF202004140000000000004772NN0                                                  0                                        
2MAIL0000153167BR10        BRNC        BRNCCOCO    BRNCCOCO13AG00000100000000001132036700000000000000100000000000000000000000002291Z01620200414X066000000
2MAIL0000153167BR10        BRNC        BRNCCOCO    BRNCCOCO13AG00000200000000001241623700000000000000100000000000000000000000002481Z01620200414X066000000
1MAIL0000153168BR10        BRNC        BRNCCOCO    BRNCCOCO13AG2020041400:00:00OR  010000046287770004628777153168                             2020041420200414Z016CIF202004140000000000009405NN0                                                  0                                        
2MAIL0000153168BR10        BRNC        BRNCCOCO    BRNCCOCO13AG00000100000000001132030900000000000000200000000000000000000000007114Z01620200414X066000000
2MAIL0000153168BR10        BRNC        BRNCCOCO    BRNCCOCO13AG00000200000000001132036700000000000000100000000000000000000000002291Z01620200414X066000000
