1MAIL0000151180BR10        BRNC        BRNCCOCO    BRNCCOCO13AG2020032700:00:00OR  010000028556410002855641151180                             2020032720200327Z079CIF202003270000000000058262NN0                                                  0                                        
2MAIL0000151180BR10        BRNC        BRNCCOCO    BRNCCOCO13AG00000100000000001132036700000000000000100000000000000000000000002297Z07920200327X066000000
2MAIL0000151180BR10        BRNC        BRNCCOCO    BRNCCOCO13AG00000200000000001223975300000000000000100000000000000000000000005581Z07920200327X066000000
2MAIL0000151180BR10        BRNC        BRNCCOCO    BRNCCOCO13AG00000300000000001228512700000000000000100000000000000000000000005581Z07920200327X066000000
2MAIL0000151180BR10        BRNC        BRNCCOCO    BRNCCOCO13AG00000400000000001231189200000000000000100000000000000000000000005581Z07920200327X066000000
2MAIL0000151180BR10        BRNC        BRNCCOCO    BRNCCOCO13AG00000500000000001231231200000000000000100000000000000000000000005581Z07920200327X066000000
2MAIL0000151180BR10        BRNC        BRNCCOCO    BRNCCOCO13AG00000600000000001231233000000000000000100000000000000000000000005581Z07920200327X066000000
2MAIL0000151180BR10        BRNC        BRNCCOCO    BRNCCOCO13AG00000700000000001236512900000000000007000000000000000000000000014030Z07920200327X066000000
2MAIL0000151180BR10        BRNC        BRNCCOCO    BRNCCOCO13AG00000800000000001236515000000000000007000000000000000000000000014030Z07920200327X066000000
1MAIL0000151181BR10        BRNC        BRNCCOCO    BRNCCOCO13AG2020032700:00:00OR  010000028621220002862122151181                             2020032720200327Z079CIF202003270000000000085639NN0                                                  0                                        
2MAIL0000151181BR10        BRNC        BRNCCOCO    BRNCCOCO13AG00000100000000001132019800000000000000100000000000000000000000002081Z07920200327X066000000
2MAIL0000151181BR10        BRNC        BRNCCOCO    BRNCCOCO13AG00000200000000001132033100000000000000500000000000000000000000011486Z07920200327X066000000
2MAIL0000151181BR10        BRNC        BRNCCOCO    BRNCCOCO13AG00000300000000001132036700000000000000500000000000000000000000011486Z07920200327X066000000
2MAIL0000151181BR10        BRNC        BRNCCOCO    BRNCCOCO13AG00000400000000001215533700000000000000500000000000000000000000011486Z07920200327X066000000
2MAIL0000151181BR10        BRNC        BRNCCOCO    BRNCCOCO13AG00000500000000001227395500000000000000500000000000000000000000011486Z07920200327X066000000
2MAIL0000151181BR10        BRNC        BRNCCOCO    BRNCCOCO13AG00000600000000001235699400000000000001000000000000000000000000004220Z07920200327X066000000
2MAIL0000151181BR10        BRNC        BRNCCOCO    BRNCCOCO13AG00000700000000001235699800000000000001000000000000000000000000004220Z07920200327X066000000
2MAIL0000151181BR10        BRNC        BRNCCOCO    BRNCCOCO13AG00000800000000001236898000000000000000500000000000000000000000011486Z07920200327X066000000
2MAIL0000151181BR10        BRNC        BRNCCOCO    BRNCCOCO13AG00000900000000001239663300000000000001400000000000000000000000005896Z07920200327X066000000
2MAIL0000151181BR10        BRNC        BRNCCOCO    BRNCCOCO13AG00001000000000001239688600000000000001400000000000000000000000005896Z07920200327X066000000
2MAIL0000151181BR10        BRNC        BRNCCOCO    BRNCCOCO13AG00001100000000001239688700000000000001400000000000000000000000005896Z07920200327X066000000
1MAIL0000151182BR10        BRNC        BRNCCOCO    BRNCCOCO13AG2020032700:00:00OR  010000057419960005741996151182                             2020032720200327Z016CIF202003270000000000013562NN0                                                  0                                        
2MAIL0000151182BR10        BRNC        BRNCCOCO    BRNCCOCO13AG00000100000000001132033100000000000000100000000000000000000000002291Z01620200327X066000000
2MAIL0000151182BR10        BRNC        BRNCCOCO    BRNCCOCO13AG00000200000000001132036700000000000000100000000000000000000000002291Z01620200327X066000000
2MAIL0000151182BR10        BRNC        BRNCCOCO    BRNCCOCO13AG00000300000000001235699800000000000001000000000000000000000000004211Z01620200327X066000000
2MAIL0000151182BR10        BRNC        BRNCCOCO    BRNCCOCO13AG00000400000000001236512800000000000001200000000000000000000000002288Z01620200327X066000000
2MAIL0000151182BR10        BRNC        BRNCCOCO    BRNCCOCO13AG00000500000000001241623700000000000000100000000000000000000000002481Z01620200327X066000000
1MAIL0000151183BR10        BRNC        BRNCCOCO    BRNCCOCO13AG2020032700:00:00OR  010000058179810005817981151183                             2020032720200327Z016CIF202003270000000000087050NN0                                                  0                                        
2MAIL0000151183BR10        BRNC        BRNCCOCO    BRNCCOCO13AG00000100000000001132019700000000000000100000000000000000000000002076Z01620200327X066000000
2MAIL0000151183BR10        BRNC        BRNCCOCO    BRNCCOCO13AG00000200000000001132019800000000000000100000000000000000000000002076Z01620200327X066000000
2MAIL0000151183BR10        BRNC        BRNCCOCO    BRNCCOCO13AG00000300000000001132020900000000000000100000000000000000000000002076Z01620200327X066000000
2MAIL0000151183BR10        BRNC        BRNCCOCO    BRNCCOCO13AG00000400000000001226089600000000000001200000000000000000000000005045Z01620200327X066000000
2MAIL0000151183BR10        BRNC        BRNCCOCO    BRNCCOCO13AG00000500000000001228512700000000000000100000000000000000000000005568Z01620200327X066000000
2MAIL0000151183BR10        BRNC        BRNCCOCO    BRNCCOCO13AG00000600000000001231233000000000000000100000000000000000000000005568Z01620200327X066000000
2MAIL0000151183BR10        BRNC        BRNCCOCO    BRNCCOCO13AG00000700000000001236512900000000000007000000000000000000000000014030Z01620200327X066000000
2MAIL0000151183BR10        BRNC        BRNCCOCO    BRNCCOCO13AG00000800000000001236515000000000000007000000000000000000000000014030Z01620200327X066000000
2MAIL0000151183BR10        BRNC        BRNCCOCO    BRNCCOCO13AG00000900000000001239688600000000000001400000000000000000000000005885Z01620200327X066000000
2MAIL0000151183BR10        BRNC        BRNCCOCO    BRNCCOCO13AG00001000000000001239692100000000000001400000000000000000000000005885Z01620200327X066000000
2MAIL0000151183BR10        BRNC        BRNCCOCO    BRNCCOCO13AG00001100000000001241623700000000000001000000000000000000000000024811Z01620200327X066000000
1MAIL0000151184BR10        BRNC        BRNCCOCO    BRNCCOCO13AG2020032700:00:00OR  010000034867890003486789151184                             2020032720200327Z016CIF202003270000000000060280NN0                                                  0                                        
2MAIL0000151184BR10        BRNC        BRNCCOCO    BRNCCOCO13AG00000100000000001132004200000000000000500000000000000000000000007404Z01620200327X066000000
2MAIL0000151184BR10        BRNC        BRNCCOCO    BRNCCOCO13AG00000200000000001132030800000000000000400000000000000000000000013080Z01620200327X066000000
2MAIL0000151184BR10        BRNC        BRNCCOCO    BRNCCOCO13AG00000300000000001132030900000000000000400000000000000000000000013495Z01620200327X066000000
2MAIL0000151184BR10        BRNC        BRNCCOCO    BRNCCOCO13AG00000400000000001132033900000000000000400000000000000000000000014348Z01620200327X066000000
2MAIL0000151184BR10        BRNC        BRNCCOCO    BRNCCOCO13AG00000500000000001132185100000000000000400000000000000000000000011953Z01620200327X066000000
1MAIL0000151185BR10        BRNC        BRNCCOCO    BRNCCOCO13AG2020032700:00:00OR  010000028580770002858077151185                             2020032720200327Z016CIF202003270000000000086225NN0                                                  0                                        
2MAIL0000151185BR10        BRNC        BRNCCOCO    BRNCCOCO13AG00000100000000001132019800000000000000100000000000000000000000001967Z01620200327X066000000
2MAIL0000151185BR10        BRNC        BRNCCOCO    BRNCCOCO13AG00000200000000001132033100000000000000200000000000000000000000004345Z01620200327X066000000
2MAIL0000151185BR10        BRNC        BRNCCOCO    BRNCCOCO13AG00000300000000001132036700000000000000300000000000000000000000006518Z01620200327X066000000
2MAIL0000151185BR10        BRNC        BRNCCOCO    BRNCCOCO13AG00000400000000001132200400000000000000100000000000000000000000002115Z01620200327X066000000
2MAIL0000151185BR10        BRNC        BRNCCOCO    BRNCCOCO13AG00000500000000001215533700000000000000200000000000000000000000004345Z01620200327X066000000
2MAIL0000151185BR10        BRNC        BRNCCOCO    BRNCCOCO13AG00000600000000001227395500000000000000200000000000000000000000004345Z01620200327X066000000
2MAIL0000151185BR10        BRNC        BRNCCOCO    BRNCCOCO13AG00000700000000001236515000000000000000500000000000000000000000000909Z01620200327X066000000
2MAIL0000151185BR10        BRNC        BRNCCOCO    BRNCCOCO13AG00000800000000001236898000000000000000200000000000000000000000004345Z01620200327X066000000
2MAIL0000151185BR10        BRNC        BRNCCOCO    BRNCCOCO13AG00000900000000001239688800000000000001400000000000000000000000005343Z01620200327X066000000
2MAIL0000151185BR10        BRNC        BRNCCOCO    BRNCCOCO13AG00001000000000001241577400000000000006000000000000000000000000051993Z01620200327X066000000
1MAIL0000151186BR10        BRNC        BRNCCOCO    BRNCCOCO13AG2020032700:00:00OR  010000055159760005515976151186                             2020032720200327Z016CIF202003270000000000011642NN0                                                  0                                        
2MAIL0000151186BR10        BRNC        BRNCCOCO    BRNCCOCO13AG00000100000000001132019800000000000000100000000000000000000000002076Z01620200327X066000000
2MAIL0000151186BR10        BRNC        BRNCCOCO    BRNCCOCO13AG00000200000000001132036700000000000000100000000000000000000000002291Z01620200327X066000000
2MAIL0000151186BR10        BRNC        BRNCCOCO    BRNCCOCO13AG00000300000000001132200400000000000000100000000000000000000000002230Z01620200327X066000000
2MAIL0000151186BR10        BRNC        BRNCCOCO    BRNCCOCO13AG00000400000000001226089600000000000001200000000000000000000000005045Z01620200327X066000000
1MAIL0000151187BR10        BRNC        BRNCCOCO    BRNCCOCO13AG2020032700:00:00OR  010000034732940003473294151187                             2020032720200327Z016CIF202003270000000000004650NN0                                                  0                                        
2MAIL0000151187BR10        BRNC        BRNCCOCO    BRNCCOCO13AG00000100000000001132019800000000000000100000000000000000000000001498Z01620200327X066000000
2MAIL0000151187BR10        BRNC        BRNCCOCO    BRNCCOCO13AG00000200000000001132020900000000000000100000000000000000000000001498Z01620200327X066000000
2MAIL0000151187BR10        BRNC        BRNCCOCO    BRNCCOCO13AG00000300000000001132036700000000000000100000000000000000000000001654Z01620200327X066000000
