1MAIL0000152267BR10        BRNC        BRNCCOCO    BRNCCOCO13AG2020040600:00:00OR  010000059993370005999337152267                             2020040620200406Z016CIF202004060000000000006036NN0                                                  0                                        
2MAIL0000152267BR10        BRNC        BRNCCOCO    BRNCCOCO13AG00000100000000001132018300000000000000100000000000000000000000003018Z01620200406X066000000
2MAIL0000152267BR10        BRNC        BRNCCOCO    BRNCCOCO13AG00000200000000001221415400000000000000100000000000000000000000003018Z01620200406X066000000
1MAIL0000152268BR10        BRNC        BRNCCOCO    BRNCCOCO13AG2020040600:00:00OR  010000029863540002986354152268                             2020040620200406Z016CIF202004060000000000060953NN0                                                  0                                        
2MAIL0000152268BR10        BRNC        BRNCCOCO    BRNCCOCO13AG00000100000000001226089600000000000001200000000000000000000000005045Z01620200406X066000000
2MAIL0000152268BR10        BRNC        BRNCCOCO    BRNCCOCO13AG00000200000000001228512700000000000000100000000000000000000000005568Z01620200406X066000000
2MAIL0000152268BR10        BRNC        BRNCCOCO    BRNCCOCO13AG00000300000000001231189200000000000000100000000000000000000000005568Z01620200406X066000000
2MAIL0000152268BR10        BRNC        BRNCCOCO    BRNCCOCO13AG00000400000000001231231200000000000000100000000000000000000000005568Z01620200406X066000000
2MAIL0000152268BR10        BRNC        BRNCCOCO    BRNCCOCO13AG00000500000000001234705700000000000000100000000000000000000000005568Z01620200406X066000000
2MAIL0000152268BR10        BRNC        BRNCCOCO    BRNCCOCO13AG00000600000000001235699400000000000001000000000000000000000000004211Z01620200406X066000000
2MAIL0000152268BR10        BRNC        BRNCCOCO    BRNCCOCO13AG00000700000000001239663300000000000001400000000000000000000000005885Z01620200406X066000000
2MAIL0000152268BR10        BRNC        BRNCCOCO    BRNCCOCO13AG00000800000000001239688600000000000001400000000000000000000000005885Z01620200406X066000000
2MAIL0000152268BR10        BRNC        BRNCCOCO    BRNCCOCO13AG00000900000000001239688800000000000001400000000000000000000000005885Z01620200406X066000000
2MAIL0000152268BR10        BRNC        BRNCCOCO    BRNCCOCO13AG00001000000000001239692000000000000001400000000000000000000000005885Z01620200406X066000000
2MAIL0000152268BR10        BRNC        BRNCCOCO    BRNCCOCO13AG00001100000000001239692300000000000001400000000000000000000000005885Z01620200406X066000000
1MAIL0000152269BR10        BRNC        BRNCCOCO    BRNCCOCO13AG2020040600:00:00OR  010000059886610005988661152269                             2020040620200406Z016CIF202004060000000000004521NN0                                                  0                                        
2MAIL0000152269BR10        BRNC        BRNCCOCO    BRNCCOCO13AG00000100000000001132200400000000000000100000000000000000000000002230Z01620200406X066000000
2MAIL0000152269BR10        BRNC        BRNCCOCO    BRNCCOCO13AG00000200000000001236898000000000000000100000000000000000000000002291Z01620200406X066000000
1MAIL0000152270BR10        BRNC        BRNCCOCO    BRNCCOCO13AG2020040600:00:00OR  010000054855820005485582152270                             2020040620200406Z016CIF202004060000000000006872NN0                                                  0                                        
2MAIL0000152270BR10        BRNC        BRNCCOCO    BRNCCOCO13AG00000100000000001132033100000000000000100000000000000000000000002291Z01620200406X066000000
2MAIL0000152270BR10        BRNC        BRNCCOCO    BRNCCOCO13AG00000200000000001132036700000000000000200000000000000000000000004581Z01620200406X066000000
1MAIL0000152271BR10        BRNC        BRNCCOCO    BRNCCOCO13AG2020040600:00:00OR  010000059999520005999952152271                             2020040620200406Z016CIF202004060000000000009293NN0                                                  0                                        
2MAIL0000152271BR10        BRNC        BRNCCOCO    BRNCCOCO13AG00000100000000001132033100000000000000100000000000000000000000002291Z01620200406X066000000
2MAIL0000152271BR10        BRNC        BRNCCOCO    BRNCCOCO13AG00000200000000001132036700000000000000100000000000000000000000002291Z01620200406X066000000
2MAIL0000152271BR10        BRNC        BRNCCOCO    BRNCCOCO13AG00000300000000001132200400000000000000100000000000000000000000002230Z01620200406X066000000
2MAIL0000152271BR10        BRNC        BRNCCOCO    BRNCCOCO13AG00000400000000001241623700000000000000100000000000000000000000002481Z01620200406X066000000
1MAIL0000152272BR10        BRNC        BRNCCOCO    BRNCCOCO13AG2020040600:00:00OR  010000050774240005077424152272                             2020040620200406Z016CIF202004060000000000026715NN0                                                  0                                        
2MAIL0000152272BR10        BRNC        BRNCCOCO    BRNCCOCO13AG00000100000000001132019700000000000000100000000000000000000000002076Z01620200406X066000000
2MAIL0000152272BR10        BRNC        BRNCCOCO    BRNCCOCO13AG00000200000000001132019800000000000000100000000000000000000000002076Z01620200406X066000000
2MAIL0000152272BR10        BRNC        BRNCCOCO    BRNCCOCO13AG00000300000000001132019900000000000000100000000000000000000000002076Z01620200406X066000000
2MAIL0000152272BR10        BRNC        BRNCCOCO    BRNCCOCO13AG00000400000000001132020900000000000000100000000000000000000000002076Z01620200406X066000000
2MAIL0000152272BR10        BRNC        BRNCCOCO    BRNCCOCO13AG00000500000000001132033100000000000000100000000000000000000000002291Z01620200406X066000000
2MAIL0000152272BR10        BRNC        BRNCCOCO    BRNCCOCO13AG00000600000000001132036700000000000000100000000000000000000000002291Z01620200406X066000000
2MAIL0000152272BR10        BRNC        BRNCCOCO    BRNCCOCO13AG00000700000000001235699400000000000001000000000000000000000000004211Z01620200406X066000000
2MAIL0000152272BR10        BRNC        BRNCCOCO    BRNCCOCO13AG00000800000000001241577400000000000001000000000000000000000000009618Z01620200406X066000000
1MAIL0000152273BR10        BRNC        BRNCCOCO    BRNCCOCO13AG2020040600:00:00OR  010000028557900002855790152273                             2020040620200406Z016CIF202004060000000000020750NN0                                                  0                                        
2MAIL0000152273BR10        BRNC        BRNCCOCO    BRNCCOCO13AG00000100000000001132019700000000000000200000000000000000000000004150Z01620200406X066000000
2MAIL0000152273BR10        BRNC        BRNCCOCO    BRNCCOCO13AG00000200000000001132019800000000000000200000000000000000000000004150Z01620200406X066000000
2MAIL0000152273BR10        BRNC        BRNCCOCO    BRNCCOCO13AG00000300000000001132019900000000000000200000000000000000000000004150Z01620200406X066000000
2MAIL0000152273BR10        BRNC        BRNCCOCO    BRNCCOCO13AG00000400000000001132020900000000000000200000000000000000000000004150Z01620200406X066000000
2MAIL0000152273BR10        BRNC        BRNCCOCO    BRNCCOCO13AG00000500000000001227735000000000000000200000000000000000000000004150Z01620200406X066000000
1MAIL0000152274BR10        BRNC        BRNCCOCO    BRNCCOCO13AG2020040600:00:00OR  010000052746390005274639152274                             2020040620200406Z016CIF202004060000000000025202NN0                                                  0                                        
2MAIL0000152274BR10        BRNC        BRNCCOCO    BRNCCOCO13AG00000100000000001132033100000000000000400000000000000000000000007424Z01620200406X066000000
2MAIL0000152274BR10        BRNC        BRNCCOCO    BRNCCOCO13AG00000200000000001215533700000000000000200000000000000000000000003712Z01620200406X066000000
2MAIL0000152274BR10        BRNC        BRNCCOCO    BRNCCOCO13AG00000300000000001231389600000000000000200000000000000000000000003712Z01620200406X066000000
2MAIL0000152274BR10        BRNC        BRNCCOCO    BRNCCOCO13AG00000400000000001236512900000000000002000000000000000000000000003321Z01620200406X066000000
2MAIL0000152274BR10        BRNC        BRNCCOCO    BRNCCOCO13AG00000500000000001236515000000000000002000000000000000000000000003321Z01620200406X066000000
2MAIL0000152274BR10        BRNC        BRNCCOCO    BRNCCOCO13AG00000600000000001236898000000000000000200000000000000000000000003712Z01620200406X066000000
1MAIL0000152275BR10        BRNC        BRNCCOCO    BRNCCOCO13AG2020040600:00:00OR  010000029846090002984609152275                             2020040620200406Z016CIF202004060000000000023989NN0                                                  0                                        
2MAIL0000152275BR10        BRNC        BRNCCOCO    BRNCCOCO13AG00000100000000001132033100000000000000100000000000000000000000002291Z01620200406X066000000
2MAIL0000152275BR10        BRNC        BRNCCOCO    BRNCCOCO13AG00000200000000001132036700000000000000200000000000000000000000004581Z01620200406X066000000
2MAIL0000152275BR10        BRNC        BRNCCOCO    BRNCCOCO13AG00000300000000001132200400000000000000100000000000000000000000002230Z01620200406X066000000
2MAIL0000152275BR10        BRNC        BRNCCOCO    BRNCCOCO13AG00000400000000001241623700000000000000600000000000000000000000014887Z01620200406X066000000
1MAIL0000152276BR10        BRNC        BRNCCOCO    BRNCCOCO13AG2020040600:00:00OR  010000060471830006047183152276                             2020040620200406Z016CIF202004060000000000004582NN0                                                  0                                        
2MAIL0000152276BR10        BRNC        BRNCCOCO    BRNCCOCO13AG00000100000000001132033100000000000000100000000000000000000000002291Z01620200406X066000000
2MAIL0000152276BR10        BRNC        BRNCCOCO    BRNCCOCO13AG00000200000000001132036700000000000000100000000000000000000000002291Z01620200406X066000000
1MAIL0000152277BR10        BRNC        BRNCCOCO    BRNCCOCO13AG2020040600:00:00OR  010000052114790005211479152277                             2020040620200406Z016CIF202004060000000000011644NN0                                                  0                                        
2MAIL0000152277BR10        BRNC        BRNCCOCO    BRNCCOCO13AG00000100000000001132033100000000000000100000000000000000000000002291Z01620200406X066000000
2MAIL0000152277BR10        BRNC        BRNCCOCO    BRNCCOCO13AG00000200000000001132036700000000000000200000000000000000000000004581Z01620200406X066000000
2MAIL0000152277BR10        BRNC        BRNCCOCO    BRNCCOCO13AG00000300000000001215533700000000000000100000000000000000000000002291Z01620200406X066000000
2MAIL0000152277BR10        BRNC        BRNCCOCO    BRNCCOCO13AG00000400000000001241623700000000000000100000000000000000000000002481Z01620200406X066000000
1MAIL0000152278BR10        BRNC        BRNCCOCO    BRNCCOCO13AG2020040600:00:00OR  010000029824690002982469152278                             2020040620200406Z016CIF202004060000000000160637NN0                                                  0                                        
2MAIL0000152278BR10        BRNC        BRNCCOCO    BRNCCOCO13AG00000100000000001132019700000000000000100000000000000000000000002076Z01620200406X066000000
2MAIL0000152278BR10        BRNC        BRNCCOCO    BRNCCOCO13AG00000200000000001132019800000000000000100000000000000000000000002076Z01620200406X066000000
2MAIL0000152278BR10        BRNC        BRNCCOCO    BRNCCOCO13AG00000300000000001132019900000000000000100000000000000000000000002076Z01620200406X066000000
2MAIL0000152278BR10        BRNC        BRNCCOCO    BRNCCOCO13AG00000400000000001132020900000000000000100000000000000000000000002076Z01620200406X066000000
2MAIL0000152278BR10        BRNC        BRNCCOCO    BRNCCOCO13AG00000500000000001132033100000000000000600000000000000000000000013746Z01620200406X066000000
2MAIL0000152278BR10        BRNC        BRNCCOCO    BRNCCOCO13AG00000600000000001132036700000000000000600000000000000000000000013746Z01620200406X066000000
2MAIL0000152278BR10        BRNC        BRNCCOCO    BRNCCOCO13AG00000700000000001132200400000000000001500000000000000000000000033450Z01620200406X066000000
2MAIL0000152278BR10        BRNC        BRNCCOCO    BRNCCOCO13AG00000800000000001215533700000000000000300000000000000000000000006872Z01620200406X066000000
2MAIL0000152278BR10        BRNC        BRNCCOCO    BRNCCOCO13AG00000900000000001226089600000000000001200000000000000000000000005045Z01620200406X066000000
2MAIL0000152278BR10        BRNC        BRNCCOCO    BRNCCOCO13AG00001000000000001228512700000000000000100000000000000000000000005568Z01620200406X066000000
2MAIL0000152278BR10        BRNC        BRNCCOCO    BRNCCOCO13AG00001100000000001231189200000000000000100000000000000000000000005568Z01620200406X066000000
2MAIL0000152278BR10        BRNC        BRNCCOCO    BRNCCOCO13AG00001200000000001231231200000000000000100000000000000000000000005568Z01620200406X066000000
2MAIL0000152278BR10        BRNC        BRNCCOCO    BRNCCOCO13AG00001300000000001231233000000000000000100000000000000000000000005568Z01620200406X066000000
2MAIL0000152278BR10        BRNC        BRNCCOCO    BRNCCOCO13AG00001400000000001235699400000000000001000000000000000000000000004211Z01620200406X066000000
2MAIL0000152278BR10        BRNC        BRNCCOCO    BRNCCOCO13AG00001500000000001236512800000000000002400000000000000000000000004576Z01620200406X066000000
2MAIL0000152278BR10        BRNC        BRNCCOCO    BRNCCOCO13AG00001600000000001236512900000000000003500000000000000000000000007014Z01620200406X066000000
2MAIL0000152278BR10        BRNC        BRNCCOCO    BRNCCOCO13AG00001700000000001236515000000000000003500000000000000000000000007014Z01620200406X066000000
2MAIL0000152278BR10        BRNC        BRNCCOCO    BRNCCOCO13AG00001800000000001239688600000000000001400000000000000000000000005885Z01620200406X066000000
2MAIL0000152278BR10        BRNC        BRNCCOCO    BRNCCOCO13AG00001900000000001239688800000000000001400000000000000000000000005885Z01620200406X066000000
2MAIL0000152278BR10        BRNC        BRNCCOCO    BRNCCOCO13AG00002000000000001239692000000000000001400000000000000000000000005885Z01620200406X066000000
2MAIL0000152278BR10        BRNC        BRNCCOCO    BRNCCOCO13AG00002100000000001239692100000000000001400000000000000000000000005885Z01620200406X066000000
2MAIL0000152278BR10        BRNC        BRNCCOCO    BRNCCOCO13AG00002200000000001239692300000000000001400000000000000000000000005885Z01620200406X066000000
2MAIL0000152278BR10        BRNC        BRNCCOCO    BRNCCOCO13AG00002300000000001241623700000000000000200000000000000000000000004962Z01620200406X066000000
1MAIL0000152279BR10        BRNC        BRNCCOCO    BRNCCOCO13AG2020040600:00:00OR  010000046354430004635443152279                             2020040620200406Z016CIF202004060000000000019614NN0                                                  0                                        
2MAIL0000152279BR10        BRNC        BRNCCOCO    BRNCCOCO13AG00000100000000001132018300000000000000100000000000000000000000003435Z01620200406X066003000
2MAIL0000152279BR10        BRNC        BRNCCOCO    BRNCCOCO13AG00000200000000001132019800000000000000100000000000000000000000001914Z01620200406X066003000
2MAIL0000152279BR10        BRNC        BRNCCOCO    BRNCCOCO13AG00000300000000001132033100000000000000100000000000000000000000002113Z01620200406X066003000
2MAIL0000152279BR10        BRNC        BRNCCOCO    BRNCCOCO13AG00000400000000001132036700000000000000100000000000000000000000002113Z01620200406X066003000
2MAIL0000152279BR10        BRNC        BRNCCOCO    BRNCCOCO13AG00000500000000001132200400000000000000100000000000000000000000002056Z01620200406X066003000
2MAIL0000152279BR10        BRNC        BRNCCOCO    BRNCCOCO13AG00000600000000001221415400000000000000100000000000000000000000003435Z01620200406X066003000
2MAIL0000152279BR10        BRNC        BRNCCOCO    BRNCCOCO13AG00000700000000001236512900000000000000500000000000000000000000001017Z01620200406X066003000
2MAIL0000152279BR10        BRNC        BRNCCOCO    BRNCCOCO13AG00000800000000001236515000000000000000500000000000000000000000001017Z01620200406X066003000
2MAIL0000152279BR10        BRNC        BRNCCOCO    BRNCCOCO13AG00000900000000001241623700000000000000100000000000000000000000002514Z01620200406X066003000
1MAIL0000152280BR10        BRNC        BRNCCOCO    BRNCCOCO13AG2020040600:00:00OR  010000034721030003472103152280                             2020040620200406Z016CIF202004060000000000019314NN0                                                  0                                        
2MAIL0000152280BR10        BRNC        BRNCCOCO    BRNCCOCO13AG00000100000000001132018300000000000000100000000000000000000000003436Z01620200406X066003000
2MAIL0000152280BR10        BRNC        BRNCCOCO    BRNCCOCO13AG00000200000000001132019800000000000000100000000000000000000000001908Z01620200406X066003000
2MAIL0000152280BR10        BRNC        BRNCCOCO    BRNCCOCO13AG00000300000000001132033100000000000000100000000000000000000000002108Z01620200406X066003000
2MAIL0000152280BR10        BRNC        BRNCCOCO    BRNCCOCO13AG00000400000000001132036700000000000000100000000000000000000000002108Z01620200406X066003000
2MAIL0000152280BR10        BRNC        BRNCCOCO    BRNCCOCO13AG00000500000000001132200400000000000000100000000000000000000000002052Z01620200406X066003000
2MAIL0000152280BR10        BRNC        BRNCCOCO    BRNCCOCO13AG00000600000000001221415400000000000000100000000000000000000000003436Z01620200406X066003000
2MAIL0000152280BR10        BRNC        BRNCCOCO    BRNCCOCO13AG00000700000000001236512900000000000000500000000000000000000000000879Z01620200406X066003000
2MAIL0000152280BR10        BRNC        BRNCCOCO    BRNCCOCO13AG00000800000000001236515000000000000000500000000000000000000000000879Z01620200406X066003000
2MAIL0000152280BR10        BRNC        BRNCCOCO    BRNCCOCO13AG00000900000000001241623700000000000000100000000000000000000000002508Z01620200406X066003000
1MAIL0000152281BR10        BRNC        BRNCCOCO    BRNCCOCO13AG2020040600:00:00OR  010000029799540002979954152281                             2020040620200406Z016CIF202004060000000000016518NN0                                                  0                                        
2MAIL0000152281BR10        BRNC        BRNCCOCO    BRNCCOCO13AG00000100000000001132019800000000000000100000000000000000000000002012Z01620200406X066003000
2MAIL0000152281BR10        BRNC        BRNCCOCO    BRNCCOCO13AG00000200000000001132033100000000000000100000000000000000000000002223Z01620200406X066003000
2MAIL0000152281BR10        BRNC        BRNCCOCO    BRNCCOCO13AG00000300000000001132036700000000000000100000000000000000000000002223Z01620200406X066003000
2MAIL0000152281BR10        BRNC        BRNCCOCO    BRNCCOCO13AG00000400000000001236512900000000000000500000000000000000000000000973Z01620200406X066003000
2MAIL0000152281BR10        BRNC        BRNCCOCO    BRNCCOCO13AG00000500000000001236515000000000000000500000000000000000000000000973Z01620200406X066003000
2MAIL0000152281BR10        BRNC        BRNCCOCO    BRNCCOCO13AG00000600000000001239688800000000000001400000000000000000000000005708Z01620200406X066003000
2MAIL0000152281BR10        BRNC        BRNCCOCO    BRNCCOCO13AG00000700000000001241623700000000000000100000000000000000000000002406Z01620200406X066003000
1MAIL0000152282BR10        BRNC        BRNCCOCO    BRNCCOCO13AG2020040600:00:00OR  010000055809760005580976152282                             2020040620200406Z016CIF202004060000000000248254NN0                                                  0                                        
2MAIL0000152282BR10        BRNC        BRNCCOCO    BRNCCOCO13AG00000100000000001132019700000000000000400000000000000000000000005563Z01620200406X066000000
2MAIL0000152282BR10        BRNC        BRNCCOCO    BRNCCOCO13AG00000200000000001132019800000000000000400000000000000000000000005563Z01620200406X066000000
2MAIL0000152282BR10        BRNC        BRNCCOCO    BRNCCOCO13AG00000300000000001132019900000000000000400000000000000000000000005563Z01620200406X066000000
2MAIL0000152282BR10        BRNC        BRNCCOCO    BRNCCOCO13AG00000400000000001132020900000000000000400000000000000000000000005563Z01620200406X066000000
2MAIL0000152282BR10        BRNC        BRNCCOCO    BRNCCOCO13AG00000500000000001132036700000000000000800000000000000000000000012215Z01620200406X066000000
2MAIL0000152282BR10        BRNC        BRNCCOCO    BRNCCOCO13AG00000600000000001132200400000000000001500000000000000000000000025786Z01620200406X066000000
2MAIL0000152282BR10        BRNC        BRNCCOCO    BRNCCOCO13AG00000700000000001215533700000000000000700000000000000000000000010688Z01620200406X066000000
2MAIL0000152282BR10        BRNC        BRNCCOCO    BRNCCOCO13AG00000800000000001223975300000000000000800000000000000000000000031194Z01620200406X066000000
2MAIL0000152282BR10        BRNC        BRNCCOCO    BRNCCOCO13AG00000900000000001227735000000000000000400000000000000000000000005563Z01620200406X066000000
2MAIL0000152282BR10        BRNC        BRNCCOCO    BRNCCOCO13AG00001000000000001228274000000000000000800000000000000000000000031194Z01620200406X066000000
2MAIL0000152282BR10        BRNC        BRNCCOCO    BRNCCOCO13AG00001100000000001228512700000000000000800000000000000000000000031194Z01620200406X066000000
2MAIL0000152282BR10        BRNC        BRNCCOCO    BRNCCOCO13AG00001200000000001231231200000000000000800000000000000000000000031194Z01620200406X066000000
2MAIL0000152282BR10        BRNC        BRNCCOCO    BRNCCOCO13AG00001300000000001231233000000000000000800000000000000000000000031194Z01620200406X066000000
2MAIL0000152282BR10        BRNC        BRNCCOCO    BRNCCOCO13AG00001400000000001241623700000000000001000000000000000000000000015780Z01620200406X066000000
