1MAIL0000151582BR10        BRNC        BRNCCOCO    BRNCCOCO13AG2020033000:00:00OR  010000058765920005876592151582                             2020033020200330Z016CIF202003300000000000052321NN0                                                  0                                        
2MAIL0000151582BR10        BRNC        BRNCCOCO    BRNCCOCO13AG00000100000000001132018300000000000000100000000000000000000000003735Z01620200330X066000000
2MAIL0000151582BR10        BRNC        BRNCCOCO    BRNCCOCO13AG00000200000000001132036700000000000000100000000000000000000000002291Z01620200330X066000000
2MAIL0000151582BR10        BRNC        BRNCCOCO    BRNCCOCO13AG00000300000000001132200400000000000000400000000000000000000000008920Z01620200330X066000000
2MAIL0000151582BR10        BRNC        BRNCCOCO    BRNCCOCO13AG00000400000000001231231200000000000000100000000000000000000000005568Z01620200330X066000000
2MAIL0000151582BR10        BRNC        BRNCCOCO    BRNCCOCO13AG00000500000000001231233000000000000000100000000000000000000000005568Z01620200330X066000000
2MAIL0000151582BR10        BRNC        BRNCCOCO    BRNCCOCO13AG00000600000000001236512800000000000002400000000000000000000000004576Z01620200330X066000000
2MAIL0000151582BR10        BRNC        BRNCCOCO    BRNCCOCO13AG00000700000000001236512900000000000001000000000000000000000000002004Z01620200330X066000000
2MAIL0000151582BR10        BRNC        BRNCCOCO    BRNCCOCO13AG00000800000000001236515000000000000001000000000000000000000000002004Z01620200330X066000000
2MAIL0000151582BR10        BRNC        BRNCCOCO    BRNCCOCO13AG00000900000000001239688600000000000001400000000000000000000000005885Z01620200330X066000000
2MAIL0000151582BR10        BRNC        BRNCCOCO    BRNCCOCO13AG00001000000000001239692100000000000001400000000000000000000000005885Z01620200330X066000000
2MAIL0000151582BR10        BRNC        BRNCCOCO    BRNCCOCO13AG00001100000000001239692300000000000001400000000000000000000000005885Z01620200330X066000000
1MAIL0000151583BR10        BRNC        BRNCCOCO    BRNCCOCO13AG2020033000:00:00OR  010000041316190004131619151583                             2020033020200330Z016CIF202003300000000000027259NN0                                                  0                                        
2MAIL0000151583BR10        BRNC        BRNCCOCO    BRNCCOCO13AG00000100000000001132033100000000000000100000000000000000000000002173Z01620200330X066000000
2MAIL0000151583BR10        BRNC        BRNCCOCO    BRNCCOCO13AG00000200000000001132036700000000000000100000000000000000000000002173Z01620200330X066000000
2MAIL0000151583BR10        BRNC        BRNCCOCO    BRNCCOCO13AG00000300000000001215533700000000000000100000000000000000000000002173Z01620200330X066000000
2MAIL0000151583BR10        BRNC        BRNCCOCO    BRNCCOCO13AG00000400000000001236512900000000000001000000000000000000000000001997Z01620200330X066000000
2MAIL0000151583BR10        BRNC        BRNCCOCO    BRNCCOCO13AG00000500000000001236515000000000000001000000000000000000000000001997Z01620200330X066000000
2MAIL0000151583BR10        BRNC        BRNCCOCO    BRNCCOCO13AG00000600000000001239688300000000000001400000000000000000000000005582Z01620200330X066000000
2MAIL0000151583BR10        BRNC        BRNCCOCO    BRNCCOCO13AG00000700000000001239688600000000000001400000000000000000000000005582Z01620200330X066000000
2MAIL0000151583BR10        BRNC        BRNCCOCO    BRNCCOCO13AG00000800000000001239688800000000000001400000000000000000000000005582Z01620200330X066000000
1MAIL0000151584BR10        BRNC        BRNCCOCO    BRNCCOCO13AG2020033000:00:00OR  010000058532360005853236151584                             2020033020200330Z016CIF202003300000000000055098NN0                                                  0                                        
2MAIL0000151584BR10        BRNC        BRNCCOCO    BRNCCOCO13AG00000100000000001132033100000000000000100000000000000000000000002291Z01620200330X066000000
2MAIL0000151584BR10        BRNC        BRNCCOCO    BRNCCOCO13AG00000200000000001132036700000000000000100000000000000000000000002291Z01620200330X066000000
2MAIL0000151584BR10        BRNC        BRNCCOCO    BRNCCOCO13AG00000300000000001236512900000000000001000000000000000000000000002004Z01620200330X066000000
2MAIL0000151584BR10        BRNC        BRNCCOCO    BRNCCOCO13AG00000400000000001236515000000000000001000000000000000000000000002004Z01620200330X066000000
2MAIL0000151584BR10        BRNC        BRNCCOCO    BRNCCOCO13AG00000500000000001239663300000000000001400000000000000000000000005885Z01620200330X066000000
2MAIL0000151584BR10        BRNC        BRNCCOCO    BRNCCOCO13AG00000600000000001239688600000000000001400000000000000000000000005885Z01620200330X066000000
2MAIL0000151584BR10        BRNC        BRNCCOCO    BRNCCOCO13AG00000700000000001239688800000000000001400000000000000000000000005885Z01620200330X066000000
2MAIL0000151584BR10        BRNC        BRNCCOCO    BRNCCOCO13AG00000800000000001241577400000000000003000000000000000000000000028853Z01620200330X066000000
1MAIL0000151585BR10        BRNC        BRNCCOCO    BRNCCOCO13AG2020033000:00:00OR  010000057066750005706675151585                             2020033020200330Z016CIF202003300000000000006880NN0                                                  0                                        
2MAIL0000151585BR10        BRNC        BRNCCOCO    BRNCCOCO13AG00000100000000001132036700000000000000100000000000000000000000002173Z01620200330X066000000
2MAIL0000151585BR10        BRNC        BRNCCOCO    BRNCCOCO13AG00000200000000001132200400000000000000100000000000000000000000002115Z01620200330X066000000
2MAIL0000151585BR10        BRNC        BRNCCOCO    BRNCCOCO13AG00000300000000001241623700000000000000100000000000000000000000002592Z01620200330X066000000
1MAIL0000151586BR10        BRNC        BRNCCOCO    BRNCCOCO13AG2020033000:00:00OR  010000047720990004772099151586                             2020033020200330Z016CIF202003300000000000006164NN0                                                  0                                        
2MAIL0000151586BR10        BRNC        BRNCCOCO    BRNCCOCO13AG00000100000000001132033100000000000000100000000000000000000000002173Z01620200330X066000000
2MAIL0000151586BR10        BRNC        BRNCCOCO    BRNCCOCO13AG00000200000000001132036700000000000000100000000000000000000000002173Z01620200330X066000000
2MAIL0000151586BR10        BRNC        BRNCCOCO    BRNCCOCO13AG00000300000000001236512900000000000000500000000000000000000000000909Z01620200330X066000000
2MAIL0000151586BR10        BRNC        BRNCCOCO    BRNCCOCO13AG00000400000000001236515000000000000000500000000000000000000000000909Z01620200330X066000000
1MAIL0000151587BR10        BRNC        BRNCCOCO    BRNCCOCO13AG2020033000:00:00OR  010000032012660003201266151587                             2020033020200330Z016CIF202003300000000000019324NN0                                                  0                                        
2MAIL0000151587BR10        BRNC        BRNCCOCO    BRNCCOCO13AG00000100000000001132019800000000000000100000000000000000000000001967Z01620200330X066000000
2MAIL0000151587BR10        BRNC        BRNCCOCO    BRNCCOCO13AG00000200000000001132033100000000000000100000000000000000000000002173Z01620200330X066000000
2MAIL0000151587BR10        BRNC        BRNCCOCO    BRNCCOCO13AG00000300000000001132036700000000000000100000000000000000000000002173Z01620200330X066000000
2MAIL0000151587BR10        BRNC        BRNCCOCO    BRNCCOCO13AG00000400000000001215533700000000000000100000000000000000000000002173Z01620200330X066000000
2MAIL0000151587BR10        BRNC        BRNCCOCO    BRNCCOCO13AG00000500000000001227735000000000000000100000000000000000000000001967Z01620200330X066000000
2MAIL0000151587BR10        BRNC        BRNCCOCO    BRNCCOCO13AG00000600000000001236512800000000000000400000000000000000000000000690Z01620200330X066000000
2MAIL0000151587BR10        BRNC        BRNCCOCO    BRNCCOCO13AG00000700000000001236512900000000000001500000000000000000000000002727Z01620200330X066000000
2MAIL0000151587BR10        BRNC        BRNCCOCO    BRNCCOCO13AG00000800000000001236515000000000000003000000000000000000000000005454Z01620200330X066000000
1MAIL0000151588BR10        BRNC        BRNCCOCO    BRNCCOCO13AG2020033000:00:00OR  010000052572800005257280151588                             2020033020200330Z016CIF202003300000000000006872NN0                                                  0                                        
2MAIL0000151588BR10        BRNC        BRNCCOCO    BRNCCOCO13AG00000100000000001132036700000000000000200000000000000000000000004581Z01620200330X066000000
2MAIL0000151588BR10        BRNC        BRNCCOCO    BRNCCOCO13AG00000200000000001215533700000000000000100000000000000000000000002291Z01620200330X066000000
1MAIL0000151589BR10        BRNC        BRNCCOCO    BRNCCOCO13AG2020033000:00:00OR  010000061687700006168770151589                             2020033020200330Z016CIF202003300000000000006355NN0                                                  0                                        
2MAIL0000151589BR10        BRNC        BRNCCOCO    BRNCCOCO13AG00000100000000001132036700000000000000100000000000000000000000002125Z01620200330X066000000
2MAIL0000151589BR10        BRNC        BRNCCOCO    BRNCCOCO13AG00000200000000001132200400000000000000200000000000000000000000004230Z01620200330X066000000
