1MAIL0000151087BR10        BRNC        BRNCCOCO    BRNCCOCO13AG2020032600:00:00OR  010000058595190005859519151087                             2020032620200326Z016CIF202003260000000000061500NN0                                                  0                                        
2MAIL0000151087BR10        BRNC        BRNCCOCO    BRNCCOCO13AG00000100000000001234816400000000000000400000000000000000000000010734Z01620200326X066000000
2MAIL0000151087BR10        BRNC        BRNCCOCO    BRNCCOCO13AG00000200000000001234831400000000000000400000000000000000000000010734Z01620200326X066000000
2MAIL0000151087BR10        BRNC        BRNCCOCO    BRNCCOCO13AG00000300000000001234832000000000000000400000000000000000000000010734Z01620200326X066000000
2MAIL0000151087BR10        BRNC        BRNCCOCO    BRNCCOCO13AG00000400000000001238478300000000000000400000000000000000000000023931Z01620200326X066000000
2MAIL0000151087BR10        BRNC        BRNCCOCO    BRNCCOCO13AG00000500000000001239922200000000000000200000000000000000000000005367Z01620200326X066000000
1MAIL0000151090BR10        BRNC        BRNCCOCO    BRNCCOCO13AG2020032600:00:00OR  010000029839610002983961151090                             2020032620200326Z016CIF202003260000000000242301NN0                                                  0                                        
2MAIL0000151090BR10        BRNC        BRNCCOCO    BRNCCOCO13AG00000100000000001132030800000000000001000000000000000000000000031086Z01620200326X066000000
2MAIL0000151090BR10        BRNC        BRNCCOCO    BRNCCOCO13AG00000200000000001132030900000000000000600000000000000000000000019243Z01620200326X066000000
2MAIL0000151090BR10        BRNC        BRNCCOCO    BRNCCOCO13AG00000300000000001132033100000000000000400000000000000000000000008692Z01620200326X066000000
2MAIL0000151090BR10        BRNC        BRNCCOCO    BRNCCOCO13AG00000400000000001132033900000000000001000000000000000000000000034098Z01620200326X066000000
2MAIL0000151090BR10        BRNC        BRNCCOCO    BRNCCOCO13AG00000500000000001132036700000000000000400000000000000000000000008692Z01620200326X066000000
2MAIL0000151090BR10        BRNC        BRNCCOCO    BRNCCOCO13AG00000600000000001235699400000000000002000000000000000000000000007648Z01620200326X066000000
2MAIL0000151090BR10        BRNC        BRNCCOCO    BRNCCOCO13AG00000700000000001235699700000000000002000000000000000000000000007648Z01620200326X066000000
2MAIL0000151090BR10        BRNC        BRNCCOCO    BRNCCOCO13AG00000800000000001235699800000000000002000000000000000000000000007648Z01620200326X066000000
2MAIL0000151090BR10        BRNC        BRNCCOCO    BRNCCOCO13AG00000900000000001239663300000000000002800000000000000000000000010686Z01620200326X066000000
2MAIL0000151090BR10        BRNC        BRNCCOCO    BRNCCOCO13AG00001000000000001239688300000000000002800000000000000000000000010686Z01620200326X066000000
2MAIL0000151090BR10        BRNC        BRNCCOCO    BRNCCOCO13AG00001100000000001239688500000000000002800000000000000000000000010686Z01620200326X066000000
2MAIL0000151090BR10        BRNC        BRNCCOCO    BRNCCOCO13AG00001200000000001239688700000000000002800000000000000000000000010686Z01620200326X066000000
2MAIL0000151090BR10        BRNC        BRNCCOCO    BRNCCOCO13AG00001300000000001239688800000000000002800000000000000000000000010686Z01620200326X066000000
2MAIL0000151090BR10        BRNC        BRNCCOCO    BRNCCOCO13AG00001400000000001239692000000000000002800000000000000000000000010686Z01620200326X066000000
2MAIL0000151090BR10        BRNC        BRNCCOCO    BRNCCOCO13AG00001500000000001239692100000000000002800000000000000000000000010686Z01620200326X066000000
2MAIL0000151090BR10        BRNC        BRNCCOCO    BRNCCOCO13AG00001600000000001239692300000000000002800000000000000000000000010686Z01620200326X066000000
2MAIL0000151090BR10        BRNC        BRNCCOCO    BRNCCOCO13AG00001700000000001242626100000000000002800000000000000000000000010686Z01620200326X066000000
2MAIL0000151090BR10        BRNC        BRNCCOCO    BRNCCOCO13AG00001800000000001242754900000000000002800000000000000000000000010686Z01620200326X066000000
2MAIL0000151090BR10        BRNC        BRNCCOCO    BRNCCOCO13AG00001900000000001242765000000000000002800000000000000000000000010686Z01620200326X066000000
1MAIL0000151091BR10        BRNC        BRNCCOCO    BRNCCOCO13AG2020032600:00:00OR  010000028484200002848420151091                             2020032620200326Z016CIF202003260000000000015718NN0                                                  0                                        
2MAIL0000151091BR10        BRNC        BRNCCOCO    BRNCCOCO13AG00000100000000001132033100000000000000100000000000000000000000002291Z01620200326X066000000
2MAIL0000151091BR10        BRNC        BRNCCOCO    BRNCCOCO13AG00000200000000001132036700000000000000100000000000000000000000002291Z01620200326X066000000
2MAIL0000151091BR10        BRNC        BRNCCOCO    BRNCCOCO13AG00000300000000001228512700000000000000100000000000000000000000005568Z01620200326X066000000
2MAIL0000151091BR10        BRNC        BRNCCOCO    BRNCCOCO13AG00000400000000001234705800000000000000100000000000000000000000005568Z01620200326X066000000
