1MAIL0000150554BR10        BRNC        BRNCCOCO    BRNCCOCO13AG2020032300:00:00OR  010000056524000005652400150554                             2020032320200323Z016CIF202003230000000000008690NN0                                                  0                                        
2MAIL0000150554BR10        BRNC        BRNCCOCO    BRNCCOCO13AG00000100000000001132033100000000000000200000000000000000000000004345Z01620200323X066000000
2MAIL0000150554BR10        BRNC        BRNCCOCO    BRNCCOCO13AG00000200000000001132036700000000000000200000000000000000000000004345Z01620200323X066000000
1MAIL0000150555BR10        BRNC        BRNCCOCO    BRNCCOCO13AG2020032300:00:00OR  010000029371080002937108150555                             2020032320200323Z016CIF202003230000000000030874NN0                                                  0                                        
2MAIL0000150555BR10        BRNC        BRNCCOCO    BRNCCOCO13AG00000100000000001132018300000000000000200000000000000000000000007082Z01620200323X066000000
2MAIL0000150555BR10        BRNC        BRNCCOCO    BRNCCOCO13AG00000200000000001132019800000000000000100000000000000000000000001967Z01620200323X066000000
2MAIL0000150555BR10        BRNC        BRNCCOCO    BRNCCOCO13AG00000300000000001132033100000000000000100000000000000000000000002173Z01620200323X066000000
2MAIL0000150555BR10        BRNC        BRNCCOCO    BRNCCOCO13AG00000400000000001132036700000000000000200000000000000000000000004345Z01620200323X066000000
2MAIL0000150555BR10        BRNC        BRNCCOCO    BRNCCOCO13AG00000500000000001132200400000000000000200000000000000000000000004230Z01620200323X066000000
2MAIL0000150555BR10        BRNC        BRNCCOCO    BRNCCOCO13AG00000600000000001221415400000000000000200000000000000000000000007082Z01620200323X066000000
2MAIL0000150555BR10        BRNC        BRNCCOCO    BRNCCOCO13AG00000700000000001236515000000000000002000000000000000000000000003995Z01620200323X066000000
1MAIL0000150556BR10        BRNC        BRNCCOCO    BRNCCOCO13AG2020032300:00:00OR  010000037564810003756481150556                             2020032320200323Z016CIF202003230000000000058279NN0                                                  0                                        
2MAIL0000150556BR10        BRNC        BRNCCOCO    BRNCCOCO13AG00000100000000001226089600000000000001200000000000000000000000004480Z01620200323X066000000
2MAIL0000150556BR10        BRNC        BRNCCOCO    BRNCCOCO13AG00000200000000001235699400000000000002000000000000000000000000007481Z01620200323X066000000
2MAIL0000150556BR10        BRNC        BRNCCOCO    BRNCCOCO13AG00000300000000001235699700000000000002000000000000000000000000007481Z01620200323X066000000
2MAIL0000150556BR10        BRNC        BRNCCOCO    BRNCCOCO13AG00000400000000001235699800000000000002000000000000000000000000007481Z01620200323X066000000
2MAIL0000150556BR10        BRNC        BRNCCOCO    BRNCCOCO13AG00000500000000001239688300000000000001400000000000000000000000005226Z01620200323X066000000
2MAIL0000150556BR10        BRNC        BRNCCOCO    BRNCCOCO13AG00000600000000001239688600000000000001400000000000000000000000005226Z01620200323X066000000
2MAIL0000150556BR10        BRNC        BRNCCOCO    BRNCCOCO13AG00000700000000001239688800000000000001400000000000000000000000005226Z01620200323X066000000
2MAIL0000150556BR10        BRNC        BRNCCOCO    BRNCCOCO13AG00000800000000001239692000000000000001400000000000000000000000005226Z01620200323X066000000
2MAIL0000150556BR10        BRNC        BRNCCOCO    BRNCCOCO13AG00000900000000001239692100000000000001400000000000000000000000005226Z01620200323X066000000
2MAIL0000150556BR10        BRNC        BRNCCOCO    BRNCCOCO13AG00001000000000001239692300000000000001400000000000000000000000005226Z01620200323X066000000
1MAIL0000150557BR10        BRNC        BRNCCOCO    BRNCCOCO13AG2020032300:00:00OR  010000044172520004417252150557                             2020032320200323Z016CIF202003230000000000037830NN0                                                  0                                        
2MAIL0000150557BR10        BRNC        BRNCCOCO    BRNCCOCO13AG00000100000000001132033100000000000000300000000000000000000000006872Z01620200323X066000000
2MAIL0000150557BR10        BRNC        BRNCCOCO    BRNCCOCO13AG00000200000000001132036700000000000000400000000000000000000000009163Z01620200323X066000000
2MAIL0000150557BR10        BRNC        BRNCCOCO    BRNCCOCO13AG00000300000000001215533700000000000000200000000000000000000000004581Z01620200323X066000000
2MAIL0000150557BR10        BRNC        BRNCCOCO    BRNCCOCO13AG00000400000000001227395500000000000000200000000000000000000000004581Z01620200323X066000000
2MAIL0000150557BR10        BRNC        BRNCCOCO    BRNCCOCO13AG00000500000000001235699400000000000001000000000000000000000000004211Z01620200323X066000000
2MAIL0000150557BR10        BRNC        BRNCCOCO    BRNCCOCO13AG00000600000000001235699700000000000001000000000000000000000000004211Z01620200323X066000000
2MAIL0000150557BR10        BRNC        BRNCCOCO    BRNCCOCO13AG00000700000000001235699800000000000001000000000000000000000000004211Z01620200323X066000000
1MAIL0000150558BR10        BRNC        BRNCCOCO    BRNCCOCO13AG2020032300:00:00OR  010000045593590004559359150558                             2020032320200323Z016CIF202003230000000000026531NN0                                                  0                                        
2MAIL0000150558BR10        BRNC        BRNCCOCO    BRNCCOCO13AG00000100000000001132036700000000000000300000000000000000000000006872Z01620200323X066000000
2MAIL0000150558BR10        BRNC        BRNCCOCO    BRNCCOCO13AG00000200000000001236515000000000000001000000000000000000000000002004Z01620200323X066000000
2MAIL0000150558BR10        BRNC        BRNCCOCO    BRNCCOCO13AG00000300000000001239688600000000000001400000000000000000000000005885Z01620200323X066000000
2MAIL0000150558BR10        BRNC        BRNCCOCO    BRNCCOCO13AG00000400000000001239688800000000000001400000000000000000000000005885Z01620200323X066000000
2MAIL0000150558BR10        BRNC        BRNCCOCO    BRNCCOCO13AG00000500000000001239692100000000000001400000000000000000000000005885Z01620200323X066000000
1MAIL0000150559BR10        BRNC        BRNCCOCO    BRNCCOCO13AG2020032300:00:00OR  010000029799540002979954150559                             2020032320200323Z016CIF202003230000000000018610NN0                                                  0                                        
2MAIL0000150559BR10        BRNC        BRNCCOCO    BRNCCOCO13AG00000100000000001132033100000000000000100000000000000000000000002291Z01620200323X066000000
2MAIL0000150559BR10        BRNC        BRNCCOCO    BRNCCOCO13AG00000200000000001132036700000000000000100000000000000000000000002291Z01620200323X066000000
2MAIL0000150559BR10        BRNC        BRNCCOCO    BRNCCOCO13AG00000300000000001236512900000000000003500000000000000000000000007014Z01620200323X066000000
2MAIL0000150559BR10        BRNC        BRNCCOCO    BRNCCOCO13AG00000400000000001236515000000000000003500000000000000000000000007014Z01620200323X066000000
1MAIL0000150560BR10        BRNC        BRNCCOCO    BRNCCOCO13AG2020032300:00:00OR  010000029799930002979993150560                             2020032320200323Z016CIF202003230000000000025454NN0                                                  0                                        
2MAIL0000150560BR10        BRNC        BRNCCOCO    BRNCCOCO13AG00000100000000001236512900000000000007000000000000000000000000012727Z01620200323X066000000
2MAIL0000150560BR10        BRNC        BRNCCOCO    BRNCCOCO13AG00000200000000001236515000000000000007000000000000000000000000012727Z01620200323X066000000
1MAIL0000150561BR10        BRNC        BRNCCOCO    BRNCCOCO13AG2020032300:00:00OR  010000050507450005050745150561                             2020032320200323Z016CIF202003230000000000049660NN0                                                  0                                        
2MAIL0000150561BR10        BRNC        BRNCCOCO    BRNCCOCO13AG00000100000000001132036700000000000000500000000000000000000000011454Z01620200323X066000000
2MAIL0000150561BR10        BRNC        BRNCCOCO    BRNCCOCO13AG00000200000000001234705700000000000000100000000000000000000000005568Z01620200323X066000000
2MAIL0000150561BR10        BRNC        BRNCCOCO    BRNCCOCO13AG00000300000000001234705900000000000000100000000000000000000000005568Z01620200323X066000000
2MAIL0000150561BR10        BRNC        BRNCCOCO    BRNCCOCO13AG00000400000000001236512800000000000000800000000000000000000000001526Z01620200323X066000000
2MAIL0000150561BR10        BRNC        BRNCCOCO    BRNCCOCO13AG00000500000000001236512900000000000000500000000000000000000000001002Z01620200323X066000000
2MAIL0000150561BR10        BRNC        BRNCCOCO    BRNCCOCO13AG00000600000000001236515000000000000000500000000000000000000000001002Z01620200323X066000000
2MAIL0000150561BR10        BRNC        BRNCCOCO    BRNCCOCO13AG00000700000000001239663300000000000001400000000000000000000000005885Z01620200323X066000000
2MAIL0000150561BR10        BRNC        BRNCCOCO    BRNCCOCO13AG00000800000000001239688600000000000001400000000000000000000000005885Z01620200323X066000000
2MAIL0000150561BR10        BRNC        BRNCCOCO    BRNCCOCO13AG00000900000000001239688800000000000001400000000000000000000000005885Z01620200323X066000000
2MAIL0000150561BR10        BRNC        BRNCCOCO    BRNCCOCO13AG00001000000000001239692100000000000001400000000000000000000000005885Z01620200323X066000000
1MAIL0000150562BR10        BRNC        BRNCCOCO    BRNCCOCO13AG2020032300:00:00OR  010000038280280003828028150562                             2020032320200323Z016CIF202003230000000000019789NN0                                                  0                                        
2MAIL0000150562BR10        BRNC        BRNCCOCO    BRNCCOCO13AG00000100000000001239373400000000000000100000000000000000000000006952Z01620200323X066000000
2MAIL0000150562BR10        BRNC        BRNCCOCO    BRNCCOCO13AG00000200000000001239373700000000000000100000000000000000000000006952Z01620200323X066000000
2MAIL0000150562BR10        BRNC        BRNCCOCO    BRNCCOCO13AG00000300000000001239692100000000000001400000000000000000000000005885Z01620200323X066000000
1MAIL0000150563BR10        BRNC        BRNCCOCO    BRNCCOCO13AG2020032300:00:00OR  010000052712540005271254150563                             2020032320200323Z016CIF202003230000000000048974NN0                                                  0                                        
2MAIL0000150563BR10        BRNC        BRNCCOCO    BRNCCOCO13AG00000100000000001132019800000000000000100000000000000000000000001498Z01620200323X066000000
2MAIL0000150563BR10        BRNC        BRNCCOCO    BRNCCOCO13AG00000200000000001132033100000000000000200000000000000000000000003307Z01620200323X066000000
2MAIL0000150563BR10        BRNC        BRNCCOCO    BRNCCOCO13AG00000300000000001132036700000000000000500000000000000000000000008268Z01620200323X066000000
2MAIL0000150563BR10        BRNC        BRNCCOCO    BRNCCOCO13AG00000400000000001231231200000000000000100000000000000000000000004437Z01620200323X066000000
2MAIL0000150563BR10        BRNC        BRNCCOCO    BRNCCOCO13AG00000500000000001236512900000000000007000000000000000000000000013390Z01620200323X066000000
2MAIL0000150563BR10        BRNC        BRNCCOCO    BRNCCOCO13AG00000600000000001236515000000000000007000000000000000000000000013390Z01620200323X066000000
2MAIL0000150563BR10        BRNC        BRNCCOCO    BRNCCOCO13AG00000700000000001239688800000000000001400000000000000000000000004684Z01620200323X066000000
1MAIL0000150564BR10        BRNC        BRNCCOCO    BRNCCOCO13AG2020032300:00:00OR  010000053185910005318591150564                             2020032320200323Z016CIF202003230000000000038271NN0                                                  0                                        
2MAIL0000150564BR10        BRNC        BRNCCOCO    BRNCCOCO13AG00000100000000001132033100000000000000300000000000000000000000006872Z01620200323X066000000
2MAIL0000150564BR10        BRNC        BRNCCOCO    BRNCCOCO13AG00000200000000001132036700000000000000300000000000000000000000006872Z01620200323X066000000
2MAIL0000150564BR10        BRNC        BRNCCOCO    BRNCCOCO13AG00000300000000001215533700000000000000300000000000000000000000006872Z01620200323X066000000
2MAIL0000150564BR10        BRNC        BRNCCOCO    BRNCCOCO13AG00000400000000001239688600000000000002800000000000000000000000011770Z01620200323X066000000
2MAIL0000150564BR10        BRNC        BRNCCOCO    BRNCCOCO13AG00000500000000001239692100000000000001400000000000000000000000005885Z01620200323X066000000
1MAIL0000150565BR10        BRNC        BRNCCOCO    BRNCCOCO13AG2020032300:00:00OR  010000061138100006113810150565                             2020032320200323Z016CIF202003230000000000005220NN0                                                  0                                        
2MAIL0000150565BR10        BRNC        BRNCCOCO    BRNCCOCO13AG00000100000000001132033100000000000000100000000000000000000000001654Z01620200323X066000000
2MAIL0000150565BR10        BRNC        BRNCCOCO    BRNCCOCO13AG00000200000000001215533700000000000000100000000000000000000000001654Z01620200323X066000000
2MAIL0000150565BR10        BRNC        BRNCCOCO    BRNCCOCO13AG00000300000000001236512900000000000000500000000000000000000000000956Z01620200323X066000000
2MAIL0000150565BR10        BRNC        BRNCCOCO    BRNCCOCO13AG00000400000000001236515000000000000000500000000000000000000000000956Z01620200323X066000000
1MAIL0000150566BR10        BRNC        BRNCCOCO    BRNCCOCO13AG2020032300:00:00OR  010000057245100005724510150566                             2020032320200323Z016CIF202003230000000000006585NN0                                                  0                                        
2MAIL0000150566BR10        BRNC        BRNCCOCO    BRNCCOCO13AG00000100000000001132036700000000000000200000000000000000000000004581Z01620200323X066000000
2MAIL0000150566BR10        BRNC        BRNCCOCO    BRNCCOCO13AG00000200000000001236512900000000000000500000000000000000000000001002Z01620200323X066000000
2MAIL0000150566BR10        BRNC        BRNCCOCO    BRNCCOCO13AG00000300000000001236515000000000000000500000000000000000000000001002Z01620200323X066000000
1MAIL0000150567BR10        BRNC        BRNCCOCO    BRNCCOCO13AG2020032300:00:00OR  010000061442440006144244150567                             2020032320200323Z016CIF202003230000000000004482NN0                                                  0                                        
2MAIL0000150567BR10        BRNC        BRNCCOCO    BRNCCOCO13AG00000100000000001132033100000000000000100000000000000000000000002241Z01620200323X066000000
2MAIL0000150567BR10        BRNC        BRNCCOCO    BRNCCOCO13AG00000200000000001215533700000000000000100000000000000000000000002241Z01620200323X066000000
1MAIL0000150568BR10        BRNC        BRNCCOCO    BRNCCOCO13AG2020032300:00:00OR  010000042264940004226494150568                             2020032320200323Z016CIF202003230000000000025867NN0                                                  0                                        
2MAIL0000150568BR10        BRNC        BRNCCOCO    BRNCCOCO13AG00000100000000001132036700000000000000400000000000000000000000009163Z01620200323X066000000
2MAIL0000150568BR10        BRNC        BRNCCOCO    BRNCCOCO13AG00000200000000001231189200000000000000100000000000000000000000005568Z01620200323X066000000
2MAIL0000150568BR10        BRNC        BRNCCOCO    BRNCCOCO13AG00000300000000001231231200000000000000100000000000000000000000005568Z01620200323X066000000
2MAIL0000150568BR10        BRNC        BRNCCOCO    BRNCCOCO13AG00000400000000001234705900000000000000100000000000000000000000005568Z01620200323X066000000
1MAIL0000150569BR10        BRNC        BRNCCOCO    BRNCCOCO13AG2020032300:00:00OR  010000059999520005999952150569                             2020032320200323Z016CIF202003230000000000004582NN0                                                  0                                        
2MAIL0000150569BR10        BRNC        BRNCCOCO    BRNCCOCO13AG00000100000000001132033100000000000000100000000000000000000000002291Z01620200323X066000000
2MAIL0000150569BR10        BRNC        BRNCCOCO    BRNCCOCO13AG00000200000000001132036700000000000000100000000000000000000000002291Z01620200323X066000000
1MAIL0000150570BR10        BRNC        BRNCCOCO    BRNCCOCO13AG2020032300:00:00OR  010000049295680004929568150570                             2020032320200323Z016CIF202003230000000000032863NN0                                                  0                                        
2MAIL0000150570BR10        BRNC        BRNCCOCO    BRNCCOCO13AG00000100000000001132018300000000000000100000000000000000000000003541Z01620200323X066000000
2MAIL0000150570BR10        BRNC        BRNCCOCO    BRNCCOCO13AG00000200000000001132019800000000000000100000000000000000000000001973Z01620200323X066000000
2MAIL0000150570BR10        BRNC        BRNCCOCO    BRNCCOCO13AG00000300000000001132033100000000000000200000000000000000000000004357Z01620200323X066000000
2MAIL0000150570BR10        BRNC        BRNCCOCO    BRNCCOCO13AG00000400000000001132036700000000000000200000000000000000000000004357Z01620200323X066000000
2MAIL0000150570BR10        BRNC        BRNCCOCO    BRNCCOCO13AG00000500000000001132200400000000000000200000000000000000000000004241Z01620200323X066000000
2MAIL0000150570BR10        BRNC        BRNCCOCO    BRNCCOCO13AG00000600000000001215533700000000000000200000000000000000000000004357Z01620200323X066000000
2MAIL0000150570BR10        BRNC        BRNCCOCO    BRNCCOCO13AG00000700000000001234705800000000000000100000000000000000000000005845Z01620200323X066000000
2MAIL0000150570BR10        BRNC        BRNCCOCO    BRNCCOCO13AG00000800000000001236512900000000000001000000000000000000000000002096Z01620200323X066000000
2MAIL0000150570BR10        BRNC        BRNCCOCO    BRNCCOCO13AG00000900000000001236515000000000000001000000000000000000000000002096Z01620200323X066000000
