1MAIL0000153041BR10        BRNC        BRNCCOCO    BRNCCOCO13AG2020041400:00:00OR  010000032012660003201266153041                             2020041420200414Z016CIF202004140000000000010686NN0                                                  0                                        
2MAIL0000153041BR10        BRNC        BRNCCOCO    BRNCCOCO13AG00000100000000001239688600000000000001400000000000000000000000005343Z01620200414X066000000
2MAIL0000153041BR10        BRNC        BRNCCOCO    BRNCCOCO13AG00000200000000001239688800000000000001400000000000000000000000005343Z01620200414X066000000
1MAIL0000153042BR10        BRNC        BRNCCOCO    BRNCCOCO13AG2020041400:00:00OR  010000037572950003757295153042                             2020041420200414Z009CIF202004140000000000050052NN0                                                  0                                        
2MAIL0000153042BR10        BRNC        BRNCCOCO    BRNCCOCO13AG00000100000000001132200400000000000000400000000000000000000000008897Z00920200414X066000000
2MAIL0000153042BR10        BRNC        BRNCCOCO    BRNCCOCO13AG00000200000000001241577400000000000003000000000000000000000000028779Z00920200414X066000000
2MAIL0000153042BR10        BRNC        BRNCCOCO    BRNCCOCO13AG00000300000000001241623700000000000000500000000000000000000000012376Z00920200414X066000000
1MAIL0000153043BR10        BRNC        BRNCCOCO    BRNCCOCO13AG2020041400:00:00OR  010000037572950003757295153043                             2020041420200414Z016CIF202004140000000000076032NN0                                                  0                                        
2MAIL0000153043BR10        BRNC        BRNCCOCO    BRNCCOCO13AG00000100000000001132018300000000000000100000000000000000000000003735Z01620200414X066000000
2MAIL0000153043BR10        BRNC        BRNCCOCO    BRNCCOCO13AG00000200000000001132019700000000000000100000000000000000000000002076Z01620200414X066000000
2MAIL0000153043BR10        BRNC        BRNCCOCO    BRNCCOCO13AG00000300000000001132019800000000000000100000000000000000000000002076Z01620200414X066000000
2MAIL0000153043BR10        BRNC        BRNCCOCO    BRNCCOCO13AG00000400000000001132033100000000000000100000000000000000000000002291Z01620200414X066000000
2MAIL0000153043BR10        BRNC        BRNCCOCO    BRNCCOCO13AG00000500000000001132036700000000000000600000000000000000000000013746Z01620200414X066000000
2MAIL0000153043BR10        BRNC        BRNCCOCO    BRNCCOCO13AG00000600000000001215533700000000000000100000000000000000000000002291Z01620200414X066000000
2MAIL0000153043BR10        BRNC        BRNCCOCO    BRNCCOCO13AG00000700000000001223975300000000000000100000000000000000000000005568Z01620200414X066000000
2MAIL0000153043BR10        BRNC        BRNCCOCO    BRNCCOCO13AG00000800000000001226089600000000000001200000000000000000000000005045Z01620200414X066000000
2MAIL0000153043BR10        BRNC        BRNCCOCO    BRNCCOCO13AG00000900000000001231189200000000000000100000000000000000000000005568Z01620200414X066000000
2MAIL0000153043BR10        BRNC        BRNCCOCO    BRNCCOCO13AG00001000000000001235699400000000000001000000000000000000000000004211Z01620200414X066000000
2MAIL0000153043BR10        BRNC        BRNCCOCO    BRNCCOCO13AG00001100000000001239663300000000000001400000000000000000000000005885Z01620200414X066000000
2MAIL0000153043BR10        BRNC        BRNCCOCO    BRNCCOCO13AG00001200000000001239688600000000000001400000000000000000000000005885Z01620200414X066000000
2MAIL0000153043BR10        BRNC        BRNCCOCO    BRNCCOCO13AG00001300000000001239688700000000000001400000000000000000000000005885Z01620200414X066000000
2MAIL0000153043BR10        BRNC        BRNCCOCO    BRNCCOCO13AG00001400000000001239688800000000000001400000000000000000000000005885Z01620200414X066000000
2MAIL0000153043BR10        BRNC        BRNCCOCO    BRNCCOCO13AG00001500000000001239692300000000000001400000000000000000000000005885Z01620200414X066000000
1MAIL0000153044BR10        BRNC        BRNCCOCO    BRNCCOCO13AG2020041400:00:00OR  010000059950080005995008153044                             2020041420200414Z016CIF202004140000000000013923NN0                                                  0                                        
2MAIL0000153044BR10        BRNC        BRNCCOCO    BRNCCOCO13AG00000100000000001132036700000000000000100000000000000000000000002173Z01620200414X066000000
2MAIL0000153044BR10        BRNC        BRNCCOCO    BRNCCOCO13AG00000200000000001215533700000000000000100000000000000000000000002173Z01620200414X066000000
2MAIL0000153044BR10        BRNC        BRNCCOCO    BRNCCOCO13AG00000300000000001235699800000000000001000000000000000000000000003995Z01620200414X066000000
2MAIL0000153044BR10        BRNC        BRNCCOCO    BRNCCOCO13AG00000400000000001239688500000000000001400000000000000000000000005582Z01620200414X066000000
1MAIL0000153045BR10        BRNC        BRNCCOCO    BRNCCOCO13AG2020041400:00:00OR  010000060354680006035468153045                             2020041420200414Z016CIF202004140000000000019509NN0                                                  0                                        
2MAIL0000153045BR10        BRNC        BRNCCOCO    BRNCCOCO13AG00000100000000001132020900000000000000100000000000000000000000002076Z01620200414X066000000
2MAIL0000153045BR10        BRNC        BRNCCOCO    BRNCCOCO13AG00000200000000001132033100000000000000100000000000000000000000002291Z01620200414X066000000
2MAIL0000153045BR10        BRNC        BRNCCOCO    BRNCCOCO13AG00000300000000001132036700000000000000100000000000000000000000002291Z01620200414X066000000
2MAIL0000153045BR10        BRNC        BRNCCOCO    BRNCCOCO13AG00000400000000001236512900000000000000500000000000000000000000001002Z01620200414X066000000
2MAIL0000153045BR10        BRNC        BRNCCOCO    BRNCCOCO13AG00000500000000001236515000000000000000500000000000000000000000001002Z01620200414X066000000
2MAIL0000153045BR10        BRNC        BRNCCOCO    BRNCCOCO13AG00000600000000001239688800000000000001400000000000000000000000005885Z01620200414X066000000
2MAIL0000153045BR10        BRNC        BRNCCOCO    BRNCCOCO13AG00000700000000001241623700000000000000200000000000000000000000004962Z01620200414X066000000
1MAIL0000153046BR10        BRNC        BRNCCOCO    BRNCCOCO13AG2020041400:00:00OR  010000037296790003729679153046                             2020041420200414Z016CIF202004140000000000009122NN0                                                  0                                        
2MAIL0000153046BR10        BRNC        BRNCCOCO    BRNCCOCO13AG00000100000000001241577400000000000001000000000000000000000000009122Z01620200414X066000000
1MAIL0000153047BR10        BRNC        BRNCCOCO    BRNCCOCO13AG2020041400:00:00OR  010000049380870004938087153047                             2020041420200414Z016CIF202004140000000000026518NN0                                                  0                                        
2MAIL0000153047BR10        BRNC        BRNCCOCO    BRNCCOCO13AG00000100000000001132019700000000000000100000000000000000000000002076Z01620200414X066000000
2MAIL0000153047BR10        BRNC        BRNCCOCO    BRNCCOCO13AG00000200000000001132019800000000000000100000000000000000000000002076Z01620200414X066000000
2MAIL0000153047BR10        BRNC        BRNCCOCO    BRNCCOCO13AG00000300000000001132019900000000000000100000000000000000000000002076Z01620200414X066000000
2MAIL0000153047BR10        BRNC        BRNCCOCO    BRNCCOCO13AG00000400000000001132020900000000000000100000000000000000000000002076Z01620200414X066000000
2MAIL0000153047BR10        BRNC        BRNCCOCO    BRNCCOCO13AG00000500000000001132033100000000000000100000000000000000000000002291Z01620200414X066000000
2MAIL0000153047BR10        BRNC        BRNCCOCO    BRNCCOCO13AG00000600000000001132036700000000000000300000000000000000000000006872Z01620200414X066000000
2MAIL0000153047BR10        BRNC        BRNCCOCO    BRNCCOCO13AG00000700000000001228512700000000000000100000000000000000000000005568Z01620200414X066000000
2MAIL0000153047BR10        BRNC        BRNCCOCO    BRNCCOCO13AG00000800000000001236515000000000000000500000000000000000000000001002Z01620200414X066000000
2MAIL0000153047BR10        BRNC        BRNCCOCO    BRNCCOCO13AG00000900000000001241623700000000000000100000000000000000000000002481Z01620200414X066000000
1MAIL0000153048BR10        BRNC        BRNCCOCO    BRNCCOCO13AG2020041400:00:00OR  010000043243270004324327153048                             2020041420200414Z016CIF202004140000000000009736NN0                                                  0                                        
2MAIL0000153048BR10        BRNC        BRNCCOCO    BRNCCOCO13AG00000100000000001239688300000000000001400000000000000000000000004868Z01620200414X066000000
2MAIL0000153048BR10        BRNC        BRNCCOCO    BRNCCOCO13AG00000200000000001239688800000000000001400000000000000000000000004868Z01620200414X066000000
1MAIL0000153049BR10        BRNC        BRNCCOCO    BRNCCOCO13AG2020041400:00:00OR  010000056319220005631922153049                             2020041420200414Z079CIF202004140000000000044178NN0                                                  0                                        
2MAIL0000153049BR10        BRNC        BRNCCOCO    BRNCCOCO13AG00000100000000001132033100000000000000100000000000000000000000002297Z07920200414X066000000
2MAIL0000153049BR10        BRNC        BRNCCOCO    BRNCCOCO13AG00000200000000001132036700000000000000100000000000000000000000002297Z07920200414X066000000
2MAIL0000153049BR10        BRNC        BRNCCOCO    BRNCCOCO13AG00000300000000001215533700000000000000100000000000000000000000002297Z07920200414X066000000
2MAIL0000153049BR10        BRNC        BRNCCOCO    BRNCCOCO13AG00000400000000001239688800000000000001400000000000000000000000005896Z07920200414X066000000
2MAIL0000153049BR10        BRNC        BRNCCOCO    BRNCCOCO13AG00000500000000001241577400000000000003000000000000000000000000028904Z07920200414X066000000
2MAIL0000153049BR10        BRNC        BRNCCOCO    BRNCCOCO13AG00000600000000001241623700000000000000100000000000000000000000002487Z07920200414X066000000
1MAIL0000153050BR10        BRNC        BRNCCOCO    BRNCCOCO13AG2020041400:00:00OR  010000051614550005161455153050                             2020041420200414Z016CIF202004140000000000327734NN0                                                  0                                        
2MAIL0000153050BR10        BRNC        BRNCCOCO    BRNCCOCO13AG00000100000000001132004000000000000001000000000000000000000000009978Z01620200414X066000000
2MAIL0000153050BR10        BRNC        BRNCCOCO    BRNCCOCO13AG00000200000000001132030800000000000000200000000000000000000000006081Z01620200414X066000000
2MAIL0000153050BR10        BRNC        BRNCCOCO    BRNCCOCO13AG00000300000000001132030900000000000000200000000000000000000000006274Z01620200414X066000000
2MAIL0000153050BR10        BRNC        BRNCCOCO    BRNCCOCO13AG00000400000000001132033100000000000000200000000000000000000000004250Z01620200414X066000000
2MAIL0000153050BR10        BRNC        BRNCCOCO    BRNCCOCO13AG00000500000000001132033900000000000000200000000000000000000000006671Z01620200414X066000000
2MAIL0000153050BR10        BRNC        BRNCCOCO    BRNCCOCO13AG00000600000000001132036700000000000001000000000000000000000000021250Z01620200414X066000000
2MAIL0000153050BR10        BRNC        BRNCCOCO    BRNCCOCO13AG00000700000000001132400100000000000000400000000000000000000000011748Z01620200414X066000000
2MAIL0000153050BR10        BRNC        BRNCCOCO    BRNCCOCO13AG00000800000000001215533700000000000000200000000000000000000000004250Z01620200414X066000000
2MAIL0000153050BR10        BRNC        BRNCCOCO    BRNCCOCO13AG00000900000000001221415400000000000000200000000000000000000000006928Z01620200414X066000000
2MAIL0000153050BR10        BRNC        BRNCCOCO    BRNCCOCO13AG00001000000000001223975300000000000000200000000000000000000000009930Z01620200414X066000000
2MAIL0000153050BR10        BRNC        BRNCCOCO    BRNCCOCO13AG00001100000000001228512700000000000000200000000000000000000000009930Z01620200414X066000000
2MAIL0000153050BR10        BRNC        BRNCCOCO    BRNCCOCO13AG00001200000000001231189200000000000000200000000000000000000000009930Z01620200414X066000000
2MAIL0000153050BR10        BRNC        BRNCCOCO    BRNCCOCO13AG00001300000000001231231200000000000000200000000000000000000000009930Z01620200414X066000000
2MAIL0000153050BR10        BRNC        BRNCCOCO    BRNCCOCO13AG00001400000000001231233000000000000000200000000000000000000000009930Z01620200414X066000000
2MAIL0000153050BR10        BRNC        BRNCCOCO    BRNCCOCO13AG00001500000000001231389600000000000000200000000000000000000000004250Z01620200414X066000000
2MAIL0000153050BR10        BRNC        BRNCCOCO    BRNCCOCO13AG00001600000000001234705700000000000000100000000000000000000000004965Z01620200414X066000000
2MAIL0000153050BR10        BRNC        BRNCCOCO    BRNCCOCO13AG00001700000000001234705800000000000000100000000000000000000000004965Z01620200414X066000000
2MAIL0000153050BR10        BRNC        BRNCCOCO    BRNCCOCO13AG00001800000000001234705900000000000000100000000000000000000000004965Z01620200414X066000000
2MAIL0000153050BR10        BRNC        BRNCCOCO    BRNCCOCO13AG00001900000000001235699800000000000003000000000000000000000000011221Z01620200414X066000000
2MAIL0000153050BR10        BRNC        BRNCCOCO    BRNCCOCO13AG00002000000000001236512800000000000001200000000000000000000000002025Z01620200414X066000000
2MAIL0000153050BR10        BRNC        BRNCCOCO    BRNCCOCO13AG00002100000000001236512900000000000002000000000000000000000000003557Z01620200414X066000000
2MAIL0000153050BR10        BRNC        BRNCCOCO    BRNCCOCO13AG00002200000000001236515000000000000003000000000000000000000000005334Z01620200414X066000000
2MAIL0000153050BR10        BRNC        BRNCCOCO    BRNCCOCO13AG00002300000000001238083500000000000000100000000000000000000000004965Z01620200414X066000000
2MAIL0000153050BR10        BRNC        BRNCCOCO    BRNCCOCO13AG00002400000000001239663300000000000002800000000000000000000000010452Z01620200414X066000000
2MAIL0000153050BR10        BRNC        BRNCCOCO    BRNCCOCO13AG00002500000000001239688300000000000002800000000000000000000000010452Z01620200414X066000000
2MAIL0000153050BR10        BRNC        BRNCCOCO    BRNCCOCO13AG00002600000000001239688600000000000002800000000000000000000000010452Z01620200414X066000000
2MAIL0000153050BR10        BRNC        BRNCCOCO    BRNCCOCO13AG00002700000000001239688700000000000002800000000000000000000000010452Z01620200414X066000000
2MAIL0000153050BR10        BRNC        BRNCCOCO    BRNCCOCO13AG00002800000000001239688800000000000002800000000000000000000000010452Z01620200414X066000000
2MAIL0000153050BR10        BRNC        BRNCCOCO    BRNCCOCO13AG00002900000000001239692100000000000002800000000000000000000000010452Z01620200414X066000000
2MAIL0000153050BR10        BRNC        BRNCCOCO    BRNCCOCO13AG00003000000000001239692300000000000001400000000000000000000000005226Z01620200414X066000000
2MAIL0000153050BR10        BRNC        BRNCCOCO    BRNCCOCO13AG00003100000000001241577400000000000009000000000000000000000000076278Z01620200414X066000000
2MAIL0000153050BR10        BRNC        BRNCCOCO    BRNCCOCO13AG00003200000000001242374800000000000000100000000000000000000000004965Z01620200414X066000000
2MAIL0000153050BR10        BRNC        BRNCCOCO    BRNCCOCO13AG00003300000000001242754900000000000001400000000000000000000000005226Z01620200414X066000000
1MAIL0000153051BR10        BRNC        BRNCCOCO    BRNCCOCO13AG2020041400:00:00OR  010000058971650005897165153051                             2020041420200414Z079CIF202004140000000000020957NN0                                                  0                                        
2MAIL0000153051BR10        BRNC        BRNCCOCO    BRNCCOCO13AG00000100000000001132036700000000000000100000000000000000000000002179Z07920200414X066000000
2MAIL0000153051BR10        BRNC        BRNCCOCO    BRNCCOCO13AG00000200000000001223975300000000000000100000000000000000000000005293Z07920200414X066000000
2MAIL0000153051BR10        BRNC        BRNCCOCO    BRNCCOCO13AG00000300000000001231231200000000000000100000000000000000000000005293Z07920200414X066000000
2MAIL0000153051BR10        BRNC        BRNCCOCO    BRNCCOCO13AG00000400000000001239688800000000000001400000000000000000000000005593Z07920200414X066000000
2MAIL0000153051BR10        BRNC        BRNCCOCO    BRNCCOCO13AG00000500000000001241623700000000000000100000000000000000000000002599Z07920200414X066000000
1MAIL0000153052BR10        BRNC        BRNCCOCO    BRNCCOCO13AG2020041400:00:00OR  010000058503020005850302153052                             2020041420200414Z016CIF202004140000000000008507NN0                                                  0                                        
2MAIL0000153052BR10        BRNC        BRNCCOCO    BRNCCOCO13AG00000100000000001132019800000000000000100000000000000000000000001973Z01620200414X066000000
2MAIL0000153052BR10        BRNC        BRNCCOCO    BRNCCOCO13AG00000200000000001132033100000000000000100000000000000000000000002178Z01620200414X066000000
2MAIL0000153052BR10        BRNC        BRNCCOCO    BRNCCOCO13AG00000300000000001132036700000000000000100000000000000000000000002178Z01620200414X066000000
2MAIL0000153052BR10        BRNC        BRNCCOCO    BRNCCOCO13AG00000400000000001215533700000000000000100000000000000000000000002178Z01620200414X066000000
1MAIL0000153053BR10        BRNC        BRNCCOCO    BRNCCOCO13AG2020041400:00:00OR  010000051409180005140918153053                             2020041420200414Z016CIF202004140000000000079803NN0                                                  0                                        
2MAIL0000153053BR10        BRNC        BRNCCOCO    BRNCCOCO13AG00000100000000001132033100000000000000300000000000000000000000006518Z01620200414X066000000
2MAIL0000153053BR10        BRNC        BRNCCOCO    BRNCCOCO13AG00000200000000001132036700000000000000400000000000000000000000008692Z01620200414X066000000
2MAIL0000153053BR10        BRNC        BRNCCOCO    BRNCCOCO13AG00000300000000001132200400000000000000600000000000000000000000012690Z01620200414X066000000
2MAIL0000153053BR10        BRNC        BRNCCOCO    BRNCCOCO13AG00000400000000001226089600000000000002400000000000000000000000009159Z01620200414X066000000
2MAIL0000153053BR10        BRNC        BRNCCOCO    BRNCCOCO13AG00000500000000001239688300000000000001400000000000000000000000005343Z01620200414X066000000
2MAIL0000153053BR10        BRNC        BRNCCOCO    BRNCCOCO13AG00000600000000001239688600000000000001400000000000000000000000005343Z01620200414X066000000
2MAIL0000153053BR10        BRNC        BRNCCOCO    BRNCCOCO13AG00000700000000001239688800000000000002800000000000000000000000010686Z01620200414X066000000
2MAIL0000153053BR10        BRNC        BRNCCOCO    BRNCCOCO13AG00000800000000001239692000000000000001400000000000000000000000005343Z01620200414X066000000
2MAIL0000153053BR10        BRNC        BRNCCOCO    BRNCCOCO13AG00000900000000001239692100000000000002800000000000000000000000010686Z01620200414X066000000
2MAIL0000153053BR10        BRNC        BRNCCOCO    BRNCCOCO13AG00001000000000001239692300000000000001400000000000000000000000005343Z01620200414X066000000
1MAIL0000153054BR10        BRNC        BRNCCOCO    BRNCCOCO13AG2020041400:00:00OR  010000056368500005636850153054                             2020041420200414Z016CIF202004140000000000040560NN0                                                  0                                        
2MAIL0000153054BR10        BRNC        BRNCCOCO    BRNCCOCO13AG00000100000000001132004000000000000000500000000000000000000000005102Z01620200414X066000000
2MAIL0000153054BR10        BRNC        BRNCCOCO    BRNCCOCO13AG00000200000000001132019800000000000000100000000000000000000000001967Z01620200414X066000000
2MAIL0000153054BR10        BRNC        BRNCCOCO    BRNCCOCO13AG00000300000000001132020900000000000000100000000000000000000000001967Z01620200414X066000000
2MAIL0000153054BR10        BRNC        BRNCCOCO    BRNCCOCO13AG00000400000000001231189200000000000000100000000000000000000000005076Z01620200414X066000000
2MAIL0000153054BR10        BRNC        BRNCCOCO    BRNCCOCO13AG00000500000000001231231200000000000000100000000000000000000000005076Z01620200414X066000000
2MAIL0000153054BR10        BRNC        BRNCCOCO    BRNCCOCO13AG00000600000000001239688800000000000002800000000000000000000000010686Z01620200414X066000000
2MAIL0000153054BR10        BRNC        BRNCCOCO    BRNCCOCO13AG00000700000000001239692300000000000002800000000000000000000000010686Z01620200414X066000000
1MAIL0000153055BR10        BRNC        BRNCCOCO    BRNCCOCO13AG2020041400:00:00OR  010000029799260002979926153055                             2020041420200414Z016CIF202004140000000000031340NN0                                                  0                                        
2MAIL0000153055BR10        BRNC        BRNCCOCO    BRNCCOCO13AG00000100000000001239688800000000000001400000000000000000000000005343Z01620200414X066000000
2MAIL0000153055BR10        BRNC        BRNCCOCO    BRNCCOCO13AG00000200000000001241577400000000000003000000000000000000000000025997Z01620200414X066000000
1MAIL0000153056BR10        BRNC        BRNCCOCO    BRNCCOCO13AG2020041400:00:00OR  010000029799700002979970153056                             2020041420200414Z016CIF202004140000000000147968NN0                                                  0                                        
2MAIL0000153056BR10        BRNC        BRNCCOCO    BRNCCOCO13AG00000100000000001132019700000000000000200000000000000000000000003850Z01620200414X066000000
2MAIL0000153056BR10        BRNC        BRNCCOCO    BRNCCOCO13AG00000200000000001132019800000000000000200000000000000000000000003850Z01620200414X066000000
2MAIL0000153056BR10        BRNC        BRNCCOCO    BRNCCOCO13AG00000300000000001132019900000000000000200000000000000000000000003850Z01620200414X066000000
2MAIL0000153056BR10        BRNC        BRNCCOCO    BRNCCOCO13AG00000400000000001132020900000000000000200000000000000000000000003850Z01620200414X066000000
2MAIL0000153056BR10        BRNC        BRNCCOCO    BRNCCOCO13AG00000500000000001132033100000000000000400000000000000000000000008501Z01620200414X066000000
2MAIL0000153056BR10        BRNC        BRNCCOCO    BRNCCOCO13AG00000600000000001132036700000000000000400000000000000000000000008501Z01620200414X066000000
2MAIL0000153056BR10        BRNC        BRNCCOCO    BRNCCOCO13AG00000700000000001132400100000000000000200000000000000000000000005874Z01620200414X066000000
2MAIL0000153056BR10        BRNC        BRNCCOCO    BRNCCOCO13AG00000800000000001215533700000000000000400000000000000000000000008501Z01620200414X066000000
2MAIL0000153056BR10        BRNC        BRNCCOCO    BRNCCOCO13AG00000900000000001223975300000000000000100000000000000000000000004965Z01620200414X066000000
2MAIL0000153056BR10        BRNC        BRNCCOCO    BRNCCOCO13AG00001000000000001227735000000000000000200000000000000000000000003850Z01620200414X066000000
2MAIL0000153056BR10        BRNC        BRNCCOCO    BRNCCOCO13AG00001100000000001231231200000000000000100000000000000000000000004965Z01620200414X066000000
2MAIL0000153056BR10        BRNC        BRNCCOCO    BRNCCOCO13AG00001200000000001231233000000000000000100000000000000000000000004965Z01620200414X066000000
2MAIL0000153056BR10        BRNC        BRNCCOCO    BRNCCOCO13AG00001300000000001234705700000000000000100000000000000000000000004965Z01620200414X066000000
2MAIL0000153056BR10        BRNC        BRNCCOCO    BRNCCOCO13AG00001400000000001234705800000000000000100000000000000000000000004965Z01620200414X066000000
2MAIL0000153056BR10        BRNC        BRNCCOCO    BRNCCOCO13AG00001500000000001236512800000000000000400000000000000000000000000675Z01620200414X066000000
2MAIL0000153056BR10        BRNC        BRNCCOCO    BRNCCOCO13AG00001600000000001236515000000000000000500000000000000000000000000889Z01620200414X066000000
2MAIL0000153056BR10        BRNC        BRNCCOCO    BRNCCOCO13AG00001700000000001236898000000000000000400000000000000000000000008501Z01620200414X066000000
2MAIL0000153056BR10        BRNC        BRNCCOCO    BRNCCOCO13AG00001800000000001239688500000000000002800000000000000000000000010452Z01620200414X066000000
2MAIL0000153056BR10        BRNC        BRNCCOCO    BRNCCOCO13AG00001900000000001239688600000000000002800000000000000000000000010452Z01620200414X066000000
2MAIL0000153056BR10        BRNC        BRNCCOCO    BRNCCOCO13AG00002000000000001239688700000000000002800000000000000000000000010452Z01620200414X066000000
2MAIL0000153056BR10        BRNC        BRNCCOCO    BRNCCOCO13AG00002100000000001239688800000000000002800000000000000000000000010452Z01620200414X066000000
2MAIL0000153056BR10        BRNC        BRNCCOCO    BRNCCOCO13AG00002200000000001239692000000000000002800000000000000000000000010452Z01620200414X066000000
2MAIL0000153056BR10        BRNC        BRNCCOCO    BRNCCOCO13AG00002300000000001242374800000000000000100000000000000000000000004965Z01620200414X066000000
2MAIL0000153056BR10        BRNC        BRNCCOCO    BRNCCOCO13AG00002400000000001242765000000000000001400000000000000000000000005226Z01620200414X066000000
1MAIL0000153057BR10        BRNC        BRNCCOCO    BRNCCOCO13AG2020041400:00:00OR  010000029000590002900059153057                             2020041420200414Z009CIF202004140000000000013973NN0                                                  0                                        
2MAIL0000153057BR10        BRNC        BRNCCOCO    BRNCCOCO13AG00000100000000001236515000000000000007000000000000000000000000013973Z00920200414X066000000
1MAIL0000153058BR10        BRNC        BRNCCOCO    BRNCCOCO13AG2020041400:00:00OR  010000054131230005413123153058                             2020041420200414Z009CIF202004140000000000026803NN0                                                  0                                        
2MAIL0000153058BR10        BRNC        BRNCCOCO    BRNCCOCO13AG00000100000000001132019700000000000000100000000000000000000000001493Z00920200414X066000000
2MAIL0000153058BR10        BRNC        BRNCCOCO    BRNCCOCO13AG00000200000000001132019800000000000000100000000000000000000000001493Z00920200414X066000000
2MAIL0000153058BR10        BRNC        BRNCCOCO    BRNCCOCO13AG00000300000000001132019900000000000000100000000000000000000000001493Z00920200414X066000000
2MAIL0000153058BR10        BRNC        BRNCCOCO    BRNCCOCO13AG00000400000000001132020900000000000000100000000000000000000000001493Z00920200414X066000000
2MAIL0000153058BR10        BRNC        BRNCCOCO    BRNCCOCO13AG00000500000000001132033100000000000000200000000000000000000000003299Z00920200414X066000000
2MAIL0000153058BR10        BRNC        BRNCCOCO    BRNCCOCO13AG00000600000000001132036700000000000000200000000000000000000000003299Z00920200414X066000000
2MAIL0000153058BR10        BRNC        BRNCCOCO    BRNCCOCO13AG00000700000000001132200400000000000000200000000000000000000000004219Z00920200414X066000000
2MAIL0000153058BR10        BRNC        BRNCCOCO    BRNCCOCO13AG00000800000000001215533700000000000000200000000000000000000000003299Z00920200414X066000000
2MAIL0000153058BR10        BRNC        BRNCCOCO    BRNCCOCO13AG00000900000000001227735000000000000000100000000000000000000000001493Z00920200414X066000000
2MAIL0000153058BR10        BRNC        BRNCCOCO    BRNCCOCO13AG00001000000000001236512800000000000000400000000000000000000000000719Z00920200414X066000000
2MAIL0000153058BR10        BRNC        BRNCCOCO    BRNCCOCO13AG00001100000000001236512900000000000001000000000000000000000000001905Z00920200414X066000000
2MAIL0000153058BR10        BRNC        BRNCCOCO    BRNCCOCO13AG00001200000000001236515000000000000001000000000000000000000000001905Z00920200414X066000000
2MAIL0000153058BR10        BRNC        BRNCCOCO    BRNCCOCO13AG00001300000000001240924900000000000000400000000000000000000000000693Z00920200414X066000000
1MAIL0000153059BR10        BRNC        BRNCCOCO    BRNCCOCO13AG2020041400:00:00OR  010000058228200005822820153059                             2020041420200414Z016CIF202004140000000000006615NN0                                                  0                                        
2MAIL0000153059BR10        BRNC        BRNCCOCO    BRNCCOCO13AG00000100000000001132036700000000000000400000000000000000000000006615Z01620200414X066000000
1MAIL0000153060BR10        BRNC        BRNCCOCO    BRNCCOCO13AG2020041400:00:00OR  010000052930530005293053153060                             2020041420200414Z016CIF202004140000000000024677NN0                                                  0                                        
2MAIL0000153060BR10        BRNC        BRNCCOCO    BRNCCOCO13AG00000100000000001132033100000000000000100000000000000000000000001654Z01620200414X066000000
2MAIL0000153060BR10        BRNC        BRNCCOCO    BRNCCOCO13AG00000200000000001132036700000000000000100000000000000000000000001654Z01620200414X066000000
2MAIL0000153060BR10        BRNC        BRNCCOCO    BRNCCOCO13AG00000300000000001132200400000000000000100000000000000000000000002115Z01620200414X066000000
2MAIL0000153060BR10        BRNC        BRNCCOCO    BRNCCOCO13AG00000400000000001231389600000000000000100000000000000000000000001654Z01620200414X066000000
2MAIL0000153060BR10        BRNC        BRNCCOCO    BRNCCOCO13AG00000500000000001236515000000000000000500000000000000000000000000956Z01620200414X066000000
2MAIL0000153060BR10        BRNC        BRNCCOCO    BRNCCOCO13AG00000600000000001239688300000000000001400000000000000000000000004684Z01620200414X066000000
2MAIL0000153060BR10        BRNC        BRNCCOCO    BRNCCOCO13AG00000700000000001239688500000000000001400000000000000000000000004684Z01620200414X066000000
2MAIL0000153060BR10        BRNC        BRNCCOCO    BRNCCOCO13AG00000800000000001239688800000000000001400000000000000000000000004684Z01620200414X066000000
2MAIL0000153060BR10        BRNC        BRNCCOCO    BRNCCOCO13AG00000900000000001241623700000000000000100000000000000000000000002592Z01620200414X066000000
1MAIL0000153061BR10        BRNC        BRNCCOCO    BRNCCOCO13AG2020041400:00:00OR  010000060501730006050173153061                             2020041420200414Z016CIF202004140000000000024262NN0                                                  0                                        
2MAIL0000153061BR10        BRNC        BRNCCOCO    BRNCCOCO13AG00000100000000001132019800000000000000100000000000000000000000001498Z01620200414X066000000
2MAIL0000153061BR10        BRNC        BRNCCOCO    BRNCCOCO13AG00000200000000001132020900000000000000100000000000000000000000001498Z01620200414X066000000
2MAIL0000153061BR10        BRNC        BRNCCOCO    BRNCCOCO13AG00000300000000001132200400000000000000100000000000000000000000002115Z01620200414X066000000
2MAIL0000153061BR10        BRNC        BRNCCOCO    BRNCCOCO13AG00000400000000001226089600000000000001200000000000000000000000004015Z01620200414X066000000
2MAIL0000153061BR10        BRNC        BRNCCOCO    BRNCCOCO13AG00000500000000001227735000000000000000100000000000000000000000001498Z01620200414X066000000
2MAIL0000153061BR10        BRNC        BRNCCOCO    BRNCCOCO13AG00000600000000001236512800000000000000400000000000000000000000000722Z01620200414X066000000
2MAIL0000153061BR10        BRNC        BRNCCOCO    BRNCCOCO13AG00000700000000001236515000000000000000500000000000000000000000000956Z01620200414X066000000
2MAIL0000153061BR10        BRNC        BRNCCOCO    BRNCCOCO13AG00000800000000001239688800000000000001400000000000000000000000004684Z01620200414X066000000
2MAIL0000153061BR10        BRNC        BRNCCOCO    BRNCCOCO13AG00000900000000001239692000000000000001400000000000000000000000004684Z01620200414X066000000
2MAIL0000153061BR10        BRNC        BRNCCOCO    BRNCCOCO13AG00001000000000001241623700000000000000100000000000000000000000002592Z01620200414X066000000
1MAIL0000153062BR10        BRNC        BRNCCOCO    BRNCCOCO13AG2020041400:00:00OR  010000057292740005729274153062                             2020041420200414Z016CIF202004140000000000079468NN0                                                  0                                        
2MAIL0000153062BR10        BRNC        BRNCCOCO    BRNCCOCO13AG00000100000000001132019700000000000000100000000000000000000000002076Z01620200414X066000000
2MAIL0000153062BR10        BRNC        BRNCCOCO    BRNCCOCO13AG00000200000000001132033100000000000000100000000000000000000000002291Z01620200414X066000000
2MAIL0000153062BR10        BRNC        BRNCCOCO    BRNCCOCO13AG00000300000000001132036700000000000000300000000000000000000000006872Z01620200414X066000000
2MAIL0000153062BR10        BRNC        BRNCCOCO    BRNCCOCO13AG00000400000000001132200400000000000000100000000000000000000000002230Z01620200414X066000000
2MAIL0000153062BR10        BRNC        BRNCCOCO    BRNCCOCO13AG00000500000000001215533700000000000000100000000000000000000000002291Z01620200414X066000000
2MAIL0000153062BR10        BRNC        BRNCCOCO    BRNCCOCO13AG00000600000000001226089600000000000001200000000000000000000000005045Z01620200414X066000000
2MAIL0000153062BR10        BRNC        BRNCCOCO    BRNCCOCO13AG00000700000000001227395500000000000000100000000000000000000000002291Z01620200414X066000000
2MAIL0000153062BR10        BRNC        BRNCCOCO    BRNCCOCO13AG00000800000000001231389600000000000000100000000000000000000000002291Z01620200414X066000000
2MAIL0000153062BR10        BRNC        BRNCCOCO    BRNCCOCO13AG00000900000000001235699400000000000001000000000000000000000000004211Z01620200414X066000000
2MAIL0000153062BR10        BRNC        BRNCCOCO    BRNCCOCO13AG00001000000000001235699700000000000001000000000000000000000000004211Z01620200414X066000000
2MAIL0000153062BR10        BRNC        BRNCCOCO    BRNCCOCO13AG00001100000000001235699800000000000001000000000000000000000000004211Z01620200414X066000000
2MAIL0000153062BR10        BRNC        BRNCCOCO    BRNCCOCO13AG00001200000000001236512800000000000000800000000000000000000000001526Z01620200414X066000000
2MAIL0000153062BR10        BRNC        BRNCCOCO    BRNCCOCO13AG00001300000000001236512900000000000002000000000000000000000000004008Z01620200414X066000000
2MAIL0000153062BR10        BRNC        BRNCCOCO    BRNCCOCO13AG00001400000000001236515000000000000002000000000000000000000000004008Z01620200414X066000000
2MAIL0000153062BR10        BRNC        BRNCCOCO    BRNCCOCO13AG00001500000000001239663300000000000001400000000000000000000000005885Z01620200414X066000000
2MAIL0000153062BR10        BRNC        BRNCCOCO    BRNCCOCO13AG00001600000000001239688500000000000001400000000000000000000000005885Z01620200414X066000000
2MAIL0000153062BR10        BRNC        BRNCCOCO    BRNCCOCO13AG00001700000000001239688600000000000001400000000000000000000000005885Z01620200414X066000000
2MAIL0000153062BR10        BRNC        BRNCCOCO    BRNCCOCO13AG00001800000000001239688800000000000001400000000000000000000000005885Z01620200414X066000000
2MAIL0000153062BR10        BRNC        BRNCCOCO    BRNCCOCO13AG00001900000000001239692100000000000001400000000000000000000000005885Z01620200414X066000000
2MAIL0000153062BR10        BRNC        BRNCCOCO    BRNCCOCO13AG00002000000000001241623700000000000000100000000000000000000000002481Z01620200414X066000000
1MAIL0000153063BR10        BRNC        BRNCCOCO    BRNCCOCO13AG2020041400:00:00OR  010000058971320005897132153063                             2020041420200414Z016CIF202004140000000000006872NN0                                                  0                                        
2MAIL0000153063BR10        BRNC        BRNCCOCO    BRNCCOCO13AG00000100000000001132033100000000000000100000000000000000000000002291Z01620200414X066000000
2MAIL0000153063BR10        BRNC        BRNCCOCO    BRNCCOCO13AG00000200000000001132036700000000000000200000000000000000000000004581Z01620200414X066000000
1MAIL0000153064BR10        BRNC        BRNCCOCO    BRNCCOCO13AG2020041400:00:00OR  010000054303680005430368153064                             2020041420200414Z016CIF202004140000000000013754NN0                                                  0                                        
2MAIL0000153064BR10        BRNC        BRNCCOCO    BRNCCOCO13AG00000100000000001132019800000000000000100000000000000000000000001498Z01620200414X066000000
2MAIL0000153064BR10        BRNC        BRNCCOCO    BRNCCOCO13AG00000200000000001132020900000000000000100000000000000000000000001498Z01620200414X066000000
2MAIL0000153064BR10        BRNC        BRNCCOCO    BRNCCOCO13AG00000300000000001132036700000000000000100000000000000000000000001654Z01620200414X066000000
2MAIL0000153064BR10        BRNC        BRNCCOCO    BRNCCOCO13AG00000400000000001235699700000000000001000000000000000000000000003352Z01620200414X066000000
2MAIL0000153064BR10        BRNC        BRNCCOCO    BRNCCOCO13AG00000500000000001235699800000000000001000000000000000000000000003352Z01620200414X066000000
2MAIL0000153064BR10        BRNC        BRNCCOCO    BRNCCOCO13AG00000600000000001236512800000000000000800000000000000000000000001444Z01620200414X066000000
2MAIL0000153064BR10        BRNC        BRNCCOCO    BRNCCOCO13AG00000700000000001236512900000000000000500000000000000000000000000956Z01620200414X066000000
1MAIL0000153065BR10        BRNC        BRNCCOCO    BRNCCOCO13AG2020041400:00:00OR  010000055171000005517100153065                             2020041420200414Z016CIF202004140000000000011081NN0                                                  0                                        
2MAIL0000153065BR10        BRNC        BRNCCOCO    BRNCCOCO13AG00000100000000001132033100000000000000100000000000000000000000002173Z01620200414X066000000
2MAIL0000153065BR10        BRNC        BRNCCOCO    BRNCCOCO13AG00000200000000001132036700000000000000100000000000000000000000002173Z01620200414X066000000
2MAIL0000153065BR10        BRNC        BRNCCOCO    BRNCCOCO13AG00000300000000001215533700000000000000100000000000000000000000002173Z01620200414X066000000
2MAIL0000153065BR10        BRNC        BRNCCOCO    BRNCCOCO13AG00000400000000001241577400000000000000500000000000000000000000004562Z01620200414X066000000
1MAIL0000153066BR10        BRNC        BRNCCOCO    BRNCCOCO13AG2020041400:00:00OR  010000047140350004714035153066                             2020041420200414Z016CIF202004140000000000103072NN0                                                  0                                        
2MAIL0000153066BR10        BRNC        BRNCCOCO    BRNCCOCO13AG00000100000000001132019900000000000000100000000000000000000000001967Z01620200414X066000000
2MAIL0000153066BR10        BRNC        BRNCCOCO    BRNCCOCO13AG00000200000000001132033100000000000000100000000000000000000000002173Z01620200414X066000000
2MAIL0000153066BR10        BRNC        BRNCCOCO    BRNCCOCO13AG00000300000000001132034900000000000000500000000000000000000000011074Z01620200414X066000000
2MAIL0000153066BR10        BRNC        BRNCCOCO    BRNCCOCO13AG00000400000000001132036700000000000000300000000000000000000000006518Z01620200414X066000000
2MAIL0000153066BR10        BRNC        BRNCCOCO    BRNCCOCO13AG00000500000000001132400100000000000000100000000000000000000000003003Z01620200414X066000000
2MAIL0000153066BR10        BRNC        BRNCCOCO    BRNCCOCO13AG00000600000000001215533700000000000000100000000000000000000000002173Z01620200414X066000000
2MAIL0000153066BR10        BRNC        BRNCCOCO    BRNCCOCO13AG00000700000000001221415400000000000000100000000000000000000000003541Z01620200414X066000000
2MAIL0000153066BR10        BRNC        BRNCCOCO    BRNCCOCO13AG00000800000000001227395500000000000000100000000000000000000000002173Z01620200414X066000000
2MAIL0000153066BR10        BRNC        BRNCCOCO    BRNCCOCO13AG00000900000000001227735000000000000000100000000000000000000000001967Z01620200414X066000000
2MAIL0000153066BR10        BRNC        BRNCCOCO    BRNCCOCO13AG00001000000000001228274000000000000000100000000000000000000000005076Z01620200414X066000000
2MAIL0000153066BR10        BRNC        BRNCCOCO    BRNCCOCO13AG00001100000000001231189200000000000000100000000000000000000000005076Z01620200414X066000000
2MAIL0000153066BR10        BRNC        BRNCCOCO    BRNCCOCO13AG00001200000000001234705800000000000000100000000000000000000000005076Z01620200414X066000000
2MAIL0000153066BR10        BRNC        BRNCCOCO    BRNCCOCO13AG00001300000000001236512800000000000001200000000000000000000000002071Z01620200414X066000000
2MAIL0000153066BR10        BRNC        BRNCCOCO    BRNCCOCO13AG00001400000000001236515000000000000001000000000000000000000000001818Z01620200414X066000000
2MAIL0000153066BR10        BRNC        BRNCCOCO    BRNCCOCO13AG00001500000000001239688500000000000001400000000000000000000000005343Z01620200414X066000000
2MAIL0000153066BR10        BRNC        BRNCCOCO    BRNCCOCO13AG00001600000000001239688600000000000001400000000000000000000000005343Z01620200414X066000000
2MAIL0000153066BR10        BRNC        BRNCCOCO    BRNCCOCO13AG00001700000000001239688800000000000001400000000000000000000000005343Z01620200414X066000000
2MAIL0000153066BR10        BRNC        BRNCCOCO    BRNCCOCO13AG00001800000000001239692100000000000001400000000000000000000000005343Z01620200414X066000000
2MAIL0000153066BR10        BRNC        BRNCCOCO    BRNCCOCO13AG00001900000000001240924900000000000001200000000000000000000000001997Z01620200414X066000000
2MAIL0000153066BR10        BRNC        BRNCCOCO    BRNCCOCO13AG00002000000000001241577400000000000003000000000000000000000000025997Z01620200414X066000000
1MAIL0000153067BR10        BRNC        BRNCCOCO    BRNCCOCO13AG2020041400:00:00OR  010000038276210003827621153067                             2020041420200414Z016CIF202004140000000000006355NN0                                                  0                                        
2MAIL0000153067BR10        BRNC        BRNCCOCO    BRNCCOCO13AG00000100000000001132033100000000000000100000000000000000000000002291Z01620200414X066000000
2MAIL0000153067BR10        BRNC        BRNCCOCO    BRNCCOCO13AG00000200000000001224882700000000000000100000000000000000000000003329Z01620200414X066000000
2MAIL0000153067BR10        BRNC        BRNCCOCO    BRNCCOCO13AG00000300000000001240924900000000000000400000000000000000000000000735Z01620200414X066000000
1MAIL0000153068BR10        BRNC        BRNCCOCO    BRNCCOCO13AG2020041400:00:00OR  010000029168560002916856153068                             2020041420200414Z016CIF202004140000000000025997NN0                                                  0                                        
2MAIL0000153068BR10        BRNC        BRNCCOCO    BRNCCOCO13AG00000100000000001241577400000000000003000000000000000000000000025997Z01620200414X066000000
