1MAIL0000150338BR10        BRNC        BRNCCOCO    BRNCCOCO13AG2020031900:00:00OR  010000028650580002865058150338                             2020031920200319Z016CIF202003190000000000048351NN0                                                  0                                        
2MAIL0000150338BR10        BRNC        BRNCCOCO    BRNCCOCO13AG00000100000000001239663300000000000001400000000000000000000000005885Z01620200319X066000000
2MAIL0000150338BR10        BRNC        BRNCCOCO    BRNCCOCO13AG00000200000000001239688300000000000001400000000000000000000000005885Z01620200319X066000000
2MAIL0000150338BR10        BRNC        BRNCCOCO    BRNCCOCO13AG00000300000000001241623700000000000001000000000000000000000000024811Z01620200319X066000000
2MAIL0000150338BR10        BRNC        BRNCCOCO    BRNCCOCO13AG00000400000000001242626100000000000001400000000000000000000000005885Z01620200319X066000000
2MAIL0000150338BR10        BRNC        BRNCCOCO    BRNCCOCO13AG00000500000000001242754900000000000001400000000000000000000000005885Z01620200319X066000000
1MAIL0000150339BR10        BRNC        BRNCCOCO    BRNCCOCO13AG2020031900:00:00OR  010000060888380006088838150339                             2020031920200319Z016CIF202003190000000000244391NN0                                                  0                                        
2MAIL0000150339BR10        BRNC        BRNCCOCO    BRNCCOCO13AG00000100000000001132034900000000000000500000000000000000000000012283Z01620200319X066000000
2MAIL0000150339BR10        BRNC        BRNCCOCO    BRNCCOCO13AG00000200000000001132035100000000000000500000000000000000000000012969Z01620200319X066000000
2MAIL0000150339BR10        BRNC        BRNCCOCO    BRNCCOCO13AG00000300000000001224882700000000000000300000000000000000000000009988Z01620200319X066000000
2MAIL0000150339BR10        BRNC        BRNCCOCO    BRNCCOCO13AG00000400000000001224882800000000000000300000000000000000000000009988Z01620200319X066000000
2MAIL0000150339BR10        BRNC        BRNCCOCO    BRNCCOCO13AG00000500000000001228512700000000000000200000000000000000000000011134Z01620200319X066000000
2MAIL0000150339BR10        BRNC        BRNCCOCO    BRNCCOCO13AG00000600000000001231189200000000000000200000000000000000000000011134Z01620200319X066000000
2MAIL0000150339BR10        BRNC        BRNCCOCO    BRNCCOCO13AG00000700000000001231231200000000000000200000000000000000000000011134Z01620200319X066000000
2MAIL0000150339BR10        BRNC        BRNCCOCO    BRNCCOCO13AG00000800000000001231233000000000000000200000000000000000000000011134Z01620200319X066000000
2MAIL0000150339BR10        BRNC        BRNCCOCO    BRNCCOCO13AG00000900000000001234705700000000000000200000000000000000000000011134Z01620200319X066000000
2MAIL0000150339BR10        BRNC        BRNCCOCO    BRNCCOCO13AG00001000000000001234705800000000000000200000000000000000000000011134Z01620200319X066000000
2MAIL0000150339BR10        BRNC        BRNCCOCO    BRNCCOCO13AG00001100000000001234705900000000000000200000000000000000000000011134Z01620200319X066000000
2MAIL0000150339BR10        BRNC        BRNCCOCO    BRNCCOCO13AG00001200000000001235699400000000000001000000000000000000000000004211Z01620200319X066000000
2MAIL0000150339BR10        BRNC        BRNCCOCO    BRNCCOCO13AG00001300000000001235699700000000000001000000000000000000000000004211Z01620200319X066000000
2MAIL0000150339BR10        BRNC        BRNCCOCO    BRNCCOCO13AG00001400000000001235699800000000000001000000000000000000000000004211Z01620200319X066000000
2MAIL0000150339BR10        BRNC        BRNCCOCO    BRNCCOCO13AG00001500000000001236512800000000000005200000000000000000000000009914Z01620200319X066000000
2MAIL0000150339BR10        BRNC        BRNCCOCO    BRNCCOCO13AG00001600000000001236512900000000000007000000000000000000000000014030Z01620200319X066000000
2MAIL0000150339BR10        BRNC        BRNCCOCO    BRNCCOCO13AG00001700000000001236515000000000000007000000000000000000000000014030Z01620200319X066000000
2MAIL0000150339BR10        BRNC        BRNCCOCO    BRNCCOCO13AG00001800000000001239688600000000000002800000000000000000000000011770Z01620200319X066000000
2MAIL0000150339BR10        BRNC        BRNCCOCO    BRNCCOCO13AG00001900000000001239688800000000000005600000000000000000000000023538Z01620200319X066000000
2MAIL0000150339BR10        BRNC        BRNCCOCO    BRNCCOCO13AG00002000000000001239692000000000000002800000000000000000000000011770Z01620200319X066000000
2MAIL0000150339BR10        BRNC        BRNCCOCO    BRNCCOCO13AG00002100000000001239692100000000000002800000000000000000000000011770Z01620200319X066000000
2MAIL0000150339BR10        BRNC        BRNCCOCO    BRNCCOCO13AG00002200000000001239692300000000000002800000000000000000000000011770Z01620200319X066000000
1MAIL0000150341BR10        BRNC        BRNCCOCO    BRNCCOCO13AG2020031900:00:00OR  010000056295800005629580150341                             2020031920200319Z016CIF202003190000000000022272NN0                                                  0                                        
2MAIL0000150341BR10        BRNC        BRNCCOCO    BRNCCOCO13AG00000100000000001132033100000000000000400000000000000000000000007424Z01620200319X066000000
2MAIL0000150341BR10        BRNC        BRNCCOCO    BRNCCOCO13AG00000200000000001132036700000000000000400000000000000000000000007424Z01620200319X066000000
2MAIL0000150341BR10        BRNC        BRNCCOCO    BRNCCOCO13AG00000300000000001215533700000000000000400000000000000000000000007424Z01620200319X066000000
